{
  "_format": "hh-sol-artifact-1",
  "contractName": "UniV3PairManagerForTest",
  "sourceName": "contracts/for-test/UniV3PairManagerForTest.sol",
  "abi": [
    {
      "inputs": [
        {
          "internalType": "address",
          "name": "_pool",
          "type": "address"
        },
        {
          "internalType": "address",
          "name": "_governance",
          "type": "address"
        }
      ],
      "stateMutability": "nonpayable",
      "type": "constructor"
    },
    {
      "inputs": [],
      "name": "ExcessiveSlippage",
      "type": "error"
    },
    {
      "inputs": [],
      "name": "NoGovernanceZeroAddress",
      "type": "error"
    },
    {
      "inputs": [],
      "name": "OnlyGovernance",
      "type": "error"
    },
    {
      "inputs": [],
      "name": "OnlyPendingGovernance",
      "type": "error"
    },
    {
      "inputs": [],
      "name": "OnlyPool",
      "type": "error"
    },
    {
      "inputs": [],
      "name": "UnsuccessfulTransfer",
      "type": "error"
    },
    {
      "anonymous": false,
      "inputs": [
        {
          "indexed": true,
          "internalType": "address",
          "name": "owner",
          "type": "address"
        },
        {
          "indexed": true,
          "internalType": "address",
          "name": "spender",
          "type": "address"
        },
        {
          "indexed": false,
          "internalType": "uint256",
          "name": "value",
          "type": "uint256"
        }
      ],
      "name": "Approval",
      "type": "event"
    },
    {
      "anonymous": false,
      "inputs": [
        {
          "indexed": false,
          "internalType": "address",
          "name": "_pendingGovernance",
          "type": "address"
        }
      ],
      "name": "GovernanceProposal",
      "type": "event"
    },
    {
      "anonymous": false,
      "inputs": [
        {
          "indexed": false,
          "internalType": "address",
          "name": "_governance",
          "type": "address"
        }
      ],
      "name": "GovernanceSet",
      "type": "event"
    },
    {
      "anonymous": false,
      "inputs": [
        {
          "indexed": true,
          "internalType": "address",
          "name": "from",
          "type": "address"
        },
        {
          "indexed": true,
          "internalType": "address",
          "name": "to",
          "type": "address"
        },
        {
          "indexed": false,
          "internalType": "uint256",
          "name": "value",
          "type": "uint256"
        }
      ],
      "name": "Transfer",
      "type": "event"
    },
    {
      "inputs": [],
      "name": "acceptGovernance",
      "outputs": [],
      "stateMutability": "nonpayable",
      "type": "function"
    },
    {
      "inputs": [
        {
          "internalType": "address",
          "name": "",
          "type": "address"
        },
        {
          "internalType": "address",
          "name": "",
          "type": "address"
        }
      ],
      "name": "allowance",
      "outputs": [
        {
          "internalType": "uint256",
          "name": "",
          "type": "uint256"
        }
      ],
      "stateMutability": "view",
      "type": "function"
    },
    {
      "inputs": [
        {
          "internalType": "address",
          "name": "spender",
          "type": "address"
        },
        {
          "internalType": "uint256",
          "name": "amount",
          "type": "uint256"
        }
      ],
      "name": "approve",
      "outputs": [
        {
          "internalType": "bool",
          "name": "",
          "type": "bool"
        }
      ],
      "stateMutability": "nonpayable",
      "type": "function"
    },
    {
      "inputs": [
        {
          "internalType": "address",
          "name": "",
          "type": "address"
        }
      ],
      "name": "balanceOf",
      "outputs": [
        {
          "internalType": "uint256",
          "name": "",
          "type": "uint256"
        }
      ],
      "stateMutability": "view",
      "type": "function"
    },
    {
      "inputs": [
        {
          "internalType": "uint128",
          "name": "liquidity",
          "type": "uint128"
        },
        {
          "internalType": "uint256",
          "name": "amount0Min",
          "type": "uint256"
        },
        {
          "internalType": "uint256",
          "name": "amount1Min",
          "type": "uint256"
        },
        {
          "internalType": "address",
          "name": "to",
          "type": "address"
        }
      ],
      "name": "burn",
      "outputs": [
        {
          "internalType": "uint256",
          "name": "amount0",
          "type": "uint256"
        },
        {
          "internalType": "uint256",
          "name": "amount1",
          "type": "uint256"
        }
      ],
      "stateMutability": "nonpayable",
      "type": "function"
    },
    {
      "inputs": [],
      "name": "collect",
      "outputs": [
        {
          "internalType": "uint256",
          "name": "amount0",
          "type": "uint256"
        },
        {
          "internalType": "uint256",
          "name": "amount1",
          "type": "uint256"
        }
      ],
      "stateMutability": "nonpayable",
      "type": "function"
    },
    {
      "inputs": [],
      "name": "decimals",
      "outputs": [
        {
          "internalType": "uint8",
          "name": "",
          "type": "uint8"
        }
      ],
      "stateMutability": "view",
      "type": "function"
    },
    {
      "inputs": [],
      "name": "factory",
      "outputs": [
        {
          "internalType": "address",
          "name": "",
          "type": "address"
        }
      ],
      "stateMutability": "view",
      "type": "function"
    },
    {
      "inputs": [],
      "name": "fee",
      "outputs": [
        {
          "internalType": "uint24",
          "name": "",
          "type": "uint24"
        }
      ],
      "stateMutability": "view",
      "type": "function"
    },
    {
      "inputs": [],
      "name": "governance",
      "outputs": [
        {
          "internalType": "address",
          "name": "",
          "type": "address"
        }
      ],
      "stateMutability": "view",
      "type": "function"
    },
    {
      "inputs": [
        {
          "internalType": "uint256",
          "name": "amount0Desired",
          "type": "uint256"
        },
        {
          "internalType": "uint256",
          "name": "amount1Desired",
          "type": "uint256"
        },
        {
          "internalType": "uint256",
          "name": "amount0Min",
          "type": "uint256"
        },
        {
          "internalType": "uint256",
          "name": "amount1Min",
          "type": "uint256"
        }
      ],
      "name": "internalAddLiquidity",
      "outputs": [
        {
          "internalType": "uint128",
          "name": "liquidity",
          "type": "uint128"
        },
        {
          "internalType": "uint256",
          "name": "amount0",
          "type": "uint256"
        },
        {
          "internalType": "uint256",
          "name": "amount1",
          "type": "uint256"
        }
      ],
      "stateMutability": "nonpayable",
      "type": "function"
    },
    {
      "inputs": [
        {
          "internalType": "address",
          "name": "dst",
          "type": "address"
        },
        {
          "internalType": "uint256",
          "name": "amount",
          "type": "uint256"
        }
      ],
      "name": "internalBurn",
      "outputs": [],
      "stateMutability": "nonpayable",
      "type": "function"
    },
    {
      "inputs": [
        {
          "internalType": "address",
          "name": "dst",
          "type": "address"
        },
        {
          "internalType": "uint256",
          "name": "amount",
          "type": "uint256"
        }
      ],
      "name": "internalMint",
      "outputs": [],
      "stateMutability": "nonpayable",
      "type": "function"
    },
    {
      "inputs": [
        {
          "internalType": "address",
          "name": "token",
          "type": "address"
        },
        {
          "internalType": "address",
          "name": "payer",
          "type": "address"
        },
        {
          "internalType": "address",
          "name": "recipient",
          "type": "address"
        },
        {
          "internalType": "uint256",
          "name": "value",
          "type": "uint256"
        }
      ],
      "name": "internalPay",
      "outputs": [],
      "stateMutability": "nonpayable",
      "type": "function"
    },
    {
      "inputs": [
        {
          "internalType": "address",
          "name": "token",
          "type": "address"
        },
        {
          "internalType": "address",
          "name": "from",
          "type": "address"
        },
        {
          "internalType": "address",
          "name": "to",
          "type": "address"
        },
        {
          "internalType": "uint256",
          "name": "value",
          "type": "uint256"
        }
      ],
      "name": "internalSafeTransferFrom",
      "outputs": [],
      "stateMutability": "nonpayable",
      "type": "function"
    },
    {
      "inputs": [
        {
          "internalType": "address",
          "name": "src",
          "type": "address"
        },
        {
          "internalType": "address",
          "name": "dst",
          "type": "address"
        },
        {
          "internalType": "uint256",
          "name": "amount",
          "type": "uint256"
        }
      ],
      "name": "internalTransferTokens",
      "outputs": [],
      "stateMutability": "nonpayable",
      "type": "function"
    },
    {
      "inputs": [
        {
          "internalType": "uint256",
          "name": "amount0Desired",
          "type": "uint256"
        },
        {
          "internalType": "uint256",
          "name": "amount1Desired",
          "type": "uint256"
        },
        {
          "internalType": "uint256",
          "name": "amount0Min",
          "type": "uint256"
        },
        {
          "internalType": "uint256",
          "name": "amount1Min",
          "type": "uint256"
        },
        {
          "internalType": "address",
          "name": "to",
          "type": "address"
        }
      ],
      "name": "mint",
      "outputs": [
        {
          "internalType": "uint128",
          "name": "liquidity",
          "type": "uint128"
        }
      ],
      "stateMutability": "nonpayable",
      "type": "function"
    },
    {
      "inputs": [],
      "name": "name",
      "outputs": [
        {
          "internalType": "string",
          "name": "",
          "type": "string"
        }
      ],
      "stateMutability": "view",
      "type": "function"
    },
    {
      "inputs": [],
      "name": "pendingGovernance",
      "outputs": [
        {
          "internalType": "address",
          "name": "",
          "type": "address"
        }
      ],
      "stateMutability": "view",
      "type": "function"
    },
    {
      "inputs": [],
      "name": "pool",
      "outputs": [
        {
          "internalType": "address",
          "name": "",
          "type": "address"
        }
      ],
      "stateMutability": "view",
      "type": "function"
    },
    {
      "inputs": [],
      "name": "position",
      "outputs": [
        {
          "internalType": "uint128",
          "name": "liquidity",
          "type": "uint128"
        },
        {
          "internalType": "uint256",
          "name": "feeGrowthInside0LastX128",
          "type": "uint256"
        },
        {
          "internalType": "uint256",
          "name": "feeGrowthInside1LastX128",
          "type": "uint256"
        },
        {
          "internalType": "uint128",
          "name": "tokensOwed0",
          "type": "uint128"
        },
        {
          "internalType": "uint128",
          "name": "tokensOwed1",
          "type": "uint128"
        }
      ],
      "stateMutability": "view",
      "type": "function"
    },
    {
      "inputs": [
        {
          "internalType": "address",
          "name": "_governance",
          "type": "address"
        }
      ],
      "name": "setGovernance",
      "outputs": [],
      "stateMutability": "nonpayable",
      "type": "function"
    },
    {
      "inputs": [],
      "name": "sqrtRatioAX96",
      "outputs": [
        {
          "internalType": "uint160",
          "name": "",
          "type": "uint160"
        }
      ],
      "stateMutability": "view",
      "type": "function"
    },
    {
      "inputs": [],
      "name": "sqrtRatioBX96",
      "outputs": [
        {
          "internalType": "uint160",
          "name": "",
          "type": "uint160"
        }
      ],
      "stateMutability": "view",
      "type": "function"
    },
    {
      "inputs": [],
      "name": "symbol",
      "outputs": [
        {
          "internalType": "string",
          "name": "",
          "type": "string"
        }
      ],
      "stateMutability": "view",
      "type": "function"
    },
    {
      "inputs": [],
      "name": "tickLower",
      "outputs": [
        {
          "internalType": "int24",
          "name": "",
          "type": "int24"
        }
      ],
      "stateMutability": "view",
      "type": "function"
    },
    {
      "inputs": [],
      "name": "tickSpacing",
      "outputs": [
        {
          "internalType": "int24",
          "name": "",
          "type": "int24"
        }
      ],
      "stateMutability": "view",
      "type": "function"
    },
    {
      "inputs": [],
      "name": "tickUpper",
      "outputs": [
        {
          "internalType": "int24",
          "name": "",
          "type": "int24"
        }
      ],
      "stateMutability": "view",
      "type": "function"
    },
    {
      "inputs": [],
      "name": "token0",
      "outputs": [
        {
          "internalType": "address",
          "name": "",
          "type": "address"
        }
      ],
      "stateMutability": "view",
      "type": "function"
    },
    {
      "inputs": [],
      "name": "token1",
      "outputs": [
        {
          "internalType": "address",
          "name": "",
          "type": "address"
        }
      ],
      "stateMutability": "view",
      "type": "function"
    },
    {
      "inputs": [],
      "name": "totalSupply",
      "outputs": [
        {
          "internalType": "uint256",
          "name": "",
          "type": "uint256"
        }
      ],
      "stateMutability": "view",
      "type": "function"
    },
    {
      "inputs": [
        {
          "internalType": "address",
          "name": "to",
          "type": "address"
        },
        {
          "internalType": "uint256",
          "name": "amount",
          "type": "uint256"
        }
      ],
      "name": "transfer",
      "outputs": [
        {
          "internalType": "bool",
          "name": "",
          "type": "bool"
        }
      ],
      "stateMutability": "nonpayable",
      "type": "function"
    },
    {
      "inputs": [
        {
          "internalType": "address",
          "name": "from",
          "type": "address"
        },
        {
          "internalType": "address",
          "name": "to",
          "type": "address"
        },
        {
          "internalType": "uint256",
          "name": "amount",
          "type": "uint256"
        }
      ],
      "name": "transferFrom",
      "outputs": [
        {
          "internalType": "bool",
          "name": "",
          "type": "bool"
        }
      ],
      "stateMutability": "nonpayable",
      "type": "function"
    },
    {
      "inputs": [
        {
          "internalType": "uint256",
          "name": "amount0Owed",
          "type": "uint256"
        },
        {
          "internalType": "uint256",
          "name": "amount1Owed",
          "type": "uint256"
        },
        {
          "internalType": "bytes",
          "name": "data",
          "type": "bytes"
        }
      ],
      "name": "uniswapV3MintCallback",
      "outputs": [],
      "stateMutability": "nonpayable",
      "type": "function"
    },
    {
      "stateMutability": "payable",
      "type": "receive"
    }
  ],
  "bytecode": "0x6101c06040523480156200001257600080fd5b506040516200344838038062003448833981016040819052620000359162000a80565b8181806001600160a01b0381166200005f5760405162b293ed60e81b815260040160405180910390fd5b600080546001600160a01b0319166001600160a01b039283161781556040805163ddca3f4360e01b81529051919285169163ddca3f43916004808201926020929091908290030181865afa158015620000bc573d6000803e3d6000fd5b505050506040513d601f19601f82011682018060405250810190620000e2919062000ab8565b90506000836001600160a01b0316630dfe16816040518163ffffffff1660e01b8152600401602060405180830381865afa15801562000125573d6000803e3d6000fd5b505050506040513d601f19601f820116820180604052508101906200014b919062000ae6565b90506000846001600160a01b031663d21220a76040518163ffffffff1660e01b8152600401602060405180830381865afa1580156200018e573d6000803e3d6000fd5b505050506040513d601f19601f82011682018060405250810190620001b4919062000ae6565b90506000856001600160a01b031663d0c93a7c6040518163ffffffff1660e01b8152600401602060405180830381865afa158015620001f7573d6000803e3d6000fd5b505050506040513d601f19601f820116820180604052508101906200021d919062000b04565b905060006200023082620d89e862000b3f565b6200023f90620d89e862000b7a565b905060006200024e8262000bc8565b336080526001600160a01b0389811660e05262ffffff881661010052600285810b6101a05284810b6101805282900b6101605286811660a081905290861660c052604080516395d89b4160e01b8152905192935090916395d89b41916004808201926000929091908290030181865afa158015620002d0573d6000803e3d6000fd5b505050506040513d6000823e601f3d908101601f19168201604052620002fa919081019062000c36565b846001600160a01b03166395d89b416040518163ffffffff1660e01b8152600401600060405180830381865afa15801562000339573d6000803e3d6000fd5b505050506040513d6000823e601f3d908101601f1916820160405262000363919081019062000c36565b6040516020016200037692919062000cee565b604051602081830303815290604052600290805190602001906200039c929190620009bd565b50846001600160a01b03166395d89b416040518163ffffffff1660e01b8152600401600060405180830381865afa158015620003dc573d6000803e3d6000fd5b505050506040513d6000823e601f3d908101601f1916820160405262000406919081019062000c36565b846001600160a01b03166395d89b416040518163ffffffff1660e01b8152600401600060405180830381865afa15801562000445573d6000803e3d6000fd5b505050506040513d6000823e601f3d908101601f191682016040526200046f919081019062000c36565b6040516020016200048292919062000d45565b60405160208183030381529060405260039080519060200190620004a8929190620009bd565b50620004bf816200055860201b620011da1760201c565b6001600160a01b031661012052620004e38262000558602090811b620011da17901c565b6001600160a01b039081166101405260408051606081018252968216808852959091166020870181905262ffffff9790971695018590525050600780546001600160a01b03191690921790915550600880546001600160b81b031916909217600160a01b9091021790555062000e5b92505050565b60008060008360020b1262000571578260020b62000580565b8260020b620005809062000d95565b905062000591620d89e71962000bc8565b60020b811115620005cc5760405162461bcd60e51b81526020600482015260016024820152601560fa1b604482015260640160405180910390fd5b600081600116600003620005e557600160801b620005f7565b6ffffcb933bd6fad37aa2d162d1a5940015b6001600160881b0316905060028216156200062f5760806200062a826ffff97272373d413259a46990580e213a62000db4565b901c90505b60048216156200065c57608062000657826ffff2e50f5f656932ef12357cf3c7fdcc62000db4565b901c90505b60088216156200068957608062000684826fffe5caca7e10e4e61c3624eaa0941cd062000db4565b901c90505b6010821615620006b6576080620006b1826fffcb9843d60f6159c9db58835c92664462000db4565b901c90505b6020821615620006e3576080620006de826fff973b41fa98c081472e6896dfb254c062000db4565b901c90505b6040821615620007105760806200070b826fff2ea16466c96a3843ec78b326b5286162000db4565b901c90505b60808216156200073d57608062000738826ffe5dee046a99a2a811c461f1969c305362000db4565b901c90505b6101008216156200076b57608062000766826ffcbe86c7900a88aedcffc83b479aa3a462000db4565b901c90505b6102008216156200079957608062000794826ff987a7253ac413176f2b074cf7815e5462000db4565b901c90505b610400821615620007c7576080620007c2826ff3392b0822b70005940c7a398e4b70f362000db4565b901c90505b610800821615620007f5576080620007f0826fe7159475a2c29b7443b29c7fa6e889d962000db4565b901c90505b611000821615620008235760806200081e826fd097f3bdfd2022b8845ad8f792aa582562000db4565b901c90505b612000821615620008515760806200084c826fa9f746462d870fdf8a65dc1f90e061e562000db4565b901c90505b6140008216156200087f5760806200087a826f70d869a156d2a1b890bb3df62baf32f762000db4565b901c90505b618000821615620008ad576080620008a8826f31be135f97d08fd981231505542fcfa662000db4565b901c90505b62010000821615620008dc576080620008d7826f09aa508b5b7a84e1c677de54f3e99bc962000db4565b901c90505b620200008216156200090a57608062000905826e5d6af8dedb81196699c329225ee60462000db4565b901c90505b620400008216156200093757608062000932826d2216e584f5fa1ea926041bedfe9862000db4565b901c90505b62080000821615620009625760806200095d826b048a170391f7dc42444e8fa262000db4565b901c90505b60008460020b131562000980576200097d8160001962000dd6565b90505b620009916401000000008262000ded565b156200099f576001620009a2565b60005b620009b59060ff16602083901c62000e04565b949350505050565b828054620009cb9062000e1f565b90600052602060002090601f016020900481019282620009ef576000855562000a3a565b82601f1062000a0a57805160ff191683800117855562000a3a565b8280016001018555821562000a3a579182015b8281111562000a3a57825182559160200191906001019062000a1d565b5062000a4892915062000a4c565b5090565b5b8082111562000a48576000815560010162000a4d565b80516001600160a01b038116811462000a7b57600080fd5b919050565b6000806040838503121562000a9457600080fd5b62000a9f8362000a63565b915062000aaf6020840162000a63565b90509250929050565b60006020828403121562000acb57600080fd5b815162ffffff8116811462000adf57600080fd5b9392505050565b60006020828403121562000af957600080fd5b62000adf8262000a63565b60006020828403121562000b1757600080fd5b81518060020b811462000adf57600080fd5b634e487b7160e01b600052601260045260246000fd5b60008260020b8062000b555762000b5562000b29565b808360020b0791505092915050565b634e487b7160e01b600052601160045260246000fd5b60008160020b8360020b6000811281627fffff190183128115161562000ba45762000ba462000b64565b81627fffff01831381161562000bbe5762000bbe62000b64565b5090039392505050565b60008160020b627fffff19810362000be45762000be462000b64565b60000392915050565b634e487b7160e01b600052604160045260246000fd5b60005b8381101562000c2057818101518382015260200162000c06565b8381111562000c30576000848401525b50505050565b60006020828403121562000c4957600080fd5b81516001600160401b038082111562000c6157600080fd5b818401915084601f83011262000c7657600080fd5b81518181111562000c8b5762000c8b62000bed565b604051601f8201601f19908116603f0116810190838211818310171562000cb65762000cb662000bed565b8160405282815287602084870101111562000cd057600080fd5b62000ce383602083016020880162000c03565b979650505050505050565b6a025b2b2b819b926281016960ad1b81526000835162000d1681600b85016020880162000c03565b602f60f81b600b91840191820152835162000d3981600c84016020880162000c03565b01600c01949350505050565b636b4c502d60e01b81526000835162000d6681600485016020880162000c03565b602f60f81b600491840191820152835162000d8981600584016020880162000c03565b01600501949350505050565b6000600160ff1b820162000dad5762000dad62000b64565b5060000390565b600081600019048311821515161562000dd15762000dd162000b64565b500290565b60008262000de85762000de862000b29565b500490565b60008262000dff5762000dff62000b29565b500690565b6000821982111562000e1a5762000e1a62000b64565b500190565b600181811c9082168062000e3457607f821691505b60208210810362000e5557634e487b7160e01b600052602260045260246000fd5b50919050565b60805160a05160c05160e05161010051610120516101405161016051610180516101a0516124c962000f7f60003960006106ae015260008181610457015281816108cf01528181610cdf01528181610e27015281816110010152818161114a015261197901526000818161049e015281816108a401528181610cb401528181610e0501528181610fd6015281816111280152611957015260008181610625015261186f01526000818161039c015261184e0152600061076e01526000818161030d0152818161090a01528181610d2301528181610dd601528181610ece01528181610f2101528181610f5f01528181611036015281816110f5015281816117c00152611926015260006106e2015260006102c1015260006105f101526124c96000f3fe6080604052600436106101fd5760003560e01c806395d89b411161010d578063cf51148d116100a0578063dd62ed3e1161006f578063dd62ed3e14610724578063ddca3f431461075c578063e5225381146107a4578063eaf00b23146107b9578063f39c38a0146107d957600080fd5b8063cf51148d14610667578063d0c93a7c1461069c578063d21220a7146106d0578063d34879971461070457600080fd5b8063ab033ea9116100dc578063ab033ea9146105bf578063c45a0155146105df578063c627526114610613578063cf45affb1461064757600080fd5b806395d89b411461050d578063a3e6dc2814610522578063a5dc7d4d1461055a578063a9059cbb1461059f57600080fd5b80632ea28f5b116101905780634c0549b01161015f5780634c0549b01461042557806355b812a81461044557806359c4f9051461048c5780635aa6e675146104c057806370a08231146104e057600080fd5b80632ea28f5b1461038a578063313ce567146103be57806335001a1a146103e55780633a323bdf1461040557600080fd5b806316f0115b116101cc57806316f0115b146102fb57806318160ddd1461032f578063238efcbc1461035357806323b872dd1461036a57600080fd5b806306fdde031461020957806309218e9114610234578063095ea7b31461027f5780630dfe1681146102af57600080fd5b3661020457005b600080fd5b34801561021557600080fd5b5061021e6107f9565b60405161022b9190611d9e565b60405180910390f35b34801561024057600080fd5b50610249610887565b604080516001600160801b039687168152602081019590955284019290925283166060830152909116608082015260a00161022b565b34801561028b57600080fd5b5061029f61029a366004611dc9565b6109ba565b604051901515815260200161022b565b3480156102bb57600080fd5b506102e37f000000000000000000000000000000000000000000000000000000000000000081565b6040516001600160a01b03909116815260200161022b565b34801561030757600080fd5b506102e37f000000000000000000000000000000000000000000000000000000000000000081565b34801561033b57600080fd5b5061034560045481565b60405190815260200161022b565b34801561035f57600080fd5b50610368610a26565b005b34801561037657600080fd5b5061029f610385366004611df5565b610aaf565b34801561039657600080fd5b506102e37f000000000000000000000000000000000000000000000000000000000000000081565b3480156103ca57600080fd5b506103d3601281565b60405160ff909116815260200161022b565b3480156103f157600080fd5b50610368610400366004611dc9565b610b78565b34801561041157600080fd5b50610368610420366004611dc9565b610b86565b34801561043157600080fd5b50610368610440366004611e36565b610b90565b34801561045157600080fd5b506104797f000000000000000000000000000000000000000000000000000000000000000081565b60405160029190910b815260200161022b565b34801561049857600080fd5b506104797f000000000000000000000000000000000000000000000000000000000000000081565b3480156104cc57600080fd5b506000546102e3906001600160a01b031681565b3480156104ec57600080fd5b506103456104fb366004611e87565b60066020526000908152604090205481565b34801561051957600080fd5b5061021e610ba2565b34801561052e57600080fd5b5061054261053d366004611ea4565b610baf565b6040516001600160801b03909116815260200161022b565b34801561056657600080fd5b5061057a610575366004611ef1565b610bdf565b604080516001600160801b03909416845260208401929092529082015260600161022b565b3480156105ab57600080fd5b5061029f6105ba366004611dc9565b610c00565b3480156105cb57600080fd5b506103686105da366004611e87565b610c16565b3480156105eb57600080fd5b506102e37f000000000000000000000000000000000000000000000000000000000000000081565b34801561061f57600080fd5b506102e37f000000000000000000000000000000000000000000000000000000000000000081565b34801561065357600080fd5b50610368610662366004611df5565b610c95565b34801561067357600080fd5b50610687610682366004611f38565b610ca5565b6040805192835260208301919091520161022b565b3480156106a857600080fd5b506104797f000000000000000000000000000000000000000000000000000000000000000081565b3480156106dc57600080fd5b506102e37f000000000000000000000000000000000000000000000000000000000000000081565b34801561071057600080fd5b5061036861071f366004611f82565b610eb3565b34801561073057600080fd5b5061034561073f366004612002565b600560209081526000928352604080842090915290825290205481565b34801561076857600080fd5b506107907f000000000000000000000000000000000000000000000000000000000000000081565b60405162ffffff909116815260200161022b565b3480156107b057600080fd5b50610687610f8b565b3480156107c557600080fd5b506103686107d4366004611e36565b6111ce565b3480156107e557600080fd5b506001546102e3906001600160a01b031681565b600280546108069061203b565b80601f01602080910402602001604051908101604052809291908181526020018280546108329061203b565b801561087f5780601f106108545761010080835404028352916020019161087f565b820191906000526020600020905b81548152906001019060200180831161086257829003601f168201915b505050505081565b6040516bffffffffffffffffffffffff193060601b1660208201527f000000000000000000000000000000000000000000000000000000000000000060e890811b60348301527f0000000000000000000000000000000000000000000000000000000000000000901b603782015260009081908190819081906001600160a01b037f0000000000000000000000000000000000000000000000000000000000000000169063514ea4bf90603a01604051602081830303815290604052805190602001206040518263ffffffff1660e01b815260040161096891815260200190565b60a060405180830381865afa158015610985573d6000803e3d6000fd5b505050506040513d601f19601f820116820180604052508101906109a99190612075565b939992985090965094509092509050565b3360008181526005602090815260408083206001600160a01b038716808552925280832085905551919290917f8c5be1e5ebec7d5bd14f71427d1e84f3dd0314c0f7b2291e5b200ac8c7c3b92590610a159086815260200190565b60405180910390a350600192915050565b6001546001600160a01b03163314610a5157604051637ef5703160e11b815260040160405180910390fd5b60018054600080546001600160a01b0383166001600160a01b031991821681179092559091169091556040519081527fc73be659241aade67e9a059bcf21494955018b213dbd1179054ccf928b13f3b69060200160405180910390a1565b6001600160a01b038316600081815260056020908152604080832033808552925282205491929091908214801590610ae957506000198114155b15610b5f576000610afa85836120df565b6001600160a01b038881166000818152600560209081526040808320948916808452948252918290208590559051848152939450919290917f8c5be1e5ebec7d5bd14f71427d1e84f3dd0314c0f7b2291e5b200ac8c7c3b925910160405180910390a3505b610b6a8686866115fe565b6001925050505b9392505050565b610b8282826116ac565b5050565b610b828282611736565b610b9c848484846111ce565b50505050565b600380546108069061203b565b6000610bbd868686866117b8565b50909150610bd69050826001600160801b0383166116ac565b95945050505050565b6000806000610bf0878787876117b8565b9250925092509450945094915050565b6000610c0d3384846115fe565b50600192915050565b6000546001600160a01b03163314610c41576040516354348f0360e01b815260040160405180910390fd5b600180546001600160a01b0319166001600160a01b0383169081179091556040519081527fe987aaedf9d279143bdf1eee16cf1d0feb47742867d81083df8d6cd0a5ac857f9060200160405180910390a150565b610ca08383836115fe565b505050565b60405163a34123a760e01b81527f0000000000000000000000000000000000000000000000000000000000000000600290810b60048301527f0000000000000000000000000000000000000000000000000000000000000000900b60248201526001600160801b038516604482015260009081906001600160a01b037f0000000000000000000000000000000000000000000000000000000000000000169063a34123a79060640160408051808303816000875af1158015610d6b573d6000803e3d6000fd5b505050506040513d601f19601f82011682018060405250810190610d8f91906120f6565b909250905084821080610da157508381105b15610dbf576040516397c7f53760e01b815260040160405180910390fd5b6040516309e3d67b60e31b81526001600160a01b037f00000000000000000000000000000000000000000000000000000000000000001690634f1eb3d890610e539086907f0000000000000000000000000000000000000000000000000000000000000000907f0000000000000000000000000000000000000000000000000000000000000000908890889060040161211a565b60408051808303816000875af1158015610e71573d6000803e3d6000fd5b505050506040513d601f19601f82011682018060405250810190610e959190612157565b5050610eaa33876001600160801b0316611736565b94509492505050565b6000610ec1828401846121bd565b9050336001600160a01b037f00000000000000000000000000000000000000000000000000000000000000001614610f0c57604051634b60273560e01b815260040160405180910390fd5b8415610f46578051516020820151610f4691907f0000000000000000000000000000000000000000000000000000000000000000886111ce565b8315610f8457610f8481600001516020015182602001517f0000000000000000000000000000000000000000000000000000000000000000876111ce565b5050505050565b6000805481906001600160a01b03163314610fb9576040516354348f0360e01b815260040160405180910390fd5b6040516bffffffffffffffffffffffff193060601b1660208201527f000000000000000000000000000000000000000000000000000000000000000060e890811b60348301527f0000000000000000000000000000000000000000000000000000000000000000901b603782015260009081906001600160a01b037f0000000000000000000000000000000000000000000000000000000000000000169063514ea4bf90603a01604051602081830303815290604052805190602001206040518263ffffffff1660e01b815260040161109491815260200190565b60a060405180830381865afa1580156110b1573d6000803e3d6000fd5b505050506040513d601f19601f820116820180604052508101906110d59190612075565b6000546040516309e3d67b60e31b81529297509095506001600160a01b037f000000000000000000000000000000000000000000000000000000000000000081169550634f1eb3d89450611176935016907f0000000000000000000000000000000000000000000000000000000000000000907f0000000000000000000000000000000000000000000000000000000000000000908890889060040161211a565b60408051808303816000875af1158015611194573d6000803e3d6000fd5b505050506040513d601f19601f820116820180604052508101906111b89190612157565b6001600160801b03918216969116945092505050565b610b9c84848484611a21565b60008060008360020b126111f1578260020b6111fe565b8260020b6111fe90612278565b905061120d620d89e719612294565b60020b8111156112475760405162461bcd60e51b81526020600482015260016024820152601560fa1b604482015260640160405180910390fd5b60008160011660000361125e57600160801b611270565b6ffffcb933bd6fad37aa2d162d1a5940015b70ffffffffffffffffffffffffffffffffff16905060028216156112af5760806112aa826ffff97272373d413259a46990580e213a6122b6565b901c90505b60048216156112d95760806112d4826ffff2e50f5f656932ef12357cf3c7fdcc6122b6565b901c90505b60088216156113035760806112fe826fffe5caca7e10e4e61c3624eaa0941cd06122b6565b901c90505b601082161561132d576080611328826fffcb9843d60f6159c9db58835c9266446122b6565b901c90505b6020821615611357576080611352826fff973b41fa98c081472e6896dfb254c06122b6565b901c90505b604082161561138157608061137c826fff2ea16466c96a3843ec78b326b528616122b6565b901c90505b60808216156113ab5760806113a6826ffe5dee046a99a2a811c461f1969c30536122b6565b901c90505b6101008216156113d65760806113d1826ffcbe86c7900a88aedcffc83b479aa3a46122b6565b901c90505b6102008216156114015760806113fc826ff987a7253ac413176f2b074cf7815e546122b6565b901c90505b61040082161561142c576080611427826ff3392b0822b70005940c7a398e4b70f36122b6565b901c90505b610800821615611457576080611452826fe7159475a2c29b7443b29c7fa6e889d96122b6565b901c90505b61100082161561148257608061147d826fd097f3bdfd2022b8845ad8f792aa58256122b6565b901c90505b6120008216156114ad5760806114a8826fa9f746462d870fdf8a65dc1f90e061e56122b6565b901c90505b6140008216156114d85760806114d3826f70d869a156d2a1b890bb3df62baf32f76122b6565b901c90505b6180008216156115035760806114fe826f31be135f97d08fd981231505542fcfa66122b6565b901c90505b6201000082161561152f57608061152a826f09aa508b5b7a84e1c677de54f3e99bc96122b6565b901c90505b6202000082161561155a576080611555826e5d6af8dedb81196699c329225ee6046122b6565b901c90505b6204000082161561158457608061157f826d2216e584f5fa1ea926041bedfe986122b6565b901c90505b620800008216156115ac5760806115a7826b048a170391f7dc42444e8fa26122b6565b901c90505b60008460020b13156115c7576115c4816000196122eb565b90505b6115d6640100000000826122ff565b156115e25760016115e5565b60005b6115f69060ff16602083901c612313565b949350505050565b6001600160a01b038316600090815260066020526040812080548392906116269084906120df565b90915550506001600160a01b03821660009081526006602052604081208054839290611653908490612313565b92505081905550816001600160a01b0316836001600160a01b03167fddf252ad1be2c89b69c2b068fc378daa952ba7f163c4a11628f55a4df523b3ef8360405161169f91815260200190565b60405180910390a3505050565b80600460008282546116be9190612313565b90915550506001600160a01b038216600090815260066020526040812080548392906116eb908490612313565b90915550506040518181526001600160a01b038316906000907fddf252ad1be2c89b69c2b068fc378daa952ba7f163c4a11628f55a4df523b3ef906020015b60405180910390a35050565b806004600082825461174891906120df565b90915550506001600160a01b038216600090815260066020526040812080548392906117759084906120df565b90915550506040518181526000906001600160a01b038416907fddf252ad1be2c89b69c2b068fc378daa952ba7f163c4a11628f55a4df523b3ef9060200161172a565b6000806000807f00000000000000000000000000000000000000000000000000000000000000006001600160a01b0316633850c7bd6040518163ffffffff1660e01b815260040160e060405180830381865afa15801561181c573d6000803e3d6000fd5b505050506040513d601f19601f82011682018060405250810190611840919061234d565b5050505050509050611895817f00000000000000000000000000000000000000000000000000000000000000007f00000000000000000000000000000000000000000000000000000000000000008b8b611b1b565b6040805160a080820183526007546001600160a01b039081168385018181526008548084166060808801918252600160a01b90920462ffffff9081166080808a01918252948952336020998a019081528a51998a019690965291518616888a01529051169086015290518216848201528451808503909101815291830193849052633c8a7d8d60e01b9093529296507f000000000000000000000000000000000000000000000000000000000000000090911691633c8a7d8d916119a49130917f0000000000000000000000000000000000000000000000000000000000000000917f0000000000000000000000000000000000000000000000000000000000000000918b919060a4016123e7565b60408051808303816000875af11580156119c2573d6000803e3d6000fd5b505050506040513d601f19601f820116820180604052508101906119e691906120f6565b9093509150858310806119f857508482105b15611a16576040516397c7f53760e01b815260040160405180910390fd5b509450945094915050565b604080516001600160a01b0385811660248301528481166044830152606480830185905283518084039091018152608490920183526020820180516001600160e01b03166323b872dd60e01b1790529151600092839290881691611a859190612434565b6000604051808303816000865af19150503d8060008114611ac2576040519150601f19603f3d011682016040523d82523d6000602084013e611ac7565b606091505b5091509150811580611af55750805115801590611af5575080806020019051810190611af39190612450565b155b15611b13576040516316369daf60e31b815260040160405180910390fd5b505050505050565b6000836001600160a01b0316856001600160a01b03161115611b3b579293925b846001600160a01b0316866001600160a01b031611611b6657611b5f858585611bdd565b9050610bd6565b836001600160a01b0316866001600160a01b03161015611bc8576000611b8d878686611bdd565b90506000611b9c878986611c47565b9050806001600160801b0316826001600160801b031610611bbd5780611bbf565b815b92505050610bd6565b611bd3858584611c47565b9695505050505050565b6000826001600160a01b0316846001600160a01b03161115611bfd579192915b6000611c20856001600160a01b0316856001600160a01b0316600160601b611c7d565b9050610bd6611c428483611c34898961246b565b6001600160a01b0316611c7d565b611d2b565b6000826001600160a01b0316846001600160a01b03161115611c67579192915b6115f6611c4283600160601b611c34888861246b565b6000808060001985870985870292508281108382030391505080600003611cb65760008411611cab57600080fd5b508290049050610b71565b808411611cc257600080fd5b60008486880960026001871981018816978890046003810283188082028403028082028403028082028403028082028403028082028403029081029092039091026000889003889004909101858311909403939093029303949094049190911702949350505050565b806001600160801b0381168114611d4157600080fd5b919050565b60005b83811015611d61578181015183820152602001611d49565b83811115610b9c5750506000910152565b60008151808452611d8a816020860160208601611d46565b601f01601f19169290920160200192915050565b602081526000610b716020830184611d72565b6001600160a01b0381168114611dc657600080fd5b50565b60008060408385031215611ddc57600080fd5b8235611de781611db1565b946020939093013593505050565b600080600060608486031215611e0a57600080fd5b8335611e1581611db1565b92506020840135611e2581611db1565b929592945050506040919091013590565b60008060008060808587031215611e4c57600080fd5b8435611e5781611db1565b93506020850135611e6781611db1565b92506040850135611e7781611db1565b9396929550929360600135925050565b600060208284031215611e9957600080fd5b8135610b7181611db1565b600080600080600060a08688031215611ebc57600080fd5b853594506020860135935060408601359250606086013591506080860135611ee381611db1565b809150509295509295909350565b60008060008060808587031215611f0757600080fd5b5050823594602084013594506040840135936060013592509050565b6001600160801b0381168114611dc657600080fd5b60008060008060808587031215611f4e57600080fd5b8435611f5981611f23565b935060208501359250604085013591506060850135611f7781611db1565b939692955090935050565b60008060008060608587031215611f9857600080fd5b8435935060208501359250604085013567ffffffffffffffff80821115611fbe57600080fd5b818701915087601f830112611fd257600080fd5b813581811115611fe157600080fd5b886020828501011115611ff357600080fd5b95989497505060200194505050565b6000806040838503121561201557600080fd5b823561202081611db1565b9150602083013561203081611db1565b809150509250929050565b600181811c9082168061204f57607f821691505b60208210810361206f57634e487b7160e01b600052602260045260246000fd5b50919050565b600080600080600060a0868803121561208d57600080fd5b855161209881611f23565b80955050602086015193506040860151925060608601516120b881611f23565b6080870151909250611ee381611f23565b634e487b7160e01b600052601160045260246000fd5b6000828210156120f1576120f16120c9565b500390565b6000806040838503121561210957600080fd5b505080516020909101519092909150565b6001600160a01b03959095168552600293840b60208601529190920b60408401526001600160801b03918216606084015216608082015260a00190565b6000806040838503121561216a57600080fd5b825161217581611f23565b602084015190925061203081611f23565b6040516060810167ffffffffffffffff811182821017156121b757634e487b7160e01b600052604160045260246000fd5b60405290565b600081830360808112156121d057600080fd5b6040516040810181811067ffffffffffffffff8211171561220157634e487b7160e01b600052604160045260246000fd5b604052606082121561221257600080fd5b61221a612186565b9150833561222781611db1565b8252602084013561223781611db1565b6020830152604084013562ffffff8116811461225257600080fd5b604083015290815260608301359061226982611db1565b60208101919091529392505050565b6000600160ff1b820161228d5761228d6120c9565b5060000390565b60008160020b627fffff1981036122ad576122ad6120c9565b60000392915050565b60008160001904831182151516156122d0576122d06120c9565b500290565b634e487b7160e01b600052601260045260246000fd5b6000826122fa576122fa6122d5565b500490565b60008261230e5761230e6122d5565b500690565b60008219821115612326576123266120c9565b500190565b805161ffff81168114611d4157600080fd5b80518015158114611d4157600080fd5b600080600080600080600060e0888a03121561236857600080fd5b875161237381611db1565b8097505060208801518060020b811461238b57600080fd5b95506123996040890161232b565b94506123a76060890161232b565b93506123b56080890161232b565b925060a088015160ff811681146123cb57600080fd5b91506123d960c0890161233d565b905092959891949750929550565b60018060a01b03861681528460020b60208201528360020b60408201526001600160801b038316606082015260a06080820152600061242960a0830184611d72565b979650505050505050565b60008251612446818460208701611d46565b9190910192915050565b60006020828403121561246257600080fd5b610b718261233d565b60006001600160a01b038381169083168181101561248b5761248b6120c9565b03939250505056fea264697066735822122055b60512601f5ec6c74ccc6e8d76a358a0622e80ef22b58e02d9a0490516162f64736f6c634300080e0033",
  "linkReferences": {},
  "deployedLinkReferences": {}
}