{"contracts/research/SimpleExpRewardNovel.sol":{"SimpleExpRewardNovel":{"abi":[{"inputs":[{"internalType":"address","name":"_analyticMath","type":"address"}],"stateMutability":"nonpayable","type":"constructor"},{"anonymous":false,"inputs":[{"indexed":true,"internalType":"address","name":"previousOwner","type":"address"},{"indexed":true,"internalType":"address","name":"newOwner","type":"address"}],"name":"OwnershipTransferred","type":"event"},{"inputs":[],"name":"DECIMALS","outputs":[{"internalType":"uint8","name":"","type":"uint8"}],"stateMutability":"view","type":"function"},{"inputs":[],"name":"INITIAL_SUPPLY","outputs":[{"internalType":"uint256","name":"","type":"uint256"}],"stateMutability":"view","type":"function"},{"inputs":[],"name":"MAX_SUPPLY","outputs":[{"internalType":"uint256","name":"","type":"uint256"}],"stateMutability":"view","type":"function"},{"inputs":[{"internalType":"address","name":"_owner","type":"address"},{"internalType":"address","name":"_spender","type":"address"},{"internalType":"uint256","name":"subtractedValue","type":"uint256"}],"name":"_decreaseAllowance","outputs":[{"internalType":"bool","name":"","type":"bool"}],"stateMutability":"nonpayable","type":"function"},{"inputs":[{"internalType":"address","name":"_owner","type":"address"},{"internalType":"address","name":"_spender","type":"address"}],"name":"allowance","outputs":[{"internalType":"uint256","name":"","type":"uint256"}],"stateMutability":"view","type":"function"},{"inputs":[{"internalType":"address","name":"spender","type":"address"},{"internalType":"uint256","name":"amount","type":"uint256"}],"name":"approve","outputs":[{"internalType":"bool","name":"","type":"bool"}],"stateMutability":"nonpayable","type":"function"},{"inputs":[{"internalType":"address","name":"account","type":"address"}],"name":"balanceOf","outputs":[{"internalType":"uint256","name":"","type":"uint256"}],"stateMutability":"view","type":"function"},{"inputs":[{"internalType":"address","name":"from","type":"address"},{"internalType":"uint256","name":"amount","type":"uint256"}],"name":"burn","outputs":[],"stateMutability":"nonpayable","type":"function"},{"inputs":[],"name":"checkForConsistency","outputs":[{"internalType":"uint256","name":"pending_collective","type":"uint256"},{"internalType":"uint256","name":"pending_marginal","type":"uint256"},{"internalType":"uint256","name":"abs_error","type":"uint256"},{"internalType":"uint256","name":"error_rate","type":"uint256"}],"stateMutability":"view","type":"function"},{"inputs":[],"name":"decimals","outputs":[{"internalType":"uint8","name":"","type":"uint8"}],"stateMutability":"view","type":"function"},{"inputs":[{"internalType":"address","name":"spender","type":"address"},{"internalType":"uint256","name":"subtractedValue","type":"uint256"}],"name":"decreaseAllowance","outputs":[{"internalType":"bool","name":"","type":"bool"}],"stateMutability":"nonpayable","type":"function"},{"inputs":[],"name":"getTotalState","outputs":[{"internalType":"uint256","name":"totalSupply","type":"uint256"},{"internalType":"uint256","name":"_latestNet","type":"uint256"},{"internalType":"uint256","name":"_VIRTUAL","type":"uint256"},{"internalType":"uint256","name":"nowBlock","type":"uint256"},{"internalType":"uint256","name":"_totalPendingReward","type":"uint256"},{"internalType":"uint256","name":"_burnDone","type":"uint256"}],"stateMutability":"view","type":"function"},{"inputs":[{"internalType":"address","name":"user","type":"address"}],"name":"getUserState","outputs":[{"internalType":"uint256","name":"_share","type":"uint256"},{"internalType":"uint256","name":"_VIRTUAL","type":"uint256"},{"internalType":"uint256","name":"nowBlock","type":"uint256"},{"internalType":"uint256","name":"_userPendingReward","type":"uint256"},{"internalType":"uint256","name":"_latestBlock","type":"uint256"}],"stateMutability":"view","type":"function"},{"inputs":[{"internalType":"address","name":"spender","type":"address"},{"internalType":"uint256","name":"addedValue","type":"uint256"}],"name":"increaseAllowance","outputs":[{"internalType":"bool","name":"","type":"bool"}],"stateMutability":"nonpayable","type":"function"},{"inputs":[{"internalType":"address","name":"to","type":"address"},{"internalType":"uint256","name":"amount","type":"uint256"}],"name":"mint","outputs":[],"stateMutability":"nonpayable","type":"function"},{"inputs":[],"name":"name","outputs":[{"internalType":"string","name":"","type":"string"}],"stateMutability":"view","type":"function"},{"inputs":[],"name":"owner","outputs":[{"internalType":"address","name":"","type":"address"}],"stateMutability":"view","type":"function"},{"inputs":[],"name":"renounceOwnership","outputs":[],"stateMutability":"nonpayable","type":"function"},{"inputs":[],"name":"symbol","outputs":[{"internalType":"string","name":"","type":"string"}],"stateMutability":"view","type":"function"},{"inputs":[],"name":"totalSupply","outputs":[{"internalType":"uint256","name":"","type":"uint256"}],"stateMutability":"view","type":"function"},{"inputs":[{"internalType":"address","name":"recipient","type":"address"},{"internalType":"uint256","name":"amount","type":"uint256"}],"name":"transfer","outputs":[{"internalType":"bool","name":"","type":"bool"}],"stateMutability":"nonpayable","type":"function"},{"inputs":[{"internalType":"address","name":"sender","type":"address"},{"internalType":"address","name":"recipient","type":"address"},{"internalType":"uint256","name":"amount","type":"uint256"}],"name":"transferFrom","outputs":[{"internalType":"bool","name":"","type":"bool"}],"stateMutability":"nonpayable","type":"function"},{"inputs":[{"internalType":"address","name":"newOwner","type":"address"}],"name":"transferOwnership","outputs":[],"stateMutability":"nonpayable","type":"function"}],"devdoc":{"kind":"dev","methods":{"owner()":{"details":"Returns the address of the current owner."},"renounceOwnership()":{"details":"Leaves the contract without owner. It will not be possible to call `onlyOwner` functions anymore. Can only be called by the current owner. NOTE: Renouncing ownership will leave the contract without an owner, thereby removing any functionality that is only available to the owner."},"transferOwnership(address)":{"details":"Transfers ownership of the contract to a new account (`newOwner`). Can only be called by the current owner."}},"version":1},"evm":{"bytecode":{"linkReferences":{},"object":"60806040523480156200001157600080fd5b5060405162002256380380620022568339810160408190526200003491620008a1565b6200003f33620000fb565b600c80546001600160a01b0383166001600160a01b031991821617909155436004556006805482167370997970c51812dc3a010c7d01b50e0d17dc79c8179055600780548216733c44cdddb6a900fa2b585dd299e03d12fa4293bc179055600880549091167390f79bf6eb2c4f870365e785982e1f101e93b906179055620000f4620000d36000546001600160a01b031690565b620000e160126006620008e2565b620000ee90600a62000a07565b6200014b565b5062000b02565b600080546001600160a01b038381166001600160a01b0319831681178455604051919092169283917f8be0079c531659141344cd1fd0a4f28419497f9722a3daafe3b4186f6b6457e09190a35050565b60408051808201909152600c81526b5a65726f206164647265737360a01b60208201526001600160a01b038316620001a15760405162461bcd60e51b815260040162000198919062000a18565b60405180910390fd5b50620001b082826001620001b4565b5050565b6001600160a01b0383166000908152600260205260408120546009805491929091620001e290849062000a70565b90915550506001600160a01b038316600090815260056020526040812060020154600a8054919290916200021890849062000a70565b90915550600090506200022b84620004ad565b90508015620002aa576001600160a01b038416600090815260056020526040812080548392906200025e90849062000a8a565b9250508190555080600b600082825462000279919062000a8a565b90915550506004546200028d904362000a70565b6001600160a01b0385166000908152600560205260409020600101555b811562000302576001600160a01b03841660009081526002602052604081208054859290620002db90849062000a8a565b925050819055508260036000828254620002f6919062000a8a565b909155506200034d9050565b6001600160a01b038416600090815260026020526040812080548592906200032c90849062000a70565b92505081905550826003600082825462000347919062000a70565b90915550505b6001600160a01b03808516600090815260056020526040812060010154600c549092829116635aff34dc620186a0620003896103098262000a8a565b6040516001600160e01b031960e085901b1681526004810192909252602482015260448101869052600a60648201526084016040805180830381865afa158015620003d8573d6000803e3d6000fd5b505050506040513d601f19601f82011682018060405250810190620003fe919062000aa5565b91509150600062000441600260008a6001600160a01b03166001600160a01b03168152602001908152602001600020548484620005dd60201b620008fd1760201c565b6001600160a01b038916600090815260056020908152604080832060029081018590559091528120546009805493945090929091906200048390849062000a8a565b9250508190555080600a60008282546200049e919062000a8a565b90915550505050505050505050565b6001600160a01b038116600090815260056020526040812060010154600454829190620004db904362000a70565b620004e7919062000a70565b600c5490915060009081906001600160a01b0316635aff34dc62000511610309620186a062000a8a565b6040516001600160e01b031960e084901b1681526004810191909152620186a0602482015260448101869052600a60648201526084016040805180830381865afa15801562000564573d6000803e3d6000fd5b505050506040513d601f19601f820116820180604052508101906200058a919062000aa5565b6001600160a01b03871660009081526002602090815260408220549395509193509190620005c790829086908690620008fd620005dd821b17901c565b620005d3919062000a70565b9695505050505050565b600080620005ed85858562000625565b90506000620005fe8686866200071b565b11156200061b576200061281600162000739565b9150506200061e565b90505b9392505050565b6000808062000635868662000750565b91509150816000036200065f5783818162000654576200065462000aca565b04925050506200061e565b8382101562000716576000620006778787876200071b565b905060008062000689858585620007a4565b9150915081600003620006b657868181620006a857620006a862000aca565b04955050505050506200061e565b600087620006c58282620007da565b1690506000620006d7848484620007e8565b90506000620006f8838b81620006f157620006f162000aca565b046200083f565b905062000706828262000884565b985050505050505050506200061e565b600080fd5b600081806200072e576200072e62000aca565b838509949350505050565b600062000747828462000a8a565b90505b92915050565b6000808062000760858562000892565b9050600062000770868662000884565b9050808210620007885790819003925090506200079d565b6001620007968383620007da565b0393509150505b9250929050565b600080828410620007bc5750839050818303620007d2565b6000198501620007cd8585620007da565b915091505b935093915050565b600062000747828462000a70565b6000806200081483620007fc8382620007da565b816200080c576200080c62000aca565b506000919050565b905082848162000828576200082862000aca565b0462000835868362000884565b1795945050505050565b60006001815b60088110156200087d5762000872826200086c600262000866838962000884565b620007da565b62000884565b915060010162000845565b5092915050565b600062000747828462000ae0565b60006000198284099392505050565b600060208284031215620008b457600080fd5b81516001600160a01b03811681146200061e57600080fd5b634e487b7160e01b600052601160045260246000fd5b600060ff821660ff84168060ff03821115620009025762000902620008cc565b019392505050565b600181815b808511156200094b5781600019048211156200092f576200092f620008cc565b808516156200093d57918102915b93841c93908002906200090f565b509250929050565b60008262000964575060016200074a565b8162000973575060006200074a565b81600181146200098c57600281146200099757620009b7565b60019150506200074a565b60ff841115620009ab57620009ab620008cc565b50506001821b6200074a565b5060208310610133831016604e8410600b8410161715620009dc575081810a6200074a565b620009e883836200090a565b8060001904821115620009ff57620009ff620008cc565b029392505050565b60006200074760ff84168362000953565b600060208083528351808285015260005b8181101562000a475785810183015185820160400152820162000a29565b8181111562000a5a576000604083870101525b50601f01601f1916929092016040019392505050565b60008282101562000a855762000a85620008cc565b500390565b6000821982111562000aa05762000aa0620008cc565b500190565b6000806040838503121562000ab957600080fd5b505080516020909101519092909150565b634e487b7160e01b600052601260045260246000fd5b600081600019048311821515161562000afd5762000afd620008cc565b500290565b6117448062000b126000396000f3fe608060405234801561001057600080fd5b506004361061014d5760003560e01c806370a08231116100c3578063a150da2a1161007c578063a150da2a14610306578063a457c2d714610319578063a9059cbb1461032c578063bdfeb1e51461033f578063dd62ed3e14610374578063f2fde38b146103ad57600080fd5b806370a0823114610274578063715018a614610287578063739572891461028f5780638da5cb5b146102b757806395d89b41146102d25780639dc29fac146102f357600080fd5b80632ff2e9dc116101155780632ff2e9dc146101fa578063313ce5671461020257806332cb6b0c14610209578063395093511461021157806340c10f1914610224578063416ae7681461023957600080fd5b806306fdde0314610152578063095ea7b31461019457806318160ddd146101b757806323b872dd146101cd5780632e0f2625146101e0575b600080fd5b60408051808201909152601481527314da5b5c1b19515e1c14995dd85c99139bdd995b60621b60208201525b60405161018b91906113dc565b60405180910390f35b6101a76101a236600461144d565b6103c0565b604051901515815260200161018b565b6101bf6103d7565b60405190815260200161018b565b6101a76101db366004611477565b6103e7565b6101e8601281565b60405160ff909116815260200161018b565b6101bf61048a565b60126101e8565b6101bf6104a4565b6101a761021f36600461144d565b6104c7565b61023761023236600461144d565b6104d4565b005b61024c6102473660046114b3565b610585565b604080519586526020860194909452928401919091526060830152608082015260a00161018b565b6101bf6102823660046114b3565b6105f6565b610237610614565b61029761064a565b60408051948552602085019390935291830152606082015260800161018b565b6000546040516001600160a01b03909116815260200161018b565b60408051808201909152600581526429a2a92ba760d91b602082015261017e565b61023761030136600461144d565b610752565b6101a7610314366004611477565b610786565b6101a761032736600461144d565b610812565b6101a761033a36600461144d565b61081f565b61034761082c565b604080519687526020870195909552938501929092526060840152608083015260a082015260c00161018b565b6101bf6103823660046114ce565b6001600160a01b03918216600090815260016020908152604080832093909416825291909152205490565b6102376103bb3660046114b3565b610862565b60006103cd33848461093b565b5060015b92915050565b60006103e260035490565b905090565b60006001600160a01b0384163314610474576001600160a01b0384166000908152600160209081526040808320338452909152902054828110156104725760405162461bcd60e51b815260206004820152601a60248201527f5472616e73666572206578636565647320616c6c6f77616e636500000000000060448201526064015b60405180910390fd5b505b61047f8484846109fd565b5060015b9392505050565b61049660126006611517565b6104a190600a611620565b81565b6104b060126006611517565b6104bb90600a611620565b6104a1906103e861162f565b6000610483338484610b17565b6000546001600160a01b031633146104fe5760405162461bcd60e51b81526004016104699061164e565b61050a60126006611517565b61051590600a611620565b610521906103e861162f565b8161052b60035490565b6105359190611683565b11156105775760405162461bcd60e51b8152602060048201526011602482015270457863656564204d617820537570706c7960781b6044820152606401610469565b6105818282610b9e565b5050565b6001600160a01b038116600090815260026020818152604080842054600590925283209091015460045491929091819081906105c1904361169b565b92506105cc86610bf5565b6001600160a01b039096166000908152600560205260409020600101549496939592949293915050565b6001600160a01b0381166000908152600260205260408120546103d1565b6000546001600160a01b0316331461063e5760405162461bcd60e51b81526004016104699061164e565b6106486000610d08565b565b600080600080610658610d58565b935060006106766106716000546001600160a01b031690565b610bf5565b90506106828185611683565b60065490945061069a906001600160a01b0316610bf5565b90506106a68185611683565b6007549094506106be906001600160a01b0316610bf5565b90506106ca8185611683565b6008549094506106e2906001600160a01b0316610bf5565b90506106ee8185611683565b93508385101561070957610702858561169b565b9250610716565b610713848661169b565b92505b84848110156107225750835b801561074a578061073d8569d3c21bcecceda100000061162f565b61074791906116c8565b92505b505090919293565b6000546001600160a01b0316331461077c5760405162461bcd60e51b81526004016104699061164e565b6105818282610e2d565b60408051808201909152600c81526b5a65726f206164647265737360a01b60208201526000906001600160a01b0385166107d35760405162461bcd60e51b815260040161046991906113dc565b506001600160a01b0380851660009081526001602090815260408083209387168352929052205461047f908590859061080d90869061169b565b61093b565b6000610483338484610786565b60006103cd3384846109fd565b600354600954600a5460045460009081908190610849904361169b565b9250610853610d58565b9150600b549050909192939495565b6000546001600160a01b0316331461088c5760405162461bcd60e51b81526004016104699061164e565b6001600160a01b0381166108f15760405162461bcd60e51b815260206004820152602660248201527f4f776e61626c653a206e6577206f776e657220697320746865207a65726f206160448201526564647265737360d01b6064820152608401610469565b6108fa81610d08565b50565b60008061090b858585610eef565b9050600061091a868686610fc5565b11156109335761092b816001610fe0565b915050610483565b949350505050565b60408051808201909152600c81526b5a65726f206164647265737360a01b60208201526001600160a01b0384166109855760405162461bcd60e51b815260040161046991906113dc565b5060408051808201909152600c81526b5a65726f206164647265737360a01b60208201526001600160a01b0383166109d05760405162461bcd60e51b815260040161046991906113dc565b506001600160a01b0392831660009081526001602090815260408083209490951682529290925291902055565b60408051808201909152600c81526b5a65726f206164647265737360a01b60208201526001600160a01b038416610a475760405162461bcd60e51b815260040161046991906113dc565b5060408051808201909152600c81526b5a65726f206164647265737360a01b60208201526001600160a01b038316610a925760405162461bcd60e51b815260040161046991906113dc565b506001600160a01b0383166000908152600260205260408120549050818110156040518060400160405280600f81526020016e457863656564732062616c616e636560881b81525090610af85760405162461bcd60e51b815260040161046991906113dc565b50610b0584836000610fec565b610b1183836001610fec565b50505050565b60408051808201909152600c81526b5a65726f206164647265737360a01b60208201526000906001600160a01b038516610b645760405162461bcd60e51b815260040161046991906113dc565b506001600160a01b0380851660009081526001602090815260408083209387168352929052205461047f908590859061080d908690611683565b60408051808201909152600c81526b5a65726f206164647265737360a01b60208201526001600160a01b038316610be85760405162461bcd60e51b815260040161046991906113dc565b5061058182826001610fec565b6001600160a01b038116600090815260056020526040812060010154600454829190610c21904361169b565b610c2b919061169b565b600c5490915060009081906001600160a01b0316635aff34dc610c53610309620186a0611683565b6040516001600160e01b031960e084901b1681526004810191909152620186a0602482015260448101869052600a60648201526084016040805180830381865afa158015610ca5573d6000803e3d6000fd5b505050506040513d601f19601f82011682018060405250810190610cc991906116ea565b6001600160a01b03871660009081526002602052604081205492945090925090610cf48185856108fd565b610cfe919061169b565b9695505050505050565b600080546001600160a01b038381166001600160a01b0319831681178455604051919092169283917f8be0079c531659141344cd1fd0a4f28419497f9722a3daafe3b4186f6b6457e09190a35050565b60008060045443610d69919061169b565b600c5490915060009081906001600160a01b0316635aff34dc610d91610309620186a0611683565b6040516001600160e01b031960e084901b1681526004810191909152620186a0602482015260448101869052600a60648201526084016040805180830381865afa158015610de3573d6000803e3d6000fd5b505050506040513d601f19601f82011682018060405250810190610e0791906116ea565b91509150600954610e1b600a5484846108fd565b610e25919061169b565b935050505090565b60408051808201909152600c81526b5a65726f206164647265737360a01b60208201526001600160a01b038316610e775760405162461bcd60e51b815260040161046991906113dc565b506001600160a01b0382166000908152600260205260408120549050818110156040518060400160405280600f81526020016e457863656564732062616c616e636560881b81525090610edd5760405162461bcd60e51b815260040161046991906113dc565b50610eea83836000610fec565b505050565b6000806000610efe86866112ad565b9150915081600003610f2357838181610f1957610f196116b2565b0492505050610483565b8382101561014d576000610f38878787610fc5565b9050600080610f488585856112fa565b9150915081600003610f7057868181610f6357610f636116b2565b0495505050505050610483565b600087610f7e60008a61132b565b1690506000610f8e848484611337565b90506000610faa838b81610fa457610fa46116b2565b04611384565b9050610fb682826113c1565b98505050505050505050610483565b60008180610fd557610fd56116b2565b838509949350505050565b60006104838284611683565b6001600160a01b038316600090815260026020526040812054600980549192909161101890849061169b565b90915550506001600160a01b038316600090815260056020526040812060020154600a80549192909161104c90849061169b565b909155506000905061105d84610bf5565b905080156110d5576001600160a01b0384166000908152600560205260408120805483929061108d908490611683565b9250508190555080600b60008282546110a69190611683565b90915550506004546110b8904361169b565b6001600160a01b0385166000908152600560205260409020600101555b8115611127576001600160a01b03841660009081526002602052604081208054859290611103908490611683565b92505081905550826003600082825461111c9190611683565b9091555061116e9050565b6001600160a01b0384166000908152600260205260408120805485929061114f90849061169b565b925050819055508260036000828254611168919061169b565b90915550505b6001600160a01b03808516600090815260056020526040812060010154600c549092829116635aff34dc620186a06111a861030982611683565b6040516001600160e01b031960e085901b1681526004810192909252602482015260448101869052600a60648201526084016040805180830381865afa1580156111f6573d6000803e3d6000fd5b505050506040513d601f19601f8201168201806040525081019061121a91906116ea565b6001600160a01b038916600090815260026020526040812054929450909250906112459084846108fd565b6001600160a01b03891660009081526005602090815260408083206002908101859055909152812054600980549394509092909190611285908490611683565b9250508190555080600a600082825461129e9190611683565b90915550505050505050505050565b60008060006112bc85856113cd565b905060006112ca86866113c1565b90508082106112e05790819003925090506112f3565b60016112ec838361132b565b0393509150505b9250929050565b6000808284106113105750839050818303611323565b6001850361131e858561132b565b915091505b935093915050565b6000610483828461169b565b60008061135e8361134960008661132b565b81611356576113566116b2565b506000919050565b905082848161136f5761136f6116b2565b0461137a86836113c1565b1795945050505050565b60006001815b60088110156113ba576113b0826113ab60026113a686896113c1565b61132b565b6113c1565b915060010161138a565b5092915050565b6000610483828461162f565b60006000198284099392505050565b600060208083528351808285015260005b81811015611409578581018301518582016040015282016113ed565b8181111561141b576000604083870101525b50601f01601f1916929092016040019392505050565b80356001600160a01b038116811461144857600080fd5b919050565b6000806040838503121561146057600080fd5b61146983611431565b946020939093013593505050565b60008060006060848603121561148c57600080fd5b61149584611431565b92506114a360208501611431565b9150604084013590509250925092565b6000602082840312156114c557600080fd5b61048382611431565b600080604083850312156114e157600080fd5b6114ea83611431565b91506114f860208401611431565b90509250929050565b634e487b7160e01b600052601160045260246000fd5b600060ff821660ff84168060ff0382111561153457611534611501565b019392505050565b600181815b8085111561157757816000190482111561155d5761155d611501565b8085161561156a57918102915b93841c9390800290611541565b509250929050565b60008261158e575060016103d1565b8161159b575060006103d1565b81600181146115b157600281146115bb576115d7565b60019150506103d1565b60ff8411156115cc576115cc611501565b50506001821b6103d1565b5060208310610133831016604e8410600b84101617156115fa575081810a6103d1565b611604838361153c565b806000190482111561161857611618611501565b029392505050565b600061048360ff84168361157f565b600081600019048311821515161561164957611649611501565b500290565b6020808252818101527f4f776e61626c653a2063616c6c6572206973206e6f7420746865206f776e6572604082015260600190565b6000821982111561169657611696611501565b500190565b6000828210156116ad576116ad611501565b500390565b634e487b7160e01b600052601260045260246000fd5b6000826116e557634e487b7160e01b600052601260045260246000fd5b500490565b600080604083850312156116fd57600080fd5b50508051602090910151909290915056fea2646970667358221220df0670b535cc968ea40b51879357fc5757e33c86590bb42b459f7a3b011827bb64736f6c634300080e0033","opcodes":"PUSH1 0x80 PUSH1 0x40 MSTORE CALLVALUE DUP1 ISZERO PUSH3 0x11 JUMPI PUSH1 0x0 DUP1 REVERT JUMPDEST POP PUSH1 0x40 MLOAD PUSH3 0x2256 CODESIZE SUB DUP1 PUSH3 0x2256 DUP4 CODECOPY DUP2 ADD PUSH1 0x40 DUP2 SWAP1 MSTORE PUSH3 0x34 SWAP2 PUSH3 0x8A1 JUMP JUMPDEST PUSH3 0x3F CALLER PUSH3 0xFB JUMP JUMPDEST PUSH1 0xC DUP1 SLOAD PUSH1 0x1 PUSH1 0x1 PUSH1 0xA0 SHL SUB DUP4 AND PUSH1 0x1 PUSH1 0x1 PUSH1 0xA0 SHL SUB NOT SWAP2 DUP3 AND OR SWAP1 SWAP2 SSTORE NUMBER PUSH1 0x4 SSTORE PUSH1 0x6 DUP1 SLOAD DUP3 AND PUSH20 0x70997970C51812DC3A010C7D01B50E0D17DC79C8 OR SWAP1 SSTORE PUSH1 0x7 DUP1 SLOAD DUP3 AND PUSH20 0x3C44CDDDB6A900FA2B585DD299E03D12FA4293BC OR SWAP1 SSTORE PUSH1 0x8 DUP1 SLOAD SWAP1 SWAP2 AND PUSH20 0x90F79BF6EB2C4F870365E785982E1F101E93B906 OR SWAP1 SSTORE PUSH3 0xF4 PUSH3 0xD3 PUSH1 0x0 SLOAD PUSH1 0x1 PUSH1 0x1 PUSH1 0xA0 SHL SUB AND SWAP1 JUMP JUMPDEST PUSH3 0xE1 PUSH1 0x12 PUSH1 0x6 PUSH3 0x8E2 JUMP JUMPDEST PUSH3 0xEE SWAP1 PUSH1 0xA PUSH3 0xA07 JUMP JUMPDEST PUSH3 0x14B JUMP JUMPDEST POP PUSH3 0xB02 JUMP JUMPDEST PUSH1 0x0 DUP1 SLOAD PUSH1 0x1 PUSH1 0x1 PUSH1 0xA0 SHL SUB DUP4 DUP2 AND PUSH1 0x1 PUSH1 0x1 PUSH1 0xA0 SHL SUB NOT DUP4 AND DUP2 OR DUP5 SSTORE PUSH1 0x40 MLOAD SWAP2 SWAP1 SWAP3 AND SWAP3 DUP4 SWAP2 PUSH32 0x8BE0079C531659141344CD1FD0A4F28419497F9722A3DAAFE3B4186F6B6457E0 SWAP2 SWAP1 LOG3 POP POP JUMP JUMPDEST PUSH1 0x40 DUP1 MLOAD DUP1 DUP3 ADD SWAP1 SWAP2 MSTORE PUSH1 0xC DUP2 MSTORE PUSH12 0x5A65726F2061646472657373 PUSH1 0xA0 SHL PUSH1 0x20 DUP3 ADD MSTORE PUSH1 0x1 PUSH1 0x1 PUSH1 0xA0 SHL SUB DUP4 AND PUSH3 0x1A1 JUMPI PUSH1 0x40 MLOAD PUSH3 0x461BCD PUSH1 0xE5 SHL DUP2 MSTORE PUSH1 0x4 ADD PUSH3 0x198 SWAP2 SWAP1 PUSH3 0xA18 JUMP JUMPDEST PUSH1 0x40 MLOAD DUP1 SWAP2 SUB SWAP1 REVERT JUMPDEST POP PUSH3 0x1B0 DUP3 DUP3 PUSH1 0x1 PUSH3 0x1B4 JUMP JUMPDEST POP POP JUMP JUMPDEST PUSH1 0x1 PUSH1 0x1 PUSH1 0xA0 SHL SUB DUP4 AND PUSH1 0x0 SWAP1 DUP2 MSTORE PUSH1 0x2 PUSH1 0x20 MSTORE PUSH1 0x40 DUP2 KECCAK256 SLOAD PUSH1 0x9 DUP1 SLOAD SWAP2 SWAP3 SWAP1 SWAP2 PUSH3 0x1E2 SWAP1 DUP5 SWAP1 PUSH3 0xA70 JUMP JUMPDEST SWAP1 SWAP2 SSTORE POP POP PUSH1 0x1 PUSH1 0x1 PUSH1 0xA0 SHL SUB DUP4 AND PUSH1 0x0 SWAP1 DUP2 MSTORE PUSH1 0x5 PUSH1 0x20 MSTORE PUSH1 0x40 DUP2 KECCAK256 PUSH1 0x2 ADD SLOAD PUSH1 0xA DUP1 SLOAD SWAP2 SWAP3 SWAP1 SWAP2 PUSH3 0x218 SWAP1 DUP5 SWAP1 PUSH3 0xA70 JUMP JUMPDEST SWAP1 SWAP2 SSTORE POP PUSH1 0x0 SWAP1 POP PUSH3 0x22B DUP5 PUSH3 0x4AD JUMP JUMPDEST SWAP1 POP DUP1 ISZERO PUSH3 0x2AA JUMPI PUSH1 0x1 PUSH1 0x1 PUSH1 0xA0 SHL SUB DUP5 AND PUSH1 0x0 SWAP1 DUP2 MSTORE PUSH1 0x5 PUSH1 0x20 MSTORE PUSH1 0x40 DUP2 KECCAK256 DUP1 SLOAD DUP4 SWAP3 SWAP1 PUSH3 0x25E SWAP1 DUP5 SWAP1 PUSH3 0xA8A JUMP JUMPDEST SWAP3 POP POP DUP2 SWAP1 SSTORE POP DUP1 PUSH1 0xB PUSH1 0x0 DUP3 DUP3 SLOAD PUSH3 0x279 SWAP2 SWAP1 PUSH3 0xA8A JUMP JUMPDEST SWAP1 SWAP2 SSTORE POP POP PUSH1 0x4 SLOAD PUSH3 0x28D SWAP1 NUMBER PUSH3 0xA70 JUMP JUMPDEST PUSH1 0x1 PUSH1 0x1 PUSH1 0xA0 SHL SUB DUP6 AND PUSH1 0x0 SWAP1 DUP2 MSTORE PUSH1 0x5 PUSH1 0x20 MSTORE PUSH1 0x40 SWAP1 KECCAK256 PUSH1 0x1 ADD SSTORE JUMPDEST DUP2 ISZERO PUSH3 0x302 JUMPI PUSH1 0x1 PUSH1 0x1 PUSH1 0xA0 SHL SUB DUP5 AND PUSH1 0x0 SWAP1 DUP2 MSTORE PUSH1 0x2 PUSH1 0x20 MSTORE PUSH1 0x40 DUP2 KECCAK256 DUP1 SLOAD DUP6 SWAP3 SWAP1 PUSH3 0x2DB SWAP1 DUP5 SWAP1 PUSH3 0xA8A JUMP JUMPDEST SWAP3 POP POP DUP2 SWAP1 SSTORE POP DUP3 PUSH1 0x3 PUSH1 0x0 DUP3 DUP3 SLOAD PUSH3 0x2F6 SWAP2 SWAP1 PUSH3 0xA8A JUMP JUMPDEST SWAP1 SWAP2 SSTORE POP PUSH3 0x34D SWAP1 POP JUMP JUMPDEST PUSH1 0x1 PUSH1 0x1 PUSH1 0xA0 SHL SUB DUP5 AND PUSH1 0x0 SWAP1 DUP2 MSTORE PUSH1 0x2 PUSH1 0x20 MSTORE PUSH1 0x40 DUP2 KECCAK256 DUP1 SLOAD DUP6 SWAP3 SWAP1 PUSH3 0x32C SWAP1 DUP5 SWAP1 PUSH3 0xA70 JUMP JUMPDEST SWAP3 POP POP DUP2 SWAP1 SSTORE POP DUP3 PUSH1 0x3 PUSH1 0x0 DUP3 DUP3 SLOAD PUSH3 0x347 SWAP2 SWAP1 PUSH3 0xA70 JUMP JUMPDEST SWAP1 SWAP2 SSTORE POP POP JUMPDEST PUSH1 0x1 PUSH1 0x1 PUSH1 0xA0 SHL SUB DUP1 DUP6 AND PUSH1 0x0 SWAP1 DUP2 MSTORE PUSH1 0x5 PUSH1 0x20 MSTORE PUSH1 0x40 DUP2 KECCAK256 PUSH1 0x1 ADD SLOAD PUSH1 0xC SLOAD SWAP1 SWAP3 DUP3 SWAP2 AND PUSH4 0x5AFF34DC PUSH3 0x186A0 PUSH3 0x389 PUSH2 0x309 DUP3 PUSH3 0xA8A JUMP JUMPDEST PUSH1 0x40 MLOAD PUSH1 0x1 PUSH1 0x1 PUSH1 0xE0 SHL SUB NOT PUSH1 0xE0 DUP6 SWAP1 SHL AND DUP2 MSTORE PUSH1 0x4 DUP2 ADD SWAP3 SWAP1 SWAP3 MSTORE PUSH1 0x24 DUP3 ADD MSTORE PUSH1 0x44 DUP2 ADD DUP7 SWAP1 MSTORE PUSH1 0xA PUSH1 0x64 DUP3 ADD MSTORE PUSH1 0x84 ADD PUSH1 0x40 DUP1 MLOAD DUP1 DUP4 SUB DUP2 DUP7 GAS STATICCALL ISZERO DUP1 ISZERO PUSH3 0x3D8 JUMPI RETURNDATASIZE PUSH1 0x0 DUP1 RETURNDATACOPY RETURNDATASIZE PUSH1 0x0 REVERT JUMPDEST POP POP POP POP PUSH1 0x40 MLOAD RETURNDATASIZE PUSH1 0x1F NOT PUSH1 0x1F DUP3 ADD AND DUP3 ADD DUP1 PUSH1 0x40 MSTORE POP DUP2 ADD SWAP1 PUSH3 0x3FE SWAP2 SWAP1 PUSH3 0xAA5 JUMP JUMPDEST SWAP2 POP SWAP2 POP PUSH1 0x0 PUSH3 0x441 PUSH1 0x2 PUSH1 0x0 DUP11 PUSH1 0x1 PUSH1 0x1 PUSH1 0xA0 SHL SUB AND PUSH1 0x1 PUSH1 0x1 PUSH1 0xA0 SHL SUB AND DUP2 MSTORE PUSH1 0x20 ADD SWAP1 DUP2 MSTORE PUSH1 0x20 ADD PUSH1 0x0 KECCAK256 SLOAD DUP5 DUP5 PUSH3 0x5DD PUSH1 0x20 SHL PUSH3 0x8FD OR PUSH1 0x20 SHR JUMP JUMPDEST PUSH1 0x1 PUSH1 0x1 PUSH1 0xA0 SHL SUB DUP10 AND PUSH1 0x0 SWAP1 DUP2 MSTORE PUSH1 0x5 PUSH1 0x20 SWAP1 DUP2 MSTORE PUSH1 0x40 DUP1 DUP4 KECCAK256 PUSH1 0x2 SWAP1 DUP2 ADD DUP6 SWAP1 SSTORE SWAP1 SWAP2 MSTORE DUP2 KECCAK256 SLOAD PUSH1 0x9 DUP1 SLOAD SWAP4 SWAP5 POP SWAP1 SWAP3 SWAP1 SWAP2 SWAP1 PUSH3 0x483 SWAP1 DUP5 SWAP1 PUSH3 0xA8A JUMP JUMPDEST SWAP3 POP POP DUP2 SWAP1 SSTORE POP DUP1 PUSH1 0xA PUSH1 0x0 DUP3 DUP3 SLOAD PUSH3 0x49E SWAP2 SWAP1 PUSH3 0xA8A JUMP JUMPDEST SWAP1 SWAP2 SSTORE POP POP POP POP POP POP POP POP POP POP JUMP JUMPDEST PUSH1 0x1 PUSH1 0x1 PUSH1 0xA0 SHL SUB DUP2 AND PUSH1 0x0 SWAP1 DUP2 MSTORE PUSH1 0x5 PUSH1 0x20 MSTORE PUSH1 0x40 DUP2 KECCAK256 PUSH1 0x1 ADD SLOAD PUSH1 0x4 SLOAD DUP3 SWAP2 SWAP1 PUSH3 0x4DB SWAP1 NUMBER PUSH3 0xA70 JUMP JUMPDEST PUSH3 0x4E7 SWAP2 SWAP1 PUSH3 0xA70 JUMP JUMPDEST PUSH1 0xC SLOAD SWAP1 SWAP2 POP PUSH1 0x0 SWAP1 DUP2 SWAP1 PUSH1 0x1 PUSH1 0x1 PUSH1 0xA0 SHL SUB AND PUSH4 0x5AFF34DC PUSH3 0x511 PUSH2 0x309 PUSH3 0x186A0 PUSH3 0xA8A JUMP JUMPDEST PUSH1 0x40 MLOAD PUSH1 0x1 PUSH1 0x1 PUSH1 0xE0 SHL SUB NOT PUSH1 0xE0 DUP5 SWAP1 SHL AND DUP2 MSTORE PUSH1 0x4 DUP2 ADD SWAP2 SWAP1 SWAP2 MSTORE PUSH3 0x186A0 PUSH1 0x24 DUP3 ADD MSTORE PUSH1 0x44 DUP2 ADD DUP7 SWAP1 MSTORE PUSH1 0xA PUSH1 0x64 DUP3 ADD MSTORE PUSH1 0x84 ADD PUSH1 0x40 DUP1 MLOAD DUP1 DUP4 SUB DUP2 DUP7 GAS STATICCALL ISZERO DUP1 ISZERO PUSH3 0x564 JUMPI RETURNDATASIZE PUSH1 0x0 DUP1 RETURNDATACOPY RETURNDATASIZE PUSH1 0x0 REVERT JUMPDEST POP POP POP POP PUSH1 0x40 MLOAD RETURNDATASIZE PUSH1 0x1F NOT PUSH1 0x1F DUP3 ADD AND DUP3 ADD DUP1 PUSH1 0x40 MSTORE POP DUP2 ADD SWAP1 PUSH3 0x58A SWAP2 SWAP1 PUSH3 0xAA5 JUMP JUMPDEST PUSH1 0x1 PUSH1 0x1 PUSH1 0xA0 SHL SUB DUP8 AND PUSH1 0x0 SWAP1 DUP2 MSTORE PUSH1 0x2 PUSH1 0x20 SWAP1 DUP2 MSTORE PUSH1 0x40 DUP3 KECCAK256 SLOAD SWAP4 SWAP6 POP SWAP2 SWAP4 POP SWAP2 SWAP1 PUSH3 0x5C7 SWAP1 DUP3 SWAP1 DUP7 SWAP1 DUP7 SWAP1 PUSH3 0x8FD PUSH3 0x5DD DUP3 SHL OR SWAP1 SHR JUMP JUMPDEST PUSH3 0x5D3 SWAP2 SWAP1 PUSH3 0xA70 JUMP JUMPDEST SWAP7 SWAP6 POP POP POP POP POP POP JUMP JUMPDEST PUSH1 0x0 DUP1 PUSH3 0x5ED DUP6 DUP6 DUP6 PUSH3 0x625 JUMP JUMPDEST SWAP1 POP PUSH1 0x0 PUSH3 0x5FE DUP7 DUP7 DUP7 PUSH3 0x71B JUMP JUMPDEST GT ISZERO PUSH3 0x61B JUMPI PUSH3 0x612 DUP2 PUSH1 0x1 PUSH3 0x739 JUMP JUMPDEST SWAP2 POP POP PUSH3 0x61E JUMP JUMPDEST SWAP1 POP JUMPDEST SWAP4 SWAP3 POP POP POP JUMP JUMPDEST PUSH1 0x0 DUP1 DUP1 PUSH3 0x635 DUP7 DUP7 PUSH3 0x750 JUMP JUMPDEST SWAP2 POP SWAP2 POP DUP2 PUSH1 0x0 SUB PUSH3 0x65F JUMPI DUP4 DUP2 DUP2 PUSH3 0x654 JUMPI PUSH3 0x654 PUSH3 0xACA JUMP JUMPDEST DIV SWAP3 POP POP POP PUSH3 0x61E JUMP JUMPDEST DUP4 DUP3 LT ISZERO PUSH3 0x716 JUMPI PUSH1 0x0 PUSH3 0x677 DUP8 DUP8 DUP8 PUSH3 0x71B JUMP JUMPDEST SWAP1 POP PUSH1 0x0 DUP1 PUSH3 0x689 DUP6 DUP6 DUP6 PUSH3 0x7A4 JUMP JUMPDEST SWAP2 POP SWAP2 POP DUP2 PUSH1 0x0 SUB PUSH3 0x6B6 JUMPI DUP7 DUP2 DUP2 PUSH3 0x6A8 JUMPI PUSH3 0x6A8 PUSH3 0xACA JUMP JUMPDEST DIV SWAP6 POP POP POP POP POP POP PUSH3 0x61E JUMP JUMPDEST PUSH1 0x0 DUP8 PUSH3 0x6C5 DUP3 DUP3 PUSH3 0x7DA JUMP JUMPDEST AND SWAP1 POP PUSH1 0x0 PUSH3 0x6D7 DUP5 DUP5 DUP5 PUSH3 0x7E8 JUMP JUMPDEST SWAP1 POP PUSH1 0x0 PUSH3 0x6F8 DUP4 DUP12 DUP2 PUSH3 0x6F1 JUMPI PUSH3 0x6F1 PUSH3 0xACA JUMP JUMPDEST DIV PUSH3 0x83F JUMP JUMPDEST SWAP1 POP PUSH3 0x706 DUP3 DUP3 PUSH3 0x884 JUMP JUMPDEST SWAP9 POP POP POP POP POP POP POP POP POP PUSH3 0x61E JUMP JUMPDEST PUSH1 0x0 DUP1 REVERT JUMPDEST PUSH1 0x0 DUP2 DUP1 PUSH3 0x72E JUMPI PUSH3 0x72E PUSH3 0xACA JUMP JUMPDEST DUP4 DUP6 MULMOD SWAP5 SWAP4 POP POP POP POP JUMP JUMPDEST PUSH1 0x0 PUSH3 0x747 DUP3 DUP5 PUSH3 0xA8A JUMP JUMPDEST SWAP1 POP JUMPDEST SWAP3 SWAP2 POP POP JUMP JUMPDEST PUSH1 0x0 DUP1 DUP1 PUSH3 0x760 DUP6 DUP6 PUSH3 0x892 JUMP JUMPDEST SWAP1 POP PUSH1 0x0 PUSH3 0x770 DUP7 DUP7 PUSH3 0x884 JUMP JUMPDEST SWAP1 POP DUP1 DUP3 LT PUSH3 0x788 JUMPI SWAP1 DUP2 SWAP1 SUB SWAP3 POP SWAP1 POP PUSH3 0x79D JUMP JUMPDEST PUSH1 0x1 PUSH3 0x796 DUP4 DUP4 PUSH3 0x7DA JUMP JUMPDEST SUB SWAP4 POP SWAP2 POP POP JUMPDEST SWAP3 POP SWAP3 SWAP1 POP JUMP JUMPDEST PUSH1 0x0 DUP1 DUP3 DUP5 LT PUSH3 0x7BC JUMPI POP DUP4 SWAP1 POP DUP2 DUP4 SUB PUSH3 0x7D2 JUMP JUMPDEST PUSH1 0x0 NOT DUP6 ADD PUSH3 0x7CD DUP6 DUP6 PUSH3 0x7DA JUMP JUMPDEST SWAP2 POP SWAP2 POP JUMPDEST SWAP4 POP SWAP4 SWAP2 POP POP JUMP JUMPDEST PUSH1 0x0 PUSH3 0x747 DUP3 DUP5 PUSH3 0xA70 JUMP JUMPDEST PUSH1 0x0 DUP1 PUSH3 0x814 DUP4 PUSH3 0x7FC DUP4 DUP3 PUSH3 0x7DA JUMP JUMPDEST DUP2 PUSH3 0x80C JUMPI PUSH3 0x80C PUSH3 0xACA JUMP JUMPDEST POP PUSH1 0x0 SWAP2 SWAP1 POP JUMP JUMPDEST SWAP1 POP DUP3 DUP5 DUP2 PUSH3 0x828 JUMPI PUSH3 0x828 PUSH3 0xACA JUMP JUMPDEST DIV PUSH3 0x835 DUP7 DUP4 PUSH3 0x884 JUMP JUMPDEST OR SWAP6 SWAP5 POP POP POP POP POP JUMP JUMPDEST PUSH1 0x0 PUSH1 0x1 DUP2 JUMPDEST PUSH1 0x8 DUP2 LT ISZERO PUSH3 0x87D JUMPI PUSH3 0x872 DUP3 PUSH3 0x86C PUSH1 0x2 PUSH3 0x866 DUP4 DUP10 PUSH3 0x884 JUMP JUMPDEST PUSH3 0x7DA JUMP JUMPDEST PUSH3 0x884 JUMP JUMPDEST SWAP2 POP PUSH1 0x1 ADD PUSH3 0x845 JUMP JUMPDEST POP SWAP3 SWAP2 POP POP JUMP JUMPDEST PUSH1 0x0 PUSH3 0x747 DUP3 DUP5 PUSH3 0xAE0 JUMP JUMPDEST PUSH1 0x0 PUSH1 0x0 NOT DUP3 DUP5 MULMOD SWAP4 SWAP3 POP POP POP JUMP JUMPDEST PUSH1 0x0 PUSH1 0x20 DUP3 DUP5 SUB SLT ISZERO PUSH3 0x8B4 JUMPI PUSH1 0x0 DUP1 REVERT JUMPDEST DUP2 MLOAD PUSH1 0x1 PUSH1 0x1 PUSH1 0xA0 SHL SUB DUP2 AND DUP2 EQ PUSH3 0x61E JUMPI PUSH1 0x0 DUP1 REVERT JUMPDEST PUSH4 0x4E487B71 PUSH1 0xE0 SHL PUSH1 0x0 MSTORE PUSH1 0x11 PUSH1 0x4 MSTORE PUSH1 0x24 PUSH1 0x0 REVERT JUMPDEST PUSH1 0x0 PUSH1 0xFF DUP3 AND PUSH1 0xFF DUP5 AND DUP1 PUSH1 0xFF SUB DUP3 GT ISZERO PUSH3 0x902 JUMPI PUSH3 0x902 PUSH3 0x8CC JUMP JUMPDEST ADD SWAP4 SWAP3 POP POP POP JUMP JUMPDEST PUSH1 0x1 DUP2 DUP2 JUMPDEST DUP1 DUP6 GT ISZERO PUSH3 0x94B JUMPI DUP2 PUSH1 0x0 NOT DIV DUP3 GT ISZERO PUSH3 0x92F JUMPI PUSH3 0x92F PUSH3 0x8CC JUMP JUMPDEST DUP1 DUP6 AND ISZERO PUSH3 0x93D JUMPI SWAP2 DUP2 MUL SWAP2 JUMPDEST SWAP4 DUP5 SHR SWAP4 SWAP1 DUP1 MUL SWAP1 PUSH3 0x90F JUMP JUMPDEST POP SWAP3 POP SWAP3 SWAP1 POP JUMP JUMPDEST PUSH1 0x0 DUP3 PUSH3 0x964 JUMPI POP PUSH1 0x1 PUSH3 0x74A JUMP JUMPDEST DUP2 PUSH3 0x973 JUMPI POP PUSH1 0x0 PUSH3 0x74A JUMP JUMPDEST DUP2 PUSH1 0x1 DUP2 EQ PUSH3 0x98C JUMPI PUSH1 0x2 DUP2 EQ PUSH3 0x997 JUMPI PUSH3 0x9B7 JUMP JUMPDEST PUSH1 0x1 SWAP2 POP POP PUSH3 0x74A JUMP JUMPDEST PUSH1 0xFF DUP5 GT ISZERO PUSH3 0x9AB JUMPI PUSH3 0x9AB PUSH3 0x8CC JUMP JUMPDEST POP POP PUSH1 0x1 DUP3 SHL PUSH3 0x74A JUMP JUMPDEST POP PUSH1 0x20 DUP4 LT PUSH2 0x133 DUP4 LT AND PUSH1 0x4E DUP5 LT PUSH1 0xB DUP5 LT AND OR ISZERO PUSH3 0x9DC JUMPI POP DUP2 DUP2 EXP PUSH3 0x74A JUMP JUMPDEST PUSH3 0x9E8 DUP4 DUP4 PUSH3 0x90A JUMP JUMPDEST DUP1 PUSH1 0x0 NOT DIV DUP3 GT ISZERO PUSH3 0x9FF JUMPI PUSH3 0x9FF PUSH3 0x8CC JUMP JUMPDEST MUL SWAP4 SWAP3 POP POP POP JUMP JUMPDEST PUSH1 0x0 PUSH3 0x747 PUSH1 0xFF DUP5 AND DUP4 PUSH3 0x953 JUMP JUMPDEST PUSH1 0x0 PUSH1 0x20 DUP1 DUP4 MSTORE DUP4 MLOAD DUP1 DUP3 DUP6 ADD MSTORE PUSH1 0x0 JUMPDEST DUP2 DUP2 LT ISZERO PUSH3 0xA47 JUMPI DUP6 DUP2 ADD DUP4 ADD MLOAD DUP6 DUP3 ADD PUSH1 0x40 ADD MSTORE DUP3 ADD PUSH3 0xA29 JUMP JUMPDEST DUP2 DUP2 GT ISZERO PUSH3 0xA5A JUMPI PUSH1 0x0 PUSH1 0x40 DUP4 DUP8 ADD ADD MSTORE JUMPDEST POP PUSH1 0x1F ADD PUSH1 0x1F NOT AND SWAP3 SWAP1 SWAP3 ADD PUSH1 0x40 ADD SWAP4 SWAP3 POP POP POP JUMP JUMPDEST PUSH1 0x0 DUP3 DUP3 LT ISZERO PUSH3 0xA85 JUMPI PUSH3 0xA85 PUSH3 0x8CC JUMP JUMPDEST POP SUB SWAP1 JUMP JUMPDEST PUSH1 0x0 DUP3 NOT DUP3 GT ISZERO PUSH3 0xAA0 JUMPI PUSH3 0xAA0 PUSH3 0x8CC JUMP JUMPDEST POP ADD SWAP1 JUMP JUMPDEST PUSH1 0x0 DUP1 PUSH1 0x40 DUP4 DUP6 SUB SLT ISZERO PUSH3 0xAB9 JUMPI PUSH1 0x0 DUP1 REVERT JUMPDEST POP POP DUP1 MLOAD PUSH1 0x20 SWAP1 SWAP2 ADD MLOAD SWAP1 SWAP3 SWAP1 SWAP2 POP JUMP JUMPDEST PUSH4 0x4E487B71 PUSH1 0xE0 SHL PUSH1 0x0 MSTORE PUSH1 0x12 PUSH1 0x4 MSTORE PUSH1 0x24 PUSH1 0x0 REVERT JUMPDEST PUSH1 0x0 DUP2 PUSH1 0x0 NOT DIV DUP4 GT DUP3 ISZERO ISZERO AND ISZERO PUSH3 0xAFD JUMPI PUSH3 0xAFD PUSH3 0x8CC JUMP JUMPDEST POP MUL SWAP1 JUMP JUMPDEST PUSH2 0x1744 DUP1 PUSH3 0xB12 PUSH1 0x0 CODECOPY PUSH1 0x0 RETURN INVALID PUSH1 0x80 PUSH1 0x40 MSTORE CALLVALUE DUP1 ISZERO PUSH2 0x10 JUMPI PUSH1 0x0 DUP1 REVERT JUMPDEST POP PUSH1 0x4 CALLDATASIZE LT PUSH2 0x14D JUMPI PUSH1 0x0 CALLDATALOAD PUSH1 0xE0 SHR DUP1 PUSH4 0x70A08231 GT PUSH2 0xC3 JUMPI DUP1 PUSH4 0xA150DA2A GT PUSH2 0x7C JUMPI DUP1 PUSH4 0xA150DA2A EQ PUSH2 0x306 JUMPI DUP1 PUSH4 0xA457C2D7 EQ PUSH2 0x319 JUMPI DUP1 PUSH4 0xA9059CBB EQ PUSH2 0x32C JUMPI DUP1 PUSH4 0xBDFEB1E5 EQ PUSH2 0x33F JUMPI DUP1 PUSH4 0xDD62ED3E EQ PUSH2 0x374 JUMPI DUP1 PUSH4 0xF2FDE38B EQ PUSH2 0x3AD JUMPI PUSH1 0x0 DUP1 REVERT JUMPDEST DUP1 PUSH4 0x70A08231 EQ PUSH2 0x274 JUMPI DUP1 PUSH4 0x715018A6 EQ PUSH2 0x287 JUMPI DUP1 PUSH4 0x73957289 EQ PUSH2 0x28F JUMPI DUP1 PUSH4 0x8DA5CB5B EQ PUSH2 0x2B7 JUMPI DUP1 PUSH4 0x95D89B41 EQ PUSH2 0x2D2 JUMPI DUP1 PUSH4 0x9DC29FAC EQ PUSH2 0x2F3 JUMPI PUSH1 0x0 DUP1 REVERT JUMPDEST DUP1 PUSH4 0x2FF2E9DC GT PUSH2 0x115 JUMPI DUP1 PUSH4 0x2FF2E9DC EQ PUSH2 0x1FA JUMPI DUP1 PUSH4 0x313CE567 EQ PUSH2 0x202 JUMPI DUP1 PUSH4 0x32CB6B0C EQ PUSH2 0x209 JUMPI DUP1 PUSH4 0x39509351 EQ PUSH2 0x211 JUMPI DUP1 PUSH4 0x40C10F19 EQ PUSH2 0x224 JUMPI DUP1 PUSH4 0x416AE768 EQ PUSH2 0x239 JUMPI PUSH1 0x0 DUP1 REVERT JUMPDEST DUP1 PUSH4 0x6FDDE03 EQ PUSH2 0x152 JUMPI DUP1 PUSH4 0x95EA7B3 EQ PUSH2 0x194 JUMPI DUP1 PUSH4 0x18160DDD EQ PUSH2 0x1B7 JUMPI DUP1 PUSH4 0x23B872DD EQ PUSH2 0x1CD JUMPI DUP1 PUSH4 0x2E0F2625 EQ PUSH2 0x1E0 JUMPI JUMPDEST PUSH1 0x0 DUP1 REVERT JUMPDEST PUSH1 0x40 DUP1 MLOAD DUP1 DUP3 ADD SWAP1 SWAP2 MSTORE PUSH1 0x14 DUP2 MSTORE PUSH20 0x14DA5B5C1B19515E1C14995DD85C99139BDD995B PUSH1 0x62 SHL PUSH1 0x20 DUP3 ADD MSTORE JUMPDEST PUSH1 0x40 MLOAD PUSH2 0x18B SWAP2 SWAP1 PUSH2 0x13DC JUMP JUMPDEST PUSH1 0x40 MLOAD DUP1 SWAP2 SUB SWAP1 RETURN JUMPDEST PUSH2 0x1A7 PUSH2 0x1A2 CALLDATASIZE PUSH1 0x4 PUSH2 0x144D JUMP JUMPDEST PUSH2 0x3C0 JUMP JUMPDEST PUSH1 0x40 MLOAD SWAP1 ISZERO ISZERO DUP2 MSTORE PUSH1 0x20 ADD PUSH2 0x18B JUMP JUMPDEST PUSH2 0x1BF PUSH2 0x3D7 JUMP JUMPDEST PUSH1 0x40 MLOAD SWAP1 DUP2 MSTORE PUSH1 0x20 ADD PUSH2 0x18B JUMP JUMPDEST PUSH2 0x1A7 PUSH2 0x1DB CALLDATASIZE PUSH1 0x4 PUSH2 0x1477 JUMP JUMPDEST PUSH2 0x3E7 JUMP JUMPDEST PUSH2 0x1E8 PUSH1 0x12 DUP2 JUMP JUMPDEST PUSH1 0x40 MLOAD PUSH1 0xFF SWAP1 SWAP2 AND DUP2 MSTORE PUSH1 0x20 ADD PUSH2 0x18B JUMP JUMPDEST PUSH2 0x1BF PUSH2 0x48A JUMP JUMPDEST PUSH1 0x12 PUSH2 0x1E8 JUMP JUMPDEST PUSH2 0x1BF PUSH2 0x4A4 JUMP JUMPDEST PUSH2 0x1A7 PUSH2 0x21F CALLDATASIZE PUSH1 0x4 PUSH2 0x144D JUMP JUMPDEST PUSH2 0x4C7 JUMP JUMPDEST PUSH2 0x237 PUSH2 0x232 CALLDATASIZE PUSH1 0x4 PUSH2 0x144D JUMP JUMPDEST PUSH2 0x4D4 JUMP JUMPDEST STOP JUMPDEST PUSH2 0x24C PUSH2 0x247 CALLDATASIZE PUSH1 0x4 PUSH2 0x14B3 JUMP JUMPDEST PUSH2 0x585 JUMP JUMPDEST PUSH1 0x40 DUP1 MLOAD SWAP6 DUP7 MSTORE PUSH1 0x20 DUP7 ADD SWAP5 SWAP1 SWAP5 MSTORE SWAP3 DUP5 ADD SWAP2 SWAP1 SWAP2 MSTORE PUSH1 0x60 DUP4 ADD MSTORE PUSH1 0x80 DUP3 ADD MSTORE PUSH1 0xA0 ADD PUSH2 0x18B JUMP JUMPDEST PUSH2 0x1BF PUSH2 0x282 CALLDATASIZE PUSH1 0x4 PUSH2 0x14B3 JUMP JUMPDEST PUSH2 0x5F6 JUMP JUMPDEST PUSH2 0x237 PUSH2 0x614 JUMP JUMPDEST PUSH2 0x297 PUSH2 0x64A JUMP JUMPDEST PUSH1 0x40 DUP1 MLOAD SWAP5 DUP6 MSTORE PUSH1 0x20 DUP6 ADD SWAP4 SWAP1 SWAP4 MSTORE SWAP2 DUP4 ADD MSTORE PUSH1 0x60 DUP3 ADD MSTORE PUSH1 0x80 ADD PUSH2 0x18B JUMP JUMPDEST PUSH1 0x0 SLOAD PUSH1 0x40 MLOAD PUSH1 0x1 PUSH1 0x1 PUSH1 0xA0 SHL SUB SWAP1 SWAP2 AND DUP2 MSTORE PUSH1 0x20 ADD PUSH2 0x18B JUMP JUMPDEST PUSH1 0x40 DUP1 MLOAD DUP1 DUP3 ADD SWAP1 SWAP2 MSTORE PUSH1 0x5 DUP2 MSTORE PUSH5 0x29A2A92BA7 PUSH1 0xD9 SHL PUSH1 0x20 DUP3 ADD MSTORE PUSH2 0x17E JUMP JUMPDEST PUSH2 0x237 PUSH2 0x301 CALLDATASIZE PUSH1 0x4 PUSH2 0x144D JUMP JUMPDEST PUSH2 0x752 JUMP JUMPDEST PUSH2 0x1A7 PUSH2 0x314 CALLDATASIZE PUSH1 0x4 PUSH2 0x1477 JUMP JUMPDEST PUSH2 0x786 JUMP JUMPDEST PUSH2 0x1A7 PUSH2 0x327 CALLDATASIZE PUSH1 0x4 PUSH2 0x144D JUMP JUMPDEST PUSH2 0x812 JUMP JUMPDEST PUSH2 0x1A7 PUSH2 0x33A CALLDATASIZE PUSH1 0x4 PUSH2 0x144D JUMP JUMPDEST PUSH2 0x81F JUMP JUMPDEST PUSH2 0x347 PUSH2 0x82C JUMP JUMPDEST PUSH1 0x40 DUP1 MLOAD SWAP7 DUP8 MSTORE PUSH1 0x20 DUP8 ADD SWAP6 SWAP1 SWAP6 MSTORE SWAP4 DUP6 ADD SWAP3 SWAP1 SWAP3 MSTORE PUSH1 0x60 DUP5 ADD MSTORE PUSH1 0x80 DUP4 ADD MSTORE PUSH1 0xA0 DUP3 ADD MSTORE PUSH1 0xC0 ADD PUSH2 0x18B JUMP JUMPDEST PUSH2 0x1BF PUSH2 0x382 CALLDATASIZE PUSH1 0x4 PUSH2 0x14CE JUMP JUMPDEST PUSH1 0x1 PUSH1 0x1 PUSH1 0xA0 SHL SUB SWAP2 DUP3 AND PUSH1 0x0 SWAP1 DUP2 MSTORE PUSH1 0x1 PUSH1 0x20 SWAP1 DUP2 MSTORE PUSH1 0x40 DUP1 DUP4 KECCAK256 SWAP4 SWAP1 SWAP5 AND DUP3 MSTORE SWAP2 SWAP1 SWAP2 MSTORE KECCAK256 SLOAD SWAP1 JUMP JUMPDEST PUSH2 0x237 PUSH2 0x3BB CALLDATASIZE PUSH1 0x4 PUSH2 0x14B3 JUMP JUMPDEST PUSH2 0x862 JUMP JUMPDEST PUSH1 0x0 PUSH2 0x3CD CALLER DUP5 DUP5 PUSH2 0x93B JUMP JUMPDEST POP PUSH1 0x1 JUMPDEST SWAP3 SWAP2 POP POP JUMP JUMPDEST PUSH1 0x0 PUSH2 0x3E2 PUSH1 0x3 SLOAD SWAP1 JUMP JUMPDEST SWAP1 POP SWAP1 JUMP JUMPDEST PUSH1 0x0 PUSH1 0x1 PUSH1 0x1 PUSH1 0xA0 SHL SUB DUP5 AND CALLER EQ PUSH2 0x474 JUMPI PUSH1 0x1 PUSH1 0x1 PUSH1 0xA0 SHL SUB DUP5 AND PUSH1 0x0 SWAP1 DUP2 MSTORE PUSH1 0x1 PUSH1 0x20 SWAP1 DUP2 MSTORE PUSH1 0x40 DUP1 DUP4 KECCAK256 CALLER DUP5 MSTORE SWAP1 SWAP2 MSTORE SWAP1 KECCAK256 SLOAD DUP3 DUP2 LT ISZERO PUSH2 0x472 JUMPI PUSH1 0x40 MLOAD PUSH3 0x461BCD PUSH1 0xE5 SHL DUP2 MSTORE PUSH1 0x20 PUSH1 0x4 DUP3 ADD MSTORE PUSH1 0x1A PUSH1 0x24 DUP3 ADD MSTORE PUSH32 0x5472616E73666572206578636565647320616C6C6F77616E6365000000000000 PUSH1 0x44 DUP3 ADD MSTORE PUSH1 0x64 ADD JUMPDEST PUSH1 0x40 MLOAD DUP1 SWAP2 SUB SWAP1 REVERT JUMPDEST POP JUMPDEST PUSH2 0x47F DUP5 DUP5 DUP5 PUSH2 0x9FD JUMP JUMPDEST POP PUSH1 0x1 JUMPDEST SWAP4 SWAP3 POP POP POP JUMP JUMPDEST PUSH2 0x496 PUSH1 0x12 PUSH1 0x6 PUSH2 0x1517 JUMP JUMPDEST PUSH2 0x4A1 SWAP1 PUSH1 0xA PUSH2 0x1620 JUMP JUMPDEST DUP2 JUMP JUMPDEST PUSH2 0x4B0 PUSH1 0x12 PUSH1 0x6 PUSH2 0x1517 JUMP JUMPDEST PUSH2 0x4BB SWAP1 PUSH1 0xA PUSH2 0x1620 JUMP JUMPDEST PUSH2 0x4A1 SWAP1 PUSH2 0x3E8 PUSH2 0x162F JUMP JUMPDEST PUSH1 0x0 PUSH2 0x483 CALLER DUP5 DUP5 PUSH2 0xB17 JUMP JUMPDEST PUSH1 0x0 SLOAD PUSH1 0x1 PUSH1 0x1 PUSH1 0xA0 SHL SUB AND CALLER EQ PUSH2 0x4FE JUMPI PUSH1 0x40 MLOAD PUSH3 0x461BCD PUSH1 0xE5 SHL DUP2 MSTORE PUSH1 0x4 ADD PUSH2 0x469 SWAP1 PUSH2 0x164E JUMP JUMPDEST PUSH2 0x50A PUSH1 0x12 PUSH1 0x6 PUSH2 0x1517 JUMP JUMPDEST PUSH2 0x515 SWAP1 PUSH1 0xA PUSH2 0x1620 JUMP JUMPDEST PUSH2 0x521 SWAP1 PUSH2 0x3E8 PUSH2 0x162F JUMP JUMPDEST DUP2 PUSH2 0x52B PUSH1 0x3 SLOAD SWAP1 JUMP JUMPDEST PUSH2 0x535 SWAP2 SWAP1 PUSH2 0x1683 JUMP JUMPDEST GT ISZERO PUSH2 0x577 JUMPI PUSH1 0x40 MLOAD PUSH3 0x461BCD PUSH1 0xE5 SHL DUP2 MSTORE PUSH1 0x20 PUSH1 0x4 DUP3 ADD MSTORE PUSH1 0x11 PUSH1 0x24 DUP3 ADD MSTORE PUSH17 0x457863656564204D617820537570706C79 PUSH1 0x78 SHL PUSH1 0x44 DUP3 ADD MSTORE PUSH1 0x64 ADD PUSH2 0x469 JUMP JUMPDEST PUSH2 0x581 DUP3 DUP3 PUSH2 0xB9E JUMP JUMPDEST POP POP JUMP JUMPDEST PUSH1 0x1 PUSH1 0x1 PUSH1 0xA0 SHL SUB DUP2 AND PUSH1 0x0 SWAP1 DUP2 MSTORE PUSH1 0x2 PUSH1 0x20 DUP2 DUP2 MSTORE PUSH1 0x40 DUP1 DUP5 KECCAK256 SLOAD PUSH1 0x5 SWAP1 SWAP3 MSTORE DUP4 KECCAK256 SWAP1 SWAP2 ADD SLOAD PUSH1 0x4 SLOAD SWAP2 SWAP3 SWAP1 SWAP2 DUP2 SWAP1 DUP2 SWAP1 PUSH2 0x5C1 SWAP1 NUMBER PUSH2 0x169B JUMP JUMPDEST SWAP3 POP PUSH2 0x5CC DUP7 PUSH2 0xBF5 JUMP JUMPDEST PUSH1 0x1 PUSH1 0x1 PUSH1 0xA0 SHL SUB SWAP1 SWAP7 AND PUSH1 0x0 SWAP1 DUP2 MSTORE PUSH1 0x5 PUSH1 0x20 MSTORE PUSH1 0x40 SWAP1 KECCAK256 PUSH1 0x1 ADD SLOAD SWAP5 SWAP7 SWAP4 SWAP6 SWAP3 SWAP5 SWAP3 SWAP4 SWAP2 POP POP JUMP JUMPDEST PUSH1 0x1 PUSH1 0x1 PUSH1 0xA0 SHL SUB DUP2 AND PUSH1 0x0 SWAP1 DUP2 MSTORE PUSH1 0x2 PUSH1 0x20 MSTORE PUSH1 0x40 DUP2 KECCAK256 SLOAD PUSH2 0x3D1 JUMP JUMPDEST PUSH1 0x0 SLOAD PUSH1 0x1 PUSH1 0x1 PUSH1 0xA0 SHL SUB AND CALLER EQ PUSH2 0x63E JUMPI PUSH1 0x40 MLOAD PUSH3 0x461BCD PUSH1 0xE5 SHL DUP2 MSTORE PUSH1 0x4 ADD PUSH2 0x469 SWAP1 PUSH2 0x164E JUMP JUMPDEST PUSH2 0x648 PUSH1 0x0 PUSH2 0xD08 JUMP JUMPDEST JUMP JUMPDEST PUSH1 0x0 DUP1 PUSH1 0x0 DUP1 PUSH2 0x658 PUSH2 0xD58 JUMP JUMPDEST SWAP4 POP PUSH1 0x0 PUSH2 0x676 PUSH2 0x671 PUSH1 0x0 SLOAD PUSH1 0x1 PUSH1 0x1 PUSH1 0xA0 SHL SUB AND SWAP1 JUMP JUMPDEST PUSH2 0xBF5 JUMP JUMPDEST SWAP1 POP PUSH2 0x682 DUP2 DUP6 PUSH2 0x1683 JUMP JUMPDEST PUSH1 0x6 SLOAD SWAP1 SWAP5 POP PUSH2 0x69A SWAP1 PUSH1 0x1 PUSH1 0x1 PUSH1 0xA0 SHL SUB AND PUSH2 0xBF5 JUMP JUMPDEST SWAP1 POP PUSH2 0x6A6 DUP2 DUP6 PUSH2 0x1683 JUMP JUMPDEST PUSH1 0x7 SLOAD SWAP1 SWAP5 POP PUSH2 0x6BE SWAP1 PUSH1 0x1 PUSH1 0x1 PUSH1 0xA0 SHL SUB AND PUSH2 0xBF5 JUMP JUMPDEST SWAP1 POP PUSH2 0x6CA DUP2 DUP6 PUSH2 0x1683 JUMP JUMPDEST PUSH1 0x8 SLOAD SWAP1 SWAP5 POP PUSH2 0x6E2 SWAP1 PUSH1 0x1 PUSH1 0x1 PUSH1 0xA0 SHL SUB AND PUSH2 0xBF5 JUMP JUMPDEST SWAP1 POP PUSH2 0x6EE DUP2 DUP6 PUSH2 0x1683 JUMP JUMPDEST SWAP4 POP DUP4 DUP6 LT ISZERO PUSH2 0x709 JUMPI PUSH2 0x702 DUP6 DUP6 PUSH2 0x169B JUMP JUMPDEST SWAP3 POP PUSH2 0x716 JUMP JUMPDEST PUSH2 0x713 DUP5 DUP7 PUSH2 0x169B JUMP JUMPDEST SWAP3 POP JUMPDEST DUP5 DUP5 DUP2 LT ISZERO PUSH2 0x722 JUMPI POP DUP4 JUMPDEST DUP1 ISZERO PUSH2 0x74A JUMPI DUP1 PUSH2 0x73D DUP6 PUSH10 0xD3C21BCECCEDA1000000 PUSH2 0x162F JUMP JUMPDEST PUSH2 0x747 SWAP2 SWAP1 PUSH2 0x16C8 JUMP JUMPDEST SWAP3 POP JUMPDEST POP POP SWAP1 SWAP2 SWAP3 SWAP4 JUMP JUMPDEST PUSH1 0x0 SLOAD PUSH1 0x1 PUSH1 0x1 PUSH1 0xA0 SHL SUB AND CALLER EQ PUSH2 0x77C JUMPI PUSH1 0x40 MLOAD PUSH3 0x461BCD PUSH1 0xE5 SHL DUP2 MSTORE PUSH1 0x4 ADD PUSH2 0x469 SWAP1 PUSH2 0x164E JUMP JUMPDEST PUSH2 0x581 DUP3 DUP3 PUSH2 0xE2D JUMP JUMPDEST PUSH1 0x40 DUP1 MLOAD DUP1 DUP3 ADD SWAP1 SWAP2 MSTORE PUSH1 0xC DUP2 MSTORE PUSH12 0x5A65726F2061646472657373 PUSH1 0xA0 SHL PUSH1 0x20 DUP3 ADD MSTORE PUSH1 0x0 SWAP1 PUSH1 0x1 PUSH1 0x1 PUSH1 0xA0 SHL SUB DUP6 AND PUSH2 0x7D3 JUMPI PUSH1 0x40 MLOAD PUSH3 0x461BCD PUSH1 0xE5 SHL DUP2 MSTORE PUSH1 0x4 ADD PUSH2 0x469 SWAP2 SWAP1 PUSH2 0x13DC JUMP JUMPDEST POP PUSH1 0x1 PUSH1 0x1 PUSH1 0xA0 SHL SUB DUP1 DUP6 AND PUSH1 0x0 SWAP1 DUP2 MSTORE PUSH1 0x1 PUSH1 0x20 SWAP1 DUP2 MSTORE PUSH1 0x40 DUP1 DUP4 KECCAK256 SWAP4 DUP8 AND DUP4 MSTORE SWAP3 SWAP1 MSTORE KECCAK256 SLOAD PUSH2 0x47F SWAP1 DUP6 SWAP1 DUP6 SWAP1 PUSH2 0x80D SWAP1 DUP7 SWAP1 PUSH2 0x169B JUMP JUMPDEST PUSH2 0x93B JUMP JUMPDEST PUSH1 0x0 PUSH2 0x483 CALLER DUP5 DUP5 PUSH2 0x786 JUMP JUMPDEST PUSH1 0x0 PUSH2 0x3CD CALLER DUP5 DUP5 PUSH2 0x9FD JUMP JUMPDEST PUSH1 0x3 SLOAD PUSH1 0x9 SLOAD PUSH1 0xA SLOAD PUSH1 0x4 SLOAD PUSH1 0x0 SWAP1 DUP2 SWAP1 DUP2 SWAP1 PUSH2 0x849 SWAP1 NUMBER PUSH2 0x169B JUMP JUMPDEST SWAP3 POP PUSH2 0x853 PUSH2 0xD58 JUMP JUMPDEST SWAP2 POP PUSH1 0xB SLOAD SWAP1 POP SWAP1 SWAP2 SWAP3 SWAP4 SWAP5 SWAP6 JUMP JUMPDEST PUSH1 0x0 SLOAD PUSH1 0x1 PUSH1 0x1 PUSH1 0xA0 SHL SUB AND CALLER EQ PUSH2 0x88C JUMPI PUSH1 0x40 MLOAD PUSH3 0x461BCD PUSH1 0xE5 SHL DUP2 MSTORE PUSH1 0x4 ADD PUSH2 0x469 SWAP1 PUSH2 0x164E JUMP JUMPDEST PUSH1 0x1 PUSH1 0x1 PUSH1 0xA0 SHL SUB DUP2 AND PUSH2 0x8F1 JUMPI PUSH1 0x40 MLOAD PUSH3 0x461BCD PUSH1 0xE5 SHL DUP2 MSTORE PUSH1 0x20 PUSH1 0x4 DUP3 ADD MSTORE PUSH1 0x26 PUSH1 0x24 DUP3 ADD MSTORE PUSH32 0x4F776E61626C653A206E6577206F776E657220697320746865207A65726F2061 PUSH1 0x44 DUP3 ADD MSTORE PUSH6 0x646472657373 PUSH1 0xD0 SHL PUSH1 0x64 DUP3 ADD MSTORE PUSH1 0x84 ADD PUSH2 0x469 JUMP JUMPDEST PUSH2 0x8FA DUP2 PUSH2 0xD08 JUMP JUMPDEST POP JUMP JUMPDEST PUSH1 0x0 DUP1 PUSH2 0x90B DUP6 DUP6 DUP6 PUSH2 0xEEF JUMP JUMPDEST SWAP1 POP PUSH1 0x0 PUSH2 0x91A DUP7 DUP7 DUP7 PUSH2 0xFC5 JUMP JUMPDEST GT ISZERO PUSH2 0x933 JUMPI PUSH2 0x92B DUP2 PUSH1 0x1 PUSH2 0xFE0 JUMP JUMPDEST SWAP2 POP POP PUSH2 0x483 JUMP JUMPDEST SWAP5 SWAP4 POP POP POP POP JUMP JUMPDEST PUSH1 0x40 DUP1 MLOAD DUP1 DUP3 ADD SWAP1 SWAP2 MSTORE PUSH1 0xC DUP2 MSTORE PUSH12 0x5A65726F2061646472657373 PUSH1 0xA0 SHL PUSH1 0x20 DUP3 ADD MSTORE PUSH1 0x1 PUSH1 0x1 PUSH1 0xA0 SHL SUB DUP5 AND PUSH2 0x985 JUMPI PUSH1 0x40 MLOAD PUSH3 0x461BCD PUSH1 0xE5 SHL DUP2 MSTORE PUSH1 0x4 ADD PUSH2 0x469 SWAP2 SWAP1 PUSH2 0x13DC JUMP JUMPDEST POP PUSH1 0x40 DUP1 MLOAD DUP1 DUP3 ADD SWAP1 SWAP2 MSTORE PUSH1 0xC DUP2 MSTORE PUSH12 0x5A65726F2061646472657373 PUSH1 0xA0 SHL PUSH1 0x20 DUP3 ADD MSTORE PUSH1 0x1 PUSH1 0x1 PUSH1 0xA0 SHL SUB DUP4 AND PUSH2 0x9D0 JUMPI PUSH1 0x40 MLOAD PUSH3 0x461BCD PUSH1 0xE5 SHL DUP2 MSTORE PUSH1 0x4 ADD PUSH2 0x469 SWAP2 SWAP1 PUSH2 0x13DC JUMP JUMPDEST POP PUSH1 0x1 PUSH1 0x1 PUSH1 0xA0 SHL SUB SWAP3 DUP4 AND PUSH1 0x0 SWAP1 DUP2 MSTORE PUSH1 0x1 PUSH1 0x20 SWAP1 DUP2 MSTORE PUSH1 0x40 DUP1 DUP4 KECCAK256 SWAP5 SWAP1 SWAP6 AND DUP3 MSTORE SWAP3 SWAP1 SWAP3 MSTORE SWAP2 SWAP1 KECCAK256 SSTORE JUMP JUMPDEST PUSH1 0x40 DUP1 MLOAD DUP1 DUP3 ADD SWAP1 SWAP2 MSTORE PUSH1 0xC DUP2 MSTORE PUSH12 0x5A65726F2061646472657373 PUSH1 0xA0 SHL PUSH1 0x20 DUP3 ADD MSTORE PUSH1 0x1 PUSH1 0x1 PUSH1 0xA0 SHL SUB DUP5 AND PUSH2 0xA47 JUMPI PUSH1 0x40 MLOAD PUSH3 0x461BCD PUSH1 0xE5 SHL DUP2 MSTORE PUSH1 0x4 ADD PUSH2 0x469 SWAP2 SWAP1 PUSH2 0x13DC JUMP JUMPDEST POP PUSH1 0x40 DUP1 MLOAD DUP1 DUP3 ADD SWAP1 SWAP2 MSTORE PUSH1 0xC DUP2 MSTORE PUSH12 0x5A65726F2061646472657373 PUSH1 0xA0 SHL PUSH1 0x20 DUP3 ADD MSTORE PUSH1 0x1 PUSH1 0x1 PUSH1 0xA0 SHL SUB DUP4 AND PUSH2 0xA92 JUMPI PUSH1 0x40 MLOAD PUSH3 0x461BCD PUSH1 0xE5 SHL DUP2 MSTORE PUSH1 0x4 ADD PUSH2 0x469 SWAP2 SWAP1 PUSH2 0x13DC JUMP JUMPDEST POP PUSH1 0x1 PUSH1 0x1 PUSH1 0xA0 SHL SUB DUP4 AND PUSH1 0x0 SWAP1 DUP2 MSTORE PUSH1 0x2 PUSH1 0x20 MSTORE PUSH1 0x40 DUP2 KECCAK256 SLOAD SWAP1 POP DUP2 DUP2 LT ISZERO PUSH1 0x40 MLOAD DUP1 PUSH1 0x40 ADD PUSH1 0x40 MSTORE DUP1 PUSH1 0xF DUP2 MSTORE PUSH1 0x20 ADD PUSH15 0x457863656564732062616C616E6365 PUSH1 0x88 SHL DUP2 MSTORE POP SWAP1 PUSH2 0xAF8 JUMPI PUSH1 0x40 MLOAD PUSH3 0x461BCD PUSH1 0xE5 SHL DUP2 MSTORE PUSH1 0x4 ADD PUSH2 0x469 SWAP2 SWAP1 PUSH2 0x13DC JUMP JUMPDEST POP PUSH2 0xB05 DUP5 DUP4 PUSH1 0x0 PUSH2 0xFEC JUMP JUMPDEST PUSH2 0xB11 DUP4 DUP4 PUSH1 0x1 PUSH2 0xFEC JUMP JUMPDEST POP POP POP POP JUMP JUMPDEST PUSH1 0x40 DUP1 MLOAD DUP1 DUP3 ADD SWAP1 SWAP2 MSTORE PUSH1 0xC DUP2 MSTORE PUSH12 0x5A65726F2061646472657373 PUSH1 0xA0 SHL PUSH1 0x20 DUP3 ADD MSTORE PUSH1 0x0 SWAP1 PUSH1 0x1 PUSH1 0x1 PUSH1 0xA0 SHL SUB DUP6 AND PUSH2 0xB64 JUMPI PUSH1 0x40 MLOAD PUSH3 0x461BCD PUSH1 0xE5 SHL DUP2 MSTORE PUSH1 0x4 ADD PUSH2 0x469 SWAP2 SWAP1 PUSH2 0x13DC JUMP JUMPDEST POP PUSH1 0x1 PUSH1 0x1 PUSH1 0xA0 SHL SUB DUP1 DUP6 AND PUSH1 0x0 SWAP1 DUP2 MSTORE PUSH1 0x1 PUSH1 0x20 SWAP1 DUP2 MSTORE PUSH1 0x40 DUP1 DUP4 KECCAK256 SWAP4 DUP8 AND DUP4 MSTORE SWAP3 SWAP1 MSTORE KECCAK256 SLOAD PUSH2 0x47F SWAP1 DUP6 SWAP1 DUP6 SWAP1 PUSH2 0x80D SWAP1 DUP7 SWAP1 PUSH2 0x1683 JUMP JUMPDEST PUSH1 0x40 DUP1 MLOAD DUP1 DUP3 ADD SWAP1 SWAP2 MSTORE PUSH1 0xC DUP2 MSTORE PUSH12 0x5A65726F2061646472657373 PUSH1 0xA0 SHL PUSH1 0x20 DUP3 ADD MSTORE PUSH1 0x1 PUSH1 0x1 PUSH1 0xA0 SHL SUB DUP4 AND PUSH2 0xBE8 JUMPI PUSH1 0x40 MLOAD PUSH3 0x461BCD PUSH1 0xE5 SHL DUP2 MSTORE PUSH1 0x4 ADD PUSH2 0x469 SWAP2 SWAP1 PUSH2 0x13DC JUMP JUMPDEST POP PUSH2 0x581 DUP3 DUP3 PUSH1 0x1 PUSH2 0xFEC JUMP JUMPDEST PUSH1 0x1 PUSH1 0x1 PUSH1 0xA0 SHL SUB DUP2 AND PUSH1 0x0 SWAP1 DUP2 MSTORE PUSH1 0x5 PUSH1 0x20 MSTORE PUSH1 0x40 DUP2 KECCAK256 PUSH1 0x1 ADD SLOAD PUSH1 0x4 SLOAD DUP3 SWAP2 SWAP1 PUSH2 0xC21 SWAP1 NUMBER PUSH2 0x169B JUMP JUMPDEST PUSH2 0xC2B SWAP2 SWAP1 PUSH2 0x169B JUMP JUMPDEST PUSH1 0xC SLOAD SWAP1 SWAP2 POP PUSH1 0x0 SWAP1 DUP2 SWAP1 PUSH1 0x1 PUSH1 0x1 PUSH1 0xA0 SHL SUB AND PUSH4 0x5AFF34DC PUSH2 0xC53 PUSH2 0x309 PUSH3 0x186A0 PUSH2 0x1683 JUMP JUMPDEST PUSH1 0x40 MLOAD PUSH1 0x1 PUSH1 0x1 PUSH1 0xE0 SHL SUB NOT PUSH1 0xE0 DUP5 SWAP1 SHL AND DUP2 MSTORE PUSH1 0x4 DUP2 ADD SWAP2 SWAP1 SWAP2 MSTORE PUSH3 0x186A0 PUSH1 0x24 DUP3 ADD MSTORE PUSH1 0x44 DUP2 ADD DUP7 SWAP1 MSTORE PUSH1 0xA PUSH1 0x64 DUP3 ADD MSTORE PUSH1 0x84 ADD PUSH1 0x40 DUP1 MLOAD DUP1 DUP4 SUB DUP2 DUP7 GAS STATICCALL ISZERO DUP1 ISZERO PUSH2 0xCA5 JUMPI RETURNDATASIZE PUSH1 0x0 DUP1 RETURNDATACOPY RETURNDATASIZE PUSH1 0x0 REVERT JUMPDEST POP POP POP POP PUSH1 0x40 MLOAD RETURNDATASIZE PUSH1 0x1F NOT PUSH1 0x1F DUP3 ADD AND DUP3 ADD DUP1 PUSH1 0x40 MSTORE POP DUP2 ADD SWAP1 PUSH2 0xCC9 SWAP2 SWAP1 PUSH2 0x16EA JUMP JUMPDEST PUSH1 0x1 PUSH1 0x1 PUSH1 0xA0 SHL SUB DUP8 AND PUSH1 0x0 SWAP1 DUP2 MSTORE PUSH1 0x2 PUSH1 0x20 MSTORE PUSH1 0x40 DUP2 KECCAK256 SLOAD SWAP3 SWAP5 POP SWAP1 SWAP3 POP SWAP1 PUSH2 0xCF4 DUP2 DUP6 DUP6 PUSH2 0x8FD JUMP JUMPDEST PUSH2 0xCFE SWAP2 SWAP1 PUSH2 0x169B JUMP JUMPDEST SWAP7 SWAP6 POP POP POP POP POP POP JUMP JUMPDEST PUSH1 0x0 DUP1 SLOAD PUSH1 0x1 PUSH1 0x1 PUSH1 0xA0 SHL SUB DUP4 DUP2 AND PUSH1 0x1 PUSH1 0x1 PUSH1 0xA0 SHL SUB NOT DUP4 AND DUP2 OR DUP5 SSTORE PUSH1 0x40 MLOAD SWAP2 SWAP1 SWAP3 AND SWAP3 DUP4 SWAP2 PUSH32 0x8BE0079C531659141344CD1FD0A4F28419497F9722A3DAAFE3B4186F6B6457E0 SWAP2 SWAP1 LOG3 POP POP JUMP JUMPDEST PUSH1 0x0 DUP1 PUSH1 0x4 SLOAD NUMBER PUSH2 0xD69 SWAP2 SWAP1 PUSH2 0x169B JUMP JUMPDEST PUSH1 0xC SLOAD SWAP1 SWAP2 POP PUSH1 0x0 SWAP1 DUP2 SWAP1 PUSH1 0x1 PUSH1 0x1 PUSH1 0xA0 SHL SUB AND PUSH4 0x5AFF34DC PUSH2 0xD91 PUSH2 0x309 PUSH3 0x186A0 PUSH2 0x1683 JUMP JUMPDEST PUSH1 0x40 MLOAD PUSH1 0x1 PUSH1 0x1 PUSH1 0xE0 SHL SUB NOT PUSH1 0xE0 DUP5 SWAP1 SHL AND DUP2 MSTORE PUSH1 0x4 DUP2 ADD SWAP2 SWAP1 SWAP2 MSTORE PUSH3 0x186A0 PUSH1 0x24 DUP3 ADD MSTORE PUSH1 0x44 DUP2 ADD DUP7 SWAP1 MSTORE PUSH1 0xA PUSH1 0x64 DUP3 ADD MSTORE PUSH1 0x84 ADD PUSH1 0x40 DUP1 MLOAD DUP1 DUP4 SUB DUP2 DUP7 GAS STATICCALL ISZERO DUP1 ISZERO PUSH2 0xDE3 JUMPI RETURNDATASIZE PUSH1 0x0 DUP1 RETURNDATACOPY RETURNDATASIZE PUSH1 0x0 REVERT JUMPDEST POP POP POP POP PUSH1 0x40 MLOAD RETURNDATASIZE PUSH1 0x1F NOT PUSH1 0x1F DUP3 ADD AND DUP3 ADD DUP1 PUSH1 0x40 MSTORE POP DUP2 ADD SWAP1 PUSH2 0xE07 SWAP2 SWAP1 PUSH2 0x16EA JUMP JUMPDEST SWAP2 POP SWAP2 POP PUSH1 0x9 SLOAD PUSH2 0xE1B PUSH1 0xA SLOAD DUP5 DUP5 PUSH2 0x8FD JUMP JUMPDEST PUSH2 0xE25 SWAP2 SWAP1 PUSH2 0x169B JUMP JUMPDEST SWAP4 POP POP POP POP SWAP1 JUMP JUMPDEST PUSH1 0x40 DUP1 MLOAD DUP1 DUP3 ADD SWAP1 SWAP2 MSTORE PUSH1 0xC DUP2 MSTORE PUSH12 0x5A65726F2061646472657373 PUSH1 0xA0 SHL PUSH1 0x20 DUP3 ADD MSTORE PUSH1 0x1 PUSH1 0x1 PUSH1 0xA0 SHL SUB DUP4 AND PUSH2 0xE77 JUMPI PUSH1 0x40 MLOAD PUSH3 0x461BCD PUSH1 0xE5 SHL DUP2 MSTORE PUSH1 0x4 ADD PUSH2 0x469 SWAP2 SWAP1 PUSH2 0x13DC JUMP JUMPDEST POP PUSH1 0x1 PUSH1 0x1 PUSH1 0xA0 SHL SUB DUP3 AND PUSH1 0x0 SWAP1 DUP2 MSTORE PUSH1 0x2 PUSH1 0x20 MSTORE PUSH1 0x40 DUP2 KECCAK256 SLOAD SWAP1 POP DUP2 DUP2 LT ISZERO PUSH1 0x40 MLOAD DUP1 PUSH1 0x40 ADD PUSH1 0x40 MSTORE DUP1 PUSH1 0xF DUP2 MSTORE PUSH1 0x20 ADD PUSH15 0x457863656564732062616C616E6365 PUSH1 0x88 SHL DUP2 MSTORE POP SWAP1 PUSH2 0xEDD JUMPI PUSH1 0x40 MLOAD PUSH3 0x461BCD PUSH1 0xE5 SHL DUP2 MSTORE PUSH1 0x4 ADD PUSH2 0x469 SWAP2 SWAP1 PUSH2 0x13DC JUMP JUMPDEST POP PUSH2 0xEEA DUP4 DUP4 PUSH1 0x0 PUSH2 0xFEC JUMP JUMPDEST POP POP POP JUMP JUMPDEST PUSH1 0x0 DUP1 PUSH1 0x0 PUSH2 0xEFE DUP7 DUP7 PUSH2 0x12AD JUMP JUMPDEST SWAP2 POP SWAP2 POP DUP2 PUSH1 0x0 SUB PUSH2 0xF23 JUMPI DUP4 DUP2 DUP2 PUSH2 0xF19 JUMPI PUSH2 0xF19 PUSH2 0x16B2 JUMP JUMPDEST DIV SWAP3 POP POP POP PUSH2 0x483 JUMP JUMPDEST DUP4 DUP3 LT ISZERO PUSH2 0x14D JUMPI PUSH1 0x0 PUSH2 0xF38 DUP8 DUP8 DUP8 PUSH2 0xFC5 JUMP JUMPDEST SWAP1 POP PUSH1 0x0 DUP1 PUSH2 0xF48 DUP6 DUP6 DUP6 PUSH2 0x12FA JUMP JUMPDEST SWAP2 POP SWAP2 POP DUP2 PUSH1 0x0 SUB PUSH2 0xF70 JUMPI DUP7 DUP2 DUP2 PUSH2 0xF63 JUMPI PUSH2 0xF63 PUSH2 0x16B2 JUMP JUMPDEST DIV SWAP6 POP POP POP POP POP POP PUSH2 0x483 JUMP JUMPDEST PUSH1 0x0 DUP8 PUSH2 0xF7E PUSH1 0x0 DUP11 PUSH2 0x132B JUMP JUMPDEST AND SWAP1 POP PUSH1 0x0 PUSH2 0xF8E DUP5 DUP5 DUP5 PUSH2 0x1337 JUMP JUMPDEST SWAP1 POP PUSH1 0x0 PUSH2 0xFAA DUP4 DUP12 DUP2 PUSH2 0xFA4 JUMPI PUSH2 0xFA4 PUSH2 0x16B2 JUMP JUMPDEST DIV PUSH2 0x1384 JUMP JUMPDEST SWAP1 POP PUSH2 0xFB6 DUP3 DUP3 PUSH2 0x13C1 JUMP JUMPDEST SWAP9 POP POP POP POP POP POP POP POP POP PUSH2 0x483 JUMP JUMPDEST PUSH1 0x0 DUP2 DUP1 PUSH2 0xFD5 JUMPI PUSH2 0xFD5 PUSH2 0x16B2 JUMP JUMPDEST DUP4 DUP6 MULMOD SWAP5 SWAP4 POP POP POP POP JUMP JUMPDEST PUSH1 0x0 PUSH2 0x483 DUP3 DUP5 PUSH2 0x1683 JUMP JUMPDEST PUSH1 0x1 PUSH1 0x1 PUSH1 0xA0 SHL SUB DUP4 AND PUSH1 0x0 SWAP1 DUP2 MSTORE PUSH1 0x2 PUSH1 0x20 MSTORE PUSH1 0x40 DUP2 KECCAK256 SLOAD PUSH1 0x9 DUP1 SLOAD SWAP2 SWAP3 SWAP1 SWAP2 PUSH2 0x1018 SWAP1 DUP5 SWAP1 PUSH2 0x169B JUMP JUMPDEST SWAP1 SWAP2 SSTORE POP POP PUSH1 0x1 PUSH1 0x1 PUSH1 0xA0 SHL SUB DUP4 AND PUSH1 0x0 SWAP1 DUP2 MSTORE PUSH1 0x5 PUSH1 0x20 MSTORE PUSH1 0x40 DUP2 KECCAK256 PUSH1 0x2 ADD SLOAD PUSH1 0xA DUP1 SLOAD SWAP2 SWAP3 SWAP1 SWAP2 PUSH2 0x104C SWAP1 DUP5 SWAP1 PUSH2 0x169B JUMP JUMPDEST SWAP1 SWAP2 SSTORE POP PUSH1 0x0 SWAP1 POP PUSH2 0x105D DUP5 PUSH2 0xBF5 JUMP JUMPDEST SWAP1 POP DUP1 ISZERO PUSH2 0x10D5 JUMPI PUSH1 0x1 PUSH1 0x1 PUSH1 0xA0 SHL SUB DUP5 AND PUSH1 0x0 SWAP1 DUP2 MSTORE PUSH1 0x5 PUSH1 0x20 MSTORE PUSH1 0x40 DUP2 KECCAK256 DUP1 SLOAD DUP4 SWAP3 SWAP1 PUSH2 0x108D SWAP1 DUP5 SWAP1 PUSH2 0x1683 JUMP JUMPDEST SWAP3 POP POP DUP2 SWAP1 SSTORE POP DUP1 PUSH1 0xB PUSH1 0x0 DUP3 DUP3 SLOAD PUSH2 0x10A6 SWAP2 SWAP1 PUSH2 0x1683 JUMP JUMPDEST SWAP1 SWAP2 SSTORE POP POP PUSH1 0x4 SLOAD PUSH2 0x10B8 SWAP1 NUMBER PUSH2 0x169B JUMP JUMPDEST PUSH1 0x1 PUSH1 0x1 PUSH1 0xA0 SHL SUB DUP6 AND PUSH1 0x0 SWAP1 DUP2 MSTORE PUSH1 0x5 PUSH1 0x20 MSTORE PUSH1 0x40 SWAP1 KECCAK256 PUSH1 0x1 ADD SSTORE JUMPDEST DUP2 ISZERO PUSH2 0x1127 JUMPI PUSH1 0x1 PUSH1 0x1 PUSH1 0xA0 SHL SUB DUP5 AND PUSH1 0x0 SWAP1 DUP2 MSTORE PUSH1 0x2 PUSH1 0x20 MSTORE PUSH1 0x40 DUP2 KECCAK256 DUP1 SLOAD DUP6 SWAP3 SWAP1 PUSH2 0x1103 SWAP1 DUP5 SWAP1 PUSH2 0x1683 JUMP JUMPDEST SWAP3 POP POP DUP2 SWAP1 SSTORE POP DUP3 PUSH1 0x3 PUSH1 0x0 DUP3 DUP3 SLOAD PUSH2 0x111C SWAP2 SWAP1 PUSH2 0x1683 JUMP JUMPDEST SWAP1 SWAP2 SSTORE POP PUSH2 0x116E SWAP1 POP JUMP JUMPDEST PUSH1 0x1 PUSH1 0x1 PUSH1 0xA0 SHL SUB DUP5 AND PUSH1 0x0 SWAP1 DUP2 MSTORE PUSH1 0x2 PUSH1 0x20 MSTORE PUSH1 0x40 DUP2 KECCAK256 DUP1 SLOAD DUP6 SWAP3 SWAP1 PUSH2 0x114F SWAP1 DUP5 SWAP1 PUSH2 0x169B JUMP JUMPDEST SWAP3 POP POP DUP2 SWAP1 SSTORE POP DUP3 PUSH1 0x3 PUSH1 0x0 DUP3 DUP3 SLOAD PUSH2 0x1168 SWAP2 SWAP1 PUSH2 0x169B JUMP JUMPDEST SWAP1 SWAP2 SSTORE POP POP JUMPDEST PUSH1 0x1 PUSH1 0x1 PUSH1 0xA0 SHL SUB DUP1 DUP6 AND PUSH1 0x0 SWAP1 DUP2 MSTORE PUSH1 0x5 PUSH1 0x20 MSTORE PUSH1 0x40 DUP2 KECCAK256 PUSH1 0x1 ADD SLOAD PUSH1 0xC SLOAD SWAP1 SWAP3 DUP3 SWAP2 AND PUSH4 0x5AFF34DC PUSH3 0x186A0 PUSH2 0x11A8 PUSH2 0x309 DUP3 PUSH2 0x1683 JUMP JUMPDEST PUSH1 0x40 MLOAD PUSH1 0x1 PUSH1 0x1 PUSH1 0xE0 SHL SUB NOT PUSH1 0xE0 DUP6 SWAP1 SHL AND DUP2 MSTORE PUSH1 0x4 DUP2 ADD SWAP3 SWAP1 SWAP3 MSTORE PUSH1 0x24 DUP3 ADD MSTORE PUSH1 0x44 DUP2 ADD DUP7 SWAP1 MSTORE PUSH1 0xA PUSH1 0x64 DUP3 ADD MSTORE PUSH1 0x84 ADD PUSH1 0x40 DUP1 MLOAD DUP1 DUP4 SUB DUP2 DUP7 GAS STATICCALL ISZERO DUP1 ISZERO PUSH2 0x11F6 JUMPI RETURNDATASIZE PUSH1 0x0 DUP1 RETURNDATACOPY RETURNDATASIZE PUSH1 0x0 REVERT JUMPDEST POP POP POP POP PUSH1 0x40 MLOAD RETURNDATASIZE PUSH1 0x1F NOT PUSH1 0x1F DUP3 ADD AND DUP3 ADD DUP1 PUSH1 0x40 MSTORE POP DUP2 ADD SWAP1 PUSH2 0x121A SWAP2 SWAP1 PUSH2 0x16EA JUMP JUMPDEST PUSH1 0x1 PUSH1 0x1 PUSH1 0xA0 SHL SUB DUP10 AND PUSH1 0x0 SWAP1 DUP2 MSTORE PUSH1 0x2 PUSH1 0x20 MSTORE PUSH1 0x40 DUP2 KECCAK256 SLOAD SWAP3 SWAP5 POP SWAP1 SWAP3 POP SWAP1 PUSH2 0x1245 SWAP1 DUP5 DUP5 PUSH2 0x8FD JUMP JUMPDEST PUSH1 0x1 PUSH1 0x1 PUSH1 0xA0 SHL SUB DUP10 AND PUSH1 0x0 SWAP1 DUP2 MSTORE PUSH1 0x5 PUSH1 0x20 SWAP1 DUP2 MSTORE PUSH1 0x40 DUP1 DUP4 KECCAK256 PUSH1 0x2 SWAP1 DUP2 ADD DUP6 SWAP1 SSTORE SWAP1 SWAP2 MSTORE DUP2 KECCAK256 SLOAD PUSH1 0x9 DUP1 SLOAD SWAP4 SWAP5 POP SWAP1 SWAP3 SWAP1 SWAP2 SWAP1 PUSH2 0x1285 SWAP1 DUP5 SWAP1 PUSH2 0x1683 JUMP JUMPDEST SWAP3 POP POP DUP2 SWAP1 SSTORE POP DUP1 PUSH1 0xA PUSH1 0x0 DUP3 DUP3 SLOAD PUSH2 0x129E SWAP2 SWAP1 PUSH2 0x1683 JUMP JUMPDEST SWAP1 SWAP2 SSTORE POP POP POP POP POP POP POP POP POP POP JUMP JUMPDEST PUSH1 0x0 DUP1 PUSH1 0x0 PUSH2 0x12BC DUP6 DUP6 PUSH2 0x13CD JUMP JUMPDEST SWAP1 POP PUSH1 0x0 PUSH2 0x12CA DUP7 DUP7 PUSH2 0x13C1 JUMP JUMPDEST SWAP1 POP DUP1 DUP3 LT PUSH2 0x12E0 JUMPI SWAP1 DUP2 SWAP1 SUB SWAP3 POP SWAP1 POP PUSH2 0x12F3 JUMP JUMPDEST PUSH1 0x1 PUSH2 0x12EC DUP4 DUP4 PUSH2 0x132B JUMP JUMPDEST SUB SWAP4 POP SWAP2 POP POP JUMPDEST SWAP3 POP SWAP3 SWAP1 POP JUMP JUMPDEST PUSH1 0x0 DUP1 DUP3 DUP5 LT PUSH2 0x1310 JUMPI POP DUP4 SWAP1 POP DUP2 DUP4 SUB PUSH2 0x1323 JUMP JUMPDEST PUSH1 0x1 DUP6 SUB PUSH2 0x131E DUP6 DUP6 PUSH2 0x132B JUMP JUMPDEST SWAP2 POP SWAP2 POP JUMPDEST SWAP4 POP SWAP4 SWAP2 POP POP JUMP JUMPDEST PUSH1 0x0 PUSH2 0x483 DUP3 DUP5 PUSH2 0x169B JUMP JUMPDEST PUSH1 0x0 DUP1 PUSH2 0x135E DUP4 PUSH2 0x1349 PUSH1 0x0 DUP7 PUSH2 0x132B JUMP JUMPDEST DUP2 PUSH2 0x1356 JUMPI PUSH2 0x1356 PUSH2 0x16B2 JUMP JUMPDEST POP PUSH1 0x0 SWAP2 SWAP1 POP JUMP JUMPDEST SWAP1 POP DUP3 DUP5 DUP2 PUSH2 0x136F JUMPI PUSH2 0x136F PUSH2 0x16B2 JUMP JUMPDEST DIV PUSH2 0x137A DUP7 DUP4 PUSH2 0x13C1 JUMP JUMPDEST OR SWAP6 SWAP5 POP POP POP POP POP JUMP JUMPDEST PUSH1 0x0 PUSH1 0x1 DUP2 JUMPDEST PUSH1 0x8 DUP2 LT ISZERO PUSH2 0x13BA JUMPI PUSH2 0x13B0 DUP3 PUSH2 0x13AB PUSH1 0x2 PUSH2 0x13A6 DUP7 DUP10 PUSH2 0x13C1 JUMP JUMPDEST PUSH2 0x132B JUMP JUMPDEST PUSH2 0x13C1 JUMP JUMPDEST SWAP2 POP PUSH1 0x1 ADD PUSH2 0x138A JUMP JUMPDEST POP SWAP3 SWAP2 POP POP JUMP JUMPDEST PUSH1 0x0 PUSH2 0x483 DUP3 DUP5 PUSH2 0x162F JUMP JUMPDEST PUSH1 0x0 PUSH1 0x0 NOT DUP3 DUP5 MULMOD SWAP4 SWAP3 POP POP POP JUMP JUMPDEST PUSH1 0x0 PUSH1 0x20 DUP1 DUP4 MSTORE DUP4 MLOAD DUP1 DUP3 DUP6 ADD MSTORE PUSH1 0x0 JUMPDEST DUP2 DUP2 LT ISZERO PUSH2 0x1409 JUMPI DUP6 DUP2 ADD DUP4 ADD MLOAD DUP6 DUP3 ADD PUSH1 0x40 ADD MSTORE DUP3 ADD PUSH2 0x13ED JUMP JUMPDEST DUP2 DUP2 GT ISZERO PUSH2 0x141B JUMPI PUSH1 0x0 PUSH1 0x40 DUP4 DUP8 ADD ADD MSTORE JUMPDEST POP PUSH1 0x1F ADD PUSH1 0x1F NOT AND SWAP3 SWAP1 SWAP3 ADD PUSH1 0x40 ADD SWAP4 SWAP3 POP POP POP JUMP JUMPDEST DUP1 CALLDATALOAD PUSH1 0x1 PUSH1 0x1 PUSH1 0xA0 SHL SUB DUP2 AND DUP2 EQ PUSH2 0x1448 JUMPI PUSH1 0x0 DUP1 REVERT JUMPDEST SWAP2 SWAP1 POP JUMP JUMPDEST PUSH1 0x0 DUP1 PUSH1 0x40 DUP4 DUP6 SUB SLT ISZERO PUSH2 0x1460 JUMPI PUSH1 0x0 DUP1 REVERT JUMPDEST PUSH2 0x1469 DUP4 PUSH2 0x1431 JUMP JUMPDEST SWAP5 PUSH1 0x20 SWAP4 SWAP1 SWAP4 ADD CALLDATALOAD SWAP4 POP POP POP JUMP JUMPDEST PUSH1 0x0 DUP1 PUSH1 0x0 PUSH1 0x60 DUP5 DUP7 SUB SLT ISZERO PUSH2 0x148C JUMPI PUSH1 0x0 DUP1 REVERT JUMPDEST PUSH2 0x1495 DUP5 PUSH2 0x1431 JUMP JUMPDEST SWAP3 POP PUSH2 0x14A3 PUSH1 0x20 DUP6 ADD PUSH2 0x1431 JUMP JUMPDEST SWAP2 POP PUSH1 0x40 DUP5 ADD CALLDATALOAD SWAP1 POP SWAP3 POP SWAP3 POP SWAP3 JUMP JUMPDEST PUSH1 0x0 PUSH1 0x20 DUP3 DUP5 SUB SLT ISZERO PUSH2 0x14C5 JUMPI PUSH1 0x0 DUP1 REVERT JUMPDEST PUSH2 0x483 DUP3 PUSH2 0x1431 JUMP JUMPDEST PUSH1 0x0 DUP1 PUSH1 0x40 DUP4 DUP6 SUB SLT ISZERO PUSH2 0x14E1 JUMPI PUSH1 0x0 DUP1 REVERT JUMPDEST PUSH2 0x14EA DUP4 PUSH2 0x1431 JUMP JUMPDEST SWAP2 POP PUSH2 0x14F8 PUSH1 0x20 DUP5 ADD PUSH2 0x1431 JUMP JUMPDEST SWAP1 POP SWAP3 POP SWAP3 SWAP1 POP JUMP JUMPDEST PUSH4 0x4E487B71 PUSH1 0xE0 SHL PUSH1 0x0 MSTORE PUSH1 0x11 PUSH1 0x4 MSTORE PUSH1 0x24 PUSH1 0x0 REVERT JUMPDEST PUSH1 0x0 PUSH1 0xFF DUP3 AND PUSH1 0xFF DUP5 AND DUP1 PUSH1 0xFF SUB DUP3 GT ISZERO PUSH2 0x1534 JUMPI PUSH2 0x1534 PUSH2 0x1501 JUMP JUMPDEST ADD SWAP4 SWAP3 POP POP POP JUMP JUMPDEST PUSH1 0x1 DUP2 DUP2 JUMPDEST DUP1 DUP6 GT ISZERO PUSH2 0x1577 JUMPI DUP2 PUSH1 0x0 NOT DIV DUP3 GT ISZERO PUSH2 0x155D JUMPI PUSH2 0x155D PUSH2 0x1501 JUMP JUMPDEST DUP1 DUP6 AND ISZERO PUSH2 0x156A JUMPI SWAP2 DUP2 MUL SWAP2 JUMPDEST SWAP4 DUP5 SHR SWAP4 SWAP1 DUP1 MUL SWAP1 PUSH2 0x1541 JUMP JUMPDEST POP SWAP3 POP SWAP3 SWAP1 POP JUMP JUMPDEST PUSH1 0x0 DUP3 PUSH2 0x158E JUMPI POP PUSH1 0x1 PUSH2 0x3D1 JUMP JUMPDEST DUP2 PUSH2 0x159B JUMPI POP PUSH1 0x0 PUSH2 0x3D1 JUMP JUMPDEST DUP2 PUSH1 0x1 DUP2 EQ PUSH2 0x15B1 JUMPI PUSH1 0x2 DUP2 EQ PUSH2 0x15BB JUMPI PUSH2 0x15D7 JUMP JUMPDEST PUSH1 0x1 SWAP2 POP POP PUSH2 0x3D1 JUMP JUMPDEST PUSH1 0xFF DUP5 GT ISZERO PUSH2 0x15CC JUMPI PUSH2 0x15CC PUSH2 0x1501 JUMP JUMPDEST POP POP PUSH1 0x1 DUP3 SHL PUSH2 0x3D1 JUMP JUMPDEST POP PUSH1 0x20 DUP4 LT PUSH2 0x133 DUP4 LT AND PUSH1 0x4E DUP5 LT PUSH1 0xB DUP5 LT AND OR ISZERO PUSH2 0x15FA JUMPI POP DUP2 DUP2 EXP PUSH2 0x3D1 JUMP JUMPDEST PUSH2 0x1604 DUP4 DUP4 PUSH2 0x153C JUMP JUMPDEST DUP1 PUSH1 0x0 NOT DIV DUP3 GT ISZERO PUSH2 0x1618 JUMPI PUSH2 0x1618 PUSH2 0x1501 JUMP JUMPDEST MUL SWAP4 SWAP3 POP POP POP JUMP JUMPDEST PUSH1 0x0 PUSH2 0x483 PUSH1 0xFF DUP5 AND DUP4 PUSH2 0x157F JUMP JUMPDEST PUSH1 0x0 DUP2 PUSH1 0x0 NOT DIV DUP4 GT DUP3 ISZERO ISZERO AND ISZERO PUSH2 0x1649 JUMPI PUSH2 0x1649 PUSH2 0x1501 JUMP JUMPDEST POP MUL SWAP1 JUMP JUMPDEST PUSH1 0x20 DUP1 DUP3 MSTORE DUP2 DUP2 ADD MSTORE PUSH32 0x4F776E61626C653A2063616C6C6572206973206E6F7420746865206F776E6572 PUSH1 0x40 DUP3 ADD MSTORE PUSH1 0x60 ADD SWAP1 JUMP JUMPDEST PUSH1 0x0 DUP3 NOT DUP3 GT ISZERO PUSH2 0x1696 JUMPI PUSH2 0x1696 PUSH2 0x1501 JUMP JUMPDEST POP ADD SWAP1 JUMP JUMPDEST PUSH1 0x0 DUP3 DUP3 LT ISZERO PUSH2 0x16AD JUMPI PUSH2 0x16AD PUSH2 0x1501 JUMP JUMPDEST POP SUB SWAP1 JUMP JUMPDEST PUSH4 0x4E487B71 PUSH1 0xE0 SHL PUSH1 0x0 MSTORE PUSH1 0x12 PUSH1 0x4 MSTORE PUSH1 0x24 PUSH1 0x0 REVERT JUMPDEST PUSH1 0x0 DUP3 PUSH2 0x16E5 JUMPI PUSH4 0x4E487B71 PUSH1 0xE0 SHL PUSH1 0x0 MSTORE PUSH1 0x12 PUSH1 0x4 MSTORE PUSH1 0x24 PUSH1 0x0 REVERT JUMPDEST POP DIV SWAP1 JUMP JUMPDEST PUSH1 0x0 DUP1 PUSH1 0x40 DUP4 DUP6 SUB SLT ISZERO PUSH2 0x16FD JUMPI PUSH1 0x0 DUP1 REVERT JUMPDEST POP POP DUP1 MLOAD PUSH1 0x20 SWAP1 SWAP2 ADD MLOAD SWAP1 SWAP3 SWAP1 SWAP2 POP JUMP INVALID LOG2 PUSH5 0x6970667358 0x22 SLT KECCAK256 0xDF MOD PUSH17 0xB535CC968EA40B51879357FC5757E33C86 MSIZE SIGNEXTEND 0xB4 0x2B GASLIMIT SWAP16 PUSH27 0x3B011827BB64736F6C634300080E00330000000000000000000000 "},"gasEstimates":{"creation":{"codeDepositCost":"1191200","executionCost":"infinite","totalCost":"infinite"},"external":{"DECIMALS()":"316","INITIAL_SUPPLY()":"655","MAX_SUPPLY()":"791","_decreaseAllowance(address,address,uint256)":"infinite","allowance(address,address)":"infinite","approve(address,uint256)":"infinite","balanceOf(address)":"2594","burn(address,uint256)":"infinite","checkForConsistency()":"infinite","decimals()":"246","decreaseAllowance(address,uint256)":"infinite","getTotalState()":"infinite","getUserState(address)":"infinite","increaseAllowance(address,uint256)":"infinite","mint(address,uint256)":"infinite","name()":"infinite","owner()":"2390","renounceOwnership()":"28159","symbol()":"infinite","totalSupply()":"2398","transfer(address,uint256)":"infinite","transferFrom(address,address,uint256)":"infinite","transferOwnership(address)":"28441"},"internal":{"_afterTokenTransfer(address,address,uint256)":"infinite","_approve(address,address,uint256)":"infinite","_beforeTokenTransfer(address,address,uint256)":"infinite","_burn(address,uint256)":"infinite","_changeUserShare(address,uint256,bool)":"infinite","_increaseAllowance(address,address,uint256)":"infinite","_mint(address,uint256)":"infinite","_netBalanceOf(address)":"infinite","_safeSubtract(uint256,uint256)":"infinite","_totalNetSupply()":"infinite","_transfer(address,address,uint256)":"infinite","_viewTotalPendingReward()":"infinite","_viewUserPendingReward(address)":"infinite"}},"methodIdentifiers":{"DECIMALS()":"2e0f2625","INITIAL_SUPPLY()":"2ff2e9dc","MAX_SUPPLY()":"32cb6b0c","_decreaseAllowance(address,address,uint256)":"a150da2a","allowance(address,address)":"dd62ed3e","approve(address,uint256)":"095ea7b3","balanceOf(address)":"70a08231","burn(address,uint256)":"9dc29fac","checkForConsistency()":"73957289","decimals()":"313ce567","decreaseAllowance(address,uint256)":"a457c2d7","getTotalState()":"bdfeb1e5","getUserState(address)":"416ae768","increaseAllowance(address,uint256)":"39509351","mint(address,uint256)":"40c10f19","name()":"06fdde03","owner()":"8da5cb5b","renounceOwnership()":"715018a6","symbol()":"95d89b41","totalSupply()":"18160ddd","transfer(address,uint256)":"a9059cbb","transferFrom(address,address,uint256)":"23b872dd","transferOwnership(address)":"f2fde38b"}},"storageLayout":{"storage":[{"astId":7,"contract":"contracts/research/SimpleExpRewardNovel.sol:SimpleExpRewardNovel","label":"_owner","offset":0,"slot":"0","type":"t_address"},{"astId":3367,"contract":"contracts/research/SimpleExpRewardNovel.sol:SimpleExpRewardNovel","label":"_allowances","offset":0,"slot":"1","type":"t_mapping(t_address,t_mapping(t_address,t_uint256))"},{"astId":3371,"contract":"contracts/research/SimpleExpRewardNovel.sol:SimpleExpRewardNovel","label":"_balances","offset":0,"slot":"2","type":"t_mapping(t_address,t_uint256)"},{"astId":3373,"contract":"contracts/research/SimpleExpRewardNovel.sol:SimpleExpRewardNovel","label":"_totalSupply","offset":0,"slot":"3","type":"t_uint256"},{"astId":3408,"contract":"contracts/research/SimpleExpRewardNovel.sol:SimpleExpRewardNovel","label":"initialBlock","offset":0,"slot":"4","type":"t_uint256"},{"astId":3413,"contract":"contracts/research/SimpleExpRewardNovel.sol:SimpleExpRewardNovel","label":"users","offset":0,"slot":"5","type":"t_mapping(t_address,t_struct(User)3406_storage)"},{"astId":3415,"contract":"contracts/research/SimpleExpRewardNovel.sol:SimpleExpRewardNovel","label":"alice","offset":0,"slot":"6","type":"t_address"},{"astId":3417,"contract":"contracts/research/SimpleExpRewardNovel.sol:SimpleExpRewardNovel","label":"bob","offset":0,"slot":"7","type":"t_address"},{"astId":3419,"contract":"contracts/research/SimpleExpRewardNovel.sol:SimpleExpRewardNovel","label":"carol","offset":0,"slot":"8","type":"t_address"},{"astId":3525,"contract":"contracts/research/SimpleExpRewardNovel.sol:SimpleExpRewardNovel","label":"latestNet","offset":0,"slot":"9","type":"t_uint256"},{"astId":3527,"contract":"contracts/research/SimpleExpRewardNovel.sol:SimpleExpRewardNovel","label":"VIRTUAL","offset":0,"slot":"10","type":"t_uint256"},{"astId":3529,"contract":"contracts/research/SimpleExpRewardNovel.sol:SimpleExpRewardNovel","label":"burnDone","offset":0,"slot":"11","type":"t_uint256"},{"astId":3861,"contract":"contracts/research/SimpleExpRewardNovel.sol:SimpleExpRewardNovel","label":"analyticMath","offset":0,"slot":"12","type":"t_contract(AnalyticMath)2365"}],"types":{"t_address":{"encoding":"inplace","label":"address","numberOfBytes":"20"},"t_contract(AnalyticMath)2365":{"encoding":"inplace","label":"contract AnalyticMath","numberOfBytes":"20"},"t_mapping(t_address,t_mapping(t_address,t_uint256))":{"encoding":"mapping","key":"t_address","label":"mapping(address => mapping(address => uint256))","numberOfBytes":"32","value":"t_mapping(t_address,t_uint256)"},"t_mapping(t_address,t_struct(User)3406_storage)":{"encoding":"mapping","key":"t_address","label":"mapping(address => struct SimpleExpRewardNovel.User)","numberOfBytes":"32","value":"t_struct(User)3406_storage"},"t_mapping(t_address,t_uint256)":{"encoding":"mapping","key":"t_address","label":"mapping(address => uint256)","numberOfBytes":"32","value":"t_uint256"},"t_struct(User)3406_storage":{"encoding":"inplace","label":"struct SimpleExpRewardNovel.User","members":[{"astId":3401,"contract":"contracts/research/SimpleExpRewardNovel.sol:SimpleExpRewardNovel","label":"reward","offset":0,"slot":"0","type":"t_uint256"},{"astId":3403,"contract":"contracts/research/SimpleExpRewardNovel.sol:SimpleExpRewardNovel","label":"latestBlock","offset":0,"slot":"1","type":"t_uint256"},{"astId":3405,"contract":"contracts/research/SimpleExpRewardNovel.sol:SimpleExpRewardNovel","label":"VIRTUAL","offset":0,"slot":"2","type":"t_uint256"}],"numberOfBytes":"96"},"t_uint256":{"encoding":"inplace","label":"uint256","numberOfBytes":"32"}}},"userdoc":{"kind":"user","methods":{},"version":1}}}}