{
  "_format": "hh-sol-artifact-1",
  "contractName": "AnalyticMath",
  "sourceName": "solidity-math-utils/project/contracts/AnalyticMath.sol",
  "abi": [
    {
      "inputs": [],
      "name": "init",
      "outputs": [],
      "stateMutability": "nonpayable",
      "type": "function"
    },
    {
      "inputs": [
        {
          "internalType": "uint256",
          "name": "a",
          "type": "uint256"
        },
        {
          "internalType": "uint256",
          "name": "b",
          "type": "uint256"
        },
        {
          "internalType": "uint256",
          "name": "c",
          "type": "uint256"
        },
        {
          "internalType": "uint256",
          "name": "d",
          "type": "uint256"
        }
      ],
      "name": "pow",
      "outputs": [
        {
          "internalType": "uint256",
          "name": "",
          "type": "uint256"
        },
        {
          "internalType": "uint256",
          "name": "",
          "type": "uint256"
        }
      ],
      "stateMutability": "view",
      "type": "function"
    }
  ],
  "bytecode": "0x608060405234801561001057600080fd5b506118f0806100206000396000f3fe608060405234801561001057600080fd5b50600436106100365760003560e01c80635aff34dc1461003b578063e1c7392a14610067575b600080fd5b61004e610049366004611810565b610071565b6040805192835260208301919091520160405180910390f35b61006f6100c9565b005b60008084861061009d5761009461008d6001607f1b88886108a0565b85856108bf565b915091506100c0565b6000806100b96100b26001607f1b898b6108a0565b87876108bf565b9450925050505b94509492505050565b61089e701c35fedd14ffffffffffffffffffffffff602055701b0ce43b323fffffffffffffffffffffff6021557019f0028ec1ffffffffffffffffffffffff6022557018ded91f0e7fffffffffffffffffffffff6023557017d8ec7f0417ffffffffffffffffffffff6024557016ddc6556cdbffffffffffffffffffffff6025557015ecf52776a1ffffffffffffffffffffff6026557015060c256cb2ffffffffffffffffffffff602755701428a2f98d72ffffffffffffffffffffff6028557013545598e5c23fffffffffffffffffffff602955701288c4161ce1dfffffffffffffffffffff602a557011c592761c666fffffffffffffffffffff602b5570110a688680a757ffffffffffffffffffff602c55701056f1b5bedf77ffffffffffffffffffff602d55700faadceceeff8bffffffffffffffffffff602e55700f05dc6b27edadffffffffffffffffffff602f55700e67a5a25da4107fffffffffffffffffff603055700dcff115b14eedffffffffffffffffffff603155700d3e7a392431239fffffffffffffffffff603255700cb2ff529eb71e4fffffffffffffffffff603355700c2d415c3db974afffffffffffffffffff603455700bad03e7d883f69bffffffffffffffffff603555700b320d03b2c343d5ffffffffffffffffff603655700abc25204e02828dffffffffffffffffff603755700a4b16f74ee4bb207fffffffffffffffff6038557009deaf736ac1f569ffffffffffffffffff603955700976bd9952c7aa957fffffffffffffffff603a557009131271922eaa606fffffffffffffffff603b557008b380f3558668c46fffffffffffffffff603c55700857ddf0117efa215bffffffffffffffff603d557007ffffffffffffffffffffffffffffffff603e557007abbf6f6abb9d087fffffffffffffffff603f5570075af62cbac95f7dfa7fffffffffffffff60405570070d7fb7452e187ac13fffffffffffffff6041557006c3390ecc8af379295fffffffffffffff60425570067c00a3b07ffc01fd6fffffffffffffff604355700637b647c39cbb9d3d27ffffffffffffff6044557005f63b1fc104dbd39587ffffffffffffff6045557005b771955b36e12f7235ffffffffffffff60465570057b3d49dda84556d6f6ffffffffffffff60475570054183095b2c8ececf30ffffffffffffff60485570050a28be635ca2b888f77fffffffffffff6049557004d5156639708c9db33c3fffffffffffff604a557004a23105873875bd52dfdfffffffffffff604b55700471649d87199aa990756fffffffffffff604c557004429a21a029d4c1457cfbffffffffffff604d55700415bc6d6fb7dd71af2cb3ffffffffffff604e557003eab73b3bbfe282243ce1ffffffffffff604f557003c1771ac9fb6b4c18e229ffffffffffff605055700399e96897690418f785257fffffffffff605155700373fc456c53bb779bf0ea9fffffffffff60525570034f9e8e490c48e67e6ab8bfffffffffff60535570032cbfd4a7adc790560b3337ffffffffff60545570030b50570f6e5d2acca94613ffffffffff6055557002eb40f9f620fda6b56c2861ffffffffff6056557002cc8340ecb0d0f520a6af58ffffffffff6057557002af09481380a0a35cf1ba02ffffffffff605855700292c5bdd3b92ec810287b1b3fffffffff605955700277abdcdab07d5a77ac6d6b9fffffffff605a5570025daf6654b1eaa55fd64df5efffffffff605b55700244c49c648baa98192dce88b7ffffffff605c5570022ce03cd5619a311b2471268bffffffff605d55700215f77c045fbe885654a44a0fffffffff605e557001ffffffffffffffffffffffffffffffff605f557001eaefdbdaaee7421fc4d3ede5ffffffff6060557001d6bd8b2eb257df7e8ca57b09bfffffff6061557001c35fedd14b861eb0443f7f133fffffff6062557001b0ce43b322bcde4a56e8ada5afffffff60635570019f0028ec1fff007f5a195a39dfffffff60645570018ded91f0e72ee74f49b15ba527ffffff60655570017d8ec7f04136f4e5615fd41a63ffffff60665570016ddc6556cdb84bdc8d12d22e6fffffff60675570015ecf52776a1155b5bd8395814f7fffff60685570015060c256cb23b3b3cc3754cf40ffffff6069557001428a2f98d728ae223ddab715be3fffff606a5570013545598e5c23276ccf0ede68034fffff606b557001288c4161ce1d6f54b7f61081194fffff606c5570011c592761c666aa641d5a01a40f17ffff606d55700110a688680a7530515f3e6e6cfdcdffff606e557001056f1b5bedf75c6bcb2ce8aed428ffff606f556ffaadceceeff8a0890f3875f008277fff6070556ff05dc6b27edad306388a600f6ba0bfff6071556fe67a5a25da41063de1495d5b18cdbfff6072556fdcff115b14eedde6fc3aa5353f2e4fff6073556fd3e7a3924312399f9aae2e0f868f8fff6074556fcb2ff529eb71e41582cccd5a1ee26fff6075556fc2d415c3db974ab32a51840c0b67edff6076556fbad03e7d883f69ad5b0a186184e06bff6077556fb320d03b2c343d4829abd6075f0cc5ff6078556fabc25204e02828d73c6e80bcdb1a95bf6079556fa4b16f74ee4bb2040a1ec6c15fbbf2df607a556f9deaf736ac1f569deb1b5ae3f36c130f607b556f976bd9952c7aa957f5937d790ef65037607c556f9131271922eaa6064b73a22d0bd4f2bf607d556f8b380f3558668c46c91c49a2f8e967b9607e556f857ddf0117efa215952912839f6473e6607f55565b565b60006108b56108b08585856108e2565b6109b8565b90505b9392505050565b6000806108d56108d08686866108e2565b6109eb565b915091505b935093915050565b60008060006108f18686610a42565b91509150816000036109165783818161090c5761090c611858565b04925050506108b8565b8382101561003657600061092b878787610a8f565b905060008061093b858585610aaa565b91509150816000036109635786818161095657610956611858565b04955050505050506108b8565b60008761097160008a610aca565b1690506000610981848484610ad6565b9050600061099d838b8161099757610997611858565b04610b23565b90506109a98282610b60565b985050505050505050506108b8565b600070015bf0a8b1457695355fb8ac404e7a79e48210156109e2576109dc82610b6c565b92915050565b6109dc82610f1e565b600080600160831b831015610a1057610a0383610fc8565b936001607f1b9350915050565b6000610a1b84611324565b9050610a3081607f0360ff1685901c82611407565b8160ff166001901b9250925050915091565b6000806000610a5185856117a7565b90506000610a5f8686610b60565b9050808210610a75579081900392509050610a88565b6001610a818383610aca565b0393509150505b9250929050565b60008180610a9f57610a9f611858565b838509949350505050565b600080828410610ac057508390508183036108da565b600185036108d585855b60006108b88284611884565b600080610afd83610ae8600086610aca565b81610af557610af5611858565b506000919050565b9050828481610b0e57610b0e611858565b04610b198683610b60565b1795945050505050565b60006001815b6008811015610b5957610b4f82610b4a6002610b458689610b60565b610aca565b610b60565b9150600101610b29565b5092915050565b60006108b8828461189b565b6000808080806fd3094c70f034de4b96ff7d5b6f99fcd98610610baf576001607e1b93909301926fd3094c70f034de4b96ff7d5b6f99fcd96001607f1b87020495505b6fa45af1e1f40c333b3de1db4dd55f29a88610610bec576001607d1b93909301926fa45af1e1f40c333b3de1db4dd55f29a86001607f1b87020495505b6f910b022db7ae67ce76b441c27035c6a28610610c29576001607c1b93909301926f910b022db7ae67ce76b441c27035c6a26001607f1b87020495505b6f88415abbe9a76bead8d00cf112e4d4a98610610c66576001607b1b93909301926f88415abbe9a76bead8d00cf112e4d4a96001607f1b87020495505b6f84102b00893f64c705e841d5d4064bd48610610ca3576001607a1b93909301926f84102b00893f64c705e841d5d4064bd46001607f1b87020495505b6f8204055aaef1c8bd5c3259f4822735a38610610ce057600160791b93909301926f8204055aaef1c8bd5c3259f4822735a36001607f1b87020495505b6f810100ab00222d861931c15e39b44e9a8610610d1d57600160781b93909301926f810100ab00222d861931c15e39b44e9a6001607f1b87020495505b6f808040155aabbbe9451521693554f7348610610d5a57600160771b93909301926f808040155aabbbe9451521693554f7346001607f1b87020495505b6f7fffffffffffffffffffffffffffffff19860192508291506001607f1b828002049050600160801b83810383020493909301926001607f1b828202049150600160811b836faaaaaaaaaaaaaaaaaaaaaaaaaaaaaaaa03830281610dc057610dc0611858565b0493909301926001607f1b828202049150600360801b836f9999999999999999999999999999999903830281610df857610df8611858565b0493909301926001607f1b828202049150600160821b836f9249249249249249249249249249249203830281610e3057610e30611858565b0493909301926001607f1b828202049150600560801b836f8e38e38e38e38e38e38e38e38e38e38e03830281610e6857610e68611858565b0493909301926001607f1b828202049150600360811b836f8ba2e8ba2e8ba2e8ba2e8ba2e8ba2e8b03830281610ea057610ea0611858565b0493909301926001607f1b828202049150600760801b836f89d89d89d89d89d89d89d89d89d89d8903830281610ed857610ed8611858565b0493909301926001607f1b828202049150600160831b836f8888888888888888888888888888888803830281610f1057610f10611858565b049390930195945050505050565b600080600160801b8310610f4e576000610f3d6001607f1b85046117b6565b60ff1693841c936001607f1b029150505b6001607f1b831115610f9c57607f5b60ff811615610f9a576001607f1b848002049350600160801b8410610f9157600193841c9360ff6000198301161b91909101905b60001901610f5d565b505b6f05b9de1d10bf4103d647b0955897ba806f03f80fe03f80fe03f80fe03f80fe03f88202049392505050565b60008080806001607c1b850691508190506001607f1b818002046710e1b3be415a00008102939093019290506001607f1b828202046705a0913f6b1e00008102939093019290506001607f1b82820204670168244fdac780008102939093019290506001607f1b82820204664807432bc180008102939093019290506001607f1b82820204660c0135dca040008102939093019290506001607f1b828202046601b707b1cdc0008102939093019290506001607f1b828202046536e0f639b8008102939093019290506001607f1b82820204650618fee9f8008102939093019290506001607f1b82820204649c197dcc008102939093019290506001607f1b82820204640e30dce4008102939093019290506001607f1b8282020464012ebd13008102939093019290506001607f1b828202046317499f008102939093019290506001607f1b828202046301a9d4808102939093019290506001607f1b82820204621c63808102939093019290506001607f1b828202046201c6388102939093019290506001607f1b82820204611ab88102939093019290506001607f1b8282020461017c8102939093019290506001607f1b8282020460148102939093019290506001607f1b828202049283019290506001607f1b826721c3677c82b400008504010192506001607c1b8516156111e45770018ebef9eac820ae8682b9793ac6d1e7767001c3d6a24ed82218787d624d3e5eba95f984020492505b6001607d1b85161561121a577001368b2fc6f9609fe7aceb46aa619baed470018ebef9eac820ae8682b9793ac6d1e77884020492505b6001607e1b85161561124f576fbc5ab1b16779be3575bd8f0520a9f21f7001368b2fc6f9609fe7aceb46aa619baed584020492505b6001607f1b851615611283576f454aaa8efe072e7f6ddbab84b40a55c96fbc5ab1b16779be3575bd8f0520a9f21e84020492505b600160801b8516156112b7576f0960aadc109e7a3bf4578099615711ea6f454aaa8efe072e7f6ddbab84b40a55c584020492505b600160811b8516156112ea576e2bf84208204f5977f9a8cf01fdce3d6f0960aadc109e7a3bf4578099615711d784020492505b600160821b85161561131b576d03c6ab775dd0b95b4cbee7e65d116e2bf84208204f5977f9a8cf01fdc30784020492505b50909392505050565b60006020607f5b8060ff168260010160ff161015611379576000600260ff848401160490508460008260ff166080811061136057611360611842565b01541061136f57809250611373565b8091505b5061132b565b8360008260ff166080811061139057611390611842565b01541061139e579392505050565b8360008360ff16608081106113b5576113b5611842565b0154106113c3575092915050565b60405162461bcd60e51b81526020600482015260156024820152740ccd2dcc8a0dee6d2e8d2dedc7440f0407c40dac2f605b1b604482015260640160405180910390fd5b60008083905060008360ff16858302901c9150816f03442c4e6074a82f1797f72ac000000002810190508360ff16858302901c9150816f0116b96f757c380fb287fd0e4000000002810190508360ff16858302901c9150816e45ae5bdd5f0e03eca1ff439000000002810190508360ff16858302901c9150816e0defabf91302cd95b9ffda5000000002810190508360ff16858302901c9150816e02529ca9832b22439efff9b800000002810190508360ff16858302901c9150816d54f1cf12bd04e516b6da8800000002810190508360ff16858302901c9150816d0a9e39e257a09ca2d6db5100000002810190508360ff16858302901c9150816d012e066e7b839fa050c30900000002810190508360ff16858302901c9150816c1e33d7d926c329a1ad1a80000002810190508360ff16858302901c9150816c02bee513bdb4a6b19b5f80000002810190508360ff16858302901c9150816b3a9316fa79b88eccf2a0000002810190508360ff16858302901c9150816b048177ebe1fa81237520000002810190508360ff16858302901c9150816a5263fe90242dcbacf0000002810190508360ff16858302901c9150816a057e22099c030d9410000002810190508360ff16858302901c9150816957e22099c030d941000002810190508360ff16858302901c91508169052b6b5456997631000002810190508360ff16858302901c915081684985f67696bf74800002810190508360ff16858302901c9150816803dea12ea99e49800002810190508360ff16858302901c9150816731880f2214b6e00002810190508360ff16858302901c91508167025bcff56eb3600002810190508360ff16858302901c915081661b722e10ab100002810190508360ff16858302901c9150816601317c7007700002810190508360ff16858302901c915081650cba84aafa0002810190508360ff16858302901c9150816482573a0a0002810190508360ff16858302901c9150816405035ad90002810190508360ff16858302901c915081632f881b0002810190508360ff16858302901c9150816301b2934002810190508360ff16858302901c915081620efc4002810190508360ff16858302901c915081617fe002810190508360ff16858302901c91508161042002810190508360ff16858302901c915081602102810190508360ff16858302901c915081600102810190508360ff166001901b856f0688589cc0e9505e2f2fee5580000000838161179b5761179b611858565b04010195945050505050565b60006000198284099392505050565b6000806101008310156117de575b60018311156117d957600192831c92016117c4565b6109dc565b60805b60ff811615610b5957600160ff82161b84106118055760ff81169390931c92908117905b60011c607f166117e1565b6000806000806080858703121561182657600080fd5b5050823594602084013594506040840135936060013592509050565b634e487b7160e01b600052603260045260246000fd5b634e487b7160e01b600052601260045260246000fd5b634e487b7160e01b600052601160045260246000fd5b6000828210156118965761189661186e565b500390565b60008160001904831182151516156118b5576118b561186e565b50029056fea2646970667358221220f48f24dcca03372603f27f18d5fb92c83a0c94c3f56b0f785699ab62c3ef969b64736f6c634300080e0033",
  "linkReferences": {},
  "deployedLinkReferences": {}
}