{
  "_format": "hh-sol-artifact-1",
  "contractName": "Keep3rHelperParameters",
  "sourceName": "contracts/contracts/Keep3rHelperParameters.sol",
  "abi": [
    {
      "inputs": [
        {
          "internalType": "address",
          "name": "_keep3rV2",
          "type": "address"
        },
        {
          "internalType": "address",
          "name": "_governance",
          "type": "address"
        }
      ],
      "stateMutability": "nonpayable",
      "type": "constructor"
    },
    {
      "inputs": [],
      "name": "InvalidKp3rPool",
      "type": "error"
    },
    {
      "inputs": [],
      "name": "NoGovernanceZeroAddress",
      "type": "error"
    },
    {
      "inputs": [],
      "name": "OnlyGovernance",
      "type": "error"
    },
    {
      "inputs": [],
      "name": "OnlyPendingGovernance",
      "type": "error"
    },
    {
      "anonymous": false,
      "inputs": [
        {
          "indexed": false,
          "internalType": "address",
          "name": "_pendingGovernance",
          "type": "address"
        }
      ],
      "name": "GovernanceProposal",
      "type": "event"
    },
    {
      "anonymous": false,
      "inputs": [
        {
          "indexed": false,
          "internalType": "address",
          "name": "_governance",
          "type": "address"
        }
      ],
      "name": "GovernanceSet",
      "type": "event"
    },
    {
      "anonymous": false,
      "inputs": [
        {
          "indexed": false,
          "internalType": "address",
          "name": "_keep3rV2",
          "type": "address"
        }
      ],
      "name": "Keep3rV2Change",
      "type": "event"
    },
    {
      "anonymous": false,
      "inputs": [
        {
          "indexed": false,
          "internalType": "address",
          "name": "_address",
          "type": "address"
        },
        {
          "indexed": false,
          "internalType": "bool",
          "name": "_isKP3RToken0",
          "type": "bool"
        }
      ],
      "name": "Kp3rWethPoolChange",
      "type": "event"
    },
    {
      "anonymous": false,
      "inputs": [
        {
          "indexed": false,
          "internalType": "uint256",
          "name": "_maxBoost",
          "type": "uint256"
        }
      ],
      "name": "MaxBoostChange",
      "type": "event"
    },
    {
      "anonymous": false,
      "inputs": [
        {
          "indexed": false,
          "internalType": "uint256",
          "name": "_minBoost",
          "type": "uint256"
        }
      ],
      "name": "MinBoostChange",
      "type": "event"
    },
    {
      "anonymous": false,
      "inputs": [
        {
          "indexed": false,
          "internalType": "uint32",
          "name": "_quoteTwapTime",
          "type": "uint32"
        }
      ],
      "name": "QuoteTwapTimeChange",
      "type": "event"
    },
    {
      "anonymous": false,
      "inputs": [
        {
          "indexed": false,
          "internalType": "uint256",
          "name": "_targetBond",
          "type": "uint256"
        }
      ],
      "name": "TargetBondChange",
      "type": "event"
    },
    {
      "anonymous": false,
      "inputs": [
        {
          "indexed": false,
          "internalType": "uint256",
          "name": "_workExtraGas",
          "type": "uint256"
        }
      ],
      "name": "WorkExtraGasChange",
      "type": "event"
    },
    {
      "inputs": [],
      "name": "BOOST_BASE",
      "outputs": [
        {
          "internalType": "uint256",
          "name": "",
          "type": "uint256"
        }
      ],
      "stateMutability": "view",
      "type": "function"
    },
    {
      "inputs": [],
      "name": "KP3R",
      "outputs": [
        {
          "internalType": "address",
          "name": "",
          "type": "address"
        }
      ],
      "stateMutability": "view",
      "type": "function"
    },
    {
      "inputs": [],
      "name": "acceptGovernance",
      "outputs": [],
      "stateMutability": "nonpayable",
      "type": "function"
    },
    {
      "inputs": [],
      "name": "governance",
      "outputs": [
        {
          "internalType": "address",
          "name": "",
          "type": "address"
        }
      ],
      "stateMutability": "view",
      "type": "function"
    },
    {
      "inputs": [],
      "name": "keep3rV2",
      "outputs": [
        {
          "internalType": "address",
          "name": "",
          "type": "address"
        }
      ],
      "stateMutability": "view",
      "type": "function"
    },
    {
      "inputs": [],
      "name": "kp3rWethPool",
      "outputs": [
        {
          "internalType": "address",
          "name": "poolAddress",
          "type": "address"
        },
        {
          "internalType": "bool",
          "name": "isKP3RToken0",
          "type": "bool"
        }
      ],
      "stateMutability": "view",
      "type": "function"
    },
    {
      "inputs": [],
      "name": "maxBoost",
      "outputs": [
        {
          "internalType": "uint256",
          "name": "",
          "type": "uint256"
        }
      ],
      "stateMutability": "view",
      "type": "function"
    },
    {
      "inputs": [],
      "name": "minBoost",
      "outputs": [
        {
          "internalType": "uint256",
          "name": "",
          "type": "uint256"
        }
      ],
      "stateMutability": "view",
      "type": "function"
    },
    {
      "inputs": [],
      "name": "pendingGovernance",
      "outputs": [
        {
          "internalType": "address",
          "name": "",
          "type": "address"
        }
      ],
      "stateMutability": "view",
      "type": "function"
    },
    {
      "inputs": [],
      "name": "quoteTwapTime",
      "outputs": [
        {
          "internalType": "uint32",
          "name": "",
          "type": "uint32"
        }
      ],
      "stateMutability": "view",
      "type": "function"
    },
    {
      "inputs": [
        {
          "internalType": "address",
          "name": "_governance",
          "type": "address"
        }
      ],
      "name": "setGovernance",
      "outputs": [],
      "stateMutability": "nonpayable",
      "type": "function"
    },
    {
      "inputs": [
        {
          "internalType": "address",
          "name": "_keep3rV2",
          "type": "address"
        }
      ],
      "name": "setKeep3rV2",
      "outputs": [],
      "stateMutability": "nonpayable",
      "type": "function"
    },
    {
      "inputs": [
        {
          "internalType": "address",
          "name": "_poolAddress",
          "type": "address"
        }
      ],
      "name": "setKp3rWethPool",
      "outputs": [],
      "stateMutability": "nonpayable",
      "type": "function"
    },
    {
      "inputs": [
        {
          "internalType": "uint256",
          "name": "_maxBoost",
          "type": "uint256"
        }
      ],
      "name": "setMaxBoost",
      "outputs": [],
      "stateMutability": "nonpayable",
      "type": "function"
    },
    {
      "inputs": [
        {
          "internalType": "uint256",
          "name": "_minBoost",
          "type": "uint256"
        }
      ],
      "name": "setMinBoost",
      "outputs": [],
      "stateMutability": "nonpayable",
      "type": "function"
    },
    {
      "inputs": [
        {
          "internalType": "uint32",
          "name": "_quoteTwapTime",
          "type": "uint32"
        }
      ],
      "name": "setQuoteTwapTime",
      "outputs": [],
      "stateMutability": "nonpayable",
      "type": "function"
    },
    {
      "inputs": [
        {
          "internalType": "uint256",
          "name": "_targetBond",
          "type": "uint256"
        }
      ],
      "name": "setTargetBond",
      "outputs": [],
      "stateMutability": "nonpayable",
      "type": "function"
    },
    {
      "inputs": [
        {
          "internalType": "uint256",
          "name": "_workExtraGas",
          "type": "uint256"
        }
      ],
      "name": "setWorkExtraGas",
      "outputs": [],
      "stateMutability": "nonpayable",
      "type": "function"
    },
    {
      "inputs": [],
      "name": "targetBond",
      "outputs": [
        {
          "internalType": "uint256",
          "name": "",
          "type": "uint256"
        }
      ],
      "stateMutability": "view",
      "type": "function"
    },
    {
      "inputs": [],
      "name": "workExtraGas",
      "outputs": [
        {
          "internalType": "uint256",
          "name": "",
          "type": "uint256"
        }
      ],
      "stateMutability": "view",
      "type": "function"
    }
  ],
  "bytecode": "0x6080604052612af8600255612ee0600355680ad78ebc5ac620000060045561c3506005556006805463ffffffff191661025817905534801561004057600080fd5b50604051610c41380380610c4183398101604081905261005f91610292565b806001600160a01b0381166100865760405162b293ed60e81b815260040160405180910390fd5b600080546001600160a01b0319166001600160a01b0392831617905560068054600160201b600160c01b031916640100000000928516929092029190911790556100e37311b7a6bc0259ed6cf9db8f499988f9ecc7167bf56100ea565b50506102e7565b6000731ceb5cb57c4d4e2b2433641b95dd330a33185a446001600160a01b0316826001600160a01b0316630dfe16816040518163ffffffff1660e01b8152600401602060405180830381865afa158015610148573d6000803e3d6000fd5b505050506040513d601f19601f8201168201806040525081019061016c91906102c5565b6001600160a01b03161490506000731ceb5cb57c4d4e2b2433641b95dd330a33185a446001600160a01b0316836001600160a01b031663d21220a76040518163ffffffff1660e01b8152600401602060405180830381865afa1580156101d6573d6000803e3d6000fd5b505050506040513d601f19601f820116820180604052508101906101fa91906102c5565b6001600160a01b031614905081158015610212575080155b1561023057604051637c395fed60e01b815260040160405180910390fd5b50604080518082019091526001600160a01b03929092168083529015156020909201829052600780546001600160a81b031916909117600160a01b909202919091179055565b80516001600160a01b038116811461028d57600080fd5b919050565b600080604083850312156102a557600080fd5b6102ae83610276565b91506102bc60208401610276565b90509250929050565b6000602082840312156102d757600080fd5b6102e082610276565b9392505050565b61094b806102f66000396000f3fe608060405234801561001057600080fd5b506004361061012c5760003560e01c80633facf242116100ad578063ab033ea911610071578063ab033ea91461028b578063ab5dce001461029e578063b2e0df96146102b1578063b93f5af0146102c4578063f39c38a0146102d757600080fd5b80633facf242146102035780635aa6e6751461020c5780637b40c9131461021f5780638561579c1461025d5780639aaad6791461026657600080fd5b806325f09e61116100f457806325f09e61146101b45780632742b9e7146101cb578063289adb44146101d457806337090c2f146101e75780633cc7ab30146101f057600080fd5b806305e0b9a0146101315780630c52583514610169578063117cfc1b1461017e578063160e1e3114610199578063238efcbc146101ac575b600080fd5b61014c731ceb5cb57c4d4e2b2433641b95dd330a33185a4481565b6040516001600160a01b0390911681526020015b60405180910390f35b61017c61017736600461087d565b6102ea565b005b60065461014c9064010000000090046001600160a01b031681565b61017c6101a73660046108ae565b610351565b61017c6103d2565b6101bd61271081565b604051908152602001610160565b6101bd60045481565b61017c6101e236600461087d565b61045b565b6101bd60035481565b61017c6101fe3660046108ae565b6104bb565b6101bd60055481565b60005461014c906001600160a01b031681565b60075461023e906001600160a01b03811690600160a01b900460ff1682565b604080516001600160a01b039093168352901515602083015201610160565b6101bd60025481565b6006546102769063ffffffff1681565b60405163ffffffff9091168152602001610160565b61017c6102993660046108ae565b610545565b61017c6102ac36600461087d565b6105be565b61017c6102bf36600461087d565b61061e565b61017c6102d23660046108d2565b61067e565b60015461014c906001600160a01b031681565b6000546001600160a01b03163314610315576040516354348f0360e01b815260040160405180910390fd5b60028190556040518181527f0919fdaaac0f59c6bc7eeef4f975d6163475220f1e4820d0bce99c84c51cac1d906020015b60405180910390a150565b6000546001600160a01b0316331461037c576040516354348f0360e01b815260040160405180910390fd5b610385816106f1565b600754604080516001600160a01b0383168152600160a01b90920460ff16151560208301527f554c636366d5fc882a9ab4b7b9d5181781d1a7076abe50ed410365620dcf41089101610346565b6001546001600160a01b031633146103fd57604051637ef5703160e11b815260040160405180910390fd5b60018054600080546001600160a01b0383166001600160a01b031991821681179092559091169091556040519081527fc73be659241aade67e9a059bcf21494955018b213dbd1179054ccf928b13f3b69060200160405180910390a1565b6000546001600160a01b03163314610486576040516354348f0360e01b815260040160405180910390fd5b60058190556040518181527fed847bdbab1a30becee18585f23c759bd06156561390d2e7fbffd18e74b56c9b90602001610346565b6000546001600160a01b031633146104e6576040516354348f0360e01b815260040160405180910390fd5b60068054640100000000600160c01b0319166401000000006001600160a01b038481168202929092179283905560405192041681527fcf744e4fc39d49b6d8103035078629b8a3be95adc007b0d663e96bdff777b10a90602001610346565b6000546001600160a01b03163314610570576040516354348f0360e01b815260040160405180910390fd5b600180546001600160a01b0319166001600160a01b0383169081179091556040519081527fe987aaedf9d279143bdf1eee16cf1d0feb47742867d81083df8d6cd0a5ac857f90602001610346565b6000546001600160a01b031633146105e9576040516354348f0360e01b815260040160405180910390fd5b60048190556040518181527feac367d684b6ac6c6ae7e3e852c06f17e6354e0f1e7122832c3e6d17e0a2b71e90602001610346565b6000546001600160a01b03163314610649576040516354348f0360e01b815260040160405180910390fd5b60038190556040518181527fa1292b4e7a0d916ccfd2bc83858b05f328e344d1f0f507d97ac66723ac7c2aaa90602001610346565b6000546001600160a01b031633146106a9576040516354348f0360e01b815260040160405180910390fd5b6006805463ffffffff191663ffffffff83169081179091556040519081527fc806e26fb64e3a95f4b70abf4d87280555696244d01068b5f45b0e515aceb1de90602001610346565b6000731ceb5cb57c4d4e2b2433641b95dd330a33185a446001600160a01b0316826001600160a01b0316630dfe16816040518163ffffffff1660e01b8152600401602060405180830381865afa15801561074f573d6000803e3d6000fd5b505050506040513d601f19601f8201168201806040525081019061077391906108f8565b6001600160a01b03161490506000731ceb5cb57c4d4e2b2433641b95dd330a33185a446001600160a01b0316836001600160a01b031663d21220a76040518163ffffffff1660e01b8152600401602060405180830381865afa1580156107dd573d6000803e3d6000fd5b505050506040513d601f19601f8201168201806040525081019061080191906108f8565b6001600160a01b031614905081158015610819575080155b1561083757604051637c395fed60e01b815260040160405180910390fd5b50604080518082019091526001600160a01b03929092168083529015156020909201829052600780546001600160a81b031916909117600160a01b909202919091179055565b60006020828403121561088f57600080fd5b5035919050565b6001600160a01b03811681146108ab57600080fd5b50565b6000602082840312156108c057600080fd5b81356108cb81610896565b9392505050565b6000602082840312156108e457600080fd5b813563ffffffff811681146108cb57600080fd5b60006020828403121561090a57600080fd5b81516108cb8161089656fea2646970667358221220ca711e251adbc9d04273d4cf2201a3d83b29d3fc1f322054df8ca8f6e5eb2a6464736f6c634300080e0033",
  "linkReferences": {},
  "deployedLinkReferences": {}
}