{
  "_format": "hh-sol-artifact-1",
  "contractName": "SimpleExpReward",
  "sourceName": "contracts/research/SimpleExpReward.sol",
  "abi": [
    {
      "inputs": [
        {
          "internalType": "address",
          "name": "_analyticMath",
          "type": "address"
        }
      ],
      "stateMutability": "nonpayable",
      "type": "constructor"
    },
    {
      "anonymous": false,
      "inputs": [
        {
          "indexed": true,
          "internalType": "address",
          "name": "previousOwner",
          "type": "address"
        },
        {
          "indexed": true,
          "internalType": "address",
          "name": "newOwner",
          "type": "address"
        }
      ],
      "name": "OwnershipTransferred",
      "type": "event"
    },
    {
      "inputs": [],
      "name": "DECIMALS",
      "outputs": [
        {
          "internalType": "uint8",
          "name": "",
          "type": "uint8"
        }
      ],
      "stateMutability": "view",
      "type": "function"
    },
    {
      "inputs": [],
      "name": "INITIAL_SUPPLY",
      "outputs": [
        {
          "internalType": "uint256",
          "name": "",
          "type": "uint256"
        }
      ],
      "stateMutability": "view",
      "type": "function"
    },
    {
      "inputs": [],
      "name": "MAX_SUPPLY",
      "outputs": [
        {
          "internalType": "uint256",
          "name": "",
          "type": "uint256"
        }
      ],
      "stateMutability": "view",
      "type": "function"
    },
    {
      "inputs": [
        {
          "internalType": "address",
          "name": "_owner",
          "type": "address"
        },
        {
          "internalType": "address",
          "name": "_spender",
          "type": "address"
        },
        {
          "internalType": "uint256",
          "name": "subtractedValue",
          "type": "uint256"
        }
      ],
      "name": "_decreaseAllowance",
      "outputs": [
        {
          "internalType": "bool",
          "name": "",
          "type": "bool"
        }
      ],
      "stateMutability": "nonpayable",
      "type": "function"
    },
    {
      "inputs": [],
      "name": "accRewardPerShare12",
      "outputs": [
        {
          "internalType": "uint256",
          "name": "",
          "type": "uint256"
        }
      ],
      "stateMutability": "view",
      "type": "function"
    },
    {
      "inputs": [
        {
          "internalType": "address",
          "name": "_owner",
          "type": "address"
        },
        {
          "internalType": "address",
          "name": "_spender",
          "type": "address"
        }
      ],
      "name": "allowance",
      "outputs": [
        {
          "internalType": "uint256",
          "name": "",
          "type": "uint256"
        }
      ],
      "stateMutability": "view",
      "type": "function"
    },
    {
      "inputs": [],
      "name": "alpha",
      "outputs": [
        {
          "internalType": "uint256",
          "name": "",
          "type": "uint256"
        }
      ],
      "stateMutability": "view",
      "type": "function"
    },
    {
      "inputs": [
        {
          "internalType": "address",
          "name": "spender",
          "type": "address"
        },
        {
          "internalType": "uint256",
          "name": "amount",
          "type": "uint256"
        }
      ],
      "name": "approve",
      "outputs": [
        {
          "internalType": "bool",
          "name": "",
          "type": "bool"
        }
      ],
      "stateMutability": "nonpayable",
      "type": "function"
    },
    {
      "inputs": [
        {
          "internalType": "address",
          "name": "account",
          "type": "address"
        }
      ],
      "name": "balanceOf",
      "outputs": [
        {
          "internalType": "uint256",
          "name": "",
          "type": "uint256"
        }
      ],
      "stateMutability": "view",
      "type": "function"
    },
    {
      "inputs": [
        {
          "internalType": "address",
          "name": "from",
          "type": "address"
        },
        {
          "internalType": "uint256",
          "name": "amount",
          "type": "uint256"
        }
      ],
      "name": "burn",
      "outputs": [],
      "stateMutability": "nonpayable",
      "type": "function"
    },
    {
      "inputs": [],
      "name": "checkForConsistency",
      "outputs": [
        {
          "internalType": "uint256",
          "name": "pending_collective",
          "type": "uint256"
        },
        {
          "internalType": "uint256",
          "name": "pending_marginal",
          "type": "uint256"
        },
        {
          "internalType": "uint256",
          "name": "abs_error",
          "type": "uint256"
        },
        {
          "internalType": "uint256",
          "name": "error_rate",
          "type": "uint256"
        }
      ],
      "stateMutability": "view",
      "type": "function"
    },
    {
      "inputs": [],
      "name": "decimals",
      "outputs": [
        {
          "internalType": "uint8",
          "name": "",
          "type": "uint8"
        }
      ],
      "stateMutability": "view",
      "type": "function"
    },
    {
      "inputs": [
        {
          "internalType": "address",
          "name": "spender",
          "type": "address"
        },
        {
          "internalType": "uint256",
          "name": "subtractedValue",
          "type": "uint256"
        }
      ],
      "name": "decreaseAllowance",
      "outputs": [
        {
          "internalType": "bool",
          "name": "",
          "type": "bool"
        }
      ],
      "stateMutability": "nonpayable",
      "type": "function"
    },
    {
      "inputs": [],
      "name": "distCycle",
      "outputs": [
        {
          "internalType": "uint256",
          "name": "",
          "type": "uint256"
        }
      ],
      "stateMutability": "view",
      "type": "function"
    },
    {
      "inputs": [],
      "name": "getTotalState",
      "outputs": [
        {
          "internalType": "uint256",
          "name": "totalSupply",
          "type": "uint256"
        },
        {
          "internalType": "uint256",
          "name": "_latestBlock",
          "type": "uint256"
        },
        {
          "internalType": "uint256",
          "name": "_accRewardPerShare12",
          "type": "uint256"
        },
        {
          "internalType": "uint256",
          "name": "_rewordPool",
          "type": "uint256"
        },
        {
          "internalType": "uint256",
          "name": "_totalPendingReward",
          "type": "uint256"
        }
      ],
      "stateMutability": "view",
      "type": "function"
    },
    {
      "inputs": [
        {
          "internalType": "address",
          "name": "user",
          "type": "address"
        }
      ],
      "name": "getUserState",
      "outputs": [
        {
          "internalType": "uint256",
          "name": "_share",
          "type": "uint256"
        },
        {
          "internalType": "uint256",
          "name": "_reward",
          "type": "uint256"
        },
        {
          "internalType": "uint256",
          "name": "_rewardDebt",
          "type": "uint256"
        },
        {
          "internalType": "uint256",
          "name": "_userPendingReward",
          "type": "uint256"
        }
      ],
      "stateMutability": "view",
      "type": "function"
    },
    {
      "inputs": [
        {
          "internalType": "address",
          "name": "spender",
          "type": "address"
        },
        {
          "internalType": "uint256",
          "name": "addedValue",
          "type": "uint256"
        }
      ],
      "name": "increaseAllowance",
      "outputs": [
        {
          "internalType": "bool",
          "name": "",
          "type": "bool"
        }
      ],
      "stateMutability": "nonpayable",
      "type": "function"
    },
    {
      "inputs": [
        {
          "internalType": "address",
          "name": "to",
          "type": "address"
        },
        {
          "internalType": "uint256",
          "name": "amount",
          "type": "uint256"
        }
      ],
      "name": "mint",
      "outputs": [],
      "stateMutability": "nonpayable",
      "type": "function"
    },
    {
      "inputs": [],
      "name": "name",
      "outputs": [
        {
          "internalType": "string",
          "name": "",
          "type": "string"
        }
      ],
      "stateMutability": "view",
      "type": "function"
    },
    {
      "inputs": [],
      "name": "owner",
      "outputs": [
        {
          "internalType": "address",
          "name": "",
          "type": "address"
        }
      ],
      "stateMutability": "view",
      "type": "function"
    },
    {
      "inputs": [],
      "name": "renounceOwnership",
      "outputs": [],
      "stateMutability": "nonpayable",
      "type": "function"
    },
    {
      "inputs": [],
      "name": "rewardPool",
      "outputs": [
        {
          "internalType": "uint256",
          "name": "",
          "type": "uint256"
        }
      ],
      "stateMutability": "view",
      "type": "function"
    },
    {
      "inputs": [],
      "name": "symbol",
      "outputs": [
        {
          "internalType": "string",
          "name": "",
          "type": "string"
        }
      ],
      "stateMutability": "view",
      "type": "function"
    },
    {
      "inputs": [],
      "name": "totalSupply",
      "outputs": [
        {
          "internalType": "uint256",
          "name": "",
          "type": "uint256"
        }
      ],
      "stateMutability": "view",
      "type": "function"
    },
    {
      "inputs": [
        {
          "internalType": "address",
          "name": "recipient",
          "type": "address"
        },
        {
          "internalType": "uint256",
          "name": "amount",
          "type": "uint256"
        }
      ],
      "name": "transfer",
      "outputs": [
        {
          "internalType": "bool",
          "name": "",
          "type": "bool"
        }
      ],
      "stateMutability": "nonpayable",
      "type": "function"
    },
    {
      "inputs": [
        {
          "internalType": "address",
          "name": "sender",
          "type": "address"
        },
        {
          "internalType": "address",
          "name": "recipient",
          "type": "address"
        },
        {
          "internalType": "uint256",
          "name": "amount",
          "type": "uint256"
        }
      ],
      "name": "transferFrom",
      "outputs": [
        {
          "internalType": "bool",
          "name": "",
          "type": "bool"
        }
      ],
      "stateMutability": "nonpayable",
      "type": "function"
    },
    {
      "inputs": [
        {
          "internalType": "address",
          "name": "newOwner",
          "type": "address"
        }
      ],
      "name": "transferOwnership",
      "outputs": [],
      "stateMutability": "nonpayable",
      "type": "function"
    },
    {
      "inputs": [],
      "name": "upadateWithTotalShare",
      "outputs": [],
      "stateMutability": "nonpayable",
      "type": "function"
    }
  ],
  "bytecode": "0x60806040523480156200001157600080fd5b50604051620021f3380380620021f3833981016040819052620000349162000788565b6200003f33620000fb565b600c80546001600160a01b0383166001600160a01b031991821617909155436004556009805482167370997970c51812dc3a010c7d01b50e0d17dc79c8179055600a80548216733c44cdddb6a900fa2b585dd299e03d12fa4293bc179055600b80549091167390f79bf6eb2c4f870365e785982e1f101e93b906179055620000f4620000d36000546001600160a01b031690565b620000e160126008620007c9565b620000ee90600a620008ee565b6200014b565b5062000a0c565b600080546001600160a01b038381166001600160a01b0319831681178455604051919092169283917f8be0079c531659141344cd1fd0a4f28419497f9722a3daafe3b4186f6b6457e09190a35050565b60408051808201909152600c81526b5a65726f206164647265737360a01b60208201526001600160a01b038316620001a15760405162461bcd60e51b8152600401620001989190620008ff565b60405180910390fd5b50620001b082826001620001b4565b5050565b620001be6200035b565b6001600160a01b038316600090815260086020908152604080832054600290925282205460075464e8d4a5100091620001f79162000957565b6200020391906200098f565b6200020f9190620009b2565b90508060066000828254620002259190620009b2565b90915550506001600160a01b0384166000908152600860205260408120600101805483929062000257908490620009cc565b90915550508115620002b4576001600160a01b038416600090815260026020526040812080548592906200028d908490620009cc565b925050819055508260036000828254620002a89190620009cc565b90915550620002ff9050565b6001600160a01b03841660009081526002602052604081208054859290620002de908490620009b2565b925050819055508260036000828254620002f99190620009b2565b90915550505b6001600160a01b03841660009081526002602052604090205460075464e8d4a51000916200032d9162000957565b6200033991906200098f565b6001600160a01b03909416600090815260086020526040902093909355505050565b6000600454436200036d9190620009b2565b9050600060055482620003819190620009b2565b90508015620001b057600c5460009081906001600160a01b0316635aff34dc620003b1610309620186a0620009cc565b6040516001600160e01b031960e084901b1681526004810191909152620186a0602482015260448101869052600a60648201526084016040805180830381865afa15801562000404573d6000803e3d6000fd5b505050506040513d601f19601f820116820180604052508101906200042a9190620009e7565b9150915060006003546200044d6003548585620004c460201b62000a631760201c565b620004599190620009b2565b905080600660008282546200046f9190620009cc565b9091555064e8d4a5100090508262000488858362000957565b6200049491906200098f565b620004a09190620009b2565b60076000828254620004b39190620009cc565b909155505050600584905550505050565b600080620004d48585856200050c565b90506000620004e586868662000602565b11156200050257620004f981600162000620565b91505062000505565b90505b9392505050565b600080806200051c868662000637565b915091508160000362000546578381816200053b576200053b62000979565b049250505062000505565b83821015620005fd5760006200055e87878762000602565b9050600080620005708585856200068b565b91509150816000036200059d578681816200058f576200058f62000979565b049550505050505062000505565b600087620005ac8282620006c1565b1690506000620005be848484620006cf565b90506000620005df838b81620005d857620005d862000979565b0462000726565b9050620005ed82826200076b565b9850505050505050505062000505565b600080fd5b6000818062000615576200061562000979565b838509949350505050565b60006200062e8284620009cc565b90505b92915050565b6000808062000647858562000779565b905060006200065786866200076b565b90508082106200066f57908190039250905062000684565b60016200067d8383620006c1565b0393509150505b9250929050565b600080828410620006a35750839050818303620006b9565b6000198501620006b48585620006c1565b915091505b935093915050565b60006200062e8284620009b2565b600080620006fb83620006e38382620006c1565b81620006f357620006f362000979565b506000919050565b90508284816200070f576200070f62000979565b046200071c86836200076b565b1795945050505050565b60006001815b6008811015620007645762000759826200075360026200074d83896200076b565b620006c1565b6200076b565b91506001016200072c565b5092915050565b60006200062e828462000957565b60006000198284099392505050565b6000602082840312156200079b57600080fd5b81516001600160a01b03811681146200050557600080fd5b634e487b7160e01b600052601160045260246000fd5b600060ff821660ff84168060ff03821115620007e957620007e9620007b3565b019392505050565b600181815b8085111562000832578160001904821115620008165762000816620007b3565b808516156200082457918102915b93841c9390800290620007f6565b509250929050565b6000826200084b5750600162000631565b816200085a5750600062000631565b81600181146200087357600281146200087e576200089e565b600191505062000631565b60ff841115620008925762000892620007b3565b50506001821b62000631565b5060208310610133831016604e8410600b8410161715620008c3575081810a62000631565b620008cf8383620007f1565b8060001904821115620008e657620008e6620007b3565b029392505050565b60006200062e60ff8416836200083a565b600060208083528351808285015260005b818110156200092e5785810183015185820160400152820162000910565b8181111562000941576000604083870101525b50601f01601f1916929092016040019392505050565b6000816000190483118215151615620009745762000974620007b3565b500290565b634e487b7160e01b600052601260045260246000fd5b600082620009ad57634e487b7160e01b600052601260045260246000fd5b500490565b600082821015620009c757620009c7620007b3565b500390565b60008219821115620009e257620009e2620007b3565b500190565b60008060408385031215620009fb57600080fd5b505080516020909101519092909150565b6117d78062000a1c6000396000f3fe608060405234801561001057600080fd5b50600436106101c45760003560e01c806370a08231116100f9578063a457c2d711610097578063d1daefb411610071578063d1daefb4146103d1578063db1d0fd5146103da578063dd62ed3e146103e2578063f2fde38b1461041b57600080fd5b8063a457c2d71461037b578063a9059cbb1461038e578063bdfeb1e5146103a157600080fd5b80638da5cb5b116100d35780638da5cb5b1461031a57806395d89b41146103355780639dc29fac14610355578063a150da2a1461036857600080fd5b806370a08231146102f7578063715018a61461030a578063739572891461031257600080fd5b806332cb6b0c11610166578063416ae76811610140578063416ae768146102ab57806357627e93146102de57806366666aa9146102e65780636863909e146102ef57600080fd5b806332cb6b0c1461027b578063395093511461028357806340c10f191461029657600080fd5b806323b872dd116101a257806323b872dd1461023f5780632e0f2625146102525780632ff2e9dc1461026c578063313ce5671461027457600080fd5b806306fdde03146101c9578063095ea7b31461020657806318160ddd14610229575b600080fd5b60408051808201909152600f81526e14da5b5c1b19515e1c14995dd85c99608a1b60208201525b6040516101fd919061146f565b60405180910390f35b6102196102143660046114e0565b61042e565b60405190151581526020016101fd565b610231610445565b6040519081526020016101fd565b61021961024d36600461150a565b610455565b61025a601281565b60405160ff90911681526020016101fd565b6102316104f8565b601261025a565b610231610512565b6102196102913660046114e0565b610535565b6102a96102a43660046114e0565b610542565b005b6102be6102b9366004611546565b6105f3565b6040805194855260208501939093529183015260608201526080016101fd565b610231601e81565b61023160065481565b6102a9610634565b610231610305366004611546565b61077a565b6102a9610798565b6102be6107ce565b6000546040516001600160a01b0390911681526020016101fd565b6040805180820190915260048152635345525760e01b60208201526101f0565b6102a96103633660046114e0565b6108cf565b61021961037636600461150a565b610903565b6102196103893660046114e0565b61098f565b61021961039c3660046114e0565b61099c565b6103a96109a9565b604080519586526020860194909452928401919091526060830152608082015260a0016101fd565b61023160075481565b610231600c81565b6102316103f0366004611561565b6001600160a01b03918216600090815260016020908152604080832093909416825291909152205490565b6102a9610429366004611546565b6109c8565b600061043b338484610aa1565b5060015b92915050565b600061045060035490565b905090565b60006001600160a01b03841633146104e2576001600160a01b0384166000908152600160209081526040808320338452909152902054828110156104e05760405162461bcd60e51b815260206004820152601a60248201527f5472616e73666572206578636565647320616c6c6f77616e636500000000000060448201526064015b60405180910390fd5b505b6104ed848484610b63565b5060015b9392505050565b610504601260086115aa565b61050f90600a6116b3565b81565b61051e601260086115aa565b61052990600a6116b3565b61050f906103e86116c2565b60006104f1338484610c7d565b6000546001600160a01b0316331461056c5760405162461bcd60e51b81526004016104d7906116e1565b610578601260086115aa565b61058390600a6116b3565b61058f906103e86116c2565b8161059960035490565b6105a39190611716565b11156105e55760405162461bcd60e51b8152602060048201526011602482015270457863656564204d617820537570706c7960781b60448201526064016104d7565b6105ef8282610d04565b5050565b6001600160a01b0381166000908152600260209081526040808320546008909252822060018101549054919290919061062b85610d5b565b90509193509193565b600060045443610644919061172e565b9050600060055482610656919061172e565b905080156105ef57600c5460009081906001600160a01b0316635aff34dc610683610309620186a0611716565b6040516001600160e01b031960e084901b1681526004810191909152620186a0602482015260448101869052600a60648201526084016040805180830381865afa1580156106d5573d6000803e3d6000fd5b505050506040513d601f19601f820116820180604052508101906106f99190611745565b91509150600060035461070f6003548585610a63565b610719919061172e565b9050806006600082825461072d9190611716565b9091555064e8d4a5100090508261074485836116c2565b61074e919061177f565b610758919061172e565b600760008282546107699190611716565b909155505050600584905550505050565b6001600160a01b03811660009081526002602052604081205461043f565b6000546001600160a01b031633146107c25760405162461bcd60e51b81526004016104d7906116e1565b6107cc6000610eb9565b565b6000806000806006546107df610f09565b6107e99190611716565b93506108056108006000546001600160a01b031690565b610d5b565b61080f9084611716565b600954909350610827906001600160a01b0316610d5b565b6108319084611716565b600a54909350610849906001600160a01b0316610d5b565b6108539084611716565b600b5490935061086b906001600160a01b0316610d5b565b6108759084611716565b92506000838510156108955761088b858561172e565b92508390506108a5565b61089f848661172e565b92508490505b80156108c857806108bb8464e8d4a510006116c2565b6108c5919061177f565b91505b5090919293565b6000546001600160a01b031633146108f95760405162461bcd60e51b81526004016104d7906116e1565b6105ef8282610ff4565b60408051808201909152600c81526b5a65726f206164647265737360a01b60208201526000906001600160a01b0385166109505760405162461bcd60e51b81526004016104d7919061146f565b506001600160a01b038085166000908152600160209081526040808320938716835292905220546104ed908590859061098a90869061172e565b610aa1565b60006104f1338484610903565b600061043b338484610b63565b60035460055460075460065460006109bf610f09565b90509091929394565b6000546001600160a01b031633146109f25760405162461bcd60e51b81526004016104d7906116e1565b6001600160a01b038116610a575760405162461bcd60e51b815260206004820152602660248201527f4f776e61626c653a206e6577206f776e657220697320746865207a65726f206160448201526564647265737360d01b60648201526084016104d7565b610a6081610eb9565b50565b600080610a718585856110b6565b90506000610a8086868661118c565b1115610a9957610a918160016111a7565b9150506104f1565b949350505050565b60408051808201909152600c81526b5a65726f206164647265737360a01b60208201526001600160a01b038416610aeb5760405162461bcd60e51b81526004016104d7919061146f565b5060408051808201909152600c81526b5a65726f206164647265737360a01b60208201526001600160a01b038316610b365760405162461bcd60e51b81526004016104d7919061146f565b506001600160a01b0392831660009081526001602090815260408083209490951682529290925291902055565b60408051808201909152600c81526b5a65726f206164647265737360a01b60208201526001600160a01b038416610bad5760405162461bcd60e51b81526004016104d7919061146f565b5060408051808201909152600c81526b5a65726f206164647265737360a01b60208201526001600160a01b038316610bf85760405162461bcd60e51b81526004016104d7919061146f565b506001600160a01b0383166000908152600260205260408120549050818110156040518060400160405280600f81526020016e457863656564732062616c616e636560881b81525090610c5e5760405162461bcd60e51b81526004016104d7919061146f565b50610c6b848360006111b3565b610c77838360016111b3565b50505050565b60408051808201909152600c81526b5a65726f206164647265737360a01b60208201526000906001600160a01b038516610cca5760405162461bcd60e51b81526004016104d7919061146f565b506001600160a01b038085166000908152600160209081526040808320938716835292905220546104ed908590859061098a908690611716565b60408051808201909152600c81526b5a65726f206164647265737360a01b60208201526001600160a01b038316610d4e5760405162461bcd60e51b81526004016104d7919061146f565b506105ef828260016111b3565b6001600160a01b038116600090815260086020908152604080832054600290925282205460075483929164e8d4a5100091610d9691906116c2565b610da0919061177f565b610daa919061172e565b9050600060045443610dbc919061172e565b9050600060055482610dce919061172e565b600c5490915060009081906001600160a01b0316635aff34dc610df6610309620186a0611716565b6040516001600160e01b031960e084901b1681526004810191909152620186a0602482015260448101869052600a60648201526084016040805180830381865afa158015610e48573d6000803e3d6000fd5b505050506040513d601f19601f82011682018060405250810190610e6c9190611745565b6001600160a01b03891660009081526002602052604081205492945090925090610e978185856110b6565b610ea1919061172e565b9050610ead8187611716565b98975050505050505050565b600080546001600160a01b038381166001600160a01b0319831681178455604051919092169283917f8be0079c531659141344cd1fd0a4f28419497f9722a3daafe3b4186f6b6457e09190a35050565b60008060045443610f1a919061172e565b9050600060055482610f2c919061172e565b600c5490915060009081906001600160a01b0316635aff34dc610f54610309620186a0611716565b6040516001600160e01b031960e084901b1681526004810191909152620186a0602482015260448101869052600a60648201526084016040805180830381865afa158015610fa6573d6000803e3d6000fd5b505050506040513d601f19601f82011682018060405250810190610fca9190611745565b915091506000600354610fe06003548585610a63565b610fea919061172e565b9695505050505050565b60408051808201909152600c81526b5a65726f206164647265737360a01b60208201526001600160a01b03831661103e5760405162461bcd60e51b81526004016104d7919061146f565b506001600160a01b0382166000908152600260205260408120549050818110156040518060400160405280600f81526020016e457863656564732062616c616e636560881b815250906110a45760405162461bcd60e51b81526004016104d7919061146f565b506110b1838360006111b3565b505050565b60008060006110c58686611340565b91509150816000036110ea578381816110e0576110e0611769565b04925050506104f1565b838210156101c45760006110ff87878761118c565b905060008061110f85858561138d565b91509150816000036111375786818161112a5761112a611769565b04955050505050506104f1565b60008761114560008a6113be565b16905060006111558484846113ca565b90506000611171838b8161116b5761116b611769565b04611417565b905061117d8282611454565b985050505050505050506104f1565b6000818061119c5761119c611769565b838509949350505050565b60006104f18284611716565b6111bb610634565b6001600160a01b038316600090815260086020908152604080832054600290925282205460075464e8d4a51000916111f2916116c2565b6111fc919061177f565b611206919061172e565b9050806006600082825461121a919061172e565b90915550506001600160a01b0384166000908152600860205260408120600101805483929061124a908490611716565b909155505081156112a1576001600160a01b0384166000908152600260205260408120805485929061127d908490611716565b9250508190555082600360008282546112969190611716565b909155506112e89050565b6001600160a01b038416600090815260026020526040812080548592906112c990849061172e565b9250508190555082600360008282546112e2919061172e565b90915550505b6001600160a01b03841660009081526002602052604090205460075464e8d4a5100091611314916116c2565b61131e919061177f565b6001600160a01b03909416600090815260086020526040902093909355505050565b600080600061134f8585611460565b9050600061135d8686611454565b9050808210611373579081900392509050611386565b600161137f83836113be565b0393509150505b9250929050565b6000808284106113a357508390508183036113b6565b600185036113b185856113be565b915091505b935093915050565b60006104f1828461172e565b6000806113f1836113dc6000866113be565b816113e9576113e9611769565b506000919050565b905082848161140257611402611769565b0461140d8683611454565b1795945050505050565b60006001815b600881101561144d576114438261143e60026114398689611454565b6113be565b611454565b915060010161141d565b5092915050565b60006104f182846116c2565b60006000198284099392505050565b600060208083528351808285015260005b8181101561149c57858101830151858201604001528201611480565b818111156114ae576000604083870101525b50601f01601f1916929092016040019392505050565b80356001600160a01b03811681146114db57600080fd5b919050565b600080604083850312156114f357600080fd5b6114fc836114c4565b946020939093013593505050565b60008060006060848603121561151f57600080fd5b611528846114c4565b9250611536602085016114c4565b9150604084013590509250925092565b60006020828403121561155857600080fd5b6104f1826114c4565b6000806040838503121561157457600080fd5b61157d836114c4565b915061158b602084016114c4565b90509250929050565b634e487b7160e01b600052601160045260246000fd5b600060ff821660ff84168060ff038211156115c7576115c7611594565b019392505050565b600181815b8085111561160a5781600019048211156115f0576115f0611594565b808516156115fd57918102915b93841c93908002906115d4565b509250929050565b6000826116215750600161043f565b8161162e5750600061043f565b8160018114611644576002811461164e5761166a565b600191505061043f565b60ff84111561165f5761165f611594565b50506001821b61043f565b5060208310610133831016604e8410600b841016171561168d575081810a61043f565b61169783836115cf565b80600019048211156116ab576116ab611594565b029392505050565b60006104f160ff841683611612565b60008160001904831182151516156116dc576116dc611594565b500290565b6020808252818101527f4f776e61626c653a2063616c6c6572206973206e6f7420746865206f776e6572604082015260600190565b6000821982111561172957611729611594565b500190565b60008282101561174057611740611594565b500390565b6000806040838503121561175857600080fd5b505080516020909101519092909150565b634e487b7160e01b600052601260045260246000fd5b60008261179c57634e487b7160e01b600052601260045260246000fd5b50049056fea2646970667358221220caee1805ce50de7d60b074fd6abbfcd861b1dd65c7b7ee72c8daed8a2875a0b664736f6c634300080e0033",
  "linkReferences": {},
  "deployedLinkReferences": {}
}