{
  "_format": "hh-sol-artifact-1",
  "contractName": "Keep3rKeeperFundableForTest",
  "sourceName": "contracts/for-test/peripherals/keepers/Keep3rKeeperFundableForTest.sol",
  "abi": [
    {
      "inputs": [
        {
          "internalType": "address",
          "name": "_kph",
          "type": "address"
        },
        {
          "internalType": "address",
          "name": "_keep3rV1",
          "type": "address"
        },
        {
          "internalType": "address",
          "name": "_keep3rV1Proxy",
          "type": "address"
        },
        {
          "internalType": "address",
          "name": "_kp3rWethPool",
          "type": "address"
        }
      ],
      "stateMutability": "nonpayable",
      "type": "constructor"
    },
    {
      "inputs": [],
      "name": "AlreadyAJob",
      "type": "error"
    },
    {
      "inputs": [],
      "name": "BondsLocked",
      "type": "error"
    },
    {
      "inputs": [],
      "name": "BondsUnexistent",
      "type": "error"
    },
    {
      "inputs": [],
      "name": "Disputed",
      "type": "error"
    },
    {
      "inputs": [],
      "name": "DisputerExistent",
      "type": "error"
    },
    {
      "inputs": [],
      "name": "DisputerUnexistent",
      "type": "error"
    },
    {
      "inputs": [],
      "name": "JobDisputed",
      "type": "error"
    },
    {
      "inputs": [],
      "name": "JobUnavailable",
      "type": "error"
    },
    {
      "inputs": [],
      "name": "MinRewardPeriod",
      "type": "error"
    },
    {
      "inputs": [],
      "name": "NoGovernanceZeroAddress",
      "type": "error"
    },
    {
      "inputs": [],
      "name": "OnlyDisputer",
      "type": "error"
    },
    {
      "inputs": [],
      "name": "OnlyGovernance",
      "type": "error"
    },
    {
      "inputs": [],
      "name": "OnlyPendingGovernance",
      "type": "error"
    },
    {
      "inputs": [],
      "name": "OnlySlasher",
      "type": "error"
    },
    {
      "inputs": [],
      "name": "SlasherExistent",
      "type": "error"
    },
    {
      "inputs": [],
      "name": "SlasherUnexistent",
      "type": "error"
    },
    {
      "inputs": [],
      "name": "UnbondsLocked",
      "type": "error"
    },
    {
      "inputs": [],
      "name": "UnbondsUnexistent",
      "type": "error"
    },
    {
      "inputs": [],
      "name": "ZeroAddress",
      "type": "error"
    },
    {
      "anonymous": false,
      "inputs": [
        {
          "indexed": true,
          "internalType": "address",
          "name": "_keeper",
          "type": "address"
        },
        {
          "indexed": true,
          "internalType": "address",
          "name": "_bond",
          "type": "address"
        },
        {
          "indexed": false,
          "internalType": "uint256",
          "name": "_amount",
          "type": "uint256"
        }
      ],
      "name": "Activation",
      "type": "event"
    },
    {
      "anonymous": false,
      "inputs": [
        {
          "indexed": false,
          "internalType": "uint256",
          "name": "_bondTime",
          "type": "uint256"
        }
      ],
      "name": "BondTimeChange",
      "type": "event"
    },
    {
      "anonymous": false,
      "inputs": [
        {
          "indexed": true,
          "internalType": "address",
          "name": "_keeper",
          "type": "address"
        },
        {
          "indexed": true,
          "internalType": "address",
          "name": "_bonding",
          "type": "address"
        },
        {
          "indexed": false,
          "internalType": "uint256",
          "name": "_amount",
          "type": "uint256"
        }
      ],
      "name": "Bonding",
      "type": "event"
    },
    {
      "anonymous": false,
      "inputs": [
        {
          "indexed": false,
          "internalType": "address",
          "name": "_disputer",
          "type": "address"
        }
      ],
      "name": "DisputerAdded",
      "type": "event"
    },
    {
      "anonymous": false,
      "inputs": [
        {
          "indexed": false,
          "internalType": "address",
          "name": "_disputer",
          "type": "address"
        }
      ],
      "name": "DisputerRemoved",
      "type": "event"
    },
    {
      "anonymous": false,
      "inputs": [
        {
          "indexed": false,
          "internalType": "uint256",
          "name": "_fee",
          "type": "uint256"
        }
      ],
      "name": "FeeChange",
      "type": "event"
    },
    {
      "anonymous": false,
      "inputs": [
        {
          "indexed": false,
          "internalType": "address",
          "name": "_pendingGovernance",
          "type": "address"
        }
      ],
      "name": "GovernanceProposal",
      "type": "event"
    },
    {
      "anonymous": false,
      "inputs": [
        {
          "indexed": false,
          "internalType": "address",
          "name": "_governance",
          "type": "address"
        }
      ],
      "name": "GovernanceSet",
      "type": "event"
    },
    {
      "anonymous": false,
      "inputs": [
        {
          "indexed": false,
          "internalType": "uint256",
          "name": "_inflationPeriod",
          "type": "uint256"
        }
      ],
      "name": "InflationPeriodChange",
      "type": "event"
    },
    {
      "anonymous": false,
      "inputs": [
        {
          "indexed": false,
          "internalType": "address",
          "name": "_keep3rHelper",
          "type": "address"
        }
      ],
      "name": "Keep3rHelperChange",
      "type": "event"
    },
    {
      "anonymous": false,
      "inputs": [
        {
          "indexed": false,
          "internalType": "address",
          "name": "_keep3rV1",
          "type": "address"
        }
      ],
      "name": "Keep3rV1Change",
      "type": "event"
    },
    {
      "anonymous": false,
      "inputs": [
        {
          "indexed": false,
          "internalType": "address",
          "name": "_keep3rV1Proxy",
          "type": "address"
        }
      ],
      "name": "Keep3rV1ProxyChange",
      "type": "event"
    },
    {
      "anonymous": false,
      "inputs": [
        {
          "indexed": false,
          "internalType": "address",
          "name": "_kp3rWethPool",
          "type": "address"
        }
      ],
      "name": "Kp3rWethPoolChange",
      "type": "event"
    },
    {
      "anonymous": false,
      "inputs": [
        {
          "indexed": false,
          "internalType": "uint256",
          "name": "_liquidityMinimum",
          "type": "uint256"
        }
      ],
      "name": "LiquidityMinimumChange",
      "type": "event"
    },
    {
      "anonymous": false,
      "inputs": [
        {
          "indexed": false,
          "internalType": "uint256",
          "name": "_rewardPeriodTime",
          "type": "uint256"
        }
      ],
      "name": "RewardPeriodTimeChange",
      "type": "event"
    },
    {
      "anonymous": false,
      "inputs": [
        {
          "indexed": false,
          "internalType": "address",
          "name": "_slasher",
          "type": "address"
        }
      ],
      "name": "SlasherAdded",
      "type": "event"
    },
    {
      "anonymous": false,
      "inputs": [
        {
          "indexed": false,
          "internalType": "address",
          "name": "_slasher",
          "type": "address"
        }
      ],
      "name": "SlasherRemoved",
      "type": "event"
    },
    {
      "anonymous": false,
      "inputs": [
        {
          "indexed": false,
          "internalType": "uint256",
          "name": "_unbondTime",
          "type": "uint256"
        }
      ],
      "name": "UnbondTimeChange",
      "type": "event"
    },
    {
      "anonymous": false,
      "inputs": [
        {
          "indexed": true,
          "internalType": "address",
          "name": "_keeperOrJob",
          "type": "address"
        },
        {
          "indexed": true,
          "internalType": "address",
          "name": "_unbonding",
          "type": "address"
        },
        {
          "indexed": false,
          "internalType": "uint256",
          "name": "_amount",
          "type": "uint256"
        }
      ],
      "name": "Unbonding",
      "type": "event"
    },
    {
      "anonymous": false,
      "inputs": [
        {
          "indexed": true,
          "internalType": "address",
          "name": "_keeper",
          "type": "address"
        },
        {
          "indexed": true,
          "internalType": "address",
          "name": "_bond",
          "type": "address"
        },
        {
          "indexed": false,
          "internalType": "uint256",
          "name": "_amount",
          "type": "uint256"
        }
      ],
      "name": "Withdrawal",
      "type": "event"
    },
    {
      "inputs": [],
      "name": "acceptGovernance",
      "outputs": [],
      "stateMutability": "nonpayable",
      "type": "function"
    },
    {
      "inputs": [
        {
          "internalType": "address",
          "name": "_bonding",
          "type": "address"
        }
      ],
      "name": "activate",
      "outputs": [],
      "stateMutability": "nonpayable",
      "type": "function"
    },
    {
      "inputs": [
        {
          "internalType": "address",
          "name": "_disputer",
          "type": "address"
        }
      ],
      "name": "addDisputer",
      "outputs": [],
      "stateMutability": "nonpayable",
      "type": "function"
    },
    {
      "inputs": [
        {
          "internalType": "address",
          "name": "_slasher",
          "type": "address"
        }
      ],
      "name": "addSlasher",
      "outputs": [],
      "stateMutability": "nonpayable",
      "type": "function"
    },
    {
      "inputs": [
        {
          "internalType": "address",
          "name": "_bonding",
          "type": "address"
        },
        {
          "internalType": "uint256",
          "name": "_amount",
          "type": "uint256"
        }
      ],
      "name": "bond",
      "outputs": [],
      "stateMutability": "nonpayable",
      "type": "function"
    },
    {
      "inputs": [],
      "name": "bondTime",
      "outputs": [
        {
          "internalType": "uint256",
          "name": "",
          "type": "uint256"
        }
      ],
      "stateMutability": "view",
      "type": "function"
    },
    {
      "inputs": [
        {
          "internalType": "address",
          "name": "",
          "type": "address"
        },
        {
          "internalType": "address",
          "name": "",
          "type": "address"
        }
      ],
      "name": "bonds",
      "outputs": [
        {
          "internalType": "uint256",
          "name": "",
          "type": "uint256"
        }
      ],
      "stateMutability": "view",
      "type": "function"
    },
    {
      "inputs": [
        {
          "internalType": "address",
          "name": "",
          "type": "address"
        },
        {
          "internalType": "address",
          "name": "",
          "type": "address"
        }
      ],
      "name": "canActivateAfter",
      "outputs": [
        {
          "internalType": "uint256",
          "name": "",
          "type": "uint256"
        }
      ],
      "stateMutability": "view",
      "type": "function"
    },
    {
      "inputs": [
        {
          "internalType": "address",
          "name": "",
          "type": "address"
        },
        {
          "internalType": "address",
          "name": "",
          "type": "address"
        }
      ],
      "name": "canWithdrawAfter",
      "outputs": [
        {
          "internalType": "uint256",
          "name": "",
          "type": "uint256"
        }
      ],
      "stateMutability": "view",
      "type": "function"
    },
    {
      "inputs": [
        {
          "internalType": "address",
          "name": "",
          "type": "address"
        }
      ],
      "name": "disputers",
      "outputs": [
        {
          "internalType": "bool",
          "name": "",
          "type": "bool"
        }
      ],
      "stateMutability": "view",
      "type": "function"
    },
    {
      "inputs": [
        {
          "internalType": "address",
          "name": "",
          "type": "address"
        }
      ],
      "name": "disputes",
      "outputs": [
        {
          "internalType": "bool",
          "name": "",
          "type": "bool"
        }
      ],
      "stateMutability": "view",
      "type": "function"
    },
    {
      "inputs": [],
      "name": "fee",
      "outputs": [
        {
          "internalType": "uint256",
          "name": "",
          "type": "uint256"
        }
      ],
      "stateMutability": "view",
      "type": "function"
    },
    {
      "inputs": [
        {
          "internalType": "address",
          "name": "",
          "type": "address"
        }
      ],
      "name": "firstSeen",
      "outputs": [
        {
          "internalType": "uint256",
          "name": "",
          "type": "uint256"
        }
      ],
      "stateMutability": "view",
      "type": "function"
    },
    {
      "inputs": [],
      "name": "governance",
      "outputs": [
        {
          "internalType": "address",
          "name": "",
          "type": "address"
        }
      ],
      "stateMutability": "view",
      "type": "function"
    },
    {
      "inputs": [
        {
          "internalType": "address",
          "name": "",
          "type": "address"
        }
      ],
      "name": "hasBonded",
      "outputs": [
        {
          "internalType": "bool",
          "name": "",
          "type": "bool"
        }
      ],
      "stateMutability": "view",
      "type": "function"
    },
    {
      "inputs": [],
      "name": "inflationPeriod",
      "outputs": [
        {
          "internalType": "uint256",
          "name": "",
          "type": "uint256"
        }
      ],
      "stateMutability": "view",
      "type": "function"
    },
    {
      "inputs": [
        {
          "internalType": "address",
          "name": "_keeper",
          "type": "address"
        }
      ],
      "name": "isKeeper",
      "outputs": [
        {
          "internalType": "bool",
          "name": "",
          "type": "bool"
        }
      ],
      "stateMutability": "view",
      "type": "function"
    },
    {
      "inputs": [
        {
          "internalType": "address",
          "name": "",
          "type": "address"
        },
        {
          "internalType": "address",
          "name": "",
          "type": "address"
        }
      ],
      "name": "jobTokenCredits",
      "outputs": [
        {
          "internalType": "uint256",
          "name": "",
          "type": "uint256"
        }
      ],
      "stateMutability": "view",
      "type": "function"
    },
    {
      "inputs": [],
      "name": "jobs",
      "outputs": [
        {
          "internalType": "address[]",
          "name": "_list",
          "type": "address[]"
        }
      ],
      "stateMutability": "view",
      "type": "function"
    },
    {
      "inputs": [],
      "name": "keep3rHelper",
      "outputs": [
        {
          "internalType": "address",
          "name": "",
          "type": "address"
        }
      ],
      "stateMutability": "view",
      "type": "function"
    },
    {
      "inputs": [],
      "name": "keep3rV1",
      "outputs": [
        {
          "internalType": "address",
          "name": "",
          "type": "address"
        }
      ],
      "stateMutability": "view",
      "type": "function"
    },
    {
      "inputs": [],
      "name": "keep3rV1Proxy",
      "outputs": [
        {
          "internalType": "address",
          "name": "",
          "type": "address"
        }
      ],
      "stateMutability": "view",
      "type": "function"
    },
    {
      "inputs": [],
      "name": "keepers",
      "outputs": [
        {
          "internalType": "address[]",
          "name": "_list",
          "type": "address[]"
        }
      ],
      "stateMutability": "view",
      "type": "function"
    },
    {
      "inputs": [],
      "name": "kp3rWethPool",
      "outputs": [
        {
          "internalType": "address",
          "name": "",
          "type": "address"
        }
      ],
      "stateMutability": "view",
      "type": "function"
    },
    {
      "inputs": [],
      "name": "liquidityMinimum",
      "outputs": [
        {
          "internalType": "uint256",
          "name": "",
          "type": "uint256"
        }
      ],
      "stateMutability": "view",
      "type": "function"
    },
    {
      "inputs": [
        {
          "internalType": "address",
          "name": "",
          "type": "address"
        },
        {
          "internalType": "address",
          "name": "",
          "type": "address"
        }
      ],
      "name": "pendingBonds",
      "outputs": [
        {
          "internalType": "uint256",
          "name": "",
          "type": "uint256"
        }
      ],
      "stateMutability": "view",
      "type": "function"
    },
    {
      "inputs": [],
      "name": "pendingGovernance",
      "outputs": [
        {
          "internalType": "address",
          "name": "",
          "type": "address"
        }
      ],
      "stateMutability": "view",
      "type": "function"
    },
    {
      "inputs": [
        {
          "internalType": "address",
          "name": "",
          "type": "address"
        },
        {
          "internalType": "address",
          "name": "",
          "type": "address"
        }
      ],
      "name": "pendingUnbonds",
      "outputs": [
        {
          "internalType": "uint256",
          "name": "",
          "type": "uint256"
        }
      ],
      "stateMutability": "view",
      "type": "function"
    },
    {
      "inputs": [
        {
          "internalType": "address",
          "name": "_disputer",
          "type": "address"
        }
      ],
      "name": "removeDisputer",
      "outputs": [],
      "stateMutability": "nonpayable",
      "type": "function"
    },
    {
      "inputs": [
        {
          "internalType": "address",
          "name": "_slasher",
          "type": "address"
        }
      ],
      "name": "removeSlasher",
      "outputs": [],
      "stateMutability": "nonpayable",
      "type": "function"
    },
    {
      "inputs": [],
      "name": "rewardPeriodTime",
      "outputs": [
        {
          "internalType": "uint256",
          "name": "",
          "type": "uint256"
        }
      ],
      "stateMutability": "view",
      "type": "function"
    },
    {
      "inputs": [
        {
          "internalType": "uint256",
          "name": "_bondTime",
          "type": "uint256"
        }
      ],
      "name": "setBondTime",
      "outputs": [],
      "stateMutability": "nonpayable",
      "type": "function"
    },
    {
      "inputs": [
        {
          "internalType": "uint256",
          "name": "_fee",
          "type": "uint256"
        }
      ],
      "name": "setFee",
      "outputs": [],
      "stateMutability": "nonpayable",
      "type": "function"
    },
    {
      "inputs": [
        {
          "internalType": "address",
          "name": "_governance",
          "type": "address"
        }
      ],
      "name": "setGovernance",
      "outputs": [],
      "stateMutability": "nonpayable",
      "type": "function"
    },
    {
      "inputs": [
        {
          "internalType": "uint256",
          "name": "_inflationPeriod",
          "type": "uint256"
        }
      ],
      "name": "setInflationPeriod",
      "outputs": [],
      "stateMutability": "nonpayable",
      "type": "function"
    },
    {
      "inputs": [
        {
          "internalType": "address",
          "name": "job",
          "type": "address"
        }
      ],
      "name": "setJob",
      "outputs": [],
      "stateMutability": "nonpayable",
      "type": "function"
    },
    {
      "inputs": [
        {
          "internalType": "address",
          "name": "_keep3rHelper",
          "type": "address"
        }
      ],
      "name": "setKeep3rHelper",
      "outputs": [],
      "stateMutability": "nonpayable",
      "type": "function"
    },
    {
      "inputs": [
        {
          "internalType": "address",
          "name": "_keep3rV1",
          "type": "address"
        }
      ],
      "name": "setKeep3rV1",
      "outputs": [],
      "stateMutability": "nonpayable",
      "type": "function"
    },
    {
      "inputs": [
        {
          "internalType": "address",
          "name": "_keep3rV1Proxy",
          "type": "address"
        }
      ],
      "name": "setKeep3rV1Proxy",
      "outputs": [],
      "stateMutability": "nonpayable",
      "type": "function"
    },
    {
      "inputs": [
        {
          "internalType": "address",
          "name": "_kp3rWethPool",
          "type": "address"
        }
      ],
      "name": "setKp3rWethPool",
      "outputs": [],
      "stateMutability": "nonpayable",
      "type": "function"
    },
    {
      "inputs": [
        {
          "internalType": "uint256",
          "name": "_liquidityMinimum",
          "type": "uint256"
        }
      ],
      "name": "setLiquidityMinimum",
      "outputs": [],
      "stateMutability": "nonpayable",
      "type": "function"
    },
    {
      "inputs": [
        {
          "internalType": "uint256",
          "name": "_rewardPeriodTime",
          "type": "uint256"
        }
      ],
      "name": "setRewardPeriodTime",
      "outputs": [],
      "stateMutability": "nonpayable",
      "type": "function"
    },
    {
      "inputs": [
        {
          "internalType": "uint256",
          "name": "_unbondTime",
          "type": "uint256"
        }
      ],
      "name": "setUnbondTime",
      "outputs": [],
      "stateMutability": "nonpayable",
      "type": "function"
    },
    {
      "inputs": [
        {
          "internalType": "address",
          "name": "",
          "type": "address"
        }
      ],
      "name": "slashers",
      "outputs": [
        {
          "internalType": "bool",
          "name": "",
          "type": "bool"
        }
      ],
      "stateMutability": "view",
      "type": "function"
    },
    {
      "inputs": [
        {
          "internalType": "address",
          "name": "_bonding",
          "type": "address"
        },
        {
          "internalType": "uint256",
          "name": "_amount",
          "type": "uint256"
        }
      ],
      "name": "unbond",
      "outputs": [],
      "stateMutability": "nonpayable",
      "type": "function"
    },
    {
      "inputs": [],
      "name": "unbondTime",
      "outputs": [
        {
          "internalType": "uint256",
          "name": "",
          "type": "uint256"
        }
      ],
      "stateMutability": "view",
      "type": "function"
    },
    {
      "inputs": [
        {
          "internalType": "address",
          "name": "_bonding",
          "type": "address"
        }
      ],
      "name": "withdraw",
      "outputs": [],
      "stateMutability": "nonpayable",
      "type": "function"
    },
    {
      "inputs": [
        {
          "internalType": "address",
          "name": "",
          "type": "address"
        }
      ],
      "name": "workCompleted",
      "outputs": [
        {
          "internalType": "uint256",
          "name": "",
          "type": "uint256"
        }
      ],
      "stateMutability": "view",
      "type": "function"
    }
  ],
  "bytecode": "0x60806040526203f480601d5562127500601e556729a2241af62c0000601f5562069780602055622cd300602155601e6022553480156200003e57600080fd5b50604051620020e0380380620020e08339810160408190526200006191620001b4565b6001600055838383833380806200008a5760405162b293ed60e81b815260040160405180910390fd5b601580546001600160a01b03199081166001600160a01b0393841617909155601b80548216888416178155601980548316888516179055601a80548316878516179055601c8054831686851690811782556000818152600c602052604090819020805490951690911790935590549054915163696a437b60e01b81529183166004830152909116915063696a437b90602401602060405180830381865afa1580156200013a573d6000803e3d6000fd5b505050506040513d601f19601f8201168201806040525081019062000160919062000211565b6001600160a01b03919091166000908152600d60205260409020805460ff1916911515919091179055506200023c95505050505050565b80516001600160a01b0381168114620001af57600080fd5b919050565b60008060008060808587031215620001cb57600080fd5b620001d68562000197565b9350620001e66020860162000197565b9250620001f66040860162000197565b9150620002066060860162000197565b905092959194509250565b6000602082840312156200022457600080fd5b815180151581146200023557600080fd5b9392505050565b611e94806200024c6000396000f3fe608060405234801561001057600080fd5b50600436106102a05760003560e01c80639d5c33d811610167578063c7ae40d0116100ce578063ebbb619411610087578063ebbb6194146106a4578063ec00cdfc146106b7578063f0f346b9146106ca578063f11a1d1a146106dd578063f39c38a0146106f0578063fc253d2b1461070357600080fd5b8063c7ae40d014610617578063cb4be2bb1461062a578063cb54694d1461063d578063cd22af1b14610650578063ddca3f431461067b578063e326ac431461068457600080fd5b8063aac6aa9c11610120578063aac6aa9c14610585578063ab033ea914610598578063b0103b1a146105ab578063b2392233146105ce578063b7e77340146105e1578063b87fcbff146105f457600080fd5b80639d5c33d814610505578063a39744b514610518578063a515366a14610543578063a5d059ca14610556578063a662031b14610569578063a7d2e7841461057c57600080fd5b80635ebe23f01161020b578063768b5d90116101c4578063768b5d90146104965780637b40c9131461049f5780637c8fce23146104b25780638cb22b76146104c75780638fe204dd146104ea578063951dc22c146104fd57600080fd5b80635ebe23f014610438578063633fb68f1461044157806368a9f19c1461044a57806369fe0e2d1461045d5780636ba42aaa1461047057806372da828a1461048357600080fd5b80631ef94b911161025d5780631ef94b911461038157806321040b01146103ac578063238efcbc146103d7578063274a8db4146103df57806351cff8d9146104125780635aa6e6751461042557600080fd5b806307b435c2146102a557806315006b82146102e3578063160e1e311461030e578063168f92e7146103235780631b44555e1461034e5780631c5a9d9c1461036e575b600080fd5b6102d06102b3366004611c85565b601060209081526000928352604080842090915290825290205481565b6040519081526020015b60405180910390f35b6102d06102f1366004611c85565b600e60209081526000928352604080842090915290825290205481565b61032161031c366004611cb8565b61070c565b005b6102d0610331366004611c85565b600760209081526000928352604080842090915290825290205481565b6102d061035c366004611cb8565b60036020526000908152604090205481565b61032161037c366004611cb8565b61085a565b601954610394906001600160a01b031681565b6040516001600160a01b0390911681526020016102da565b6102d06103ba366004611c85565b601160209081526000928352604080842090915290825290205481565b610321610995565b6104026103ed366004611cb8565b60186020526000908152604090205460ff1681565b60405190151581526020016102da565b610321610420366004611cb8565b610a1e565b601554610394906001600160a01b031681565b6102d0601d5481565b6102d0601f5481565b610321610458366004611cb8565b610c54565b61032161046b366004611cd3565b610d0d565b61040261047e366004611cb8565b610d6d565b610321610491366004611cb8565b610d80565b6102d060205481565b601c54610394906001600160a01b031681565b6104ba610e20565b6040516102da9190611cec565b6104026104d5366004611cb8565b60126020526000908152604090205460ff1681565b6103216104f8366004611cd3565b610e31565b6104ba610e91565b610321610513366004611cb8565b610e9d565b6102d0610526366004611c85565b600660209081526000928352604080842090915290825290205481565b610321610551366004611d39565b610f56565b610321610564366004611d39565b6111be565b610321610577366004611cb8565b611291565b6102d0601e5481565b610321610593366004611cb8565b6112a0565b6103216105a6366004611cb8565b611355565b6104026105b9366004611cb8565b60056020526000908152604090205460ff1681565b6103216105dc366004611cd3565b6113ce565b6103216105ef366004611cd3565b61142e565b610402610602366004611cb8565b60176020526000908152604090205460ff1681565b601a54610394906001600160a01b031681565b610321610638366004611cb8565b61148e565b61032161064b366004611cd3565b61152e565b6102d061065e366004611c85565b600f60209081526000928352604080842090915290825290205481565b6102d060225481565b6102d0610692366004611cb8565b60046020526000908152604090205481565b6103216106b2366004611cd3565b6115b0565b6103216106c5366004611cb8565b611610565b6103216106d8366004611cb8565b6116b0565b601b54610394906001600160a01b031681565b601654610394906001600160a01b031681565b6102d060215481565b6015546001600160a01b03163314610737576040516354348f0360e01b815260040160405180910390fd5b6001600160a01b03811661075e5760405163d92e233d60e01b815260040160405180910390fd5b601c80546001600160a01b038381166001600160a01b031992831681179093556000838152600c60205260409081902080549093168417909255601b54915163696a437b60e01b81526004810193909352169063696a437b90602401602060405180830381865afa1580156107d7573d6000803e3d6000fd5b505050506040513d601f19601f820116820180604052508101906107fb9190611d63565b6001600160a01b0382166000818152600d6020908152604091829020805460ff191694151594909417909355519081527f9bb1515b0fc2645a3f011162460a22fdd512e0bca265e7dc9ba6bceae8930afa91015b60405180910390a150565b3360009081526005602052604090205460ff161561088b576040516362e6201d60e01b815260040160405180910390fd5b336000908152600f602090815260408083206001600160a01b038516845290915281205490036108ce57604051636258f48160e01b815260040160405180910390fd5b336000908152600f602090815260408083206001600160a01b0385168452909152902054421161091157604051630fd0eeef60e11b815260040160405180910390fd5b336000818152600f602090815260408083206001600160a01b03861684529091528120819055906109429083611765565b9050816001600160a01b0316336001600160a01b03167f3673530133b6da67e9854f605b0cfa7bb9798cd33c18036dfc10d8da7c4d4a758360405161098991815260200190565b60405180910390a35050565b6016546001600160a01b031633146109c057604051637ef5703160e11b815260040160405180910390fd5b60168054601580546001600160a01b0383166001600160a01b031991821681179092559091169091556040519081527fc73be659241aade67e9a059bcf21494955018b213dbd1179054ccf928b13f3b69060200160405180910390a1565b600260005403610a755760405162461bcd60e51b815260206004820152601f60248201527f5265656e7472616e637947756172643a207265656e7472616e742063616c6c0060448201526064015b60405180910390fd5b600260009081553381526011602090815260408083206001600160a01b03851684529091528120549003610abc5760405163184c088160e21b815260040160405180910390fd5b3360009081526010602090815260408083206001600160a01b03851684529091529020544211610aff576040516327cfdcb760e01b815260040160405180910390fd5b3360009081526005602052604090205460ff1615610b30576040516362e6201d60e01b815260040160405180910390fd5b3360009081526011602090815260408083206001600160a01b0385811680865291909352922054601954909291169003610bc357601a5460405163140e25ad60e31b8152600481018390526001600160a01b039091169063a0712d6890602401600060405180830381600087803b158015610baa57600080fd5b505af1158015610bbe573d6000803e3d6000fd5b505050505b3360008181526011602090815260408083206001600160a01b03871680855290835281842084905584845260108352818420818552909252822091909155610c0b918361187e565b6040518181526001600160a01b0383169033907f2717ead6b9200dd235aad468c9809ea400fe33ac69b5bfaa6d3e90fc922b63989060200160405180910390a350506001600055565b6015546001600160a01b03163314610c7f576040516354348f0360e01b815260040160405180910390fd5b6001600160a01b03811660009081526017602052604090205460ff1615610cb95760405163546da66560e11b815260040160405180910390fd5b6001600160a01b038116600081815260176020908152604091829020805460ff1916600117905590519182527f049ccb28ab796d3225573a065712f6e7754487ced56056cda8889c337511807b910161084f565b6015546001600160a01b03163314610d38576040516354348f0360e01b815260040160405180910390fd5b60228190556040518181527f4c10ca068ff7002cf5da78f2f697d1e91f6f0ac27f7344b28e8ef25263f87e5d9060200161084f565b6000610d7a6001836118e6565b92915050565b6015546001600160a01b03163314610dab576040516354348f0360e01b815260040160405180910390fd5b6001600160a01b038116610dd25760405163d92e233d60e01b815260040160405180910390fd5b601b80546001600160a01b0319166001600160a01b0383169081179091556040519081527f71973fd672e51deb8f739b1f7e1eab991936645acd6f83e2bde6eeeaff5490b09060200161084f565b6060610e2c601361190b565b905090565b6015546001600160a01b03163314610e5c576040516354348f0360e01b815260040160405180910390fd5b601e8190556040518181527fc8d443472c9783cc36f8f5f5091f08ce9f37fc2f9e6d79cf1d9aaf40a433fee29060200161084f565b6060610e2c600161190b565b6015546001600160a01b03163314610ec8576040516354348f0360e01b815260040160405180910390fd5b6001600160a01b03811660009081526018602052604090205460ff1615610f025760405163274e25dd60e11b815260040160405180910390fd5b6001600160a01b038116600081815260186020908152604091829020805460ff1916600117905590519182527f8addc69f897ecca0e41d70ed4ff9d75a9148a615a0fbda8597e53aea2684302f910161084f565b600260005403610fa85760405162461bcd60e51b815260206004820152601f60248201527f5265656e7472616e637947756172643a207265656e7472616e742063616c6c006044820152606401610a6c565b600260009081553381526005602052604090205460ff1615610fdd576040516362e6201d60e01b815260040160405180910390fd5b610fe86013336118e6565b156110065760405163d7229c4360e01b815260040160405180910390fd5b601d546110139042611d9b565b336000908152600f602090815260408083206001600160a01b03871680855292528083209390935591516370a0823160e01b81523060048201529091906370a0823190602401602060405180830381865afa158015611076573d6000803e3d6000fd5b505050506040513d601f19601f8201168201806040525081019061109a9190611db3565b90506110b16001600160a01b038416333085611918565b6040516370a0823160e01b815230600482015281906001600160a01b038516906370a0823190602401602060405180830381865afa1580156110f7573d6000803e3d6000fd5b505050506040513d601f19601f8201168201806040525081019061111b9190611db3565b6111259190611dcc565b336000908152601260209081526040808320805460ff19166001179055600e82528083206001600160a01b038816845290915281208054929450849290919061116f908490611d9b565b90915550506040518281526001600160a01b0384169033907fa7e66869262026842e8d81f5e6806cdc8d846e27c824e2e22f4fe51442771b349060200160405180910390a35050600160005550565b601e546111cb9042611d9b565b3360008181526010602090815260408083206001600160a01b03881680855290835281842095909555928252600681528282209382529290925281208054839290611217908490611dcc565b90915550503360009081526011602090815260408083206001600160a01b03861684529091528120805483929061124f908490611d9b565b90915550506040518181526001600160a01b0383169033907f9aaab310d247ad45aef26bbdefc4ebf20c728fdb84c92b95b2b05d21826940de90602001610989565b61129c601382611956565b5050565b6015546001600160a01b031633146112cb576040516354348f0360e01b815260040160405180910390fd5b6001600160a01b03811660009081526017602052604090205460ff16611304576040516336fe17e760e21b815260040160405180910390fd5b6001600160a01b038116600081815260176020908152604091829020805460ff1916905590519182527f3ed8cbce8cab40e59282f1743e2b607effa08b5cbe0111bb4721134f2f80d025910161084f565b6015546001600160a01b03163314611380576040516354348f0360e01b815260040160405180910390fd5b601680546001600160a01b0319166001600160a01b0383169081179091556040519081527fe987aaedf9d279143bdf1eee16cf1d0feb47742867d81083df8d6cd0a5ac857f9060200161084f565b6015546001600160a01b031633146113f9576040516354348f0360e01b815260040160405180910390fd5b60218190556040518181527fbdcfd7b8482f31cff6a87c362d9e2e3887f4cdc2018c7c485d8e78a7b2fadb699060200161084f565b6015546001600160a01b03163314611459576040516354348f0360e01b815260040160405180910390fd5b601d8190556040518181527fd319ef78d2b690bb773fcccc2d096306bac7c9222dd0bb6b300f461e4a376b439060200161084f565b6015546001600160a01b031633146114b9576040516354348f0360e01b815260040160405180910390fd5b6001600160a01b0381166114e05760405163d92e233d60e01b815260040160405180910390fd5b601a80546001600160a01b0319166001600160a01b0383169081179091556040519081527feb931b4b5a98d20a6b1e6693a7c59d8e337a06e2f1473bb776e19251db7ae2509060200161084f565b6015546001600160a01b03163314611559576040516354348f0360e01b815260040160405180910390fd5b6201518081101561157d57604051633f384aad60e21b815260040160405180910390fd5b60208181556040518281527f54aafa56429e22230b52f1495588ffc632277d74f3a85ec755e13ac50c1584d9910161084f565b6015546001600160a01b031633146115db576040516354348f0360e01b815260040160405180910390fd5b601f8190556040518181527f24d51b415694a791b1c77df7817c075ac82b83ce611bcd8627d2e66cf37aa3e79060200161084f565b6015546001600160a01b0316331461163b576040516354348f0360e01b815260040160405180910390fd5b6001600160a01b0381166116625760405163d92e233d60e01b815260040160405180910390fd5b601980546001600160a01b0319166001600160a01b0383169081179091556040519081527f1d1a3e7caf0717056e48dc8aefa54d806c7af86324fece4e5d49f8e1f01f84bf9060200161084f565b6015546001600160a01b031633146116db576040516354348f0360e01b815260040160405180910390fd5b6001600160a01b03811660009081526018602052604090205460ff1661171457604051633ca0d42760e11b815260040160405180910390fd5b6001600160a01b038116600081815260186020908152604091829020805460ff1916905590519182527f5e8bd21d0a98cb2caf33706e56139ff40ffbdca7ec5d9d412a0a2292496dc70e910161084f565b6001600160a01b03821660009081526004602052604081205481036117a0576001600160a01b03831660009081526004602052604090204290555b6117ab600184611956565b50506001600160a01b038083166000818152600e60209081526040808320948616808452948252808320805490849055938352600682528083209483529390529182208054919283926117ff908490611d9b565b90915550506019546001600160a01b0390811690831603610d7a57601954604051630852cd8d60e31b8152600481018390526001600160a01b03909116906342966c6890602401600060405180830381600087803b15801561186057600080fd5b505af1158015611874573d6000803e3d6000fd5b5050505092915050565b6040516001600160a01b0383166024820152604481018290526118e190849063a9059cbb60e01b906064015b60408051601f198184030181529190526020810180516001600160e01b03166001600160e01b03199093169290921790915261196b565b505050565b6001600160a01b038116600090815260018301602052604081205415155b9392505050565b6060600061190483611a3d565b6040516001600160a01b03808516602483015283166044820152606481018290526119509085906323b872dd60e01b906084016118aa565b50505050565b6000611904836001600160a01b038416611a99565b60006119c0826040518060400160405280602081526020017f5361666545524332303a206c6f772d6c6576656c2063616c6c206661696c6564815250856001600160a01b0316611ae89092919063ffffffff16565b8051909150156118e157808060200190518101906119de9190611d63565b6118e15760405162461bcd60e51b815260206004820152602a60248201527f5361666545524332303a204552433230206f7065726174696f6e20646964206e6044820152691bdd081cdd58d8d9595960b21b6064820152608401610a6c565b606081600001805480602002602001604051908101604052809291908181526020018280548015611a8d57602002820191906000526020600020905b815481526020019060010190808311611a79575b50505050509050919050565b6000818152600183016020526040812054611ae057508154600181810184556000848152602080822090930184905584548482528286019093526040902091909155610d7a565b506000610d7a565b6060611af78484600085611aff565b949350505050565b606082471015611b605760405162461bcd60e51b815260206004820152602660248201527f416464726573733a20696e73756666696369656e742062616c616e636520666f6044820152651c8818d85b1b60d21b6064820152608401610a6c565b6001600160a01b0385163b611bb75760405162461bcd60e51b815260206004820152601d60248201527f416464726573733a2063616c6c20746f206e6f6e2d636f6e74726163740000006044820152606401610a6c565b600080866001600160a01b03168587604051611bd39190611e0f565b60006040518083038185875af1925050503d8060008114611c10576040519150601f19603f3d011682016040523d82523d6000602084013e611c15565b606091505b5091509150611c25828286611c30565b979650505050505050565b60608315611c3f575081611904565b825115611c4f5782518084602001fd5b8160405162461bcd60e51b8152600401610a6c9190611e2b565b80356001600160a01b0381168114611c8057600080fd5b919050565b60008060408385031215611c9857600080fd5b611ca183611c69565b9150611caf60208401611c69565b90509250929050565b600060208284031215611cca57600080fd5b61190482611c69565b600060208284031215611ce557600080fd5b5035919050565b6020808252825182820181905260009190848201906040850190845b81811015611d2d5783516001600160a01b031683529284019291840191600101611d08565b50909695505050505050565b60008060408385031215611d4c57600080fd5b611d5583611c69565b946020939093013593505050565b600060208284031215611d7557600080fd5b8151801515811461190457600080fd5b634e487b7160e01b600052601160045260246000fd5b60008219821115611dae57611dae611d85565b500190565b600060208284031215611dc557600080fd5b5051919050565b600082821015611dde57611dde611d85565b500390565b60005b83811015611dfe578181015183820152602001611de6565b838111156119505750506000910152565b60008251611e21818460208701611de3565b9190910192915050565b6020815260008251806020840152611e4a816040850160208701611de3565b601f01601f1916919091016040019291505056fea264697066735822122001308d341ef4842789df35935a280ee002132f93850879be9ebb536c442e838764736f6c634300080e0033",
  "linkReferences": {},
  "deployedLinkReferences": {}
}