{
  "_format": "hh-sol-artifact-1",
  "contractName": "TGRToken",
  "sourceName": "contracts/farm/TGRToken.sol",
  "abi": [
    {
      "inputs": [
        {
          "internalType": "address",
          "name": "_analyticMath",
          "type": "address"
        }
      ],
      "stateMutability": "nonpayable",
      "type": "constructor"
    },
    {
      "anonymous": false,
      "inputs": [
        {
          "indexed": true,
          "internalType": "address",
          "name": "owner",
          "type": "address"
        },
        {
          "indexed": true,
          "internalType": "address",
          "name": "spender",
          "type": "address"
        },
        {
          "indexed": false,
          "internalType": "uint256",
          "name": "value",
          "type": "uint256"
        }
      ],
      "name": "Approval",
      "type": "event"
    },
    {
      "anonymous": false,
      "inputs": [],
      "name": "Begin",
      "type": "event"
    },
    {
      "anonymous": false,
      "inputs": [
        {
          "indexed": false,
          "internalType": "address",
          "name": "pair",
          "type": "address"
        },
        {
          "indexed": false,
          "internalType": "address",
          "name": "tokenA",
          "type": "address"
        },
        {
          "indexed": false,
          "internalType": "address",
          "name": "tokenB",
          "type": "address"
        },
        {
          "indexed": false,
          "internalType": "enum ListStatus",
          "name": "status",
          "type": "uint8"
        }
      ],
      "name": "ChangePairStatus",
      "type": "event"
    },
    {
      "anonymous": false,
      "inputs": [
        {
          "indexed": false,
          "internalType": "address",
          "name": "token",
          "type": "address"
        },
        {
          "indexed": false,
          "internalType": "address",
          "name": "msgSender",
          "type": "address"
        }
      ],
      "name": "DeenlistToken",
      "type": "event"
    },
    {
      "anonymous": false,
      "inputs": [
        {
          "indexed": true,
          "internalType": "address",
          "name": "previousOwner",
          "type": "address"
        },
        {
          "indexed": true,
          "internalType": "address",
          "name": "newOwner",
          "type": "address"
        }
      ],
      "name": "OwnershipTransferred",
      "type": "event"
    },
    {
      "anonymous": false,
      "inputs": [
        {
          "indexed": false,
          "internalType": "enum ActionType",
          "name": "_sessionType",
          "type": "uint8"
        },
        {
          "components": [
            {
              "internalType": "uint32",
              "name": "accountant",
              "type": "uint32"
            }
          ],
          "indexed": false,
          "internalType": "struct FeeRates",
          "name": "_feeRates",
          "type": "tuple"
        }
      ],
      "name": "SetFeeRates",
      "type": "event"
    },
    {
      "anonymous": false,
      "inputs": [
        {
          "components": [
            {
              "internalType": "address",
              "name": "accountant",
              "type": "address"
            }
          ],
          "indexed": false,
          "internalType": "struct FeeStores",
          "name": "_feeStores",
          "type": "tuple"
        }
      ],
      "name": "SetFeeStores",
      "type": "event"
    },
    {
      "anonymous": false,
      "inputs": [
        {
          "indexed": false,
          "internalType": "enum NodeType",
          "name": "nodeType",
          "type": "uint8"
        },
        {
          "indexed": false,
          "internalType": "address",
          "name": "node",
          "type": "address"
        }
      ],
      "name": "SetNode",
      "type": "event"
    },
    {
      "anonymous": false,
      "inputs": [
        {
          "indexed": true,
          "internalType": "address",
          "name": "from",
          "type": "address"
        },
        {
          "indexed": true,
          "internalType": "address",
          "name": "to",
          "type": "address"
        },
        {
          "indexed": false,
          "internalType": "uint256",
          "name": "value",
          "type": "uint256"
        }
      ],
      "name": "Transfer",
      "type": "event"
    },
    {
      "inputs": [],
      "name": "MAX_SUPPLY",
      "outputs": [
        {
          "internalType": "uint256",
          "name": "",
          "type": "uint256"
        }
      ],
      "stateMutability": "view",
      "type": "function"
    },
    {
      "inputs": [
        {
          "internalType": "address",
          "name": "_owner",
          "type": "address"
        },
        {
          "internalType": "address",
          "name": "_spender",
          "type": "address"
        },
        {
          "internalType": "uint256",
          "name": "subtractedValue",
          "type": "uint256"
        }
      ],
      "name": "_decreaseAllowance",
      "outputs": [
        {
          "internalType": "bool",
          "name": "",
          "type": "bool"
        }
      ],
      "stateMutability": "nonpayable",
      "type": "function"
    },
    {
      "inputs": [
        {
          "internalType": "address",
          "name": "_owner",
          "type": "address"
        },
        {
          "internalType": "address",
          "name": "_spender",
          "type": "address"
        }
      ],
      "name": "allowance",
      "outputs": [
        {
          "internalType": "uint256",
          "name": "",
          "type": "uint256"
        }
      ],
      "stateMutability": "view",
      "type": "function"
    },
    {
      "inputs": [
        {
          "internalType": "address",
          "name": "spender",
          "type": "address"
        },
        {
          "internalType": "uint256",
          "name": "amount",
          "type": "uint256"
        }
      ],
      "name": "approve",
      "outputs": [
        {
          "internalType": "bool",
          "name": "",
          "type": "bool"
        }
      ],
      "stateMutability": "nonpayable",
      "type": "function"
    },
    {
      "inputs": [
        {
          "internalType": "address",
          "name": "account",
          "type": "address"
        }
      ],
      "name": "balanceOf",
      "outputs": [
        {
          "internalType": "uint256",
          "name": "",
          "type": "uint256"
        }
      ],
      "stateMutability": "view",
      "type": "function"
    },
    {
      "inputs": [
        {
          "internalType": "address",
          "name": "caller",
          "type": "address"
        }
      ],
      "name": "begin",
      "outputs": [],
      "stateMutability": "nonpayable",
      "type": "function"
    },
    {
      "inputs": [
        {
          "internalType": "address",
          "name": "from",
          "type": "address"
        },
        {
          "internalType": "uint256",
          "name": "amount",
          "type": "uint256"
        }
      ],
      "name": "burn",
      "outputs": [],
      "stateMutability": "nonpayable",
      "type": "function"
    },
    {
      "inputs": [
        {
          "internalType": "uint256",
          "name": "_buysell_burn_rate",
          "type": "uint256"
        },
        {
          "internalType": "uint256",
          "name": "_shift_burn_rate",
          "type": "uint256"
        }
      ],
      "name": "changeBurnRates",
      "outputs": [],
      "stateMutability": "nonpayable",
      "type": "function"
    },
    {
      "inputs": [
        {
          "internalType": "address",
          "name": "pair",
          "type": "address"
        },
        {
          "internalType": "address",
          "name": "token0",
          "type": "address"
        },
        {
          "internalType": "address",
          "name": "token1",
          "type": "address"
        },
        {
          "internalType": "enum ListStatus",
          "name": "status",
          "type": "uint8"
        },
        {
          "internalType": "address",
          "name": "caller",
          "type": "address"
        }
      ],
      "name": "changePairStatus",
      "outputs": [],
      "stateMutability": "nonpayable",
      "type": "function"
    },
    {
      "inputs": [],
      "name": "checkForConsistency",
      "outputs": [
        {
          "internalType": "uint256",
          "name": "pending_collective",
          "type": "uint256"
        },
        {
          "internalType": "uint256",
          "name": "pending_marginal",
          "type": "uint256"
        },
        {
          "internalType": "uint256",
          "name": "abs_error",
          "type": "uint256"
        },
        {
          "internalType": "uint256",
          "name": "error_rate",
          "type": "uint256"
        }
      ],
      "stateMutability": "view",
      "type": "function"
    },
    {
      "inputs": [],
      "name": "decimals",
      "outputs": [
        {
          "internalType": "uint8",
          "name": "",
          "type": "uint8"
        }
      ],
      "stateMutability": "view",
      "type": "function"
    },
    {
      "inputs": [
        {
          "internalType": "address",
          "name": "spender",
          "type": "address"
        },
        {
          "internalType": "uint256",
          "name": "subtractedValue",
          "type": "uint256"
        }
      ],
      "name": "decreaseAllowance",
      "outputs": [
        {
          "internalType": "bool",
          "name": "",
          "type": "bool"
        }
      ],
      "stateMutability": "nonpayable",
      "type": "function"
    },
    {
      "inputs": [
        {
          "internalType": "enum ActionType",
          "name": "",
          "type": "uint8"
        }
      ],
      "name": "feeRates",
      "outputs": [
        {
          "internalType": "uint32",
          "name": "accountant",
          "type": "uint32"
        }
      ],
      "stateMutability": "view",
      "type": "function"
    },
    {
      "inputs": [],
      "name": "feeStores",
      "outputs": [
        {
          "internalType": "address",
          "name": "accountant",
          "type": "address"
        }
      ],
      "stateMutability": "view",
      "type": "function"
    },
    {
      "inputs": [],
      "name": "getCurrentActionType",
      "outputs": [
        {
          "internalType": "enum ActionType",
          "name": "",
          "type": "uint8"
        }
      ],
      "stateMutability": "view",
      "type": "function"
    },
    {
      "inputs": [],
      "name": "getOwner",
      "outputs": [
        {
          "internalType": "address",
          "name": "",
          "type": "address"
        }
      ],
      "stateMutability": "view",
      "type": "function"
    },
    {
      "inputs": [
        {
          "internalType": "address",
          "name": "user",
          "type": "address"
        }
      ],
      "name": "getState",
      "outputs": [
        {
          "internalType": "uint256",
          "name": "totalSupply",
          "type": "uint256"
        },
        {
          "internalType": "uint256",
          "name": "burnPending",
          "type": "uint256"
        },
        {
          "internalType": "uint256",
          "name": "burnDone",
          "type": "uint256"
        },
        {
          "internalType": "uint256",
          "name": "latestRound",
          "type": "uint256"
        },
        {
          "internalType": "uint256",
          "name": "latestNet",
          "type": "uint256"
        },
        {
          "internalType": "uint256",
          "name": "VIRTUAL",
          "type": "uint256"
        },
        {
          "internalType": "uint256",
          "name": "u_VIRTUAL",
          "type": "uint256"
        },
        {
          "internalType": "uint256",
          "name": "u_balances",
          "type": "uint256"
        },
        {
          "internalType": "uint256",
          "name": "u_pending",
          "type": "uint256"
        },
        {
          "internalType": "uint256",
          "name": "u_latestDecayRound",
          "type": "uint256"
        }
      ],
      "stateMutability": "view",
      "type": "function"
    },
    {
      "inputs": [],
      "name": "htzFtm",
      "outputs": [
        {
          "internalType": "address",
          "name": "",
          "type": "address"
        }
      ],
      "stateMutability": "view",
      "type": "function"
    },
    {
      "inputs": [
        {
          "internalType": "address",
          "name": "spender",
          "type": "address"
        },
        {
          "internalType": "uint256",
          "name": "addedValue",
          "type": "uint256"
        }
      ],
      "name": "increaseAllowance",
      "outputs": [
        {
          "internalType": "bool",
          "name": "",
          "type": "bool"
        }
      ],
      "stateMutability": "nonpayable",
      "type": "function"
    },
    {
      "inputs": [],
      "name": "lastSession",
      "outputs": [
        {
          "internalType": "uint256",
          "name": "",
          "type": "uint256"
        }
      ],
      "stateMutability": "view",
      "type": "function"
    },
    {
      "inputs": [],
      "name": "lp_reward",
      "outputs": [
        {
          "internalType": "uint256",
          "name": "latestBNumber",
          "type": "uint256"
        },
        {
          "internalType": "uint256",
          "name": "cycleBlocks",
          "type": "uint256"
        },
        {
          "internalType": "uint256",
          "name": "decayRate",
          "type": "uint256"
        },
        {
          "internalType": "address",
          "name": "account",
          "type": "address"
        },
        {
          "internalType": "uint256",
          "name": "sum_tokens",
          "type": "uint256"
        },
        {
          "internalType": "uint256",
          "name": "burnDone",
          "type": "uint256"
        },
        {
          "internalType": "uint256",
          "name": "latestRound",
          "type": "uint256"
        },
        {
          "internalType": "uint256",
          "name": "initialRound",
          "type": "uint256"
        },
        {
          "internalType": "uint256",
          "name": "latestNet",
          "type": "uint256"
        },
        {
          "internalType": "uint256",
          "name": "VIRTUAL",
          "type": "uint256"
        }
      ],
      "stateMutability": "view",
      "type": "function"
    },
    {
      "inputs": [
        {
          "internalType": "address",
          "name": "to",
          "type": "address"
        },
        {
          "internalType": "uint256",
          "name": "amount",
          "type": "uint256"
        }
      ],
      "name": "mint",
      "outputs": [],
      "stateMutability": "nonpayable",
      "type": "function"
    },
    {
      "inputs": [],
      "name": "name",
      "outputs": [
        {
          "internalType": "string",
          "name": "",
          "type": "string"
        }
      ],
      "stateMutability": "view",
      "type": "function"
    },
    {
      "inputs": [],
      "name": "nextNode",
      "outputs": [
        {
          "internalType": "address",
          "name": "",
          "type": "address"
        }
      ],
      "stateMutability": "view",
      "type": "function"
    },
    {
      "inputs": [],
      "name": "owner",
      "outputs": [
        {
          "internalType": "address",
          "name": "",
          "type": "address"
        }
      ],
      "stateMutability": "view",
      "type": "function"
    },
    {
      "inputs": [
        {
          "internalType": "address",
          "name": "",
          "type": "address"
        },
        {
          "internalType": "address",
          "name": "",
          "type": "address"
        }
      ],
      "name": "pairFor",
      "outputs": [
        {
          "internalType": "address",
          "name": "",
          "type": "address"
        }
      ],
      "stateMutability": "view",
      "type": "function"
    },
    {
      "inputs": [
        {
          "internalType": "address",
          "name": "",
          "type": "address"
        }
      ],
      "name": "pairs",
      "outputs": [
        {
          "internalType": "address",
          "name": "token0",
          "type": "address"
        },
        {
          "internalType": "address",
          "name": "token1",
          "type": "address"
        },
        {
          "internalType": "enum ListStatus",
          "name": "status",
          "type": "uint8"
        }
      ],
      "stateMutability": "view",
      "type": "function"
    },
    {
      "inputs": [],
      "name": "pause",
      "outputs": [],
      "stateMutability": "nonpayable",
      "type": "function"
    },
    {
      "inputs": [],
      "name": "paused",
      "outputs": [
        {
          "internalType": "bool",
          "name": "",
          "type": "bool"
        }
      ],
      "stateMutability": "view",
      "type": "function"
    },
    {
      "inputs": [
        {
          "internalType": "address",
          "name": "account",
          "type": "address"
        },
        {
          "internalType": "uint256",
          "name": "principal",
          "type": "uint256"
        },
        {
          "components": [
            {
              "internalType": "uint32",
              "name": "accountant",
              "type": "uint32"
            }
          ],
          "internalType": "struct FeeRates",
          "name": "rates",
          "type": "tuple"
        },
        {
          "internalType": "bool",
          "name": "fromAllowance",
          "type": "bool"
        }
      ],
      "name": "payFeeTgrLogic",
      "outputs": [
        {
          "internalType": "uint256",
          "name": "feesPaid",
          "type": "uint256"
        }
      ],
      "stateMutability": "nonpayable",
      "type": "function"
    },
    {
      "inputs": [],
      "name": "prevNode",
      "outputs": [
        {
          "internalType": "address",
          "name": "",
          "type": "address"
        }
      ],
      "stateMutability": "view",
      "type": "function"
    },
    {
      "inputs": [],
      "name": "pulse_lp_reward",
      "outputs": [],
      "stateMutability": "nonpayable",
      "type": "function"
    },
    {
      "inputs": [],
      "name": "pulse_user_burn",
      "outputs": [],
      "stateMutability": "nonpayable",
      "type": "function"
    },
    {
      "inputs": [],
      "name": "pulse_vote_burn",
      "outputs": [],
      "stateMutability": "nonpayable",
      "type": "function"
    },
    {
      "inputs": [
        {
          "internalType": "enum ActionType",
          "name": "actionType",
          "type": "uint8"
        },
        {
          "internalType": "bool",
          "name": "blockReentry",
          "type": "bool"
        }
      ],
      "name": "registerAction",
      "outputs": [
        {
          "components": [
            {
              "internalType": "enum ActionType",
              "name": "actionType",
              "type": "uint8"
            },
            {
              "internalType": "uint256",
              "name": "session",
              "type": "uint256"
            },
            {
              "internalType": "uint256",
              "name": "lastSession",
              "type": "uint256"
            },
            {
              "internalType": "bool",
              "name": "isUserAction",
              "type": "bool"
            }
          ],
          "internalType": "struct ActionParams",
          "name": "actionParams",
          "type": "tuple"
        }
      ],
      "stateMutability": "nonpayable",
      "type": "function"
    },
    {
      "inputs": [],
      "name": "renounceOwnership",
      "outputs": [],
      "stateMutability": "nonpayable",
      "type": "function"
    },
    {
      "inputs": [],
      "name": "resume",
      "outputs": [],
      "stateMutability": "nonpayable",
      "type": "function"
    },
    {
      "inputs": [
        {
          "internalType": "uint256",
          "name": "amount",
          "type": "uint256"
        }
      ],
      "name": "returnVotes",
      "outputs": [],
      "stateMutability": "nonpayable",
      "type": "function"
    },
    {
      "inputs": [],
      "name": "session",
      "outputs": [
        {
          "internalType": "uint256",
          "name": "",
          "type": "uint256"
        }
      ],
      "stateMutability": "view",
      "type": "function"
    },
    {
      "inputs": [
        {
          "internalType": "enum ActionType",
          "name": "",
          "type": "uint8"
        }
      ],
      "name": "sessionsLastSeenBySType",
      "outputs": [
        {
          "internalType": "uint256",
          "name": "",
          "type": "uint256"
        }
      ],
      "stateMutability": "view",
      "type": "function"
    },
    {
      "inputs": [
        {
          "internalType": "enum ActionType",
          "name": "_sessionType",
          "type": "uint8"
        },
        {
          "components": [
            {
              "internalType": "uint32",
              "name": "accountant",
              "type": "uint32"
            }
          ],
          "internalType": "struct FeeRates",
          "name": "_feeRates",
          "type": "tuple"
        },
        {
          "internalType": "address",
          "name": "caller",
          "type": "address"
        }
      ],
      "name": "setFeeRates",
      "outputs": [],
      "stateMutability": "nonpayable",
      "type": "function"
    },
    {
      "inputs": [
        {
          "components": [
            {
              "internalType": "address",
              "name": "accountant",
              "type": "address"
            }
          ],
          "internalType": "struct FeeStores",
          "name": "_feeStores",
          "type": "tuple"
        },
        {
          "internalType": "address",
          "name": "caller",
          "type": "address"
        }
      ],
      "name": "setFeeStores",
      "outputs": [],
      "stateMutability": "nonpayable",
      "type": "function"
    },
    {
      "inputs": [
        {
          "internalType": "enum NodeType",
          "name": "nodeType",
          "type": "uint8"
        },
        {
          "internalType": "address",
          "name": "node",
          "type": "address"
        },
        {
          "internalType": "address",
          "name": "caller",
          "type": "address"
        }
      ],
      "name": "setNode",
      "outputs": [],
      "stateMutability": "nonpayable",
      "type": "function"
    },
    {
      "inputs": [],
      "name": "symbol",
      "outputs": [
        {
          "internalType": "string",
          "name": "",
          "type": "string"
        }
      ],
      "stateMutability": "view",
      "type": "function"
    },
    {
      "inputs": [
        {
          "internalType": "uint256",
          "name": "amount",
          "type": "uint256"
        }
      ],
      "name": "takeVotes",
      "outputs": [],
      "stateMutability": "nonpayable",
      "type": "function"
    },
    {
      "inputs": [],
      "name": "tgrBusd",
      "outputs": [
        {
          "internalType": "address",
          "name": "",
          "type": "address"
        }
      ],
      "stateMutability": "view",
      "type": "function"
    },
    {
      "inputs": [],
      "name": "tgrFtm",
      "outputs": [
        {
          "internalType": "address",
          "name": "",
          "type": "address"
        }
      ],
      "stateMutability": "view",
      "type": "function"
    },
    {
      "inputs": [],
      "name": "totalSupply",
      "outputs": [
        {
          "internalType": "uint256",
          "name": "",
          "type": "uint256"
        }
      ],
      "stateMutability": "view",
      "type": "function"
    },
    {
      "inputs": [
        {
          "internalType": "address",
          "name": "recipient",
          "type": "address"
        },
        {
          "internalType": "uint256",
          "name": "amount",
          "type": "uint256"
        }
      ],
      "name": "transfer",
      "outputs": [
        {
          "internalType": "bool",
          "name": "",
          "type": "bool"
        }
      ],
      "stateMutability": "nonpayable",
      "type": "function"
    },
    {
      "inputs": [
        {
          "internalType": "address",
          "name": "sender",
          "type": "address"
        },
        {
          "internalType": "address",
          "name": "recipient",
          "type": "address"
        },
        {
          "internalType": "uint256",
          "name": "amount",
          "type": "uint256"
        }
      ],
      "name": "transferDirectSafe",
      "outputs": [],
      "stateMutability": "nonpayable",
      "type": "function"
    },
    {
      "inputs": [
        {
          "internalType": "address",
          "name": "sender",
          "type": "address"
        },
        {
          "internalType": "address",
          "name": "recipient",
          "type": "address"
        },
        {
          "internalType": "uint256",
          "name": "amount",
          "type": "uint256"
        }
      ],
      "name": "transferFrom",
      "outputs": [
        {
          "internalType": "bool",
          "name": "",
          "type": "bool"
        }
      ],
      "stateMutability": "nonpayable",
      "type": "function"
    },
    {
      "inputs": [
        {
          "internalType": "address",
          "name": "newOwner",
          "type": "address"
        }
      ],
      "name": "transferOwnership",
      "outputs": [],
      "stateMutability": "nonpayable",
      "type": "function"
    },
    {
      "inputs": [],
      "name": "unregisterAction",
      "outputs": [],
      "stateMutability": "nonpayable",
      "type": "function"
    },
    {
      "inputs": [],
      "name": "user_burn",
      "outputs": [
        {
          "internalType": "uint256",
          "name": "latestBNumber",
          "type": "uint256"
        },
        {
          "internalType": "uint256",
          "name": "cycleBlocks",
          "type": "uint256"
        },
        {
          "internalType": "uint256",
          "name": "decayRate",
          "type": "uint256"
        },
        {
          "internalType": "address",
          "name": "account",
          "type": "address"
        },
        {
          "internalType": "uint256",
          "name": "sum_tokens",
          "type": "uint256"
        },
        {
          "internalType": "uint256",
          "name": "burnDone",
          "type": "uint256"
        },
        {
          "internalType": "uint256",
          "name": "latestRound",
          "type": "uint256"
        },
        {
          "internalType": "uint256",
          "name": "initialRound",
          "type": "uint256"
        },
        {
          "internalType": "uint256",
          "name": "latestNet",
          "type": "uint256"
        },
        {
          "internalType": "uint256",
          "name": "VIRTUAL",
          "type": "uint256"
        }
      ],
      "stateMutability": "view",
      "type": "function"
    },
    {
      "inputs": [],
      "name": "vote_burn",
      "outputs": [
        {
          "internalType": "uint256",
          "name": "latestBNumber",
          "type": "uint256"
        },
        {
          "internalType": "uint256",
          "name": "cycleBlocks",
          "type": "uint256"
        },
        {
          "internalType": "uint256",
          "name": "decayRate",
          "type": "uint256"
        },
        {
          "internalType": "address",
          "name": "account",
          "type": "address"
        },
        {
          "internalType": "uint256",
          "name": "sum_tokens",
          "type": "uint256"
        },
        {
          "internalType": "uint256",
          "name": "burnDone",
          "type": "uint256"
        },
        {
          "internalType": "uint256",
          "name": "latestRound",
          "type": "uint256"
        },
        {
          "internalType": "uint256",
          "name": "initialRound",
          "type": "uint256"
        },
        {
          "internalType": "uint256",
          "name": "latestNet",
          "type": "uint256"
        },
        {
          "internalType": "uint256",
          "name": "VIRTUAL",
          "type": "uint256"
        }
      ],
      "stateMutability": "view",
      "type": "function"
    },
    {
      "inputs": [
        {
          "internalType": "address",
          "name": "_prevNode",
          "type": "address"
        },
        {
          "internalType": "address",
          "name": "_nextNode",
          "type": "address"
        }
      ],
      "name": "wire",
      "outputs": [],
      "stateMutability": "nonpayable",
      "type": "function"
    },
    {
      "stateMutability": "payable",
      "type": "receive"
    }
  ],
  "bytecode": "0x60a06040523480156200001157600080fd5b5060405162005df438038062005df4833981016040819052620000349162000e23565b6000805460ff1916905562000049336200040c565b604580546001600160a01b0319166001600160a01b0383161790556200006c3390565b604180546001600160a01b03929092166001600160a01b03199283161790556042805482167370997970c51812dc3a010c7d01b50e0d17dc79c8179055604380548216733c44cdddb6a900fa2b585dd299e03d12fa4293bc179055604480549091167390f79bf6eb2c4f870365e785982e1f101e93b9061790556040516200010c9043409060200163766f746560e01b8152600481019190915260240190565b60408051601f1981840301815282825280516020918201206001600160a01b0390811660809081526101408501845243808652601e9386018490526102b2948601949094526008549091166060850152600090840181905260a0840152919060c08201906200017d90849062000e7a565b81526020016200018e834362000e7a565b8152600060208083018290526040928301829052835181558381015160215583830151602255606080850151602380546001600160a01b0319166001600160a01b0392831617905560808087015160245560a08088015160255560c08089015160265560e08901516027556101008901516028556101209098015160295586516101408101885243808252601e9682018790526046988201989098528251909316938301939093528101849052908101929092529350918201906200025590849062000e7a565b815260200162000266834362000e7a565b81526000602080830182905260409283018290528351602a5583810151602b5583830151602c55606080850151602d80546001600160a01b0319166001600160a01b03909216919091179055608080860151602e5560a080870151602f5560c08088015160305560e08801516031556101008801516032556101209097015160335585516101408101875243808252601e958201869052610309978201979097529283018590529082018490528101929092529350918201906200032c90849062000e7a565b81526020016200033d834362000e7a565b8152600060208083018290526040928301919091528251603455820151603555818101516036556060820151603780546001600160a01b0319166001600160a01b03909216919091179055608082015160385560a082015160395560c0820151603a5560e0820151603b55610100820151603c5561012090910151603d55617ab7603f5561343e9055600e805462ffffff19166201010117905562000404620003e33390565b620003f16012600662000e9d565b620003fe90600a62000fb5565b6200046a565b50506200107c565b600e80546001600160a01b0383811663010000008181026301000000600160b81b031985161790945560405193909204169182907f8be0079c531659141344cd1fd0a4f28419497f9722a3daafe3b4186f6b6457e090600090a35050565b60408051808201909152600c81526b5a65726f206164647265737360a01b60208201526001600160a01b038316620004c05760405162461bcd60e51b8152600401620004b7919062000fc3565b60405180910390fd5b50620004cf8282600162000519565b6040518181526001600160a01b038316906000907fddf252ad1be2c89b69c2b068fc378daa952ba7f163c4a11628f55a4df523b3ef9060200160405180910390a35050565b505050565b6200052483620008ef565b156200084257603c546001600160a01b0384166000908152601d602052604090205462000552919062000934565b603c55603d546001600160a01b0384166000908152603e602052604090206001015462000580919062000934565b603d5560008062000591856200095c565b909250905080156200060a576001600160a01b0385166000908152601d6020526040902054620005c2908262000934565b6001600160a01b0386166000908152601d6020526040902055601c54620005ea908262000934565b601c55603980548291906000906200060490849062000e9d565b90915550505b821562000662576001600160a01b0385166000908152601d6020526040812080548692906200063b90849062000e9d565b9250508190555083601c600082825462000656919062000e9d565b90915550620006b39050565b6001600160a01b0385166000908152601d602052604090205462000687908562000934565b6001600160a01b0386166000908152601d6020526040902055601c54620006af908562000934565b601c555b6001600160a01b0385166000908152601d6020526040812054603c805491929091620006e190849062000e9d565b909155505060455460009081906001600160a01b0316635aff34dc6200070a6005600a62000fb5565b6036546200071b6005600a62000fb5565b6200072791906200101b565b6040516001600160e01b031960e085901b1681526004810192909252602482015260448101879052600160648201526084016040805180830381865afa15801562000776573d6000803e3d6000fd5b505050506040513d601f19601f820116820180604052508101906200079c919062001035565b915091506000620007df601d60008a6001600160a01b03166001600160a01b0316815260200190815260200160002054848462000b6860201b62002da11760201c565b6001600160a01b0389166000908152603e60205260408120600101829055603d805492935083929091906200081690849062000e9d565b9091555050506001600160a01b0387166000908152603e60205260409020939093555062000514915050565b80156200089a576001600160a01b0383166000908152601d6020526040812080548492906200087390849062000e9d565b9250508190555081601c60008282546200088e919062000e9d565b90915550620005149050565b6001600160a01b0383166000908152601d6020526040902054620008bf908362000934565b6001600160a01b0384166000908152601d6020526040902055601c54620008e7908362000934565b601c55505050565b6001600160a01b038181166000908152600a60205260408120549091161580156200092e57506080516001600160a01b0316826001600160a01b031614155b92915050565b60008183111562000953576200094b82846200101b565b90506200092e565b50600092915050565b604080516101408101825260345481526035546020808301918252603654838501526037546001600160a01b039081166060850152603854608085015260395460a0850152603a5460c0850152603b5460e08501908152603c54610100860152603d546101208601529086166000908152603e83528581208651808801909752805487526001015492860192909252519151909384939290918491829162000a05904362000e7a565b62000a1191906200101b565b835190925060009062000a2590846200101b565b604554604087015191925060009182916001600160a01b031690635aff34dc9062000a536005600a62000fb5565b62000a5f91906200101b565b62000a6d6005600a62000fb5565b6040516001600160e01b031960e085901b1681526004810192909252602482015260448101869052600160648201526084016040805180830381865afa15801562000abc573d6000803e3d6000fd5b505050506040513d601f19601f8201168201806040525081019062000ae2919062001035565b91509150600062000b0564e8d4a51000848462000b6860201b62002da11760201c565b905062000b188164e8d4a510006200101b565b6001600160a01b038c166000908152601d60205260408120549196509064e8d4a510009062000b499088906200105a565b62000b55919062000e7a565b969c969b50959950505050505050505050565b60008062000b7885858562000bb0565b9050600062000b8986868662000ca6565b111562000ba65762000b9d81600162000cc4565b91505062000ba9565b90505b9392505050565b6000808062000bc0868662000cd2565b915091508160000362000bea5783818162000bdf5762000bdf62000e4e565b049250505062000ba9565b8382101562000ca157600062000c0287878762000ca6565b905060008062000c1485858562000d26565b915091508160000362000c415786818162000c335762000c3362000e4e565b049550505050505062000ba9565b60008762000c50828262000d5c565b169050600062000c6284848462000d6a565b9050600062000c83838b8162000c7c5762000c7c62000e4e565b0462000dc1565b905062000c91828262000e06565b9850505050505050505062000ba9565b600080fd5b6000818062000cb95762000cb962000e4e565b838509949350505050565b600062000ba9828462000e9d565b6000808062000ce2858562000e14565b9050600062000cf2868662000e06565b905080821062000d0a57908190039250905062000d1f565b600162000d18838362000d5c565b0393509150505b9250929050565b60008082841062000d3e575083905081830362000d54565b600019850162000d4f858562000d5c565b915091505b935093915050565b600062000ba982846200101b565b60008062000d968362000d7e838262000d5c565b8162000d8e5762000d8e62000e4e565b506000919050565b905082848162000daa5762000daa62000e4e565b0462000db7868362000e06565b1795945050505050565b60006001815b600881101562000dff5762000df48262000dee600262000de8838962000e06565b62000d5c565b62000e06565b915060010162000dc7565b5092915050565b600062000ba982846200105a565b60006000198284099392505050565b60006020828403121562000e3657600080fd5b81516001600160a01b038116811462000ba957600080fd5b634e487b7160e01b600052601260045260246000fd5b634e487b7160e01b600052601160045260246000fd5b60008262000e9857634e487b7160e01b600052601260045260246000fd5b500490565b6000821982111562000eb35762000eb362000e64565b500190565b600181815b8085111562000ef957816000190482111562000edd5762000edd62000e64565b8085161562000eeb57918102915b93841c939080029062000ebd565b509250929050565b60008262000f12575060016200092e565b8162000f21575060006200092e565b816001811462000f3a576002811462000f455762000f65565b60019150506200092e565b60ff84111562000f595762000f5962000e64565b50506001821b6200092e565b5060208310610133831016604e8410600b841016171562000f8a575081810a6200092e565b62000f96838362000eb8565b806000190482111562000fad5762000fad62000e64565b029392505050565b600062000ba9838362000f01565b600060208083528351808285015260005b8181101562000ff25785810183015185820160400152820162000fd4565b8181111562001005576000604083870101525b50601f01601f1916929092016040019392505050565b60008282101562001030576200103062000e64565b500390565b600080604083850312156200104957600080fd5b505080516020909101519092909150565b600081600019048311821515161562001077576200107762000e64565b500290565b608051614d5c620010986000396000613b1b0152614d5c6000f3fe60806040526004361061036f5760003560e01c80638456cb59116101c6578063a51bb24e116100f7578063e729a45511610095578063ed2deb8b1161006f578063ed2deb8b14610b7f578063f2fde38b14610b8b578063f9a21e8a14610bab578063fe33b30214610bcb57600080fd5b8063e729a45514610b27578063eca4c46614610b3c578063ecd6f46a14610b5257600080fd5b8063cd193c43116100d1578063cd193c4314610a81578063cd537aa114610aa1578063cdd9224c14610ac1578063dd62ed3e14610ae157600080fd5b8063a51bb24e14610a21578063a9059cbb14610a41578063c5921fe914610a6157600080fd5b8063934923a3116101645780639dc29fac1161013e5780639dc29fac1461097d578063a13c1f671461099d578063a150da2a146109e1578063a457c2d714610a0157600080fd5b8063934923a3146108f057806395d89b411461091057806396ed28f91461093c57600080fd5b806390e3677f116101a057806390e3677f146108705780639154961e1461089057806391fd0db7146108b0578063928879d6146108d057600080fd5b80638456cb5914610836578063893d20e81461084b5780638da5cb5b1461084b57600080fd5b806339509351116102a05780635e3568b81161023e5780636c93564f116102185780636c93564f1461078857806370a08231146107cc578063715018a6146107ec578063739572891461080157600080fd5b80635e3568b81461073257806365715c561461074857806368fb3c721461076857600080fd5b80634be548271161027a5780634be54827146106a957806354abe9d0146106d65780635c975abb146106f65780635d392daa1461071057600080fd5b8063395093511461065457806340c10f1914610674578063431b3c301461069457600080fd5b806318160ddd1161030d578063249dfad7116102e7578063249dfad714610568578063313ce5671461058d57806332cb6b0c146105a95780633660777d146105be57600080fd5b806318160ddd146104bb5780631bab58f5146104de57806323b872dd1461054857600080fd5b8063095ea7b311610349578063095ea7b3146103eb57806309b16a221461041b5780630c3d536b14610453578063102247111461047357600080fd5b8063046f7da21461037b57806306fdde0314610392578063086a606c146103d657600080fd5b3661037657005b600080fd5b34801561038757600080fd5b50610390610c27565b005b34801561039e57600080fd5b506040805180820190915260098152682a23a9102a37b5b2b760b91b60208201525b6040516103cd91906141ff565b60405180910390f35b3480156103e257600080fd5b50610390610c97565b3480156103f757600080fd5b5061040b610406366004614229565b611123565b60405190151581526020016103cd565b34801561042757600080fd5b5060085461043b906001600160a01b031681565b6040516001600160a01b0390911681526020016103cd565b34801561045f57600080fd5b5060095461043b906001600160a01b031681565b34801561047f57600080fd5b506104a661048e366004614260565b600d6020526000908152604090205463ffffffff1681565b60405163ffffffff90911681526020016103cd565b3480156104c757600080fd5b506104d061113a565b6040519081526020016103cd565b3480156104ea57600080fd5b506104fe6104f936600461427d565b611149565b604080519a8b5260208b0199909952978901969096526060880194909452608087019290925260a086015260c085015260e0840152610100830152610120820152610140016103cd565b34801561055457600080fd5b5061040b610563366004614298565b6111de565b34801561057457600080fd5b5060005461043b9061010090046001600160a01b031681565b34801561059957600080fd5b50604051601281526020016103cd565b3480156105b557600080fd5b506104d061127c565b3480156105ca57600080fd5b50602a54602b54602c54602d54602e54602f54603054603154603254603354610602999897966001600160a01b03169594939291908a565b604080519a8b5260208b0199909952978901969096526001600160a01b039094166060880152608087019290925260a086015260c085015260e0840152610100830152610120820152610140016103cd565b34801561066057600080fd5b5061040b61066f366004614229565b6112a2565b34801561068057600080fd5b5061039061068f366004614229565b6112af565b3480156106a057600080fd5b50610390611367565b3480156106b557600080fd5b506106c96106c43660046142e2565b611428565b6040516103cd9190614345565b3480156106e257600080fd5b506103906106f136600461427d565b61174f565b34801561070257600080fd5b5060145461040b9060ff1681565b34801561071c57600080fd5b50610725611872565b6040516103cd919061437e565b34801561073e57600080fd5b506104d0600f5481565b34801561075457600080fd5b5060015461043b906001600160a01b031681565b34801561077457600080fd5b506104d061078336600461438c565b6118a4565b34801561079457600080fd5b50603454603554603654603754603854603954603a54603b54603c54603d54610602999897966001600160a01b03169594939291908a565b3480156107d857600080fd5b506104d06107e736600461427d565b61190c565b3480156107f857600080fd5b50610390611917565b34801561080d57600080fd5b50610816611955565b6040805194855260208501939093529183015260608201526080016103cd565b34801561084257600080fd5b50610390611a5d565b34801561085757600080fd5b50600e54630100000090046001600160a01b031661043b565b34801561087c57600080fd5b5061039061088b3660046143e6565b611acb565b34801561089c57600080fd5b506103906108ab366004614419565b611b69565b3480156108bc57600080fd5b506103906108cb366004614479565b611cac565b3480156108dc57600080fd5b506103906108eb366004614505565b611e66565b3480156108fc57600080fd5b5060075461043b906001600160a01b031681565b34801561091c57600080fd5b506040805180820190915260038152622a23a960e91b60208201526103c0565b34801561094857600080fd5b5061043b6109573660046143e6565b600b6020908152600092835260408084209091529082529020546001600160a01b031681565b34801561098957600080fd5b50610390610998366004614229565b611f21565b3480156109a957600080fd5b50602054602154602254602354602454602554602654602754602854602954610602999897966001600160a01b03169594939291908a565b3480156109ed57600080fd5b5061040b6109fc366004614298565b611f5d565b348015610a0d57600080fd5b5061040b610a1c366004614229565b611fe9565b348015610a2d57600080fd5b50610390610a3c366004614545565b611ff6565b348015610a4d57600080fd5b5061040b610a5c366004614229565b61208f565b348015610a6d57600080fd5b50610390610a7c366004614419565b61209c565b348015610a8d57600080fd5b50610390610a9c366004614567565b6121d2565b348015610aad57600080fd5b50610390610abc366004614298565b61266e565b348015610acd57600080fd5b50610390610adc3660046145d2565b612ae0565b348015610aed57600080fd5b506104d0610afc3660046143e6565b6001600160a01b039182166000908152601b6020908152604080832093909416825291909152205490565b348015610b3357600080fd5b50610390612ca5565b348015610b4857600080fd5b506104d060105481565b348015610b5e57600080fd5b506104d0610b6d366004614260565b60116020526000908152604090205481565b34801561039057600080fd5b348015610b9757600080fd5b50610390610ba636600461427d565b612d01565b348015610bb757600080fd5b50600c5461043b906001600160a01b031681565b348015610bd757600080fd5b50610c18610be636600461427d565b600a60205260009081526040902080546001909101546001600160a01b0391821691811690600160a01b900460ff1683565b6040516103cd93929190614644565b600e54630100000090046001600160a01b03166001600160a01b0316336001600160a01b031614610c8b5760405162461bcd60e51b81526020600482015260096024820152682737ba1037bbb732b960b91b60448201526064015b60405180910390fd5b6014805460ff19169055565b6000610ca36020612ddf565b90508015611120576000610cb630612e96565b9050600064e8d4a5100083600860009054906101000a90046001600160a01b03166001600160a01b03166318160ddd6040518163ffffffff1660e01b8152600401602060405180830381865afa158015610d14573d6000803e3d6000fd5b505050506040513d601f19601f82011682018060405250810190610d389190614669565b610d429190614698565b610d4c91906146cd565b6004805460405162d1b00d60e71b81523092810183905260248101849052600060448201819052606482019390935243608482015292935090916001600160a01b03909116906368d806809060a4016020604051808303816000875af1158015610dba573d6000803e3d6000fd5b505050506040513d601f19601f82011682018060405250810190610dde9190614669565b905082610dea30612e96565b610df491906146ef565b9250610e003084612f3b565b610e23604051806060016040528060278152602001614d00602791398285613031565b604080516002808252606082018352600092602083019080368337019050509050735fc8d32690cc91d4c39d9d3abcbd16989f87570781600081518110610e6c57610e6c614706565b60200260200101906001600160a01b031690816001600160a01b03168152505073b7f8bc63bbcad18155201308c8f3540b07f84f5e81600181518110610eb457610eb4614706565b6001600160a01b0392909216602092830291909101909101526040516370a0823160e01b815230600482015260009073b7f8bc63bbcad18155201308c8f3540b07f84f5e906370a0823190602401602060405180830381865afa158015610f1f573d6000803e3d6000fd5b505050506040513d601f19601f82011682018060405250810190610f439190614669565b600554604051637ff36ab560e01b81529192506001600160a01b031690637ff36ab5908590610f7d9060009087903090439060040161471c565b60006040518083038185885af1158015610f9b573d6000803e3d6000fd5b50505050506040513d6000823e601f3d908101601f19168201604052610fc49190810190614786565b506040516370a0823160e01b8152306004820152819073b7f8bc63bbcad18155201308c8f3540b07f84f5e906370a0823190602401602060405180830381865afa158015611016573d6000803e3d6000fd5b505050506040513d601f19601f8201168201806040525081019061103a9190614669565b61104491906146ef565b90506110856040518060400160405280601881526020017f48545a206761696e65642062792073776170202d2d2d2d2d000000000000000081525082613078565b60405163a9059cbb60e01b815273f39fd6e51aad88f6f4ce6ab8827279cfffb9226660048201526024810182905273b7f8bc63bbcad18155201308c8f3540b07f84f5e9063a9059cbb906044016020604051808303816000875af11580156110f1573d6000803e3d6000fd5b505050506040513d601f19601f82011682018060405250810190611115919061482c565b505043602055505050505b50565b60006111303384846130bd565b5060015b92915050565b60006111446131ac565b905090565b601c546000808080808080808061115e6131c1565b603954603a54603c546001600160a01b038f166000908152603e6020908152604080832060010154603d54601d909352922054959e50939c50919a509850909650945092506111ac8b6132b0565b6001600160a01b03909c166000908152603e60205260409020549a9c999b989a97999698959794969395949392505050565b60006001600160a01b0384163314611266576001600160a01b0384166000908152601b60209081526040808320338452909152902054828110156112645760405162461bcd60e51b815260206004820152601a60248201527f5472616e73666572206578636565647320616c6c6f77616e63650000000000006044820152606401610c82565b505b61127184848461349a565b5060015b9392505050565b61128860126006614849565b61129390600a614945565b61129f906103e8614698565b81565b6000611275338484613508565b600e546001600160a01b0363010000009091041633146112e15760405162461bcd60e51b8152600401610c8290614951565b6112ed60126006614849565b6112f890600a614945565b611304906103e8614698565b8161130d6131ac565b6113179190614849565b11156113595760405162461bcd60e51b8152602060048201526011602482015270457863656564204d617820537570706c7960781b6044820152606401610c82565b611363828261358f565b5050565b60025433906001600160a01b031681148061138f57506004546001600160a01b038281169116145b806113a757506005546001600160a01b038281169116145b6113c35760405162461bcd60e51b8152600401610c8290614986565b60006012601354601481106113da576113da614706565b602091828204019190066101000a81548160ff021916908360058111156114035761140361431b565b0217905550601354156111205760138054906000611420836149b5565b919050555050565b60408051608081018252600080825260208201819052918101829052606081019190915260025433906001600160a01b031681148061147457506004546001600160a01b038281169116145b8061148c57506005546001600160a01b038281169116145b6114a85760405162461bcd60e51b8152600401610c8290614986565b60145460ff16156114eb5760405162461bcd60e51b815260206004820152600d60248201526c14de5cdd195b481c185d5cd959609a1b6044820152606401610c82565b60008460058111156114ff576114ff61431b565b0361153d5760405162461bcd60e51b815260206004820152600e60248201526d24b73b30b634b21030b1ba34b7b760911b6044820152606401610c82565b82156115e65760005b60135481116115e4578460058111156115615761156161431b565b6012826014811061157457611574614706565b602081049091015460ff601f9092166101000a900416600581111561159b5761159b61431b565b036115d25760405162461bcd60e51b81526020600482015260076024820152665265656e74727960c81b6044820152606401610c82565b806115dc816149cc565b915050611546565b505b60135415801561160d575060125460009060ff16600581111561160b5761160b61431b565b145b6116275760138054906000611621836149cc565b91905055505b60146013541061166a5760405162461bcd60e51b815260206004820152600e60248201526d537461636b206f766572666c6f7760901b6044820152606401610c82565b8360126013546014811061168057611680614706565b602091828204019190066101000a81548160ff021916908360058111156116a9576116a961431b565b0217905550818460058111156116c1576116c161431b565b908160058111156116d4576116d461431b565b90525060135415606083015260405160009061170890439032906020019182526001600160a01b0316602082015260400190565b6040516020818303038152906040528051906020012060001c905080600f541461173757600f80546010558190555b5050600f546020820152601054604082015292915050565b60005461010090046001600160a01b031633148061176c57503330145b8061179a5750600e54630100000090046001600160a01b03166001600160a01b0316336001600160a01b0316145b6117b65760405162461bcd60e51b8152600401610c82906149e5565b6001600160a01b0381163014611846576001546001600160a01b03908116906354abe9d0908316156117e857826117ea565b305b6040516001600160e01b031960e084901b1681526001600160a01b039091166004820152602401600060405180830381600087803b15801561182b57600080fd5b505af115801561183f573d6000803e3d6000fd5b5050505050565b6040517ffd3415c24b2b4519f08b7935c13f86ea010c77b3ff9bf448a474ae3b2414fce090600090a150565b600060126013546014811061188957611889614706565b602081049091015460ff601f9092166101000a900416919050565b60025460009033906001600160a01b03168114806118cf57506004546001600160a01b038281169116145b806118e757506005546001600160a01b038281169116145b6119035760405162461bcd60e51b8152600401610c8290614986565b50949350505050565b600061113482612e96565b600e546001600160a01b0363010000009091041633146119495760405162461bcd60e51b8152600401610c8290614951565b611953600061362b565b565b6000806000806119636131c1565b60415490945060009061197e906001600160a01b03166132b0565b915061198c90508185614849565b6042549094506119a4906001600160a01b03166132b0565b91506119b290508185614849565b6043549094506119ca906001600160a01b03166132b0565b91506119d890508185614849565b6044549094506119f0906001600160a01b03166132b0565b91506119fe90508185614849565b935083851015611a1957611a1285856146ef565b9250611a26565b611a2384866146ef565b92505b8484811015611a325750835b8015611a555780611a488564e8d4a51000614698565b611a5291906146cd565b92505b505090919293565b600e54630100000090046001600160a01b03166001600160a01b0316336001600160a01b031614611abc5760405162461bcd60e51b81526020600482015260096024820152682737ba1037bbb732b960b91b6044820152606401610c82565b6014805460ff19166001179055565b600e54630100000090046001600160a01b03166001600160a01b0316336001600160a01b031614611b315760405162461bcd60e51b815260206004820152601060248201526f496e76616c69642063616c6c6572203360801b6044820152606401610c82565b60008054610100600160a81b0319166101006001600160a01b0394851602179055600180546001600160a01b03191691909216179055565b601f5433906000908103611b8e57611b8764e8d4a510006064614698565b9050611bc9565b601f54602d546001600160a01b03166000908152601d6020526040902054611bbc9064e8d4a5100090614698565b611bc691906146cd565b90505b600064e8d4a51000611bdb8584614698565b611be591906146cd565b6001600160a01b0384166000908152601e6020526040902054909150841115611c495760405162461bcd60e51b8152602060048201526016602482015275616d6f756e7420657863656564696e6720766f74657360501b6044820152606401610c82565b602d54611c60906001600160a01b03168483613689565b6001600160a01b0383166000908152601e602052604081208054869290611c889084906146ef565b9250508190555083601f6000828254611ca191906146ef565b909155505050505050565b60005461010090046001600160a01b0316331480611cc957503330145b80611cf75750600e54630100000090046001600160a01b03166001600160a01b0316336001600160a01b0316145b611d135760405162461bcd60e51b8152600401610c82906149e5565b6001600160a01b0381163014611e2757600e5462010000900460ff1615611da157604051634f18125b60e01b815273__$88bebae22a3ad6e62b56c303176513ecf8$__90634f18125b90611d70908690600d908790600401614a0f565b60006040518083038186803b158015611d8857600080fd5b505af4158015611d9c573d6000803e3d6000fd5b505050505b60006001600160a01b03821615611db85781611dba565b305b6001546040516391fd0db760e01b81529192506001600160a01b0316906391fd0db790611def90879087908690600401614a38565b600060405180830381600087803b158015611e0957600080fd5b505af1158015611e1d573d6000803e3d6000fd5b5050505050505050565b7fb4040436d4754da72f29d5b97fe68448f30d44ac0e08b33545cbf6f28b7641d98383604051611e58929190614a6a565b60405180910390a15b505050565b60005461010090046001600160a01b0316331480611e8357503330145b80611eb15750600e54630100000090046001600160a01b03166001600160a01b0316336001600160a01b0316145b611ecd5760405162461bcd60e51b8152600401610c82906149e5565b611ed88383836137e2565b6000836004811115611eec57611eec61431b565b03611e6157601980546001600160a01b0384166001600160a01b03199182168117909255601a80549091169091179055505050565b600e546001600160a01b036301000000909104163314611f535760405162461bcd60e51b8152600401610c8290614951565b6113638282612f3b565b60408051808201909152600c81526b5a65726f206164647265737360a01b60208201526000906001600160a01b038516611faa5760405162461bcd60e51b8152600401610c8291906141ff565b506001600160a01b038085166000908152601b60209081526040808320938716835292905220546112719085908590611fe49086906146ef565b6130bd565b6000611275338484611f5d565b600e546001600160a01b0363010000009091041633146120285760405162461bcd60e51b8152600401610c8290614951565b6120346005600a614945565b821115801561204e575061204a6005600a614945565b8111155b6113635760405162461bcd60e51b8152602060048201526012602482015271496e76616c6964206275726e20726174657360701b6044820152606401610c82565b600061113033848461349a565b601f54339060009081036120c1576120ba64e8d4a510006064614698565b90506120fc565b601f54602d546001600160a01b03166000908152601d60205260409020546120ef9064e8d4a5100090614698565b6120f991906146cd565b90505b600064e8d4a5100061210e8584614698565b61211891906146cd565b6001600160a01b0384166000908152601d60205260409020549091508111156121795760405162461bcd60e51b815260206004820152601360248201527273686f7274206f662054475220746f6b656e7360681b6044820152606401610c82565b602d546121919084906001600160a01b031683613689565b6001600160a01b0383166000908152601e6020526040812080548692906121b9908490614849565b9250508190555083601f6000828254611ca19190614849565b60005461010090046001600160a01b03163314806121ef57503330145b8061221d5750600e54630100000090046001600160a01b03166001600160a01b0316336001600160a01b0316145b6122395760405162461bcd60e51b8152600401610c82906149e5565b6001600160a01b038116301461262a57600e5460ff16156125a0576040518060600160405280856001600160a01b03168152602001846001600160a01b0316815260200183600381111561228f5761228f61431b565b90526001600160a01b038087166000908152600a6020908152604091829020845181549085166001600160a01b0319918216178255918501516001820180549190951692811683178555928501519093909290916001600160a81b031990911617600160a01b8360038111156123075761230761431b565b021790555050506001600160a01b038085166000818152600b60208181526040808420898716855282528084208054878d166001600160a01b03199182168117909255938352818520958552949091529182902080549091169092179091556002549051633fe59dbb60e11b815273__$88bebae22a3ad6e62b56c303176513ecf8$__92637fcb3b76926123b992899289921690730dcd1bf9a1b36ce34237eeafef220932846bcd8290600401614a8c565b602060405180830381865af41580156123d6573d6000803e3d6000fd5b505050506040513d601f19601f820116820180604052508101906123fa919061482c565b1561241b57600780546001600160a01b0319166001600160a01b0387161790555b600254604051633fe59dbb60e11b815273__$88bebae22a3ad6e62b56c303176513ecf8$__91637fcb3b769161247791889188916001600160a01b031690735fc8d32690cc91d4c39d9d3abcbd16989f87570790600401614a8c565b602060405180830381865af4158015612494573d6000803e3d6000fd5b505050506040513d601f19601f820116820180604052508101906124b8919061482c565b156124d957600880546001600160a01b0319166001600160a01b0387161790555b604051633fe59dbb60e11b815273__$88bebae22a3ad6e62b56c303176513ecf8$__90637fcb3b769061253e908790879073b7f8bc63bbcad18155201308c8f3540b07f84f5e90735fc8d32690cc91d4c39d9d3abcbd16989f87570790600401614a8c565b602060405180830381865af415801561255b573d6000803e3d6000fd5b505050506040513d601f19601f8201168201806040525081019061257f919061482c565b156125a057600980546001600160a01b0319166001600160a01b0387161790555b60006001600160a01b038216156125b757816125b9565b305b60015460405163cd193c4360e01b81529192506001600160a01b03169063cd193c43906125f29089908990899089908890600401614ab7565b600060405180830381600087803b15801561260c57600080fd5b505af1158015612620573d6000803e3d6000fd5b505050505061183f565b7f7af36d96fdc569564b9fadb22716716fe33463cb7fc8dca4fbd79d40448acdf28585858560405161265f9493929190614af9565b60405180910390a15050505050565b60045433906001600160a01b031681036127bc576001600160a01b038381166000908152600a602052604090205416156127405760006126ac613945565b905060038160058111156126c2576126c261431b565b0361270a576127056040518060400160405280601881526020017f097472616e73666572446972656374536166653a2041646400000000000000008152506139b4565b61273a565b61273a6040518060400160405280600f81526020016e0496e636f6e73697374656e6374203608c1b8152506139b4565b50612a8d565b6004546001600160a01b03908116908516036127835761277e6040518060400160405280600781526020016652656d6f76653160c81b8152506139b4565b612a8d565b60405162461bcd60e51b815260206004820152600e60248201526d496e636f6e73697374656e74203160901b6044820152606401610c82565b6005546001600160a01b03908116908216036128d3576001600160a01b038381166000908152600a6020526040902054161561281c576128176040518060400160405280600481526020016314d95b1b60e21b8152506139b4565b612890565b6005546001600160a01b0390811690851603612856576128176040518060400160405280600381526020016242757960e81b8152506139b4565b60405162461bcd60e51b815260206004820152600f60248201526e24b731b7b739b4b9ba32b731ba101960891b6044820152606401610c82565b600061289e6005600a614945565b603f546128ab9085614698565b6128b591906146cd565b90506128c18582612f3b565b6128cb81846146ef565b925050612a8d565b836001600160a01b0316816001600160a01b031603612a53576001600160a01b038181166000908152600a6020526040902054161561277e576000612916613945565b9050600281600581111561292c5761292c61431b565b0361299857600061293f6005600a614945565b603f5461294c9086614698565b61295691906146cd565b90506129628682612f3b565b61296c81856146ef565b93506129926040518060400160405280600381526020016242757960e81b8152506139b4565b5061273a565b60048160058111156129ac576129ac61431b565b036129d957612705604051806040016040528060078152602001662932b6b7bb329960c91b8152506139b4565b60058160058111156129ed576129ed61431b565b03612a19576127056040518060400160405280600681526020016544696c75746560d01b8152506139b4565b60405162461bcd60e51b815260206004820152600f60248201526e496e636f6e73697374656e6374203560881b6044820152606401610c82565b60405162461bcd60e51b815260206004820152600f60248201526e2bb937b7339036b9b3a9b2b73232b960891b6044820152606401610c82565b6001600160a01b0384166000908152601d6020526040902054821115612ac9576001600160a01b0384166000908152601d602052604090205491505b8115612ada57612ada848484613689565b50505050565b60005461010090046001600160a01b0316331480612afd57503330145b80612b2b5750600e54630100000090046001600160a01b03166001600160a01b0316336001600160a01b0316145b612b475760405162461bcd60e51b8152600401610c82906149e5565b6001600160a01b0381163014612c6457600e54610100900460ff1615612bdb57604051633d8d54b760e11b8152600c600482015282516001600160a01b0316602482015273__$88bebae22a3ad6e62b56c303176513ecf8$__90637b1aa96e9060440160006040518083038186803b158015612bc257600080fd5b505af4158015612bd6573d6000803e3d6000fd5b505050505b60006001600160a01b03821615612bf25781612bf4565b305b600154604051633376489360e21b815285516001600160a01b039081166004830152808416602483015292935091169063cdd9224c90604401600060405180830381600087803b158015612c4757600080fd5b505af1158015612c5b573d6000803e3d6000fd5b50505050505050565b60405182516001600160a01b031681527f275664547227ddbc7a8a732c07c9346f2f4520de70c2088665cc6809534212c09060200160405180910390a15050565b6000612cb1602a612ddf565b9050801561112057602d546001600160a01b03166000818152601d6020526040902054612cfa919064e8d4a5100090612ceb908590614698565b612cf591906146cd565b612f3b565b43602a5550565b600e546001600160a01b036301000000909104163314612d335760405162461bcd60e51b8152600401610c8290614951565b6001600160a01b038116612d985760405162461bcd60e51b815260206004820152602660248201527f4f776e61626c653a206e6577206f776e657220697320746865207a65726f206160448201526564647265737360d01b6064820152608401610c82565b6111208161362b565b600080612daf8585856139f7565b90506000612dbe868686613acd565b1115612dd757612dcf816001613ae8565b915050611275565b949350505050565b6000808260070154836001015443612df791906146cd565b612e0191906146ef565b90508260060154811115612e90576000836006015482612e2191906146ef565b60068501839055438555600093509050825b81811015612e8d57612e476005600a614945565b6002860154612e5b8664e8d4a510006146ef565b612e659190614698565b612e6f91906146cd565b612e799085614849565b935080612e85816149cc565b915050612e33565b50505b50919050565b6000612ea182613af4565b15612f1b576000612eb1836132b0565b6001600160a01b0385166000908152601d60205260409020549092508211159050612ef757612ef7604051806060016040528060288152602001614cd8602891396139b4565b6001600160a01b0383166000908152601d60205260409020546112759082906146ef565b506001600160a01b0381166000908152601d60205260409020545b919050565b60408051808201909152600c81526b5a65726f206164647265737360a01b60208201526001600160a01b038316612f855760405162461bcd60e51b8152600401610c8291906141ff565b506000612f9183612e96565b9050818110156040518060400160405280600f81526020016e457863656564732062616c616e636560881b81525090612fdd5760405162461bcd60e51b8152600401610c8291906141ff565b50612fea83836000613b55565b6040518281526000906001600160a01b038516907fddf252ad1be2c89b69c2b068fc378daa952ba7f163c4a11628f55a4df523b3ef906020015b60405180910390a3505050565b611e6183838360405160240161304993929190614b2f565b60408051601f198184030181529190526020810180516001600160e01b031663ca47c4eb60e01b179052613ee1565b611363828260405160240161308e929190614b54565b60408051601f198184030181529190526020810180516001600160e01b0316632d839cb360e21b179052613ee1565b60408051808201909152600c81526b5a65726f206164647265737360a01b60208201526001600160a01b0384166131075760405162461bcd60e51b8152600401610c8291906141ff565b5060408051808201909152600c81526b5a65726f206164647265737360a01b60208201526001600160a01b0383166131525760405162461bcd60e51b8152600401610c8291906141ff565b506001600160a01b038381166000818152601b602090815260408083209487168084529482529182902085905590518481527f8c5be1e5ebec7d5bd14f71427d1e84f3dd0314c0f7b2291e5b200ac8c7c3b9259101613024565b6000611144601c546131bc6131c1565b613eea565b6000806131ce6034613f0e565b60455460365491925060009182916001600160a01b031690635aff34dc906131f86005600a614945565b61320291906146ef565b61320e6005600a614945565b6040516001600160e01b031960e085901b1681526004810192909252602482015260448101869052600160648201526084016040805180830381865afa15801561325c573d6000803e3d6000fd5b505050506040513d601f19601f820116820180604052508101906132809190614b76565b9150915060006132966034600901548484612da1565b90506132a760346008015482613eea565b94505050505090565b604080516101408101825260345481526035546020808301918252603654838501526037546001600160a01b039081166060850152603854608085015260395460a0850152603a5460c0850152603b5460e08501908152603c54610100860152603d546101208601529086166000908152603e83528581208651808801909752805487526001015492860192909252519151909384939290918491829161335790436146cd565b61336191906146ef565b835190925060009061337390846146ef565b604554604087015191925060009182916001600160a01b031690635aff34dc9061339f6005600a614945565b6133a991906146ef565b6133b56005600a614945565b6040516001600160e01b031960e085901b1681526004810192909252602482015260448101869052600160648201526084016040805180830381865afa158015613403573d6000803e3d6000fd5b505050506040513d601f19601f820116820180604052508101906134279190614b76565b91509150600061343d64e8d4a510008484612da1565b905061344e8164e8d4a510006146ef565b6001600160a01b038c166000908152601d60205260408120549196509064e8d4a510009061347d908890614698565b61348791906146cd565b969c969b50959950505050505050505050565b6134a5600180613f2f565b80156135005760185460ff16156134f55760006134c46005600a614945565b603f546134d19084614698565b6134db91906146cd565b90506134e78482612f3b565b6134f181836146ef565b9150505b613500838383613689565b611e61613ffe565b60408051808201909152600c81526b5a65726f206164647265737360a01b60208201526000906001600160a01b0385166135555760405162461bcd60e51b8152600401610c8291906141ff565b506001600160a01b038085166000908152601b60209081526040808320938716835292905220546112719085908590611fe4908690614849565b60408051808201909152600c81526b5a65726f206164647265737360a01b60208201526001600160a01b0383166135d95760405162461bcd60e51b8152600401610c8291906141ff565b506135e682826001613b55565b6040518181526001600160a01b038316906000907fddf252ad1be2c89b69c2b068fc378daa952ba7f163c4a11628f55a4df523b3ef9060200160405180910390a35050565b600e80546001600160a01b0383811663010000008181026301000000600160b81b031985161790945560405193909204169182907f8be0079c531659141344cd1fd0a4f28419497f9722a3daafe3b4186f6b6457e090600090a35050565b60408051808201909152600c81526b5a65726f206164647265737360a01b60208201526001600160a01b0384166136d35760405162461bcd60e51b8152600401610c8291906141ff565b5060408051808201909152600c81526b5a65726f206164647265737360a01b60208201526001600160a01b03831661371e5760405162461bcd60e51b8152600401610c8291906141ff565b50600061372a84612e96565b9050818110156040518060400160405280600f81526020016e457863656564732062616c616e636560881b815250906137765760405162461bcd60e51b8152600401610c8291906141ff565b5061378384836000613b55565b61378f83836001613b55565b826001600160a01b0316846001600160a01b03167fddf252ad1be2c89b69c2b068fc378daa952ba7f163c4a11628f55a4df523b3ef846040516137d491815260200190565b60405180910390a350505050565b60005461010090046001600160a01b03163314806137ff57503330145b8061382d5750600e54630100000090046001600160a01b03166001600160a01b0316336001600160a01b0316145b6138495760405162461bcd60e51b8152600401610c82906149e5565b6001600160a01b03811630146139145760405163085b199160e11b815273__$88bebae22a3ad6e62b56c303176513ecf8$__906310b63322906138959086908690600290600401614baa565b60006040518083038186803b1580156138ad57600080fd5b505af41580156138c1573d6000803e3d6000fd5b506000925050506001600160a01b038216156138dd57816138df565b305b6001546040516349443ceb60e11b81529192506001600160a01b03169063928879d690611def90879087908690600401614bd2565b7fb45c42dda0a5ab1d1078e0afeda2976363eff9496a93644e726862f1f06186b88383604051611e58929190614c02565b60195460408051632e9c96d560e11b815290516000926001600160a01b031691635d392daa916004808301926020929190829003018187875af1158015613990573d6000803e3d6000fd5b505050506040513d601f19601f820116820180604052508101906111449190614c28565b611120816040516024016139c891906141ff565b60408051601f198184030181529190526020810180516001600160e01b031663104c13eb60e21b179052613ee1565b6000806000613a068686614062565b9150915081600003613a2b57838181613a2157613a216146b7565b0492505050611275565b83821015610376576000613a40878787613acd565b9050600080613a508585856140af565b9150915081600003613a7857868181613a6b57613a6b6146b7565b0495505050505050611275565b600087613a8660008a6140e0565b1690506000613a968484846140ec565b90506000613ab2838b81613aac57613aac6146b7565b04614139565b9050613abe8282614176565b98505050505050505050611275565b60008180613add57613add6146b7565b838509949350505050565b60006112758284614849565b6001600160a01b038181166000908152600a602052604081205490911615801561113457507f00000000000000000000000000000000000000000000000000000000000000006001600160a01b0316826001600160a01b0316141592915050565b613b5e83613af4565b15613e3e57603c546001600160a01b0384166000908152601d6020526040902054613b899190613eea565b603c55603d546001600160a01b0384166000908152603e6020526040902060010154613bb59190613eea565b603d55600080613bc4856132b0565b90925090508015613c36576001600160a01b0385166000908152601d6020526040902054613bf29082613eea565b6001600160a01b0386166000908152601d6020526040902055601c54613c189082613eea565b601c5560398054829190600090613c30908490614849565b90915550505b8215613c88576001600160a01b0385166000908152601d602052604081208054869290613c64908490614849565b9250508190555083601c6000828254613c7d9190614849565b90915550613cd59050565b6001600160a01b0385166000908152601d6020526040902054613cab9085613eea565b6001600160a01b0386166000908152601d6020526040902055601c54613cd19085613eea565b601c555b6001600160a01b0385166000908152601d6020526040812054603c805491929091613d01908490614849565b909155505060455460009081906001600160a01b0316635aff34dc613d286005600a614945565b603654613d376005600a614945565b613d4191906146ef565b6040516001600160e01b031960e085901b1681526004810192909252602482015260448101879052600160648201526084016040805180830381865afa158015613d8f573d6000803e3d6000fd5b505050506040513d601f19601f82011682018060405250810190613db39190614b76565b6001600160a01b0389166000908152601d602052604081205492945090925090613dde908484612da1565b6001600160a01b0389166000908152603e60205260408120600101829055603d80549293508392909190613e13908490614849565b9091555050506001600160a01b0387166000908152603e602052604090209390935550611e61915050565b8015613e90576001600160a01b0383166000908152601d602052604081208054849290613e6c908490614849565b9250508190555081601c6000828254613e859190614849565b90915550611e619050565b6001600160a01b0383166000908152601d6020526040902054613eb39083613eea565b6001600160a01b0384166000908152601d6020526040902055601c54613ed99083613eea565b601c55505050565b61112081614182565b600081831115613f0557613efe82846146ef565b9050611134565b50600092915050565b60008160070154826001015443613f2591906146cd565b61113491906146ef565b601954604051634be5482760e01b81526001600160a01b0390911690634be5482790613f619085908590600401614c45565b6080604051808303816000875af1158015613f80573d6000803e3d6000fd5b505050506040513d601f19601f82011682018060405250810190613fa49190614c62565b805160158054909190829060ff19166001836005811115613fc757613fc761431b565b021790555060208201516001820155604082015160028201556060909101516003909101805460ff19169115159190911790555050565b601960009054906101000a90046001600160a01b03166001600160a01b031663431b3c306040518163ffffffff1660e01b8152600401600060405180830381600087803b15801561404e57600080fd5b505af1158015612ada573d6000803e3d6000fd5b600080600061407185856141a3565b9050600061407f8686614176565b90508082106140955790819003925090506140a8565b60016140a183836140e0565b0393509150505b9250929050565b6000808284106140c557508390508183036140d8565b600185036140d385856140e0565b915091505b935093915050565b600061127582846146ef565b600080614113836140fe6000866140e0565b8161410b5761410b6146b7565b506000919050565b9050828481614124576141246146b7565b0461412f8683614176565b1795945050505050565b60006001815b600881101561416f5761416582614160600261415b8689614176565b6140e0565b614176565b915060010161413f565b5092915050565b60006112758284614698565b60006a636f6e736f6c652e6c6f679050600080835160208501845afa505050565b60006000198284099392505050565b6000815180845260005b818110156141d8576020818501810151868301820152016141bc565b818111156141ea576000602083870101525b50601f01601f19169290920160200192915050565b60208152600061127560208301846141b2565b80356001600160a01b0381168114612f3657600080fd5b6000806040838503121561423c57600080fd5b61424583614212565b946020939093013593505050565b6006811061112057600080fd5b60006020828403121561427257600080fd5b813561127581614253565b60006020828403121561428f57600080fd5b61127582614212565b6000806000606084860312156142ad57600080fd5b6142b684614212565b92506142c460208501614212565b9150604084013590509250925092565b801515811461112057600080fd5b600080604083850312156142f557600080fd5b823561430081614253565b91506020830135614310816142d4565b809150509250929050565b634e487b7160e01b600052602160045260246000fd5b600681106143415761434161431b565b9052565b6000608082019050614358828451614331565b602083015160208301526040830151604083015260608301511515606083015292915050565b602081016111348284614331565b60008060008084860360808112156143a357600080fd5b6143ac86614212565b94506020868101359450603f19820112156143c657600080fd5b5060408501915060608501356143db816142d4565b939692955090935050565b600080604083850312156143f957600080fd5b61440283614212565b915061441060208401614212565b90509250929050565b60006020828403121561442b57600080fd5b5035919050565b634e487b7160e01b600052604160045260246000fd5b604051601f8201601f1916810167ffffffffffffffff8111828210171561447157614471614432565b604052919050565b6000806000838503606081121561448f57600080fd5b843561449a81614253565b93506020601f19820112156144ae57600080fd5b506040516020810181811067ffffffffffffffff821117156144d2576144d2614432565b604052602085013563ffffffff811681146144ec57600080fd5b815291506144fc60408501614212565b90509250925092565b60008060006060848603121561451a57600080fd5b83356005811061452957600080fd5b925061453760208501614212565b91506144fc60408501614212565b6000806040838503121561455857600080fd5b50508035926020909101359150565b600080600080600060a0868803121561457f57600080fd5b61458886614212565b945061459660208701614212565b93506145a460408701614212565b92506060860135600481106145b857600080fd5b91506145c660808701614212565b90509295509295909350565b60008082840360408112156145e657600080fd5b60208112156145f457600080fd5b506040516020810181811067ffffffffffffffff8211171561461857614618614432565b60405261462484614212565b8152915061441060208401614212565b600481106143415761434161431b565b6001600160a01b0384811682528316602082015260608101612dd76040830184614634565b60006020828403121561467b57600080fd5b5051919050565b634e487b7160e01b600052601160045260246000fd5b60008160001904831182151516156146b2576146b2614682565b500290565b634e487b7160e01b600052601260045260246000fd5b6000826146ea57634e487b7160e01b600052601260045260246000fd5b500490565b60008282101561470157614701614682565b500390565b634e487b7160e01b600052603260045260246000fd5b600060808201868352602060808185015281875180845260a086019150828901935060005b818110156147665784516001600160a01b031683529383019391830191600101614741565b50506001600160a01b039690961660408501525050506060015292915050565b6000602080838503121561479957600080fd5b825167ffffffffffffffff808211156147b157600080fd5b818501915085601f8301126147c557600080fd5b8151818111156147d7576147d7614432565b8060051b91506147e8848301614448565b818152918301840191848101908884111561480257600080fd5b938501935b8385101561482057845182529385019390850190614807565b98975050505050505050565b60006020828403121561483e57600080fd5b8151611275816142d4565b6000821982111561485c5761485c614682565b500190565b600181815b8085111561489c57816000190482111561488257614882614682565b8085161561488f57918102915b93841c9390800290614866565b509250929050565b6000826148b357506001611134565b816148c057506000611134565b81600181146148d657600281146148e0576148fc565b6001915050611134565b60ff8411156148f1576148f1614682565b50506001821b611134565b5060208310610133831016604e8410600b841016171561491f575081810a611134565b6149298383614861565b806000190482111561493d5761493d614682565b029392505050565b600061127583836148a4565b6020808252818101527f4f776e61626c653a2063616c6c6572206973206e6f7420746865206f776e6572604082015260600190565b6020808252601590820152742737ba10309039b2b9b9b4b7b71036b0b730b3b2b960591b604082015260600190565b6000816149c4576149c4614682565b506000190190565b6000600182016149de576149de614682565b5060010190565b60208082526010908201526f496e76616c69642063616c6c6572203160801b604082015260600190565b60608101614a1d8286614331565b83602083015263ffffffff8351166040830152949350505050565b60608101614a468286614331565b925163ffffffff1660208201526001600160a01b0391909116604090910152919050565b60408101614a788285614331565b63ffffffff83511660208301529392505050565b6001600160a01b03948516815292841660208401529083166040830152909116606082015260800190565b6001600160a01b0386811682528581166020830152848116604083015260a0820190614ae66060840186614634565b8084166080840152509695505050505050565b6001600160a01b03858116825284811660208301528316604082015260808101614b266060830184614634565b95945050505050565b606081526000614b4260608301866141b2565b60208301949094525060400152919050565b604081526000614b6760408301856141b2565b90508260208301529392505050565b60008060408385031215614b8957600080fd5b505080516020909101519092909150565b600581106143415761434161431b565b60608101614bb88286614b9a565b6001600160a01b0393909316602082015260400152919050565b60608101614be08286614b9a565b6001600160a01b03938416602083015291909216604090920191909152919050565b60408101614c108285614b9a565b6001600160a01b039290921660209190910152919050565b600060208284031215614c3a57600080fd5b815161127581614253565b60408101614c538285614331565b82151560208301529392505050565b600060808284031215614c7457600080fd5b6040516080810181811067ffffffffffffffff82111715614c9757614c97614432565b6040528251614ca581614253565b8082525060208301516020820152604083015160408201526060830151614ccb816142d4565b6060820152939250505056fe5f62616c616e63654f662e2070656e64696e67203e205f62616c616e6365735b6163636f756e745d46544d20616e6420544752206761696e6564206279204c502064696c7574696f6e202d2d2d2d2da26469706673582212203d03430ffdf1d4cf5686bbeaef3a65c51108c42f482cb1577488dd2cd711af8f64736f6c634300080e0033",
  "linkReferences": {
    "contracts/libraries/WireLibrary.sol": {
      "WireLibrary": [
        {
          "length": 20,
          "start": 11739
        },
        {
          "length": 20,
          "start": 13327
        },
        {
          "length": 20,
          "start": 13509
        },
        {
          "length": 20,
          "start": 13696
        },
        {
          "length": 20,
          "start": 15397
        },
        {
          "length": 20,
          "start": 18688
        }
      ]
    }
  },
  "deployedLinkReferences": {
    "contracts/libraries/WireLibrary.sol": {
      "WireLibrary": [
        {
          "length": 20,
          "start": 7491
        },
        {
          "length": 20,
          "start": 9079
        },
        {
          "length": 20,
          "start": 9261
        },
        {
          "length": 20,
          "start": 9448
        },
        {
          "length": 20,
          "start": 11149
        },
        {
          "length": 20,
          "start": 14440
        }
      ]
    }
  }
}