{
  "_format": "hh-sol-artifact-1",
  "contractName": "TGRToken",
  "sourceName": "contracts/farm/TGRToken.sol",
  "abi": [
    {
      "inputs": [
        {
          "internalType": "address",
          "name": "_analyticMath",
          "type": "address"
        }
      ],
      "stateMutability": "nonpayable",
      "type": "constructor"
    },
    {
      "anonymous": false,
      "inputs": [
        {
          "indexed": true,
          "internalType": "address",
          "name": "owner",
          "type": "address"
        },
        {
          "indexed": true,
          "internalType": "address",
          "name": "spender",
          "type": "address"
        },
        {
          "indexed": false,
          "internalType": "uint256",
          "name": "value",
          "type": "uint256"
        }
      ],
      "name": "Approval",
      "type": "event"
    },
    {
      "anonymous": false,
      "inputs": [],
      "name": "Begin",
      "type": "event"
    },
    {
      "anonymous": false,
      "inputs": [
        {
          "indexed": false,
          "internalType": "address",
          "name": "pair",
          "type": "address"
        },
        {
          "indexed": false,
          "internalType": "address",
          "name": "tokenA",
          "type": "address"
        },
        {
          "indexed": false,
          "internalType": "address",
          "name": "tokenB",
          "type": "address"
        },
        {
          "indexed": false,
          "internalType": "enum ListStatus",
          "name": "status",
          "type": "uint8"
        }
      ],
      "name": "ChangePairStatus",
      "type": "event"
    },
    {
      "anonymous": false,
      "inputs": [
        {
          "indexed": false,
          "internalType": "address",
          "name": "token",
          "type": "address"
        },
        {
          "indexed": false,
          "internalType": "address",
          "name": "msgSender",
          "type": "address"
        }
      ],
      "name": "DeenlistToken",
      "type": "event"
    },
    {
      "anonymous": false,
      "inputs": [
        {
          "indexed": true,
          "internalType": "address",
          "name": "previousOwner",
          "type": "address"
        },
        {
          "indexed": true,
          "internalType": "address",
          "name": "newOwner",
          "type": "address"
        }
      ],
      "name": "OwnershipTransferred",
      "type": "event"
    },
    {
      "anonymous": false,
      "inputs": [
        {
          "indexed": false,
          "internalType": "enum ActionType",
          "name": "_sessionType",
          "type": "uint8"
        },
        {
          "components": [
            {
              "internalType": "uint32",
              "name": "accountant",
              "type": "uint32"
            }
          ],
          "indexed": false,
          "internalType": "struct FeeRates",
          "name": "_feeRates",
          "type": "tuple"
        }
      ],
      "name": "SetFeeRates",
      "type": "event"
    },
    {
      "anonymous": false,
      "inputs": [
        {
          "components": [
            {
              "internalType": "address",
              "name": "accountant",
              "type": "address"
            }
          ],
          "indexed": false,
          "internalType": "struct FeeStores",
          "name": "_feeStores",
          "type": "tuple"
        }
      ],
      "name": "SetFeeStores",
      "type": "event"
    },
    {
      "anonymous": false,
      "inputs": [
        {
          "indexed": false,
          "internalType": "enum NodeType",
          "name": "nodeType",
          "type": "uint8"
        },
        {
          "indexed": false,
          "internalType": "address",
          "name": "node",
          "type": "address"
        }
      ],
      "name": "SetNode",
      "type": "event"
    },
    {
      "anonymous": false,
      "inputs": [
        {
          "indexed": true,
          "internalType": "address",
          "name": "from",
          "type": "address"
        },
        {
          "indexed": true,
          "internalType": "address",
          "name": "to",
          "type": "address"
        },
        {
          "indexed": false,
          "internalType": "uint256",
          "name": "value",
          "type": "uint256"
        }
      ],
      "name": "Transfer",
      "type": "event"
    },
    {
      "inputs": [
        {
          "internalType": "address",
          "name": "_owner",
          "type": "address"
        },
        {
          "internalType": "address",
          "name": "_spender",
          "type": "address"
        },
        {
          "internalType": "uint256",
          "name": "subtractedValue",
          "type": "uint256"
        }
      ],
      "name": "_decreaseAllowance",
      "outputs": [
        {
          "internalType": "bool",
          "name": "",
          "type": "bool"
        }
      ],
      "stateMutability": "nonpayable",
      "type": "function"
    },
    {
      "inputs": [
        {
          "internalType": "address",
          "name": "_owner",
          "type": "address"
        },
        {
          "internalType": "address",
          "name": "_spender",
          "type": "address"
        }
      ],
      "name": "allowance",
      "outputs": [
        {
          "internalType": "uint256",
          "name": "",
          "type": "uint256"
        }
      ],
      "stateMutability": "view",
      "type": "function"
    },
    {
      "inputs": [
        {
          "internalType": "address",
          "name": "spender",
          "type": "address"
        },
        {
          "internalType": "uint256",
          "name": "amount",
          "type": "uint256"
        }
      ],
      "name": "approve",
      "outputs": [
        {
          "internalType": "bool",
          "name": "",
          "type": "bool"
        }
      ],
      "stateMutability": "nonpayable",
      "type": "function"
    },
    {
      "inputs": [
        {
          "internalType": "address",
          "name": "account",
          "type": "address"
        }
      ],
      "name": "balanceOf",
      "outputs": [
        {
          "internalType": "uint256",
          "name": "",
          "type": "uint256"
        }
      ],
      "stateMutability": "view",
      "type": "function"
    },
    {
      "inputs": [
        {
          "internalType": "address",
          "name": "caller",
          "type": "address"
        }
      ],
      "name": "begin",
      "outputs": [],
      "stateMutability": "nonpayable",
      "type": "function"
    },
    {
      "inputs": [
        {
          "internalType": "address",
          "name": "from",
          "type": "address"
        },
        {
          "internalType": "uint256",
          "name": "amount",
          "type": "uint256"
        }
      ],
      "name": "burn",
      "outputs": [],
      "stateMutability": "nonpayable",
      "type": "function"
    },
    {
      "inputs": [
        {
          "internalType": "uint256",
          "name": "_buysell_burn_rate",
          "type": "uint256"
        },
        {
          "internalType": "uint256",
          "name": "_shift_burn_rate",
          "type": "uint256"
        }
      ],
      "name": "changeBurnRates",
      "outputs": [],
      "stateMutability": "nonpayable",
      "type": "function"
    },
    {
      "inputs": [
        {
          "internalType": "address",
          "name": "pair",
          "type": "address"
        },
        {
          "internalType": "address",
          "name": "token0",
          "type": "address"
        },
        {
          "internalType": "address",
          "name": "token1",
          "type": "address"
        },
        {
          "internalType": "enum ListStatus",
          "name": "status",
          "type": "uint8"
        },
        {
          "internalType": "address",
          "name": "caller",
          "type": "address"
        }
      ],
      "name": "changePairStatus",
      "outputs": [],
      "stateMutability": "nonpayable",
      "type": "function"
    },
    {
      "inputs": [],
      "name": "checkForConsistency",
      "outputs": [],
      "stateMutability": "view",
      "type": "function"
    },
    {
      "inputs": [],
      "name": "decimals",
      "outputs": [
        {
          "internalType": "uint8",
          "name": "",
          "type": "uint8"
        }
      ],
      "stateMutability": "view",
      "type": "function"
    },
    {
      "inputs": [
        {
          "internalType": "address",
          "name": "spender",
          "type": "address"
        },
        {
          "internalType": "uint256",
          "name": "subtractedValue",
          "type": "uint256"
        }
      ],
      "name": "decreaseAllowance",
      "outputs": [
        {
          "internalType": "bool",
          "name": "",
          "type": "bool"
        }
      ],
      "stateMutability": "nonpayable",
      "type": "function"
    },
    {
      "inputs": [
        {
          "internalType": "enum ActionType",
          "name": "",
          "type": "uint8"
        }
      ],
      "name": "feeRates",
      "outputs": [
        {
          "internalType": "uint32",
          "name": "accountant",
          "type": "uint32"
        }
      ],
      "stateMutability": "view",
      "type": "function"
    },
    {
      "inputs": [],
      "name": "feeStores",
      "outputs": [
        {
          "internalType": "address",
          "name": "accountant",
          "type": "address"
        }
      ],
      "stateMutability": "view",
      "type": "function"
    },
    {
      "inputs": [],
      "name": "getCurrentActionType",
      "outputs": [
        {
          "internalType": "enum ActionType",
          "name": "",
          "type": "uint8"
        }
      ],
      "stateMutability": "view",
      "type": "function"
    },
    {
      "inputs": [],
      "name": "getOwner",
      "outputs": [
        {
          "internalType": "address",
          "name": "",
          "type": "address"
        }
      ],
      "stateMutability": "view",
      "type": "function"
    },
    {
      "inputs": [
        {
          "internalType": "address",
          "name": "account",
          "type": "address"
        }
      ],
      "name": "getStatus",
      "outputs": [
        {
          "internalType": "uint256",
          "name": "totalSupply",
          "type": "uint256"
        },
        {
          "internalType": "uint256",
          "name": "ub_accDecayPer1e12",
          "type": "uint256"
        },
        {
          "internalType": "uint256",
          "name": "ub_sum_tokens",
          "type": "uint256"
        },
        {
          "internalType": "uint256",
          "name": "ub_pending_burn",
          "type": "uint256"
        },
        {
          "internalType": "uint256",
          "name": "_nonUserSumTokens",
          "type": "uint256"
        },
        {
          "internalType": "uint256",
          "name": "account_balances",
          "type": "uint256"
        },
        {
          "internalType": "uint256",
          "name": "account_balanceOf",
          "type": "uint256"
        },
        {
          "internalType": "uint256",
          "name": "account_pending_burn",
          "type": "uint256"
        },
        {
          "internalType": "uint256",
          "name": "account_debtToPendingBurn",
          "type": "uint256"
        }
      ],
      "stateMutability": "view",
      "type": "function"
    },
    {
      "inputs": [],
      "name": "htzFtm",
      "outputs": [
        {
          "internalType": "address",
          "name": "",
          "type": "address"
        }
      ],
      "stateMutability": "view",
      "type": "function"
    },
    {
      "inputs": [
        {
          "internalType": "address",
          "name": "spender",
          "type": "address"
        },
        {
          "internalType": "uint256",
          "name": "addedValue",
          "type": "uint256"
        }
      ],
      "name": "increaseAllowance",
      "outputs": [
        {
          "internalType": "bool",
          "name": "",
          "type": "bool"
        }
      ],
      "stateMutability": "nonpayable",
      "type": "function"
    },
    {
      "inputs": [],
      "name": "lastSession",
      "outputs": [
        {
          "internalType": "uint256",
          "name": "",
          "type": "uint256"
        }
      ],
      "stateMutability": "view",
      "type": "function"
    },
    {
      "inputs": [],
      "name": "lp_reward",
      "outputs": [
        {
          "internalType": "uint256",
          "name": "latestTime",
          "type": "uint256"
        },
        {
          "internalType": "uint256",
          "name": "cycle",
          "type": "uint256"
        },
        {
          "internalType": "uint256",
          "name": "decayRate",
          "type": "uint256"
        },
        {
          "internalType": "address",
          "name": "account",
          "type": "address"
        },
        {
          "internalType": "uint256",
          "name": "accDecayPer1e12",
          "type": "uint256"
        },
        {
          "internalType": "uint256",
          "name": "sum_tokens",
          "type": "uint256"
        },
        {
          "internalType": "uint256",
          "name": "pending_burn",
          "type": "uint256"
        },
        {
          "internalType": "uint256",
          "name": "latestRound",
          "type": "uint256"
        }
      ],
      "stateMutability": "view",
      "type": "function"
    },
    {
      "inputs": [],
      "name": "maxSupply",
      "outputs": [
        {
          "internalType": "uint256",
          "name": "",
          "type": "uint256"
        }
      ],
      "stateMutability": "view",
      "type": "function"
    },
    {
      "inputs": [
        {
          "internalType": "address",
          "name": "to",
          "type": "address"
        },
        {
          "internalType": "uint256",
          "name": "amount",
          "type": "uint256"
        }
      ],
      "name": "mint",
      "outputs": [],
      "stateMutability": "nonpayable",
      "type": "function"
    },
    {
      "inputs": [],
      "name": "name",
      "outputs": [
        {
          "internalType": "string",
          "name": "",
          "type": "string"
        }
      ],
      "stateMutability": "view",
      "type": "function"
    },
    {
      "inputs": [],
      "name": "nextNode",
      "outputs": [
        {
          "internalType": "address",
          "name": "",
          "type": "address"
        }
      ],
      "stateMutability": "view",
      "type": "function"
    },
    {
      "inputs": [],
      "name": "owner",
      "outputs": [
        {
          "internalType": "address",
          "name": "",
          "type": "address"
        }
      ],
      "stateMutability": "view",
      "type": "function"
    },
    {
      "inputs": [
        {
          "internalType": "address",
          "name": "",
          "type": "address"
        },
        {
          "internalType": "address",
          "name": "",
          "type": "address"
        }
      ],
      "name": "pairFor",
      "outputs": [
        {
          "internalType": "address",
          "name": "",
          "type": "address"
        }
      ],
      "stateMutability": "view",
      "type": "function"
    },
    {
      "inputs": [
        {
          "internalType": "address",
          "name": "",
          "type": "address"
        }
      ],
      "name": "pairs",
      "outputs": [
        {
          "internalType": "address",
          "name": "token0",
          "type": "address"
        },
        {
          "internalType": "address",
          "name": "token1",
          "type": "address"
        },
        {
          "internalType": "enum ListStatus",
          "name": "status",
          "type": "uint8"
        }
      ],
      "stateMutability": "view",
      "type": "function"
    },
    {
      "inputs": [],
      "name": "pause",
      "outputs": [],
      "stateMutability": "nonpayable",
      "type": "function"
    },
    {
      "inputs": [],
      "name": "paused",
      "outputs": [
        {
          "internalType": "bool",
          "name": "",
          "type": "bool"
        }
      ],
      "stateMutability": "view",
      "type": "function"
    },
    {
      "inputs": [
        {
          "internalType": "address",
          "name": "account",
          "type": "address"
        },
        {
          "internalType": "uint256",
          "name": "principal",
          "type": "uint256"
        },
        {
          "components": [
            {
              "internalType": "uint32",
              "name": "accountant",
              "type": "uint32"
            }
          ],
          "internalType": "struct FeeRates",
          "name": "rates",
          "type": "tuple"
        },
        {
          "internalType": "bool",
          "name": "fromAllowance",
          "type": "bool"
        }
      ],
      "name": "payFeeTgrLogic",
      "outputs": [
        {
          "internalType": "uint256",
          "name": "feesPaid",
          "type": "uint256"
        }
      ],
      "stateMutability": "nonpayable",
      "type": "function"
    },
    {
      "inputs": [],
      "name": "prevNode",
      "outputs": [
        {
          "internalType": "address",
          "name": "",
          "type": "address"
        }
      ],
      "stateMutability": "view",
      "type": "function"
    },
    {
      "inputs": [],
      "name": "pulse_lp_reward",
      "outputs": [],
      "stateMutability": "nonpayable",
      "type": "function"
    },
    {
      "inputs": [],
      "name": "pulse_user_burn",
      "outputs": [],
      "stateMutability": "nonpayable",
      "type": "function"
    },
    {
      "inputs": [],
      "name": "pulse_vote_burn",
      "outputs": [],
      "stateMutability": "nonpayable",
      "type": "function"
    },
    {
      "inputs": [
        {
          "internalType": "enum ActionType",
          "name": "actionType",
          "type": "uint8"
        },
        {
          "internalType": "bool",
          "name": "blockReentry",
          "type": "bool"
        }
      ],
      "name": "registerAction",
      "outputs": [
        {
          "components": [
            {
              "internalType": "enum ActionType",
              "name": "actionType",
              "type": "uint8"
            },
            {
              "internalType": "uint256",
              "name": "session",
              "type": "uint256"
            },
            {
              "internalType": "uint256",
              "name": "lastSession",
              "type": "uint256"
            },
            {
              "internalType": "bool",
              "name": "isUserAction",
              "type": "bool"
            }
          ],
          "internalType": "struct ActionParams",
          "name": "actionParams",
          "type": "tuple"
        }
      ],
      "stateMutability": "nonpayable",
      "type": "function"
    },
    {
      "inputs": [],
      "name": "renounceOwnership",
      "outputs": [],
      "stateMutability": "nonpayable",
      "type": "function"
    },
    {
      "inputs": [],
      "name": "resume",
      "outputs": [],
      "stateMutability": "nonpayable",
      "type": "function"
    },
    {
      "inputs": [],
      "name": "session",
      "outputs": [
        {
          "internalType": "uint256",
          "name": "",
          "type": "uint256"
        }
      ],
      "stateMutability": "view",
      "type": "function"
    },
    {
      "inputs": [
        {
          "internalType": "enum ActionType",
          "name": "",
          "type": "uint8"
        }
      ],
      "name": "sessionsLastSeenBySType",
      "outputs": [
        {
          "internalType": "uint256",
          "name": "",
          "type": "uint256"
        }
      ],
      "stateMutability": "view",
      "type": "function"
    },
    {
      "inputs": [
        {
          "internalType": "enum ActionType",
          "name": "_sessionType",
          "type": "uint8"
        },
        {
          "components": [
            {
              "internalType": "uint32",
              "name": "accountant",
              "type": "uint32"
            }
          ],
          "internalType": "struct FeeRates",
          "name": "_feeRates",
          "type": "tuple"
        },
        {
          "internalType": "address",
          "name": "caller",
          "type": "address"
        }
      ],
      "name": "setFeeRates",
      "outputs": [],
      "stateMutability": "nonpayable",
      "type": "function"
    },
    {
      "inputs": [
        {
          "components": [
            {
              "internalType": "address",
              "name": "accountant",
              "type": "address"
            }
          ],
          "internalType": "struct FeeStores",
          "name": "_feeStores",
          "type": "tuple"
        },
        {
          "internalType": "address",
          "name": "caller",
          "type": "address"
        }
      ],
      "name": "setFeeStores",
      "outputs": [],
      "stateMutability": "nonpayable",
      "type": "function"
    },
    {
      "inputs": [
        {
          "internalType": "enum NodeType",
          "name": "nodeType",
          "type": "uint8"
        },
        {
          "internalType": "address",
          "name": "node",
          "type": "address"
        },
        {
          "internalType": "address",
          "name": "caller",
          "type": "address"
        }
      ],
      "name": "setNode",
      "outputs": [],
      "stateMutability": "nonpayable",
      "type": "function"
    },
    {
      "inputs": [],
      "name": "symbol",
      "outputs": [
        {
          "internalType": "string",
          "name": "",
          "type": "string"
        }
      ],
      "stateMutability": "view",
      "type": "function"
    },
    {
      "inputs": [],
      "name": "tgrBusd",
      "outputs": [
        {
          "internalType": "address",
          "name": "",
          "type": "address"
        }
      ],
      "stateMutability": "view",
      "type": "function"
    },
    {
      "inputs": [],
      "name": "tgrFtm",
      "outputs": [
        {
          "internalType": "address",
          "name": "",
          "type": "address"
        }
      ],
      "stateMutability": "view",
      "type": "function"
    },
    {
      "inputs": [],
      "name": "totalSupply",
      "outputs": [
        {
          "internalType": "uint256",
          "name": "",
          "type": "uint256"
        }
      ],
      "stateMutability": "view",
      "type": "function"
    },
    {
      "inputs": [
        {
          "internalType": "address",
          "name": "recipient",
          "type": "address"
        },
        {
          "internalType": "uint256",
          "name": "amount",
          "type": "uint256"
        }
      ],
      "name": "transfer",
      "outputs": [
        {
          "internalType": "bool",
          "name": "",
          "type": "bool"
        }
      ],
      "stateMutability": "nonpayable",
      "type": "function"
    },
    {
      "inputs": [
        {
          "internalType": "address",
          "name": "sender",
          "type": "address"
        },
        {
          "internalType": "address",
          "name": "recipient",
          "type": "address"
        },
        {
          "internalType": "uint256",
          "name": "amount",
          "type": "uint256"
        }
      ],
      "name": "transferDirectSafe",
      "outputs": [],
      "stateMutability": "nonpayable",
      "type": "function"
    },
    {
      "inputs": [
        {
          "internalType": "address",
          "name": "sender",
          "type": "address"
        },
        {
          "internalType": "address",
          "name": "recipient",
          "type": "address"
        },
        {
          "internalType": "uint256",
          "name": "amount",
          "type": "uint256"
        }
      ],
      "name": "transferFrom",
      "outputs": [
        {
          "internalType": "bool",
          "name": "",
          "type": "bool"
        }
      ],
      "stateMutability": "nonpayable",
      "type": "function"
    },
    {
      "inputs": [
        {
          "internalType": "address",
          "name": "newOwner",
          "type": "address"
        }
      ],
      "name": "transferOwnership",
      "outputs": [],
      "stateMutability": "nonpayable",
      "type": "function"
    },
    {
      "inputs": [],
      "name": "unregisterAction",
      "outputs": [],
      "stateMutability": "nonpayable",
      "type": "function"
    },
    {
      "inputs": [],
      "name": "user_burn",
      "outputs": [
        {
          "internalType": "uint256",
          "name": "latestTime",
          "type": "uint256"
        },
        {
          "internalType": "uint256",
          "name": "cycle",
          "type": "uint256"
        },
        {
          "internalType": "uint256",
          "name": "decayRate",
          "type": "uint256"
        },
        {
          "internalType": "address",
          "name": "account",
          "type": "address"
        },
        {
          "internalType": "uint256",
          "name": "accDecayPer1e12",
          "type": "uint256"
        },
        {
          "internalType": "uint256",
          "name": "sum_tokens",
          "type": "uint256"
        },
        {
          "internalType": "uint256",
          "name": "pending_burn",
          "type": "uint256"
        },
        {
          "internalType": "uint256",
          "name": "latestRound",
          "type": "uint256"
        }
      ],
      "stateMutability": "view",
      "type": "function"
    },
    {
      "inputs": [],
      "name": "vote_burn",
      "outputs": [
        {
          "internalType": "uint256",
          "name": "latestTime",
          "type": "uint256"
        },
        {
          "internalType": "uint256",
          "name": "cycle",
          "type": "uint256"
        },
        {
          "internalType": "uint256",
          "name": "decayRate",
          "type": "uint256"
        },
        {
          "internalType": "address",
          "name": "account",
          "type": "address"
        },
        {
          "internalType": "uint256",
          "name": "accDecayPer1e12",
          "type": "uint256"
        },
        {
          "internalType": "uint256",
          "name": "sum_tokens",
          "type": "uint256"
        },
        {
          "internalType": "uint256",
          "name": "pending_burn",
          "type": "uint256"
        },
        {
          "internalType": "uint256",
          "name": "latestRound",
          "type": "uint256"
        }
      ],
      "stateMutability": "view",
      "type": "function"
    },
    {
      "inputs": [
        {
          "internalType": "address",
          "name": "_prevNode",
          "type": "address"
        },
        {
          "internalType": "address",
          "name": "_nextNode",
          "type": "address"
        }
      ],
      "name": "wire",
      "outputs": [],
      "stateMutability": "nonpayable",
      "type": "function"
    },
    {
      "stateMutability": "payable",
      "type": "receive"
    }
  ],
  "bytecode": "0x60a06040523480156200001157600080fd5b5060405162004fe238038062004fe28339810160408190526200003491620007cd565b6000805460ff19169055620000493362000358565b603e80546001600160a01b0319166001600160a01b0383161790556200006c3390565b603a80546001600160a01b039283166001600160a01b031991821617909155603b805482167370997970c51812dc3a010c7d01b50e0d17dc79c8179055603c80548216733c44cdddb6a900fa2b585dd299e03d12fa4293bc179055603d80549091167390f79bf6eb2c4f870365e785982e1f101e93b90617905573976ea74026e726554db657fa54763abd0c3a0aa960809081526040805161010081018252428082526002602083018190526102b2938301939093526008549094166060820152600092810183905260a0810183905260c0810192909252909160e0830191620001569162000815565b90528051601e55602080820151601f556040808301518255606080840151602180546001600160a01b0319166001600160a01b0392831617905560808086015160225560a08087015160235560c08088015160245560e097880151602555855161010081018752428082526002988201899052604697820197909752835190941694840194909452600091830182905282018190529181019190915292830191620002019162000815565b90528051602655602080820151602755604080830151602855606080840151602980546001600160a01b0319166001600160a01b03909216919091179055608080850151602a5560a080860151602b5560c080870151602c5560e096870151602d5584516101008101865242808252600497820188905261030996820196909652600094810185905292830184905290820183905281019190915292830191620002ab9162000815565b90528051602e556020810151602f5560408101516030556060810151603180546001600160a01b0319166001600160a01b03909216919091179055608081015160325560a081015160335560c081015160345560e00151603555617ab760385561343e603955600e805462ffffff191662010101179055620003516200032e3390565b6200033c6012600a62000935565b6200034b90620f424062000946565b620003b6565b50620009f5565b600e80546001600160a01b0383811663010000008181026301000000600160b81b031985161790945560405193909204169182907f8be0079c531659141344cd1fd0a4f28419497f9722a3daafe3b4186f6b6457e090600090a35050565b60408051808201909152600c81526b5a65726f206164647265737360a01b60208201526001600160a01b0383166200040c5760405162461bcd60e51b815260040162000403919062000968565b60405180910390fd5b506200041b8282600162000465565b6040518181526001600160a01b038316906000907fddf252ad1be2c89b69c2b068fc378daa952ba7f163c4a11628f55a4df523b3ef9060200160405180910390a35050565b505050565b62000470836200070b565b1562000631576000620004838462000750565b9050801562000501576001600160a01b0384166000908152601d6020526040902054620004b19082620007a5565b6001600160a01b0385166000908152601d6020526040902055603354620004d99082620007a5565b603355603454620004eb9082620007a5565b603455601c54620004fd9082620007a5565b601c555b811562000575576001600160a01b0384166000908152601d60205260408120805485929062000532908490620009c0565b9091555050603380548491906000906200054e908490620009c0565b9250508190555082601c6000828254620005699190620009c0565b90915550620005d89050565b6001600160a01b0384166000908152601d60205260409020546200059a9084620007a5565b6001600160a01b0385166000908152601d6020526040902055603354620005c29084620007a5565b603355601c54620005d49084620007a5565b601c555b6032546001600160a01b0385166000908152601d602052604090205464e8d4a5100091620006069162000946565b62000612919062000815565b6001600160a01b03851660009081526036602052604090205550505050565b8015620006a4576001600160a01b0383166000908152601d60205260408120805484929062000662908490620009c0565b9250508190555081603760008282546200067d9190620009c0565b9250508190555081601c6000828254620006989190620009c0565b90915550620004609050565b6001600160a01b0383166000908152601d6020526040902054620006c99083620007a5565b6001600160a01b0384166000908152601d6020526040902055603754620006f19083620007a5565b603755601c54620007039083620007a5565b601c55505050565b6001600160a01b038181166000908152600a60205260408120549091161580156200074a57506080516001600160a01b0316826001600160a01b031614155b92915050565b6001600160a01b038116600090815260366020908152604080832054603254601d90935290832054909164e8d4a51000916200078d919062000946565b62000799919062000815565b6200074a9190620009db565b600081831115620007c457620007bc8284620009db565b90506200074a565b50600092915050565b600060208284031215620007e057600080fd5b81516001600160a01b0381168114620007f857600080fd5b9392505050565b634e487b7160e01b600052601160045260246000fd5b6000826200083357634e487b7160e01b600052601260045260246000fd5b500490565b600181815b80851115620008795781600019048211156200085d576200085d620007ff565b808516156200086b57918102915b93841c93908002906200083d565b509250929050565b60008262000892575060016200074a565b81620008a1575060006200074a565b8160018114620008ba5760028114620008c557620008e5565b60019150506200074a565b60ff841115620008d957620008d9620007ff565b50506001821b6200074a565b5060208310610133831016604e8410600b84101617156200090a575081810a6200074a565b62000916838362000838565b80600019048211156200092d576200092d620007ff565b029392505050565b6000620007f860ff84168362000881565b6000816000190483118215151615620009635762000963620007ff565b500290565b600060208083528351808285015260005b81811015620009975785810183015185820160400152820162000979565b81811115620009aa576000604083870101525b50601f01601f1916929092016040019392505050565b60008219821115620009d657620009d6620007ff565b500190565b600082821015620009f057620009f0620007ff565b500390565b6080516145d162000a11600039600061361301526145d16000f3fe6080604052600436106103395760003560e01c80638456cb59116101ab578063a51bb24e116100f7578063e729a45511610095578063ed2deb8b1161006f578063ed2deb8b14610abc578063f2fde38b14610ad1578063f9a21e8a14610af1578063fe33b30214610b1157600080fd5b8063e729a45514610a64578063eca4c46614610a79578063ecd6f46a14610a8f57600080fd5b8063cd537aa1116100d1578063cd537aa1146109c9578063cdd9224c146109e9578063d5abeb0114610a09578063dd62ed3e14610a1e57600080fd5b8063a51bb24e14610969578063a9059cbb14610989578063cd193c43146109a957600080fd5b8063934923a3116101645780639dc29fac1161013e5780639dc29fac146108cd578063a13c1f67146108ed578063a150da2a14610929578063a457c2d71461094957600080fd5b8063934923a31461084057806395d89b411461086057806396ed28f91461088c57600080fd5b80638456cb59146107a6578063893d20e8146107bb5780638da5cb5b146107bb57806390e3677f146107e057806391fd0db714610800578063928879d61461082057600080fd5b806339509351116102855780635e3568b8116102235780636c93564f116101fd5780636c93564f1461072057806370a082311461075c578063715018a61461077c578063739572891461079157600080fd5b80635e3568b8146106ca57806365715c56146106e057806368fb3c721461070057600080fd5b80634be548271161025f5780634be548271461064157806354abe9d01461066e5780635c975abb1461068e5780635d392daa146106a857600080fd5b806339509351146105ec57806340c10f191461060c578063431b3c301461062c57600080fd5b806310224711116102f2578063249dfad7116102cc578063249dfad7146104c857806330ccebb5146104ed578063313ce567146105515780633660777d1461056d57600080fd5b8063102247111461043d57806318160ddd1461048557806323b872dd146104a857600080fd5b8063046f7da21461034557806306fdde031461035c578063086a606c146103a0578063095ea7b3146103b557806309b16a22146103e55780630c3d536b1461041d57600080fd5b3661034057005b600080fd5b34801561035157600080fd5b5061035a610b6d565b005b34801561036857600080fd5b506040805180820190915260098152682a23a9102a37b5b2b760b91b60208201525b6040516103979190613a6f565b60405180910390f35b3480156103ac57600080fd5b5061035a610bdd565b3480156103c157600080fd5b506103d56103d0366004613a99565b611069565b6040519015158152602001610397565b3480156103f157600080fd5b50600854610405906001600160a01b031681565b6040516001600160a01b039091168152602001610397565b34801561042957600080fd5b50600954610405906001600160a01b031681565b34801561044957600080fd5b50610470610458366004613ad0565b600d6020526000908152604090205463ffffffff1681565b60405163ffffffff9091168152602001610397565b34801561049157600080fd5b5061049a611080565b604051908152602001610397565b3480156104b457600080fd5b506103d56104c3366004613aed565b61108f565b3480156104d457600080fd5b506000546104059061010090046001600160a01b031681565b3480156104f957600080fd5b5061050d610508366004613b29565b611140565b60408051998a5260208a0198909852968801959095526060870193909352608086019190915260a085015260c084015260e083015261010082015261012001610397565b34801561055d57600080fd5b5060405160128152602001610397565b34801561057957600080fd5b50602654602754602854602954602a54602b54602c54602d546105a9979695946001600160a01b03169392919088565b604080519889526020890197909752958701949094526001600160a01b039092166060860152608085015260a084015260c083015260e082015261010001610397565b3480156105f857600080fd5b506103d5610607366004613a99565b6111ac565b34801561061857600080fd5b5061035a610627366004613a99565b6111c0565b34801561063857600080fd5b5061035a61126f565b34801561064d57600080fd5b5061066161065c366004613b52565b611330565b6040516103979190613bb5565b34801561067a57600080fd5b5061035a610689366004613b29565b611657565b34801561069a57600080fd5b506014546103d59060ff1681565b3480156106b457600080fd5b506106bd61177a565b6040516103979190613bee565b3480156106d657600080fd5b5061049a600f5481565b3480156106ec57600080fd5b50600154610405906001600160a01b031681565b34801561070c57600080fd5b5061049a61071b366004613bfc565b6117ac565b34801561072c57600080fd5b50602e54602f546030546031546032546033546034546035546105a9979695946001600160a01b03169392919088565b34801561076857600080fd5b5061049a610777366004613b29565b611814565b34801561078857600080fd5b5061035a61181f565b34801561079d57600080fd5b5061035a61185d565b3480156107b257600080fd5b5061035a611aca565b3480156107c757600080fd5b50600e54630100000090046001600160a01b0316610405565b3480156107ec57600080fd5b5061035a6107fb366004613c56565b611b38565b34801561080c57600080fd5b5061035a61081b366004613cd0565b611bd6565b34801561082c57600080fd5b5061035a61083b366004613d5c565b611d8f565b34801561084c57600080fd5b50600754610405906001600160a01b031681565b34801561086c57600080fd5b506040805180820190915260038152622a23a960e91b602082015261038a565b34801561089857600080fd5b506104056108a7366004613c56565b600b6020908152600092835260408084209091529082529020546001600160a01b031681565b3480156108d957600080fd5b5061035a6108e8366004613a99565b611e4a565b3480156108f957600080fd5b50601e54601f546020546021546022546023546024546025546105a9979695946001600160a01b03169392919088565b34801561093557600080fd5b506103d5610944366004613aed565b611e86565b34801561095557600080fd5b506103d5610964366004613a99565b611f0d565b34801561097557600080fd5b5061035a610984366004613d9c565b611f1a565b34801561099557600080fd5b506103d56109a4366004613a99565b611fbe565b3480156109b557600080fd5b5061035a6109c4366004613dbe565b611fcb565b3480156109d557600080fd5b5061035a6109e4366004613aed565b612467565b3480156109f557600080fd5b5061035a610a04366004613e29565b6128bf565b348015610a1557600080fd5b5061049a612a84565b348015610a2a57600080fd5b5061049a610a39366004613c56565b6001600160a01b039182166000908152601b6020908152604080832093909416825291909152205490565b348015610a7057600080fd5b5061035a612aa1565b348015610a8557600080fd5b5061049a60105481565b348015610a9b57600080fd5b5061049a610aaa366004613ad0565b60116020526000908152604090205481565b348015610ac857600080fd5b5061035a612afd565b348015610add57600080fd5b5061035a610aec366004613b29565b612bba565b348015610afd57600080fd5b50600c54610405906001600160a01b031681565b348015610b1d57600080fd5b50610b5e610b2c366004613b29565b600a60205260009081526040902080546001909101546001600160a01b0391821691811690600160a01b900460ff1683565b60405161039793929190613e9b565b600e54630100000090046001600160a01b03166001600160a01b0316336001600160a01b031614610bd15760405162461bcd60e51b81526020600482015260096024820152682737ba1037bbb732b960b91b60448201526064015b60405180910390fd5b6014805460ff19169055565b6000610be9601e612c5a565b90508015611066576000610bfc30612d02565b9050600064e8d4a5100083600860009054906101000a90046001600160a01b03166001600160a01b03166318160ddd6040518163ffffffff1660e01b8152600401602060405180830381865afa158015610c5a573d6000803e3d6000fd5b505050506040513d601f19601f82011682018060405250810190610c7e9190613ec8565b610c889190613ef7565b610c929190613f16565b6004805460405162d1b00d60e71b81523092810183905260248101849052600060448201819052606482019390935242608482015292935090916001600160a01b03909116906368d806809060a4016020604051808303816000875af1158015610d00573d6000803e3d6000fd5b505050506040513d601f19601f82011682018060405250810190610d249190613ec8565b905082610d3030612d02565b610d3a9190613f38565b9250610d463084612dd5565b610d69604051806060016040528060278152602001614538602791398285612ecb565b604080516002808252606082018352600092602083019080368337019050509050735fc8d32690cc91d4c39d9d3abcbd16989f87570781600081518110610db257610db2613f4f565b60200260200101906001600160a01b031690816001600160a01b03168152505073b7f8bc63bbcad18155201308c8f3540b07f84f5e81600181518110610dfa57610dfa613f4f565b6001600160a01b0392909216602092830291909101909101526040516370a0823160e01b815230600482015260009073b7f8bc63bbcad18155201308c8f3540b07f84f5e906370a0823190602401602060405180830381865afa158015610e65573d6000803e3d6000fd5b505050506040513d601f19601f82011682018060405250810190610e899190613ec8565b600554604051637ff36ab560e01b81529192506001600160a01b031690637ff36ab5908590610ec390600090879030904290600401613f65565b60006040518083038185885af1158015610ee1573d6000803e3d6000fd5b50505050506040513d6000823e601f3d908101601f19168201604052610f0a9190810190613fcf565b506040516370a0823160e01b8152306004820152819073b7f8bc63bbcad18155201308c8f3540b07f84f5e906370a0823190602401602060405180830381865afa158015610f5c573d6000803e3d6000fd5b505050506040513d601f19601f82011682018060405250810190610f809190613ec8565b610f8a9190613f38565b9050610fcb6040518060400160405280601881526020017f48545a206761696e65642062792073776170202d2d2d2d2d000000000000000081525082612f12565b60405163a9059cbb60e01b815273f39fd6e51aad88f6f4ce6ab8827279cfffb9226660048201526024810182905273b7f8bc63bbcad18155201308c8f3540b07f84f5e9063a9059cbb906044016020604051808303816000875af1158015611037573d6000803e3d6000fd5b505050506040513d601f19601f8201168201806040525081019061105b9190614075565b505042601e55505050505b50565b6000611076338484612f57565b5060015b92915050565b600061108a613046565b905090565b60006001600160a01b038416331461112b576001600160a01b0384166000908152601b60209081526040808320338452909152902054828110156111155760405162461bcd60e51b815260206004820152601a60248201527f5472616e73666572206578636565647320616c6c6f77616e63650000000000006044820152606401610bc8565b61112985336111248685613f38565b612f57565b505b611136848484613066565b5060019392505050565b601c546032546033546034546037546001600160a01b0386166000908152601d60205260408120549080806111748a612d02565b925061117f8a61308a565b6001600160a01b03909a16600090815260366020526040902054989a979996989597949693959294915050565b60006111b93384846130d9565b9392505050565b600e546001600160a01b0363010000009091041633146111f25760405162461bcd60e51b8152600401610bc890614092565b6111fe6012600a6141ab565b61120c906302faf080613ef7565b81611215613046565b61121f91906141ba565b11156112615760405162461bcd60e51b8152602060048201526011602482015270457863656564204d617820537570706c7960781b6044820152606401610bc8565b61126b8282613160565b5050565b60025433906001600160a01b031681148061129757506004546001600160a01b038281169116145b806112af57506005546001600160a01b038281169116145b6112cb5760405162461bcd60e51b8152600401610bc8906141d2565b60006012601354601481106112e2576112e2613f4f565b602091828204019190066101000a81548160ff0219169083600581111561130b5761130b613b8b565b021790555060135415611066576013805490600061132883614201565b919050555050565b60408051608081018252600080825260208201819052918101829052606081019190915260025433906001600160a01b031681148061137c57506004546001600160a01b038281169116145b8061139457506005546001600160a01b038281169116145b6113b05760405162461bcd60e51b8152600401610bc8906141d2565b60145460ff16156113f35760405162461bcd60e51b815260206004820152600d60248201526c14de5cdd195b481c185d5cd959609a1b6044820152606401610bc8565b600084600581111561140757611407613b8b565b036114455760405162461bcd60e51b815260206004820152600e60248201526d24b73b30b634b21030b1ba34b7b760911b6044820152606401610bc8565b82156114ee5760005b60135481116114ec5784600581111561146957611469613b8b565b6012826014811061147c5761147c613f4f565b602081049091015460ff601f9092166101000a90041660058111156114a3576114a3613b8b565b036114da5760405162461bcd60e51b81526020600482015260076024820152665265656e74727960c81b6044820152606401610bc8565b806114e481614218565b91505061144e565b505b601354158015611515575060125460009060ff16600581111561151357611513613b8b565b145b61152f576013805490600061152983614218565b91905055505b6014601354106115725760405162461bcd60e51b815260206004820152600e60248201526d537461636b206f766572666c6f7760901b6044820152606401610bc8565b8360126013546014811061158857611588613f4f565b602091828204019190066101000a81548160ff021916908360058111156115b1576115b1613b8b565b0217905550818460058111156115c9576115c9613b8b565b908160058111156115dc576115dc613b8b565b90525060135415606083015260405160009061161090439032906020019182526001600160a01b0316602082015260400190565b6040516020818303038152906040528051906020012060001c905080600f541461163f57600f80546010558190555b5050600f546020820152601054604082015292915050565b60005461010090046001600160a01b031633148061167457503330145b806116a25750600e54630100000090046001600160a01b03166001600160a01b0316336001600160a01b0316145b6116be5760405162461bcd60e51b8152600401610bc890614231565b6001600160a01b038116301461174e576001546001600160a01b03908116906354abe9d0908316156116f057826116f2565b305b6040516001600160e01b031960e084901b1681526001600160a01b039091166004820152602401600060405180830381600087803b15801561173357600080fd5b505af1158015611747573d6000803e3d6000fd5b5050505050565b6040517ffd3415c24b2b4519f08b7935c13f86ea010c77b3ff9bf448a474ae3b2414fce090600090a150565b600060126013546014811061179157611791613f4f565b602081049091015460ff601f9092166101000a900416919050565b60025460009033906001600160a01b03168114806117d757506004546001600160a01b038281169116145b806117ef57506005546001600160a01b038281169116145b61180b5760405162461bcd60e51b8152600401610bc8906141d2565b50949350505050565b600061107a82612d02565b600e546001600160a01b0363010000009091041633146118515760405162461bcd60e51b8152600401610bc890614092565b61185b60006131fc565b565b60335460345411156118c25760405162461bcd60e51b815260206004820152602860248201527f757365725f70656e64696e675f6275726e206578636565647320757365725f736044820152671d5b57dd1bdd185b60c21b6064820152608401610bc8565b603354603d546001600160a01b039081166000908152601d602052604080822054603c548416835281832054603b548516845282842054603a54909516845291909220549192909161191491906141ba565b61191e91906141ba565b61192891906141ba565b146119c057604080518082018252601081526f084848481a5b98dbdb9cda5cdd195b9d60821b602080830191909152603d546001600160a01b039081166000908152601d90925283822054603c548216835284832054603b548316845285842054603a54909316845294909220546119c094916119a4916141ba565b6119ae91906141ba565b6119b891906141ba565b603354612ecb565b6033546034546000916119d29161325a565b603d549091506000906119ed906001600160a01b0316611814565b603c54611a02906001600160a01b0316611814565b603b54611a17906001600160a01b0316611814565b603a54611a2c906001600160a01b0316611814565b611a3691906141ba565b611a4091906141ba565b611a4a91906141ba565b9050600081831015611a6757611a608383613f38565b9050611a74565b611a718284613f38565b90505b60408051808201909152601681527518b298991032b93937b92fb930ba32961032b93937b960511b6020820152611ac59084611ab58464e8d4a51000613ef7565b611abf9190613f16565b83612ecb565b505050565b600e54630100000090046001600160a01b03166001600160a01b0316336001600160a01b031614611b295760405162461bcd60e51b81526020600482015260096024820152682737ba1037bbb732b960b91b6044820152606401610bc8565b6014805460ff19166001179055565b600e54630100000090046001600160a01b03166001600160a01b0316336001600160a01b031614611b9e5760405162461bcd60e51b815260206004820152601060248201526f496e76616c69642063616c6c6572203360801b6044820152606401610bc8565b60008054610100600160a81b0319166101006001600160a01b0394851602179055600180546001600160a01b03191691909216179055565b60005461010090046001600160a01b0316331480611bf357503330145b80611c215750600e54630100000090046001600160a01b03166001600160a01b0316336001600160a01b0316145b611c3d5760405162461bcd60e51b8152600401610bc890614231565b6001600160a01b0381163014611d5157600e5462010000900460ff1615611ccb57604051634f18125b60e01b815273__$88bebae22a3ad6e62b56c303176513ecf8$__90634f18125b90611c9a908690600d90879060040161425b565b60006040518083038186803b158015611cb257600080fd5b505af4158015611cc6573d6000803e3d6000fd5b505050505b60006001600160a01b03821615611ce25781611ce4565b305b6001546040516391fd0db760e01b81529192506001600160a01b0316906391fd0db790611d1990879087908690600401614284565b600060405180830381600087803b158015611d3357600080fd5b505af1158015611d47573d6000803e3d6000fd5b5050505050505050565b7fb4040436d4754da72f29d5b97fe68448f30d44ac0e08b33545cbf6f28b7641d98383604051611d829291906142b6565b60405180910390a1505050565b60005461010090046001600160a01b0316331480611dac57503330145b80611dda5750600e54630100000090046001600160a01b03166001600160a01b0316336001600160a01b0316145b611df65760405162461bcd60e51b8152600401610bc890614231565b611e0183838361327e565b6000836004811115611e1557611e15613b8b565b03611ac557601980546001600160a01b0384166001600160a01b03199182168117909255601a80549091169091179055505050565b600e546001600160a01b036301000000909104163314611e7c5760405162461bcd60e51b8152600401610bc890614092565b61126b8282612dd5565b60408051808201909152600c81526b5a65726f206164647265737360a01b60208201526000906001600160a01b038516611ed35760405162461bcd60e51b8152600401610bc89190613a6f565b506001600160a01b038085166000908152601b60209081526040808320938716835292905220546111369085908590611124908690613f38565b60006111b9338484611e86565b600e546001600160a01b036301000000909104163314611f4c5760405162461bcd60e51b8152600401610bc890614092565b611f586005600a6142d8565b8211158015611f725750611f6e6005600a6142d8565b8111155b611fb35760405162461bcd60e51b8152602060048201526012602482015271496e76616c6964206275726e20726174657360701b6044820152606401610bc8565b603891909155603955565b6000611076338484613066565b60005461010090046001600160a01b0316331480611fe857503330145b806120165750600e54630100000090046001600160a01b03166001600160a01b0316336001600160a01b0316145b6120325760405162461bcd60e51b8152600401610bc890614231565b6001600160a01b038116301461242357600e5460ff1615612399576040518060600160405280856001600160a01b03168152602001846001600160a01b0316815260200183600381111561208857612088613b8b565b90526001600160a01b038087166000908152600a6020908152604091829020845181549085166001600160a01b0319918216178255918501516001820180549190951692811683178555928501519093909290916001600160a81b031990911617600160a01b83600381111561210057612100613b8b565b021790555050506001600160a01b038085166000818152600b60208181526040808420898716855282528084208054878d166001600160a01b03199182168117909255938352818520958552949091529182902080549091169092179091556002549051633fe59dbb60e11b815273__$88bebae22a3ad6e62b56c303176513ecf8$__92637fcb3b76926121b292899289921690730dcd1bf9a1b36ce34237eeafef220932846bcd82906004016142e4565b602060405180830381865af41580156121cf573d6000803e3d6000fd5b505050506040513d601f19601f820116820180604052508101906121f39190614075565b1561221457600780546001600160a01b0319166001600160a01b0387161790555b600254604051633fe59dbb60e11b815273__$88bebae22a3ad6e62b56c303176513ecf8$__91637fcb3b769161227091889188916001600160a01b031690735fc8d32690cc91d4c39d9d3abcbd16989f875707906004016142e4565b602060405180830381865af415801561228d573d6000803e3d6000fd5b505050506040513d601f19601f820116820180604052508101906122b19190614075565b156122d257600880546001600160a01b0319166001600160a01b0387161790555b604051633fe59dbb60e11b815273__$88bebae22a3ad6e62b56c303176513ecf8$__90637fcb3b7690612337908790879073b7f8bc63bbcad18155201308c8f3540b07f84f5e90735fc8d32690cc91d4c39d9d3abcbd16989f875707906004016142e4565b602060405180830381865af4158015612354573d6000803e3d6000fd5b505050506040513d601f19601f820116820180604052508101906123789190614075565b1561239957600980546001600160a01b0319166001600160a01b0387161790555b60006001600160a01b038216156123b057816123b2565b305b60015460405163cd193c4360e01b81529192506001600160a01b03169063cd193c43906123eb908990899089908990889060040161430f565b600060405180830381600087803b15801561240557600080fd5b505af1158015612419573d6000803e3d6000fd5b5050505050611747565b7f7af36d96fdc569564b9fadb22716716fe33463cb7fc8dca4fbd79d40448acdf2858585856040516124589493929190614351565b60405180910390a15050505050565b60045433906001600160a01b0316810361259b576001600160a01b038381166000908152600a6020526040902054161561251f5760006124a56133e1565b905060038160058111156124bb576124bb613b8b565b036124e9576124e46040518060400160405280600381526020016210591960ea1b815250613450565b612519565b6125196040518060400160405280600f81526020016e0496e636f6e73697374656e6374203608c1b815250613450565b5061286c565b6004546001600160a01b03908116908516036125625761255d6040518060400160405280600781526020016652656d6f76653160c81b815250613450565b61286c565b60405162461bcd60e51b815260206004820152600e60248201526d496e636f6e73697374656e74203160901b6044820152606401610bc8565b6005546001600160a01b03908116908216036126b2576001600160a01b038381166000908152600a602052604090205416156125fb576125f66040518060400160405280600481526020016314d95b1b60e21b815250613450565b61266f565b6005546001600160a01b0390811690851603612635576125f66040518060400160405280600381526020016242757960e81b815250613450565b60405162461bcd60e51b815260206004820152600f60248201526e24b731b7b739b4b9ba32b731ba101960891b6044820152606401610bc8565b600061267d6005600a6142d8565b60385461268a9085613ef7565b6126949190613f16565b90506126a08582612dd5565b6126aa8184613f38565b92505061286c565b836001600160a01b0316816001600160a01b031603612832576001600160a01b038181166000908152600a6020526040902054161561255d5760006126f56133e1565b9050600281600581111561270b5761270b613b8b565b0361277757600061271e6005600a6142d8565b60385461272b9086613ef7565b6127359190613f16565b90506127418682612dd5565b61274b8185613f38565b93506127716040518060400160405280600381526020016242757960e81b815250613450565b50612519565b600481600581111561278b5761278b613b8b565b036127b8576124e4604051806040016040528060078152602001662932b6b7bb329960c91b815250613450565b60058160058111156127cc576127cc613b8b565b036127f8576124e46040518060400160405280600681526020016544696c75746560d01b815250613450565b60405162461bcd60e51b815260206004820152600f60248201526e496e636f6e73697374656e6374203560881b6044820152606401610bc8565b60405162461bcd60e51b815260206004820152600f60248201526e2bb937b7339036b9b3a9b2b73232b960891b6044820152606401610bc8565b6001600160a01b0384166000908152601d60205260409020548211156128a8576001600160a01b0384166000908152601d602052604090205491505b81156128b9576128b9848484613493565b50505050565b60005461010090046001600160a01b03163314806128dc57503330145b8061290a5750600e54630100000090046001600160a01b03166001600160a01b0316336001600160a01b0316145b6129265760405162461bcd60e51b8152600401610bc890614231565b6001600160a01b0381163014612a4357600e54610100900460ff16156129ba57604051633d8d54b760e11b8152600c600482015282516001600160a01b0316602482015273__$88bebae22a3ad6e62b56c303176513ecf8$__90637b1aa96e9060440160006040518083038186803b1580156129a157600080fd5b505af41580156129b5573d6000803e3d6000fd5b505050505b60006001600160a01b038216156129d157816129d3565b305b600154604051633376489360e21b815285516001600160a01b039081166004830152808416602483015292935091169063cdd9224c90604401600060405180830381600087803b158015612a2657600080fd5b505af1158015612a3a573d6000803e3d6000fd5b50505050505050565b60405182516001600160a01b031681527f275664547227ddbc7a8a732c07c9346f2f4520de70c2088665cc6809534212c09060200160405180910390a15050565b612a906012600a6141ab565b612a9e906302faf080613ef7565b81565b6000612aad6026612c5a565b90508015611066576029546001600160a01b03166000818152601d6020526040902054612af6919064e8d4a5100090612ae7908590613ef7565b612af19190613f16565b612dd5565b4260265550565b6000612b09602e612c5a565b9050801561106657603354603454600091612b239161325a565b9050600064e8d4a51000612b378484613ef7565b612b419190613f16565b905080602e6006016000828254612b5891906141ba565b90915550506033546034541115612b70576033546034555b60325464e8d4a51000908490612b869083613f38565b612b909190613ef7565b612b9a9190613f16565b60328054600090612bac9084906141ba565b909155505042602e55505050565b600e546001600160a01b036301000000909104163314612bec5760405162461bcd60e51b8152600401610bc890614092565b6001600160a01b038116612c515760405162461bcd60e51b815260206004820152602660248201527f4f776e61626c653a206e6577206f776e657220697320746865207a65726f206160448201526564647265737360d01b6064820152608401610bc8565b611066816131fc565b600080826001015442612c6d9190613f16565b90508260070154811115612cfc576000836007015482612c8d9190613f38565b60078501839055428555600093509050825b81811015612cf957612cb36005600a6142d8565b6002860154612cc78664e8d4a51000613f38565b612cd19190613ef7565b612cdb9190613f16565b612ce590856141ba565b935080612cf181614218565b915050612c9f565b50505b50919050565b6000612d0d826135ec565b15612db5576000612d1d8361308a565b6001600160a01b0384166000908152601d6020526040902054909150811115612d6157612d616040518060600160405280602c815260200161450c602c9139613450565b60325464e8d4a510001015612d9157612d916040518060600160405280603d815260200161455f603d9139613450565b6001600160a01b0383166000908152601d60205260409020546111b9908290613f38565b506001600160a01b0381166000908152601d60205260409020545b919050565b60408051808201909152600c81526b5a65726f206164647265737360a01b60208201526001600160a01b038316612e1f5760405162461bcd60e51b8152600401610bc89190613a6f565b506000612e2b83612d02565b9050818110156040518060400160405280600f81526020016e457863656564732062616c616e636560881b81525090612e775760405162461bcd60e51b8152600401610bc89190613a6f565b50612e848383600061364d565b6040518281526000906001600160a01b038516907fddf252ad1be2c89b69c2b068fc378daa952ba7f163c4a11628f55a4df523b3ef906020015b60405180910390a3505050565b611ac5838383604051602401612ee393929190614387565b60408051601f198184030181529190526020810180516001600160e01b031663ca47c4eb60e01b1790526138c5565b61126b8282604051602401612f289291906143ac565b60408051601f198184030181529190526020810180516001600160e01b0316632d839cb360e21b1790526138c5565b60408051808201909152600c81526b5a65726f206164647265737360a01b60208201526001600160a01b038416612fa15760405162461bcd60e51b8152600401610bc89190613a6f565b5060408051808201909152600c81526b5a65726f206164647265737360a01b60208201526001600160a01b038316612fec5760405162461bcd60e51b8152600401610bc89190613a6f565b506001600160a01b038381166000818152601b602090815260408083209487168084529482529182902085905590518481527f8c5be1e5ebec7d5bd14f71427d1e84f3dd0314c0f7b2291e5b200ac8c7c3b9259101612ebe565b6034546037546033546000929161305c916141ba565b61108a9190613f38565b6130716001806138ce565b801561308257613082838383613493565b611ac561399d565b6001600160a01b038116600090815260366020908152604080832054603254601d90935290832054909164e8d4a51000916130c59190613ef7565b6130cf9190613f16565b61107a9190613f38565b60408051808201909152600c81526b5a65726f206164647265737360a01b60208201526000906001600160a01b0385166131265760405162461bcd60e51b8152600401610bc89190613a6f565b506001600160a01b038085166000908152601b602090815260408083209387168352929052205461113690859085906111249086906141ba565b60408051808201909152600c81526b5a65726f206164647265737360a01b60208201526001600160a01b0383166131aa5760405162461bcd60e51b8152600401610bc89190613a6f565b506131b78282600161364d565b6040518181526001600160a01b038316906000907fddf252ad1be2c89b69c2b068fc378daa952ba7f163c4a11628f55a4df523b3ef9060200160405180910390a35050565b600e80546001600160a01b0383811663010000008181026301000000600160b81b031985161790945560405193909204169182907f8be0079c531659141344cd1fd0a4f28419497f9722a3daafe3b4186f6b6457e090600090a35050565b6000818311156132755761326e8284613f38565b905061107a565b50600092915050565b60005461010090046001600160a01b031633148061329b57503330145b806132c95750600e54630100000090046001600160a01b03166001600160a01b0316336001600160a01b0316145b6132e55760405162461bcd60e51b8152600401610bc890614231565b6001600160a01b03811630146133b05760405163085b199160e11b815273__$88bebae22a3ad6e62b56c303176513ecf8$__906310b633229061333190869086906002906004016143de565b60006040518083038186803b15801561334957600080fd5b505af415801561335d573d6000803e3d6000fd5b506000925050506001600160a01b03821615613379578161337b565b305b6001546040516349443ceb60e11b81529192506001600160a01b03169063928879d690611d1990879087908690600401614406565b7fb45c42dda0a5ab1d1078e0afeda2976363eff9496a93644e726862f1f06186b88383604051611d82929190614436565b60195460408051632e9c96d560e11b815290516000926001600160a01b031691635d392daa916004808301926020929190829003018187875af115801561342c573d6000803e3d6000fd5b505050506040513d601f19601f8201168201806040525081019061108a919061445c565b611066816040516024016134649190613a6f565b60408051601f198184030181529190526020810180516001600160e01b031663104c13eb60e21b1790526138c5565b60408051808201909152600c81526b5a65726f206164647265737360a01b60208201526001600160a01b0384166134dd5760405162461bcd60e51b8152600401610bc89190613a6f565b5060408051808201909152600c81526b5a65726f206164647265737360a01b60208201526001600160a01b0383166135285760405162461bcd60e51b8152600401610bc89190613a6f565b50600061353484612d02565b9050818110156040518060400160405280600f81526020016e457863656564732062616c616e636560881b815250906135805760405162461bcd60e51b8152600401610bc89190613a6f565b5061358d8483600061364d565b6135998383600161364d565b826001600160a01b0316846001600160a01b03167fddf252ad1be2c89b69c2b068fc378daa952ba7f163c4a11628f55a4df523b3ef846040516135de91815260200190565b60405180910390a350505050565b6001600160a01b038181166000908152600a602052604081205490911615801561107a57507f00000000000000000000000000000000000000000000000000000000000000006001600160a01b0316826001600160a01b0316141592915050565b613656836135ec565b156137f95760006136668461308a565b905080156136db576001600160a01b0384166000908152601d6020526040902054613691908261325a565b6001600160a01b0385166000908152601d60205260409020556033546136b7908261325a565b6033556034546136c7908261325a565b603455601c546136d7908261325a565b601c555b8115613747576001600160a01b0384166000908152601d6020526040812080548592906137099084906141ba565b9091555050603380548491906000906137239084906141ba565b9250508190555082601c600082825461373c91906141ba565b909155506137a49050565b6001600160a01b0384166000908152601d602052604090205461376a908461325a565b6001600160a01b0385166000908152601d6020526040902055603354613790908461325a565b603355601c546137a0908461325a565b601c555b6032546001600160a01b0385166000908152601d602052604090205464e8d4a51000916137d091613ef7565b6137da9190613f16565b6001600160a01b03851660009081526036602052604090205550505050565b8015613864576001600160a01b0383166000908152601d6020526040812080548492906138279084906141ba565b92505081905550816037600082825461384091906141ba565b9250508190555081601c600082825461385991906141ba565b90915550611ac59050565b6001600160a01b0383166000908152601d6020526040902054613887908361325a565b6001600160a01b0384166000908152601d60205260409020556037546138ad908361325a565b603755601c546138bd908361325a565b601c55505050565b61106681613a01565b601954604051634be5482760e01b81526001600160a01b0390911690634be54827906139009085908590600401614479565b6080604051808303816000875af115801561391f573d6000803e3d6000fd5b505050506040513d601f19601f820116820180604052508101906139439190614496565b805160158054909190829060ff1916600183600581111561396657613966613b8b565b021790555060208201516001820155604082015160028201556060909101516003909101805460ff19169115159190911790555050565b601960009054906101000a90046001600160a01b03166001600160a01b031663431b3c306040518163ffffffff1660e01b8152600401600060405180830381600087803b1580156139ed57600080fd5b505af11580156128b9573d6000803e3d6000fd5b60006a636f6e736f6c652e6c6f679050600080835160208501845afa505050565b6000815180845260005b81811015613a4857602081850181015186830182015201613a2c565b81811115613a5a576000602083870101525b50601f01601f19169290920160200192915050565b6020815260006111b96020830184613a22565b80356001600160a01b0381168114612dd057600080fd5b60008060408385031215613aac57600080fd5b613ab583613a82565b946020939093013593505050565b6006811061106657600080fd5b600060208284031215613ae257600080fd5b81356111b981613ac3565b600080600060608486031215613b0257600080fd5b613b0b84613a82565b9250613b1960208501613a82565b9150604084013590509250925092565b600060208284031215613b3b57600080fd5b6111b982613a82565b801515811461106657600080fd5b60008060408385031215613b6557600080fd5b8235613b7081613ac3565b91506020830135613b8081613b44565b809150509250929050565b634e487b7160e01b600052602160045260246000fd5b60068110613bb157613bb1613b8b565b9052565b6000608082019050613bc8828451613ba1565b602083015160208301526040830151604083015260608301511515606083015292915050565b6020810161107a8284613ba1565b6000806000808486036080811215613c1357600080fd5b613c1c86613a82565b94506020868101359450603f1982011215613c3657600080fd5b506040850191506060850135613c4b81613b44565b939692955090935050565b60008060408385031215613c6957600080fd5b613c7283613a82565b9150613c8060208401613a82565b90509250929050565b634e487b7160e01b600052604160045260246000fd5b604051601f8201601f1916810167ffffffffffffffff81118282101715613cc857613cc8613c89565b604052919050565b60008060008385036060811215613ce657600080fd5b8435613cf181613ac3565b93506020601f1982011215613d0557600080fd5b506040516020810181811067ffffffffffffffff82111715613d2957613d29613c89565b604052602085013563ffffffff81168114613d4357600080fd5b81529150613d5360408501613a82565b90509250925092565b600080600060608486031215613d7157600080fd5b833560058110613d8057600080fd5b9250613d8e60208501613a82565b9150613d5360408501613a82565b60008060408385031215613daf57600080fd5b50508035926020909101359150565b600080600080600060a08688031215613dd657600080fd5b613ddf86613a82565b9450613ded60208701613a82565b9350613dfb60408701613a82565b9250606086013560048110613e0f57600080fd5b9150613e1d60808701613a82565b90509295509295909350565b6000808284036040811215613e3d57600080fd5b6020811215613e4b57600080fd5b506040516020810181811067ffffffffffffffff82111715613e6f57613e6f613c89565b604052613e7b84613a82565b81529150613c8060208401613a82565b60048110613bb157613bb1613b8b565b6001600160a01b0384811682528316602082015260608101613ec06040830184613e8b565b949350505050565b600060208284031215613eda57600080fd5b5051919050565b634e487b7160e01b600052601160045260246000fd5b6000816000190483118215151615613f1157613f11613ee1565b500290565b600082613f3357634e487b7160e01b600052601260045260246000fd5b500490565b600082821015613f4a57613f4a613ee1565b500390565b634e487b7160e01b600052603260045260246000fd5b600060808201868352602060808185015281875180845260a086019150828901935060005b81811015613faf5784516001600160a01b031683529383019391830191600101613f8a565b50506001600160a01b039690961660408501525050506060015292915050565b60006020808385031215613fe257600080fd5b825167ffffffffffffffff80821115613ffa57600080fd5b818501915085601f83011261400e57600080fd5b81518181111561402057614020613c89565b8060051b9150614031848301613c9f565b818152918301840191848101908884111561404b57600080fd5b938501935b8385101561406957845182529385019390850190614050565b98975050505050505050565b60006020828403121561408757600080fd5b81516111b981613b44565b6020808252818101527f4f776e61626c653a2063616c6c6572206973206e6f7420746865206f776e6572604082015260600190565b600181815b808511156141025781600019048211156140e8576140e8613ee1565b808516156140f557918102915b93841c93908002906140cc565b509250929050565b6000826141195750600161107a565b816141265750600061107a565b816001811461413c576002811461414657614162565b600191505061107a565b60ff84111561415757614157613ee1565b50506001821b61107a565b5060208310610133831016604e8410600b8410161715614185575081810a61107a565b61418f83836140c7565b80600019048211156141a3576141a3613ee1565b029392505050565b60006111b960ff84168361410a565b600082198211156141cd576141cd613ee1565b500190565b6020808252601590820152742737ba10309039b2b9b9b4b7b71036b0b730b3b2b960591b604082015260600190565b60008161421057614210613ee1565b506000190190565b60006001820161422a5761422a613ee1565b5060010190565b60208082526010908201526f496e76616c69642063616c6c6572203160801b604082015260600190565b606081016142698286613ba1565b83602083015263ffffffff8351166040830152949350505050565b606081016142928286613ba1565b925163ffffffff1660208201526001600160a01b0391909116604090910152919050565b604081016142c48285613ba1565b63ffffffff83511660208301529392505050565b60006111b9838361410a565b6001600160a01b03948516815292841660208401529083166040830152909116606082015260800190565b6001600160a01b0386811682528581166020830152848116604083015260a082019061433e6060840186613e8b565b8084166080840152509695505050505050565b6001600160a01b0385811682528481166020830152831660408201526080810161437e6060830184613e8b565b95945050505050565b60608152600061439a6060830186613a22565b60208301949094525060400152919050565b6040815260006143bf6040830185613a22565b90508260208301529392505050565b60058110613bb157613bb1613b8b565b606081016143ec82866143ce565b6001600160a01b0393909316602082015260400152919050565b6060810161441482866143ce565b6001600160a01b03938416602083015291909216604090920191909152919050565b6040810161444482856143ce565b6001600160a01b039290921660209190910152919050565b60006020828403121561446e57600080fd5b81516111b981613ac3565b604081016144878285613ba1565b82151560208301529392505050565b6000608082840312156144a857600080fd5b6040516080810181811067ffffffffffffffff821117156144cb576144cb613c89565b60405282516144d981613ac3565b80825250602083015160208201526040830151604082015260608301516144ff81613b44565b6060820152939250505056fe5f62616c616e63654f662e2070656e64696e674275726e203e205f62616c616e6365735b6163636f756e745d46544d20616e6420544752206761696e6564206279204c502064696c7574696f6e202d2d2d2d2d2121215f62616c616e63654f662e20757365725f6275726e2e6163634465636179506572316531322069732067726561746572207468616e2031653132a2646970667358221220f8c36d6d5759ac41efd47ef7027e98b4b7616fd2d9aa93c0c89a1754501482ae64736f6c634300080e0033",
  "linkReferences": {
    "contracts/libraries/WireLibrary.sol": {
      "WireLibrary": [
        {
          "length": 20,
          "start": 9854
        },
        {
          "length": 20,
          "start": 11137
        },
        {
          "length": 20,
          "start": 11319
        },
        {
          "length": 20,
          "start": 11506
        },
        {
          "length": 20,
          "start": 13181
        },
        {
          "length": 20,
          "start": 15637
        }
      ]
    }
  },
  "deployedLinkReferences": {
    "contracts/libraries/WireLibrary.sol": {
      "WireLibrary": [
        {
          "length": 20,
          "start": 7277
        },
        {
          "length": 20,
          "start": 8560
        },
        {
          "length": 20,
          "start": 8742
        },
        {
          "length": 20,
          "start": 8929
        },
        {
          "length": 20,
          "start": 10604
        },
        {
          "length": 20,
          "start": 13060
        }
      ]
    }
  }
}