{
  "_format": "hh-sol-artifact-1",
  "contractName": "TGRToken",
  "sourceName": "contracts/farm/TGRToken.sol",
  "abi": [
    {
      "inputs": [
        {
          "internalType": "address",
          "name": "_analyticMath",
          "type": "address"
        }
      ],
      "stateMutability": "nonpayable",
      "type": "constructor"
    },
    {
      "anonymous": false,
      "inputs": [
        {
          "indexed": true,
          "internalType": "address",
          "name": "owner",
          "type": "address"
        },
        {
          "indexed": true,
          "internalType": "address",
          "name": "spender",
          "type": "address"
        },
        {
          "indexed": false,
          "internalType": "uint256",
          "name": "value",
          "type": "uint256"
        }
      ],
      "name": "Approval",
      "type": "event"
    },
    {
      "anonymous": false,
      "inputs": [],
      "name": "Begin",
      "type": "event"
    },
    {
      "anonymous": false,
      "inputs": [
        {
          "indexed": false,
          "internalType": "address",
          "name": "pair",
          "type": "address"
        },
        {
          "indexed": false,
          "internalType": "address",
          "name": "tokenA",
          "type": "address"
        },
        {
          "indexed": false,
          "internalType": "address",
          "name": "tokenB",
          "type": "address"
        },
        {
          "indexed": false,
          "internalType": "enum ListStatus",
          "name": "status",
          "type": "uint8"
        }
      ],
      "name": "ChangePairStatus",
      "type": "event"
    },
    {
      "anonymous": false,
      "inputs": [
        {
          "indexed": false,
          "internalType": "address",
          "name": "token",
          "type": "address"
        },
        {
          "indexed": false,
          "internalType": "address",
          "name": "msgSender",
          "type": "address"
        }
      ],
      "name": "DeenlistToken",
      "type": "event"
    },
    {
      "anonymous": false,
      "inputs": [
        {
          "indexed": true,
          "internalType": "address",
          "name": "previousOwner",
          "type": "address"
        },
        {
          "indexed": true,
          "internalType": "address",
          "name": "newOwner",
          "type": "address"
        }
      ],
      "name": "OwnershipTransferred",
      "type": "event"
    },
    {
      "anonymous": false,
      "inputs": [
        {
          "indexed": false,
          "internalType": "enum ActionType",
          "name": "_sessionType",
          "type": "uint8"
        },
        {
          "components": [
            {
              "internalType": "uint32",
              "name": "accountant",
              "type": "uint32"
            }
          ],
          "indexed": false,
          "internalType": "struct FeeRates",
          "name": "_feeRates",
          "type": "tuple"
        }
      ],
      "name": "SetFeeRates",
      "type": "event"
    },
    {
      "anonymous": false,
      "inputs": [
        {
          "components": [
            {
              "internalType": "address",
              "name": "accountant",
              "type": "address"
            }
          ],
          "indexed": false,
          "internalType": "struct FeeStores",
          "name": "_feeStores",
          "type": "tuple"
        }
      ],
      "name": "SetFeeStores",
      "type": "event"
    },
    {
      "anonymous": false,
      "inputs": [
        {
          "indexed": false,
          "internalType": "enum NodeType",
          "name": "nodeType",
          "type": "uint8"
        },
        {
          "indexed": false,
          "internalType": "address",
          "name": "node",
          "type": "address"
        }
      ],
      "name": "SetNode",
      "type": "event"
    },
    {
      "anonymous": false,
      "inputs": [
        {
          "indexed": true,
          "internalType": "address",
          "name": "from",
          "type": "address"
        },
        {
          "indexed": true,
          "internalType": "address",
          "name": "to",
          "type": "address"
        },
        {
          "indexed": false,
          "internalType": "uint256",
          "name": "value",
          "type": "uint256"
        }
      ],
      "name": "Transfer",
      "type": "event"
    },
    {
      "inputs": [],
      "name": "MAX_SUPPLY",
      "outputs": [
        {
          "internalType": "uint256",
          "name": "",
          "type": "uint256"
        }
      ],
      "stateMutability": "view",
      "type": "function"
    },
    {
      "inputs": [
        {
          "internalType": "address",
          "name": "_owner",
          "type": "address"
        },
        {
          "internalType": "address",
          "name": "_spender",
          "type": "address"
        },
        {
          "internalType": "uint256",
          "name": "subtractedValue",
          "type": "uint256"
        }
      ],
      "name": "_decreaseAllowance",
      "outputs": [
        {
          "internalType": "bool",
          "name": "",
          "type": "bool"
        }
      ],
      "stateMutability": "nonpayable",
      "type": "function"
    },
    {
      "inputs": [
        {
          "internalType": "address",
          "name": "_owner",
          "type": "address"
        },
        {
          "internalType": "address",
          "name": "_spender",
          "type": "address"
        }
      ],
      "name": "allowance",
      "outputs": [
        {
          "internalType": "uint256",
          "name": "",
          "type": "uint256"
        }
      ],
      "stateMutability": "view",
      "type": "function"
    },
    {
      "inputs": [
        {
          "internalType": "address",
          "name": "spender",
          "type": "address"
        },
        {
          "internalType": "uint256",
          "name": "amount",
          "type": "uint256"
        }
      ],
      "name": "approve",
      "outputs": [
        {
          "internalType": "bool",
          "name": "",
          "type": "bool"
        }
      ],
      "stateMutability": "nonpayable",
      "type": "function"
    },
    {
      "inputs": [
        {
          "internalType": "address",
          "name": "account",
          "type": "address"
        }
      ],
      "name": "balanceOf",
      "outputs": [
        {
          "internalType": "uint256",
          "name": "",
          "type": "uint256"
        }
      ],
      "stateMutability": "view",
      "type": "function"
    },
    {
      "inputs": [
        {
          "internalType": "address",
          "name": "caller",
          "type": "address"
        }
      ],
      "name": "begin",
      "outputs": [],
      "stateMutability": "nonpayable",
      "type": "function"
    },
    {
      "inputs": [
        {
          "internalType": "address",
          "name": "from",
          "type": "address"
        },
        {
          "internalType": "uint256",
          "name": "amount",
          "type": "uint256"
        }
      ],
      "name": "burn",
      "outputs": [],
      "stateMutability": "nonpayable",
      "type": "function"
    },
    {
      "inputs": [
        {
          "internalType": "uint256",
          "name": "_buysell_burn_rate",
          "type": "uint256"
        },
        {
          "internalType": "uint256",
          "name": "_shift_burn_rate",
          "type": "uint256"
        }
      ],
      "name": "changeBurnRates",
      "outputs": [],
      "stateMutability": "nonpayable",
      "type": "function"
    },
    {
      "inputs": [
        {
          "internalType": "address",
          "name": "pair",
          "type": "address"
        },
        {
          "internalType": "address",
          "name": "token0",
          "type": "address"
        },
        {
          "internalType": "address",
          "name": "token1",
          "type": "address"
        },
        {
          "internalType": "enum ListStatus",
          "name": "status",
          "type": "uint8"
        },
        {
          "internalType": "address",
          "name": "caller",
          "type": "address"
        }
      ],
      "name": "changePairStatus",
      "outputs": [],
      "stateMutability": "nonpayable",
      "type": "function"
    },
    {
      "inputs": [],
      "name": "checkForConsistency",
      "outputs": [
        {
          "internalType": "uint256",
          "name": "pending_collective",
          "type": "uint256"
        },
        {
          "internalType": "uint256",
          "name": "pending_marginal",
          "type": "uint256"
        },
        {
          "internalType": "uint256",
          "name": "abs_error",
          "type": "uint256"
        },
        {
          "internalType": "uint256",
          "name": "error_rate",
          "type": "uint256"
        }
      ],
      "stateMutability": "view",
      "type": "function"
    },
    {
      "inputs": [],
      "name": "decimals",
      "outputs": [
        {
          "internalType": "uint8",
          "name": "",
          "type": "uint8"
        }
      ],
      "stateMutability": "view",
      "type": "function"
    },
    {
      "inputs": [
        {
          "internalType": "address",
          "name": "spender",
          "type": "address"
        },
        {
          "internalType": "uint256",
          "name": "subtractedValue",
          "type": "uint256"
        }
      ],
      "name": "decreaseAllowance",
      "outputs": [
        {
          "internalType": "bool",
          "name": "",
          "type": "bool"
        }
      ],
      "stateMutability": "nonpayable",
      "type": "function"
    },
    {
      "inputs": [
        {
          "internalType": "enum ActionType",
          "name": "",
          "type": "uint8"
        }
      ],
      "name": "feeRates",
      "outputs": [
        {
          "internalType": "uint32",
          "name": "accountant",
          "type": "uint32"
        }
      ],
      "stateMutability": "view",
      "type": "function"
    },
    {
      "inputs": [],
      "name": "feeStores",
      "outputs": [
        {
          "internalType": "address",
          "name": "accountant",
          "type": "address"
        }
      ],
      "stateMutability": "view",
      "type": "function"
    },
    {
      "inputs": [],
      "name": "getCurrentActionType",
      "outputs": [
        {
          "internalType": "enum ActionType",
          "name": "",
          "type": "uint8"
        }
      ],
      "stateMutability": "view",
      "type": "function"
    },
    {
      "inputs": [],
      "name": "getOwner",
      "outputs": [
        {
          "internalType": "address",
          "name": "",
          "type": "address"
        }
      ],
      "stateMutability": "view",
      "type": "function"
    },
    {
      "inputs": [
        {
          "internalType": "address",
          "name": "user",
          "type": "address"
        }
      ],
      "name": "getStatus",
      "outputs": [
        {
          "internalType": "uint256",
          "name": "totalSupply",
          "type": "uint256"
        },
        {
          "internalType": "uint256",
          "name": "ub_sum_tokens",
          "type": "uint256"
        },
        {
          "internalType": "uint256",
          "name": "nonUserSumTokens",
          "type": "uint256"
        },
        {
          "internalType": "uint256",
          "name": "burnPending",
          "type": "uint256"
        },
        {
          "internalType": "uint256",
          "name": "latestRound",
          "type": "uint256"
        },
        {
          "internalType": "uint256",
          "name": "VIRTUAL",
          "type": "uint256"
        },
        {
          "internalType": "uint256",
          "name": "u_balances",
          "type": "uint256"
        },
        {
          "internalType": "uint256",
          "name": "u_pending",
          "type": "uint256"
        },
        {
          "internalType": "uint256",
          "name": "u_latestDecayRound",
          "type": "uint256"
        },
        {
          "internalType": "uint256",
          "name": "u_VIRTUAL",
          "type": "uint256"
        }
      ],
      "stateMutability": "view",
      "type": "function"
    },
    {
      "inputs": [],
      "name": "htzFtm",
      "outputs": [
        {
          "internalType": "address",
          "name": "",
          "type": "address"
        }
      ],
      "stateMutability": "view",
      "type": "function"
    },
    {
      "inputs": [
        {
          "internalType": "address",
          "name": "spender",
          "type": "address"
        },
        {
          "internalType": "uint256",
          "name": "addedValue",
          "type": "uint256"
        }
      ],
      "name": "increaseAllowance",
      "outputs": [
        {
          "internalType": "bool",
          "name": "",
          "type": "bool"
        }
      ],
      "stateMutability": "nonpayable",
      "type": "function"
    },
    {
      "inputs": [],
      "name": "lastSession",
      "outputs": [
        {
          "internalType": "uint256",
          "name": "",
          "type": "uint256"
        }
      ],
      "stateMutability": "view",
      "type": "function"
    },
    {
      "inputs": [],
      "name": "lp_reward",
      "outputs": [
        {
          "internalType": "uint256",
          "name": "latestBNumber",
          "type": "uint256"
        },
        {
          "internalType": "uint256",
          "name": "cycleBlocks",
          "type": "uint256"
        },
        {
          "internalType": "uint256",
          "name": "decayRate",
          "type": "uint256"
        },
        {
          "internalType": "address",
          "name": "account",
          "type": "address"
        },
        {
          "internalType": "uint256",
          "name": "sum_tokens",
          "type": "uint256"
        },
        {
          "internalType": "uint256",
          "name": "burnDone",
          "type": "uint256"
        },
        {
          "internalType": "uint256",
          "name": "latestRound",
          "type": "uint256"
        },
        {
          "internalType": "uint256",
          "name": "initialRound",
          "type": "uint256"
        },
        {
          "internalType": "uint256",
          "name": "latestNet",
          "type": "uint256"
        },
        {
          "internalType": "uint256",
          "name": "VIRTUAL",
          "type": "uint256"
        }
      ],
      "stateMutability": "view",
      "type": "function"
    },
    {
      "inputs": [
        {
          "internalType": "address",
          "name": "to",
          "type": "address"
        },
        {
          "internalType": "uint256",
          "name": "amount",
          "type": "uint256"
        }
      ],
      "name": "mint",
      "outputs": [],
      "stateMutability": "nonpayable",
      "type": "function"
    },
    {
      "inputs": [],
      "name": "name",
      "outputs": [
        {
          "internalType": "string",
          "name": "",
          "type": "string"
        }
      ],
      "stateMutability": "view",
      "type": "function"
    },
    {
      "inputs": [],
      "name": "nextNode",
      "outputs": [
        {
          "internalType": "address",
          "name": "",
          "type": "address"
        }
      ],
      "stateMutability": "view",
      "type": "function"
    },
    {
      "inputs": [],
      "name": "owner",
      "outputs": [
        {
          "internalType": "address",
          "name": "",
          "type": "address"
        }
      ],
      "stateMutability": "view",
      "type": "function"
    },
    {
      "inputs": [
        {
          "internalType": "address",
          "name": "",
          "type": "address"
        },
        {
          "internalType": "address",
          "name": "",
          "type": "address"
        }
      ],
      "name": "pairFor",
      "outputs": [
        {
          "internalType": "address",
          "name": "",
          "type": "address"
        }
      ],
      "stateMutability": "view",
      "type": "function"
    },
    {
      "inputs": [
        {
          "internalType": "address",
          "name": "",
          "type": "address"
        }
      ],
      "name": "pairs",
      "outputs": [
        {
          "internalType": "address",
          "name": "token0",
          "type": "address"
        },
        {
          "internalType": "address",
          "name": "token1",
          "type": "address"
        },
        {
          "internalType": "enum ListStatus",
          "name": "status",
          "type": "uint8"
        }
      ],
      "stateMutability": "view",
      "type": "function"
    },
    {
      "inputs": [],
      "name": "pause",
      "outputs": [],
      "stateMutability": "nonpayable",
      "type": "function"
    },
    {
      "inputs": [],
      "name": "paused",
      "outputs": [
        {
          "internalType": "bool",
          "name": "",
          "type": "bool"
        }
      ],
      "stateMutability": "view",
      "type": "function"
    },
    {
      "inputs": [
        {
          "internalType": "address",
          "name": "account",
          "type": "address"
        },
        {
          "internalType": "uint256",
          "name": "principal",
          "type": "uint256"
        },
        {
          "components": [
            {
              "internalType": "uint32",
              "name": "accountant",
              "type": "uint32"
            }
          ],
          "internalType": "struct FeeRates",
          "name": "rates",
          "type": "tuple"
        },
        {
          "internalType": "bool",
          "name": "fromAllowance",
          "type": "bool"
        }
      ],
      "name": "payFeeTgrLogic",
      "outputs": [
        {
          "internalType": "uint256",
          "name": "feesPaid",
          "type": "uint256"
        }
      ],
      "stateMutability": "nonpayable",
      "type": "function"
    },
    {
      "inputs": [],
      "name": "prevNode",
      "outputs": [
        {
          "internalType": "address",
          "name": "",
          "type": "address"
        }
      ],
      "stateMutability": "view",
      "type": "function"
    },
    {
      "inputs": [],
      "name": "pulse_lp_reward",
      "outputs": [],
      "stateMutability": "nonpayable",
      "type": "function"
    },
    {
      "inputs": [],
      "name": "pulse_user_burn",
      "outputs": [],
      "stateMutability": "nonpayable",
      "type": "function"
    },
    {
      "inputs": [],
      "name": "pulse_vote_burn",
      "outputs": [],
      "stateMutability": "nonpayable",
      "type": "function"
    },
    {
      "inputs": [
        {
          "internalType": "enum ActionType",
          "name": "actionType",
          "type": "uint8"
        },
        {
          "internalType": "bool",
          "name": "blockReentry",
          "type": "bool"
        }
      ],
      "name": "registerAction",
      "outputs": [
        {
          "components": [
            {
              "internalType": "enum ActionType",
              "name": "actionType",
              "type": "uint8"
            },
            {
              "internalType": "uint256",
              "name": "session",
              "type": "uint256"
            },
            {
              "internalType": "uint256",
              "name": "lastSession",
              "type": "uint256"
            },
            {
              "internalType": "bool",
              "name": "isUserAction",
              "type": "bool"
            }
          ],
          "internalType": "struct ActionParams",
          "name": "actionParams",
          "type": "tuple"
        }
      ],
      "stateMutability": "nonpayable",
      "type": "function"
    },
    {
      "inputs": [],
      "name": "renounceOwnership",
      "outputs": [],
      "stateMutability": "nonpayable",
      "type": "function"
    },
    {
      "inputs": [],
      "name": "resume",
      "outputs": [],
      "stateMutability": "nonpayable",
      "type": "function"
    },
    {
      "inputs": [
        {
          "internalType": "uint256",
          "name": "amount",
          "type": "uint256"
        }
      ],
      "name": "returnVotes",
      "outputs": [],
      "stateMutability": "nonpayable",
      "type": "function"
    },
    {
      "inputs": [],
      "name": "session",
      "outputs": [
        {
          "internalType": "uint256",
          "name": "",
          "type": "uint256"
        }
      ],
      "stateMutability": "view",
      "type": "function"
    },
    {
      "inputs": [
        {
          "internalType": "enum ActionType",
          "name": "",
          "type": "uint8"
        }
      ],
      "name": "sessionsLastSeenBySType",
      "outputs": [
        {
          "internalType": "uint256",
          "name": "",
          "type": "uint256"
        }
      ],
      "stateMutability": "view",
      "type": "function"
    },
    {
      "inputs": [
        {
          "internalType": "enum ActionType",
          "name": "_sessionType",
          "type": "uint8"
        },
        {
          "components": [
            {
              "internalType": "uint32",
              "name": "accountant",
              "type": "uint32"
            }
          ],
          "internalType": "struct FeeRates",
          "name": "_feeRates",
          "type": "tuple"
        },
        {
          "internalType": "address",
          "name": "caller",
          "type": "address"
        }
      ],
      "name": "setFeeRates",
      "outputs": [],
      "stateMutability": "nonpayable",
      "type": "function"
    },
    {
      "inputs": [
        {
          "components": [
            {
              "internalType": "address",
              "name": "accountant",
              "type": "address"
            }
          ],
          "internalType": "struct FeeStores",
          "name": "_feeStores",
          "type": "tuple"
        },
        {
          "internalType": "address",
          "name": "caller",
          "type": "address"
        }
      ],
      "name": "setFeeStores",
      "outputs": [],
      "stateMutability": "nonpayable",
      "type": "function"
    },
    {
      "inputs": [
        {
          "internalType": "enum NodeType",
          "name": "nodeType",
          "type": "uint8"
        },
        {
          "internalType": "address",
          "name": "node",
          "type": "address"
        },
        {
          "internalType": "address",
          "name": "caller",
          "type": "address"
        }
      ],
      "name": "setNode",
      "outputs": [],
      "stateMutability": "nonpayable",
      "type": "function"
    },
    {
      "inputs": [],
      "name": "symbol",
      "outputs": [
        {
          "internalType": "string",
          "name": "",
          "type": "string"
        }
      ],
      "stateMutability": "view",
      "type": "function"
    },
    {
      "inputs": [
        {
          "internalType": "uint256",
          "name": "amount",
          "type": "uint256"
        }
      ],
      "name": "takeVotes",
      "outputs": [],
      "stateMutability": "nonpayable",
      "type": "function"
    },
    {
      "inputs": [],
      "name": "tgrBusd",
      "outputs": [
        {
          "internalType": "address",
          "name": "",
          "type": "address"
        }
      ],
      "stateMutability": "view",
      "type": "function"
    },
    {
      "inputs": [],
      "name": "tgrFtm",
      "outputs": [
        {
          "internalType": "address",
          "name": "",
          "type": "address"
        }
      ],
      "stateMutability": "view",
      "type": "function"
    },
    {
      "inputs": [],
      "name": "totalSupply",
      "outputs": [
        {
          "internalType": "uint256",
          "name": "",
          "type": "uint256"
        }
      ],
      "stateMutability": "view",
      "type": "function"
    },
    {
      "inputs": [
        {
          "internalType": "address",
          "name": "recipient",
          "type": "address"
        },
        {
          "internalType": "uint256",
          "name": "amount",
          "type": "uint256"
        }
      ],
      "name": "transfer",
      "outputs": [
        {
          "internalType": "bool",
          "name": "",
          "type": "bool"
        }
      ],
      "stateMutability": "nonpayable",
      "type": "function"
    },
    {
      "inputs": [
        {
          "internalType": "address",
          "name": "sender",
          "type": "address"
        },
        {
          "internalType": "address",
          "name": "recipient",
          "type": "address"
        },
        {
          "internalType": "uint256",
          "name": "amount",
          "type": "uint256"
        }
      ],
      "name": "transferDirectSafe",
      "outputs": [],
      "stateMutability": "nonpayable",
      "type": "function"
    },
    {
      "inputs": [
        {
          "internalType": "address",
          "name": "sender",
          "type": "address"
        },
        {
          "internalType": "address",
          "name": "recipient",
          "type": "address"
        },
        {
          "internalType": "uint256",
          "name": "amount",
          "type": "uint256"
        }
      ],
      "name": "transferFrom",
      "outputs": [
        {
          "internalType": "bool",
          "name": "",
          "type": "bool"
        }
      ],
      "stateMutability": "nonpayable",
      "type": "function"
    },
    {
      "inputs": [
        {
          "internalType": "address",
          "name": "newOwner",
          "type": "address"
        }
      ],
      "name": "transferOwnership",
      "outputs": [],
      "stateMutability": "nonpayable",
      "type": "function"
    },
    {
      "inputs": [],
      "name": "unregisterAction",
      "outputs": [],
      "stateMutability": "nonpayable",
      "type": "function"
    },
    {
      "inputs": [],
      "name": "user_burn",
      "outputs": [
        {
          "internalType": "uint256",
          "name": "latestBNumber",
          "type": "uint256"
        },
        {
          "internalType": "uint256",
          "name": "cycleBlocks",
          "type": "uint256"
        },
        {
          "internalType": "uint256",
          "name": "decayRate",
          "type": "uint256"
        },
        {
          "internalType": "address",
          "name": "account",
          "type": "address"
        },
        {
          "internalType": "uint256",
          "name": "sum_tokens",
          "type": "uint256"
        },
        {
          "internalType": "uint256",
          "name": "burnDone",
          "type": "uint256"
        },
        {
          "internalType": "uint256",
          "name": "latestRound",
          "type": "uint256"
        },
        {
          "internalType": "uint256",
          "name": "initialRound",
          "type": "uint256"
        },
        {
          "internalType": "uint256",
          "name": "latestNet",
          "type": "uint256"
        },
        {
          "internalType": "uint256",
          "name": "VIRTUAL",
          "type": "uint256"
        }
      ],
      "stateMutability": "view",
      "type": "function"
    },
    {
      "inputs": [],
      "name": "vote_burn",
      "outputs": [
        {
          "internalType": "uint256",
          "name": "latestBNumber",
          "type": "uint256"
        },
        {
          "internalType": "uint256",
          "name": "cycleBlocks",
          "type": "uint256"
        },
        {
          "internalType": "uint256",
          "name": "decayRate",
          "type": "uint256"
        },
        {
          "internalType": "address",
          "name": "account",
          "type": "address"
        },
        {
          "internalType": "uint256",
          "name": "sum_tokens",
          "type": "uint256"
        },
        {
          "internalType": "uint256",
          "name": "burnDone",
          "type": "uint256"
        },
        {
          "internalType": "uint256",
          "name": "latestRound",
          "type": "uint256"
        },
        {
          "internalType": "uint256",
          "name": "initialRound",
          "type": "uint256"
        },
        {
          "internalType": "uint256",
          "name": "latestNet",
          "type": "uint256"
        },
        {
          "internalType": "uint256",
          "name": "VIRTUAL",
          "type": "uint256"
        }
      ],
      "stateMutability": "view",
      "type": "function"
    },
    {
      "inputs": [
        {
          "internalType": "address",
          "name": "_prevNode",
          "type": "address"
        },
        {
          "internalType": "address",
          "name": "_nextNode",
          "type": "address"
        }
      ],
      "name": "wire",
      "outputs": [],
      "stateMutability": "nonpayable",
      "type": "function"
    },
    {
      "stateMutability": "payable",
      "type": "receive"
    }
  ],
  "bytecode": "0x60a06040523480156200001157600080fd5b5060405162005e3838038062005e38833981016040819052620000349162000e56565b6000805460ff1916905562000049336200040c565b604680546001600160a01b0319166001600160a01b0383161790556200006c3390565b604280546001600160a01b03929092166001600160a01b03199283161790556043805482167370997970c51812dc3a010c7d01b50e0d17dc79c8179055604480548216733c44cdddb6a900fa2b585dd299e03d12fa4293bc179055604580549091167390f79bf6eb2c4f870365e785982e1f101e93b9061790556040516200010c9043409060200163766f746560e01b8152600481019190915260240190565b60408051601f1981840301815282825280516020918201206001600160a01b0390811660809081526101408501845243808652601e9386018490526102b2948601949094526008549091166060850152600090840181905260a0840152919060c08201906200017d90849062000ead565b81526020016200018e834362000ead565b8152600060208083018290526040928301829052835181558381015160215583830151602255606080850151602380546001600160a01b0319166001600160a01b0392831617905560808087015160245560a08088015160255560c08089015160265560e08901516027556101008901516028556101209098015160295586516101408101885243808252601e9682018790526046988201989098528251909316938301939093528101849052908101929092529350918201906200025590849062000ead565b815260200162000266834362000ead565b81526000602080830182905260409283018290528351602a5583810151602b5583830151602c55606080850151602d80546001600160a01b0319166001600160a01b03909216919091179055608080860151602e5560a080870151602f5560c08088015160305560e08801516031556101008801516032556101209097015160335585516101408101875243808252601e958201869052610309978201979097529283018590529082018490528101929092529350918201906200032c90849062000ead565b81526020016200033d834362000ead565b8152600060208083018290526040928301919091528251603455820151603555818101516036556060820151603780546001600160a01b0319166001600160a01b03909216919091179055608082015160385560a082015160395560c0820151603a5560e0820151603b55610100820151603c5561012090910151603d55617ab7905561343e604155600e805462ffffff19166201010117905562000404620003e33390565b620003f16012600662000ed0565b620003fe90600a62000fe8565b6200046a565b5050620010af565b600e80546001600160a01b0383811663010000008181026301000000600160b81b031985161790945560405193909204169182907f8be0079c531659141344cd1fd0a4f28419497f9722a3daafe3b4186f6b6457e090600090a35050565b60408051808201909152600c81526b5a65726f206164647265737360a01b60208201526001600160a01b038316620004c05760405162461bcd60e51b8152600401620004b7919062000ff6565b60405180910390fd5b50620004cf8282600162000519565b6040518181526001600160a01b038316906000907fddf252ad1be2c89b69c2b068fc378daa952ba7f163c4a11628f55a4df523b3ef9060200160405180910390a35050565b505050565b62000524836200096b565b156200089157603c546001600160a01b0384166000908152601d6020526040902054620005529190620009b0565b50603d546001600160a01b0384166000908152603e60205260409020600101546200057e9190620009b0565b506000806200058d85620009d8565b6001600160a01b0387166000908152603e602052604090208290559092509050801562000633576001600160a01b0385166000908152601d6020526040902054620005d99082620009b0565b6001600160a01b0386166000908152601d6020526040902055603854620006019082620009b0565b603855601c54620006139082620009b0565b601c55603980548291906000906200062d90849062000ed0565b90915550505b8215620006a7576001600160a01b0385166000908152601d6020526040812080548692906200066490849062000ed0565b9091555050603880548591906000906200068090849062000ed0565b9250508190555083601c60008282546200069b919062000ed0565b909155506200070a9050565b6001600160a01b0385166000908152601d6020526040902054620006cc9085620009b0565b6001600160a01b0386166000908152601d6020526040902055603854620006f49085620009b0565b603855601c54620007069085620009b0565b601c555b6001600160a01b0385166000908152601d6020526040812054603c8054919290916200073890849062000ed0565b909155505060465460009081906001600160a01b0316635aff34dc620007616005600a62000fe8565b603654620007726005600a62000fe8565b6200077e91906200104e565b6001600160a01b038b166000908152603e60205260409081902054905160e085901b6001600160e01b0319168152600481019390935260248301919091526044820152600160648201526084016040805180830381865afa158015620007e8573d6000803e3d6000fd5b505050506040513d601f19601f820116820180604052508101906200080e919062001068565b6001600160a01b0389166000908152601d60205260408120549294509092509082906200083d9085906200108d565b62000849919062000ead565b6001600160a01b0389166000908152603e60205260408120600101829055603d805492935083929091906200088090849062000ed0565b909155506200051495505050505050565b801562000904576001600160a01b0383166000908152601d602052604081208054849290620008c290849062000ed0565b9250508190555081603f6000828254620008dd919062000ed0565b9250508190555081601c6000828254620008f8919062000ed0565b90915550620005149050565b6001600160a01b0383166000908152601d6020526040902054620009299083620009b0565b6001600160a01b0384166000908152601d6020526040902055603f54620009519083620009b0565b603f55601c54620009639083620009b0565b601c55505050565b6001600160a01b038181166000908152600a6020526040812054909116158015620009aa57506080516001600160a01b0316826001600160a01b031614155b92915050565b600081831115620009cf57620009c782846200104e565b9050620009aa565b50600092915050565b604080516101408101825260345481526035546020808301918252603654838501526037546001600160a01b039081166060850152603854608085015260395460a0850152603a5460c0850152603b5460e08501908152603c54610100860152603d546101208601529086166000908152603e83528581208651808801909752805487526001015492860192909252519151909384939290918491829162000a81904362000ead565b62000a8d91906200104e565b9150600062000aa7838560000151620009b060201b60201c565b604654604087015191925060009182916001600160a01b031690635aff34dc9062000ad56005600a62000fe8565b62000ae191906200104e565b62000aef6005600a62000fe8565b6040516001600160e01b031960e085901b1681526004810192909252602482015260448101869052600160648201526084016040805180830381865afa15801562000b3e573d6000803e3d6000fd5b505050506040513d601f19601f8201168201806040525081019062000b64919062001068565b91509150600062000b8764e8d4a51000848462000bea60201b62002d761760201c565b905062000b9a8164e8d4a510006200104e565b6001600160a01b038c166000908152601d60205260408120549196509064e8d4a510009062000bcb9088906200108d565b62000bd7919062000ead565b969c969b50959950505050505050505050565b6000808062000bfa868662000ce7565b915091508160000362000c245783818162000c195762000c1962000e81565b049250505062000ce0565b8382101562000cdb57600062000c3c87878762000d3b565b905060008062000c4e85858562000d59565b915091508160000362000c7b5786818162000c6d5762000c6d62000e81565b049550505050505062000ce0565b60008762000c8a828262000d8f565b169050600062000c9c84848462000d9d565b9050600062000cbd838b8162000cb65762000cb662000e81565b0462000df4565b905062000ccb828262000e39565b9850505050505050505062000ce0565b600080fd5b9392505050565b6000808062000cf7858562000e47565b9050600062000d07868662000e39565b905080821062000d1f57908190039250905062000d34565b600162000d2d838362000d8f565b0393509150505b9250929050565b6000818062000d4e5762000d4e62000e81565b838509949350505050565b60008082841062000d71575083905081830362000d87565b600019850162000d82858562000d8f565b915091505b935093915050565b600062000ce082846200104e565b60008062000dc98362000db1838262000d8f565b8162000dc15762000dc162000e81565b506000919050565b905082848162000ddd5762000ddd62000e81565b0462000dea868362000e39565b1795945050505050565b60006001815b600881101562000e325762000e278262000e21600262000e1b838962000e39565b62000d8f565b62000e39565b915060010162000dfa565b5092915050565b600062000ce082846200108d565b60006000198284099392505050565b60006020828403121562000e6957600080fd5b81516001600160a01b038116811462000ce057600080fd5b634e487b7160e01b600052601260045260246000fd5b634e487b7160e01b600052601160045260246000fd5b60008262000ecb57634e487b7160e01b600052601260045260246000fd5b500490565b6000821982111562000ee65762000ee662000e97565b500190565b600181815b8085111562000f2c57816000190482111562000f105762000f1062000e97565b8085161562000f1e57918102915b93841c939080029062000ef0565b509250929050565b60008262000f4557506001620009aa565b8162000f5457506000620009aa565b816001811462000f6d576002811462000f785762000f98565b6001915050620009aa565b60ff84111562000f8c5762000f8c62000e97565b50506001821b620009aa565b5060208310610133831016604e8410600b841016171562000fbd575081810a620009aa565b62000fc9838362000eeb565b806000190482111562000fe05762000fe062000e97565b029392505050565b600062000ce0838362000f34565b600060208083528351808285015260005b81811015620010255785810183015185820160400152820162001007565b8181111562001038576000604083870101525b50601f01601f1916929092016040019392505050565b60008282101562001063576200106362000e97565b500390565b600080604083850312156200107c57600080fd5b505080516020909101519092909150565b6000816000190483118215151615620010aa57620010aa62000e97565b500290565b608051614d6d620010cb6000396000613b7c0152614d6d6000f3fe60806040526004361061036f5760003560e01c80638456cb59116101c6578063a51bb24e116100f7578063e729a45511610095578063ed2deb8b1161006f578063ed2deb8b14610b7f578063f2fde38b14610b8b578063f9a21e8a14610bab578063fe33b30214610bcb57600080fd5b8063e729a45514610b27578063eca4c46614610b3c578063ecd6f46a14610b5257600080fd5b8063cd193c43116100d1578063cd193c4314610a81578063cd537aa114610aa1578063cdd9224c14610ac1578063dd62ed3e14610ae157600080fd5b8063a51bb24e14610a21578063a9059cbb14610a41578063c5921fe914610a6157600080fd5b8063934923a3116101645780639dc29fac1161013e5780639dc29fac1461097d578063a13c1f671461099d578063a150da2a146109e1578063a457c2d714610a0157600080fd5b8063934923a3146108f057806395d89b411461091057806396ed28f91461093c57600080fd5b806390e3677f116101a057806390e3677f146108705780639154961e1461089057806391fd0db7146108b0578063928879d6146108d057600080fd5b80638456cb5914610836578063893d20e81461084b5780638da5cb5b1461084b57600080fd5b806339509351116102a05780635e3568b81161023e5780636c93564f116102185780636c93564f1461078857806370a08231146107cc578063715018a6146107ec578063739572891461080157600080fd5b80635e3568b81461073257806365715c561461074857806368fb3c721461076857600080fd5b80634be548271161027a5780634be54827146106a957806354abe9d0146106d65780635c975abb146106f65780635d392daa1461071057600080fd5b8063395093511461065457806340c10f1914610674578063431b3c301461069457600080fd5b806318160ddd1161030d57806330ccebb5116102e757806330ccebb514610523578063313ce5671461058d57806332cb6b0c146105a95780633660777d146105be57600080fd5b806318160ddd146104bb57806323b872dd146104de578063249dfad7146104fe57600080fd5b8063095ea7b311610349578063095ea7b3146103eb57806309b16a221461041b5780630c3d536b14610453578063102247111461047357600080fd5b8063046f7da21461037b57806306fdde0314610392578063086a606c146103d657600080fd5b3661037657005b600080fd5b34801561038757600080fd5b50610390610c27565b005b34801561039e57600080fd5b506040805180820190915260098152682a23a9102a37b5b2b760b91b60208201525b6040516103cd9190614210565b60405180910390f35b3480156103e257600080fd5b50610390610c97565b3480156103f757600080fd5b5061040b61040636600461423a565b611123565b60405190151581526020016103cd565b34801561042757600080fd5b5060085461043b906001600160a01b031681565b6040516001600160a01b0390911681526020016103cd565b34801561045f57600080fd5b5060095461043b906001600160a01b031681565b34801561047f57600080fd5b506104a661048e366004614271565b600d6020526000908152604090205463ffffffff1681565b60405163ffffffff90911681526020016103cd565b3480156104c757600080fd5b506104d061113a565b6040519081526020016103cd565b3480156104ea57600080fd5b5061040b6104f936600461428e565b611149565b34801561050a57600080fd5b5060005461043b9061010090046001600160a01b031681565b34801561052f57600080fd5b5061054361053e3660046142ca565b6111fb565b604080519a8b5260208b0199909952978901969096526060880194909452608087019290925260a086015260c085015260e0840152610100830152610120820152610140016103cd565b34801561059957600080fd5b50604051601281526020016103cd565b3480156105b557600080fd5b506104d061127f565b3480156105ca57600080fd5b50602a54602b54602c54602d54602e54602f54603054603154603254603354610602999897966001600160a01b03169594939291908a565b604080519a8b5260208b0199909952978901969096526001600160a01b039094166060880152608087019290925260a086015260c085015260e0840152610100830152610120820152610140016103cd565b34801561066057600080fd5b5061040b61066f36600461423a565b6112a4565b34801561068057600080fd5b5061039061068f36600461423a565b6112b1565b3480156106a057600080fd5b50610390611368565b3480156106b557600080fd5b506106c96106c43660046142f3565b611429565b6040516103cd9190614356565b3480156106e257600080fd5b506103906106f13660046142ca565b611750565b34801561070257600080fd5b5060145461040b9060ff1681565b34801561071c57600080fd5b50610725611873565b6040516103cd919061438f565b34801561073e57600080fd5b506104d0600f5481565b34801561075457600080fd5b5060015461043b906001600160a01b031681565b34801561077457600080fd5b506104d061078336600461439d565b6118a5565b34801561079457600080fd5b50603454603554603654603754603854603954603a54603b54603c54603d54610602999897966001600160a01b03169594939291908a565b3480156107d857600080fd5b506104d06107e73660046142ca565b61190d565b3480156107f857600080fd5b50610390611918565b34801561080d57600080fd5b50610816611956565b6040805194855260208501939093529183015260608201526080016103cd565b34801561084257600080fd5b50610390611a51565b34801561085757600080fd5b50600e54630100000090046001600160a01b031661043b565b34801561087c57600080fd5b5061039061088b3660046143f7565b611abf565b34801561089c57600080fd5b506103906108ab36600461442a565b611b5d565b3480156108bc57600080fd5b506103906108cb36600461448a565b611ca0565b3480156108dc57600080fd5b506103906108eb366004614516565b611e5a565b3480156108fc57600080fd5b5060075461043b906001600160a01b031681565b34801561091c57600080fd5b506040805180820190915260038152622a23a960e91b60208201526103c0565b34801561094857600080fd5b5061043b6109573660046143f7565b600b6020908152600092835260408084209091529082529020546001600160a01b031681565b34801561098957600080fd5b5061039061099836600461423a565b611f15565b3480156109a957600080fd5b50602054602154602254602354602454602554602654602754602854602954610602999897966001600160a01b03169594939291908a565b3480156109ed57600080fd5b5061040b6109fc36600461428e565b611f51565b348015610a0d57600080fd5b5061040b610a1c36600461423a565b611fd8565b348015610a2d57600080fd5b50610390610a3c366004614556565b611fe5565b348015610a4d57600080fd5b5061040b610a5c36600461423a565b61207e565b348015610a6d57600080fd5b50610390610a7c36600461442a565b61208b565b348015610a8d57600080fd5b50610390610a9c366004614578565b6121c1565b348015610aad57600080fd5b50610390610abc36600461428e565b61265d565b348015610acd57600080fd5b50610390610adc3660046145e3565b612ab5565b348015610aed57600080fd5b506104d0610afc3660046143f7565b6001600160a01b039182166000908152601b6020908152604080832093909416825291909152205490565b348015610b3357600080fd5b50610390612c7a565b348015610b4857600080fd5b506104d060105481565b348015610b5e57600080fd5b506104d0610b6d366004614271565b60116020526000908152604090205481565b34801561039057600080fd5b348015610b9757600080fd5b50610390610ba63660046142ca565b612cd6565b348015610bb757600080fd5b50600c5461043b906001600160a01b031681565b348015610bd757600080fd5b50610c18610be63660046142ca565b600a60205260009081526040902080546001909101546001600160a01b0391821691811690600160a01b900460ff1683565b6040516103cd93929190614655565b600e54630100000090046001600160a01b03166001600160a01b0316336001600160a01b031614610c8b5760405162461bcd60e51b81526020600482015260096024820152682737ba1037bbb732b960b91b60448201526064015b60405180910390fd5b6014805460ff19169055565b6000610ca36020612e4c565b90508015611120576000610cb630612f03565b9050600064e8d4a5100083600860009054906101000a90046001600160a01b03166001600160a01b03166318160ddd6040518163ffffffff1660e01b8152600401602060405180830381865afa158015610d14573d6000803e3d6000fd5b505050506040513d601f19601f82011682018060405250810190610d38919061467a565b610d4291906146a9565b610d4c91906146de565b6004805460405162d1b00d60e71b81523092810183905260248101849052600060448201819052606482019390935243608482015292935090916001600160a01b03909116906368d806809060a4016020604051808303816000875af1158015610dba573d6000803e3d6000fd5b505050506040513d601f19601f82011682018060405250810190610dde919061467a565b905082610dea30612f03565b610df49190614700565b9250610e003084612fa8565b610e23604051806060016040528060278152602001614d1160279139828561309e565b604080516002808252606082018352600092602083019080368337019050509050735fc8d32690cc91d4c39d9d3abcbd16989f87570781600081518110610e6c57610e6c614717565b60200260200101906001600160a01b031690816001600160a01b03168152505073b7f8bc63bbcad18155201308c8f3540b07f84f5e81600181518110610eb457610eb4614717565b6001600160a01b0392909216602092830291909101909101526040516370a0823160e01b815230600482015260009073b7f8bc63bbcad18155201308c8f3540b07f84f5e906370a0823190602401602060405180830381865afa158015610f1f573d6000803e3d6000fd5b505050506040513d601f19601f82011682018060405250810190610f43919061467a565b600554604051637ff36ab560e01b81529192506001600160a01b031690637ff36ab5908590610f7d9060009087903090439060040161472d565b60006040518083038185885af1158015610f9b573d6000803e3d6000fd5b50505050506040513d6000823e601f3d908101601f19168201604052610fc49190810190614797565b506040516370a0823160e01b8152306004820152819073b7f8bc63bbcad18155201308c8f3540b07f84f5e906370a0823190602401602060405180830381865afa158015611016573d6000803e3d6000fd5b505050506040513d601f19601f8201168201806040525081019061103a919061467a565b6110449190614700565b90506110856040518060400160405280601881526020017f48545a206761696e65642062792073776170202d2d2d2d2d0000000000000000815250826130e5565b60405163a9059cbb60e01b815273f39fd6e51aad88f6f4ce6ab8827279cfffb9226660048201526024810182905273b7f8bc63bbcad18155201308c8f3540b07f84f5e9063a9059cbb906044016020604051808303816000875af11580156110f1573d6000803e3d6000fd5b505050506040513d601f19601f82011682018060405250810190611115919061483d565b505043602055505050505b50565b600061113033848461312a565b5060015b92915050565b6000611144613219565b905090565b60006001600160a01b03841633146111e5576001600160a01b0384166000908152601b60209081526040808320338452909152902054828110156111cf5760405162461bcd60e51b815260206004820152601a60248201527f5472616e73666572206578636565647320616c6c6f77616e63650000000000006044820152606401610c82565b6111e385336111de8685614700565b61312a565b505b6111f084848461322e565b5060015b9392505050565b601c54603854603f546000808080808080611214613252565b603a54603d546001600160a01b038e166000908152601d6020526040902054929950909750955093506112468b613341565b6001600160a01b03909c166000908152603e6020526040902080546001909101549b9d9a9c999b989a9799969895979095945092505050565b61128b6012600661485a565b61129690600a614956565b6112a190600a6146a9565b81565b60006111f433848461352b565b600e546001600160a01b0363010000009091041633146112e35760405162461bcd60e51b8152600401610c8290614962565b6112ef6012600661485a565b6112fa90600a614956565b61130590600a6146a9565b8161130e613219565b611318919061485a565b111561135a5760405162461bcd60e51b8152602060048201526011602482015270457863656564204d617820537570706c7960781b6044820152606401610c82565b61136482826135b2565b5050565b60025433906001600160a01b031681148061139057506004546001600160a01b038281169116145b806113a857506005546001600160a01b038281169116145b6113c45760405162461bcd60e51b8152600401610c8290614997565b60006012601354601481106113db576113db614717565b602091828204019190066101000a81548160ff021916908360058111156114045761140461432c565b0217905550601354156111205760138054906000611421836149c6565b919050555050565b60408051608081018252600080825260208201819052918101829052606081019190915260025433906001600160a01b031681148061147557506004546001600160a01b038281169116145b8061148d57506005546001600160a01b038281169116145b6114a95760405162461bcd60e51b8152600401610c8290614997565b60145460ff16156114ec5760405162461bcd60e51b815260206004820152600d60248201526c14de5cdd195b481c185d5cd959609a1b6044820152606401610c82565b60008460058111156115005761150061432c565b0361153e5760405162461bcd60e51b815260206004820152600e60248201526d24b73b30b634b21030b1ba34b7b760911b6044820152606401610c82565b82156115e75760005b60135481116115e5578460058111156115625761156261432c565b6012826014811061157557611575614717565b602081049091015460ff601f9092166101000a900416600581111561159c5761159c61432c565b036115d35760405162461bcd60e51b81526020600482015260076024820152665265656e74727960c81b6044820152606401610c82565b806115dd816149dd565b915050611547565b505b60135415801561160e575060125460009060ff16600581111561160c5761160c61432c565b145b6116285760138054906000611622836149dd565b91905055505b60146013541061166b5760405162461bcd60e51b815260206004820152600e60248201526d537461636b206f766572666c6f7760901b6044820152606401610c82565b8360126013546014811061168157611681614717565b602091828204019190066101000a81548160ff021916908360058111156116aa576116aa61432c565b0217905550818460058111156116c2576116c261432c565b908160058111156116d5576116d561432c565b90525060135415606083015260405160009061170990439032906020019182526001600160a01b0316602082015260400190565b6040516020818303038152906040528051906020012060001c905080600f541461173857600f80546010558190555b5050600f546020820152601054604082015292915050565b60005461010090046001600160a01b031633148061176d57503330145b8061179b5750600e54630100000090046001600160a01b03166001600160a01b0316336001600160a01b0316145b6117b75760405162461bcd60e51b8152600401610c82906149f6565b6001600160a01b0381163014611847576001546001600160a01b03908116906354abe9d0908316156117e957826117eb565b305b6040516001600160e01b031960e084901b1681526001600160a01b039091166004820152602401600060405180830381600087803b15801561182c57600080fd5b505af1158015611840573d6000803e3d6000fd5b5050505050565b6040517ffd3415c24b2b4519f08b7935c13f86ea010c77b3ff9bf448a474ae3b2414fce090600090a150565b600060126013546014811061188a5761188a614717565b602081049091015460ff601f9092166101000a900416919050565b60025460009033906001600160a01b03168114806118d057506004546001600160a01b038281169116145b806118e857506005546001600160a01b038281169116145b6119045760405162461bcd60e51b8152600401610c8290614997565b50949350505050565b600061113482612f03565b600e546001600160a01b03630100000090910416331461194a5760405162461bcd60e51b8152600401610c8290614962565b611954600061364e565b565b600080600080611964613252565b60425490945060009061197f906001600160a01b0316613341565b915061198d9050818561485a565b6043549094506119a5906001600160a01b0316613341565b91506119b39050818561485a565b6044549094506119cb906001600160a01b0316613341565b91506119d99050818561485a565b6045549094506119f1906001600160a01b0316613341565b91506119ff9050818561485a565b935083851015611a1a57611a138585614700565b9250611a27565b611a248486614700565b92505b8415611a4a5784611a3d8464e8d4a510006146a9565b611a4791906146de565b91505b5090919293565b600e54630100000090046001600160a01b03166001600160a01b0316336001600160a01b031614611ab05760405162461bcd60e51b81526020600482015260096024820152682737ba1037bbb732b960b91b6044820152606401610c82565b6014805460ff19166001179055565b600e54630100000090046001600160a01b03166001600160a01b0316336001600160a01b031614611b255760405162461bcd60e51b815260206004820152601060248201526f496e76616c69642063616c6c6572203360801b6044820152606401610c82565b60008054610100600160a81b0319166101006001600160a01b0394851602179055600180546001600160a01b03191691909216179055565b601f5433906000908103611b8257611b7b64e8d4a5100060646146a9565b9050611bbd565b601f54602d546001600160a01b03166000908152601d6020526040902054611bb09064e8d4a51000906146a9565b611bba91906146de565b90505b600064e8d4a51000611bcf85846146a9565b611bd991906146de565b6001600160a01b0384166000908152601e6020526040902054909150841115611c3d5760405162461bcd60e51b8152602060048201526016602482015275616d6f756e7420657863656564696e6720766f74657360501b6044820152606401610c82565b602d54611c54906001600160a01b031684836136ac565b6001600160a01b0383166000908152601e602052604081208054869290611c7c908490614700565b9250508190555083601f6000828254611c959190614700565b909155505050505050565b60005461010090046001600160a01b0316331480611cbd57503330145b80611ceb5750600e54630100000090046001600160a01b03166001600160a01b0316336001600160a01b0316145b611d075760405162461bcd60e51b8152600401610c82906149f6565b6001600160a01b0381163014611e1b57600e5462010000900460ff1615611d9557604051634f18125b60e01b815273__$88bebae22a3ad6e62b56c303176513ecf8$__90634f18125b90611d64908690600d908790600401614a20565b60006040518083038186803b158015611d7c57600080fd5b505af4158015611d90573d6000803e3d6000fd5b505050505b60006001600160a01b03821615611dac5781611dae565b305b6001546040516391fd0db760e01b81529192506001600160a01b0316906391fd0db790611de390879087908690600401614a49565b600060405180830381600087803b158015611dfd57600080fd5b505af1158015611e11573d6000803e3d6000fd5b5050505050505050565b7fb4040436d4754da72f29d5b97fe68448f30d44ac0e08b33545cbf6f28b7641d98383604051611e4c929190614a7b565b60405180910390a15b505050565b60005461010090046001600160a01b0316331480611e7757503330145b80611ea55750600e54630100000090046001600160a01b03166001600160a01b0316336001600160a01b0316145b611ec15760405162461bcd60e51b8152600401610c82906149f6565b611ecc838383613805565b6000836004811115611ee057611ee061432c565b03611e5557601980546001600160a01b0384166001600160a01b03199182168117909255601a80549091169091179055505050565b600e546001600160a01b036301000000909104163314611f475760405162461bcd60e51b8152600401610c8290614962565b6113648282612fa8565b60408051808201909152600c81526b5a65726f206164647265737360a01b60208201526000906001600160a01b038516611f9e5760405162461bcd60e51b8152600401610c829190614210565b506001600160a01b038085166000908152601b60209081526040808320938716835292905220546111f090859085906111de908690614700565b60006111f4338484611f51565b600e546001600160a01b0363010000009091041633146120175760405162461bcd60e51b8152600401610c8290614962565b6120236005600a614956565b821115801561203d57506120396005600a614956565b8111155b6113645760405162461bcd60e51b8152602060048201526012602482015271496e76616c6964206275726e20726174657360701b6044820152606401610c82565b600061113033848461322e565b601f54339060009081036120b0576120a964e8d4a5100060646146a9565b90506120eb565b601f54602d546001600160a01b03166000908152601d60205260409020546120de9064e8d4a51000906146a9565b6120e891906146de565b90505b600064e8d4a510006120fd85846146a9565b61210791906146de565b6001600160a01b0384166000908152601d60205260409020549091508111156121685760405162461bcd60e51b815260206004820152601360248201527273686f7274206f662054475220746f6b656e7360681b6044820152606401610c82565b602d546121809084906001600160a01b0316836136ac565b6001600160a01b0383166000908152601e6020526040812080548692906121a890849061485a565b9250508190555083601f6000828254611c95919061485a565b60005461010090046001600160a01b03163314806121de57503330145b8061220c5750600e54630100000090046001600160a01b03166001600160a01b0316336001600160a01b0316145b6122285760405162461bcd60e51b8152600401610c82906149f6565b6001600160a01b038116301461261957600e5460ff161561258f576040518060600160405280856001600160a01b03168152602001846001600160a01b0316815260200183600381111561227e5761227e61432c565b90526001600160a01b038087166000908152600a6020908152604091829020845181549085166001600160a01b0319918216178255918501516001820180549190951692811683178555928501519093909290916001600160a81b031990911617600160a01b8360038111156122f6576122f661432c565b021790555050506001600160a01b038085166000818152600b60208181526040808420898716855282528084208054878d166001600160a01b03199182168117909255938352818520958552949091529182902080549091169092179091556002549051633fe59dbb60e11b815273__$88bebae22a3ad6e62b56c303176513ecf8$__92637fcb3b76926123a892899289921690730dcd1bf9a1b36ce34237eeafef220932846bcd8290600401614a9d565b602060405180830381865af41580156123c5573d6000803e3d6000fd5b505050506040513d601f19601f820116820180604052508101906123e9919061483d565b1561240a57600780546001600160a01b0319166001600160a01b0387161790555b600254604051633fe59dbb60e11b815273__$88bebae22a3ad6e62b56c303176513ecf8$__91637fcb3b769161246691889188916001600160a01b031690735fc8d32690cc91d4c39d9d3abcbd16989f87570790600401614a9d565b602060405180830381865af4158015612483573d6000803e3d6000fd5b505050506040513d601f19601f820116820180604052508101906124a7919061483d565b156124c857600880546001600160a01b0319166001600160a01b0387161790555b604051633fe59dbb60e11b815273__$88bebae22a3ad6e62b56c303176513ecf8$__90637fcb3b769061252d908790879073b7f8bc63bbcad18155201308c8f3540b07f84f5e90735fc8d32690cc91d4c39d9d3abcbd16989f87570790600401614a9d565b602060405180830381865af415801561254a573d6000803e3d6000fd5b505050506040513d601f19601f8201168201806040525081019061256e919061483d565b1561258f57600980546001600160a01b0319166001600160a01b0387161790555b60006001600160a01b038216156125a657816125a8565b305b60015460405163cd193c4360e01b81529192506001600160a01b03169063cd193c43906125e19089908990899089908890600401614ac8565b600060405180830381600087803b1580156125fb57600080fd5b505af115801561260f573d6000803e3d6000fd5b5050505050611840565b7f7af36d96fdc569564b9fadb22716716fe33463cb7fc8dca4fbd79d40448acdf28585858560405161264e9493929190614b0a565b60405180910390a15050505050565b60045433906001600160a01b03168103612791576001600160a01b038381166000908152600a6020526040902054161561271557600061269b613968565b905060038160058111156126b1576126b161432c565b036126df576126da6040518060400160405280600381526020016210591960ea1b8152506139d7565b61270f565b61270f6040518060400160405280600f81526020016e0496e636f6e73697374656e6374203608c1b8152506139d7565b50612a62565b6004546001600160a01b0390811690851603612758576127536040518060400160405280600781526020016652656d6f76653160c81b8152506139d7565b612a62565b60405162461bcd60e51b815260206004820152600e60248201526d496e636f6e73697374656e74203160901b6044820152606401610c82565b6005546001600160a01b03908116908216036128a8576001600160a01b038381166000908152600a602052604090205416156127f1576127ec6040518060400160405280600481526020016314d95b1b60e21b8152506139d7565b612865565b6005546001600160a01b039081169085160361282b576127ec6040518060400160405280600381526020016242757960e81b8152506139d7565b60405162461bcd60e51b815260206004820152600f60248201526e24b731b7b739b4b9ba32b731ba101960891b6044820152606401610c82565b60006128736005600a614956565b60405461288090856146a9565b61288a91906146de565b90506128968582612fa8565b6128a08184614700565b925050612a62565b836001600160a01b0316816001600160a01b031603612a28576001600160a01b038181166000908152600a602052604090205416156127535760006128eb613968565b905060028160058111156129015761290161432c565b0361296d5760006129146005600a614956565b60405461292190866146a9565b61292b91906146de565b90506129378682612fa8565b6129418185614700565b93506129676040518060400160405280600381526020016242757960e81b8152506139d7565b5061270f565b60048160058111156129815761298161432c565b036129ae576126da604051806040016040528060078152602001662932b6b7bb329960c91b8152506139d7565b60058160058111156129c2576129c261432c565b036129ee576126da6040518060400160405280600681526020016544696c75746560d01b8152506139d7565b60405162461bcd60e51b815260206004820152600f60248201526e496e636f6e73697374656e6374203560881b6044820152606401610c82565b60405162461bcd60e51b815260206004820152600f60248201526e2bb937b7339036b9b3a9b2b73232b960891b6044820152606401610c82565b6001600160a01b0384166000908152601d6020526040902054821115612a9e576001600160a01b0384166000908152601d602052604090205491505b8115612aaf57612aaf8484846136ac565b50505050565b60005461010090046001600160a01b0316331480612ad257503330145b80612b005750600e54630100000090046001600160a01b03166001600160a01b0316336001600160a01b0316145b612b1c5760405162461bcd60e51b8152600401610c82906149f6565b6001600160a01b0381163014612c3957600e54610100900460ff1615612bb057604051633d8d54b760e11b8152600c600482015282516001600160a01b0316602482015273__$88bebae22a3ad6e62b56c303176513ecf8$__90637b1aa96e9060440160006040518083038186803b158015612b9757600080fd5b505af4158015612bab573d6000803e3d6000fd5b505050505b60006001600160a01b03821615612bc75781612bc9565b305b600154604051633376489360e21b815285516001600160a01b039081166004830152808416602483015292935091169063cdd9224c90604401600060405180830381600087803b158015612c1c57600080fd5b505af1158015612c30573d6000803e3d6000fd5b50505050505050565b60405182516001600160a01b031681527f275664547227ddbc7a8a732c07c9346f2f4520de70c2088665cc6809534212c09060200160405180910390a15050565b6000612c86602a612e4c565b9050801561112057602d546001600160a01b03166000818152601d6020526040902054612ccf919064e8d4a5100090612cc09085906146a9565b612cca91906146de565b612fa8565b43602a5550565b600e546001600160a01b036301000000909104163314612d085760405162461bcd60e51b8152600401610c8290614962565b6001600160a01b038116612d6d5760405162461bcd60e51b815260206004820152602660248201527f4f776e61626c653a206e6577206f776e657220697320746865207a65726f206160448201526564647265737360d01b6064820152608401610c82565b6111208161364e565b6000806000612d858686613a1a565b9150915081600003612daa57838181612da057612da06146c8565b04925050506111f4565b83821015610376576000612dbf878787613a67565b9050600080612dcf858585613a82565b9150915081600003612df757868181612dea57612dea6146c8565b04955050505050506111f4565b600087612e0560008a613ab3565b1690506000612e15848484613abf565b90506000612e31838b81612e2b57612e2b6146c8565b04613b0c565b9050612e3d8282613b49565b985050505050505050506111f4565b6000808260070154836001015443612e6491906146de565b612e6e9190614700565b90508260060154811115612efd576000836006015482612e8e9190614700565b60068501839055438555600093509050825b81811015612efa57612eb46005600a614956565b6002860154612ec88664e8d4a51000614700565b612ed291906146a9565b612edc91906146de565b612ee6908561485a565b935080612ef2816149dd565b915050612ea0565b50505b50919050565b6000612f0e82613b55565b15612f88576000612f1e83613341565b6001600160a01b0385166000908152601d60205260409020549092508211159050612f6457612f64604051806060016040528060288152602001614ce9602891396139d7565b6001600160a01b0383166000908152601d60205260409020546111f4908290614700565b506001600160a01b0381166000908152601d60205260409020545b919050565b60408051808201909152600c81526b5a65726f206164647265737360a01b60208201526001600160a01b038316612ff25760405162461bcd60e51b8152600401610c829190614210565b506000612ffe83612f03565b9050818110156040518060400160405280600f81526020016e457863656564732062616c616e636560881b8152509061304a5760405162461bcd60e51b8152600401610c829190614210565b5061305783836000613bb6565b6040518281526000906001600160a01b038516907fddf252ad1be2c89b69c2b068fc378daa952ba7f163c4a11628f55a4df523b3ef906020015b60405180910390a3505050565b611e558383836040516024016130b693929190614b40565b60408051601f198184030181529190526020810180516001600160e01b031663ca47c4eb60e01b179052613fc8565b61136482826040516024016130fb929190614b65565b60408051601f198184030181529190526020810180516001600160e01b0316632d839cb360e21b179052613fc8565b60408051808201909152600c81526b5a65726f206164647265737360a01b60208201526001600160a01b0384166131745760405162461bcd60e51b8152600401610c829190614210565b5060408051808201909152600c81526b5a65726f206164647265737360a01b60208201526001600160a01b0383166131bf5760405162461bcd60e51b8152600401610c829190614210565b506001600160a01b038381166000818152601b602090815260408083209487168084529482529182902085905590518481527f8c5be1e5ebec7d5bd14f71427d1e84f3dd0314c0f7b2291e5b200ac8c7c3b9259101613091565b6000611144601c54613229613252565b613fd1565b613239600180613ff5565b801561324a5761324a8383836136ac565b611e556140c4565b60008061325f6034614128565b60465460365491925060009182916001600160a01b031690635aff34dc906132896005600a614956565b6132939190614700565b61329f6005600a614956565b6040516001600160e01b031960e085901b1681526004810192909252602482015260448101869052600160648201526084016040805180830381865afa1580156132ed573d6000803e3d6000fd5b505050506040513d601f19601f820116820180604052508101906133119190614b87565b9150915060006133276034600901548484614149565b603c54909150613338908290614700565b94505050505090565b604080516101408101825260345481526035546020808301918252603654838501526037546001600160a01b039081166060850152603854608085015260395460a0850152603a5460c0850152603b5460e08501908152603c54610100860152603d546101208601529086166000908152603e8352858120865180880190975280548752600101549286019290925251915190938493929091849182916133e890436146de565b6133f29190614700565b91506000613404838560000151613fd1565b604654604087015191925060009182916001600160a01b031690635aff34dc906134306005600a614956565b61343a9190614700565b6134466005600a614956565b6040516001600160e01b031960e085901b1681526004810192909252602482015260448101869052600160648201526084016040805180830381865afa158015613494573d6000803e3d6000fd5b505050506040513d601f19601f820116820180604052508101906134b89190614b87565b9150915060006134ce64e8d4a510008484612d76565b90506134df8164e8d4a51000614700565b6001600160a01b038c166000908152601d60205260408120549196509064e8d4a510009061350e9088906146a9565b61351891906146de565b969c969b50959950505050505050505050565b60408051808201909152600c81526b5a65726f206164647265737360a01b60208201526000906001600160a01b0385166135785760405162461bcd60e51b8152600401610c829190614210565b506001600160a01b038085166000908152601b60209081526040808320938716835292905220546111f090859085906111de90869061485a565b60408051808201909152600c81526b5a65726f206164647265737360a01b60208201526001600160a01b0383166135fc5760405162461bcd60e51b8152600401610c829190614210565b5061360982826001613bb6565b6040518181526001600160a01b038316906000907fddf252ad1be2c89b69c2b068fc378daa952ba7f163c4a11628f55a4df523b3ef9060200160405180910390a35050565b600e80546001600160a01b0383811663010000008181026301000000600160b81b031985161790945560405193909204169182907f8be0079c531659141344cd1fd0a4f28419497f9722a3daafe3b4186f6b6457e090600090a35050565b60408051808201909152600c81526b5a65726f206164647265737360a01b60208201526001600160a01b0384166136f65760405162461bcd60e51b8152600401610c829190614210565b5060408051808201909152600c81526b5a65726f206164647265737360a01b60208201526001600160a01b0383166137415760405162461bcd60e51b8152600401610c829190614210565b50600061374d84612f03565b9050818110156040518060400160405280600f81526020016e457863656564732062616c616e636560881b815250906137995760405162461bcd60e51b8152600401610c829190614210565b506137a684836000613bb6565b6137b283836001613bb6565b826001600160a01b0316846001600160a01b03167fddf252ad1be2c89b69c2b068fc378daa952ba7f163c4a11628f55a4df523b3ef846040516137f791815260200190565b60405180910390a350505050565b60005461010090046001600160a01b031633148061382257503330145b806138505750600e54630100000090046001600160a01b03166001600160a01b0316336001600160a01b0316145b61386c5760405162461bcd60e51b8152600401610c82906149f6565b6001600160a01b03811630146139375760405163085b199160e11b815273__$88bebae22a3ad6e62b56c303176513ecf8$__906310b63322906138b89086908690600290600401614bbb565b60006040518083038186803b1580156138d057600080fd5b505af41580156138e4573d6000803e3d6000fd5b506000925050506001600160a01b038216156139005781613902565b305b6001546040516349443ceb60e11b81529192506001600160a01b03169063928879d690611de390879087908690600401614be3565b7fb45c42dda0a5ab1d1078e0afeda2976363eff9496a93644e726862f1f06186b88383604051611e4c929190614c13565b60195460408051632e9c96d560e11b815290516000926001600160a01b031691635d392daa916004808301926020929190829003018187875af11580156139b3573d6000803e3d6000fd5b505050506040513d601f19601f820116820180604052508101906111449190614c39565b611120816040516024016139eb9190614210565b60408051601f198184030181529190526020810180516001600160e01b031663104c13eb60e21b179052613fc8565b6000806000613a298585614187565b90506000613a378686613b49565b9050808210613a4d579081900392509050613a60565b6001613a598383613ab3565b0393509150505b9250929050565b60008180613a7757613a776146c8565b838509949350505050565b600080828410613a985750839050818303613aab565b60018503613aa68585613ab3565b915091505b935093915050565b60006111f48284614700565b600080613ae683613ad1600086613ab3565b81613ade57613ade6146c8565b506000919050565b9050828481613af757613af76146c8565b04613b028683613b49565b1795945050505050565b60006001815b6008811015613b4257613b3882613b336002613b2e8689613b49565b613ab3565b613b49565b9150600101613b12565b5092915050565b60006111f482846146a9565b6001600160a01b038181166000908152600a602052604081205490911615801561113457507f00000000000000000000000000000000000000000000000000000000000000006001600160a01b0316826001600160a01b0316141592915050565b613bbf83613b55565b15613efc57603c546001600160a01b0384166000908152601d6020526040902054613bea9190613fd1565b50603d546001600160a01b0384166000908152603e6020526040902060010154613c149190613fd1565b50600080613c2185613341565b6001600160a01b0387166000908152603e6020526040902082905590925090508015613cbe576001600160a01b0385166000908152601d6020526040902054613c6a9082613fd1565b6001600160a01b0386166000908152601d6020526040902055603854613c909082613fd1565b603855601c54613ca09082613fd1565b601c5560398054829190600090613cb890849061485a565b90915550505b8215613d2a576001600160a01b0385166000908152601d602052604081208054869290613cec90849061485a565b909155505060388054859190600090613d0690849061485a565b9250508190555083601c6000828254613d1f919061485a565b90915550613d879050565b6001600160a01b0385166000908152601d6020526040902054613d4d9085613fd1565b6001600160a01b0386166000908152601d6020526040902055603854613d739085613fd1565b603855601c54613d839085613fd1565b601c555b6001600160a01b0385166000908152601d6020526040812054603c805491929091613db390849061485a565b909155505060465460009081906001600160a01b0316635aff34dc613dda6005600a614956565b603654613de96005600a614956565b613df39190614700565b6001600160a01b038b166000908152603e60205260409081902054905160e085901b6001600160e01b0319168152600481019390935260248301919091526044820152600160648201526084016040805180830381865afa158015613e5c573d6000803e3d6000fd5b505050506040513d601f19601f82011682018060405250810190613e809190614b87565b6001600160a01b0389166000908152601d6020526040812054929450909250908290613ead9085906146a9565b613eb791906146de565b6001600160a01b0389166000908152603e60205260408120600101829055603d80549293508392909190613eec90849061485a565b90915550611e5595505050505050565b8015613f67576001600160a01b0383166000908152601d602052604081208054849290613f2a90849061485a565b9250508190555081603f6000828254613f43919061485a565b9250508190555081601c6000828254613f5c919061485a565b90915550611e559050565b6001600160a01b0383166000908152601d6020526040902054613f8a9083613fd1565b6001600160a01b0384166000908152601d6020526040902055603f54613fb09083613fd1565b603f55601c54613fc09083613fd1565b601c55505050565b61112081614196565b600081831115613fec57613fe58284614700565b9050611134565b50600092915050565b601954604051634be5482760e01b81526001600160a01b0390911690634be54827906140279085908590600401614c56565b6080604051808303816000875af1158015614046573d6000803e3d6000fd5b505050506040513d601f19601f8201168201806040525081019061406a9190614c73565b805160158054909190829060ff1916600183600581111561408d5761408d61432c565b021790555060208201516001820155604082015160028201556060909101516003909101805460ff19169115159190911790555050565b601960009054906101000a90046001600160a01b03166001600160a01b031663431b3c306040518163ffffffff1660e01b8152600401600060405180830381600087803b15801561411457600080fd5b505af1158015612aaf573d6000803e3d6000fd5b6000816007015482600101544361413f91906146de565b6111349190614700565b600080614157858585612d76565b90506000614166868686613a67565b111561417f576141778160016141b7565b9150506111f4565b949350505050565b60006000198284099392505050565b60006a636f6e736f6c652e6c6f679050600080835160208501845afa505050565b60006111f4828461485a565b6000815180845260005b818110156141e9576020818501810151868301820152016141cd565b818111156141fb576000602083870101525b50601f01601f19169290920160200192915050565b6020815260006111f460208301846141c3565b80356001600160a01b0381168114612fa357600080fd5b6000806040838503121561424d57600080fd5b61425683614223565b946020939093013593505050565b6006811061112057600080fd5b60006020828403121561428357600080fd5b81356111f481614264565b6000806000606084860312156142a357600080fd5b6142ac84614223565b92506142ba60208501614223565b9150604084013590509250925092565b6000602082840312156142dc57600080fd5b6111f482614223565b801515811461112057600080fd5b6000806040838503121561430657600080fd5b823561431181614264565b91506020830135614321816142e5565b809150509250929050565b634e487b7160e01b600052602160045260246000fd5b600681106143525761435261432c565b9052565b6000608082019050614369828451614342565b602083015160208301526040830151604083015260608301511515606083015292915050565b602081016111348284614342565b60008060008084860360808112156143b457600080fd5b6143bd86614223565b94506020868101359450603f19820112156143d757600080fd5b5060408501915060608501356143ec816142e5565b939692955090935050565b6000806040838503121561440a57600080fd5b61441383614223565b915061442160208401614223565b90509250929050565b60006020828403121561443c57600080fd5b5035919050565b634e487b7160e01b600052604160045260246000fd5b604051601f8201601f1916810167ffffffffffffffff8111828210171561448257614482614443565b604052919050565b600080600083850360608112156144a057600080fd5b84356144ab81614264565b93506020601f19820112156144bf57600080fd5b506040516020810181811067ffffffffffffffff821117156144e3576144e3614443565b604052602085013563ffffffff811681146144fd57600080fd5b8152915061450d60408501614223565b90509250925092565b60008060006060848603121561452b57600080fd5b83356005811061453a57600080fd5b925061454860208501614223565b915061450d60408501614223565b6000806040838503121561456957600080fd5b50508035926020909101359150565b600080600080600060a0868803121561459057600080fd5b61459986614223565b94506145a760208701614223565b93506145b560408701614223565b92506060860135600481106145c957600080fd5b91506145d760808701614223565b90509295509295909350565b60008082840360408112156145f757600080fd5b602081121561460557600080fd5b506040516020810181811067ffffffffffffffff8211171561462957614629614443565b60405261463584614223565b8152915061442160208401614223565b600481106143525761435261432c565b6001600160a01b038481168252831660208201526060810161417f6040830184614645565b60006020828403121561468c57600080fd5b5051919050565b634e487b7160e01b600052601160045260246000fd5b60008160001904831182151516156146c3576146c3614693565b500290565b634e487b7160e01b600052601260045260246000fd5b6000826146fb57634e487b7160e01b600052601260045260246000fd5b500490565b60008282101561471257614712614693565b500390565b634e487b7160e01b600052603260045260246000fd5b600060808201868352602060808185015281875180845260a086019150828901935060005b818110156147775784516001600160a01b031683529383019391830191600101614752565b50506001600160a01b039690961660408501525050506060015292915050565b600060208083850312156147aa57600080fd5b825167ffffffffffffffff808211156147c257600080fd5b818501915085601f8301126147d657600080fd5b8151818111156147e8576147e8614443565b8060051b91506147f9848301614459565b818152918301840191848101908884111561481357600080fd5b938501935b8385101561483157845182529385019390850190614818565b98975050505050505050565b60006020828403121561484f57600080fd5b81516111f4816142e5565b6000821982111561486d5761486d614693565b500190565b600181815b808511156148ad57816000190482111561489357614893614693565b808516156148a057918102915b93841c9390800290614877565b509250929050565b6000826148c457506001611134565b816148d157506000611134565b81600181146148e757600281146148f15761490d565b6001915050611134565b60ff84111561490257614902614693565b50506001821b611134565b5060208310610133831016604e8410600b8410161715614930575081810a611134565b61493a8383614872565b806000190482111561494e5761494e614693565b029392505050565b60006111f483836148b5565b6020808252818101527f4f776e61626c653a2063616c6c6572206973206e6f7420746865206f776e6572604082015260600190565b6020808252601590820152742737ba10309039b2b9b9b4b7b71036b0b730b3b2b960591b604082015260600190565b6000816149d5576149d5614693565b506000190190565b6000600182016149ef576149ef614693565b5060010190565b60208082526010908201526f496e76616c69642063616c6c6572203160801b604082015260600190565b60608101614a2e8286614342565b83602083015263ffffffff8351166040830152949350505050565b60608101614a578286614342565b925163ffffffff1660208201526001600160a01b0391909116604090910152919050565b60408101614a898285614342565b63ffffffff83511660208301529392505050565b6001600160a01b03948516815292841660208401529083166040830152909116606082015260800190565b6001600160a01b0386811682528581166020830152848116604083015260a0820190614af76060840186614645565b8084166080840152509695505050505050565b6001600160a01b03858116825284811660208301528316604082015260808101614b376060830184614645565b95945050505050565b606081526000614b5360608301866141c3565b60208301949094525060400152919050565b604081526000614b7860408301856141c3565b90508260208301529392505050565b60008060408385031215614b9a57600080fd5b505080516020909101519092909150565b600581106143525761435261432c565b60608101614bc98286614bab565b6001600160a01b0393909316602082015260400152919050565b60608101614bf18286614bab565b6001600160a01b03938416602083015291909216604090920191909152919050565b60408101614c218285614bab565b6001600160a01b039290921660209190910152919050565b600060208284031215614c4b57600080fd5b81516111f481614264565b60408101614c648285614342565b82151560208301529392505050565b600060808284031215614c8557600080fd5b6040516080810181811067ffffffffffffffff82111715614ca857614ca8614443565b6040528251614cb681614264565b8082525060208301516020820152604083015160408201526060830151614cdc816142e5565b6060820152939250505056fe5f62616c616e63654f662e2070656e64696e67203e205f62616c616e6365735b6163636f756e745d46544d20616e6420544752206761696e6564206279204c502064696c7574696f6e202d2d2d2d2da2646970667358221220411553339e09ba37f18c58a0a0c38119edef1c9a9f2f9c2ea2e0f710be3f4d0064736f6c634300080e0033",
  "linkReferences": {
    "contracts/libraries/WireLibrary.sol": {
      "WireLibrary": [
        {
          "length": 20,
          "start": 11778
        },
        {
          "length": 20,
          "start": 13361
        },
        {
          "length": 20,
          "start": 13543
        },
        {
          "length": 20,
          "start": 13730
        },
        {
          "length": 20,
          "start": 15405
        },
        {
          "length": 20,
          "start": 18774
        }
      ]
    }
  },
  "deployedLinkReferences": {
    "contracts/libraries/WireLibrary.sol": {
      "WireLibrary": [
        {
          "length": 20,
          "start": 7479
        },
        {
          "length": 20,
          "start": 9062
        },
        {
          "length": 20,
          "start": 9244
        },
        {
          "length": 20,
          "start": 9431
        },
        {
          "length": 20,
          "start": 11106
        },
        {
          "length": 20,
          "start": 14475
        }
      ]
    }
  }
}