{
  "_format": "hh-sol-artifact-1",
  "contractName": "TGRToken",
  "sourceName": "contracts/farm/TGRToken.sol",
  "abi": [
    {
      "inputs": [
        {
          "internalType": "address",
          "name": "_analyticMath",
          "type": "address"
        }
      ],
      "stateMutability": "nonpayable",
      "type": "constructor"
    },
    {
      "anonymous": false,
      "inputs": [
        {
          "indexed": true,
          "internalType": "address",
          "name": "owner",
          "type": "address"
        },
        {
          "indexed": true,
          "internalType": "address",
          "name": "spender",
          "type": "address"
        },
        {
          "indexed": false,
          "internalType": "uint256",
          "name": "value",
          "type": "uint256"
        }
      ],
      "name": "Approval",
      "type": "event"
    },
    {
      "anonymous": false,
      "inputs": [],
      "name": "Begin",
      "type": "event"
    },
    {
      "anonymous": false,
      "inputs": [
        {
          "indexed": false,
          "internalType": "address",
          "name": "pair",
          "type": "address"
        },
        {
          "indexed": false,
          "internalType": "address",
          "name": "tokenA",
          "type": "address"
        },
        {
          "indexed": false,
          "internalType": "address",
          "name": "tokenB",
          "type": "address"
        },
        {
          "indexed": false,
          "internalType": "enum ListStatus",
          "name": "status",
          "type": "uint8"
        }
      ],
      "name": "ChangePairStatus",
      "type": "event"
    },
    {
      "anonymous": false,
      "inputs": [
        {
          "indexed": false,
          "internalType": "address",
          "name": "token",
          "type": "address"
        },
        {
          "indexed": false,
          "internalType": "address",
          "name": "msgSender",
          "type": "address"
        }
      ],
      "name": "DeenlistToken",
      "type": "event"
    },
    {
      "anonymous": false,
      "inputs": [
        {
          "indexed": true,
          "internalType": "address",
          "name": "previousOwner",
          "type": "address"
        },
        {
          "indexed": true,
          "internalType": "address",
          "name": "newOwner",
          "type": "address"
        }
      ],
      "name": "OwnershipTransferred",
      "type": "event"
    },
    {
      "anonymous": false,
      "inputs": [
        {
          "indexed": false,
          "internalType": "enum ActionType",
          "name": "_sessionType",
          "type": "uint8"
        },
        {
          "components": [
            {
              "internalType": "uint32",
              "name": "accountant",
              "type": "uint32"
            }
          ],
          "indexed": false,
          "internalType": "struct FeeRates",
          "name": "_feeRates",
          "type": "tuple"
        }
      ],
      "name": "SetFeeRates",
      "type": "event"
    },
    {
      "anonymous": false,
      "inputs": [
        {
          "components": [
            {
              "internalType": "address",
              "name": "accountant",
              "type": "address"
            }
          ],
          "indexed": false,
          "internalType": "struct FeeStores",
          "name": "_feeStores",
          "type": "tuple"
        }
      ],
      "name": "SetFeeStores",
      "type": "event"
    },
    {
      "anonymous": false,
      "inputs": [
        {
          "indexed": false,
          "internalType": "enum NodeType",
          "name": "nodeType",
          "type": "uint8"
        },
        {
          "indexed": false,
          "internalType": "address",
          "name": "node",
          "type": "address"
        }
      ],
      "name": "SetNode",
      "type": "event"
    },
    {
      "anonymous": false,
      "inputs": [
        {
          "indexed": true,
          "internalType": "address",
          "name": "from",
          "type": "address"
        },
        {
          "indexed": true,
          "internalType": "address",
          "name": "to",
          "type": "address"
        },
        {
          "indexed": false,
          "internalType": "uint256",
          "name": "value",
          "type": "uint256"
        }
      ],
      "name": "Transfer",
      "type": "event"
    },
    {
      "inputs": [
        {
          "internalType": "address",
          "name": "_owner",
          "type": "address"
        },
        {
          "internalType": "address",
          "name": "_spender",
          "type": "address"
        },
        {
          "internalType": "uint256",
          "name": "subtractedValue",
          "type": "uint256"
        }
      ],
      "name": "_decreaseAllowance",
      "outputs": [
        {
          "internalType": "bool",
          "name": "",
          "type": "bool"
        }
      ],
      "stateMutability": "nonpayable",
      "type": "function"
    },
    {
      "inputs": [
        {
          "internalType": "address",
          "name": "_owner",
          "type": "address"
        },
        {
          "internalType": "address",
          "name": "_spender",
          "type": "address"
        }
      ],
      "name": "allowance",
      "outputs": [
        {
          "internalType": "uint256",
          "name": "",
          "type": "uint256"
        }
      ],
      "stateMutability": "view",
      "type": "function"
    },
    {
      "inputs": [
        {
          "internalType": "address",
          "name": "spender",
          "type": "address"
        },
        {
          "internalType": "uint256",
          "name": "amount",
          "type": "uint256"
        }
      ],
      "name": "approve",
      "outputs": [
        {
          "internalType": "bool",
          "name": "",
          "type": "bool"
        }
      ],
      "stateMutability": "nonpayable",
      "type": "function"
    },
    {
      "inputs": [
        {
          "internalType": "address",
          "name": "account",
          "type": "address"
        }
      ],
      "name": "balanceOf",
      "outputs": [
        {
          "internalType": "uint256",
          "name": "",
          "type": "uint256"
        }
      ],
      "stateMutability": "view",
      "type": "function"
    },
    {
      "inputs": [
        {
          "internalType": "address",
          "name": "caller",
          "type": "address"
        }
      ],
      "name": "begin",
      "outputs": [],
      "stateMutability": "nonpayable",
      "type": "function"
    },
    {
      "inputs": [
        {
          "internalType": "address",
          "name": "from",
          "type": "address"
        },
        {
          "internalType": "uint256",
          "name": "amount",
          "type": "uint256"
        }
      ],
      "name": "burn",
      "outputs": [],
      "stateMutability": "nonpayable",
      "type": "function"
    },
    {
      "inputs": [
        {
          "internalType": "address",
          "name": "from",
          "type": "address"
        },
        {
          "internalType": "uint256",
          "name": "amount",
          "type": "uint256"
        }
      ],
      "name": "bury",
      "outputs": [],
      "stateMutability": "nonpayable",
      "type": "function"
    },
    {
      "inputs": [
        {
          "internalType": "address",
          "name": "pair",
          "type": "address"
        },
        {
          "internalType": "address",
          "name": "token0",
          "type": "address"
        },
        {
          "internalType": "address",
          "name": "token1",
          "type": "address"
        },
        {
          "internalType": "enum ListStatus",
          "name": "status",
          "type": "uint8"
        },
        {
          "internalType": "address",
          "name": "caller",
          "type": "address"
        }
      ],
      "name": "changePairStatus",
      "outputs": [],
      "stateMutability": "nonpayable",
      "type": "function"
    },
    {
      "inputs": [],
      "name": "checkForConsistency",
      "outputs": [],
      "stateMutability": "view",
      "type": "function"
    },
    {
      "inputs": [],
      "name": "decimals",
      "outputs": [
        {
          "internalType": "uint8",
          "name": "",
          "type": "uint8"
        }
      ],
      "stateMutability": "view",
      "type": "function"
    },
    {
      "inputs": [
        {
          "internalType": "address",
          "name": "spender",
          "type": "address"
        },
        {
          "internalType": "uint256",
          "name": "subtractedValue",
          "type": "uint256"
        }
      ],
      "name": "decreaseAllowance",
      "outputs": [
        {
          "internalType": "bool",
          "name": "",
          "type": "bool"
        }
      ],
      "stateMutability": "nonpayable",
      "type": "function"
    },
    {
      "inputs": [
        {
          "internalType": "enum ActionType",
          "name": "",
          "type": "uint8"
        }
      ],
      "name": "feeRates",
      "outputs": [
        {
          "internalType": "uint32",
          "name": "accountant",
          "type": "uint32"
        }
      ],
      "stateMutability": "view",
      "type": "function"
    },
    {
      "inputs": [],
      "name": "feeStores",
      "outputs": [
        {
          "internalType": "address",
          "name": "accountant",
          "type": "address"
        }
      ],
      "stateMutability": "view",
      "type": "function"
    },
    {
      "inputs": [],
      "name": "getOwner",
      "outputs": [
        {
          "internalType": "address",
          "name": "",
          "type": "address"
        }
      ],
      "stateMutability": "view",
      "type": "function"
    },
    {
      "inputs": [
        {
          "internalType": "address",
          "name": "spender",
          "type": "address"
        },
        {
          "internalType": "uint256",
          "name": "addedValue",
          "type": "uint256"
        }
      ],
      "name": "increaseAllowance",
      "outputs": [
        {
          "internalType": "bool",
          "name": "",
          "type": "bool"
        }
      ],
      "stateMutability": "nonpayable",
      "type": "function"
    },
    {
      "inputs": [],
      "name": "lastSession",
      "outputs": [
        {
          "internalType": "uint256",
          "name": "",
          "type": "uint256"
        }
      ],
      "stateMutability": "view",
      "type": "function"
    },
    {
      "inputs": [],
      "name": "lp_reward",
      "outputs": [
        {
          "internalType": "uint256",
          "name": "latestTime",
          "type": "uint256"
        },
        {
          "internalType": "uint256",
          "name": "cycle",
          "type": "uint256"
        },
        {
          "internalType": "uint256",
          "name": "decayRate",
          "type": "uint256"
        },
        {
          "internalType": "address",
          "name": "account",
          "type": "address"
        },
        {
          "internalType": "uint256",
          "name": "accDecayPerShare",
          "type": "uint256"
        },
        {
          "internalType": "uint256",
          "name": "sum_tokens",
          "type": "uint256"
        },
        {
          "internalType": "uint256",
          "name": "pending_burn",
          "type": "uint256"
        },
        {
          "internalType": "uint256",
          "name": "latestRound",
          "type": "uint256"
        }
      ],
      "stateMutability": "view",
      "type": "function"
    },
    {
      "inputs": [],
      "name": "maxSupply",
      "outputs": [
        {
          "internalType": "uint256",
          "name": "",
          "type": "uint256"
        }
      ],
      "stateMutability": "view",
      "type": "function"
    },
    {
      "inputs": [
        {
          "internalType": "address",
          "name": "to",
          "type": "address"
        },
        {
          "internalType": "uint256",
          "name": "amount",
          "type": "uint256"
        }
      ],
      "name": "mint",
      "outputs": [],
      "stateMutability": "nonpayable",
      "type": "function"
    },
    {
      "inputs": [],
      "name": "name",
      "outputs": [
        {
          "internalType": "string",
          "name": "",
          "type": "string"
        }
      ],
      "stateMutability": "view",
      "type": "function"
    },
    {
      "inputs": [],
      "name": "nextNode",
      "outputs": [
        {
          "internalType": "address",
          "name": "",
          "type": "address"
        }
      ],
      "stateMutability": "view",
      "type": "function"
    },
    {
      "inputs": [],
      "name": "owner",
      "outputs": [
        {
          "internalType": "address",
          "name": "",
          "type": "address"
        }
      ],
      "stateMutability": "view",
      "type": "function"
    },
    {
      "inputs": [
        {
          "internalType": "address",
          "name": "",
          "type": "address"
        },
        {
          "internalType": "address",
          "name": "",
          "type": "address"
        }
      ],
      "name": "pairFor",
      "outputs": [
        {
          "internalType": "address",
          "name": "",
          "type": "address"
        }
      ],
      "stateMutability": "view",
      "type": "function"
    },
    {
      "inputs": [
        {
          "internalType": "address",
          "name": "",
          "type": "address"
        }
      ],
      "name": "pairs",
      "outputs": [
        {
          "internalType": "address",
          "name": "token0",
          "type": "address"
        },
        {
          "internalType": "address",
          "name": "token1",
          "type": "address"
        },
        {
          "internalType": "enum ListStatus",
          "name": "status",
          "type": "uint8"
        }
      ],
      "stateMutability": "view",
      "type": "function"
    },
    {
      "inputs": [],
      "name": "pause",
      "outputs": [],
      "stateMutability": "nonpayable",
      "type": "function"
    },
    {
      "inputs": [],
      "name": "paused",
      "outputs": [
        {
          "internalType": "bool",
          "name": "",
          "type": "bool"
        }
      ],
      "stateMutability": "view",
      "type": "function"
    },
    {
      "inputs": [
        {
          "internalType": "address",
          "name": "account",
          "type": "address"
        },
        {
          "internalType": "uint256",
          "name": "principal",
          "type": "uint256"
        },
        {
          "components": [
            {
              "internalType": "uint32",
              "name": "accountant",
              "type": "uint32"
            }
          ],
          "internalType": "struct FeeRates",
          "name": "rates",
          "type": "tuple"
        },
        {
          "internalType": "bool",
          "name": "fromAllowance",
          "type": "bool"
        }
      ],
      "name": "payFeeTgrLogic",
      "outputs": [
        {
          "internalType": "uint256",
          "name": "feesPaid",
          "type": "uint256"
        }
      ],
      "stateMutability": "nonpayable",
      "type": "function"
    },
    {
      "inputs": [],
      "name": "prevNode",
      "outputs": [
        {
          "internalType": "address",
          "name": "",
          "type": "address"
        }
      ],
      "stateMutability": "view",
      "type": "function"
    },
    {
      "inputs": [],
      "name": "pulse_lp_reward",
      "outputs": [],
      "stateMutability": "nonpayable",
      "type": "function"
    },
    {
      "inputs": [],
      "name": "pulse_user_burn",
      "outputs": [],
      "stateMutability": "nonpayable",
      "type": "function"
    },
    {
      "inputs": [],
      "name": "pulse_vote_burn",
      "outputs": [],
      "stateMutability": "nonpayable",
      "type": "function"
    },
    {
      "inputs": [
        {
          "internalType": "enum ActionType",
          "name": "actionType",
          "type": "uint8"
        },
        {
          "internalType": "bool",
          "name": "blockReentry",
          "type": "bool"
        }
      ],
      "name": "registerAction",
      "outputs": [
        {
          "components": [
            {
              "internalType": "enum ActionType",
              "name": "actionType",
              "type": "uint8"
            },
            {
              "internalType": "uint256",
              "name": "session",
              "type": "uint256"
            },
            {
              "internalType": "uint256",
              "name": "lastSession",
              "type": "uint256"
            },
            {
              "internalType": "bool",
              "name": "isUserAction",
              "type": "bool"
            }
          ],
          "internalType": "struct ActionParams",
          "name": "actionParams",
          "type": "tuple"
        }
      ],
      "stateMutability": "nonpayable",
      "type": "function"
    },
    {
      "inputs": [],
      "name": "renounceOwnership",
      "outputs": [],
      "stateMutability": "nonpayable",
      "type": "function"
    },
    {
      "inputs": [],
      "name": "resume",
      "outputs": [],
      "stateMutability": "nonpayable",
      "type": "function"
    },
    {
      "inputs": [],
      "name": "session",
      "outputs": [
        {
          "internalType": "uint256",
          "name": "",
          "type": "uint256"
        }
      ],
      "stateMutability": "view",
      "type": "function"
    },
    {
      "inputs": [
        {
          "internalType": "enum ActionType",
          "name": "",
          "type": "uint8"
        }
      ],
      "name": "sessionsLastSeenBySType",
      "outputs": [
        {
          "internalType": "uint256",
          "name": "",
          "type": "uint256"
        }
      ],
      "stateMutability": "view",
      "type": "function"
    },
    {
      "inputs": [
        {
          "internalType": "enum ActionType",
          "name": "_sessionType",
          "type": "uint8"
        },
        {
          "components": [
            {
              "internalType": "uint32",
              "name": "accountant",
              "type": "uint32"
            }
          ],
          "internalType": "struct FeeRates",
          "name": "_feeRates",
          "type": "tuple"
        },
        {
          "internalType": "address",
          "name": "caller",
          "type": "address"
        }
      ],
      "name": "setFeeRates",
      "outputs": [],
      "stateMutability": "nonpayable",
      "type": "function"
    },
    {
      "inputs": [
        {
          "components": [
            {
              "internalType": "address",
              "name": "accountant",
              "type": "address"
            }
          ],
          "internalType": "struct FeeStores",
          "name": "_feeStores",
          "type": "tuple"
        },
        {
          "internalType": "address",
          "name": "caller",
          "type": "address"
        }
      ],
      "name": "setFeeStores",
      "outputs": [],
      "stateMutability": "nonpayable",
      "type": "function"
    },
    {
      "inputs": [
        {
          "internalType": "enum NodeType",
          "name": "nodeType",
          "type": "uint8"
        },
        {
          "internalType": "address",
          "name": "node",
          "type": "address"
        },
        {
          "internalType": "address",
          "name": "caller",
          "type": "address"
        }
      ],
      "name": "setNode",
      "outputs": [],
      "stateMutability": "nonpayable",
      "type": "function"
    },
    {
      "inputs": [],
      "name": "symbol",
      "outputs": [
        {
          "internalType": "string",
          "name": "",
          "type": "string"
        }
      ],
      "stateMutability": "view",
      "type": "function"
    },
    {
      "inputs": [],
      "name": "tgrBusd",
      "outputs": [
        {
          "internalType": "address",
          "name": "",
          "type": "address"
        }
      ],
      "stateMutability": "view",
      "type": "function"
    },
    {
      "inputs": [],
      "name": "tgrFtm",
      "outputs": [
        {
          "internalType": "address",
          "name": "",
          "type": "address"
        }
      ],
      "stateMutability": "view",
      "type": "function"
    },
    {
      "inputs": [],
      "name": "tgrHtz",
      "outputs": [
        {
          "internalType": "address",
          "name": "",
          "type": "address"
        }
      ],
      "stateMutability": "view",
      "type": "function"
    },
    {
      "inputs": [],
      "name": "totalSupply",
      "outputs": [
        {
          "internalType": "uint256",
          "name": "",
          "type": "uint256"
        }
      ],
      "stateMutability": "view",
      "type": "function"
    },
    {
      "inputs": [
        {
          "internalType": "address",
          "name": "recipient",
          "type": "address"
        },
        {
          "internalType": "uint256",
          "name": "amount",
          "type": "uint256"
        }
      ],
      "name": "transfer",
      "outputs": [
        {
          "internalType": "bool",
          "name": "",
          "type": "bool"
        }
      ],
      "stateMutability": "nonpayable",
      "type": "function"
    },
    {
      "inputs": [
        {
          "internalType": "address",
          "name": "sender",
          "type": "address"
        },
        {
          "internalType": "address",
          "name": "recipient",
          "type": "address"
        },
        {
          "internalType": "uint256",
          "name": "amount",
          "type": "uint256"
        }
      ],
      "name": "transferDirectSafe",
      "outputs": [],
      "stateMutability": "nonpayable",
      "type": "function"
    },
    {
      "inputs": [
        {
          "internalType": "address",
          "name": "sender",
          "type": "address"
        },
        {
          "internalType": "address",
          "name": "recipient",
          "type": "address"
        },
        {
          "internalType": "uint256",
          "name": "amount",
          "type": "uint256"
        }
      ],
      "name": "transferFrom",
      "outputs": [
        {
          "internalType": "bool",
          "name": "",
          "type": "bool"
        }
      ],
      "stateMutability": "nonpayable",
      "type": "function"
    },
    {
      "inputs": [
        {
          "internalType": "address",
          "name": "newOwner",
          "type": "address"
        }
      ],
      "name": "transferOwnership",
      "outputs": [],
      "stateMutability": "nonpayable",
      "type": "function"
    },
    {
      "inputs": [],
      "name": "unregisterAction",
      "outputs": [],
      "stateMutability": "nonpayable",
      "type": "function"
    },
    {
      "inputs": [],
      "name": "user_burn",
      "outputs": [
        {
          "internalType": "uint256",
          "name": "latestTime",
          "type": "uint256"
        },
        {
          "internalType": "uint256",
          "name": "cycle",
          "type": "uint256"
        },
        {
          "internalType": "uint256",
          "name": "decayRate",
          "type": "uint256"
        },
        {
          "internalType": "address",
          "name": "account",
          "type": "address"
        },
        {
          "internalType": "uint256",
          "name": "accDecayPerShare",
          "type": "uint256"
        },
        {
          "internalType": "uint256",
          "name": "sum_tokens",
          "type": "uint256"
        },
        {
          "internalType": "uint256",
          "name": "pending_burn",
          "type": "uint256"
        },
        {
          "internalType": "uint256",
          "name": "latestRound",
          "type": "uint256"
        }
      ],
      "stateMutability": "view",
      "type": "function"
    },
    {
      "inputs": [],
      "name": "vote_burn",
      "outputs": [
        {
          "internalType": "uint256",
          "name": "latestTime",
          "type": "uint256"
        },
        {
          "internalType": "uint256",
          "name": "cycle",
          "type": "uint256"
        },
        {
          "internalType": "uint256",
          "name": "decayRate",
          "type": "uint256"
        },
        {
          "internalType": "address",
          "name": "account",
          "type": "address"
        },
        {
          "internalType": "uint256",
          "name": "accDecayPerShare",
          "type": "uint256"
        },
        {
          "internalType": "uint256",
          "name": "sum_tokens",
          "type": "uint256"
        },
        {
          "internalType": "uint256",
          "name": "pending_burn",
          "type": "uint256"
        },
        {
          "internalType": "uint256",
          "name": "latestRound",
          "type": "uint256"
        }
      ],
      "stateMutability": "view",
      "type": "function"
    },
    {
      "inputs": [
        {
          "internalType": "address",
          "name": "_prevNode",
          "type": "address"
        },
        {
          "internalType": "address",
          "name": "_nextNode",
          "type": "address"
        }
      ],
      "name": "wire",
      "outputs": [],
      "stateMutability": "nonpayable",
      "type": "function"
    },
    {
      "stateMutability": "payable",
      "type": "receive"
    }
  ],
  "bytecode": "0x60806040523480156200001157600080fd5b5060405162003f5238038062003f528339810160408190526200003491620007b9565b6000805460ff1916905562000049336200034e565b603d80546001600160a01b0319166001600160a01b0383161790556200006c3390565b603980546001600160a01b039283166001600160a01b031991821617909155603a805482167370997970c51812dc3a010c7d01b50e0d17dc79c8179055603b80548216733c44cdddb6a900fa2b585dd299e03d12fa4293bc179055603c805482167390f79bf6eb2c4f870365e785982e1f101e93b906179055601e805490911673976ea74026e726554db657fa54763abd0c3a0aa91790556040805161010081018252428082526002602083018190526102b293830193909352600854909316606082015260006080820181905260a0820181905260c08201529160e0830191620001579162000801565b90528051601f556020808201518155604080830151602155606080840151602280546001600160a01b0319166001600160a01b0392831617905560808086015160235560a08087015160245560c08088015160255560e097880151602655855161010081018752428082526002988201899052604697820197909752601e5490941694840194909452600091830182905282018190529181019190915292830191620002039162000801565b90528051602755602080820151602855604080830151602955606080840151602a80546001600160a01b0319166001600160a01b03909216919091179055608080850151602b5560a080860151602c5560c080870151602d5560e096870151602e5584516101008101865242808252600497820188905261030996820196909652600094810185905292830184905290820183905281019190915292830191620002ad9162000801565b90528051602f55602081015160305560408101516031556060810151603280546001600160a01b0319166001600160a01b03909216919091179055608081015160335560a081015160345560c081015160355560e00151603655600e805462ffffff19166201010117905562000347620003243390565b620003326012600a62000921565b6200034190620f424062000932565b620003ac565b50620009e1565b600e80546001600160a01b0383811663010000008181026301000000600160b81b031985161790945560405193909204169182907f8be0079c531659141344cd1fd0a4f28419497f9722a3daafe3b4186f6b6457e090600090a35050565b60408051808201909152600c81526b5a65726f206164647265737360a01b60208201526001600160a01b038316620004025760405162461bcd60e51b8152600401620003f9919062000954565b60405180910390fd5b5080601c6000828254620004179190620009ac565b909155506200042b90508282600162000475565b6040518181526001600160a01b038316906000907fddf252ad1be2c89b69c2b068fc378daa952ba7f163c4a11628f55a4df523b3ef9060200160405180910390a35050565b505050565b620004808362000635565b156200058e57620004918362000674565b8015620004ea576001600160a01b0383166000908152601d602052604081208054849290620004c2908490620009ac565b909155505060348054839190600090620004de908490620009ac565b90915550620005369050565b6001600160a01b0383166000908152601d60205260408120805484929062000514908490620009c7565b90915550506034805483919060009062000530908490620009c7565b90915550505b6033546001600160a01b0384166000908152601d602052604090205464e8d4a5100091620005649162000932565b62000570919062000801565b6001600160a01b038416600090815260376020526040902055505050565b8015620005e6576001600160a01b0383166000908152601d602052604081208054849290620005bf908490620009ac565b925050819055508160386000828254620005da9190620009ac565b90915550620004709050565b6001600160a01b0383166000908152601d60205260408120805484929062000610908490620009c7565b9250508190555081603860008282546200062b9190620009c7565b9091555050505050565b6001600160a01b038181166000908152600a60205260408120549091161580156200066e5750601e546001600160a01b03838116911614155b92915050565b6000620006818262000764565b9050801562000760576001600160a01b0382166000908152601d602052604081208054839290620006b4908490620009c7565b9250508190555080601c6000828254620006cf9190620009c7565b909155505060348054829190600090620006eb908490620009c7565b90915550506035805482919060009062000707908490620009c7565b90915550506033546001600160a01b0383166000908152601d602052604090205464e8d4a51000916200073a9162000932565b62000746919062000801565b6001600160a01b0383166000908152603760205260409020555b5050565b6001600160a01b038116600090815260376020908152604080832054603354601d90935290832054909164e8d4a5100091620007a1919062000932565b620007ad919062000801565b6200066e9190620009c7565b600060208284031215620007cc57600080fd5b81516001600160a01b0381168114620007e457600080fd5b9392505050565b634e487b7160e01b600052601160045260246000fd5b6000826200081f57634e487b7160e01b600052601260045260246000fd5b500490565b600181815b8085111562000865578160001904821115620008495762000849620007eb565b808516156200085757918102915b93841c939080029062000829565b509250929050565b6000826200087e575060016200066e565b816200088d575060006200066e565b8160018114620008a65760028114620008b157620008d1565b60019150506200066e565b60ff841115620008c557620008c5620007eb565b50506001821b6200066e565b5060208310610133831016604e8410600b8410161715620008f6575081810a6200066e565b62000902838362000824565b8060001904821115620009195762000919620007eb565b029392505050565b6000620007e460ff8416836200086d565b60008160001904831182151516156200094f576200094f620007eb565b500290565b600060208083528351808285015260005b81811015620009835785810183015185820160400152820162000965565b8181111562000996576000604083870101525b50601f01601f1916929092016040019392505050565b60008219821115620009c257620009c2620007eb565b500190565b600082821015620009dc57620009dc620007eb565b500390565b61356180620009f16000396000f3fe6080604052600436106103035760003560e01c80638da5cb5b11610190578063cd537aa1116100dc578063ecd6f46a11610095578063f9a21e8a1161006f578063f9a21e8a146109f5578063f9eb740d14610a15578063fc58ee8b14610a35578063fe33b30214610a5557600080fd5b8063ecd6f46a14610993578063ed2deb8b146109c0578063f2fde38b146109d557600080fd5b8063cd537aa1146108cd578063cdd9224c146108ed578063d5abeb011461090d578063dd62ed3e14610922578063e729a45514610968578063eca4c4661461097d57600080fd5b806396ed28f911610149578063a150da2a11610123578063a150da2a1461084d578063a457c2d71461086d578063a9059cbb1461088d578063cd193c43146108ad57600080fd5b806396ed28f9146107b05780639dc29fac146107f1578063a13c1f671461081157600080fd5b80638da5cb5b146106df57806390e3677f1461070457806391fd0db714610724578063928879d614610744578063934923a31461076457806395d89b411461078457600080fd5b8063431b3c301161024f57806368fb3c7211610208578063715018a6116101e2578063715018a6146106a057806373957289146106b55780638456cb59146106ca578063893d20e8146106df57600080fd5b806368fb3c72146106245780636c93564f1461064457806370a082311461068057600080fd5b8063431b3c30146105725780634be548271461058757806354abe9d0146105b45780635c975abb146105d45780635e3568b8146105ee57806365715c561461060457600080fd5b806318160ddd116102bc578063313ce56711610296578063313ce567146104975780633660777d146104b3578063395093511461053257806340c10f191461055257600080fd5b806318160ddd1461042f57806323b872dd14610452578063249dfad71461047257600080fd5b8063046f7da21461030f57806306fdde0314610326578063086a606c1461036a578063095ea7b31461037f57806309b16a22146103af57806310224711146103e757600080fd5b3661030a57005b600080fd5b34801561031b57600080fd5b50610324610ab1565b005b34801561033257600080fd5b506040805180820190915260098152682a23a9102a37b5b2b760b91b60208201525b6040516103619190612cbf565b60405180910390f35b34801561037657600080fd5b50610324610b21565b34801561038b57600080fd5b5061039f61039a366004612d2b565b610b35565b6040519015158152602001610361565b3480156103bb57600080fd5b506008546103cf906001600160a01b031681565b6040516001600160a01b039091168152602001610361565b3480156103f357600080fd5b5061041a610402366004612d62565b600d6020526000908152604090205463ffffffff1681565b60405163ffffffff9091168152602001610361565b34801561043b57600080fd5b50610444610b4c565b604051908152602001610361565b34801561045e57600080fd5b5061039f61046d366004612d7f565b610b5b565b34801561047e57600080fd5b506000546103cf9061010090046001600160a01b031681565b3480156104a357600080fd5b5060405160128152602001610361565b3480156104bf57600080fd5b50602754602854602954602a54602b54602c54602d54602e546104ef979695946001600160a01b03169392919088565b604080519889526020890197909752958701949094526001600160a01b039092166060860152608085015260a084015260c083015260e082015261010001610361565b34801561053e57600080fd5b5061039f61054d366004612d2b565b610c0c565b34801561055e57600080fd5b5061032461056d366004612d2b565b610c20565b34801561057e57600080fd5b50610324610ccf565b34801561059357600080fd5b506105a76105a2366004612dc9565b610d91565b6040516103619190612e28565b3480156105c057600080fd5b506103246105cf366004612e62565b6110b8565b3480156105e057600080fd5b5060145461039f9060ff1681565b3480156105fa57600080fd5b50610444600f5481565b34801561061057600080fd5b506001546103cf906001600160a01b031681565b34801561063057600080fd5b5061044461063f366004612e7d565b6111db565b34801561065057600080fd5b50602f546030546031546032546033546034546035546036546104ef979695946001600160a01b03169392919088565b34801561068c57600080fd5b5061044461069b366004612e62565b611243565b3480156106ac57600080fd5b5061032461124e565b3480156106c157600080fd5b5061032461128c565b3480156106d657600080fd5b5061032461136c565b3480156106eb57600080fd5b50600e54630100000090046001600160a01b03166103cf565b34801561071057600080fd5b5061032461071f366004612ed7565b6113da565b34801561073057600080fd5b5061032461073f366004612f0a565b611478565b34801561075057600080fd5b5061032461075f366004612fa4565b611632565b34801561077057600080fd5b506007546103cf906001600160a01b031681565b34801561079057600080fd5b506040805180820190915260038152622a23a960e91b6020820152610354565b3480156107bc57600080fd5b506103cf6107cb366004612ed7565b600b6020908152600092835260408084209091529082529020546001600160a01b031681565b3480156107fd57600080fd5b5061032461080c366004612d2b565b611795565b34801561081d57600080fd5b50601f546020546021546022546023546024546025546026546104ef979695946001600160a01b03169392919088565b34801561085957600080fd5b5061039f610868366004612d7f565b6117d1565b34801561087957600080fd5b5061039f610888366004612d2b565b611858565b34801561089957600080fd5b5061039f6108a8366004612d2b565b611865565b3480156108b957600080fd5b506103246108c8366004612fe0565b611872565b3480156108d957600080fd5b506103246108e8366004612d7f565b611d05565b3480156108f957600080fd5b5061032461090836600461304b565b611de5565b34801561091957600080fd5b50610444611faa565b34801561092e57600080fd5b5061044461093d366004612ed7565b6001600160a01b039182166000908152601b6020908152604080832093909416825291909152205490565b34801561097457600080fd5b50610324611fc7565b34801561098957600080fd5b5061044460105481565b34801561099f57600080fd5b506104446109ae366004612d62565b60116020526000908152604090205481565b3480156109cc57600080fd5b5061032461201d565b3480156109e157600080fd5b506103246109f0366004612e62565b6120b9565b348015610a0157600080fd5b50600c546103cf906001600160a01b031681565b348015610a2157600080fd5b506009546103cf906001600160a01b031681565b348015610a4157600080fd5b50610324610a50366004612d2b565b612159565b348015610a6157600080fd5b50610aa2610a70366004612e62565b600a60205260009081526040902080546001909101546001600160a01b0391821691811690600160a01b900460ff1683565b604051610361939291906130cf565b600e54630100000090046001600160a01b03166001600160a01b0316336001600160a01b031614610b155760405162461bcd60e51b81526020600482015260096024820152682737ba1037bbb732b960b91b60448201526064015b60405180910390fd5b6014805460ff19169055565b6000610b2d601f612195565b505042601f55565b6000610b42338484612385565b5060015b92915050565b6000610b5661247d565b905090565b60006001600160a01b0384163314610bf7576001600160a01b0384166000908152601b6020908152604080832033845290915290205482811015610be15760405162461bcd60e51b815260206004820152601a60248201527f5472616e73666572206578636565647320616c6c6f77616e63650000000000006044820152606401610b0c565b610bf58533610bf08685613112565b612385565b505b610c0284848461248f565b5060019392505050565b6000610c193384846124a0565b9392505050565b600e546001600160a01b036301000000909104163314610c525760405162461bcd60e51b8152600401610b0c90613129565b610c5e6012600a613242565b610c6c906302faf080613251565b81610c7561247d565b610c7f9190613270565b1115610cc15760405162461bcd60e51b8152602060048201526011602482015270457863656564204d617820537570706c7960781b6044820152606401610b0c565b610ccb8282612527565b5050565b60025433906001600160a01b0316811480610cf757506004546001600160a01b038281169116145b80610d0f57506005546001600160a01b038281169116145b610d2b5760405162461bcd60e51b8152600401610b0c90613288565b6000601260135460148110610d4257610d426132b7565b602091828204019190066101000a81548160ff02191690836004811115610d6b57610d6b612e02565b021790555060135415610d8e5760138054906000610d88836132cd565b91905055505b50565b60408051608081018252600080825260208201819052918101829052606081019190915260025433906001600160a01b0316811480610ddd57506004546001600160a01b038281169116145b80610df557506005546001600160a01b038281169116145b610e115760405162461bcd60e51b8152600401610b0c90613288565b60145460ff1615610e545760405162461bcd60e51b815260206004820152600d60248201526c14de5cdd195b481c185d5cd959609a1b6044820152606401610b0c565b6000846004811115610e6857610e68612e02565b03610ea65760405162461bcd60e51b815260206004820152600e60248201526d24b73b30b634b21030b1ba34b7b760911b6044820152606401610b0c565b8215610f4f5760005b6013548111610f4d57846004811115610eca57610eca612e02565b60128260148110610edd57610edd6132b7565b602081049091015460ff601f9092166101000a9004166004811115610f0457610f04612e02565b03610f3b5760405162461bcd60e51b81526020600482015260076024820152665265656e74727960c81b6044820152606401610b0c565b80610f45816132e4565b915050610eaf565b505b601354158015610f76575060125460009060ff166004811115610f7457610f74612e02565b145b610f905760138054906000610f8a836132e4565b91905055505b601460135410610fd35760405162461bcd60e51b815260206004820152600e60248201526d537461636b206f766572666c6f7760901b6044820152606401610b0c565b83601260135460148110610fe957610fe96132b7565b602091828204019190066101000a81548160ff0219169083600481111561101257611012612e02565b02179055508184600481111561102a5761102a612e02565b9081600481111561103d5761103d612e02565b90525060135415606083015260405160009061107190439032906020019182526001600160a01b0316602082015260400190565b6040516020818303038152906040528051906020012060001c905080600f54146110a057600f80546010558190555b5050600f546020820152601054604082015292915050565b60005461010090046001600160a01b03163314806110d557503330145b806111035750600e54630100000090046001600160a01b03166001600160a01b0316336001600160a01b0316145b61111f5760405162461bcd60e51b8152600401610b0c906132fd565b6001600160a01b03811630146111af576001546001600160a01b03908116906354abe9d0908316156111515782611153565b305b6040516001600160e01b031960e084901b1681526001600160a01b039091166004820152602401600060405180830381600087803b15801561119457600080fd5b505af11580156111a8573d6000803e3d6000fd5b5050505050565b6040517ffd3415c24b2b4519f08b7935c13f86ea010c77b3ff9bf448a474ae3b2414fce090600090a150565b60025460009033906001600160a01b031681148061120657506004546001600160a01b038281169116145b8061121e57506005546001600160a01b038281169116145b61123a5760405162461bcd60e51b8152600401610b0c90613288565b50949350505050565b6000610b46826125db565b600e546001600160a01b0363010000009091041633146112805760405162461bcd60e51b8152600401610b0c90613129565b61128a600061263d565b565b601c5460385460345461129f9190613270565b146113025760405162461bcd60e51b815260206004820152602d60248201527f73756d5f746f6b656e73202b206e6f6e5573657253756d546f6b656e7320213d60448201526c205f746f74616c537570706c7960981b6064820152608401610b0c565b61130a610b4c565b60385460355460345461131d9190613112565b6113279190613270565b1461128a5760405162461bcd60e51b81526020600482015260156024820152741c195b991a5b99d7d89d5c9b881a5b98dbdc9c98dd605a1b6044820152606401610b0c565b600e54630100000090046001600160a01b03166001600160a01b0316336001600160a01b0316146113cb5760405162461bcd60e51b81526020600482015260096024820152682737ba1037bbb732b960b91b6044820152606401610b0c565b6014805460ff19166001179055565b600e54630100000090046001600160a01b03166001600160a01b0316336001600160a01b0316146114405760405162461bcd60e51b815260206004820152601060248201526f496e76616c69642063616c6c6572203360801b6044820152606401610b0c565b60008054610100600160a81b0319166101006001600160a01b0394851602179055600180546001600160a01b03191691909216179055565b60005461010090046001600160a01b031633148061149557503330145b806114c35750600e54630100000090046001600160a01b03166001600160a01b0316336001600160a01b0316145b6114df5760405162461bcd60e51b8152600401610b0c906132fd565b6001600160a01b03811630146115f357600e5462010000900460ff161561156d57604051634f18125b60e01b815273__$88bebae22a3ad6e62b56c303176513ecf8$__90634f18125b9061153c908690600d908790600401613327565b60006040518083038186803b15801561155457600080fd5b505af4158015611568573d6000803e3d6000fd5b505050505b60006001600160a01b038216156115845781611586565b305b6001546040516391fd0db760e01b81529192506001600160a01b0316906391fd0db7906115bb9087908790869060040161334f565b600060405180830381600087803b1580156115d557600080fd5b505af11580156115e9573d6000803e3d6000fd5b5050505050505050565b7fb4040436d4754da72f29d5b97fe68448f30d44ac0e08b33545cbf6f28b7641d9838360405161162492919061337e565b60405180910390a15b505050565b60005461010090046001600160a01b031633148061164f57503330145b8061167d5750600e54630100000090046001600160a01b03166001600160a01b0316336001600160a01b0316145b6116995760405162461bcd60e51b8152600401610b0c906132fd565b6001600160a01b03811630146117645760405163085b199160e11b815273__$88bebae22a3ad6e62b56c303176513ecf8$__906310b63322906116e5908690869060029060040161339f565b60006040518083038186803b1580156116fd57600080fd5b505af4158015611711573d6000803e3d6000fd5b506000925050506001600160a01b0382161561172d578161172f565b305b6001546040516349443ceb60e11b81529192506001600160a01b03169063928879d6906115bb908790879086906004016133c9565b7fb45c42dda0a5ab1d1078e0afeda2976363eff9496a93644e726862f1f06186b883836040516116249291906133f4565b600e546001600160a01b0363010000009091041633146117c75760405162461bcd60e51b8152600401610b0c90613129565b610ccb828261269b565b60408051808201909152600c81526b5a65726f206164647265737360a01b60208201526000906001600160a01b03851661181e5760405162461bcd60e51b8152600401610b0c9190612cbf565b506001600160a01b038085166000908152601b6020908152604080832093871683529290522054610c029085908590610bf0908690613112565b6000610c193384846117d1565b6000610b4233848461248f565b60005461010090046001600160a01b031633148061188f57503330145b806118bd5750600e54630100000090046001600160a01b03166001600160a01b0316336001600160a01b0316145b6118d95760405162461bcd60e51b8152600401610b0c906132fd565b6001600160a01b0381163014611cc157600e5460ff1615611c37576040518060600160405280856001600160a01b03168152602001846001600160a01b0316815260200183600381111561192f5761192f612e02565b90526001600160a01b038087166000908152600a6020908152604091829020845181549085166001600160a01b0319918216178255918501516001820180549190951692811683178555928501519093909290916001600160a81b031990911617600160a01b8360038111156119a7576119a7612e02565b021790555050506001600160a01b038085166000818152600b60208181526040808420898716855282528084208054878d166001600160a01b03199182168117909255938352818520958552949091529182902080549091169092179091556002549051633fe59dbb60e11b815273__$88bebae22a3ad6e62b56c303176513ecf8$__92637fcb3b7692611a5992899289921690730dcd1bf9a1b36ce34237eeafef220932846bcd8290600401613419565b602060405180830381865af4158015611a76573d6000803e3d6000fd5b505050506040513d601f19601f82011682018060405250810190611a9a9190613444565b15611abb57600780546001600160a01b0319166001600160a01b0387161790555b600254604051633fe59dbb60e11b815273__$88bebae22a3ad6e62b56c303176513ecf8$__91637fcb3b7691611b1791889188916001600160a01b031690735fc8d32690cc91d4c39d9d3abcbd16989f87570790600401613419565b602060405180830381865af4158015611b34573d6000803e3d6000fd5b505050506040513d601f19601f82011682018060405250810190611b589190613444565b15611b7957600880546001600160a01b0319166001600160a01b0387161790555b600254604051633fe59dbb60e11b815273__$88bebae22a3ad6e62b56c303176513ecf8$__91637fcb3b7691611bd591889188916001600160a01b03169073b7f8bc63bbcad18155201308c8f3540b07f84f5e90600401613419565b602060405180830381865af4158015611bf2573d6000803e3d6000fd5b505050506040513d601f19601f82011682018060405250810190611c169190613444565b15611c3757600980546001600160a01b0319166001600160a01b0387161790555b60006001600160a01b03821615611c4e5781611c50565b305b60015460405163cd193c4360e01b81529192506001600160a01b03169063cd193c4390611c899089908990899089908890600401613461565b600060405180830381600087803b158015611ca357600080fd5b505af1158015611cb7573d6000803e3d6000fd5b50505050506111a8565b7f7af36d96fdc569564b9fadb22716716fe33463cb7fc8dca4fbd79d40448acdf285858585604051611cf694939291906134a3565b60405180910390a15050505050565b60055433906001600160a01b0316811480611d2d57506004546001600160a01b038281169116145b80611d5157506001600160a01b038181166000908152600a60205260409020541615155b604051806040016040528060098152602001682337b93134b23232b760b91b81525090611d915760405162461bcd60e51b8152600401610b0c9190612cbf565b506001600160a01b0384166000908152601d6020526040902054821115611dce576001600160a01b0384166000908152601d602052604090205491505b8115611ddf57611ddf8484846127a5565b50505050565b60005461010090046001600160a01b0316331480611e0257503330145b80611e305750600e54630100000090046001600160a01b03166001600160a01b0316336001600160a01b0316145b611e4c5760405162461bcd60e51b8152600401610b0c906132fd565b6001600160a01b0381163014611f6957600e54610100900460ff1615611ee057604051633d8d54b760e11b8152600c600482015282516001600160a01b0316602482015273__$88bebae22a3ad6e62b56c303176513ecf8$__90637b1aa96e9060440160006040518083038186803b158015611ec757600080fd5b505af4158015611edb573d6000803e3d6000fd5b505050505b60006001600160a01b03821615611ef75781611ef9565b305b600154604051633376489360e21b815285516001600160a01b039081166004830152808416602483015292935091169063cdd9224c90604401600060405180830381600087803b158015611f4c57600080fd5b505af1158015611f60573d6000803e3d6000fd5b50505050505050565b60405182516001600160a01b031681527f275664547227ddbc7a8a732c07c9346f2f4520de70c2088665cc6809534212c09060200160405180910390a15050565b611fb66012600a613242565b611fc4906302faf080613251565b81565b6000611fd36027612195565b602a546001600160a01b03166000818152601d60205260409020549192506120169164e8d4a5100090612007908590613251565b61201191906134d9565b61269b565b5042602755565b6000612029602f612195565b90508015610d8e5760355460345460009161204391613112565b9050600064e8d4a510006120578484613251565b61206191906134d9565b905080602f60060160008282546120789190613270565b909155505060345461208f8264e8d4a51000613251565b61209991906134d9565b603380546000906120ab908490613270565b909155505042602f55505050565b600e546001600160a01b0363010000009091041633146120eb5760405162461bcd60e51b8152600401610b0c90613129565b6001600160a01b0381166121505760405162461bcd60e51b815260206004820152602660248201527f4f776e61626c653a206e6577206f776e657220697320746865207a65726f206160448201526564647265737360d01b6064820152608401610b0c565b610d8e8161263d565b600e546001600160a01b03630100000090910416331461218b5760405162461bcd60e51b8152600401610b0c90613129565b610ccb82826128fe565b6000808260010154426121a891906134d9565b9050826007015481111561237f5760008360070154826121c89190613112565b60078501839055428555905060058111156121e1575060055b64e8d4a510009250600581116122975760028401546000906122056005600a6134fb565b61220f9190613112565b90508060006122206005600a6134fb565b905060015b84811015612263576122378484613251565b92506122456005600a6134fb565b61224f9083613251565b91508061225b816132e4565b915050612225565b50806122748364e8d4a51000613251565b61227e91906134d9565b61228d9064e8d4a51000613112565b955050505061237d565b603d54600285015460009182916001600160a01b0390911690635aff34dc906122c26005600a6134fb565b6122cc9190613112565b6122d86005600a6134fb565b6040516001600160e01b031960e085901b1681526004810192909252602482015260448101869052600160648201526084016040805180830381865afa158015612326573d6000803e3d6000fd5b505050506040513d601f19601f8201168201806040525081019061234a9190613507565b90925090508061235f8364e8d4a51000613251565b61236991906134d9565b6123789064e8d4a51000613112565b945050505b505b50919050565b60408051808201909152600c81526b5a65726f206164647265737360a01b60208201526001600160a01b0384166123cf5760405162461bcd60e51b8152600401610b0c9190612cbf565b5060408051808201909152600c81526b5a65726f206164647265737360a01b60208201526001600160a01b03831661241a5760405162461bcd60e51b8152600401610b0c9190612cbf565b506001600160a01b038381166000818152601b602090815260408083209487168084529482529182902085905590518481527f8c5be1e5ebec7d5bd14f71427d1e84f3dd0314c0f7b2291e5b200ac8c7c3b92591015b60405180910390a3505050565b603554601c54600091610b5691613112565b801561162d5761162d8383836127a5565b60408051808201909152600c81526b5a65726f206164647265737360a01b60208201526000906001600160a01b0385166124ed5760405162461bcd60e51b8152600401610b0c9190612cbf565b506001600160a01b038085166000908152601b6020908152604080832093871683529290522054610c029085908590610bf0908690613270565b60408051808201909152600c81526b5a65726f206164647265737360a01b60208201526001600160a01b0383166125715760405162461bcd60e51b8152600401610b0c9190612cbf565b5080601c60008282546125849190613270565b909155506125969050828260016129b2565b6040518181526001600160a01b038316906000907fddf252ad1be2c89b69c2b068fc378daa952ba7f163c4a11628f55a4df523b3ef9060200160405180910390a35050565b60006125e682612b55565b1561261d5760006125f683612b90565b6001600160a01b0384166000908152601d6020526040902054909150610c19908290613112565b506001600160a01b0381166000908152601d60205260409020545b919050565b600e80546001600160a01b0383811663010000008181026301000000600160b81b031985161790945560405193909204169182907f8be0079c531659141344cd1fd0a4f28419497f9722a3daafe3b4186f6b6457e090600090a35050565b60408051808201909152600c81526b5a65726f206164647265737360a01b60208201526001600160a01b0383166126e55760405162461bcd60e51b8152600401610b0c9190612cbf565b5060006126f1836125db565b9050818110156040518060400160405280600f81526020016e457863656564732062616c616e636560881b8152509061273d5760405162461bcd60e51b8152600401610b0c9190612cbf565b5061274a838360006129b2565b81601c600082825461275c9190613112565b909155506127679050565b6040518281526000906001600160a01b038516907fddf252ad1be2c89b69c2b068fc378daa952ba7f163c4a11628f55a4df523b3ef90602001612470565b60408051808201909152600c81526b5a65726f206164647265737360a01b60208201526001600160a01b0384166127ef5760405162461bcd60e51b8152600401610b0c9190612cbf565b5060408051808201909152600c81526b5a65726f206164647265737360a01b60208201526001600160a01b03831661283a5760405162461bcd60e51b8152600401610b0c9190612cbf565b506000612846846125db565b9050818110156040518060400160405280600f81526020016e457863656564732062616c616e636560881b815250906128925760405162461bcd60e51b8152600401610b0c9190612cbf565b5061289f848360006129b2565b6128ab838360016129b2565b826001600160a01b0316846001600160a01b03167fddf252ad1be2c89b69c2b068fc378daa952ba7f163c4a11628f55a4df523b3ef846040516128f091815260200190565b60405180910390a350505050565b60408051808201909152600c81526b5a65726f206164647265737360a01b60208201526001600160a01b0383166129485760405162461bcd60e51b8152600401610b0c9190612cbf565b506000612954836125db565b9050818110156040518060400160405280600f81526020016e457863656564732062616c616e636560881b815250906129a05760405162461bcd60e51b8152600401610b0c9190612cbf565b506129ad838360006129b2565b612767565b6129bb83612b55565b15612ab8576129c983612bdf565b8015612a1c576001600160a01b0383166000908152601d6020526040812080548492906129f7908490613270565b909155505060348054839190600090612a11908490613270565b90915550612a649050565b6001600160a01b0383166000908152601d602052604081208054849290612a44908490613112565b909155505060348054839190600090612a5e908490613112565b90915550505b6033546001600160a01b0384166000908152601d602052604090205464e8d4a5100091612a9091613251565b612a9a91906134d9565b6001600160a01b038416600090815260376020526040902055505050565b8015612b0a576001600160a01b0383166000908152601d602052604081208054849290612ae6908490613270565b925050819055508160386000828254612aff9190613270565b9091555061162d9050565b6001600160a01b0383166000908152601d602052604081208054849290612b32908490613112565b925050819055508160386000828254612b4b9190613112565b9091555050505050565b6001600160a01b038181166000908152600a6020526040812054909116158015610b46575050601e546001600160a01b039081169116141590565b6001600160a01b038116600090815260376020908152604080832054603354601d90935290832054909164e8d4a5100091612bcb9190613251565b612bd591906134d9565b610b469190613112565b6000612bea82612b90565b90508015610ccb576001600160a01b0382166000908152601d602052604081208054839290612c1a908490613112565b9250508190555080601c6000828254612c339190613112565b909155505060348054829190600090612c4d908490613112565b909155505060358054829190600090612c67908490613112565b90915550506033546001600160a01b0383166000908152601d602052604090205464e8d4a5100091612c9891613251565b612ca291906134d9565b6001600160a01b0383166000908152603760205260409020555050565b600060208083528351808285015260005b81811015612cec57858101830151858201604001528201612cd0565b81811115612cfe576000604083870101525b50601f01601f1916929092016040019392505050565b80356001600160a01b038116811461263857600080fd5b60008060408385031215612d3e57600080fd5b612d4783612d14565b946020939093013593505050565b60058110610d8e57600080fd5b600060208284031215612d7457600080fd5b8135610c1981612d55565b600080600060608486031215612d9457600080fd5b612d9d84612d14565b9250612dab60208501612d14565b9150604084013590509250925092565b8015158114610d8e57600080fd5b60008060408385031215612ddc57600080fd5b8235612de781612d55565b91506020830135612df781612dbb565b809150509250929050565b634e487b7160e01b600052602160045260246000fd5b60058110610d8e57610d8e612e02565b81516080820190612e3881612e18565b80835250602083015160208301526040830151604083015260608301511515606083015292915050565b600060208284031215612e7457600080fd5b610c1982612d14565b6000806000808486036080811215612e9457600080fd5b612e9d86612d14565b94506020868101359450603f1982011215612eb757600080fd5b506040850191506060850135612ecc81612dbb565b939692955090935050565b60008060408385031215612eea57600080fd5b612ef383612d14565b9150612f0160208401612d14565b90509250929050565b60008060008385036060811215612f2057600080fd5b8435612f2b81612d55565b93506020601f1982011215612f3f57600080fd5b506040516020810181811067ffffffffffffffff82111715612f7157634e487b7160e01b600052604160045260246000fd5b604052602085013563ffffffff81168114612f8b57600080fd5b81529150612f9b60408501612d14565b90509250925092565b600080600060608486031215612fb957600080fd5b8335612fc481612d55565b9250612fd260208501612d14565b9150612f9b60408501612d14565b600080600080600060a08688031215612ff857600080fd5b61300186612d14565b945061300f60208701612d14565b935061301d60408701612d14565b925060608601356004811061303157600080fd5b915061303f60808701612d14565b90509295509295909350565b600080828403604081121561305f57600080fd5b602081121561306d57600080fd5b506040516020810181811067ffffffffffffffff8211171561309f57634e487b7160e01b600052604160045260246000fd5b6040526130ab84612d14565b81529150612f0160208401612d14565b600481106130cb576130cb612e02565b9052565b6001600160a01b03848116825283166020820152606081016130f460408301846130bb565b949350505050565b634e487b7160e01b600052601160045260246000fd5b600082821015613124576131246130fc565b500390565b6020808252818101527f4f776e61626c653a2063616c6c6572206973206e6f7420746865206f776e6572604082015260600190565b600181815b8085111561319957816000190482111561317f5761317f6130fc565b8085161561318c57918102915b93841c9390800290613163565b509250929050565b6000826131b057506001610b46565b816131bd57506000610b46565b81600181146131d357600281146131dd576131f9565b6001915050610b46565b60ff8411156131ee576131ee6130fc565b50506001821b610b46565b5060208310610133831016604e8410600b841016171561321c575081810a610b46565b613226838361315e565b806000190482111561323a5761323a6130fc565b029392505050565b6000610c1960ff8416836131a1565b600081600019048311821515161561326b5761326b6130fc565b500290565b60008219821115613283576132836130fc565b500190565b6020808252601590820152742737ba10309039b2b9b9b4b7b71036b0b730b3b2b960591b604082015260600190565b634e487b7160e01b600052603260045260246000fd5b6000816132dc576132dc6130fc565b506000190190565b6000600182016132f6576132f66130fc565b5060010190565b60208082526010908201526f496e76616c69642063616c6c6572203160801b604082015260600190565b6060810161333485612e18565b93815260208101929092525163ffffffff1660409091015290565b6060810161335c85612e18565b938152915163ffffffff1660208301526001600160a01b031660409091015290565b6040810161338b84612e18565b928152905163ffffffff1660209091015290565b606081016133ac85612e18565b9381526001600160a01b0392909216602083015260409091015290565b606081016133d685612e18565b9381526001600160a01b039283166020820152911660409091015290565b6040810161340184612e18565b9281526001600160a01b039190911660209091015290565b6001600160a01b03948516815292841660208401529083166040830152909116606082015260800190565b60006020828403121561345657600080fd5b8151610c1981612dbb565b6001600160a01b0386811682528581166020830152848116604083015260a082019061349060608401866130bb565b8084166080840152509695505050505050565b6001600160a01b038581168252848116602083015283166040820152608081016134d060608301846130bb565b95945050505050565b6000826134f657634e487b7160e01b600052601260045260246000fd5b500490565b6000610c1983836131a1565b6000806040838503121561351a57600080fd5b50508051602090910151909290915056fea264697066735822122023276fc66ad02e5162695920d541ff80beb63ec2d52312b24c09737aeb70359f64736f6c634300080e0033",
  "linkReferences": {
    "contracts/libraries/WireLibrary.sol": {
      "WireLibrary": [
        {
          "length": 20,
          "start": 7936
        },
        {
          "length": 20,
          "start": 8361
        },
        {
          "length": 20,
          "start": 9224
        },
        {
          "length": 20,
          "start": 9406
        },
        {
          "length": 20,
          "start": 9596
        },
        {
          "length": 20,
          "start": 10371
        }
      ]
    }
  },
  "deployedLinkReferences": {
    "contracts/libraries/WireLibrary.sol": {
      "WireLibrary": [
        {
          "length": 20,
          "start": 5391
        },
        {
          "length": 20,
          "start": 5816
        },
        {
          "length": 20,
          "start": 6679
        },
        {
          "length": 20,
          "start": 6861
        },
        {
          "length": 20,
          "start": 7051
        },
        {
          "length": 20,
          "start": 7826
        }
      ]
    }
  }
}