{
  "_format": "hh-sol-artifact-1",
  "contractName": "TGRToken",
  "sourceName": "contracts/farm/TGRToken.sol",
  "abi": [
    {
      "inputs": [
        {
          "internalType": "address",
          "name": "_analyticMath",
          "type": "address"
        }
      ],
      "stateMutability": "nonpayable",
      "type": "constructor"
    },
    {
      "anonymous": false,
      "inputs": [
        {
          "indexed": true,
          "internalType": "address",
          "name": "owner",
          "type": "address"
        },
        {
          "indexed": true,
          "internalType": "address",
          "name": "spender",
          "type": "address"
        },
        {
          "indexed": false,
          "internalType": "uint256",
          "name": "value",
          "type": "uint256"
        }
      ],
      "name": "Approval",
      "type": "event"
    },
    {
      "anonymous": false,
      "inputs": [],
      "name": "Begin",
      "type": "event"
    },
    {
      "anonymous": false,
      "inputs": [
        {
          "indexed": false,
          "internalType": "address",
          "name": "pair",
          "type": "address"
        },
        {
          "indexed": false,
          "internalType": "address",
          "name": "tokenA",
          "type": "address"
        },
        {
          "indexed": false,
          "internalType": "address",
          "name": "tokenB",
          "type": "address"
        },
        {
          "indexed": false,
          "internalType": "enum ListStatus",
          "name": "status",
          "type": "uint8"
        }
      ],
      "name": "ChangePairStatus",
      "type": "event"
    },
    {
      "anonymous": false,
      "inputs": [
        {
          "indexed": false,
          "internalType": "address",
          "name": "token",
          "type": "address"
        },
        {
          "indexed": false,
          "internalType": "address",
          "name": "msgSender",
          "type": "address"
        }
      ],
      "name": "DeenlistToken",
      "type": "event"
    },
    {
      "anonymous": false,
      "inputs": [
        {
          "indexed": true,
          "internalType": "address",
          "name": "previousOwner",
          "type": "address"
        },
        {
          "indexed": true,
          "internalType": "address",
          "name": "newOwner",
          "type": "address"
        }
      ],
      "name": "OwnershipTransferred",
      "type": "event"
    },
    {
      "anonymous": false,
      "inputs": [
        {
          "indexed": false,
          "internalType": "enum ActionType",
          "name": "_sessionType",
          "type": "uint8"
        },
        {
          "components": [
            {
              "internalType": "uint32",
              "name": "accountant",
              "type": "uint32"
            }
          ],
          "indexed": false,
          "internalType": "struct FeeRates",
          "name": "_feeRates",
          "type": "tuple"
        }
      ],
      "name": "SetFeeRates",
      "type": "event"
    },
    {
      "anonymous": false,
      "inputs": [
        {
          "components": [
            {
              "internalType": "address",
              "name": "accountant",
              "type": "address"
            }
          ],
          "indexed": false,
          "internalType": "struct FeeStores",
          "name": "_feeStores",
          "type": "tuple"
        }
      ],
      "name": "SetFeeStores",
      "type": "event"
    },
    {
      "anonymous": false,
      "inputs": [
        {
          "indexed": false,
          "internalType": "enum NodeType",
          "name": "nodeType",
          "type": "uint8"
        },
        {
          "indexed": false,
          "internalType": "address",
          "name": "node",
          "type": "address"
        }
      ],
      "name": "SetNode",
      "type": "event"
    },
    {
      "anonymous": false,
      "inputs": [
        {
          "indexed": true,
          "internalType": "address",
          "name": "from",
          "type": "address"
        },
        {
          "indexed": true,
          "internalType": "address",
          "name": "to",
          "type": "address"
        },
        {
          "indexed": false,
          "internalType": "uint256",
          "name": "value",
          "type": "uint256"
        }
      ],
      "name": "Transfer",
      "type": "event"
    },
    {
      "inputs": [
        {
          "internalType": "address",
          "name": "_owner",
          "type": "address"
        },
        {
          "internalType": "address",
          "name": "_spender",
          "type": "address"
        },
        {
          "internalType": "uint256",
          "name": "subtractedValue",
          "type": "uint256"
        }
      ],
      "name": "_decreaseAllowance",
      "outputs": [
        {
          "internalType": "bool",
          "name": "",
          "type": "bool"
        }
      ],
      "stateMutability": "nonpayable",
      "type": "function"
    },
    {
      "inputs": [
        {
          "internalType": "address",
          "name": "_owner",
          "type": "address"
        },
        {
          "internalType": "address",
          "name": "_spender",
          "type": "address"
        }
      ],
      "name": "allowance",
      "outputs": [
        {
          "internalType": "uint256",
          "name": "",
          "type": "uint256"
        }
      ],
      "stateMutability": "view",
      "type": "function"
    },
    {
      "inputs": [
        {
          "internalType": "address",
          "name": "spender",
          "type": "address"
        },
        {
          "internalType": "uint256",
          "name": "amount",
          "type": "uint256"
        }
      ],
      "name": "approve",
      "outputs": [
        {
          "internalType": "bool",
          "name": "",
          "type": "bool"
        }
      ],
      "stateMutability": "nonpayable",
      "type": "function"
    },
    {
      "inputs": [
        {
          "internalType": "address",
          "name": "account",
          "type": "address"
        }
      ],
      "name": "balanceOf",
      "outputs": [
        {
          "internalType": "uint256",
          "name": "",
          "type": "uint256"
        }
      ],
      "stateMutability": "view",
      "type": "function"
    },
    {
      "inputs": [
        {
          "internalType": "address",
          "name": "caller",
          "type": "address"
        }
      ],
      "name": "begin",
      "outputs": [],
      "stateMutability": "nonpayable",
      "type": "function"
    },
    {
      "inputs": [
        {
          "internalType": "address",
          "name": "from",
          "type": "address"
        },
        {
          "internalType": "uint256",
          "name": "amount",
          "type": "uint256"
        }
      ],
      "name": "burn",
      "outputs": [],
      "stateMutability": "nonpayable",
      "type": "function"
    },
    {
      "inputs": [
        {
          "internalType": "uint256",
          "name": "_buysell_burn_rate",
          "type": "uint256"
        },
        {
          "internalType": "uint256",
          "name": "_shift_burn_rate",
          "type": "uint256"
        }
      ],
      "name": "changeBurnRates",
      "outputs": [],
      "stateMutability": "nonpayable",
      "type": "function"
    },
    {
      "inputs": [
        {
          "internalType": "address",
          "name": "pair",
          "type": "address"
        },
        {
          "internalType": "address",
          "name": "token0",
          "type": "address"
        },
        {
          "internalType": "address",
          "name": "token1",
          "type": "address"
        },
        {
          "internalType": "enum ListStatus",
          "name": "status",
          "type": "uint8"
        },
        {
          "internalType": "address",
          "name": "caller",
          "type": "address"
        }
      ],
      "name": "changePairStatus",
      "outputs": [],
      "stateMutability": "nonpayable",
      "type": "function"
    },
    {
      "inputs": [],
      "name": "checkForConsistency",
      "outputs": [],
      "stateMutability": "view",
      "type": "function"
    },
    {
      "inputs": [],
      "name": "decimals",
      "outputs": [
        {
          "internalType": "uint8",
          "name": "",
          "type": "uint8"
        }
      ],
      "stateMutability": "view",
      "type": "function"
    },
    {
      "inputs": [
        {
          "internalType": "address",
          "name": "spender",
          "type": "address"
        },
        {
          "internalType": "uint256",
          "name": "subtractedValue",
          "type": "uint256"
        }
      ],
      "name": "decreaseAllowance",
      "outputs": [
        {
          "internalType": "bool",
          "name": "",
          "type": "bool"
        }
      ],
      "stateMutability": "nonpayable",
      "type": "function"
    },
    {
      "inputs": [
        {
          "internalType": "enum ActionType",
          "name": "",
          "type": "uint8"
        }
      ],
      "name": "feeRates",
      "outputs": [
        {
          "internalType": "uint32",
          "name": "accountant",
          "type": "uint32"
        }
      ],
      "stateMutability": "view",
      "type": "function"
    },
    {
      "inputs": [],
      "name": "feeStores",
      "outputs": [
        {
          "internalType": "address",
          "name": "accountant",
          "type": "address"
        }
      ],
      "stateMutability": "view",
      "type": "function"
    },
    {
      "inputs": [],
      "name": "getCurrentActionType",
      "outputs": [
        {
          "internalType": "enum ActionType",
          "name": "",
          "type": "uint8"
        }
      ],
      "stateMutability": "view",
      "type": "function"
    },
    {
      "inputs": [],
      "name": "getOwner",
      "outputs": [
        {
          "internalType": "address",
          "name": "",
          "type": "address"
        }
      ],
      "stateMutability": "view",
      "type": "function"
    },
    {
      "inputs": [
        {
          "internalType": "address",
          "name": "account",
          "type": "address"
        }
      ],
      "name": "getStatus",
      "outputs": [
        {
          "internalType": "uint256",
          "name": "totalSupply",
          "type": "uint256"
        },
        {
          "internalType": "uint256",
          "name": "ub_accDecayPer1e12",
          "type": "uint256"
        },
        {
          "internalType": "uint256",
          "name": "ub_sum_tokens",
          "type": "uint256"
        },
        {
          "internalType": "uint256",
          "name": "ub_pending_burn",
          "type": "uint256"
        },
        {
          "internalType": "uint256",
          "name": "_nonUserSumTokens",
          "type": "uint256"
        },
        {
          "internalType": "uint256",
          "name": "account_balances",
          "type": "uint256"
        },
        {
          "internalType": "uint256",
          "name": "account_balanceOf",
          "type": "uint256"
        },
        {
          "internalType": "uint256",
          "name": "account_pending_burn",
          "type": "uint256"
        },
        {
          "internalType": "uint256",
          "name": "account_debtToPendingBurn",
          "type": "uint256"
        }
      ],
      "stateMutability": "view",
      "type": "function"
    },
    {
      "inputs": [],
      "name": "htzFtm",
      "outputs": [
        {
          "internalType": "address",
          "name": "",
          "type": "address"
        }
      ],
      "stateMutability": "view",
      "type": "function"
    },
    {
      "inputs": [
        {
          "internalType": "address",
          "name": "spender",
          "type": "address"
        },
        {
          "internalType": "uint256",
          "name": "addedValue",
          "type": "uint256"
        }
      ],
      "name": "increaseAllowance",
      "outputs": [
        {
          "internalType": "bool",
          "name": "",
          "type": "bool"
        }
      ],
      "stateMutability": "nonpayable",
      "type": "function"
    },
    {
      "inputs": [],
      "name": "lastSession",
      "outputs": [
        {
          "internalType": "uint256",
          "name": "",
          "type": "uint256"
        }
      ],
      "stateMutability": "view",
      "type": "function"
    },
    {
      "inputs": [],
      "name": "lp_reward",
      "outputs": [
        {
          "internalType": "uint256",
          "name": "latestTime",
          "type": "uint256"
        },
        {
          "internalType": "uint256",
          "name": "cycle",
          "type": "uint256"
        },
        {
          "internalType": "uint256",
          "name": "decayRate",
          "type": "uint256"
        },
        {
          "internalType": "address",
          "name": "account",
          "type": "address"
        },
        {
          "internalType": "uint256",
          "name": "accDecayPer1e12",
          "type": "uint256"
        },
        {
          "internalType": "uint256",
          "name": "sum_tokens",
          "type": "uint256"
        },
        {
          "internalType": "uint256",
          "name": "pending_burn",
          "type": "uint256"
        },
        {
          "internalType": "uint256",
          "name": "latestRound",
          "type": "uint256"
        }
      ],
      "stateMutability": "view",
      "type": "function"
    },
    {
      "inputs": [],
      "name": "maxSupply",
      "outputs": [
        {
          "internalType": "uint256",
          "name": "",
          "type": "uint256"
        }
      ],
      "stateMutability": "view",
      "type": "function"
    },
    {
      "inputs": [
        {
          "internalType": "address",
          "name": "to",
          "type": "address"
        },
        {
          "internalType": "uint256",
          "name": "amount",
          "type": "uint256"
        }
      ],
      "name": "mint",
      "outputs": [],
      "stateMutability": "nonpayable",
      "type": "function"
    },
    {
      "inputs": [],
      "name": "name",
      "outputs": [
        {
          "internalType": "string",
          "name": "",
          "type": "string"
        }
      ],
      "stateMutability": "view",
      "type": "function"
    },
    {
      "inputs": [],
      "name": "nextNode",
      "outputs": [
        {
          "internalType": "address",
          "name": "",
          "type": "address"
        }
      ],
      "stateMutability": "view",
      "type": "function"
    },
    {
      "inputs": [],
      "name": "owner",
      "outputs": [
        {
          "internalType": "address",
          "name": "",
          "type": "address"
        }
      ],
      "stateMutability": "view",
      "type": "function"
    },
    {
      "inputs": [
        {
          "internalType": "address",
          "name": "",
          "type": "address"
        },
        {
          "internalType": "address",
          "name": "",
          "type": "address"
        }
      ],
      "name": "pairFor",
      "outputs": [
        {
          "internalType": "address",
          "name": "",
          "type": "address"
        }
      ],
      "stateMutability": "view",
      "type": "function"
    },
    {
      "inputs": [
        {
          "internalType": "address",
          "name": "",
          "type": "address"
        }
      ],
      "name": "pairs",
      "outputs": [
        {
          "internalType": "address",
          "name": "token0",
          "type": "address"
        },
        {
          "internalType": "address",
          "name": "token1",
          "type": "address"
        },
        {
          "internalType": "enum ListStatus",
          "name": "status",
          "type": "uint8"
        }
      ],
      "stateMutability": "view",
      "type": "function"
    },
    {
      "inputs": [],
      "name": "pause",
      "outputs": [],
      "stateMutability": "nonpayable",
      "type": "function"
    },
    {
      "inputs": [],
      "name": "paused",
      "outputs": [
        {
          "internalType": "bool",
          "name": "",
          "type": "bool"
        }
      ],
      "stateMutability": "view",
      "type": "function"
    },
    {
      "inputs": [
        {
          "internalType": "address",
          "name": "account",
          "type": "address"
        },
        {
          "internalType": "uint256",
          "name": "principal",
          "type": "uint256"
        },
        {
          "components": [
            {
              "internalType": "uint32",
              "name": "accountant",
              "type": "uint32"
            }
          ],
          "internalType": "struct FeeRates",
          "name": "rates",
          "type": "tuple"
        },
        {
          "internalType": "bool",
          "name": "fromAllowance",
          "type": "bool"
        }
      ],
      "name": "payFeeTgrLogic",
      "outputs": [
        {
          "internalType": "uint256",
          "name": "feesPaid",
          "type": "uint256"
        }
      ],
      "stateMutability": "nonpayable",
      "type": "function"
    },
    {
      "inputs": [],
      "name": "prevNode",
      "outputs": [
        {
          "internalType": "address",
          "name": "",
          "type": "address"
        }
      ],
      "stateMutability": "view",
      "type": "function"
    },
    {
      "inputs": [],
      "name": "pulse_lp_reward",
      "outputs": [],
      "stateMutability": "nonpayable",
      "type": "function"
    },
    {
      "inputs": [],
      "name": "pulse_user_burn",
      "outputs": [],
      "stateMutability": "nonpayable",
      "type": "function"
    },
    {
      "inputs": [],
      "name": "pulse_vote_burn",
      "outputs": [],
      "stateMutability": "nonpayable",
      "type": "function"
    },
    {
      "inputs": [
        {
          "internalType": "enum ActionType",
          "name": "actionType",
          "type": "uint8"
        },
        {
          "internalType": "bool",
          "name": "blockReentry",
          "type": "bool"
        }
      ],
      "name": "registerAction",
      "outputs": [
        {
          "components": [
            {
              "internalType": "enum ActionType",
              "name": "actionType",
              "type": "uint8"
            },
            {
              "internalType": "uint256",
              "name": "session",
              "type": "uint256"
            },
            {
              "internalType": "uint256",
              "name": "lastSession",
              "type": "uint256"
            },
            {
              "internalType": "bool",
              "name": "isUserAction",
              "type": "bool"
            }
          ],
          "internalType": "struct ActionParams",
          "name": "actionParams",
          "type": "tuple"
        }
      ],
      "stateMutability": "nonpayable",
      "type": "function"
    },
    {
      "inputs": [],
      "name": "renounceOwnership",
      "outputs": [],
      "stateMutability": "nonpayable",
      "type": "function"
    },
    {
      "inputs": [],
      "name": "resume",
      "outputs": [],
      "stateMutability": "nonpayable",
      "type": "function"
    },
    {
      "inputs": [],
      "name": "session",
      "outputs": [
        {
          "internalType": "uint256",
          "name": "",
          "type": "uint256"
        }
      ],
      "stateMutability": "view",
      "type": "function"
    },
    {
      "inputs": [
        {
          "internalType": "enum ActionType",
          "name": "",
          "type": "uint8"
        }
      ],
      "name": "sessionsLastSeenBySType",
      "outputs": [
        {
          "internalType": "uint256",
          "name": "",
          "type": "uint256"
        }
      ],
      "stateMutability": "view",
      "type": "function"
    },
    {
      "inputs": [
        {
          "internalType": "enum ActionType",
          "name": "_sessionType",
          "type": "uint8"
        },
        {
          "components": [
            {
              "internalType": "uint32",
              "name": "accountant",
              "type": "uint32"
            }
          ],
          "internalType": "struct FeeRates",
          "name": "_feeRates",
          "type": "tuple"
        },
        {
          "internalType": "address",
          "name": "caller",
          "type": "address"
        }
      ],
      "name": "setFeeRates",
      "outputs": [],
      "stateMutability": "nonpayable",
      "type": "function"
    },
    {
      "inputs": [
        {
          "components": [
            {
              "internalType": "address",
              "name": "accountant",
              "type": "address"
            }
          ],
          "internalType": "struct FeeStores",
          "name": "_feeStores",
          "type": "tuple"
        },
        {
          "internalType": "address",
          "name": "caller",
          "type": "address"
        }
      ],
      "name": "setFeeStores",
      "outputs": [],
      "stateMutability": "nonpayable",
      "type": "function"
    },
    {
      "inputs": [
        {
          "internalType": "enum NodeType",
          "name": "nodeType",
          "type": "uint8"
        },
        {
          "internalType": "address",
          "name": "node",
          "type": "address"
        },
        {
          "internalType": "address",
          "name": "caller",
          "type": "address"
        }
      ],
      "name": "setNode",
      "outputs": [],
      "stateMutability": "nonpayable",
      "type": "function"
    },
    {
      "inputs": [],
      "name": "symbol",
      "outputs": [
        {
          "internalType": "string",
          "name": "",
          "type": "string"
        }
      ],
      "stateMutability": "view",
      "type": "function"
    },
    {
      "inputs": [],
      "name": "tgrBusd",
      "outputs": [
        {
          "internalType": "address",
          "name": "",
          "type": "address"
        }
      ],
      "stateMutability": "view",
      "type": "function"
    },
    {
      "inputs": [],
      "name": "tgrFtm",
      "outputs": [
        {
          "internalType": "address",
          "name": "",
          "type": "address"
        }
      ],
      "stateMutability": "view",
      "type": "function"
    },
    {
      "inputs": [],
      "name": "totalSupply",
      "outputs": [
        {
          "internalType": "uint256",
          "name": "",
          "type": "uint256"
        }
      ],
      "stateMutability": "view",
      "type": "function"
    },
    {
      "inputs": [
        {
          "internalType": "address",
          "name": "recipient",
          "type": "address"
        },
        {
          "internalType": "uint256",
          "name": "amount",
          "type": "uint256"
        }
      ],
      "name": "transfer",
      "outputs": [
        {
          "internalType": "bool",
          "name": "",
          "type": "bool"
        }
      ],
      "stateMutability": "nonpayable",
      "type": "function"
    },
    {
      "inputs": [
        {
          "internalType": "address",
          "name": "sender",
          "type": "address"
        },
        {
          "internalType": "address",
          "name": "recipient",
          "type": "address"
        },
        {
          "internalType": "uint256",
          "name": "amount",
          "type": "uint256"
        }
      ],
      "name": "transferDirectSafe",
      "outputs": [],
      "stateMutability": "nonpayable",
      "type": "function"
    },
    {
      "inputs": [
        {
          "internalType": "address",
          "name": "sender",
          "type": "address"
        },
        {
          "internalType": "address",
          "name": "recipient",
          "type": "address"
        },
        {
          "internalType": "uint256",
          "name": "amount",
          "type": "uint256"
        }
      ],
      "name": "transferFrom",
      "outputs": [
        {
          "internalType": "bool",
          "name": "",
          "type": "bool"
        }
      ],
      "stateMutability": "nonpayable",
      "type": "function"
    },
    {
      "inputs": [
        {
          "internalType": "address",
          "name": "newOwner",
          "type": "address"
        }
      ],
      "name": "transferOwnership",
      "outputs": [],
      "stateMutability": "nonpayable",
      "type": "function"
    },
    {
      "inputs": [],
      "name": "unregisterAction",
      "outputs": [],
      "stateMutability": "nonpayable",
      "type": "function"
    },
    {
      "inputs": [],
      "name": "user_burn",
      "outputs": [
        {
          "internalType": "uint256",
          "name": "latestTime",
          "type": "uint256"
        },
        {
          "internalType": "uint256",
          "name": "cycle",
          "type": "uint256"
        },
        {
          "internalType": "uint256",
          "name": "decayRate",
          "type": "uint256"
        },
        {
          "internalType": "address",
          "name": "account",
          "type": "address"
        },
        {
          "internalType": "uint256",
          "name": "accDecayPer1e12",
          "type": "uint256"
        },
        {
          "internalType": "uint256",
          "name": "sum_tokens",
          "type": "uint256"
        },
        {
          "internalType": "uint256",
          "name": "pending_burn",
          "type": "uint256"
        },
        {
          "internalType": "uint256",
          "name": "latestRound",
          "type": "uint256"
        }
      ],
      "stateMutability": "view",
      "type": "function"
    },
    {
      "inputs": [],
      "name": "vote_burn",
      "outputs": [
        {
          "internalType": "uint256",
          "name": "latestTime",
          "type": "uint256"
        },
        {
          "internalType": "uint256",
          "name": "cycle",
          "type": "uint256"
        },
        {
          "internalType": "uint256",
          "name": "decayRate",
          "type": "uint256"
        },
        {
          "internalType": "address",
          "name": "account",
          "type": "address"
        },
        {
          "internalType": "uint256",
          "name": "accDecayPer1e12",
          "type": "uint256"
        },
        {
          "internalType": "uint256",
          "name": "sum_tokens",
          "type": "uint256"
        },
        {
          "internalType": "uint256",
          "name": "pending_burn",
          "type": "uint256"
        },
        {
          "internalType": "uint256",
          "name": "latestRound",
          "type": "uint256"
        }
      ],
      "stateMutability": "view",
      "type": "function"
    },
    {
      "inputs": [
        {
          "internalType": "address",
          "name": "_prevNode",
          "type": "address"
        },
        {
          "internalType": "address",
          "name": "_nextNode",
          "type": "address"
        }
      ],
      "name": "wire",
      "outputs": [],
      "stateMutability": "nonpayable",
      "type": "function"
    },
    {
      "stateMutability": "payable",
      "type": "receive"
    }
  ],
  "bytecode": "0x60a06040523480156200001157600080fd5b5060405162005d0638038062005d06833981016040819052620000349162000f7f565b6000805460ff19169055620000493362000358565b603e80546001600160a01b0319166001600160a01b0383161790556200006c3390565b603a80546001600160a01b039283166001600160a01b031991821617909155603b805482167370997970c51812dc3a010c7d01b50e0d17dc79c8179055603c80548216733c44cdddb6a900fa2b585dd299e03d12fa4293bc179055603d80549091167390f79bf6eb2c4f870365e785982e1f101e93b90617905573976ea74026e726554db657fa54763abd0c3a0aa960809081526040805161010081018252428082526002602083018190526102b2938301939093526008549094166060820152600092810183905260a0810183905260c0810192909252909160e0830191620001569162000fc0565b90528051601e55602080820151601f556040808301518255606080840151602180546001600160a01b0319166001600160a01b0392831617905560808086015160225560a08087015160235560c08088015160245560e097880151602555855161010081018752428082526002988201899052604697820197909752835190941694840194909452600091830182905282018190529181019190915292830191620002019162000fc0565b90528051602655602080820151602755604080830151602855606080840151602980546001600160a01b0319166001600160a01b03909216919091179055608080850151602a5560a080860151602b5560c080870151602c5560e096870151602d5584516101008101865242808252600497820188905261030996820196909652600094810185905292830184905290820183905281019190915292830191620002ab9162000fc0565b90528051602e556020810151602f5560408101516030556060810151603180546001600160a01b0319166001600160a01b03909216919091179055608081015160325560a081015160335560c081015160345560e00151603555617ab760385561343e603955600e805462ffffff191662010101179055620003516200032e3390565b6200033c6012600a620010e0565b6200034b90620f4240620010f1565b620003b6565b5062001265565b600e80546001600160a01b0383811663010000008181026301000000600160b81b031985161790945560405193909204169182907f8be0079c531659141344cd1fd0a4f28419497f9722a3daafe3b4186f6b6457e090600090a35050565b60408051808201909152600c81526b5a65726f206164647265737360a01b60208201526001600160a01b0383166200040c5760405162461bcd60e51b815260040162000403919062001163565b60405180910390fd5b506200041b8282600162000465565b6040518181526001600160a01b038316906000907fddf252ad1be2c89b69c2b068fc378daa952ba7f163c4a11628f55a4df523b3ef9060200160405180910390a35050565b505050565b6200049760405180606001604052806025815260200162005c7a602591398484846200092860201b62002c681760201c565b620004a2836200097f565b15620007c4576000620004b584620009c4565b90508015620005f557620004c862000a24565b6200050d6040518060600160405280602a815260200162005c24602a9139620004f18662000cd9565b620004fc87620009c4565b62000dd460201b62002cb11760201c565b6001600160a01b0384166000908152601d602052604090205462000532908262000e23565b6001600160a01b0385166000908152601d60205260409020556033546200055a908262000e23565b6033556034546200056c908262000e23565b603455601c546200057e908262000e23565b601c556032546001600160a01b0385166000908152601d6020526040902054620005a99190620010f1565b6001600160a01b038516600090815260366020526040902055620005cc62000a24565b620005f56040518060600160405280602a815260200162005cdc602a9139620004f18662000cd9565b620006436040518060400160405280601e81526020017f5f6368616e676542616c616e6365342e205f746f74616c537570706c793a0000815250601c5462000e4b60201b62002cf81760201c565b8115620006b7576001600160a01b0384166000908152601d6020526040812080548592906200067490849062001178565b9091555050603380548491906000906200069090849062001178565b9250508190555082601c6000828254620006ab919062001178565b909155506200071a9050565b6001600160a01b0384166000908152601d6020526040902054620006dc908462000e23565b6001600160a01b0385166000908152601d602052604090205560335462000704908462000e23565b603355601c5462000716908462000e23565b601c555b620007686040518060400160405280601e81526020017f5f6368616e676542616c616e6365352e205f746f74616c537570706c793a0000815250601c5462000e4b60201b62002cf81760201c565b6200077262000a24565b6032546001600160a01b0385166000908152601d60205260409020546200079a9190620010f1565b6001600160a01b038516600090815260366020526040902055620007bd62000a24565b50620008e8565b801562000837576001600160a01b0383166000908152601d602052604081208054849290620007f590849062001178565b92505081905550816037600082825462000810919062001178565b9250508190555081601c60008282546200082b919062001178565b909155506200089a9050565b6001600160a01b0383166000908152601d60205260409020546200085c908362000e23565b6001600160a01b0384166000908152601d602052604090205560375462000884908362000e23565b603755601c5462000896908362000e23565b601c555b620008e86040518060400160405280601e81526020017f5f6368616e676542616c616e6365362e205f746f74616c537570706c793a0000815250601c5462000e4b60201b62002cf81760201c565b6200046060405180608001604052806041815260200162005be360419139601c5462000914866200097f565b60375462000e9c60201b62002d3d1760201c565b620009798484848460405160240162000945949392919062001193565b60408051601f198184030181529190526020810180516001600160e01b03908116630fc4845f60e41b1790915262000eed16565b50505050565b6001600160a01b038181166000908152600a6020526040812054909116158015620009be57506080516001600160a01b0316826001600160a01b031614155b92915050565b6032546001600160a01b0382166000908152601d6020526040812054909164e8d4a510009162000a1891620009f991620010f1565b6001600160a01b03851660009081526036602052604090205462000e23565b620009be919062000fc0565b603354603454111562000a8b5760405162461bcd60e51b815260206004820152602860248201527f757365725f70656e64696e675f6275726e206578636565647320757365725f736044820152671d5b57dd1bdd185b60c21b606482015260840162000403565b603354603d546001600160a01b039081166000908152601d602052604080822054603c548416835281832054603b548516845282842054603a54909516845291909220549192909162000adf919062001178565b62000aeb919062001178565b62000af7919062001178565b1462000ba657604080518082018252601081526f084848481a5b98dbdb9cda5cdd195b9d60821b602080830191909152603d546001600160a01b039081166000908152601d90925283822054603c548216835284832054603b548316845285842054603a549093168452949092205462000ba6949162000b779162001178565b62000b83919062001178565b62000b8f919062001178565b602e6005015462000dd460201b62002cb11760201c565b60335460345460009162000bba9162000e23565b603d5490915060009062000bd7906001600160a01b031662000f06565b603c5462000bee906001600160a01b031662000f06565b603b5462000c05906001600160a01b031662000f06565b603a5462000c1c906001600160a01b031662000f06565b62000c28919062001178565b62000c34919062001178565b62000c40919062001178565b905060008183101562000c615762000c598383620011cf565b905062000c70565b62000c6d8284620011cf565b90505b60408051808201909152601681527f31653132206572726f725f726174652c206572726f7200000000000000000000602082015262000460908462000cbb8464e8d4a51000620010f1565b62000cc7919062000fc0565b8362000dd460201b62002cb11760201c565b600062000ce6826200097f565b1562000db857600062000cf983620009c4565b6001600160a01b0384166000908152601d602052604090205490915081111562000d4c5762000d4c6040518060600160405280602c815260200162005c4e602c913962000f1360201b62002d861760201c565b60325464e8d4a51000101562000d8b5762000d8b6040518060600160405280603d815260200162005c9f603d913962000f1360201b62002d861760201c565b6001600160a01b0383166000908152601d602052604090205462000db1908290620011cf565b9392505050565b506001600160a01b03166000908152601d602052604090205490565b6200046083838360405160240162000def93929190620011e9565b60408051601f198184030181529190526020810180516001600160e01b0390811663ca47c4eb60e01b1790915262000eed16565b60008183111562000e425762000e3a8284620011cf565b9050620009be565b50600092915050565b62000e98828260405160240162000e6492919062001210565b60408051601f198184030181529190526020810180516001600160e01b03908116632d839cb360e21b1790915262000eed16565b5050565b620009798484848460405160240162000eb9949392919062001234565b60408051601f198184030181529190526020810180516001600160e01b0390811663e41b6f6f60e01b1790915262000eed16565b62000f038162000f5e60201b62002dc91760201c565b50565b6000620009be8262000cd9565b62000f038160405160240162000f2a919062001163565b60408051601f198184030181529190526020810180516001600160e01b0390811663104c13eb60e21b1790915262000eed16565b60006a636f6e736f6c652e6c6f679050600080835160208501845afa505050565b60006020828403121562000f9257600080fd5b81516001600160a01b038116811462000db157600080fd5b634e487b7160e01b600052601160045260246000fd5b60008262000fde57634e487b7160e01b600052601260045260246000fd5b500490565b600181815b808511156200102457816000190482111562001008576200100862000faa565b808516156200101657918102915b93841c939080029062000fe8565b509250929050565b6000826200103d57506001620009be565b816200104c57506000620009be565b8160018114620010655760028114620010705762001090565b6001915050620009be565b60ff84111562001084576200108462000faa565b50506001821b620009be565b5060208310610133831016604e8410600b8410161715620010b5575081810a620009be565b620010c1838362000fe3565b8060001904821115620010d857620010d862000faa565b029392505050565b600062000db160ff8416836200102c565b60008160001904831182151516156200110e576200110e62000faa565b500290565b6000815180845260005b818110156200113b576020818501810151868301820152016200111d565b818111156200114e576000602083870101525b50601f01601f19169290920160200192915050565b60208152600062000db1602083018462001113565b600082198211156200118e576200118e62000faa565b500190565b608081526000620011a8608083018762001113565b6001600160a01b039590951660208301525060408101929092521515606090910152919050565b600082821015620011e457620011e462000faa565b500390565b606081526000620011fe606083018662001113565b60208301949094525060400152919050565b60408152600062001225604083018562001113565b90508260208301529392505050565b60808152600062001249608083018762001113565b6020830195909552509115156040830152606090910152919050565b6080516149626200128160003960006136d401526149626000f3fe6080604052600436106103395760003560e01c80638456cb59116101ab578063a51bb24e116100f7578063e729a45511610095578063ed2deb8b1161006f578063ed2deb8b14610abc578063f2fde38b14610ad1578063f9a21e8a14610af1578063fe33b30214610b1157600080fd5b8063e729a45514610a64578063eca4c46614610a79578063ecd6f46a14610a8f57600080fd5b8063cd537aa1116100d1578063cd537aa1146109c9578063cdd9224c146109e9578063d5abeb0114610a09578063dd62ed3e14610a1e57600080fd5b8063a51bb24e14610969578063a9059cbb14610989578063cd193c43146109a957600080fd5b8063934923a3116101645780639dc29fac1161013e5780639dc29fac146108cd578063a13c1f67146108ed578063a150da2a14610929578063a457c2d71461094957600080fd5b8063934923a31461084057806395d89b411461086057806396ed28f91461088c57600080fd5b80638456cb59146107a6578063893d20e8146107bb5780638da5cb5b146107bb57806390e3677f146107e057806391fd0db714610800578063928879d61461082057600080fd5b806339509351116102855780635e3568b8116102235780636c93564f116101fd5780636c93564f1461072057806370a082311461075c578063715018a61461077c578063739572891461079157600080fd5b80635e3568b8146106ca57806365715c56146106e057806368fb3c721461070057600080fd5b80634be548271161025f5780634be548271461064157806354abe9d01461066e5780635c975abb1461068e5780635d392daa146106a857600080fd5b806339509351146105ec57806340c10f191461060c578063431b3c301461062c57600080fd5b806310224711116102f2578063249dfad7116102cc578063249dfad7146104c857806330ccebb5146104ed578063313ce567146105515780633660777d1461056d57600080fd5b8063102247111461043d57806318160ddd1461048557806323b872dd146104a857600080fd5b8063046f7da21461034557806306fdde031461035c578063086a606c146103a0578063095ea7b3146103b557806309b16a22146103e55780630c3d536b1461041d57600080fd5b3661034057005b600080fd5b34801561035157600080fd5b5061035a610b6d565b005b34801561036857600080fd5b506040805180820190915260098152682a23a9102a37b5b2b760b91b60208201525b6040516103979190613cc7565b60405180910390f35b3480156103ac57600080fd5b5061035a610bdd565b3480156103c157600080fd5b506103d56103d0366004613cf1565b611069565b6040519015158152602001610397565b3480156103f157600080fd5b50600854610405906001600160a01b031681565b6040516001600160a01b039091168152602001610397565b34801561042957600080fd5b50600954610405906001600160a01b031681565b34801561044957600080fd5b50610470610458366004613d28565b600d6020526000908152604090205463ffffffff1681565b60405163ffffffff9091168152602001610397565b34801561049157600080fd5b5061049a611080565b604051908152602001610397565b3480156104b457600080fd5b506103d56104c3366004613d45565b61108f565b3480156104d457600080fd5b506000546104059061010090046001600160a01b031681565b3480156104f957600080fd5b5061050d610508366004613d81565b611140565b60408051998a5260208a0198909852968801959095526060870193909352608086019190915260a085015260c084015260e083015261010082015261012001610397565b34801561055d57600080fd5b5060405160128152602001610397565b34801561057957600080fd5b50602654602754602854602954602a54602b54602c54602d546105a9979695946001600160a01b03169392919088565b604080519889526020890197909752958701949094526001600160a01b039092166060860152608085015260a084015260c083015260e082015261010001610397565b3480156105f857600080fd5b506103d5610607366004613cf1565b6111ba565b34801561061857600080fd5b5061035a610627366004613cf1565b6111ce565b34801561063857600080fd5b5061035a61127d565b34801561064d57600080fd5b5061066161065c366004613daa565b61133e565b6040516103979190613e0d565b34801561067a57600080fd5b5061035a610689366004613d81565b611665565b34801561069a57600080fd5b506014546103d59060ff1681565b3480156106b457600080fd5b506106bd611788565b6040516103979190613e46565b3480156106d657600080fd5b5061049a600f5481565b3480156106ec57600080fd5b50600154610405906001600160a01b031681565b34801561070c57600080fd5b5061049a61071b366004613e54565b6117ba565b34801561072c57600080fd5b50602e54602f546030546031546032546033546034546035546105a9979695946001600160a01b03169392919088565b34801561076857600080fd5b5061049a610777366004613d81565b611822565b34801561078857600080fd5b5061035a61182d565b34801561079d57600080fd5b5061035a61186b565b3480156107b257600080fd5b5061035a611ad8565b3480156107c757600080fd5b50600e54630100000090046001600160a01b0316610405565b3480156107ec57600080fd5b5061035a6107fb366004613eae565b611b46565b34801561080c57600080fd5b5061035a61081b366004613f28565b611be4565b34801561082c57600080fd5b5061035a61083b366004613fb4565b611d9d565b34801561084c57600080fd5b50600754610405906001600160a01b031681565b34801561086c57600080fd5b506040805180820190915260038152622a23a960e91b602082015261038a565b34801561089857600080fd5b506104056108a7366004613eae565b600b6020908152600092835260408084209091529082529020546001600160a01b031681565b3480156108d957600080fd5b5061035a6108e8366004613cf1565b611e58565b3480156108f957600080fd5b50601e54601f546020546021546022546023546024546025546105a9979695946001600160a01b03169392919088565b34801561093557600080fd5b506103d5610944366004613d45565b611e94565b34801561095557600080fd5b506103d5610964366004613cf1565b611f1b565b34801561097557600080fd5b5061035a610984366004613ff4565b611f28565b34801561099557600080fd5b506103d56109a4366004613cf1565b611fcc565b3480156109b557600080fd5b5061035a6109c4366004614016565b611fd9565b3480156109d557600080fd5b5061035a6109e4366004613d45565b612475565b3480156109f557600080fd5b5061035a610a04366004614081565b6128cd565b348015610a1557600080fd5b5061049a612a92565b348015610a2a57600080fd5b5061049a610a39366004613eae565b6001600160a01b039182166000908152601b6020908152604080832093909416825291909152205490565b348015610a7057600080fd5b5061035a612aaf565b348015610a8557600080fd5b5061049a60105481565b348015610a9b57600080fd5b5061049a610aaa366004613d28565b60116020526000908152604090205481565b348015610ac857600080fd5b5061035a612b0b565b348015610add57600080fd5b5061035a610aec366004613d81565b612bc8565b348015610afd57600080fd5b50600c54610405906001600160a01b031681565b348015610b1d57600080fd5b50610b5e610b2c366004613d81565b600a60205260009081526040902080546001909101546001600160a01b0391821691811690600160a01b900460ff1683565b604051610397939291906140f3565b600e54630100000090046001600160a01b03166001600160a01b0316336001600160a01b031614610bd15760405162461bcd60e51b81526020600482015260096024820152682737ba1037bbb732b960b91b60448201526064015b60405180910390fd5b6014805460ff19169055565b6000610be9601e612dea565b90508015611066576000610bfc30612e92565b9050600064e8d4a5100083600860009054906101000a90046001600160a01b03166001600160a01b03166318160ddd6040518163ffffffff1660e01b8152600401602060405180830381865afa158015610c5a573d6000803e3d6000fd5b505050506040513d601f19601f82011682018060405250810190610c7e9190614120565b610c88919061414f565b610c92919061416e565b6004805460405162d1b00d60e71b81523092810183905260248101849052600060448201819052606482019390935242608482015292935090916001600160a01b03909116906368d806809060a4016020604051808303816000875af1158015610d00573d6000803e3d6000fd5b505050506040513d601f19601f82011682018060405250810190610d249190614120565b905082610d3030612e92565b610d3a9190614190565b9250610d463084612f65565b610d6960405180606001604052806027815260200161489f602791398285612cb1565b604080516002808252606082018352600092602083019080368337019050509050735fc8d32690cc91d4c39d9d3abcbd16989f87570781600081518110610db257610db26141a7565b60200260200101906001600160a01b031690816001600160a01b03168152505073b7f8bc63bbcad18155201308c8f3540b07f84f5e81600181518110610dfa57610dfa6141a7565b6001600160a01b0392909216602092830291909101909101526040516370a0823160e01b815230600482015260009073b7f8bc63bbcad18155201308c8f3540b07f84f5e906370a0823190602401602060405180830381865afa158015610e65573d6000803e3d6000fd5b505050506040513d601f19601f82011682018060405250810190610e899190614120565b600554604051637ff36ab560e01b81529192506001600160a01b031690637ff36ab5908590610ec3906000908790309042906004016141bd565b60006040518083038185885af1158015610ee1573d6000803e3d6000fd5b50505050506040513d6000823e601f3d908101601f19168201604052610f0a9190810190614227565b506040516370a0823160e01b8152306004820152819073b7f8bc63bbcad18155201308c8f3540b07f84f5e906370a0823190602401602060405180830381865afa158015610f5c573d6000803e3d6000fd5b505050506040513d601f19601f82011682018060405250810190610f809190614120565b610f8a9190614190565b9050610fcb6040518060400160405280601881526020017f48545a206761696e65642062792073776170202d2d2d2d2d000000000000000081525082612cf8565b60405163a9059cbb60e01b815273f39fd6e51aad88f6f4ce6ab8827279cfffb9226660048201526024810182905273b7f8bc63bbcad18155201308c8f3540b07f84f5e9063a9059cbb906044016020604051808303816000875af1158015611037573d6000803e3d6000fd5b505050506040513d601f19601f8201168201806040525081019061105b91906142cd565b505042601e55505050505b50565b600061107633848461305b565b5060015b92915050565b600061108a61314a565b905090565b60006001600160a01b038416331461112b576001600160a01b0384166000908152601b60209081526040808320338452909152902054828110156111155760405162461bcd60e51b815260206004820152601a60248201527f5472616e73666572206578636565647320616c6c6f77616e63650000000000006044820152606401610bc8565b61112985336111248685614190565b61305b565b505b61113684848461315c565b5060019392505050565b601c546032546033546034546037546001600160a01b0386166000908152601d60205260408120549080806111748a612e92565b925061117f8a61317a565b6001600160a01b038b166000908152603660205260409020549092506111ab9064e8d4a510009061416e565b90509193959799909294969850565b60006111c73384846131d4565b9392505050565b600e546001600160a01b0363010000009091041633146112005760405162461bcd60e51b8152600401610bc8906142ea565b61120c6012600a614403565b61121a906302faf08061414f565b8161122361314a565b61122d9190614412565b111561126f5760405162461bcd60e51b8152602060048201526011602482015270457863656564204d617820537570706c7960781b6044820152606401610bc8565b611279828261325b565b5050565b60025433906001600160a01b03168114806112a557506004546001600160a01b038281169116145b806112bd57506005546001600160a01b038281169116145b6112d95760405162461bcd60e51b8152600401610bc89061442a565b60006012601354601481106112f0576112f06141a7565b602091828204019190066101000a81548160ff0219169083600581111561131957611319613de3565b021790555060135415611066576013805490600061133683614459565b919050555050565b60408051608081018252600080825260208201819052918101829052606081019190915260025433906001600160a01b031681148061138a57506004546001600160a01b038281169116145b806113a257506005546001600160a01b038281169116145b6113be5760405162461bcd60e51b8152600401610bc89061442a565b60145460ff16156114015760405162461bcd60e51b815260206004820152600d60248201526c14de5cdd195b481c185d5cd959609a1b6044820152606401610bc8565b600084600581111561141557611415613de3565b036114535760405162461bcd60e51b815260206004820152600e60248201526d24b73b30b634b21030b1ba34b7b760911b6044820152606401610bc8565b82156114fc5760005b60135481116114fa5784600581111561147757611477613de3565b6012826014811061148a5761148a6141a7565b602081049091015460ff601f9092166101000a90041660058111156114b1576114b1613de3565b036114e85760405162461bcd60e51b81526020600482015260076024820152665265656e74727960c81b6044820152606401610bc8565b806114f281614470565b91505061145c565b505b601354158015611523575060125460009060ff16600581111561152157611521613de3565b145b61153d576013805490600061153783614470565b91905055505b6014601354106115805760405162461bcd60e51b815260206004820152600e60248201526d537461636b206f766572666c6f7760901b6044820152606401610bc8565b83601260135460148110611596576115966141a7565b602091828204019190066101000a81548160ff021916908360058111156115bf576115bf613de3565b0217905550818460058111156115d7576115d7613de3565b908160058111156115ea576115ea613de3565b90525060135415606083015260405160009061161e90439032906020019182526001600160a01b0316602082015260400190565b6040516020818303038152906040528051906020012060001c905080600f541461164d57600f80546010558190555b5050600f546020820152601054604082015292915050565b60005461010090046001600160a01b031633148061168257503330145b806116b05750600e54630100000090046001600160a01b03166001600160a01b0316336001600160a01b0316145b6116cc5760405162461bcd60e51b8152600401610bc890614489565b6001600160a01b038116301461175c576001546001600160a01b03908116906354abe9d0908316156116fe5782611700565b305b6040516001600160e01b031960e084901b1681526001600160a01b039091166004820152602401600060405180830381600087803b15801561174157600080fd5b505af1158015611755573d6000803e3d6000fd5b5050505050565b6040517ffd3415c24b2b4519f08b7935c13f86ea010c77b3ff9bf448a474ae3b2414fce090600090a150565b600060126013546014811061179f5761179f6141a7565b602081049091015460ff601f9092166101000a900416919050565b60025460009033906001600160a01b03168114806117e557506004546001600160a01b038281169116145b806117fd57506005546001600160a01b038281169116145b6118195760405162461bcd60e51b8152600401610bc89061442a565b50949350505050565b600061107a82612e92565b600e546001600160a01b03630100000090910416331461185f5760405162461bcd60e51b8152600401610bc8906142ea565b61186960006132f7565b565b60335460345411156118d05760405162461bcd60e51b815260206004820152602860248201527f757365725f70656e64696e675f6275726e206578636565647320757365725f736044820152671d5b57dd1bdd185b60c21b6064820152608401610bc8565b603354603d546001600160a01b039081166000908152601d602052604080822054603c548416835281832054603b548516845282842054603a5490951684529190922054919290916119229190614412565b61192c9190614412565b6119369190614412565b146119ce57604080518082018252601081526f084848481a5b98dbdb9cda5cdd195b9d60821b602080830191909152603d546001600160a01b039081166000908152601d90925283822054603c548216835284832054603b548316845285842054603a54909316845294909220546119ce94916119b291614412565b6119bc9190614412565b6119c69190614412565b603354612cb1565b6033546034546000916119e091613355565b603d549091506000906119fb906001600160a01b0316611822565b603c54611a10906001600160a01b0316611822565b603b54611a25906001600160a01b0316611822565b603a54611a3a906001600160a01b0316611822565b611a449190614412565b611a4e9190614412565b611a589190614412565b9050600081831015611a7557611a6e8383614190565b9050611a82565b611a7f8284614190565b90505b60408051808201909152601681527518b298991032b93937b92fb930ba32961032b93937b960511b6020820152611ad39084611ac38464e8d4a5100061414f565b611acd919061416e565b83612cb1565b505050565b600e54630100000090046001600160a01b03166001600160a01b0316336001600160a01b031614611b375760405162461bcd60e51b81526020600482015260096024820152682737ba1037bbb732b960b91b6044820152606401610bc8565b6014805460ff19166001179055565b600e54630100000090046001600160a01b03166001600160a01b0316336001600160a01b031614611bac5760405162461bcd60e51b815260206004820152601060248201526f496e76616c69642063616c6c6572203360801b6044820152606401610bc8565b60008054610100600160a81b0319166101006001600160a01b0394851602179055600180546001600160a01b03191691909216179055565b60005461010090046001600160a01b0316331480611c0157503330145b80611c2f5750600e54630100000090046001600160a01b03166001600160a01b0316336001600160a01b0316145b611c4b5760405162461bcd60e51b8152600401610bc890614489565b6001600160a01b0381163014611d5f57600e5462010000900460ff1615611cd957604051634f18125b60e01b815273__$88bebae22a3ad6e62b56c303176513ecf8$__90634f18125b90611ca8908690600d9087906004016144b3565b60006040518083038186803b158015611cc057600080fd5b505af4158015611cd4573d6000803e3d6000fd5b505050505b60006001600160a01b03821615611cf05781611cf2565b305b6001546040516391fd0db760e01b81529192506001600160a01b0316906391fd0db790611d27908790879086906004016144dc565b600060405180830381600087803b158015611d4157600080fd5b505af1158015611d55573d6000803e3d6000fd5b5050505050505050565b7fb4040436d4754da72f29d5b97fe68448f30d44ac0e08b33545cbf6f28b7641d98383604051611d9092919061450e565b60405180910390a1505050565b60005461010090046001600160a01b0316331480611dba57503330145b80611de85750600e54630100000090046001600160a01b03166001600160a01b0316336001600160a01b0316145b611e045760405162461bcd60e51b8152600401610bc890614489565b611e0f838383613379565b6000836004811115611e2357611e23613de3565b03611ad357601980546001600160a01b0384166001600160a01b03199182168117909255601a80549091169091179055505050565b600e546001600160a01b036301000000909104163314611e8a5760405162461bcd60e51b8152600401610bc8906142ea565b6112798282612f65565b60408051808201909152600c81526b5a65726f206164647265737360a01b60208201526000906001600160a01b038516611ee15760405162461bcd60e51b8152600401610bc89190613cc7565b506001600160a01b038085166000908152601b60209081526040808320938716835292905220546111369085908590611124908690614190565b60006111c7338484611e94565b600e546001600160a01b036301000000909104163314611f5a5760405162461bcd60e51b8152600401610bc8906142ea565b611f666005600a614530565b8211158015611f805750611f7c6005600a614530565b8111155b611fc15760405162461bcd60e51b8152602060048201526012602482015271496e76616c6964206275726e20726174657360701b6044820152606401610bc8565b603891909155603955565b600061107633848461315c565b60005461010090046001600160a01b0316331480611ff657503330145b806120245750600e54630100000090046001600160a01b03166001600160a01b0316336001600160a01b0316145b6120405760405162461bcd60e51b8152600401610bc890614489565b6001600160a01b038116301461243157600e5460ff16156123a7576040518060600160405280856001600160a01b03168152602001846001600160a01b0316815260200183600381111561209657612096613de3565b90526001600160a01b038087166000908152600a6020908152604091829020845181549085166001600160a01b0319918216178255918501516001820180549190951692811683178555928501519093909290916001600160a81b031990911617600160a01b83600381111561210e5761210e613de3565b021790555050506001600160a01b038085166000818152600b60208181526040808420898716855282528084208054878d166001600160a01b03199182168117909255938352818520958552949091529182902080549091169092179091556002549051633fe59dbb60e11b815273__$88bebae22a3ad6e62b56c303176513ecf8$__92637fcb3b76926121c092899289921690730dcd1bf9a1b36ce34237eeafef220932846bcd829060040161453c565b602060405180830381865af41580156121dd573d6000803e3d6000fd5b505050506040513d601f19601f8201168201806040525081019061220191906142cd565b1561222257600780546001600160a01b0319166001600160a01b0387161790555b600254604051633fe59dbb60e11b815273__$88bebae22a3ad6e62b56c303176513ecf8$__91637fcb3b769161227e91889188916001600160a01b031690735fc8d32690cc91d4c39d9d3abcbd16989f8757079060040161453c565b602060405180830381865af415801561229b573d6000803e3d6000fd5b505050506040513d601f19601f820116820180604052508101906122bf91906142cd565b156122e057600880546001600160a01b0319166001600160a01b0387161790555b604051633fe59dbb60e11b815273__$88bebae22a3ad6e62b56c303176513ecf8$__90637fcb3b7690612345908790879073b7f8bc63bbcad18155201308c8f3540b07f84f5e90735fc8d32690cc91d4c39d9d3abcbd16989f8757079060040161453c565b602060405180830381865af4158015612362573d6000803e3d6000fd5b505050506040513d601f19601f8201168201806040525081019061238691906142cd565b156123a757600980546001600160a01b0319166001600160a01b0387161790555b60006001600160a01b038216156123be57816123c0565b305b60015460405163cd193c4360e01b81529192506001600160a01b03169063cd193c43906123f99089908990899089908890600401614567565b600060405180830381600087803b15801561241357600080fd5b505af1158015612427573d6000803e3d6000fd5b5050505050611755565b7f7af36d96fdc569564b9fadb22716716fe33463cb7fc8dca4fbd79d40448acdf28585858560405161246694939291906145a9565b60405180910390a15050505050565b60045433906001600160a01b031681036125a9576001600160a01b038381166000908152600a6020526040902054161561252d5760006124b36134dc565b905060038160058111156124c9576124c9613de3565b036124f7576124f26040518060400160405280600381526020016210591960ea1b815250612d86565b612527565b6125276040518060400160405280600f81526020016e0496e636f6e73697374656e6374203608c1b815250612d86565b5061287a565b6004546001600160a01b03908116908516036125705761256b6040518060400160405280600781526020016652656d6f76653160c81b815250612d86565b61287a565b60405162461bcd60e51b815260206004820152600e60248201526d496e636f6e73697374656e74203160901b6044820152606401610bc8565b6005546001600160a01b03908116908216036126c0576001600160a01b038381166000908152600a60205260409020541615612609576126046040518060400160405280600481526020016314d95b1b60e21b815250612d86565b61267d565b6005546001600160a01b0390811690851603612643576126046040518060400160405280600381526020016242757960e81b815250612d86565b60405162461bcd60e51b815260206004820152600f60248201526e24b731b7b739b4b9ba32b731ba101960891b6044820152606401610bc8565b600061268b6005600a614530565b603854612698908561414f565b6126a2919061416e565b90506126ae8582612f65565b6126b88184614190565b92505061287a565b836001600160a01b0316816001600160a01b031603612840576001600160a01b038181166000908152600a6020526040902054161561256b5760006127036134dc565b9050600281600581111561271957612719613de3565b0361278557600061272c6005600a614530565b603854612739908661414f565b612743919061416e565b905061274f8682612f65565b6127598185614190565b935061277f6040518060400160405280600381526020016242757960e81b815250612d86565b50612527565b600481600581111561279957612799613de3565b036127c6576124f2604051806040016040528060078152602001662932b6b7bb329960c91b815250612d86565b60058160058111156127da576127da613de3565b03612806576124f26040518060400160405280600681526020016544696c75746560d01b815250612d86565b60405162461bcd60e51b815260206004820152600f60248201526e496e636f6e73697374656e6374203560881b6044820152606401610bc8565b60405162461bcd60e51b815260206004820152600f60248201526e2bb937b7339036b9b3a9b2b73232b960891b6044820152606401610bc8565b6001600160a01b0384166000908152601d60205260409020548211156128b6576001600160a01b0384166000908152601d602052604090205491505b81156128c7576128c784848461354b565b50505050565b60005461010090046001600160a01b03163314806128ea57503330145b806129185750600e54630100000090046001600160a01b03166001600160a01b0316336001600160a01b0316145b6129345760405162461bcd60e51b8152600401610bc890614489565b6001600160a01b0381163014612a5157600e54610100900460ff16156129c857604051633d8d54b760e11b8152600c600482015282516001600160a01b0316602482015273__$88bebae22a3ad6e62b56c303176513ecf8$__90637b1aa96e9060440160006040518083038186803b1580156129af57600080fd5b505af41580156129c3573d6000803e3d6000fd5b505050505b60006001600160a01b038216156129df57816129e1565b305b600154604051633376489360e21b815285516001600160a01b039081166004830152808416602483015292935091169063cdd9224c90604401600060405180830381600087803b158015612a3457600080fd5b505af1158015612a48573d6000803e3d6000fd5b50505050505050565b60405182516001600160a01b031681527f275664547227ddbc7a8a732c07c9346f2f4520de70c2088665cc6809534212c09060200160405180910390a15050565b612a9e6012600a614403565b612aac906302faf08061414f565b81565b6000612abb6026612dea565b90508015611066576029546001600160a01b03166000818152601d6020526040902054612b04919064e8d4a5100090612af590859061414f565b612aff919061416e565b612f65565b4260265550565b6000612b17602e612dea565b9050801561106657603354603454600091612b3191613355565b9050600064e8d4a51000612b45848461414f565b612b4f919061416e565b905080602e6006016000828254612b669190614412565b90915550506033546034541115612b7e576033546034555b60325464e8d4a51000908490612b949083614190565b612b9e919061414f565b612ba8919061416e565b60328054600090612bba908490614412565b909155505042602e55505050565b600e546001600160a01b036301000000909104163314612bfa5760405162461bcd60e51b8152600401610bc8906142ea565b6001600160a01b038116612c5f5760405162461bcd60e51b815260206004820152602660248201527f4f776e61626c653a206e6577206f776e657220697320746865207a65726f206160448201526564647265737360d01b6064820152608401610bc8565b611066816132f7565b6128c784848484604051602401612c8294939291906145df565b60408051601f198184030181529190526020810180516001600160e01b0316630fc4845f60e41b1790526136a4565b611ad3838383604051602401612cc993929190614619565b60408051601f198184030181529190526020810180516001600160e01b031663ca47c4eb60e01b1790526136a4565b6112798282604051602401612d0e92919061463e565b60408051601f198184030181529190526020810180516001600160e01b0316632d839cb360e21b1790526136a4565b6128c784848484604051602401612d579493929190614660565b60408051601f198184030181529190526020810180516001600160e01b031663e41b6f6f60e01b1790526136a4565b61106681604051602401612d9a9190613cc7565b60408051601f198184030181529190526020810180516001600160e01b031663104c13eb60e21b1790526136a4565b60006a636f6e736f6c652e6c6f679050600080835160208501845afa505050565b600080826001015442612dfd919061416e565b90508260070154811115612e8c576000836007015482612e1d9190614190565b60078501839055428555600093509050825b81811015612e8957612e436005600a614530565b6002860154612e578664e8d4a51000614190565b612e61919061414f565b612e6b919061416e565b612e759085614412565b935080612e8181614470565b915050612e2f565b50505b50919050565b6000612e9d826136ad565b15612f45576000612ead8361317a565b6001600160a01b0384166000908152601d6020526040902054909150811115612ef157612ef16040518060600160405280602c815260200161484e602c9139612d86565b60325464e8d4a510001015612f2157612f216040518060600160405280603d81526020016148c6603d9139612d86565b6001600160a01b0383166000908152601d60205260409020546111c7908290614190565b506001600160a01b0381166000908152601d60205260409020545b919050565b60408051808201909152600c81526b5a65726f206164647265737360a01b60208201526001600160a01b038316612faf5760405162461bcd60e51b8152600401610bc89190613cc7565b506000612fbb83612e92565b9050818110156040518060400160405280600f81526020016e457863656564732062616c616e636560881b815250906130075760405162461bcd60e51b8152600401610bc89190613cc7565b506130148383600061370e565b6040518281526000906001600160a01b038516907fddf252ad1be2c89b69c2b068fc378daa952ba7f163c4a11628f55a4df523b3ef906020015b60405180910390a3505050565b60408051808201909152600c81526b5a65726f206164647265737360a01b60208201526001600160a01b0384166130a55760405162461bcd60e51b8152600401610bc89190613cc7565b5060408051808201909152600c81526b5a65726f206164647265737360a01b60208201526001600160a01b0383166130f05760405162461bcd60e51b8152600401610bc89190613cc7565b506001600160a01b038381166000818152601b602090815260408083209487168084529482529182902085905590518481527f8c5be1e5ebec7d5bd14f71427d1e84f3dd0314c0f7b2291e5b200ac8c7c3b925910161304e565b603454601c5460009161108a91614190565b613167600180613b3f565b61317283838361354b565b611ad3613c0e565b6032546001600160a01b0382166000908152601d6020526040812054909164e8d4a51000916131ca916131ac9161414f565b6001600160a01b038516600090815260366020526040902054613355565b61107a919061416e565b60408051808201909152600c81526b5a65726f206164647265737360a01b60208201526000906001600160a01b0385166132215760405162461bcd60e51b8152600401610bc89190613cc7565b506001600160a01b038085166000908152601b60209081526040808320938716835292905220546111369085908590611124908690614412565b60408051808201909152600c81526b5a65726f206164647265737360a01b60208201526001600160a01b0383166132a55760405162461bcd60e51b8152600401610bc89190613cc7565b506132b28282600161370e565b6040518181526001600160a01b038316906000907fddf252ad1be2c89b69c2b068fc378daa952ba7f163c4a11628f55a4df523b3ef9060200160405180910390a35050565b600e80546001600160a01b0383811663010000008181026301000000600160b81b031985161790945560405193909204169182907f8be0079c531659141344cd1fd0a4f28419497f9722a3daafe3b4186f6b6457e090600090a35050565b600081831115613370576133698284614190565b905061107a565b50600092915050565b60005461010090046001600160a01b031633148061339657503330145b806133c45750600e54630100000090046001600160a01b03166001600160a01b0316336001600160a01b0316145b6133e05760405162461bcd60e51b8152600401610bc890614489565b6001600160a01b03811630146134ab5760405163085b199160e11b815273__$88bebae22a3ad6e62b56c303176513ecf8$__906310b633229061342c908690869060029060040161469f565b60006040518083038186803b15801561344457600080fd5b505af4158015613458573d6000803e3d6000fd5b506000925050506001600160a01b038216156134745781613476565b305b6001546040516349443ceb60e11b81529192506001600160a01b03169063928879d690611d27908790879086906004016146c7565b7fb45c42dda0a5ab1d1078e0afeda2976363eff9496a93644e726862f1f06186b88383604051611d909291906146f7565b60195460408051632e9c96d560e11b815290516000926001600160a01b031691635d392daa916004808301926020929190829003018187875af1158015613527573d6000803e3d6000fd5b505050506040513d601f19601f8201168201806040525081019061108a919061471d565b60408051808201909152600c81526b5a65726f206164647265737360a01b60208201526001600160a01b0384166135955760405162461bcd60e51b8152600401610bc89190613cc7565b5060408051808201909152600c81526b5a65726f206164647265737360a01b60208201526001600160a01b0383166135e05760405162461bcd60e51b8152600401610bc89190613cc7565b5060006135ec84612e92565b9050818110156040518060400160405280600f81526020016e457863656564732062616c616e636560881b815250906136385760405162461bcd60e51b8152600401610bc89190613cc7565b506136458483600061370e565b6136518383600161370e565b826001600160a01b0316846001600160a01b03167fddf252ad1be2c89b69c2b068fc378daa952ba7f163c4a11628f55a4df523b3ef8460405161369691815260200190565b60405180910390a350505050565b61106681612dc9565b6001600160a01b038181166000908152600a602052604081205490911615801561107a57507f00000000000000000000000000000000000000000000000000000000000000006001600160a01b0316826001600160a01b0316141592915050565b61373260405180606001604052806025815260200161487a60259139848484612c68565b61373b836136ad565b15613a0657600061374b8461317a565b905080156138665761375b61186b565b61378e6040518060600160405280602a8152602001614824602a913961378086612e92565b6137898761317a565b612cb1565b6001600160a01b0384166000908152601d60205260409020546137b19082613355565b6001600160a01b0385166000908152601d60205260409020556033546137d79082613355565b6033556034546137e79082613355565b603455601c546137f79082613355565b601c556032546001600160a01b0385166000908152601d6020526040902054613820919061414f565b6001600160a01b03851660009081526036602052604090205561384161186b565b6138666040518060600160405280602a8152602001614903602a913961378086612e92565b6138a76040518060400160405280601e81526020017f5f6368616e676542616c616e6365342e205f746f74616c537570706c793a0000815250601c54612cf8565b8115613913576001600160a01b0384166000908152601d6020526040812080548592906138d5908490614412565b9091555050603380548491906000906138ef908490614412565b9250508190555082601c60008282546139089190614412565b909155506139709050565b6001600160a01b0384166000908152601d60205260409020546139369084613355565b6001600160a01b0385166000908152601d602052604090205560335461395c9084613355565b603355601c5461396c9084613355565b601c555b6139b16040518060400160405280601e81526020017f5f6368616e676542616c616e6365352e205f746f74616c537570706c793a0000815250601c54612cf8565b6139b961186b565b6032546001600160a01b0385166000908152601d60205260409020546139df919061414f565b6001600160a01b038516600090815260366020526040902055613a0061186b565b50613b0f565b8015613a71576001600160a01b0383166000908152601d602052604081208054849290613a34908490614412565b925050819055508160376000828254613a4d9190614412565b9250508190555081601c6000828254613a669190614412565b90915550613ace9050565b6001600160a01b0383166000908152601d6020526040902054613a949083613355565b6001600160a01b0384166000908152601d6020526040902055603754613aba9083613355565b603755601c54613aca9083613355565b601c555b613b0f6040518060400160405280601e81526020017f5f6368616e676542616c616e6365362e205f746f74616c537570706c793a0000815250601c54612cf8565b611ad36040518060800160405280604181526020016147e360419139601c54613b37866136ad565b603754612d3d565b601954604051634be5482760e01b81526001600160a01b0390911690634be5482790613b71908590859060040161473a565b6080604051808303816000875af1158015613b90573d6000803e3d6000fd5b505050506040513d601f19601f82011682018060405250810190613bb49190614757565b805160158054909190829060ff19166001836005811115613bd757613bd7613de3565b021790555060208201516001820155604082015160028201556060909101516003909101805460ff19169115159190911790555050565b601960009054906101000a90046001600160a01b03166001600160a01b031663431b3c306040518163ffffffff1660e01b8152600401600060405180830381600087803b158015613c5e57600080fd5b505af11580156128c7573d6000803e3d6000fd5b6118696147cc565b6000815180845260005b81811015613ca057602081850181015186830182015201613c84565b81811115613cb2576000602083870101525b50601f01601f19169290920160200192915050565b6020815260006111c76020830184613c7a565b80356001600160a01b0381168114612f6057600080fd5b60008060408385031215613d0457600080fd5b613d0d83613cda565b946020939093013593505050565b6006811061106657600080fd5b600060208284031215613d3a57600080fd5b81356111c781613d1b565b600080600060608486031215613d5a57600080fd5b613d6384613cda565b9250613d7160208501613cda565b9150604084013590509250925092565b600060208284031215613d9357600080fd5b6111c782613cda565b801515811461106657600080fd5b60008060408385031215613dbd57600080fd5b8235613dc881613d1b565b91506020830135613dd881613d9c565b809150509250929050565b634e487b7160e01b600052602160045260246000fd5b60068110613e0957613e09613de3565b9052565b6000608082019050613e20828451613df9565b602083015160208301526040830151604083015260608301511515606083015292915050565b6020810161107a8284613df9565b6000806000808486036080811215613e6b57600080fd5b613e7486613cda565b94506020868101359450603f1982011215613e8e57600080fd5b506040850191506060850135613ea381613d9c565b939692955090935050565b60008060408385031215613ec157600080fd5b613eca83613cda565b9150613ed860208401613cda565b90509250929050565b634e487b7160e01b600052604160045260246000fd5b604051601f8201601f1916810167ffffffffffffffff81118282101715613f2057613f20613ee1565b604052919050565b60008060008385036060811215613f3e57600080fd5b8435613f4981613d1b565b93506020601f1982011215613f5d57600080fd5b506040516020810181811067ffffffffffffffff82111715613f8157613f81613ee1565b604052602085013563ffffffff81168114613f9b57600080fd5b81529150613fab60408501613cda565b90509250925092565b600080600060608486031215613fc957600080fd5b833560058110613fd857600080fd5b9250613fe660208501613cda565b9150613fab60408501613cda565b6000806040838503121561400757600080fd5b50508035926020909101359150565b600080600080600060a0868803121561402e57600080fd5b61403786613cda565b945061404560208701613cda565b935061405360408701613cda565b925060608601356004811061406757600080fd5b915061407560808701613cda565b90509295509295909350565b600080828403604081121561409557600080fd5b60208112156140a357600080fd5b506040516020810181811067ffffffffffffffff821117156140c7576140c7613ee1565b6040526140d384613cda565b81529150613ed860208401613cda565b60048110613e0957613e09613de3565b6001600160a01b038481168252831660208201526060810161411860408301846140e3565b949350505050565b60006020828403121561413257600080fd5b5051919050565b634e487b7160e01b600052601160045260246000fd5b600081600019048311821515161561416957614169614139565b500290565b60008261418b57634e487b7160e01b600052601260045260246000fd5b500490565b6000828210156141a2576141a2614139565b500390565b634e487b7160e01b600052603260045260246000fd5b600060808201868352602060808185015281875180845260a086019150828901935060005b818110156142075784516001600160a01b0316835293830193918301916001016141e2565b50506001600160a01b039690961660408501525050506060015292915050565b6000602080838503121561423a57600080fd5b825167ffffffffffffffff8082111561425257600080fd5b818501915085601f83011261426657600080fd5b81518181111561427857614278613ee1565b8060051b9150614289848301613ef7565b81815291830184019184810190888411156142a357600080fd5b938501935b838510156142c1578451825293850193908501906142a8565b98975050505050505050565b6000602082840312156142df57600080fd5b81516111c781613d9c565b6020808252818101527f4f776e61626c653a2063616c6c6572206973206e6f7420746865206f776e6572604082015260600190565b600181815b8085111561435a57816000190482111561434057614340614139565b8085161561434d57918102915b93841c9390800290614324565b509250929050565b6000826143715750600161107a565b8161437e5750600061107a565b8160018114614394576002811461439e576143ba565b600191505061107a565b60ff8411156143af576143af614139565b50506001821b61107a565b5060208310610133831016604e8410600b84101617156143dd575081810a61107a565b6143e7838361431f565b80600019048211156143fb576143fb614139565b029392505050565b60006111c760ff841683614362565b6000821982111561442557614425614139565b500190565b6020808252601590820152742737ba10309039b2b9b9b4b7b71036b0b730b3b2b960591b604082015260600190565b60008161446857614468614139565b506000190190565b60006001820161448257614482614139565b5060010190565b60208082526010908201526f496e76616c69642063616c6c6572203160801b604082015260600190565b606081016144c18286613df9565b83602083015263ffffffff8351166040830152949350505050565b606081016144ea8286613df9565b925163ffffffff1660208201526001600160a01b0391909116604090910152919050565b6040810161451c8285613df9565b63ffffffff83511660208301529392505050565b60006111c78383614362565b6001600160a01b03948516815292841660208401529083166040830152909116606082015260800190565b6001600160a01b0386811682528581166020830152848116604083015260a082019061459660608401866140e3565b8084166080840152509695505050505050565b6001600160a01b038581168252848116602083015283166040820152608081016145d660608301846140e3565b95945050505050565b6080815260006145f26080830187613c7a565b6001600160a01b039590951660208301525060408101929092521515606090910152919050565b60608152600061462c6060830186613c7a565b60208301949094525060400152919050565b6040815260006146516040830185613c7a565b90508260208301529392505050565b6080815260006146736080830187613c7a565b6020830195909552509115156040830152606090910152919050565b60058110613e0957613e09613de3565b606081016146ad828661468f565b6001600160a01b0393909316602082015260400152919050565b606081016146d5828661468f565b6001600160a01b03938416602083015291909216604090920191909152919050565b60408101614705828561468f565b6001600160a01b039290921660209190910152919050565b60006020828403121561472f57600080fd5b81516111c781613d1b565b604081016147488285613df9565b82151560208301529392505050565b60006080828403121561476957600080fd5b6040516080810181811067ffffffffffffffff8211171561478c5761478c613ee1565b604052825161479a81613d1b565b80825250602083015160208201526040830151604082015260608301516147c081613d9c565b60608201529392505050565b634e487b7160e01b600052605160045260246000fdfe5f6368616e676542616c616e6365372e205f746f74616c537570706c792c205f69735573657241636328616363292c206e6f6e5573657253756d546f6b656e733a5f6368616e676542616c616e6365322e205f62616c616e63654f662c205f70656e64696e674275726e3a5f62616c616e63654f662e2070656e64696e674275726e203e205f62616c616e6365735b6163636f756e745d5f6368616e676542616c616e6365312e206163632c20616d6f756e742c206372656469743a46544d20616e6420544752206761696e6564206279204c502064696c7574696f6e202d2d2d2d2d2121215f62616c616e63654f662e20757365725f6275726e2e6163634465636179506572316531322069732067726561746572207468616e20316531325f6368616e676542616c616e6365332e205f62616c616e63654f662c205f70656e64696e674275726e3aa2646970667358221220eea5c4faf07c4b1dd12224f022e4df1ab73ca1bc659bfbcb7882e1da96c3001264736f6c634300080e00335f6368616e676542616c616e6365372e205f746f74616c537570706c792c205f69735573657241636328616363292c206e6f6e5573657253756d546f6b656e733a5f6368616e676542616c616e6365322e205f62616c616e63654f662c205f70656e64696e674275726e3a5f62616c616e63654f662e2070656e64696e674275726e203e205f62616c616e6365735b6163636f756e745d5f6368616e676542616c616e6365312e206163632c20616d6f756e742c206372656469743a2121215f62616c616e63654f662e20757365725f6275726e2e6163634465636179506572316531322069732067726561746572207468616e20316531325f6368616e676542616c616e6365332e205f62616c616e63654f662c205f70656e64696e674275726e3a",
  "linkReferences": {
    "contracts/libraries/WireLibrary.sol": {
      "WireLibrary": [
        {
          "length": 20,
          "start": 12028
        },
        {
          "length": 20,
          "start": 13311
        },
        {
          "length": 20,
          "start": 13493
        },
        {
          "length": 20,
          "start": 13680
        },
        {
          "length": 20,
          "start": 15355
        },
        {
          "length": 20,
          "start": 18048
        }
      ]
    }
  },
  "deployedLinkReferences": {
    "contracts/libraries/WireLibrary.sol": {
      "WireLibrary": [
        {
          "length": 20,
          "start": 7291
        },
        {
          "length": 20,
          "start": 8574
        },
        {
          "length": 20,
          "start": 8756
        },
        {
          "length": 20,
          "start": 8943
        },
        {
          "length": 20,
          "start": 10618
        },
        {
          "length": 20,
          "start": 13311
        }
      ]
    }
  }
}