{
  "_format": "hh-sol-artifact-1",
  "contractName": "TGRToken",
  "sourceName": "contracts/farm/TGRToken.sol",
  "abi": [
    {
      "inputs": [
        {
          "internalType": "address",
          "name": "_analyticMath",
          "type": "address"
        }
      ],
      "stateMutability": "nonpayable",
      "type": "constructor"
    },
    {
      "anonymous": false,
      "inputs": [
        {
          "indexed": true,
          "internalType": "address",
          "name": "owner",
          "type": "address"
        },
        {
          "indexed": true,
          "internalType": "address",
          "name": "spender",
          "type": "address"
        },
        {
          "indexed": false,
          "internalType": "uint256",
          "name": "value",
          "type": "uint256"
        }
      ],
      "name": "Approval",
      "type": "event"
    },
    {
      "anonymous": false,
      "inputs": [],
      "name": "Begin",
      "type": "event"
    },
    {
      "anonymous": false,
      "inputs": [
        {
          "indexed": false,
          "internalType": "address",
          "name": "pair",
          "type": "address"
        },
        {
          "indexed": false,
          "internalType": "address",
          "name": "tokenA",
          "type": "address"
        },
        {
          "indexed": false,
          "internalType": "address",
          "name": "tokenB",
          "type": "address"
        },
        {
          "indexed": false,
          "internalType": "enum ListStatus",
          "name": "status",
          "type": "uint8"
        }
      ],
      "name": "ChangePairStatus",
      "type": "event"
    },
    {
      "anonymous": false,
      "inputs": [
        {
          "indexed": false,
          "internalType": "address",
          "name": "token",
          "type": "address"
        },
        {
          "indexed": false,
          "internalType": "address",
          "name": "msgSender",
          "type": "address"
        }
      ],
      "name": "DeenlistToken",
      "type": "event"
    },
    {
      "anonymous": false,
      "inputs": [
        {
          "indexed": true,
          "internalType": "address",
          "name": "previousOwner",
          "type": "address"
        },
        {
          "indexed": true,
          "internalType": "address",
          "name": "newOwner",
          "type": "address"
        }
      ],
      "name": "OwnershipTransferred",
      "type": "event"
    },
    {
      "anonymous": false,
      "inputs": [
        {
          "indexed": false,
          "internalType": "enum ActionType",
          "name": "_sessionType",
          "type": "uint8"
        },
        {
          "components": [
            {
              "internalType": "uint32",
              "name": "accountant",
              "type": "uint32"
            }
          ],
          "indexed": false,
          "internalType": "struct FeeRates",
          "name": "_feeRates",
          "type": "tuple"
        }
      ],
      "name": "SetFeeRates",
      "type": "event"
    },
    {
      "anonymous": false,
      "inputs": [
        {
          "components": [
            {
              "internalType": "address",
              "name": "accountant",
              "type": "address"
            }
          ],
          "indexed": false,
          "internalType": "struct FeeStores",
          "name": "_feeStores",
          "type": "tuple"
        }
      ],
      "name": "SetFeeStores",
      "type": "event"
    },
    {
      "anonymous": false,
      "inputs": [
        {
          "indexed": false,
          "internalType": "enum NodeType",
          "name": "nodeType",
          "type": "uint8"
        },
        {
          "indexed": false,
          "internalType": "address",
          "name": "node",
          "type": "address"
        }
      ],
      "name": "SetNode",
      "type": "event"
    },
    {
      "anonymous": false,
      "inputs": [
        {
          "indexed": true,
          "internalType": "address",
          "name": "from",
          "type": "address"
        },
        {
          "indexed": true,
          "internalType": "address",
          "name": "to",
          "type": "address"
        },
        {
          "indexed": false,
          "internalType": "uint256",
          "name": "value",
          "type": "uint256"
        }
      ],
      "name": "Transfer",
      "type": "event"
    },
    {
      "inputs": [
        {
          "internalType": "address",
          "name": "_owner",
          "type": "address"
        },
        {
          "internalType": "address",
          "name": "_spender",
          "type": "address"
        },
        {
          "internalType": "uint256",
          "name": "subtractedValue",
          "type": "uint256"
        }
      ],
      "name": "_decreaseAllowance",
      "outputs": [
        {
          "internalType": "bool",
          "name": "",
          "type": "bool"
        }
      ],
      "stateMutability": "nonpayable",
      "type": "function"
    },
    {
      "inputs": [
        {
          "internalType": "address",
          "name": "_owner",
          "type": "address"
        },
        {
          "internalType": "address",
          "name": "_spender",
          "type": "address"
        }
      ],
      "name": "allowance",
      "outputs": [
        {
          "internalType": "uint256",
          "name": "",
          "type": "uint256"
        }
      ],
      "stateMutability": "view",
      "type": "function"
    },
    {
      "inputs": [
        {
          "internalType": "address",
          "name": "spender",
          "type": "address"
        },
        {
          "internalType": "uint256",
          "name": "amount",
          "type": "uint256"
        }
      ],
      "name": "approve",
      "outputs": [
        {
          "internalType": "bool",
          "name": "",
          "type": "bool"
        }
      ],
      "stateMutability": "nonpayable",
      "type": "function"
    },
    {
      "inputs": [
        {
          "internalType": "address",
          "name": "account",
          "type": "address"
        }
      ],
      "name": "balanceOf",
      "outputs": [
        {
          "internalType": "uint256",
          "name": "",
          "type": "uint256"
        }
      ],
      "stateMutability": "view",
      "type": "function"
    },
    {
      "inputs": [
        {
          "internalType": "address",
          "name": "caller",
          "type": "address"
        }
      ],
      "name": "begin",
      "outputs": [],
      "stateMutability": "nonpayable",
      "type": "function"
    },
    {
      "inputs": [
        {
          "internalType": "address",
          "name": "from",
          "type": "address"
        },
        {
          "internalType": "uint256",
          "name": "amount",
          "type": "uint256"
        }
      ],
      "name": "burn",
      "outputs": [],
      "stateMutability": "nonpayable",
      "type": "function"
    },
    {
      "inputs": [
        {
          "internalType": "address",
          "name": "from",
          "type": "address"
        },
        {
          "internalType": "uint256",
          "name": "amount",
          "type": "uint256"
        }
      ],
      "name": "bury",
      "outputs": [],
      "stateMutability": "nonpayable",
      "type": "function"
    },
    {
      "inputs": [
        {
          "internalType": "uint256",
          "name": "_buysell_burn_rate",
          "type": "uint256"
        },
        {
          "internalType": "uint256",
          "name": "_shift_burn_rate",
          "type": "uint256"
        }
      ],
      "name": "changeBurnRates",
      "outputs": [],
      "stateMutability": "nonpayable",
      "type": "function"
    },
    {
      "inputs": [
        {
          "internalType": "address",
          "name": "pair",
          "type": "address"
        },
        {
          "internalType": "address",
          "name": "token0",
          "type": "address"
        },
        {
          "internalType": "address",
          "name": "token1",
          "type": "address"
        },
        {
          "internalType": "enum ListStatus",
          "name": "status",
          "type": "uint8"
        },
        {
          "internalType": "address",
          "name": "caller",
          "type": "address"
        }
      ],
      "name": "changePairStatus",
      "outputs": [],
      "stateMutability": "nonpayable",
      "type": "function"
    },
    {
      "inputs": [],
      "name": "checkForConsistency",
      "outputs": [],
      "stateMutability": "view",
      "type": "function"
    },
    {
      "inputs": [],
      "name": "decimals",
      "outputs": [
        {
          "internalType": "uint8",
          "name": "",
          "type": "uint8"
        }
      ],
      "stateMutability": "view",
      "type": "function"
    },
    {
      "inputs": [
        {
          "internalType": "address",
          "name": "spender",
          "type": "address"
        },
        {
          "internalType": "uint256",
          "name": "subtractedValue",
          "type": "uint256"
        }
      ],
      "name": "decreaseAllowance",
      "outputs": [
        {
          "internalType": "bool",
          "name": "",
          "type": "bool"
        }
      ],
      "stateMutability": "nonpayable",
      "type": "function"
    },
    {
      "inputs": [
        {
          "internalType": "enum ActionType",
          "name": "",
          "type": "uint8"
        }
      ],
      "name": "feeRates",
      "outputs": [
        {
          "internalType": "uint32",
          "name": "accountant",
          "type": "uint32"
        }
      ],
      "stateMutability": "view",
      "type": "function"
    },
    {
      "inputs": [],
      "name": "feeStores",
      "outputs": [
        {
          "internalType": "address",
          "name": "accountant",
          "type": "address"
        }
      ],
      "stateMutability": "view",
      "type": "function"
    },
    {
      "inputs": [],
      "name": "getCurrentActionType",
      "outputs": [
        {
          "internalType": "enum ActionType",
          "name": "",
          "type": "uint8"
        }
      ],
      "stateMutability": "nonpayable",
      "type": "function"
    },
    {
      "inputs": [],
      "name": "getOwner",
      "outputs": [
        {
          "internalType": "address",
          "name": "",
          "type": "address"
        }
      ],
      "stateMutability": "view",
      "type": "function"
    },
    {
      "inputs": [],
      "name": "htzFtm",
      "outputs": [
        {
          "internalType": "address",
          "name": "",
          "type": "address"
        }
      ],
      "stateMutability": "view",
      "type": "function"
    },
    {
      "inputs": [
        {
          "internalType": "address",
          "name": "spender",
          "type": "address"
        },
        {
          "internalType": "uint256",
          "name": "addedValue",
          "type": "uint256"
        }
      ],
      "name": "increaseAllowance",
      "outputs": [
        {
          "internalType": "bool",
          "name": "",
          "type": "bool"
        }
      ],
      "stateMutability": "nonpayable",
      "type": "function"
    },
    {
      "inputs": [],
      "name": "lastSession",
      "outputs": [
        {
          "internalType": "uint256",
          "name": "",
          "type": "uint256"
        }
      ],
      "stateMutability": "view",
      "type": "function"
    },
    {
      "inputs": [],
      "name": "lp_reward",
      "outputs": [
        {
          "internalType": "uint256",
          "name": "latestTime",
          "type": "uint256"
        },
        {
          "internalType": "uint256",
          "name": "cycle",
          "type": "uint256"
        },
        {
          "internalType": "uint256",
          "name": "decayRate",
          "type": "uint256"
        },
        {
          "internalType": "address",
          "name": "account",
          "type": "address"
        },
        {
          "internalType": "uint256",
          "name": "accDecayPerShare",
          "type": "uint256"
        },
        {
          "internalType": "uint256",
          "name": "sum_tokens",
          "type": "uint256"
        },
        {
          "internalType": "uint256",
          "name": "pending_burn",
          "type": "uint256"
        },
        {
          "internalType": "uint256",
          "name": "latestRound",
          "type": "uint256"
        }
      ],
      "stateMutability": "view",
      "type": "function"
    },
    {
      "inputs": [],
      "name": "maxSupply",
      "outputs": [
        {
          "internalType": "uint256",
          "name": "",
          "type": "uint256"
        }
      ],
      "stateMutability": "view",
      "type": "function"
    },
    {
      "inputs": [
        {
          "internalType": "address",
          "name": "to",
          "type": "address"
        },
        {
          "internalType": "uint256",
          "name": "amount",
          "type": "uint256"
        }
      ],
      "name": "mint",
      "outputs": [],
      "stateMutability": "nonpayable",
      "type": "function"
    },
    {
      "inputs": [],
      "name": "name",
      "outputs": [
        {
          "internalType": "string",
          "name": "",
          "type": "string"
        }
      ],
      "stateMutability": "view",
      "type": "function"
    },
    {
      "inputs": [],
      "name": "nextNode",
      "outputs": [
        {
          "internalType": "address",
          "name": "",
          "type": "address"
        }
      ],
      "stateMutability": "view",
      "type": "function"
    },
    {
      "inputs": [],
      "name": "owner",
      "outputs": [
        {
          "internalType": "address",
          "name": "",
          "type": "address"
        }
      ],
      "stateMutability": "view",
      "type": "function"
    },
    {
      "inputs": [
        {
          "internalType": "address",
          "name": "",
          "type": "address"
        },
        {
          "internalType": "address",
          "name": "",
          "type": "address"
        }
      ],
      "name": "pairFor",
      "outputs": [
        {
          "internalType": "address",
          "name": "",
          "type": "address"
        }
      ],
      "stateMutability": "view",
      "type": "function"
    },
    {
      "inputs": [
        {
          "internalType": "address",
          "name": "",
          "type": "address"
        }
      ],
      "name": "pairs",
      "outputs": [
        {
          "internalType": "address",
          "name": "token0",
          "type": "address"
        },
        {
          "internalType": "address",
          "name": "token1",
          "type": "address"
        },
        {
          "internalType": "enum ListStatus",
          "name": "status",
          "type": "uint8"
        }
      ],
      "stateMutability": "view",
      "type": "function"
    },
    {
      "inputs": [],
      "name": "pause",
      "outputs": [],
      "stateMutability": "nonpayable",
      "type": "function"
    },
    {
      "inputs": [],
      "name": "paused",
      "outputs": [
        {
          "internalType": "bool",
          "name": "",
          "type": "bool"
        }
      ],
      "stateMutability": "view",
      "type": "function"
    },
    {
      "inputs": [
        {
          "internalType": "address",
          "name": "account",
          "type": "address"
        },
        {
          "internalType": "uint256",
          "name": "principal",
          "type": "uint256"
        },
        {
          "components": [
            {
              "internalType": "uint32",
              "name": "accountant",
              "type": "uint32"
            }
          ],
          "internalType": "struct FeeRates",
          "name": "rates",
          "type": "tuple"
        },
        {
          "internalType": "bool",
          "name": "fromAllowance",
          "type": "bool"
        }
      ],
      "name": "payFeeTgrLogic",
      "outputs": [
        {
          "internalType": "uint256",
          "name": "feesPaid",
          "type": "uint256"
        }
      ],
      "stateMutability": "nonpayable",
      "type": "function"
    },
    {
      "inputs": [],
      "name": "prevNode",
      "outputs": [
        {
          "internalType": "address",
          "name": "",
          "type": "address"
        }
      ],
      "stateMutability": "view",
      "type": "function"
    },
    {
      "inputs": [],
      "name": "pulse_lp_reward",
      "outputs": [],
      "stateMutability": "nonpayable",
      "type": "function"
    },
    {
      "inputs": [],
      "name": "pulse_user_burn",
      "outputs": [],
      "stateMutability": "nonpayable",
      "type": "function"
    },
    {
      "inputs": [],
      "name": "pulse_vote_burn",
      "outputs": [],
      "stateMutability": "nonpayable",
      "type": "function"
    },
    {
      "inputs": [
        {
          "internalType": "enum ActionType",
          "name": "actionType",
          "type": "uint8"
        },
        {
          "internalType": "bool",
          "name": "blockReentry",
          "type": "bool"
        }
      ],
      "name": "registerAction",
      "outputs": [
        {
          "components": [
            {
              "internalType": "enum ActionType",
              "name": "actionType",
              "type": "uint8"
            },
            {
              "internalType": "uint256",
              "name": "session",
              "type": "uint256"
            },
            {
              "internalType": "uint256",
              "name": "lastSession",
              "type": "uint256"
            },
            {
              "internalType": "bool",
              "name": "isUserAction",
              "type": "bool"
            }
          ],
          "internalType": "struct ActionParams",
          "name": "actionParams",
          "type": "tuple"
        }
      ],
      "stateMutability": "nonpayable",
      "type": "function"
    },
    {
      "inputs": [],
      "name": "renounceOwnership",
      "outputs": [],
      "stateMutability": "nonpayable",
      "type": "function"
    },
    {
      "inputs": [],
      "name": "resume",
      "outputs": [],
      "stateMutability": "nonpayable",
      "type": "function"
    },
    {
      "inputs": [],
      "name": "session",
      "outputs": [
        {
          "internalType": "uint256",
          "name": "",
          "type": "uint256"
        }
      ],
      "stateMutability": "view",
      "type": "function"
    },
    {
      "inputs": [
        {
          "internalType": "enum ActionType",
          "name": "",
          "type": "uint8"
        }
      ],
      "name": "sessionsLastSeenBySType",
      "outputs": [
        {
          "internalType": "uint256",
          "name": "",
          "type": "uint256"
        }
      ],
      "stateMutability": "view",
      "type": "function"
    },
    {
      "inputs": [
        {
          "internalType": "enum ActionType",
          "name": "_sessionType",
          "type": "uint8"
        },
        {
          "components": [
            {
              "internalType": "uint32",
              "name": "accountant",
              "type": "uint32"
            }
          ],
          "internalType": "struct FeeRates",
          "name": "_feeRates",
          "type": "tuple"
        },
        {
          "internalType": "address",
          "name": "caller",
          "type": "address"
        }
      ],
      "name": "setFeeRates",
      "outputs": [],
      "stateMutability": "nonpayable",
      "type": "function"
    },
    {
      "inputs": [
        {
          "components": [
            {
              "internalType": "address",
              "name": "accountant",
              "type": "address"
            }
          ],
          "internalType": "struct FeeStores",
          "name": "_feeStores",
          "type": "tuple"
        },
        {
          "internalType": "address",
          "name": "caller",
          "type": "address"
        }
      ],
      "name": "setFeeStores",
      "outputs": [],
      "stateMutability": "nonpayable",
      "type": "function"
    },
    {
      "inputs": [
        {
          "internalType": "enum NodeType",
          "name": "nodeType",
          "type": "uint8"
        },
        {
          "internalType": "address",
          "name": "node",
          "type": "address"
        },
        {
          "internalType": "address",
          "name": "caller",
          "type": "address"
        }
      ],
      "name": "setNode",
      "outputs": [],
      "stateMutability": "nonpayable",
      "type": "function"
    },
    {
      "inputs": [],
      "name": "symbol",
      "outputs": [
        {
          "internalType": "string",
          "name": "",
          "type": "string"
        }
      ],
      "stateMutability": "view",
      "type": "function"
    },
    {
      "inputs": [],
      "name": "tgrBusd",
      "outputs": [
        {
          "internalType": "address",
          "name": "",
          "type": "address"
        }
      ],
      "stateMutability": "view",
      "type": "function"
    },
    {
      "inputs": [],
      "name": "tgrFtm",
      "outputs": [
        {
          "internalType": "address",
          "name": "",
          "type": "address"
        }
      ],
      "stateMutability": "view",
      "type": "function"
    },
    {
      "inputs": [],
      "name": "totalSupply",
      "outputs": [
        {
          "internalType": "uint256",
          "name": "",
          "type": "uint256"
        }
      ],
      "stateMutability": "view",
      "type": "function"
    },
    {
      "inputs": [
        {
          "internalType": "address",
          "name": "recipient",
          "type": "address"
        },
        {
          "internalType": "uint256",
          "name": "amount",
          "type": "uint256"
        }
      ],
      "name": "transfer",
      "outputs": [
        {
          "internalType": "bool",
          "name": "",
          "type": "bool"
        }
      ],
      "stateMutability": "nonpayable",
      "type": "function"
    },
    {
      "inputs": [
        {
          "internalType": "address",
          "name": "sender",
          "type": "address"
        },
        {
          "internalType": "address",
          "name": "recipient",
          "type": "address"
        },
        {
          "internalType": "uint256",
          "name": "amount",
          "type": "uint256"
        }
      ],
      "name": "transferDirectSafe",
      "outputs": [],
      "stateMutability": "nonpayable",
      "type": "function"
    },
    {
      "inputs": [
        {
          "internalType": "address",
          "name": "sender",
          "type": "address"
        },
        {
          "internalType": "address",
          "name": "recipient",
          "type": "address"
        },
        {
          "internalType": "uint256",
          "name": "amount",
          "type": "uint256"
        }
      ],
      "name": "transferFrom",
      "outputs": [
        {
          "internalType": "bool",
          "name": "",
          "type": "bool"
        }
      ],
      "stateMutability": "nonpayable",
      "type": "function"
    },
    {
      "inputs": [
        {
          "internalType": "address",
          "name": "newOwner",
          "type": "address"
        }
      ],
      "name": "transferOwnership",
      "outputs": [],
      "stateMutability": "nonpayable",
      "type": "function"
    },
    {
      "inputs": [],
      "name": "unregisterAction",
      "outputs": [],
      "stateMutability": "nonpayable",
      "type": "function"
    },
    {
      "inputs": [],
      "name": "user_burn",
      "outputs": [
        {
          "internalType": "uint256",
          "name": "latestTime",
          "type": "uint256"
        },
        {
          "internalType": "uint256",
          "name": "cycle",
          "type": "uint256"
        },
        {
          "internalType": "uint256",
          "name": "decayRate",
          "type": "uint256"
        },
        {
          "internalType": "address",
          "name": "account",
          "type": "address"
        },
        {
          "internalType": "uint256",
          "name": "accDecayPerShare",
          "type": "uint256"
        },
        {
          "internalType": "uint256",
          "name": "sum_tokens",
          "type": "uint256"
        },
        {
          "internalType": "uint256",
          "name": "pending_burn",
          "type": "uint256"
        },
        {
          "internalType": "uint256",
          "name": "latestRound",
          "type": "uint256"
        }
      ],
      "stateMutability": "view",
      "type": "function"
    },
    {
      "inputs": [],
      "name": "vote_burn",
      "outputs": [
        {
          "internalType": "uint256",
          "name": "latestTime",
          "type": "uint256"
        },
        {
          "internalType": "uint256",
          "name": "cycle",
          "type": "uint256"
        },
        {
          "internalType": "uint256",
          "name": "decayRate",
          "type": "uint256"
        },
        {
          "internalType": "address",
          "name": "account",
          "type": "address"
        },
        {
          "internalType": "uint256",
          "name": "accDecayPerShare",
          "type": "uint256"
        },
        {
          "internalType": "uint256",
          "name": "sum_tokens",
          "type": "uint256"
        },
        {
          "internalType": "uint256",
          "name": "pending_burn",
          "type": "uint256"
        },
        {
          "internalType": "uint256",
          "name": "latestRound",
          "type": "uint256"
        }
      ],
      "stateMutability": "view",
      "type": "function"
    },
    {
      "inputs": [
        {
          "internalType": "address",
          "name": "_prevNode",
          "type": "address"
        },
        {
          "internalType": "address",
          "name": "_nextNode",
          "type": "address"
        }
      ],
      "name": "wire",
      "outputs": [],
      "stateMutability": "nonpayable",
      "type": "function"
    },
    {
      "stateMutability": "payable",
      "type": "receive"
    }
  ],
  "bytecode": "0x60806040523480156200001157600080fd5b506040516200513d3803806200513d8339810160408190526200003491620007c5565b6000805460ff1916905562000049336200035a565b603f80546001600160a01b0319166001600160a01b0383161790556200006c3390565b603b80546001600160a01b039283166001600160a01b031991821617909155603c805482167370997970c51812dc3a010c7d01b50e0d17dc79c8179055603d80548216733c44cdddb6a900fa2b585dd299e03d12fa4293bc179055603e805482167390f79bf6eb2c4f870365e785982e1f101e93b906179055601e805490911673976ea74026e726554db657fa54763abd0c3a0aa91790556040805161010081018252428082526002602083018190526102b293830193909352600854909316606082015260006080820181905260a0820181905260c08201529160e083019162000157916200080d565b90528051601f556020808201518155604080830151602155606080840151602280546001600160a01b0319166001600160a01b0392831617905560808086015160235560a08087015160245560c08088015160255560e097880151602655855161010081018752428082526002988201899052604697820197909752601e549094169484019490945260009183018290528201819052918101919091529283019162000203916200080d565b90528051602755602080820151602855604080830151602955606080840151602a80546001600160a01b0319166001600160a01b03909216919091179055608080850151602b5560a080860151602c5560c080870151602d5560e096870151602e5584516101008101865242808252600497820188905261030996820196909652600094810185905292830184905290820183905281019190915292830191620002ad916200080d565b90528051602f55602081015160305560408101516031556060810151603280546001600160a01b0319166001600160a01b03909216919091179055608081015160335560a081015160345560c081015160355560e00151603655617ab760395561343e603a55600e805462ffffff19166201010117905562000353620003303390565b6200033e6012600a6200092d565b6200034d90620f42406200093e565b620003b8565b50620009ed565b600e80546001600160a01b0383811663010000008181026301000000600160b81b031985161790945560405193909204169182907f8be0079c531659141344cd1fd0a4f28419497f9722a3daafe3b4186f6b6457e090600090a35050565b60408051808201909152600c81526b5a65726f206164647265737360a01b60208201526001600160a01b0383166200040e5760405162461bcd60e51b815260040162000405919062000960565b60405180910390fd5b5080601c6000828254620004239190620009b8565b909155506200043790508282600162000481565b6040518181526001600160a01b038316906000907fddf252ad1be2c89b69c2b068fc378daa952ba7f163c4a11628f55a4df523b3ef9060200160405180910390a35050565b505050565b6200048c8362000641565b156200059a576200049d8362000680565b8015620004f6576001600160a01b0383166000908152601d602052604081208054849290620004ce908490620009b8565b909155505060348054839190600090620004ea908490620009b8565b90915550620005429050565b6001600160a01b0383166000908152601d60205260408120805484929062000520908490620009d3565b9091555050603480548391906000906200053c908490620009d3565b90915550505b6033546001600160a01b0384166000908152601d602052604090205464e8d4a510009162000570916200093e565b6200057c91906200080d565b6001600160a01b038416600090815260376020526040902055505050565b8015620005f2576001600160a01b0383166000908152601d602052604081208054849290620005cb908490620009b8565b925050819055508160386000828254620005e69190620009b8565b909155506200047c9050565b6001600160a01b0383166000908152601d6020526040812080548492906200061c908490620009d3565b925050819055508160386000828254620006379190620009d3565b9091555050505050565b6001600160a01b038181166000908152600a60205260408120549091161580156200067a5750601e546001600160a01b03838116911614155b92915050565b60006200068d8262000770565b905080156200076c576001600160a01b0382166000908152601d602052604081208054839290620006c0908490620009d3565b9250508190555080601c6000828254620006db9190620009d3565b909155505060348054829190600090620006f7908490620009d3565b90915550506035805482919060009062000713908490620009d3565b90915550506033546001600160a01b0383166000908152601d602052604090205464e8d4a510009162000746916200093e565b6200075291906200080d565b6001600160a01b0383166000908152603760205260409020555b5050565b6001600160a01b038116600090815260376020908152604080832054603354601d90935290832054909164e8d4a5100091620007ad91906200093e565b620007b991906200080d565b6200067a9190620009d3565b600060208284031215620007d857600080fd5b81516001600160a01b0381168114620007f057600080fd5b9392505050565b634e487b7160e01b600052601160045260246000fd5b6000826200082b57634e487b7160e01b600052601260045260246000fd5b500490565b600181815b8085111562000871578160001904821115620008555762000855620007f7565b808516156200086357918102915b93841c939080029062000835565b509250929050565b6000826200088a575060016200067a565b8162000899575060006200067a565b8160018114620008b25760028114620008bd57620008dd565b60019150506200067a565b60ff841115620008d157620008d1620007f7565b50506001821b6200067a565b5060208310610133831016604e8410600b841016171562000902575081810a6200067a565b6200090e838362000830565b8060001904821115620009255762000925620007f7565b029392505050565b6000620007f060ff84168362000879565b60008160001904831182151516156200095b576200095b620007f7565b500290565b600060208083528351808285015260005b818110156200098f5785810183015185820160400152820162000971565b81811115620009a2576000604083870101525b50601f01601f1916929092016040019392505050565b60008219821115620009ce57620009ce620007f7565b500190565b600082821015620009e857620009e8620007f7565b500390565b61474080620009fd6000396000f3fe6080604052600436106103395760003560e01c8063893d20e8116101ab578063a9059cbb116100f7578063eca4c46611610095578063f2fde38b1161006f578063f2fde38b14610a6d578063f9a21e8a14610a8d578063fc58ee8b14610aad578063fe33b30214610acd57600080fd5b8063eca4c46614610a15578063ecd6f46a14610a2b578063ed2deb8b14610a5857600080fd5b8063cdd9224c116100d1578063cdd9224c14610985578063d5abeb01146109a5578063dd62ed3e146109ba578063e729a45514610a0057600080fd5b8063a9059cbb14610925578063cd193c4314610945578063cd537aa11461096557600080fd5b806395d89b4111610164578063a13c1f671161013e578063a13c1f6714610889578063a150da2a146108c5578063a457c2d7146108e5578063a51bb24e1461090557600080fd5b806395d89b41146107fc57806396ed28f9146108285780639dc29fac1461086957600080fd5b8063893d20e8146107575780638da5cb5b1461075757806390e3677f1461077c57806391fd0db71461079c578063928879d6146107bc578063934923a3146107dc57600080fd5b806340c10f191161028557806365715c561161022357806370a08231116101fd57806370a08231146106f8578063715018a614610718578063739572891461072d5780638456cb591461074257600080fd5b806365715c561461067c57806368fb3c721461069c5780636c93564f146106bc57600080fd5b806354abe9d01161025f57806354abe9d01461060a5780635c975abb1461062a5780635d392daa146106445780635e3568b81461066657600080fd5b806340c10f19146105a8578063431b3c30146105c85780634be54827146105dd57600080fd5b806310224711116102f2578063249dfad7116102cc578063249dfad7146104c8578063313ce567146104ed5780633660777d14610509578063395093511461058857600080fd5b8063102247111461043d57806318160ddd1461048557806323b872dd146104a857600080fd5b8063046f7da21461034557806306fdde031461035c578063086a606c146103a0578063095ea7b3146103b557806309b16a22146103e55780630c3d536b1461041d57600080fd5b3661034057005b600080fd5b34801561035157600080fd5b5061035a610b29565b005b34801561036857600080fd5b506040805180820190915260098152682a23a9102a37b5b2b760b91b60208201525b6040516103979190613c6f565b60405180910390f35b3480156103ac57600080fd5b5061035a610b99565b3480156103c157600080fd5b506103d56103d0366004613c99565b61100c565b6040519015158152602001610397565b3480156103f157600080fd5b50600854610405906001600160a01b031681565b6040516001600160a01b039091168152602001610397565b34801561042957600080fd5b50600954610405906001600160a01b031681565b34801561044957600080fd5b50610470610458366004613cd0565b600d6020526000908152604090205463ffffffff1681565b60405163ffffffff9091168152602001610397565b34801561049157600080fd5b5061049a611023565b604051908152602001610397565b3480156104b457600080fd5b506103d56104c3366004613ced565b611032565b3480156104d457600080fd5b506000546104059061010090046001600160a01b031681565b3480156104f957600080fd5b5060405160128152602001610397565b34801561051557600080fd5b50602754602854602954602a54602b54602c54602d54602e54610545979695946001600160a01b03169392919088565b604080519889526020890197909752958701949094526001600160a01b039092166060860152608085015260a084015260c083015260e082015261010001610397565b34801561059457600080fd5b506103d56105a3366004613c99565b6110e3565b3480156105b457600080fd5b5061035a6105c3366004613c99565b6110f7565b3480156105d457600080fd5b5061035a6111a6565b3480156105e957600080fd5b506105fd6105f8366004613d37565b611268565b6040516103979190613d9a565b34801561061657600080fd5b5061035a610625366004613dd3565b61158f565b34801561063657600080fd5b506014546103d59060ff1681565b34801561065057600080fd5b506106596116b2565b6040516103979190613dee565b34801561067257600080fd5b5061049a600f5481565b34801561068857600080fd5b50600154610405906001600160a01b031681565b3480156106a857600080fd5b5061049a6106b7366004613dfc565b6116e4565b3480156106c857600080fd5b50602f54603054603154603254603354603454603554603654610545979695946001600160a01b03169392919088565b34801561070457600080fd5b5061049a610713366004613dd3565b61174c565b34801561072457600080fd5b5061035a611757565b34801561073957600080fd5b5061035a611795565b34801561074e57600080fd5b5061035a611a5e565b34801561076357600080fd5b50600e54630100000090046001600160a01b0316610405565b34801561078857600080fd5b5061035a610797366004613e56565b611acc565b3480156107a857600080fd5b5061035a6107b7366004613ed0565b611b6a565b3480156107c857600080fd5b5061035a6107d7366004613f5c565b611d23565b3480156107e857600080fd5b50600754610405906001600160a01b031681565b34801561080857600080fd5b506040805180820190915260038152622a23a960e91b602082015261038a565b34801561083457600080fd5b50610405610843366004613e56565b600b6020908152600092835260408084209091529082529020546001600160a01b031681565b34801561087557600080fd5b5061035a610884366004613c99565b611dde565b34801561089557600080fd5b50601f54602054602154602254602354602454602554602654610545979695946001600160a01b03169392919088565b3480156108d157600080fd5b506103d56108e0366004613ced565b611e1a565b3480156108f157600080fd5b506103d5610900366004613c99565b611ea1565b34801561091157600080fd5b5061035a610920366004613f9c565b611eae565b34801561093157600080fd5b506103d5610940366004613c99565b611f52565b34801561095157600080fd5b5061035a610960366004613fbe565b611f5f565b34801561097157600080fd5b5061035a610980366004613ced565b6123fb565b34801561099157600080fd5b5061035a6109a0366004614029565b6128f7565b3480156109b157600080fd5b5061049a612abc565b3480156109c657600080fd5b5061049a6109d5366004613e56565b6001600160a01b039182166000908152601b6020908152604080832093909416825291909152205490565b348015610a0c57600080fd5b5061035a612ad9565b348015610a2157600080fd5b5061049a60105481565b348015610a3757600080fd5b5061049a610a46366004613cd0565b60116020526000908152604090205481565b348015610a6457600080fd5b5061035a612b2f565b348015610a7957600080fd5b5061035a610a88366004613dd3565b612bcb565b348015610a9957600080fd5b50600c54610405906001600160a01b031681565b348015610ab957600080fd5b5061035a610ac8366004613c99565b612c6b565b348015610ad957600080fd5b50610b1a610ae8366004613dd3565b600a60205260009081526040902080546001909101546001600160a01b0391821691811690600160a01b900460ff1683565b6040516103979392919061409b565b600e54630100000090046001600160a01b03166001600160a01b0316336001600160a01b031614610b8d5760405162461bcd60e51b81526020600482015260096024820152682737ba1037bbb732b960b91b60448201526064015b60405180910390fd5b6014805460ff19169055565b6000610ba5601f612ca7565b9050600064e8d4a5100082600860009054906101000a90046001600160a01b03166001600160a01b03166318160ddd6040518163ffffffff1660e01b8152600401602060405180830381865afa158015610c03573d6000803e3d6000fd5b505050506040513d601f19601f82011682018060405250810190610c2791906140c8565b610c3191906140f7565b610c3b9190614116565b6004805460405162d1b00d60e71b81523092810183905260248101849052600060448201819052606482019390935242608482015292935090916001600160a01b03909116906368d806809060a4016020604051808303816000875af1158015610ca9573d6000803e3d6000fd5b505050506040513d601f19601f82011682018060405250810190610ccd91906140c8565b9050610d0e6040518060400160405280601f81526020017f46544d206761696e6564206279204c502064696c7574696f6e202d2d2d2d2d0081525082612e97565b604080516002808252606082018352600092602083019080368337019050509050735fc8d32690cc91d4c39d9d3abcbd16989f87570781600081518110610d5757610d57614138565b60200260200101906001600160a01b031690816001600160a01b03168152505073b7f8bc63bbcad18155201308c8f3540b07f84f5e81600181518110610d9f57610d9f614138565b6001600160a01b0392909216602092830291909101909101526040516370a0823160e01b815230600482015260009073b7f8bc63bbcad18155201308c8f3540b07f84f5e906370a0823190602401602060405180830381865afa158015610e0a573d6000803e3d6000fd5b505050506040513d601f19601f82011682018060405250810190610e2e91906140c8565b600554604051637ff36ab560e01b81529192506001600160a01b031690637ff36ab5908590610e689060009087903090429060040161414e565b60006040518083038185885af1158015610e86573d6000803e3d6000fd5b50505050506040513d6000823e601f3d908101601f19168201604052610eaf91908101906141b8565b506040516370a0823160e01b8152306004820152819073b7f8bc63bbcad18155201308c8f3540b07f84f5e906370a0823190602401602060405180830381865afa158015610f01573d6000803e3d6000fd5b505050506040513d601f19601f82011682018060405250810190610f2591906140c8565b610f2f919061425e565b9050610f706040518060400160405280601881526020017f48545a206761696e65642062792073776170202d2d2d2d2d000000000000000081525082612e97565b60405163a9059cbb60e01b815273f39fd6e51aad88f6f4ce6ab8827279cfffb9226660048201526024810182905273b7f8bc63bbcad18155201308c8f3540b07f84f5e9063a9059cbb906044016020604051808303816000875af1158015610fdc573d6000803e3d6000fd5b505050506040513d601f19601f820116820180604052508101906110009190614275565b505042601f5550505050565b6000611019338484612edc565b5060015b92915050565b600061102d612fd4565b905090565b60006001600160a01b03841633146110ce576001600160a01b0384166000908152601b60209081526040808320338452909152902054828110156110b85760405162461bcd60e51b815260206004820152601a60248201527f5472616e73666572206578636565647320616c6c6f77616e63650000000000006044820152606401610b84565b6110cc85336110c7868561425e565b612edc565b505b6110d9848484612fe6565b5060019392505050565b60006110f0338484613054565b9392505050565b600e546001600160a01b0363010000009091041633146111295760405162461bcd60e51b8152600401610b8490614292565b6111356012600a6143ab565b611143906302faf0806140f7565b8161114c612fd4565b61115691906143ba565b11156111985760405162461bcd60e51b8152602060048201526011602482015270457863656564204d617820537570706c7960781b6044820152606401610b84565b6111a282826130db565b5050565b60025433906001600160a01b03168114806111ce57506004546001600160a01b038281169116145b806111e657506005546001600160a01b038281169116145b6112025760405162461bcd60e51b8152600401610b84906143d2565b600060126013546014811061121957611219614138565b602091828204019190066101000a81548160ff0219169083600581111561124257611242613d70565b021790555060135415611265576013805490600061125f83614401565b91905055505b50565b60408051608081018252600080825260208201819052918101829052606081019190915260025433906001600160a01b03168114806112b457506004546001600160a01b038281169116145b806112cc57506005546001600160a01b038281169116145b6112e85760405162461bcd60e51b8152600401610b84906143d2565b60145460ff161561132b5760405162461bcd60e51b815260206004820152600d60248201526c14de5cdd195b481c185d5cd959609a1b6044820152606401610b84565b600084600581111561133f5761133f613d70565b0361137d5760405162461bcd60e51b815260206004820152600e60248201526d24b73b30b634b21030b1ba34b7b760911b6044820152606401610b84565b82156114265760005b6013548111611424578460058111156113a1576113a1613d70565b601282601481106113b4576113b4614138565b602081049091015460ff601f9092166101000a90041660058111156113db576113db613d70565b036114125760405162461bcd60e51b81526020600482015260076024820152665265656e74727960c81b6044820152606401610b84565b8061141c81614418565b915050611386565b505b60135415801561144d575060125460009060ff16600581111561144b5761144b613d70565b145b611467576013805490600061146183614418565b91905055505b6014601354106114aa5760405162461bcd60e51b815260206004820152600e60248201526d537461636b206f766572666c6f7760901b6044820152606401610b84565b836012601354601481106114c0576114c0614138565b602091828204019190066101000a81548160ff021916908360058111156114e9576114e9613d70565b02179055508184600581111561150157611501613d70565b9081600581111561151457611514613d70565b90525060135415606083015260405160009061154890439032906020019182526001600160a01b0316602082015260400190565b6040516020818303038152906040528051906020012060001c905080600f541461157757600f80546010558190555b5050600f546020820152601054604082015292915050565b60005461010090046001600160a01b03163314806115ac57503330145b806115da5750600e54630100000090046001600160a01b03166001600160a01b0316336001600160a01b0316145b6115f65760405162461bcd60e51b8152600401610b8490614431565b6001600160a01b0381163014611686576001546001600160a01b03908116906354abe9d090831615611628578261162a565b305b6040516001600160e01b031960e084901b1681526001600160a01b039091166004820152602401600060405180830381600087803b15801561166b57600080fd5b505af115801561167f573d6000803e3d6000fd5b5050505050565b6040517ffd3415c24b2b4519f08b7935c13f86ea010c77b3ff9bf448a474ae3b2414fce090600090a150565b60006012601354601481106116c9576116c9614138565b602081049091015460ff601f9092166101000a900416919050565b60025460009033906001600160a01b031681148061170f57506004546001600160a01b038281169116145b8061172757506005546001600160a01b038281169116145b6117435760405162461bcd60e51b8152600401610b84906143d2565b50949350505050565b600061101d8261318f565b600e546001600160a01b0363010000009091041633146117895760405162461bcd60e51b8152600401610b8490614292565b61179360006131f1565b565b601c546038546034546117a891906143ba565b1461180b5760405162461bcd60e51b815260206004820152602d60248201527f73756d5f746f6b656e73202b206e6f6e5573657253756d546f6b656e7320213d60448201526c205f746f74616c537570706c7960981b6064820152608401610b84565b611813611023565b603854603554603454611826919061425e565b61183091906143ba565b146118755760405162461bcd60e51b81526020600482015260156024820152741c195b991a5b99d7d89d5c9b881a5b98dbdc9c98dd605a1b6044820152606401610b84565b603454603e546001600160a01b039081166000908152601d602052604080822054603d548416835281832054603c548516845282842054603b5490951684529190922054919290916118c791906143ba565b6118d191906143ba565b6118db91906143ba565b1461194a57603e546001600160a01b039081166000908152601d602052604080822054603d548416835281832054603c548516845282842054603b549095168452919092205461194a9361192e916143ba565b61193891906143ba565b61194291906143ba565b60345461324f565b60355460345460009161195c9161425e565b603e54909150600090611977906001600160a01b031661174c565b603d5461198c906001600160a01b031661174c565b603c546119a1906001600160a01b031661174c565b603b546119b6906001600160a01b031661174c565b6119c091906143ba565b6119ca91906143ba565b6119d491906143ba565b90506000818310156119f1576119ea838361425e565b90506119fe565b6119fb828461425e565b90505b82611a0c82620f42406140f7565b10611a595760405162461bcd60e51b815260206004820152601a60248201527f4572726f7220657863656564732061206d696c6c696f6e2d74680000000000006044820152606401610b84565b505050565b600e54630100000090046001600160a01b03166001600160a01b0316336001600160a01b031614611abd5760405162461bcd60e51b81526020600482015260096024820152682737ba1037bbb732b960b91b6044820152606401610b84565b6014805460ff19166001179055565b600e54630100000090046001600160a01b03166001600160a01b0316336001600160a01b031614611b325760405162461bcd60e51b815260206004820152601060248201526f496e76616c69642063616c6c6572203360801b6044820152606401610b84565b60008054610100600160a81b0319166101006001600160a01b0394851602179055600180546001600160a01b03191691909216179055565b60005461010090046001600160a01b0316331480611b8757503330145b80611bb55750600e54630100000090046001600160a01b03166001600160a01b0316336001600160a01b0316145b611bd15760405162461bcd60e51b8152600401610b8490614431565b6001600160a01b0381163014611ce557600e5462010000900460ff1615611c5f57604051634f18125b60e01b815273__$88bebae22a3ad6e62b56c303176513ecf8$__90634f18125b90611c2e908690600d90879060040161445b565b60006040518083038186803b158015611c4657600080fd5b505af4158015611c5a573d6000803e3d6000fd5b505050505b60006001600160a01b03821615611c765781611c78565b305b6001546040516391fd0db760e01b81529192506001600160a01b0316906391fd0db790611cad90879087908690600401614484565b600060405180830381600087803b158015611cc757600080fd5b505af1158015611cdb573d6000803e3d6000fd5b5050505050505050565b7fb4040436d4754da72f29d5b97fe68448f30d44ac0e08b33545cbf6f28b7641d98383604051611d169291906144b6565b60405180910390a1505050565b60005461010090046001600160a01b0316331480611d4057503330145b80611d6e5750600e54630100000090046001600160a01b03166001600160a01b0316336001600160a01b0316145b611d8a5760405162461bcd60e51b8152600401610b8490614431565b611d95838383613295565b6000836004811115611da957611da9613d70565b03611a5957601980546001600160a01b0384166001600160a01b03199182168117909255601a80549091169091179055505050565b600e546001600160a01b036301000000909104163314611e105760405162461bcd60e51b8152600401610b8490614292565b6111a282826133f8565b60408051808201909152600c81526b5a65726f206164647265737360a01b60208201526000906001600160a01b038516611e675760405162461bcd60e51b8152600401610b849190613c6f565b506001600160a01b038085166000908152601b60209081526040808320938716835292905220546110d990859085906110c790869061425e565b60006110f0338484611e1a565b600e546001600160a01b036301000000909104163314611ee05760405162461bcd60e51b8152600401610b8490614292565b611eec6005600a6144d8565b8211158015611f065750611f026005600a6144d8565b8111155b611f475760405162461bcd60e51b8152602060048201526012602482015271496e76616c6964206275726e20726174657360701b6044820152606401610b84565b603991909155603a55565b6000611019338484612fe6565b60005461010090046001600160a01b0316331480611f7c57503330145b80611faa5750600e54630100000090046001600160a01b03166001600160a01b0316336001600160a01b0316145b611fc65760405162461bcd60e51b8152600401610b8490614431565b6001600160a01b03811630146123b757600e5460ff161561232d576040518060600160405280856001600160a01b03168152602001846001600160a01b0316815260200183600381111561201c5761201c613d70565b90526001600160a01b038087166000908152600a6020908152604091829020845181549085166001600160a01b0319918216178255918501516001820180549190951692811683178555928501519093909290916001600160a81b031990911617600160a01b83600381111561209457612094613d70565b021790555050506001600160a01b038085166000818152600b60208181526040808420898716855282528084208054878d166001600160a01b03199182168117909255938352818520958552949091529182902080549091169092179091556002549051633fe59dbb60e11b815273__$88bebae22a3ad6e62b56c303176513ecf8$__92637fcb3b769261214692899289921690730dcd1bf9a1b36ce34237eeafef220932846bcd82906004016144e4565b602060405180830381865af4158015612163573d6000803e3d6000fd5b505050506040513d601f19601f820116820180604052508101906121879190614275565b156121a857600780546001600160a01b0319166001600160a01b0387161790555b600254604051633fe59dbb60e11b815273__$88bebae22a3ad6e62b56c303176513ecf8$__91637fcb3b769161220491889188916001600160a01b031690735fc8d32690cc91d4c39d9d3abcbd16989f875707906004016144e4565b602060405180830381865af4158015612221573d6000803e3d6000fd5b505050506040513d601f19601f820116820180604052508101906122459190614275565b1561226657600880546001600160a01b0319166001600160a01b0387161790555b604051633fe59dbb60e11b815273__$88bebae22a3ad6e62b56c303176513ecf8$__90637fcb3b76906122cb908790879073b7f8bc63bbcad18155201308c8f3540b07f84f5e90735fc8d32690cc91d4c39d9d3abcbd16989f875707906004016144e4565b602060405180830381865af41580156122e8573d6000803e3d6000fd5b505050506040513d601f19601f8201168201806040525081019061230c9190614275565b1561232d57600980546001600160a01b0319166001600160a01b0387161790555b60006001600160a01b038216156123445781612346565b305b60015460405163cd193c4360e01b81529192506001600160a01b03169063cd193c439061237f908990899089908990889060040161450f565b600060405180830381600087803b15801561239957600080fd5b505af11580156123ad573d6000803e3d6000fd5b505050505061167f565b7f7af36d96fdc569564b9fadb22716716fe33463cb7fc8dca4fbd79d40448acdf2858585856040516123ec9493929190614551565b60405180910390a15050505050565b60055433906001600160a01b031681148061242357506004546001600160a01b038281169116145b8061244757506001600160a01b038181166000908152600a60205260409020541615155b604051806040016040528060098152602001682337b93134b23232b760b91b815250906124875760405162461bcd60e51b8152600401610b849190613c6f565b506004546001600160a01b03908116908216036125ca576001600160a01b038381166000908152600a602052604090205416156125485760006124c8613502565b905060038160058111156124de576124de613d70565b0361250c576125076040518060400160405280600381526020016210591960ea1b815250613571565b612542565b612542604051806040016040528060158152602001740496e636f6e73697374656e637920666f756e64203605c1b815250613571565b506128a4565b6004546001600160a01b039081169085160361258a576125856040518060400160405280600681526020016552656d6f766560d01b815250613571565b6128a4565b60405162461bcd60e51b8152602060048201526015602482015274496e636f6e73697374656e637920666f756e64203160581b6044820152606401610b84565b6005546001600160a01b03908116908216036126e7576001600160a01b038381166000908152600a6020526040902054161561262a576126256040518060400160405280600481526020016314d95b1b60e21b815250613571565b6126a4565b6005546001600160a01b0390811690851603612664576126256040518060400160405280600381526020016242757960e81b815250613571565b60405162461bcd60e51b815260206004820152601560248201527424b731b7b739b4b9ba32b731bc903337bab732101960591b6044820152606401610b84565b60006126b26005600a6144d8565b6039546126bf90856140f7565b6126c99190614116565b90506126d585826133f8565b6126df818461425e565b9250506128a4565b6001600160a01b038181166000908152600a6020526040902054161561286457836001600160a01b0316816001600160a01b0316146127585760405162461bcd60e51b815260206004820152600d60248201526c496e636f6e73697374656e743160981b6044820152606401610b84565b6000612762613502565b9050600281600581111561277857612778613d70565b036127e457600061278b6005600a6144d8565b60395461279890866140f7565b6127a29190614116565b90506127ae86826133f8565b6127b8818561425e565b93506127de6040518060400160405280600381526020016242757960e81b815250613571565b50612542565b60048160058111156127f8576127f8613d70565b03612824576125076040518060400160405280600681526020016552656d6f766560d01b815250613571565b600581600581111561283857612838613d70565b03612864576125076040518060400160405280600681526020016544696c75746560d01b815250613571565b60405162461bcd60e51b8152602060048201526015602482015274496e636f6e73697374656e637920666f756e64203360581b6044820152606401610b84565b6001600160a01b0384166000908152601d60205260409020548211156128e0576001600160a01b0384166000908152601d602052604090205491505b81156128f1576128f18484846135b4565b50505050565b60005461010090046001600160a01b031633148061291457503330145b806129425750600e54630100000090046001600160a01b03166001600160a01b0316336001600160a01b0316145b61295e5760405162461bcd60e51b8152600401610b8490614431565b6001600160a01b0381163014612a7b57600e54610100900460ff16156129f257604051633d8d54b760e11b8152600c600482015282516001600160a01b0316602482015273__$88bebae22a3ad6e62b56c303176513ecf8$__90637b1aa96e9060440160006040518083038186803b1580156129d957600080fd5b505af41580156129ed573d6000803e3d6000fd5b505050505b60006001600160a01b03821615612a095781612a0b565b305b600154604051633376489360e21b815285516001600160a01b039081166004830152808416602483015292935091169063cdd9224c90604401600060405180830381600087803b158015612a5e57600080fd5b505af1158015612a72573d6000803e3d6000fd5b50505050505050565b60405182516001600160a01b031681527f275664547227ddbc7a8a732c07c9346f2f4520de70c2088665cc6809534212c09060200160405180910390a15050565b612ac86012600a6143ab565b612ad6906302faf0806140f7565b81565b6000612ae56027612ca7565b602a546001600160a01b03166000818152601d6020526040902054919250612b289164e8d4a5100090612b199085906140f7565b612b239190614116565b6133f8565b5042602755565b6000612b3b602f612ca7565b9050801561126557603554603454600091612b559161425e565b9050600064e8d4a51000612b6984846140f7565b612b739190614116565b905080602f6006016000828254612b8a91906143ba565b9091555050603454612ba18264e8d4a510006140f7565b612bab9190614116565b60338054600090612bbd9084906143ba565b909155505042602f55505050565b600e546001600160a01b036301000000909104163314612bfd5760405162461bcd60e51b8152600401610b8490614292565b6001600160a01b038116612c625760405162461bcd60e51b815260206004820152602660248201527f4f776e61626c653a206e6577206f776e657220697320746865207a65726f206160448201526564647265737360d01b6064820152608401610b84565b611265816131f1565b600e546001600160a01b036301000000909104163314612c9d5760405162461bcd60e51b8152600401610b8490614292565b6111a2828261370d565b600080826001015442612cba9190614116565b90508260070154811115612e91576000836007015482612cda919061425e565b6007850183905542855590506005811115612cf3575060055b64e8d4a51000925060058111612da9576002840154600090612d176005600a6144d8565b612d21919061425e565b9050806000612d326005600a6144d8565b905060015b84811015612d7557612d4984846140f7565b9250612d576005600a6144d8565b612d6190836140f7565b915080612d6d81614418565b915050612d37565b5080612d868364e8d4a510006140f7565b612d909190614116565b612d9f9064e8d4a5100061425e565b9550505050612e8f565b603f54600285015460009182916001600160a01b0390911690635aff34dc90612dd46005600a6144d8565b612dde919061425e565b612dea6005600a6144d8565b6040516001600160e01b031960e085901b1681526004810192909252602482015260448101869052600160648201526084016040805180830381865afa158015612e38573d6000803e3d6000fd5b505050506040513d601f19601f82011682018060405250810190612e5c9190614587565b909250905080612e718364e8d4a510006140f7565b612e7b9190614116565b612e8a9064e8d4a5100061425e565b945050505b505b50919050565b6111a28282604051602401612ead9291906145ab565b60408051601f198184030181529190526020810180516001600160e01b03166309710a9d60e41b1790526137c1565b60408051808201909152600c81526b5a65726f206164647265737360a01b60208201526001600160a01b038416612f265760405162461bcd60e51b8152600401610b849190613c6f565b5060408051808201909152600c81526b5a65726f206164647265737360a01b60208201526001600160a01b038316612f715760405162461bcd60e51b8152600401610b849190613c6f565b506001600160a01b038381166000818152601b602090815260408083209487168084529482529182902085905590518481527f8c5be1e5ebec7d5bd14f71427d1e84f3dd0314c0f7b2291e5b200ac8c7c3b92591015b60405180910390a3505050565b603554601c5460009161102d9161425e565b612ff16001806137e2565b801561304c5760185460ff16156130415760006130106005600a6144d8565b60395461301d90846140f7565b6130279190614116565b905061303384826133f8565b61303d818361425e565b9150505b61304c8383836135b4565b611a596138b1565b60408051808201909152600c81526b5a65726f206164647265737360a01b60208201526000906001600160a01b0385166130a15760405162461bcd60e51b8152600401610b849190613c6f565b506001600160a01b038085166000908152601b60209081526040808320938716835292905220546110d990859085906110c79086906143ba565b60408051808201909152600c81526b5a65726f206164647265737360a01b60208201526001600160a01b0383166131255760405162461bcd60e51b8152600401610b849190613c6f565b5080601c600082825461313891906143ba565b9091555061314a905082826001613915565b6040518181526001600160a01b038316906000907fddf252ad1be2c89b69c2b068fc378daa952ba7f163c4a11628f55a4df523b3ef9060200160405180910390a35050565b600061319a82613ab8565b156131d15760006131aa83613af3565b6001600160a01b0384166000908152601d60205260409020549091506110f090829061425e565b506001600160a01b0381166000908152601d60205260409020545b919050565b600e80546001600160a01b0383811663010000008181026301000000600160b81b031985161790945560405193909204169182907f8be0079c531659141344cd1fd0a4f28419497f9722a3daafe3b4186f6b6457e090600090a35050565b60405160248101839052604481018290526111a29060640160408051601f198184030181529190526020810180516001600160e01b031662d81ed360e71b1790526137c1565b60005461010090046001600160a01b03163314806132b257503330145b806132e05750600e54630100000090046001600160a01b03166001600160a01b0316336001600160a01b0316145b6132fc5760405162461bcd60e51b8152600401610b8490614431565b6001600160a01b03811630146133c75760405163085b199160e11b815273__$88bebae22a3ad6e62b56c303176513ecf8$__906310b633229061334890869086906002906004016145dd565b60006040518083038186803b15801561336057600080fd5b505af4158015613374573d6000803e3d6000fd5b506000925050506001600160a01b038216156133905781613392565b305b6001546040516349443ceb60e11b81529192506001600160a01b03169063928879d690611cad90879087908690600401614605565b7fb45c42dda0a5ab1d1078e0afeda2976363eff9496a93644e726862f1f06186b88383604051611d16929190614635565b60408051808201909152600c81526b5a65726f206164647265737360a01b60208201526001600160a01b0383166134425760405162461bcd60e51b8152600401610b849190613c6f565b50600061344e8361318f565b9050818110156040518060400160405280600f81526020016e457863656564732062616c616e636560881b8152509061349a5760405162461bcd60e51b8152600401610b849190613c6f565b506134a783836000613915565b81601c60008282546134b9919061425e565b909155506134c49050565b6040518281526000906001600160a01b038516907fddf252ad1be2c89b69c2b068fc378daa952ba7f163c4a11628f55a4df523b3ef90602001612fc7565b60195460408051632e9c96d560e11b815290516000926001600160a01b031691635d392daa916004808301926020929190829003018187875af115801561354d573d6000803e3d6000fd5b505050506040513d601f19601f8201168201806040525081019061102d919061465b565b611265816040516024016135859190613c6f565b60408051601f198184030181529190526020810180516001600160e01b031663104c13eb60e21b1790526137c1565b60408051808201909152600c81526b5a65726f206164647265737360a01b60208201526001600160a01b0384166135fe5760405162461bcd60e51b8152600401610b849190613c6f565b5060408051808201909152600c81526b5a65726f206164647265737360a01b60208201526001600160a01b0383166136495760405162461bcd60e51b8152600401610b849190613c6f565b5060006136558461318f565b9050818110156040518060400160405280600f81526020016e457863656564732062616c616e636560881b815250906136a15760405162461bcd60e51b8152600401610b849190613c6f565b506136ae84836000613915565b6136ba83836001613915565b826001600160a01b0316846001600160a01b03167fddf252ad1be2c89b69c2b068fc378daa952ba7f163c4a11628f55a4df523b3ef846040516136ff91815260200190565b60405180910390a350505050565b60408051808201909152600c81526b5a65726f206164647265737360a01b60208201526001600160a01b0383166137575760405162461bcd60e51b8152600401610b849190613c6f565b5060006137638361318f565b9050818110156040518060400160405280600f81526020016e457863656564732062616c616e636560881b815250906137af5760405162461bcd60e51b8152600401610b849190613c6f565b506137bc83836000613915565b6134c4565b80516a636f6e736f6c652e6c6f67602083016000808483855afa5050505050565b601954604051634be5482760e01b81526001600160a01b0390911690634be54827906138149085908590600401614678565b6080604051808303816000875af1158015613833573d6000803e3d6000fd5b505050506040513d601f19601f820116820180604052508101906138579190614695565b805160158054909190829060ff1916600183600581111561387a5761387a613d70565b021790555060208201516001820155604082015160028201556060909101516003909101805460ff19169115159190911790555050565b601960009054906101000a90046001600160a01b03166001600160a01b031663431b3c306040518163ffffffff1660e01b8152600401600060405180830381600087803b15801561390157600080fd5b505af11580156128f1573d6000803e3d6000fd5b61391e83613ab8565b15613a1b5761392c83613b42565b801561397f576001600160a01b0383166000908152601d60205260408120805484929061395a9084906143ba565b9091555050603480548391906000906139749084906143ba565b909155506139c79050565b6001600160a01b0383166000908152601d6020526040812080548492906139a790849061425e565b9091555050603480548391906000906139c190849061425e565b90915550505b6033546001600160a01b0384166000908152601d602052604090205464e8d4a51000916139f3916140f7565b6139fd9190614116565b6001600160a01b038416600090815260376020526040902055505050565b8015613a6d576001600160a01b0383166000908152601d602052604081208054849290613a499084906143ba565b925050819055508160386000828254613a6291906143ba565b90915550611a599050565b6001600160a01b0383166000908152601d602052604081208054849290613a9590849061425e565b925050819055508160386000828254613aae919061425e565b9091555050505050565b6001600160a01b038181166000908152600a602052604081205490911615801561101d575050601e546001600160a01b039081169116141590565b6001600160a01b038116600090815260376020908152604080832054603354601d90935290832054909164e8d4a5100091613b2e91906140f7565b613b389190614116565b61101d919061425e565b6000613b4d82613af3565b905080156111a2576001600160a01b0382166000908152601d602052604081208054839290613b7d90849061425e565b9250508190555080601c6000828254613b96919061425e565b909155505060348054829190600090613bb090849061425e565b909155505060358054829190600090613bca90849061425e565b90915550506033546001600160a01b0383166000908152601d602052604090205464e8d4a5100091613bfb916140f7565b613c059190614116565b6001600160a01b0383166000908152603760205260409020555050565b6000815180845260005b81811015613c4857602081850181015186830182015201613c2c565b81811115613c5a576000602083870101525b50601f01601f19169290920160200192915050565b6020815260006110f06020830184613c22565b80356001600160a01b03811681146131ec57600080fd5b60008060408385031215613cac57600080fd5b613cb583613c82565b946020939093013593505050565b6006811061126557600080fd5b600060208284031215613ce257600080fd5b81356110f081613cc3565b600080600060608486031215613d0257600080fd5b613d0b84613c82565b9250613d1960208501613c82565b9150604084013590509250925092565b801515811461126557600080fd5b60008060408385031215613d4a57600080fd5b8235613d5581613cc3565b91506020830135613d6581613d29565b809150509250929050565b634e487b7160e01b600052602160045260246000fd5b60068110613d9657613d96613d70565b9052565b6000608082019050613dad828451613d86565b602083015160208301526040830151604083015260608301511515606083015292915050565b600060208284031215613de557600080fd5b6110f082613c82565b6020810161101d8284613d86565b6000806000808486036080811215613e1357600080fd5b613e1c86613c82565b94506020868101359450603f1982011215613e3657600080fd5b506040850191506060850135613e4b81613d29565b939692955090935050565b60008060408385031215613e6957600080fd5b613e7283613c82565b9150613e8060208401613c82565b90509250929050565b634e487b7160e01b600052604160045260246000fd5b604051601f8201601f1916810167ffffffffffffffff81118282101715613ec857613ec8613e89565b604052919050565b60008060008385036060811215613ee657600080fd5b8435613ef181613cc3565b93506020601f1982011215613f0557600080fd5b506040516020810181811067ffffffffffffffff82111715613f2957613f29613e89565b604052602085013563ffffffff81168114613f4357600080fd5b81529150613f5360408501613c82565b90509250925092565b600080600060608486031215613f7157600080fd5b833560058110613f8057600080fd5b9250613f8e60208501613c82565b9150613f5360408501613c82565b60008060408385031215613faf57600080fd5b50508035926020909101359150565b600080600080600060a08688031215613fd657600080fd5b613fdf86613c82565b9450613fed60208701613c82565b9350613ffb60408701613c82565b925060608601356004811061400f57600080fd5b915061401d60808701613c82565b90509295509295909350565b600080828403604081121561403d57600080fd5b602081121561404b57600080fd5b506040516020810181811067ffffffffffffffff8211171561406f5761406f613e89565b60405261407b84613c82565b81529150613e8060208401613c82565b60048110613d9657613d96613d70565b6001600160a01b03848116825283166020820152606081016140c0604083018461408b565b949350505050565b6000602082840312156140da57600080fd5b5051919050565b634e487b7160e01b600052601160045260246000fd5b6000816000190483118215151615614111576141116140e1565b500290565b60008261413357634e487b7160e01b600052601260045260246000fd5b500490565b634e487b7160e01b600052603260045260246000fd5b600060808201868352602060808185015281875180845260a086019150828901935060005b818110156141985784516001600160a01b031683529383019391830191600101614173565b50506001600160a01b039690961660408501525050506060015292915050565b600060208083850312156141cb57600080fd5b825167ffffffffffffffff808211156141e357600080fd5b818501915085601f8301126141f757600080fd5b81518181111561420957614209613e89565b8060051b915061421a848301613e9f565b818152918301840191848101908884111561423457600080fd5b938501935b8385101561425257845182529385019390850190614239565b98975050505050505050565b600082821015614270576142706140e1565b500390565b60006020828403121561428757600080fd5b81516110f081613d29565b6020808252818101527f4f776e61626c653a2063616c6c6572206973206e6f7420746865206f776e6572604082015260600190565b600181815b808511156143025781600019048211156142e8576142e86140e1565b808516156142f557918102915b93841c93908002906142cc565b509250929050565b6000826143195750600161101d565b816143265750600061101d565b816001811461433c576002811461434657614362565b600191505061101d565b60ff841115614357576143576140e1565b50506001821b61101d565b5060208310610133831016604e8410600b8410161715614385575081810a61101d565b61438f83836142c7565b80600019048211156143a3576143a36140e1565b029392505050565b60006110f060ff84168361430a565b600082198211156143cd576143cd6140e1565b500190565b6020808252601590820152742737ba10309039b2b9b9b4b7b71036b0b730b3b2b960591b604082015260600190565b600081614410576144106140e1565b506000190190565b60006001820161442a5761442a6140e1565b5060010190565b60208082526010908201526f496e76616c69642063616c6c6572203160801b604082015260600190565b606081016144698286613d86565b83602083015263ffffffff8351166040830152949350505050565b606081016144928286613d86565b925163ffffffff1660208201526001600160a01b0391909116604090910152919050565b604081016144c48285613d86565b63ffffffff83511660208301529392505050565b60006110f0838361430a565b6001600160a01b03948516815292841660208401529083166040830152909116606082015260800190565b6001600160a01b0386811682528581166020830152848116604083015260a082019061453e606084018661408b565b8084166080840152509695505050505050565b6001600160a01b0385811682528481166020830152831660408201526080810161457e606083018461408b565b95945050505050565b6000806040838503121561459a57600080fd5b505080516020909101519092909150565b6040815260006145be6040830185613c22565b90508260208301529392505050565b60058110613d9657613d96613d70565b606081016145eb82866145cd565b6001600160a01b0393909316602082015260400152919050565b6060810161461382866145cd565b6001600160a01b03938416602083015291909216604090920191909152919050565b6040810161464382856145cd565b6001600160a01b039290921660209190910152919050565b60006020828403121561466d57600080fd5b81516110f081613cc3565b604081016146868285613d86565b82151560208301529392505050565b6000608082840312156146a757600080fd5b6040516080810181811067ffffffffffffffff821117156146ca576146ca613e89565b60405282516146d881613cc3565b80825250602083015160208201526040830151604082015260608301516146fe81613d29565b6060820152939250505056fea2646970667358221220394c7efba98ffb90a1324451fb18c74873304d03ffbc468ec81c721db8b1f69664736f6c634300080e0033",
  "linkReferences": {
    "contracts/libraries/WireLibrary.sol": {
      "WireLibrary": [
        {
          "length": 20,
          "start": 9726
        },
        {
          "length": 20,
          "start": 11009
        },
        {
          "length": 20,
          "start": 11191
        },
        {
          "length": 20,
          "start": 11378
        },
        {
          "length": 20,
          "start": 13217
        },
        {
          "length": 20,
          "start": 15640
        }
      ]
    }
  },
  "deployedLinkReferences": {
    "contracts/libraries/WireLibrary.sol": {
      "WireLibrary": [
        {
          "length": 20,
          "start": 7169
        },
        {
          "length": 20,
          "start": 8452
        },
        {
          "length": 20,
          "start": 8634
        },
        {
          "length": 20,
          "start": 8821
        },
        {
          "length": 20,
          "start": 10660
        },
        {
          "length": 20,
          "start": 13083
        }
      ]
    }
  }
}