{
  "_format": "hh-sol-artifact-1",
  "contractName": "TGRToken",
  "sourceName": "contracts/farm/TGRToken.sol",
  "abi": [
    {
      "inputs": [
        {
          "internalType": "address",
          "name": "_analyticMath",
          "type": "address"
        }
      ],
      "stateMutability": "nonpayable",
      "type": "constructor"
    },
    {
      "anonymous": false,
      "inputs": [
        {
          "indexed": true,
          "internalType": "address",
          "name": "owner",
          "type": "address"
        },
        {
          "indexed": true,
          "internalType": "address",
          "name": "spender",
          "type": "address"
        },
        {
          "indexed": false,
          "internalType": "uint256",
          "name": "value",
          "type": "uint256"
        }
      ],
      "name": "Approval",
      "type": "event"
    },
    {
      "anonymous": false,
      "inputs": [],
      "name": "Begin",
      "type": "event"
    },
    {
      "anonymous": false,
      "inputs": [
        {
          "indexed": false,
          "internalType": "address",
          "name": "pair",
          "type": "address"
        },
        {
          "indexed": false,
          "internalType": "address",
          "name": "tokenA",
          "type": "address"
        },
        {
          "indexed": false,
          "internalType": "address",
          "name": "tokenB",
          "type": "address"
        },
        {
          "indexed": false,
          "internalType": "enum ListStatus",
          "name": "status",
          "type": "uint8"
        }
      ],
      "name": "ChangePairStatus",
      "type": "event"
    },
    {
      "anonymous": false,
      "inputs": [
        {
          "indexed": false,
          "internalType": "address",
          "name": "token",
          "type": "address"
        },
        {
          "indexed": false,
          "internalType": "address",
          "name": "msgSender",
          "type": "address"
        }
      ],
      "name": "DeenlistToken",
      "type": "event"
    },
    {
      "anonymous": false,
      "inputs": [
        {
          "indexed": true,
          "internalType": "address",
          "name": "previousOwner",
          "type": "address"
        },
        {
          "indexed": true,
          "internalType": "address",
          "name": "newOwner",
          "type": "address"
        }
      ],
      "name": "OwnershipTransferred",
      "type": "event"
    },
    {
      "anonymous": false,
      "inputs": [
        {
          "indexed": false,
          "internalType": "enum ActionType",
          "name": "_sessionType",
          "type": "uint8"
        },
        {
          "components": [
            {
              "internalType": "uint32",
              "name": "accountant",
              "type": "uint32"
            }
          ],
          "indexed": false,
          "internalType": "struct FeeRates",
          "name": "_feeRates",
          "type": "tuple"
        }
      ],
      "name": "SetFeeRates",
      "type": "event"
    },
    {
      "anonymous": false,
      "inputs": [
        {
          "components": [
            {
              "internalType": "address",
              "name": "accountant",
              "type": "address"
            }
          ],
          "indexed": false,
          "internalType": "struct FeeStores",
          "name": "_feeStores",
          "type": "tuple"
        }
      ],
      "name": "SetFeeStores",
      "type": "event"
    },
    {
      "anonymous": false,
      "inputs": [
        {
          "indexed": false,
          "internalType": "enum NodeType",
          "name": "nodeType",
          "type": "uint8"
        },
        {
          "indexed": false,
          "internalType": "address",
          "name": "node",
          "type": "address"
        }
      ],
      "name": "SetNode",
      "type": "event"
    },
    {
      "anonymous": false,
      "inputs": [
        {
          "indexed": true,
          "internalType": "address",
          "name": "from",
          "type": "address"
        },
        {
          "indexed": true,
          "internalType": "address",
          "name": "to",
          "type": "address"
        },
        {
          "indexed": false,
          "internalType": "uint256",
          "name": "value",
          "type": "uint256"
        }
      ],
      "name": "Transfer",
      "type": "event"
    },
    {
      "inputs": [],
      "name": "MAX_SUPPLY",
      "outputs": [
        {
          "internalType": "uint256",
          "name": "",
          "type": "uint256"
        }
      ],
      "stateMutability": "view",
      "type": "function"
    },
    {
      "inputs": [
        {
          "internalType": "address",
          "name": "_owner",
          "type": "address"
        },
        {
          "internalType": "address",
          "name": "_spender",
          "type": "address"
        },
        {
          "internalType": "uint256",
          "name": "subtractedValue",
          "type": "uint256"
        }
      ],
      "name": "_decreaseAllowance",
      "outputs": [
        {
          "internalType": "bool",
          "name": "",
          "type": "bool"
        }
      ],
      "stateMutability": "nonpayable",
      "type": "function"
    },
    {
      "inputs": [
        {
          "internalType": "address",
          "name": "_owner",
          "type": "address"
        },
        {
          "internalType": "address",
          "name": "_spender",
          "type": "address"
        }
      ],
      "name": "allowance",
      "outputs": [
        {
          "internalType": "uint256",
          "name": "",
          "type": "uint256"
        }
      ],
      "stateMutability": "view",
      "type": "function"
    },
    {
      "inputs": [
        {
          "internalType": "address",
          "name": "spender",
          "type": "address"
        },
        {
          "internalType": "uint256",
          "name": "amount",
          "type": "uint256"
        }
      ],
      "name": "approve",
      "outputs": [
        {
          "internalType": "bool",
          "name": "",
          "type": "bool"
        }
      ],
      "stateMutability": "nonpayable",
      "type": "function"
    },
    {
      "inputs": [
        {
          "internalType": "address",
          "name": "account",
          "type": "address"
        }
      ],
      "name": "balanceOf",
      "outputs": [
        {
          "internalType": "uint256",
          "name": "",
          "type": "uint256"
        }
      ],
      "stateMutability": "view",
      "type": "function"
    },
    {
      "inputs": [
        {
          "internalType": "address",
          "name": "caller",
          "type": "address"
        }
      ],
      "name": "begin",
      "outputs": [],
      "stateMutability": "nonpayable",
      "type": "function"
    },
    {
      "inputs": [
        {
          "internalType": "address",
          "name": "from",
          "type": "address"
        },
        {
          "internalType": "uint256",
          "name": "amount",
          "type": "uint256"
        }
      ],
      "name": "burn",
      "outputs": [],
      "stateMutability": "nonpayable",
      "type": "function"
    },
    {
      "inputs": [
        {
          "internalType": "uint256",
          "name": "_buysell_burn_rate",
          "type": "uint256"
        },
        {
          "internalType": "uint256",
          "name": "_shift_burn_rate",
          "type": "uint256"
        }
      ],
      "name": "changeBurnRates",
      "outputs": [],
      "stateMutability": "nonpayable",
      "type": "function"
    },
    {
      "inputs": [
        {
          "internalType": "address",
          "name": "pair",
          "type": "address"
        },
        {
          "internalType": "address",
          "name": "token0",
          "type": "address"
        },
        {
          "internalType": "address",
          "name": "token1",
          "type": "address"
        },
        {
          "internalType": "enum ListStatus",
          "name": "status",
          "type": "uint8"
        },
        {
          "internalType": "address",
          "name": "caller",
          "type": "address"
        }
      ],
      "name": "changePairStatus",
      "outputs": [],
      "stateMutability": "nonpayable",
      "type": "function"
    },
    {
      "inputs": [],
      "name": "checkForConsistency",
      "outputs": [
        {
          "internalType": "uint256",
          "name": "pending_collective",
          "type": "uint256"
        },
        {
          "internalType": "uint256",
          "name": "pending_marginal",
          "type": "uint256"
        },
        {
          "internalType": "uint256",
          "name": "abs_error",
          "type": "uint256"
        },
        {
          "internalType": "uint256",
          "name": "error_rate",
          "type": "uint256"
        }
      ],
      "stateMutability": "view",
      "type": "function"
    },
    {
      "inputs": [],
      "name": "decimals",
      "outputs": [
        {
          "internalType": "uint8",
          "name": "",
          "type": "uint8"
        }
      ],
      "stateMutability": "view",
      "type": "function"
    },
    {
      "inputs": [
        {
          "internalType": "address",
          "name": "spender",
          "type": "address"
        },
        {
          "internalType": "uint256",
          "name": "subtractedValue",
          "type": "uint256"
        }
      ],
      "name": "decreaseAllowance",
      "outputs": [
        {
          "internalType": "bool",
          "name": "",
          "type": "bool"
        }
      ],
      "stateMutability": "nonpayable",
      "type": "function"
    },
    {
      "inputs": [
        {
          "internalType": "enum ActionType",
          "name": "",
          "type": "uint8"
        }
      ],
      "name": "feeRates",
      "outputs": [
        {
          "internalType": "uint32",
          "name": "accountant",
          "type": "uint32"
        }
      ],
      "stateMutability": "view",
      "type": "function"
    },
    {
      "inputs": [],
      "name": "feeStores",
      "outputs": [
        {
          "internalType": "address",
          "name": "accountant",
          "type": "address"
        }
      ],
      "stateMutability": "view",
      "type": "function"
    },
    {
      "inputs": [],
      "name": "getCurrentActionType",
      "outputs": [
        {
          "internalType": "enum ActionType",
          "name": "",
          "type": "uint8"
        }
      ],
      "stateMutability": "view",
      "type": "function"
    },
    {
      "inputs": [],
      "name": "getOwner",
      "outputs": [
        {
          "internalType": "address",
          "name": "",
          "type": "address"
        }
      ],
      "stateMutability": "view",
      "type": "function"
    },
    {
      "inputs": [
        {
          "internalType": "address",
          "name": "user",
          "type": "address"
        }
      ],
      "name": "getState",
      "outputs": [
        {
          "internalType": "uint256",
          "name": "totalSupply",
          "type": "uint256"
        },
        {
          "internalType": "uint256",
          "name": "burnPending",
          "type": "uint256"
        },
        {
          "internalType": "uint256",
          "name": "burnDone",
          "type": "uint256"
        },
        {
          "internalType": "uint256",
          "name": "latestRound",
          "type": "uint256"
        },
        {
          "internalType": "uint256",
          "name": "latestNet",
          "type": "uint256"
        },
        {
          "internalType": "uint256",
          "name": "VIRTUAL",
          "type": "uint256"
        },
        {
          "internalType": "uint256",
          "name": "u_VIRTUAL",
          "type": "uint256"
        },
        {
          "internalType": "uint256",
          "name": "u_balances",
          "type": "uint256"
        },
        {
          "internalType": "uint256",
          "name": "u_pending",
          "type": "uint256"
        },
        {
          "internalType": "uint256",
          "name": "u_latestDecayRound",
          "type": "uint256"
        }
      ],
      "stateMutability": "view",
      "type": "function"
    },
    {
      "inputs": [],
      "name": "htzFtm",
      "outputs": [
        {
          "internalType": "address",
          "name": "",
          "type": "address"
        }
      ],
      "stateMutability": "view",
      "type": "function"
    },
    {
      "inputs": [
        {
          "internalType": "address",
          "name": "spender",
          "type": "address"
        },
        {
          "internalType": "uint256",
          "name": "addedValue",
          "type": "uint256"
        }
      ],
      "name": "increaseAllowance",
      "outputs": [
        {
          "internalType": "bool",
          "name": "",
          "type": "bool"
        }
      ],
      "stateMutability": "nonpayable",
      "type": "function"
    },
    {
      "inputs": [],
      "name": "lastSession",
      "outputs": [
        {
          "internalType": "uint256",
          "name": "",
          "type": "uint256"
        }
      ],
      "stateMutability": "view",
      "type": "function"
    },
    {
      "inputs": [],
      "name": "lp_reward",
      "outputs": [
        {
          "internalType": "uint256",
          "name": "latestBNumber",
          "type": "uint256"
        },
        {
          "internalType": "uint256",
          "name": "cycleBlocks",
          "type": "uint256"
        },
        {
          "internalType": "uint256",
          "name": "decayRate",
          "type": "uint256"
        },
        {
          "internalType": "address",
          "name": "account",
          "type": "address"
        },
        {
          "internalType": "uint256",
          "name": "sum_tokens",
          "type": "uint256"
        },
        {
          "internalType": "uint256",
          "name": "burnDone",
          "type": "uint256"
        },
        {
          "internalType": "uint256",
          "name": "latestRound",
          "type": "uint256"
        },
        {
          "internalType": "uint256",
          "name": "initialRound",
          "type": "uint256"
        },
        {
          "internalType": "uint256",
          "name": "latestNet",
          "type": "uint256"
        },
        {
          "internalType": "uint256",
          "name": "VIRTUAL",
          "type": "uint256"
        }
      ],
      "stateMutability": "view",
      "type": "function"
    },
    {
      "inputs": [
        {
          "internalType": "address",
          "name": "to",
          "type": "address"
        },
        {
          "internalType": "uint256",
          "name": "amount",
          "type": "uint256"
        }
      ],
      "name": "mint",
      "outputs": [],
      "stateMutability": "nonpayable",
      "type": "function"
    },
    {
      "inputs": [],
      "name": "name",
      "outputs": [
        {
          "internalType": "string",
          "name": "",
          "type": "string"
        }
      ],
      "stateMutability": "view",
      "type": "function"
    },
    {
      "inputs": [],
      "name": "nextNode",
      "outputs": [
        {
          "internalType": "address",
          "name": "",
          "type": "address"
        }
      ],
      "stateMutability": "view",
      "type": "function"
    },
    {
      "inputs": [],
      "name": "owner",
      "outputs": [
        {
          "internalType": "address",
          "name": "",
          "type": "address"
        }
      ],
      "stateMutability": "view",
      "type": "function"
    },
    {
      "inputs": [
        {
          "internalType": "address",
          "name": "",
          "type": "address"
        },
        {
          "internalType": "address",
          "name": "",
          "type": "address"
        }
      ],
      "name": "pairFor",
      "outputs": [
        {
          "internalType": "address",
          "name": "",
          "type": "address"
        }
      ],
      "stateMutability": "view",
      "type": "function"
    },
    {
      "inputs": [
        {
          "internalType": "address",
          "name": "",
          "type": "address"
        }
      ],
      "name": "pairs",
      "outputs": [
        {
          "internalType": "address",
          "name": "token0",
          "type": "address"
        },
        {
          "internalType": "address",
          "name": "token1",
          "type": "address"
        },
        {
          "internalType": "enum ListStatus",
          "name": "status",
          "type": "uint8"
        }
      ],
      "stateMutability": "view",
      "type": "function"
    },
    {
      "inputs": [],
      "name": "pause",
      "outputs": [],
      "stateMutability": "nonpayable",
      "type": "function"
    },
    {
      "inputs": [],
      "name": "paused",
      "outputs": [
        {
          "internalType": "bool",
          "name": "",
          "type": "bool"
        }
      ],
      "stateMutability": "view",
      "type": "function"
    },
    {
      "inputs": [
        {
          "internalType": "address",
          "name": "account",
          "type": "address"
        },
        {
          "internalType": "uint256",
          "name": "principal",
          "type": "uint256"
        },
        {
          "components": [
            {
              "internalType": "uint32",
              "name": "accountant",
              "type": "uint32"
            }
          ],
          "internalType": "struct FeeRates",
          "name": "rates",
          "type": "tuple"
        },
        {
          "internalType": "bool",
          "name": "fromAllowance",
          "type": "bool"
        }
      ],
      "name": "payFeeTgrLogic",
      "outputs": [
        {
          "internalType": "uint256",
          "name": "feesPaid",
          "type": "uint256"
        }
      ],
      "stateMutability": "nonpayable",
      "type": "function"
    },
    {
      "inputs": [],
      "name": "prevNode",
      "outputs": [
        {
          "internalType": "address",
          "name": "",
          "type": "address"
        }
      ],
      "stateMutability": "view",
      "type": "function"
    },
    {
      "inputs": [],
      "name": "pulse_lp_reward",
      "outputs": [],
      "stateMutability": "nonpayable",
      "type": "function"
    },
    {
      "inputs": [],
      "name": "pulse_user_burn",
      "outputs": [],
      "stateMutability": "nonpayable",
      "type": "function"
    },
    {
      "inputs": [],
      "name": "pulse_vote_burn",
      "outputs": [],
      "stateMutability": "nonpayable",
      "type": "function"
    },
    {
      "inputs": [
        {
          "internalType": "enum ActionType",
          "name": "actionType",
          "type": "uint8"
        },
        {
          "internalType": "bool",
          "name": "blockReentry",
          "type": "bool"
        }
      ],
      "name": "registerAction",
      "outputs": [
        {
          "components": [
            {
              "internalType": "enum ActionType",
              "name": "actionType",
              "type": "uint8"
            },
            {
              "internalType": "uint256",
              "name": "session",
              "type": "uint256"
            },
            {
              "internalType": "uint256",
              "name": "lastSession",
              "type": "uint256"
            },
            {
              "internalType": "bool",
              "name": "isUserAction",
              "type": "bool"
            }
          ],
          "internalType": "struct ActionParams",
          "name": "actionParams",
          "type": "tuple"
        }
      ],
      "stateMutability": "nonpayable",
      "type": "function"
    },
    {
      "inputs": [],
      "name": "renounceOwnership",
      "outputs": [],
      "stateMutability": "nonpayable",
      "type": "function"
    },
    {
      "inputs": [],
      "name": "resume",
      "outputs": [],
      "stateMutability": "nonpayable",
      "type": "function"
    },
    {
      "inputs": [
        {
          "internalType": "uint256",
          "name": "amount",
          "type": "uint256"
        }
      ],
      "name": "returnVotes",
      "outputs": [],
      "stateMutability": "nonpayable",
      "type": "function"
    },
    {
      "inputs": [],
      "name": "session",
      "outputs": [
        {
          "internalType": "uint256",
          "name": "",
          "type": "uint256"
        }
      ],
      "stateMutability": "view",
      "type": "function"
    },
    {
      "inputs": [
        {
          "internalType": "enum ActionType",
          "name": "",
          "type": "uint8"
        }
      ],
      "name": "sessionsLastSeenBySType",
      "outputs": [
        {
          "internalType": "uint256",
          "name": "",
          "type": "uint256"
        }
      ],
      "stateMutability": "view",
      "type": "function"
    },
    {
      "inputs": [
        {
          "internalType": "enum ActionType",
          "name": "_sessionType",
          "type": "uint8"
        },
        {
          "components": [
            {
              "internalType": "uint32",
              "name": "accountant",
              "type": "uint32"
            }
          ],
          "internalType": "struct FeeRates",
          "name": "_feeRates",
          "type": "tuple"
        },
        {
          "internalType": "address",
          "name": "caller",
          "type": "address"
        }
      ],
      "name": "setFeeRates",
      "outputs": [],
      "stateMutability": "nonpayable",
      "type": "function"
    },
    {
      "inputs": [
        {
          "components": [
            {
              "internalType": "address",
              "name": "accountant",
              "type": "address"
            }
          ],
          "internalType": "struct FeeStores",
          "name": "_feeStores",
          "type": "tuple"
        },
        {
          "internalType": "address",
          "name": "caller",
          "type": "address"
        }
      ],
      "name": "setFeeStores",
      "outputs": [],
      "stateMutability": "nonpayable",
      "type": "function"
    },
    {
      "inputs": [
        {
          "internalType": "enum NodeType",
          "name": "nodeType",
          "type": "uint8"
        },
        {
          "internalType": "address",
          "name": "node",
          "type": "address"
        },
        {
          "internalType": "address",
          "name": "caller",
          "type": "address"
        }
      ],
      "name": "setNode",
      "outputs": [],
      "stateMutability": "nonpayable",
      "type": "function"
    },
    {
      "inputs": [],
      "name": "symbol",
      "outputs": [
        {
          "internalType": "string",
          "name": "",
          "type": "string"
        }
      ],
      "stateMutability": "view",
      "type": "function"
    },
    {
      "inputs": [
        {
          "internalType": "uint256",
          "name": "amount",
          "type": "uint256"
        }
      ],
      "name": "takeVotes",
      "outputs": [],
      "stateMutability": "nonpayable",
      "type": "function"
    },
    {
      "inputs": [],
      "name": "tgrBusd",
      "outputs": [
        {
          "internalType": "address",
          "name": "",
          "type": "address"
        }
      ],
      "stateMutability": "view",
      "type": "function"
    },
    {
      "inputs": [],
      "name": "tgrFtm",
      "outputs": [
        {
          "internalType": "address",
          "name": "",
          "type": "address"
        }
      ],
      "stateMutability": "view",
      "type": "function"
    },
    {
      "inputs": [],
      "name": "totalSupply",
      "outputs": [
        {
          "internalType": "uint256",
          "name": "",
          "type": "uint256"
        }
      ],
      "stateMutability": "view",
      "type": "function"
    },
    {
      "inputs": [
        {
          "internalType": "address",
          "name": "recipient",
          "type": "address"
        },
        {
          "internalType": "uint256",
          "name": "amount",
          "type": "uint256"
        }
      ],
      "name": "transfer",
      "outputs": [
        {
          "internalType": "bool",
          "name": "",
          "type": "bool"
        }
      ],
      "stateMutability": "nonpayable",
      "type": "function"
    },
    {
      "inputs": [
        {
          "internalType": "address",
          "name": "sender",
          "type": "address"
        },
        {
          "internalType": "address",
          "name": "recipient",
          "type": "address"
        },
        {
          "internalType": "uint256",
          "name": "amount",
          "type": "uint256"
        }
      ],
      "name": "transferDirectSafe",
      "outputs": [],
      "stateMutability": "nonpayable",
      "type": "function"
    },
    {
      "inputs": [
        {
          "internalType": "address",
          "name": "sender",
          "type": "address"
        },
        {
          "internalType": "address",
          "name": "recipient",
          "type": "address"
        },
        {
          "internalType": "uint256",
          "name": "amount",
          "type": "uint256"
        }
      ],
      "name": "transferFrom",
      "outputs": [
        {
          "internalType": "bool",
          "name": "",
          "type": "bool"
        }
      ],
      "stateMutability": "nonpayable",
      "type": "function"
    },
    {
      "inputs": [
        {
          "internalType": "address",
          "name": "newOwner",
          "type": "address"
        }
      ],
      "name": "transferOwnership",
      "outputs": [],
      "stateMutability": "nonpayable",
      "type": "function"
    },
    {
      "inputs": [],
      "name": "unregisterAction",
      "outputs": [],
      "stateMutability": "nonpayable",
      "type": "function"
    },
    {
      "inputs": [],
      "name": "user_burn",
      "outputs": [
        {
          "internalType": "uint256",
          "name": "latestBNumber",
          "type": "uint256"
        },
        {
          "internalType": "uint256",
          "name": "cycleBlocks",
          "type": "uint256"
        },
        {
          "internalType": "uint256",
          "name": "decayRate",
          "type": "uint256"
        },
        {
          "internalType": "address",
          "name": "account",
          "type": "address"
        },
        {
          "internalType": "uint256",
          "name": "sum_tokens",
          "type": "uint256"
        },
        {
          "internalType": "uint256",
          "name": "burnDone",
          "type": "uint256"
        },
        {
          "internalType": "uint256",
          "name": "latestRound",
          "type": "uint256"
        },
        {
          "internalType": "uint256",
          "name": "initialRound",
          "type": "uint256"
        },
        {
          "internalType": "uint256",
          "name": "latestNet",
          "type": "uint256"
        },
        {
          "internalType": "uint256",
          "name": "VIRTUAL",
          "type": "uint256"
        }
      ],
      "stateMutability": "view",
      "type": "function"
    },
    {
      "inputs": [],
      "name": "vote_burn",
      "outputs": [
        {
          "internalType": "uint256",
          "name": "latestBNumber",
          "type": "uint256"
        },
        {
          "internalType": "uint256",
          "name": "cycleBlocks",
          "type": "uint256"
        },
        {
          "internalType": "uint256",
          "name": "decayRate",
          "type": "uint256"
        },
        {
          "internalType": "address",
          "name": "account",
          "type": "address"
        },
        {
          "internalType": "uint256",
          "name": "sum_tokens",
          "type": "uint256"
        },
        {
          "internalType": "uint256",
          "name": "burnDone",
          "type": "uint256"
        },
        {
          "internalType": "uint256",
          "name": "latestRound",
          "type": "uint256"
        },
        {
          "internalType": "uint256",
          "name": "initialRound",
          "type": "uint256"
        },
        {
          "internalType": "uint256",
          "name": "latestNet",
          "type": "uint256"
        },
        {
          "internalType": "uint256",
          "name": "VIRTUAL",
          "type": "uint256"
        }
      ],
      "stateMutability": "view",
      "type": "function"
    },
    {
      "inputs": [
        {
          "internalType": "address",
          "name": "_prevNode",
          "type": "address"
        },
        {
          "internalType": "address",
          "name": "_nextNode",
          "type": "address"
        }
      ],
      "name": "wire",
      "outputs": [],
      "stateMutability": "nonpayable",
      "type": "function"
    },
    {
      "stateMutability": "payable",
      "type": "receive"
    }
  ],
  "bytecode": "0x60a06040523480156200001157600080fd5b5060405162005e0138038062005e01833981016040819052620000349162000e23565b6000805460ff1916905562000049336200040c565b604580546001600160a01b0319166001600160a01b0383161790556200006c3390565b604180546001600160a01b03929092166001600160a01b03199283161790556042805482167370997970c51812dc3a010c7d01b50e0d17dc79c8179055604380548216733c44cdddb6a900fa2b585dd299e03d12fa4293bc179055604480549091167390f79bf6eb2c4f870365e785982e1f101e93b9061790556040516200010c9043409060200163766f746560e01b8152600481019190915260240190565b60408051601f1981840301815282825280516020918201206001600160a01b0390811660809081526101408501845243808652601e9386018490526102b2948601949094526008549091166060850152600090840181905260a0840152919060c08201906200017d90849062000e7a565b81526020016200018e834362000e7a565b8152600060208083018290526040928301829052835181558381015160215583830151602255606080850151602380546001600160a01b0319166001600160a01b0392831617905560808087015160245560a08088015160255560c08089015160265560e08901516027556101008901516028556101209098015160295586516101408101885243808252601e9682018790526046988201989098528251909316938301939093528101849052908101929092529350918201906200025590849062000e7a565b815260200162000266834362000e7a565b81526000602080830182905260409283018290528351602a5583810151602b5583830151602c55606080850151602d80546001600160a01b0319166001600160a01b03909216919091179055608080860151602e5560a080870151602f5560c08088015160305560e08801516031556101008801516032556101209097015160335585516101408101875243808252601e958201869052610309978201979097529283018590529082018490528101929092529350918201906200032c90849062000e7a565b81526020016200033d834362000e7a565b8152600060208083018290526040928301919091528251603455820151603555818101516036556060820151603780546001600160a01b0319166001600160a01b03909216919091179055608082015160385560a082015160395560c0820151603a5560e0820151603b55610100820151603c5561012090910151603d55617ab7603f5561343e9055600e805462ffffff19166201010117905562000404620003e33390565b620003f16012600662000e9d565b620003fe90600a62000fb5565b6200046a565b50506200107c565b600e80546001600160a01b0383811663010000008181026301000000600160b81b031985161790945560405193909204169182907f8be0079c531659141344cd1fd0a4f28419497f9722a3daafe3b4186f6b6457e090600090a35050565b60408051808201909152600c81526b5a65726f206164647265737360a01b60208201526001600160a01b038316620004c05760405162461bcd60e51b8152600401620004b7919062000fc3565b60405180910390fd5b50620004cf8282600162000519565b6040518181526001600160a01b038316906000907fddf252ad1be2c89b69c2b068fc378daa952ba7f163c4a11628f55a4df523b3ef9060200160405180910390a35050565b505050565b6200052483620008ef565b156200084257603c546001600160a01b0384166000908152601d602052604090205462000552919062000934565b603c55603d546001600160a01b0384166000908152603e602052604090206001015462000580919062000934565b603d5560008062000591856200095c565b909250905080156200060a576001600160a01b0385166000908152601d6020526040902054620005c2908262000934565b6001600160a01b0386166000908152601d6020526040902055601c54620005ea908262000934565b601c55603980548291906000906200060490849062000e9d565b90915550505b821562000662576001600160a01b0385166000908152601d6020526040812080548692906200063b90849062000e9d565b9250508190555083601c600082825462000656919062000e9d565b90915550620006b39050565b6001600160a01b0385166000908152601d602052604090205462000687908562000934565b6001600160a01b0386166000908152601d6020526040902055601c54620006af908562000934565b601c555b6001600160a01b0385166000908152601d6020526040812054603c805491929091620006e190849062000e9d565b909155505060455460009081906001600160a01b0316635aff34dc6200070a6005600a62000fb5565b6036546200071b6005600a62000fb5565b6200072791906200101b565b6040516001600160e01b031960e085901b1681526004810192909252602482015260448101879052600160648201526084016040805180830381865afa15801562000776573d6000803e3d6000fd5b505050506040513d601f19601f820116820180604052508101906200079c919062001035565b915091506000620007df601d60008a6001600160a01b03166001600160a01b0316815260200190815260200160002054848462000b6860201b62002dae1760201c565b6001600160a01b0389166000908152603e60205260408120600101829055603d805492935083929091906200081690849062000e9d565b9091555050506001600160a01b0387166000908152603e60205260409020939093555062000514915050565b80156200089a576001600160a01b0383166000908152601d6020526040812080548492906200087390849062000e9d565b9250508190555081601c60008282546200088e919062000e9d565b90915550620005149050565b6001600160a01b0383166000908152601d6020526040902054620008bf908362000934565b6001600160a01b0384166000908152601d6020526040902055601c54620008e7908362000934565b601c55505050565b6001600160a01b038181166000908152600a60205260408120549091161580156200092e57506080516001600160a01b0316826001600160a01b031614155b92915050565b60008183111562000953576200094b82846200101b565b90506200092e565b50600092915050565b604080516101408101825260345481526035546020808301918252603654838501526037546001600160a01b039081166060850152603854608085015260395460a0850152603a5460c0850152603b5460e08501908152603c54610100860152603d546101208601529086166000908152603e83528581208651808801909752805487526001015492860192909252519151909384939290918491829162000a05904362000e7a565b62000a1191906200101b565b835190925060009062000a2590846200101b565b604554604087015191925060009182916001600160a01b031690635aff34dc9062000a536005600a62000fb5565b62000a5f91906200101b565b62000a6d6005600a62000fb5565b6040516001600160e01b031960e085901b1681526004810192909252602482015260448101869052600160648201526084016040805180830381865afa15801562000abc573d6000803e3d6000fd5b505050506040513d601f19601f8201168201806040525081019062000ae2919062001035565b91509150600062000b0564e8d4a51000848462000b6860201b62002dae1760201c565b905062000b188164e8d4a510006200101b565b6001600160a01b038c166000908152601d60205260408120549196509064e8d4a510009062000b499088906200105a565b62000b55919062000e7a565b969c969b50959950505050505050505050565b60008062000b7885858562000bb0565b9050600062000b8986868662000ca6565b111562000ba65762000b9d81600162000cc4565b91505062000ba9565b90505b9392505050565b6000808062000bc0868662000cd2565b915091508160000362000bea5783818162000bdf5762000bdf62000e4e565b049250505062000ba9565b8382101562000ca157600062000c0287878762000ca6565b905060008062000c1485858562000d26565b915091508160000362000c415786818162000c335762000c3362000e4e565b049550505050505062000ba9565b60008762000c50828262000d5c565b169050600062000c6284848462000d6a565b9050600062000c83838b8162000c7c5762000c7c62000e4e565b0462000dc1565b905062000c91828262000e06565b9850505050505050505062000ba9565b600080fd5b6000818062000cb95762000cb962000e4e565b838509949350505050565b600062000ba9828462000e9d565b6000808062000ce2858562000e14565b9050600062000cf2868662000e06565b905080821062000d0a57908190039250905062000d1f565b600162000d18838362000d5c565b0393509150505b9250929050565b60008082841062000d3e575083905081830362000d54565b600019850162000d4f858562000d5c565b915091505b935093915050565b600062000ba982846200101b565b60008062000d968362000d7e838262000d5c565b8162000d8e5762000d8e62000e4e565b506000919050565b905082848162000daa5762000daa62000e4e565b0462000db7868362000e06565b1795945050505050565b60006001815b600881101562000dff5762000df48262000dee600262000de8838962000e06565b62000d5c565b62000e06565b915060010162000dc7565b5092915050565b600062000ba982846200105a565b60006000198284099392505050565b60006020828403121562000e3657600080fd5b81516001600160a01b038116811462000ba957600080fd5b634e487b7160e01b600052601260045260246000fd5b634e487b7160e01b600052601160045260246000fd5b60008262000e9857634e487b7160e01b600052601260045260246000fd5b500490565b6000821982111562000eb35762000eb362000e64565b500190565b600181815b8085111562000ef957816000190482111562000edd5762000edd62000e64565b8085161562000eeb57918102915b93841c939080029062000ebd565b509250929050565b60008262000f12575060016200092e565b8162000f21575060006200092e565b816001811462000f3a576002811462000f455762000f65565b60019150506200092e565b60ff84111562000f595762000f5962000e64565b50506001821b6200092e565b5060208310610133831016604e8410600b841016171562000f8a575081810a6200092e565b62000f96838362000eb8565b806000190482111562000fad5762000fad62000e64565b029392505050565b600062000ba9838362000f01565b600060208083528351808285015260005b8181101562000ff25785810183015185820160400152820162000fd4565b8181111562001005576000604083870101525b50601f01601f1916929092016040019392505050565b60008282101562001030576200103062000e64565b500390565b600080604083850312156200104957600080fd5b505080516020909101519092909150565b600081600019048311821515161562001077576200107762000e64565b500290565b608051614d69620010986000396000613b280152614d696000f3fe60806040526004361061036f5760003560e01c80638456cb59116101c6578063a51bb24e116100f7578063e729a45511610095578063ed2deb8b1161006f578063ed2deb8b14610b7f578063f2fde38b14610b8b578063f9a21e8a14610bab578063fe33b30214610bcb57600080fd5b8063e729a45514610b27578063eca4c46614610b3c578063ecd6f46a14610b5257600080fd5b8063cd193c43116100d1578063cd193c4314610a81578063cd537aa114610aa1578063cdd9224c14610ac1578063dd62ed3e14610ae157600080fd5b8063a51bb24e14610a21578063a9059cbb14610a41578063c5921fe914610a6157600080fd5b8063934923a3116101645780639dc29fac1161013e5780639dc29fac1461097d578063a13c1f671461099d578063a150da2a146109e1578063a457c2d714610a0157600080fd5b8063934923a3146108f057806395d89b411461091057806396ed28f91461093c57600080fd5b806390e3677f116101a057806390e3677f146108705780639154961e1461089057806391fd0db7146108b0578063928879d6146108d057600080fd5b80638456cb5914610836578063893d20e81461084b5780638da5cb5b1461084b57600080fd5b806339509351116102a05780635e3568b81161023e5780636c93564f116102185780636c93564f1461078857806370a08231146107cc578063715018a6146107ec578063739572891461080157600080fd5b80635e3568b81461073257806365715c561461074857806368fb3c721461076857600080fd5b80634be548271161027a5780634be54827146106a957806354abe9d0146106d65780635c975abb146106f65780635d392daa1461071057600080fd5b8063395093511461065457806340c10f1914610674578063431b3c301461069457600080fd5b806318160ddd1161030d578063249dfad7116102e7578063249dfad714610568578063313ce5671461058d57806332cb6b0c146105a95780633660777d146105be57600080fd5b806318160ddd146104bb5780631bab58f5146104de57806323b872dd1461054857600080fd5b8063095ea7b311610349578063095ea7b3146103eb57806309b16a221461041b5780630c3d536b14610453578063102247111461047357600080fd5b8063046f7da21461037b57806306fdde0314610392578063086a606c146103d657600080fd5b3661037657005b600080fd5b34801561038757600080fd5b50610390610c27565b005b34801561039e57600080fd5b506040805180820190915260098152682a23a9102a37b5b2b760b91b60208201525b6040516103cd919061420c565b60405180910390f35b3480156103e257600080fd5b50610390610c97565b3480156103f757600080fd5b5061040b610406366004614236565b611123565b60405190151581526020016103cd565b34801561042757600080fd5b5060085461043b906001600160a01b031681565b6040516001600160a01b0390911681526020016103cd565b34801561045f57600080fd5b5060095461043b906001600160a01b031681565b34801561047f57600080fd5b506104a661048e36600461426d565b600d6020526000908152604090205463ffffffff1681565b60405163ffffffff90911681526020016103cd565b3480156104c757600080fd5b506104d061113a565b6040519081526020016103cd565b3480156104ea57600080fd5b506104fe6104f936600461428a565b611149565b604080519a8b5260208b0199909952978901969096526060880194909452608087019290925260a086015260c085015260e0840152610100830152610120820152610140016103cd565b34801561055457600080fd5b5061040b6105633660046142a5565b6111de565b34801561057457600080fd5b5060005461043b9061010090046001600160a01b031681565b34801561059957600080fd5b50604051601281526020016103cd565b3480156105b557600080fd5b506104d0611290565b3480156105ca57600080fd5b50602a54602b54602c54602d54602e54602f54603054603154603254603354610602999897966001600160a01b03169594939291908a565b604080519a8b5260208b0199909952978901969096526001600160a01b039094166060880152608087019290925260a086015260c085015260e0840152610100830152610120820152610140016103cd565b34801561066057600080fd5b5061040b61066f366004614236565b6112b5565b34801561068057600080fd5b5061039061068f366004614236565b6112c2565b3480156106a057600080fd5b50610390611379565b3480156106b557600080fd5b506106c96106c43660046142ef565b61143a565b6040516103cd9190614352565b3480156106e257600080fd5b506103906106f136600461428a565b611761565b34801561070257600080fd5b5060145461040b9060ff1681565b34801561071c57600080fd5b50610725611884565b6040516103cd919061438b565b34801561073e57600080fd5b506104d0600f5481565b34801561075457600080fd5b5060015461043b906001600160a01b031681565b34801561077457600080fd5b506104d0610783366004614399565b6118b6565b34801561079457600080fd5b50603454603554603654603754603854603954603a54603b54603c54603d54610602999897966001600160a01b03169594939291908a565b3480156107d857600080fd5b506104d06107e736600461428a565b61191e565b3480156107f857600080fd5b50610390611929565b34801561080d57600080fd5b50610816611967565b6040805194855260208501939093529183015260608201526080016103cd565b34801561084257600080fd5b50610390611a6f565b34801561085757600080fd5b50600e54630100000090046001600160a01b031661043b565b34801561087c57600080fd5b5061039061088b3660046143f3565b611add565b34801561089c57600080fd5b506103906108ab366004614426565b611b7b565b3480156108bc57600080fd5b506103906108cb366004614486565b611cbe565b3480156108dc57600080fd5b506103906108eb366004614512565b611e78565b3480156108fc57600080fd5b5060075461043b906001600160a01b031681565b34801561091c57600080fd5b506040805180820190915260038152622a23a960e91b60208201526103c0565b34801561094857600080fd5b5061043b6109573660046143f3565b600b6020908152600092835260408084209091529082529020546001600160a01b031681565b34801561098957600080fd5b50610390610998366004614236565b611f33565b3480156109a957600080fd5b50602054602154602254602354602454602554602654602754602854602954610602999897966001600160a01b03169594939291908a565b3480156109ed57600080fd5b5061040b6109fc3660046142a5565b611f6f565b348015610a0d57600080fd5b5061040b610a1c366004614236565b611ff6565b348015610a2d57600080fd5b50610390610a3c366004614552565b612003565b348015610a4d57600080fd5b5061040b610a5c366004614236565b61209c565b348015610a6d57600080fd5b50610390610a7c366004614426565b6120a9565b348015610a8d57600080fd5b50610390610a9c366004614574565b6121df565b348015610aad57600080fd5b50610390610abc3660046142a5565b61267b565b348015610acd57600080fd5b50610390610adc3660046145df565b612aed565b348015610aed57600080fd5b506104d0610afc3660046143f3565b6001600160a01b039182166000908152601b6020908152604080832093909416825291909152205490565b348015610b3357600080fd5b50610390612cb2565b348015610b4857600080fd5b506104d060105481565b348015610b5e57600080fd5b506104d0610b6d36600461426d565b60116020526000908152604090205481565b34801561039057600080fd5b348015610b9757600080fd5b50610390610ba636600461428a565b612d0e565b348015610bb757600080fd5b50600c5461043b906001600160a01b031681565b348015610bd757600080fd5b50610c18610be636600461428a565b600a60205260009081526040902080546001909101546001600160a01b0391821691811690600160a01b900460ff1683565b6040516103cd93929190614651565b600e54630100000090046001600160a01b03166001600160a01b0316336001600160a01b031614610c8b5760405162461bcd60e51b81526020600482015260096024820152682737ba1037bbb732b960b91b60448201526064015b60405180910390fd5b6014805460ff19169055565b6000610ca36020612dec565b90508015611120576000610cb630612ea3565b9050600064e8d4a5100083600860009054906101000a90046001600160a01b03166001600160a01b03166318160ddd6040518163ffffffff1660e01b8152600401602060405180830381865afa158015610d14573d6000803e3d6000fd5b505050506040513d601f19601f82011682018060405250810190610d389190614676565b610d4291906146a5565b610d4c91906146da565b6004805460405162d1b00d60e71b81523092810183905260248101849052600060448201819052606482019390935243608482015292935090916001600160a01b03909116906368d806809060a4016020604051808303816000875af1158015610dba573d6000803e3d6000fd5b505050506040513d601f19601f82011682018060405250810190610dde9190614676565b905082610dea30612ea3565b610df491906146fc565b9250610e003084612f48565b610e23604051806060016040528060278152602001614d0d60279139828561303e565b604080516002808252606082018352600092602083019080368337019050509050735fc8d32690cc91d4c39d9d3abcbd16989f87570781600081518110610e6c57610e6c614713565b60200260200101906001600160a01b031690816001600160a01b03168152505073b7f8bc63bbcad18155201308c8f3540b07f84f5e81600181518110610eb457610eb4614713565b6001600160a01b0392909216602092830291909101909101526040516370a0823160e01b815230600482015260009073b7f8bc63bbcad18155201308c8f3540b07f84f5e906370a0823190602401602060405180830381865afa158015610f1f573d6000803e3d6000fd5b505050506040513d601f19601f82011682018060405250810190610f439190614676565b600554604051637ff36ab560e01b81529192506001600160a01b031690637ff36ab5908590610f7d90600090879030904390600401614729565b60006040518083038185885af1158015610f9b573d6000803e3d6000fd5b50505050506040513d6000823e601f3d908101601f19168201604052610fc49190810190614793565b506040516370a0823160e01b8152306004820152819073b7f8bc63bbcad18155201308c8f3540b07f84f5e906370a0823190602401602060405180830381865afa158015611016573d6000803e3d6000fd5b505050506040513d601f19601f8201168201806040525081019061103a9190614676565b61104491906146fc565b90506110856040518060400160405280601881526020017f48545a206761696e65642062792073776170202d2d2d2d2d000000000000000081525082613085565b60405163a9059cbb60e01b815273f39fd6e51aad88f6f4ce6ab8827279cfffb9226660048201526024810182905273b7f8bc63bbcad18155201308c8f3540b07f84f5e9063a9059cbb906044016020604051808303816000875af11580156110f1573d6000803e3d6000fd5b505050506040513d601f19601f820116820180604052508101906111159190614839565b505043602055505050505b50565b60006111303384846130ca565b5060015b92915050565b60006111446131b9565b905090565b601c546000808080808080808061115e6131ce565b603954603a54603c546001600160a01b038f166000908152603e6020908152604080832060010154603d54601d909352922054959e50939c50919a509850909650945092506111ac8b6132bd565b6001600160a01b03909c166000908152603e60205260409020549a9c999b989a97999698959794969395949392505050565b60006001600160a01b038416331461127a576001600160a01b0384166000908152601b60209081526040808320338452909152902054828110156112645760405162461bcd60e51b815260206004820152601a60248201527f5472616e73666572206578636565647320616c6c6f77616e63650000000000006044820152606401610c82565b611278853361127386856146fc565b6130ca565b505b6112858484846134a7565b5060015b9392505050565b61129c60126006614856565b6112a790600a614952565b6112b290600a6146a5565b81565b6000611289338484613515565b600e546001600160a01b0363010000009091041633146112f45760405162461bcd60e51b8152600401610c829061495e565b61130060126006614856565b61130b90600a614952565b61131690600a6146a5565b8161131f6131b9565b6113299190614856565b111561136b5760405162461bcd60e51b8152602060048201526011602482015270457863656564204d617820537570706c7960781b6044820152606401610c82565b611375828261359c565b5050565b60025433906001600160a01b03168114806113a157506004546001600160a01b038281169116145b806113b957506005546001600160a01b038281169116145b6113d55760405162461bcd60e51b8152600401610c8290614993565b60006012601354601481106113ec576113ec614713565b602091828204019190066101000a81548160ff0219169083600581111561141557611415614328565b0217905550601354156111205760138054906000611432836149c2565b919050555050565b60408051608081018252600080825260208201819052918101829052606081019190915260025433906001600160a01b031681148061148657506004546001600160a01b038281169116145b8061149e57506005546001600160a01b038281169116145b6114ba5760405162461bcd60e51b8152600401610c8290614993565b60145460ff16156114fd5760405162461bcd60e51b815260206004820152600d60248201526c14de5cdd195b481c185d5cd959609a1b6044820152606401610c82565b600084600581111561151157611511614328565b0361154f5760405162461bcd60e51b815260206004820152600e60248201526d24b73b30b634b21030b1ba34b7b760911b6044820152606401610c82565b82156115f85760005b60135481116115f65784600581111561157357611573614328565b6012826014811061158657611586614713565b602081049091015460ff601f9092166101000a90041660058111156115ad576115ad614328565b036115e45760405162461bcd60e51b81526020600482015260076024820152665265656e74727960c81b6044820152606401610c82565b806115ee816149d9565b915050611558565b505b60135415801561161f575060125460009060ff16600581111561161d5761161d614328565b145b6116395760138054906000611633836149d9565b91905055505b60146013541061167c5760405162461bcd60e51b815260206004820152600e60248201526d537461636b206f766572666c6f7760901b6044820152606401610c82565b8360126013546014811061169257611692614713565b602091828204019190066101000a81548160ff021916908360058111156116bb576116bb614328565b0217905550818460058111156116d3576116d3614328565b908160058111156116e6576116e6614328565b90525060135415606083015260405160009061171a90439032906020019182526001600160a01b0316602082015260400190565b6040516020818303038152906040528051906020012060001c905080600f541461174957600f80546010558190555b5050600f546020820152601054604082015292915050565b60005461010090046001600160a01b031633148061177e57503330145b806117ac5750600e54630100000090046001600160a01b03166001600160a01b0316336001600160a01b0316145b6117c85760405162461bcd60e51b8152600401610c82906149f2565b6001600160a01b0381163014611858576001546001600160a01b03908116906354abe9d0908316156117fa57826117fc565b305b6040516001600160e01b031960e084901b1681526001600160a01b039091166004820152602401600060405180830381600087803b15801561183d57600080fd5b505af1158015611851573d6000803e3d6000fd5b5050505050565b6040517ffd3415c24b2b4519f08b7935c13f86ea010c77b3ff9bf448a474ae3b2414fce090600090a150565b600060126013546014811061189b5761189b614713565b602081049091015460ff601f9092166101000a900416919050565b60025460009033906001600160a01b03168114806118e157506004546001600160a01b038281169116145b806118f957506005546001600160a01b038281169116145b6119155760405162461bcd60e51b8152600401610c8290614993565b50949350505050565b600061113482612ea3565b600e546001600160a01b03630100000090910416331461195b5760405162461bcd60e51b8152600401610c829061495e565b6119656000613638565b565b6000806000806119756131ce565b604154909450600090611990906001600160a01b03166132bd565b915061199e90508185614856565b6042549094506119b6906001600160a01b03166132bd565b91506119c490508185614856565b6043549094506119dc906001600160a01b03166132bd565b91506119ea90508185614856565b604454909450611a02906001600160a01b03166132bd565b9150611a1090508185614856565b935083851015611a2b57611a2485856146fc565b9250611a38565b611a3584866146fc565b92505b8484811015611a445750835b8015611a675780611a5a8564e8d4a510006146a5565b611a6491906146da565b92505b505090919293565b600e54630100000090046001600160a01b03166001600160a01b0316336001600160a01b031614611ace5760405162461bcd60e51b81526020600482015260096024820152682737ba1037bbb732b960b91b6044820152606401610c82565b6014805460ff19166001179055565b600e54630100000090046001600160a01b03166001600160a01b0316336001600160a01b031614611b435760405162461bcd60e51b815260206004820152601060248201526f496e76616c69642063616c6c6572203360801b6044820152606401610c82565b60008054610100600160a81b0319166101006001600160a01b0394851602179055600180546001600160a01b03191691909216179055565b601f5433906000908103611ba057611b9964e8d4a5100060646146a5565b9050611bdb565b601f54602d546001600160a01b03166000908152601d6020526040902054611bce9064e8d4a51000906146a5565b611bd891906146da565b90505b600064e8d4a51000611bed85846146a5565b611bf791906146da565b6001600160a01b0384166000908152601e6020526040902054909150841115611c5b5760405162461bcd60e51b8152602060048201526016602482015275616d6f756e7420657863656564696e6720766f74657360501b6044820152606401610c82565b602d54611c72906001600160a01b03168483613696565b6001600160a01b0383166000908152601e602052604081208054869290611c9a9084906146fc565b9250508190555083601f6000828254611cb391906146fc565b909155505050505050565b60005461010090046001600160a01b0316331480611cdb57503330145b80611d095750600e54630100000090046001600160a01b03166001600160a01b0316336001600160a01b0316145b611d255760405162461bcd60e51b8152600401610c82906149f2565b6001600160a01b0381163014611e3957600e5462010000900460ff1615611db357604051634f18125b60e01b815273__$88bebae22a3ad6e62b56c303176513ecf8$__90634f18125b90611d82908690600d908790600401614a1c565b60006040518083038186803b158015611d9a57600080fd5b505af4158015611dae573d6000803e3d6000fd5b505050505b60006001600160a01b03821615611dca5781611dcc565b305b6001546040516391fd0db760e01b81529192506001600160a01b0316906391fd0db790611e0190879087908690600401614a45565b600060405180830381600087803b158015611e1b57600080fd5b505af1158015611e2f573d6000803e3d6000fd5b5050505050505050565b7fb4040436d4754da72f29d5b97fe68448f30d44ac0e08b33545cbf6f28b7641d98383604051611e6a929190614a77565b60405180910390a15b505050565b60005461010090046001600160a01b0316331480611e9557503330145b80611ec35750600e54630100000090046001600160a01b03166001600160a01b0316336001600160a01b0316145b611edf5760405162461bcd60e51b8152600401610c82906149f2565b611eea8383836137ef565b6000836004811115611efe57611efe614328565b03611e7357601980546001600160a01b0384166001600160a01b03199182168117909255601a80549091169091179055505050565b600e546001600160a01b036301000000909104163314611f655760405162461bcd60e51b8152600401610c829061495e565b6113758282612f48565b60408051808201909152600c81526b5a65726f206164647265737360a01b60208201526000906001600160a01b038516611fbc5760405162461bcd60e51b8152600401610c82919061420c565b506001600160a01b038085166000908152601b602090815260408083209387168352929052205461128590859085906112739086906146fc565b6000611289338484611f6f565b600e546001600160a01b0363010000009091041633146120355760405162461bcd60e51b8152600401610c829061495e565b6120416005600a614952565b821115801561205b57506120576005600a614952565b8111155b6113755760405162461bcd60e51b8152602060048201526012602482015271496e76616c6964206275726e20726174657360701b6044820152606401610c82565b60006111303384846134a7565b601f54339060009081036120ce576120c764e8d4a5100060646146a5565b9050612109565b601f54602d546001600160a01b03166000908152601d60205260409020546120fc9064e8d4a51000906146a5565b61210691906146da565b90505b600064e8d4a5100061211b85846146a5565b61212591906146da565b6001600160a01b0384166000908152601d60205260409020549091508111156121865760405162461bcd60e51b815260206004820152601360248201527273686f7274206f662054475220746f6b656e7360681b6044820152606401610c82565b602d5461219e9084906001600160a01b031683613696565b6001600160a01b0383166000908152601e6020526040812080548692906121c6908490614856565b9250508190555083601f6000828254611cb39190614856565b60005461010090046001600160a01b03163314806121fc57503330145b8061222a5750600e54630100000090046001600160a01b03166001600160a01b0316336001600160a01b0316145b6122465760405162461bcd60e51b8152600401610c82906149f2565b6001600160a01b038116301461263757600e5460ff16156125ad576040518060600160405280856001600160a01b03168152602001846001600160a01b0316815260200183600381111561229c5761229c614328565b90526001600160a01b038087166000908152600a6020908152604091829020845181549085166001600160a01b0319918216178255918501516001820180549190951692811683178555928501519093909290916001600160a81b031990911617600160a01b83600381111561231457612314614328565b021790555050506001600160a01b038085166000818152600b60208181526040808420898716855282528084208054878d166001600160a01b03199182168117909255938352818520958552949091529182902080549091169092179091556002549051633fe59dbb60e11b815273__$88bebae22a3ad6e62b56c303176513ecf8$__92637fcb3b76926123c692899289921690730dcd1bf9a1b36ce34237eeafef220932846bcd8290600401614a99565b602060405180830381865af41580156123e3573d6000803e3d6000fd5b505050506040513d601f19601f820116820180604052508101906124079190614839565b1561242857600780546001600160a01b0319166001600160a01b0387161790555b600254604051633fe59dbb60e11b815273__$88bebae22a3ad6e62b56c303176513ecf8$__91637fcb3b769161248491889188916001600160a01b031690735fc8d32690cc91d4c39d9d3abcbd16989f87570790600401614a99565b602060405180830381865af41580156124a1573d6000803e3d6000fd5b505050506040513d601f19601f820116820180604052508101906124c59190614839565b156124e657600880546001600160a01b0319166001600160a01b0387161790555b604051633fe59dbb60e11b815273__$88bebae22a3ad6e62b56c303176513ecf8$__90637fcb3b769061254b908790879073b7f8bc63bbcad18155201308c8f3540b07f84f5e90735fc8d32690cc91d4c39d9d3abcbd16989f87570790600401614a99565b602060405180830381865af4158015612568573d6000803e3d6000fd5b505050506040513d601f19601f8201168201806040525081019061258c9190614839565b156125ad57600980546001600160a01b0319166001600160a01b0387161790555b60006001600160a01b038216156125c457816125c6565b305b60015460405163cd193c4360e01b81529192506001600160a01b03169063cd193c43906125ff9089908990899089908890600401614ac4565b600060405180830381600087803b15801561261957600080fd5b505af115801561262d573d6000803e3d6000fd5b5050505050611851565b7f7af36d96fdc569564b9fadb22716716fe33463cb7fc8dca4fbd79d40448acdf28585858560405161266c9493929190614b06565b60405180910390a15050505050565b60045433906001600160a01b031681036127c9576001600160a01b038381166000908152600a6020526040902054161561274d5760006126b9613952565b905060038160058111156126cf576126cf614328565b03612717576127126040518060400160405280601881526020017f097472616e73666572446972656374536166653a2041646400000000000000008152506139c1565b612747565b6127476040518060400160405280600f81526020016e0496e636f6e73697374656e6374203608c1b8152506139c1565b50612a9a565b6004546001600160a01b03908116908516036127905761278b6040518060400160405280600781526020016652656d6f76653160c81b8152506139c1565b612a9a565b60405162461bcd60e51b815260206004820152600e60248201526d496e636f6e73697374656e74203160901b6044820152606401610c82565b6005546001600160a01b03908116908216036128e0576001600160a01b038381166000908152600a60205260409020541615612829576128246040518060400160405280600481526020016314d95b1b60e21b8152506139c1565b61289d565b6005546001600160a01b0390811690851603612863576128246040518060400160405280600381526020016242757960e81b8152506139c1565b60405162461bcd60e51b815260206004820152600f60248201526e24b731b7b739b4b9ba32b731ba101960891b6044820152606401610c82565b60006128ab6005600a614952565b603f546128b890856146a5565b6128c291906146da565b90506128ce8582612f48565b6128d881846146fc565b925050612a9a565b836001600160a01b0316816001600160a01b031603612a60576001600160a01b038181166000908152600a6020526040902054161561278b576000612923613952565b9050600281600581111561293957612939614328565b036129a557600061294c6005600a614952565b603f5461295990866146a5565b61296391906146da565b905061296f8682612f48565b61297981856146fc565b935061299f6040518060400160405280600381526020016242757960e81b8152506139c1565b50612747565b60048160058111156129b9576129b9614328565b036129e657612712604051806040016040528060078152602001662932b6b7bb329960c91b8152506139c1565b60058160058111156129fa576129fa614328565b03612a26576127126040518060400160405280600681526020016544696c75746560d01b8152506139c1565b60405162461bcd60e51b815260206004820152600f60248201526e496e636f6e73697374656e6374203560881b6044820152606401610c82565b60405162461bcd60e51b815260206004820152600f60248201526e2bb937b7339036b9b3a9b2b73232b960891b6044820152606401610c82565b6001600160a01b0384166000908152601d6020526040902054821115612ad6576001600160a01b0384166000908152601d602052604090205491505b8115612ae757612ae7848484613696565b50505050565b60005461010090046001600160a01b0316331480612b0a57503330145b80612b385750600e54630100000090046001600160a01b03166001600160a01b0316336001600160a01b0316145b612b545760405162461bcd60e51b8152600401610c82906149f2565b6001600160a01b0381163014612c7157600e54610100900460ff1615612be857604051633d8d54b760e11b8152600c600482015282516001600160a01b0316602482015273__$88bebae22a3ad6e62b56c303176513ecf8$__90637b1aa96e9060440160006040518083038186803b158015612bcf57600080fd5b505af4158015612be3573d6000803e3d6000fd5b505050505b60006001600160a01b03821615612bff5781612c01565b305b600154604051633376489360e21b815285516001600160a01b039081166004830152808416602483015292935091169063cdd9224c90604401600060405180830381600087803b158015612c5457600080fd5b505af1158015612c68573d6000803e3d6000fd5b50505050505050565b60405182516001600160a01b031681527f275664547227ddbc7a8a732c07c9346f2f4520de70c2088665cc6809534212c09060200160405180910390a15050565b6000612cbe602a612dec565b9050801561112057602d546001600160a01b03166000818152601d6020526040902054612d07919064e8d4a5100090612cf89085906146a5565b612d0291906146da565b612f48565b43602a5550565b600e546001600160a01b036301000000909104163314612d405760405162461bcd60e51b8152600401610c829061495e565b6001600160a01b038116612da55760405162461bcd60e51b815260206004820152602660248201527f4f776e61626c653a206e6577206f776e657220697320746865207a65726f206160448201526564647265737360d01b6064820152608401610c82565b61112081613638565b600080612dbc858585613a04565b90506000612dcb868686613ada565b1115612de457612ddc816001613af5565b915050611289565b949350505050565b6000808260070154836001015443612e0491906146da565b612e0e91906146fc565b90508260060154811115612e9d576000836006015482612e2e91906146fc565b60068501839055438555600093509050825b81811015612e9a57612e546005600a614952565b6002860154612e688664e8d4a510006146fc565b612e7291906146a5565b612e7c91906146da565b612e869085614856565b935080612e92816149d9565b915050612e40565b50505b50919050565b6000612eae82613b01565b15612f28576000612ebe836132bd565b6001600160a01b0385166000908152601d60205260409020549092508211159050612f0457612f04604051806060016040528060288152602001614ce5602891396139c1565b6001600160a01b0383166000908152601d60205260409020546112899082906146fc565b506001600160a01b0381166000908152601d60205260409020545b919050565b60408051808201909152600c81526b5a65726f206164647265737360a01b60208201526001600160a01b038316612f925760405162461bcd60e51b8152600401610c82919061420c565b506000612f9e83612ea3565b9050818110156040518060400160405280600f81526020016e457863656564732062616c616e636560881b81525090612fea5760405162461bcd60e51b8152600401610c82919061420c565b50612ff783836000613b62565b6040518281526000906001600160a01b038516907fddf252ad1be2c89b69c2b068fc378daa952ba7f163c4a11628f55a4df523b3ef906020015b60405180910390a3505050565b611e7383838360405160240161305693929190614b3c565b60408051601f198184030181529190526020810180516001600160e01b031663ca47c4eb60e01b179052613eee565b611375828260405160240161309b929190614b61565b60408051601f198184030181529190526020810180516001600160e01b0316632d839cb360e21b179052613eee565b60408051808201909152600c81526b5a65726f206164647265737360a01b60208201526001600160a01b0384166131145760405162461bcd60e51b8152600401610c82919061420c565b5060408051808201909152600c81526b5a65726f206164647265737360a01b60208201526001600160a01b03831661315f5760405162461bcd60e51b8152600401610c82919061420c565b506001600160a01b038381166000818152601b602090815260408083209487168084529482529182902085905590518481527f8c5be1e5ebec7d5bd14f71427d1e84f3dd0314c0f7b2291e5b200ac8c7c3b9259101613031565b6000611144601c546131c96131ce565b613ef7565b6000806131db6034613f1b565b60455460365491925060009182916001600160a01b031690635aff34dc906132056005600a614952565b61320f91906146fc565b61321b6005600a614952565b6040516001600160e01b031960e085901b1681526004810192909252602482015260448101869052600160648201526084016040805180830381865afa158015613269573d6000803e3d6000fd5b505050506040513d601f19601f8201168201806040525081019061328d9190614b83565b9150915060006132a36034600901548484612dae565b90506132b460346008015482613ef7565b94505050505090565b604080516101408101825260345481526035546020808301918252603654838501526037546001600160a01b039081166060850152603854608085015260395460a0850152603a5460c0850152603b5460e08501908152603c54610100860152603d546101208601529086166000908152603e83528581208651808801909752805487526001015492860192909252519151909384939290918491829161336490436146da565b61336e91906146fc565b835190925060009061338090846146fc565b604554604087015191925060009182916001600160a01b031690635aff34dc906133ac6005600a614952565b6133b691906146fc565b6133c26005600a614952565b6040516001600160e01b031960e085901b1681526004810192909252602482015260448101869052600160648201526084016040805180830381865afa158015613410573d6000803e3d6000fd5b505050506040513d601f19601f820116820180604052508101906134349190614b83565b91509150600061344a64e8d4a510008484612dae565b905061345b8164e8d4a510006146fc565b6001600160a01b038c166000908152601d60205260408120549196509064e8d4a510009061348a9088906146a5565b61349491906146da565b969c969b50959950505050505050505050565b6134b2600180613f3c565b801561350d5760185460ff16156135025760006134d16005600a614952565b603f546134de90846146a5565b6134e891906146da565b90506134f48482612f48565b6134fe81836146fc565b9150505b61350d838383613696565b611e7361400b565b60408051808201909152600c81526b5a65726f206164647265737360a01b60208201526000906001600160a01b0385166135625760405162461bcd60e51b8152600401610c82919061420c565b506001600160a01b038085166000908152601b60209081526040808320938716835292905220546112859085908590611273908690614856565b60408051808201909152600c81526b5a65726f206164647265737360a01b60208201526001600160a01b0383166135e65760405162461bcd60e51b8152600401610c82919061420c565b506135f382826001613b62565b6040518181526001600160a01b038316906000907fddf252ad1be2c89b69c2b068fc378daa952ba7f163c4a11628f55a4df523b3ef9060200160405180910390a35050565b600e80546001600160a01b0383811663010000008181026301000000600160b81b031985161790945560405193909204169182907f8be0079c531659141344cd1fd0a4f28419497f9722a3daafe3b4186f6b6457e090600090a35050565b60408051808201909152600c81526b5a65726f206164647265737360a01b60208201526001600160a01b0384166136e05760405162461bcd60e51b8152600401610c82919061420c565b5060408051808201909152600c81526b5a65726f206164647265737360a01b60208201526001600160a01b03831661372b5760405162461bcd60e51b8152600401610c82919061420c565b50600061373784612ea3565b9050818110156040518060400160405280600f81526020016e457863656564732062616c616e636560881b815250906137835760405162461bcd60e51b8152600401610c82919061420c565b5061379084836000613b62565b61379c83836001613b62565b826001600160a01b0316846001600160a01b03167fddf252ad1be2c89b69c2b068fc378daa952ba7f163c4a11628f55a4df523b3ef846040516137e191815260200190565b60405180910390a350505050565b60005461010090046001600160a01b031633148061380c57503330145b8061383a5750600e54630100000090046001600160a01b03166001600160a01b0316336001600160a01b0316145b6138565760405162461bcd60e51b8152600401610c82906149f2565b6001600160a01b03811630146139215760405163085b199160e11b815273__$88bebae22a3ad6e62b56c303176513ecf8$__906310b63322906138a29086908690600290600401614bb7565b60006040518083038186803b1580156138ba57600080fd5b505af41580156138ce573d6000803e3d6000fd5b506000925050506001600160a01b038216156138ea57816138ec565b305b6001546040516349443ceb60e11b81529192506001600160a01b03169063928879d690611e0190879087908690600401614bdf565b7fb45c42dda0a5ab1d1078e0afeda2976363eff9496a93644e726862f1f06186b88383604051611e6a929190614c0f565b60195460408051632e9c96d560e11b815290516000926001600160a01b031691635d392daa916004808301926020929190829003018187875af115801561399d573d6000803e3d6000fd5b505050506040513d601f19601f820116820180604052508101906111449190614c35565b611120816040516024016139d5919061420c565b60408051601f198184030181529190526020810180516001600160e01b031663104c13eb60e21b179052613eee565b6000806000613a13868661406f565b9150915081600003613a3857838181613a2e57613a2e6146c4565b0492505050611289565b83821015610376576000613a4d878787613ada565b9050600080613a5d8585856140bc565b9150915081600003613a8557868181613a7857613a786146c4565b0495505050505050611289565b600087613a9360008a6140ed565b1690506000613aa38484846140f9565b90506000613abf838b81613ab957613ab96146c4565b04614146565b9050613acb8282614183565b98505050505050505050611289565b60008180613aea57613aea6146c4565b838509949350505050565b60006112898284614856565b6001600160a01b038181166000908152600a602052604081205490911615801561113457507f00000000000000000000000000000000000000000000000000000000000000006001600160a01b0316826001600160a01b0316141592915050565b613b6b83613b01565b15613e4b57603c546001600160a01b0384166000908152601d6020526040902054613b969190613ef7565b603c55603d546001600160a01b0384166000908152603e6020526040902060010154613bc29190613ef7565b603d55600080613bd1856132bd565b90925090508015613c43576001600160a01b0385166000908152601d6020526040902054613bff9082613ef7565b6001600160a01b0386166000908152601d6020526040902055601c54613c259082613ef7565b601c5560398054829190600090613c3d908490614856565b90915550505b8215613c95576001600160a01b0385166000908152601d602052604081208054869290613c71908490614856565b9250508190555083601c6000828254613c8a9190614856565b90915550613ce29050565b6001600160a01b0385166000908152601d6020526040902054613cb89085613ef7565b6001600160a01b0386166000908152601d6020526040902055601c54613cde9085613ef7565b601c555b6001600160a01b0385166000908152601d6020526040812054603c805491929091613d0e908490614856565b909155505060455460009081906001600160a01b0316635aff34dc613d356005600a614952565b603654613d446005600a614952565b613d4e91906146fc565b6040516001600160e01b031960e085901b1681526004810192909252602482015260448101879052600160648201526084016040805180830381865afa158015613d9c573d6000803e3d6000fd5b505050506040513d601f19601f82011682018060405250810190613dc09190614b83565b6001600160a01b0389166000908152601d602052604081205492945090925090613deb908484612dae565b6001600160a01b0389166000908152603e60205260408120600101829055603d80549293508392909190613e20908490614856565b9091555050506001600160a01b0387166000908152603e602052604090209390935550611e73915050565b8015613e9d576001600160a01b0383166000908152601d602052604081208054849290613e79908490614856565b9250508190555081601c6000828254613e929190614856565b90915550611e739050565b6001600160a01b0383166000908152601d6020526040902054613ec09083613ef7565b6001600160a01b0384166000908152601d6020526040902055601c54613ee69083613ef7565b601c55505050565b6111208161418f565b600081831115613f1257613f0b82846146fc565b9050611134565b50600092915050565b60008160070154826001015443613f3291906146da565b61113491906146fc565b601954604051634be5482760e01b81526001600160a01b0390911690634be5482790613f6e9085908590600401614c52565b6080604051808303816000875af1158015613f8d573d6000803e3d6000fd5b505050506040513d601f19601f82011682018060405250810190613fb19190614c6f565b805160158054909190829060ff19166001836005811115613fd457613fd4614328565b021790555060208201516001820155604082015160028201556060909101516003909101805460ff19169115159190911790555050565b601960009054906101000a90046001600160a01b03166001600160a01b031663431b3c306040518163ffffffff1660e01b8152600401600060405180830381600087803b15801561405b57600080fd5b505af1158015612ae7573d6000803e3d6000fd5b600080600061407e85856141b0565b9050600061408c8686614183565b90508082106140a25790819003925090506140b5565b60016140ae83836140ed565b0393509150505b9250929050565b6000808284106140d257508390508183036140e5565b600185036140e085856140ed565b915091505b935093915050565b600061128982846146fc565b6000806141208361410b6000866140ed565b81614118576141186146c4565b506000919050565b9050828481614131576141316146c4565b0461413c8683614183565b1795945050505050565b60006001815b600881101561417c576141728261416d60026141688689614183565b6140ed565b614183565b915060010161414c565b5092915050565b600061128982846146a5565b60006a636f6e736f6c652e6c6f679050600080835160208501845afa505050565b60006000198284099392505050565b6000815180845260005b818110156141e5576020818501810151868301820152016141c9565b818111156141f7576000602083870101525b50601f01601f19169290920160200192915050565b60208152600061128960208301846141bf565b80356001600160a01b0381168114612f4357600080fd5b6000806040838503121561424957600080fd5b6142528361421f565b946020939093013593505050565b6006811061112057600080fd5b60006020828403121561427f57600080fd5b813561128981614260565b60006020828403121561429c57600080fd5b6112898261421f565b6000806000606084860312156142ba57600080fd5b6142c38461421f565b92506142d16020850161421f565b9150604084013590509250925092565b801515811461112057600080fd5b6000806040838503121561430257600080fd5b823561430d81614260565b9150602083013561431d816142e1565b809150509250929050565b634e487b7160e01b600052602160045260246000fd5b6006811061434e5761434e614328565b9052565b600060808201905061436582845161433e565b602083015160208301526040830151604083015260608301511515606083015292915050565b60208101611134828461433e565b60008060008084860360808112156143b057600080fd5b6143b98661421f565b94506020868101359450603f19820112156143d357600080fd5b5060408501915060608501356143e8816142e1565b939692955090935050565b6000806040838503121561440657600080fd5b61440f8361421f565b915061441d6020840161421f565b90509250929050565b60006020828403121561443857600080fd5b5035919050565b634e487b7160e01b600052604160045260246000fd5b604051601f8201601f1916810167ffffffffffffffff8111828210171561447e5761447e61443f565b604052919050565b6000806000838503606081121561449c57600080fd5b84356144a781614260565b93506020601f19820112156144bb57600080fd5b506040516020810181811067ffffffffffffffff821117156144df576144df61443f565b604052602085013563ffffffff811681146144f957600080fd5b815291506145096040850161421f565b90509250925092565b60008060006060848603121561452757600080fd5b83356005811061453657600080fd5b92506145446020850161421f565b91506145096040850161421f565b6000806040838503121561456557600080fd5b50508035926020909101359150565b600080600080600060a0868803121561458c57600080fd5b6145958661421f565b94506145a36020870161421f565b93506145b16040870161421f565b92506060860135600481106145c557600080fd5b91506145d36080870161421f565b90509295509295909350565b60008082840360408112156145f357600080fd5b602081121561460157600080fd5b506040516020810181811067ffffffffffffffff821117156146255761462561443f565b6040526146318461421f565b8152915061441d6020840161421f565b6004811061434e5761434e614328565b6001600160a01b0384811682528316602082015260608101612de46040830184614641565b60006020828403121561468857600080fd5b5051919050565b634e487b7160e01b600052601160045260246000fd5b60008160001904831182151516156146bf576146bf61468f565b500290565b634e487b7160e01b600052601260045260246000fd5b6000826146f757634e487b7160e01b600052601260045260246000fd5b500490565b60008282101561470e5761470e61468f565b500390565b634e487b7160e01b600052603260045260246000fd5b600060808201868352602060808185015281875180845260a086019150828901935060005b818110156147735784516001600160a01b03168352938301939183019160010161474e565b50506001600160a01b039690961660408501525050506060015292915050565b600060208083850312156147a657600080fd5b825167ffffffffffffffff808211156147be57600080fd5b818501915085601f8301126147d257600080fd5b8151818111156147e4576147e461443f565b8060051b91506147f5848301614455565b818152918301840191848101908884111561480f57600080fd5b938501935b8385101561482d57845182529385019390850190614814565b98975050505050505050565b60006020828403121561484b57600080fd5b8151611289816142e1565b600082198211156148695761486961468f565b500190565b600181815b808511156148a957816000190482111561488f5761488f61468f565b8085161561489c57918102915b93841c9390800290614873565b509250929050565b6000826148c057506001611134565b816148cd57506000611134565b81600181146148e357600281146148ed57614909565b6001915050611134565b60ff8411156148fe576148fe61468f565b50506001821b611134565b5060208310610133831016604e8410600b841016171561492c575081810a611134565b614936838361486e565b806000190482111561494a5761494a61468f565b029392505050565b600061128983836148b1565b6020808252818101527f4f776e61626c653a2063616c6c6572206973206e6f7420746865206f776e6572604082015260600190565b6020808252601590820152742737ba10309039b2b9b9b4b7b71036b0b730b3b2b960591b604082015260600190565b6000816149d1576149d161468f565b506000190190565b6000600182016149eb576149eb61468f565b5060010190565b60208082526010908201526f496e76616c69642063616c6c6572203160801b604082015260600190565b60608101614a2a828661433e565b83602083015263ffffffff8351166040830152949350505050565b60608101614a53828661433e565b925163ffffffff1660208201526001600160a01b0391909116604090910152919050565b60408101614a85828561433e565b63ffffffff83511660208301529392505050565b6001600160a01b03948516815292841660208401529083166040830152909116606082015260800190565b6001600160a01b0386811682528581166020830152848116604083015260a0820190614af36060840186614641565b8084166080840152509695505050505050565b6001600160a01b03858116825284811660208301528316604082015260808101614b336060830184614641565b95945050505050565b606081526000614b4f60608301866141bf565b60208301949094525060400152919050565b604081526000614b7460408301856141bf565b90508260208301529392505050565b60008060408385031215614b9657600080fd5b505080516020909101519092909150565b6005811061434e5761434e614328565b60608101614bc58286614ba7565b6001600160a01b0393909316602082015260400152919050565b60608101614bed8286614ba7565b6001600160a01b03938416602083015291909216604090920191909152919050565b60408101614c1d8285614ba7565b6001600160a01b039290921660209190910152919050565b600060208284031215614c4757600080fd5b815161128981614260565b60408101614c60828561433e565b82151560208301529392505050565b600060808284031215614c8157600080fd5b6040516080810181811067ffffffffffffffff82111715614ca457614ca461443f565b6040528251614cb281614260565b8082525060208301516020820152604083015160408201526060830151614cd8816142e1565b6060820152939250505056fe5f62616c616e63654f662e2070656e64696e67203e205f62616c616e6365735b6163636f756e745d46544d20616e6420544752206761696e6564206279204c502064696c7574696f6e202d2d2d2d2da2646970667358221220ddb72bacd71a03b0591c30f08043f74b220a9c589c1dca22451e3d379b8d5b9c64736f6c634300080e0033",
  "linkReferences": {
    "contracts/libraries/WireLibrary.sol": {
      "WireLibrary": [
        {
          "length": 20,
          "start": 11757
        },
        {
          "length": 20,
          "start": 13340
        },
        {
          "length": 20,
          "start": 13522
        },
        {
          "length": 20,
          "start": 13709
        },
        {
          "length": 20,
          "start": 15410
        },
        {
          "length": 20,
          "start": 18701
        }
      ]
    }
  },
  "deployedLinkReferences": {
    "contracts/libraries/WireLibrary.sol": {
      "WireLibrary": [
        {
          "length": 20,
          "start": 7509
        },
        {
          "length": 20,
          "start": 9092
        },
        {
          "length": 20,
          "start": 9274
        },
        {
          "length": 20,
          "start": 9461
        },
        {
          "length": 20,
          "start": 11162
        },
        {
          "length": 20,
          "start": 14453
        }
      ]
    }
  }
}