{
  "_format": "hh-sol-artifact-1",
  "contractName": "TGRToken",
  "sourceName": "contracts/farm/TGRToken.sol",
  "abi": [
    {
      "inputs": [
        {
          "internalType": "address",
          "name": "_analyticMath",
          "type": "address"
        }
      ],
      "stateMutability": "nonpayable",
      "type": "constructor"
    },
    {
      "anonymous": false,
      "inputs": [
        {
          "indexed": true,
          "internalType": "address",
          "name": "owner",
          "type": "address"
        },
        {
          "indexed": true,
          "internalType": "address",
          "name": "spender",
          "type": "address"
        },
        {
          "indexed": false,
          "internalType": "uint256",
          "name": "value",
          "type": "uint256"
        }
      ],
      "name": "Approval",
      "type": "event"
    },
    {
      "anonymous": false,
      "inputs": [],
      "name": "Begin",
      "type": "event"
    },
    {
      "anonymous": false,
      "inputs": [
        {
          "indexed": false,
          "internalType": "address",
          "name": "pair",
          "type": "address"
        },
        {
          "indexed": false,
          "internalType": "address",
          "name": "tokenA",
          "type": "address"
        },
        {
          "indexed": false,
          "internalType": "address",
          "name": "tokenB",
          "type": "address"
        },
        {
          "indexed": false,
          "internalType": "enum ListStatus",
          "name": "status",
          "type": "uint8"
        }
      ],
      "name": "ChangePairStatus",
      "type": "event"
    },
    {
      "anonymous": false,
      "inputs": [
        {
          "indexed": false,
          "internalType": "address",
          "name": "token",
          "type": "address"
        },
        {
          "indexed": false,
          "internalType": "address",
          "name": "msgSender",
          "type": "address"
        }
      ],
      "name": "DeenlistToken",
      "type": "event"
    },
    {
      "anonymous": false,
      "inputs": [
        {
          "indexed": true,
          "internalType": "address",
          "name": "previousOwner",
          "type": "address"
        },
        {
          "indexed": true,
          "internalType": "address",
          "name": "newOwner",
          "type": "address"
        }
      ],
      "name": "OwnershipTransferred",
      "type": "event"
    },
    {
      "anonymous": false,
      "inputs": [
        {
          "indexed": false,
          "internalType": "enum ActionType",
          "name": "_sessionType",
          "type": "uint8"
        },
        {
          "components": [
            {
              "internalType": "uint32",
              "name": "accountant",
              "type": "uint32"
            }
          ],
          "indexed": false,
          "internalType": "struct FeeRates",
          "name": "_feeRates",
          "type": "tuple"
        }
      ],
      "name": "SetFeeRates",
      "type": "event"
    },
    {
      "anonymous": false,
      "inputs": [
        {
          "components": [
            {
              "internalType": "address",
              "name": "accountant",
              "type": "address"
            }
          ],
          "indexed": false,
          "internalType": "struct FeeStores",
          "name": "_feeStores",
          "type": "tuple"
        }
      ],
      "name": "SetFeeStores",
      "type": "event"
    },
    {
      "anonymous": false,
      "inputs": [
        {
          "indexed": false,
          "internalType": "enum NodeType",
          "name": "nodeType",
          "type": "uint8"
        },
        {
          "indexed": false,
          "internalType": "address",
          "name": "node",
          "type": "address"
        }
      ],
      "name": "SetNode",
      "type": "event"
    },
    {
      "anonymous": false,
      "inputs": [
        {
          "indexed": true,
          "internalType": "address",
          "name": "from",
          "type": "address"
        },
        {
          "indexed": true,
          "internalType": "address",
          "name": "to",
          "type": "address"
        },
        {
          "indexed": false,
          "internalType": "uint256",
          "name": "value",
          "type": "uint256"
        }
      ],
      "name": "Transfer",
      "type": "event"
    },
    {
      "inputs": [
        {
          "internalType": "address",
          "name": "_owner",
          "type": "address"
        },
        {
          "internalType": "address",
          "name": "_spender",
          "type": "address"
        },
        {
          "internalType": "uint256",
          "name": "subtractedValue",
          "type": "uint256"
        }
      ],
      "name": "_decreaseAllowance",
      "outputs": [
        {
          "internalType": "bool",
          "name": "",
          "type": "bool"
        }
      ],
      "stateMutability": "nonpayable",
      "type": "function"
    },
    {
      "inputs": [
        {
          "internalType": "address",
          "name": "_owner",
          "type": "address"
        },
        {
          "internalType": "address",
          "name": "_spender",
          "type": "address"
        }
      ],
      "name": "allowance",
      "outputs": [
        {
          "internalType": "uint256",
          "name": "",
          "type": "uint256"
        }
      ],
      "stateMutability": "view",
      "type": "function"
    },
    {
      "inputs": [
        {
          "internalType": "address",
          "name": "spender",
          "type": "address"
        },
        {
          "internalType": "uint256",
          "name": "amount",
          "type": "uint256"
        }
      ],
      "name": "approve",
      "outputs": [
        {
          "internalType": "bool",
          "name": "",
          "type": "bool"
        }
      ],
      "stateMutability": "nonpayable",
      "type": "function"
    },
    {
      "inputs": [
        {
          "internalType": "address",
          "name": "account",
          "type": "address"
        }
      ],
      "name": "balanceOf",
      "outputs": [
        {
          "internalType": "uint256",
          "name": "",
          "type": "uint256"
        }
      ],
      "stateMutability": "view",
      "type": "function"
    },
    {
      "inputs": [
        {
          "internalType": "address",
          "name": "caller",
          "type": "address"
        }
      ],
      "name": "begin",
      "outputs": [],
      "stateMutability": "nonpayable",
      "type": "function"
    },
    {
      "inputs": [
        {
          "internalType": "address",
          "name": "from",
          "type": "address"
        },
        {
          "internalType": "uint256",
          "name": "amount",
          "type": "uint256"
        }
      ],
      "name": "burn",
      "outputs": [],
      "stateMutability": "nonpayable",
      "type": "function"
    },
    {
      "inputs": [
        {
          "internalType": "address",
          "name": "from",
          "type": "address"
        },
        {
          "internalType": "uint256",
          "name": "amount",
          "type": "uint256"
        }
      ],
      "name": "bury",
      "outputs": [],
      "stateMutability": "nonpayable",
      "type": "function"
    },
    {
      "inputs": [
        {
          "internalType": "uint256",
          "name": "_buysell_burn_rate",
          "type": "uint256"
        },
        {
          "internalType": "uint256",
          "name": "_shift_burn_rate",
          "type": "uint256"
        }
      ],
      "name": "changeBurnRates",
      "outputs": [],
      "stateMutability": "nonpayable",
      "type": "function"
    },
    {
      "inputs": [
        {
          "internalType": "address",
          "name": "pair",
          "type": "address"
        },
        {
          "internalType": "address",
          "name": "token0",
          "type": "address"
        },
        {
          "internalType": "address",
          "name": "token1",
          "type": "address"
        },
        {
          "internalType": "enum ListStatus",
          "name": "status",
          "type": "uint8"
        },
        {
          "internalType": "address",
          "name": "caller",
          "type": "address"
        }
      ],
      "name": "changePairStatus",
      "outputs": [],
      "stateMutability": "nonpayable",
      "type": "function"
    },
    {
      "inputs": [],
      "name": "checkForConsistency",
      "outputs": [],
      "stateMutability": "view",
      "type": "function"
    },
    {
      "inputs": [],
      "name": "decimals",
      "outputs": [
        {
          "internalType": "uint8",
          "name": "",
          "type": "uint8"
        }
      ],
      "stateMutability": "view",
      "type": "function"
    },
    {
      "inputs": [
        {
          "internalType": "address",
          "name": "spender",
          "type": "address"
        },
        {
          "internalType": "uint256",
          "name": "subtractedValue",
          "type": "uint256"
        }
      ],
      "name": "decreaseAllowance",
      "outputs": [
        {
          "internalType": "bool",
          "name": "",
          "type": "bool"
        }
      ],
      "stateMutability": "nonpayable",
      "type": "function"
    },
    {
      "inputs": [
        {
          "internalType": "enum ActionType",
          "name": "",
          "type": "uint8"
        }
      ],
      "name": "feeRates",
      "outputs": [
        {
          "internalType": "uint32",
          "name": "accountant",
          "type": "uint32"
        }
      ],
      "stateMutability": "view",
      "type": "function"
    },
    {
      "inputs": [],
      "name": "feeStores",
      "outputs": [
        {
          "internalType": "address",
          "name": "accountant",
          "type": "address"
        }
      ],
      "stateMutability": "view",
      "type": "function"
    },
    {
      "inputs": [],
      "name": "getCurrentActionType",
      "outputs": [
        {
          "internalType": "enum ActionType",
          "name": "",
          "type": "uint8"
        }
      ],
      "stateMutability": "view",
      "type": "function"
    },
    {
      "inputs": [],
      "name": "getOwner",
      "outputs": [
        {
          "internalType": "address",
          "name": "",
          "type": "address"
        }
      ],
      "stateMutability": "view",
      "type": "function"
    },
    {
      "inputs": [],
      "name": "htzFtm",
      "outputs": [
        {
          "internalType": "address",
          "name": "",
          "type": "address"
        }
      ],
      "stateMutability": "view",
      "type": "function"
    },
    {
      "inputs": [
        {
          "internalType": "address",
          "name": "spender",
          "type": "address"
        },
        {
          "internalType": "uint256",
          "name": "addedValue",
          "type": "uint256"
        }
      ],
      "name": "increaseAllowance",
      "outputs": [
        {
          "internalType": "bool",
          "name": "",
          "type": "bool"
        }
      ],
      "stateMutability": "nonpayable",
      "type": "function"
    },
    {
      "inputs": [],
      "name": "lastSession",
      "outputs": [
        {
          "internalType": "uint256",
          "name": "",
          "type": "uint256"
        }
      ],
      "stateMutability": "view",
      "type": "function"
    },
    {
      "inputs": [],
      "name": "lp_reward",
      "outputs": [
        {
          "internalType": "uint256",
          "name": "latestTime",
          "type": "uint256"
        },
        {
          "internalType": "uint256",
          "name": "cycle",
          "type": "uint256"
        },
        {
          "internalType": "uint256",
          "name": "decayRate",
          "type": "uint256"
        },
        {
          "internalType": "address",
          "name": "account",
          "type": "address"
        },
        {
          "internalType": "uint256",
          "name": "accDecayPerShare",
          "type": "uint256"
        },
        {
          "internalType": "uint256",
          "name": "sum_tokens",
          "type": "uint256"
        },
        {
          "internalType": "uint256",
          "name": "pending_burn",
          "type": "uint256"
        },
        {
          "internalType": "uint256",
          "name": "latestRound",
          "type": "uint256"
        }
      ],
      "stateMutability": "view",
      "type": "function"
    },
    {
      "inputs": [],
      "name": "maxSupply",
      "outputs": [
        {
          "internalType": "uint256",
          "name": "",
          "type": "uint256"
        }
      ],
      "stateMutability": "view",
      "type": "function"
    },
    {
      "inputs": [
        {
          "internalType": "address",
          "name": "to",
          "type": "address"
        },
        {
          "internalType": "uint256",
          "name": "amount",
          "type": "uint256"
        }
      ],
      "name": "mint",
      "outputs": [],
      "stateMutability": "nonpayable",
      "type": "function"
    },
    {
      "inputs": [],
      "name": "name",
      "outputs": [
        {
          "internalType": "string",
          "name": "",
          "type": "string"
        }
      ],
      "stateMutability": "view",
      "type": "function"
    },
    {
      "inputs": [],
      "name": "nextNode",
      "outputs": [
        {
          "internalType": "address",
          "name": "",
          "type": "address"
        }
      ],
      "stateMutability": "view",
      "type": "function"
    },
    {
      "inputs": [],
      "name": "owner",
      "outputs": [
        {
          "internalType": "address",
          "name": "",
          "type": "address"
        }
      ],
      "stateMutability": "view",
      "type": "function"
    },
    {
      "inputs": [
        {
          "internalType": "address",
          "name": "",
          "type": "address"
        },
        {
          "internalType": "address",
          "name": "",
          "type": "address"
        }
      ],
      "name": "pairFor",
      "outputs": [
        {
          "internalType": "address",
          "name": "",
          "type": "address"
        }
      ],
      "stateMutability": "view",
      "type": "function"
    },
    {
      "inputs": [
        {
          "internalType": "address",
          "name": "",
          "type": "address"
        }
      ],
      "name": "pairs",
      "outputs": [
        {
          "internalType": "address",
          "name": "token0",
          "type": "address"
        },
        {
          "internalType": "address",
          "name": "token1",
          "type": "address"
        },
        {
          "internalType": "enum ListStatus",
          "name": "status",
          "type": "uint8"
        }
      ],
      "stateMutability": "view",
      "type": "function"
    },
    {
      "inputs": [],
      "name": "pause",
      "outputs": [],
      "stateMutability": "nonpayable",
      "type": "function"
    },
    {
      "inputs": [],
      "name": "paused",
      "outputs": [
        {
          "internalType": "bool",
          "name": "",
          "type": "bool"
        }
      ],
      "stateMutability": "view",
      "type": "function"
    },
    {
      "inputs": [
        {
          "internalType": "address",
          "name": "account",
          "type": "address"
        },
        {
          "internalType": "uint256",
          "name": "principal",
          "type": "uint256"
        },
        {
          "components": [
            {
              "internalType": "uint32",
              "name": "accountant",
              "type": "uint32"
            }
          ],
          "internalType": "struct FeeRates",
          "name": "rates",
          "type": "tuple"
        },
        {
          "internalType": "bool",
          "name": "fromAllowance",
          "type": "bool"
        }
      ],
      "name": "payFeeTgrLogic",
      "outputs": [
        {
          "internalType": "uint256",
          "name": "feesPaid",
          "type": "uint256"
        }
      ],
      "stateMutability": "nonpayable",
      "type": "function"
    },
    {
      "inputs": [],
      "name": "prevNode",
      "outputs": [
        {
          "internalType": "address",
          "name": "",
          "type": "address"
        }
      ],
      "stateMutability": "view",
      "type": "function"
    },
    {
      "inputs": [],
      "name": "pulse_lp_reward",
      "outputs": [],
      "stateMutability": "nonpayable",
      "type": "function"
    },
    {
      "inputs": [],
      "name": "pulse_user_burn",
      "outputs": [],
      "stateMutability": "nonpayable",
      "type": "function"
    },
    {
      "inputs": [],
      "name": "pulse_vote_burn",
      "outputs": [],
      "stateMutability": "nonpayable",
      "type": "function"
    },
    {
      "inputs": [
        {
          "internalType": "enum ActionType",
          "name": "actionType",
          "type": "uint8"
        },
        {
          "internalType": "bool",
          "name": "blockReentry",
          "type": "bool"
        }
      ],
      "name": "registerAction",
      "outputs": [
        {
          "components": [
            {
              "internalType": "enum ActionType",
              "name": "actionType",
              "type": "uint8"
            },
            {
              "internalType": "uint256",
              "name": "session",
              "type": "uint256"
            },
            {
              "internalType": "uint256",
              "name": "lastSession",
              "type": "uint256"
            },
            {
              "internalType": "bool",
              "name": "isUserAction",
              "type": "bool"
            }
          ],
          "internalType": "struct ActionParams",
          "name": "actionParams",
          "type": "tuple"
        }
      ],
      "stateMutability": "nonpayable",
      "type": "function"
    },
    {
      "inputs": [],
      "name": "renounceOwnership",
      "outputs": [],
      "stateMutability": "nonpayable",
      "type": "function"
    },
    {
      "inputs": [],
      "name": "resume",
      "outputs": [],
      "stateMutability": "nonpayable",
      "type": "function"
    },
    {
      "inputs": [],
      "name": "session",
      "outputs": [
        {
          "internalType": "uint256",
          "name": "",
          "type": "uint256"
        }
      ],
      "stateMutability": "view",
      "type": "function"
    },
    {
      "inputs": [
        {
          "internalType": "enum ActionType",
          "name": "",
          "type": "uint8"
        }
      ],
      "name": "sessionsLastSeenBySType",
      "outputs": [
        {
          "internalType": "uint256",
          "name": "",
          "type": "uint256"
        }
      ],
      "stateMutability": "view",
      "type": "function"
    },
    {
      "inputs": [
        {
          "internalType": "enum ActionType",
          "name": "_sessionType",
          "type": "uint8"
        },
        {
          "components": [
            {
              "internalType": "uint32",
              "name": "accountant",
              "type": "uint32"
            }
          ],
          "internalType": "struct FeeRates",
          "name": "_feeRates",
          "type": "tuple"
        },
        {
          "internalType": "address",
          "name": "caller",
          "type": "address"
        }
      ],
      "name": "setFeeRates",
      "outputs": [],
      "stateMutability": "nonpayable",
      "type": "function"
    },
    {
      "inputs": [
        {
          "components": [
            {
              "internalType": "address",
              "name": "accountant",
              "type": "address"
            }
          ],
          "internalType": "struct FeeStores",
          "name": "_feeStores",
          "type": "tuple"
        },
        {
          "internalType": "address",
          "name": "caller",
          "type": "address"
        }
      ],
      "name": "setFeeStores",
      "outputs": [],
      "stateMutability": "nonpayable",
      "type": "function"
    },
    {
      "inputs": [
        {
          "internalType": "enum NodeType",
          "name": "nodeType",
          "type": "uint8"
        },
        {
          "internalType": "address",
          "name": "node",
          "type": "address"
        },
        {
          "internalType": "address",
          "name": "caller",
          "type": "address"
        }
      ],
      "name": "setNode",
      "outputs": [],
      "stateMutability": "nonpayable",
      "type": "function"
    },
    {
      "inputs": [],
      "name": "symbol",
      "outputs": [
        {
          "internalType": "string",
          "name": "",
          "type": "string"
        }
      ],
      "stateMutability": "view",
      "type": "function"
    },
    {
      "inputs": [],
      "name": "tgrBusd",
      "outputs": [
        {
          "internalType": "address",
          "name": "",
          "type": "address"
        }
      ],
      "stateMutability": "view",
      "type": "function"
    },
    {
      "inputs": [],
      "name": "tgrFtm",
      "outputs": [
        {
          "internalType": "address",
          "name": "",
          "type": "address"
        }
      ],
      "stateMutability": "view",
      "type": "function"
    },
    {
      "inputs": [],
      "name": "totalSupply",
      "outputs": [
        {
          "internalType": "uint256",
          "name": "",
          "type": "uint256"
        }
      ],
      "stateMutability": "view",
      "type": "function"
    },
    {
      "inputs": [
        {
          "internalType": "address",
          "name": "recipient",
          "type": "address"
        },
        {
          "internalType": "uint256",
          "name": "amount",
          "type": "uint256"
        }
      ],
      "name": "transfer",
      "outputs": [
        {
          "internalType": "bool",
          "name": "",
          "type": "bool"
        }
      ],
      "stateMutability": "nonpayable",
      "type": "function"
    },
    {
      "inputs": [
        {
          "internalType": "address",
          "name": "sender",
          "type": "address"
        },
        {
          "internalType": "address",
          "name": "recipient",
          "type": "address"
        },
        {
          "internalType": "uint256",
          "name": "amount",
          "type": "uint256"
        }
      ],
      "name": "transferDirectSafe",
      "outputs": [],
      "stateMutability": "nonpayable",
      "type": "function"
    },
    {
      "inputs": [
        {
          "internalType": "address",
          "name": "sender",
          "type": "address"
        },
        {
          "internalType": "address",
          "name": "recipient",
          "type": "address"
        },
        {
          "internalType": "uint256",
          "name": "amount",
          "type": "uint256"
        }
      ],
      "name": "transferFrom",
      "outputs": [
        {
          "internalType": "bool",
          "name": "",
          "type": "bool"
        }
      ],
      "stateMutability": "nonpayable",
      "type": "function"
    },
    {
      "inputs": [
        {
          "internalType": "address",
          "name": "newOwner",
          "type": "address"
        }
      ],
      "name": "transferOwnership",
      "outputs": [],
      "stateMutability": "nonpayable",
      "type": "function"
    },
    {
      "inputs": [],
      "name": "unregisterAction",
      "outputs": [],
      "stateMutability": "nonpayable",
      "type": "function"
    },
    {
      "inputs": [],
      "name": "user_burn",
      "outputs": [
        {
          "internalType": "uint256",
          "name": "latestTime",
          "type": "uint256"
        },
        {
          "internalType": "uint256",
          "name": "cycle",
          "type": "uint256"
        },
        {
          "internalType": "uint256",
          "name": "decayRate",
          "type": "uint256"
        },
        {
          "internalType": "address",
          "name": "account",
          "type": "address"
        },
        {
          "internalType": "uint256",
          "name": "accDecayPerShare",
          "type": "uint256"
        },
        {
          "internalType": "uint256",
          "name": "sum_tokens",
          "type": "uint256"
        },
        {
          "internalType": "uint256",
          "name": "pending_burn",
          "type": "uint256"
        },
        {
          "internalType": "uint256",
          "name": "latestRound",
          "type": "uint256"
        }
      ],
      "stateMutability": "view",
      "type": "function"
    },
    {
      "inputs": [],
      "name": "vote_burn",
      "outputs": [
        {
          "internalType": "uint256",
          "name": "latestTime",
          "type": "uint256"
        },
        {
          "internalType": "uint256",
          "name": "cycle",
          "type": "uint256"
        },
        {
          "internalType": "uint256",
          "name": "decayRate",
          "type": "uint256"
        },
        {
          "internalType": "address",
          "name": "account",
          "type": "address"
        },
        {
          "internalType": "uint256",
          "name": "accDecayPerShare",
          "type": "uint256"
        },
        {
          "internalType": "uint256",
          "name": "sum_tokens",
          "type": "uint256"
        },
        {
          "internalType": "uint256",
          "name": "pending_burn",
          "type": "uint256"
        },
        {
          "internalType": "uint256",
          "name": "latestRound",
          "type": "uint256"
        }
      ],
      "stateMutability": "view",
      "type": "function"
    },
    {
      "inputs": [
        {
          "internalType": "address",
          "name": "_prevNode",
          "type": "address"
        },
        {
          "internalType": "address",
          "name": "_nextNode",
          "type": "address"
        }
      ],
      "name": "wire",
      "outputs": [],
      "stateMutability": "nonpayable",
      "type": "function"
    },
    {
      "stateMutability": "payable",
      "type": "receive"
    }
  ],
  "bytecode": "0x60806040523480156200001157600080fd5b506040516200518d3803806200518d8339810160408190526200003491620007c5565b6000805460ff1916905562000049336200035a565b603f80546001600160a01b0319166001600160a01b0383161790556200006c3390565b603b80546001600160a01b039283166001600160a01b031991821617909155603c805482167370997970c51812dc3a010c7d01b50e0d17dc79c8179055603d80548216733c44cdddb6a900fa2b585dd299e03d12fa4293bc179055603e805482167390f79bf6eb2c4f870365e785982e1f101e93b906179055601e805490911673976ea74026e726554db657fa54763abd0c3a0aa91790556040805161010081018252428082526002602083018190526102b293830193909352600854909316606082015260006080820181905260a0820181905260c08201529160e083019162000157916200080d565b90528051601f556020808201518155604080830151602155606080840151602280546001600160a01b0319166001600160a01b0392831617905560808086015160235560a08087015160245560c08088015160255560e097880151602655855161010081018752428082526002988201899052604697820197909752601e549094169484019490945260009183018290528201819052918101919091529283019162000203916200080d565b90528051602755602080820151602855604080830151602955606080840151602a80546001600160a01b0319166001600160a01b03909216919091179055608080850151602b5560a080860151602c5560c080870151602d5560e096870151602e5584516101008101865242808252600497820188905261030996820196909652600094810185905292830184905290820183905281019190915292830191620002ad916200080d565b90528051602f55602081015160305560408101516031556060810151603280546001600160a01b0319166001600160a01b03909216919091179055608081015160335560a081015160345560c081015160355560e00151603655617ab760395561343e603a55600e805462ffffff19166201010117905562000353620003303390565b6200033e6012600a6200092d565b6200034d90620f42406200093e565b620003b8565b50620009ed565b600e80546001600160a01b0383811663010000008181026301000000600160b81b031985161790945560405193909204169182907f8be0079c531659141344cd1fd0a4f28419497f9722a3daafe3b4186f6b6457e090600090a35050565b60408051808201909152600c81526b5a65726f206164647265737360a01b60208201526001600160a01b0383166200040e5760405162461bcd60e51b815260040162000405919062000960565b60405180910390fd5b5080601c6000828254620004239190620009b8565b909155506200043790508282600162000481565b6040518181526001600160a01b038316906000907fddf252ad1be2c89b69c2b068fc378daa952ba7f163c4a11628f55a4df523b3ef9060200160405180910390a35050565b505050565b6200048c8362000641565b156200059a576200049d8362000680565b8015620004f6576001600160a01b0383166000908152601d602052604081208054849290620004ce908490620009b8565b909155505060348054839190600090620004ea908490620009b8565b90915550620005429050565b6001600160a01b0383166000908152601d60205260408120805484929062000520908490620009d3565b9091555050603480548391906000906200053c908490620009d3565b90915550505b6033546001600160a01b0384166000908152601d602052604090205464e8d4a510009162000570916200093e565b6200057c91906200080d565b6001600160a01b038416600090815260376020526040902055505050565b8015620005f2576001600160a01b0383166000908152601d602052604081208054849290620005cb908490620009b8565b925050819055508160386000828254620005e69190620009b8565b909155506200047c9050565b6001600160a01b0383166000908152601d6020526040812080548492906200061c908490620009d3565b925050819055508160386000828254620006379190620009d3565b9091555050505050565b6001600160a01b038181166000908152600a60205260408120549091161580156200067a5750601e546001600160a01b03838116911614155b92915050565b60006200068d8262000770565b905080156200076c576001600160a01b0382166000908152601d602052604081208054839290620006c0908490620009d3565b9250508190555080601c6000828254620006db9190620009d3565b909155505060348054829190600090620006f7908490620009d3565b90915550506035805482919060009062000713908490620009d3565b90915550506033546001600160a01b0383166000908152601d602052604090205464e8d4a510009162000746916200093e565b6200075291906200080d565b6001600160a01b0383166000908152603760205260409020555b5050565b6001600160a01b038116600090815260376020908152604080832054603354601d90935290832054909164e8d4a5100091620007ad91906200093e565b620007b991906200080d565b6200067a9190620009d3565b600060208284031215620007d857600080fd5b81516001600160a01b0381168114620007f057600080fd5b9392505050565b634e487b7160e01b600052601160045260246000fd5b6000826200082b57634e487b7160e01b600052601260045260246000fd5b500490565b600181815b8085111562000871578160001904821115620008555762000855620007f7565b808516156200086357918102915b93841c939080029062000835565b509250929050565b6000826200088a575060016200067a565b8162000899575060006200067a565b8160018114620008b25760028114620008bd57620008dd565b60019150506200067a565b60ff841115620008d157620008d1620007f7565b50506001821b6200067a565b5060208310610133831016604e8410600b841016171562000902575081810a6200067a565b6200090e838362000830565b8060001904821115620009255762000925620007f7565b029392505050565b6000620007f060ff84168362000879565b60008160001904831182151516156200095b576200095b620007f7565b500290565b600060208083528351808285015260005b818110156200098f5785810183015185820160400152820162000971565b81811115620009a2576000604083870101525b50601f01601f1916929092016040019392505050565b60008219821115620009ce57620009ce620007f7565b500190565b600082821015620009e857620009e8620007f7565b500390565b61479080620009fd6000396000f3fe6080604052600436106103395760003560e01c8063893d20e8116101ab578063a9059cbb116100f7578063eca4c46611610095578063f2fde38b1161006f578063f2fde38b14610a6d578063f9a21e8a14610a8d578063fc58ee8b14610aad578063fe33b30214610acd57600080fd5b8063eca4c46614610a15578063ecd6f46a14610a2b578063ed2deb8b14610a5857600080fd5b8063cdd9224c116100d1578063cdd9224c14610985578063d5abeb01146109a5578063dd62ed3e146109ba578063e729a45514610a0057600080fd5b8063a9059cbb14610925578063cd193c4314610945578063cd537aa11461096557600080fd5b806395d89b4111610164578063a13c1f671161013e578063a13c1f6714610889578063a150da2a146108c5578063a457c2d7146108e5578063a51bb24e1461090557600080fd5b806395d89b41146107fc57806396ed28f9146108285780639dc29fac1461086957600080fd5b8063893d20e8146107575780638da5cb5b1461075757806390e3677f1461077c57806391fd0db71461079c578063928879d6146107bc578063934923a3146107dc57600080fd5b806340c10f191161028557806365715c561161022357806370a08231116101fd57806370a08231146106f8578063715018a614610718578063739572891461072d5780638456cb591461074257600080fd5b806365715c561461067c57806368fb3c721461069c5780636c93564f146106bc57600080fd5b806354abe9d01161025f57806354abe9d01461060a5780635c975abb1461062a5780635d392daa146106445780635e3568b81461066657600080fd5b806340c10f19146105a8578063431b3c30146105c85780634be54827146105dd57600080fd5b806310224711116102f2578063249dfad7116102cc578063249dfad7146104c8578063313ce567146104ed5780633660777d14610509578063395093511461058857600080fd5b8063102247111461043d57806318160ddd1461048557806323b872dd146104a857600080fd5b8063046f7da21461034557806306fdde031461035c578063086a606c146103a0578063095ea7b3146103b557806309b16a22146103e55780630c3d536b1461041d57600080fd5b3661034057005b600080fd5b34801561035157600080fd5b5061035a610b29565b005b34801561036857600080fd5b506040805180820190915260098152682a23a9102a37b5b2b760b91b60208201525b6040516103979190613c73565b60405180910390f35b3480156103ac57600080fd5b5061035a610b99565b3480156103c157600080fd5b506103d56103d0366004613c9d565b61101e565b6040519015158152602001610397565b3480156103f157600080fd5b50600854610405906001600160a01b031681565b6040516001600160a01b039091168152602001610397565b34801561042957600080fd5b50600954610405906001600160a01b031681565b34801561044957600080fd5b50610470610458366004613cd4565b600d6020526000908152604090205463ffffffff1681565b60405163ffffffff9091168152602001610397565b34801561049157600080fd5b5061049a611035565b604051908152602001610397565b3480156104b457600080fd5b506103d56104c3366004613cf1565b611044565b3480156104d457600080fd5b506000546104059061010090046001600160a01b031681565b3480156104f957600080fd5b5060405160128152602001610397565b34801561051557600080fd5b50602754602854602954602a54602b54602c54602d54602e54610545979695946001600160a01b03169392919088565b604080519889526020890197909752958701949094526001600160a01b039092166060860152608085015260a084015260c083015260e082015261010001610397565b34801561059457600080fd5b506103d56105a3366004613c9d565b6110f5565b3480156105b457600080fd5b5061035a6105c3366004613c9d565b611109565b3480156105d457600080fd5b5061035a6111b8565b3480156105e957600080fd5b506105fd6105f8366004613d3b565b61127a565b6040516103979190613d9e565b34801561061657600080fd5b5061035a610625366004613dd7565b6115a1565b34801561063657600080fd5b506014546103d59060ff1681565b34801561065057600080fd5b506106596116c4565b6040516103979190613df2565b34801561067257600080fd5b5061049a600f5481565b34801561068857600080fd5b50600154610405906001600160a01b031681565b3480156106a857600080fd5b5061049a6106b7366004613e00565b6116f6565b3480156106c857600080fd5b50602f54603054603154603254603354603454603554603654610545979695946001600160a01b03169392919088565b34801561070457600080fd5b5061049a610713366004613dd7565b61175e565b34801561072457600080fd5b5061035a611769565b34801561073957600080fd5b5061035a6117a7565b34801561074e57600080fd5b5061035a611a70565b34801561076357600080fd5b50600e54630100000090046001600160a01b0316610405565b34801561078857600080fd5b5061035a610797366004613e5a565b611ade565b3480156107a857600080fd5b5061035a6107b7366004613ed4565b611b7c565b3480156107c857600080fd5b5061035a6107d7366004613f60565b611d35565b3480156107e857600080fd5b50600754610405906001600160a01b031681565b34801561080857600080fd5b506040805180820190915260038152622a23a960e91b602082015261038a565b34801561083457600080fd5b50610405610843366004613e5a565b600b6020908152600092835260408084209091529082529020546001600160a01b031681565b34801561087557600080fd5b5061035a610884366004613c9d565b611df0565b34801561089557600080fd5b50601f54602054602154602254602354602454602554602654610545979695946001600160a01b03169392919088565b3480156108d157600080fd5b506103d56108e0366004613cf1565b611e2c565b3480156108f157600080fd5b506103d5610900366004613c9d565b611eb3565b34801561091157600080fd5b5061035a610920366004613fa0565b611ec0565b34801561093157600080fd5b506103d5610940366004613c9d565b611f64565b34801561095157600080fd5b5061035a610960366004613fc2565b611f71565b34801561097157600080fd5b5061035a610980366004613cf1565b61240d565b34801561099157600080fd5b5061035a6109a036600461402d565b6128b4565b3480156109b157600080fd5b5061049a612a79565b3480156109c657600080fd5b5061049a6109d5366004613e5a565b6001600160a01b039182166000908152601b6020908152604080832093909416825291909152205490565b348015610a0c57600080fd5b5061035a612a96565b348015610a2157600080fd5b5061049a60105481565b348015610a3757600080fd5b5061049a610a46366004613cd4565b60116020526000908152604090205481565b348015610a6457600080fd5b5061035a612aec565b348015610a7957600080fd5b5061035a610a88366004613dd7565b612b88565b348015610a9957600080fd5b50600c54610405906001600160a01b031681565b348015610ab957600080fd5b5061035a610ac8366004613c9d565b612c28565b348015610ad957600080fd5b50610b1a610ae8366004613dd7565b600a60205260009081526040902080546001909101546001600160a01b0391821691811690600160a01b900460ff1683565b6040516103979392919061409f565b600e54630100000090046001600160a01b03166001600160a01b0316336001600160a01b031614610b8d5760405162461bcd60e51b81526020600482015260096024820152682737ba1037bbb732b960b91b60448201526064015b60405180910390fd5b6014805460ff19169055565b6000610ba5601f612c64565b90506000610bb230612e54565b9050600064e8d4a5100083600860009054906101000a90046001600160a01b03166001600160a01b03166318160ddd6040518163ffffffff1660e01b8152600401602060405180830381865afa158015610c10573d6000803e3d6000fd5b505050506040513d601f19601f82011682018060405250810190610c3491906140cc565b610c3e91906140fb565b610c48919061411a565b6004805460405162d1b00d60e71b81523092810183905260248101849052600060448201819052606482019390935242608482015292935090916001600160a01b03909116906368d806809060a4016020604051808303816000875af1158015610cb6573d6000803e3d6000fd5b505050506040513d601f19601f82011682018060405250810190610cda91906140cc565b905082610ce630612e54565b610cf0919061413c565b9250610cfc3084612eb6565b610d1f604051806060016040528060278152602001614734602791398285612fc9565b604080516002808252606082018352600092602083019080368337019050509050735fc8d32690cc91d4c39d9d3abcbd16989f87570781600081518110610d6857610d68614153565b60200260200101906001600160a01b031690816001600160a01b03168152505073b7f8bc63bbcad18155201308c8f3540b07f84f5e81600181518110610db057610db0614153565b6001600160a01b0392909216602092830291909101909101526040516370a0823160e01b815230600482015260009073b7f8bc63bbcad18155201308c8f3540b07f84f5e906370a0823190602401602060405180830381865afa158015610e1b573d6000803e3d6000fd5b505050506040513d601f19601f82011682018060405250810190610e3f91906140cc565b600554604051637ff36ab560e01b81529192506001600160a01b031690637ff36ab5908590610e7990600090879030904290600401614169565b60006040518083038185885af1158015610e97573d6000803e3d6000fd5b50505050506040513d6000823e601f3d908101601f19168201604052610ec091908101906141d3565b506040516370a0823160e01b8152306004820152819073b7f8bc63bbcad18155201308c8f3540b07f84f5e906370a0823190602401602060405180830381865afa158015610f12573d6000803e3d6000fd5b505050506040513d601f19601f82011682018060405250810190610f3691906140cc565b610f40919061413c565b9050610f816040518060400160405280601881526020017f48545a206761696e65642062792073776170202d2d2d2d2d000000000000000081525082613010565b60405163a9059cbb60e01b815273f39fd6e51aad88f6f4ce6ab8827279cfffb9226660048201526024810182905273b7f8bc63bbcad18155201308c8f3540b07f84f5e9063a9059cbb906044016020604051808303816000875af1158015610fed573d6000803e3d6000fd5b505050506040513d601f19601f820116820180604052508101906110119190614279565b505042601f555050505050565b600061102b338484613055565b5060015b92915050565b600061103f613144565b905090565b60006001600160a01b03841633146110e0576001600160a01b0384166000908152601b60209081526040808320338452909152902054828110156110ca5760405162461bcd60e51b815260206004820152601a60248201527f5472616e73666572206578636565647320616c6c6f77616e63650000000000006044820152606401610b84565b6110de85336110d9868561413c565b613055565b505b6110eb848484613156565b5060019392505050565b60006111023384846131c4565b9392505050565b600e546001600160a01b03630100000090910416331461113b5760405162461bcd60e51b8152600401610b8490614296565b6111476012600a6143af565b611155906302faf0806140fb565b8161115e613144565b61116891906143be565b11156111aa5760405162461bcd60e51b8152602060048201526011602482015270457863656564204d617820537570706c7960781b6044820152606401610b84565b6111b4828261324b565b5050565b60025433906001600160a01b03168114806111e057506004546001600160a01b038281169116145b806111f857506005546001600160a01b038281169116145b6112145760405162461bcd60e51b8152600401610b84906143d6565b600060126013546014811061122b5761122b614153565b602091828204019190066101000a81548160ff0219169083600581111561125457611254613d74565b021790555060135415611277576013805490600061127183614405565b91905055505b50565b60408051608081018252600080825260208201819052918101829052606081019190915260025433906001600160a01b03168114806112c657506004546001600160a01b038281169116145b806112de57506005546001600160a01b038281169116145b6112fa5760405162461bcd60e51b8152600401610b84906143d6565b60145460ff161561133d5760405162461bcd60e51b815260206004820152600d60248201526c14de5cdd195b481c185d5cd959609a1b6044820152606401610b84565b600084600581111561135157611351613d74565b0361138f5760405162461bcd60e51b815260206004820152600e60248201526d24b73b30b634b21030b1ba34b7b760911b6044820152606401610b84565b82156114385760005b6013548111611436578460058111156113b3576113b3613d74565b601282601481106113c6576113c6614153565b602081049091015460ff601f9092166101000a90041660058111156113ed576113ed613d74565b036114245760405162461bcd60e51b81526020600482015260076024820152665265656e74727960c81b6044820152606401610b84565b8061142e8161441c565b915050611398565b505b60135415801561145f575060125460009060ff16600581111561145d5761145d613d74565b145b61147957601380549060006114738361441c565b91905055505b6014601354106114bc5760405162461bcd60e51b815260206004820152600e60248201526d537461636b206f766572666c6f7760901b6044820152606401610b84565b836012601354601481106114d2576114d2614153565b602091828204019190066101000a81548160ff021916908360058111156114fb576114fb613d74565b02179055508184600581111561151357611513613d74565b9081600581111561152657611526613d74565b90525060135415606083015260405160009061155a90439032906020019182526001600160a01b0316602082015260400190565b6040516020818303038152906040528051906020012060001c905080600f541461158957600f80546010558190555b5050600f546020820152601054604082015292915050565b60005461010090046001600160a01b03163314806115be57503330145b806115ec5750600e54630100000090046001600160a01b03166001600160a01b0316336001600160a01b0316145b6116085760405162461bcd60e51b8152600401610b8490614435565b6001600160a01b0381163014611698576001546001600160a01b03908116906354abe9d09083161561163a578261163c565b305b6040516001600160e01b031960e084901b1681526001600160a01b039091166004820152602401600060405180830381600087803b15801561167d57600080fd5b505af1158015611691573d6000803e3d6000fd5b5050505050565b6040517ffd3415c24b2b4519f08b7935c13f86ea010c77b3ff9bf448a474ae3b2414fce090600090a150565b60006012601354601481106116db576116db614153565b602081049091015460ff601f9092166101000a900416919050565b60025460009033906001600160a01b031681148061172157506004546001600160a01b038281169116145b8061173957506005546001600160a01b038281169116145b6117555760405162461bcd60e51b8152600401610b84906143d6565b50949350505050565b600061102f82612e54565b600e546001600160a01b03630100000090910416331461179b5760405162461bcd60e51b8152600401610b8490614296565b6117a560006132ff565b565b601c546038546034546117ba91906143be565b1461181d5760405162461bcd60e51b815260206004820152602d60248201527f73756d5f746f6b656e73202b206e6f6e5573657253756d546f6b656e7320213d60448201526c205f746f74616c537570706c7960981b6064820152608401610b84565b611825611035565b603854603554603454611838919061413c565b61184291906143be565b146118875760405162461bcd60e51b81526020600482015260156024820152741c195b991a5b99d7d89d5c9b881a5b98dbdc9c98dd605a1b6044820152606401610b84565b603454603e546001600160a01b039081166000908152601d602052604080822054603d548416835281832054603c548516845282842054603b5490951684529190922054919290916118d991906143be565b6118e391906143be565b6118ed91906143be565b1461195c57603e546001600160a01b039081166000908152601d602052604080822054603d548416835281832054603c548516845282842054603b549095168452919092205461195c93611940916143be565b61194a91906143be565b61195491906143be565b60345461335d565b60355460345460009161196e9161413c565b603e54909150600090611989906001600160a01b031661175e565b603d5461199e906001600160a01b031661175e565b603c546119b3906001600160a01b031661175e565b603b546119c8906001600160a01b031661175e565b6119d291906143be565b6119dc91906143be565b6119e691906143be565b9050600081831015611a03576119fc838361413c565b9050611a10565b611a0d828461413c565b90505b82611a1e82620f42406140fb565b10611a6b5760405162461bcd60e51b815260206004820152601a60248201527f4572726f7220657863656564732061206d696c6c696f6e2d74680000000000006044820152606401610b84565b505050565b600e54630100000090046001600160a01b03166001600160a01b0316336001600160a01b031614611acf5760405162461bcd60e51b81526020600482015260096024820152682737ba1037bbb732b960b91b6044820152606401610b84565b6014805460ff19166001179055565b600e54630100000090046001600160a01b03166001600160a01b0316336001600160a01b031614611b445760405162461bcd60e51b815260206004820152601060248201526f496e76616c69642063616c6c6572203360801b6044820152606401610b84565b60008054610100600160a81b0319166101006001600160a01b0394851602179055600180546001600160a01b03191691909216179055565b60005461010090046001600160a01b0316331480611b9957503330145b80611bc75750600e54630100000090046001600160a01b03166001600160a01b0316336001600160a01b0316145b611be35760405162461bcd60e51b8152600401610b8490614435565b6001600160a01b0381163014611cf757600e5462010000900460ff1615611c7157604051634f18125b60e01b815273__$88bebae22a3ad6e62b56c303176513ecf8$__90634f18125b90611c40908690600d90879060040161445f565b60006040518083038186803b158015611c5857600080fd5b505af4158015611c6c573d6000803e3d6000fd5b505050505b60006001600160a01b03821615611c885781611c8a565b305b6001546040516391fd0db760e01b81529192506001600160a01b0316906391fd0db790611cbf90879087908690600401614488565b600060405180830381600087803b158015611cd957600080fd5b505af1158015611ced573d6000803e3d6000fd5b5050505050505050565b7fb4040436d4754da72f29d5b97fe68448f30d44ac0e08b33545cbf6f28b7641d98383604051611d289291906144ba565b60405180910390a1505050565b60005461010090046001600160a01b0316331480611d5257503330145b80611d805750600e54630100000090046001600160a01b03166001600160a01b0316336001600160a01b0316145b611d9c5760405162461bcd60e51b8152600401610b8490614435565b611da78383836133a3565b6000836004811115611dbb57611dbb613d74565b03611a6b57601980546001600160a01b0384166001600160a01b03199182168117909255601a80549091169091179055505050565b600e546001600160a01b036301000000909104163314611e225760405162461bcd60e51b8152600401610b8490614296565b6111b48282612eb6565b60408051808201909152600c81526b5a65726f206164647265737360a01b60208201526000906001600160a01b038516611e795760405162461bcd60e51b8152600401610b849190613c73565b506001600160a01b038085166000908152601b60209081526040808320938716835292905220546110eb90859085906110d990869061413c565b6000611102338484611e2c565b600e546001600160a01b036301000000909104163314611ef25760405162461bcd60e51b8152600401610b8490614296565b611efe6005600a6144dc565b8211158015611f185750611f146005600a6144dc565b8111155b611f595760405162461bcd60e51b8152602060048201526012602482015271496e76616c6964206275726e20726174657360701b6044820152606401610b84565b603991909155603a55565b600061102b338484613156565b60005461010090046001600160a01b0316331480611f8e57503330145b80611fbc5750600e54630100000090046001600160a01b03166001600160a01b0316336001600160a01b0316145b611fd85760405162461bcd60e51b8152600401610b8490614435565b6001600160a01b03811630146123c957600e5460ff161561233f576040518060600160405280856001600160a01b03168152602001846001600160a01b0316815260200183600381111561202e5761202e613d74565b90526001600160a01b038087166000908152600a6020908152604091829020845181549085166001600160a01b0319918216178255918501516001820180549190951692811683178555928501519093909290916001600160a81b031990911617600160a01b8360038111156120a6576120a6613d74565b021790555050506001600160a01b038085166000818152600b60208181526040808420898716855282528084208054878d166001600160a01b03199182168117909255938352818520958552949091529182902080549091169092179091556002549051633fe59dbb60e11b815273__$88bebae22a3ad6e62b56c303176513ecf8$__92637fcb3b769261215892899289921690730dcd1bf9a1b36ce34237eeafef220932846bcd82906004016144e8565b602060405180830381865af4158015612175573d6000803e3d6000fd5b505050506040513d601f19601f820116820180604052508101906121999190614279565b156121ba57600780546001600160a01b0319166001600160a01b0387161790555b600254604051633fe59dbb60e11b815273__$88bebae22a3ad6e62b56c303176513ecf8$__91637fcb3b769161221691889188916001600160a01b031690735fc8d32690cc91d4c39d9d3abcbd16989f875707906004016144e8565b602060405180830381865af4158015612233573d6000803e3d6000fd5b505050506040513d601f19601f820116820180604052508101906122579190614279565b1561227857600880546001600160a01b0319166001600160a01b0387161790555b604051633fe59dbb60e11b815273__$88bebae22a3ad6e62b56c303176513ecf8$__90637fcb3b76906122dd908790879073b7f8bc63bbcad18155201308c8f3540b07f84f5e90735fc8d32690cc91d4c39d9d3abcbd16989f875707906004016144e8565b602060405180830381865af41580156122fa573d6000803e3d6000fd5b505050506040513d601f19601f8201168201806040525081019061231e9190614279565b1561233f57600980546001600160a01b0319166001600160a01b0387161790555b60006001600160a01b038216156123565781612358565b305b60015460405163cd193c4360e01b81529192506001600160a01b03169063cd193c43906123919089908990899089908890600401614513565b600060405180830381600087803b1580156123ab57600080fd5b505af11580156123bf573d6000803e3d6000fd5b5050505050611691565b7f7af36d96fdc569564b9fadb22716716fe33463cb7fc8dca4fbd79d40448acdf2858585856040516123fe9493929190614555565b60405180910390a15050505050565b60045433906001600160a01b0316810361254d576001600160a01b038381166000908152600a602052604090205416156124cb57600061244b613506565b9050600381600581111561246157612461613d74565b0361248f5761248a6040518060400160405280600381526020016210591960ea1b815250613575565b6124c5565b6124c5604051806040016040528060158152602001740496e636f6e73697374656e637920666f756e64203605c1b815250613575565b50612861565b6004546001600160a01b039081169085160361250d576125086040518060400160405280600681526020016552656d6f766560d01b815250613575565b612861565b60405162461bcd60e51b8152602060048201526015602482015274496e636f6e73697374656e637920666f756e64203160581b6044820152606401610b84565b6005546001600160a01b039081169082160361266a576001600160a01b038381166000908152600a602052604090205416156125ad576125a86040518060400160405280600481526020016314d95b1b60e21b815250613575565b612627565b6005546001600160a01b03908116908516036125e7576125a86040518060400160405280600381526020016242757960e81b815250613575565b60405162461bcd60e51b815260206004820152601560248201527424b731b7b739b4b9ba32b731bc903337bab732101960591b6044820152606401610b84565b60006126356005600a6144dc565b60395461264290856140fb565b61264c919061411a565b90506126588582612eb6565b612662818461413c565b925050612861565b6001600160a01b038181166000908152600a6020526040902054161561282757836001600160a01b0316816001600160a01b0316146126db5760405162461bcd60e51b815260206004820152600d60248201526c496e636f6e73697374656e743160981b6044820152606401610b84565b60006126e5613506565b905060028160058111156126fb576126fb613d74565b0361276757600061270e6005600a6144dc565b60395461271b90866140fb565b612725919061411a565b90506127318682612eb6565b61273b818561413c565b93506127616040518060400160405280600381526020016242757960e81b815250613575565b506124c5565b600481600581111561277b5761277b613d74565b036127a75761248a6040518060400160405280600681526020016552656d6f766560d01b815250613575565b60058160058111156127bb576127bb613d74565b036127e75761248a6040518060400160405280600681526020016544696c75746560d01b815250613575565b60405162461bcd60e51b8152602060048201526015602482015274496e636f6e73697374656e637920666f756e64203360581b6044820152606401610b84565b60405162461bcd60e51b815260206004820152600f60248201526e2bb937b7339036b9b3a9b2b73232b960891b6044820152606401610b84565b6001600160a01b0384166000908152601d602052604090205482111561289d576001600160a01b0384166000908152601d602052604090205491505b81156128ae576128ae8484846135b8565b50505050565b60005461010090046001600160a01b03163314806128d157503330145b806128ff5750600e54630100000090046001600160a01b03166001600160a01b0316336001600160a01b0316145b61291b5760405162461bcd60e51b8152600401610b8490614435565b6001600160a01b0381163014612a3857600e54610100900460ff16156129af57604051633d8d54b760e11b8152600c600482015282516001600160a01b0316602482015273__$88bebae22a3ad6e62b56c303176513ecf8$__90637b1aa96e9060440160006040518083038186803b15801561299657600080fd5b505af41580156129aa573d6000803e3d6000fd5b505050505b60006001600160a01b038216156129c657816129c8565b305b600154604051633376489360e21b815285516001600160a01b039081166004830152808416602483015292935091169063cdd9224c90604401600060405180830381600087803b158015612a1b57600080fd5b505af1158015612a2f573d6000803e3d6000fd5b50505050505050565b60405182516001600160a01b031681527f275664547227ddbc7a8a732c07c9346f2f4520de70c2088665cc6809534212c09060200160405180910390a15050565b612a856012600a6143af565b612a93906302faf0806140fb565b81565b6000612aa26027612c64565b602a546001600160a01b03166000818152601d6020526040902054919250612ae59164e8d4a5100090612ad69085906140fb565b612ae0919061411a565b612eb6565b5042602755565b6000612af8602f612c64565b9050801561127757603554603454600091612b129161413c565b9050600064e8d4a51000612b2684846140fb565b612b30919061411a565b905080602f6006016000828254612b4791906143be565b9091555050603454612b5e8264e8d4a510006140fb565b612b68919061411a565b60338054600090612b7a9084906143be565b909155505042602f55505050565b600e546001600160a01b036301000000909104163314612bba5760405162461bcd60e51b8152600401610b8490614296565b6001600160a01b038116612c1f5760405162461bcd60e51b815260206004820152602660248201527f4f776e61626c653a206e6577206f776e657220697320746865207a65726f206160448201526564647265737360d01b6064820152608401610b84565b611277816132ff565b600e546001600160a01b036301000000909104163314612c5a5760405162461bcd60e51b8152600401610b8490614296565b6111b48282613711565b600080826001015442612c77919061411a565b90508260070154811115612e4e576000836007015482612c97919061413c565b6007850183905542855590506005811115612cb0575060055b64e8d4a51000925060058111612d66576002840154600090612cd46005600a6144dc565b612cde919061413c565b9050806000612cef6005600a6144dc565b905060015b84811015612d3257612d0684846140fb565b9250612d146005600a6144dc565b612d1e90836140fb565b915080612d2a8161441c565b915050612cf4565b5080612d438364e8d4a510006140fb565b612d4d919061411a565b612d5c9064e8d4a5100061413c565b9550505050612e4c565b603f54600285015460009182916001600160a01b0390911690635aff34dc90612d916005600a6144dc565b612d9b919061413c565b612da76005600a6144dc565b6040516001600160e01b031960e085901b1681526004810192909252602482015260448101869052600160648201526084016040805180830381865afa158015612df5573d6000803e3d6000fd5b505050506040513d601f19601f82011682018060405250810190612e19919061458b565b909250905080612e2e8364e8d4a510006140fb565b612e38919061411a565b612e479064e8d4a5100061413c565b945050505b505b50919050565b6000612e5f826137c5565b15612e96576000612e6f83613800565b6001600160a01b0384166000908152601d602052604090205490915061110290829061413c565b506001600160a01b0381166000908152601d60205260409020545b919050565b60408051808201909152600c81526b5a65726f206164647265737360a01b60208201526001600160a01b038316612f005760405162461bcd60e51b8152600401610b849190613c73565b506000612f0c83612e54565b9050818110156040518060400160405280600f81526020016e457863656564732062616c616e636560881b81525090612f585760405162461bcd60e51b8152600401610b849190613c73565b50612f658383600061384f565b81601c6000828254612f77919061413c565b90915550612f829050565b6040518281526000906001600160a01b038516907fddf252ad1be2c89b69c2b068fc378daa952ba7f163c4a11628f55a4df523b3ef906020015b60405180910390a3505050565b611a6b838383604051602401612fe1939291906145af565b60408051601f198184030181529190526020810180516001600160e01b031663969cdd0360e01b1790526139f2565b6111b482826040516024016130269291906145d4565b60408051601f198184030181529190526020810180516001600160e01b03166309710a9d60e41b1790526139f2565b60408051808201909152600c81526b5a65726f206164647265737360a01b60208201526001600160a01b03841661309f5760405162461bcd60e51b8152600401610b849190613c73565b5060408051808201909152600c81526b5a65726f206164647265737360a01b60208201526001600160a01b0383166130ea5760405162461bcd60e51b8152600401610b849190613c73565b506001600160a01b038381166000818152601b602090815260408083209487168084529482529182902085905590518481527f8c5be1e5ebec7d5bd14f71427d1e84f3dd0314c0f7b2291e5b200ac8c7c3b9259101612fbc565b603554601c5460009161103f9161413c565b613161600180613a13565b80156131bc5760185460ff16156131b15760006131806005600a6144dc565b60395461318d90846140fb565b613197919061411a565b90506131a38482612eb6565b6131ad818361413c565b9150505b6131bc8383836135b8565b611a6b613ae2565b60408051808201909152600c81526b5a65726f206164647265737360a01b60208201526000906001600160a01b0385166132115760405162461bcd60e51b8152600401610b849190613c73565b506001600160a01b038085166000908152601b60209081526040808320938716835292905220546110eb90859085906110d99086906143be565b60408051808201909152600c81526b5a65726f206164647265737360a01b60208201526001600160a01b0383166132955760405162461bcd60e51b8152600401610b849190613c73565b5080601c60008282546132a891906143be565b909155506132ba90508282600161384f565b6040518181526001600160a01b038316906000907fddf252ad1be2c89b69c2b068fc378daa952ba7f163c4a11628f55a4df523b3ef9060200160405180910390a35050565b600e80546001600160a01b0383811663010000008181026301000000600160b81b031985161790945560405193909204169182907f8be0079c531659141344cd1fd0a4f28419497f9722a3daafe3b4186f6b6457e090600090a35050565b60405160248101839052604481018290526111b49060640160408051601f198184030181529190526020810180516001600160e01b031662d81ed360e71b1790526139f2565b60005461010090046001600160a01b03163314806133c057503330145b806133ee5750600e54630100000090046001600160a01b03166001600160a01b0316336001600160a01b0316145b61340a5760405162461bcd60e51b8152600401610b8490614435565b6001600160a01b03811630146134d55760405163085b199160e11b815273__$88bebae22a3ad6e62b56c303176513ecf8$__906310b63322906134569086908690600290600401614606565b60006040518083038186803b15801561346e57600080fd5b505af4158015613482573d6000803e3d6000fd5b506000925050506001600160a01b0382161561349e57816134a0565b305b6001546040516349443ceb60e11b81529192506001600160a01b03169063928879d690611cbf9087908790869060040161462e565b7fb45c42dda0a5ab1d1078e0afeda2976363eff9496a93644e726862f1f06186b88383604051611d2892919061465e565b60195460408051632e9c96d560e11b815290516000926001600160a01b031691635d392daa916004808301926020929190829003018187875af1158015613551573d6000803e3d6000fd5b505050506040513d601f19601f8201168201806040525081019061103f9190614684565b611277816040516024016135899190613c73565b60408051601f198184030181529190526020810180516001600160e01b031663104c13eb60e21b1790526139f2565b60408051808201909152600c81526b5a65726f206164647265737360a01b60208201526001600160a01b0384166136025760405162461bcd60e51b8152600401610b849190613c73565b5060408051808201909152600c81526b5a65726f206164647265737360a01b60208201526001600160a01b03831661364d5760405162461bcd60e51b8152600401610b849190613c73565b50600061365984612e54565b9050818110156040518060400160405280600f81526020016e457863656564732062616c616e636560881b815250906136a55760405162461bcd60e51b8152600401610b849190613c73565b506136b28483600061384f565b6136be8383600161384f565b826001600160a01b0316846001600160a01b03167fddf252ad1be2c89b69c2b068fc378daa952ba7f163c4a11628f55a4df523b3ef8460405161370391815260200190565b60405180910390a350505050565b60408051808201909152600c81526b5a65726f206164647265737360a01b60208201526001600160a01b03831661375b5760405162461bcd60e51b8152600401610b849190613c73565b50600061376783612e54565b9050818110156040518060400160405280600f81526020016e457863656564732062616c616e636560881b815250906137b35760405162461bcd60e51b8152600401610b849190613c73565b506137c08383600061384f565b612f82565b6001600160a01b038181166000908152600a602052604081205490911615801561102f575050601e546001600160a01b039081169116141590565b6001600160a01b038116600090815260376020908152604080832054603354601d90935290832054909164e8d4a510009161383b91906140fb565b613845919061411a565b61102f919061413c565b613858836137c5565b156139555761386683613b46565b80156138b9576001600160a01b0383166000908152601d6020526040812080548492906138949084906143be565b9091555050603480548391906000906138ae9084906143be565b909155506139019050565b6001600160a01b0383166000908152601d6020526040812080548492906138e190849061413c565b9091555050603480548391906000906138fb90849061413c565b90915550505b6033546001600160a01b0384166000908152601d602052604090205464e8d4a510009161392d916140fb565b613937919061411a565b6001600160a01b038416600090815260376020526040902055505050565b80156139a7576001600160a01b0383166000908152601d6020526040812080548492906139839084906143be565b92505081905550816038600082825461399c91906143be565b90915550611a6b9050565b6001600160a01b0383166000908152601d6020526040812080548492906139cf90849061413c565b9250508190555081603860008282546139e8919061413c565b9091555050505050565b80516a636f6e736f6c652e6c6f67602083016000808483855afa5050505050565b601954604051634be5482760e01b81526001600160a01b0390911690634be5482790613a4590859085906004016146a1565b6080604051808303816000875af1158015613a64573d6000803e3d6000fd5b505050506040513d601f19601f82011682018060405250810190613a8891906146be565b805160158054909190829060ff19166001836005811115613aab57613aab613d74565b021790555060208201516001820155604082015160028201556060909101516003909101805460ff19169115159190911790555050565b601960009054906101000a90046001600160a01b03166001600160a01b031663431b3c306040518163ffffffff1660e01b8152600401600060405180830381600087803b158015613b3257600080fd5b505af11580156128ae573d6000803e3d6000fd5b6000613b5182613800565b905080156111b4576001600160a01b0382166000908152601d602052604081208054839290613b8190849061413c565b9250508190555080601c6000828254613b9a919061413c565b909155505060348054829190600090613bb490849061413c565b909155505060358054829190600090613bce90849061413c565b90915550506033546001600160a01b0383166000908152601d602052604090205464e8d4a5100091613bff916140fb565b613c09919061411a565b6001600160a01b0383166000908152603760205260409020555050565b6000815180845260005b81811015613c4c57602081850181015186830182015201613c30565b81811115613c5e576000602083870101525b50601f01601f19169290920160200192915050565b6020815260006111026020830184613c26565b80356001600160a01b0381168114612eb157600080fd5b60008060408385031215613cb057600080fd5b613cb983613c86565b946020939093013593505050565b6006811061127757600080fd5b600060208284031215613ce657600080fd5b813561110281613cc7565b600080600060608486031215613d0657600080fd5b613d0f84613c86565b9250613d1d60208501613c86565b9150604084013590509250925092565b801515811461127757600080fd5b60008060408385031215613d4e57600080fd5b8235613d5981613cc7565b91506020830135613d6981613d2d565b809150509250929050565b634e487b7160e01b600052602160045260246000fd5b60068110613d9a57613d9a613d74565b9052565b6000608082019050613db1828451613d8a565b602083015160208301526040830151604083015260608301511515606083015292915050565b600060208284031215613de957600080fd5b61110282613c86565b6020810161102f8284613d8a565b6000806000808486036080811215613e1757600080fd5b613e2086613c86565b94506020868101359450603f1982011215613e3a57600080fd5b506040850191506060850135613e4f81613d2d565b939692955090935050565b60008060408385031215613e6d57600080fd5b613e7683613c86565b9150613e8460208401613c86565b90509250929050565b634e487b7160e01b600052604160045260246000fd5b604051601f8201601f1916810167ffffffffffffffff81118282101715613ecc57613ecc613e8d565b604052919050565b60008060008385036060811215613eea57600080fd5b8435613ef581613cc7565b93506020601f1982011215613f0957600080fd5b506040516020810181811067ffffffffffffffff82111715613f2d57613f2d613e8d565b604052602085013563ffffffff81168114613f4757600080fd5b81529150613f5760408501613c86565b90509250925092565b600080600060608486031215613f7557600080fd5b833560058110613f8457600080fd5b9250613f9260208501613c86565b9150613f5760408501613c86565b60008060408385031215613fb357600080fd5b50508035926020909101359150565b600080600080600060a08688031215613fda57600080fd5b613fe386613c86565b9450613ff160208701613c86565b9350613fff60408701613c86565b925060608601356004811061401357600080fd5b915061402160808701613c86565b90509295509295909350565b600080828403604081121561404157600080fd5b602081121561404f57600080fd5b506040516020810181811067ffffffffffffffff8211171561407357614073613e8d565b60405261407f84613c86565b81529150613e8460208401613c86565b60048110613d9a57613d9a613d74565b6001600160a01b03848116825283166020820152606081016140c4604083018461408f565b949350505050565b6000602082840312156140de57600080fd5b5051919050565b634e487b7160e01b600052601160045260246000fd5b6000816000190483118215151615614115576141156140e5565b500290565b60008261413757634e487b7160e01b600052601260045260246000fd5b500490565b60008282101561414e5761414e6140e5565b500390565b634e487b7160e01b600052603260045260246000fd5b600060808201868352602060808185015281875180845260a086019150828901935060005b818110156141b35784516001600160a01b03168352938301939183019160010161418e565b50506001600160a01b039690961660408501525050506060015292915050565b600060208083850312156141e657600080fd5b825167ffffffffffffffff808211156141fe57600080fd5b818501915085601f83011261421257600080fd5b81518181111561422457614224613e8d565b8060051b9150614235848301613ea3565b818152918301840191848101908884111561424f57600080fd5b938501935b8385101561426d57845182529385019390850190614254565b98975050505050505050565b60006020828403121561428b57600080fd5b815161110281613d2d565b6020808252818101527f4f776e61626c653a2063616c6c6572206973206e6f7420746865206f776e6572604082015260600190565b600181815b808511156143065781600019048211156142ec576142ec6140e5565b808516156142f957918102915b93841c93908002906142d0565b509250929050565b60008261431d5750600161102f565b8161432a5750600061102f565b8160018114614340576002811461434a57614366565b600191505061102f565b60ff84111561435b5761435b6140e5565b50506001821b61102f565b5060208310610133831016604e8410600b8410161715614389575081810a61102f565b61439383836142cb565b80600019048211156143a7576143a76140e5565b029392505050565b600061110260ff84168361430e565b600082198211156143d1576143d16140e5565b500190565b6020808252601590820152742737ba10309039b2b9b9b4b7b71036b0b730b3b2b960591b604082015260600190565b600081614414576144146140e5565b506000190190565b60006001820161442e5761442e6140e5565b5060010190565b60208082526010908201526f496e76616c69642063616c6c6572203160801b604082015260600190565b6060810161446d8286613d8a565b83602083015263ffffffff8351166040830152949350505050565b606081016144968286613d8a565b925163ffffffff1660208201526001600160a01b0391909116604090910152919050565b604081016144c88285613d8a565b63ffffffff83511660208301529392505050565b6000611102838361430e565b6001600160a01b03948516815292841660208401529083166040830152909116606082015260800190565b6001600160a01b0386811682528581166020830152848116604083015260a0820190614542606084018661408f565b8084166080840152509695505050505050565b6001600160a01b03858116825284811660208301528316604082015260808101614582606083018461408f565b95945050505050565b6000806040838503121561459e57600080fd5b505080516020909101519092909150565b6060815260006145c26060830186613c26565b60208301949094525060400152919050565b6040815260006145e76040830185613c26565b90508260208301529392505050565b60058110613d9a57613d9a613d74565b6060810161461482866145f6565b6001600160a01b0393909316602082015260400152919050565b6060810161463c82866145f6565b6001600160a01b03938416602083015291909216604090920191909152919050565b6040810161466c82856145f6565b6001600160a01b039290921660209190910152919050565b60006020828403121561469657600080fd5b815161110281613cc7565b604081016146af8285613d8a565b82151560208301529392505050565b6000608082840312156146d057600080fd5b6040516080810181811067ffffffffffffffff821117156146f3576146f3613e8d565b604052825161470181613cc7565b808252506020830151602082015260408301516040820152606083015161472781613d2d565b6060820152939250505056fe46544d20616e6420544752206761696e6564206279204c502064696c7574696f6e202d2d2d2d2da264697066735822122091c39c0a0bcd41a2a60e45b188b4cd45863ef452d7d3c707e7ef54679516d52e64736f6c634300080e0033",
  "linkReferences": {
    "contracts/libraries/WireLibrary.sol": {
      "WireLibrary": [
        {
          "length": 20,
          "start": 9744
        },
        {
          "length": 20,
          "start": 11027
        },
        {
          "length": 20,
          "start": 11209
        },
        {
          "length": 20,
          "start": 11396
        },
        {
          "length": 20,
          "start": 13150
        },
        {
          "length": 20,
          "start": 15910
        }
      ]
    }
  },
  "deployedLinkReferences": {
    "contracts/libraries/WireLibrary.sol": {
      "WireLibrary": [
        {
          "length": 20,
          "start": 7187
        },
        {
          "length": 20,
          "start": 8470
        },
        {
          "length": 20,
          "start": 8652
        },
        {
          "length": 20,
          "start": 8839
        },
        {
          "length": 20,
          "start": 10593
        },
        {
          "length": 20,
          "start": 13353
        }
      ]
    }
  }
}