{
  "_format": "hh-sol-artifact-1",
  "contractName": "TGRToken",
  "sourceName": "contracts/farm/TGRToken.sol",
  "abi": [
    {
      "inputs": [
        {
          "internalType": "address",
          "name": "_analyticMath",
          "type": "address"
        }
      ],
      "stateMutability": "nonpayable",
      "type": "constructor"
    },
    {
      "anonymous": false,
      "inputs": [
        {
          "indexed": true,
          "internalType": "address",
          "name": "owner",
          "type": "address"
        },
        {
          "indexed": true,
          "internalType": "address",
          "name": "spender",
          "type": "address"
        },
        {
          "indexed": false,
          "internalType": "uint256",
          "name": "value",
          "type": "uint256"
        }
      ],
      "name": "Approval",
      "type": "event"
    },
    {
      "anonymous": false,
      "inputs": [],
      "name": "Begin",
      "type": "event"
    },
    {
      "anonymous": false,
      "inputs": [
        {
          "indexed": false,
          "internalType": "address",
          "name": "pair",
          "type": "address"
        },
        {
          "indexed": false,
          "internalType": "address",
          "name": "tokenA",
          "type": "address"
        },
        {
          "indexed": false,
          "internalType": "address",
          "name": "tokenB",
          "type": "address"
        },
        {
          "indexed": false,
          "internalType": "enum ListStatus",
          "name": "status",
          "type": "uint8"
        }
      ],
      "name": "ChangePairStatus",
      "type": "event"
    },
    {
      "anonymous": false,
      "inputs": [
        {
          "indexed": false,
          "internalType": "address",
          "name": "token",
          "type": "address"
        },
        {
          "indexed": false,
          "internalType": "address",
          "name": "msgSender",
          "type": "address"
        }
      ],
      "name": "DeenlistToken",
      "type": "event"
    },
    {
      "anonymous": false,
      "inputs": [
        {
          "indexed": true,
          "internalType": "address",
          "name": "previousOwner",
          "type": "address"
        },
        {
          "indexed": true,
          "internalType": "address",
          "name": "newOwner",
          "type": "address"
        }
      ],
      "name": "OwnershipTransferred",
      "type": "event"
    },
    {
      "anonymous": false,
      "inputs": [
        {
          "indexed": false,
          "internalType": "enum ActionType",
          "name": "_sessionType",
          "type": "uint8"
        },
        {
          "components": [
            {
              "internalType": "uint32",
              "name": "accountant",
              "type": "uint32"
            }
          ],
          "indexed": false,
          "internalType": "struct FeeRates",
          "name": "_feeRates",
          "type": "tuple"
        }
      ],
      "name": "SetFeeRates",
      "type": "event"
    },
    {
      "anonymous": false,
      "inputs": [
        {
          "components": [
            {
              "internalType": "address",
              "name": "accountant",
              "type": "address"
            }
          ],
          "indexed": false,
          "internalType": "struct FeeStores",
          "name": "_feeStores",
          "type": "tuple"
        }
      ],
      "name": "SetFeeStores",
      "type": "event"
    },
    {
      "anonymous": false,
      "inputs": [
        {
          "indexed": false,
          "internalType": "enum NodeType",
          "name": "nodeType",
          "type": "uint8"
        },
        {
          "indexed": false,
          "internalType": "address",
          "name": "node",
          "type": "address"
        }
      ],
      "name": "SetNode",
      "type": "event"
    },
    {
      "anonymous": false,
      "inputs": [
        {
          "indexed": true,
          "internalType": "address",
          "name": "from",
          "type": "address"
        },
        {
          "indexed": true,
          "internalType": "address",
          "name": "to",
          "type": "address"
        },
        {
          "indexed": false,
          "internalType": "uint256",
          "name": "value",
          "type": "uint256"
        }
      ],
      "name": "Transfer",
      "type": "event"
    },
    {
      "inputs": [
        {
          "internalType": "address",
          "name": "_owner",
          "type": "address"
        },
        {
          "internalType": "address",
          "name": "_spender",
          "type": "address"
        },
        {
          "internalType": "uint256",
          "name": "subtractedValue",
          "type": "uint256"
        }
      ],
      "name": "_decreaseAllowance",
      "outputs": [
        {
          "internalType": "bool",
          "name": "",
          "type": "bool"
        }
      ],
      "stateMutability": "nonpayable",
      "type": "function"
    },
    {
      "inputs": [
        {
          "internalType": "address",
          "name": "_owner",
          "type": "address"
        },
        {
          "internalType": "address",
          "name": "_spender",
          "type": "address"
        }
      ],
      "name": "allowance",
      "outputs": [
        {
          "internalType": "uint256",
          "name": "",
          "type": "uint256"
        }
      ],
      "stateMutability": "view",
      "type": "function"
    },
    {
      "inputs": [
        {
          "internalType": "address",
          "name": "spender",
          "type": "address"
        },
        {
          "internalType": "uint256",
          "name": "amount",
          "type": "uint256"
        }
      ],
      "name": "approve",
      "outputs": [
        {
          "internalType": "bool",
          "name": "",
          "type": "bool"
        }
      ],
      "stateMutability": "nonpayable",
      "type": "function"
    },
    {
      "inputs": [
        {
          "internalType": "address",
          "name": "account",
          "type": "address"
        }
      ],
      "name": "balanceOf",
      "outputs": [
        {
          "internalType": "uint256",
          "name": "",
          "type": "uint256"
        }
      ],
      "stateMutability": "view",
      "type": "function"
    },
    {
      "inputs": [
        {
          "internalType": "address",
          "name": "caller",
          "type": "address"
        }
      ],
      "name": "begin",
      "outputs": [],
      "stateMutability": "nonpayable",
      "type": "function"
    },
    {
      "inputs": [
        {
          "internalType": "address",
          "name": "from",
          "type": "address"
        },
        {
          "internalType": "uint256",
          "name": "amount",
          "type": "uint256"
        }
      ],
      "name": "burn",
      "outputs": [],
      "stateMutability": "nonpayable",
      "type": "function"
    },
    {
      "inputs": [
        {
          "internalType": "address",
          "name": "pair",
          "type": "address"
        },
        {
          "internalType": "address",
          "name": "token0",
          "type": "address"
        },
        {
          "internalType": "address",
          "name": "token1",
          "type": "address"
        },
        {
          "internalType": "enum ListStatus",
          "name": "status",
          "type": "uint8"
        },
        {
          "internalType": "address",
          "name": "caller",
          "type": "address"
        }
      ],
      "name": "changePairStatus",
      "outputs": [],
      "stateMutability": "nonpayable",
      "type": "function"
    },
    {
      "inputs": [],
      "name": "checkForConsistency",
      "outputs": [],
      "stateMutability": "view",
      "type": "function"
    },
    {
      "inputs": [],
      "name": "decimals",
      "outputs": [
        {
          "internalType": "uint8",
          "name": "",
          "type": "uint8"
        }
      ],
      "stateMutability": "view",
      "type": "function"
    },
    {
      "inputs": [
        {
          "internalType": "address",
          "name": "spender",
          "type": "address"
        },
        {
          "internalType": "uint256",
          "name": "subtractedValue",
          "type": "uint256"
        }
      ],
      "name": "decreaseAllowance",
      "outputs": [
        {
          "internalType": "bool",
          "name": "",
          "type": "bool"
        }
      ],
      "stateMutability": "nonpayable",
      "type": "function"
    },
    {
      "inputs": [
        {
          "internalType": "enum ActionType",
          "name": "",
          "type": "uint8"
        }
      ],
      "name": "feeRates",
      "outputs": [
        {
          "internalType": "uint32",
          "name": "accountant",
          "type": "uint32"
        }
      ],
      "stateMutability": "view",
      "type": "function"
    },
    {
      "inputs": [],
      "name": "feeStores",
      "outputs": [
        {
          "internalType": "address",
          "name": "accountant",
          "type": "address"
        }
      ],
      "stateMutability": "view",
      "type": "function"
    },
    {
      "inputs": [],
      "name": "getCurrentActionType",
      "outputs": [
        {
          "internalType": "enum ActionType",
          "name": "",
          "type": "uint8"
        }
      ],
      "stateMutability": "view",
      "type": "function"
    },
    {
      "inputs": [],
      "name": "getOwner",
      "outputs": [
        {
          "internalType": "address",
          "name": "",
          "type": "address"
        }
      ],
      "stateMutability": "view",
      "type": "function"
    },
    {
      "inputs": [],
      "name": "htzFtm",
      "outputs": [
        {
          "internalType": "address",
          "name": "",
          "type": "address"
        }
      ],
      "stateMutability": "view",
      "type": "function"
    },
    {
      "inputs": [
        {
          "internalType": "address",
          "name": "spender",
          "type": "address"
        },
        {
          "internalType": "uint256",
          "name": "addedValue",
          "type": "uint256"
        }
      ],
      "name": "increaseAllowance",
      "outputs": [
        {
          "internalType": "bool",
          "name": "",
          "type": "bool"
        }
      ],
      "stateMutability": "nonpayable",
      "type": "function"
    },
    {
      "inputs": [],
      "name": "lastSession",
      "outputs": [
        {
          "internalType": "uint256",
          "name": "",
          "type": "uint256"
        }
      ],
      "stateMutability": "view",
      "type": "function"
    },
    {
      "inputs": [],
      "name": "lp_reward",
      "outputs": [
        {
          "internalType": "uint256",
          "name": "latestTime",
          "type": "uint256"
        },
        {
          "internalType": "uint256",
          "name": "cycle",
          "type": "uint256"
        },
        {
          "internalType": "uint256",
          "name": "decayRate",
          "type": "uint256"
        },
        {
          "internalType": "address",
          "name": "account",
          "type": "address"
        },
        {
          "internalType": "uint256",
          "name": "accDecayPer1e12",
          "type": "uint256"
        },
        {
          "internalType": "uint256",
          "name": "sum_tokens",
          "type": "uint256"
        },
        {
          "internalType": "uint256",
          "name": "pending_burn",
          "type": "uint256"
        },
        {
          "internalType": "uint256",
          "name": "latestRound",
          "type": "uint256"
        }
      ],
      "stateMutability": "view",
      "type": "function"
    },
    {
      "inputs": [],
      "name": "maxSupply",
      "outputs": [
        {
          "internalType": "uint256",
          "name": "",
          "type": "uint256"
        }
      ],
      "stateMutability": "view",
      "type": "function"
    },
    {
      "inputs": [
        {
          "internalType": "address",
          "name": "to",
          "type": "address"
        },
        {
          "internalType": "uint256",
          "name": "amount",
          "type": "uint256"
        }
      ],
      "name": "mint",
      "outputs": [],
      "stateMutability": "nonpayable",
      "type": "function"
    },
    {
      "inputs": [],
      "name": "name",
      "outputs": [
        {
          "internalType": "string",
          "name": "",
          "type": "string"
        }
      ],
      "stateMutability": "view",
      "type": "function"
    },
    {
      "inputs": [],
      "name": "nextNode",
      "outputs": [
        {
          "internalType": "address",
          "name": "",
          "type": "address"
        }
      ],
      "stateMutability": "view",
      "type": "function"
    },
    {
      "inputs": [],
      "name": "owner",
      "outputs": [
        {
          "internalType": "address",
          "name": "",
          "type": "address"
        }
      ],
      "stateMutability": "view",
      "type": "function"
    },
    {
      "inputs": [
        {
          "internalType": "address",
          "name": "",
          "type": "address"
        },
        {
          "internalType": "address",
          "name": "",
          "type": "address"
        }
      ],
      "name": "pairFor",
      "outputs": [
        {
          "internalType": "address",
          "name": "",
          "type": "address"
        }
      ],
      "stateMutability": "view",
      "type": "function"
    },
    {
      "inputs": [
        {
          "internalType": "address",
          "name": "",
          "type": "address"
        }
      ],
      "name": "pairs",
      "outputs": [
        {
          "internalType": "address",
          "name": "token0",
          "type": "address"
        },
        {
          "internalType": "address",
          "name": "token1",
          "type": "address"
        },
        {
          "internalType": "enum ListStatus",
          "name": "status",
          "type": "uint8"
        }
      ],
      "stateMutability": "view",
      "type": "function"
    },
    {
      "inputs": [],
      "name": "pause",
      "outputs": [],
      "stateMutability": "nonpayable",
      "type": "function"
    },
    {
      "inputs": [],
      "name": "paused",
      "outputs": [
        {
          "internalType": "bool",
          "name": "",
          "type": "bool"
        }
      ],
      "stateMutability": "view",
      "type": "function"
    },
    {
      "inputs": [
        {
          "internalType": "address",
          "name": "account",
          "type": "address"
        },
        {
          "internalType": "uint256",
          "name": "principal",
          "type": "uint256"
        },
        {
          "components": [
            {
              "internalType": "uint32",
              "name": "accountant",
              "type": "uint32"
            }
          ],
          "internalType": "struct FeeRates",
          "name": "rates",
          "type": "tuple"
        },
        {
          "internalType": "bool",
          "name": "fromAllowance",
          "type": "bool"
        }
      ],
      "name": "payFeeTgrLogic",
      "outputs": [
        {
          "internalType": "uint256",
          "name": "feesPaid",
          "type": "uint256"
        }
      ],
      "stateMutability": "nonpayable",
      "type": "function"
    },
    {
      "inputs": [],
      "name": "prevNode",
      "outputs": [
        {
          "internalType": "address",
          "name": "",
          "type": "address"
        }
      ],
      "stateMutability": "view",
      "type": "function"
    },
    {
      "inputs": [],
      "name": "pulse_lp_reward",
      "outputs": [],
      "stateMutability": "nonpayable",
      "type": "function"
    },
    {
      "inputs": [],
      "name": "pulse_user_burn",
      "outputs": [],
      "stateMutability": "nonpayable",
      "type": "function"
    },
    {
      "inputs": [],
      "name": "pulse_vote_burn",
      "outputs": [],
      "stateMutability": "nonpayable",
      "type": "function"
    },
    {
      "inputs": [
        {
          "internalType": "enum ActionType",
          "name": "actionType",
          "type": "uint8"
        },
        {
          "internalType": "bool",
          "name": "blockReentry",
          "type": "bool"
        }
      ],
      "name": "registerAction",
      "outputs": [
        {
          "components": [
            {
              "internalType": "enum ActionType",
              "name": "actionType",
              "type": "uint8"
            },
            {
              "internalType": "uint256",
              "name": "session",
              "type": "uint256"
            },
            {
              "internalType": "uint256",
              "name": "lastSession",
              "type": "uint256"
            },
            {
              "internalType": "bool",
              "name": "isUserAction",
              "type": "bool"
            }
          ],
          "internalType": "struct ActionParams",
          "name": "actionParams",
          "type": "tuple"
        }
      ],
      "stateMutability": "nonpayable",
      "type": "function"
    },
    {
      "inputs": [],
      "name": "renounceOwnership",
      "outputs": [],
      "stateMutability": "nonpayable",
      "type": "function"
    },
    {
      "inputs": [],
      "name": "resume",
      "outputs": [],
      "stateMutability": "nonpayable",
      "type": "function"
    },
    {
      "inputs": [],
      "name": "session",
      "outputs": [
        {
          "internalType": "uint256",
          "name": "",
          "type": "uint256"
        }
      ],
      "stateMutability": "view",
      "type": "function"
    },
    {
      "inputs": [
        {
          "internalType": "enum ActionType",
          "name": "",
          "type": "uint8"
        }
      ],
      "name": "sessionsLastSeenBySType",
      "outputs": [
        {
          "internalType": "uint256",
          "name": "",
          "type": "uint256"
        }
      ],
      "stateMutability": "view",
      "type": "function"
    },
    {
      "inputs": [
        {
          "internalType": "enum ActionType",
          "name": "_sessionType",
          "type": "uint8"
        },
        {
          "components": [
            {
              "internalType": "uint32",
              "name": "accountant",
              "type": "uint32"
            }
          ],
          "internalType": "struct FeeRates",
          "name": "_feeRates",
          "type": "tuple"
        },
        {
          "internalType": "address",
          "name": "caller",
          "type": "address"
        }
      ],
      "name": "setFeeRates",
      "outputs": [],
      "stateMutability": "nonpayable",
      "type": "function"
    },
    {
      "inputs": [
        {
          "components": [
            {
              "internalType": "address",
              "name": "accountant",
              "type": "address"
            }
          ],
          "internalType": "struct FeeStores",
          "name": "_feeStores",
          "type": "tuple"
        },
        {
          "internalType": "address",
          "name": "caller",
          "type": "address"
        }
      ],
      "name": "setFeeStores",
      "outputs": [],
      "stateMutability": "nonpayable",
      "type": "function"
    },
    {
      "inputs": [
        {
          "internalType": "enum NodeType",
          "name": "nodeType",
          "type": "uint8"
        },
        {
          "internalType": "address",
          "name": "node",
          "type": "address"
        },
        {
          "internalType": "address",
          "name": "caller",
          "type": "address"
        }
      ],
      "name": "setNode",
      "outputs": [],
      "stateMutability": "nonpayable",
      "type": "function"
    },
    {
      "inputs": [],
      "name": "symbol",
      "outputs": [
        {
          "internalType": "string",
          "name": "",
          "type": "string"
        }
      ],
      "stateMutability": "view",
      "type": "function"
    },
    {
      "inputs": [],
      "name": "tgrBusd",
      "outputs": [
        {
          "internalType": "address",
          "name": "",
          "type": "address"
        }
      ],
      "stateMutability": "view",
      "type": "function"
    },
    {
      "inputs": [],
      "name": "tgrFtm",
      "outputs": [
        {
          "internalType": "address",
          "name": "",
          "type": "address"
        }
      ],
      "stateMutability": "view",
      "type": "function"
    },
    {
      "inputs": [],
      "name": "totalSupply",
      "outputs": [
        {
          "internalType": "uint256",
          "name": "",
          "type": "uint256"
        }
      ],
      "stateMutability": "view",
      "type": "function"
    },
    {
      "inputs": [
        {
          "internalType": "address",
          "name": "recipient",
          "type": "address"
        },
        {
          "internalType": "uint256",
          "name": "amount",
          "type": "uint256"
        }
      ],
      "name": "transfer",
      "outputs": [
        {
          "internalType": "bool",
          "name": "",
          "type": "bool"
        }
      ],
      "stateMutability": "nonpayable",
      "type": "function"
    },
    {
      "inputs": [
        {
          "internalType": "address",
          "name": "sender",
          "type": "address"
        },
        {
          "internalType": "address",
          "name": "recipient",
          "type": "address"
        },
        {
          "internalType": "uint256",
          "name": "amount",
          "type": "uint256"
        }
      ],
      "name": "transferDirectSafe",
      "outputs": [],
      "stateMutability": "nonpayable",
      "type": "function"
    },
    {
      "inputs": [
        {
          "internalType": "address",
          "name": "sender",
          "type": "address"
        },
        {
          "internalType": "address",
          "name": "recipient",
          "type": "address"
        },
        {
          "internalType": "uint256",
          "name": "amount",
          "type": "uint256"
        }
      ],
      "name": "transferFrom",
      "outputs": [
        {
          "internalType": "bool",
          "name": "",
          "type": "bool"
        }
      ],
      "stateMutability": "nonpayable",
      "type": "function"
    },
    {
      "inputs": [
        {
          "internalType": "address",
          "name": "newOwner",
          "type": "address"
        }
      ],
      "name": "transferOwnership",
      "outputs": [],
      "stateMutability": "nonpayable",
      "type": "function"
    },
    {
      "inputs": [],
      "name": "unregisterAction",
      "outputs": [],
      "stateMutability": "nonpayable",
      "type": "function"
    },
    {
      "inputs": [],
      "name": "user_burn",
      "outputs": [
        {
          "internalType": "uint256",
          "name": "latestTime",
          "type": "uint256"
        },
        {
          "internalType": "uint256",
          "name": "cycle",
          "type": "uint256"
        },
        {
          "internalType": "uint256",
          "name": "decayRate",
          "type": "uint256"
        },
        {
          "internalType": "address",
          "name": "account",
          "type": "address"
        },
        {
          "internalType": "uint256",
          "name": "accDecayPer1e12",
          "type": "uint256"
        },
        {
          "internalType": "uint256",
          "name": "sum_tokens",
          "type": "uint256"
        },
        {
          "internalType": "uint256",
          "name": "pending_burn",
          "type": "uint256"
        },
        {
          "internalType": "uint256",
          "name": "latestRound",
          "type": "uint256"
        }
      ],
      "stateMutability": "view",
      "type": "function"
    },
    {
      "inputs": [],
      "name": "vote_burn",
      "outputs": [
        {
          "internalType": "uint256",
          "name": "latestTime",
          "type": "uint256"
        },
        {
          "internalType": "uint256",
          "name": "cycle",
          "type": "uint256"
        },
        {
          "internalType": "uint256",
          "name": "decayRate",
          "type": "uint256"
        },
        {
          "internalType": "address",
          "name": "account",
          "type": "address"
        },
        {
          "internalType": "uint256",
          "name": "accDecayPer1e12",
          "type": "uint256"
        },
        {
          "internalType": "uint256",
          "name": "sum_tokens",
          "type": "uint256"
        },
        {
          "internalType": "uint256",
          "name": "pending_burn",
          "type": "uint256"
        },
        {
          "internalType": "uint256",
          "name": "latestRound",
          "type": "uint256"
        }
      ],
      "stateMutability": "view",
      "type": "function"
    },
    {
      "inputs": [
        {
          "internalType": "address",
          "name": "_prevNode",
          "type": "address"
        },
        {
          "internalType": "address",
          "name": "_nextNode",
          "type": "address"
        }
      ],
      "name": "wire",
      "outputs": [],
      "stateMutability": "nonpayable",
      "type": "function"
    },
    {
      "stateMutability": "payable",
      "type": "receive"
    }
  ],
  "bytecode": "0x60806040523480156200001157600080fd5b50604051620043ac380380620043ac833981016040819052620000349162000949565b6000805460ff1916905562000049336200037b565b603f80546001600160a01b0319166001600160a01b0383161790556200006c3390565b603b80546001600160a01b03929092166001600160a01b0319928316179055603c805482167370997970c51812dc3a010c7d01b50e0d17dc79c8179055603d80548216733c44cdddb6a900fa2b585dd299e03d12fa4293bc179055603e805482167390f79bf6eb2c4f870365e785982e1f101e93b906179055601e805482167315d34aaf54267db7d7c367839aaf71a00a2c6a65908117909155601f80548316739965507d1a55bcc2695c58ba16fb37d819b0a4dc1790556020805490921673976ea74026e726554db657fa54763abd0c3a0aa917825560408051610100810182524280825260029482018590526102b292820192909252606081019290925260006080830181905260a0830181905260c0830152909160e083019162000194919062000991565b90528051602155602080820151602255604080830151602355606080840151602480546001600160a01b0319166001600160a01b0392831617905560808086015160255560a08087015160265560c08088015160275560e097880151602855855161010081018752428082526002828a0181905260469883019890985297549094169484019490945260009183018290528201819052918101919091529283019162000241919062000991565b90528051602955602080820151602a55604080830151602b55606080840151602c80546001600160a01b0319166001600160a01b03909216919091179055608080850151602d5560a080860151602e5560c080870151602f5560e09687015160305584516101008101865242808252600497820188905261030996820196909652600094810185905292830184905290820183905281019190915292830191620002eb9162000991565b90528051603155602081015160325560408101516033556060810151603480546001600160a01b0319166001600160a01b03909216919091179055608081015160355560a081015160365560c081015160375560e0015160385562000374620003513390565b6200035f6012600a62000ab1565b6200036e90620f424062000ac2565b620003d9565b5062000bc9565b600e80546001600160a01b0383811663010000008181026301000000600160b81b031985161790945560405193909204169182907f8be0079c531659141344cd1fd0a4f28419497f9722a3daafe3b4186f6b6457e090600090a35050565b60408051808201909152600c81526b5a65726f206164647265737360a01b60208201526001600160a01b0383166200042f5760405162461bcd60e51b815260040162000426919062000b34565b60405180910390fd5b5080601c600082825462000444919062000b49565b9091555062000458905082826001620004a2565b6040518181526001600160a01b038316906000907fddf252ad1be2c89b69c2b068fc378daa952ba7f163c4a11628f55a4df523b3ef9060200160405180910390a35050565b505050565b620004ad836200072e565b1562000687576000620004c0846200077f565b9050620004ff6040518060400160405280600e81526020016d5f75706461746542616c616e636560901b815250826200086f60201b620023c31760201c565b801562000589576001600160a01b0384166000908152601d6020526040812080548392906200053090849062000b64565b9091555050603680548291906000906200054c90849062000b64565b9250508190555080601c600082825462000567919062000b64565b9091555050603780548291906000906200058390849062000b64565b90915550505b8115620005e2576001600160a01b0384166000908152601d602052604081208054859290620005ba90849062000b49565b909155505060368054849190600090620005d690849062000b49565b909155506200062e9050565b6001600160a01b0384166000908152601d6020526040812080548592906200060c90849062000b64565b9091555050603680548491906000906200062890849062000b64565b90915550505b6035546001600160a01b0385166000908152601d602052604090205464e8d4a51000916200065c9162000ac2565b62000668919062000991565b6001600160a01b03851660009081526039602052604090205550505050565b8015620006df576001600160a01b0383166000908152601d602052604081208054849290620006b890849062000b49565b9250508190555081603a6000828254620006d3919062000b49565b909155506200049d9050565b6001600160a01b0383166000908152601d6020526040812080548492906200070990849062000b64565b9250508190555081603a600082825462000724919062000b64565b9091555050505050565b601e546000906001600160a01b038381169116148015906200075e5750601f546001600160a01b03838116911614155b80156200077957506020546001600160a01b03838116911614155b92915050565b6001600160a01b038116600090815260396020908152604080832054603554601d90935290832054909164e8d4a5100091620007bc919062000ac2565b620007c8919062000991565b620007d4919062000b64565b6001600160a01b0383166000908152601d60205260409020549091508111156200086a576200086a6040518060400160405280601d81526020017f70656e64696e674275726e2065786365656473205f62616c616e63657300000081525082601d6000866001600160a01b03166001600160a01b0316815260200190815260200160002054620008c060201b620024081760201c565b919050565b620008bc82826040516024016200088892919062000b7e565b60408051601f198184030181529190526020810180516001600160e01b03908116632d839cb360e21b179091526200090f16565b5050565b6200049d838383604051602401620008db9392919062000ba2565b60408051601f198184030181529190526020810180516001600160e01b0390811663ca47c4eb60e01b179091526200090f16565b62000925816200092860201b6200244f1760201c565b50565b60006a636f6e736f6c652e6c6f679050600080835160208501845afa505050565b6000602082840312156200095c57600080fd5b81516001600160a01b03811681146200097457600080fd5b9392505050565b634e487b7160e01b600052601160045260246000fd5b600082620009af57634e487b7160e01b600052601260045260246000fd5b500490565b600181815b80851115620009f5578160001904821115620009d957620009d96200097b565b80851615620009e757918102915b93841c9390800290620009b9565b509250929050565b60008262000a0e5750600162000779565b8162000a1d5750600062000779565b816001811462000a36576002811462000a415762000a61565b600191505062000779565b60ff84111562000a555762000a556200097b565b50506001821b62000779565b5060208310610133831016604e8410600b841016171562000a86575081810a62000779565b62000a928383620009b4565b806000190482111562000aa95762000aa96200097b565b029392505050565b60006200097460ff841683620009fd565b600081600019048311821515161562000adf5762000adf6200097b565b500290565b6000815180845260005b8181101562000b0c5760208185018101518683018201520162000aee565b8181111562000b1f576000602083870101525b50601f01601f19169290920160200192915050565b60208152600062000974602083018462000ae4565b6000821982111562000b5f5762000b5f6200097b565b500190565b60008282101562000b795762000b796200097b565b500390565b60408152600062000b93604083018562000ae4565b90508260208301529392505050565b60608152600062000bb7606083018662000ae4565b60208301949094525060400152919050565b6137d38062000bd96000396000f3fe6080604052600436106103035760003560e01c80638456cb5911610190578063a9059cbb116100dc578063e729a45511610095578063ed2deb8b1161006f578063ed2deb8b14610a02578063f2fde38b14610a17578063f9a21e8a14610a37578063fe33b30214610a5757600080fd5b8063e729a455146109aa578063eca4c466146109bf578063ecd6f46a146109d557600080fd5b8063a9059cbb146108cf578063cd193c43146108ef578063cd537aa11461090f578063cdd9224c1461092f578063d5abeb011461094f578063dd62ed3e1461096457600080fd5b8063934923a3116101495780639dc29fac116101235780639dc29fac14610833578063a13c1f6714610853578063a150da2a1461088f578063a457c2d7146108af57600080fd5b8063934923a3146107a657806395d89b41146107c657806396ed28f9146107f257600080fd5b80638456cb591461070c578063893d20e8146107215780638da5cb5b1461072157806390e3677f1461074657806391fd0db714610766578063928879d61461078657600080fd5b806340c10f191161024f5780635e3568b8116102085780636c93564f116101e25780636c93564f1461068657806370a08231146106c2578063715018a6146106e257806373957289146106f757600080fd5b80635e3568b81461063057806365715c561461064657806368fb3c721461066657600080fd5b806340c10f1914610572578063431b3c30146105925780634be54827146105a757806354abe9d0146105d45780635c975abb146105f45780635d392daa1461060e57600080fd5b806310224711116102bc578063249dfad711610296578063249dfad714610492578063313ce567146104b75780633660777d146104d3578063395093511461055257600080fd5b8063102247111461040757806318160ddd1461044f57806323b872dd1461047257600080fd5b8063046f7da21461030f57806306fdde0314610326578063086a606c1461036a578063095ea7b31461037f57806309b16a22146103af5780630c3d536b146103e757600080fd5b3661030a57005b600080fd5b34801561031b57600080fd5b50610324610ab3565b005b34801561033257600080fd5b506040805180820190915260098152682a23a9102a37b5b2b760b91b60208201525b6040516103619190612eb4565b60405180910390f35b34801561037657600080fd5b50610324610b23565b34801561038b57600080fd5b5061039f61039a366004612ede565b610b37565b6040519015158152602001610361565b3480156103bb57600080fd5b506008546103cf906001600160a01b031681565b6040516001600160a01b039091168152602001610361565b3480156103f357600080fd5b506009546103cf906001600160a01b031681565b34801561041357600080fd5b5061043a610422366004612f17565b600d6020526000908152604090205463ffffffff1681565b60405163ffffffff9091168152602001610361565b34801561045b57600080fd5b50610464610b4e565b604051908152602001610361565b34801561047e57600080fd5b5061039f61048d366004612f32565b610b5d565b34801561049e57600080fd5b506000546103cf9061010090046001600160a01b031681565b3480156104c357600080fd5b5060405160128152602001610361565b3480156104df57600080fd5b50602954602a54602b54602c54602d54602e54602f5460305461050f979695946001600160a01b03169392919088565b604080519889526020890197909752958701949094526001600160a01b039092166060860152608085015260a084015260c083015260e082015261010001610361565b34801561055e57600080fd5b5061039f61056d366004612ede565b610c0e565b34801561057e57600080fd5b5061032461058d366004612ede565b610c22565b34801561059e57600080fd5b50610324610cd1565b3480156105b357600080fd5b506105c76105c2366004612f7c565b610d93565b6040516103619190612fdd565b3480156105e057600080fd5b506103246105ef366004613016565b6110ba565b34801561060057600080fd5b5060145461039f9060ff1681565b34801561061a57600080fd5b506106236111dd565b6040516103619190613031565b34801561063c57600080fd5b50610464600f5481565b34801561065257600080fd5b506001546103cf906001600160a01b031681565b34801561067257600080fd5b5061046461068136600461303f565b61120f565b34801561069257600080fd5b5060315460325460335460345460355460365460375460385461050f979695946001600160a01b03169392919088565b3480156106ce57600080fd5b506104646106dd366004613016565b611277565b3480156106ee57600080fd5b50610324611282565b34801561070357600080fd5b506103246112c0565b34801561071857600080fd5b506103246115ce565b34801561072d57600080fd5b50600e54630100000090046001600160a01b03166103cf565b34801561075257600080fd5b50610324610761366004613099565b61163c565b34801561077257600080fd5b506103246107813660046130cc565b6116da565b34801561079257600080fd5b506103246107a1366004613164565b611893565b3480156107b257600080fd5b506007546103cf906001600160a01b031681565b3480156107d257600080fd5b506040805180820190915260038152622a23a960e91b6020820152610354565b3480156107fe57600080fd5b506103cf61080d366004613099565b600b6020908152600092835260408084209091529082529020546001600160a01b031681565b34801561083f57600080fd5b5061032461084e366004612ede565b6119f6565b34801561085f57600080fd5b5060215460225460235460245460255460265460275460285461050f979695946001600160a01b03169392919088565b34801561089b57600080fd5b5061039f6108aa366004612f32565b611a32565b3480156108bb57600080fd5b5061039f6108ca366004612ede565b611ab9565b3480156108db57600080fd5b5061039f6108ea366004612ede565b611ac6565b3480156108fb57600080fd5b5061032461090a3660046131a4565b611ad3565b34801561091b57600080fd5b5061032461092a366004612f32565b611f6f565b34801561093b57600080fd5b5061032461094a36600461320f565b61204f565b34801561095b57600080fd5b50610464612214565b34801561097057600080fd5b5061046461097f366004613099565b6001600160a01b039182166000908152601b6020908152604080832093909416825291909152205490565b3480156109b657600080fd5b50610324612231565b3480156109cb57600080fd5b5061046460105481565b3480156109e157600080fd5b506104646109f0366004612f17565b60116020526000908152604090205481565b348015610a0e57600080fd5b50610324612287565b348015610a2357600080fd5b50610324610a32366004613016565b612323565b348015610a4357600080fd5b50600c546103cf906001600160a01b031681565b348015610a6357600080fd5b50610aa4610a72366004613016565b600a60205260009081526040902080546001909101546001600160a01b0391821691811690600160a01b900460ff1683565b6040516103619392919061328f565b600e54630100000090046001600160a01b03166001600160a01b0316336001600160a01b031614610b175760405162461bcd60e51b81526020600482015260096024820152682737ba1037bbb732b960b91b60448201526064015b60405180910390fd5b6014805460ff19169055565b6000610b2f6021612470565b505042602155565b6000610b44338484612518565b5060015b92915050565b6000610b58612610565b905090565b60006001600160a01b0384163314610bf9576001600160a01b0384166000908152601b6020908152604080832033845290915290205482811015610be35760405162461bcd60e51b815260206004820152601a60248201527f5472616e73666572206578636565647320616c6c6f77616e63650000000000006044820152606401610b0e565b610bf78533610bf286856132d2565b612518565b505b610c04848484612622565b5060019392505050565b6000610c1b338484612633565b9392505050565b600e546001600160a01b036301000000909104163314610c545760405162461bcd60e51b8152600401610b0e906132e9565b610c606012600a613402565b610c6e906302faf080613411565b81610c77612610565b610c819190613430565b1115610cc35760405162461bcd60e51b8152602060048201526011602482015270457863656564204d617820537570706c7960781b6044820152606401610b0e565b610ccd82826126ba565b5050565b60025433906001600160a01b0316811480610cf957506004546001600160a01b038281169116145b80610d1157506005546001600160a01b038281169116145b610d2d5760405162461bcd60e51b8152600401610b0e90613448565b6000601260135460148110610d4457610d44613477565b602091828204019190066101000a81548160ff02191690836005811115610d6d57610d6d612fb3565b021790555060135415610d905760138054906000610d8a8361348d565b91905055505b50565b60408051608081018252600080825260208201819052918101829052606081019190915260025433906001600160a01b0316811480610ddf57506004546001600160a01b038281169116145b80610df757506005546001600160a01b038281169116145b610e135760405162461bcd60e51b8152600401610b0e90613448565b60145460ff1615610e565760405162461bcd60e51b815260206004820152600d60248201526c14de5cdd195b481c185d5cd959609a1b6044820152606401610b0e565b6000846005811115610e6a57610e6a612fb3565b03610ea85760405162461bcd60e51b815260206004820152600e60248201526d24b73b30b634b21030b1ba34b7b760911b6044820152606401610b0e565b8215610f515760005b6013548111610f4f57846005811115610ecc57610ecc612fb3565b60128260148110610edf57610edf613477565b602081049091015460ff601f9092166101000a9004166005811115610f0657610f06612fb3565b03610f3d5760405162461bcd60e51b81526020600482015260076024820152665265656e74727960c81b6044820152606401610b0e565b80610f47816134a4565b915050610eb1565b505b601354158015610f78575060125460009060ff166005811115610f7657610f76612fb3565b145b610f925760138054906000610f8c836134a4565b91905055505b601460135410610fd55760405162461bcd60e51b815260206004820152600e60248201526d537461636b206f766572666c6f7760901b6044820152606401610b0e565b83601260135460148110610feb57610feb613477565b602091828204019190066101000a81548160ff0219169083600581111561101457611014612fb3565b02179055508184600581111561102c5761102c612fb3565b9081600581111561103f5761103f612fb3565b90525060135415606083015260405160009061107390439032906020019182526001600160a01b0316602082015260400190565b6040516020818303038152906040528051906020012060001c905080600f54146110a257600f80546010558190555b5050600f546020820152601054604082015292915050565b60005461010090046001600160a01b03163314806110d757503330145b806111055750600e54630100000090046001600160a01b03166001600160a01b0316336001600160a01b0316145b6111215760405162461bcd60e51b8152600401610b0e906134bd565b6001600160a01b03811630146111b1576001546001600160a01b03908116906354abe9d0908316156111535782611155565b305b6040516001600160e01b031960e084901b1681526001600160a01b039091166004820152602401600060405180830381600087803b15801561119657600080fd5b505af11580156111aa573d6000803e3d6000fd5b5050505050565b6040517ffd3415c24b2b4519f08b7935c13f86ea010c77b3ff9bf448a474ae3b2414fce090600090a150565b60006012601354601481106111f4576111f4613477565b602081049091015460ff601f9092166101000a900416919050565b60025460009033906001600160a01b031681148061123a57506004546001600160a01b038281169116145b8061125257506005546001600160a01b038281169116145b61126e5760405162461bcd60e51b8152600401610b0e90613448565b50949350505050565b6000610b488261276e565b600e546001600160a01b0363010000009091041633146112b45760405162461bcd60e51b8152600401610b0e906132e9565b6112be60006127d0565b565b601c54602080546001600160a01b039081166000908152601d909252604080832054601f548316845281842054601e5490931684529220546036546113059190613430565b61130f9190613430565b6113199190613430565b1461139a5760405162461bcd60e51b8152602060048201526044602482018190527f73756d5f746f6b656e73202b205f62616c5b74677266746d5d202b205f62616c908201527f5b74677268747a202b205f62616c5b766f74657320213d205f746f74616c537560648201526370706c7960e01b608482015260a401610b0e565b603654603e546001600160a01b039081166000908152601d602052604080822054603d548416835281832054603c548516845282842054603b5490951684529190922054919290916113ec9190613430565b6113f69190613430565b6114009190613430565b1461147d5760405162461bcd60e51b815260206004820152604160248201527f5f62616c5b61646d696e5d202b205f62616c5b616c6963655d202b205f62616c60448201527f5b626f625d202b205f62616c5b6361726f6c5d20213d2073756d5f746f6b656e6064820152607360f81b608482015260a401610b0e565b60375460365460009161148f916132d2565b603e549091506000906114aa906001600160a01b0316611277565b603d546114bf906001600160a01b0316611277565b603c546114d4906001600160a01b0316611277565b603b546114e9906001600160a01b0316611277565b6114f39190613430565b6114fd9190613430565b6115079190613430565b90506000818310156115245761151d83836132d2565b9050611531565b61152e82846132d2565b90505b61156e60405180606001604052806031815260200161376d603191398461155d8464e8d4a51000613411565b61156791906134e7565b838661282e565b8261157c82620f4240613411565b106115c95760405162461bcd60e51b815260206004820152601a60248201527f4572726f7220657863656564732061206d696c6c696f6e2d74680000000000006044820152606401610b0e565b505050565b600e54630100000090046001600160a01b03166001600160a01b0316336001600160a01b03161461162d5760405162461bcd60e51b81526020600482015260096024820152682737ba1037bbb732b960b91b6044820152606401610b0e565b6014805460ff19166001179055565b600e54630100000090046001600160a01b03166001600160a01b0316336001600160a01b0316146116a25760405162461bcd60e51b815260206004820152601060248201526f496e76616c69642063616c6c6572203360801b6044820152606401610b0e565b60008054610100600160a81b0319166101006001600160a01b0394851602179055600180546001600160a01b03191691909216179055565b60005461010090046001600160a01b03163314806116f757503330145b806117255750600e54630100000090046001600160a01b03166001600160a01b0316336001600160a01b0316145b6117415760405162461bcd60e51b8152600401610b0e906134bd565b6001600160a01b038116301461185557600e5462010000900460ff16156117cf57604051634f18125b60e01b815273__$88bebae22a3ad6e62b56c303176513ecf8$__90634f18125b9061179e908690600d908790600401613509565b60006040518083038186803b1580156117b657600080fd5b505af41580156117ca573d6000803e3d6000fd5b505050505b60006001600160a01b038216156117e657816117e8565b305b6001546040516391fd0db760e01b81529192506001600160a01b0316906391fd0db79061181d90879087908690600401613532565b600060405180830381600087803b15801561183757600080fd5b505af115801561184b573d6000803e3d6000fd5b5050505050505050565b7fb4040436d4754da72f29d5b97fe68448f30d44ac0e08b33545cbf6f28b7641d98383604051611886929190613564565b60405180910390a1505050565b60005461010090046001600160a01b03163314806118b057503330145b806118de5750600e54630100000090046001600160a01b03166001600160a01b0316336001600160a01b0316145b6118fa5760405162461bcd60e51b8152600401610b0e906134bd565b6001600160a01b03811630146119c55760405163085b199160e11b815273__$88bebae22a3ad6e62b56c303176513ecf8$__906310b63322906119469086908690600290600401613596565b60006040518083038186803b15801561195e57600080fd5b505af4158015611972573d6000803e3d6000fd5b506000925050506001600160a01b0382161561198e5781611990565b305b6001546040516349443ceb60e11b81529192506001600160a01b03169063928879d69061181d908790879086906004016135be565b7fb45c42dda0a5ab1d1078e0afeda2976363eff9496a93644e726862f1f06186b883836040516118869291906135ee565b600e546001600160a01b036301000000909104163314611a285760405162461bcd60e51b8152600401610b0e906132e9565b610ccd8282612877565b60408051808201909152600c81526b5a65726f206164647265737360a01b60208201526000906001600160a01b038516611a7f5760405162461bcd60e51b8152600401610b0e9190612eb4565b506001600160a01b038085166000908152601b6020908152604080832093871683529290522054610c049085908590610bf29086906132d2565b6000610c1b338484611a32565b6000610b44338484612622565b60005461010090046001600160a01b0316331480611af057503330145b80611b1e5750600e54630100000090046001600160a01b03166001600160a01b0316336001600160a01b0316145b611b3a5760405162461bcd60e51b8152600401610b0e906134bd565b6001600160a01b0381163014611f2b57600e5460ff1615611ea1576040518060600160405280856001600160a01b03168152602001846001600160a01b03168152602001836003811115611b9057611b90612fb3565b90526001600160a01b038087166000908152600a6020908152604091829020845181549085166001600160a01b0319918216178255918501516001820180549190951692811683178555928501519093909290916001600160a81b031990911617600160a01b836003811115611c0857611c08612fb3565b021790555050506001600160a01b038085166000818152600b60208181526040808420898716855282528084208054878d166001600160a01b03199182168117909255938352818520958552949091529182902080549091169092179091556002549051633fe59dbb60e11b815273__$88bebae22a3ad6e62b56c303176513ecf8$__92637fcb3b7692611cba92899289921690730dcd1bf9a1b36ce34237eeafef220932846bcd8290600401613614565b602060405180830381865af4158015611cd7573d6000803e3d6000fd5b505050506040513d601f19601f82011682018060405250810190611cfb919061363f565b15611d1c57600780546001600160a01b0319166001600160a01b0387161790555b600254604051633fe59dbb60e11b815273__$88bebae22a3ad6e62b56c303176513ecf8$__91637fcb3b7691611d7891889188916001600160a01b031690735fc8d32690cc91d4c39d9d3abcbd16989f87570790600401613614565b602060405180830381865af4158015611d95573d6000803e3d6000fd5b505050506040513d601f19601f82011682018060405250810190611db9919061363f565b15611dda57600880546001600160a01b0319166001600160a01b0387161790555b604051633fe59dbb60e11b815273__$88bebae22a3ad6e62b56c303176513ecf8$__90637fcb3b7690611e3f908790879073b7f8bc63bbcad18155201308c8f3540b07f84f5e90735fc8d32690cc91d4c39d9d3abcbd16989f87570790600401613614565b602060405180830381865af4158015611e5c573d6000803e3d6000fd5b505050506040513d601f19601f82011682018060405250810190611e80919061363f565b15611ea157600980546001600160a01b0319166001600160a01b0387161790555b60006001600160a01b03821615611eb85781611eba565b305b60015460405163cd193c4360e01b81529192506001600160a01b03169063cd193c4390611ef3908990899089908990889060040161365c565b600060405180830381600087803b158015611f0d57600080fd5b505af1158015611f21573d6000803e3d6000fd5b50505050506111aa565b7f7af36d96fdc569564b9fadb22716716fe33463cb7fc8dca4fbd79d40448acdf285858585604051611f60949392919061369e565b60405180910390a15050505050565b60055433906001600160a01b0316811480611f9757506004546001600160a01b038281169116145b80611fbb57506001600160a01b038181166000908152600a60205260409020541615155b604051806040016040528060098152602001682337b93134b23232b760b91b81525090611ffb5760405162461bcd60e51b8152600401610b0e9190612eb4565b506001600160a01b0384166000908152601d6020526040902054821115612038576001600160a01b0384166000908152601d602052604090205491505b811561204957612049848484612981565b50505050565b60005461010090046001600160a01b031633148061206c57503330145b8061209a5750600e54630100000090046001600160a01b03166001600160a01b0316336001600160a01b0316145b6120b65760405162461bcd60e51b8152600401610b0e906134bd565b6001600160a01b03811630146121d357600e54610100900460ff161561214a57604051633d8d54b760e11b8152600c600482015282516001600160a01b0316602482015273__$88bebae22a3ad6e62b56c303176513ecf8$__90637b1aa96e9060440160006040518083038186803b15801561213157600080fd5b505af4158015612145573d6000803e3d6000fd5b505050505b60006001600160a01b038216156121615781612163565b305b600154604051633376489360e21b815285516001600160a01b039081166004830152808416602483015292935091169063cdd9224c90604401600060405180830381600087803b1580156121b657600080fd5b505af11580156121ca573d6000803e3d6000fd5b50505050505050565b60405182516001600160a01b031681527f275664547227ddbc7a8a732c07c9346f2f4520de70c2088665cc6809534212c09060200160405180910390a15050565b6122206012600a613402565b61222e906302faf080613411565b81565b600061223d6029612470565b602c546001600160a01b03166000818152601d60205260409020549192506122809164e8d4a5100090612271908590613411565b61227b91906134e7565b612877565b5042602955565b60006122936031612470565b90508015610d90576037546036546000916122ad916132d2565b9050600064e8d4a510006122c18484613411565b6122cb91906134e7565b905080603160060160008282546122e29190613430565b90915550506036546122f98264e8d4a51000613411565b61230391906134e7565b60358054600090612315908490613430565b909155505042603155505050565b600e546001600160a01b0363010000009091041633146123555760405162461bcd60e51b8152600401610b0e906132e9565b6001600160a01b0381166123ba5760405162461bcd60e51b815260206004820152602660248201527f4f776e61626c653a206e6577206f776e657220697320746865207a65726f206160448201526564647265737360d01b6064820152608401610b0e565b610d90816127d0565b610ccd82826040516024016123d99291906136d4565b60408051601f198184030181529190526020810180516001600160e01b0316632d839cb360e21b179052612ada565b6115c9838383604051602401612420939291906136f6565b60408051601f198184030181529190526020810180516001600160e01b031663ca47c4eb60e01b179052612ada565b60006a636f6e736f6c652e6c6f679050600080835160208501845afa505050565b60008082600101544261248391906134e7565b905082600701548111156125125760008360070154826124a391906132d2565b60078501839055428555600093509050825b8181101561250f576124c96005600a61371b565b60028601546124dd8664e8d4a510006132d2565b6124e79190613411565b6124f191906134e7565b6124fb9085613430565b935080612507816134a4565b9150506124b5565b50505b50919050565b60408051808201909152600c81526b5a65726f206164647265737360a01b60208201526001600160a01b0384166125625760405162461bcd60e51b8152600401610b0e9190612eb4565b5060408051808201909152600c81526b5a65726f206164647265737360a01b60208201526001600160a01b0383166125ad5760405162461bcd60e51b8152600401610b0e9190612eb4565b506001600160a01b038381166000818152601b602090815260408083209487168084529482529182902085905590518481527f8c5be1e5ebec7d5bd14f71427d1e84f3dd0314c0f7b2291e5b200ac8c7c3b92591015b60405180910390a3505050565b603754601c54600091610b58916132d2565b80156115c9576115c9838383612981565b60408051808201909152600c81526b5a65726f206164647265737360a01b60208201526000906001600160a01b0385166126805760405162461bcd60e51b8152600401610b0e9190612eb4565b506001600160a01b038085166000908152601b6020908152604080832093871683529290522054610c049085908590610bf2908690613430565b60408051808201909152600c81526b5a65726f206164647265737360a01b60208201526001600160a01b0383166127045760405162461bcd60e51b8152600401610b0e9190612eb4565b5080601c60008282546127179190613430565b90915550612729905082826001612ae3565b6040518181526001600160a01b038316906000907fddf252ad1be2c89b69c2b068fc378daa952ba7f163c4a11628f55a4df523b3ef9060200160405180910390a35050565b600061277982612d3c565b156127b057600061278983612d88565b6001600160a01b0384166000908152601d6020526040902054909150610c1b9082906132d2565b506001600160a01b0381166000908152601d60205260409020545b919050565b600e80546001600160a01b0383811663010000008181026301000000600160b81b031985161790945560405193909204169182907f8be0079c531659141344cd1fd0a4f28419497f9722a3daafe3b4186f6b6457e090600090a35050565b612049848484846040516024016128489493929190613727565b60408051601f198184030181529190526020810180516001600160e01b031663a7a8785360e01b179052612ada565b60408051808201909152600c81526b5a65726f206164647265737360a01b60208201526001600160a01b0383166128c15760405162461bcd60e51b8152600401610b0e9190612eb4565b5060006128cd8361276e565b9050818110156040518060400160405280600f81526020016e457863656564732062616c616e636560881b815250906129195760405162461bcd60e51b8152600401610b0e9190612eb4565b5061292683836000612ae3565b81601c600082825461293891906132d2565b909155506129439050565b6040518281526000906001600160a01b038516907fddf252ad1be2c89b69c2b068fc378daa952ba7f163c4a11628f55a4df523b3ef90602001612603565b60408051808201909152600c81526b5a65726f206164647265737360a01b60208201526001600160a01b0384166129cb5760405162461bcd60e51b8152600401610b0e9190612eb4565b5060408051808201909152600c81526b5a65726f206164647265737360a01b60208201526001600160a01b038316612a165760405162461bcd60e51b8152600401610b0e9190612eb4565b506000612a228461276e565b9050818110156040518060400160405280600f81526020016e457863656564732062616c616e636560881b81525090612a6e5760405162461bcd60e51b8152600401610b0e9190612eb4565b50612a7b84836000612ae3565b612a8783836001612ae3565b826001600160a01b0316846001600160a01b03167fddf252ad1be2c89b69c2b068fc378daa952ba7f163c4a11628f55a4df523b3ef84604051612acc91815260200190565b60405180910390a350505050565b610d908161244f565b612aec83612d3c565b15612c9f576000612afc84612d88565b9050612b2e6040518060400160405280600e81526020016d5f75706461746542616c616e636560901b815250826123c3565b8015612baf576001600160a01b0384166000908152601d602052604081208054839290612b5c9084906132d2565b909155505060368054829190600090612b769084906132d2565b9250508190555080601c6000828254612b8f91906132d2565b909155505060378054829190600090612ba99084906132d2565b90915550505b8115612c02576001600160a01b0384166000908152601d602052604081208054859290612bdd908490613430565b909155505060368054849190600090612bf7908490613430565b90915550612c4a9050565b6001600160a01b0384166000908152601d602052604081208054859290612c2a9084906132d2565b909155505060368054849190600090612c449084906132d2565b90915550505b6035546001600160a01b0385166000908152601d602052604090205464e8d4a5100091612c7691613411565b612c8091906134e7565b6001600160a01b03851660009081526039602052604090205550505050565b8015612cf1576001600160a01b0383166000908152601d602052604081208054849290612ccd908490613430565b9250508190555081603a6000828254612ce69190613430565b909155506115c99050565b6001600160a01b0383166000908152601d602052604081208054849290612d199084906132d2565b9250508190555081603a6000828254612d3291906132d2565b9091555050505050565b601e546000906001600160a01b03838116911614801590612d6b5750601f546001600160a01b03838116911614155b8015610b485750506020546001600160a01b039081169116141590565b6001600160a01b038116600090815260396020908152604080832054603554601d90935290832054909164e8d4a5100091612dc39190613411565b612dcd91906134e7565b612dd791906132d2565b6001600160a01b0383166000908152601d60205260409020549091508111156127cb576127cb6040518060400160405280601d81526020017f70656e64696e674275726e2065786365656473205f62616c616e63657300000081525082601d6000866001600160a01b03166001600160a01b0316815260200190815260200160002054612408565b6112be613756565b6000815180845260005b81811015612e8d57602081850181015186830182015201612e71565b81811115612e9f576000602083870101525b50601f01601f19169290920160200192915050565b602081526000610c1b6020830184612e67565b80356001600160a01b03811681146127cb57600080fd5b60008060408385031215612ef157600080fd5b612efa83612ec7565b946020939093013593505050565b8035600681106127cb57600080fd5b600060208284031215612f2957600080fd5b610c1b82612f08565b600080600060608486031215612f4757600080fd5b612f5084612ec7565b9250612f5e60208501612ec7565b9150604084013590509250925092565b8015158114610d9057600080fd5b60008060408385031215612f8f57600080fd5b612f9883612f08565b91506020830135612fa881612f6e565b809150509250929050565b634e487b7160e01b600052602160045260246000fd5b60068110612fd957612fd9612fb3565b9052565b6000608082019050612ff0828451612fc9565b602083015160208301526040830151604083015260608301511515606083015292915050565b60006020828403121561302857600080fd5b610c1b82612ec7565b60208101610b488284612fc9565b600080600080848603608081121561305657600080fd5b61305f86612ec7565b94506020868101359450603f198201121561307957600080fd5b50604085019150606085013561308e81612f6e565b939692955090935050565b600080604083850312156130ac57600080fd5b6130b583612ec7565b91506130c360208401612ec7565b90509250929050565b600080600083850360608112156130e257600080fd5b6130eb85612f08565b93506020601f19820112156130ff57600080fd5b506040516020810181811067ffffffffffffffff8211171561313157634e487b7160e01b600052604160045260246000fd5b604052602085013563ffffffff8116811461314b57600080fd5b8152915061315b60408501612ec7565b90509250925092565b60008060006060848603121561317957600080fd5b83356005811061318857600080fd5b925061319660208501612ec7565b915061315b60408501612ec7565b600080600080600060a086880312156131bc57600080fd5b6131c586612ec7565b94506131d360208701612ec7565b93506131e160408701612ec7565b92506060860135600481106131f557600080fd5b915061320360808701612ec7565b90509295509295909350565b600080828403604081121561322357600080fd5b602081121561323157600080fd5b506040516020810181811067ffffffffffffffff8211171561326357634e487b7160e01b600052604160045260246000fd5b60405261326f84612ec7565b815291506130c360208401612ec7565b60048110612fd957612fd9612fb3565b6001600160a01b03848116825283166020820152606081016132b4604083018461327f565b949350505050565b634e487b7160e01b600052601160045260246000fd5b6000828210156132e4576132e46132bc565b500390565b6020808252818101527f4f776e61626c653a2063616c6c6572206973206e6f7420746865206f776e6572604082015260600190565b600181815b8085111561335957816000190482111561333f5761333f6132bc565b8085161561334c57918102915b93841c9390800290613323565b509250929050565b60008261337057506001610b48565b8161337d57506000610b48565b8160018114613393576002811461339d576133b9565b6001915050610b48565b60ff8411156133ae576133ae6132bc565b50506001821b610b48565b5060208310610133831016604e8410600b84101617156133dc575081810a610b48565b6133e6838361331e565b80600019048211156133fa576133fa6132bc565b029392505050565b6000610c1b60ff841683613361565b600081600019048311821515161561342b5761342b6132bc565b500290565b60008219821115613443576134436132bc565b500190565b6020808252601590820152742737ba10309039b2b9b9b4b7b71036b0b730b3b2b960591b604082015260600190565b634e487b7160e01b600052603260045260246000fd5b60008161349c5761349c6132bc565b506000190190565b6000600182016134b6576134b66132bc565b5060010190565b60208082526010908201526f496e76616c69642063616c6c6572203160801b604082015260600190565b60008261350457634e487b7160e01b600052601260045260246000fd5b500490565b606081016135178286612fc9565b83602083015263ffffffff8351166040830152949350505050565b606081016135408286612fc9565b925163ffffffff1660208201526001600160a01b0391909116604090910152919050565b604081016135728285612fc9565b63ffffffff83511660208301529392505050565b60058110612fd957612fd9612fb3565b606081016135a48286613586565b6001600160a01b0393909316602082015260400152919050565b606081016135cc8286613586565b6001600160a01b03938416602083015291909216604090920191909152919050565b604081016135fc8285613586565b6001600160a01b039290921660209190910152919050565b6001600160a01b03948516815292841660208401529083166040830152909116606082015260800190565b60006020828403121561365157600080fd5b8151610c1b81612f6e565b6001600160a01b0386811682528581166020830152848116604083015260a082019061368b606084018661327f565b8084166080840152509695505050505050565b6001600160a01b038581168252848116602083015283166040820152608081016136cb606083018461327f565b95945050505050565b6040815260006136e76040830185612e67565b90508260208301529392505050565b6060815260006137096060830186612e67565b60208301949094525060400152919050565b6000610c1b8383613361565b60808152600061373a6080830187612e67565b6020830195909552506040810192909252606090910152919050565b634e487b7160e01b600052605160045260246000fdfe636865636b3a20316531325f6572726f725f726174652c206162735f6572726f722c206e65745f636f6c6c656374697665a2646970667358221220b81e6579af42d46a9ee3d00101608de3856fbf47d9fa938c14a9312c8db0099b64736f6c634300080e0033",
  "linkReferences": {
    "contracts/libraries/WireLibrary.sol": {
      "WireLibrary": [
        {
          "length": 20,
          "start": 9034
        },
        {
          "length": 20,
          "start": 9458
        },
        {
          "length": 20,
          "start": 10321
        },
        {
          "length": 20,
          "start": 10503
        },
        {
          "length": 20,
          "start": 10690
        },
        {
          "length": 20,
          "start": 11477
        }
      ]
    }
  },
  "deployedLinkReferences": {
    "contracts/libraries/WireLibrary.sol": {
      "WireLibrary": [
        {
          "length": 20,
          "start": 6001
        },
        {
          "length": 20,
          "start": 6425
        },
        {
          "length": 20,
          "start": 7288
        },
        {
          "length": 20,
          "start": 7470
        },
        {
          "length": 20,
          "start": 7657
        },
        {
          "length": 20,
          "start": 8444
        }
      ]
    }
  }
}