{
  "_format": "hh-sol-artifact-1",
  "contractName": "TGRToken",
  "sourceName": "contracts/farm/TGRToken.sol",
  "abi": [
    {
      "inputs": [
        {
          "internalType": "address",
          "name": "_analyticMath",
          "type": "address"
        }
      ],
      "stateMutability": "nonpayable",
      "type": "constructor"
    },
    {
      "anonymous": false,
      "inputs": [
        {
          "indexed": true,
          "internalType": "address",
          "name": "owner",
          "type": "address"
        },
        {
          "indexed": true,
          "internalType": "address",
          "name": "spender",
          "type": "address"
        },
        {
          "indexed": false,
          "internalType": "uint256",
          "name": "value",
          "type": "uint256"
        }
      ],
      "name": "Approval",
      "type": "event"
    },
    {
      "anonymous": false,
      "inputs": [],
      "name": "Begin",
      "type": "event"
    },
    {
      "anonymous": false,
      "inputs": [
        {
          "indexed": false,
          "internalType": "address",
          "name": "pair",
          "type": "address"
        },
        {
          "indexed": false,
          "internalType": "address",
          "name": "tokenA",
          "type": "address"
        },
        {
          "indexed": false,
          "internalType": "address",
          "name": "tokenB",
          "type": "address"
        },
        {
          "indexed": false,
          "internalType": "enum ListStatus",
          "name": "status",
          "type": "uint8"
        }
      ],
      "name": "ChangePairStatus",
      "type": "event"
    },
    {
      "anonymous": false,
      "inputs": [
        {
          "indexed": false,
          "internalType": "address",
          "name": "token",
          "type": "address"
        },
        {
          "indexed": false,
          "internalType": "address",
          "name": "msgSender",
          "type": "address"
        }
      ],
      "name": "DeenlistToken",
      "type": "event"
    },
    {
      "anonymous": false,
      "inputs": [
        {
          "indexed": true,
          "internalType": "address",
          "name": "previousOwner",
          "type": "address"
        },
        {
          "indexed": true,
          "internalType": "address",
          "name": "newOwner",
          "type": "address"
        }
      ],
      "name": "OwnershipTransferred",
      "type": "event"
    },
    {
      "anonymous": false,
      "inputs": [
        {
          "indexed": false,
          "internalType": "enum ActionType",
          "name": "_sessionType",
          "type": "uint8"
        },
        {
          "components": [
            {
              "internalType": "uint32",
              "name": "accountant",
              "type": "uint32"
            }
          ],
          "indexed": false,
          "internalType": "struct FeeRates",
          "name": "_feeRates",
          "type": "tuple"
        }
      ],
      "name": "SetFeeRates",
      "type": "event"
    },
    {
      "anonymous": false,
      "inputs": [
        {
          "components": [
            {
              "internalType": "address",
              "name": "accountant",
              "type": "address"
            }
          ],
          "indexed": false,
          "internalType": "struct FeeStores",
          "name": "_feeStores",
          "type": "tuple"
        }
      ],
      "name": "SetFeeStores",
      "type": "event"
    },
    {
      "anonymous": false,
      "inputs": [
        {
          "indexed": false,
          "internalType": "enum NodeType",
          "name": "nodeType",
          "type": "uint8"
        },
        {
          "indexed": false,
          "internalType": "address",
          "name": "node",
          "type": "address"
        }
      ],
      "name": "SetNode",
      "type": "event"
    },
    {
      "anonymous": false,
      "inputs": [
        {
          "indexed": true,
          "internalType": "address",
          "name": "from",
          "type": "address"
        },
        {
          "indexed": true,
          "internalType": "address",
          "name": "to",
          "type": "address"
        },
        {
          "indexed": false,
          "internalType": "uint256",
          "name": "value",
          "type": "uint256"
        }
      ],
      "name": "Transfer",
      "type": "event"
    },
    {
      "inputs": [],
      "name": "MAX_SUPPLY",
      "outputs": [
        {
          "internalType": "uint256",
          "name": "",
          "type": "uint256"
        }
      ],
      "stateMutability": "view",
      "type": "function"
    },
    {
      "inputs": [
        {
          "internalType": "address",
          "name": "_owner",
          "type": "address"
        },
        {
          "internalType": "address",
          "name": "_spender",
          "type": "address"
        },
        {
          "internalType": "uint256",
          "name": "subtractedValue",
          "type": "uint256"
        }
      ],
      "name": "_decreaseAllowance",
      "outputs": [
        {
          "internalType": "bool",
          "name": "",
          "type": "bool"
        }
      ],
      "stateMutability": "nonpayable",
      "type": "function"
    },
    {
      "inputs": [
        {
          "internalType": "address",
          "name": "_owner",
          "type": "address"
        },
        {
          "internalType": "address",
          "name": "_spender",
          "type": "address"
        }
      ],
      "name": "allowance",
      "outputs": [
        {
          "internalType": "uint256",
          "name": "",
          "type": "uint256"
        }
      ],
      "stateMutability": "view",
      "type": "function"
    },
    {
      "inputs": [
        {
          "internalType": "address",
          "name": "spender",
          "type": "address"
        },
        {
          "internalType": "uint256",
          "name": "amount",
          "type": "uint256"
        }
      ],
      "name": "approve",
      "outputs": [
        {
          "internalType": "bool",
          "name": "",
          "type": "bool"
        }
      ],
      "stateMutability": "nonpayable",
      "type": "function"
    },
    {
      "inputs": [
        {
          "internalType": "address",
          "name": "account",
          "type": "address"
        }
      ],
      "name": "balanceOf",
      "outputs": [
        {
          "internalType": "uint256",
          "name": "",
          "type": "uint256"
        }
      ],
      "stateMutability": "view",
      "type": "function"
    },
    {
      "inputs": [
        {
          "internalType": "address",
          "name": "caller",
          "type": "address"
        }
      ],
      "name": "begin",
      "outputs": [],
      "stateMutability": "nonpayable",
      "type": "function"
    },
    {
      "inputs": [
        {
          "internalType": "address",
          "name": "from",
          "type": "address"
        },
        {
          "internalType": "uint256",
          "name": "amount",
          "type": "uint256"
        }
      ],
      "name": "burn",
      "outputs": [],
      "stateMutability": "nonpayable",
      "type": "function"
    },
    {
      "inputs": [
        {
          "internalType": "uint256",
          "name": "_buysell_burn_rate",
          "type": "uint256"
        },
        {
          "internalType": "uint256",
          "name": "_shift_burn_rate",
          "type": "uint256"
        }
      ],
      "name": "changeBurnRates",
      "outputs": [],
      "stateMutability": "nonpayable",
      "type": "function"
    },
    {
      "inputs": [
        {
          "internalType": "address",
          "name": "pair",
          "type": "address"
        },
        {
          "internalType": "address",
          "name": "token0",
          "type": "address"
        },
        {
          "internalType": "address",
          "name": "token1",
          "type": "address"
        },
        {
          "internalType": "enum ListStatus",
          "name": "status",
          "type": "uint8"
        },
        {
          "internalType": "address",
          "name": "caller",
          "type": "address"
        }
      ],
      "name": "changePairStatus",
      "outputs": [],
      "stateMutability": "nonpayable",
      "type": "function"
    },
    {
      "inputs": [],
      "name": "checkForConsistency",
      "outputs": [
        {
          "internalType": "uint256",
          "name": "pending_collective",
          "type": "uint256"
        },
        {
          "internalType": "uint256",
          "name": "pending_marginal",
          "type": "uint256"
        },
        {
          "internalType": "uint256",
          "name": "abs_error",
          "type": "uint256"
        },
        {
          "internalType": "uint256",
          "name": "error_rate",
          "type": "uint256"
        }
      ],
      "stateMutability": "view",
      "type": "function"
    },
    {
      "inputs": [],
      "name": "decimals",
      "outputs": [
        {
          "internalType": "uint8",
          "name": "",
          "type": "uint8"
        }
      ],
      "stateMutability": "view",
      "type": "function"
    },
    {
      "inputs": [
        {
          "internalType": "address",
          "name": "spender",
          "type": "address"
        },
        {
          "internalType": "uint256",
          "name": "subtractedValue",
          "type": "uint256"
        }
      ],
      "name": "decreaseAllowance",
      "outputs": [
        {
          "internalType": "bool",
          "name": "",
          "type": "bool"
        }
      ],
      "stateMutability": "nonpayable",
      "type": "function"
    },
    {
      "inputs": [
        {
          "internalType": "enum ActionType",
          "name": "",
          "type": "uint8"
        }
      ],
      "name": "feeRates",
      "outputs": [
        {
          "internalType": "uint32",
          "name": "accountant",
          "type": "uint32"
        }
      ],
      "stateMutability": "view",
      "type": "function"
    },
    {
      "inputs": [],
      "name": "feeStores",
      "outputs": [
        {
          "internalType": "address",
          "name": "accountant",
          "type": "address"
        }
      ],
      "stateMutability": "view",
      "type": "function"
    },
    {
      "inputs": [],
      "name": "getCurrentActionType",
      "outputs": [
        {
          "internalType": "enum ActionType",
          "name": "",
          "type": "uint8"
        }
      ],
      "stateMutability": "view",
      "type": "function"
    },
    {
      "inputs": [],
      "name": "getOwner",
      "outputs": [
        {
          "internalType": "address",
          "name": "",
          "type": "address"
        }
      ],
      "stateMutability": "view",
      "type": "function"
    },
    {
      "inputs": [
        {
          "internalType": "address",
          "name": "user",
          "type": "address"
        }
      ],
      "name": "getStatus",
      "outputs": [
        {
          "internalType": "uint256",
          "name": "totalSupply",
          "type": "uint256"
        },
        {
          "internalType": "uint256",
          "name": "ub_sum_tokens",
          "type": "uint256"
        },
        {
          "internalType": "uint256",
          "name": "nonUserSumTokens",
          "type": "uint256"
        },
        {
          "internalType": "uint256",
          "name": "burnPending",
          "type": "uint256"
        },
        {
          "internalType": "uint256",
          "name": "latestRound",
          "type": "uint256"
        },
        {
          "internalType": "uint256",
          "name": "LNISLR",
          "type": "uint256"
        },
        {
          "internalType": "uint256",
          "name": "u_balances",
          "type": "uint256"
        },
        {
          "internalType": "uint256",
          "name": "u_pending",
          "type": "uint256"
        },
        {
          "internalType": "uint256",
          "name": "u_latestDecayRound",
          "type": "uint256"
        },
        {
          "internalType": "uint256",
          "name": "u_LNISLR",
          "type": "uint256"
        }
      ],
      "stateMutability": "view",
      "type": "function"
    },
    {
      "inputs": [],
      "name": "htzFtm",
      "outputs": [
        {
          "internalType": "address",
          "name": "",
          "type": "address"
        }
      ],
      "stateMutability": "view",
      "type": "function"
    },
    {
      "inputs": [
        {
          "internalType": "address",
          "name": "spender",
          "type": "address"
        },
        {
          "internalType": "uint256",
          "name": "addedValue",
          "type": "uint256"
        }
      ],
      "name": "increaseAllowance",
      "outputs": [
        {
          "internalType": "bool",
          "name": "",
          "type": "bool"
        }
      ],
      "stateMutability": "nonpayable",
      "type": "function"
    },
    {
      "inputs": [],
      "name": "lastSession",
      "outputs": [
        {
          "internalType": "uint256",
          "name": "",
          "type": "uint256"
        }
      ],
      "stateMutability": "view",
      "type": "function"
    },
    {
      "inputs": [],
      "name": "lp_reward",
      "outputs": [
        {
          "internalType": "uint256",
          "name": "latestBNumber",
          "type": "uint256"
        },
        {
          "internalType": "uint256",
          "name": "cycleBlocks",
          "type": "uint256"
        },
        {
          "internalType": "uint256",
          "name": "decayRate",
          "type": "uint256"
        },
        {
          "internalType": "address",
          "name": "account",
          "type": "address"
        },
        {
          "internalType": "uint256",
          "name": "accDecayPer1e12",
          "type": "uint256"
        },
        {
          "internalType": "uint256",
          "name": "sum_tokens",
          "type": "uint256"
        },
        {
          "internalType": "uint256",
          "name": "burnDone",
          "type": "uint256"
        },
        {
          "internalType": "uint256",
          "name": "latestRound",
          "type": "uint256"
        },
        {
          "internalType": "uint256",
          "name": "initialRound",
          "type": "uint256"
        },
        {
          "internalType": "uint256",
          "name": "latestNet",
          "type": "uint256"
        },
        {
          "internalType": "uint256",
          "name": "LNISLR",
          "type": "uint256"
        }
      ],
      "stateMutability": "view",
      "type": "function"
    },
    {
      "inputs": [
        {
          "internalType": "address",
          "name": "to",
          "type": "address"
        },
        {
          "internalType": "uint256",
          "name": "amount",
          "type": "uint256"
        }
      ],
      "name": "mint",
      "outputs": [],
      "stateMutability": "nonpayable",
      "type": "function"
    },
    {
      "inputs": [],
      "name": "name",
      "outputs": [
        {
          "internalType": "string",
          "name": "",
          "type": "string"
        }
      ],
      "stateMutability": "view",
      "type": "function"
    },
    {
      "inputs": [],
      "name": "nextNode",
      "outputs": [
        {
          "internalType": "address",
          "name": "",
          "type": "address"
        }
      ],
      "stateMutability": "view",
      "type": "function"
    },
    {
      "inputs": [],
      "name": "owner",
      "outputs": [
        {
          "internalType": "address",
          "name": "",
          "type": "address"
        }
      ],
      "stateMutability": "view",
      "type": "function"
    },
    {
      "inputs": [
        {
          "internalType": "address",
          "name": "",
          "type": "address"
        },
        {
          "internalType": "address",
          "name": "",
          "type": "address"
        }
      ],
      "name": "pairFor",
      "outputs": [
        {
          "internalType": "address",
          "name": "",
          "type": "address"
        }
      ],
      "stateMutability": "view",
      "type": "function"
    },
    {
      "inputs": [
        {
          "internalType": "address",
          "name": "",
          "type": "address"
        }
      ],
      "name": "pairs",
      "outputs": [
        {
          "internalType": "address",
          "name": "token0",
          "type": "address"
        },
        {
          "internalType": "address",
          "name": "token1",
          "type": "address"
        },
        {
          "internalType": "enum ListStatus",
          "name": "status",
          "type": "uint8"
        }
      ],
      "stateMutability": "view",
      "type": "function"
    },
    {
      "inputs": [],
      "name": "pause",
      "outputs": [],
      "stateMutability": "nonpayable",
      "type": "function"
    },
    {
      "inputs": [],
      "name": "paused",
      "outputs": [
        {
          "internalType": "bool",
          "name": "",
          "type": "bool"
        }
      ],
      "stateMutability": "view",
      "type": "function"
    },
    {
      "inputs": [
        {
          "internalType": "address",
          "name": "account",
          "type": "address"
        },
        {
          "internalType": "uint256",
          "name": "principal",
          "type": "uint256"
        },
        {
          "components": [
            {
              "internalType": "uint32",
              "name": "accountant",
              "type": "uint32"
            }
          ],
          "internalType": "struct FeeRates",
          "name": "rates",
          "type": "tuple"
        },
        {
          "internalType": "bool",
          "name": "fromAllowance",
          "type": "bool"
        }
      ],
      "name": "payFeeTgrLogic",
      "outputs": [
        {
          "internalType": "uint256",
          "name": "feesPaid",
          "type": "uint256"
        }
      ],
      "stateMutability": "nonpayable",
      "type": "function"
    },
    {
      "inputs": [],
      "name": "prevNode",
      "outputs": [
        {
          "internalType": "address",
          "name": "",
          "type": "address"
        }
      ],
      "stateMutability": "view",
      "type": "function"
    },
    {
      "inputs": [],
      "name": "pulse_lp_reward",
      "outputs": [],
      "stateMutability": "nonpayable",
      "type": "function"
    },
    {
      "inputs": [],
      "name": "pulse_user_burn",
      "outputs": [],
      "stateMutability": "nonpayable",
      "type": "function"
    },
    {
      "inputs": [],
      "name": "pulse_vote_burn",
      "outputs": [],
      "stateMutability": "nonpayable",
      "type": "function"
    },
    {
      "inputs": [
        {
          "internalType": "enum ActionType",
          "name": "actionType",
          "type": "uint8"
        },
        {
          "internalType": "bool",
          "name": "blockReentry",
          "type": "bool"
        }
      ],
      "name": "registerAction",
      "outputs": [
        {
          "components": [
            {
              "internalType": "enum ActionType",
              "name": "actionType",
              "type": "uint8"
            },
            {
              "internalType": "uint256",
              "name": "session",
              "type": "uint256"
            },
            {
              "internalType": "uint256",
              "name": "lastSession",
              "type": "uint256"
            },
            {
              "internalType": "bool",
              "name": "isUserAction",
              "type": "bool"
            }
          ],
          "internalType": "struct ActionParams",
          "name": "actionParams",
          "type": "tuple"
        }
      ],
      "stateMutability": "nonpayable",
      "type": "function"
    },
    {
      "inputs": [],
      "name": "renounceOwnership",
      "outputs": [],
      "stateMutability": "nonpayable",
      "type": "function"
    },
    {
      "inputs": [],
      "name": "resume",
      "outputs": [],
      "stateMutability": "nonpayable",
      "type": "function"
    },
    {
      "inputs": [
        {
          "internalType": "uint256",
          "name": "amount",
          "type": "uint256"
        }
      ],
      "name": "returnVotes",
      "outputs": [],
      "stateMutability": "nonpayable",
      "type": "function"
    },
    {
      "inputs": [],
      "name": "session",
      "outputs": [
        {
          "internalType": "uint256",
          "name": "",
          "type": "uint256"
        }
      ],
      "stateMutability": "view",
      "type": "function"
    },
    {
      "inputs": [
        {
          "internalType": "enum ActionType",
          "name": "",
          "type": "uint8"
        }
      ],
      "name": "sessionsLastSeenBySType",
      "outputs": [
        {
          "internalType": "uint256",
          "name": "",
          "type": "uint256"
        }
      ],
      "stateMutability": "view",
      "type": "function"
    },
    {
      "inputs": [
        {
          "internalType": "enum ActionType",
          "name": "_sessionType",
          "type": "uint8"
        },
        {
          "components": [
            {
              "internalType": "uint32",
              "name": "accountant",
              "type": "uint32"
            }
          ],
          "internalType": "struct FeeRates",
          "name": "_feeRates",
          "type": "tuple"
        },
        {
          "internalType": "address",
          "name": "caller",
          "type": "address"
        }
      ],
      "name": "setFeeRates",
      "outputs": [],
      "stateMutability": "nonpayable",
      "type": "function"
    },
    {
      "inputs": [
        {
          "components": [
            {
              "internalType": "address",
              "name": "accountant",
              "type": "address"
            }
          ],
          "internalType": "struct FeeStores",
          "name": "_feeStores",
          "type": "tuple"
        },
        {
          "internalType": "address",
          "name": "caller",
          "type": "address"
        }
      ],
      "name": "setFeeStores",
      "outputs": [],
      "stateMutability": "nonpayable",
      "type": "function"
    },
    {
      "inputs": [
        {
          "internalType": "enum NodeType",
          "name": "nodeType",
          "type": "uint8"
        },
        {
          "internalType": "address",
          "name": "node",
          "type": "address"
        },
        {
          "internalType": "address",
          "name": "caller",
          "type": "address"
        }
      ],
      "name": "setNode",
      "outputs": [],
      "stateMutability": "nonpayable",
      "type": "function"
    },
    {
      "inputs": [],
      "name": "symbol",
      "outputs": [
        {
          "internalType": "string",
          "name": "",
          "type": "string"
        }
      ],
      "stateMutability": "view",
      "type": "function"
    },
    {
      "inputs": [
        {
          "internalType": "uint256",
          "name": "amount",
          "type": "uint256"
        }
      ],
      "name": "takeVotes",
      "outputs": [],
      "stateMutability": "nonpayable",
      "type": "function"
    },
    {
      "inputs": [],
      "name": "tgrBusd",
      "outputs": [
        {
          "internalType": "address",
          "name": "",
          "type": "address"
        }
      ],
      "stateMutability": "view",
      "type": "function"
    },
    {
      "inputs": [],
      "name": "tgrFtm",
      "outputs": [
        {
          "internalType": "address",
          "name": "",
          "type": "address"
        }
      ],
      "stateMutability": "view",
      "type": "function"
    },
    {
      "inputs": [],
      "name": "totalSupply",
      "outputs": [
        {
          "internalType": "uint256",
          "name": "",
          "type": "uint256"
        }
      ],
      "stateMutability": "view",
      "type": "function"
    },
    {
      "inputs": [
        {
          "internalType": "address",
          "name": "recipient",
          "type": "address"
        },
        {
          "internalType": "uint256",
          "name": "amount",
          "type": "uint256"
        }
      ],
      "name": "transfer",
      "outputs": [
        {
          "internalType": "bool",
          "name": "",
          "type": "bool"
        }
      ],
      "stateMutability": "nonpayable",
      "type": "function"
    },
    {
      "inputs": [
        {
          "internalType": "address",
          "name": "sender",
          "type": "address"
        },
        {
          "internalType": "address",
          "name": "recipient",
          "type": "address"
        },
        {
          "internalType": "uint256",
          "name": "amount",
          "type": "uint256"
        }
      ],
      "name": "transferDirectSafe",
      "outputs": [],
      "stateMutability": "nonpayable",
      "type": "function"
    },
    {
      "inputs": [
        {
          "internalType": "address",
          "name": "sender",
          "type": "address"
        },
        {
          "internalType": "address",
          "name": "recipient",
          "type": "address"
        },
        {
          "internalType": "uint256",
          "name": "amount",
          "type": "uint256"
        }
      ],
      "name": "transferFrom",
      "outputs": [
        {
          "internalType": "bool",
          "name": "",
          "type": "bool"
        }
      ],
      "stateMutability": "nonpayable",
      "type": "function"
    },
    {
      "inputs": [
        {
          "internalType": "address",
          "name": "newOwner",
          "type": "address"
        }
      ],
      "name": "transferOwnership",
      "outputs": [],
      "stateMutability": "nonpayable",
      "type": "function"
    },
    {
      "inputs": [],
      "name": "unregisterAction",
      "outputs": [],
      "stateMutability": "nonpayable",
      "type": "function"
    },
    {
      "inputs": [],
      "name": "user_burn",
      "outputs": [
        {
          "internalType": "uint256",
          "name": "latestBNumber",
          "type": "uint256"
        },
        {
          "internalType": "uint256",
          "name": "cycleBlocks",
          "type": "uint256"
        },
        {
          "internalType": "uint256",
          "name": "decayRate",
          "type": "uint256"
        },
        {
          "internalType": "address",
          "name": "account",
          "type": "address"
        },
        {
          "internalType": "uint256",
          "name": "accDecayPer1e12",
          "type": "uint256"
        },
        {
          "internalType": "uint256",
          "name": "sum_tokens",
          "type": "uint256"
        },
        {
          "internalType": "uint256",
          "name": "burnDone",
          "type": "uint256"
        },
        {
          "internalType": "uint256",
          "name": "latestRound",
          "type": "uint256"
        },
        {
          "internalType": "uint256",
          "name": "initialRound",
          "type": "uint256"
        },
        {
          "internalType": "uint256",
          "name": "latestNet",
          "type": "uint256"
        },
        {
          "internalType": "uint256",
          "name": "LNISLR",
          "type": "uint256"
        }
      ],
      "stateMutability": "view",
      "type": "function"
    },
    {
      "inputs": [],
      "name": "vote_burn",
      "outputs": [
        {
          "internalType": "uint256",
          "name": "latestBNumber",
          "type": "uint256"
        },
        {
          "internalType": "uint256",
          "name": "cycleBlocks",
          "type": "uint256"
        },
        {
          "internalType": "uint256",
          "name": "decayRate",
          "type": "uint256"
        },
        {
          "internalType": "address",
          "name": "account",
          "type": "address"
        },
        {
          "internalType": "uint256",
          "name": "accDecayPer1e12",
          "type": "uint256"
        },
        {
          "internalType": "uint256",
          "name": "sum_tokens",
          "type": "uint256"
        },
        {
          "internalType": "uint256",
          "name": "burnDone",
          "type": "uint256"
        },
        {
          "internalType": "uint256",
          "name": "latestRound",
          "type": "uint256"
        },
        {
          "internalType": "uint256",
          "name": "initialRound",
          "type": "uint256"
        },
        {
          "internalType": "uint256",
          "name": "latestNet",
          "type": "uint256"
        },
        {
          "internalType": "uint256",
          "name": "LNISLR",
          "type": "uint256"
        }
      ],
      "stateMutability": "view",
      "type": "function"
    },
    {
      "inputs": [
        {
          "internalType": "address",
          "name": "_prevNode",
          "type": "address"
        },
        {
          "internalType": "address",
          "name": "_nextNode",
          "type": "address"
        }
      ],
      "name": "wire",
      "outputs": [],
      "stateMutability": "nonpayable",
      "type": "function"
    },
    {
      "stateMutability": "payable",
      "type": "receive"
    }
  ],
  "bytecode": "0x60a06040523480156200001157600080fd5b5060405162005ea238038062005ea2833981016040819052620000349162000e8d565b6000805460ff1916905562000049336200043b565b604980546001600160a01b0319166001600160a01b0383161790556200006c3390565b604580546001600160a01b03929092166001600160a01b03199283161790556046805482167370997970c51812dc3a010c7d01b50e0d17dc79c8179055604780548216733c44cdddb6a900fa2b585dd299e03d12fa4293bc179055604880549091167390f79bf6eb2c4f870365e785982e1f101e93b9061790556040516200010c9043409060200163766f746560e01b8152600481019190915260240190565b60408051601f1981840301815282825280516020918201206001600160a01b039081166080908152610160850184524380865260029386018490526102b2948601949094526008549091166060850152600090840181905260a0840181905260c0840152919060e08201906200018490849062000ee4565b815260200162000195834362000ee4565b8152600060208083018290526040928301829052835181558381015160215583830151602255606080850151602380546001600160a01b0319166001600160a01b0392831617905560808087015160245560a08088015160255560c08089015160265560e0808a01516027556101008a01516028556101208a015160295561014090990151602a558751610160810189524380825260029782018890526046998201999099528351909416948401949094529082018590528101849052908101929092529350918201906200026c90849062000ee4565b81526020016200027d834362000ee4565b81526000602080830182905260409283018290528351602b5583810151602c5583830151602d55606080850151602e80546001600160a01b0319166001600160a01b03909216919091179055608080860151602f5560a08087015160305560c08088015160315560e080890151603255610100890151603355610120890151603455610140909801516035558651610160810188524380825260049682018790526103099882019890985293840186905291830185905282018490528101929092529350918201906200035290849062000ee4565b815260200162000363834362000ee4565b8152600060208083018290526040928301919091528251603655820151603755818101516038556060820151603980546001600160a01b0319166001600160a01b039092169190911790556080820151603a5560a0820151603b5560c0820151603c5560e0820151603d55610100820151603e55610120820151603f55610140909101519055617ab760435561343e604455600e805462ffffff19166201010117905562000433620004123390565b620004206012600662000f07565b6200042d90600a6200101f565b62000499565b5050620010e6565b600e80546001600160a01b0383811663010000008181026301000000600160b81b031985161790945560405193909204169182907f8be0079c531659141344cd1fd0a4f28419497f9722a3daafe3b4186f6b6457e090600090a35050565b60408051808201909152600c81526b5a65726f206164647265737360a01b60208201526001600160a01b038316620004ef5760405162461bcd60e51b8152600401620004e691906200102d565b60405180910390fd5b50620004fe8282600162000548565b6040518181526001600160a01b038316906000907fddf252ad1be2c89b69c2b068fc378daa952ba7f163c4a11628f55a4df523b3ef9060200160405180910390a35050565b505050565b62000553836200099a565b15620008c057603f546001600160a01b0384166000908152601d6020526040902054620005819190620009df565b50604080546001600160a01b038516600090815260416020529190912060010154620005ae9190620009df565b50600080620005bd8562000a07565b6001600160a01b03871660009081526041602052604090208290559092509050801562000663576001600160a01b0385166000908152601d6020526040902054620006099082620009df565b6001600160a01b0386166000908152601d6020526040902055603b54620006319082620009df565b603b55601c54620006439082620009df565b601c55603c80548291906000906200065d90849062000f07565b90915550505b8215620006d7576001600160a01b0385166000908152601d6020526040812080548692906200069490849062000f07565b9091555050603b8054859190600090620006b090849062000f07565b9250508190555083601c6000828254620006cb919062000f07565b909155506200073a9050565b6001600160a01b0385166000908152601d6020526040902054620006fc9085620009df565b6001600160a01b0386166000908152601d6020526040902055603b54620007249085620009df565b603b55601c54620007369085620009df565b601c555b6001600160a01b0385166000908152601d6020526040812054603f8054919290916200076890849062000f07565b909155505060495460009081906001600160a01b0316635aff34dc620007916005600a6200101f565b603854620007a26005600a6200101f565b620007ae919062001085565b6001600160a01b038b166000908152604160205260409081902054905160e085901b6001600160e01b0319168152600481019390935260248301919091526044820152600160648201526084016040805180830381865afa15801562000818573d6000803e3d6000fd5b505050506040513d601f19601f820116820180604052508101906200083e91906200109f565b6001600160a01b0389166000908152601d60205260408120549294509092509082906200086d908590620010c4565b62000879919062000ee4565b6001600160a01b03891660009081526041602052604080822060010183905580549293508392909190620008af90849062000f07565b909155506200054395505050505050565b801562000933576001600160a01b0383166000908152601d602052604081208054849290620008f190849062000f07565b9250508190555081604260008282546200090c919062000f07565b9250508190555081601c600082825462000927919062000f07565b90915550620005439050565b6001600160a01b0383166000908152601d6020526040902054620009589083620009df565b6001600160a01b0384166000908152601d6020526040902055604254620009809083620009df565b604255601c54620009929083620009df565b601c55505050565b6001600160a01b038181166000908152600a6020526040812054909116158015620009d957506080516001600160a01b0316826001600160a01b031614155b92915050565b600081831115620009fe57620009f6828462001085565b9050620009d9565b50600092915050565b604080516101608101825260365481526037546020808301918252603854838501526039546001600160a01b039081166060850152603a546080850152603b5460a0850152603c5460c0850152603d5460e0850152603e546101008501908152603f5461012086015285546101408601529086166000908152604183528581208651808801909752805487526001015492860192909252519151909384939290918491829162000ab8904362000ee4565b62000ac4919062001085565b9150600062000ade838560000151620009df60201b60201c565b604954604087015191925060009182916001600160a01b031690635aff34dc9062000b0c6005600a6200101f565b62000b18919062001085565b62000b266005600a6200101f565b6040516001600160e01b031960e085901b1681526004810192909252602482015260448101869052600160648201526084016040805180830381865afa15801562000b75573d6000803e3d6000fd5b505050506040513d601f19601f8201168201806040525081019062000b9b91906200109f565b91509150600062000bbe64e8d4a51000848462000c2160201b62002da11760201c565b905062000bd18164e8d4a5100062001085565b6001600160a01b038c166000908152601d60205260408120549196509064e8d4a510009062000c02908890620010c4565b62000c0e919062000ee4565b969c969b50959950505050505050505050565b6000808062000c31868662000d1e565b915091508160000362000c5b5783818162000c505762000c5062000eb8565b049250505062000d17565b8382101562000d1257600062000c7387878762000d72565b905060008062000c8585858562000d90565b915091508160000362000cb25786818162000ca45762000ca462000eb8565b049550505050505062000d17565b60008762000cc1828262000dc6565b169050600062000cd384848462000dd4565b9050600062000cf4838b8162000ced5762000ced62000eb8565b0462000e2b565b905062000d02828262000e70565b9850505050505050505062000d17565b600080fd5b9392505050565b6000808062000d2e858562000e7e565b9050600062000d3e868662000e70565b905080821062000d5657908190039250905062000d6b565b600162000d64838362000dc6565b0393509150505b9250929050565b6000818062000d855762000d8562000eb8565b838509949350505050565b60008082841062000da8575083905081830362000dbe565b600019850162000db9858562000dc6565b915091505b935093915050565b600062000d17828462001085565b60008062000e008362000de8838262000dc6565b8162000df85762000df862000eb8565b506000919050565b905082848162000e145762000e1462000eb8565b0462000e21868362000e70565b1795945050505050565b60006001815b600881101562000e695762000e5e8262000e58600262000e52838962000e70565b62000dc6565b62000e70565b915060010162000e31565b5092915050565b600062000d178284620010c4565b60006000198284099392505050565b60006020828403121562000ea057600080fd5b81516001600160a01b038116811462000d1757600080fd5b634e487b7160e01b600052601260045260246000fd5b634e487b7160e01b600052601160045260246000fd5b60008262000f0257634e487b7160e01b600052601260045260246000fd5b500490565b6000821982111562000f1d5762000f1d62000ece565b500190565b600181815b8085111562000f6357816000190482111562000f475762000f4762000ece565b8085161562000f5557918102915b93841c939080029062000f27565b509250929050565b60008262000f7c57506001620009d9565b8162000f8b57506000620009d9565b816001811462000fa4576002811462000faf5762000fcf565b6001915050620009d9565b60ff84111562000fc35762000fc362000ece565b50506001821b620009d9565b5060208310610133831016604e8410600b841016171562000ff4575081810a620009d9565b62001000838362000f22565b806000190482111562001017576200101762000ece565b029392505050565b600062000d17838362000f6b565b600060208083528351808285015260005b818110156200105c578581018301518582016040015282016200103e565b818111156200106f576000604083870101525b50601f01601f1916929092016040019392505050565b6000828210156200109a576200109a62000ece565b500390565b60008060408385031215620010b357600080fd5b505080516020909101519092909150565b6000816000190483118215151615620010e157620010e162000ece565b500290565b608051614da0620011026000396000613baf0152614da06000f3fe60806040526004361061036f5760003560e01c80638456cb59116101c6578063a51bb24e116100f7578063e729a45511610095578063ed2deb8b1161006f578063ed2deb8b14610b94578063f2fde38b14610ba9578063f9a21e8a14610bc9578063fe33b30214610be957600080fd5b8063e729a45514610b3c578063eca4c46614610b51578063ecd6f46a14610b6757600080fd5b8063cd193c43116100d1578063cd193c4314610a96578063cd537aa114610ab6578063cdd9224c14610ad6578063dd62ed3e14610af657600080fd5b8063a51bb24e14610a36578063a9059cbb14610a56578063c5921fe914610a7657600080fd5b8063934923a3116101645780639dc29fac1161013e5780639dc29fac1461098e578063a13c1f67146109ae578063a150da2a146109f6578063a457c2d714610a1657600080fd5b8063934923a31461090157806395d89b411461092157806396ed28f91461094d57600080fd5b806390e3677f116101a057806390e3677f146108815780639154961e146108a157806391fd0db7146108c1578063928879d6146108e157600080fd5b80638456cb5914610847578063893d20e81461085c5780638da5cb5b1461085c57600080fd5b806339509351116102a05780635e3568b81161023e5780636c93564f116102185780636c93564f1461079557806370a08231146107dd578063715018a6146107fd578063739572891461081257600080fd5b80635e3568b81461073f57806365715c561461075557806368fb3c721461077557600080fd5b80634be548271161027a5780634be54827146106b657806354abe9d0146106e35780635c975abb146107035780635d392daa1461071d57600080fd5b8063395093511461066157806340c10f1914610681578063431b3c30146106a157600080fd5b806318160ddd1161030d57806330ccebb5116102e757806330ccebb514610523578063313ce5671461058d57806332cb6b0c146105a95780633660777d146105be57600080fd5b806318160ddd146104bb57806323b872dd146104de578063249dfad7146104fe57600080fd5b8063095ea7b311610349578063095ea7b3146103eb57806309b16a221461041b5780630c3d536b14610453578063102247111461047357600080fd5b8063046f7da21461037b57806306fdde0314610392578063086a606c146103d657600080fd5b3661037657005b600080fd5b34801561038757600080fd5b50610390610c45565b005b34801561039e57600080fd5b506040805180820190915260098152682a23a9102a37b5b2b760b91b60208201525b6040516103cd9190614243565b60405180910390f35b3480156103e257600080fd5b50610390610cb5565b3480156103f757600080fd5b5061040b61040636600461426d565b611141565b60405190151581526020016103cd565b34801561042757600080fd5b5060085461043b906001600160a01b031681565b6040516001600160a01b0390911681526020016103cd565b34801561045f57600080fd5b5060095461043b906001600160a01b031681565b34801561047f57600080fd5b506104a661048e3660046142a4565b600d6020526000908152604090205463ffffffff1681565b60405163ffffffff90911681526020016103cd565b3480156104c757600080fd5b506104d0611158565b6040519081526020016103cd565b3480156104ea57600080fd5b5061040b6104f93660046142c1565b611167565b34801561050a57600080fd5b5060005461043b9061010090046001600160a01b031681565b34801561052f57600080fd5b5061054361053e3660046142fd565b611219565b604080519a8b5260208b0199909952978901969096526060880194909452608087019290925260a086015260c085015260e0840152610100830152610120820152610140016103cd565b34801561059957600080fd5b50604051601281526020016103cd565b3480156105b557600080fd5b506104d061129e565b3480156105ca57600080fd5b50602b54602c54602d54602e54602f546030546031546032546033546034546035546106069a9998976001600160a01b0316969594939291908b565b604080519b8c5260208c019a909a52988a01979097526001600160a01b039095166060890152608088019390935260a087019190915260c086015260e0850152610100840152610120830152610140820152610160016103cd565b34801561066d57600080fd5b5061040b61067c36600461426d565b6112c3565b34801561068d57600080fd5b5061039061069c36600461426d565b6112d0565b3480156106ad57600080fd5b50610390611387565b3480156106c257600080fd5b506106d66106d1366004614326565b611448565b6040516103cd9190614389565b3480156106ef57600080fd5b506103906106fe3660046142fd565b61176f565b34801561070f57600080fd5b5060145461040b9060ff1681565b34801561072957600080fd5b50610732611892565b6040516103cd91906143c2565b34801561074b57600080fd5b506104d0600f5481565b34801561076157600080fd5b5060015461043b906001600160a01b031681565b34801561078157600080fd5b506104d06107903660046143d0565b6118c4565b3480156107a157600080fd5b50603654603754603854603954603a54603b54603c54603d54603e54603f546040546106069a9998976001600160a01b0316969594939291908b565b3480156107e957600080fd5b506104d06107f83660046142fd565b61192c565b34801561080957600080fd5b50610390611937565b34801561081e57600080fd5b50610827611975565b6040805194855260208501939093529183015260608201526080016103cd565b34801561085357600080fd5b50610390611a70565b34801561086857600080fd5b50600e54630100000090046001600160a01b031661043b565b34801561088d57600080fd5b5061039061089c36600461442a565b611ade565b3480156108ad57600080fd5b506103906108bc36600461445d565b611b7c565b3480156108cd57600080fd5b506103906108dc3660046144bd565b611cbf565b3480156108ed57600080fd5b506103906108fc366004614549565b611e79565b34801561090d57600080fd5b5060075461043b906001600160a01b031681565b34801561092d57600080fd5b506040805180820190915260038152622a23a960e91b60208201526103c0565b34801561095957600080fd5b5061043b61096836600461442a565b600b6020908152600092835260408084209091529082529020546001600160a01b031681565b34801561099a57600080fd5b506103906109a936600461426d565b611f34565b3480156109ba57600080fd5b50602054602154602254602354602454602554602654602754602854602954602a546106069a9998976001600160a01b0316969594939291908b565b348015610a0257600080fd5b5061040b610a113660046142c1565b611f70565b348015610a2257600080fd5b5061040b610a3136600461426d565b611ff7565b348015610a4257600080fd5b50610390610a51366004614589565b612004565b348015610a6257600080fd5b5061040b610a7136600461426d565b61209d565b348015610a8257600080fd5b50610390610a9136600461445d565b6120aa565b348015610aa257600080fd5b50610390610ab13660046145ab565b6121e0565b348015610ac257600080fd5b50610390610ad13660046142c1565b61267c565b348015610ae257600080fd5b50610390610af1366004614616565b612ad4565b348015610b0257600080fd5b506104d0610b1136600461442a565b6001600160a01b039182166000908152601b6020908152604080832093909416825291909152205490565b348015610b4857600080fd5b50610390612c99565b348015610b5d57600080fd5b506104d060105481565b348015610b7357600080fd5b506104d0610b823660046142a4565b60116020526000908152604090205481565b348015610ba057600080fd5b50610390612cf5565b348015610bb557600080fd5b50610390610bc43660046142fd565b612d01565b348015610bd557600080fd5b50600c5461043b906001600160a01b031681565b348015610bf557600080fd5b50610c36610c043660046142fd565b600a60205260009081526040902080546001909101546001600160a01b0391821691811690600160a01b900460ff1683565b6040516103cd93929190614688565b600e54630100000090046001600160a01b03166001600160a01b0316336001600160a01b031614610ca95760405162461bcd60e51b81526020600482015260096024820152682737ba1037bbb732b960b91b60448201526064015b60405180910390fd5b6014805460ff19169055565b6000610cc16020612e77565b9050801561113e576000610cd430612f2e565b9050600064e8d4a5100083600860009054906101000a90046001600160a01b03166001600160a01b03166318160ddd6040518163ffffffff1660e01b8152600401602060405180830381865afa158015610d32573d6000803e3d6000fd5b505050506040513d601f19601f82011682018060405250810190610d5691906146ad565b610d6091906146dc565b610d6a9190614711565b6004805460405162d1b00d60e71b81523092810183905260248101849052600060448201819052606482019390935243608482015292935090916001600160a01b03909116906368d806809060a4016020604051808303816000875af1158015610dd8573d6000803e3d6000fd5b505050506040513d601f19601f82011682018060405250810190610dfc91906146ad565b905082610e0830612f2e565b610e129190614733565b9250610e1e3084612fd3565b610e41604051806060016040528060278152602001614d446027913982856130c9565b604080516002808252606082018352600092602083019080368337019050509050735fc8d32690cc91d4c39d9d3abcbd16989f87570781600081518110610e8a57610e8a61474a565b60200260200101906001600160a01b031690816001600160a01b03168152505073b7f8bc63bbcad18155201308c8f3540b07f84f5e81600181518110610ed257610ed261474a565b6001600160a01b0392909216602092830291909101909101526040516370a0823160e01b815230600482015260009073b7f8bc63bbcad18155201308c8f3540b07f84f5e906370a0823190602401602060405180830381865afa158015610f3d573d6000803e3d6000fd5b505050506040513d601f19601f82011682018060405250810190610f6191906146ad565b600554604051637ff36ab560e01b81529192506001600160a01b031690637ff36ab5908590610f9b90600090879030904390600401614760565b60006040518083038185885af1158015610fb9573d6000803e3d6000fd5b50505050506040513d6000823e601f3d908101601f19168201604052610fe291908101906147ca565b506040516370a0823160e01b8152306004820152819073b7f8bc63bbcad18155201308c8f3540b07f84f5e906370a0823190602401602060405180830381865afa158015611034573d6000803e3d6000fd5b505050506040513d601f19601f8201168201806040525081019061105891906146ad565b6110629190614733565b90506110a36040518060400160405280601881526020017f48545a206761696e65642062792073776170202d2d2d2d2d000000000000000081525082613110565b60405163a9059cbb60e01b815273f39fd6e51aad88f6f4ce6ab8827279cfffb9226660048201526024810182905273b7f8bc63bbcad18155201308c8f3540b07f84f5e9063a9059cbb906044016020604051808303816000875af115801561110f573d6000803e3d6000fd5b505050506040513d601f19601f820116820180604052508101906111339190614870565b505043602055505050505b50565b600061114e338484613155565b5060015b92915050565b6000611162613244565b905090565b60006001600160a01b0384163314611203576001600160a01b0384166000908152601b60209081526040808320338452909152902054828110156111ed5760405162461bcd60e51b815260206004820152601a60248201527f5472616e73666572206578636565647320616c6c6f77616e63650000000000006044820152606401610ca0565b61120185336111fc8685614733565b613155565b505b61120e848484613259565b5060015b9392505050565b601c54603b54604254600080808080808061123261327d565b603d54604080546001600160a01b038f166000908152601d6020529190912054929950909750955093506112658b61336c565b6001600160a01b03909c16600090815260416020526040902080546001909101549b9d9a9c999b989a9799969895979095945092505050565b6112aa6012600661488d565b6112b590600a614989565b6112c090600a6146dc565b81565b600061121233848461355e565b600e546001600160a01b0363010000009091041633146113025760405162461bcd60e51b8152600401610ca090614995565b61130e6012600661488d565b61131990600a614989565b61132490600a6146dc565b8161132d613244565b611337919061488d565b11156113795760405162461bcd60e51b8152602060048201526011602482015270457863656564204d617820537570706c7960781b6044820152606401610ca0565b61138382826135e5565b5050565b60025433906001600160a01b03168114806113af57506004546001600160a01b038281169116145b806113c757506005546001600160a01b038281169116145b6113e35760405162461bcd60e51b8152600401610ca0906149ca565b60006012601354601481106113fa576113fa61474a565b602091828204019190066101000a81548160ff021916908360058111156114235761142361435f565b02179055506013541561113e5760138054906000611440836149f9565b919050555050565b60408051608081018252600080825260208201819052918101829052606081019190915260025433906001600160a01b031681148061149457506004546001600160a01b038281169116145b806114ac57506005546001600160a01b038281169116145b6114c85760405162461bcd60e51b8152600401610ca0906149ca565b60145460ff161561150b5760405162461bcd60e51b815260206004820152600d60248201526c14de5cdd195b481c185d5cd959609a1b6044820152606401610ca0565b600084600581111561151f5761151f61435f565b0361155d5760405162461bcd60e51b815260206004820152600e60248201526d24b73b30b634b21030b1ba34b7b760911b6044820152606401610ca0565b82156116065760005b6013548111611604578460058111156115815761158161435f565b601282601481106115945761159461474a565b602081049091015460ff601f9092166101000a90041660058111156115bb576115bb61435f565b036115f25760405162461bcd60e51b81526020600482015260076024820152665265656e74727960c81b6044820152606401610ca0565b806115fc81614a10565b915050611566565b505b60135415801561162d575060125460009060ff16600581111561162b5761162b61435f565b145b611647576013805490600061164183614a10565b91905055505b60146013541061168a5760405162461bcd60e51b815260206004820152600e60248201526d537461636b206f766572666c6f7760901b6044820152606401610ca0565b836012601354601481106116a0576116a061474a565b602091828204019190066101000a81548160ff021916908360058111156116c9576116c961435f565b0217905550818460058111156116e1576116e161435f565b908160058111156116f4576116f461435f565b90525060135415606083015260405160009061172890439032906020019182526001600160a01b0316602082015260400190565b6040516020818303038152906040528051906020012060001c905080600f541461175757600f80546010558190555b5050600f546020820152601054604082015292915050565b60005461010090046001600160a01b031633148061178c57503330145b806117ba5750600e54630100000090046001600160a01b03166001600160a01b0316336001600160a01b0316145b6117d65760405162461bcd60e51b8152600401610ca090614a29565b6001600160a01b0381163014611866576001546001600160a01b03908116906354abe9d090831615611808578261180a565b305b6040516001600160e01b031960e084901b1681526001600160a01b039091166004820152602401600060405180830381600087803b15801561184b57600080fd5b505af115801561185f573d6000803e3d6000fd5b5050505050565b6040517ffd3415c24b2b4519f08b7935c13f86ea010c77b3ff9bf448a474ae3b2414fce090600090a150565b60006012601354601481106118a9576118a961474a565b602081049091015460ff601f9092166101000a900416919050565b60025460009033906001600160a01b03168114806118ef57506004546001600160a01b038281169116145b8061190757506005546001600160a01b038281169116145b6119235760405162461bcd60e51b8152600401610ca0906149ca565b50949350505050565b600061115282612f2e565b600e546001600160a01b0363010000009091041633146119695760405162461bcd60e51b8152600401610ca090614995565b6119736000613681565b565b60008060008061198361327d565b60455490945060009061199e906001600160a01b031661336c565b91506119ac9050818561488d565b6046549094506119c4906001600160a01b031661336c565b91506119d29050818561488d565b6047549094506119ea906001600160a01b031661336c565b91506119f89050818561488d565b604854909450611a10906001600160a01b031661336c565b9150611a1e9050818561488d565b935083851015611a3957611a328585614733565b9250611a46565b611a438486614733565b92505b8415611a695784611a5c8464e8d4a510006146dc565b611a669190614711565b91505b5090919293565b600e54630100000090046001600160a01b03166001600160a01b0316336001600160a01b031614611acf5760405162461bcd60e51b81526020600482015260096024820152682737ba1037bbb732b960b91b6044820152606401610ca0565b6014805460ff19166001179055565b600e54630100000090046001600160a01b03166001600160a01b0316336001600160a01b031614611b445760405162461bcd60e51b815260206004820152601060248201526f496e76616c69642063616c6c6572203360801b6044820152606401610ca0565b60008054610100600160a81b0319166101006001600160a01b0394851602179055600180546001600160a01b03191691909216179055565b601f5433906000908103611ba157611b9a64e8d4a5100060646146dc565b9050611bdc565b601f54602e546001600160a01b03166000908152601d6020526040902054611bcf9064e8d4a51000906146dc565b611bd99190614711565b90505b600064e8d4a51000611bee85846146dc565b611bf89190614711565b6001600160a01b0384166000908152601e6020526040902054909150841115611c5c5760405162461bcd60e51b8152602060048201526016602482015275616d6f756e7420657863656564696e6720766f74657360501b6044820152606401610ca0565b602e54611c73906001600160a01b031684836136df565b6001600160a01b0383166000908152601e602052604081208054869290611c9b908490614733565b9250508190555083601f6000828254611cb49190614733565b909155505050505050565b60005461010090046001600160a01b0316331480611cdc57503330145b80611d0a5750600e54630100000090046001600160a01b03166001600160a01b0316336001600160a01b0316145b611d265760405162461bcd60e51b8152600401610ca090614a29565b6001600160a01b0381163014611e3a57600e5462010000900460ff1615611db457604051634f18125b60e01b815273__$88bebae22a3ad6e62b56c303176513ecf8$__90634f18125b90611d83908690600d908790600401614a53565b60006040518083038186803b158015611d9b57600080fd5b505af4158015611daf573d6000803e3d6000fd5b505050505b60006001600160a01b03821615611dcb5781611dcd565b305b6001546040516391fd0db760e01b81529192506001600160a01b0316906391fd0db790611e0290879087908690600401614a7c565b600060405180830381600087803b158015611e1c57600080fd5b505af1158015611e30573d6000803e3d6000fd5b5050505050505050565b7fb4040436d4754da72f29d5b97fe68448f30d44ac0e08b33545cbf6f28b7641d98383604051611e6b929190614aae565b60405180910390a15b505050565b60005461010090046001600160a01b0316331480611e9657503330145b80611ec45750600e54630100000090046001600160a01b03166001600160a01b0316336001600160a01b0316145b611ee05760405162461bcd60e51b8152600401610ca090614a29565b611eeb838383613838565b6000836004811115611eff57611eff61435f565b03611e7457601980546001600160a01b0384166001600160a01b03199182168117909255601a80549091169091179055505050565b600e546001600160a01b036301000000909104163314611f665760405162461bcd60e51b8152600401610ca090614995565b6113838282612fd3565b60408051808201909152600c81526b5a65726f206164647265737360a01b60208201526000906001600160a01b038516611fbd5760405162461bcd60e51b8152600401610ca09190614243565b506001600160a01b038085166000908152601b602090815260408083209387168352929052205461120e90859085906111fc908690614733565b6000611212338484611f70565b600e546001600160a01b0363010000009091041633146120365760405162461bcd60e51b8152600401610ca090614995565b6120426005600a614989565b821115801561205c57506120586005600a614989565b8111155b6113835760405162461bcd60e51b8152602060048201526012602482015271496e76616c6964206275726e20726174657360701b6044820152606401610ca0565b600061114e338484613259565b601f54339060009081036120cf576120c864e8d4a5100060646146dc565b905061210a565b601f54602e546001600160a01b03166000908152601d60205260409020546120fd9064e8d4a51000906146dc565b6121079190614711565b90505b600064e8d4a5100061211c85846146dc565b6121269190614711565b6001600160a01b0384166000908152601d60205260409020549091508111156121875760405162461bcd60e51b815260206004820152601360248201527273686f7274206f662054475220746f6b656e7360681b6044820152606401610ca0565b602e5461219f9084906001600160a01b0316836136df565b6001600160a01b0383166000908152601e6020526040812080548692906121c790849061488d565b9250508190555083601f6000828254611cb4919061488d565b60005461010090046001600160a01b03163314806121fd57503330145b8061222b5750600e54630100000090046001600160a01b03166001600160a01b0316336001600160a01b0316145b6122475760405162461bcd60e51b8152600401610ca090614a29565b6001600160a01b038116301461263857600e5460ff16156125ae576040518060600160405280856001600160a01b03168152602001846001600160a01b0316815260200183600381111561229d5761229d61435f565b90526001600160a01b038087166000908152600a6020908152604091829020845181549085166001600160a01b0319918216178255918501516001820180549190951692811683178555928501519093909290916001600160a81b031990911617600160a01b8360038111156123155761231561435f565b021790555050506001600160a01b038085166000818152600b60208181526040808420898716855282528084208054878d166001600160a01b03199182168117909255938352818520958552949091529182902080549091169092179091556002549051633fe59dbb60e11b815273__$88bebae22a3ad6e62b56c303176513ecf8$__92637fcb3b76926123c792899289921690730dcd1bf9a1b36ce34237eeafef220932846bcd8290600401614ad0565b602060405180830381865af41580156123e4573d6000803e3d6000fd5b505050506040513d601f19601f820116820180604052508101906124089190614870565b1561242957600780546001600160a01b0319166001600160a01b0387161790555b600254604051633fe59dbb60e11b815273__$88bebae22a3ad6e62b56c303176513ecf8$__91637fcb3b769161248591889188916001600160a01b031690735fc8d32690cc91d4c39d9d3abcbd16989f87570790600401614ad0565b602060405180830381865af41580156124a2573d6000803e3d6000fd5b505050506040513d601f19601f820116820180604052508101906124c69190614870565b156124e757600880546001600160a01b0319166001600160a01b0387161790555b604051633fe59dbb60e11b815273__$88bebae22a3ad6e62b56c303176513ecf8$__90637fcb3b769061254c908790879073b7f8bc63bbcad18155201308c8f3540b07f84f5e90735fc8d32690cc91d4c39d9d3abcbd16989f87570790600401614ad0565b602060405180830381865af4158015612569573d6000803e3d6000fd5b505050506040513d601f19601f8201168201806040525081019061258d9190614870565b156125ae57600980546001600160a01b0319166001600160a01b0387161790555b60006001600160a01b038216156125c557816125c7565b305b60015460405163cd193c4360e01b81529192506001600160a01b03169063cd193c43906126009089908990899089908890600401614afb565b600060405180830381600087803b15801561261a57600080fd5b505af115801561262e573d6000803e3d6000fd5b505050505061185f565b7f7af36d96fdc569564b9fadb22716716fe33463cb7fc8dca4fbd79d40448acdf28585858560405161266d9493929190614b3d565b60405180910390a15050505050565b60045433906001600160a01b031681036127b0576001600160a01b038381166000908152600a602052604090205416156127345760006126ba61399b565b905060038160058111156126d0576126d061435f565b036126fe576126f96040518060400160405280600381526020016210591960ea1b815250613a0a565b61272e565b61272e6040518060400160405280600f81526020016e0496e636f6e73697374656e6374203608c1b815250613a0a565b50612a81565b6004546001600160a01b0390811690851603612777576127726040518060400160405280600781526020016652656d6f76653160c81b815250613a0a565b612a81565b60405162461bcd60e51b815260206004820152600e60248201526d496e636f6e73697374656e74203160901b6044820152606401610ca0565b6005546001600160a01b03908116908216036128c7576001600160a01b038381166000908152600a602052604090205416156128105761280b6040518060400160405280600481526020016314d95b1b60e21b815250613a0a565b612884565b6005546001600160a01b039081169085160361284a5761280b6040518060400160405280600381526020016242757960e81b815250613a0a565b60405162461bcd60e51b815260206004820152600f60248201526e24b731b7b739b4b9ba32b731ba101960891b6044820152606401610ca0565b60006128926005600a614989565b60435461289f90856146dc565b6128a99190614711565b90506128b58582612fd3565b6128bf8184614733565b925050612a81565b836001600160a01b0316816001600160a01b031603612a47576001600160a01b038181166000908152600a6020526040902054161561277257600061290a61399b565b905060028160058111156129205761292061435f565b0361298c5760006129336005600a614989565b60435461294090866146dc565b61294a9190614711565b90506129568682612fd3565b6129608185614733565b93506129866040518060400160405280600381526020016242757960e81b815250613a0a565b5061272e565b60048160058111156129a0576129a061435f565b036129cd576126f9604051806040016040528060078152602001662932b6b7bb329960c91b815250613a0a565b60058160058111156129e1576129e161435f565b03612a0d576126f96040518060400160405280600681526020016544696c75746560d01b815250613a0a565b60405162461bcd60e51b815260206004820152600f60248201526e496e636f6e73697374656e6374203560881b6044820152606401610ca0565b60405162461bcd60e51b815260206004820152600f60248201526e2bb937b7339036b9b3a9b2b73232b960891b6044820152606401610ca0565b6001600160a01b0384166000908152601d6020526040902054821115612abd576001600160a01b0384166000908152601d602052604090205491505b8115612ace57612ace8484846136df565b50505050565b60005461010090046001600160a01b0316331480612af157503330145b80612b1f5750600e54630100000090046001600160a01b03166001600160a01b0316336001600160a01b0316145b612b3b5760405162461bcd60e51b8152600401610ca090614a29565b6001600160a01b0381163014612c5857600e54610100900460ff1615612bcf57604051633d8d54b760e11b8152600c600482015282516001600160a01b0316602482015273__$88bebae22a3ad6e62b56c303176513ecf8$__90637b1aa96e9060440160006040518083038186803b158015612bb657600080fd5b505af4158015612bca573d6000803e3d6000fd5b505050505b60006001600160a01b03821615612be65781612be8565b305b600154604051633376489360e21b815285516001600160a01b039081166004830152808416602483015292935091169063cdd9224c90604401600060405180830381600087803b158015612c3b57600080fd5b505af1158015612c4f573d6000803e3d6000fd5b50505050505050565b60405182516001600160a01b031681527f275664547227ddbc7a8a732c07c9346f2f4520de70c2088665cc6809534212c09060200160405180910390a15050565b6000612ca5602b612e77565b9050801561113e57602e546001600160a01b03166000818152601d6020526040902054612cee919064e8d4a5100090612cdf9085906146dc565b612ce99190614711565b612fd3565b43602b5550565b60006113836036612e77565b600e546001600160a01b036301000000909104163314612d335760405162461bcd60e51b8152600401610ca090614995565b6001600160a01b038116612d985760405162461bcd60e51b815260206004820152602660248201527f4f776e61626c653a206e6577206f776e657220697320746865207a65726f206160448201526564647265737360d01b6064820152608401610ca0565b61113e81613681565b6000806000612db08686613a4d565b9150915081600003612dd557838181612dcb57612dcb6146fb565b0492505050611212565b83821015610376576000612dea878787613a9a565b9050600080612dfa858585613ab5565b9150915081600003612e2257868181612e1557612e156146fb565b0495505050505050611212565b600087612e3060008a613ae6565b1690506000612e40848484613af2565b90506000612e5c838b81612e5657612e566146fb565b04613b3f565b9050612e688282613b7c565b98505050505050505050611212565b6000808260080154836001015443612e8f9190614711565b612e999190614733565b90508260070154811115612f28576000836007015482612eb99190614733565b60078501839055438555600093509050825b81811015612f2557612edf6005600a614989565b6002860154612ef38664e8d4a51000614733565b612efd91906146dc565b612f079190614711565b612f11908561488d565b935080612f1d81614a10565b915050612ecb565b50505b50919050565b6000612f3982613b88565b15612fb3576000612f498361336c565b6001600160a01b0385166000908152601d60205260409020549092508211159050612f8f57612f8f604051806060016040528060288152602001614d1c60289139613a0a565b6001600160a01b0383166000908152601d6020526040902054611212908290614733565b506001600160a01b0381166000908152601d60205260409020545b919050565b60408051808201909152600c81526b5a65726f206164647265737360a01b60208201526001600160a01b03831661301d5760405162461bcd60e51b8152600401610ca09190614243565b50600061302983612f2e565b9050818110156040518060400160405280600f81526020016e457863656564732062616c616e636560881b815250906130755760405162461bcd60e51b8152600401610ca09190614243565b5061308283836000613be9565b6040518281526000906001600160a01b038516907fddf252ad1be2c89b69c2b068fc378daa952ba7f163c4a11628f55a4df523b3ef906020015b60405180910390a3505050565b611e748383836040516024016130e193929190614b73565b60408051601f198184030181529190526020810180516001600160e01b031663ca47c4eb60e01b179052613ffb565b6113838282604051602401613126929190614b98565b60408051601f198184030181529190526020810180516001600160e01b0316632d839cb360e21b179052613ffb565b60408051808201909152600c81526b5a65726f206164647265737360a01b60208201526001600160a01b03841661319f5760405162461bcd60e51b8152600401610ca09190614243565b5060408051808201909152600c81526b5a65726f206164647265737360a01b60208201526001600160a01b0383166131ea5760405162461bcd60e51b8152600401610ca09190614243565b506001600160a01b038381166000818152601b602090815260408083209487168084529482529182902085905590518481527f8c5be1e5ebec7d5bd14f71427d1e84f3dd0314c0f7b2291e5b200ac8c7c3b92591016130bc565b6000611162601c5461325461327d565b614004565b613264600180614028565b8015613275576132758383836136df565b611e746140f7565b60008061328a603661415b565b60495460385491925060009182916001600160a01b031690635aff34dc906132b46005600a614989565b6132be9190614733565b6132ca6005600a614989565b6040516001600160e01b031960e085901b1681526004810192909252602482015260448101869052600160648201526084016040805180830381865afa158015613318573d6000803e3d6000fd5b505050506040513d601f19601f8201168201806040525081019061333c9190614bba565b9150915060006133526036600a0154848461417c565b603f54909150613363908290614733565b94505050505090565b604080516101608101825260365481526037546020808301918252603854838501526039546001600160a01b039081166060850152603a546080850152603b5460a0850152603c5460c0850152603d5460e0850152603e546101008501908152603f5461012086015285546101408601529086166000908152604183528581208651808801909752805487526001015492860192909252519151909384939290918491829161341b9043614711565b6134259190614733565b91506000613437838560000151614004565b604954604087015191925060009182916001600160a01b031690635aff34dc906134636005600a614989565b61346d9190614733565b6134796005600a614989565b6040516001600160e01b031960e085901b1681526004810192909252602482015260448101869052600160648201526084016040805180830381865afa1580156134c7573d6000803e3d6000fd5b505050506040513d601f19601f820116820180604052508101906134eb9190614bba565b91509150600061350164e8d4a510008484612da1565b90506135128164e8d4a51000614733565b6001600160a01b038c166000908152601d60205260408120549196509064e8d4a51000906135419088906146dc565b61354b9190614711565b969c969b50959950505050505050505050565b60408051808201909152600c81526b5a65726f206164647265737360a01b60208201526000906001600160a01b0385166135ab5760405162461bcd60e51b8152600401610ca09190614243565b506001600160a01b038085166000908152601b602090815260408083209387168352929052205461120e90859085906111fc90869061488d565b60408051808201909152600c81526b5a65726f206164647265737360a01b60208201526001600160a01b03831661362f5760405162461bcd60e51b8152600401610ca09190614243565b5061363c82826001613be9565b6040518181526001600160a01b038316906000907fddf252ad1be2c89b69c2b068fc378daa952ba7f163c4a11628f55a4df523b3ef9060200160405180910390a35050565b600e80546001600160a01b0383811663010000008181026301000000600160b81b031985161790945560405193909204169182907f8be0079c531659141344cd1fd0a4f28419497f9722a3daafe3b4186f6b6457e090600090a35050565b60408051808201909152600c81526b5a65726f206164647265737360a01b60208201526001600160a01b0384166137295760405162461bcd60e51b8152600401610ca09190614243565b5060408051808201909152600c81526b5a65726f206164647265737360a01b60208201526001600160a01b0383166137745760405162461bcd60e51b8152600401610ca09190614243565b50600061378084612f2e565b9050818110156040518060400160405280600f81526020016e457863656564732062616c616e636560881b815250906137cc5760405162461bcd60e51b8152600401610ca09190614243565b506137d984836000613be9565b6137e583836001613be9565b826001600160a01b0316846001600160a01b03167fddf252ad1be2c89b69c2b068fc378daa952ba7f163c4a11628f55a4df523b3ef8460405161382a91815260200190565b60405180910390a350505050565b60005461010090046001600160a01b031633148061385557503330145b806138835750600e54630100000090046001600160a01b03166001600160a01b0316336001600160a01b0316145b61389f5760405162461bcd60e51b8152600401610ca090614a29565b6001600160a01b038116301461396a5760405163085b199160e11b815273__$88bebae22a3ad6e62b56c303176513ecf8$__906310b63322906138eb9086908690600290600401614bee565b60006040518083038186803b15801561390357600080fd5b505af4158015613917573d6000803e3d6000fd5b506000925050506001600160a01b038216156139335781613935565b305b6001546040516349443ceb60e11b81529192506001600160a01b03169063928879d690611e0290879087908690600401614c16565b7fb45c42dda0a5ab1d1078e0afeda2976363eff9496a93644e726862f1f06186b88383604051611e6b929190614c46565b60195460408051632e9c96d560e11b815290516000926001600160a01b031691635d392daa916004808301926020929190829003018187875af11580156139e6573d6000803e3d6000fd5b505050506040513d601f19601f820116820180604052508101906111629190614c6c565b61113e81604051602401613a1e9190614243565b60408051601f198184030181529190526020810180516001600160e01b031663104c13eb60e21b179052613ffb565b6000806000613a5c85856141ba565b90506000613a6a8686613b7c565b9050808210613a80579081900392509050613a93565b6001613a8c8383613ae6565b0393509150505b9250929050565b60008180613aaa57613aaa6146fb565b838509949350505050565b600080828410613acb5750839050818303613ade565b60018503613ad98585613ae6565b915091505b935093915050565b60006112128284614733565b600080613b1983613b04600086613ae6565b81613b1157613b116146fb565b506000919050565b9050828481613b2a57613b2a6146fb565b04613b358683613b7c565b1795945050505050565b60006001815b6008811015613b7557613b6b82613b666002613b618689613b7c565b613ae6565b613b7c565b9150600101613b45565b5092915050565b600061121282846146dc565b6001600160a01b038181166000908152600a602052604081205490911615801561115257507f00000000000000000000000000000000000000000000000000000000000000006001600160a01b0316826001600160a01b0316141592915050565b613bf283613b88565b15613f2f57603f546001600160a01b0384166000908152601d6020526040902054613c1d9190614004565b50604080546001600160a01b038516600090815260416020529190912060010154613c489190614004565b50600080613c558561336c565b6001600160a01b038716600090815260416020526040902082905590925090508015613cf2576001600160a01b0385166000908152601d6020526040902054613c9e9082614004565b6001600160a01b0386166000908152601d6020526040902055603b54613cc49082614004565b603b55601c54613cd49082614004565b601c55603c8054829190600090613cec90849061488d565b90915550505b8215613d5e576001600160a01b0385166000908152601d602052604081208054869290613d2090849061488d565b9091555050603b8054859190600090613d3a90849061488d565b9250508190555083601c6000828254613d53919061488d565b90915550613dbb9050565b6001600160a01b0385166000908152601d6020526040902054613d819085614004565b6001600160a01b0386166000908152601d6020526040902055603b54613da79085614004565b603b55601c54613db79085614004565b601c555b6001600160a01b0385166000908152601d6020526040812054603f805491929091613de790849061488d565b909155505060495460009081906001600160a01b0316635aff34dc613e0e6005600a614989565b603854613e1d6005600a614989565b613e279190614733565b6001600160a01b038b166000908152604160205260409081902054905160e085901b6001600160e01b0319168152600481019390935260248301919091526044820152600160648201526084016040805180830381865afa158015613e90573d6000803e3d6000fd5b505050506040513d601f19601f82011682018060405250810190613eb49190614bba565b6001600160a01b0389166000908152601d6020526040812054929450909250908290613ee19085906146dc565b613eeb9190614711565b6001600160a01b03891660009081526041602052604080822060010183905580549293508392909190613f1f90849061488d565b90915550611e7495505050505050565b8015613f9a576001600160a01b0383166000908152601d602052604081208054849290613f5d90849061488d565b925050819055508160426000828254613f76919061488d565b9250508190555081601c6000828254613f8f919061488d565b90915550611e749050565b6001600160a01b0383166000908152601d6020526040902054613fbd9083614004565b6001600160a01b0384166000908152601d6020526040902055604254613fe39083614004565b604255601c54613ff39083614004565b601c55505050565b61113e816141c9565b60008183111561401f576140188284614733565b9050611152565b50600092915050565b601954604051634be5482760e01b81526001600160a01b0390911690634be548279061405a9085908590600401614c89565b6080604051808303816000875af1158015614079573d6000803e3d6000fd5b505050506040513d601f19601f8201168201806040525081019061409d9190614ca6565b805160158054909190829060ff191660018360058111156140c0576140c061435f565b021790555060208201516001820155604082015160028201556060909101516003909101805460ff19169115159190911790555050565b601960009054906101000a90046001600160a01b03166001600160a01b031663431b3c306040518163ffffffff1660e01b8152600401600060405180830381600087803b15801561414757600080fd5b505af1158015612ace573d6000803e3d6000fd5b600081600801548260010154436141729190614711565b6111529190614733565b60008061418a858585612da1565b90506000614199868686613a9a565b11156141b2576141aa8160016141ea565b915050611212565b949350505050565b60006000198284099392505050565b60006a636f6e736f6c652e6c6f679050600080835160208501845afa505050565b6000611212828461488d565b6000815180845260005b8181101561421c57602081850181015186830182015201614200565b8181111561422e576000602083870101525b50601f01601f19169290920160200192915050565b60208152600061121260208301846141f6565b80356001600160a01b0381168114612fce57600080fd5b6000806040838503121561428057600080fd5b61428983614256565b946020939093013593505050565b6006811061113e57600080fd5b6000602082840312156142b657600080fd5b813561121281614297565b6000806000606084860312156142d657600080fd5b6142df84614256565b92506142ed60208501614256565b9150604084013590509250925092565b60006020828403121561430f57600080fd5b61121282614256565b801515811461113e57600080fd5b6000806040838503121561433957600080fd5b823561434481614297565b9150602083013561435481614318565b809150509250929050565b634e487b7160e01b600052602160045260246000fd5b600681106143855761438561435f565b9052565b600060808201905061439c828451614375565b602083015160208301526040830151604083015260608301511515606083015292915050565b602081016111528284614375565b60008060008084860360808112156143e757600080fd5b6143f086614256565b94506020868101359450603f198201121561440a57600080fd5b50604085019150606085013561441f81614318565b939692955090935050565b6000806040838503121561443d57600080fd5b61444683614256565b915061445460208401614256565b90509250929050565b60006020828403121561446f57600080fd5b5035919050565b634e487b7160e01b600052604160045260246000fd5b604051601f8201601f1916810167ffffffffffffffff811182821017156144b5576144b5614476565b604052919050565b600080600083850360608112156144d357600080fd5b84356144de81614297565b93506020601f19820112156144f257600080fd5b506040516020810181811067ffffffffffffffff8211171561451657614516614476565b604052602085013563ffffffff8116811461453057600080fd5b8152915061454060408501614256565b90509250925092565b60008060006060848603121561455e57600080fd5b83356005811061456d57600080fd5b925061457b60208501614256565b915061454060408501614256565b6000806040838503121561459c57600080fd5b50508035926020909101359150565b600080600080600060a086880312156145c357600080fd5b6145cc86614256565b94506145da60208701614256565b93506145e860408701614256565b92506060860135600481106145fc57600080fd5b915061460a60808701614256565b90509295509295909350565b600080828403604081121561462a57600080fd5b602081121561463857600080fd5b506040516020810181811067ffffffffffffffff8211171561465c5761465c614476565b60405261466884614256565b8152915061445460208401614256565b600481106143855761438561435f565b6001600160a01b03848116825283166020820152606081016141b26040830184614678565b6000602082840312156146bf57600080fd5b5051919050565b634e487b7160e01b600052601160045260246000fd5b60008160001904831182151516156146f6576146f66146c6565b500290565b634e487b7160e01b600052601260045260246000fd5b60008261472e57634e487b7160e01b600052601260045260246000fd5b500490565b600082821015614745576147456146c6565b500390565b634e487b7160e01b600052603260045260246000fd5b600060808201868352602060808185015281875180845260a086019150828901935060005b818110156147aa5784516001600160a01b031683529383019391830191600101614785565b50506001600160a01b039690961660408501525050506060015292915050565b600060208083850312156147dd57600080fd5b825167ffffffffffffffff808211156147f557600080fd5b818501915085601f83011261480957600080fd5b81518181111561481b5761481b614476565b8060051b915061482c84830161448c565b818152918301840191848101908884111561484657600080fd5b938501935b838510156148645784518252938501939085019061484b565b98975050505050505050565b60006020828403121561488257600080fd5b815161121281614318565b600082198211156148a0576148a06146c6565b500190565b600181815b808511156148e05781600019048211156148c6576148c66146c6565b808516156148d357918102915b93841c93908002906148aa565b509250929050565b6000826148f757506001611152565b8161490457506000611152565b816001811461491a576002811461492457614940565b6001915050611152565b60ff841115614935576149356146c6565b50506001821b611152565b5060208310610133831016604e8410600b8410161715614963575081810a611152565b61496d83836148a5565b8060001904821115614981576149816146c6565b029392505050565b600061121283836148e8565b6020808252818101527f4f776e61626c653a2063616c6c6572206973206e6f7420746865206f776e6572604082015260600190565b6020808252601590820152742737ba10309039b2b9b9b4b7b71036b0b730b3b2b960591b604082015260600190565b600081614a0857614a086146c6565b506000190190565b600060018201614a2257614a226146c6565b5060010190565b60208082526010908201526f496e76616c69642063616c6c6572203160801b604082015260600190565b60608101614a618286614375565b83602083015263ffffffff8351166040830152949350505050565b60608101614a8a8286614375565b925163ffffffff1660208201526001600160a01b0391909116604090910152919050565b60408101614abc8285614375565b63ffffffff83511660208301529392505050565b6001600160a01b03948516815292841660208401529083166040830152909116606082015260800190565b6001600160a01b0386811682528581166020830152848116604083015260a0820190614b2a6060840186614678565b8084166080840152509695505050505050565b6001600160a01b03858116825284811660208301528316604082015260808101614b6a6060830184614678565b95945050505050565b606081526000614b8660608301866141f6565b60208301949094525060400152919050565b604081526000614bab60408301856141f6565b90508260208301529392505050565b60008060408385031215614bcd57600080fd5b505080516020909101519092909150565b600581106143855761438561435f565b60608101614bfc8286614bde565b6001600160a01b0393909316602082015260400152919050565b60608101614c248286614bde565b6001600160a01b03938416602083015291909216604090920191909152919050565b60408101614c548285614bde565b6001600160a01b039290921660209190910152919050565b600060208284031215614c7e57600080fd5b815161121281614297565b60408101614c978285614375565b82151560208301529392505050565b600060808284031215614cb857600080fd5b6040516080810181811067ffffffffffffffff82111715614cdb57614cdb614476565b6040528251614ce981614297565b8082525060208301516020820152604083015160408201526060830151614d0f81614318565b6060820152939250505056fe5f62616c616e63654f662e2070656e64696e67203e205f62616c616e6365735b6163636f756e745d46544d20616e6420544752206761696e6564206279204c502064696c7574696f6e202d2d2d2d2da264697066735822122010c9ab89d4603657ac4cd191ecae1ccfaf1c967f1db9e1a7a09f03aa776a037464736f6c634300080e0033",
  "linkReferences": {
    "contracts/libraries/WireLibrary.sol": {
      "WireLibrary": [
        {
          "length": 20,
          "start": 11864
        },
        {
          "length": 20,
          "start": 13447
        },
        {
          "length": 20,
          "start": 13629
        },
        {
          "length": 20,
          "start": 13816
        },
        {
          "length": 20,
          "start": 15491
        },
        {
          "length": 20,
          "start": 18880
        }
      ]
    }
  },
  "deployedLinkReferences": {
    "contracts/libraries/WireLibrary.sol": {
      "WireLibrary": [
        {
          "length": 20,
          "start": 7510
        },
        {
          "length": 20,
          "start": 9093
        },
        {
          "length": 20,
          "start": 9275
        },
        {
          "length": 20,
          "start": 9462
        },
        {
          "length": 20,
          "start": 11137
        },
        {
          "length": 20,
          "start": 14526
        }
      ]
    }
  }
}