{
  "_format": "hh-sol-artifact-1",
  "contractName": "TGRToken",
  "sourceName": "contracts/farm/TGRToken.sol",
  "abi": [
    {
      "inputs": [
        {
          "internalType": "address",
          "name": "_analyticMath",
          "type": "address"
        }
      ],
      "stateMutability": "nonpayable",
      "type": "constructor"
    },
    {
      "anonymous": false,
      "inputs": [
        {
          "indexed": true,
          "internalType": "address",
          "name": "owner",
          "type": "address"
        },
        {
          "indexed": true,
          "internalType": "address",
          "name": "spender",
          "type": "address"
        },
        {
          "indexed": false,
          "internalType": "uint256",
          "name": "value",
          "type": "uint256"
        }
      ],
      "name": "Approval",
      "type": "event"
    },
    {
      "anonymous": false,
      "inputs": [],
      "name": "Begin",
      "type": "event"
    },
    {
      "anonymous": false,
      "inputs": [
        {
          "indexed": false,
          "internalType": "address",
          "name": "pair",
          "type": "address"
        },
        {
          "indexed": false,
          "internalType": "address",
          "name": "tokenA",
          "type": "address"
        },
        {
          "indexed": false,
          "internalType": "address",
          "name": "tokenB",
          "type": "address"
        },
        {
          "indexed": false,
          "internalType": "enum ListStatus",
          "name": "status",
          "type": "uint8"
        }
      ],
      "name": "ChangePairStatus",
      "type": "event"
    },
    {
      "anonymous": false,
      "inputs": [
        {
          "indexed": false,
          "internalType": "address",
          "name": "token",
          "type": "address"
        },
        {
          "indexed": false,
          "internalType": "address",
          "name": "msgSender",
          "type": "address"
        }
      ],
      "name": "DeenlistToken",
      "type": "event"
    },
    {
      "anonymous": false,
      "inputs": [
        {
          "indexed": true,
          "internalType": "address",
          "name": "previousOwner",
          "type": "address"
        },
        {
          "indexed": true,
          "internalType": "address",
          "name": "newOwner",
          "type": "address"
        }
      ],
      "name": "OwnershipTransferred",
      "type": "event"
    },
    {
      "anonymous": false,
      "inputs": [
        {
          "indexed": false,
          "internalType": "enum ActionType",
          "name": "_sessionType",
          "type": "uint8"
        },
        {
          "components": [
            {
              "internalType": "uint32",
              "name": "accountant",
              "type": "uint32"
            }
          ],
          "indexed": false,
          "internalType": "struct FeeRates",
          "name": "_feeRates",
          "type": "tuple"
        }
      ],
      "name": "SetFeeRates",
      "type": "event"
    },
    {
      "anonymous": false,
      "inputs": [
        {
          "components": [
            {
              "internalType": "address",
              "name": "accountant",
              "type": "address"
            }
          ],
          "indexed": false,
          "internalType": "struct FeeStores",
          "name": "_feeStores",
          "type": "tuple"
        }
      ],
      "name": "SetFeeStores",
      "type": "event"
    },
    {
      "anonymous": false,
      "inputs": [
        {
          "indexed": false,
          "internalType": "enum NodeType",
          "name": "nodeType",
          "type": "uint8"
        },
        {
          "indexed": false,
          "internalType": "address",
          "name": "node",
          "type": "address"
        }
      ],
      "name": "SetNode",
      "type": "event"
    },
    {
      "anonymous": false,
      "inputs": [
        {
          "indexed": true,
          "internalType": "address",
          "name": "from",
          "type": "address"
        },
        {
          "indexed": true,
          "internalType": "address",
          "name": "to",
          "type": "address"
        },
        {
          "indexed": false,
          "internalType": "uint256",
          "name": "value",
          "type": "uint256"
        }
      ],
      "name": "Transfer",
      "type": "event"
    },
    {
      "inputs": [
        {
          "internalType": "address",
          "name": "_owner",
          "type": "address"
        },
        {
          "internalType": "address",
          "name": "_spender",
          "type": "address"
        },
        {
          "internalType": "uint256",
          "name": "subtractedValue",
          "type": "uint256"
        }
      ],
      "name": "_decreaseAllowance",
      "outputs": [
        {
          "internalType": "bool",
          "name": "",
          "type": "bool"
        }
      ],
      "stateMutability": "nonpayable",
      "type": "function"
    },
    {
      "inputs": [
        {
          "internalType": "address",
          "name": "_owner",
          "type": "address"
        },
        {
          "internalType": "address",
          "name": "_spender",
          "type": "address"
        }
      ],
      "name": "allowance",
      "outputs": [
        {
          "internalType": "uint256",
          "name": "",
          "type": "uint256"
        }
      ],
      "stateMutability": "view",
      "type": "function"
    },
    {
      "inputs": [
        {
          "internalType": "address",
          "name": "spender",
          "type": "address"
        },
        {
          "internalType": "uint256",
          "name": "amount",
          "type": "uint256"
        }
      ],
      "name": "approve",
      "outputs": [
        {
          "internalType": "bool",
          "name": "",
          "type": "bool"
        }
      ],
      "stateMutability": "nonpayable",
      "type": "function"
    },
    {
      "inputs": [
        {
          "internalType": "address",
          "name": "account",
          "type": "address"
        }
      ],
      "name": "balanceOf",
      "outputs": [
        {
          "internalType": "uint256",
          "name": "",
          "type": "uint256"
        }
      ],
      "stateMutability": "view",
      "type": "function"
    },
    {
      "inputs": [
        {
          "internalType": "address",
          "name": "caller",
          "type": "address"
        }
      ],
      "name": "begin",
      "outputs": [],
      "stateMutability": "nonpayable",
      "type": "function"
    },
    {
      "inputs": [
        {
          "internalType": "address",
          "name": "from",
          "type": "address"
        },
        {
          "internalType": "uint256",
          "name": "amount",
          "type": "uint256"
        }
      ],
      "name": "burn",
      "outputs": [],
      "stateMutability": "nonpayable",
      "type": "function"
    },
    {
      "inputs": [
        {
          "internalType": "uint256",
          "name": "_buysell_burn_rate",
          "type": "uint256"
        },
        {
          "internalType": "uint256",
          "name": "_shift_burn_rate",
          "type": "uint256"
        }
      ],
      "name": "changeBurnRates",
      "outputs": [],
      "stateMutability": "nonpayable",
      "type": "function"
    },
    {
      "inputs": [
        {
          "internalType": "address",
          "name": "pair",
          "type": "address"
        },
        {
          "internalType": "address",
          "name": "token0",
          "type": "address"
        },
        {
          "internalType": "address",
          "name": "token1",
          "type": "address"
        },
        {
          "internalType": "enum ListStatus",
          "name": "status",
          "type": "uint8"
        },
        {
          "internalType": "address",
          "name": "caller",
          "type": "address"
        }
      ],
      "name": "changePairStatus",
      "outputs": [],
      "stateMutability": "nonpayable",
      "type": "function"
    },
    {
      "inputs": [],
      "name": "checkForConsistency",
      "outputs": [],
      "stateMutability": "view",
      "type": "function"
    },
    {
      "inputs": [],
      "name": "decimals",
      "outputs": [
        {
          "internalType": "uint8",
          "name": "",
          "type": "uint8"
        }
      ],
      "stateMutability": "view",
      "type": "function"
    },
    {
      "inputs": [
        {
          "internalType": "address",
          "name": "spender",
          "type": "address"
        },
        {
          "internalType": "uint256",
          "name": "subtractedValue",
          "type": "uint256"
        }
      ],
      "name": "decreaseAllowance",
      "outputs": [
        {
          "internalType": "bool",
          "name": "",
          "type": "bool"
        }
      ],
      "stateMutability": "nonpayable",
      "type": "function"
    },
    {
      "inputs": [
        {
          "internalType": "enum ActionType",
          "name": "",
          "type": "uint8"
        }
      ],
      "name": "feeRates",
      "outputs": [
        {
          "internalType": "uint32",
          "name": "accountant",
          "type": "uint32"
        }
      ],
      "stateMutability": "view",
      "type": "function"
    },
    {
      "inputs": [],
      "name": "feeStores",
      "outputs": [
        {
          "internalType": "address",
          "name": "accountant",
          "type": "address"
        }
      ],
      "stateMutability": "view",
      "type": "function"
    },
    {
      "inputs": [],
      "name": "getCurrentActionType",
      "outputs": [
        {
          "internalType": "enum ActionType",
          "name": "",
          "type": "uint8"
        }
      ],
      "stateMutability": "view",
      "type": "function"
    },
    {
      "inputs": [],
      "name": "getOwner",
      "outputs": [
        {
          "internalType": "address",
          "name": "",
          "type": "address"
        }
      ],
      "stateMutability": "view",
      "type": "function"
    },
    {
      "inputs": [],
      "name": "htzFtm",
      "outputs": [
        {
          "internalType": "address",
          "name": "",
          "type": "address"
        }
      ],
      "stateMutability": "view",
      "type": "function"
    },
    {
      "inputs": [
        {
          "internalType": "address",
          "name": "spender",
          "type": "address"
        },
        {
          "internalType": "uint256",
          "name": "addedValue",
          "type": "uint256"
        }
      ],
      "name": "increaseAllowance",
      "outputs": [
        {
          "internalType": "bool",
          "name": "",
          "type": "bool"
        }
      ],
      "stateMutability": "nonpayable",
      "type": "function"
    },
    {
      "inputs": [],
      "name": "lastSession",
      "outputs": [
        {
          "internalType": "uint256",
          "name": "",
          "type": "uint256"
        }
      ],
      "stateMutability": "view",
      "type": "function"
    },
    {
      "inputs": [],
      "name": "lp_reward",
      "outputs": [
        {
          "internalType": "uint256",
          "name": "latestTime",
          "type": "uint256"
        },
        {
          "internalType": "uint256",
          "name": "cycle",
          "type": "uint256"
        },
        {
          "internalType": "uint256",
          "name": "decayRate",
          "type": "uint256"
        },
        {
          "internalType": "address",
          "name": "account",
          "type": "address"
        },
        {
          "internalType": "uint256",
          "name": "accDecayPer1e12",
          "type": "uint256"
        },
        {
          "internalType": "uint256",
          "name": "sum_tokens",
          "type": "uint256"
        },
        {
          "internalType": "uint256",
          "name": "pending_burn",
          "type": "uint256"
        },
        {
          "internalType": "uint256",
          "name": "latestRound",
          "type": "uint256"
        }
      ],
      "stateMutability": "view",
      "type": "function"
    },
    {
      "inputs": [],
      "name": "maxSupply",
      "outputs": [
        {
          "internalType": "uint256",
          "name": "",
          "type": "uint256"
        }
      ],
      "stateMutability": "view",
      "type": "function"
    },
    {
      "inputs": [
        {
          "internalType": "address",
          "name": "to",
          "type": "address"
        },
        {
          "internalType": "uint256",
          "name": "amount",
          "type": "uint256"
        }
      ],
      "name": "mint",
      "outputs": [],
      "stateMutability": "nonpayable",
      "type": "function"
    },
    {
      "inputs": [],
      "name": "name",
      "outputs": [
        {
          "internalType": "string",
          "name": "",
          "type": "string"
        }
      ],
      "stateMutability": "view",
      "type": "function"
    },
    {
      "inputs": [],
      "name": "nextNode",
      "outputs": [
        {
          "internalType": "address",
          "name": "",
          "type": "address"
        }
      ],
      "stateMutability": "view",
      "type": "function"
    },
    {
      "inputs": [],
      "name": "owner",
      "outputs": [
        {
          "internalType": "address",
          "name": "",
          "type": "address"
        }
      ],
      "stateMutability": "view",
      "type": "function"
    },
    {
      "inputs": [
        {
          "internalType": "address",
          "name": "",
          "type": "address"
        },
        {
          "internalType": "address",
          "name": "",
          "type": "address"
        }
      ],
      "name": "pairFor",
      "outputs": [
        {
          "internalType": "address",
          "name": "",
          "type": "address"
        }
      ],
      "stateMutability": "view",
      "type": "function"
    },
    {
      "inputs": [
        {
          "internalType": "address",
          "name": "",
          "type": "address"
        }
      ],
      "name": "pairs",
      "outputs": [
        {
          "internalType": "address",
          "name": "token0",
          "type": "address"
        },
        {
          "internalType": "address",
          "name": "token1",
          "type": "address"
        },
        {
          "internalType": "enum ListStatus",
          "name": "status",
          "type": "uint8"
        }
      ],
      "stateMutability": "view",
      "type": "function"
    },
    {
      "inputs": [],
      "name": "pause",
      "outputs": [],
      "stateMutability": "nonpayable",
      "type": "function"
    },
    {
      "inputs": [],
      "name": "paused",
      "outputs": [
        {
          "internalType": "bool",
          "name": "",
          "type": "bool"
        }
      ],
      "stateMutability": "view",
      "type": "function"
    },
    {
      "inputs": [
        {
          "internalType": "address",
          "name": "account",
          "type": "address"
        },
        {
          "internalType": "uint256",
          "name": "principal",
          "type": "uint256"
        },
        {
          "components": [
            {
              "internalType": "uint32",
              "name": "accountant",
              "type": "uint32"
            }
          ],
          "internalType": "struct FeeRates",
          "name": "rates",
          "type": "tuple"
        },
        {
          "internalType": "bool",
          "name": "fromAllowance",
          "type": "bool"
        }
      ],
      "name": "payFeeTgrLogic",
      "outputs": [
        {
          "internalType": "uint256",
          "name": "feesPaid",
          "type": "uint256"
        }
      ],
      "stateMutability": "nonpayable",
      "type": "function"
    },
    {
      "inputs": [],
      "name": "prevNode",
      "outputs": [
        {
          "internalType": "address",
          "name": "",
          "type": "address"
        }
      ],
      "stateMutability": "view",
      "type": "function"
    },
    {
      "inputs": [],
      "name": "pulse_lp_reward",
      "outputs": [],
      "stateMutability": "nonpayable",
      "type": "function"
    },
    {
      "inputs": [],
      "name": "pulse_user_burn",
      "outputs": [],
      "stateMutability": "nonpayable",
      "type": "function"
    },
    {
      "inputs": [],
      "name": "pulse_vote_burn",
      "outputs": [],
      "stateMutability": "nonpayable",
      "type": "function"
    },
    {
      "inputs": [
        {
          "internalType": "enum ActionType",
          "name": "actionType",
          "type": "uint8"
        },
        {
          "internalType": "bool",
          "name": "blockReentry",
          "type": "bool"
        }
      ],
      "name": "registerAction",
      "outputs": [
        {
          "components": [
            {
              "internalType": "enum ActionType",
              "name": "actionType",
              "type": "uint8"
            },
            {
              "internalType": "uint256",
              "name": "session",
              "type": "uint256"
            },
            {
              "internalType": "uint256",
              "name": "lastSession",
              "type": "uint256"
            },
            {
              "internalType": "bool",
              "name": "isUserAction",
              "type": "bool"
            }
          ],
          "internalType": "struct ActionParams",
          "name": "actionParams",
          "type": "tuple"
        }
      ],
      "stateMutability": "nonpayable",
      "type": "function"
    },
    {
      "inputs": [],
      "name": "renounceOwnership",
      "outputs": [],
      "stateMutability": "nonpayable",
      "type": "function"
    },
    {
      "inputs": [],
      "name": "resume",
      "outputs": [],
      "stateMutability": "nonpayable",
      "type": "function"
    },
    {
      "inputs": [],
      "name": "session",
      "outputs": [
        {
          "internalType": "uint256",
          "name": "",
          "type": "uint256"
        }
      ],
      "stateMutability": "view",
      "type": "function"
    },
    {
      "inputs": [
        {
          "internalType": "enum ActionType",
          "name": "",
          "type": "uint8"
        }
      ],
      "name": "sessionsLastSeenBySType",
      "outputs": [
        {
          "internalType": "uint256",
          "name": "",
          "type": "uint256"
        }
      ],
      "stateMutability": "view",
      "type": "function"
    },
    {
      "inputs": [
        {
          "internalType": "enum ActionType",
          "name": "_sessionType",
          "type": "uint8"
        },
        {
          "components": [
            {
              "internalType": "uint32",
              "name": "accountant",
              "type": "uint32"
            }
          ],
          "internalType": "struct FeeRates",
          "name": "_feeRates",
          "type": "tuple"
        },
        {
          "internalType": "address",
          "name": "caller",
          "type": "address"
        }
      ],
      "name": "setFeeRates",
      "outputs": [],
      "stateMutability": "nonpayable",
      "type": "function"
    },
    {
      "inputs": [
        {
          "components": [
            {
              "internalType": "address",
              "name": "accountant",
              "type": "address"
            }
          ],
          "internalType": "struct FeeStores",
          "name": "_feeStores",
          "type": "tuple"
        },
        {
          "internalType": "address",
          "name": "caller",
          "type": "address"
        }
      ],
      "name": "setFeeStores",
      "outputs": [],
      "stateMutability": "nonpayable",
      "type": "function"
    },
    {
      "inputs": [
        {
          "internalType": "enum NodeType",
          "name": "nodeType",
          "type": "uint8"
        },
        {
          "internalType": "address",
          "name": "node",
          "type": "address"
        },
        {
          "internalType": "address",
          "name": "caller",
          "type": "address"
        }
      ],
      "name": "setNode",
      "outputs": [],
      "stateMutability": "nonpayable",
      "type": "function"
    },
    {
      "inputs": [],
      "name": "symbol",
      "outputs": [
        {
          "internalType": "string",
          "name": "",
          "type": "string"
        }
      ],
      "stateMutability": "view",
      "type": "function"
    },
    {
      "inputs": [],
      "name": "tgrBusd",
      "outputs": [
        {
          "internalType": "address",
          "name": "",
          "type": "address"
        }
      ],
      "stateMutability": "view",
      "type": "function"
    },
    {
      "inputs": [],
      "name": "tgrFtm",
      "outputs": [
        {
          "internalType": "address",
          "name": "",
          "type": "address"
        }
      ],
      "stateMutability": "view",
      "type": "function"
    },
    {
      "inputs": [],
      "name": "totalSupply",
      "outputs": [
        {
          "internalType": "uint256",
          "name": "",
          "type": "uint256"
        }
      ],
      "stateMutability": "view",
      "type": "function"
    },
    {
      "inputs": [
        {
          "internalType": "address",
          "name": "recipient",
          "type": "address"
        },
        {
          "internalType": "uint256",
          "name": "amount",
          "type": "uint256"
        }
      ],
      "name": "transfer",
      "outputs": [
        {
          "internalType": "bool",
          "name": "",
          "type": "bool"
        }
      ],
      "stateMutability": "nonpayable",
      "type": "function"
    },
    {
      "inputs": [
        {
          "internalType": "address",
          "name": "sender",
          "type": "address"
        },
        {
          "internalType": "address",
          "name": "recipient",
          "type": "address"
        },
        {
          "internalType": "uint256",
          "name": "amount",
          "type": "uint256"
        }
      ],
      "name": "transferDirectSafe",
      "outputs": [],
      "stateMutability": "nonpayable",
      "type": "function"
    },
    {
      "inputs": [
        {
          "internalType": "address",
          "name": "sender",
          "type": "address"
        },
        {
          "internalType": "address",
          "name": "recipient",
          "type": "address"
        },
        {
          "internalType": "uint256",
          "name": "amount",
          "type": "uint256"
        }
      ],
      "name": "transferFrom",
      "outputs": [
        {
          "internalType": "bool",
          "name": "",
          "type": "bool"
        }
      ],
      "stateMutability": "nonpayable",
      "type": "function"
    },
    {
      "inputs": [
        {
          "internalType": "address",
          "name": "newOwner",
          "type": "address"
        }
      ],
      "name": "transferOwnership",
      "outputs": [],
      "stateMutability": "nonpayable",
      "type": "function"
    },
    {
      "inputs": [],
      "name": "unregisterAction",
      "outputs": [],
      "stateMutability": "nonpayable",
      "type": "function"
    },
    {
      "inputs": [],
      "name": "user_burn",
      "outputs": [
        {
          "internalType": "uint256",
          "name": "latestTime",
          "type": "uint256"
        },
        {
          "internalType": "uint256",
          "name": "cycle",
          "type": "uint256"
        },
        {
          "internalType": "uint256",
          "name": "decayRate",
          "type": "uint256"
        },
        {
          "internalType": "address",
          "name": "account",
          "type": "address"
        },
        {
          "internalType": "uint256",
          "name": "accDecayPer1e12",
          "type": "uint256"
        },
        {
          "internalType": "uint256",
          "name": "sum_tokens",
          "type": "uint256"
        },
        {
          "internalType": "uint256",
          "name": "pending_burn",
          "type": "uint256"
        },
        {
          "internalType": "uint256",
          "name": "latestRound",
          "type": "uint256"
        }
      ],
      "stateMutability": "view",
      "type": "function"
    },
    {
      "inputs": [],
      "name": "vote_burn",
      "outputs": [
        {
          "internalType": "uint256",
          "name": "latestTime",
          "type": "uint256"
        },
        {
          "internalType": "uint256",
          "name": "cycle",
          "type": "uint256"
        },
        {
          "internalType": "uint256",
          "name": "decayRate",
          "type": "uint256"
        },
        {
          "internalType": "address",
          "name": "account",
          "type": "address"
        },
        {
          "internalType": "uint256",
          "name": "accDecayPer1e12",
          "type": "uint256"
        },
        {
          "internalType": "uint256",
          "name": "sum_tokens",
          "type": "uint256"
        },
        {
          "internalType": "uint256",
          "name": "pending_burn",
          "type": "uint256"
        },
        {
          "internalType": "uint256",
          "name": "latestRound",
          "type": "uint256"
        }
      ],
      "stateMutability": "view",
      "type": "function"
    },
    {
      "inputs": [
        {
          "internalType": "address",
          "name": "_prevNode",
          "type": "address"
        },
        {
          "internalType": "address",
          "name": "_nextNode",
          "type": "address"
        }
      ],
      "name": "wire",
      "outputs": [],
      "stateMutability": "nonpayable",
      "type": "function"
    },
    {
      "stateMutability": "payable",
      "type": "receive"
    }
  ],
  "bytecode": "0x60a06040523480156200001157600080fd5b5060405162004eeb38038062004eeb833981016040819052620000349162000782565b6000805460ff19169055620000493362000358565b603e80546001600160a01b0319166001600160a01b0383161790556200006c3390565b603a80546001600160a01b039283166001600160a01b031991821617909155603b805482167370997970c51812dc3a010c7d01b50e0d17dc79c8179055603c80548216733c44cdddb6a900fa2b585dd299e03d12fa4293bc179055603d80549091167390f79bf6eb2c4f870365e785982e1f101e93b90617905573976ea74026e726554db657fa54763abd0c3a0aa960809081526040805161010081018252428082526002602083018190526102b2938301939093526008549094166060820152600092810183905260a0810183905260c0810192909252909160e08301916200015691620007ca565b90528051601e55602080820151601f556040808301518255606080840151602180546001600160a01b0319166001600160a01b0392831617905560808086015160225560a08087015160235560c08088015160245560e0978801516025558551610100810187524280825260029882018990526046978201979097528351909416948401949094526000918301829052820181905291810191909152928301916200020191620007ca565b90528051602655602080820151602755604080830151602855606080840151602980546001600160a01b0319166001600160a01b03909216919091179055608080850151602a5560a080860151602b5560c080870151602c5560e096870151602d5584516101008101865242808252600497820188905261030996820196909652600094810185905292830184905290820183905281019190915292830191620002ab91620007ca565b90528051602e556020810151602f5560408101516030556060810151603180546001600160a01b0319166001600160a01b03909216919091179055608081015160325560a081015160335560c081015160345560e00151603555617ab760385561343e603955600e805462ffffff191662010101179055620003516200032e3390565b6200033c6012600a620008ea565b6200034b90620f4240620008fb565b620003b6565b50620009aa565b600e80546001600160a01b0383811663010000008181026301000000600160b81b031985161790945560405193909204169182907f8be0079c531659141344cd1fd0a4f28419497f9722a3daafe3b4186f6b6457e090600090a35050565b60408051808201909152600c81526b5a65726f206164647265737360a01b60208201526001600160a01b0383166200040c5760405162461bcd60e51b81526004016200040391906200091d565b60405180910390fd5b5080601c600082825462000421919062000975565b90915550620004359050828260016200047f565b6040518181526001600160a01b038316906000907fddf252ad1be2c89b69c2b068fc378daa952ba7f163c4a11628f55a4df523b3ef9060200160405180910390a35050565b505050565b6200048a83620006c0565b15620006195760006200049d8462000705565b905080156200051b576001600160a01b0384166000908152601d6020526040902054620004cb90826200075a565b6001600160a01b0385166000908152601d6020526040902055603354620004f390826200075a565b603355601c546200050590826200075a565b601c556034546200051790826200075a565b6034555b811562000574576001600160a01b0384166000908152601d6020526040812080548592906200054c90849062000975565b9091555050603380548491906000906200056890849062000975565b90915550620005c09050565b6001600160a01b0384166000908152601d6020526040812080548592906200059e90849062000990565b909155505060338054849190600090620005ba90849062000990565b90915550505b6032546001600160a01b0385166000908152601d602052604090205464e8d4a5100091620005ee91620008fb565b620005fa9190620007ca565b6001600160a01b03851660009081526036602052604090205550505050565b801562000671576001600160a01b0383166000908152601d6020526040812080548492906200064a90849062000975565b92505081905550816037600082825462000665919062000975565b909155506200047a9050565b6001600160a01b0383166000908152601d6020526040812080548492906200069b90849062000990565b925050819055508160376000828254620006b6919062000990565b9091555050505050565b6001600160a01b038181166000908152600a6020526040812054909116158015620006ff57506080516001600160a01b0316826001600160a01b031614155b92915050565b6001600160a01b038116600090815260366020908152604080832054603254601d90935290832054909164e8d4a5100091620007429190620008fb565b6200074e9190620007ca565b620006ff919062000990565b600081831115620007795762000771828462000990565b9050620006ff565b50600092915050565b6000602082840312156200079557600080fd5b81516001600160a01b0381168114620007ad57600080fd5b9392505050565b634e487b7160e01b600052601160045260246000fd5b600082620007e857634e487b7160e01b600052601260045260246000fd5b500490565b600181815b808511156200082e578160001904821115620008125762000812620007b4565b808516156200082057918102915b93841c9390800290620007f2565b509250929050565b6000826200084757506001620006ff565b816200085657506000620006ff565b81600181146200086f57600281146200087a576200089a565b6001915050620006ff565b60ff8411156200088e576200088e620007b4565b50506001821b620006ff565b5060208310610133831016604e8410600b8410161715620008bf575081810a620006ff565b620008cb8383620007ed565b8060001904821115620008e257620008e2620007b4565b029392505050565b6000620007ad60ff84168362000836565b6000816000190483118215151615620009185762000918620007b4565b500290565b600060208083528351808285015260005b818110156200094c578581018301518582016040015282016200092e565b818111156200095f576000604083870101525b50601f01601f1916929092016040019392505050565b600082198211156200098b576200098b620007b4565b500190565b600082821015620009a557620009a5620007b4565b500390565b608051614525620009c6600039600061354e01526145256000f3fe60806040526004361061031e5760003560e01c80638456cb59116101ab578063a51bb24e116100f7578063e729a45511610095578063ed2deb8b1161006f578063ed2deb8b14610a3d578063f2fde38b14610a52578063f9a21e8a14610a72578063fe33b30214610a9257600080fd5b8063e729a455146109e5578063eca4c466146109fa578063ecd6f46a14610a1057600080fd5b8063cd537aa1116100d1578063cd537aa11461094a578063cdd9224c1461096a578063d5abeb011461098a578063dd62ed3e1461099f57600080fd5b8063a51bb24e146108ea578063a9059cbb1461090a578063cd193c431461092a57600080fd5b8063934923a3116101645780639dc29fac1161013e5780639dc29fac1461084e578063a13c1f671461086e578063a150da2a146108aa578063a457c2d7146108ca57600080fd5b8063934923a3146107c157806395d89b41146107e157806396ed28f91461080d57600080fd5b80638456cb5914610727578063893d20e81461073c5780638da5cb5b1461073c57806390e3677f1461076157806391fd0db714610781578063928879d6146107a157600080fd5b806340c10f191161026a5780635e3568b8116102235780636c93564f116101fd5780636c93564f146106a157806370a08231146106dd578063715018a6146106fd578063739572891461071257600080fd5b80635e3568b81461064b57806365715c561461066157806368fb3c721461068157600080fd5b806340c10f191461058d578063431b3c30146105ad5780634be54827146105c257806354abe9d0146105ef5780635c975abb1461060f5780635d392daa1461062957600080fd5b806310224711116102d7578063249dfad7116102b1578063249dfad7146104ad578063313ce567146104d25780633660777d146104ee578063395093511461056d57600080fd5b8063102247111461042257806318160ddd1461046a57806323b872dd1461048d57600080fd5b8063046f7da21461032a57806306fdde0314610341578063086a606c14610385578063095ea7b31461039a57806309b16a22146103ca5780630c3d536b1461040257600080fd5b3661032557005b600080fd5b34801561033657600080fd5b5061033f610aee565b005b34801561034d57600080fd5b506040805180820190915260098152682a23a9102a37b5b2b760b91b60208201525b60405161037c91906139c0565b60405180910390f35b34801561039157600080fd5b5061033f610b5e565b3480156103a657600080fd5b506103ba6103b53660046139ea565b610fea565b604051901515815260200161037c565b3480156103d657600080fd5b506008546103ea906001600160a01b031681565b6040516001600160a01b03909116815260200161037c565b34801561040e57600080fd5b506009546103ea906001600160a01b031681565b34801561042e57600080fd5b5061045561043d366004613a21565b600d6020526000908152604090205463ffffffff1681565b60405163ffffffff909116815260200161037c565b34801561047657600080fd5b5061047f611001565b60405190815260200161037c565b34801561049957600080fd5b506103ba6104a8366004613a3e565b611010565b3480156104b957600080fd5b506000546103ea9061010090046001600160a01b031681565b3480156104de57600080fd5b506040516012815260200161037c565b3480156104fa57600080fd5b50602654602754602854602954602a54602b54602c54602d5461052a979695946001600160a01b03169392919088565b604080519889526020890197909752958701949094526001600160a01b039092166060860152608085015260a084015260c083015260e08201526101000161037c565b34801561057957600080fd5b506103ba6105883660046139ea565b6110c1565b34801561059957600080fd5b5061033f6105a83660046139ea565b6110d5565b3480156105b957600080fd5b5061033f611184565b3480156105ce57600080fd5b506105e26105dd366004613a88565b611245565b60405161037c9190613aeb565b3480156105fb57600080fd5b5061033f61060a366004613b24565b61156c565b34801561061b57600080fd5b506014546103ba9060ff1681565b34801561063557600080fd5b5061063e61168f565b60405161037c9190613b3f565b34801561065757600080fd5b5061047f600f5481565b34801561066d57600080fd5b506001546103ea906001600160a01b031681565b34801561068d57600080fd5b5061047f61069c366004613b4d565b6116c1565b3480156106ad57600080fd5b50602e54602f5460305460315460325460335460345460355461052a979695946001600160a01b03169392919088565b3480156106e957600080fd5b5061047f6106f8366004613b24565b611729565b34801561070957600080fd5b5061033f611734565b34801561071e57600080fd5b5061033f611772565b34801561073357600080fd5b5061033f611a00565b34801561074857600080fd5b50600e54630100000090046001600160a01b03166103ea565b34801561076d57600080fd5b5061033f61077c366004613ba7565b611a6e565b34801561078d57600080fd5b5061033f61079c366004613c21565b611b0c565b3480156107ad57600080fd5b5061033f6107bc366004613cad565b611cc5565b3480156107cd57600080fd5b506007546103ea906001600160a01b031681565b3480156107ed57600080fd5b506040805180820190915260038152622a23a960e91b602082015261036f565b34801561081957600080fd5b506103ea610828366004613ba7565b600b6020908152600092835260408084209091529082529020546001600160a01b031681565b34801561085a57600080fd5b5061033f6108693660046139ea565b611d80565b34801561087a57600080fd5b50601e54601f5460205460215460225460235460245460255461052a979695946001600160a01b03169392919088565b3480156108b657600080fd5b506103ba6108c5366004613a3e565b611dbc565b3480156108d657600080fd5b506103ba6108e53660046139ea565b611e43565b3480156108f657600080fd5b5061033f610905366004613ced565b611e50565b34801561091657600080fd5b506103ba6109253660046139ea565b611ef4565b34801561093657600080fd5b5061033f610945366004613d0f565b611f01565b34801561095657600080fd5b5061033f610965366004613a3e565b61239d565b34801561097657600080fd5b5061033f610985366004613d7a565b6127ef565b34801561099657600080fd5b5061047f6129b4565b3480156109ab57600080fd5b5061047f6109ba366004613ba7565b6001600160a01b039182166000908152601b6020908152604080832093909416825291909152205490565b3480156109f157600080fd5b5061033f6129d1565b348015610a0657600080fd5b5061047f60105481565b348015610a1c57600080fd5b5061047f610a2b366004613a21565b60116020526000908152604090205481565b348015610a4957600080fd5b5061033f612a2d565b348015610a5e57600080fd5b5061033f610a6d366004613b24565b612ad7565b348015610a7e57600080fd5b50600c546103ea906001600160a01b031681565b348015610a9e57600080fd5b50610adf610aad366004613b24565b600a60205260009081526040902080546001909101546001600160a01b0391821691811690600160a01b900460ff1683565b60405161037c93929190613dec565b600e54630100000090046001600160a01b03166001600160a01b0316336001600160a01b031614610b525760405162461bcd60e51b81526020600482015260096024820152682737ba1037bbb732b960b91b60448201526064015b60405180910390fd5b6014805460ff19169055565b6000610b6a601e612b77565b90508015610fe7576000610b7d30612c1f565b9050600064e8d4a5100083600860009054906101000a90046001600160a01b03166001600160a01b03166318160ddd6040518163ffffffff1660e01b8152600401602060405180830381865afa158015610bdb573d6000803e3d6000fd5b505050506040513d601f19601f82011682018060405250810190610bff9190613e19565b610c099190613e48565b610c139190613e67565b6004805460405162d1b00d60e71b81523092810183905260248101849052600060448201819052606482019390935242608482015292935090916001600160a01b03909116906368d806809060a4016020604051808303816000875af1158015610c81573d6000803e3d6000fd5b505050506040513d601f19601f82011682018060405250810190610ca59190613e19565b905082610cb130612c1f565b610cbb9190613e89565b9250610cc73084612d12565b610cea60405180606001604052806027815260200161448c602791398285612e25565b604080516002808252606082018352600092602083019080368337019050509050735fc8d32690cc91d4c39d9d3abcbd16989f87570781600081518110610d3357610d33613ea0565b60200260200101906001600160a01b031690816001600160a01b03168152505073b7f8bc63bbcad18155201308c8f3540b07f84f5e81600181518110610d7b57610d7b613ea0565b6001600160a01b0392909216602092830291909101909101526040516370a0823160e01b815230600482015260009073b7f8bc63bbcad18155201308c8f3540b07f84f5e906370a0823190602401602060405180830381865afa158015610de6573d6000803e3d6000fd5b505050506040513d601f19601f82011682018060405250810190610e0a9190613e19565b600554604051637ff36ab560e01b81529192506001600160a01b031690637ff36ab5908590610e4490600090879030904290600401613eb6565b60006040518083038185885af1158015610e62573d6000803e3d6000fd5b50505050506040513d6000823e601f3d908101601f19168201604052610e8b9190810190613f20565b506040516370a0823160e01b8152306004820152819073b7f8bc63bbcad18155201308c8f3540b07f84f5e906370a0823190602401602060405180830381865afa158015610edd573d6000803e3d6000fd5b505050506040513d601f19601f82011682018060405250810190610f019190613e19565b610f0b9190613e89565b9050610f4c6040518060400160405280601881526020017f48545a206761696e65642062792073776170202d2d2d2d2d000000000000000081525082612e6c565b60405163a9059cbb60e01b815273f39fd6e51aad88f6f4ce6ab8827279cfffb9226660048201526024810182905273b7f8bc63bbcad18155201308c8f3540b07f84f5e9063a9059cbb906044016020604051808303816000875af1158015610fb8573d6000803e3d6000fd5b505050506040513d601f19601f82011682018060405250810190610fdc9190613fc6565b505042601e55505050505b50565b6000610ff7338484612eb1565b5060015b92915050565b600061100b612fa0565b905090565b60006001600160a01b03841633146110ac576001600160a01b0384166000908152601b60209081526040808320338452909152902054828110156110965760405162461bcd60e51b815260206004820152601a60248201527f5472616e73666572206578636565647320616c6c6f77616e63650000000000006044820152606401610b49565b6110aa85336110a58685613e89565b612eb1565b505b6110b7848484612fb2565b5060019392505050565b60006110ce338484613020565b9392505050565b600e546001600160a01b0363010000009091041633146111075760405162461bcd60e51b8152600401610b4990613fe3565b6111136012600a6140fc565b611121906302faf080613e48565b8161112a612fa0565b611134919061410b565b11156111765760405162461bcd60e51b8152602060048201526011602482015270457863656564204d617820537570706c7960781b6044820152606401610b49565b61118082826130a7565b5050565b60025433906001600160a01b03168114806111ac57506004546001600160a01b038281169116145b806111c457506005546001600160a01b038281169116145b6111e05760405162461bcd60e51b8152600401610b4990614123565b60006012601354601481106111f7576111f7613ea0565b602091828204019190066101000a81548160ff0219169083600581111561122057611220613ac1565b021790555060135415610fe7576013805490600061123d83614152565b919050555050565b60408051608081018252600080825260208201819052918101829052606081019190915260025433906001600160a01b031681148061129157506004546001600160a01b038281169116145b806112a957506005546001600160a01b038281169116145b6112c55760405162461bcd60e51b8152600401610b4990614123565b60145460ff16156113085760405162461bcd60e51b815260206004820152600d60248201526c14de5cdd195b481c185d5cd959609a1b6044820152606401610b49565b600084600581111561131c5761131c613ac1565b0361135a5760405162461bcd60e51b815260206004820152600e60248201526d24b73b30b634b21030b1ba34b7b760911b6044820152606401610b49565b82156114035760005b60135481116114015784600581111561137e5761137e613ac1565b6012826014811061139157611391613ea0565b602081049091015460ff601f9092166101000a90041660058111156113b8576113b8613ac1565b036113ef5760405162461bcd60e51b81526020600482015260076024820152665265656e74727960c81b6044820152606401610b49565b806113f981614169565b915050611363565b505b60135415801561142a575060125460009060ff16600581111561142857611428613ac1565b145b611444576013805490600061143e83614169565b91905055505b6014601354106114875760405162461bcd60e51b815260206004820152600e60248201526d537461636b206f766572666c6f7760901b6044820152606401610b49565b8360126013546014811061149d5761149d613ea0565b602091828204019190066101000a81548160ff021916908360058111156114c6576114c6613ac1565b0217905550818460058111156114de576114de613ac1565b908160058111156114f1576114f1613ac1565b90525060135415606083015260405160009061152590439032906020019182526001600160a01b0316602082015260400190565b6040516020818303038152906040528051906020012060001c905080600f541461155457600f80546010558190555b5050600f546020820152601054604082015292915050565b60005461010090046001600160a01b031633148061158957503330145b806115b75750600e54630100000090046001600160a01b03166001600160a01b0316336001600160a01b0316145b6115d35760405162461bcd60e51b8152600401610b4990614182565b6001600160a01b0381163014611663576001546001600160a01b03908116906354abe9d0908316156116055782611607565b305b6040516001600160e01b031960e084901b1681526001600160a01b039091166004820152602401600060405180830381600087803b15801561164857600080fd5b505af115801561165c573d6000803e3d6000fd5b5050505050565b6040517ffd3415c24b2b4519f08b7935c13f86ea010c77b3ff9bf448a474ae3b2414fce090600090a150565b60006012601354601481106116a6576116a6613ea0565b602081049091015460ff601f9092166101000a900416919050565b60025460009033906001600160a01b03168114806116ec57506004546001600160a01b038281169116145b8061170457506005546001600160a01b038281169116145b6117205760405162461bcd60e51b8152600401610b4990614123565b50949350505050565b6000610ffb82612c1f565b600e546001600160a01b0363010000009091041633146117665760405162461bcd60e51b8152600401610b4990613fe3565b611770600061315b565b565b601c54603754603354611785919061410b565b146117e85760405162461bcd60e51b815260206004820152602d60248201527f73756d5f746f6b656e73202b206e6f6e5573657253756d546f6b656e7320213d60448201526c205f746f74616c537570706c7960981b6064820152608401610b49565b603354603454111561184d5760405162461bcd60e51b815260206004820152602860248201527f757365725f70656e64696e675f6275726e206578636565647320757365725f736044820152671d5b57dd1bdd185b60c21b6064820152608401610b49565b603354603d546001600160a01b039081166000908152601d602052604080822054603c548416835281832054603b548516845282842054603a54909516845291909220549192909161189f919061410b565b6118a9919061410b565b6118b3919061410b565b1461194b57604080518082018252601081526f084848481a5b98dbdb9cda5cdd195b9d60821b602080830191909152603d546001600160a01b039081166000908152601d90925283822054603c548216835284832054603b548316845285842054603a549093168452949092205461194b949161192f9161410b565b611939919061410b565b611943919061410b565b603354612e25565b60345460335460009161195d91613e89565b603d54909150600090611978906001600160a01b0316611729565b603c5461198d906001600160a01b0316611729565b603b546119a2906001600160a01b0316611729565b603a546119b7906001600160a01b0316611729565b6119c1919061410b565b6119cb919061410b565b6119d5919061410b565b90506000818310156119f1576119eb8383613e89565b50505050565b6119eb8284613e89565b505050565b600e54630100000090046001600160a01b03166001600160a01b0316336001600160a01b031614611a5f5760405162461bcd60e51b81526020600482015260096024820152682737ba1037bbb732b960b91b6044820152606401610b49565b6014805460ff19166001179055565b600e54630100000090046001600160a01b03166001600160a01b0316336001600160a01b031614611ad45760405162461bcd60e51b815260206004820152601060248201526f496e76616c69642063616c6c6572203360801b6044820152606401610b49565b60008054610100600160a81b0319166101006001600160a01b0394851602179055600180546001600160a01b03191691909216179055565b60005461010090046001600160a01b0316331480611b2957503330145b80611b575750600e54630100000090046001600160a01b03166001600160a01b0316336001600160a01b0316145b611b735760405162461bcd60e51b8152600401610b4990614182565b6001600160a01b0381163014611c8757600e5462010000900460ff1615611c0157604051634f18125b60e01b815273__$88bebae22a3ad6e62b56c303176513ecf8$__90634f18125b90611bd0908690600d9087906004016141ac565b60006040518083038186803b158015611be857600080fd5b505af4158015611bfc573d6000803e3d6000fd5b505050505b60006001600160a01b03821615611c185781611c1a565b305b6001546040516391fd0db760e01b81529192506001600160a01b0316906391fd0db790611c4f908790879086906004016141d5565b600060405180830381600087803b158015611c6957600080fd5b505af1158015611c7d573d6000803e3d6000fd5b5050505050505050565b7fb4040436d4754da72f29d5b97fe68448f30d44ac0e08b33545cbf6f28b7641d98383604051611cb8929190614207565b60405180910390a1505050565b60005461010090046001600160a01b0316331480611ce257503330145b80611d105750600e54630100000090046001600160a01b03166001600160a01b0316336001600160a01b0316145b611d2c5760405162461bcd60e51b8152600401610b4990614182565b611d378383836131b9565b6000836004811115611d4b57611d4b613ac1565b036119fb57601980546001600160a01b0384166001600160a01b03199182168117909255601a80549091169091179055505050565b600e546001600160a01b036301000000909104163314611db25760405162461bcd60e51b8152600401610b4990613fe3565b6111808282612d12565b60408051808201909152600c81526b5a65726f206164647265737360a01b60208201526000906001600160a01b038516611e095760405162461bcd60e51b8152600401610b4991906139c0565b506001600160a01b038085166000908152601b60209081526040808320938716835292905220546110b790859085906110a5908690613e89565b60006110ce338484611dbc565b600e546001600160a01b036301000000909104163314611e825760405162461bcd60e51b8152600401610b4990613fe3565b611e8e6005600a614229565b8211158015611ea85750611ea46005600a614229565b8111155b611ee95760405162461bcd60e51b8152602060048201526012602482015271496e76616c6964206275726e20726174657360701b6044820152606401610b49565b603891909155603955565b6000610ff7338484612fb2565b60005461010090046001600160a01b0316331480611f1e57503330145b80611f4c5750600e54630100000090046001600160a01b03166001600160a01b0316336001600160a01b0316145b611f685760405162461bcd60e51b8152600401610b4990614182565b6001600160a01b038116301461235957600e5460ff16156122cf576040518060600160405280856001600160a01b03168152602001846001600160a01b03168152602001836003811115611fbe57611fbe613ac1565b90526001600160a01b038087166000908152600a6020908152604091829020845181549085166001600160a01b0319918216178255918501516001820180549190951692811683178555928501519093909290916001600160a81b031990911617600160a01b83600381111561203657612036613ac1565b021790555050506001600160a01b038085166000818152600b60208181526040808420898716855282528084208054878d166001600160a01b03199182168117909255938352818520958552949091529182902080549091169092179091556002549051633fe59dbb60e11b815273__$88bebae22a3ad6e62b56c303176513ecf8$__92637fcb3b76926120e892899289921690730dcd1bf9a1b36ce34237eeafef220932846bcd8290600401614235565b602060405180830381865af4158015612105573d6000803e3d6000fd5b505050506040513d601f19601f820116820180604052508101906121299190613fc6565b1561214a57600780546001600160a01b0319166001600160a01b0387161790555b600254604051633fe59dbb60e11b815273__$88bebae22a3ad6e62b56c303176513ecf8$__91637fcb3b76916121a691889188916001600160a01b031690735fc8d32690cc91d4c39d9d3abcbd16989f87570790600401614235565b602060405180830381865af41580156121c3573d6000803e3d6000fd5b505050506040513d601f19601f820116820180604052508101906121e79190613fc6565b1561220857600880546001600160a01b0319166001600160a01b0387161790555b604051633fe59dbb60e11b815273__$88bebae22a3ad6e62b56c303176513ecf8$__90637fcb3b769061226d908790879073b7f8bc63bbcad18155201308c8f3540b07f84f5e90735fc8d32690cc91d4c39d9d3abcbd16989f87570790600401614235565b602060405180830381865af415801561228a573d6000803e3d6000fd5b505050506040513d601f19601f820116820180604052508101906122ae9190613fc6565b156122cf57600980546001600160a01b0319166001600160a01b0387161790555b60006001600160a01b038216156122e657816122e8565b305b60015460405163cd193c4360e01b81529192506001600160a01b03169063cd193c43906123219089908990899089908890600401614260565b600060405180830381600087803b15801561233b57600080fd5b505af115801561234f573d6000803e3d6000fd5b505050505061165c565b7f7af36d96fdc569564b9fadb22716716fe33463cb7fc8dca4fbd79d40448acdf28585858560405161238e94939291906142a2565b60405180910390a15050505050565b60045433906001600160a01b031681036124d1576001600160a01b038381166000908152600a602052604090205416156124555760006123db61331c565b905060038160058111156123f1576123f1613ac1565b0361241f5761241a6040518060400160405280600381526020016210591960ea1b81525061338b565b61244f565b61244f6040518060400160405280600f81526020016e0496e636f6e73697374656e6374203608c1b81525061338b565b506127a2565b6004546001600160a01b0390811690851603612498576124936040518060400160405280600781526020016652656d6f76653160c81b81525061338b565b6127a2565b60405162461bcd60e51b815260206004820152600e60248201526d496e636f6e73697374656e74203160901b6044820152606401610b49565b6005546001600160a01b03908116908216036125e8576001600160a01b038381166000908152600a602052604090205416156125315761252c6040518060400160405280600481526020016314d95b1b60e21b81525061338b565b6125a5565b6005546001600160a01b039081169085160361256b5761252c6040518060400160405280600381526020016242757960e81b81525061338b565b60405162461bcd60e51b815260206004820152600f60248201526e24b731b7b739b4b9ba32b731ba101960891b6044820152606401610b49565b60006125b36005600a614229565b6038546125c09085613e48565b6125ca9190613e67565b90506125d68582612d12565b6125e08184613e89565b9250506127a2565b836001600160a01b0316816001600160a01b031603612768576001600160a01b038181166000908152600a6020526040902054161561249357600061262b61331c565b9050600281600581111561264157612641613ac1565b036126ad5760006126546005600a614229565b6038546126619086613e48565b61266b9190613e67565b90506126778682612d12565b6126818185613e89565b93506126a76040518060400160405280600381526020016242757960e81b81525061338b565b5061244f565b60048160058111156126c1576126c1613ac1565b036126ee5761241a604051806040016040528060078152602001662932b6b7bb329960c91b81525061338b565b600581600581111561270257612702613ac1565b0361272e5761241a6040518060400160405280600681526020016544696c75746560d01b81525061338b565b60405162461bcd60e51b815260206004820152600f60248201526e496e636f6e73697374656e6374203560881b6044820152606401610b49565b60405162461bcd60e51b815260206004820152600f60248201526e2bb937b7339036b9b3a9b2b73232b960891b6044820152606401610b49565b6001600160a01b0384166000908152601d60205260409020548211156127de576001600160a01b0384166000908152601d602052604090205491505b81156119eb576119eb8484846133ce565b60005461010090046001600160a01b031633148061280c57503330145b8061283a5750600e54630100000090046001600160a01b03166001600160a01b0316336001600160a01b0316145b6128565760405162461bcd60e51b8152600401610b4990614182565b6001600160a01b038116301461297357600e54610100900460ff16156128ea57604051633d8d54b760e11b8152600c600482015282516001600160a01b0316602482015273__$88bebae22a3ad6e62b56c303176513ecf8$__90637b1aa96e9060440160006040518083038186803b1580156128d157600080fd5b505af41580156128e5573d6000803e3d6000fd5b505050505b60006001600160a01b038216156129015781612903565b305b600154604051633376489360e21b815285516001600160a01b039081166004830152808416602483015292935091169063cdd9224c90604401600060405180830381600087803b15801561295657600080fd5b505af115801561296a573d6000803e3d6000fd5b50505050505050565b60405182516001600160a01b031681527f275664547227ddbc7a8a732c07c9346f2f4520de70c2088665cc6809534212c09060200160405180910390a15050565b6129c06012600a6140fc565b6129ce906302faf080613e48565b81565b60006129dd6026612b77565b90508015610fe7576029546001600160a01b03166000818152601d6020526040902054612a26919064e8d4a5100090612a17908590613e48565b612a219190613e67565b612d12565b4260265550565b6000612a39602e612b77565b90508015610fe757603454603354600091612a5391613e89565b9050600064e8d4a51000612a678484613e48565b612a719190613e67565b905080602e6006016000828254612a88919061410b565b909155505060325464e8d4a51000908490612aa39083613e89565b612aad9190613e48565b612ab79190613e67565b60328054600090612ac990849061410b565b909155505042602e55505050565b600e546001600160a01b036301000000909104163314612b095760405162461bcd60e51b8152600401610b4990613fe3565b6001600160a01b038116612b6e5760405162461bcd60e51b815260206004820152602660248201527f4f776e61626c653a206e6577206f776e657220697320746865207a65726f206160448201526564647265737360d01b6064820152608401610b49565b610fe78161315b565b600080826001015442612b8a9190613e67565b90508260070154811115612c19576000836007015482612baa9190613e89565b60078501839055428555600093509050825b81811015612c1657612bd06005600a614229565b6002860154612be48664e8d4a51000613e89565b612bee9190613e48565b612bf89190613e67565b612c02908561410b565b935080612c0e81614169565b915050612bbc565b50505b50919050565b6000612c2a82613527565b15612cf2576000612c3a83613588565b9050612c7e6040518060600160405280602f815260200161445d602f913960325464e8d4a5100090612c6f90620f4240613e48565b612c799190613e67565b612e6c565b6001600160a01b0383166000908152601d6020526040902054811115612cce5760325464e8d4a510001015612cce57612cce6040518060600160405280603d81526020016144b3603d913961338b565b6001600160a01b0383166000908152601d60205260409020546110ce908290613e89565b506001600160a01b0381166000908152601d60205260409020545b919050565b60408051808201909152600c81526b5a65726f206164647265737360a01b60208201526001600160a01b038316612d5c5760405162461bcd60e51b8152600401610b4991906139c0565b506000612d6883612c1f565b9050818110156040518060400160405280600f81526020016e457863656564732062616c616e636560881b81525090612db45760405162461bcd60e51b8152600401610b4991906139c0565b50612dc1838360006135d7565b81601c6000828254612dd39190613e89565b90915550612dde9050565b6040518281526000906001600160a01b038516907fddf252ad1be2c89b69c2b068fc378daa952ba7f163c4a11628f55a4df523b3ef906020015b60405180910390a3505050565b6119fb838383604051602401612e3d939291906142d8565b60408051601f198184030181529190526020810180516001600160e01b031663ca47c4eb60e01b1790526137f2565b6111808282604051602401612e829291906142fd565b60408051601f198184030181529190526020810180516001600160e01b0316632d839cb360e21b1790526137f2565b60408051808201909152600c81526b5a65726f206164647265737360a01b60208201526001600160a01b038416612efb5760405162461bcd60e51b8152600401610b4991906139c0565b5060408051808201909152600c81526b5a65726f206164647265737360a01b60208201526001600160a01b038316612f465760405162461bcd60e51b8152600401610b4991906139c0565b506001600160a01b038381166000818152601b602090815260408083209487168084529482529182902085905590518481527f8c5be1e5ebec7d5bd14f71427d1e84f3dd0314c0f7b2291e5b200ac8c7c3b9259101612e18565b603454601c5460009161100b91613e89565b612fbd6001806137fb565b80156130185760185460ff161561300d576000612fdc6005600a614229565b603854612fe99084613e48565b612ff39190613e67565b9050612fff8482612d12565b6130098183613e89565b9150505b6130188383836133ce565b6119fb6138ca565b60408051808201909152600c81526b5a65726f206164647265737360a01b60208201526000906001600160a01b03851661306d5760405162461bcd60e51b8152600401610b4991906139c0565b506001600160a01b038085166000908152601b60209081526040808320938716835292905220546110b790859085906110a590869061410b565b60408051808201909152600c81526b5a65726f206164647265737360a01b60208201526001600160a01b0383166130f15760405162461bcd60e51b8152600401610b4991906139c0565b5080601c6000828254613104919061410b565b909155506131169050828260016135d7565b6040518181526001600160a01b038316906000907fddf252ad1be2c89b69c2b068fc378daa952ba7f163c4a11628f55a4df523b3ef9060200160405180910390a35050565b600e80546001600160a01b0383811663010000008181026301000000600160b81b031985161790945560405193909204169182907f8be0079c531659141344cd1fd0a4f28419497f9722a3daafe3b4186f6b6457e090600090a35050565b60005461010090046001600160a01b03163314806131d657503330145b806132045750600e54630100000090046001600160a01b03166001600160a01b0316336001600160a01b0316145b6132205760405162461bcd60e51b8152600401610b4990614182565b6001600160a01b03811630146132eb5760405163085b199160e11b815273__$88bebae22a3ad6e62b56c303176513ecf8$__906310b633229061326c908690869060029060040161432f565b60006040518083038186803b15801561328457600080fd5b505af4158015613298573d6000803e3d6000fd5b506000925050506001600160a01b038216156132b457816132b6565b305b6001546040516349443ceb60e11b81529192506001600160a01b03169063928879d690611c4f90879087908690600401614357565b7fb45c42dda0a5ab1d1078e0afeda2976363eff9496a93644e726862f1f06186b88383604051611cb8929190614387565b60195460408051632e9c96d560e11b815290516000926001600160a01b031691635d392daa916004808301926020929190829003018187875af1158015613367573d6000803e3d6000fd5b505050506040513d601f19601f8201168201806040525081019061100b91906143ad565b610fe78160405160240161339f91906139c0565b60408051601f198184030181529190526020810180516001600160e01b031663104c13eb60e21b1790526137f2565b60408051808201909152600c81526b5a65726f206164647265737360a01b60208201526001600160a01b0384166134185760405162461bcd60e51b8152600401610b4991906139c0565b5060408051808201909152600c81526b5a65726f206164647265737360a01b60208201526001600160a01b0383166134635760405162461bcd60e51b8152600401610b4991906139c0565b50600061346f84612c1f565b9050818110156040518060400160405280600f81526020016e457863656564732062616c616e636560881b815250906134bb5760405162461bcd60e51b8152600401610b4991906139c0565b506134c8848360006135d7565b6134d4838360016135d7565b826001600160a01b0316846001600160a01b03167fddf252ad1be2c89b69c2b068fc378daa952ba7f163c4a11628f55a4df523b3ef8460405161351991815260200190565b60405180910390a350505050565b6001600160a01b038181166000908152600a6020526040812054909116158015610ffb57507f00000000000000000000000000000000000000000000000000000000000000006001600160a01b0316826001600160a01b0316141592915050565b6001600160a01b038116600090815260366020908152604080832054603254601d90935290832054909164e8d4a51000916135c39190613e48565b6135cd9190613e67565b610ffb9190613e89565b6135e083613527565b156137555760006135f084613588565b90508015613665576001600160a01b0384166000908152601d602052604090205461361b908261392e565b6001600160a01b0385166000908152601d6020526040902055603354613641908261392e565b603355601c54613651908261392e565b601c55603454613661908261392e565b6034555b81156136b8576001600160a01b0384166000908152601d60205260408120805485929061369390849061410b565b9091555050603380548491906000906136ad90849061410b565b909155506137009050565b6001600160a01b0384166000908152601d6020526040812080548592906136e0908490613e89565b9091555050603380548491906000906136fa908490613e89565b90915550505b6032546001600160a01b0385166000908152601d602052604090205464e8d4a510009161372c91613e48565b6137369190613e67565b6001600160a01b03851660009081526036602052604090205550505050565b80156137a7576001600160a01b0383166000908152601d60205260408120805484929061378390849061410b565b92505081905550816037600082825461379c919061410b565b909155506119fb9050565b6001600160a01b0383166000908152601d6020526040812080548492906137cf908490613e89565b9250508190555081603760008282546137e89190613e89565b9091555050505050565b610fe781613952565b601954604051634be5482760e01b81526001600160a01b0390911690634be548279061382d90859085906004016143ca565b6080604051808303816000875af115801561384c573d6000803e3d6000fd5b505050506040513d601f19601f8201168201806040525081019061387091906143e7565b805160158054909190829060ff1916600183600581111561389357613893613ac1565b021790555060208201516001820155604082015160028201556060909101516003909101805460ff19169115159190911790555050565b601960009054906101000a90046001600160a01b03166001600160a01b031663431b3c306040518163ffffffff1660e01b8152600401600060405180830381600087803b15801561391a57600080fd5b505af11580156119eb573d6000803e3d6000fd5b600081831115613949576139428284613e89565b9050610ffb565b50600092915050565b60006a636f6e736f6c652e6c6f679050600080835160208501845afa505050565b6000815180845260005b818110156139995760208185018101518683018201520161397d565b818111156139ab576000602083870101525b50601f01601f19169290920160200192915050565b6020815260006110ce6020830184613973565b80356001600160a01b0381168114612d0d57600080fd5b600080604083850312156139fd57600080fd5b613a06836139d3565b946020939093013593505050565b60068110610fe757600080fd5b600060208284031215613a3357600080fd5b81356110ce81613a14565b600080600060608486031215613a5357600080fd5b613a5c846139d3565b9250613a6a602085016139d3565b9150604084013590509250925092565b8015158114610fe757600080fd5b60008060408385031215613a9b57600080fd5b8235613aa681613a14565b91506020830135613ab681613a7a565b809150509250929050565b634e487b7160e01b600052602160045260246000fd5b60068110613ae757613ae7613ac1565b9052565b6000608082019050613afe828451613ad7565b602083015160208301526040830151604083015260608301511515606083015292915050565b600060208284031215613b3657600080fd5b6110ce826139d3565b60208101610ffb8284613ad7565b6000806000808486036080811215613b6457600080fd5b613b6d866139d3565b94506020868101359450603f1982011215613b8757600080fd5b506040850191506060850135613b9c81613a7a565b939692955090935050565b60008060408385031215613bba57600080fd5b613bc3836139d3565b9150613bd1602084016139d3565b90509250929050565b634e487b7160e01b600052604160045260246000fd5b604051601f8201601f1916810167ffffffffffffffff81118282101715613c1957613c19613bda565b604052919050565b60008060008385036060811215613c3757600080fd5b8435613c4281613a14565b93506020601f1982011215613c5657600080fd5b506040516020810181811067ffffffffffffffff82111715613c7a57613c7a613bda565b604052602085013563ffffffff81168114613c9457600080fd5b81529150613ca4604085016139d3565b90509250925092565b600080600060608486031215613cc257600080fd5b833560058110613cd157600080fd5b9250613cdf602085016139d3565b9150613ca4604085016139d3565b60008060408385031215613d0057600080fd5b50508035926020909101359150565b600080600080600060a08688031215613d2757600080fd5b613d30866139d3565b9450613d3e602087016139d3565b9350613d4c604087016139d3565b9250606086013560048110613d6057600080fd5b9150613d6e608087016139d3565b90509295509295909350565b6000808284036040811215613d8e57600080fd5b6020811215613d9c57600080fd5b506040516020810181811067ffffffffffffffff82111715613dc057613dc0613bda565b604052613dcc846139d3565b81529150613bd1602084016139d3565b60048110613ae757613ae7613ac1565b6001600160a01b0384811682528316602082015260608101613e116040830184613ddc565b949350505050565b600060208284031215613e2b57600080fd5b5051919050565b634e487b7160e01b600052601160045260246000fd5b6000816000190483118215151615613e6257613e62613e32565b500290565b600082613e8457634e487b7160e01b600052601260045260246000fd5b500490565b600082821015613e9b57613e9b613e32565b500390565b634e487b7160e01b600052603260045260246000fd5b600060808201868352602060808185015281875180845260a086019150828901935060005b81811015613f005784516001600160a01b031683529383019391830191600101613edb565b50506001600160a01b039690961660408501525050506060015292915050565b60006020808385031215613f3357600080fd5b825167ffffffffffffffff80821115613f4b57600080fd5b818501915085601f830112613f5f57600080fd5b815181811115613f7157613f71613bda565b8060051b9150613f82848301613bf0565b8181529183018401918481019088841115613f9c57600080fd5b938501935b83851015613fba57845182529385019390850190613fa1565b98975050505050505050565b600060208284031215613fd857600080fd5b81516110ce81613a7a565b6020808252818101527f4f776e61626c653a2063616c6c6572206973206e6f7420746865206f776e6572604082015260600190565b600181815b8085111561405357816000190482111561403957614039613e32565b8085161561404657918102915b93841c939080029061401d565b509250929050565b60008261406a57506001610ffb565b8161407757506000610ffb565b816001811461408d5760028114614097576140b3565b6001915050610ffb565b60ff8411156140a8576140a8613e32565b50506001821b610ffb565b5060208310610133831016604e8410600b84101617156140d6575081810a610ffb565b6140e08383614018565b80600019048211156140f4576140f4613e32565b029392505050565b60006110ce60ff84168361405b565b6000821982111561411e5761411e613e32565b500190565b6020808252601590820152742737ba10309039b2b9b9b4b7b71036b0b730b3b2b960591b604082015260600190565b60008161416157614161613e32565b506000190190565b60006001820161417b5761417b613e32565b5060010190565b60208082526010908201526f496e76616c69642063616c6c6572203160801b604082015260600190565b606081016141ba8286613ad7565b83602083015263ffffffff8351166040830152949350505050565b606081016141e38286613ad7565b925163ffffffff1660208201526001600160a01b0391909116604090910152919050565b604081016142158285613ad7565b63ffffffff83511660208301529392505050565b60006110ce838361405b565b6001600160a01b03948516815292841660208401529083166040830152909116606082015260800190565b6001600160a01b0386811682528581166020830152848116604083015260a082019061428f6060840186613ddc565b8084166080840152509695505050505050565b6001600160a01b038581168252848116602083015283166040820152608081016142cf6060830184613ddc565b95945050505050565b6060815260006142eb6060830186613973565b60208301949094525060400152919050565b6040815260006143106040830185613973565b90508260208301529392505050565b60058110613ae757613ae7613ac1565b6060810161433d828661431f565b6001600160a01b0393909316602082015260400152919050565b60608101614365828661431f565b6001600160a01b03938416602083015291909216604090920191909152919050565b60408101614395828561431f565b6001600160a01b039290921660209190910152919050565b6000602082840312156143bf57600080fd5b81516110ce81613a14565b604081016143d88285613ad7565b82151560208301529392505050565b6000608082840312156143f957600080fd5b6040516080810181811067ffffffffffffffff8211171561441c5761441c613bda565b604052825161442a81613a14565b808252506020830151602082015260408301516040820152606083015161445081613a7a565b6060820152939250505056fe5f62616c616e63654f662e2031653620757365725f6275726e2e6163634465636179506572316531322f316531323a46544d20616e6420544752206761696e6564206279204c502064696c7574696f6e202d2d2d2d2d2121215f62616c616e63654f662e20757365725f6275726e2e6163634465636179506572316531322069732067726561746572207468616e2031653132a2646970667358221220083b2f1ad22bf59a0343b859e66b2f9c473b568becad272aaf4c6be77b8d47bd64736f6c634300080e0033",
  "linkReferences": {
    "contracts/libraries/WireLibrary.sol": {
      "WireLibrary": [
        {
          "length": 20,
          "start": 9577
        },
        {
          "length": 20,
          "start": 10860
        },
        {
          "length": 20,
          "start": 11042
        },
        {
          "length": 20,
          "start": 11229
        },
        {
          "length": 20,
          "start": 12898
        },
        {
          "length": 20,
          "start": 15365
        }
      ]
    }
  },
  "deployedLinkReferences": {
    "contracts/libraries/WireLibrary.sol": {
      "WireLibrary": [
        {
          "length": 20,
          "start": 7075
        },
        {
          "length": 20,
          "start": 8358
        },
        {
          "length": 20,
          "start": 8540
        },
        {
          "length": 20,
          "start": 8727
        },
        {
          "length": 20,
          "start": 10396
        },
        {
          "length": 20,
          "start": 12863
        }
      ]
    }
  }
}