{
  "_format": "hh-sol-artifact-1",
  "contractName": "TGRToken",
  "sourceName": "contracts/farm/TGRToken.sol",
  "abi": [
    {
      "inputs": [
        {
          "internalType": "address",
          "name": "_analyticMath",
          "type": "address"
        }
      ],
      "stateMutability": "nonpayable",
      "type": "constructor"
    },
    {
      "anonymous": false,
      "inputs": [
        {
          "indexed": true,
          "internalType": "address",
          "name": "owner",
          "type": "address"
        },
        {
          "indexed": true,
          "internalType": "address",
          "name": "spender",
          "type": "address"
        },
        {
          "indexed": false,
          "internalType": "uint256",
          "name": "value",
          "type": "uint256"
        }
      ],
      "name": "Approval",
      "type": "event"
    },
    {
      "anonymous": false,
      "inputs": [],
      "name": "Begin",
      "type": "event"
    },
    {
      "anonymous": false,
      "inputs": [
        {
          "indexed": false,
          "internalType": "address",
          "name": "pair",
          "type": "address"
        },
        {
          "indexed": false,
          "internalType": "address",
          "name": "tokenA",
          "type": "address"
        },
        {
          "indexed": false,
          "internalType": "address",
          "name": "tokenB",
          "type": "address"
        },
        {
          "indexed": false,
          "internalType": "enum ListStatus",
          "name": "status",
          "type": "uint8"
        }
      ],
      "name": "ChangePairStatus",
      "type": "event"
    },
    {
      "anonymous": false,
      "inputs": [
        {
          "indexed": false,
          "internalType": "address",
          "name": "token",
          "type": "address"
        },
        {
          "indexed": false,
          "internalType": "address",
          "name": "msgSender",
          "type": "address"
        }
      ],
      "name": "DeenlistToken",
      "type": "event"
    },
    {
      "anonymous": false,
      "inputs": [
        {
          "indexed": true,
          "internalType": "address",
          "name": "previousOwner",
          "type": "address"
        },
        {
          "indexed": true,
          "internalType": "address",
          "name": "newOwner",
          "type": "address"
        }
      ],
      "name": "OwnershipTransferred",
      "type": "event"
    },
    {
      "anonymous": false,
      "inputs": [
        {
          "indexed": false,
          "internalType": "enum ActionType",
          "name": "_sessionType",
          "type": "uint8"
        },
        {
          "components": [
            {
              "internalType": "uint32",
              "name": "accountant",
              "type": "uint32"
            }
          ],
          "indexed": false,
          "internalType": "struct FeeRates",
          "name": "_feeRates",
          "type": "tuple"
        }
      ],
      "name": "SetFeeRates",
      "type": "event"
    },
    {
      "anonymous": false,
      "inputs": [
        {
          "components": [
            {
              "internalType": "address",
              "name": "accountant",
              "type": "address"
            }
          ],
          "indexed": false,
          "internalType": "struct FeeStores",
          "name": "_feeStores",
          "type": "tuple"
        }
      ],
      "name": "SetFeeStores",
      "type": "event"
    },
    {
      "anonymous": false,
      "inputs": [
        {
          "indexed": false,
          "internalType": "enum NodeType",
          "name": "nodeType",
          "type": "uint8"
        },
        {
          "indexed": false,
          "internalType": "address",
          "name": "node",
          "type": "address"
        }
      ],
      "name": "SetNode",
      "type": "event"
    },
    {
      "anonymous": false,
      "inputs": [
        {
          "indexed": true,
          "internalType": "address",
          "name": "from",
          "type": "address"
        },
        {
          "indexed": true,
          "internalType": "address",
          "name": "to",
          "type": "address"
        },
        {
          "indexed": false,
          "internalType": "uint256",
          "name": "value",
          "type": "uint256"
        }
      ],
      "name": "Transfer",
      "type": "event"
    },
    {
      "inputs": [
        {
          "internalType": "address",
          "name": "_owner",
          "type": "address"
        },
        {
          "internalType": "address",
          "name": "_spender",
          "type": "address"
        },
        {
          "internalType": "uint256",
          "name": "subtractedValue",
          "type": "uint256"
        }
      ],
      "name": "_decreaseAllowance",
      "outputs": [
        {
          "internalType": "bool",
          "name": "",
          "type": "bool"
        }
      ],
      "stateMutability": "nonpayable",
      "type": "function"
    },
    {
      "inputs": [
        {
          "internalType": "address",
          "name": "_owner",
          "type": "address"
        },
        {
          "internalType": "address",
          "name": "_spender",
          "type": "address"
        }
      ],
      "name": "allowance",
      "outputs": [
        {
          "internalType": "uint256",
          "name": "",
          "type": "uint256"
        }
      ],
      "stateMutability": "view",
      "type": "function"
    },
    {
      "inputs": [
        {
          "internalType": "address",
          "name": "spender",
          "type": "address"
        },
        {
          "internalType": "uint256",
          "name": "amount",
          "type": "uint256"
        }
      ],
      "name": "approve",
      "outputs": [
        {
          "internalType": "bool",
          "name": "",
          "type": "bool"
        }
      ],
      "stateMutability": "nonpayable",
      "type": "function"
    },
    {
      "inputs": [
        {
          "internalType": "address",
          "name": "account",
          "type": "address"
        }
      ],
      "name": "balanceOf",
      "outputs": [
        {
          "internalType": "uint256",
          "name": "",
          "type": "uint256"
        }
      ],
      "stateMutability": "view",
      "type": "function"
    },
    {
      "inputs": [
        {
          "internalType": "address",
          "name": "caller",
          "type": "address"
        }
      ],
      "name": "begin",
      "outputs": [],
      "stateMutability": "nonpayable",
      "type": "function"
    },
    {
      "inputs": [
        {
          "internalType": "address",
          "name": "from",
          "type": "address"
        },
        {
          "internalType": "uint256",
          "name": "amount",
          "type": "uint256"
        }
      ],
      "name": "burn",
      "outputs": [],
      "stateMutability": "nonpayable",
      "type": "function"
    },
    {
      "inputs": [
        {
          "internalType": "uint256",
          "name": "_buysell_burn_rate",
          "type": "uint256"
        },
        {
          "internalType": "uint256",
          "name": "_shift_burn_rate",
          "type": "uint256"
        }
      ],
      "name": "changeBurnRates",
      "outputs": [],
      "stateMutability": "nonpayable",
      "type": "function"
    },
    {
      "inputs": [
        {
          "internalType": "address",
          "name": "pair",
          "type": "address"
        },
        {
          "internalType": "address",
          "name": "token0",
          "type": "address"
        },
        {
          "internalType": "address",
          "name": "token1",
          "type": "address"
        },
        {
          "internalType": "enum ListStatus",
          "name": "status",
          "type": "uint8"
        },
        {
          "internalType": "address",
          "name": "caller",
          "type": "address"
        }
      ],
      "name": "changePairStatus",
      "outputs": [],
      "stateMutability": "nonpayable",
      "type": "function"
    },
    {
      "inputs": [],
      "name": "checkForConsistency",
      "outputs": [
        {
          "internalType": "uint256",
          "name": "abs_error",
          "type": "uint256"
        }
      ],
      "stateMutability": "view",
      "type": "function"
    },
    {
      "inputs": [],
      "name": "decimals",
      "outputs": [
        {
          "internalType": "uint8",
          "name": "",
          "type": "uint8"
        }
      ],
      "stateMutability": "view",
      "type": "function"
    },
    {
      "inputs": [
        {
          "internalType": "address",
          "name": "spender",
          "type": "address"
        },
        {
          "internalType": "uint256",
          "name": "subtractedValue",
          "type": "uint256"
        }
      ],
      "name": "decreaseAllowance",
      "outputs": [
        {
          "internalType": "bool",
          "name": "",
          "type": "bool"
        }
      ],
      "stateMutability": "nonpayable",
      "type": "function"
    },
    {
      "inputs": [
        {
          "internalType": "enum ActionType",
          "name": "",
          "type": "uint8"
        }
      ],
      "name": "feeRates",
      "outputs": [
        {
          "internalType": "uint32",
          "name": "accountant",
          "type": "uint32"
        }
      ],
      "stateMutability": "view",
      "type": "function"
    },
    {
      "inputs": [],
      "name": "feeStores",
      "outputs": [
        {
          "internalType": "address",
          "name": "accountant",
          "type": "address"
        }
      ],
      "stateMutability": "view",
      "type": "function"
    },
    {
      "inputs": [],
      "name": "getCurrentActionType",
      "outputs": [
        {
          "internalType": "enum ActionType",
          "name": "",
          "type": "uint8"
        }
      ],
      "stateMutability": "view",
      "type": "function"
    },
    {
      "inputs": [],
      "name": "getOwner",
      "outputs": [
        {
          "internalType": "address",
          "name": "",
          "type": "address"
        }
      ],
      "stateMutability": "view",
      "type": "function"
    },
    {
      "inputs": [
        {
          "internalType": "address",
          "name": "account",
          "type": "address"
        }
      ],
      "name": "getStatus",
      "outputs": [
        {
          "internalType": "uint256",
          "name": "totalSupply",
          "type": "uint256"
        },
        {
          "internalType": "uint256",
          "name": "ub_accDecayPer1e12",
          "type": "uint256"
        },
        {
          "internalType": "uint256",
          "name": "ub_sum_tokens",
          "type": "uint256"
        },
        {
          "internalType": "uint256",
          "name": "ub_pending_burn",
          "type": "uint256"
        },
        {
          "internalType": "uint256",
          "name": "_nonUserSumTokens",
          "type": "uint256"
        },
        {
          "internalType": "uint256",
          "name": "account_balances",
          "type": "uint256"
        },
        {
          "internalType": "uint256",
          "name": "account_balanceOf",
          "type": "uint256"
        },
        {
          "internalType": "uint256",
          "name": "account_pending_burn",
          "type": "uint256"
        },
        {
          "internalType": "uint256",
          "name": "account_latestDecayRound",
          "type": "uint256"
        }
      ],
      "stateMutability": "view",
      "type": "function"
    },
    {
      "inputs": [],
      "name": "htzFtm",
      "outputs": [
        {
          "internalType": "address",
          "name": "",
          "type": "address"
        }
      ],
      "stateMutability": "view",
      "type": "function"
    },
    {
      "inputs": [
        {
          "internalType": "address",
          "name": "spender",
          "type": "address"
        },
        {
          "internalType": "uint256",
          "name": "addedValue",
          "type": "uint256"
        }
      ],
      "name": "increaseAllowance",
      "outputs": [
        {
          "internalType": "bool",
          "name": "",
          "type": "bool"
        }
      ],
      "stateMutability": "nonpayable",
      "type": "function"
    },
    {
      "inputs": [],
      "name": "lastSession",
      "outputs": [
        {
          "internalType": "uint256",
          "name": "",
          "type": "uint256"
        }
      ],
      "stateMutability": "view",
      "type": "function"
    },
    {
      "inputs": [],
      "name": "lp_reward",
      "outputs": [
        {
          "internalType": "uint256",
          "name": "latestBNumber",
          "type": "uint256"
        },
        {
          "internalType": "uint256",
          "name": "cycleBlocks",
          "type": "uint256"
        },
        {
          "internalType": "uint256",
          "name": "decayRate",
          "type": "uint256"
        },
        {
          "internalType": "address",
          "name": "account",
          "type": "address"
        },
        {
          "internalType": "uint256",
          "name": "accDecayPer1e12",
          "type": "uint256"
        },
        {
          "internalType": "uint256",
          "name": "sum_tokens",
          "type": "uint256"
        },
        {
          "internalType": "uint256",
          "name": "pending_burn",
          "type": "uint256"
        },
        {
          "internalType": "uint256",
          "name": "latestRound",
          "type": "uint256"
        }
      ],
      "stateMutability": "view",
      "type": "function"
    },
    {
      "inputs": [],
      "name": "maxSupply",
      "outputs": [
        {
          "internalType": "uint256",
          "name": "",
          "type": "uint256"
        }
      ],
      "stateMutability": "view",
      "type": "function"
    },
    {
      "inputs": [
        {
          "internalType": "address",
          "name": "to",
          "type": "address"
        },
        {
          "internalType": "uint256",
          "name": "amount",
          "type": "uint256"
        }
      ],
      "name": "mint",
      "outputs": [],
      "stateMutability": "nonpayable",
      "type": "function"
    },
    {
      "inputs": [],
      "name": "name",
      "outputs": [
        {
          "internalType": "string",
          "name": "",
          "type": "string"
        }
      ],
      "stateMutability": "view",
      "type": "function"
    },
    {
      "inputs": [],
      "name": "nextNode",
      "outputs": [
        {
          "internalType": "address",
          "name": "",
          "type": "address"
        }
      ],
      "stateMutability": "view",
      "type": "function"
    },
    {
      "inputs": [],
      "name": "owner",
      "outputs": [
        {
          "internalType": "address",
          "name": "",
          "type": "address"
        }
      ],
      "stateMutability": "view",
      "type": "function"
    },
    {
      "inputs": [
        {
          "internalType": "address",
          "name": "",
          "type": "address"
        },
        {
          "internalType": "address",
          "name": "",
          "type": "address"
        }
      ],
      "name": "pairFor",
      "outputs": [
        {
          "internalType": "address",
          "name": "",
          "type": "address"
        }
      ],
      "stateMutability": "view",
      "type": "function"
    },
    {
      "inputs": [
        {
          "internalType": "address",
          "name": "",
          "type": "address"
        }
      ],
      "name": "pairs",
      "outputs": [
        {
          "internalType": "address",
          "name": "token0",
          "type": "address"
        },
        {
          "internalType": "address",
          "name": "token1",
          "type": "address"
        },
        {
          "internalType": "enum ListStatus",
          "name": "status",
          "type": "uint8"
        }
      ],
      "stateMutability": "view",
      "type": "function"
    },
    {
      "inputs": [],
      "name": "pause",
      "outputs": [],
      "stateMutability": "nonpayable",
      "type": "function"
    },
    {
      "inputs": [],
      "name": "paused",
      "outputs": [
        {
          "internalType": "bool",
          "name": "",
          "type": "bool"
        }
      ],
      "stateMutability": "view",
      "type": "function"
    },
    {
      "inputs": [
        {
          "internalType": "address",
          "name": "account",
          "type": "address"
        },
        {
          "internalType": "uint256",
          "name": "principal",
          "type": "uint256"
        },
        {
          "components": [
            {
              "internalType": "uint32",
              "name": "accountant",
              "type": "uint32"
            }
          ],
          "internalType": "struct FeeRates",
          "name": "rates",
          "type": "tuple"
        },
        {
          "internalType": "bool",
          "name": "fromAllowance",
          "type": "bool"
        }
      ],
      "name": "payFeeTgrLogic",
      "outputs": [
        {
          "internalType": "uint256",
          "name": "feesPaid",
          "type": "uint256"
        }
      ],
      "stateMutability": "nonpayable",
      "type": "function"
    },
    {
      "inputs": [],
      "name": "prevNode",
      "outputs": [
        {
          "internalType": "address",
          "name": "",
          "type": "address"
        }
      ],
      "stateMutability": "view",
      "type": "function"
    },
    {
      "inputs": [],
      "name": "pulse_lp_reward",
      "outputs": [],
      "stateMutability": "nonpayable",
      "type": "function"
    },
    {
      "inputs": [],
      "name": "pulse_user_burn",
      "outputs": [],
      "stateMutability": "nonpayable",
      "type": "function"
    },
    {
      "inputs": [],
      "name": "pulse_vote_burn",
      "outputs": [],
      "stateMutability": "nonpayable",
      "type": "function"
    },
    {
      "inputs": [
        {
          "internalType": "enum ActionType",
          "name": "actionType",
          "type": "uint8"
        },
        {
          "internalType": "bool",
          "name": "blockReentry",
          "type": "bool"
        }
      ],
      "name": "registerAction",
      "outputs": [
        {
          "components": [
            {
              "internalType": "enum ActionType",
              "name": "actionType",
              "type": "uint8"
            },
            {
              "internalType": "uint256",
              "name": "session",
              "type": "uint256"
            },
            {
              "internalType": "uint256",
              "name": "lastSession",
              "type": "uint256"
            },
            {
              "internalType": "bool",
              "name": "isUserAction",
              "type": "bool"
            }
          ],
          "internalType": "struct ActionParams",
          "name": "actionParams",
          "type": "tuple"
        }
      ],
      "stateMutability": "nonpayable",
      "type": "function"
    },
    {
      "inputs": [],
      "name": "renounceOwnership",
      "outputs": [],
      "stateMutability": "nonpayable",
      "type": "function"
    },
    {
      "inputs": [],
      "name": "resume",
      "outputs": [],
      "stateMutability": "nonpayable",
      "type": "function"
    },
    {
      "inputs": [
        {
          "internalType": "uint256",
          "name": "amount",
          "type": "uint256"
        }
      ],
      "name": "returnVotes",
      "outputs": [],
      "stateMutability": "nonpayable",
      "type": "function"
    },
    {
      "inputs": [],
      "name": "session",
      "outputs": [
        {
          "internalType": "uint256",
          "name": "",
          "type": "uint256"
        }
      ],
      "stateMutability": "view",
      "type": "function"
    },
    {
      "inputs": [
        {
          "internalType": "enum ActionType",
          "name": "",
          "type": "uint8"
        }
      ],
      "name": "sessionsLastSeenBySType",
      "outputs": [
        {
          "internalType": "uint256",
          "name": "",
          "type": "uint256"
        }
      ],
      "stateMutability": "view",
      "type": "function"
    },
    {
      "inputs": [
        {
          "internalType": "enum ActionType",
          "name": "_sessionType",
          "type": "uint8"
        },
        {
          "components": [
            {
              "internalType": "uint32",
              "name": "accountant",
              "type": "uint32"
            }
          ],
          "internalType": "struct FeeRates",
          "name": "_feeRates",
          "type": "tuple"
        },
        {
          "internalType": "address",
          "name": "caller",
          "type": "address"
        }
      ],
      "name": "setFeeRates",
      "outputs": [],
      "stateMutability": "nonpayable",
      "type": "function"
    },
    {
      "inputs": [
        {
          "components": [
            {
              "internalType": "address",
              "name": "accountant",
              "type": "address"
            }
          ],
          "internalType": "struct FeeStores",
          "name": "_feeStores",
          "type": "tuple"
        },
        {
          "internalType": "address",
          "name": "caller",
          "type": "address"
        }
      ],
      "name": "setFeeStores",
      "outputs": [],
      "stateMutability": "nonpayable",
      "type": "function"
    },
    {
      "inputs": [
        {
          "internalType": "enum NodeType",
          "name": "nodeType",
          "type": "uint8"
        },
        {
          "internalType": "address",
          "name": "node",
          "type": "address"
        },
        {
          "internalType": "address",
          "name": "caller",
          "type": "address"
        }
      ],
      "name": "setNode",
      "outputs": [],
      "stateMutability": "nonpayable",
      "type": "function"
    },
    {
      "inputs": [],
      "name": "symbol",
      "outputs": [
        {
          "internalType": "string",
          "name": "",
          "type": "string"
        }
      ],
      "stateMutability": "view",
      "type": "function"
    },
    {
      "inputs": [
        {
          "internalType": "uint256",
          "name": "amount",
          "type": "uint256"
        }
      ],
      "name": "takeVotes",
      "outputs": [],
      "stateMutability": "nonpayable",
      "type": "function"
    },
    {
      "inputs": [],
      "name": "tgrBusd",
      "outputs": [
        {
          "internalType": "address",
          "name": "",
          "type": "address"
        }
      ],
      "stateMutability": "view",
      "type": "function"
    },
    {
      "inputs": [],
      "name": "tgrFtm",
      "outputs": [
        {
          "internalType": "address",
          "name": "",
          "type": "address"
        }
      ],
      "stateMutability": "view",
      "type": "function"
    },
    {
      "inputs": [],
      "name": "totalSupply",
      "outputs": [
        {
          "internalType": "uint256",
          "name": "",
          "type": "uint256"
        }
      ],
      "stateMutability": "view",
      "type": "function"
    },
    {
      "inputs": [
        {
          "internalType": "address",
          "name": "recipient",
          "type": "address"
        },
        {
          "internalType": "uint256",
          "name": "amount",
          "type": "uint256"
        }
      ],
      "name": "transfer",
      "outputs": [
        {
          "internalType": "bool",
          "name": "",
          "type": "bool"
        }
      ],
      "stateMutability": "nonpayable",
      "type": "function"
    },
    {
      "inputs": [
        {
          "internalType": "address",
          "name": "sender",
          "type": "address"
        },
        {
          "internalType": "address",
          "name": "recipient",
          "type": "address"
        },
        {
          "internalType": "uint256",
          "name": "amount",
          "type": "uint256"
        }
      ],
      "name": "transferDirectSafe",
      "outputs": [],
      "stateMutability": "nonpayable",
      "type": "function"
    },
    {
      "inputs": [
        {
          "internalType": "address",
          "name": "sender",
          "type": "address"
        },
        {
          "internalType": "address",
          "name": "recipient",
          "type": "address"
        },
        {
          "internalType": "uint256",
          "name": "amount",
          "type": "uint256"
        }
      ],
      "name": "transferFrom",
      "outputs": [
        {
          "internalType": "bool",
          "name": "",
          "type": "bool"
        }
      ],
      "stateMutability": "nonpayable",
      "type": "function"
    },
    {
      "inputs": [
        {
          "internalType": "address",
          "name": "newOwner",
          "type": "address"
        }
      ],
      "name": "transferOwnership",
      "outputs": [],
      "stateMutability": "nonpayable",
      "type": "function"
    },
    {
      "inputs": [],
      "name": "unregisterAction",
      "outputs": [],
      "stateMutability": "nonpayable",
      "type": "function"
    },
    {
      "inputs": [],
      "name": "user_burn",
      "outputs": [
        {
          "internalType": "uint256",
          "name": "latestBNumber",
          "type": "uint256"
        },
        {
          "internalType": "uint256",
          "name": "cycleBlocks",
          "type": "uint256"
        },
        {
          "internalType": "uint256",
          "name": "decayRate",
          "type": "uint256"
        },
        {
          "internalType": "address",
          "name": "account",
          "type": "address"
        },
        {
          "internalType": "uint256",
          "name": "accDecayPer1e12",
          "type": "uint256"
        },
        {
          "internalType": "uint256",
          "name": "sum_tokens",
          "type": "uint256"
        },
        {
          "internalType": "uint256",
          "name": "pending_burn",
          "type": "uint256"
        },
        {
          "internalType": "uint256",
          "name": "latestRound",
          "type": "uint256"
        }
      ],
      "stateMutability": "view",
      "type": "function"
    },
    {
      "inputs": [],
      "name": "vote_burn",
      "outputs": [
        {
          "internalType": "uint256",
          "name": "latestBNumber",
          "type": "uint256"
        },
        {
          "internalType": "uint256",
          "name": "cycleBlocks",
          "type": "uint256"
        },
        {
          "internalType": "uint256",
          "name": "decayRate",
          "type": "uint256"
        },
        {
          "internalType": "address",
          "name": "account",
          "type": "address"
        },
        {
          "internalType": "uint256",
          "name": "accDecayPer1e12",
          "type": "uint256"
        },
        {
          "internalType": "uint256",
          "name": "sum_tokens",
          "type": "uint256"
        },
        {
          "internalType": "uint256",
          "name": "pending_burn",
          "type": "uint256"
        },
        {
          "internalType": "uint256",
          "name": "latestRound",
          "type": "uint256"
        }
      ],
      "stateMutability": "view",
      "type": "function"
    },
    {
      "inputs": [
        {
          "internalType": "address",
          "name": "_prevNode",
          "type": "address"
        },
        {
          "internalType": "address",
          "name": "_nextNode",
          "type": "address"
        }
      ],
      "name": "wire",
      "outputs": [],
      "stateMutability": "nonpayable",
      "type": "function"
    },
    {
      "stateMutability": "payable",
      "type": "receive"
    }
  ],
  "bytecode": "0x60a06040523480156200001157600080fd5b506040516200565238038062005652833981016040819052620000349162000897565b6000805460ff19169055620000493362000394565b604180546001600160a01b0319166001600160a01b0383161790556200006c3390565b603d80546001600160a01b03929092166001600160a01b0319928316179055603e805482167370997970c51812dc3a010c7d01b50e0d17dc79c8179055603f80548216733c44cdddb6a900fa2b585dd299e03d12fa4293bc179055604080549091167390f79bf6eb2c4f870365e785982e1f101e93b906178155516200010a9043409060200163766f746560e01b8152600481019190915260240190565b60408051601f1981840301815282825280516020918201206001600160a01b039081166080908152610100850184524380865260029386018490526102b2948601949094526008549091166060850152600090840181905260a0840181905260c0840152919060e082019062000182908490620008df565b90528051602090815580820151602155604080830151602255606080840151602380546001600160a01b0319166001600160a01b0392831617905560808086015160245560a08087015160255560c08088015160265560e0978801516027558551610100810187524380825260029882018990526046978201979097528351909416948401949094526000918301829052820181905291810191909152919350909182019062000234908490620008df565b90528051602855602080820151602955604080830151602a55606080840151602b80546001600160a01b0319166001600160a01b03909216919091179055608080850151602c5560a080860151602d5560c080870151602e5560e096870151602f558451610100810186524380825260049782018890526103099682019690965260009481018590529283018490529082018390528101919091529193509091820190620002e4908490620008df565b90528051603055602081015160315560408101516032556060810151603380546001600160a01b0319166001600160a01b03909216919091179055608081015160345560a081015160355560c081015160365560e00151603755617ab7603b5561343e603c55600e805462ffffff1916620101011790556200038c620003673390565b620003756012600a620009ff565b620003869064e8d4a5100062000a10565b620003f2565b505062000ae9565b600e80546001600160a01b0383811663010000008181026301000000600160b81b031985161790945560405193909204169182907f8be0079c531659141344cd1fd0a4f28419497f9722a3daafe3b4186f6b6457e090600090a35050565b60408051808201909152600c81526b5a65726f206164647265737360a01b60208201526001600160a01b038316620004485760405162461bcd60e51b81526004016200043f919062000a32565b60405180910390fd5b506200045782826001620004a1565b6040518181526001600160a01b038316906000907fddf252ad1be2c89b69c2b068fc378daa952ba7f163c4a11628f55a4df523b3ef9060200160405180910390a35050565b505050565b620004ac83620006f4565b156200061a576000620004bf8462000739565b905080156200053d576001600160a01b0384166000908152601d6020526040902054620004ed908262000795565b6001600160a01b0385166000908152601d602052604090205560355462000515908262000795565b60355560365462000527908262000795565b603655601c5462000539908262000795565b601c555b8115620005b1576001600160a01b0384166000908152601d6020526040812080548592906200056e90849062000a8a565b9091555050603580548491906000906200058a90849062000a8a565b9250508190555082601c6000828254620005a5919062000a8a565b90915550620006149050565b6001600160a01b0384166000908152601d6020526040902054620005d6908462000795565b6001600160a01b0385166000908152601d6020526040902055603554620005fe908462000795565b603555601c5462000610908462000795565b601c555b50505050565b80156200068d576001600160a01b0383166000908152601d6020526040812080548492906200064b90849062000a8a565b9250508190555081603a600082825462000666919062000a8a565b9250508190555081601c600082825462000681919062000a8a565b909155506200049c9050565b6001600160a01b0383166000908152601d6020526040902054620006b2908362000795565b6001600160a01b0384166000908152601d6020526040902055603a54620006da908362000795565b603a55601c54620006ec908362000795565b601c55505050565b6001600160a01b038181166000908152600a60205260408120549091161580156200073357506080516001600160a01b0316826001600160a01b031614155b92915050565b6001600160a01b038116600090815260396020526040812081906200076190603090620007bd565b506001600160a01b0384166000908152601d6020526040812054919250906200078c90839062000a10565b90505050919050565b600081831115620007b457620007ac828462000aa5565b905062000733565b50600092915050565b6000806000846001015443620007d49190620008df565b84549091506000819003620007ea575060078501545b84548211156200088e57600062000802828462000aa5565b905064e8d4a5100060006200081a6005600a62000abf565b60028a01546200082d6005600a62000abf565b62000839919062000aa5565b620008459190620008df565b905060005b8381101562000876576200085f828462000a10565b9250806200086d8162000acd565b9150506200084a565b50620008888264e8d4a5100062000aa5565b96505050505b50509250929050565b600060208284031215620008aa57600080fd5b81516001600160a01b0381168114620008c257600080fd5b9392505050565b634e487b7160e01b600052601160045260246000fd5b600082620008fd57634e487b7160e01b600052601260045260246000fd5b500490565b600181815b8085111562000943578160001904821115620009275762000927620008c9565b808516156200093557918102915b93841c939080029062000907565b509250929050565b6000826200095c5750600162000733565b816200096b5750600062000733565b81600181146200098457600281146200098f57620009af565b600191505062000733565b60ff841115620009a357620009a3620008c9565b50506001821b62000733565b5060208310610133831016604e8410600b8410161715620009d4575081810a62000733565b620009e0838362000902565b8060001904821115620009f757620009f7620008c9565b029392505050565b6000620008c260ff8416836200094b565b600081600019048311821515161562000a2d5762000a2d620008c9565b500290565b600060208083528351808285015260005b8181101562000a615785810183015185820160400152820162000a43565b8181111562000a74576000604083870101525b50601f01601f1916929092016040019392505050565b6000821982111562000aa05762000aa0620008c9565b500190565b60008282101562000aba5762000aba620008c9565b500390565b6000620008c283836200094b565b60006001820162000ae25762000ae2620008c9565b5060010190565b608051614b4d62000b056000396000613ab80152614b4d6000f3fe60806040526004361061036f5760003560e01c8063893d20e8116101c6578063a9059cbb116100f7578063e729a45511610095578063ed2deb8b1161006f578063ed2deb8b14610b32578063f2fde38b14610b47578063f9a21e8a14610b67578063fe33b30214610b8757600080fd5b8063e729a45514610ada578063eca4c46614610aef578063ecd6f46a14610b0557600080fd5b8063cd537aa1116100d1578063cd537aa114610a3f578063cdd9224c14610a5f578063d5abeb0114610a7f578063dd62ed3e14610a9457600080fd5b8063a9059cbb146109df578063c5921fe9146109ff578063cd193c4314610a1f57600080fd5b806395d89b4111610164578063a13c1f671161013e578063a13c1f6714610943578063a150da2a1461097f578063a457c2d71461099f578063a51bb24e146109bf57600080fd5b806395d89b41146108b657806396ed28f9146108e25780639dc29fac1461092357600080fd5b80639154961e116101a05780639154961e1461083657806391fd0db714610856578063928879d614610876578063934923a31461089657600080fd5b8063893d20e8146107f15780638da5cb5b146107f157806390e3677f1461081657600080fd5b806340c10f19116102a057806365715c561161023e57806370a082311161021857806370a0823114610792578063715018a6146107b257806373957289146107c75780638456cb59146107dc57600080fd5b806365715c561461071657806368fb3c72146107365780636c93564f1461075657600080fd5b806354abe9d01161027a57806354abe9d0146106a45780635c975abb146106c45780635d392daa146106de5780635e3568b81461070057600080fd5b806340c10f1914610642578063431b3c30146106625780634be548271461067757600080fd5b806318160ddd1161030d57806330ccebb5116102e757806330ccebb514610523578063313ce567146105875780633660777d146105a3578063395093511461062257600080fd5b806318160ddd146104bb57806323b872dd146104de578063249dfad7146104fe57600080fd5b8063095ea7b311610349578063095ea7b3146103eb57806309b16a221461041b5780630c3d536b14610453578063102247111461047357600080fd5b8063046f7da21461037b57806306fdde0314610392578063086a606c146103d657600080fd5b3661037657005b600080fd5b34801561038757600080fd5b50610390610be3565b005b34801561039e57600080fd5b506040805180820190915260098152682a23a9102a37b5b2b760b91b60208201525b6040516103cd9190613f88565b60405180910390f35b3480156103e257600080fd5b50610390610c53565b3480156103f757600080fd5b5061040b610406366004613fb2565b6110df565b60405190151581526020016103cd565b34801561042757600080fd5b5060085461043b906001600160a01b031681565b6040516001600160a01b0390911681526020016103cd565b34801561045f57600080fd5b5060095461043b906001600160a01b031681565b34801561047f57600080fd5b506104a661048e366004613fe9565b600d6020526000908152604090205463ffffffff1681565b60405163ffffffff90911681526020016103cd565b3480156104c757600080fd5b506104d06110f6565b6040519081526020016103cd565b3480156104ea57600080fd5b5061040b6104f9366004614006565b611106565b34801561050a57600080fd5b5060005461043b9061010090046001600160a01b031681565b34801561052f57600080fd5b5061054361053e366004614042565b6111b7565b60408051998a5260208a0198909852968801959095526060870193909352608086019190915260a085015260c084015260e0830152610100820152610120016103cd565b34801561059357600080fd5b50604051601281526020016103cd565b3480156105af57600080fd5b50602854602954602a54602b54602c54602d54602e54602f546105df979695946001600160a01b03169392919088565b604080519889526020890197909752958701949094526001600160a01b039092166060860152608085015260a084015260c083015260e0820152610100016103cd565b34801561062e57600080fd5b5061040b61063d366004613fb2565b611231565b34801561064e57600080fd5b5061039061065d366004613fb2565b611245565b34801561066e57600080fd5b506103906112f7565b34801561068357600080fd5b5061069761069236600461406b565b6113b8565b6040516103cd91906140ce565b3480156106b057600080fd5b506103906106bf366004614042565b6116df565b3480156106d057600080fd5b5060145461040b9060ff1681565b3480156106ea57600080fd5b506106f3611802565b6040516103cd9190614107565b34801561070c57600080fd5b506104d0600f5481565b34801561072257600080fd5b5060015461043b906001600160a01b031681565b34801561074257600080fd5b506104d0610751366004614115565b611834565b34801561076257600080fd5b506030546031546032546033546034546035546036546037546105df979695946001600160a01b03169392919088565b34801561079e57600080fd5b506104d06107ad366004614042565b61189c565b3480156107be57600080fd5b506103906118a7565b3480156107d357600080fd5b506104d06118e5565b3480156107e857600080fd5b50610390611baa565b3480156107fd57600080fd5b50600e54630100000090046001600160a01b031661043b565b34801561082257600080fd5b5061039061083136600461416f565b611c18565b34801561084257600080fd5b506103906108513660046141a2565b611cb6565b34801561086257600080fd5b50610390610871366004614202565b611df9565b34801561088257600080fd5b5061039061089136600461428e565b611fb3565b3480156108a257600080fd5b5060075461043b906001600160a01b031681565b3480156108c257600080fd5b506040805180820190915260038152622a23a960e91b60208201526103c0565b3480156108ee57600080fd5b5061043b6108fd36600461416f565b600b6020908152600092835260408084209091529082529020546001600160a01b031681565b34801561092f57600080fd5b5061039061093e366004613fb2565b61206e565b34801561094f57600080fd5b506020546021546022546023546024546025546026546027546105df979695946001600160a01b03169392919088565b34801561098b57600080fd5b5061040b61099a366004614006565b6120aa565b3480156109ab57600080fd5b5061040b6109ba366004613fb2565b612131565b3480156109cb57600080fd5b506103906109da3660046142ce565b61213e565b3480156109eb57600080fd5b5061040b6109fa366004613fb2565b6121e2565b348015610a0b57600080fd5b50610390610a1a3660046141a2565b6121ef565b348015610a2b57600080fd5b50610390610a3a3660046142f0565b612325565b348015610a4b57600080fd5b50610390610a5a366004614006565b6127c1565b348015610a6b57600080fd5b50610390610a7a36600461435b565b612c19565b348015610a8b57600080fd5b506104d0612dde565b348015610aa057600080fd5b506104d0610aaf36600461416f565b6001600160a01b039182166000908152601b6020908152604080832093909416825291909152205490565b348015610ae657600080fd5b50610390612dfd565b348015610afb57600080fd5b506104d060105481565b348015610b1157600080fd5b506104d0610b20366004613fe9565b60116020526000908152604090205481565b348015610b3e57600080fd5b50610390612e59565b348015610b5357600080fd5b50610390610b62366004614042565b613015565b348015610b7357600080fd5b50600c5461043b906001600160a01b031681565b348015610b9357600080fd5b50610bd4610ba2366004614042565b600a60205260009081526040902080546001909101546001600160a01b0391821691811690600160a01b900460ff1683565b6040516103cd939291906143cd565b600e54630100000090046001600160a01b03166001600160a01b0316336001600160a01b031614610c475760405162461bcd60e51b81526020600482015260096024820152682737ba1037bbb732b960b91b60448201526064015b60405180910390fd5b6014805460ff19169055565b6000610c5f60206130b5565b905080156110dc576000610c723061315d565b9050600064e8d4a5100083600860009054906101000a90046001600160a01b03166001600160a01b03166318160ddd6040518163ffffffff1660e01b8152600401602060405180830381865afa158015610cd0573d6000803e3d6000fd5b505050506040513d601f19601f82011682018060405250810190610cf491906143fa565b610cfe9190614429565b610d089190614448565b6004805460405162d1b00d60e71b81523092810183905260248101849052600060448201819052606482019390935243608482015292935090916001600160a01b03909116906368d806809060a4016020604051808303816000875af1158015610d76573d6000803e3d6000fd5b505050506040513d601f19601f82011682018060405250810190610d9a91906143fa565b905082610da63061315d565b610db0919061446a565b9250610dbc3084613200565b610ddf604051806060016040528060278152602001614a9f6027913982856132f6565b604080516002808252606082018352600092602083019080368337019050509050735fc8d32690cc91d4c39d9d3abcbd16989f87570781600081518110610e2857610e28614481565b60200260200101906001600160a01b031690816001600160a01b03168152505073b7f8bc63bbcad18155201308c8f3540b07f84f5e81600181518110610e7057610e70614481565b6001600160a01b0392909216602092830291909101909101526040516370a0823160e01b815230600482015260009073b7f8bc63bbcad18155201308c8f3540b07f84f5e906370a0823190602401602060405180830381865afa158015610edb573d6000803e3d6000fd5b505050506040513d601f19601f82011682018060405250810190610eff91906143fa565b600554604051637ff36ab560e01b81529192506001600160a01b031690637ff36ab5908590610f3990600090879030904390600401614497565b60006040518083038185885af1158015610f57573d6000803e3d6000fd5b50505050506040513d6000823e601f3d908101601f19168201604052610f809190810190614501565b506040516370a0823160e01b8152306004820152819073b7f8bc63bbcad18155201308c8f3540b07f84f5e906370a0823190602401602060405180830381865afa158015610fd2573d6000803e3d6000fd5b505050506040513d601f19601f82011682018060405250810190610ff691906143fa565b611000919061446a565b90506110416040518060400160405280601881526020017f48545a206761696e65642062792073776170202d2d2d2d2d00000000000000008152508261333d565b60405163a9059cbb60e01b815273f39fd6e51aad88f6f4ce6ab8827279cfffb9226660048201526024810182905273b7f8bc63bbcad18155201308c8f3540b07f84f5e9063a9059cbb906044016020604051808303816000875af11580156110ad573d6000803e3d6000fd5b505050506040513d601f19601f820116820180604052508101906110d191906145a7565b505043602055505050505b50565b60006110ec338484613382565b5060015b92915050565b6000611101601c5490565b905090565b60006001600160a01b03841633146111a2576001600160a01b0384166000908152601b602090815260408083203384529091529020548281101561118c5760405162461bcd60e51b815260206004820152601a60248201527f5472616e73666572206578636565647320616c6c6f77616e63650000000000006044820152606401610c3e565b6111a0853361119b868561446a565b613382565b505b6111ad848484613471565b5060019392505050565b601c54603454603554603654603a546001600160a01b0386166000908152601d60205260408120549080806111eb8a61315d565b92506111f68a6134df565b6001600160a01b038b166000908152603960205260409020549092506112229064e8d4a5100090614448565b90509193959799909294969850565b600061123e338484613537565b9392505050565b600e546001600160a01b0363010000009091041633146112775760405162461bcd60e51b8152600401610c3e906145c4565b6112836012600a6146dd565b61129390652d79883d2000614429565b8161129d601c5490565b6112a791906146ec565b11156112e95760405162461bcd60e51b8152602060048201526011602482015270457863656564204d617820537570706c7960781b6044820152606401610c3e565b6112f382826135be565b5050565b60025433906001600160a01b031681148061131f57506004546001600160a01b038281169116145b8061133757506005546001600160a01b038281169116145b6113535760405162461bcd60e51b8152600401610c3e90614704565b600060126013546014811061136a5761136a614481565b602091828204019190066101000a81548160ff02191690836005811115611393576113936140a4565b0217905550601354156110dc57601380549060006113b083614733565b919050555050565b60408051608081018252600080825260208201819052918101829052606081019190915260025433906001600160a01b031681148061140457506004546001600160a01b038281169116145b8061141c57506005546001600160a01b038281169116145b6114385760405162461bcd60e51b8152600401610c3e90614704565b60145460ff161561147b5760405162461bcd60e51b815260206004820152600d60248201526c14de5cdd195b481c185d5cd959609a1b6044820152606401610c3e565b600084600581111561148f5761148f6140a4565b036114cd5760405162461bcd60e51b815260206004820152600e60248201526d24b73b30b634b21030b1ba34b7b760911b6044820152606401610c3e565b82156115765760005b6013548111611574578460058111156114f1576114f16140a4565b6012826014811061150457611504614481565b602081049091015460ff601f9092166101000a900416600581111561152b5761152b6140a4565b036115625760405162461bcd60e51b81526020600482015260076024820152665265656e74727960c81b6044820152606401610c3e565b8061156c8161474a565b9150506114d6565b505b60135415801561159d575060125460009060ff16600581111561159b5761159b6140a4565b145b6115b757601380549060006115b18361474a565b91905055505b6014601354106115fa5760405162461bcd60e51b815260206004820152600e60248201526d537461636b206f766572666c6f7760901b6044820152606401610c3e565b8360126013546014811061161057611610614481565b602091828204019190066101000a81548160ff02191690836005811115611639576116396140a4565b021790555081846005811115611651576116516140a4565b90816005811115611664576116646140a4565b90525060135415606083015260405160009061169890439032906020019182526001600160a01b0316602082015260400190565b6040516020818303038152906040528051906020012060001c905080600f54146116c757600f80546010558190555b5050600f546020820152601054604082015292915050565b60005461010090046001600160a01b03163314806116fc57503330145b8061172a5750600e54630100000090046001600160a01b03166001600160a01b0316336001600160a01b0316145b6117465760405162461bcd60e51b8152600401610c3e90614763565b6001600160a01b03811630146117d6576001546001600160a01b03908116906354abe9d090831615611778578261177a565b305b6040516001600160e01b031960e084901b1681526001600160a01b039091166004820152602401600060405180830381600087803b1580156117bb57600080fd5b505af11580156117cf573d6000803e3d6000fd5b5050505050565b6040517ffd3415c24b2b4519f08b7935c13f86ea010c77b3ff9bf448a474ae3b2414fce090600090a150565b600060126013546014811061181957611819614481565b602081049091015460ff601f9092166101000a900416919050565b60025460009033906001600160a01b031681148061185f57506004546001600160a01b038281169116145b8061187757506005546001600160a01b038281169116145b6118935760405162461bcd60e51b8152600401610c3e90614704565b50949350505050565b60006110f08261315d565b600e546001600160a01b0363010000009091041633146118d95760405162461bcd60e51b8152600401610c3e906145c4565b6118e3600061365a565b565b603554603654600091101561194d5760405162461bcd60e51b815260206004820152602860248201527f757365725f70656e64696e675f6275726e206578636565647320757365725f736044820152671d5b57dd1bdd185b60c21b6064820152608401610c3e565b603554604080546001600160a01b039081166000908152601d60205282812054603f548316825283822054603e548416835284832054603d549094168352939091205490929161199c916146ec565b6119a691906146ec565b6119b091906146ec565b14611a4757604080518082018252601081526f084848481a5b98dbdb9cda5cdd195b9d60821b60208083019190915282546001600160a01b039081166000908152601d90925283822054603f548216835284832054603e548316845285842054603d5490931684529490922054611a479491611a2b916146ec565b611a3591906146ec565b611a3f91906146ec565b6035546132f6565b603554604054600090611a62906001600160a01b031661189c565b603f54611a77906001600160a01b031661189c565b603e54611a8c906001600160a01b031661189c565b603d54611aa1906001600160a01b031661189c565b611aab91906146ec565b611ab591906146ec565b611abf91906146ec565b905080821015611ada57611ad3828261446a565b9250611ae7565b611ae4818361446a565b92505b60408051808201909152600b81526a32b93937b92fb930ba329d60a91b6020820152611b539083611b1d8664e8d4a51000614429565b611b279190614448565b6040518060400160405280600e81526020016d7472696c6c696f6e2d746828732960901b8152506136b8565b611ba56040518060400160405280601081526020016f030b139b7b63aba32afb2b93937b91d160851b81525084604051806040016040528060078152602001666777617928732960c81b8152506136b8565b505090565b600e54630100000090046001600160a01b03166001600160a01b0316336001600160a01b031614611c095760405162461bcd60e51b81526020600482015260096024820152682737ba1037bbb732b960b91b6044820152606401610c3e565b6014805460ff19166001179055565b600e54630100000090046001600160a01b03166001600160a01b0316336001600160a01b031614611c7e5760405162461bcd60e51b815260206004820152601060248201526f496e76616c69642063616c6c6572203360801b6044820152606401610c3e565b60008054610100600160a81b0319166101006001600160a01b0394851602179055600180546001600160a01b03191691909216179055565b601f5433906000908103611cdb57611cd464e8d4a510006064614429565b9050611d16565b601f54602b546001600160a01b03166000908152601d6020526040902054611d099064e8d4a5100090614429565b611d139190614448565b90505b600064e8d4a51000611d288584614429565b611d329190614448565b6001600160a01b0384166000908152601e6020526040902054909150841115611d965760405162461bcd60e51b8152602060048201526016602482015275616d6f756e7420657863656564696e6720766f74657360501b6044820152606401610c3e565b602b54611dad906001600160a01b031684836136ff565b6001600160a01b0383166000908152601e602052604081208054869290611dd590849061446a565b9250508190555083601f6000828254611dee919061446a565b909155505050505050565b60005461010090046001600160a01b0316331480611e1657503330145b80611e445750600e54630100000090046001600160a01b03166001600160a01b0316336001600160a01b0316145b611e605760405162461bcd60e51b8152600401610c3e90614763565b6001600160a01b0381163014611f7457600e5462010000900460ff1615611eee57604051634f18125b60e01b815273__$88bebae22a3ad6e62b56c303176513ecf8$__90634f18125b90611ebd908690600d90879060040161478d565b60006040518083038186803b158015611ed557600080fd5b505af4158015611ee9573d6000803e3d6000fd5b505050505b60006001600160a01b03821615611f055781611f07565b305b6001546040516391fd0db760e01b81529192506001600160a01b0316906391fd0db790611f3c908790879086906004016147b6565b600060405180830381600087803b158015611f5657600080fd5b505af1158015611f6a573d6000803e3d6000fd5b5050505050505050565b7fb4040436d4754da72f29d5b97fe68448f30d44ac0e08b33545cbf6f28b7641d98383604051611fa59291906147e8565b60405180910390a15b505050565b60005461010090046001600160a01b0316331480611fd057503330145b80611ffe5750600e54630100000090046001600160a01b03166001600160a01b0316336001600160a01b0316145b61201a5760405162461bcd60e51b8152600401610c3e90614763565b612025838383613858565b6000836004811115612039576120396140a4565b03611fae57601980546001600160a01b0384166001600160a01b03199182168117909255601a80549091169091179055505050565b600e546001600160a01b0363010000009091041633146120a05760405162461bcd60e51b8152600401610c3e906145c4565b6112f38282613200565b60408051808201909152600c81526b5a65726f206164647265737360a01b60208201526000906001600160a01b0385166120f75760405162461bcd60e51b8152600401610c3e9190613f88565b506001600160a01b038085166000908152601b60209081526040808320938716835292905220546111ad908590859061119b90869061446a565b600061123e3384846120aa565b600e546001600160a01b0363010000009091041633146121705760405162461bcd60e51b8152600401610c3e906145c4565b61217c6005600a61480a565b821115801561219657506121926005600a61480a565b8111155b6121d75760405162461bcd60e51b8152602060048201526012602482015271496e76616c6964206275726e20726174657360701b6044820152606401610c3e565b603b91909155603c55565b60006110ec338484613471565b601f54339060009081036122145761220d64e8d4a510006064614429565b905061224f565b601f54602b546001600160a01b03166000908152601d60205260409020546122429064e8d4a5100090614429565b61224c9190614448565b90505b600064e8d4a510006122618584614429565b61226b9190614448565b6001600160a01b0384166000908152601d60205260409020549091508111156122cc5760405162461bcd60e51b815260206004820152601360248201527273686f7274206f662054475220746f6b656e7360681b6044820152606401610c3e565b602b546122e49084906001600160a01b0316836136ff565b6001600160a01b0383166000908152601e60205260408120805486929061230c9084906146ec565b9250508190555083601f6000828254611dee91906146ec565b60005461010090046001600160a01b031633148061234257503330145b806123705750600e54630100000090046001600160a01b03166001600160a01b0316336001600160a01b0316145b61238c5760405162461bcd60e51b8152600401610c3e90614763565b6001600160a01b038116301461277d57600e5460ff16156126f3576040518060600160405280856001600160a01b03168152602001846001600160a01b031681526020018360038111156123e2576123e26140a4565b90526001600160a01b038087166000908152600a6020908152604091829020845181549085166001600160a01b0319918216178255918501516001820180549190951692811683178555928501519093909290916001600160a81b031990911617600160a01b83600381111561245a5761245a6140a4565b021790555050506001600160a01b038085166000818152600b60208181526040808420898716855282528084208054878d166001600160a01b03199182168117909255938352818520958552949091529182902080549091169092179091556002549051633fe59dbb60e11b815273__$88bebae22a3ad6e62b56c303176513ecf8$__92637fcb3b769261250c92899289921690730dcd1bf9a1b36ce34237eeafef220932846bcd8290600401614816565b602060405180830381865af4158015612529573d6000803e3d6000fd5b505050506040513d601f19601f8201168201806040525081019061254d91906145a7565b1561256e57600780546001600160a01b0319166001600160a01b0387161790555b600254604051633fe59dbb60e11b815273__$88bebae22a3ad6e62b56c303176513ecf8$__91637fcb3b76916125ca91889188916001600160a01b031690735fc8d32690cc91d4c39d9d3abcbd16989f87570790600401614816565b602060405180830381865af41580156125e7573d6000803e3d6000fd5b505050506040513d601f19601f8201168201806040525081019061260b91906145a7565b1561262c57600880546001600160a01b0319166001600160a01b0387161790555b604051633fe59dbb60e11b815273__$88bebae22a3ad6e62b56c303176513ecf8$__90637fcb3b7690612691908790879073b7f8bc63bbcad18155201308c8f3540b07f84f5e90735fc8d32690cc91d4c39d9d3abcbd16989f87570790600401614816565b602060405180830381865af41580156126ae573d6000803e3d6000fd5b505050506040513d601f19601f820116820180604052508101906126d291906145a7565b156126f357600980546001600160a01b0319166001600160a01b0387161790555b60006001600160a01b0382161561270a578161270c565b305b60015460405163cd193c4360e01b81529192506001600160a01b03169063cd193c43906127459089908990899089908890600401614841565b600060405180830381600087803b15801561275f57600080fd5b505af1158015612773573d6000803e3d6000fd5b50505050506117cf565b7f7af36d96fdc569564b9fadb22716716fe33463cb7fc8dca4fbd79d40448acdf2858585856040516127b29493929190614883565b60405180910390a15050505050565b60045433906001600160a01b031681036128f5576001600160a01b038381166000908152600a602052604090205416156128795760006127ff6139bb565b90506003816005811115612815576128156140a4565b036128435761283e6040518060400160405280600381526020016210591960ea1b815250613a2a565b612873565b6128736040518060400160405280600f81526020016e0496e636f6e73697374656e6374203608c1b815250613a2a565b50612bc6565b6004546001600160a01b03908116908516036128bc576128b76040518060400160405280600781526020016652656d6f76653160c81b815250613a2a565b612bc6565b60405162461bcd60e51b815260206004820152600e60248201526d496e636f6e73697374656e74203160901b6044820152606401610c3e565b6005546001600160a01b0390811690821603612a0c576001600160a01b038381166000908152600a60205260409020541615612955576129506040518060400160405280600481526020016314d95b1b60e21b815250613a2a565b6129c9565b6005546001600160a01b039081169085160361298f576129506040518060400160405280600381526020016242757960e81b815250613a2a565b60405162461bcd60e51b815260206004820152600f60248201526e24b731b7b739b4b9ba32b731ba101960891b6044820152606401610c3e565b60006129d76005600a61480a565b603b546129e49085614429565b6129ee9190614448565b90506129fa8582613200565b612a04818461446a565b925050612bc6565b836001600160a01b0316816001600160a01b031603612b8c576001600160a01b038181166000908152600a602052604090205416156128b7576000612a4f6139bb565b90506002816005811115612a6557612a656140a4565b03612ad1576000612a786005600a61480a565b603b54612a859086614429565b612a8f9190614448565b9050612a9b8682613200565b612aa5818561446a565b9350612acb6040518060400160405280600381526020016242757960e81b815250613a2a565b50612873565b6004816005811115612ae557612ae56140a4565b03612b125761283e604051806040016040528060078152602001662932b6b7bb329960c91b815250613a2a565b6005816005811115612b2657612b266140a4565b03612b525761283e6040518060400160405280600681526020016544696c75746560d01b815250613a2a565b60405162461bcd60e51b815260206004820152600f60248201526e496e636f6e73697374656e6374203560881b6044820152606401610c3e565b60405162461bcd60e51b815260206004820152600f60248201526e2bb937b7339036b9b3a9b2b73232b960891b6044820152606401610c3e565b6001600160a01b0384166000908152601d6020526040902054821115612c02576001600160a01b0384166000908152601d602052604090205491505b8115612c1357612c138484846136ff565b50505050565b60005461010090046001600160a01b0316331480612c3657503330145b80612c645750600e54630100000090046001600160a01b03166001600160a01b0316336001600160a01b0316145b612c805760405162461bcd60e51b8152600401610c3e90614763565b6001600160a01b0381163014612d9d57600e54610100900460ff1615612d1457604051633d8d54b760e11b8152600c600482015282516001600160a01b0316602482015273__$88bebae22a3ad6e62b56c303176513ecf8$__90637b1aa96e9060440160006040518083038186803b158015612cfb57600080fd5b505af4158015612d0f573d6000803e3d6000fd5b505050505b60006001600160a01b03821615612d2b5781612d2d565b305b600154604051633376489360e21b815285516001600160a01b039081166004830152808416602483015292935091169063cdd9224c90604401600060405180830381600087803b158015612d8057600080fd5b505af1158015612d94573d6000803e3d6000fd5b50505050505050565b60405182516001600160a01b031681527f275664547227ddbc7a8a732c07c9346f2f4520de70c2088665cc6809534212c09060200160405180910390a15050565b612dea6012600a6146dd565b612dfa90652d79883d2000614429565b81565b6000612e0960286130b5565b905080156110dc57602b546001600160a01b03166000818152601d6020526040902054612e52919064e8d4a5100090612e43908590614429565b612e4d9190614448565b613200565b4360285550565b612e616118e5565b506000612e6e60306130b5565b905080156110dc57612e7e6118e5565b50603554603654600091612e9191613a6d565b905081612e9c6118e5565b50600064e8d4a51000612eaf8385614429565b612eb99190614448565b905064e8d4a5100082603060050154612ed29190614429565b612edc9190614448565b90508060306006016000828254612ef391906146ec565b90915550506035546036541115612f6057612f59604051806080016040528060528152602001614ac660529139603554603654612f30919061446a565b6040518060400160405280600b81526020016a067776179287329203e20360ac1b8152506136b8565b6035546036555b8160306004016000828254612f7591906146ec565b9091555060009050612f856118e5565b1115612c1357603554603654600091612f9d91613a6d565b604054909150600090612fb8906001600160a01b031661189c565b603f54612fcd906001600160a01b031661189c565b603e54612fe2906001600160a01b031661189c565b603d54612ff7906001600160a01b031661189c565b61300191906146ec565b61300b91906146ec565b612d9491906146ec565b600e546001600160a01b0363010000009091041633146130475760405162461bcd60e51b8152600401610c3e906145c4565b6001600160a01b0381166130ac5760405162461bcd60e51b815260206004820152602660248201527f4f776e61626c653a206e6577206f776e657220697320746865207a65726f206160448201526564647265737360d01b6064820152608401610c3e565b6110dc8161365a565b6000808260010154436130c89190614448565b905082600701548111156131575760008360070154826130e8919061446a565b60078501839055438555600093509050825b818110156131545761310e6005600a61480a565b60028601546131228664e8d4a5100061446a565b61312c9190614429565b6131369190614448565b61314090856146ec565b93508061314c8161474a565b9150506130fa565b50505b50919050565b600061316882613a91565b156131e0576000613178836134df565b6001600160a01b0384166000908152601d60205260409020549091508111156131bc576131bc6040518060600160405280602c8152602001614a73602c9139613a2a565b6001600160a01b0383166000908152601d602052604090205461123e90829061446a565b506001600160a01b0381166000908152601d60205260409020545b919050565b60408051808201909152600c81526b5a65726f206164647265737360a01b60208201526001600160a01b03831661324a5760405162461bcd60e51b8152600401610c3e9190613f88565b5060006132568361315d565b9050818110156040518060400160405280600f81526020016e457863656564732062616c616e636560881b815250906132a25760405162461bcd60e51b8152600401610c3e9190613f88565b506132af83836000613af2565b6040518281526000906001600160a01b038516907fddf252ad1be2c89b69c2b068fc378daa952ba7f163c4a11628f55a4df523b3ef906020015b60405180910390a3505050565b611fae83838360405160240161330e939291906148b9565b60408051601f198184030181529190526020810180516001600160e01b031663ca47c4eb60e01b179052613d1a565b6112f382826040516024016133539291906148de565b60408051601f198184030181529190526020810180516001600160e01b0316632d839cb360e21b179052613d1a565b60408051808201909152600c81526b5a65726f206164647265737360a01b60208201526001600160a01b0384166133cc5760405162461bcd60e51b8152600401610c3e9190613f88565b5060408051808201909152600c81526b5a65726f206164647265737360a01b60208201526001600160a01b0383166134175760405162461bcd60e51b8152600401610c3e9190613f88565b506001600160a01b038381166000818152601b602090815260408083209487168084529482529182902085905590518481527f8c5be1e5ebec7d5bd14f71427d1e84f3dd0314c0f7b2291e5b200ac8c7c3b92591016132e9565b61347c600180613d23565b80156134d75760185460ff16156134cc57600061349b6005600a61480a565b603b546134a89084614429565b6134b29190614448565b90506134be8482613200565b6134c8818361446a565b9150505b6134d78383836136ff565b611fae613df2565b6001600160a01b0381166000908152603960205260408120819061350590603090613e56565b506001600160a01b0384166000908152601d60205260408120549192509061352e908390614429565b90505050919050565b60408051808201909152600c81526b5a65726f206164647265737360a01b60208201526000906001600160a01b0385166135845760405162461bcd60e51b8152600401610c3e9190613f88565b506001600160a01b038085166000908152601b60209081526040808320938716835292905220546111ad908590859061119b9086906146ec565b60408051808201909152600c81526b5a65726f206164647265737360a01b60208201526001600160a01b0383166136085760405162461bcd60e51b8152600401610c3e9190613f88565b5061361582826001613af2565b6040518181526001600160a01b038316906000907fddf252ad1be2c89b69c2b068fc378daa952ba7f163c4a11628f55a4df523b3ef9060200160405180910390a35050565b600e80546001600160a01b0383811663010000008181026301000000600160b81b031985161790945560405193909204169182907f8be0079c531659141344cd1fd0a4f28419497f9722a3daafe3b4186f6b6457e090600090a35050565b611fae8383836040516024016136d093929190614900565b60408051601f198184030181529190526020810180516001600160e01b0316635970e08960e01b179052613d1a565b60408051808201909152600c81526b5a65726f206164647265737360a01b60208201526001600160a01b0384166137495760405162461bcd60e51b8152600401610c3e9190613f88565b5060408051808201909152600c81526b5a65726f206164647265737360a01b60208201526001600160a01b0383166137945760405162461bcd60e51b8152600401610c3e9190613f88565b5060006137a08461315d565b9050818110156040518060400160405280600f81526020016e457863656564732062616c616e636560881b815250906137ec5760405162461bcd60e51b8152600401610c3e9190613f88565b506137f984836000613af2565b61380583836001613af2565b826001600160a01b0316846001600160a01b03167fddf252ad1be2c89b69c2b068fc378daa952ba7f163c4a11628f55a4df523b3ef8460405161384a91815260200190565b60405180910390a350505050565b60005461010090046001600160a01b031633148061387557503330145b806138a35750600e54630100000090046001600160a01b03166001600160a01b0316336001600160a01b0316145b6138bf5760405162461bcd60e51b8152600401610c3e90614763565b6001600160a01b038116301461398a5760405163085b199160e11b815273__$88bebae22a3ad6e62b56c303176513ecf8$__906310b633229061390b9086908690600290600401614945565b60006040518083038186803b15801561392357600080fd5b505af4158015613937573d6000803e3d6000fd5b506000925050506001600160a01b038216156139535781613955565b305b6001546040516349443ceb60e11b81529192506001600160a01b03169063928879d690611f3c9087908790869060040161496d565b7fb45c42dda0a5ab1d1078e0afeda2976363eff9496a93644e726862f1f06186b88383604051611fa592919061499d565b60195460408051632e9c96d560e11b815290516000926001600160a01b031691635d392daa916004808301926020929190829003018187875af1158015613a06573d6000803e3d6000fd5b505050506040513d601f19601f8201168201806040525081019061110191906149c3565b6110dc81604051602401613a3e9190613f88565b60408051601f198184030181529190526020810180516001600160e01b031663104c13eb60e21b179052613d1a565b600081831115613a8857613a81828461446a565b90506110f0565b50600092915050565b6001600160a01b038181166000908152600a60205260408120549091161580156110f057507f00000000000000000000000000000000000000000000000000000000000000006001600160a01b0316826001600160a01b0316141592915050565b613afb83613a91565b15613c4e576000613b0b846134df565b90508015613b80576001600160a01b0384166000908152601d6020526040902054613b369082613a6d565b6001600160a01b0385166000908152601d6020526040902055603554613b5c9082613a6d565b603555603654613b6c9082613a6d565b603655601c54613b7c9082613a6d565b601c555b8115613bec576001600160a01b0384166000908152601d602052604081208054859290613bae9084906146ec565b909155505060358054849190600090613bc89084906146ec565b9250508190555082601c6000828254613be191906146ec565b90915550612c139050565b6001600160a01b0384166000908152601d6020526040902054613c0f9084613a6d565b6001600160a01b0385166000908152601d6020526040902055603554613c359084613a6d565b603555601c54613c459084613a6d565b601c5550505050565b8015613cb9576001600160a01b0383166000908152601d602052604081208054849290613c7c9084906146ec565b9250508190555081603a6000828254613c9591906146ec565b9250508190555081601c6000828254613cae91906146ec565b90915550611fae9050565b6001600160a01b0383166000908152601d6020526040902054613cdc9083613a6d565b6001600160a01b0384166000908152601d6020526040902055603a54613d029083613a6d565b603a55601c54613d129083613a6d565b601c55505050565b6110dc81613f1a565b601954604051634be5482760e01b81526001600160a01b0390911690634be5482790613d5590859085906004016149e0565b6080604051808303816000875af1158015613d74573d6000803e3d6000fd5b505050506040513d601f19601f82011682018060405250810190613d9891906149fd565b805160158054909190829060ff19166001836005811115613dbb57613dbb6140a4565b021790555060208201516001820155604082015160028201556060909101516003909101805460ff19169115159190911790555050565b601960009054906101000a90046001600160a01b03166001600160a01b031663431b3c306040518163ffffffff1660e01b8152600401600060405180830381600087803b158015613e4257600080fd5b505af1158015612c13573d6000803e3d6000fd5b6000806000846001015443613e6b9190614448565b84549091506000819003613e80575060078501545b8454821115613f11576000613e95828461446a565b905064e8d4a510006000613eab6005600a61480a565b60028a0154613ebc6005600a61480a565b613ec6919061446a565b613ed09190614448565b905060005b83811015613efb57613ee78284614429565b925080613ef38161474a565b915050613ed5565b50613f0b8264e8d4a5100061446a565b96505050505b50509250929050565b60006a636f6e736f6c652e6c6f679050600080835160208501845afa505050565b6000815180845260005b81811015613f6157602081850181015186830182015201613f45565b81811115613f73576000602083870101525b50601f01601f19169290920160200192915050565b60208152600061123e6020830184613f3b565b80356001600160a01b03811681146131fb57600080fd5b60008060408385031215613fc557600080fd5b613fce83613f9b565b946020939093013593505050565b600681106110dc57600080fd5b600060208284031215613ffb57600080fd5b813561123e81613fdc565b60008060006060848603121561401b57600080fd5b61402484613f9b565b925061403260208501613f9b565b9150604084013590509250925092565b60006020828403121561405457600080fd5b61123e82613f9b565b80151581146110dc57600080fd5b6000806040838503121561407e57600080fd5b823561408981613fdc565b915060208301356140998161405d565b809150509250929050565b634e487b7160e01b600052602160045260246000fd5b600681106140ca576140ca6140a4565b9052565b60006080820190506140e18284516140ba565b602083015160208301526040830151604083015260608301511515606083015292915050565b602081016110f082846140ba565b600080600080848603608081121561412c57600080fd5b61413586613f9b565b94506020868101359450603f198201121561414f57600080fd5b5060408501915060608501356141648161405d565b939692955090935050565b6000806040838503121561418257600080fd5b61418b83613f9b565b915061419960208401613f9b565b90509250929050565b6000602082840312156141b457600080fd5b5035919050565b634e487b7160e01b600052604160045260246000fd5b604051601f8201601f1916810167ffffffffffffffff811182821017156141fa576141fa6141bb565b604052919050565b6000806000838503606081121561421857600080fd5b843561422381613fdc565b93506020601f198201121561423757600080fd5b506040516020810181811067ffffffffffffffff8211171561425b5761425b6141bb565b604052602085013563ffffffff8116811461427557600080fd5b8152915061428560408501613f9b565b90509250925092565b6000806000606084860312156142a357600080fd5b8335600581106142b257600080fd5b92506142c060208501613f9b565b915061428560408501613f9b565b600080604083850312156142e157600080fd5b50508035926020909101359150565b600080600080600060a0868803121561430857600080fd5b61431186613f9b565b945061431f60208701613f9b565b935061432d60408701613f9b565b925060608601356004811061434157600080fd5b915061434f60808701613f9b565b90509295509295909350565b600080828403604081121561436f57600080fd5b602081121561437d57600080fd5b506040516020810181811067ffffffffffffffff821117156143a1576143a16141bb565b6040526143ad84613f9b565b8152915061419960208401613f9b565b600481106140ca576140ca6140a4565b6001600160a01b03848116825283166020820152606081016143f260408301846143bd565b949350505050565b60006020828403121561440c57600080fd5b5051919050565b634e487b7160e01b600052601160045260246000fd5b600081600019048311821515161561444357614443614413565b500290565b60008261446557634e487b7160e01b600052601260045260246000fd5b500490565b60008282101561447c5761447c614413565b500390565b634e487b7160e01b600052603260045260246000fd5b600060808201868352602060808185015281875180845260a086019150828901935060005b818110156144e15784516001600160a01b0316835293830193918301916001016144bc565b50506001600160a01b039690961660408501525050506060015292915050565b6000602080838503121561451457600080fd5b825167ffffffffffffffff8082111561452c57600080fd5b818501915085601f83011261454057600080fd5b815181811115614552576145526141bb565b8060051b91506145638483016141d1565b818152918301840191848101908884111561457d57600080fd5b938501935b8385101561459b57845182529385019390850190614582565b98975050505050505050565b6000602082840312156145b957600080fd5b815161123e8161405d565b6020808252818101527f4f776e61626c653a2063616c6c6572206973206e6f7420746865206f776e6572604082015260600190565b600181815b8085111561463457816000190482111561461a5761461a614413565b8085161561462757918102915b93841c93908002906145fe565b509250929050565b60008261464b575060016110f0565b81614658575060006110f0565b816001811461466e576002811461467857614694565b60019150506110f0565b60ff84111561468957614689614413565b50506001821b6110f0565b5060208310610133831016604e8410600b84101617156146b7575081810a6110f0565b6146c183836145f9565b80600019048211156146d5576146d5614413565b029392505050565b600061123e60ff84168361463c565b600082198211156146ff576146ff614413565b500190565b6020808252601590820152742737ba10309039b2b9b9b4b7b71036b0b730b3b2b960591b604082015260600190565b60008161474257614742614413565b506000190190565b60006001820161475c5761475c614413565b5060010190565b60208082526010908201526f496e76616c69642063616c6c6572203160801b604082015260600190565b6060810161479b82866140ba565b83602083015263ffffffff8351166040830152949350505050565b606081016147c482866140ba565b925163ffffffff1660208201526001600160a01b0391909116604090910152919050565b604081016147f682856140ba565b63ffffffff83511660208301529392505050565b600061123e838361463c565b6001600160a01b03948516815292841660208401529083166040830152909116606082015260800190565b6001600160a01b0386811682528581166020830152848116604083015260a082019061487060608401866143bd565b8084166080840152509695505050505050565b6001600160a01b038581168252848116602083015283166040820152608081016148b060608301846143bd565b95945050505050565b6060815260006148cc6060830186613f3b565b60208301949094525060400152919050565b6040815260006148f16040830185613f3b565b90508260208301529392505050565b6060815260006149136060830186613f3b565b846020840152828103604084015261492b8185613f3b565b9695505050505050565b600581106140ca576140ca6140a4565b606081016149538286614935565b6001600160a01b0393909316602082015260400152919050565b6060810161497b8286614935565b6001600160a01b03938416602083015291909216604090920191909152919050565b604081016149ab8285614935565b6001600160a01b039290921660209190910152919050565b6000602082840312156149d557600080fd5b815161123e81613fdc565b604081016149ee82856140ba565b82151560208301529392505050565b600060808284031215614a0f57600080fd5b6040516080810181811067ffffffffffffffff82111715614a3257614a326141bb565b6040528251614a4081613fdc565b8082525060208301516020820152604083015160408201526060830151614a668161405d565b6060820152939250505056fe5f62616c616e63654f662e2070656e64696e674275726e203e205f62616c616e6365735b6163636f756e745d46544d20616e6420544752206761696e6564206279204c502064696c7574696f6e202d2d2d2d2d70756c73655f757365725f6275726e3a206e756d65726963616c206572726f722e20757365725f6275726e2e70656e64696e675f6275726e202d20757365725f6275726e2e73756d5f746f6b656e73203d20a2646970667358221220bd067e1a3af8aa4c8f4111e03aab9da0d84257fc190a0b71e57a736910e489e864736f6c634300080e0033",
  "linkReferences": {
    "contracts/libraries/WireLibrary.sol": {
      "WireLibrary": [
        {
          "length": 20,
          "start": 10645
        },
        {
          "length": 20,
          "start": 12239
        },
        {
          "length": 20,
          "start": 12421
        },
        {
          "length": 20,
          "start": 12608
        },
        {
          "length": 20,
          "start": 14283
        },
        {
          "length": 20,
          "start": 17379
        }
      ]
    }
  },
  "deployedLinkReferences": {
    "contracts/libraries/WireLibrary.sol": {
      "WireLibrary": [
        {
          "length": 20,
          "start": 7824
        },
        {
          "length": 20,
          "start": 9418
        },
        {
          "length": 20,
          "start": 9600
        },
        {
          "length": 20,
          "start": 9787
        },
        {
          "length": 20,
          "start": 11462
        },
        {
          "length": 20,
          "start": 14558
        }
      ]
    }
  }
}