{
  "_format": "hh-sol-artifact-1",
  "contractName": "XMaker",
  "sourceName": "contracts/periphery/XMaker.sol",
  "abi": [
    {
      "inputs": [
        {
          "internalType": "address",
          "name": "_WETH",
          "type": "address"
        }
      ],
      "stateMutability": "nonpayable",
      "type": "constructor"
    },
    {
      "anonymous": false,
      "inputs": [],
      "name": "Begin",
      "type": "event"
    },
    {
      "anonymous": false,
      "inputs": [
        {
          "indexed": false,
          "internalType": "address",
          "name": "pair",
          "type": "address"
        },
        {
          "indexed": false,
          "internalType": "address",
          "name": "tokenA",
          "type": "address"
        },
        {
          "indexed": false,
          "internalType": "address",
          "name": "tokenB",
          "type": "address"
        },
        {
          "indexed": false,
          "internalType": "enum ListStatus",
          "name": "status",
          "type": "uint8"
        }
      ],
      "name": "ChangePairStatus",
      "type": "event"
    },
    {
      "anonymous": false,
      "inputs": [
        {
          "indexed": false,
          "internalType": "address",
          "name": "token",
          "type": "address"
        },
        {
          "indexed": false,
          "internalType": "address",
          "name": "msgSender",
          "type": "address"
        }
      ],
      "name": "DeenlistToken",
      "type": "event"
    },
    {
      "anonymous": false,
      "inputs": [
        {
          "indexed": true,
          "internalType": "address",
          "name": "previousOwner",
          "type": "address"
        },
        {
          "indexed": true,
          "internalType": "address",
          "name": "newOwner",
          "type": "address"
        }
      ],
      "name": "OwnershipTransferred",
      "type": "event"
    },
    {
      "anonymous": false,
      "inputs": [
        {
          "indexed": false,
          "internalType": "enum ActionType",
          "name": "_sessionType",
          "type": "uint8"
        },
        {
          "components": [
            {
              "internalType": "uint32",
              "name": "accountant",
              "type": "uint32"
            }
          ],
          "indexed": false,
          "internalType": "struct FeeRates",
          "name": "_feeRates",
          "type": "tuple"
        }
      ],
      "name": "SetFeeRates",
      "type": "event"
    },
    {
      "anonymous": false,
      "inputs": [
        {
          "components": [
            {
              "internalType": "address",
              "name": "accountant",
              "type": "address"
            }
          ],
          "indexed": false,
          "internalType": "struct FeeStores",
          "name": "_feeStores",
          "type": "tuple"
        }
      ],
      "name": "SetFeeStores",
      "type": "event"
    },
    {
      "anonymous": false,
      "inputs": [
        {
          "indexed": false,
          "internalType": "enum NodeType",
          "name": "nodeType",
          "type": "uint8"
        },
        {
          "indexed": false,
          "internalType": "address",
          "name": "node",
          "type": "address"
        }
      ],
      "name": "SetNode",
      "type": "event"
    },
    {
      "inputs": [],
      "name": "WETH",
      "outputs": [
        {
          "internalType": "address",
          "name": "",
          "type": "address"
        }
      ],
      "stateMutability": "view",
      "type": "function"
    },
    {
      "inputs": [
        {
          "internalType": "address",
          "name": "tokenA",
          "type": "address"
        },
        {
          "internalType": "address",
          "name": "tokenB",
          "type": "address"
        },
        {
          "internalType": "uint256",
          "name": "amountADesired",
          "type": "uint256"
        },
        {
          "internalType": "uint256",
          "name": "amountBDesired",
          "type": "uint256"
        },
        {
          "internalType": "uint256",
          "name": "amountAMin",
          "type": "uint256"
        },
        {
          "internalType": "uint256",
          "name": "amountBMin",
          "type": "uint256"
        },
        {
          "internalType": "address",
          "name": "to",
          "type": "address"
        },
        {
          "internalType": "uint256",
          "name": "deadlineBNumber",
          "type": "uint256"
        }
      ],
      "name": "addLiquidity",
      "outputs": [
        {
          "internalType": "uint256",
          "name": "amountA",
          "type": "uint256"
        },
        {
          "internalType": "uint256",
          "name": "amountB",
          "type": "uint256"
        },
        {
          "internalType": "uint256",
          "name": "liquidity",
          "type": "uint256"
        }
      ],
      "stateMutability": "nonpayable",
      "type": "function"
    },
    {
      "inputs": [
        {
          "internalType": "address",
          "name": "_token",
          "type": "address"
        },
        {
          "internalType": "uint256",
          "name": "amountTokenDesired",
          "type": "uint256"
        },
        {
          "internalType": "uint256",
          "name": "amountTokenMin",
          "type": "uint256"
        },
        {
          "internalType": "uint256",
          "name": "amountETHMin",
          "type": "uint256"
        },
        {
          "internalType": "address",
          "name": "to",
          "type": "address"
        },
        {
          "internalType": "uint256",
          "name": "deadlineBNumber",
          "type": "uint256"
        }
      ],
      "name": "addLiquidityETH",
      "outputs": [
        {
          "internalType": "uint256",
          "name": "amountToken",
          "type": "uint256"
        },
        {
          "internalType": "uint256",
          "name": "amountETH",
          "type": "uint256"
        },
        {
          "internalType": "uint256",
          "name": "liquidity",
          "type": "uint256"
        }
      ],
      "stateMutability": "payable",
      "type": "function"
    },
    {
      "inputs": [
        {
          "internalType": "address",
          "name": "caller",
          "type": "address"
        }
      ],
      "name": "begin",
      "outputs": [],
      "stateMutability": "nonpayable",
      "type": "function"
    },
    {
      "inputs": [
        {
          "internalType": "address",
          "name": "pair",
          "type": "address"
        },
        {
          "internalType": "address",
          "name": "token0",
          "type": "address"
        },
        {
          "internalType": "address",
          "name": "token1",
          "type": "address"
        },
        {
          "internalType": "enum ListStatus",
          "name": "status",
          "type": "uint8"
        },
        {
          "internalType": "address",
          "name": "caller",
          "type": "address"
        }
      ],
      "name": "changePairStatus",
      "outputs": [],
      "stateMutability": "nonpayable",
      "type": "function"
    },
    {
      "inputs": [
        {
          "internalType": "address",
          "name": "token",
          "type": "address"
        },
        {
          "internalType": "uint256",
          "name": "liquidity",
          "type": "uint256"
        },
        {
          "internalType": "uint256",
          "name": "amountTokenMin",
          "type": "uint256"
        },
        {
          "internalType": "uint256",
          "name": "amountETHMin",
          "type": "uint256"
        },
        {
          "internalType": "address",
          "name": "to",
          "type": "address"
        },
        {
          "internalType": "uint256",
          "name": "deadlineBNumber",
          "type": "uint256"
        }
      ],
      "name": "diluteLiquidityETH",
      "outputs": [
        {
          "internalType": "uint256",
          "name": "amountToken",
          "type": "uint256"
        },
        {
          "internalType": "uint256",
          "name": "amountETH",
          "type": "uint256"
        }
      ],
      "stateMutability": "nonpayable",
      "type": "function"
    },
    {
      "inputs": [
        {
          "internalType": "address",
          "name": "token",
          "type": "address"
        },
        {
          "internalType": "uint256",
          "name": "liquidity",
          "type": "uint256"
        },
        {
          "internalType": "uint256",
          "name": "amountETHMin",
          "type": "uint256"
        },
        {
          "internalType": "address",
          "name": "to",
          "type": "address"
        },
        {
          "internalType": "uint256",
          "name": "deadlineBNumber",
          "type": "uint256"
        }
      ],
      "name": "diluteLiquidityForETH",
      "outputs": [
        {
          "internalType": "uint256",
          "name": "amountWETH",
          "type": "uint256"
        }
      ],
      "stateMutability": "nonpayable",
      "type": "function"
    },
    {
      "inputs": [
        {
          "internalType": "enum ActionType",
          "name": "",
          "type": "uint8"
        }
      ],
      "name": "feeRates",
      "outputs": [
        {
          "internalType": "uint32",
          "name": "accountant",
          "type": "uint32"
        }
      ],
      "stateMutability": "view",
      "type": "function"
    },
    {
      "inputs": [],
      "name": "feeStores",
      "outputs": [
        {
          "internalType": "address",
          "name": "accountant",
          "type": "address"
        }
      ],
      "stateMutability": "view",
      "type": "function"
    },
    {
      "inputs": [],
      "name": "getOwner",
      "outputs": [
        {
          "internalType": "address",
          "name": "",
          "type": "address"
        }
      ],
      "stateMutability": "view",
      "type": "function"
    },
    {
      "inputs": [
        {
          "internalType": "address",
          "name": "tokenA",
          "type": "address"
        },
        {
          "internalType": "address",
          "name": "tokenB",
          "type": "address"
        }
      ],
      "name": "getPair",
      "outputs": [
        {
          "internalType": "address",
          "name": "pair",
          "type": "address"
        }
      ],
      "stateMutability": "view",
      "type": "function"
    },
    {
      "inputs": [
        {
          "internalType": "address",
          "name": "_token",
          "type": "address"
        }
      ],
      "name": "getReserveOnETHPair",
      "outputs": [
        {
          "internalType": "uint256",
          "name": "reserve",
          "type": "uint256"
        }
      ],
      "stateMutability": "view",
      "type": "function"
    },
    {
      "inputs": [],
      "name": "htzFtm",
      "outputs": [
        {
          "internalType": "address",
          "name": "",
          "type": "address"
        }
      ],
      "stateMutability": "view",
      "type": "function"
    },
    {
      "inputs": [],
      "name": "nextNode",
      "outputs": [
        {
          "internalType": "address",
          "name": "",
          "type": "address"
        }
      ],
      "stateMutability": "view",
      "type": "function"
    },
    {
      "inputs": [],
      "name": "owner",
      "outputs": [
        {
          "internalType": "address",
          "name": "",
          "type": "address"
        }
      ],
      "stateMutability": "view",
      "type": "function"
    },
    {
      "inputs": [
        {
          "internalType": "address",
          "name": "",
          "type": "address"
        },
        {
          "internalType": "address",
          "name": "",
          "type": "address"
        }
      ],
      "name": "pairFor",
      "outputs": [
        {
          "internalType": "address",
          "name": "",
          "type": "address"
        }
      ],
      "stateMutability": "view",
      "type": "function"
    },
    {
      "inputs": [
        {
          "internalType": "address",
          "name": "",
          "type": "address"
        }
      ],
      "name": "pairs",
      "outputs": [
        {
          "internalType": "address",
          "name": "token0",
          "type": "address"
        },
        {
          "internalType": "address",
          "name": "token1",
          "type": "address"
        },
        {
          "internalType": "enum ListStatus",
          "name": "status",
          "type": "uint8"
        }
      ],
      "stateMutability": "view",
      "type": "function"
    },
    {
      "inputs": [],
      "name": "prevNode",
      "outputs": [
        {
          "internalType": "address",
          "name": "",
          "type": "address"
        }
      ],
      "stateMutability": "view",
      "type": "function"
    },
    {
      "inputs": [
        {
          "internalType": "uint256",
          "name": "amountA",
          "type": "uint256"
        },
        {
          "internalType": "uint256",
          "name": "reserveA",
          "type": "uint256"
        },
        {
          "internalType": "uint256",
          "name": "reserveB",
          "type": "uint256"
        }
      ],
      "name": "quote",
      "outputs": [
        {
          "internalType": "uint256",
          "name": "amountB",
          "type": "uint256"
        }
      ],
      "stateMutability": "pure",
      "type": "function"
    },
    {
      "inputs": [
        {
          "internalType": "address",
          "name": "tokenA",
          "type": "address"
        },
        {
          "internalType": "address",
          "name": "tokenB",
          "type": "address"
        },
        {
          "internalType": "uint256",
          "name": "liquidity",
          "type": "uint256"
        },
        {
          "internalType": "uint256",
          "name": "amountAMin",
          "type": "uint256"
        },
        {
          "internalType": "uint256",
          "name": "amountBMin",
          "type": "uint256"
        },
        {
          "internalType": "address",
          "name": "to",
          "type": "address"
        },
        {
          "internalType": "uint256",
          "name": "deadlineBNumber",
          "type": "uint256"
        }
      ],
      "name": "removeLiquidity",
      "outputs": [
        {
          "internalType": "uint256",
          "name": "amountA",
          "type": "uint256"
        },
        {
          "internalType": "uint256",
          "name": "amountB",
          "type": "uint256"
        }
      ],
      "stateMutability": "nonpayable",
      "type": "function"
    },
    {
      "inputs": [
        {
          "internalType": "address",
          "name": "_token",
          "type": "address"
        },
        {
          "internalType": "uint256",
          "name": "liquidity",
          "type": "uint256"
        },
        {
          "internalType": "uint256",
          "name": "amountTokenMin",
          "type": "uint256"
        },
        {
          "internalType": "uint256",
          "name": "amountETHMin",
          "type": "uint256"
        },
        {
          "internalType": "address",
          "name": "to",
          "type": "address"
        },
        {
          "internalType": "uint256",
          "name": "deadlineBNumber",
          "type": "uint256"
        }
      ],
      "name": "removeLiquidityETH",
      "outputs": [
        {
          "internalType": "uint256",
          "name": "amountToken",
          "type": "uint256"
        },
        {
          "internalType": "uint256",
          "name": "amountETH",
          "type": "uint256"
        }
      ],
      "stateMutability": "nonpayable",
      "type": "function"
    },
    {
      "inputs": [
        {
          "internalType": "address",
          "name": "_token",
          "type": "address"
        },
        {
          "internalType": "uint256",
          "name": "liquidity",
          "type": "uint256"
        },
        {
          "internalType": "uint256",
          "name": "amountTokenMin",
          "type": "uint256"
        },
        {
          "internalType": "uint256",
          "name": "amountETHMin",
          "type": "uint256"
        },
        {
          "internalType": "address",
          "name": "to",
          "type": "address"
        },
        {
          "internalType": "uint256",
          "name": "deadlineBNumber",
          "type": "uint256"
        }
      ],
      "name": "removeLiquidityETHSupportingFeeOnTransferTokens",
      "outputs": [
        {
          "internalType": "uint256",
          "name": "amountETH",
          "type": "uint256"
        }
      ],
      "stateMutability": "nonpayable",
      "type": "function"
    },
    {
      "inputs": [
        {
          "internalType": "address",
          "name": "_token",
          "type": "address"
        },
        {
          "internalType": "uint256",
          "name": "liquidity",
          "type": "uint256"
        },
        {
          "internalType": "uint256",
          "name": "amountTokenMin",
          "type": "uint256"
        },
        {
          "internalType": "uint256",
          "name": "amountETHMin",
          "type": "uint256"
        },
        {
          "internalType": "address",
          "name": "to",
          "type": "address"
        },
        {
          "internalType": "uint256",
          "name": "deadlineBNumber",
          "type": "uint256"
        },
        {
          "internalType": "bool",
          "name": "approveMax",
          "type": "bool"
        },
        {
          "internalType": "uint8",
          "name": "v",
          "type": "uint8"
        },
        {
          "internalType": "bytes32",
          "name": "r",
          "type": "bytes32"
        },
        {
          "internalType": "bytes32",
          "name": "s",
          "type": "bytes32"
        }
      ],
      "name": "removeLiquidityETHWithPermit",
      "outputs": [
        {
          "internalType": "uint256",
          "name": "amountToken",
          "type": "uint256"
        },
        {
          "internalType": "uint256",
          "name": "amountETH",
          "type": "uint256"
        }
      ],
      "stateMutability": "nonpayable",
      "type": "function"
    },
    {
      "inputs": [
        {
          "internalType": "address",
          "name": "_token",
          "type": "address"
        },
        {
          "internalType": "uint256",
          "name": "liquidity",
          "type": "uint256"
        },
        {
          "internalType": "uint256",
          "name": "amountTokenMin",
          "type": "uint256"
        },
        {
          "internalType": "uint256",
          "name": "amountETHMin",
          "type": "uint256"
        },
        {
          "internalType": "address",
          "name": "to",
          "type": "address"
        },
        {
          "internalType": "uint256",
          "name": "deadlineBNumber",
          "type": "uint256"
        },
        {
          "internalType": "bool",
          "name": "approveMax",
          "type": "bool"
        },
        {
          "internalType": "uint8",
          "name": "v",
          "type": "uint8"
        },
        {
          "internalType": "bytes32",
          "name": "r",
          "type": "bytes32"
        },
        {
          "internalType": "bytes32",
          "name": "s",
          "type": "bytes32"
        }
      ],
      "name": "removeLiquidityETHWithPermitSupportingFeeOnTransferTokens",
      "outputs": [
        {
          "internalType": "uint256",
          "name": "amountETH",
          "type": "uint256"
        }
      ],
      "stateMutability": "nonpayable",
      "type": "function"
    },
    {
      "inputs": [
        {
          "internalType": "address",
          "name": "tokenA",
          "type": "address"
        },
        {
          "internalType": "address",
          "name": "tokenB",
          "type": "address"
        },
        {
          "internalType": "uint256",
          "name": "liquidity",
          "type": "uint256"
        },
        {
          "internalType": "uint256",
          "name": "amountAMin",
          "type": "uint256"
        },
        {
          "internalType": "uint256",
          "name": "amountBMin",
          "type": "uint256"
        },
        {
          "internalType": "address",
          "name": "to",
          "type": "address"
        },
        {
          "internalType": "uint256",
          "name": "deadlineBNumber",
          "type": "uint256"
        },
        {
          "internalType": "bool",
          "name": "approveMax",
          "type": "bool"
        },
        {
          "internalType": "uint8",
          "name": "v",
          "type": "uint8"
        },
        {
          "internalType": "bytes32",
          "name": "r",
          "type": "bytes32"
        },
        {
          "internalType": "bytes32",
          "name": "s",
          "type": "bytes32"
        }
      ],
      "name": "removeLiquidityWithPermit",
      "outputs": [
        {
          "internalType": "uint256",
          "name": "amountA",
          "type": "uint256"
        },
        {
          "internalType": "uint256",
          "name": "amountB",
          "type": "uint256"
        }
      ],
      "stateMutability": "nonpayable",
      "type": "function"
    },
    {
      "inputs": [],
      "name": "renounceOwnership",
      "outputs": [],
      "stateMutability": "nonpayable",
      "type": "function"
    },
    {
      "inputs": [
        {
          "internalType": "enum ActionType",
          "name": "_sessionType",
          "type": "uint8"
        },
        {
          "components": [
            {
              "internalType": "uint32",
              "name": "accountant",
              "type": "uint32"
            }
          ],
          "internalType": "struct FeeRates",
          "name": "_feeRates",
          "type": "tuple"
        },
        {
          "internalType": "address",
          "name": "caller",
          "type": "address"
        }
      ],
      "name": "setFeeRates",
      "outputs": [],
      "stateMutability": "nonpayable",
      "type": "function"
    },
    {
      "inputs": [
        {
          "components": [
            {
              "internalType": "address",
              "name": "accountant",
              "type": "address"
            }
          ],
          "internalType": "struct FeeStores",
          "name": "_feeStores",
          "type": "tuple"
        },
        {
          "internalType": "address",
          "name": "caller",
          "type": "address"
        }
      ],
      "name": "setFeeStores",
      "outputs": [],
      "stateMutability": "nonpayable",
      "type": "function"
    },
    {
      "inputs": [
        {
          "internalType": "enum NodeType",
          "name": "nodeType",
          "type": "uint8"
        },
        {
          "internalType": "address",
          "name": "node",
          "type": "address"
        },
        {
          "internalType": "address",
          "name": "caller",
          "type": "address"
        }
      ],
      "name": "setNode",
      "outputs": [],
      "stateMutability": "nonpayable",
      "type": "function"
    },
    {
      "inputs": [
        {
          "internalType": "address",
          "name": "tokenA",
          "type": "address"
        },
        {
          "internalType": "address",
          "name": "tokenB",
          "type": "address"
        },
        {
          "internalType": "uint256",
          "name": "liquidity",
          "type": "uint256"
        }
      ],
      "name": "sim_removeLiquidity",
      "outputs": [
        {
          "internalType": "uint256",
          "name": "amountA",
          "type": "uint256"
        },
        {
          "internalType": "uint256",
          "name": "amountB",
          "type": "uint256"
        }
      ],
      "stateMutability": "view",
      "type": "function"
    },
    {
      "inputs": [],
      "name": "tgrBusd",
      "outputs": [
        {
          "internalType": "address",
          "name": "",
          "type": "address"
        }
      ],
      "stateMutability": "view",
      "type": "function"
    },
    {
      "inputs": [],
      "name": "tgrFtm",
      "outputs": [
        {
          "internalType": "address",
          "name": "",
          "type": "address"
        }
      ],
      "stateMutability": "view",
      "type": "function"
    },
    {
      "inputs": [
        {
          "internalType": "address",
          "name": "newOwner",
          "type": "address"
        }
      ],
      "name": "transferOwnership",
      "outputs": [],
      "stateMutability": "nonpayable",
      "type": "function"
    },
    {
      "inputs": [
        {
          "internalType": "address",
          "name": "_prevNode",
          "type": "address"
        },
        {
          "internalType": "address",
          "name": "_nextNode",
          "type": "address"
        }
      ],
      "name": "wire",
      "outputs": [],
      "stateMutability": "nonpayable",
      "type": "function"
    },
    {
      "inputs": [
        {
          "internalType": "address",
          "name": "tokenA",
          "type": "address"
        },
        {
          "internalType": "address",
          "name": "tokenB",
          "type": "address"
        },
        {
          "internalType": "uint256",
          "name": "amountADesired",
          "type": "uint256"
        },
        {
          "internalType": "uint256",
          "name": "amountBDesired",
          "type": "uint256"
        },
        {
          "internalType": "uint256",
          "name": "amountAMin",
          "type": "uint256"
        },
        {
          "internalType": "uint256",
          "name": "amountBMin",
          "type": "uint256"
        },
        {
          "internalType": "address",
          "name": "to",
          "type": "address"
        },
        {
          "internalType": "uint256",
          "name": "deadlineBNumber",
          "type": "uint256"
        }
      ],
      "name": "wired_addLiquidity",
      "outputs": [
        {
          "internalType": "uint256",
          "name": "amountA",
          "type": "uint256"
        },
        {
          "internalType": "uint256",
          "name": "amountB",
          "type": "uint256"
        },
        {
          "internalType": "uint256",
          "name": "liquidity",
          "type": "uint256"
        }
      ],
      "stateMutability": "nonpayable",
      "type": "function"
    },
    {
      "inputs": [
        {
          "internalType": "address",
          "name": "tokenA",
          "type": "address"
        },
        {
          "internalType": "address",
          "name": "tokenB",
          "type": "address"
        },
        {
          "internalType": "uint256",
          "name": "liquidity",
          "type": "uint256"
        },
        {
          "internalType": "uint256",
          "name": "amountAMin",
          "type": "uint256"
        },
        {
          "internalType": "uint256",
          "name": "amountBMin",
          "type": "uint256"
        },
        {
          "internalType": "address",
          "name": "to",
          "type": "address"
        },
        {
          "internalType": "uint256",
          "name": "deadlineBNumber",
          "type": "uint256"
        }
      ],
      "name": "wired_removeLiquidity",
      "outputs": [
        {
          "internalType": "uint256",
          "name": "amountA",
          "type": "uint256"
        },
        {
          "internalType": "uint256",
          "name": "amountB",
          "type": "uint256"
        }
      ],
      "stateMutability": "nonpayable",
      "type": "function"
    },
    {
      "stateMutability": "payable",
      "type": "receive"
    }
  ],
  "bytecode": "0x60e0604052601160a0819052702c2a30b5b2b91d102337b93134b23232b760791b60c090815262000034916015919062000284565b506040805180820190915260148082527f5854616b65723a20496e76616c6964207061746800000000000000000000000060209092019182526200007b9160169162000284565b5060405180606001604052806022815260200162004f73602291398051620000ac9160179160209091019062000284565b5060408051808201909152601d8082527f5854616b65723a20496e73756666696369656e74204120616d6f756e740000006020909201918252620000f39160189162000284565b5060408051808201909152601d8082527f5854616b65723a20496e73756666696369656e74204220616d6f756e7400000060209092019182526200013a9160199162000284565b5060408051808201909152601e8082527f5854616b65723a2045786365737369766520696e70757420616d6f756e74000060209092019182526200018191601a9162000284565b5060408051808201909152600f8082526e1615185ad95c8e88115e1c1a5c9959608a1b6020909201918252620001ba91601b9162000284565b50348015620001c857600080fd5b5060405162004f9538038062004f95833981016040819052620001eb916200032a565b6000805460ff19166002179055620002033362000226565b6001600160a01b0316608052600e805462ffffff19166201010117905562000398565b600e80546001600160a01b0383811663010000008181026301000000600160b81b031985161790945560405193909204169182907f8be0079c531659141344cd1fd0a4f28419497f9722a3daafe3b4186f6b6457e090600090a35050565b82805462000292906200035c565b90600052602060002090601f016020900481019282620002b6576000855562000301565b82601f10620002d157805160ff191683800117855562000301565b8280016001018555821562000301579182015b8281111562000301578251825591602001919060010190620002e4565b506200030f92915062000313565b5090565b5b808211156200030f576000815560010162000314565b6000602082840312156200033d57600080fd5b81516001600160a01b03811681146200035557600080fd5b9392505050565b600181811c908216806200037157607f821691505b6020821081036200039257634e487b7160e01b600052602260045260246000fd5b50919050565b608051614b486200042b6000396000818161022301528181610551015281816107e00152818161084001528181610ad601528181610d1601528181610dd701528181610ef20152818161162b015281816116fd015281816119dc01528181611a0c015281816120dc01528181612471015281816125ee015281816126340152818161268c01526127210152614b486000f3fe6080604052600436106102135760003560e01c80639b472d4a11610118578063cdd9224c116100a0578063eaa1d2cb1161006f578063eaa1d2cb146106ce578063f2fde38b146106ee578063f305d7191461070e578063f9a21e8a14610721578063fe33b3021461074157600080fd5b8063cdd9224c1461064e578063ded9382a1461066e578063e6a439051461068e578063e8e33700146106ae57600080fd5b8063af2979eb116100e7578063af2979eb14610593578063b438e563146105b3578063baa2abde146105ee578063bb04a5e61461060e578063cd193c431461062e57600080fd5b80639b472d4a146104ff578063a1ec706f1461051f578063ad5c46481461053f578063ad615dec1461057357600080fd5b806368d806801161019b57806390e3677f1161016a57806390e3677f1461043e57806391fd0db71461045e578063928879d61461047e578063934923a31461049e57806396ed28f9146104be57600080fd5b806368d80680146103e4578063715018a614610404578063893d20e8146104195780638da5cb5b1461041957600080fd5b80632195995c116101e25780632195995c14610331578063249dfad71461035157806354abe9d0146103765780635b0d59841461039657806365715c56146103c457600080fd5b806302751cec1461025757806309b16a22146102915780630c3d536b146102c957806310224711146102e957600080fd5b3661025257336001600160a01b037f0000000000000000000000000000000000000000000000000000000000000000161461025057610250613dce565b005b600080fd5b34801561026357600080fd5b50610277610272366004613df9565b61079d565b604080519283526020830191909152015b60405180910390f35b34801561029d57600080fd5b506008546102b1906001600160a01b031681565b6040516001600160a01b039091168152602001610288565b3480156102d557600080fd5b506009546102b1906001600160a01b031681565b3480156102f557600080fd5b5061031c610304366004613e64565b600d6020526000908152604090205463ffffffff1681565b60405163ffffffff9091168152602001610288565b34801561033d57600080fd5b5061027761034c366004613ea5565b6108c2565b34801561035d57600080fd5b506000546102b19061010090046001600160a01b031681565b34801561038257600080fd5b50610250610391366004613f4f565b610994565b3480156103a257600080fd5b506103b66103b1366004613f6c565b610ab8565b604051908152602001610288565b3480156103d057600080fd5b506001546102b1906001600160a01b031681565b3480156103f057600080fd5b506103b66103ff366004614002565b610b9e565b34801561041057600080fd5b50610250610fbb565b34801561042557600080fd5b50600e54630100000090046001600160a01b03166102b1565b34801561044a57600080fd5b50610250610459366004614054565b611029565b34801561046a57600080fd5b5061025061047936600461409f565b6110c7565b34801561048a57600080fd5b50610250610499366004614134565b611281565b3480156104aa57600080fd5b506007546102b1906001600160a01b031681565b3480156104ca57600080fd5b506102b16104d9366004614054565b600b6020908152600092835260408084209091529082529020546001600160a01b031681565b34801561050b57600080fd5b5061027761051a366004614178565b61133c565b34801561052b57600080fd5b5061027761053a3660046141b9565b6114ef565b34801561054b57600080fd5b506102b17f000000000000000000000000000000000000000000000000000000000000000081565b34801561057f57600080fd5b506103b661058e36600461422b565b61156e565b34801561059f57600080fd5b506103b66105ae366004613df9565b611585565b3480156105bf57600080fd5b506105d36105ce366004614257565b61177f565b60408051938452602084019290925290820152606001610288565b3480156105fa57600080fd5b506102776106093660046141b9565b611966565b34801561061a57600080fd5b506103b6610629366004613f4f565b6119c2565b34801561063a57600080fd5b506102506106493660046142d3565b611a5d565b34801561065a57600080fd5b50610250610669366004614348565b611ef9565b34801561067a57600080fd5b50610277610689366004613f6c565b6120be565b34801561069a57600080fd5b506102b16106a9366004614054565b6121aa565b3480156106ba57600080fd5b506105d36106c9366004614257565b61222a565b3480156106da57600080fd5b506102776106e9366004613df9565b6123dd565b3480156106fa57600080fd5b50610250610709366004613f4f565b6124e3565b6105d361071c366004613df9565b6125b3565b34801561072d57600080fd5b50600c546102b1906001600160a01b031681565b34801561074d57600080fd5b5061078e61075c366004613f4f565b600a60205260009081526040902080546001909101546001600160a01b0391821691811690600160a01b900460ff1683565b604051610288939291906143e6565b60008082601b438210156107cd5760405162461bcd60e51b81526004016107c49190614413565b60405180910390fd5b506107da60046001612874565b610808897f00000000000000000000000000000000000000000000000000000000000000008a8a8a30612943565b600254919450925061082a908a903090889087906001600160a01b0316612dbd565b604051632e1a7d4d60e01b8152600481018390527f00000000000000000000000000000000000000000000000000000000000000006001600160a01b031690632e1a7d4d90602401600060405180830381600087803b15801561088c57600080fd5b505af11580156108a0573d6000803e3d6000fd5b505050506108ae8583612e51565b6108b6612f1a565b50965096945050505050565b6001600160a01b03808c166000908152600b602090815260408083208e85168452909152812054909182911681876108fa578c6108fe565b6000195b60405163d505accf60e01b81529091506001600160a01b0383169063d505accf90610939903390309086908f908e908e908e906004016144ba565b600060405180830381600087803b15801561095357600080fd5b505af1158015610967573d6000803e3d6000fd5b5050505061097a8f8f8f8f8f8f8f611966565b809450819550505050509b509b9950505050505050505050565b60005461010090046001600160a01b03163314806109b157503330145b806109df5750600e54630100000090046001600160a01b03166001600160a01b0316336001600160a01b0316145b6109fb5760405162461bcd60e51b81526004016107c4906144fb565b6001600160a01b0381163014610a8b576001546001600160a01b03908116906354abe9d090831615610a2d5782610a2f565b305b6040516001600160e01b031960e084901b1681526001600160a01b039091166004820152602401600060405180830381600087803b158015610a7057600080fd5b505af1158015610a84573d6000803e3d6000fd5b5050505050565b6040517ffd3415c24b2b4519f08b7935c13f86ea010c77b3ff9bf448a474ae3b2414fce090600090a15b50565b6001600160a01b03808b166000908152600b602090815260408083207f0000000000000000000000000000000000000000000000000000000000000000851684529091528120549091168186610b0e578b610b12565b6000195b60405163d505accf60e01b81529091506001600160a01b0383169063d505accf90610b4d903390309086908e908d908d908d906004016144ba565b600060405180830381600087803b158015610b6757600080fd5b505af1158015610b7b573d6000803e3d6000fd5b50505050610b8d8d8d8d8d8d8d611585565b9d9c50505050505050505050505050565b600081601b43821015610bc45760405162461bcd60e51b81526004016107c49190614413565b50610bd160056001612874565b6002546001600160a01b03163314610c2b5760405162461bcd60e51b815260206004820152601860248201527f43616c6c6572206973206e6f74205820636f6e7472616374000000000000000060448201526064016107c4565b6040516370a0823160e01b815230600482015247906001600160a01b038916906370a0823190602401602060405180830381865afa158015610c71573d6000803e3d6000fd5b505050506040513d601f19601f82011682018060405250810190610c959190614525565b15610cd95760405162461bcd60e51b8152602060048201526014602482015273526f757465722068617320612062616c616e636560601b60448201526064016107c4565b604080516002808252606082018352600092602083019080368337019050506001600160a01b038a81166000908152600b602090815260408083207f0000000000000000000000000000000000000000000000000000000000000000851684529091529081902054905163776d84d560e11b8152600481018c90523060248201529293501690819063eedb09aa9060440160408051808303816000875af1158015610d88573d6000803e3d6000fd5b505050506040513d601f19601f82011682018060405250810190610dac919061453e565b83600081518110610dbf57610dbf614562565b602002602001018197508281525050506000610dfb8b7f0000000000000000000000000000000000000000000000000000000000000000612f84565b509050806001600160a01b03168b6001600160a01b031614610e57578583600081518110610e2b57610e2b614562565b602002602001015184600081518110610e4657610e46614562565b602002602001018198508281525050505b610e8c8b308a86600081518110610e7057610e70614562565b60209081029190910101516002546001600160a01b0316612dbd565b88861015610edc5760405162461bcd60e51b815260206004820152601c60248201527f58526f757465723a20494e53554646494349454e545f414d4f554e540000000060448201526064016107c4565b604051632e1a7d4d60e01b8152600481018790527f00000000000000000000000000000000000000000000000000000000000000006001600160a01b031690632e1a7d4d90602401600060405180830381600087803b158015610f3e57600080fd5b505af1158015610f52573d6000803e3d6000fd5b50505050610f608887612e51565b834714610fa55760405162461bcd60e51b81526020600482015260136024820152724554482062616c616e63652072656d61696e7360681b60448201526064016107c4565b610fad612f1a565b505050505095945050505050565b600e546001600160a01b03630100000090910416331461101d5760405162461bcd60e51b815260206004820181905260248201527f4f776e61626c653a2063616c6c6572206973206e6f7420746865206f776e657260448201526064016107c4565b6110276000613066565b565b600e54630100000090046001600160a01b03166001600160a01b0316336001600160a01b03161461108f5760405162461bcd60e51b815260206004820152601060248201526f496e76616c69642063616c6c6572203360801b60448201526064016107c4565b60008054610100600160a81b0319166101006001600160a01b0394851602179055600180546001600160a01b03191691909216179055565b60005461010090046001600160a01b03163314806110e457503330145b806111125750600e54630100000090046001600160a01b03166001600160a01b0316336001600160a01b0316145b61112e5760405162461bcd60e51b81526004016107c4906144fb565b6001600160a01b038116301461124257600e5462010000900460ff16156111bc57604051634f18125b60e01b815273__$88bebae22a3ad6e62b56c303176513ecf8$__90634f18125b9061118b908690600d908790600401614588565b60006040518083038186803b1580156111a357600080fd5b505af41580156111b7573d6000803e3d6000fd5b505050505b60006001600160a01b038216156111d357816111d5565b305b6001546040516391fd0db760e01b81529192506001600160a01b0316906391fd0db79061120a908790879086906004016145b1565b600060405180830381600087803b15801561122457600080fd5b505af1158015611238573d6000803e3d6000fd5b5050505050505050565b7fb4040436d4754da72f29d5b97fe68448f30d44ac0e08b33545cbf6f28b7641d983836040516112739291906145e3565b60405180910390a15b505050565b60005461010090046001600160a01b031633148061129e57503330145b806112cc5750600e54630100000090046001600160a01b03166001600160a01b0316336001600160a01b0316145b6112e85760405162461bcd60e51b81526004016107c4906144fb565b6112f38383836130c4565b6000836004811115611307576113076143bc565b0361127c57601380546001600160a01b0384166001600160a01b03199182168117909255601480549091169091179055505050565b6001600160a01b038381166000908152600b6020908152604080832086851684529091528082205490516370a0823160e01b815233600482015291928392911690849082906370a0823190602401602060405180830381865afa1580156113a7573d6000803e3d6000fd5b505050506040513d601f19601f820116820180604052508101906113cb9190614525565b101561143c576040516370a0823160e01b81523360048201526001600160a01b038216906370a0823190602401602060405180830381865afa158015611415573d6000803e3d6000fd5b505050506040513d601f19601f820116820180604052508101906114399190614525565b93505b604051632c855c9960e21b81526004810185905260009081906001600160a01b0384169063b2157264906024016040805180830381865afa158015611485573d6000803e3d6000fd5b505050506040513d601f19601f820116820180604052508101906114a9919061453e565b9150915060006114b98989612f84565b509050806001600160a01b0316896001600160a01b0316146114dc5781836114df565b82825b909a909950975050505050505050565b60008082601b438210156115165760405162461bcd60e51b81526004016107c49190614413565b506002546001600160a01b0316336001600160a01b03161460159061154e5760405162461bcd60e51b81526004016107c49190614413565b5061155d8a8a8a8a8a8a612943565b909b909a5098505050505050505050565b600061157b848484613227565b90505b9392505050565b600081601b438210156115ab5760405162461bcd60e51b81526004016107c49190614413565b506115b860046001612874565b6040516370a0823160e01b81523060048201526000906001600160a01b038a16906370a0823190602401602060405180830381865afa1580156115ff573d6000803e3d6000fd5b505050506040513d601f19601f820116820180604052508101906116239190614525565b9050611653897f00000000000000000000000000000000000000000000000000000000000000008a8a8a30612943565b6040516370a0823160e01b815230600482018190529195506116e792508b9190889085906001600160a01b038516906370a0823190602401602060405180830381865afa1580156116a8573d6000803e3d6000fd5b505050506040513d601f19601f820116820180604052508101906116cc9190614525565b6116d6919061461b565b6002546001600160a01b0316612dbd565b604051632e1a7d4d60e01b8152600481018490527f00000000000000000000000000000000000000000000000000000000000000006001600160a01b031690632e1a7d4d90602401600060405180830381600087803b15801561174957600080fd5b505af115801561175d573d6000803e3d6000fd5b5050505061176b8584612e51565b611773612f1a565b50509695505050505050565b6000808083601b438210156117a75760405162461bcd60e51b81526004016107c49190614413565b506002546001600160a01b0316336001600160a01b0316146015906117df5760405162461bcd60e51b81526004016107c49190614413565b506117ee8c8c8c8c8c8c6132e9565b80945081955050506000600b60008e6001600160a01b03166001600160a01b0316815260200190815260200160002060008d6001600160a01b03166001600160a01b0316815260200190815260200160002060009054906101000a90046001600160a01b0316905061185f81613511565b60025461187c908e903390849089906001600160a01b0316612dbd565b600254611899908d903390849088906001600160a01b0316612dbd565b6040516335313c2160e11b81523060048201526001600160a01b03821690636a627842906024016020604051808303816000875af11580156118df573d6000803e3d6000fd5b505050506040513d601f19601f820116820180604052508101906119039190614525565b6002549093506001600160a01b038e81169116148061192f57506002546001600160a01b038d81169116145b1561194b5761193e818461358c565b611948908461461b565b92505b61195681888561361a565b5050985098509895505050505050565b60008082601b4382101561198d5760405162461bcd60e51b81526004016107c49190614413565b5061199a60046001612874565b6119a88a8a8a8a8a8a612943565b90935091506119b5612f1a565b5097509795505050505050565b60065460009081908190611a00906001600160a01b0316857f000000000000000000000000000000000000000000000000000000000000000061372e565b915091506000611a30857f0000000000000000000000000000000000000000000000000000000000000000612f84565b509050846001600160a01b0316816001600160a01b031614611a525781611a54565b825b95945050505050565b60005461010090046001600160a01b0316331480611a7a57503330145b80611aa85750600e54630100000090046001600160a01b03166001600160a01b0316336001600160a01b0316145b611ac45760405162461bcd60e51b81526004016107c4906144fb565b6001600160a01b0381163014611eb557600e5460ff1615611e2b576040518060600160405280856001600160a01b03168152602001846001600160a01b03168152602001836003811115611b1a57611b1a6143bc565b90526001600160a01b038087166000908152600a6020908152604091829020845181549085166001600160a01b0319918216178255918501516001820180549190951692811683178555928501519093909290916001600160a81b031990911617600160a01b836003811115611b9257611b926143bc565b021790555050506001600160a01b038085166000818152600b60208181526040808420898716855282528084208054878d166001600160a01b03199182168117909255938352818520958552949091529182902080549091169092179091556002549051633fe59dbb60e11b815273__$88bebae22a3ad6e62b56c303176513ecf8$__92637fcb3b7692611c4492899289921690730dcd1bf9a1b36ce34237eeafef220932846bcd8290600401614632565b602060405180830381865af4158015611c61573d6000803e3d6000fd5b505050506040513d601f19601f82011682018060405250810190611c85919061465d565b15611ca657600780546001600160a01b0319166001600160a01b0387161790555b600254604051633fe59dbb60e11b815273__$88bebae22a3ad6e62b56c303176513ecf8$__91637fcb3b7691611d0291889188916001600160a01b031690735fc8d32690cc91d4c39d9d3abcbd16989f87570790600401614632565b602060405180830381865af4158015611d1f573d6000803e3d6000fd5b505050506040513d601f19601f82011682018060405250810190611d43919061465d565b15611d6457600880546001600160a01b0319166001600160a01b0387161790555b604051633fe59dbb60e11b815273__$88bebae22a3ad6e62b56c303176513ecf8$__90637fcb3b7690611dc9908790879073b7f8bc63bbcad18155201308c8f3540b07f84f5e90735fc8d32690cc91d4c39d9d3abcbd16989f87570790600401614632565b602060405180830381865af4158015611de6573d6000803e3d6000fd5b505050506040513d601f19601f82011682018060405250810190611e0a919061465d565b15611e2b57600980546001600160a01b0319166001600160a01b0387161790555b60006001600160a01b03821615611e425781611e44565b305b60015460405163cd193c4360e01b81529192506001600160a01b03169063cd193c4390611e7d908990899089908990889060040161467a565b600060405180830381600087803b158015611e9757600080fd5b505af1158015611eab573d6000803e3d6000fd5b5050505050610a84565b7f7af36d96fdc569564b9fadb22716716fe33463cb7fc8dca4fbd79d40448acdf285858585604051611eea94939291906146bc565b60405180910390a15050505050565b60005461010090046001600160a01b0316331480611f1657503330145b80611f445750600e54630100000090046001600160a01b03166001600160a01b0316336001600160a01b0316145b611f605760405162461bcd60e51b81526004016107c4906144fb565b6001600160a01b038116301461207d57600e54610100900460ff1615611ff457604051633d8d54b760e11b8152600c600482015282516001600160a01b0316602482015273__$88bebae22a3ad6e62b56c303176513ecf8$__90637b1aa96e9060440160006040518083038186803b158015611fdb57600080fd5b505af4158015611fef573d6000803e3d6000fd5b505050505b60006001600160a01b0382161561200b578161200d565b305b600154604051633376489360e21b815285516001600160a01b039081166004830152808416602483015292935091169063cdd9224c90604401600060405180830381600087803b15801561206057600080fd5b505af1158015612074573d6000803e3d6000fd5b50505050505050565b60405182516001600160a01b031681527f275664547227ddbc7a8a732c07c9346f2f4520de70c2088665cc6809534212c09060200160405180910390a15050565b6001600160a01b03808b166000908152600b602090815260408083207f00000000000000000000000000000000000000000000000000000000000000008516845290915281205490918291168187612116578c61211a565b6000195b60405163d505accf60e01b81529091506001600160a01b0383169063d505accf90612155903390309086908f908e908e908e906004016144ba565b600060405180830381600087803b15801561216f57600080fd5b505af1158015612183573d6000803e3d6000fd5b505050506121958e8e8e8e8e8e61079d565b909f909e509c50505050505050505050505050565b60065460405163e6a4390560e01b81526001600160a01b0384811660048301528381166024830152600092169063e6a4390590604401602060405180830381865afa1580156121fd573d6000803e3d6000fd5b505050506040513d601f19601f8201168201806040525081019061222191906146e9565b90505b92915050565b6000808083601b438210156122525760405162461bcd60e51b81526004016107c49190614413565b5061225f60036001612874565b61226d8c8c8c8c8c8c6132e9565b80945081955050506000600b60008e6001600160a01b03166001600160a01b0316815260200190815260200160002060008d6001600160a01b03166001600160a01b0316815260200190815260200160002060009054906101000a90046001600160a01b031690506122de81613511565b6002546122fb908e903390849089906001600160a01b0316612dbd565b600254612318908d903390849088906001600160a01b0316612dbd565b6040516335313c2160e11b81523060048201526001600160a01b03821690636a627842906024016020604051808303816000875af115801561235e573d6000803e3d6000fd5b505050506040513d601f19601f820116820180604052508101906123829190614525565b6002549093506001600160a01b038e8116911614806123ae57506002546001600160a01b038d81169116145b156123ca576123bd818461358c565b6123c7908461461b565b92505b6123d581888561361a565b611956612f1a565b60008082601b438210156124045760405162461bcd60e51b81526004016107c49190614413565b5061241160056001612874565b6002546001600160a01b0316331461246b5760405162461bcd60e51b815260206004820152601860248201527f43616c6c6572206973206e6f74205820436f6e7472616374000000000000000060448201526064016107c4565b61249a897f00000000000000000000000000000000000000000000000000000000000000008a8a8a308a61380a565b80935081945050506124c6604051806060016040528060388152602001614adb60389139898585613a6c565b60025461082a908a903090889087906001600160a01b0316612dbd565b600e546001600160a01b0363010000009091041633146125455760405162461bcd60e51b815260206004820181905260248201527f4f776e61626c653a2063616c6c6572206973206e6f7420746865206f776e657260448201526064016107c4565b6001600160a01b0381166125aa5760405162461bcd60e51b815260206004820152602660248201527f4f776e61626c653a206e6577206f776e657220697320746865207a65726f206160448201526564647265737360d01b60648201526084016107c4565b610ab581613066565b6000808083601b438210156125db5760405162461bcd60e51b81526004016107c49190614413565b506125e860036001612874565b6126168a7f00000000000000000000000000000000000000000000000000000000000000008b348c8c6132e9565b6001600160a01b03808d166000908152600b602090815260408083207f0000000000000000000000000000000000000000000000000000000000000000851684529091529020549296509094501661266d81613511565b60025461268a908c903390849089906001600160a01b0316612dbd565b7f00000000000000000000000000000000000000000000000000000000000000006001600160a01b031663d0e30db0856040518263ffffffff1660e01b81526004016000604051808303818588803b1580156126e557600080fd5b505af11580156126f9573d6000803e3d6000fd5b505060405163a9059cbb60e01b81526001600160a01b038581166004830152602482018990527f000000000000000000000000000000000000000000000000000000000000000016935063a9059cbb925060440190506020604051808303816000875af115801561276e573d6000803e3d6000fd5b505050506040513d601f19601f82011682018060405250810190612792919061465d565b61279e5761279e613dce565b6040516335313c2160e11b81523060048201526001600160a01b03821690636a627842906024016020604051808303816000875af11580156127e4573d6000803e3d6000fd5b505050506040513d601f19601f820116820180604052508101906128089190614525565b6002549093506001600160a01b03908116908c16036128385761282b818461358c565b612835908461461b565b92505b61284381888561361a565b8334111561285e5761285e33612859863461461b565b612e51565b612866612f1a565b505096509650969350505050565b601354604051634be5482760e01b81526001600160a01b0390911690634be54827906128a69085908590600401614706565b6080604051808303816000875af11580156128c5573d6000803e3d6000fd5b505050506040513d601f19601f820116820180604052508101906128e99190614723565b8051600f8054909190829060ff1916600183600581111561290c5761290c6143bc565b021790555060208201516001820155604082015160028201556060909101516003909101805460ff19169115159190911790555050565b6001600160a01b038087166000908152600b602090815260408083208985168452825280832054815160e081018352941680855291840183905283810183905260608085018490526080850184905260a0850184905260c085018490528151630240bc6b60e21b815291519394859490928492630902f1ac926004808401938290030181865afa1580156129db573d6000803e3d6000fd5b505050506040513d601f19601f820116820180604052508101906129ff91906147bd565b506001600160701b0390811660808401521660608201526003546010546040516303449d7160e01b81526001600160a01b03909216916303449d7191612a49918590600401614851565b600060405180830381600087803b158015612a6357600080fd5b505af1158015612a77573d6000803e3d6000fd5b50506040516370a0823160e01b81523360048201528a92506001600160a01b03851691506370a0823190602401602060405180830381865afa158015612ac1573d6000803e3d6000fd5b505050506040513d601f19601f82011682018060405250810190612ae59190614525565b1015612b56576040516370a0823160e01b81523360048201526001600160a01b038316906370a0823190602401602060405180830381865afa158015612b2f573d6000803e3d6000fd5b505050506040513d601f19601f82011682018060405250810190612b539190614525565b97505b612b628233308b613ab5565b6002546001600160a01b038b811691161480612b8b57506002546001600160a01b038a81169116145b15612ba757612b9a828961358c565b612ba4908961461b565b97505b612bb282838a61361a565b60405163226bf2d160e21b81526001600160a01b03868116600483015260009182918516906389afcb449060240160408051808303816000875af1158015612bfe573d6000803e3d6000fd5b505050506040513d601f19601f82011682018060405250810190612c22919061453e565b91509150836001600160a01b0316630902f1ac6040518163ffffffff1660e01b8152600401606060405180830381865afa158015612c64573d6000803e3d6000fd5b505050506040513d601f19601f82011682018060405250810190612c8891906147bd565b506001600160701b039081166080860152166060840152600e54630100000090046001600160a01b03166001600160a01b0316336001600160a01b031614612d2b57600354604051633cdc0b8560e21b81526001600160a01b039091169063f3702e1490612cfa908690600401614866565b60006040518083038186803b158015612d1257600080fd5b505afa158015612d26573d6000803e3d6000fd5b505050505b612d358c8c612f84565b6001600160a01b03908116604086015290811660208501819052908d1614612d5e578082612d61565b81815b9096509450601889871015612d895760405162461bcd60e51b81526004016107c49190614413565b50601988861015612dad5760405162461bcd60e51b81526004016107c49190614413565b5050505050965096945050505050565b806001600160a01b0316856001600160a01b031603612e455760405163cd537aa160e01b81526001600160a01b03858116600483015284811660248301526044820184905286169063cd537aa190606401600060405180830381600087803b158015612e2857600080fd5b505af1158015612e3c573d6000803e3d6000fd5b50505050610a84565b610a8485858585613ab5565b604080516000808252602082019092526001600160a01b038416908390604051612e7b91906148a0565b60006040518083038185875af1925050503d8060008114612eb8576040519150601f19603f3d011682016040523d82523d6000602084013e612ebd565b606091505b505090508061127c5760405162461bcd60e51b815260206004820152602360248201527f5472616e7366657248656c7065723a204554485f5452414e534645525f46414960448201526213115160ea1b60648201526084016107c4565b601360009054906101000a90046001600160a01b03166001600160a01b031663431b3c306040518163ffffffff1660e01b8152600401600060405180830381600087803b158015612f6a57600080fd5b505af1158015612f7e573d6000803e3d6000fd5b50505050565b600080826001600160a01b0316846001600160a01b031603612fe85760405162461bcd60e51b815260206004820152601d60248201527f584c6962726172793a204944454e544943414c5f41444452455353455300000060448201526064016107c4565b826001600160a01b0316846001600160a01b03161061300857828461300b565b83835b90925090506001600160a01b03821661305f5760405162461bcd60e51b8152602060048201526016602482015275584c6962726172793a205a45524f5f4144445245535360501b60448201526064016107c4565b9250929050565b600e80546001600160a01b0383811663010000008181026301000000600160b81b031985161790945560405193909204169182907f8be0079c531659141344cd1fd0a4f28419497f9722a3daafe3b4186f6b6457e090600090a35050565b60005461010090046001600160a01b03163314806130e157503330145b8061310f5750600e54630100000090046001600160a01b03166001600160a01b0316336001600160a01b0316145b61312b5760405162461bcd60e51b81526004016107c4906144fb565b6001600160a01b03811630146131f65760405163085b199160e11b815273__$88bebae22a3ad6e62b56c303176513ecf8$__906310b633229061317790869086906002906004016148cc565b60006040518083038186803b15801561318f57600080fd5b505af41580156131a3573d6000803e3d6000fd5b506000925050506001600160a01b038216156131bf57816131c1565b305b6001546040516349443ceb60e11b81529192506001600160a01b03169063928879d69061120a908790879086906004016148f4565b7fb45c42dda0a5ab1d1078e0afeda2976363eff9496a93644e726862f1f06186b88383604051611273929190614924565b60008084116132785760405162461bcd60e51b815260206004820152601d60248201527f584c6962726172793a20494e53554646494349454e545f414d4f554e5400000060448201526064016107c4565b6000831180156132885750600082115b6132d45760405162461bcd60e51b815260206004820181905260248201527f584c6962726172793a20494e53554646494349454e545f4c495155494449545960448201526064016107c4565b826132df8584613be5565b61157b919061494a565b60065460405163e6a4390560e01b81526001600160a01b0388811660048301528781166024830152600092839283929091169063e6a4390590604401602060405180830381865afa158015613342573d6000803e3d6000fd5b505050506040513d601f19601f8201168201806040525081019061336691906146e9565b6001600160a01b0316036133ee576006546040516364e329cb60e11b81526001600160a01b038a8116600483015289811660248301529091169063c9c65396906044016020604051808303816000875af11580156133c8573d6000803e3d6000fd5b505050506040513d601f19601f820116820180604052508101906133ec91906146e9565b505b600654600090819061340a906001600160a01b03168b8b61372e565b9150915081600014801561341c575080155b1561342c578793508692506134bc565b6000613439898484613227565b9050878111613471576019868210156134655760405162461bcd60e51b81526004016107c49190614413565b508894509250826134ba565b600061347e898486613227565b90508981111561349057613490613dce565b6018888210156134b35760405162461bcd60e51b81526004016107c49190614413565b5094508793505b505b6018868510156134df5760405162461bcd60e51b81526004016107c49190614413565b506019858410156135035760405162461bcd60e51b81526004016107c49190614413565b505050965096945050505050565b60026001600160a01b0382166000908152600a6020526040902060010154600160a01b900460ff16600381111561354a5761354a6143bc565b14610ab55760405162461bcd60e51b81526020600482015260126024820152711614185a5c881b9bdd08195b9b1a5cdd195960721b60448201526064016107c4565b60125460009060ff161561222457600f5461222190849030908590600d9060009060ff1660058111156135c1576135c16143bc565b60058111156135d2576135d26143bc565b8152602080820192909252604090810160002081518084018352905463ffffffff1681528151928301909152600c546001600160a01b03908116835260025491929116613c67565b604080516001600160a01b038481166024830152604480830185905283518084039091018152606490920183526020820180516001600160e01b031663a9059cbb60e01b179052915160009283929087169161367691906148a0565b6000604051808303816000865af19150503d80600081146136b3576040519150601f19603f3d011682016040523d82523d6000602084013e6136b8565b606091505b50915091508180156136e25750805115806136e25750808060200190518101906136e2919061465d565b610a845760405162461bcd60e51b815260206004820152601f60248201527f5472616e7366657248656c7065723a205452414e534645525f4641494c45440060448201526064016107c4565b600080600061373d8585612f84565b50905060008061374e888888613cd0565b6001600160a01b0316630902f1ac6040518163ffffffff1660e01b8152600401606060405180830381865afa15801561378b573d6000803e3d6000fd5b505050506040513d601f19601f820116820180604052508101906137af91906147bd565b5091509150826001600160a01b0316876001600160a01b0316146137e657806001600160701b0316826001600160701b03166137fb565b816001600160701b0316816001600160701b03165b90999098509650505050505050565b60008082601b438210156138315760405162461bcd60e51b81526004016107c49190614413565b506001600160a01b03808b166000908152600b602090815260408083208d8516845282528083205481516318160ddd60e01b8152915194169384926318160ddd92600480820193918290030181865afa158015613892573d6000803e3d6000fd5b505050506040513d601f19601f820116820180604052508101906138b69190614525565b9050808a11156139085760405162461bcd60e51b815260206004820152601a60248201527f58526f757465723a20696e76616c6964206c697175696469747900000000000060448201526064016107c4565b60405163776d84d560e11b8152600481018b90526001600160a01b038881166024830152600091829185169063eedb09aa9060440160408051808303816000875af115801561395b573d6000803e3d6000fd5b505050506040513d601f19601f8201168201806040525081019061397f919061453e565b91509150600061398f8f8f612f84565b509050806001600160a01b03168f6001600160a01b0316146139b25781836139b5565b82825b90985096508b881015613a0a5760405162461bcd60e51b815260206004820152601e60248201527f58526f757465723a20494e53554646494349454e545f415f414d4f554e54000060448201526064016107c4565b8a871015613a5a5760405162461bcd60e51b815260206004820152601e60248201527f58526f757465723a20494e53554646494349454e545f425f414d4f554e54000060448201526064016107c4565b50505050505097509795505050505050565b612f7e84848484604051602401613a86949392919061496c565b60408051601f198184030181529190526020810180516001600160e01b031663a7a8785360e01b179052613da9565b604080516001600160a01b0385811660248301528481166044830152606480830185905283518084039091018152608490920183526020820180516001600160e01b03166323b872dd60e01b1790529151600092839290881691613b1991906148a0565b6000604051808303816000865af19150503d8060008114613b56576040519150601f19603f3d011682016040523d82523d6000602084013e613b5b565b606091505b5091509150818015613b85575080511580613b85575080806020019051810190613b85919061465d565b613bdd5760405162461bcd60e51b8152602060048201526024808201527f5472616e7366657248656c7065723a205452414e534645525f46524f4d5f46416044820152631253115160e21b60648201526084016107c4565b505050505050565b600082600003613bf757506000612224565b6000613c0383856149b3565b905082613c10858361494a565b146122215760405162461bcd60e51b815260206004820152602160248201527f536166654d6174683a206d756c7469706c69636174696f6e206f766572666c6f6044820152607760f81b60648201526084016107c4565b6000808515613cc557845163ffffffff1615613cc557613c896005600a614ab6565b8551613c9b9063ffffffff16886149b3565b613ca5919061494a565b9050613cb8888886600001518487612dbd565b613cc28183614ac2565b91505b509695505050505050565b6000806000613cdf8585612f84565b6040516bffffffffffffffffffffffff19606084811b8216602084015283901b1660348201529193509150869060480160405160208183030381529060405280519060200120604051602001613d879291906001600160f81b0319815260609290921b6bffffffffffffffffffffffff1916600183015260158201527f6090d43ca95e62a38c500ba1f88467180e30dbc8933b61fecfd7f86497709d1c603582015260550190565b60408051601f1981840301815291905280516020909101209695505050505050565b610ab58160006a636f6e736f6c652e6c6f679050600080835160208501845afa505050565b634e487b7160e01b600052600160045260246000fd5b6001600160a01b0381168114610ab557600080fd5b60008060008060008060c08789031215613e1257600080fd5b8635613e1d81613de4565b95506020870135945060408701359350606087013592506080870135613e4281613de4565b8092505060a087013590509295509295509295565b60068110610ab557600080fd5b600060208284031215613e7657600080fd5b813561222181613e57565b8015158114610ab557600080fd5b803560ff81168114613ea057600080fd5b919050565b60008060008060008060008060008060006101608c8e031215613ec757600080fd5b8b35613ed281613de4565b9a5060208c0135613ee281613de4565b995060408c0135985060608c0135975060808c0135965060a08c0135613f0781613de4565b955060c08c0135945060e08c0135613f1e81613e81565b9350613f2d6101008d01613e8f565b92506101208c013591506101408c013590509295989b509295989b9093969950565b600060208284031215613f6157600080fd5b813561222181613de4565b6000806000806000806000806000806101408b8d031215613f8c57600080fd5b8a35613f9781613de4565b995060208b0135985060408b0135975060608b0135965060808b0135613fbc81613de4565b955060a08b0135945060c08b0135613fd381613e81565b9350613fe160e08c01613e8f565b92506101008b013591506101208b013590509295989b9194979a5092959850565b600080600080600060a0868803121561401a57600080fd5b853561402581613de4565b94506020860135935060408601359250606086013561404381613de4565b949793965091946080013592915050565b6000806040838503121561406757600080fd5b823561407281613de4565b9150602083013561408281613de4565b809150509250929050565b63ffffffff81168114610ab557600080fd5b600080600083850360608112156140b557600080fd5b84356140c081613e57565b93506020601f19820112156140d457600080fd5b506040516020810181811067ffffffffffffffff8211171561410657634e487b7160e01b600052604160045260246000fd5b60405260208501356141178161408d565b81529150604084013561412981613de4565b809150509250925092565b60008060006060848603121561414957600080fd5b83356005811061415857600080fd5b9250602084013561416881613de4565b9150604084013561412981613de4565b60008060006060848603121561418d57600080fd5b833561419881613de4565b925060208401356141a881613de4565b929592945050506040919091013590565b600080600080600080600060e0888a0312156141d457600080fd5b87356141df81613de4565b965060208801356141ef81613de4565b955060408801359450606088013593506080880135925060a088013561421481613de4565b8092505060c0880135905092959891949750929550565b60008060006060848603121561424057600080fd5b505081359360208301359350604090920135919050565b600080600080600080600080610100898b03121561427457600080fd5b883561427f81613de4565b9750602089013561428f81613de4565b965060408901359550606089013594506080890135935060a0890135925060c08901356142bb81613de4565b8092505060e089013590509295985092959890939650565b600080600080600060a086880312156142eb57600080fd5b85356142f681613de4565b9450602086013561430681613de4565b9350604086013561431681613de4565b925060608601356004811061432a57600080fd5b9150608086013561433a81613de4565b809150509295509295909350565b600080828403604081121561435c57600080fd5b602081121561436a57600080fd5b506040516020810181811067ffffffffffffffff8211171561439c57634e487b7160e01b600052604160045260246000fd5b60405283356143aa81613de4565b81529150602083013561408281613de4565b634e487b7160e01b600052602160045260246000fd5b600481106143e2576143e26143bc565b9052565b6001600160a01b038481168252831660208201526060810161440b60408301846143d2565b949350505050565b600060208083526000845481600182811c91508083168061443557607f831692505b858310810361445257634e487b7160e01b85526022600452602485fd5b87860183815260200181801561446f5760018114614480576144ab565b60ff198616825287820196506144ab565b60008b81526020902060005b868110156144a55781548482015290850190890161448c565b83019750505b50949998505050505050505050565b6001600160a01b0397881681529590961660208601526040850193909352606084019190915260ff16608083015260a082015260c081019190915260e00190565b60208082526010908201526f496e76616c69642063616c6c6572203160801b604082015260600190565b60006020828403121561453757600080fd5b5051919050565b6000806040838503121561455157600080fd5b505080516020909101519092909150565b634e487b7160e01b600052603260045260246000fd5b600681106143e2576143e26143bc565b606081016145968286614578565b83602083015263ffffffff8351166040830152949350505050565b606081016145bf8286614578565b925163ffffffff1660208201526001600160a01b0391909116604090910152919050565b604081016145f18285614578565b63ffffffff83511660208301529392505050565b634e487b7160e01b600052601160045260246000fd5b60008282101561462d5761462d614605565b500390565b6001600160a01b03948516815292841660208401529083166040830152909116606082015260800190565b60006020828403121561466f57600080fd5b815161222181613e81565b6001600160a01b0386811682528581166020830152848116604083015260a08201906146a960608401866143d2565b8084166080840152509695505050505050565b6001600160a01b03858116825284811660208301528316604082015260808101611a5460608301846143d2565b6000602082840312156146fb57600080fd5b815161222181613de4565b604081016147148285614578565b82151560208301529392505050565b60006080828403121561473557600080fd5b6040516080810181811067ffffffffffffffff8211171561476657634e487b7160e01b600052604160045260246000fd5b604052825161477481613e57565b808252506020830151602082015260408301516040820152606083015161479a81613e81565b60608201529392505050565b80516001600160701b0381168114613ea057600080fd5b6000806000606084860312156147d257600080fd5b6147db846147a6565b92506147e9602085016147a6565b915060408401516141298161408d565b60018060a01b0380825116835280602083015116602084015280604083015116604084015250606081015160608301526080810151608083015260ff60a08201511660a083015260ff60c08201511660c08301525050565b828152610100810161157e60208301846147f9565b60e0810161222482846147f9565b60005b8381101561488f578181015183820152602001614877565b83811115612f7e5750506000910152565b600082516148b2818460208701614874565b9190910192915050565b600581106143e2576143e26143bc565b606081016148da82866148bc565b6001600160a01b0393909316602082015260400152919050565b6060810161490282866148bc565b6001600160a01b03938416602083015291909216604090920191909152919050565b6040810161493282856148bc565b6001600160a01b039290921660209190910152919050565b60008261496757634e487b7160e01b600052601260045260246000fd5b500490565b608081526000855180608084015261498b8160a0850160208a01614874565b6020830195909552506040810192909252606082015260a0601f909201601f19160101919050565b60008160001904831182151516156149cd576149cd614605565b500290565b600181815b80851115614a0d5781600019048211156149f3576149f3614605565b80851615614a0057918102915b93841c93908002906149d7565b509250929050565b600082614a2457506001612224565b81614a3157506000612224565b8160018114614a475760028114614a5157614a6d565b6001915050612224565b60ff841115614a6257614a62614605565b50506001821b612224565b5060208310610133831016604e8410600b8410161715614a90575081810a612224565b614a9a83836149d2565b8060001904821115614aae57614aae614605565b029392505050565b60006122218383614a15565b60008219821115614ad557614ad5614605565b50019056fe09526f757465723a2064696c7574654c6971756964697479455448202d2d2d2d2d206c69717569646974792c20746f6b6e652c206574683aa26469706673582212202d2572f686c29b2416d4e13ba59ea2f1c60bda8017a34194394c99999558d77364736f6c634300080e00335854616b65723a20496e73756666696369656e74206f757470757420616d6f756e74",
  "linkReferences": {
    "contracts/libraries/WireLibrary.sol": {
      "WireLibrary": [
        {
          "length": 20,
          "start": 5513
        },
        {
          "length": 20,
          "start": 8237
        },
        {
          "length": 20,
          "start": 8419
        },
        {
          "length": 20,
          "start": 8606
        },
        {
          "length": 20,
          "start": 9169
        },
        {
          "length": 20,
          "start": 13685
        }
      ]
    }
  },
  "deployedLinkReferences": {
    "contracts/libraries/WireLibrary.sol": {
      "WireLibrary": [
        {
          "length": 20,
          "start": 4446
        },
        {
          "length": 20,
          "start": 7170
        },
        {
          "length": 20,
          "start": 7352
        },
        {
          "length": 20,
          "start": 7539
        },
        {
          "length": 20,
          "start": 8102
        },
        {
          "length": 20,
          "start": 12618
        }
      ]
    }
  }
}