{
  "_format": "hh-sol-artifact-1",
  "contractName": "XMaker",
  "sourceName": "contracts/periphery/XMaker.sol",
  "abi": [
    {
      "inputs": [
        {
          "internalType": "address",
          "name": "_WETH",
          "type": "address"
        }
      ],
      "stateMutability": "nonpayable",
      "type": "constructor"
    },
    {
      "anonymous": false,
      "inputs": [],
      "name": "Begin",
      "type": "event"
    },
    {
      "anonymous": false,
      "inputs": [
        {
          "indexed": false,
          "internalType": "address",
          "name": "pair",
          "type": "address"
        },
        {
          "indexed": false,
          "internalType": "address",
          "name": "tokenA",
          "type": "address"
        },
        {
          "indexed": false,
          "internalType": "address",
          "name": "tokenB",
          "type": "address"
        },
        {
          "indexed": false,
          "internalType": "enum ListStatus",
          "name": "status",
          "type": "uint8"
        }
      ],
      "name": "ChangePairStatus",
      "type": "event"
    },
    {
      "anonymous": false,
      "inputs": [
        {
          "indexed": false,
          "internalType": "address",
          "name": "token",
          "type": "address"
        },
        {
          "indexed": false,
          "internalType": "address",
          "name": "msgSender",
          "type": "address"
        }
      ],
      "name": "DeenlistToken",
      "type": "event"
    },
    {
      "anonymous": false,
      "inputs": [
        {
          "indexed": true,
          "internalType": "address",
          "name": "previousOwner",
          "type": "address"
        },
        {
          "indexed": true,
          "internalType": "address",
          "name": "newOwner",
          "type": "address"
        }
      ],
      "name": "OwnershipTransferred",
      "type": "event"
    },
    {
      "anonymous": false,
      "inputs": [
        {
          "indexed": false,
          "internalType": "enum ActionType",
          "name": "_sessionType",
          "type": "uint8"
        },
        {
          "components": [
            {
              "internalType": "uint32",
              "name": "accountant",
              "type": "uint32"
            }
          ],
          "indexed": false,
          "internalType": "struct FeeRates",
          "name": "_feeRates",
          "type": "tuple"
        }
      ],
      "name": "SetFeeRates",
      "type": "event"
    },
    {
      "anonymous": false,
      "inputs": [
        {
          "components": [
            {
              "internalType": "address",
              "name": "accountant",
              "type": "address"
            }
          ],
          "indexed": false,
          "internalType": "struct FeeStores",
          "name": "_feeStores",
          "type": "tuple"
        }
      ],
      "name": "SetFeeStores",
      "type": "event"
    },
    {
      "anonymous": false,
      "inputs": [
        {
          "indexed": false,
          "internalType": "enum NodeType",
          "name": "nodeType",
          "type": "uint8"
        },
        {
          "indexed": false,
          "internalType": "address",
          "name": "node",
          "type": "address"
        }
      ],
      "name": "SetNode",
      "type": "event"
    },
    {
      "inputs": [],
      "name": "WETH",
      "outputs": [
        {
          "internalType": "address",
          "name": "",
          "type": "address"
        }
      ],
      "stateMutability": "view",
      "type": "function"
    },
    {
      "inputs": [
        {
          "internalType": "address",
          "name": "tokenA",
          "type": "address"
        },
        {
          "internalType": "address",
          "name": "tokenB",
          "type": "address"
        },
        {
          "internalType": "uint256",
          "name": "amountADesired",
          "type": "uint256"
        },
        {
          "internalType": "uint256",
          "name": "amountBDesired",
          "type": "uint256"
        },
        {
          "internalType": "uint256",
          "name": "amountAMin",
          "type": "uint256"
        },
        {
          "internalType": "uint256",
          "name": "amountBMin",
          "type": "uint256"
        },
        {
          "internalType": "address",
          "name": "to",
          "type": "address"
        },
        {
          "internalType": "uint256",
          "name": "deadline",
          "type": "uint256"
        }
      ],
      "name": "addLiquidity",
      "outputs": [
        {
          "internalType": "uint256",
          "name": "amountA",
          "type": "uint256"
        },
        {
          "internalType": "uint256",
          "name": "amountB",
          "type": "uint256"
        },
        {
          "internalType": "uint256",
          "name": "liquidity",
          "type": "uint256"
        }
      ],
      "stateMutability": "nonpayable",
      "type": "function"
    },
    {
      "inputs": [
        {
          "internalType": "address",
          "name": "_token",
          "type": "address"
        },
        {
          "internalType": "uint256",
          "name": "amountTokenDesired",
          "type": "uint256"
        },
        {
          "internalType": "uint256",
          "name": "amountTokenMin",
          "type": "uint256"
        },
        {
          "internalType": "uint256",
          "name": "amountETHMin",
          "type": "uint256"
        },
        {
          "internalType": "address",
          "name": "to",
          "type": "address"
        },
        {
          "internalType": "uint256",
          "name": "deadline",
          "type": "uint256"
        }
      ],
      "name": "addLiquidityETH",
      "outputs": [
        {
          "internalType": "uint256",
          "name": "amountToken",
          "type": "uint256"
        },
        {
          "internalType": "uint256",
          "name": "amountETH",
          "type": "uint256"
        },
        {
          "internalType": "uint256",
          "name": "liquidity",
          "type": "uint256"
        }
      ],
      "stateMutability": "payable",
      "type": "function"
    },
    {
      "inputs": [
        {
          "internalType": "address",
          "name": "caller",
          "type": "address"
        }
      ],
      "name": "begin",
      "outputs": [],
      "stateMutability": "nonpayable",
      "type": "function"
    },
    {
      "inputs": [
        {
          "internalType": "address",
          "name": "pair",
          "type": "address"
        },
        {
          "internalType": "address",
          "name": "token0",
          "type": "address"
        },
        {
          "internalType": "address",
          "name": "token1",
          "type": "address"
        },
        {
          "internalType": "enum ListStatus",
          "name": "status",
          "type": "uint8"
        },
        {
          "internalType": "address",
          "name": "caller",
          "type": "address"
        }
      ],
      "name": "changePairStatus",
      "outputs": [],
      "stateMutability": "nonpayable",
      "type": "function"
    },
    {
      "inputs": [
        {
          "internalType": "address",
          "name": "token",
          "type": "address"
        },
        {
          "internalType": "uint256",
          "name": "liquidity",
          "type": "uint256"
        },
        {
          "internalType": "uint256",
          "name": "amountTokenMin",
          "type": "uint256"
        },
        {
          "internalType": "uint256",
          "name": "amountETHMin",
          "type": "uint256"
        },
        {
          "internalType": "address",
          "name": "to",
          "type": "address"
        },
        {
          "internalType": "uint256",
          "name": "deadline",
          "type": "uint256"
        }
      ],
      "name": "diluteLiquidityETH",
      "outputs": [
        {
          "internalType": "uint256",
          "name": "amountToken",
          "type": "uint256"
        },
        {
          "internalType": "uint256",
          "name": "amountETH",
          "type": "uint256"
        }
      ],
      "stateMutability": "nonpayable",
      "type": "function"
    },
    {
      "inputs": [
        {
          "internalType": "address",
          "name": "token",
          "type": "address"
        },
        {
          "internalType": "uint256",
          "name": "liquidity",
          "type": "uint256"
        },
        {
          "internalType": "uint256",
          "name": "amountETHMin",
          "type": "uint256"
        },
        {
          "internalType": "address",
          "name": "to",
          "type": "address"
        },
        {
          "internalType": "uint256",
          "name": "deadline",
          "type": "uint256"
        }
      ],
      "name": "diluteLiquidityForETH",
      "outputs": [
        {
          "internalType": "uint256",
          "name": "amountWETH",
          "type": "uint256"
        }
      ],
      "stateMutability": "nonpayable",
      "type": "function"
    },
    {
      "inputs": [
        {
          "internalType": "enum ActionType",
          "name": "",
          "type": "uint8"
        }
      ],
      "name": "feeRates",
      "outputs": [
        {
          "internalType": "uint32",
          "name": "accountant",
          "type": "uint32"
        }
      ],
      "stateMutability": "view",
      "type": "function"
    },
    {
      "inputs": [],
      "name": "feeStores",
      "outputs": [
        {
          "internalType": "address",
          "name": "accountant",
          "type": "address"
        }
      ],
      "stateMutability": "view",
      "type": "function"
    },
    {
      "inputs": [],
      "name": "getOwner",
      "outputs": [
        {
          "internalType": "address",
          "name": "",
          "type": "address"
        }
      ],
      "stateMutability": "view",
      "type": "function"
    },
    {
      "inputs": [
        {
          "internalType": "address",
          "name": "tokenA",
          "type": "address"
        },
        {
          "internalType": "address",
          "name": "tokenB",
          "type": "address"
        }
      ],
      "name": "getPair",
      "outputs": [
        {
          "internalType": "address",
          "name": "pair",
          "type": "address"
        }
      ],
      "stateMutability": "view",
      "type": "function"
    },
    {
      "inputs": [
        {
          "internalType": "address",
          "name": "_token",
          "type": "address"
        }
      ],
      "name": "getReserveOnETHPair",
      "outputs": [
        {
          "internalType": "uint256",
          "name": "reserve",
          "type": "uint256"
        }
      ],
      "stateMutability": "view",
      "type": "function"
    },
    {
      "inputs": [],
      "name": "htzFtm",
      "outputs": [
        {
          "internalType": "address",
          "name": "",
          "type": "address"
        }
      ],
      "stateMutability": "view",
      "type": "function"
    },
    {
      "inputs": [],
      "name": "nextNode",
      "outputs": [
        {
          "internalType": "address",
          "name": "",
          "type": "address"
        }
      ],
      "stateMutability": "view",
      "type": "function"
    },
    {
      "inputs": [],
      "name": "owner",
      "outputs": [
        {
          "internalType": "address",
          "name": "",
          "type": "address"
        }
      ],
      "stateMutability": "view",
      "type": "function"
    },
    {
      "inputs": [
        {
          "internalType": "address",
          "name": "",
          "type": "address"
        },
        {
          "internalType": "address",
          "name": "",
          "type": "address"
        }
      ],
      "name": "pairFor",
      "outputs": [
        {
          "internalType": "address",
          "name": "",
          "type": "address"
        }
      ],
      "stateMutability": "view",
      "type": "function"
    },
    {
      "inputs": [
        {
          "internalType": "address",
          "name": "",
          "type": "address"
        }
      ],
      "name": "pairs",
      "outputs": [
        {
          "internalType": "address",
          "name": "token0",
          "type": "address"
        },
        {
          "internalType": "address",
          "name": "token1",
          "type": "address"
        },
        {
          "internalType": "enum ListStatus",
          "name": "status",
          "type": "uint8"
        }
      ],
      "stateMutability": "view",
      "type": "function"
    },
    {
      "inputs": [],
      "name": "prevNode",
      "outputs": [
        {
          "internalType": "address",
          "name": "",
          "type": "address"
        }
      ],
      "stateMutability": "view",
      "type": "function"
    },
    {
      "inputs": [
        {
          "internalType": "uint256",
          "name": "amountA",
          "type": "uint256"
        },
        {
          "internalType": "uint256",
          "name": "reserveA",
          "type": "uint256"
        },
        {
          "internalType": "uint256",
          "name": "reserveB",
          "type": "uint256"
        }
      ],
      "name": "quote",
      "outputs": [
        {
          "internalType": "uint256",
          "name": "amountB",
          "type": "uint256"
        }
      ],
      "stateMutability": "pure",
      "type": "function"
    },
    {
      "inputs": [
        {
          "internalType": "address",
          "name": "tokenA",
          "type": "address"
        },
        {
          "internalType": "address",
          "name": "tokenB",
          "type": "address"
        },
        {
          "internalType": "uint256",
          "name": "liquidity",
          "type": "uint256"
        },
        {
          "internalType": "uint256",
          "name": "amountAMin",
          "type": "uint256"
        },
        {
          "internalType": "uint256",
          "name": "amountBMin",
          "type": "uint256"
        },
        {
          "internalType": "address",
          "name": "to",
          "type": "address"
        },
        {
          "internalType": "uint256",
          "name": "deadline",
          "type": "uint256"
        }
      ],
      "name": "removeLiquidity",
      "outputs": [
        {
          "internalType": "uint256",
          "name": "amountA",
          "type": "uint256"
        },
        {
          "internalType": "uint256",
          "name": "amountB",
          "type": "uint256"
        }
      ],
      "stateMutability": "nonpayable",
      "type": "function"
    },
    {
      "inputs": [
        {
          "internalType": "address",
          "name": "_token",
          "type": "address"
        },
        {
          "internalType": "uint256",
          "name": "liquidity",
          "type": "uint256"
        },
        {
          "internalType": "uint256",
          "name": "amountTokenMin",
          "type": "uint256"
        },
        {
          "internalType": "uint256",
          "name": "amountETHMin",
          "type": "uint256"
        },
        {
          "internalType": "address",
          "name": "to",
          "type": "address"
        },
        {
          "internalType": "uint256",
          "name": "deadline",
          "type": "uint256"
        }
      ],
      "name": "removeLiquidityETH",
      "outputs": [
        {
          "internalType": "uint256",
          "name": "amountToken",
          "type": "uint256"
        },
        {
          "internalType": "uint256",
          "name": "amountETH",
          "type": "uint256"
        }
      ],
      "stateMutability": "nonpayable",
      "type": "function"
    },
    {
      "inputs": [
        {
          "internalType": "address",
          "name": "_token",
          "type": "address"
        },
        {
          "internalType": "uint256",
          "name": "liquidity",
          "type": "uint256"
        },
        {
          "internalType": "uint256",
          "name": "amountTokenMin",
          "type": "uint256"
        },
        {
          "internalType": "uint256",
          "name": "amountETHMin",
          "type": "uint256"
        },
        {
          "internalType": "address",
          "name": "to",
          "type": "address"
        },
        {
          "internalType": "uint256",
          "name": "deadline",
          "type": "uint256"
        }
      ],
      "name": "removeLiquidityETHSupportingFeeOnTransferTokens",
      "outputs": [
        {
          "internalType": "uint256",
          "name": "amountETH",
          "type": "uint256"
        }
      ],
      "stateMutability": "nonpayable",
      "type": "function"
    },
    {
      "inputs": [
        {
          "internalType": "address",
          "name": "_token",
          "type": "address"
        },
        {
          "internalType": "uint256",
          "name": "liquidity",
          "type": "uint256"
        },
        {
          "internalType": "uint256",
          "name": "amountTokenMin",
          "type": "uint256"
        },
        {
          "internalType": "uint256",
          "name": "amountETHMin",
          "type": "uint256"
        },
        {
          "internalType": "address",
          "name": "to",
          "type": "address"
        },
        {
          "internalType": "uint256",
          "name": "deadline",
          "type": "uint256"
        },
        {
          "internalType": "bool",
          "name": "approveMax",
          "type": "bool"
        },
        {
          "internalType": "uint8",
          "name": "v",
          "type": "uint8"
        },
        {
          "internalType": "bytes32",
          "name": "r",
          "type": "bytes32"
        },
        {
          "internalType": "bytes32",
          "name": "s",
          "type": "bytes32"
        }
      ],
      "name": "removeLiquidityETHWithPermit",
      "outputs": [
        {
          "internalType": "uint256",
          "name": "amountToken",
          "type": "uint256"
        },
        {
          "internalType": "uint256",
          "name": "amountETH",
          "type": "uint256"
        }
      ],
      "stateMutability": "nonpayable",
      "type": "function"
    },
    {
      "inputs": [
        {
          "internalType": "address",
          "name": "_token",
          "type": "address"
        },
        {
          "internalType": "uint256",
          "name": "liquidity",
          "type": "uint256"
        },
        {
          "internalType": "uint256",
          "name": "amountTokenMin",
          "type": "uint256"
        },
        {
          "internalType": "uint256",
          "name": "amountETHMin",
          "type": "uint256"
        },
        {
          "internalType": "address",
          "name": "to",
          "type": "address"
        },
        {
          "internalType": "uint256",
          "name": "deadline",
          "type": "uint256"
        },
        {
          "internalType": "bool",
          "name": "approveMax",
          "type": "bool"
        },
        {
          "internalType": "uint8",
          "name": "v",
          "type": "uint8"
        },
        {
          "internalType": "bytes32",
          "name": "r",
          "type": "bytes32"
        },
        {
          "internalType": "bytes32",
          "name": "s",
          "type": "bytes32"
        }
      ],
      "name": "removeLiquidityETHWithPermitSupportingFeeOnTransferTokens",
      "outputs": [
        {
          "internalType": "uint256",
          "name": "amountETH",
          "type": "uint256"
        }
      ],
      "stateMutability": "nonpayable",
      "type": "function"
    },
    {
      "inputs": [
        {
          "internalType": "address",
          "name": "tokenA",
          "type": "address"
        },
        {
          "internalType": "address",
          "name": "tokenB",
          "type": "address"
        },
        {
          "internalType": "uint256",
          "name": "liquidity",
          "type": "uint256"
        },
        {
          "internalType": "uint256",
          "name": "amountAMin",
          "type": "uint256"
        },
        {
          "internalType": "uint256",
          "name": "amountBMin",
          "type": "uint256"
        },
        {
          "internalType": "address",
          "name": "to",
          "type": "address"
        },
        {
          "internalType": "uint256",
          "name": "deadline",
          "type": "uint256"
        },
        {
          "internalType": "bool",
          "name": "approveMax",
          "type": "bool"
        },
        {
          "internalType": "uint8",
          "name": "v",
          "type": "uint8"
        },
        {
          "internalType": "bytes32",
          "name": "r",
          "type": "bytes32"
        },
        {
          "internalType": "bytes32",
          "name": "s",
          "type": "bytes32"
        }
      ],
      "name": "removeLiquidityWithPermit",
      "outputs": [
        {
          "internalType": "uint256",
          "name": "amountA",
          "type": "uint256"
        },
        {
          "internalType": "uint256",
          "name": "amountB",
          "type": "uint256"
        }
      ],
      "stateMutability": "nonpayable",
      "type": "function"
    },
    {
      "inputs": [],
      "name": "renounceOwnership",
      "outputs": [],
      "stateMutability": "nonpayable",
      "type": "function"
    },
    {
      "inputs": [
        {
          "internalType": "enum ActionType",
          "name": "_sessionType",
          "type": "uint8"
        },
        {
          "components": [
            {
              "internalType": "uint32",
              "name": "accountant",
              "type": "uint32"
            }
          ],
          "internalType": "struct FeeRates",
          "name": "_feeRates",
          "type": "tuple"
        },
        {
          "internalType": "address",
          "name": "caller",
          "type": "address"
        }
      ],
      "name": "setFeeRates",
      "outputs": [],
      "stateMutability": "nonpayable",
      "type": "function"
    },
    {
      "inputs": [
        {
          "components": [
            {
              "internalType": "address",
              "name": "accountant",
              "type": "address"
            }
          ],
          "internalType": "struct FeeStores",
          "name": "_feeStores",
          "type": "tuple"
        },
        {
          "internalType": "address",
          "name": "caller",
          "type": "address"
        }
      ],
      "name": "setFeeStores",
      "outputs": [],
      "stateMutability": "nonpayable",
      "type": "function"
    },
    {
      "inputs": [
        {
          "internalType": "enum NodeType",
          "name": "nodeType",
          "type": "uint8"
        },
        {
          "internalType": "address",
          "name": "node",
          "type": "address"
        },
        {
          "internalType": "address",
          "name": "caller",
          "type": "address"
        }
      ],
      "name": "setNode",
      "outputs": [],
      "stateMutability": "nonpayable",
      "type": "function"
    },
    {
      "inputs": [
        {
          "internalType": "address",
          "name": "tokenA",
          "type": "address"
        },
        {
          "internalType": "address",
          "name": "tokenB",
          "type": "address"
        },
        {
          "internalType": "uint256",
          "name": "liquidity",
          "type": "uint256"
        }
      ],
      "name": "sim_removeLiquidity",
      "outputs": [
        {
          "internalType": "uint256",
          "name": "amountA",
          "type": "uint256"
        },
        {
          "internalType": "uint256",
          "name": "amountB",
          "type": "uint256"
        }
      ],
      "stateMutability": "view",
      "type": "function"
    },
    {
      "inputs": [],
      "name": "tgrBusd",
      "outputs": [
        {
          "internalType": "address",
          "name": "",
          "type": "address"
        }
      ],
      "stateMutability": "view",
      "type": "function"
    },
    {
      "inputs": [],
      "name": "tgrFtm",
      "outputs": [
        {
          "internalType": "address",
          "name": "",
          "type": "address"
        }
      ],
      "stateMutability": "view",
      "type": "function"
    },
    {
      "inputs": [
        {
          "internalType": "address",
          "name": "newOwner",
          "type": "address"
        }
      ],
      "name": "transferOwnership",
      "outputs": [],
      "stateMutability": "nonpayable",
      "type": "function"
    },
    {
      "inputs": [
        {
          "internalType": "address",
          "name": "_prevNode",
          "type": "address"
        },
        {
          "internalType": "address",
          "name": "_nextNode",
          "type": "address"
        }
      ],
      "name": "wire",
      "outputs": [],
      "stateMutability": "nonpayable",
      "type": "function"
    },
    {
      "inputs": [
        {
          "internalType": "address",
          "name": "tokenA",
          "type": "address"
        },
        {
          "internalType": "address",
          "name": "tokenB",
          "type": "address"
        },
        {
          "internalType": "uint256",
          "name": "amountADesired",
          "type": "uint256"
        },
        {
          "internalType": "uint256",
          "name": "amountBDesired",
          "type": "uint256"
        },
        {
          "internalType": "uint256",
          "name": "amountAMin",
          "type": "uint256"
        },
        {
          "internalType": "uint256",
          "name": "amountBMin",
          "type": "uint256"
        },
        {
          "internalType": "address",
          "name": "to",
          "type": "address"
        },
        {
          "internalType": "uint256",
          "name": "deadline",
          "type": "uint256"
        }
      ],
      "name": "wired_addLiquidity",
      "outputs": [
        {
          "internalType": "uint256",
          "name": "amountA",
          "type": "uint256"
        },
        {
          "internalType": "uint256",
          "name": "amountB",
          "type": "uint256"
        },
        {
          "internalType": "uint256",
          "name": "liquidity",
          "type": "uint256"
        }
      ],
      "stateMutability": "nonpayable",
      "type": "function"
    },
    {
      "inputs": [
        {
          "internalType": "address",
          "name": "tokenA",
          "type": "address"
        },
        {
          "internalType": "address",
          "name": "tokenB",
          "type": "address"
        },
        {
          "internalType": "uint256",
          "name": "liquidity",
          "type": "uint256"
        },
        {
          "internalType": "uint256",
          "name": "amountAMin",
          "type": "uint256"
        },
        {
          "internalType": "uint256",
          "name": "amountBMin",
          "type": "uint256"
        },
        {
          "internalType": "address",
          "name": "to",
          "type": "address"
        },
        {
          "internalType": "uint256",
          "name": "deadline",
          "type": "uint256"
        }
      ],
      "name": "wired_removeLiquidity",
      "outputs": [
        {
          "internalType": "uint256",
          "name": "amountA",
          "type": "uint256"
        },
        {
          "internalType": "uint256",
          "name": "amountB",
          "type": "uint256"
        }
      ],
      "stateMutability": "nonpayable",
      "type": "function"
    },
    {
      "stateMutability": "payable",
      "type": "receive"
    }
  ],
  "bytecode": "0x60e0604052601160a0819052702c2a30b5b2b91d102337b93134b23232b760791b60c090815262000034916015919062000284565b506040805180820190915260148082527f5854616b65723a20496e76616c6964207061746800000000000000000000000060209092019182526200007b9160169162000284565b5060405180606001604052806022815260200162004f61602291398051620000ac9160179160209091019062000284565b5060408051808201909152601d8082527f5854616b65723a20496e73756666696369656e74204120616d6f756e740000006020909201918252620000f39160189162000284565b5060408051808201909152601d8082527f5854616b65723a20496e73756666696369656e74204220616d6f756e7400000060209092019182526200013a9160199162000284565b5060408051808201909152601e8082527f5854616b65723a2045786365737369766520696e70757420616d6f756e74000060209092019182526200018191601a9162000284565b5060408051808201909152600f8082526e1615185ad95c8e88115e1c1a5c9959608a1b6020909201918252620001ba91601b9162000284565b50348015620001c857600080fd5b5060405162004f8338038062004f83833981016040819052620001eb916200032a565b6000805460ff19166002179055620002033362000226565b6001600160a01b0316608052600e805462ffffff19166201010117905562000398565b600e80546001600160a01b0383811663010000008181026301000000600160b81b031985161790945560405193909204169182907f8be0079c531659141344cd1fd0a4f28419497f9722a3daafe3b4186f6b6457e090600090a35050565b82805462000292906200035c565b90600052602060002090601f016020900481019282620002b6576000855562000301565b82601f10620002d157805160ff191683800117855562000301565b8280016001018555821562000301579182015b8281111562000301578251825591602001919060010190620002e4565b506200030f92915062000313565b5090565b5b808211156200030f576000815560010162000314565b6000602082840312156200033d57600080fd5b81516001600160a01b03811681146200035557600080fd5b9392505050565b600181811c908216806200037157607f821691505b6020821081036200039257634e487b7160e01b600052602260045260246000fd5b50919050565b608051614b366200042b6000396000818161022301528181610551015281816107e00152818161084001528181610ad601528181610d1601528181610dd701528181610ef201528181611623015281816116f5015281816119d401528181611a04015281816120d401528181612469015281816125e60152818161262c0152818161268401526127190152614b366000f3fe6080604052600436106102135760003560e01c80639b472d4a11610118578063cdd9224c116100a0578063eaa1d2cb1161006f578063eaa1d2cb146106ce578063f2fde38b146106ee578063f305d7191461070e578063f9a21e8a14610721578063fe33b3021461074157600080fd5b8063cdd9224c1461064e578063ded9382a1461066e578063e6a439051461068e578063e8e33700146106ae57600080fd5b8063af2979eb116100e7578063af2979eb14610593578063b438e563146105b3578063baa2abde146105ee578063bb04a5e61461060e578063cd193c431461062e57600080fd5b80639b472d4a146104ff578063a1ec706f1461051f578063ad5c46481461053f578063ad615dec1461057357600080fd5b806368d806801161019b57806390e3677f1161016a57806390e3677f1461043e57806391fd0db71461045e578063928879d61461047e578063934923a31461049e57806396ed28f9146104be57600080fd5b806368d80680146103e4578063715018a614610404578063893d20e8146104195780638da5cb5b1461041957600080fd5b80632195995c116101e25780632195995c14610331578063249dfad71461035157806354abe9d0146103765780635b0d59841461039657806365715c56146103c457600080fd5b806302751cec1461025757806309b16a22146102915780630c3d536b146102c957806310224711146102e957600080fd5b3661025257336001600160a01b037f0000000000000000000000000000000000000000000000000000000000000000161461025057610250613dbc565b005b600080fd5b34801561026357600080fd5b50610277610272366004613de7565b61079d565b604080519283526020830191909152015b60405180910390f35b34801561029d57600080fd5b506008546102b1906001600160a01b031681565b6040516001600160a01b039091168152602001610288565b3480156102d557600080fd5b506009546102b1906001600160a01b031681565b3480156102f557600080fd5b5061031c610304366004613e52565b600d6020526000908152604090205463ffffffff1681565b60405163ffffffff9091168152602001610288565b34801561033d57600080fd5b5061027761034c366004613e93565b6108c2565b34801561035d57600080fd5b506000546102b19061010090046001600160a01b031681565b34801561038257600080fd5b50610250610391366004613f3d565b610994565b3480156103a257600080fd5b506103b66103b1366004613f5a565b610ab8565b604051908152602001610288565b3480156103d057600080fd5b506001546102b1906001600160a01b031681565b3480156103f057600080fd5b506103b66103ff366004613ff0565b610b9e565b34801561041057600080fd5b50610250610fb3565b34801561042557600080fd5b50600e54630100000090046001600160a01b03166102b1565b34801561044a57600080fd5b50610250610459366004614042565b611021565b34801561046a57600080fd5b5061025061047936600461408d565b6110bf565b34801561048a57600080fd5b50610250610499366004614122565b611279565b3480156104aa57600080fd5b506007546102b1906001600160a01b031681565b3480156104ca57600080fd5b506102b16104d9366004614042565b600b6020908152600092835260408084209091529082529020546001600160a01b031681565b34801561050b57600080fd5b5061027761051a366004614166565b611334565b34801561052b57600080fd5b5061027761053a3660046141a7565b6114e7565b34801561054b57600080fd5b506102b17f000000000000000000000000000000000000000000000000000000000000000081565b34801561057f57600080fd5b506103b661058e366004614219565b611566565b34801561059f57600080fd5b506103b66105ae366004613de7565b61157d565b3480156105bf57600080fd5b506105d36105ce366004614245565b611777565b60408051938452602084019290925290820152606001610288565b3480156105fa57600080fd5b506102776106093660046141a7565b61195e565b34801561061a57600080fd5b506103b6610629366004613f3d565b6119ba565b34801561063a57600080fd5b506102506106493660046142c1565b611a55565b34801561065a57600080fd5b50610250610669366004614336565b611ef1565b34801561067a57600080fd5b50610277610689366004613f5a565b6120b6565b34801561069a57600080fd5b506102b16106a9366004614042565b6121a2565b3480156106ba57600080fd5b506105d36106c9366004614245565b612222565b3480156106da57600080fd5b506102776106e9366004613de7565b6123d5565b3480156106fa57600080fd5b50610250610709366004613f3d565b6124db565b6105d361071c366004613de7565b6125ab565b34801561072d57600080fd5b50600c546102b1906001600160a01b031681565b34801561074d57600080fd5b5061078e61075c366004613f3d565b600a60205260009081526040902080546001909101546001600160a01b0391821691811690600160a01b900460ff1683565b604051610288939291906143d4565b60008082601b428210156107cd5760405162461bcd60e51b81526004016107c49190614401565b60405180910390fd5b506107da6004600161286c565b610808897f00000000000000000000000000000000000000000000000000000000000000008a8a8a3061293b565b600254919450925061082a908a903090889087906001600160a01b0316612db5565b604051632e1a7d4d60e01b8152600481018390527f00000000000000000000000000000000000000000000000000000000000000006001600160a01b031690632e1a7d4d90602401600060405180830381600087803b15801561088c57600080fd5b505af11580156108a0573d6000803e3d6000fd5b505050506108ae8583612e49565b6108b6612f12565b50965096945050505050565b6001600160a01b03808c166000908152600b602090815260408083208e85168452909152812054909182911681876108fa578c6108fe565b6000195b60405163d505accf60e01b81529091506001600160a01b0383169063d505accf90610939903390309086908f908e908e908e906004016144a8565b600060405180830381600087803b15801561095357600080fd5b505af1158015610967573d6000803e3d6000fd5b5050505061097a8f8f8f8f8f8f8f61195e565b809450819550505050509b509b9950505050505050505050565b60005461010090046001600160a01b03163314806109b157503330145b806109df5750600e54630100000090046001600160a01b03166001600160a01b0316336001600160a01b0316145b6109fb5760405162461bcd60e51b81526004016107c4906144e9565b6001600160a01b0381163014610a8b576001546001600160a01b03908116906354abe9d090831615610a2d5782610a2f565b305b6040516001600160e01b031960e084901b1681526001600160a01b039091166004820152602401600060405180830381600087803b158015610a7057600080fd5b505af1158015610a84573d6000803e3d6000fd5b5050505050565b6040517ffd3415c24b2b4519f08b7935c13f86ea010c77b3ff9bf448a474ae3b2414fce090600090a15b50565b6001600160a01b03808b166000908152600b602090815260408083207f0000000000000000000000000000000000000000000000000000000000000000851684529091528120549091168186610b0e578b610b12565b6000195b60405163d505accf60e01b81529091506001600160a01b0383169063d505accf90610b4d903390309086908e908d908d908d906004016144a8565b600060405180830381600087803b158015610b6757600080fd5b505af1158015610b7b573d6000803e3d6000fd5b50505050610b8d8d8d8d8d8d8d61157d565b9d9c50505050505050505050505050565b600081601b42821015610bc45760405162461bcd60e51b81526004016107c49190614401565b50610bd16005600161286c565b6002546001600160a01b03163314610c2b5760405162461bcd60e51b815260206004820152601860248201527f43616c6c6572206973206e6f74205820636f6e7472616374000000000000000060448201526064016107c4565b6040516370a0823160e01b815230600482015247906001600160a01b038916906370a0823190602401602060405180830381865afa158015610c71573d6000803e3d6000fd5b505050506040513d601f19601f82011682018060405250810190610c959190614513565b15610cd95760405162461bcd60e51b8152602060048201526014602482015273526f757465722068617320612062616c616e636560601b60448201526064016107c4565b604080516002808252606082018352600092602083019080368337019050506001600160a01b038a81166000908152600b602090815260408083207f0000000000000000000000000000000000000000000000000000000000000000851684529091529081902054905163776d84d560e11b8152600481018c90523060248201529293501690819063eedb09aa9060440160408051808303816000875af1158015610d88573d6000803e3d6000fd5b505050506040513d601f19601f82011682018060405250810190610dac919061452c565b83600081518110610dbf57610dbf614550565b602002602001018197508281525050506000610dfb8b7f0000000000000000000000000000000000000000000000000000000000000000612f7c565b509050806001600160a01b03168b6001600160a01b031614610e57578583600081518110610e2b57610e2b614550565b602002602001015184600081518110610e4657610e46614550565b602002602001018198508281525050505b610e8c8b308a86600081518110610e7057610e70614550565b60209081029190910101516002546001600160a01b0316612db5565b88861015610edc5760405162461bcd60e51b815260206004820152601c60248201527f58526f757465723a20494e53554646494349454e545f414d4f554e540000000060448201526064016107c4565b604051632e1a7d4d60e01b8152600481018790527f00000000000000000000000000000000000000000000000000000000000000006001600160a01b031690632e1a7d4d90602401600060405180830381600087803b158015610f3e57600080fd5b505af1158015610f52573d6000803e3d6000fd5b50505050610f608887612e49565b834714610fa55760405162461bcd60e51b81526020600482015260136024820152724554482062616c616e63652072656d61696e7360681b60448201526064016107c4565b505050505095945050505050565b600e546001600160a01b0363010000009091041633146110155760405162461bcd60e51b815260206004820181905260248201527f4f776e61626c653a2063616c6c6572206973206e6f7420746865206f776e657260448201526064016107c4565b61101f600061305e565b565b600e54630100000090046001600160a01b03166001600160a01b0316336001600160a01b0316146110875760405162461bcd60e51b815260206004820152601060248201526f496e76616c69642063616c6c6572203360801b60448201526064016107c4565b60008054610100600160a81b0319166101006001600160a01b0394851602179055600180546001600160a01b03191691909216179055565b60005461010090046001600160a01b03163314806110dc57503330145b8061110a5750600e54630100000090046001600160a01b03166001600160a01b0316336001600160a01b0316145b6111265760405162461bcd60e51b81526004016107c4906144e9565b6001600160a01b038116301461123a57600e5462010000900460ff16156111b457604051634f18125b60e01b815273__$88bebae22a3ad6e62b56c303176513ecf8$__90634f18125b90611183908690600d908790600401614576565b60006040518083038186803b15801561119b57600080fd5b505af41580156111af573d6000803e3d6000fd5b505050505b60006001600160a01b038216156111cb57816111cd565b305b6001546040516391fd0db760e01b81529192506001600160a01b0316906391fd0db7906112029087908790869060040161459f565b600060405180830381600087803b15801561121c57600080fd5b505af1158015611230573d6000803e3d6000fd5b5050505050505050565b7fb4040436d4754da72f29d5b97fe68448f30d44ac0e08b33545cbf6f28b7641d9838360405161126b9291906145d1565b60405180910390a15b505050565b60005461010090046001600160a01b031633148061129657503330145b806112c45750600e54630100000090046001600160a01b03166001600160a01b0316336001600160a01b0316145b6112e05760405162461bcd60e51b81526004016107c4906144e9565b6112eb8383836130bc565b60008360048111156112ff576112ff6143aa565b0361127457601380546001600160a01b0384166001600160a01b03199182168117909255601480549091169091179055505050565b6001600160a01b038381166000908152600b6020908152604080832086851684529091528082205490516370a0823160e01b815233600482015291928392911690849082906370a0823190602401602060405180830381865afa15801561139f573d6000803e3d6000fd5b505050506040513d601f19601f820116820180604052508101906113c39190614513565b1015611434576040516370a0823160e01b81523360048201526001600160a01b038216906370a0823190602401602060405180830381865afa15801561140d573d6000803e3d6000fd5b505050506040513d601f19601f820116820180604052508101906114319190614513565b93505b604051632c855c9960e21b81526004810185905260009081906001600160a01b0384169063b2157264906024016040805180830381865afa15801561147d573d6000803e3d6000fd5b505050506040513d601f19601f820116820180604052508101906114a1919061452c565b9150915060006114b18989612f7c565b509050806001600160a01b0316896001600160a01b0316146114d45781836114d7565b82825b909a909950975050505050505050565b60008082601b4282101561150e5760405162461bcd60e51b81526004016107c49190614401565b506002546001600160a01b0316336001600160a01b0316146015906115465760405162461bcd60e51b81526004016107c49190614401565b506115558a8a8a8a8a8a61293b565b909b909a5098505050505050505050565b600061157384848461321f565b90505b9392505050565b600081601b428210156115a35760405162461bcd60e51b81526004016107c49190614401565b506115b06004600161286c565b6040516370a0823160e01b81523060048201526000906001600160a01b038a16906370a0823190602401602060405180830381865afa1580156115f7573d6000803e3d6000fd5b505050506040513d601f19601f8201168201806040525081019061161b9190614513565b905061164b897f00000000000000000000000000000000000000000000000000000000000000008a8a8a3061293b565b6040516370a0823160e01b815230600482018190529195506116df92508b9190889085906001600160a01b038516906370a0823190602401602060405180830381865afa1580156116a0573d6000803e3d6000fd5b505050506040513d601f19601f820116820180604052508101906116c49190614513565b6116ce9190614609565b6002546001600160a01b0316612db5565b604051632e1a7d4d60e01b8152600481018490527f00000000000000000000000000000000000000000000000000000000000000006001600160a01b031690632e1a7d4d90602401600060405180830381600087803b15801561174157600080fd5b505af1158015611755573d6000803e3d6000fd5b505050506117638584612e49565b61176b612f12565b50509695505050505050565b6000808083601b4282101561179f5760405162461bcd60e51b81526004016107c49190614401565b506002546001600160a01b0316336001600160a01b0316146015906117d75760405162461bcd60e51b81526004016107c49190614401565b506117e68c8c8c8c8c8c6132e1565b80945081955050506000600b60008e6001600160a01b03166001600160a01b0316815260200190815260200160002060008d6001600160a01b03166001600160a01b0316815260200190815260200160002060009054906101000a90046001600160a01b0316905061185781613509565b600254611874908e903390849089906001600160a01b0316612db5565b600254611891908d903390849088906001600160a01b0316612db5565b6040516335313c2160e11b81523060048201526001600160a01b03821690636a627842906024016020604051808303816000875af11580156118d7573d6000803e3d6000fd5b505050506040513d601f19601f820116820180604052508101906118fb9190614513565b6002549093506001600160a01b038e81169116148061192757506002546001600160a01b038d81169116145b15611943576119368184613584565b6119409084614609565b92505b61194e818885613612565b5050985098509895505050505050565b60008082601b428210156119855760405162461bcd60e51b81526004016107c49190614401565b506119926004600161286c565b6119a08a8a8a8a8a8a61293b565b90935091506119ad612f12565b5097509795505050505050565b600654600090819081906119f8906001600160a01b0316857f0000000000000000000000000000000000000000000000000000000000000000613726565b915091506000611a28857f0000000000000000000000000000000000000000000000000000000000000000612f7c565b509050846001600160a01b0316816001600160a01b031614611a4a5781611a4c565b825b95945050505050565b60005461010090046001600160a01b0316331480611a7257503330145b80611aa05750600e54630100000090046001600160a01b03166001600160a01b0316336001600160a01b0316145b611abc5760405162461bcd60e51b81526004016107c4906144e9565b6001600160a01b0381163014611ead57600e5460ff1615611e23576040518060600160405280856001600160a01b03168152602001846001600160a01b03168152602001836003811115611b1257611b126143aa565b90526001600160a01b038087166000908152600a6020908152604091829020845181549085166001600160a01b0319918216178255918501516001820180549190951692811683178555928501519093909290916001600160a81b031990911617600160a01b836003811115611b8a57611b8a6143aa565b021790555050506001600160a01b038085166000818152600b60208181526040808420898716855282528084208054878d166001600160a01b03199182168117909255938352818520958552949091529182902080549091169092179091556002549051633fe59dbb60e11b815273__$88bebae22a3ad6e62b56c303176513ecf8$__92637fcb3b7692611c3c92899289921690730dcd1bf9a1b36ce34237eeafef220932846bcd8290600401614620565b602060405180830381865af4158015611c59573d6000803e3d6000fd5b505050506040513d601f19601f82011682018060405250810190611c7d919061464b565b15611c9e57600780546001600160a01b0319166001600160a01b0387161790555b600254604051633fe59dbb60e11b815273__$88bebae22a3ad6e62b56c303176513ecf8$__91637fcb3b7691611cfa91889188916001600160a01b031690735fc8d32690cc91d4c39d9d3abcbd16989f87570790600401614620565b602060405180830381865af4158015611d17573d6000803e3d6000fd5b505050506040513d601f19601f82011682018060405250810190611d3b919061464b565b15611d5c57600880546001600160a01b0319166001600160a01b0387161790555b604051633fe59dbb60e11b815273__$88bebae22a3ad6e62b56c303176513ecf8$__90637fcb3b7690611dc1908790879073b7f8bc63bbcad18155201308c8f3540b07f84f5e90735fc8d32690cc91d4c39d9d3abcbd16989f87570790600401614620565b602060405180830381865af4158015611dde573d6000803e3d6000fd5b505050506040513d601f19601f82011682018060405250810190611e02919061464b565b15611e2357600980546001600160a01b0319166001600160a01b0387161790555b60006001600160a01b03821615611e3a5781611e3c565b305b60015460405163cd193c4360e01b81529192506001600160a01b03169063cd193c4390611e759089908990899089908890600401614668565b600060405180830381600087803b158015611e8f57600080fd5b505af1158015611ea3573d6000803e3d6000fd5b5050505050610a84565b7f7af36d96fdc569564b9fadb22716716fe33463cb7fc8dca4fbd79d40448acdf285858585604051611ee294939291906146aa565b60405180910390a15050505050565b60005461010090046001600160a01b0316331480611f0e57503330145b80611f3c5750600e54630100000090046001600160a01b03166001600160a01b0316336001600160a01b0316145b611f585760405162461bcd60e51b81526004016107c4906144e9565b6001600160a01b038116301461207557600e54610100900460ff1615611fec57604051633d8d54b760e11b8152600c600482015282516001600160a01b0316602482015273__$88bebae22a3ad6e62b56c303176513ecf8$__90637b1aa96e9060440160006040518083038186803b158015611fd357600080fd5b505af4158015611fe7573d6000803e3d6000fd5b505050505b60006001600160a01b038216156120035781612005565b305b600154604051633376489360e21b815285516001600160a01b039081166004830152808416602483015292935091169063cdd9224c90604401600060405180830381600087803b15801561205857600080fd5b505af115801561206c573d6000803e3d6000fd5b50505050505050565b60405182516001600160a01b031681527f275664547227ddbc7a8a732c07c9346f2f4520de70c2088665cc6809534212c09060200160405180910390a15050565b6001600160a01b03808b166000908152600b602090815260408083207f0000000000000000000000000000000000000000000000000000000000000000851684529091528120549091829116818761210e578c612112565b6000195b60405163d505accf60e01b81529091506001600160a01b0383169063d505accf9061214d903390309086908f908e908e908e906004016144a8565b600060405180830381600087803b15801561216757600080fd5b505af115801561217b573d6000803e3d6000fd5b5050505061218d8e8e8e8e8e8e61079d565b909f909e509c50505050505050505050505050565b60065460405163e6a4390560e01b81526001600160a01b0384811660048301528381166024830152600092169063e6a4390590604401602060405180830381865afa1580156121f5573d6000803e3d6000fd5b505050506040513d601f19601f8201168201806040525081019061221991906146d7565b90505b92915050565b6000808083601b4282101561224a5760405162461bcd60e51b81526004016107c49190614401565b506122576003600161286c565b6122658c8c8c8c8c8c6132e1565b80945081955050506000600b60008e6001600160a01b03166001600160a01b0316815260200190815260200160002060008d6001600160a01b03166001600160a01b0316815260200190815260200160002060009054906101000a90046001600160a01b031690506122d681613509565b6002546122f3908e903390849089906001600160a01b0316612db5565b600254612310908d903390849088906001600160a01b0316612db5565b6040516335313c2160e11b81523060048201526001600160a01b03821690636a627842906024016020604051808303816000875af1158015612356573d6000803e3d6000fd5b505050506040513d601f19601f8201168201806040525081019061237a9190614513565b6002549093506001600160a01b038e8116911614806123a657506002546001600160a01b038d81169116145b156123c2576123b58184613584565b6123bf9084614609565b92505b6123cd818885613612565b61194e612f12565b60008082601b428210156123fc5760405162461bcd60e51b81526004016107c49190614401565b506124096005600161286c565b6002546001600160a01b031633146124635760405162461bcd60e51b815260206004820152601860248201527f43616c6c6572206973206e6f74205820436f6e7472616374000000000000000060448201526064016107c4565b612492897f00000000000000000000000000000000000000000000000000000000000000008a8a8a308a6137fc565b80935081945050506124be604051806060016040528060388152602001614ac960389139898585613a5e565b60025461082a908a903090889087906001600160a01b0316612db5565b600e546001600160a01b03630100000090910416331461253d5760405162461bcd60e51b815260206004820181905260248201527f4f776e61626c653a2063616c6c6572206973206e6f7420746865206f776e657260448201526064016107c4565b6001600160a01b0381166125a25760405162461bcd60e51b815260206004820152602660248201527f4f776e61626c653a206e6577206f776e657220697320746865207a65726f206160448201526564647265737360d01b60648201526084016107c4565b610ab58161305e565b6000808083601b428210156125d35760405162461bcd60e51b81526004016107c49190614401565b506125e06003600161286c565b61260e8a7f00000000000000000000000000000000000000000000000000000000000000008b348c8c6132e1565b6001600160a01b03808d166000908152600b602090815260408083207f0000000000000000000000000000000000000000000000000000000000000000851684529091529020549296509094501661266581613509565b600254612682908c903390849089906001600160a01b0316612db5565b7f00000000000000000000000000000000000000000000000000000000000000006001600160a01b031663d0e30db0856040518263ffffffff1660e01b81526004016000604051808303818588803b1580156126dd57600080fd5b505af11580156126f1573d6000803e3d6000fd5b505060405163a9059cbb60e01b81526001600160a01b038581166004830152602482018990527f000000000000000000000000000000000000000000000000000000000000000016935063a9059cbb925060440190506020604051808303816000875af1158015612766573d6000803e3d6000fd5b505050506040513d601f19601f8201168201806040525081019061278a919061464b565b61279657612796613dbc565b6040516335313c2160e11b81523060048201526001600160a01b03821690636a627842906024016020604051808303816000875af11580156127dc573d6000803e3d6000fd5b505050506040513d601f19601f820116820180604052508101906128009190614513565b6002549093506001600160a01b03908116908c1603612830576128238184613584565b61282d9084614609565b92505b61283b818885613612565b8334111561285657612856336128518634614609565b612e49565b61285e612f12565b505096509650969350505050565b601354604051634be5482760e01b81526001600160a01b0390911690634be548279061289e90859085906004016146f4565b6080604051808303816000875af11580156128bd573d6000803e3d6000fd5b505050506040513d601f19601f820116820180604052508101906128e19190614711565b8051600f8054909190829060ff19166001836005811115612904576129046143aa565b021790555060208201516001820155604082015160028201556060909101516003909101805460ff19169115159190911790555050565b6001600160a01b038087166000908152600b602090815260408083208985168452825280832054815160e081018352941680855291840183905283810183905260608085018490526080850184905260a0850184905260c085018490528151630240bc6b60e21b815291519394859490928492630902f1ac926004808401938290030181865afa1580156129d3573d6000803e3d6000fd5b505050506040513d601f19601f820116820180604052508101906129f791906147ab565b506001600160701b0390811660808401521660608201526003546010546040516303449d7160e01b81526001600160a01b03909216916303449d7191612a4191859060040161483f565b600060405180830381600087803b158015612a5b57600080fd5b505af1158015612a6f573d6000803e3d6000fd5b50506040516370a0823160e01b81523360048201528a92506001600160a01b03851691506370a0823190602401602060405180830381865afa158015612ab9573d6000803e3d6000fd5b505050506040513d601f19601f82011682018060405250810190612add9190614513565b1015612b4e576040516370a0823160e01b81523360048201526001600160a01b038316906370a0823190602401602060405180830381865afa158015612b27573d6000803e3d6000fd5b505050506040513d601f19601f82011682018060405250810190612b4b9190614513565b97505b612b5a8233308b613aa7565b6002546001600160a01b038b811691161480612b8357506002546001600160a01b038a81169116145b15612b9f57612b928289613584565b612b9c9089614609565b97505b612baa82838a613612565b60405163226bf2d160e21b81526001600160a01b03868116600483015260009182918516906389afcb449060240160408051808303816000875af1158015612bf6573d6000803e3d6000fd5b505050506040513d601f19601f82011682018060405250810190612c1a919061452c565b91509150836001600160a01b0316630902f1ac6040518163ffffffff1660e01b8152600401606060405180830381865afa158015612c5c573d6000803e3d6000fd5b505050506040513d601f19601f82011682018060405250810190612c8091906147ab565b506001600160701b039081166080860152166060840152600e54630100000090046001600160a01b03166001600160a01b0316336001600160a01b031614612d2357600354604051633cdc0b8560e21b81526001600160a01b039091169063f3702e1490612cf2908690600401614854565b60006040518083038186803b158015612d0a57600080fd5b505afa158015612d1e573d6000803e3d6000fd5b505050505b612d2d8c8c612f7c565b6001600160a01b03908116604086015290811660208501819052908d1614612d56578082612d59565b81815b9096509450601889871015612d815760405162461bcd60e51b81526004016107c49190614401565b50601988861015612da55760405162461bcd60e51b81526004016107c49190614401565b5050505050965096945050505050565b806001600160a01b0316856001600160a01b031603612e3d5760405163cd537aa160e01b81526001600160a01b03858116600483015284811660248301526044820184905286169063cd537aa190606401600060405180830381600087803b158015612e2057600080fd5b505af1158015612e34573d6000803e3d6000fd5b50505050610a84565b610a8485858585613aa7565b604080516000808252602082019092526001600160a01b038416908390604051612e73919061488e565b60006040518083038185875af1925050503d8060008114612eb0576040519150601f19603f3d011682016040523d82523d6000602084013e612eb5565b606091505b50509050806112745760405162461bcd60e51b815260206004820152602360248201527f5472616e7366657248656c7065723a204554485f5452414e534645525f46414960448201526213115160ea1b60648201526084016107c4565b601360009054906101000a90046001600160a01b03166001600160a01b031663431b3c306040518163ffffffff1660e01b8152600401600060405180830381600087803b158015612f6257600080fd5b505af1158015612f76573d6000803e3d6000fd5b50505050565b600080826001600160a01b0316846001600160a01b031603612fe05760405162461bcd60e51b815260206004820152601d60248201527f584c6962726172793a204944454e544943414c5f41444452455353455300000060448201526064016107c4565b826001600160a01b0316846001600160a01b031610613000578284613003565b83835b90925090506001600160a01b0382166130575760405162461bcd60e51b8152602060048201526016602482015275584c6962726172793a205a45524f5f4144445245535360501b60448201526064016107c4565b9250929050565b600e80546001600160a01b0383811663010000008181026301000000600160b81b031985161790945560405193909204169182907f8be0079c531659141344cd1fd0a4f28419497f9722a3daafe3b4186f6b6457e090600090a35050565b60005461010090046001600160a01b03163314806130d957503330145b806131075750600e54630100000090046001600160a01b03166001600160a01b0316336001600160a01b0316145b6131235760405162461bcd60e51b81526004016107c4906144e9565b6001600160a01b03811630146131ee5760405163085b199160e11b815273__$88bebae22a3ad6e62b56c303176513ecf8$__906310b633229061316f90869086906002906004016148ba565b60006040518083038186803b15801561318757600080fd5b505af415801561319b573d6000803e3d6000fd5b506000925050506001600160a01b038216156131b757816131b9565b305b6001546040516349443ceb60e11b81529192506001600160a01b03169063928879d690611202908790879086906004016148e2565b7fb45c42dda0a5ab1d1078e0afeda2976363eff9496a93644e726862f1f06186b8838360405161126b929190614912565b60008084116132705760405162461bcd60e51b815260206004820152601d60248201527f584c6962726172793a20494e53554646494349454e545f414d4f554e5400000060448201526064016107c4565b6000831180156132805750600082115b6132cc5760405162461bcd60e51b815260206004820181905260248201527f584c6962726172793a20494e53554646494349454e545f4c495155494449545960448201526064016107c4565b826132d78584613bd7565b6115739190614938565b60065460405163e6a4390560e01b81526001600160a01b0388811660048301528781166024830152600092839283929091169063e6a4390590604401602060405180830381865afa15801561333a573d6000803e3d6000fd5b505050506040513d601f19601f8201168201806040525081019061335e91906146d7565b6001600160a01b0316036133e6576006546040516364e329cb60e11b81526001600160a01b038a8116600483015289811660248301529091169063c9c65396906044016020604051808303816000875af11580156133c0573d6000803e3d6000fd5b505050506040513d601f19601f820116820180604052508101906133e491906146d7565b505b6006546000908190613402906001600160a01b03168b8b613726565b91509150816000148015613414575080155b15613424578793508692506134b4565b600061343189848461321f565b90508781116134695760198682101561345d5760405162461bcd60e51b81526004016107c49190614401565b508894509250826134b2565b600061347689848661321f565b90508981111561348857613488613dbc565b6018888210156134ab5760405162461bcd60e51b81526004016107c49190614401565b5094508793505b505b6018868510156134d75760405162461bcd60e51b81526004016107c49190614401565b506019858410156134fb5760405162461bcd60e51b81526004016107c49190614401565b505050965096945050505050565b60026001600160a01b0382166000908152600a6020526040902060010154600160a01b900460ff166003811115613542576135426143aa565b14610ab55760405162461bcd60e51b81526020600482015260126024820152711614185a5c881b9bdd08195b9b1a5cdd195960721b60448201526064016107c4565b60125460009060ff161561221c57600f5461221990849030908590600d9060009060ff1660058111156135b9576135b96143aa565b60058111156135ca576135ca6143aa565b8152602080820192909252604090810160002081518084018352905463ffffffff1681528151928301909152600c546001600160a01b03908116835260025491929116613c59565b604080516001600160a01b038481166024830152604480830185905283518084039091018152606490920183526020820180516001600160e01b031663a9059cbb60e01b179052915160009283929087169161366e919061488e565b6000604051808303816000865af19150503d80600081146136ab576040519150601f19603f3d011682016040523d82523d6000602084013e6136b0565b606091505b50915091508180156136da5750805115806136da5750808060200190518101906136da919061464b565b610a845760405162461bcd60e51b815260206004820152601f60248201527f5472616e7366657248656c7065723a205452414e534645525f4641494c45440060448201526064016107c4565b60008060006137358585612f7c565b509050613743868686613cc2565b50600080613752888888613cc2565b6001600160a01b0316630902f1ac6040518163ffffffff1660e01b8152600401606060405180830381865afa15801561378f573d6000803e3d6000fd5b505050506040513d601f19601f820116820180604052508101906137b391906147ab565b506001600160701b031691506001600160701b03169150826001600160a01b0316876001600160a01b0316146137ea5780826137ed565b81815b90999098509650505050505050565b60008082601b428210156138235760405162461bcd60e51b81526004016107c49190614401565b506001600160a01b03808b166000908152600b602090815260408083208d8516845282528083205481516318160ddd60e01b8152915194169384926318160ddd92600480820193918290030181865afa158015613884573d6000803e3d6000fd5b505050506040513d601f19601f820116820180604052508101906138a89190614513565b9050808a11156138fa5760405162461bcd60e51b815260206004820152601a60248201527f58526f757465723a20696e76616c6964206c697175696469747900000000000060448201526064016107c4565b60405163776d84d560e11b8152600481018b90526001600160a01b038881166024830152600091829185169063eedb09aa9060440160408051808303816000875af115801561394d573d6000803e3d6000fd5b505050506040513d601f19601f82011682018060405250810190613971919061452c565b9150915060006139818f8f612f7c565b509050806001600160a01b03168f6001600160a01b0316146139a45781836139a7565b82825b90985096508b8810156139fc5760405162461bcd60e51b815260206004820152601e60248201527f58526f757465723a20494e53554646494349454e545f415f414d4f554e54000060448201526064016107c4565b8a871015613a4c5760405162461bcd60e51b815260206004820152601e60248201527f58526f757465723a20494e53554646494349454e545f425f414d4f554e54000060448201526064016107c4565b50505050505097509795505050505050565b612f7684848484604051602401613a78949392919061495a565b60408051601f198184030181529190526020810180516001600160e01b03166304772b3360e11b179052613d9b565b604080516001600160a01b0385811660248301528481166044830152606480830185905283518084039091018152608490920183526020820180516001600160e01b03166323b872dd60e01b1790529151600092839290881691613b0b919061488e565b6000604051808303816000865af19150503d8060008114613b48576040519150601f19603f3d011682016040523d82523d6000602084013e613b4d565b606091505b5091509150818015613b77575080511580613b77575080806020019051810190613b77919061464b565b613bcf5760405162461bcd60e51b8152602060048201526024808201527f5472616e7366657248656c7065723a205452414e534645525f46524f4d5f46416044820152631253115160e21b60648201526084016107c4565b505050505050565b600082600003613be95750600061221c565b6000613bf583856149a1565b905082613c028583614938565b146122195760405162461bcd60e51b815260206004820152602160248201527f536166654d6174683a206d756c7469706c69636174696f6e206f766572666c6f6044820152607760f81b60648201526084016107c4565b6000808515613cb757845163ffffffff1615613cb757613c7b6005600a614aa4565b8551613c8d9063ffffffff16886149a1565b613c979190614938565b9050613caa888886600001518487612db5565b613cb48183614ab0565b91505b509695505050505050565b6000806000613cd18585612f7c565b6040516bffffffffffffffffffffffff19606084811b8216602084015283901b1660348201529193509150869060480160405160208183030381529060405280519060200120604051602001613d799291906001600160f81b0319815260609290921b6bffffffffffffffffffffffff1916600183015260158201527fe7ee2b8ab058817f5f226126ad72f45c59f68d0e68a80d5e509174032aa180cb603582015260550190565b60408051601f1981840301815291905280516020909101209695505050505050565b80516a636f6e736f6c652e6c6f67602083016000808483855afa5050505050565b634e487b7160e01b600052600160045260246000fd5b6001600160a01b0381168114610ab557600080fd5b60008060008060008060c08789031215613e0057600080fd5b8635613e0b81613dd2565b95506020870135945060408701359350606087013592506080870135613e3081613dd2565b8092505060a087013590509295509295509295565b60068110610ab557600080fd5b600060208284031215613e6457600080fd5b813561221981613e45565b8015158114610ab557600080fd5b803560ff81168114613e8e57600080fd5b919050565b60008060008060008060008060008060006101608c8e031215613eb557600080fd5b8b35613ec081613dd2565b9a5060208c0135613ed081613dd2565b995060408c0135985060608c0135975060808c0135965060a08c0135613ef581613dd2565b955060c08c0135945060e08c0135613f0c81613e6f565b9350613f1b6101008d01613e7d565b92506101208c013591506101408c013590509295989b509295989b9093969950565b600060208284031215613f4f57600080fd5b813561221981613dd2565b6000806000806000806000806000806101408b8d031215613f7a57600080fd5b8a35613f8581613dd2565b995060208b0135985060408b0135975060608b0135965060808b0135613faa81613dd2565b955060a08b0135945060c08b0135613fc181613e6f565b9350613fcf60e08c01613e7d565b92506101008b013591506101208b013590509295989b9194979a5092959850565b600080600080600060a0868803121561400857600080fd5b853561401381613dd2565b94506020860135935060408601359250606086013561403181613dd2565b949793965091946080013592915050565b6000806040838503121561405557600080fd5b823561406081613dd2565b9150602083013561407081613dd2565b809150509250929050565b63ffffffff81168114610ab557600080fd5b600080600083850360608112156140a357600080fd5b84356140ae81613e45565b93506020601f19820112156140c257600080fd5b506040516020810181811067ffffffffffffffff821117156140f457634e487b7160e01b600052604160045260246000fd5b60405260208501356141058161407b565b81529150604084013561411781613dd2565b809150509250925092565b60008060006060848603121561413757600080fd5b83356005811061414657600080fd5b9250602084013561415681613dd2565b9150604084013561411781613dd2565b60008060006060848603121561417b57600080fd5b833561418681613dd2565b9250602084013561419681613dd2565b929592945050506040919091013590565b600080600080600080600060e0888a0312156141c257600080fd5b87356141cd81613dd2565b965060208801356141dd81613dd2565b955060408801359450606088013593506080880135925060a088013561420281613dd2565b8092505060c0880135905092959891949750929550565b60008060006060848603121561422e57600080fd5b505081359360208301359350604090920135919050565b600080600080600080600080610100898b03121561426257600080fd5b883561426d81613dd2565b9750602089013561427d81613dd2565b965060408901359550606089013594506080890135935060a0890135925060c08901356142a981613dd2565b8092505060e089013590509295985092959890939650565b600080600080600060a086880312156142d957600080fd5b85356142e481613dd2565b945060208601356142f481613dd2565b9350604086013561430481613dd2565b925060608601356004811061431857600080fd5b9150608086013561432881613dd2565b809150509295509295909350565b600080828403604081121561434a57600080fd5b602081121561435857600080fd5b506040516020810181811067ffffffffffffffff8211171561438a57634e487b7160e01b600052604160045260246000fd5b604052833561439881613dd2565b81529150602083013561407081613dd2565b634e487b7160e01b600052602160045260246000fd5b600481106143d0576143d06143aa565b9052565b6001600160a01b03848116825283166020820152606081016143f960408301846143c0565b949350505050565b600060208083526000845481600182811c91508083168061442357607f831692505b858310810361444057634e487b7160e01b85526022600452602485fd5b87860183815260200181801561445d576001811461446e57614499565b60ff19861682528782019650614499565b60008b81526020902060005b868110156144935781548482015290850190890161447a565b83019750505b50949998505050505050505050565b6001600160a01b0397881681529590961660208601526040850193909352606084019190915260ff16608083015260a082015260c081019190915260e00190565b60208082526010908201526f496e76616c69642063616c6c6572203160801b604082015260600190565b60006020828403121561452557600080fd5b5051919050565b6000806040838503121561453f57600080fd5b505080516020909101519092909150565b634e487b7160e01b600052603260045260246000fd5b600681106143d0576143d06143aa565b606081016145848286614566565b83602083015263ffffffff8351166040830152949350505050565b606081016145ad8286614566565b925163ffffffff1660208201526001600160a01b0391909116604090910152919050565b604081016145df8285614566565b63ffffffff83511660208301529392505050565b634e487b7160e01b600052601160045260246000fd5b60008282101561461b5761461b6145f3565b500390565b6001600160a01b03948516815292841660208401529083166040830152909116606082015260800190565b60006020828403121561465d57600080fd5b815161221981613e6f565b6001600160a01b0386811682528581166020830152848116604083015260a082019061469760608401866143c0565b8084166080840152509695505050505050565b6001600160a01b03858116825284811660208301528316604082015260808101611a4c60608301846143c0565b6000602082840312156146e957600080fd5b815161221981613dd2565b604081016147028285614566565b82151560208301529392505050565b60006080828403121561472357600080fd5b6040516080810181811067ffffffffffffffff8211171561475457634e487b7160e01b600052604160045260246000fd5b604052825161476281613e45565b808252506020830151602082015260408301516040820152606083015161478881613e6f565b60608201529392505050565b80516001600160701b0381168114613e8e57600080fd5b6000806000606084860312156147c057600080fd5b6147c984614794565b92506147d760208501614794565b915060408401516141178161407b565b60018060a01b0380825116835280602083015116602084015280604083015116604084015250606081015160608301526080810151608083015260ff60a08201511660a083015260ff60c08201511660c08301525050565b828152610100810161157660208301846147e7565b60e0810161221c82846147e7565b60005b8381101561487d578181015183820152602001614865565b83811115612f765750506000910152565b600082516148a0818460208701614862565b9190910192915050565b600581106143d0576143d06143aa565b606081016148c882866148aa565b6001600160a01b0393909316602082015260400152919050565b606081016148f082866148aa565b6001600160a01b03938416602083015291909216604090920191909152919050565b6040810161492082856148aa565b6001600160a01b039290921660209190910152919050565b60008261495557634e487b7160e01b600052601260045260246000fd5b500490565b60808152600085518060808401526149798160a0850160208a01614862565b6020830195909552506040810192909252606082015260a0601f909201601f19160101919050565b60008160001904831182151516156149bb576149bb6145f3565b500290565b600181815b808511156149fb5781600019048211156149e1576149e16145f3565b808516156149ee57918102915b93841c93908002906149c5565b509250929050565b600082614a125750600161221c565b81614a1f5750600061221c565b8160018114614a355760028114614a3f57614a5b565b600191505061221c565b60ff841115614a5057614a506145f3565b50506001821b61221c565b5060208310610133831016604e8410600b8410161715614a7e575081810a61221c565b614a8883836149c0565b8060001904821115614a9c57614a9c6145f3565b029392505050565b60006122198383614a03565b60008219821115614ac357614ac36145f3565b50019056fe09526f757465723a2064696c7574654c6971756964697479455448202d2d2d2d2d206c69717569646974792c20746f6b6e652c206574683aa2646970667358221220457083b427b0ba599f3ee145b53289c1790ba3039182c041f6a9ce2a1ab49d4664736f6c634300080e00335854616b65723a20496e73756666696369656e74206f757470757420616d6f756e74",
  "linkReferences": {
    "contracts/libraries/WireLibrary.sol": {
      "WireLibrary": [
        {
          "length": 20,
          "start": 5505
        },
        {
          "length": 20,
          "start": 8229
        },
        {
          "length": 20,
          "start": 8411
        },
        {
          "length": 20,
          "start": 8598
        },
        {
          "length": 20,
          "start": 9161
        },
        {
          "length": 20,
          "start": 13677
        }
      ]
    }
  },
  "deployedLinkReferences": {
    "contracts/libraries/WireLibrary.sol": {
      "WireLibrary": [
        {
          "length": 20,
          "start": 4438
        },
        {
          "length": 20,
          "start": 7162
        },
        {
          "length": 20,
          "start": 7344
        },
        {
          "length": 20,
          "start": 7531
        },
        {
          "length": 20,
          "start": 8094
        },
        {
          "length": 20,
          "start": 12610
        }
      ]
    }
  }
}