{
  "_format": "hh-sol-artifact-1",
  "contractName": "XMaker",
  "sourceName": "contracts/periphery/XMaker.sol",
  "abi": [
    {
      "inputs": [
        {
          "internalType": "address",
          "name": "_WETH",
          "type": "address"
        }
      ],
      "stateMutability": "nonpayable",
      "type": "constructor"
    },
    {
      "anonymous": false,
      "inputs": [],
      "name": "Begin",
      "type": "event"
    },
    {
      "anonymous": false,
      "inputs": [
        {
          "indexed": false,
          "internalType": "address",
          "name": "pair",
          "type": "address"
        },
        {
          "indexed": false,
          "internalType": "address",
          "name": "tokenA",
          "type": "address"
        },
        {
          "indexed": false,
          "internalType": "address",
          "name": "tokenB",
          "type": "address"
        },
        {
          "indexed": false,
          "internalType": "enum ListStatus",
          "name": "status",
          "type": "uint8"
        }
      ],
      "name": "ChangePairStatus",
      "type": "event"
    },
    {
      "anonymous": false,
      "inputs": [
        {
          "indexed": false,
          "internalType": "address",
          "name": "token",
          "type": "address"
        },
        {
          "indexed": false,
          "internalType": "address",
          "name": "msgSender",
          "type": "address"
        }
      ],
      "name": "DeenlistToken",
      "type": "event"
    },
    {
      "anonymous": false,
      "inputs": [
        {
          "indexed": true,
          "internalType": "address",
          "name": "previousOwner",
          "type": "address"
        },
        {
          "indexed": true,
          "internalType": "address",
          "name": "newOwner",
          "type": "address"
        }
      ],
      "name": "OwnershipTransferred",
      "type": "event"
    },
    {
      "anonymous": false,
      "inputs": [
        {
          "indexed": false,
          "internalType": "enum ActionType",
          "name": "_sessionType",
          "type": "uint8"
        },
        {
          "components": [
            {
              "internalType": "uint32",
              "name": "accountant",
              "type": "uint32"
            }
          ],
          "indexed": false,
          "internalType": "struct FeeRates",
          "name": "_feeRates",
          "type": "tuple"
        }
      ],
      "name": "SetFeeRates",
      "type": "event"
    },
    {
      "anonymous": false,
      "inputs": [
        {
          "components": [
            {
              "internalType": "address",
              "name": "accountant",
              "type": "address"
            }
          ],
          "indexed": false,
          "internalType": "struct FeeStores",
          "name": "_feeStores",
          "type": "tuple"
        }
      ],
      "name": "SetFeeStores",
      "type": "event"
    },
    {
      "anonymous": false,
      "inputs": [
        {
          "indexed": false,
          "internalType": "enum NodeType",
          "name": "nodeType",
          "type": "uint8"
        },
        {
          "indexed": false,
          "internalType": "address",
          "name": "node",
          "type": "address"
        }
      ],
      "name": "SetNode",
      "type": "event"
    },
    {
      "inputs": [],
      "name": "WETH",
      "outputs": [
        {
          "internalType": "address",
          "name": "",
          "type": "address"
        }
      ],
      "stateMutability": "view",
      "type": "function"
    },
    {
      "inputs": [
        {
          "internalType": "address",
          "name": "tokenA",
          "type": "address"
        },
        {
          "internalType": "address",
          "name": "tokenB",
          "type": "address"
        },
        {
          "internalType": "uint256",
          "name": "amountADesired",
          "type": "uint256"
        },
        {
          "internalType": "uint256",
          "name": "amountBDesired",
          "type": "uint256"
        },
        {
          "internalType": "uint256",
          "name": "amountAMin",
          "type": "uint256"
        },
        {
          "internalType": "uint256",
          "name": "amountBMin",
          "type": "uint256"
        },
        {
          "internalType": "address",
          "name": "to",
          "type": "address"
        },
        {
          "internalType": "uint256",
          "name": "deadline",
          "type": "uint256"
        }
      ],
      "name": "addLiquidity",
      "outputs": [
        {
          "internalType": "uint256",
          "name": "amountA",
          "type": "uint256"
        },
        {
          "internalType": "uint256",
          "name": "amountB",
          "type": "uint256"
        },
        {
          "internalType": "uint256",
          "name": "liquidity",
          "type": "uint256"
        }
      ],
      "stateMutability": "nonpayable",
      "type": "function"
    },
    {
      "inputs": [
        {
          "internalType": "address",
          "name": "_token",
          "type": "address"
        },
        {
          "internalType": "uint256",
          "name": "amountTokenDesired",
          "type": "uint256"
        },
        {
          "internalType": "uint256",
          "name": "amountTokenMin",
          "type": "uint256"
        },
        {
          "internalType": "uint256",
          "name": "amountETHMin",
          "type": "uint256"
        },
        {
          "internalType": "address",
          "name": "to",
          "type": "address"
        },
        {
          "internalType": "uint256",
          "name": "deadline",
          "type": "uint256"
        }
      ],
      "name": "addLiquidityETH",
      "outputs": [
        {
          "internalType": "uint256",
          "name": "amountToken",
          "type": "uint256"
        },
        {
          "internalType": "uint256",
          "name": "amountETH",
          "type": "uint256"
        },
        {
          "internalType": "uint256",
          "name": "liquidity",
          "type": "uint256"
        }
      ],
      "stateMutability": "payable",
      "type": "function"
    },
    {
      "inputs": [
        {
          "internalType": "address",
          "name": "caller",
          "type": "address"
        }
      ],
      "name": "begin",
      "outputs": [],
      "stateMutability": "nonpayable",
      "type": "function"
    },
    {
      "inputs": [
        {
          "internalType": "address",
          "name": "pair",
          "type": "address"
        },
        {
          "internalType": "address",
          "name": "token0",
          "type": "address"
        },
        {
          "internalType": "address",
          "name": "token1",
          "type": "address"
        },
        {
          "internalType": "enum ListStatus",
          "name": "status",
          "type": "uint8"
        },
        {
          "internalType": "address",
          "name": "caller",
          "type": "address"
        }
      ],
      "name": "changePairStatus",
      "outputs": [],
      "stateMutability": "nonpayable",
      "type": "function"
    },
    {
      "inputs": [
        {
          "internalType": "enum ActionType",
          "name": "",
          "type": "uint8"
        }
      ],
      "name": "feeRates",
      "outputs": [
        {
          "internalType": "uint32",
          "name": "accountant",
          "type": "uint32"
        }
      ],
      "stateMutability": "view",
      "type": "function"
    },
    {
      "inputs": [],
      "name": "feeStores",
      "outputs": [
        {
          "internalType": "address",
          "name": "accountant",
          "type": "address"
        }
      ],
      "stateMutability": "view",
      "type": "function"
    },
    {
      "inputs": [],
      "name": "getOwner",
      "outputs": [
        {
          "internalType": "address",
          "name": "",
          "type": "address"
        }
      ],
      "stateMutability": "view",
      "type": "function"
    },
    {
      "inputs": [
        {
          "internalType": "address",
          "name": "tokenA",
          "type": "address"
        },
        {
          "internalType": "address",
          "name": "tokenB",
          "type": "address"
        }
      ],
      "name": "getPair",
      "outputs": [
        {
          "internalType": "address",
          "name": "pair",
          "type": "address"
        }
      ],
      "stateMutability": "view",
      "type": "function"
    },
    {
      "inputs": [
        {
          "internalType": "address",
          "name": "_token",
          "type": "address"
        }
      ],
      "name": "getReserveOnETHPair",
      "outputs": [
        {
          "internalType": "uint256",
          "name": "reserve",
          "type": "uint256"
        }
      ],
      "stateMutability": "view",
      "type": "function"
    },
    {
      "inputs": [],
      "name": "nextNode",
      "outputs": [
        {
          "internalType": "address",
          "name": "",
          "type": "address"
        }
      ],
      "stateMutability": "view",
      "type": "function"
    },
    {
      "inputs": [],
      "name": "owner",
      "outputs": [
        {
          "internalType": "address",
          "name": "",
          "type": "address"
        }
      ],
      "stateMutability": "view",
      "type": "function"
    },
    {
      "inputs": [
        {
          "internalType": "address",
          "name": "",
          "type": "address"
        },
        {
          "internalType": "address",
          "name": "",
          "type": "address"
        }
      ],
      "name": "pairFor",
      "outputs": [
        {
          "internalType": "address",
          "name": "",
          "type": "address"
        }
      ],
      "stateMutability": "view",
      "type": "function"
    },
    {
      "inputs": [
        {
          "internalType": "address",
          "name": "",
          "type": "address"
        }
      ],
      "name": "pairs",
      "outputs": [
        {
          "internalType": "address",
          "name": "token0",
          "type": "address"
        },
        {
          "internalType": "address",
          "name": "token1",
          "type": "address"
        },
        {
          "internalType": "enum ListStatus",
          "name": "status",
          "type": "uint8"
        }
      ],
      "stateMutability": "view",
      "type": "function"
    },
    {
      "inputs": [],
      "name": "prevNode",
      "outputs": [
        {
          "internalType": "address",
          "name": "",
          "type": "address"
        }
      ],
      "stateMutability": "view",
      "type": "function"
    },
    {
      "inputs": [
        {
          "internalType": "uint256",
          "name": "amountA",
          "type": "uint256"
        },
        {
          "internalType": "uint256",
          "name": "reserveA",
          "type": "uint256"
        },
        {
          "internalType": "uint256",
          "name": "reserveB",
          "type": "uint256"
        }
      ],
      "name": "quote",
      "outputs": [
        {
          "internalType": "uint256",
          "name": "amountB",
          "type": "uint256"
        }
      ],
      "stateMutability": "pure",
      "type": "function"
    },
    {
      "inputs": [
        {
          "internalType": "address",
          "name": "tokenA",
          "type": "address"
        },
        {
          "internalType": "address",
          "name": "tokenB",
          "type": "address"
        },
        {
          "internalType": "uint256",
          "name": "liquidity",
          "type": "uint256"
        },
        {
          "internalType": "uint256",
          "name": "amountAMin",
          "type": "uint256"
        },
        {
          "internalType": "uint256",
          "name": "amountBMin",
          "type": "uint256"
        },
        {
          "internalType": "address",
          "name": "to",
          "type": "address"
        },
        {
          "internalType": "uint256",
          "name": "deadline",
          "type": "uint256"
        }
      ],
      "name": "removeLiquidity",
      "outputs": [
        {
          "internalType": "uint256",
          "name": "amountA",
          "type": "uint256"
        },
        {
          "internalType": "uint256",
          "name": "amountB",
          "type": "uint256"
        }
      ],
      "stateMutability": "nonpayable",
      "type": "function"
    },
    {
      "inputs": [
        {
          "internalType": "address",
          "name": "_token",
          "type": "address"
        },
        {
          "internalType": "uint256",
          "name": "liquidity",
          "type": "uint256"
        },
        {
          "internalType": "uint256",
          "name": "amountTokenMin",
          "type": "uint256"
        },
        {
          "internalType": "uint256",
          "name": "amountETHMin",
          "type": "uint256"
        },
        {
          "internalType": "address",
          "name": "to",
          "type": "address"
        },
        {
          "internalType": "uint256",
          "name": "deadline",
          "type": "uint256"
        }
      ],
      "name": "removeLiquidityETH",
      "outputs": [
        {
          "internalType": "uint256",
          "name": "amountToken",
          "type": "uint256"
        },
        {
          "internalType": "uint256",
          "name": "amountETH",
          "type": "uint256"
        }
      ],
      "stateMutability": "nonpayable",
      "type": "function"
    },
    {
      "inputs": [
        {
          "internalType": "address",
          "name": "_token",
          "type": "address"
        },
        {
          "internalType": "uint256",
          "name": "liquidity",
          "type": "uint256"
        },
        {
          "internalType": "uint256",
          "name": "amountTokenMin",
          "type": "uint256"
        },
        {
          "internalType": "uint256",
          "name": "amountETHMin",
          "type": "uint256"
        },
        {
          "internalType": "address",
          "name": "to",
          "type": "address"
        },
        {
          "internalType": "uint256",
          "name": "deadline",
          "type": "uint256"
        }
      ],
      "name": "removeLiquidityETHSupportingFeeOnTransferTokens",
      "outputs": [
        {
          "internalType": "uint256",
          "name": "amountETH",
          "type": "uint256"
        }
      ],
      "stateMutability": "nonpayable",
      "type": "function"
    },
    {
      "inputs": [
        {
          "internalType": "address",
          "name": "_token",
          "type": "address"
        },
        {
          "internalType": "uint256",
          "name": "liquidity",
          "type": "uint256"
        },
        {
          "internalType": "uint256",
          "name": "amountTokenMin",
          "type": "uint256"
        },
        {
          "internalType": "uint256",
          "name": "amountETHMin",
          "type": "uint256"
        },
        {
          "internalType": "address",
          "name": "to",
          "type": "address"
        },
        {
          "internalType": "uint256",
          "name": "deadline",
          "type": "uint256"
        },
        {
          "internalType": "bool",
          "name": "approveMax",
          "type": "bool"
        },
        {
          "internalType": "uint8",
          "name": "v",
          "type": "uint8"
        },
        {
          "internalType": "bytes32",
          "name": "r",
          "type": "bytes32"
        },
        {
          "internalType": "bytes32",
          "name": "s",
          "type": "bytes32"
        }
      ],
      "name": "removeLiquidityETHWithPermit",
      "outputs": [
        {
          "internalType": "uint256",
          "name": "amountToken",
          "type": "uint256"
        },
        {
          "internalType": "uint256",
          "name": "amountETH",
          "type": "uint256"
        }
      ],
      "stateMutability": "nonpayable",
      "type": "function"
    },
    {
      "inputs": [
        {
          "internalType": "address",
          "name": "_token",
          "type": "address"
        },
        {
          "internalType": "uint256",
          "name": "liquidity",
          "type": "uint256"
        },
        {
          "internalType": "uint256",
          "name": "amountTokenMin",
          "type": "uint256"
        },
        {
          "internalType": "uint256",
          "name": "amountETHMin",
          "type": "uint256"
        },
        {
          "internalType": "address",
          "name": "to",
          "type": "address"
        },
        {
          "internalType": "uint256",
          "name": "deadline",
          "type": "uint256"
        },
        {
          "internalType": "bool",
          "name": "approveMax",
          "type": "bool"
        },
        {
          "internalType": "uint8",
          "name": "v",
          "type": "uint8"
        },
        {
          "internalType": "bytes32",
          "name": "r",
          "type": "bytes32"
        },
        {
          "internalType": "bytes32",
          "name": "s",
          "type": "bytes32"
        }
      ],
      "name": "removeLiquidityETHWithPermitSupportingFeeOnTransferTokens",
      "outputs": [
        {
          "internalType": "uint256",
          "name": "amountETH",
          "type": "uint256"
        }
      ],
      "stateMutability": "nonpayable",
      "type": "function"
    },
    {
      "inputs": [
        {
          "internalType": "address",
          "name": "tokenA",
          "type": "address"
        },
        {
          "internalType": "address",
          "name": "tokenB",
          "type": "address"
        },
        {
          "internalType": "uint256",
          "name": "liquidity",
          "type": "uint256"
        },
        {
          "internalType": "uint256",
          "name": "amountAMin",
          "type": "uint256"
        },
        {
          "internalType": "uint256",
          "name": "amountBMin",
          "type": "uint256"
        },
        {
          "internalType": "address",
          "name": "to",
          "type": "address"
        },
        {
          "internalType": "uint256",
          "name": "deadline",
          "type": "uint256"
        },
        {
          "internalType": "bool",
          "name": "approveMax",
          "type": "bool"
        },
        {
          "internalType": "uint8",
          "name": "v",
          "type": "uint8"
        },
        {
          "internalType": "bytes32",
          "name": "r",
          "type": "bytes32"
        },
        {
          "internalType": "bytes32",
          "name": "s",
          "type": "bytes32"
        }
      ],
      "name": "removeLiquidityWithPermit",
      "outputs": [
        {
          "internalType": "uint256",
          "name": "amountA",
          "type": "uint256"
        },
        {
          "internalType": "uint256",
          "name": "amountB",
          "type": "uint256"
        }
      ],
      "stateMutability": "nonpayable",
      "type": "function"
    },
    {
      "inputs": [],
      "name": "renounceOwnership",
      "outputs": [],
      "stateMutability": "nonpayable",
      "type": "function"
    },
    {
      "inputs": [
        {
          "internalType": "enum ActionType",
          "name": "_sessionType",
          "type": "uint8"
        },
        {
          "components": [
            {
              "internalType": "uint32",
              "name": "accountant",
              "type": "uint32"
            }
          ],
          "internalType": "struct FeeRates",
          "name": "_feeRates",
          "type": "tuple"
        },
        {
          "internalType": "address",
          "name": "caller",
          "type": "address"
        }
      ],
      "name": "setFeeRates",
      "outputs": [],
      "stateMutability": "nonpayable",
      "type": "function"
    },
    {
      "inputs": [
        {
          "components": [
            {
              "internalType": "address",
              "name": "accountant",
              "type": "address"
            }
          ],
          "internalType": "struct FeeStores",
          "name": "_feeStores",
          "type": "tuple"
        },
        {
          "internalType": "address",
          "name": "caller",
          "type": "address"
        }
      ],
      "name": "setFeeStores",
      "outputs": [],
      "stateMutability": "nonpayable",
      "type": "function"
    },
    {
      "inputs": [
        {
          "internalType": "enum NodeType",
          "name": "nodeType",
          "type": "uint8"
        },
        {
          "internalType": "address",
          "name": "node",
          "type": "address"
        },
        {
          "internalType": "address",
          "name": "caller",
          "type": "address"
        }
      ],
      "name": "setNode",
      "outputs": [],
      "stateMutability": "nonpayable",
      "type": "function"
    },
    {
      "inputs": [
        {
          "internalType": "address",
          "name": "tokenA",
          "type": "address"
        },
        {
          "internalType": "address",
          "name": "tokenB",
          "type": "address"
        },
        {
          "internalType": "uint256",
          "name": "liquidity",
          "type": "uint256"
        }
      ],
      "name": "sim_removeLiquidity",
      "outputs": [
        {
          "internalType": "uint256",
          "name": "amountA",
          "type": "uint256"
        },
        {
          "internalType": "uint256",
          "name": "amountB",
          "type": "uint256"
        }
      ],
      "stateMutability": "view",
      "type": "function"
    },
    {
      "inputs": [],
      "name": "tgrBusd",
      "outputs": [
        {
          "internalType": "address",
          "name": "",
          "type": "address"
        }
      ],
      "stateMutability": "view",
      "type": "function"
    },
    {
      "inputs": [],
      "name": "tgrFtm",
      "outputs": [
        {
          "internalType": "address",
          "name": "",
          "type": "address"
        }
      ],
      "stateMutability": "view",
      "type": "function"
    },
    {
      "inputs": [],
      "name": "tgrHtz",
      "outputs": [
        {
          "internalType": "address",
          "name": "",
          "type": "address"
        }
      ],
      "stateMutability": "view",
      "type": "function"
    },
    {
      "inputs": [
        {
          "internalType": "address",
          "name": "newOwner",
          "type": "address"
        }
      ],
      "name": "transferOwnership",
      "outputs": [],
      "stateMutability": "nonpayable",
      "type": "function"
    },
    {
      "inputs": [
        {
          "internalType": "address",
          "name": "_prevNode",
          "type": "address"
        },
        {
          "internalType": "address",
          "name": "_nextNode",
          "type": "address"
        }
      ],
      "name": "wire",
      "outputs": [],
      "stateMutability": "nonpayable",
      "type": "function"
    },
    {
      "inputs": [
        {
          "internalType": "address",
          "name": "tokenA",
          "type": "address"
        },
        {
          "internalType": "address",
          "name": "tokenB",
          "type": "address"
        },
        {
          "internalType": "uint256",
          "name": "amountADesired",
          "type": "uint256"
        },
        {
          "internalType": "uint256",
          "name": "amountBDesired",
          "type": "uint256"
        },
        {
          "internalType": "uint256",
          "name": "amountAMin",
          "type": "uint256"
        },
        {
          "internalType": "uint256",
          "name": "amountBMin",
          "type": "uint256"
        },
        {
          "internalType": "address",
          "name": "to",
          "type": "address"
        },
        {
          "internalType": "uint256",
          "name": "deadline",
          "type": "uint256"
        }
      ],
      "name": "wired_addLiquidity",
      "outputs": [
        {
          "internalType": "uint256",
          "name": "amountA",
          "type": "uint256"
        },
        {
          "internalType": "uint256",
          "name": "amountB",
          "type": "uint256"
        },
        {
          "internalType": "uint256",
          "name": "liquidity",
          "type": "uint256"
        }
      ],
      "stateMutability": "nonpayable",
      "type": "function"
    },
    {
      "inputs": [
        {
          "internalType": "address",
          "name": "tokenA",
          "type": "address"
        },
        {
          "internalType": "address",
          "name": "tokenB",
          "type": "address"
        },
        {
          "internalType": "uint256",
          "name": "liquidity",
          "type": "uint256"
        },
        {
          "internalType": "uint256",
          "name": "amountAMin",
          "type": "uint256"
        },
        {
          "internalType": "uint256",
          "name": "amountBMin",
          "type": "uint256"
        },
        {
          "internalType": "address",
          "name": "to",
          "type": "address"
        },
        {
          "internalType": "uint256",
          "name": "deadline",
          "type": "uint256"
        }
      ],
      "name": "wired_removeLiquidity",
      "outputs": [
        {
          "internalType": "uint256",
          "name": "amountA",
          "type": "uint256"
        },
        {
          "internalType": "uint256",
          "name": "amountB",
          "type": "uint256"
        }
      ],
      "stateMutability": "nonpayable",
      "type": "function"
    },
    {
      "stateMutability": "payable",
      "type": "receive"
    }
  ],
  "bytecode": "0x60e0604052601160a0819052702c2a30b5b2b91d102337b93134b23232b760791b60c090815262000034916015919062000284565b506040805180820190915260148082527f5854616b65723a20496e76616c6964207061746800000000000000000000000060209092019182526200007b9160169162000284565b506040518060600160405280602281526020016200457d602291398051620000ac9160179160209091019062000284565b5060408051808201909152601d8082527f5854616b65723a20496e73756666696369656e74204120616d6f756e740000006020909201918252620000f39160189162000284565b5060408051808201909152601d8082527f5854616b65723a20496e73756666696369656e74204220616d6f756e7400000060209092019182526200013a9160199162000284565b5060408051808201909152601e8082527f5854616b65723a2045786365737369766520696e70757420616d6f756e74000060209092019182526200018191601a9162000284565b5060408051808201909152600f8082526e1615185ad95c8e88115e1c1a5c9959608a1b6020909201918252620001ba91601b9162000284565b50348015620001c857600080fd5b506040516200459f3803806200459f833981016040819052620001eb916200032a565b6000805460ff19166002179055620002033362000226565b6001600160a01b0316608052600e805462ffffff19166201010117905562000398565b600e80546001600160a01b0383811663010000008181026301000000600160b81b031985161790945560405193909204169182907f8be0079c531659141344cd1fd0a4f28419497f9722a3daafe3b4186f6b6457e090600090a35050565b82805462000292906200035c565b90600052602060002090601f016020900481019282620002b6576000855562000301565b82601f10620002d157805160ff191683800117855562000301565b8280016001018555821562000301579182015b8281111562000301578251825591602001919060010190620002e4565b506200030f92915062000313565b5090565b5b808211156200030f576000815560010162000314565b6000602082840312156200033d57600080fd5b81516001600160a01b03811681146200035557600080fd5b9392505050565b600181811c908216806200037157607f821691505b6020821081036200039257634e487b7160e01b600052602260045260246000fd5b50919050565b60805161416e6200040f6000396000818161020d015281816104fb0152818161078a015281816107ea01528181610a80015281816112ab0152818161137d0152818161165c0152818161168c01528181611d530152818161215f015281816121a5015281816121fd0152612292015261416e6000f3fe6080604052600436106101fd5760003560e01c8063a1ec706f1161010d578063cdd9224c116100a0578063f2fde38b1161006f578063f2fde38b14610678578063f305d71914610698578063f9a21e8a146106ab578063f9eb740d146106cb578063fe33b302146106eb57600080fd5b8063cdd9224c146105f8578063ded9382a14610618578063e6a4390514610638578063e8e337001461065857600080fd5b8063b438e563116100dc578063b438e5631461055d578063baa2abde14610598578063bb04a5e6146105b8578063cd193c43146105d857600080fd5b8063a1ec706f146104c9578063ad5c4648146104e9578063ad615dec1461051d578063af2979eb1461053d57600080fd5b8063715018a61161019057806391fd0db71161015f57806391fd0db714610408578063928879d614610428578063934923a31461044857806396ed28f9146104685780639b472d4a146104a957600080fd5b8063715018a6146103ae578063893d20e8146103c35780638da5cb5b146103c357806390e3677f146103e857600080fd5b8063249dfad7116101cc578063249dfad71461031b57806354abe9d0146103405780635b0d59841461036057806365715c561461038e57600080fd5b806302751cec1461024157806309b16a221461027b57806310224711146102b35780632195995c146102fb57600080fd5b3661023c57336001600160a01b037f0000000000000000000000000000000000000000000000000000000000000000161461023a5761023a613506565b005b600080fd5b34801561024d57600080fd5b5061026161025c366004613531565b610747565b604080519283526020830191909152015b60405180910390f35b34801561028757600080fd5b5060085461029b906001600160a01b031681565b6040516001600160a01b039091168152602001610272565b3480156102bf57600080fd5b506102e66102ce36600461359c565b600d6020526000908152604090205463ffffffff1681565b60405163ffffffff9091168152602001610272565b34801561030757600080fd5b506102616103163660046135dd565b61086c565b34801561032757600080fd5b5060005461029b9061010090046001600160a01b031681565b34801561034c57600080fd5b5061023a61035b366004613687565b61093e565b34801561036c57600080fd5b5061038061037b3660046136a4565b610a62565b604051908152602001610272565b34801561039a57600080fd5b5060015461029b906001600160a01b031681565b3480156103ba57600080fd5b5061023a610b48565b3480156103cf57600080fd5b50600e54630100000090046001600160a01b031661029b565b3480156103f457600080fd5b5061023a61040336600461373a565b610bb6565b34801561041457600080fd5b5061023a610423366004613785565b610c54565b34801561043457600080fd5b5061023a61044336600461381a565b610e0e565b34801561045457600080fd5b5060075461029b906001600160a01b031681565b34801561047457600080fd5b5061029b61048336600461373a565b600b6020908152600092835260408084209091529082529020546001600160a01b031681565b3480156104b557600080fd5b506102616104c436600461385a565b610fbc565b3480156104d557600080fd5b506102616104e436600461389b565b61116f565b3480156104f557600080fd5b5061029b7f000000000000000000000000000000000000000000000000000000000000000081565b34801561052957600080fd5b5061038061053836600461390d565b6111ee565b34801561054957600080fd5b50610380610558366004613531565b611205565b34801561056957600080fd5b5061057d610578366004613939565b6113ff565b60408051938452602084019290925290820152606001610272565b3480156105a457600080fd5b506102616105b336600461389b565b6115e6565b3480156105c457600080fd5b506103806105d3366004613687565b611642565b3480156105e457600080fd5b5061023a6105f33660046139b5565b6116dd565b34801561060457600080fd5b5061023a610613366004613a2a565b611b70565b34801561062457600080fd5b506102616106333660046136a4565b611d35565b34801561064457600080fd5b5061029b61065336600461373a565b611e21565b34801561066457600080fd5b5061057d610673366004613939565b611ea1565b34801561068457600080fd5b5061023a610693366004613687565b612054565b61057d6106a6366004613531565b612124565b3480156106b757600080fd5b50600c5461029b906001600160a01b031681565b3480156106d757600080fd5b5060095461029b906001600160a01b031681565b3480156106f757600080fd5b50610738610706366004613687565b600a60205260009081526040902080546001909101546001600160a01b0391821691811690600160a01b900460ff1683565b60405161027293929190613ac8565b60008082601b428210156107775760405162461bcd60e51b815260040161076e9190613af5565b60405180910390fd5b50610784600460016123e5565b6107b2897f00000000000000000000000000000000000000000000000000000000000000008a8a8a306124b4565b60025491945092506107d4908a903090889087906001600160a01b031661292e565b604051632e1a7d4d60e01b8152600481018390527f00000000000000000000000000000000000000000000000000000000000000006001600160a01b031690632e1a7d4d90602401600060405180830381600087803b15801561083657600080fd5b505af115801561084a573d6000803e3d6000fd5b5050505061085885836129c2565b610860612a8b565b50965096945050505050565b6001600160a01b03808c166000908152600b602090815260408083208e85168452909152812054909182911681876108a4578c6108a8565b6000195b60405163d505accf60e01b81529091506001600160a01b0383169063d505accf906108e3903390309086908f908e908e908e90600401613b9c565b600060405180830381600087803b1580156108fd57600080fd5b505af1158015610911573d6000803e3d6000fd5b505050506109248f8f8f8f8f8f8f6115e6565b809450819550505050509b509b9950505050505050505050565b60005461010090046001600160a01b031633148061095b57503330145b806109895750600e54630100000090046001600160a01b03166001600160a01b0316336001600160a01b0316145b6109a55760405162461bcd60e51b815260040161076e90613bdd565b6001600160a01b0381163014610a35576001546001600160a01b03908116906354abe9d0908316156109d757826109d9565b305b6040516001600160e01b031960e084901b1681526001600160a01b039091166004820152602401600060405180830381600087803b158015610a1a57600080fd5b505af1158015610a2e573d6000803e3d6000fd5b5050505050565b6040517ffd3415c24b2b4519f08b7935c13f86ea010c77b3ff9bf448a474ae3b2414fce090600090a15b50565b6001600160a01b03808b166000908152600b602090815260408083207f0000000000000000000000000000000000000000000000000000000000000000851684529091528120549091168186610ab8578b610abc565b6000195b60405163d505accf60e01b81529091506001600160a01b0383169063d505accf90610af7903390309086908e908d908d908d90600401613b9c565b600060405180830381600087803b158015610b1157600080fd5b505af1158015610b25573d6000803e3d6000fd5b50505050610b378d8d8d8d8d8d611205565b9d9c50505050505050505050505050565b600e546001600160a01b036301000000909104163314610baa5760405162461bcd60e51b815260206004820181905260248201527f4f776e61626c653a2063616c6c6572206973206e6f7420746865206f776e6572604482015260640161076e565b610bb46000612af5565b565b600e54630100000090046001600160a01b03166001600160a01b0316336001600160a01b031614610c1c5760405162461bcd60e51b815260206004820152601060248201526f496e76616c69642063616c6c6572203360801b604482015260640161076e565b60008054610100600160a81b0319166101006001600160a01b0394851602179055600180546001600160a01b03191691909216179055565b60005461010090046001600160a01b0316331480610c7157503330145b80610c9f5750600e54630100000090046001600160a01b03166001600160a01b0316336001600160a01b0316145b610cbb5760405162461bcd60e51b815260040161076e90613bdd565b6001600160a01b0381163014610dcf57600e5462010000900460ff1615610d4957604051634f18125b60e01b815273__$88bebae22a3ad6e62b56c303176513ecf8$__90634f18125b90610d18908690600d908790600401613c17565b60006040518083038186803b158015610d3057600080fd5b505af4158015610d44573d6000803e3d6000fd5b505050505b60006001600160a01b03821615610d605781610d62565b305b6001546040516391fd0db760e01b81529192506001600160a01b0316906391fd0db790610d9790879087908690600401613c3f565b600060405180830381600087803b158015610db157600080fd5b505af1158015610dc5573d6000803e3d6000fd5b5050505050505050565b7fb4040436d4754da72f29d5b97fe68448f30d44ac0e08b33545cbf6f28b7641d98383604051610e00929190613c6e565b60405180910390a15b505050565b60005461010090046001600160a01b0316331480610e2b57503330145b80610e595750600e54630100000090046001600160a01b03166001600160a01b0316336001600160a01b0316145b610e755760405162461bcd60e51b815260040161076e90613bdd565b6001600160a01b0381163014610f8b5760405163085b199160e11b815273__$88bebae22a3ad6e62b56c303176513ecf8$__906310b6332290610ec19086908690600290600401613c8f565b60006040518083038186803b158015610ed957600080fd5b505af4158015610eed573d6000803e3d6000fd5b5060009250610efa915050565b836004811115610f0c57610f0c613a9e565b03610f3d57601380546001600160a01b0384166001600160a01b031991821681179092556014805490911690911790555b60006001600160a01b03821615610f545781610f56565b305b6001546040516349443ceb60e11b81529192506001600160a01b03169063928879d690610d9790879087908690600401613cb9565b7fb45c42dda0a5ab1d1078e0afeda2976363eff9496a93644e726862f1f06186b88383604051610e00929190613ce4565b6001600160a01b038381166000908152600b6020908152604080832086851684529091528082205490516370a0823160e01b815233600482015291928392911690849082906370a0823190602401602060405180830381865afa158015611027573d6000803e3d6000fd5b505050506040513d601f19601f8201168201806040525081019061104b9190613d09565b10156110bc576040516370a0823160e01b81523360048201526001600160a01b038216906370a0823190602401602060405180830381865afa158015611095573d6000803e3d6000fd5b505050506040513d601f19601f820116820180604052508101906110b99190613d09565b93505b604051632c855c9960e21b81526004810185905260009081906001600160a01b0384169063b2157264906024016040805180830381865afa158015611105573d6000803e3d6000fd5b505050506040513d601f19601f820116820180604052508101906111299190613d22565b9150915060006111398989612b53565b509050806001600160a01b0316896001600160a01b03161461115c57818361115f565b82825b909a909950975050505050505050565b60008082601b428210156111965760405162461bcd60e51b815260040161076e9190613af5565b506002546001600160a01b0316336001600160a01b0316146015906111ce5760405162461bcd60e51b815260040161076e9190613af5565b506111dd8a8a8a8a8a8a6124b4565b909b909a5098505050505050505050565b60006111fb848484612c35565b90505b9392505050565b600081601b4282101561122b5760405162461bcd60e51b815260040161076e9190613af5565b50611238600460016123e5565b6040516370a0823160e01b81523060048201526000906001600160a01b038a16906370a0823190602401602060405180830381865afa15801561127f573d6000803e3d6000fd5b505050506040513d601f19601f820116820180604052508101906112a39190613d09565b90506112d3897f00000000000000000000000000000000000000000000000000000000000000008a8a8a306124b4565b6040516370a0823160e01b8152306004820181905291955061136792508b9190889085906001600160a01b038516906370a0823190602401602060405180830381865afa158015611328573d6000803e3d6000fd5b505050506040513d601f19601f8201168201806040525081019061134c9190613d09565b6113569190613d5c565b6002546001600160a01b031661292e565b604051632e1a7d4d60e01b8152600481018490527f00000000000000000000000000000000000000000000000000000000000000006001600160a01b031690632e1a7d4d90602401600060405180830381600087803b1580156113c957600080fd5b505af11580156113dd573d6000803e3d6000fd5b505050506113eb85846129c2565b6113f3612a8b565b50509695505050505050565b6000808083601b428210156114275760405162461bcd60e51b815260040161076e9190613af5565b506002546001600160a01b0316336001600160a01b03161460159061145f5760405162461bcd60e51b815260040161076e9190613af5565b5061146e8c8c8c8c8c8c612cf7565b80945081955050506000600b60008e6001600160a01b03166001600160a01b0316815260200190815260200160002060008d6001600160a01b03166001600160a01b0316815260200190815260200160002060009054906101000a90046001600160a01b031690506114df81612f1f565b6002546114fc908e903390849089906001600160a01b031661292e565b600254611519908d903390849088906001600160a01b031661292e565b6040516335313c2160e11b81523060048201526001600160a01b03821690636a627842906024016020604051808303816000875af115801561155f573d6000803e3d6000fd5b505050506040513d601f19601f820116820180604052508101906115839190613d09565b6002549093506001600160a01b038e8116911614806115af57506002546001600160a01b038d81169116145b156115cb576115be8184612f9a565b6115c89084613d5c565b92505b6115d6818885613028565b5050985098509895505050505050565b60008082601b4282101561160d5760405162461bcd60e51b815260040161076e9190613af5565b5061161a600460016123e5565b6116288a8a8a8a8a8a6124b4565b9093509150611635612a8b565b5097509795505050505050565b60065460009081908190611680906001600160a01b0316857f000000000000000000000000000000000000000000000000000000000000000061313c565b9150915060006116b0857f0000000000000000000000000000000000000000000000000000000000000000612b53565b509050846001600160a01b0316816001600160a01b0316146116d257816116d4565b825b95945050505050565b60005461010090046001600160a01b03163314806116fa57503330145b806117285750600e54630100000090046001600160a01b03166001600160a01b0316336001600160a01b0316145b6117445760405162461bcd60e51b815260040161076e90613bdd565b6001600160a01b0381163014611b2c57600e5460ff1615611aa2576040518060600160405280856001600160a01b03168152602001846001600160a01b0316815260200183600381111561179a5761179a613a9e565b90526001600160a01b038087166000908152600a6020908152604091829020845181549085166001600160a01b0319918216178255918501516001820180549190951692811683178555928501519093909290916001600160a81b031990911617600160a01b83600381111561181257611812613a9e565b021790555050506001600160a01b038085166000818152600b60208181526040808420898716855282528084208054878d166001600160a01b03199182168117909255938352818520958552949091529182902080549091169092179091556002549051633fe59dbb60e11b815273__$88bebae22a3ad6e62b56c303176513ecf8$__92637fcb3b76926118c492899289921690730dcd1bf9a1b36ce34237eeafef220932846bcd8290600401613d73565b602060405180830381865af41580156118e1573d6000803e3d6000fd5b505050506040513d601f19601f820116820180604052508101906119059190613d9e565b1561192657600780546001600160a01b0319166001600160a01b0387161790555b600254604051633fe59dbb60e11b815273__$88bebae22a3ad6e62b56c303176513ecf8$__91637fcb3b769161198291889188916001600160a01b031690735fc8d32690cc91d4c39d9d3abcbd16989f87570790600401613d73565b602060405180830381865af415801561199f573d6000803e3d6000fd5b505050506040513d601f19601f820116820180604052508101906119c39190613d9e565b156119e457600880546001600160a01b0319166001600160a01b0387161790555b600254604051633fe59dbb60e11b815273__$88bebae22a3ad6e62b56c303176513ecf8$__91637fcb3b7691611a4091889188916001600160a01b03169073b7f8bc63bbcad18155201308c8f3540b07f84f5e90600401613d73565b602060405180830381865af4158015611a5d573d6000803e3d6000fd5b505050506040513d601f19601f82011682018060405250810190611a819190613d9e565b15611aa257600980546001600160a01b0319166001600160a01b0387161790555b60006001600160a01b03821615611ab95781611abb565b305b60015460405163cd193c4360e01b81529192506001600160a01b03169063cd193c4390611af49089908990899089908890600401613dbb565b600060405180830381600087803b158015611b0e57600080fd5b505af1158015611b22573d6000803e3d6000fd5b5050505050610a2e565b7f7af36d96fdc569564b9fadb22716716fe33463cb7fc8dca4fbd79d40448acdf285858585604051611b619493929190613dfd565b60405180910390a15050505050565b60005461010090046001600160a01b0316331480611b8d57503330145b80611bbb5750600e54630100000090046001600160a01b03166001600160a01b0316336001600160a01b0316145b611bd75760405162461bcd60e51b815260040161076e90613bdd565b6001600160a01b0381163014611cf457600e54610100900460ff1615611c6b57604051633d8d54b760e11b8152600c600482015282516001600160a01b0316602482015273__$88bebae22a3ad6e62b56c303176513ecf8$__90637b1aa96e9060440160006040518083038186803b158015611c5257600080fd5b505af4158015611c66573d6000803e3d6000fd5b505050505b60006001600160a01b03821615611c825781611c84565b305b600154604051633376489360e21b815285516001600160a01b039081166004830152808416602483015292935091169063cdd9224c90604401600060405180830381600087803b158015611cd757600080fd5b505af1158015611ceb573d6000803e3d6000fd5b50505050505050565b60405182516001600160a01b031681527f275664547227ddbc7a8a732c07c9346f2f4520de70c2088665cc6809534212c09060200160405180910390a15050565b6001600160a01b03808b166000908152600b602090815260408083207f00000000000000000000000000000000000000000000000000000000000000008516845290915281205490918291168187611d8d578c611d91565b6000195b60405163d505accf60e01b81529091506001600160a01b0383169063d505accf90611dcc903390309086908f908e908e908e90600401613b9c565b600060405180830381600087803b158015611de657600080fd5b505af1158015611dfa573d6000803e3d6000fd5b50505050611e0c8e8e8e8e8e8e610747565b909f909e509c50505050505050505050505050565b60065460405163e6a4390560e01b81526001600160a01b0384811660048301528381166024830152600092169063e6a4390590604401602060405180830381865afa158015611e74573d6000803e3d6000fd5b505050506040513d601f19601f82011682018060405250810190611e989190613e2a565b90505b92915050565b6000808083601b42821015611ec95760405162461bcd60e51b815260040161076e9190613af5565b50611ed6600360016123e5565b611ee48c8c8c8c8c8c612cf7565b80945081955050506000600b60008e6001600160a01b03166001600160a01b0316815260200190815260200160002060008d6001600160a01b03166001600160a01b0316815260200190815260200160002060009054906101000a90046001600160a01b03169050611f5581612f1f565b600254611f72908e903390849089906001600160a01b031661292e565b600254611f8f908d903390849088906001600160a01b031661292e565b6040516335313c2160e11b81523060048201526001600160a01b03821690636a627842906024016020604051808303816000875af1158015611fd5573d6000803e3d6000fd5b505050506040513d601f19601f82011682018060405250810190611ff99190613d09565b6002549093506001600160a01b038e81169116148061202557506002546001600160a01b038d81169116145b15612041576120348184612f9a565b61203e9084613d5c565b92505b61204c818885613028565b6115d6612a8b565b600e546001600160a01b0363010000009091041633146120b65760405162461bcd60e51b815260206004820181905260248201527f4f776e61626c653a2063616c6c6572206973206e6f7420746865206f776e6572604482015260640161076e565b6001600160a01b03811661211b5760405162461bcd60e51b815260206004820152602660248201527f4f776e61626c653a206e6577206f776e657220697320746865207a65726f206160448201526564647265737360d01b606482015260840161076e565b610a5f81612af5565b6000808083601b4282101561214c5760405162461bcd60e51b815260040161076e9190613af5565b50612159600360016123e5565b6121878a7f00000000000000000000000000000000000000000000000000000000000000008b348c8c612cf7565b6001600160a01b03808d166000908152600b602090815260408083207f000000000000000000000000000000000000000000000000000000000000000085168452909152902054929650909450166121de81612f1f565b6002546121fb908c903390849089906001600160a01b031661292e565b7f00000000000000000000000000000000000000000000000000000000000000006001600160a01b031663d0e30db0856040518263ffffffff1660e01b81526004016000604051808303818588803b15801561225657600080fd5b505af115801561226a573d6000803e3d6000fd5b505060405163a9059cbb60e01b81526001600160a01b038581166004830152602482018990527f000000000000000000000000000000000000000000000000000000000000000016935063a9059cbb925060440190506020604051808303816000875af11580156122df573d6000803e3d6000fd5b505050506040513d601f19601f820116820180604052508101906123039190613d9e565b61230f5761230f613506565b6040516335313c2160e11b81523060048201526001600160a01b03821690636a627842906024016020604051808303816000875af1158015612355573d6000803e3d6000fd5b505050506040513d601f19601f820116820180604052508101906123799190613d09565b6002549093506001600160a01b03908116908c16036123a95761239c8184612f9a565b6123a69084613d5c565b92505b6123b4818885613028565b833411156123cf576123cf336123ca8634613d5c565b6129c2565b6123d7612a8b565b505096509650969350505050565b601354604051634be5482760e01b81526001600160a01b0390911690634be54827906124179085908590600401613e47565b6080604051808303816000875af1158015612436573d6000803e3d6000fd5b505050506040513d601f19601f8201168201806040525081019061245a9190613e63565b8051600f8054909190829060ff1916600183600481111561247d5761247d613a9e565b021790555060208201516001820155604082015160028201556060909101516003909101805460ff19169115159190911790555050565b6001600160a01b038087166000908152600b602090815260408083208985168452825280832054815160e081018352941680855291840183905283810183905260608085018490526080850184905260a0850184905260c085018490528151630240bc6b60e21b815291519394859490928492630902f1ac926004808401938290030181865afa15801561254c573d6000803e3d6000fd5b505050506040513d601f19601f820116820180604052508101906125709190613efd565b506001600160701b0390811660808401521660608201526003546010546040516303449d7160e01b81526001600160a01b03909216916303449d71916125ba918590600401613f91565b600060405180830381600087803b1580156125d457600080fd5b505af11580156125e8573d6000803e3d6000fd5b50506040516370a0823160e01b81523360048201528a92506001600160a01b03851691506370a0823190602401602060405180830381865afa158015612632573d6000803e3d6000fd5b505050506040513d601f19601f820116820180604052508101906126569190613d09565b10156126c7576040516370a0823160e01b81523360048201526001600160a01b038316906370a0823190602401602060405180830381865afa1580156126a0573d6000803e3d6000fd5b505050506040513d601f19601f820116820180604052508101906126c49190613d09565b97505b6126d38233308b613212565b6002546001600160a01b038b8116911614806126fc57506002546001600160a01b038a81169116145b156127185761270b8289612f9a565b6127159089613d5c565b97505b61272382838a613028565b60405163226bf2d160e21b81526001600160a01b03868116600483015260009182918516906389afcb449060240160408051808303816000875af115801561276f573d6000803e3d6000fd5b505050506040513d601f19601f820116820180604052508101906127939190613d22565b91509150836001600160a01b0316630902f1ac6040518163ffffffff1660e01b8152600401606060405180830381865afa1580156127d5573d6000803e3d6000fd5b505050506040513d601f19601f820116820180604052508101906127f99190613efd565b506001600160701b039081166080860152166060840152600e54630100000090046001600160a01b03166001600160a01b0316336001600160a01b03161461289c57600354604051633cdc0b8560e21b81526001600160a01b039091169063f3702e149061286b908690600401613fa6565b60006040518083038186803b15801561288357600080fd5b505afa158015612897573d6000803e3d6000fd5b505050505b6128a68c8c612b53565b6001600160a01b03908116604086015290811660208501819052908d16146128cf5780826128d2565b81815b90965094506018898710156128fa5760405162461bcd60e51b815260040161076e9190613af5565b5060198886101561291e5760405162461bcd60e51b815260040161076e9190613af5565b5050505050965096945050505050565b806001600160a01b0316856001600160a01b0316036129b65760405163cd537aa160e01b81526001600160a01b03858116600483015284811660248301526044820184905286169063cd537aa190606401600060405180830381600087803b15801561299957600080fd5b505af11580156129ad573d6000803e3d6000fd5b50505050610a2e565b610a2e85858585613212565b604080516000808252602082019092526001600160a01b0384169083906040516129ec9190613fb4565b60006040518083038185875af1925050503d8060008114612a29576040519150601f19603f3d011682016040523d82523d6000602084013e612a2e565b606091505b5050905080610e095760405162461bcd60e51b815260206004820152602360248201527f5472616e7366657248656c7065723a204554485f5452414e534645525f46414960448201526213115160ea1b606482015260840161076e565b601360009054906101000a90046001600160a01b03166001600160a01b031663431b3c306040518163ffffffff1660e01b8152600401600060405180830381600087803b158015612adb57600080fd5b505af1158015612aef573d6000803e3d6000fd5b50505050565b600e80546001600160a01b0383811663010000008181026301000000600160b81b031985161790945560405193909204169182907f8be0079c531659141344cd1fd0a4f28419497f9722a3daafe3b4186f6b6457e090600090a35050565b600080826001600160a01b0316846001600160a01b031603612bb75760405162461bcd60e51b815260206004820152601d60248201527f584c6962726172793a204944454e544943414c5f414444524553534553000000604482015260640161076e565b826001600160a01b0316846001600160a01b031610612bd7578284612bda565b83835b90925090506001600160a01b038216612c2e5760405162461bcd60e51b8152602060048201526016602482015275584c6962726172793a205a45524f5f4144445245535360501b604482015260640161076e565b9250929050565b6000808411612c865760405162461bcd60e51b815260206004820152601d60248201527f584c6962726172793a20494e53554646494349454e545f414d4f554e54000000604482015260640161076e565b600083118015612c965750600082115b612ce25760405162461bcd60e51b815260206004820181905260248201527f584c6962726172793a20494e53554646494349454e545f4c4951554944495459604482015260640161076e565b82612ced8584613342565b6111fb9190613fef565b60065460405163e6a4390560e01b81526001600160a01b0388811660048301528781166024830152600092839283929091169063e6a4390590604401602060405180830381865afa158015612d50573d6000803e3d6000fd5b505050506040513d601f19601f82011682018060405250810190612d749190613e2a565b6001600160a01b031603612dfc576006546040516364e329cb60e11b81526001600160a01b038a8116600483015289811660248301529091169063c9c65396906044016020604051808303816000875af1158015612dd6573d6000803e3d6000fd5b505050506040513d601f19601f82011682018060405250810190612dfa9190613e2a565b505b6006546000908190612e18906001600160a01b03168b8b61313c565b91509150816000148015612e2a575080155b15612e3a57879350869250612eca565b6000612e47898484612c35565b9050878111612e7f57601986821015612e735760405162461bcd60e51b815260040161076e9190613af5565b50889450925082612ec8565b6000612e8c898486612c35565b905089811115612e9e57612e9e613506565b601888821015612ec15760405162461bcd60e51b815260040161076e9190613af5565b5094508793505b505b601886851015612eed5760405162461bcd60e51b815260040161076e9190613af5565b50601985841015612f115760405162461bcd60e51b815260040161076e9190613af5565b505050965096945050505050565b60026001600160a01b0382166000908152600a6020526040902060010154600160a01b900460ff166003811115612f5857612f58613a9e565b14610a5f5760405162461bcd60e51b81526020600482015260126024820152711614185a5c881b9bdd08195b9b1a5cdd195960721b604482015260640161076e565b60125460009060ff1615611e9b57600f54611e9890849030908590600d9060009060ff166004811115612fcf57612fcf613a9e565b6004811115612fe057612fe0613a9e565b8152602080820192909252604090810160002081518084018352905463ffffffff1681528151928301909152600c546001600160a01b039081168352600254919291166133c4565b604080516001600160a01b038481166024830152604480830185905283518084039091018152606490920183526020820180516001600160e01b031663a9059cbb60e01b17905291516000928392908716916130849190613fb4565b6000604051808303816000865af19150503d80600081146130c1576040519150601f19603f3d011682016040523d82523d6000602084013e6130c6565b606091505b50915091508180156130f05750805115806130f05750808060200190518101906130f09190613d9e565b610a2e5760405162461bcd60e51b815260206004820152601f60248201527f5472616e7366657248656c7065723a205452414e534645525f4641494c454400604482015260640161076e565b600080600061314b8585612b53565b50905061315986868661342d565b5060008061316888888861342d565b6001600160a01b0316630902f1ac6040518163ffffffff1660e01b8152600401606060405180830381865afa1580156131a5573d6000803e3d6000fd5b505050506040513d601f19601f820116820180604052508101906131c99190613efd565b506001600160701b031691506001600160701b03169150826001600160a01b0316876001600160a01b031614613200578082613203565b81815b90999098509650505050505050565b604080516001600160a01b0385811660248301528481166044830152606480830185905283518084039091018152608490920183526020820180516001600160e01b03166323b872dd60e01b17905291516000928392908816916132769190613fb4565b6000604051808303816000865af19150503d80600081146132b3576040519150601f19603f3d011682016040523d82523d6000602084013e6132b8565b606091505b50915091508180156132e25750805115806132e25750808060200190518101906132e29190613d9e565b61333a5760405162461bcd60e51b8152602060048201526024808201527f5472616e7366657248656c7065723a205452414e534645525f46524f4d5f46416044820152631253115160e21b606482015260840161076e565b505050505050565b60008260000361335457506000611e9b565b60006133608385614011565b90508261336d8583613fef565b14611e985760405162461bcd60e51b815260206004820152602160248201527f536166654d6174683a206d756c7469706c69636174696f6e206f766572666c6f6044820152607760f81b606482015260840161076e565b600080851561342257845163ffffffff1615613422576133e66005600a614114565b85516133f89063ffffffff1688614011565b6134029190613fef565b905061341588888660000151848761292e565b61341f8183614120565b91505b509695505050505050565b600080600061343c8585612b53565b6040516bffffffffffffffffffffffff19606084811b8216602084015283901b16603482015291935091508690604801604051602081830303815290604052805190602001206040516020016134e49291906001600160f81b0319815260609290921b6bffffffffffffffffffffffff1916600183015260158201527f562e5b2650c02d5d7fa342294a3ae06efde7864de45855a7b7e97d770b2e0312603582015260550190565b60408051601f1981840301815291905280516020909101209695505050505050565b634e487b7160e01b600052600160045260246000fd5b6001600160a01b0381168114610a5f57600080fd5b60008060008060008060c0878903121561354a57600080fd5b86356135558161351c565b9550602087013594506040870135935060608701359250608087013561357a8161351c565b8092505060a087013590509295509295509295565b60058110610a5f57600080fd5b6000602082840312156135ae57600080fd5b8135611e988161358f565b8015158114610a5f57600080fd5b803560ff811681146135d857600080fd5b919050565b60008060008060008060008060008060006101608c8e0312156135ff57600080fd5b8b3561360a8161351c565b9a5060208c013561361a8161351c565b995060408c0135985060608c0135975060808c0135965060a08c013561363f8161351c565b955060c08c0135945060e08c0135613656816135b9565b93506136656101008d016135c7565b92506101208c013591506101408c013590509295989b509295989b9093969950565b60006020828403121561369957600080fd5b8135611e988161351c565b6000806000806000806000806000806101408b8d0312156136c457600080fd5b8a356136cf8161351c565b995060208b0135985060408b0135975060608b0135965060808b01356136f48161351c565b955060a08b0135945060c08b013561370b816135b9565b935061371960e08c016135c7565b92506101008b013591506101208b013590509295989b9194979a5092959850565b6000806040838503121561374d57600080fd5b82356137588161351c565b915060208301356137688161351c565b809150509250929050565b63ffffffff81168114610a5f57600080fd5b6000806000838503606081121561379b57600080fd5b84356137a68161358f565b93506020601f19820112156137ba57600080fd5b506040516020810181811067ffffffffffffffff821117156137ec57634e487b7160e01b600052604160045260246000fd5b60405260208501356137fd81613773565b81529150604084013561380f8161351c565b809150509250925092565b60008060006060848603121561382f57600080fd5b833561383a8161358f565b9250602084013561384a8161351c565b9150604084013561380f8161351c565b60008060006060848603121561386f57600080fd5b833561387a8161351c565b9250602084013561388a8161351c565b929592945050506040919091013590565b600080600080600080600060e0888a0312156138b657600080fd5b87356138c18161351c565b965060208801356138d18161351c565b955060408801359450606088013593506080880135925060a08801356138f68161351c565b8092505060c0880135905092959891949750929550565b60008060006060848603121561392257600080fd5b505081359360208301359350604090920135919050565b600080600080600080600080610100898b03121561395657600080fd5b88356139618161351c565b975060208901356139718161351c565b965060408901359550606089013594506080890135935060a0890135925060c089013561399d8161351c565b8092505060e089013590509295985092959890939650565b600080600080600060a086880312156139cd57600080fd5b85356139d88161351c565b945060208601356139e88161351c565b935060408601356139f88161351c565b9250606086013560048110613a0c57600080fd5b91506080860135613a1c8161351c565b809150509295509295909350565b6000808284036040811215613a3e57600080fd5b6020811215613a4c57600080fd5b506040516020810181811067ffffffffffffffff82111715613a7e57634e487b7160e01b600052604160045260246000fd5b6040528335613a8c8161351c565b8152915060208301356137688161351c565b634e487b7160e01b600052602160045260246000fd5b60048110613ac457613ac4613a9e565b9052565b6001600160a01b0384811682528316602082015260608101613aed6040830184613ab4565b949350505050565b600060208083526000845481600182811c915080831680613b1757607f831692505b8583108103613b3457634e487b7160e01b85526022600452602485fd5b878601838152602001818015613b515760018114613b6257613b8d565b60ff19861682528782019650613b8d565b60008b81526020902060005b86811015613b8757815484820152908501908901613b6e565b83019750505b50949998505050505050505050565b6001600160a01b0397881681529590961660208601526040850193909352606084019190915260ff16608083015260a082015260c081019190915260e00190565b60208082526010908201526f496e76616c69642063616c6c6572203160801b604082015260600190565b60058110610a5f57610a5f613a9e565b60608101613c2485613c07565b93815260208101929092525163ffffffff1660409091015290565b60608101613c4c85613c07565b938152915163ffffffff1660208301526001600160a01b031660409091015290565b60408101613c7b84613c07565b928152905163ffffffff1660209091015290565b60608101613c9c85613c07565b9381526001600160a01b0392909216602083015260409091015290565b60608101613cc685613c07565b9381526001600160a01b039283166020820152911660409091015290565b60408101613cf184613c07565b9281526001600160a01b039190911660209091015290565b600060208284031215613d1b57600080fd5b5051919050565b60008060408385031215613d3557600080fd5b505080516020909101519092909150565b634e487b7160e01b600052601160045260246000fd5b600082821015613d6e57613d6e613d46565b500390565b6001600160a01b03948516815292841660208401529083166040830152909116606082015260800190565b600060208284031215613db057600080fd5b8151611e98816135b9565b6001600160a01b0386811682528581166020830152848116604083015260a0820190613dea6060840186613ab4565b8084166080840152509695505050505050565b6001600160a01b038581168252848116602083015283166040820152608081016116d46060830184613ab4565b600060208284031215613e3c57600080fd5b8151611e988161351c565b60408101613e5484613c07565b92815290151560209091015290565b600060808284031215613e7557600080fd5b6040516080810181811067ffffffffffffffff82111715613ea657634e487b7160e01b600052604160045260246000fd5b6040528251613eb48161358f565b8082525060208301516020820152604083015160408201526060830151613eda816135b9565b60608201529392505050565b80516001600160701b03811681146135d857600080fd5b600080600060608486031215613f1257600080fd5b613f1b84613ee6565b9250613f2960208501613ee6565b9150604084015161380f81613773565b60018060a01b0380825116835280602083015116602084015280604083015116604084015250606081015160608301526080810151608083015260ff60a08201511660a083015260ff60c08201511660c08301525050565b82815261010081016111fe6020830184613f39565b60e08101611e9b8284613f39565b6000825160005b81811015613fd55760208186018101518583015201613fbb565b81811115613fe4576000828501525b509190910192915050565b60008261400c57634e487b7160e01b600052601260045260246000fd5b500490565b600081600019048311821515161561402b5761402b613d46565b500290565b600181815b8085111561406b57816000190482111561405157614051613d46565b8085161561405e57918102915b93841c9390800290614035565b509250929050565b60008261408257506001611e9b565b8161408f57506000611e9b565b81600181146140a557600281146140af576140cb565b6001915050611e9b565b60ff8411156140c0576140c0613d46565b50506001821b611e9b565b5060208310610133831016604e8410600b84101617156140ee575081810a611e9b565b6140f88383614030565b806000190482111561410c5761410c613d46565b029392505050565b6000611e988383614073565b6000821982111561413357614133613d46565b50019056fea2646970667358221220735b2699c9082b9ad0c4cc5afa878acec8fd28ea0793d58d2018bf6a7fe2641164736f6c634300080e00335854616b65723a20496e73756666696369656e74206f757470757420616d6f756e74",
  "linkReferences": {
    "contracts/libraries/WireLibrary.sol": {
      "WireLibrary": [
        {
          "length": 20,
          "start": 4346
        },
        {
          "length": 20,
          "start": 4771
        },
        {
          "length": 20,
          "start": 7313
        },
        {
          "length": 20,
          "start": 7495
        },
        {
          "length": 20,
          "start": 7685
        },
        {
          "length": 20,
          "start": 8236
        }
      ]
    }
  },
  "deployedLinkReferences": {
    "contracts/libraries/WireLibrary.sol": {
      "WireLibrary": [
        {
          "length": 20,
          "start": 3307
        },
        {
          "length": 20,
          "start": 3732
        },
        {
          "length": 20,
          "start": 6274
        },
        {
          "length": 20,
          "start": 6456
        },
        {
          "length": 20,
          "start": 6646
        },
        {
          "length": 20,
          "start": 7197
        }
      ]
    }
  }
}