{
  "_format": "hh-sol-artifact-1",
  "contractName": "XMaker",
  "sourceName": "contracts/periphery/XMaker.sol",
  "abi": [
    {
      "inputs": [
        {
          "internalType": "address",
          "name": "_WETH",
          "type": "address"
        }
      ],
      "stateMutability": "nonpayable",
      "type": "constructor"
    },
    {
      "anonymous": false,
      "inputs": [],
      "name": "Begin",
      "type": "event"
    },
    {
      "anonymous": false,
      "inputs": [
        {
          "indexed": false,
          "internalType": "address",
          "name": "pair",
          "type": "address"
        },
        {
          "indexed": false,
          "internalType": "address",
          "name": "tokenA",
          "type": "address"
        },
        {
          "indexed": false,
          "internalType": "address",
          "name": "tokenB",
          "type": "address"
        },
        {
          "indexed": false,
          "internalType": "enum ListStatus",
          "name": "status",
          "type": "uint8"
        }
      ],
      "name": "ChangePairStatus",
      "type": "event"
    },
    {
      "anonymous": false,
      "inputs": [
        {
          "indexed": false,
          "internalType": "address",
          "name": "token",
          "type": "address"
        },
        {
          "indexed": false,
          "internalType": "address",
          "name": "msgSender",
          "type": "address"
        }
      ],
      "name": "DeenlistToken",
      "type": "event"
    },
    {
      "anonymous": false,
      "inputs": [
        {
          "indexed": true,
          "internalType": "address",
          "name": "previousOwner",
          "type": "address"
        },
        {
          "indexed": true,
          "internalType": "address",
          "name": "newOwner",
          "type": "address"
        }
      ],
      "name": "OwnershipTransferred",
      "type": "event"
    },
    {
      "anonymous": false,
      "inputs": [
        {
          "indexed": false,
          "internalType": "enum ActionType",
          "name": "_sessionType",
          "type": "uint8"
        },
        {
          "components": [
            {
              "internalType": "uint32",
              "name": "accountant",
              "type": "uint32"
            }
          ],
          "indexed": false,
          "internalType": "struct FeeRates",
          "name": "_feeRates",
          "type": "tuple"
        }
      ],
      "name": "SetFeeRates",
      "type": "event"
    },
    {
      "anonymous": false,
      "inputs": [
        {
          "components": [
            {
              "internalType": "address",
              "name": "accountant",
              "type": "address"
            }
          ],
          "indexed": false,
          "internalType": "struct FeeStores",
          "name": "_feeStores",
          "type": "tuple"
        }
      ],
      "name": "SetFeeStores",
      "type": "event"
    },
    {
      "anonymous": false,
      "inputs": [
        {
          "indexed": false,
          "internalType": "enum NodeType",
          "name": "nodeType",
          "type": "uint8"
        },
        {
          "indexed": false,
          "internalType": "address",
          "name": "node",
          "type": "address"
        }
      ],
      "name": "SetNode",
      "type": "event"
    },
    {
      "inputs": [],
      "name": "WETH",
      "outputs": [
        {
          "internalType": "address",
          "name": "",
          "type": "address"
        }
      ],
      "stateMutability": "view",
      "type": "function"
    },
    {
      "inputs": [
        {
          "internalType": "address",
          "name": "tokenA",
          "type": "address"
        },
        {
          "internalType": "address",
          "name": "tokenB",
          "type": "address"
        },
        {
          "internalType": "uint256",
          "name": "amountADesired",
          "type": "uint256"
        },
        {
          "internalType": "uint256",
          "name": "amountBDesired",
          "type": "uint256"
        },
        {
          "internalType": "uint256",
          "name": "amountAMin",
          "type": "uint256"
        },
        {
          "internalType": "uint256",
          "name": "amountBMin",
          "type": "uint256"
        },
        {
          "internalType": "address",
          "name": "to",
          "type": "address"
        },
        {
          "internalType": "uint256",
          "name": "deadline",
          "type": "uint256"
        }
      ],
      "name": "addLiquidity",
      "outputs": [
        {
          "internalType": "uint256",
          "name": "amountA",
          "type": "uint256"
        },
        {
          "internalType": "uint256",
          "name": "amountB",
          "type": "uint256"
        },
        {
          "internalType": "uint256",
          "name": "liquidity",
          "type": "uint256"
        }
      ],
      "stateMutability": "nonpayable",
      "type": "function"
    },
    {
      "inputs": [
        {
          "internalType": "address",
          "name": "_token",
          "type": "address"
        },
        {
          "internalType": "uint256",
          "name": "amountTokenDesired",
          "type": "uint256"
        },
        {
          "internalType": "uint256",
          "name": "amountTokenMin",
          "type": "uint256"
        },
        {
          "internalType": "uint256",
          "name": "amountETHMin",
          "type": "uint256"
        },
        {
          "internalType": "address",
          "name": "to",
          "type": "address"
        },
        {
          "internalType": "uint256",
          "name": "deadline",
          "type": "uint256"
        }
      ],
      "name": "addLiquidityETH",
      "outputs": [
        {
          "internalType": "uint256",
          "name": "amountToken",
          "type": "uint256"
        },
        {
          "internalType": "uint256",
          "name": "amountETH",
          "type": "uint256"
        },
        {
          "internalType": "uint256",
          "name": "liquidity",
          "type": "uint256"
        }
      ],
      "stateMutability": "payable",
      "type": "function"
    },
    {
      "inputs": [
        {
          "internalType": "address",
          "name": "caller",
          "type": "address"
        }
      ],
      "name": "begin",
      "outputs": [],
      "stateMutability": "nonpayable",
      "type": "function"
    },
    {
      "inputs": [
        {
          "internalType": "address",
          "name": "pair",
          "type": "address"
        },
        {
          "internalType": "address",
          "name": "token0",
          "type": "address"
        },
        {
          "internalType": "address",
          "name": "token1",
          "type": "address"
        },
        {
          "internalType": "enum ListStatus",
          "name": "status",
          "type": "uint8"
        },
        {
          "internalType": "address",
          "name": "caller",
          "type": "address"
        }
      ],
      "name": "changePairStatus",
      "outputs": [],
      "stateMutability": "nonpayable",
      "type": "function"
    },
    {
      "inputs": [
        {
          "internalType": "enum ActionType",
          "name": "",
          "type": "uint8"
        }
      ],
      "name": "feeRates",
      "outputs": [
        {
          "internalType": "uint32",
          "name": "accountant",
          "type": "uint32"
        }
      ],
      "stateMutability": "view",
      "type": "function"
    },
    {
      "inputs": [],
      "name": "feeStores",
      "outputs": [
        {
          "internalType": "address",
          "name": "accountant",
          "type": "address"
        }
      ],
      "stateMutability": "view",
      "type": "function"
    },
    {
      "inputs": [],
      "name": "getOwner",
      "outputs": [
        {
          "internalType": "address",
          "name": "",
          "type": "address"
        }
      ],
      "stateMutability": "view",
      "type": "function"
    },
    {
      "inputs": [
        {
          "internalType": "address",
          "name": "tokenA",
          "type": "address"
        },
        {
          "internalType": "address",
          "name": "tokenB",
          "type": "address"
        }
      ],
      "name": "getPair",
      "outputs": [
        {
          "internalType": "address",
          "name": "pair",
          "type": "address"
        }
      ],
      "stateMutability": "view",
      "type": "function"
    },
    {
      "inputs": [
        {
          "internalType": "address",
          "name": "_token",
          "type": "address"
        }
      ],
      "name": "getReserveOnETHPair",
      "outputs": [
        {
          "internalType": "uint256",
          "name": "reserve",
          "type": "uint256"
        }
      ],
      "stateMutability": "view",
      "type": "function"
    },
    {
      "inputs": [],
      "name": "htzFtm",
      "outputs": [
        {
          "internalType": "address",
          "name": "",
          "type": "address"
        }
      ],
      "stateMutability": "view",
      "type": "function"
    },
    {
      "inputs": [],
      "name": "nextNode",
      "outputs": [
        {
          "internalType": "address",
          "name": "",
          "type": "address"
        }
      ],
      "stateMutability": "view",
      "type": "function"
    },
    {
      "inputs": [],
      "name": "owner",
      "outputs": [
        {
          "internalType": "address",
          "name": "",
          "type": "address"
        }
      ],
      "stateMutability": "view",
      "type": "function"
    },
    {
      "inputs": [
        {
          "internalType": "address",
          "name": "",
          "type": "address"
        },
        {
          "internalType": "address",
          "name": "",
          "type": "address"
        }
      ],
      "name": "pairFor",
      "outputs": [
        {
          "internalType": "address",
          "name": "",
          "type": "address"
        }
      ],
      "stateMutability": "view",
      "type": "function"
    },
    {
      "inputs": [
        {
          "internalType": "address",
          "name": "",
          "type": "address"
        }
      ],
      "name": "pairs",
      "outputs": [
        {
          "internalType": "address",
          "name": "token0",
          "type": "address"
        },
        {
          "internalType": "address",
          "name": "token1",
          "type": "address"
        },
        {
          "internalType": "enum ListStatus",
          "name": "status",
          "type": "uint8"
        }
      ],
      "stateMutability": "view",
      "type": "function"
    },
    {
      "inputs": [],
      "name": "prevNode",
      "outputs": [
        {
          "internalType": "address",
          "name": "",
          "type": "address"
        }
      ],
      "stateMutability": "view",
      "type": "function"
    },
    {
      "inputs": [
        {
          "internalType": "uint256",
          "name": "amountA",
          "type": "uint256"
        },
        {
          "internalType": "uint256",
          "name": "reserveA",
          "type": "uint256"
        },
        {
          "internalType": "uint256",
          "name": "reserveB",
          "type": "uint256"
        }
      ],
      "name": "quote",
      "outputs": [
        {
          "internalType": "uint256",
          "name": "amountB",
          "type": "uint256"
        }
      ],
      "stateMutability": "pure",
      "type": "function"
    },
    {
      "inputs": [
        {
          "internalType": "address",
          "name": "tokenA",
          "type": "address"
        },
        {
          "internalType": "address",
          "name": "tokenB",
          "type": "address"
        },
        {
          "internalType": "uint256",
          "name": "liquidity",
          "type": "uint256"
        },
        {
          "internalType": "uint256",
          "name": "amountAMin",
          "type": "uint256"
        },
        {
          "internalType": "uint256",
          "name": "amountBMin",
          "type": "uint256"
        },
        {
          "internalType": "address",
          "name": "to",
          "type": "address"
        },
        {
          "internalType": "uint256",
          "name": "deadline",
          "type": "uint256"
        }
      ],
      "name": "removeLiquidity",
      "outputs": [
        {
          "internalType": "uint256",
          "name": "amountA",
          "type": "uint256"
        },
        {
          "internalType": "uint256",
          "name": "amountB",
          "type": "uint256"
        }
      ],
      "stateMutability": "nonpayable",
      "type": "function"
    },
    {
      "inputs": [
        {
          "internalType": "address",
          "name": "_token",
          "type": "address"
        },
        {
          "internalType": "uint256",
          "name": "liquidity",
          "type": "uint256"
        },
        {
          "internalType": "uint256",
          "name": "amountTokenMin",
          "type": "uint256"
        },
        {
          "internalType": "uint256",
          "name": "amountETHMin",
          "type": "uint256"
        },
        {
          "internalType": "address",
          "name": "to",
          "type": "address"
        },
        {
          "internalType": "uint256",
          "name": "deadline",
          "type": "uint256"
        }
      ],
      "name": "removeLiquidityETH",
      "outputs": [
        {
          "internalType": "uint256",
          "name": "amountToken",
          "type": "uint256"
        },
        {
          "internalType": "uint256",
          "name": "amountETH",
          "type": "uint256"
        }
      ],
      "stateMutability": "nonpayable",
      "type": "function"
    },
    {
      "inputs": [
        {
          "internalType": "address",
          "name": "_token",
          "type": "address"
        },
        {
          "internalType": "uint256",
          "name": "liquidity",
          "type": "uint256"
        },
        {
          "internalType": "uint256",
          "name": "amountTokenMin",
          "type": "uint256"
        },
        {
          "internalType": "uint256",
          "name": "amountETHMin",
          "type": "uint256"
        },
        {
          "internalType": "address",
          "name": "to",
          "type": "address"
        },
        {
          "internalType": "uint256",
          "name": "deadline",
          "type": "uint256"
        }
      ],
      "name": "removeLiquidityETHSupportingFeeOnTransferTokens",
      "outputs": [
        {
          "internalType": "uint256",
          "name": "amountETH",
          "type": "uint256"
        }
      ],
      "stateMutability": "nonpayable",
      "type": "function"
    },
    {
      "inputs": [
        {
          "internalType": "address",
          "name": "_token",
          "type": "address"
        },
        {
          "internalType": "uint256",
          "name": "liquidity",
          "type": "uint256"
        },
        {
          "internalType": "uint256",
          "name": "amountTokenMin",
          "type": "uint256"
        },
        {
          "internalType": "uint256",
          "name": "amountETHMin",
          "type": "uint256"
        },
        {
          "internalType": "address",
          "name": "to",
          "type": "address"
        },
        {
          "internalType": "uint256",
          "name": "deadline",
          "type": "uint256"
        },
        {
          "internalType": "bool",
          "name": "approveMax",
          "type": "bool"
        },
        {
          "internalType": "uint8",
          "name": "v",
          "type": "uint8"
        },
        {
          "internalType": "bytes32",
          "name": "r",
          "type": "bytes32"
        },
        {
          "internalType": "bytes32",
          "name": "s",
          "type": "bytes32"
        }
      ],
      "name": "removeLiquidityETHWithPermit",
      "outputs": [
        {
          "internalType": "uint256",
          "name": "amountToken",
          "type": "uint256"
        },
        {
          "internalType": "uint256",
          "name": "amountETH",
          "type": "uint256"
        }
      ],
      "stateMutability": "nonpayable",
      "type": "function"
    },
    {
      "inputs": [
        {
          "internalType": "address",
          "name": "_token",
          "type": "address"
        },
        {
          "internalType": "uint256",
          "name": "liquidity",
          "type": "uint256"
        },
        {
          "internalType": "uint256",
          "name": "amountTokenMin",
          "type": "uint256"
        },
        {
          "internalType": "uint256",
          "name": "amountETHMin",
          "type": "uint256"
        },
        {
          "internalType": "address",
          "name": "to",
          "type": "address"
        },
        {
          "internalType": "uint256",
          "name": "deadline",
          "type": "uint256"
        },
        {
          "internalType": "bool",
          "name": "approveMax",
          "type": "bool"
        },
        {
          "internalType": "uint8",
          "name": "v",
          "type": "uint8"
        },
        {
          "internalType": "bytes32",
          "name": "r",
          "type": "bytes32"
        },
        {
          "internalType": "bytes32",
          "name": "s",
          "type": "bytes32"
        }
      ],
      "name": "removeLiquidityETHWithPermitSupportingFeeOnTransferTokens",
      "outputs": [
        {
          "internalType": "uint256",
          "name": "amountETH",
          "type": "uint256"
        }
      ],
      "stateMutability": "nonpayable",
      "type": "function"
    },
    {
      "inputs": [
        {
          "internalType": "address",
          "name": "tokenA",
          "type": "address"
        },
        {
          "internalType": "address",
          "name": "tokenB",
          "type": "address"
        },
        {
          "internalType": "uint256",
          "name": "liquidity",
          "type": "uint256"
        },
        {
          "internalType": "uint256",
          "name": "amountAMin",
          "type": "uint256"
        },
        {
          "internalType": "uint256",
          "name": "amountBMin",
          "type": "uint256"
        },
        {
          "internalType": "address",
          "name": "to",
          "type": "address"
        },
        {
          "internalType": "uint256",
          "name": "deadline",
          "type": "uint256"
        },
        {
          "internalType": "bool",
          "name": "approveMax",
          "type": "bool"
        },
        {
          "internalType": "uint8",
          "name": "v",
          "type": "uint8"
        },
        {
          "internalType": "bytes32",
          "name": "r",
          "type": "bytes32"
        },
        {
          "internalType": "bytes32",
          "name": "s",
          "type": "bytes32"
        }
      ],
      "name": "removeLiquidityWithPermit",
      "outputs": [
        {
          "internalType": "uint256",
          "name": "amountA",
          "type": "uint256"
        },
        {
          "internalType": "uint256",
          "name": "amountB",
          "type": "uint256"
        }
      ],
      "stateMutability": "nonpayable",
      "type": "function"
    },
    {
      "inputs": [],
      "name": "renounceOwnership",
      "outputs": [],
      "stateMutability": "nonpayable",
      "type": "function"
    },
    {
      "inputs": [
        {
          "internalType": "enum ActionType",
          "name": "_sessionType",
          "type": "uint8"
        },
        {
          "components": [
            {
              "internalType": "uint32",
              "name": "accountant",
              "type": "uint32"
            }
          ],
          "internalType": "struct FeeRates",
          "name": "_feeRates",
          "type": "tuple"
        },
        {
          "internalType": "address",
          "name": "caller",
          "type": "address"
        }
      ],
      "name": "setFeeRates",
      "outputs": [],
      "stateMutability": "nonpayable",
      "type": "function"
    },
    {
      "inputs": [
        {
          "components": [
            {
              "internalType": "address",
              "name": "accountant",
              "type": "address"
            }
          ],
          "internalType": "struct FeeStores",
          "name": "_feeStores",
          "type": "tuple"
        },
        {
          "internalType": "address",
          "name": "caller",
          "type": "address"
        }
      ],
      "name": "setFeeStores",
      "outputs": [],
      "stateMutability": "nonpayable",
      "type": "function"
    },
    {
      "inputs": [
        {
          "internalType": "enum NodeType",
          "name": "nodeType",
          "type": "uint8"
        },
        {
          "internalType": "address",
          "name": "node",
          "type": "address"
        },
        {
          "internalType": "address",
          "name": "caller",
          "type": "address"
        }
      ],
      "name": "setNode",
      "outputs": [],
      "stateMutability": "nonpayable",
      "type": "function"
    },
    {
      "inputs": [
        {
          "internalType": "address",
          "name": "tokenA",
          "type": "address"
        },
        {
          "internalType": "address",
          "name": "tokenB",
          "type": "address"
        },
        {
          "internalType": "uint256",
          "name": "liquidity",
          "type": "uint256"
        }
      ],
      "name": "sim_removeLiquidity",
      "outputs": [
        {
          "internalType": "uint256",
          "name": "amountA",
          "type": "uint256"
        },
        {
          "internalType": "uint256",
          "name": "amountB",
          "type": "uint256"
        }
      ],
      "stateMutability": "view",
      "type": "function"
    },
    {
      "inputs": [],
      "name": "tgrBusd",
      "outputs": [
        {
          "internalType": "address",
          "name": "",
          "type": "address"
        }
      ],
      "stateMutability": "view",
      "type": "function"
    },
    {
      "inputs": [],
      "name": "tgrFtm",
      "outputs": [
        {
          "internalType": "address",
          "name": "",
          "type": "address"
        }
      ],
      "stateMutability": "view",
      "type": "function"
    },
    {
      "inputs": [
        {
          "internalType": "address",
          "name": "newOwner",
          "type": "address"
        }
      ],
      "name": "transferOwnership",
      "outputs": [],
      "stateMutability": "nonpayable",
      "type": "function"
    },
    {
      "inputs": [
        {
          "internalType": "address",
          "name": "_prevNode",
          "type": "address"
        },
        {
          "internalType": "address",
          "name": "_nextNode",
          "type": "address"
        }
      ],
      "name": "wire",
      "outputs": [],
      "stateMutability": "nonpayable",
      "type": "function"
    },
    {
      "inputs": [
        {
          "internalType": "address",
          "name": "tokenA",
          "type": "address"
        },
        {
          "internalType": "address",
          "name": "tokenB",
          "type": "address"
        },
        {
          "internalType": "uint256",
          "name": "amountADesired",
          "type": "uint256"
        },
        {
          "internalType": "uint256",
          "name": "amountBDesired",
          "type": "uint256"
        },
        {
          "internalType": "uint256",
          "name": "amountAMin",
          "type": "uint256"
        },
        {
          "internalType": "uint256",
          "name": "amountBMin",
          "type": "uint256"
        },
        {
          "internalType": "address",
          "name": "to",
          "type": "address"
        },
        {
          "internalType": "uint256",
          "name": "deadline",
          "type": "uint256"
        }
      ],
      "name": "wired_addLiquidity",
      "outputs": [
        {
          "internalType": "uint256",
          "name": "amountA",
          "type": "uint256"
        },
        {
          "internalType": "uint256",
          "name": "amountB",
          "type": "uint256"
        },
        {
          "internalType": "uint256",
          "name": "liquidity",
          "type": "uint256"
        }
      ],
      "stateMutability": "nonpayable",
      "type": "function"
    },
    {
      "inputs": [
        {
          "internalType": "address",
          "name": "tokenA",
          "type": "address"
        },
        {
          "internalType": "address",
          "name": "tokenB",
          "type": "address"
        },
        {
          "internalType": "uint256",
          "name": "liquidity",
          "type": "uint256"
        },
        {
          "internalType": "uint256",
          "name": "amountAMin",
          "type": "uint256"
        },
        {
          "internalType": "uint256",
          "name": "amountBMin",
          "type": "uint256"
        },
        {
          "internalType": "address",
          "name": "to",
          "type": "address"
        },
        {
          "internalType": "uint256",
          "name": "deadline",
          "type": "uint256"
        }
      ],
      "name": "wired_removeLiquidity",
      "outputs": [
        {
          "internalType": "uint256",
          "name": "amountA",
          "type": "uint256"
        },
        {
          "internalType": "uint256",
          "name": "amountB",
          "type": "uint256"
        }
      ],
      "stateMutability": "nonpayable",
      "type": "function"
    },
    {
      "stateMutability": "payable",
      "type": "receive"
    }
  ],
  "bytecode": "0x60e0604052601160a0819052702c2a30b5b2b91d102337b93134b23232b760791b60c090815262000034916015919062000284565b506040805180820190915260148082527f5854616b65723a20496e76616c6964207061746800000000000000000000000060209092019182526200007b9160169162000284565b50604051806060016040528060228152602001620045f6602291398051620000ac9160179160209091019062000284565b5060408051808201909152601d8082527f5854616b65723a20496e73756666696369656e74204120616d6f756e740000006020909201918252620000f39160189162000284565b5060408051808201909152601d8082527f5854616b65723a20496e73756666696369656e74204220616d6f756e7400000060209092019182526200013a9160199162000284565b5060408051808201909152601e8082527f5854616b65723a2045786365737369766520696e70757420616d6f756e74000060209092019182526200018191601a9162000284565b5060408051808201909152600f8082526e1615185ad95c8e88115e1c1a5c9959608a1b6020909201918252620001ba91601b9162000284565b50348015620001c857600080fd5b506040516200461838038062004618833981016040819052620001eb916200032a565b6000805460ff19166002179055620002033362000226565b6001600160a01b0316608052600e805462ffffff19166201010117905562000398565b600e80546001600160a01b0383811663010000008181026301000000600160b81b031985161790945560405193909204169182907f8be0079c531659141344cd1fd0a4f28419497f9722a3daafe3b4186f6b6457e090600090a35050565b82805462000292906200035c565b90600052602060002090601f016020900481019282620002b6576000855562000301565b82601f10620002d157805160ff191683800117855562000301565b8280016001018555821562000301579182015b8281111562000301578251825591602001919060010190620002e4565b506200030f92915062000313565b5090565b5b808211156200030f576000815560010162000314565b6000602082840312156200033d57600080fd5b81516001600160a01b03811681146200035557600080fd5b9392505050565b600181811c908216806200037157607f821691505b6020821081036200039257634e487b7160e01b600052602260045260246000fd5b50919050565b6080516141e76200040f6000396000818161020d0152818161051b0152818161078a015281816107ea01528181610a80015281816111b80152818161128a015281816115690152818161159901528181611c6901528181612075015281816120bb0152818161211301526121a801526141e76000f3fe6080604052600436106101fd5760003560e01c80639b472d4a1161010d578063cd193c43116100a0578063e8e337001161006f578063e8e3370014610678578063f2fde38b14610698578063f305d719146106b8578063f9a21e8a146106cb578063fe33b302146106eb57600080fd5b8063cd193c43146105f8578063cdd9224c14610618578063ded9382a14610638578063e6a439051461065857600080fd5b8063af2979eb116100dc578063af2979eb1461055d578063b438e5631461057d578063baa2abde146105b8578063bb04a5e6146105d857600080fd5b80639b472d4a146104c9578063a1ec706f146104e9578063ad5c464814610509578063ad615dec1461053d57600080fd5b806365715c561161019057806390e3677f1161015f57806390e3677f1461040857806391fd0db714610428578063928879d614610448578063934923a31461046857806396ed28f91461048857600080fd5b806365715c56146103ae578063715018a6146103ce578063893d20e8146103e35780638da5cb5b146103e357600080fd5b80632195995c116101cc5780632195995c1461031b578063249dfad71461033b57806354abe9d0146103605780635b0d59841461038057600080fd5b806302751cec1461024157806309b16a221461027b5780630c3d536b146102b357806310224711146102d357600080fd5b3661023c57336001600160a01b037f0000000000000000000000000000000000000000000000000000000000000000161461023a5761023a61357f565b005b600080fd5b34801561024d57600080fd5b5061026161025c3660046135aa565b610747565b604080519283526020830191909152015b60405180910390f35b34801561028757600080fd5b5060085461029b906001600160a01b031681565b6040516001600160a01b039091168152602001610272565b3480156102bf57600080fd5b5060095461029b906001600160a01b031681565b3480156102df57600080fd5b506103066102ee366004613615565b600d6020526000908152604090205463ffffffff1681565b60405163ffffffff9091168152602001610272565b34801561032757600080fd5b50610261610336366004613656565b61086c565b34801561034757600080fd5b5060005461029b9061010090046001600160a01b031681565b34801561036c57600080fd5b5061023a61037b366004613700565b61093e565b34801561038c57600080fd5b506103a061039b36600461371d565b610a62565b604051908152602001610272565b3480156103ba57600080fd5b5060015461029b906001600160a01b031681565b3480156103da57600080fd5b5061023a610b48565b3480156103ef57600080fd5b50600e54630100000090046001600160a01b031661029b565b34801561041457600080fd5b5061023a6104233660046137b3565b610bb6565b34801561043457600080fd5b5061023a6104433660046137fe565b610c54565b34801561045457600080fd5b5061023a610463366004613893565b610e0e565b34801561047457600080fd5b5060075461029b906001600160a01b031681565b34801561049457600080fd5b5061029b6104a33660046137b3565b600b6020908152600092835260408084209091529082529020546001600160a01b031681565b3480156104d557600080fd5b506102616104e43660046138d3565b610ec9565b3480156104f557600080fd5b50610261610504366004613914565b61107c565b34801561051557600080fd5b5061029b7f000000000000000000000000000000000000000000000000000000000000000081565b34801561054957600080fd5b506103a0610558366004613986565b6110fb565b34801561056957600080fd5b506103a06105783660046135aa565b611112565b34801561058957600080fd5b5061059d6105983660046139b2565b61130c565b60408051938452602084019290925290820152606001610272565b3480156105c457600080fd5b506102616105d3366004613914565b6114f3565b3480156105e457600080fd5b506103a06105f3366004613700565b61154f565b34801561060457600080fd5b5061023a610613366004613a2e565b6115ea565b34801561062457600080fd5b5061023a610633366004613aa3565b611a86565b34801561064457600080fd5b5061026161065336600461371d565b611c4b565b34801561066457600080fd5b5061029b6106733660046137b3565b611d37565b34801561068457600080fd5b5061059d6106933660046139b2565b611db7565b3480156106a457600080fd5b5061023a6106b3366004613700565b611f6a565b61059d6106c63660046135aa565b61203a565b3480156106d757600080fd5b50600c5461029b906001600160a01b031681565b3480156106f757600080fd5b50610738610706366004613700565b600a60205260009081526040902080546001909101546001600160a01b0391821691811690600160a01b900460ff1683565b60405161027293929190613b41565b60008082601b428210156107775760405162461bcd60e51b815260040161076e9190613b6e565b60405180910390fd5b50610784600460016122fb565b6107b2897f00000000000000000000000000000000000000000000000000000000000000008a8a8a306123ca565b60025491945092506107d4908a903090889087906001600160a01b0316612844565b604051632e1a7d4d60e01b8152600481018390527f00000000000000000000000000000000000000000000000000000000000000006001600160a01b031690632e1a7d4d90602401600060405180830381600087803b15801561083657600080fd5b505af115801561084a573d6000803e3d6000fd5b5050505061085885836128d8565b6108606129a1565b50965096945050505050565b6001600160a01b03808c166000908152600b602090815260408083208e85168452909152812054909182911681876108a4578c6108a8565b6000195b60405163d505accf60e01b81529091506001600160a01b0383169063d505accf906108e3903390309086908f908e908e908e90600401613c15565b600060405180830381600087803b1580156108fd57600080fd5b505af1158015610911573d6000803e3d6000fd5b505050506109248f8f8f8f8f8f8f6114f3565b809450819550505050509b509b9950505050505050505050565b60005461010090046001600160a01b031633148061095b57503330145b806109895750600e54630100000090046001600160a01b03166001600160a01b0316336001600160a01b0316145b6109a55760405162461bcd60e51b815260040161076e90613c56565b6001600160a01b0381163014610a35576001546001600160a01b03908116906354abe9d0908316156109d757826109d9565b305b6040516001600160e01b031960e084901b1681526001600160a01b039091166004820152602401600060405180830381600087803b158015610a1a57600080fd5b505af1158015610a2e573d6000803e3d6000fd5b5050505050565b6040517ffd3415c24b2b4519f08b7935c13f86ea010c77b3ff9bf448a474ae3b2414fce090600090a15b50565b6001600160a01b03808b166000908152600b602090815260408083207f0000000000000000000000000000000000000000000000000000000000000000851684529091528120549091168186610ab8578b610abc565b6000195b60405163d505accf60e01b81529091506001600160a01b0383169063d505accf90610af7903390309086908e908d908d908d90600401613c15565b600060405180830381600087803b158015610b1157600080fd5b505af1158015610b25573d6000803e3d6000fd5b50505050610b378d8d8d8d8d8d611112565b9d9c50505050505050505050505050565b600e546001600160a01b036301000000909104163314610baa5760405162461bcd60e51b815260206004820181905260248201527f4f776e61626c653a2063616c6c6572206973206e6f7420746865206f776e6572604482015260640161076e565b610bb46000612a0b565b565b600e54630100000090046001600160a01b03166001600160a01b0316336001600160a01b031614610c1c5760405162461bcd60e51b815260206004820152601060248201526f496e76616c69642063616c6c6572203360801b604482015260640161076e565b60008054610100600160a81b0319166101006001600160a01b0394851602179055600180546001600160a01b03191691909216179055565b60005461010090046001600160a01b0316331480610c7157503330145b80610c9f5750600e54630100000090046001600160a01b03166001600160a01b0316336001600160a01b0316145b610cbb5760405162461bcd60e51b815260040161076e90613c56565b6001600160a01b0381163014610dcf57600e5462010000900460ff1615610d4957604051634f18125b60e01b815273__$88bebae22a3ad6e62b56c303176513ecf8$__90634f18125b90610d18908690600d908790600401613c90565b60006040518083038186803b158015610d3057600080fd5b505af4158015610d44573d6000803e3d6000fd5b505050505b60006001600160a01b03821615610d605781610d62565b305b6001546040516391fd0db760e01b81529192506001600160a01b0316906391fd0db790610d9790879087908690600401613cb8565b600060405180830381600087803b158015610db157600080fd5b505af1158015610dc5573d6000803e3d6000fd5b5050505050505050565b7fb4040436d4754da72f29d5b97fe68448f30d44ac0e08b33545cbf6f28b7641d98383604051610e00929190613ce7565b60405180910390a15b505050565b60005461010090046001600160a01b0316331480610e2b57503330145b80610e595750600e54630100000090046001600160a01b03166001600160a01b0316336001600160a01b0316145b610e755760405162461bcd60e51b815260040161076e90613c56565b610e80838383612a69565b6000836004811115610e9457610e94613b17565b03610e0957601380546001600160a01b0384166001600160a01b03199182168117909255601480549091169091179055505050565b6001600160a01b038381166000908152600b6020908152604080832086851684529091528082205490516370a0823160e01b815233600482015291928392911690849082906370a0823190602401602060405180830381865afa158015610f34573d6000803e3d6000fd5b505050506040513d601f19601f82011682018060405250810190610f589190613d08565b1015610fc9576040516370a0823160e01b81523360048201526001600160a01b038216906370a0823190602401602060405180830381865afa158015610fa2573d6000803e3d6000fd5b505050506040513d601f19601f82011682018060405250810190610fc69190613d08565b93505b604051632c855c9960e21b81526004810185905260009081906001600160a01b0384169063b2157264906024016040805180830381865afa158015611012573d6000803e3d6000fd5b505050506040513d601f19601f820116820180604052508101906110369190613d21565b9150915060006110468989612bcc565b509050806001600160a01b0316896001600160a01b03161461106957818361106c565b82825b909a909950975050505050505050565b60008082601b428210156110a35760405162461bcd60e51b815260040161076e9190613b6e565b506002546001600160a01b0316336001600160a01b0316146015906110db5760405162461bcd60e51b815260040161076e9190613b6e565b506110ea8a8a8a8a8a8a6123ca565b909b909a5098505050505050505050565b6000611108848484612cae565b90505b9392505050565b600081601b428210156111385760405162461bcd60e51b815260040161076e9190613b6e565b50611145600460016122fb565b6040516370a0823160e01b81523060048201526000906001600160a01b038a16906370a0823190602401602060405180830381865afa15801561118c573d6000803e3d6000fd5b505050506040513d601f19601f820116820180604052508101906111b09190613d08565b90506111e0897f00000000000000000000000000000000000000000000000000000000000000008a8a8a306123ca565b6040516370a0823160e01b8152306004820181905291955061127492508b9190889085906001600160a01b038516906370a0823190602401602060405180830381865afa158015611235573d6000803e3d6000fd5b505050506040513d601f19601f820116820180604052508101906112599190613d08565b6112639190613d5b565b6002546001600160a01b0316612844565b604051632e1a7d4d60e01b8152600481018490527f00000000000000000000000000000000000000000000000000000000000000006001600160a01b031690632e1a7d4d90602401600060405180830381600087803b1580156112d657600080fd5b505af11580156112ea573d6000803e3d6000fd5b505050506112f885846128d8565b6113006129a1565b50509695505050505050565b6000808083601b428210156113345760405162461bcd60e51b815260040161076e9190613b6e565b506002546001600160a01b0316336001600160a01b03161460159061136c5760405162461bcd60e51b815260040161076e9190613b6e565b5061137b8c8c8c8c8c8c612d70565b80945081955050506000600b60008e6001600160a01b03166001600160a01b0316815260200190815260200160002060008d6001600160a01b03166001600160a01b0316815260200190815260200160002060009054906101000a90046001600160a01b031690506113ec81612f98565b600254611409908e903390849089906001600160a01b0316612844565b600254611426908d903390849088906001600160a01b0316612844565b6040516335313c2160e11b81523060048201526001600160a01b03821690636a627842906024016020604051808303816000875af115801561146c573d6000803e3d6000fd5b505050506040513d601f19601f820116820180604052508101906114909190613d08565b6002549093506001600160a01b038e8116911614806114bc57506002546001600160a01b038d81169116145b156114d8576114cb8184613013565b6114d59084613d5b565b92505b6114e38188856130a1565b5050985098509895505050505050565b60008082601b4282101561151a5760405162461bcd60e51b815260040161076e9190613b6e565b50611527600460016122fb565b6115358a8a8a8a8a8a6123ca565b90935091506115426129a1565b5097509795505050505050565b6006546000908190819061158d906001600160a01b0316857f00000000000000000000000000000000000000000000000000000000000000006131b5565b9150915060006115bd857f0000000000000000000000000000000000000000000000000000000000000000612bcc565b509050846001600160a01b0316816001600160a01b0316146115df57816115e1565b825b95945050505050565b60005461010090046001600160a01b031633148061160757503330145b806116355750600e54630100000090046001600160a01b03166001600160a01b0316336001600160a01b0316145b6116515760405162461bcd60e51b815260040161076e90613c56565b6001600160a01b0381163014611a4257600e5460ff16156119b8576040518060600160405280856001600160a01b03168152602001846001600160a01b031681526020018360038111156116a7576116a7613b17565b90526001600160a01b038087166000908152600a6020908152604091829020845181549085166001600160a01b0319918216178255918501516001820180549190951692811683178555928501519093909290916001600160a81b031990911617600160a01b83600381111561171f5761171f613b17565b021790555050506001600160a01b038085166000818152600b60208181526040808420898716855282528084208054878d166001600160a01b03199182168117909255938352818520958552949091529182902080549091169092179091556002549051633fe59dbb60e11b815273__$88bebae22a3ad6e62b56c303176513ecf8$__92637fcb3b76926117d192899289921690730dcd1bf9a1b36ce34237eeafef220932846bcd8290600401613d72565b602060405180830381865af41580156117ee573d6000803e3d6000fd5b505050506040513d601f19601f820116820180604052508101906118129190613d9d565b1561183357600780546001600160a01b0319166001600160a01b0387161790555b600254604051633fe59dbb60e11b815273__$88bebae22a3ad6e62b56c303176513ecf8$__91637fcb3b769161188f91889188916001600160a01b031690735fc8d32690cc91d4c39d9d3abcbd16989f87570790600401613d72565b602060405180830381865af41580156118ac573d6000803e3d6000fd5b505050506040513d601f19601f820116820180604052508101906118d09190613d9d565b156118f157600880546001600160a01b0319166001600160a01b0387161790555b604051633fe59dbb60e11b815273__$88bebae22a3ad6e62b56c303176513ecf8$__90637fcb3b7690611956908790879073b7f8bc63bbcad18155201308c8f3540b07f84f5e90735fc8d32690cc91d4c39d9d3abcbd16989f87570790600401613d72565b602060405180830381865af4158015611973573d6000803e3d6000fd5b505050506040513d601f19601f820116820180604052508101906119979190613d9d565b156119b857600980546001600160a01b0319166001600160a01b0387161790555b60006001600160a01b038216156119cf57816119d1565b305b60015460405163cd193c4360e01b81529192506001600160a01b03169063cd193c4390611a0a9089908990899089908890600401613dba565b600060405180830381600087803b158015611a2457600080fd5b505af1158015611a38573d6000803e3d6000fd5b5050505050610a2e565b7f7af36d96fdc569564b9fadb22716716fe33463cb7fc8dca4fbd79d40448acdf285858585604051611a779493929190613dfc565b60405180910390a15050505050565b60005461010090046001600160a01b0316331480611aa357503330145b80611ad15750600e54630100000090046001600160a01b03166001600160a01b0316336001600160a01b0316145b611aed5760405162461bcd60e51b815260040161076e90613c56565b6001600160a01b0381163014611c0a57600e54610100900460ff1615611b8157604051633d8d54b760e11b8152600c600482015282516001600160a01b0316602482015273__$88bebae22a3ad6e62b56c303176513ecf8$__90637b1aa96e9060440160006040518083038186803b158015611b6857600080fd5b505af4158015611b7c573d6000803e3d6000fd5b505050505b60006001600160a01b03821615611b985781611b9a565b305b600154604051633376489360e21b815285516001600160a01b039081166004830152808416602483015292935091169063cdd9224c90604401600060405180830381600087803b158015611bed57600080fd5b505af1158015611c01573d6000803e3d6000fd5b50505050505050565b60405182516001600160a01b031681527f275664547227ddbc7a8a732c07c9346f2f4520de70c2088665cc6809534212c09060200160405180910390a15050565b6001600160a01b03808b166000908152600b602090815260408083207f00000000000000000000000000000000000000000000000000000000000000008516845290915281205490918291168187611ca3578c611ca7565b6000195b60405163d505accf60e01b81529091506001600160a01b0383169063d505accf90611ce2903390309086908f908e908e908e90600401613c15565b600060405180830381600087803b158015611cfc57600080fd5b505af1158015611d10573d6000803e3d6000fd5b50505050611d228e8e8e8e8e8e610747565b909f909e509c50505050505050505050505050565b60065460405163e6a4390560e01b81526001600160a01b0384811660048301528381166024830152600092169063e6a4390590604401602060405180830381865afa158015611d8a573d6000803e3d6000fd5b505050506040513d601f19601f82011682018060405250810190611dae9190613e29565b90505b92915050565b6000808083601b42821015611ddf5760405162461bcd60e51b815260040161076e9190613b6e565b50611dec600360016122fb565b611dfa8c8c8c8c8c8c612d70565b80945081955050506000600b60008e6001600160a01b03166001600160a01b0316815260200190815260200160002060008d6001600160a01b03166001600160a01b0316815260200190815260200160002060009054906101000a90046001600160a01b03169050611e6b81612f98565b600254611e88908e903390849089906001600160a01b0316612844565b600254611ea5908d903390849088906001600160a01b0316612844565b6040516335313c2160e11b81523060048201526001600160a01b03821690636a627842906024016020604051808303816000875af1158015611eeb573d6000803e3d6000fd5b505050506040513d601f19601f82011682018060405250810190611f0f9190613d08565b6002549093506001600160a01b038e811691161480611f3b57506002546001600160a01b038d81169116145b15611f5757611f4a8184613013565b611f549084613d5b565b92505b611f628188856130a1565b6114e36129a1565b600e546001600160a01b036301000000909104163314611fcc5760405162461bcd60e51b815260206004820181905260248201527f4f776e61626c653a2063616c6c6572206973206e6f7420746865206f776e6572604482015260640161076e565b6001600160a01b0381166120315760405162461bcd60e51b815260206004820152602660248201527f4f776e61626c653a206e6577206f776e657220697320746865207a65726f206160448201526564647265737360d01b606482015260840161076e565b610a5f81612a0b565b6000808083601b428210156120625760405162461bcd60e51b815260040161076e9190613b6e565b5061206f600360016122fb565b61209d8a7f00000000000000000000000000000000000000000000000000000000000000008b348c8c612d70565b6001600160a01b03808d166000908152600b602090815260408083207f000000000000000000000000000000000000000000000000000000000000000085168452909152902054929650909450166120f481612f98565b600254612111908c903390849089906001600160a01b0316612844565b7f00000000000000000000000000000000000000000000000000000000000000006001600160a01b031663d0e30db0856040518263ffffffff1660e01b81526004016000604051808303818588803b15801561216c57600080fd5b505af1158015612180573d6000803e3d6000fd5b505060405163a9059cbb60e01b81526001600160a01b038581166004830152602482018990527f000000000000000000000000000000000000000000000000000000000000000016935063a9059cbb925060440190506020604051808303816000875af11580156121f5573d6000803e3d6000fd5b505050506040513d601f19601f820116820180604052508101906122199190613d9d565b6122255761222561357f565b6040516335313c2160e11b81523060048201526001600160a01b03821690636a627842906024016020604051808303816000875af115801561226b573d6000803e3d6000fd5b505050506040513d601f19601f8201168201806040525081019061228f9190613d08565b6002549093506001600160a01b03908116908c16036122bf576122b28184613013565b6122bc9084613d5b565b92505b6122ca8188856130a1565b833411156122e5576122e5336122e08634613d5b565b6128d8565b6122ed6129a1565b505096509650969350505050565b601354604051634be5482760e01b81526001600160a01b0390911690634be548279061232d9085908590600401613e46565b6080604051808303816000875af115801561234c573d6000803e3d6000fd5b505050506040513d601f19601f820116820180604052508101906123709190613e62565b8051600f8054909190829060ff1916600183600481111561239357612393613b17565b021790555060208201516001820155604082015160028201556060909101516003909101805460ff19169115159190911790555050565b6001600160a01b038087166000908152600b602090815260408083208985168452825280832054815160e081018352941680855291840183905283810183905260608085018490526080850184905260a0850184905260c085018490528151630240bc6b60e21b815291519394859490928492630902f1ac926004808401938290030181865afa158015612462573d6000803e3d6000fd5b505050506040513d601f19601f820116820180604052508101906124869190613efc565b506001600160701b0390811660808401521660608201526003546010546040516303449d7160e01b81526001600160a01b03909216916303449d71916124d0918590600401613f90565b600060405180830381600087803b1580156124ea57600080fd5b505af11580156124fe573d6000803e3d6000fd5b50506040516370a0823160e01b81523360048201528a92506001600160a01b03851691506370a0823190602401602060405180830381865afa158015612548573d6000803e3d6000fd5b505050506040513d601f19601f8201168201806040525081019061256c9190613d08565b10156125dd576040516370a0823160e01b81523360048201526001600160a01b038316906370a0823190602401602060405180830381865afa1580156125b6573d6000803e3d6000fd5b505050506040513d601f19601f820116820180604052508101906125da9190613d08565b97505b6125e98233308b61328b565b6002546001600160a01b038b81169116148061261257506002546001600160a01b038a81169116145b1561262e576126218289613013565b61262b9089613d5b565b97505b61263982838a6130a1565b60405163226bf2d160e21b81526001600160a01b03868116600483015260009182918516906389afcb449060240160408051808303816000875af1158015612685573d6000803e3d6000fd5b505050506040513d601f19601f820116820180604052508101906126a99190613d21565b91509150836001600160a01b0316630902f1ac6040518163ffffffff1660e01b8152600401606060405180830381865afa1580156126eb573d6000803e3d6000fd5b505050506040513d601f19601f8201168201806040525081019061270f9190613efc565b506001600160701b039081166080860152166060840152600e54630100000090046001600160a01b03166001600160a01b0316336001600160a01b0316146127b257600354604051633cdc0b8560e21b81526001600160a01b039091169063f3702e1490612781908690600401613fa5565b60006040518083038186803b15801561279957600080fd5b505afa1580156127ad573d6000803e3d6000fd5b505050505b6127bc8c8c612bcc565b6001600160a01b03908116604086015290811660208501819052908d16146127e55780826127e8565b81815b90965094506018898710156128105760405162461bcd60e51b815260040161076e9190613b6e565b506019888610156128345760405162461bcd60e51b815260040161076e9190613b6e565b5050505050965096945050505050565b806001600160a01b0316856001600160a01b0316036128cc5760405163cd537aa160e01b81526001600160a01b03858116600483015284811660248301526044820184905286169063cd537aa190606401600060405180830381600087803b1580156128af57600080fd5b505af11580156128c3573d6000803e3d6000fd5b50505050610a2e565b610a2e8585858561328b565b604080516000808252602082019092526001600160a01b0384169083906040516129029190613fb3565b60006040518083038185875af1925050503d806000811461293f576040519150601f19603f3d011682016040523d82523d6000602084013e612944565b606091505b5050905080610e095760405162461bcd60e51b815260206004820152602360248201527f5472616e7366657248656c7065723a204554485f5452414e534645525f46414960448201526213115160ea1b606482015260840161076e565b601360009054906101000a90046001600160a01b03166001600160a01b031663431b3c306040518163ffffffff1660e01b8152600401600060405180830381600087803b1580156129f157600080fd5b505af1158015612a05573d6000803e3d6000fd5b50505050565b600e80546001600160a01b0383811663010000008181026301000000600160b81b031985161790945560405193909204169182907f8be0079c531659141344cd1fd0a4f28419497f9722a3daafe3b4186f6b6457e090600090a35050565b60005461010090046001600160a01b0316331480612a8657503330145b80612ab45750600e54630100000090046001600160a01b03166001600160a01b0316336001600160a01b0316145b612ad05760405162461bcd60e51b815260040161076e90613c56565b6001600160a01b0381163014612b9b5760405163085b199160e11b815273__$88bebae22a3ad6e62b56c303176513ecf8$__906310b6332290612b1c9086908690600290600401613fee565b60006040518083038186803b158015612b3457600080fd5b505af4158015612b48573d6000803e3d6000fd5b506000925050506001600160a01b03821615612b645781612b66565b305b6001546040516349443ceb60e11b81529192506001600160a01b03169063928879d690610d9790879087908690600401614018565b7fb45c42dda0a5ab1d1078e0afeda2976363eff9496a93644e726862f1f06186b88383604051610e00929190614043565b600080826001600160a01b0316846001600160a01b031603612c305760405162461bcd60e51b815260206004820152601d60248201527f584c6962726172793a204944454e544943414c5f414444524553534553000000604482015260640161076e565b826001600160a01b0316846001600160a01b031610612c50578284612c53565b83835b90925090506001600160a01b038216612ca75760405162461bcd60e51b8152602060048201526016602482015275584c6962726172793a205a45524f5f4144445245535360501b604482015260640161076e565b9250929050565b6000808411612cff5760405162461bcd60e51b815260206004820152601d60248201527f584c6962726172793a20494e53554646494349454e545f414d4f554e54000000604482015260640161076e565b600083118015612d0f5750600082115b612d5b5760405162461bcd60e51b815260206004820181905260248201527f584c6962726172793a20494e53554646494349454e545f4c4951554944495459604482015260640161076e565b82612d6685846133bb565b6111089190614068565b60065460405163e6a4390560e01b81526001600160a01b0388811660048301528781166024830152600092839283929091169063e6a4390590604401602060405180830381865afa158015612dc9573d6000803e3d6000fd5b505050506040513d601f19601f82011682018060405250810190612ded9190613e29565b6001600160a01b031603612e75576006546040516364e329cb60e11b81526001600160a01b038a8116600483015289811660248301529091169063c9c65396906044016020604051808303816000875af1158015612e4f573d6000803e3d6000fd5b505050506040513d601f19601f82011682018060405250810190612e739190613e29565b505b6006546000908190612e91906001600160a01b03168b8b6131b5565b91509150816000148015612ea3575080155b15612eb357879350869250612f43565b6000612ec0898484612cae565b9050878111612ef857601986821015612eec5760405162461bcd60e51b815260040161076e9190613b6e565b50889450925082612f41565b6000612f05898486612cae565b905089811115612f1757612f1761357f565b601888821015612f3a5760405162461bcd60e51b815260040161076e9190613b6e565b5094508793505b505b601886851015612f665760405162461bcd60e51b815260040161076e9190613b6e565b50601985841015612f8a5760405162461bcd60e51b815260040161076e9190613b6e565b505050965096945050505050565b60026001600160a01b0382166000908152600a6020526040902060010154600160a01b900460ff166003811115612fd157612fd1613b17565b14610a5f5760405162461bcd60e51b81526020600482015260126024820152711614185a5c881b9bdd08195b9b1a5cdd195960721b604482015260640161076e565b60125460009060ff1615611db157600f54611dae90849030908590600d9060009060ff16600481111561304857613048613b17565b600481111561305957613059613b17565b8152602080820192909252604090810160002081518084018352905463ffffffff1681528151928301909152600c546001600160a01b0390811683526002549192911661343d565b604080516001600160a01b038481166024830152604480830185905283518084039091018152606490920183526020820180516001600160e01b031663a9059cbb60e01b17905291516000928392908716916130fd9190613fb3565b6000604051808303816000865af19150503d806000811461313a576040519150601f19603f3d011682016040523d82523d6000602084013e61313f565b606091505b50915091508180156131695750805115806131695750808060200190518101906131699190613d9d565b610a2e5760405162461bcd60e51b815260206004820152601f60248201527f5472616e7366657248656c7065723a205452414e534645525f4641494c454400604482015260640161076e565b60008060006131c48585612bcc565b5090506131d28686866134a6565b506000806131e18888886134a6565b6001600160a01b0316630902f1ac6040518163ffffffff1660e01b8152600401606060405180830381865afa15801561321e573d6000803e3d6000fd5b505050506040513d601f19601f820116820180604052508101906132429190613efc565b506001600160701b031691506001600160701b03169150826001600160a01b0316876001600160a01b03161461327957808261327c565b81815b90999098509650505050505050565b604080516001600160a01b0385811660248301528481166044830152606480830185905283518084039091018152608490920183526020820180516001600160e01b03166323b872dd60e01b17905291516000928392908816916132ef9190613fb3565b6000604051808303816000865af19150503d806000811461332c576040519150601f19603f3d011682016040523d82523d6000602084013e613331565b606091505b509150915081801561335b57508051158061335b57508080602001905181019061335b9190613d9d565b6133b35760405162461bcd60e51b8152602060048201526024808201527f5472616e7366657248656c7065723a205452414e534645525f46524f4d5f46416044820152631253115160e21b606482015260840161076e565b505050505050565b6000826000036133cd57506000611db1565b60006133d9838561408a565b9050826133e68583614068565b14611dae5760405162461bcd60e51b815260206004820152602160248201527f536166654d6174683a206d756c7469706c69636174696f6e206f766572666c6f6044820152607760f81b606482015260840161076e565b600080851561349b57845163ffffffff161561349b5761345f6005600a61418d565b85516134719063ffffffff168861408a565b61347b9190614068565b905061348e888886600001518487612844565b6134988183614199565b91505b509695505050505050565b60008060006134b58585612bcc565b6040516bffffffffffffffffffffffff19606084811b8216602084015283901b166034820152919350915086906048016040516020818303038152906040528051906020012060405160200161355d9291906001600160f81b0319815260609290921b6bffffffffffffffffffffffff1916600183015260158201527f562e5b2650c02d5d7fa342294a3ae06efde7864de45855a7b7e97d770b2e0312603582015260550190565b60408051601f1981840301815291905280516020909101209695505050505050565b634e487b7160e01b600052600160045260246000fd5b6001600160a01b0381168114610a5f57600080fd5b60008060008060008060c087890312156135c357600080fd5b86356135ce81613595565b955060208701359450604087013593506060870135925060808701356135f381613595565b8092505060a087013590509295509295509295565b60058110610a5f57600080fd5b60006020828403121561362757600080fd5b8135611dae81613608565b8015158114610a5f57600080fd5b803560ff8116811461365157600080fd5b919050565b60008060008060008060008060008060006101608c8e03121561367857600080fd5b8b3561368381613595565b9a5060208c013561369381613595565b995060408c0135985060608c0135975060808c0135965060a08c01356136b881613595565b955060c08c0135945060e08c01356136cf81613632565b93506136de6101008d01613640565b92506101208c013591506101408c013590509295989b509295989b9093969950565b60006020828403121561371257600080fd5b8135611dae81613595565b6000806000806000806000806000806101408b8d03121561373d57600080fd5b8a3561374881613595565b995060208b0135985060408b0135975060608b0135965060808b013561376d81613595565b955060a08b0135945060c08b013561378481613632565b935061379260e08c01613640565b92506101008b013591506101208b013590509295989b9194979a5092959850565b600080604083850312156137c657600080fd5b82356137d181613595565b915060208301356137e181613595565b809150509250929050565b63ffffffff81168114610a5f57600080fd5b6000806000838503606081121561381457600080fd5b843561381f81613608565b93506020601f198201121561383357600080fd5b506040516020810181811067ffffffffffffffff8211171561386557634e487b7160e01b600052604160045260246000fd5b6040526020850135613876816137ec565b81529150604084013561388881613595565b809150509250925092565b6000806000606084860312156138a857600080fd5b83356138b381613608565b925060208401356138c381613595565b9150604084013561388881613595565b6000806000606084860312156138e857600080fd5b83356138f381613595565b9250602084013561390381613595565b929592945050506040919091013590565b600080600080600080600060e0888a03121561392f57600080fd5b873561393a81613595565b9650602088013561394a81613595565b955060408801359450606088013593506080880135925060a088013561396f81613595565b8092505060c0880135905092959891949750929550565b60008060006060848603121561399b57600080fd5b505081359360208301359350604090920135919050565b600080600080600080600080610100898b0312156139cf57600080fd5b88356139da81613595565b975060208901356139ea81613595565b965060408901359550606089013594506080890135935060a0890135925060c0890135613a1681613595565b8092505060e089013590509295985092959890939650565b600080600080600060a08688031215613a4657600080fd5b8535613a5181613595565b94506020860135613a6181613595565b93506040860135613a7181613595565b9250606086013560048110613a8557600080fd5b91506080860135613a9581613595565b809150509295509295909350565b6000808284036040811215613ab757600080fd5b6020811215613ac557600080fd5b506040516020810181811067ffffffffffffffff82111715613af757634e487b7160e01b600052604160045260246000fd5b6040528335613b0581613595565b8152915060208301356137e181613595565b634e487b7160e01b600052602160045260246000fd5b60048110613b3d57613b3d613b17565b9052565b6001600160a01b0384811682528316602082015260608101613b666040830184613b2d565b949350505050565b600060208083526000845481600182811c915080831680613b9057607f831692505b8583108103613bad57634e487b7160e01b85526022600452602485fd5b878601838152602001818015613bca5760018114613bdb57613c06565b60ff19861682528782019650613c06565b60008b81526020902060005b86811015613c0057815484820152908501908901613be7565b83019750505b50949998505050505050505050565b6001600160a01b0397881681529590961660208601526040850193909352606084019190915260ff16608083015260a082015260c081019190915260e00190565b60208082526010908201526f496e76616c69642063616c6c6572203160801b604082015260600190565b60058110610a5f57610a5f613b17565b60608101613c9d85613c80565b93815260208101929092525163ffffffff1660409091015290565b60608101613cc585613c80565b938152915163ffffffff1660208301526001600160a01b031660409091015290565b60408101613cf484613c80565b928152905163ffffffff1660209091015290565b600060208284031215613d1a57600080fd5b5051919050565b60008060408385031215613d3457600080fd5b505080516020909101519092909150565b634e487b7160e01b600052601160045260246000fd5b600082821015613d6d57613d6d613d45565b500390565b6001600160a01b03948516815292841660208401529083166040830152909116606082015260800190565b600060208284031215613daf57600080fd5b8151611dae81613632565b6001600160a01b0386811682528581166020830152848116604083015260a0820190613de96060840186613b2d565b8084166080840152509695505050505050565b6001600160a01b038581168252848116602083015283166040820152608081016115e16060830184613b2d565b600060208284031215613e3b57600080fd5b8151611dae81613595565b60408101613e5384613c80565b92815290151560209091015290565b600060808284031215613e7457600080fd5b6040516080810181811067ffffffffffffffff82111715613ea557634e487b7160e01b600052604160045260246000fd5b6040528251613eb381613608565b8082525060208301516020820152604083015160408201526060830151613ed981613632565b60608201529392505050565b80516001600160701b038116811461365157600080fd5b600080600060608486031215613f1157600080fd5b613f1a84613ee5565b9250613f2860208501613ee5565b91506040840151613888816137ec565b60018060a01b0380825116835280602083015116602084015280604083015116604084015250606081015160608301526080810151608083015260ff60a08201511660a083015260ff60c08201511660c08301525050565b828152610100810161110b6020830184613f38565b60e08101611db18284613f38565b6000825160005b81811015613fd45760208186018101518583015201613fba565b81811115613fe3576000828501525b509190910192915050565b60608101613ffb85613c80565b9381526001600160a01b0392909216602083015260409091015290565b6060810161402585613c80565b9381526001600160a01b039283166020820152911660409091015290565b6040810161405084613c80565b9281526001600160a01b039190911660209091015290565b60008261408557634e487b7160e01b600052601260045260246000fd5b500490565b60008160001904831182151516156140a4576140a4613d45565b500290565b600181815b808511156140e45781600019048211156140ca576140ca613d45565b808516156140d757918102915b93841c93908002906140ae565b509250929050565b6000826140fb57506001611db1565b8161410857506000611db1565b816001811461411e576002811461412857614144565b6001915050611db1565b60ff84111561413957614139613d45565b50506001821b611db1565b5060208310610133831016604e8410600b8410161715614167575081810a611db1565b61417183836140a9565b806000190482111561418557614185613d45565b029392505050565b6000611dae83836140ec565b600082198211156141ac576141ac613d45565b50019056fea2646970667358221220f406b81d3420a967d1cdaf32b9f5f70ba34098ea732a73729be6f9c30db5d2b164736f6c634300080e00335854616b65723a20496e73756666696369656e74206f757470757420616d6f756e74",
  "linkReferences": {
    "contracts/libraries/WireLibrary.sol": {
      "WireLibrary": [
        {
          "length": 20,
          "start": 4346
        },
        {
          "length": 20,
          "start": 7070
        },
        {
          "length": 20,
          "start": 7252
        },
        {
          "length": 20,
          "start": 7439
        },
        {
          "length": 20,
          "start": 8002
        },
        {
          "length": 20,
          "start": 12030
        }
      ]
    }
  },
  "deployedLinkReferences": {
    "contracts/libraries/WireLibrary.sol": {
      "WireLibrary": [
        {
          "length": 20,
          "start": 3307
        },
        {
          "length": 20,
          "start": 6031
        },
        {
          "length": 20,
          "start": 6213
        },
        {
          "length": 20,
          "start": 6400
        },
        {
          "length": 20,
          "start": 6963
        },
        {
          "length": 20,
          "start": 10991
        }
      ]
    }
  }
}