{
  "_format": "hh-sol-artifact-1",
  "contractName": "SimpleExpRewardNovel",
  "sourceName": "contracts/research/SimpleExpRewardNovel.sol",
  "abi": [
    {
      "inputs": [
        {
          "internalType": "address",
          "name": "_analyticMath",
          "type": "address"
        }
      ],
      "stateMutability": "nonpayable",
      "type": "constructor"
    },
    {
      "anonymous": false,
      "inputs": [
        {
          "indexed": true,
          "internalType": "address",
          "name": "previousOwner",
          "type": "address"
        },
        {
          "indexed": true,
          "internalType": "address",
          "name": "newOwner",
          "type": "address"
        }
      ],
      "name": "OwnershipTransferred",
      "type": "event"
    },
    {
      "inputs": [],
      "name": "DECIMALS",
      "outputs": [
        {
          "internalType": "uint8",
          "name": "",
          "type": "uint8"
        }
      ],
      "stateMutability": "view",
      "type": "function"
    },
    {
      "inputs": [],
      "name": "INITIAL_SUPPLY",
      "outputs": [
        {
          "internalType": "uint256",
          "name": "",
          "type": "uint256"
        }
      ],
      "stateMutability": "view",
      "type": "function"
    },
    {
      "inputs": [],
      "name": "MAX_SUPPLY",
      "outputs": [
        {
          "internalType": "uint256",
          "name": "",
          "type": "uint256"
        }
      ],
      "stateMutability": "view",
      "type": "function"
    },
    {
      "inputs": [
        {
          "internalType": "address",
          "name": "_owner",
          "type": "address"
        },
        {
          "internalType": "address",
          "name": "_spender",
          "type": "address"
        },
        {
          "internalType": "uint256",
          "name": "subtractedValue",
          "type": "uint256"
        }
      ],
      "name": "_decreaseAllowance",
      "outputs": [
        {
          "internalType": "bool",
          "name": "",
          "type": "bool"
        }
      ],
      "stateMutability": "nonpayable",
      "type": "function"
    },
    {
      "inputs": [
        {
          "internalType": "address",
          "name": "_owner",
          "type": "address"
        },
        {
          "internalType": "address",
          "name": "_spender",
          "type": "address"
        }
      ],
      "name": "allowance",
      "outputs": [
        {
          "internalType": "uint256",
          "name": "",
          "type": "uint256"
        }
      ],
      "stateMutability": "view",
      "type": "function"
    },
    {
      "inputs": [
        {
          "internalType": "address",
          "name": "spender",
          "type": "address"
        },
        {
          "internalType": "uint256",
          "name": "amount",
          "type": "uint256"
        }
      ],
      "name": "approve",
      "outputs": [
        {
          "internalType": "bool",
          "name": "",
          "type": "bool"
        }
      ],
      "stateMutability": "nonpayable",
      "type": "function"
    },
    {
      "inputs": [
        {
          "internalType": "address",
          "name": "account",
          "type": "address"
        }
      ],
      "name": "balanceOf",
      "outputs": [
        {
          "internalType": "uint256",
          "name": "",
          "type": "uint256"
        }
      ],
      "stateMutability": "view",
      "type": "function"
    },
    {
      "inputs": [
        {
          "internalType": "address",
          "name": "from",
          "type": "address"
        },
        {
          "internalType": "uint256",
          "name": "amount",
          "type": "uint256"
        }
      ],
      "name": "burn",
      "outputs": [],
      "stateMutability": "nonpayable",
      "type": "function"
    },
    {
      "inputs": [],
      "name": "checkForConsistency",
      "outputs": [
        {
          "internalType": "uint256",
          "name": "pending_collective",
          "type": "uint256"
        },
        {
          "internalType": "uint256",
          "name": "pending_marginal",
          "type": "uint256"
        },
        {
          "internalType": "uint256",
          "name": "abs_error",
          "type": "uint256"
        },
        {
          "internalType": "uint256",
          "name": "error_rate",
          "type": "uint256"
        }
      ],
      "stateMutability": "view",
      "type": "function"
    },
    {
      "inputs": [],
      "name": "decimals",
      "outputs": [
        {
          "internalType": "uint8",
          "name": "",
          "type": "uint8"
        }
      ],
      "stateMutability": "view",
      "type": "function"
    },
    {
      "inputs": [
        {
          "internalType": "address",
          "name": "spender",
          "type": "address"
        },
        {
          "internalType": "uint256",
          "name": "subtractedValue",
          "type": "uint256"
        }
      ],
      "name": "decreaseAllowance",
      "outputs": [
        {
          "internalType": "bool",
          "name": "",
          "type": "bool"
        }
      ],
      "stateMutability": "nonpayable",
      "type": "function"
    },
    {
      "inputs": [],
      "name": "getTotalState",
      "outputs": [
        {
          "internalType": "uint256",
          "name": "totalSupply",
          "type": "uint256"
        },
        {
          "internalType": "uint256",
          "name": "_latestNet",
          "type": "uint256"
        },
        {
          "internalType": "uint256",
          "name": "_VIRTUAL",
          "type": "uint256"
        },
        {
          "internalType": "uint256",
          "name": "nowBlock",
          "type": "uint256"
        },
        {
          "internalType": "uint256",
          "name": "_totalPendingReward",
          "type": "uint256"
        },
        {
          "internalType": "uint256",
          "name": "_burnDone",
          "type": "uint256"
        }
      ],
      "stateMutability": "view",
      "type": "function"
    },
    {
      "inputs": [
        {
          "internalType": "address",
          "name": "user",
          "type": "address"
        }
      ],
      "name": "getUserState",
      "outputs": [
        {
          "internalType": "uint256",
          "name": "_share",
          "type": "uint256"
        },
        {
          "internalType": "uint256",
          "name": "_VIRTUAL",
          "type": "uint256"
        },
        {
          "internalType": "uint256",
          "name": "nowBlock",
          "type": "uint256"
        },
        {
          "internalType": "uint256",
          "name": "_userPendingReward",
          "type": "uint256"
        },
        {
          "internalType": "uint256",
          "name": "_latestBlock",
          "type": "uint256"
        }
      ],
      "stateMutability": "view",
      "type": "function"
    },
    {
      "inputs": [
        {
          "internalType": "address",
          "name": "spender",
          "type": "address"
        },
        {
          "internalType": "uint256",
          "name": "addedValue",
          "type": "uint256"
        }
      ],
      "name": "increaseAllowance",
      "outputs": [
        {
          "internalType": "bool",
          "name": "",
          "type": "bool"
        }
      ],
      "stateMutability": "nonpayable",
      "type": "function"
    },
    {
      "inputs": [
        {
          "internalType": "address",
          "name": "to",
          "type": "address"
        },
        {
          "internalType": "uint256",
          "name": "amount",
          "type": "uint256"
        }
      ],
      "name": "mint",
      "outputs": [],
      "stateMutability": "nonpayable",
      "type": "function"
    },
    {
      "inputs": [],
      "name": "name",
      "outputs": [
        {
          "internalType": "string",
          "name": "",
          "type": "string"
        }
      ],
      "stateMutability": "view",
      "type": "function"
    },
    {
      "inputs": [],
      "name": "owner",
      "outputs": [
        {
          "internalType": "address",
          "name": "",
          "type": "address"
        }
      ],
      "stateMutability": "view",
      "type": "function"
    },
    {
      "inputs": [],
      "name": "renounceOwnership",
      "outputs": [],
      "stateMutability": "nonpayable",
      "type": "function"
    },
    {
      "inputs": [],
      "name": "symbol",
      "outputs": [
        {
          "internalType": "string",
          "name": "",
          "type": "string"
        }
      ],
      "stateMutability": "view",
      "type": "function"
    },
    {
      "inputs": [],
      "name": "totalSupply",
      "outputs": [
        {
          "internalType": "uint256",
          "name": "",
          "type": "uint256"
        }
      ],
      "stateMutability": "view",
      "type": "function"
    },
    {
      "inputs": [
        {
          "internalType": "address",
          "name": "recipient",
          "type": "address"
        },
        {
          "internalType": "uint256",
          "name": "amount",
          "type": "uint256"
        }
      ],
      "name": "transfer",
      "outputs": [
        {
          "internalType": "bool",
          "name": "",
          "type": "bool"
        }
      ],
      "stateMutability": "nonpayable",
      "type": "function"
    },
    {
      "inputs": [
        {
          "internalType": "address",
          "name": "sender",
          "type": "address"
        },
        {
          "internalType": "address",
          "name": "recipient",
          "type": "address"
        },
        {
          "internalType": "uint256",
          "name": "amount",
          "type": "uint256"
        }
      ],
      "name": "transferFrom",
      "outputs": [
        {
          "internalType": "bool",
          "name": "",
          "type": "bool"
        }
      ],
      "stateMutability": "nonpayable",
      "type": "function"
    },
    {
      "inputs": [
        {
          "internalType": "address",
          "name": "newOwner",
          "type": "address"
        }
      ],
      "name": "transferOwnership",
      "outputs": [],
      "stateMutability": "nonpayable",
      "type": "function"
    }
  ],
  "bytecode": "0x60806040523480156200001157600080fd5b5060405162002332380380620023328339810160408190526200003491620008a1565b6200003f33620000fb565b600c80546001600160a01b0383166001600160a01b031991821617909155436004556006805482167370997970c51812dc3a010c7d01b50e0d17dc79c8179055600780548216733c44cdddb6a900fa2b585dd299e03d12fa4293bc179055600880549091167390f79bf6eb2c4f870365e785982e1f101e93b906179055620000f4620000d36000546001600160a01b031690565b620000e160126006620008e2565b620000ee90600a62000a07565b6200014b565b5062000b02565b600080546001600160a01b038381166001600160a01b0319831681178455604051919092169283917f8be0079c531659141344cd1fd0a4f28419497f9722a3daafe3b4186f6b6457e09190a35050565b60408051808201909152600c81526b5a65726f206164647265737360a01b60208201526001600160a01b038316620001a15760405162461bcd60e51b815260040162000198919062000a18565b60405180910390fd5b50620001b082826001620001b4565b5050565b6001600160a01b0383166000908152600260205260408120546009805491929091620001e290849062000a70565b90915550506001600160a01b038316600090815260056020526040812060020154600a8054919290916200021890849062000a70565b90915550600090506200022b84620004ad565b90508015620002aa576001600160a01b038416600090815260056020526040812080548392906200025e90849062000a8a565b9250508190555080600b600082825462000279919062000a8a565b90915550506004546200028d904362000a70565b6001600160a01b0385166000908152600560205260409020600101555b811562000302576001600160a01b03841660009081526002602052604081208054859290620002db90849062000a8a565b925050819055508260036000828254620002f6919062000a8a565b909155506200034d9050565b6001600160a01b038416600090815260026020526040812080548592906200032c90849062000a70565b92505081905550826003600082825462000347919062000a70565b90915550505b6001600160a01b03808516600090815260056020526040812060010154600c549092829116635aff34dc620186a0620003896103098262000a8a565b6040516001600160e01b031960e085901b1681526004810192909252602482015260448101869052600a60648201526084016040805180830381865afa158015620003d8573d6000803e3d6000fd5b505050506040513d601f19601f82011682018060405250810190620003fe919062000aa5565b91509150600062000441600260008a6001600160a01b03166001600160a01b03168152602001908152602001600020548484620005dd60201b6200096c1760201c565b6001600160a01b038916600090815260056020908152604080832060029081018590559091528120546009805493945090929091906200048390849062000a8a565b9250508190555080600a60008282546200049e919062000a8a565b90915550505050505050505050565b6001600160a01b038116600090815260056020526040812060010154600454829190620004db904362000a70565b620004e7919062000a70565b600c5490915060009081906001600160a01b0316635aff34dc62000511610309620186a062000a8a565b6040516001600160e01b031960e084901b1681526004810191909152620186a0602482015260448101869052600a60648201526084016040805180830381865afa15801562000564573d6000803e3d6000fd5b505050506040513d601f19601f820116820180604052508101906200058a919062000aa5565b6001600160a01b03871660009081526002602090815260408220549395509193509190620005c7908290869086906200096c620005dd821b17901c565b620005d3919062000a70565b9695505050505050565b600080620005ed85858562000625565b90506000620005fe8686866200071b565b11156200061b576200061281600162000739565b9150506200061e565b90505b9392505050565b6000808062000635868662000750565b91509150816000036200065f5783818162000654576200065462000aca565b04925050506200061e565b8382101562000716576000620006778787876200071b565b905060008062000689858585620007a4565b9150915081600003620006b657868181620006a857620006a862000aca565b04955050505050506200061e565b600087620006c58282620007da565b1690506000620006d7848484620007e8565b90506000620006f8838b81620006f157620006f162000aca565b046200083f565b905062000706828262000884565b985050505050505050506200061e565b600080fd5b600081806200072e576200072e62000aca565b838509949350505050565b600062000747828462000a8a565b90505b92915050565b6000808062000760858562000892565b9050600062000770868662000884565b9050808210620007885790819003925090506200079d565b6001620007968383620007da565b0393509150505b9250929050565b600080828410620007bc5750839050818303620007d2565b6000198501620007cd8585620007da565b915091505b935093915050565b600062000747828462000a70565b6000806200081483620007fc8382620007da565b816200080c576200080c62000aca565b506000919050565b905082848162000828576200082862000aca565b0462000835868362000884565b1795945050505050565b60006001815b60088110156200087d5762000872826200086c600262000866838962000884565b620007da565b62000884565b915060010162000845565b5092915050565b600062000747828462000ae0565b60006000198284099392505050565b600060208284031215620008b457600080fd5b81516001600160a01b03811681146200061e57600080fd5b634e487b7160e01b600052601160045260246000fd5b600060ff821660ff84168060ff03821115620009025762000902620008cc565b019392505050565b600181815b808511156200094b5781600019048211156200092f576200092f620008cc565b808516156200093d57918102915b93841c93908002906200090f565b509250929050565b60008262000964575060016200074a565b8162000973575060006200074a565b81600181146200098c57600281146200099757620009b7565b60019150506200074a565b60ff841115620009ab57620009ab620008cc565b50506001821b6200074a565b5060208310610133831016604e8410600b8410161715620009dc575081810a6200074a565b620009e883836200090a565b8060001904821115620009ff57620009ff620008cc565b029392505050565b60006200074760ff84168362000953565b600060208083528351808285015260005b8181101562000a475785810183015185820160400152820162000a29565b8181111562000a5a576000604083870101525b50601f01601f1916929092016040019392505050565b60008282101562000a855762000a85620008cc565b500390565b6000821982111562000aa05762000aa0620008cc565b500190565b6000806040838503121562000ab957600080fd5b505080516020909101519092909150565b634e487b7160e01b600052601260045260246000fd5b600081600019048311821515161562000afd5762000afd620008cc565b500290565b6118208062000b126000396000f3fe608060405234801561001057600080fd5b506004361061014d5760003560e01c806370a08231116100c3578063a150da2a1161007c578063a150da2a14610306578063a457c2d714610319578063a9059cbb1461032c578063bdfeb1e51461033f578063dd62ed3e14610374578063f2fde38b146103ad57600080fd5b806370a0823114610274578063715018a614610287578063739572891461028f5780638da5cb5b146102b757806395d89b41146102d25780639dc29fac146102f357600080fd5b80632ff2e9dc116101155780632ff2e9dc146101fa578063313ce5671461020257806332cb6b0c14610209578063395093511461021157806340c10f1914610224578063416ae7681461023957600080fd5b806306fdde0314610152578063095ea7b31461019457806318160ddd146101b757806323b872dd146101cd5780632e0f2625146101e0575b600080fd5b60408051808201909152601481527314da5b5c1b19515e1c14995dd85c99139bdd995b60621b60208201525b60405161018b91906114b8565b60405180910390f35b6101a76101a2366004611529565b6103c0565b604051901515815260200161018b565b6101bf6103d7565b60405190815260200161018b565b6101a76101db366004611553565b6103e7565b6101e8601281565b60405160ff909116815260200161018b565b6101bf61048a565b60126101e8565b6101bf6104a4565b6101a761021f366004611529565b6104c7565b610237610232366004611529565b6104d4565b005b61024c61024736600461158f565b610585565b604080519586526020860194909452928401919091526060830152608082015260a00161018b565b6101bf61028236600461158f565b6105f6565b610237610614565b61029761064a565b60408051948552602085019390935291830152606082015260800161018b565b6000546040516001600160a01b03909116815260200161018b565b60408051808201909152600581526429a2a92ba760d91b602082015261017e565b610237610301366004611529565b6107c1565b6101a7610314366004611553565b6107f5565b6101a7610327366004611529565b610881565b6101a761033a366004611529565b61088e565b61034761089b565b604080519687526020870195909552938501929092526060840152608083015260a082015260c00161018b565b6101bf6103823660046115aa565b6001600160a01b03918216600090815260016020908152604080832093909416825291909152205490565b6102376103bb36600461158f565b6108d1565b60006103cd3384846109aa565b5060015b92915050565b60006103e260035490565b905090565b60006001600160a01b0384163314610474576001600160a01b0384166000908152600160209081526040808320338452909152902054828110156104725760405162461bcd60e51b815260206004820152601a60248201527f5472616e73666572206578636565647320616c6c6f77616e636500000000000060448201526064015b60405180910390fd5b505b61047f848484610a6c565b5060015b9392505050565b610496601260066115f3565b6104a190600a6116fc565b81565b6104b0601260066115f3565b6104bb90600a6116fc565b6104a1906103e861170b565b6000610483338484610b86565b6000546001600160a01b031633146104fe5760405162461bcd60e51b81526004016104699061172a565b61050a601260066115f3565b61051590600a6116fc565b610521906103e861170b565b8161052b60035490565b610535919061175f565b11156105775760405162461bcd60e51b8152602060048201526011602482015270457863656564204d617820537570706c7960781b6044820152606401610469565b6105818282610c0d565b5050565b6001600160a01b038116600090815260026020818152604080842054600590925283209091015460045491929091819081906105c19043611777565b92506105cc86610c64565b6001600160a01b039096166000908152600560205260409020600101549496939592949293915050565b6001600160a01b0381166000908152600260205260408120546103d1565b6000546001600160a01b0316331461063e5760405162461bcd60e51b81526004016104699061172a565b6106486000610d77565b565b600080600080610658610dc7565b935061067461066f6000546001600160a01b031690565b610c64565b61067e908461175f565b600654909350610696906001600160a01b0316610c64565b6106a0908461175f565b6007549093506106b8906001600160a01b0316610c64565b6106c2908461175f565b6008549093506106da906001600160a01b0316610c64565b6106e4908461175f565b9250600083851015610742576106fa8585611777565b925083905061073d6040518060400160405280601a81526020017f636865636b202d2d2d206d617267696e616c2067726561746572000000000000815250610e9c565b610792565b61074c8486611777565b92508493508490506107926040518060400160405280601c81526020017f636865636b202d2d2d20636f6c6c656374697665206772656174657200000000815250610e9c565b80156107ba57806107ad8469d3c21bcecceda100000061170b565b6107b791906117a4565b91505b5090919293565b6000546001600160a01b031633146107eb5760405162461bcd60e51b81526004016104699061172a565b6105818282610edf565b60408051808201909152600c81526b5a65726f206164647265737360a01b60208201526000906001600160a01b0385166108425760405162461bcd60e51b815260040161046991906114b8565b506001600160a01b0380851660009081526001602090815260408083209387168352929052205461047f908590859061087c908690611777565b6109aa565b60006104833384846107f5565b60006103cd338484610a6c565b600354600954600a54600454600090819081906108b89043611777565b92506108c2610dc7565b9150600b549050909192939495565b6000546001600160a01b031633146108fb5760405162461bcd60e51b81526004016104699061172a565b6001600160a01b0381166109605760405162461bcd60e51b815260206004820152602660248201527f4f776e61626c653a206e6577206f776e657220697320746865207a65726f206160448201526564647265737360d01b6064820152608401610469565b61096981610d77565b50565b60008061097a858585610fa1565b90506000610989868686611077565b11156109a25761099a816001611092565b915050610483565b949350505050565b60408051808201909152600c81526b5a65726f206164647265737360a01b60208201526001600160a01b0384166109f45760405162461bcd60e51b815260040161046991906114b8565b5060408051808201909152600c81526b5a65726f206164647265737360a01b60208201526001600160a01b038316610a3f5760405162461bcd60e51b815260040161046991906114b8565b506001600160a01b0392831660009081526001602090815260408083209490951682529290925291902055565b60408051808201909152600c81526b5a65726f206164647265737360a01b60208201526001600160a01b038416610ab65760405162461bcd60e51b815260040161046991906114b8565b5060408051808201909152600c81526b5a65726f206164647265737360a01b60208201526001600160a01b038316610b015760405162461bcd60e51b815260040161046991906114b8565b506001600160a01b0383166000908152600260205260408120549050818110156040518060400160405280600f81526020016e457863656564732062616c616e636560881b81525090610b675760405162461bcd60e51b815260040161046991906114b8565b50610b748483600061109e565b610b808383600161109e565b50505050565b60408051808201909152600c81526b5a65726f206164647265737360a01b60208201526000906001600160a01b038516610bd35760405162461bcd60e51b815260040161046991906114b8565b506001600160a01b0380851660009081526001602090815260408083209387168352929052205461047f908590859061087c90869061175f565b60408051808201909152600c81526b5a65726f206164647265737360a01b60208201526001600160a01b038316610c575760405162461bcd60e51b815260040161046991906114b8565b506105818282600161109e565b6001600160a01b038116600090815260056020526040812060010154600454829190610c909043611777565b610c9a9190611777565b600c5490915060009081906001600160a01b0316635aff34dc610cc2610309620186a061175f565b6040516001600160e01b031960e084901b1681526004810191909152620186a0602482015260448101869052600a60648201526084016040805180830381865afa158015610d14573d6000803e3d6000fd5b505050506040513d601f19601f82011682018060405250810190610d3891906117c6565b6001600160a01b03871660009081526002602052604081205492945090925090610d6381858561096c565b610d6d9190611777565b9695505050505050565b600080546001600160a01b038381166001600160a01b0319831681178455604051919092169283917f8be0079c531659141344cd1fd0a4f28419497f9722a3daafe3b4186f6b6457e09190a35050565b60008060045443610dd89190611777565b600c5490915060009081906001600160a01b0316635aff34dc610e00610309620186a061175f565b6040516001600160e01b031960e084901b1681526004810191909152620186a0602482015260448101869052600a60648201526084016040805180830381865afa158015610e52573d6000803e3d6000fd5b505050506040513d601f19601f82011682018060405250810190610e7691906117c6565b91509150600954610e8a600a54848461096c565b610e949190611777565b935050505090565b61096981604051602401610eb091906114b8565b60408051601f198184030181529190526020810180516001600160e01b031663104c13eb60e21b17905261135f565b60408051808201909152600c81526b5a65726f206164647265737360a01b60208201526001600160a01b038316610f295760405162461bcd60e51b815260040161046991906114b8565b506001600160a01b0382166000908152600260205260408120549050818110156040518060400160405280600f81526020016e457863656564732062616c616e636560881b81525090610f8f5760405162461bcd60e51b815260040161046991906114b8565b50610f9c8383600061109e565b505050565b6000806000610fb08686611368565b9150915081600003610fd557838181610fcb57610fcb61178e565b0492505050610483565b8382101561014d576000610fea878787611077565b9050600080610ffa8585856113b5565b9150915081600003611022578681816110155761101561178e565b0495505050505050610483565b60008761103060008a6113e6565b16905060006110408484846113f2565b9050600061105c838b816110565761105661178e565b0461143f565b9050611068828261147c565b98505050505050505050610483565b600081806110875761108761178e565b838509949350505050565b6000610483828461175f565b6001600160a01b03831660009081526002602052604081205460098054919290916110ca908490611777565b90915550506001600160a01b038316600090815260056020526040812060020154600a8054919290916110fe908490611777565b909155506000905061110f84610c64565b90508015611187576001600160a01b0384166000908152600560205260408120805483929061113f90849061175f565b9250508190555080600b6000828254611158919061175f565b909155505060045461116a9043611777565b6001600160a01b0385166000908152600560205260409020600101555b81156111d9576001600160a01b038416600090815260026020526040812080548592906111b590849061175f565b9250508190555082600360008282546111ce919061175f565b909155506112209050565b6001600160a01b03841660009081526002602052604081208054859290611201908490611777565b92505081905550826003600082825461121a9190611777565b90915550505b6001600160a01b03808516600090815260056020526040812060010154600c549092829116635aff34dc620186a061125a6103098261175f565b6040516001600160e01b031960e085901b1681526004810192909252602482015260448101869052600a60648201526084016040805180830381865afa1580156112a8573d6000803e3d6000fd5b505050506040513d601f19601f820116820180604052508101906112cc91906117c6565b6001600160a01b038916600090815260026020526040812054929450909250906112f790848461096c565b6001600160a01b0389166000908152600560209081526040808320600290810185905590915281205460098054939450909290919061133790849061175f565b9250508190555080600a6000828254611350919061175f565b90915550505050505050505050565b61096981611488565b600080600061137785856114a9565b90506000611385868661147c565b905080821061139b5790819003925090506113ae565b60016113a783836113e6565b0393509150505b9250929050565b6000808284106113cb57508390508183036113de565b600185036113d985856113e6565b915091505b935093915050565b60006104838284611777565b600080611419836114046000866113e6565b816114115761141161178e565b506000919050565b905082848161142a5761142a61178e565b04611435868361147c565b1795945050505050565b60006001815b60088110156114755761146b826114666002611461868961147c565b6113e6565b61147c565b9150600101611445565b5092915050565b6000610483828461170b565b60006a636f6e736f6c652e6c6f679050600080835160208501845afa505050565b60006000198284099392505050565b600060208083528351808285015260005b818110156114e5578581018301518582016040015282016114c9565b818111156114f7576000604083870101525b50601f01601f1916929092016040019392505050565b80356001600160a01b038116811461152457600080fd5b919050565b6000806040838503121561153c57600080fd5b6115458361150d565b946020939093013593505050565b60008060006060848603121561156857600080fd5b6115718461150d565b925061157f6020850161150d565b9150604084013590509250925092565b6000602082840312156115a157600080fd5b6104838261150d565b600080604083850312156115bd57600080fd5b6115c68361150d565b91506115d46020840161150d565b90509250929050565b634e487b7160e01b600052601160045260246000fd5b600060ff821660ff84168060ff03821115611610576116106115dd565b019392505050565b600181815b80851115611653578160001904821115611639576116396115dd565b8085161561164657918102915b93841c939080029061161d565b509250929050565b60008261166a575060016103d1565b81611677575060006103d1565b816001811461168d5760028114611697576116b3565b60019150506103d1565b60ff8411156116a8576116a86115dd565b50506001821b6103d1565b5060208310610133831016604e8410600b84101617156116d6575081810a6103d1565b6116e08383611618565b80600019048211156116f4576116f46115dd565b029392505050565b600061048360ff84168361165b565b6000816000190483118215151615611725576117256115dd565b500290565b6020808252818101527f4f776e61626c653a2063616c6c6572206973206e6f7420746865206f776e6572604082015260600190565b60008219821115611772576117726115dd565b500190565b600082821015611789576117896115dd565b500390565b634e487b7160e01b600052601260045260246000fd5b6000826117c157634e487b7160e01b600052601260045260246000fd5b500490565b600080604083850312156117d957600080fd5b50508051602090910151909290915056fea264697066735822122029d73cc76cc95f6f6c6cb049fbd57a5b2a1d5763d9e81a6ffefe553156f7836d64736f6c634300080e0033",
  "linkReferences": {},
  "deployedLinkReferences": {}
}