{
  "_format": "hh-sol-artifact-1",
  "contractName": "Keep3rJobWorkableForTest",
  "sourceName": "contracts/for-test/peripherals/jobs/Keep3rJobWorkableForTest.sol",
  "abi": [
    {
      "inputs": [
        {
          "internalType": "address",
          "name": "_keep3rHelper",
          "type": "address"
        },
        {
          "internalType": "address",
          "name": "_keep3rV1",
          "type": "address"
        },
        {
          "internalType": "address",
          "name": "_keep3rV1Proxy",
          "type": "address"
        },
        {
          "internalType": "address",
          "name": "_kp3rWethPool",
          "type": "address"
        }
      ],
      "stateMutability": "nonpayable",
      "type": "constructor"
    },
    {
      "inputs": [],
      "name": "BondsLocked",
      "type": "error"
    },
    {
      "inputs": [],
      "name": "BondsUnexistent",
      "type": "error"
    },
    {
      "inputs": [],
      "name": "Disputed",
      "type": "error"
    },
    {
      "inputs": [],
      "name": "DisputerExistent",
      "type": "error"
    },
    {
      "inputs": [],
      "name": "DisputerUnexistent",
      "type": "error"
    },
    {
      "inputs": [],
      "name": "InsufficientFunds",
      "type": "error"
    },
    {
      "inputs": [],
      "name": "InsufficientJobTokenCredits",
      "type": "error"
    },
    {
      "inputs": [],
      "name": "JobDisputed",
      "type": "error"
    },
    {
      "inputs": [],
      "name": "JobLiquidityInsufficient",
      "type": "error"
    },
    {
      "inputs": [],
      "name": "JobLiquidityLessThanMin",
      "type": "error"
    },
    {
      "inputs": [],
      "name": "JobLiquidityUnexistent",
      "type": "error"
    },
    {
      "inputs": [],
      "name": "JobMigrationImpossible",
      "type": "error"
    },
    {
      "inputs": [],
      "name": "JobMigrationLocked",
      "type": "error"
    },
    {
      "inputs": [],
      "name": "JobMigrationUnavailable",
      "type": "error"
    },
    {
      "inputs": [],
      "name": "JobTokenCreditsLocked",
      "type": "error"
    },
    {
      "inputs": [],
      "name": "JobUnapproved",
      "type": "error"
    },
    {
      "inputs": [],
      "name": "JobUnavailable",
      "type": "error"
    },
    {
      "inputs": [],
      "name": "LiquidityPairApproved",
      "type": "error"
    },
    {
      "inputs": [],
      "name": "LiquidityPairUnapproved",
      "type": "error"
    },
    {
      "inputs": [],
      "name": "LiquidityPairUnexistent",
      "type": "error"
    },
    {
      "inputs": [],
      "name": "MinRewardPeriod",
      "type": "error"
    },
    {
      "inputs": [],
      "name": "NoGovernanceZeroAddress",
      "type": "error"
    },
    {
      "inputs": [],
      "name": "OnlyDisputer",
      "type": "error"
    },
    {
      "inputs": [],
      "name": "OnlyGovernance",
      "type": "error"
    },
    {
      "inputs": [],
      "name": "OnlyJobOwner",
      "type": "error"
    },
    {
      "inputs": [],
      "name": "OnlyPendingGovernance",
      "type": "error"
    },
    {
      "inputs": [],
      "name": "OnlyPendingJobOwner",
      "type": "error"
    },
    {
      "inputs": [],
      "name": "OnlySlasher",
      "type": "error"
    },
    {
      "inputs": [],
      "name": "SlasherExistent",
      "type": "error"
    },
    {
      "inputs": [],
      "name": "SlasherUnexistent",
      "type": "error"
    },
    {
      "inputs": [],
      "name": "TokenUnallowed",
      "type": "error"
    },
    {
      "inputs": [],
      "name": "UnbondsLocked",
      "type": "error"
    },
    {
      "inputs": [],
      "name": "UnbondsUnexistent",
      "type": "error"
    },
    {
      "inputs": [],
      "name": "ZeroAddress",
      "type": "error"
    },
    {
      "anonymous": false,
      "inputs": [
        {
          "indexed": false,
          "internalType": "uint256",
          "name": "_bondTime",
          "type": "uint256"
        }
      ],
      "name": "BondTimeChange",
      "type": "event"
    },
    {
      "anonymous": false,
      "inputs": [
        {
          "indexed": true,
          "internalType": "address",
          "name": "_keeper",
          "type": "address"
        },
        {
          "indexed": true,
          "internalType": "address",
          "name": "_bonding",
          "type": "address"
        },
        {
          "indexed": false,
          "internalType": "uint256",
          "name": "_amount",
          "type": "uint256"
        }
      ],
      "name": "Bonding",
      "type": "event"
    },
    {
      "anonymous": false,
      "inputs": [
        {
          "indexed": false,
          "internalType": "address",
          "name": "_disputer",
          "type": "address"
        }
      ],
      "name": "DisputerAdded",
      "type": "event"
    },
    {
      "anonymous": false,
      "inputs": [
        {
          "indexed": false,
          "internalType": "address",
          "name": "_disputer",
          "type": "address"
        }
      ],
      "name": "DisputerRemoved",
      "type": "event"
    },
    {
      "anonymous": false,
      "inputs": [
        {
          "indexed": false,
          "internalType": "uint256",
          "name": "_fee",
          "type": "uint256"
        }
      ],
      "name": "FeeChange",
      "type": "event"
    },
    {
      "anonymous": false,
      "inputs": [
        {
          "indexed": false,
          "internalType": "address",
          "name": "_pendingGovernance",
          "type": "address"
        }
      ],
      "name": "GovernanceProposal",
      "type": "event"
    },
    {
      "anonymous": false,
      "inputs": [
        {
          "indexed": false,
          "internalType": "address",
          "name": "_governance",
          "type": "address"
        }
      ],
      "name": "GovernanceSet",
      "type": "event"
    },
    {
      "anonymous": false,
      "inputs": [
        {
          "indexed": false,
          "internalType": "uint256",
          "name": "_inflationPeriod",
          "type": "uint256"
        }
      ],
      "name": "InflationPeriodChange",
      "type": "event"
    },
    {
      "anonymous": false,
      "inputs": [
        {
          "indexed": true,
          "internalType": "address",
          "name": "_fromJob",
          "type": "address"
        },
        {
          "indexed": false,
          "internalType": "address",
          "name": "_toJob",
          "type": "address"
        }
      ],
      "name": "JobMigrationRequested",
      "type": "event"
    },
    {
      "anonymous": false,
      "inputs": [
        {
          "indexed": false,
          "internalType": "address",
          "name": "_fromJob",
          "type": "address"
        },
        {
          "indexed": true,
          "internalType": "address",
          "name": "_toJob",
          "type": "address"
        }
      ],
      "name": "JobMigrationSuccessful",
      "type": "event"
    },
    {
      "anonymous": false,
      "inputs": [
        {
          "indexed": true,
          "internalType": "address",
          "name": "_job",
          "type": "address"
        },
        {
          "indexed": true,
          "internalType": "address",
          "name": "_previousOwner",
          "type": "address"
        },
        {
          "indexed": true,
          "internalType": "address",
          "name": "_newOwner",
          "type": "address"
        }
      ],
      "name": "JobOwnershipAssent",
      "type": "event"
    },
    {
      "anonymous": false,
      "inputs": [
        {
          "indexed": true,
          "internalType": "address",
          "name": "_job",
          "type": "address"
        },
        {
          "indexed": true,
          "internalType": "address",
          "name": "_owner",
          "type": "address"
        },
        {
          "indexed": true,
          "internalType": "address",
          "name": "_pendingOwner",
          "type": "address"
        }
      ],
      "name": "JobOwnershipChange",
      "type": "event"
    },
    {
      "anonymous": false,
      "inputs": [
        {
          "indexed": false,
          "internalType": "address",
          "name": "_keep3rHelper",
          "type": "address"
        }
      ],
      "name": "Keep3rHelperChange",
      "type": "event"
    },
    {
      "anonymous": false,
      "inputs": [
        {
          "indexed": false,
          "internalType": "address",
          "name": "_keep3rV1",
          "type": "address"
        }
      ],
      "name": "Keep3rV1Change",
      "type": "event"
    },
    {
      "anonymous": false,
      "inputs": [
        {
          "indexed": false,
          "internalType": "address",
          "name": "_keep3rV1Proxy",
          "type": "address"
        }
      ],
      "name": "Keep3rV1ProxyChange",
      "type": "event"
    },
    {
      "anonymous": false,
      "inputs": [
        {
          "indexed": false,
          "internalType": "uint256",
          "name": "_gasLeft",
          "type": "uint256"
        }
      ],
      "name": "KeeperValidation",
      "type": "event"
    },
    {
      "anonymous": false,
      "inputs": [
        {
          "indexed": true,
          "internalType": "address",
          "name": "_credit",
          "type": "address"
        },
        {
          "indexed": true,
          "internalType": "address",
          "name": "_job",
          "type": "address"
        },
        {
          "indexed": true,
          "internalType": "address",
          "name": "_keeper",
          "type": "address"
        },
        {
          "indexed": false,
          "internalType": "uint256",
          "name": "_payment",
          "type": "uint256"
        },
        {
          "indexed": false,
          "internalType": "uint256",
          "name": "_gasLeft",
          "type": "uint256"
        }
      ],
      "name": "KeeperWork",
      "type": "event"
    },
    {
      "anonymous": false,
      "inputs": [
        {
          "indexed": false,
          "internalType": "address",
          "name": "_kp3rWethPool",
          "type": "address"
        }
      ],
      "name": "Kp3rWethPoolChange",
      "type": "event"
    },
    {
      "anonymous": false,
      "inputs": [
        {
          "indexed": true,
          "internalType": "address",
          "name": "_job",
          "type": "address"
        },
        {
          "indexed": true,
          "internalType": "address",
          "name": "_liquidity",
          "type": "address"
        },
        {
          "indexed": true,
          "internalType": "address",
          "name": "_provider",
          "type": "address"
        },
        {
          "indexed": false,
          "internalType": "uint256",
          "name": "_amount",
          "type": "uint256"
        }
      ],
      "name": "LiquidityAddition",
      "type": "event"
    },
    {
      "anonymous": false,
      "inputs": [
        {
          "indexed": false,
          "internalType": "address",
          "name": "_liquidity",
          "type": "address"
        }
      ],
      "name": "LiquidityApproval",
      "type": "event"
    },
    {
      "anonymous": false,
      "inputs": [
        {
          "indexed": true,
          "internalType": "address",
          "name": "_job",
          "type": "address"
        },
        {
          "indexed": false,
          "internalType": "uint256",
          "name": "_rewardedAt",
          "type": "uint256"
        },
        {
          "indexed": false,
          "internalType": "uint256",
          "name": "_currentCredits",
          "type": "uint256"
        }
      ],
      "name": "LiquidityCreditsForced",
      "type": "event"
    },
    {
      "anonymous": false,
      "inputs": [
        {
          "indexed": true,
          "internalType": "address",
          "name": "_job",
          "type": "address"
        },
        {
          "indexed": false,
          "internalType": "uint256",
          "name": "_rewardedAt",
          "type": "uint256"
        },
        {
          "indexed": false,
          "internalType": "uint256",
          "name": "_currentCredits",
          "type": "uint256"
        },
        {
          "indexed": false,
          "internalType": "uint256",
          "name": "_periodCredits",
          "type": "uint256"
        }
      ],
      "name": "LiquidityCreditsReward",
      "type": "event"
    },
    {
      "anonymous": false,
      "inputs": [
        {
          "indexed": false,
          "internalType": "uint256",
          "name": "_liquidityMinimum",
          "type": "uint256"
        }
      ],
      "name": "LiquidityMinimumChange",
      "type": "event"
    },
    {
      "anonymous": false,
      "inputs": [
        {
          "indexed": false,
          "internalType": "address",
          "name": "_liquidity",
          "type": "address"
        }
      ],
      "name": "LiquidityRevocation",
      "type": "event"
    },
    {
      "anonymous": false,
      "inputs": [
        {
          "indexed": true,
          "internalType": "address",
          "name": "_job",
          "type": "address"
        },
        {
          "indexed": true,
          "internalType": "address",
          "name": "_liquidity",
          "type": "address"
        },
        {
          "indexed": true,
          "internalType": "address",
          "name": "_receiver",
          "type": "address"
        },
        {
          "indexed": false,
          "internalType": "uint256",
          "name": "_amount",
          "type": "uint256"
        }
      ],
      "name": "LiquidityWithdrawal",
      "type": "event"
    },
    {
      "anonymous": false,
      "inputs": [
        {
          "indexed": false,
          "internalType": "uint256",
          "name": "_rewardPeriodTime",
          "type": "uint256"
        }
      ],
      "name": "RewardPeriodTimeChange",
      "type": "event"
    },
    {
      "anonymous": false,
      "inputs": [
        {
          "indexed": false,
          "internalType": "address",
          "name": "_slasher",
          "type": "address"
        }
      ],
      "name": "SlasherAdded",
      "type": "event"
    },
    {
      "anonymous": false,
      "inputs": [
        {
          "indexed": false,
          "internalType": "address",
          "name": "_slasher",
          "type": "address"
        }
      ],
      "name": "SlasherRemoved",
      "type": "event"
    },
    {
      "anonymous": false,
      "inputs": [
        {
          "indexed": true,
          "internalType": "address",
          "name": "_job",
          "type": "address"
        },
        {
          "indexed": true,
          "internalType": "address",
          "name": "_token",
          "type": "address"
        },
        {
          "indexed": true,
          "internalType": "address",
          "name": "_provider",
          "type": "address"
        },
        {
          "indexed": false,
          "internalType": "uint256",
          "name": "_amount",
          "type": "uint256"
        }
      ],
      "name": "TokenCreditAddition",
      "type": "event"
    },
    {
      "anonymous": false,
      "inputs": [
        {
          "indexed": true,
          "internalType": "address",
          "name": "_job",
          "type": "address"
        },
        {
          "indexed": true,
          "internalType": "address",
          "name": "_token",
          "type": "address"
        },
        {
          "indexed": true,
          "internalType": "address",
          "name": "_receiver",
          "type": "address"
        },
        {
          "indexed": false,
          "internalType": "uint256",
          "name": "_amount",
          "type": "uint256"
        }
      ],
      "name": "TokenCreditWithdrawal",
      "type": "event"
    },
    {
      "anonymous": false,
      "inputs": [
        {
          "indexed": false,
          "internalType": "uint256",
          "name": "_unbondTime",
          "type": "uint256"
        }
      ],
      "name": "UnbondTimeChange",
      "type": "event"
    },
    {
      "anonymous": false,
      "inputs": [
        {
          "indexed": true,
          "internalType": "address",
          "name": "_keeperOrJob",
          "type": "address"
        },
        {
          "indexed": true,
          "internalType": "address",
          "name": "_unbonding",
          "type": "address"
        },
        {
          "indexed": false,
          "internalType": "uint256",
          "name": "_amount",
          "type": "uint256"
        }
      ],
      "name": "Unbonding",
      "type": "event"
    },
    {
      "inputs": [],
      "name": "acceptGovernance",
      "outputs": [],
      "stateMutability": "nonpayable",
      "type": "function"
    },
    {
      "inputs": [
        {
          "internalType": "address",
          "name": "_fromJob",
          "type": "address"
        },
        {
          "internalType": "address",
          "name": "_toJob",
          "type": "address"
        }
      ],
      "name": "acceptJobMigration",
      "outputs": [],
      "stateMutability": "nonpayable",
      "type": "function"
    },
    {
      "inputs": [
        {
          "internalType": "address",
          "name": "_job",
          "type": "address"
        }
      ],
      "name": "acceptJobOwnership",
      "outputs": [],
      "stateMutability": "nonpayable",
      "type": "function"
    },
    {
      "inputs": [
        {
          "internalType": "address",
          "name": "_disputer",
          "type": "address"
        }
      ],
      "name": "addDisputer",
      "outputs": [],
      "stateMutability": "nonpayable",
      "type": "function"
    },
    {
      "inputs": [
        {
          "internalType": "address",
          "name": "_job",
          "type": "address"
        },
        {
          "internalType": "address",
          "name": "_liquidity",
          "type": "address"
        },
        {
          "internalType": "uint256",
          "name": "_amount",
          "type": "uint256"
        }
      ],
      "name": "addLiquidityToJob",
      "outputs": [],
      "stateMutability": "nonpayable",
      "type": "function"
    },
    {
      "inputs": [
        {
          "internalType": "address",
          "name": "_slasher",
          "type": "address"
        }
      ],
      "name": "addSlasher",
      "outputs": [],
      "stateMutability": "nonpayable",
      "type": "function"
    },
    {
      "inputs": [
        {
          "internalType": "address",
          "name": "_job",
          "type": "address"
        },
        {
          "internalType": "address",
          "name": "_token",
          "type": "address"
        },
        {
          "internalType": "uint256",
          "name": "_amount",
          "type": "uint256"
        }
      ],
      "name": "addTokenCreditsToJob",
      "outputs": [],
      "stateMutability": "nonpayable",
      "type": "function"
    },
    {
      "inputs": [
        {
          "internalType": "address",
          "name": "_liquidity",
          "type": "address"
        }
      ],
      "name": "approveLiquidity",
      "outputs": [],
      "stateMutability": "nonpayable",
      "type": "function"
    },
    {
      "inputs": [],
      "name": "approvedLiquidities",
      "outputs": [
        {
          "internalType": "address[]",
          "name": "_list",
          "type": "address[]"
        }
      ],
      "stateMutability": "view",
      "type": "function"
    },
    {
      "inputs": [],
      "name": "bondTime",
      "outputs": [
        {
          "internalType": "uint256",
          "name": "",
          "type": "uint256"
        }
      ],
      "stateMutability": "view",
      "type": "function"
    },
    {
      "inputs": [
        {
          "internalType": "address",
          "name": "_keeper",
          "type": "address"
        },
        {
          "internalType": "uint256",
          "name": "_payment",
          "type": "uint256"
        }
      ],
      "name": "bondedPayment",
      "outputs": [],
      "stateMutability": "nonpayable",
      "type": "function"
    },
    {
      "inputs": [
        {
          "internalType": "address",
          "name": "",
          "type": "address"
        },
        {
          "internalType": "address",
          "name": "",
          "type": "address"
        }
      ],
      "name": "bonds",
      "outputs": [
        {
          "internalType": "uint256",
          "name": "",
          "type": "uint256"
        }
      ],
      "stateMutability": "view",
      "type": "function"
    },
    {
      "inputs": [
        {
          "internalType": "address",
          "name": "",
          "type": "address"
        },
        {
          "internalType": "address",
          "name": "",
          "type": "address"
        }
      ],
      "name": "canActivateAfter",
      "outputs": [
        {
          "internalType": "uint256",
          "name": "",
          "type": "uint256"
        }
      ],
      "stateMutability": "view",
      "type": "function"
    },
    {
      "inputs": [
        {
          "internalType": "address",
          "name": "",
          "type": "address"
        },
        {
          "internalType": "address",
          "name": "",
          "type": "address"
        }
      ],
      "name": "canWithdrawAfter",
      "outputs": [
        {
          "internalType": "uint256",
          "name": "",
          "type": "uint256"
        }
      ],
      "stateMutability": "view",
      "type": "function"
    },
    {
      "inputs": [
        {
          "internalType": "address",
          "name": "_job",
          "type": "address"
        },
        {
          "internalType": "address",
          "name": "_newOwner",
          "type": "address"
        }
      ],
      "name": "changeJobOwnership",
      "outputs": [],
      "stateMutability": "nonpayable",
      "type": "function"
    },
    {
      "inputs": [
        {
          "internalType": "address",
          "name": "_token",
          "type": "address"
        },
        {
          "internalType": "address",
          "name": "_keeper",
          "type": "address"
        },
        {
          "internalType": "uint256",
          "name": "_amount",
          "type": "uint256"
        }
      ],
      "name": "directTokenPayment",
      "outputs": [],
      "stateMutability": "nonpayable",
      "type": "function"
    },
    {
      "inputs": [
        {
          "internalType": "address",
          "name": "",
          "type": "address"
        }
      ],
      "name": "disputers",
      "outputs": [
        {
          "internalType": "bool",
          "name": "",
          "type": "bool"
        }
      ],
      "stateMutability": "view",
      "type": "function"
    },
    {
      "inputs": [
        {
          "internalType": "address",
          "name": "",
          "type": "address"
        }
      ],
      "name": "disputes",
      "outputs": [
        {
          "internalType": "bool",
          "name": "",
          "type": "bool"
        }
      ],
      "stateMutability": "view",
      "type": "function"
    },
    {
      "inputs": [],
      "name": "fee",
      "outputs": [
        {
          "internalType": "uint256",
          "name": "",
          "type": "uint256"
        }
      ],
      "stateMutability": "view",
      "type": "function"
    },
    {
      "inputs": [
        {
          "internalType": "address",
          "name": "",
          "type": "address"
        }
      ],
      "name": "firstSeen",
      "outputs": [
        {
          "internalType": "uint256",
          "name": "",
          "type": "uint256"
        }
      ],
      "stateMutability": "view",
      "type": "function"
    },
    {
      "inputs": [
        {
          "internalType": "address",
          "name": "_job",
          "type": "address"
        },
        {
          "internalType": "uint256",
          "name": "_amount",
          "type": "uint256"
        }
      ],
      "name": "forceLiquidityCreditsToJob",
      "outputs": [],
      "stateMutability": "nonpayable",
      "type": "function"
    },
    {
      "inputs": [],
      "name": "governance",
      "outputs": [
        {
          "internalType": "address",
          "name": "",
          "type": "address"
        }
      ],
      "stateMutability": "view",
      "type": "function"
    },
    {
      "inputs": [
        {
          "internalType": "address",
          "name": "",
          "type": "address"
        }
      ],
      "name": "hasBonded",
      "outputs": [
        {
          "internalType": "bool",
          "name": "",
          "type": "bool"
        }
      ],
      "stateMutability": "view",
      "type": "function"
    },
    {
      "inputs": [],
      "name": "inflationPeriod",
      "outputs": [
        {
          "internalType": "uint256",
          "name": "",
          "type": "uint256"
        }
      ],
      "stateMutability": "view",
      "type": "function"
    },
    {
      "inputs": [
        {
          "internalType": "address",
          "name": "_keeper",
          "type": "address"
        },
        {
          "internalType": "address",
          "name": "_bond",
          "type": "address"
        },
        {
          "internalType": "uint256",
          "name": "_minBond",
          "type": "uint256"
        },
        {
          "internalType": "uint256",
          "name": "_earned",
          "type": "uint256"
        },
        {
          "internalType": "uint256",
          "name": "_age",
          "type": "uint256"
        }
      ],
      "name": "isBondedKeeper",
      "outputs": [
        {
          "internalType": "bool",
          "name": "_isBondedKeeper",
          "type": "bool"
        }
      ],
      "stateMutability": "nonpayable",
      "type": "function"
    },
    {
      "inputs": [
        {
          "internalType": "address",
          "name": "_keeper",
          "type": "address"
        }
      ],
      "name": "isKeeper",
      "outputs": [
        {
          "internalType": "bool",
          "name": "_isKeeper",
          "type": "bool"
        }
      ],
      "stateMutability": "nonpayable",
      "type": "function"
    },
    {
      "inputs": [
        {
          "internalType": "address",
          "name": "_job",
          "type": "address"
        }
      ],
      "name": "jobLiquidityCredits",
      "outputs": [
        {
          "internalType": "uint256",
          "name": "_liquidityCredits",
          "type": "uint256"
        }
      ],
      "stateMutability": "view",
      "type": "function"
    },
    {
      "inputs": [
        {
          "internalType": "address",
          "name": "",
          "type": "address"
        }
      ],
      "name": "jobOwner",
      "outputs": [
        {
          "internalType": "address",
          "name": "",
          "type": "address"
        }
      ],
      "stateMutability": "view",
      "type": "function"
    },
    {
      "inputs": [
        {
          "internalType": "address",
          "name": "",
          "type": "address"
        }
      ],
      "name": "jobPendingOwner",
      "outputs": [
        {
          "internalType": "address",
          "name": "",
          "type": "address"
        }
      ],
      "stateMutability": "view",
      "type": "function"
    },
    {
      "inputs": [
        {
          "internalType": "address",
          "name": "_job",
          "type": "address"
        }
      ],
      "name": "jobPeriodCredits",
      "outputs": [
        {
          "internalType": "uint256",
          "name": "_periodCredits",
          "type": "uint256"
        }
      ],
      "stateMutability": "view",
      "type": "function"
    },
    {
      "inputs": [
        {
          "internalType": "address",
          "name": "",
          "type": "address"
        },
        {
          "internalType": "address",
          "name": "",
          "type": "address"
        }
      ],
      "name": "jobTokenCredits",
      "outputs": [
        {
          "internalType": "uint256",
          "name": "",
          "type": "uint256"
        }
      ],
      "stateMutability": "view",
      "type": "function"
    },
    {
      "inputs": [
        {
          "internalType": "address",
          "name": "",
          "type": "address"
        },
        {
          "internalType": "address",
          "name": "",
          "type": "address"
        }
      ],
      "name": "jobTokenCreditsAddedAt",
      "outputs": [
        {
          "internalType": "uint256",
          "name": "",
          "type": "uint256"
        }
      ],
      "stateMutability": "view",
      "type": "function"
    },
    {
      "inputs": [],
      "name": "jobs",
      "outputs": [
        {
          "internalType": "address[]",
          "name": "_list",
          "type": "address[]"
        }
      ],
      "stateMutability": "view",
      "type": "function"
    },
    {
      "inputs": [],
      "name": "keep3rHelper",
      "outputs": [
        {
          "internalType": "address",
          "name": "",
          "type": "address"
        }
      ],
      "stateMutability": "view",
      "type": "function"
    },
    {
      "inputs": [],
      "name": "keep3rV1",
      "outputs": [
        {
          "internalType": "address",
          "name": "",
          "type": "address"
        }
      ],
      "stateMutability": "view",
      "type": "function"
    },
    {
      "inputs": [],
      "name": "keep3rV1Proxy",
      "outputs": [
        {
          "internalType": "address",
          "name": "",
          "type": "address"
        }
      ],
      "stateMutability": "view",
      "type": "function"
    },
    {
      "inputs": [],
      "name": "keepers",
      "outputs": [
        {
          "internalType": "address[]",
          "name": "_list",
          "type": "address[]"
        }
      ],
      "stateMutability": "view",
      "type": "function"
    },
    {
      "inputs": [],
      "name": "kp3rWethPool",
      "outputs": [
        {
          "internalType": "address",
          "name": "",
          "type": "address"
        }
      ],
      "stateMutability": "view",
      "type": "function"
    },
    {
      "inputs": [
        {
          "internalType": "address",
          "name": "",
          "type": "address"
        },
        {
          "internalType": "address",
          "name": "",
          "type": "address"
        }
      ],
      "name": "liquidityAmount",
      "outputs": [
        {
          "internalType": "uint256",
          "name": "",
          "type": "uint256"
        }
      ],
      "stateMutability": "view",
      "type": "function"
    },
    {
      "inputs": [],
      "name": "liquidityMinimum",
      "outputs": [
        {
          "internalType": "uint256",
          "name": "",
          "type": "uint256"
        }
      ],
      "stateMutability": "view",
      "type": "function"
    },
    {
      "inputs": [
        {
          "internalType": "address",
          "name": "_fromJob",
          "type": "address"
        },
        {
          "internalType": "address",
          "name": "_toJob",
          "type": "address"
        }
      ],
      "name": "migrateJob",
      "outputs": [],
      "stateMutability": "nonpayable",
      "type": "function"
    },
    {
      "inputs": [
        {
          "internalType": "address",
          "name": "_liquidity",
          "type": "address"
        }
      ],
      "name": "observeLiquidity",
      "outputs": [
        {
          "components": [
            {
              "internalType": "int56",
              "name": "current",
              "type": "int56"
            },
            {
              "internalType": "int56",
              "name": "difference",
              "type": "int56"
            },
            {
              "internalType": "uint256",
              "name": "period",
              "type": "uint256"
            }
          ],
          "internalType": "struct IKeep3rJobFundableLiquidity.TickCache",
          "name": "_tickCache",
          "type": "tuple"
        }
      ],
      "stateMutability": "view",
      "type": "function"
    },
    {
      "inputs": [
        {
          "internalType": "address",
          "name": "",
          "type": "address"
        },
        {
          "internalType": "address",
          "name": "",
          "type": "address"
        }
      ],
      "name": "pendingBonds",
      "outputs": [
        {
          "internalType": "uint256",
          "name": "",
          "type": "uint256"
        }
      ],
      "stateMutability": "view",
      "type": "function"
    },
    {
      "inputs": [],
      "name": "pendingGovernance",
      "outputs": [
        {
          "internalType": "address",
          "name": "",
          "type": "address"
        }
      ],
      "stateMutability": "view",
      "type": "function"
    },
    {
      "inputs": [
        {
          "internalType": "address",
          "name": "",
          "type": "address"
        }
      ],
      "name": "pendingJobMigrations",
      "outputs": [
        {
          "internalType": "address",
          "name": "",
          "type": "address"
        }
      ],
      "stateMutability": "view",
      "type": "function"
    },
    {
      "inputs": [
        {
          "internalType": "address",
          "name": "",
          "type": "address"
        },
        {
          "internalType": "address",
          "name": "",
          "type": "address"
        }
      ],
      "name": "pendingUnbonds",
      "outputs": [
        {
          "internalType": "uint256",
          "name": "",
          "type": "uint256"
        }
      ],
      "stateMutability": "view",
      "type": "function"
    },
    {
      "inputs": [
        {
          "internalType": "address",
          "name": "_liquidity",
          "type": "address"
        },
        {
          "internalType": "uint256",
          "name": "_amount",
          "type": "uint256"
        }
      ],
      "name": "quoteLiquidity",
      "outputs": [
        {
          "internalType": "uint256",
          "name": "_periodCredits",
          "type": "uint256"
        }
      ],
      "stateMutability": "view",
      "type": "function"
    },
    {
      "inputs": [
        {
          "internalType": "address",
          "name": "_disputer",
          "type": "address"
        }
      ],
      "name": "removeDisputer",
      "outputs": [],
      "stateMutability": "nonpayable",
      "type": "function"
    },
    {
      "inputs": [
        {
          "internalType": "address",
          "name": "_slasher",
          "type": "address"
        }
      ],
      "name": "removeSlasher",
      "outputs": [],
      "stateMutability": "nonpayable",
      "type": "function"
    },
    {
      "inputs": [
        {
          "internalType": "address",
          "name": "_liquidity",
          "type": "address"
        }
      ],
      "name": "revokeLiquidity",
      "outputs": [],
      "stateMutability": "nonpayable",
      "type": "function"
    },
    {
      "inputs": [],
      "name": "rewardPeriodTime",
      "outputs": [
        {
          "internalType": "uint256",
          "name": "",
          "type": "uint256"
        }
      ],
      "stateMutability": "view",
      "type": "function"
    },
    {
      "inputs": [
        {
          "internalType": "address",
          "name": "",
          "type": "address"
        }
      ],
      "name": "rewardedAt",
      "outputs": [
        {
          "internalType": "uint256",
          "name": "",
          "type": "uint256"
        }
      ],
      "stateMutability": "view",
      "type": "function"
    },
    {
      "inputs": [
        {
          "internalType": "address",
          "name": "_liquidity",
          "type": "address"
        }
      ],
      "name": "setApprovedLiquidity",
      "outputs": [],
      "stateMutability": "nonpayable",
      "type": "function"
    },
    {
      "inputs": [
        {
          "internalType": "uint256",
          "name": "_bondTime",
          "type": "uint256"
        }
      ],
      "name": "setBondTime",
      "outputs": [],
      "stateMutability": "nonpayable",
      "type": "function"
    },
    {
      "inputs": [
        {
          "internalType": "uint256",
          "name": "_fee",
          "type": "uint256"
        }
      ],
      "name": "setFee",
      "outputs": [],
      "stateMutability": "nonpayable",
      "type": "function"
    },
    {
      "inputs": [
        {
          "internalType": "address",
          "name": "_governance",
          "type": "address"
        }
      ],
      "name": "setGovernance",
      "outputs": [],
      "stateMutability": "nonpayable",
      "type": "function"
    },
    {
      "inputs": [
        {
          "internalType": "uint256",
          "name": "_inflationPeriod",
          "type": "uint256"
        }
      ],
      "name": "setInflationPeriod",
      "outputs": [],
      "stateMutability": "nonpayable",
      "type": "function"
    },
    {
      "inputs": [
        {
          "internalType": "address",
          "name": "_job",
          "type": "address"
        }
      ],
      "name": "setJob",
      "outputs": [],
      "stateMutability": "nonpayable",
      "type": "function"
    },
    {
      "inputs": [
        {
          "internalType": "address",
          "name": "_job",
          "type": "address"
        },
        {
          "internalType": "address",
          "name": "_liquidity",
          "type": "address"
        }
      ],
      "name": "setJobLiquidity",
      "outputs": [],
      "stateMutability": "nonpayable",
      "type": "function"
    },
    {
      "inputs": [
        {
          "internalType": "address",
          "name": "_keep3rHelper",
          "type": "address"
        }
      ],
      "name": "setKeep3rHelper",
      "outputs": [],
      "stateMutability": "nonpayable",
      "type": "function"
    },
    {
      "inputs": [
        {
          "internalType": "address",
          "name": "_keep3rV1",
          "type": "address"
        }
      ],
      "name": "setKeep3rV1",
      "outputs": [],
      "stateMutability": "nonpayable",
      "type": "function"
    },
    {
      "inputs": [
        {
          "internalType": "address",
          "name": "_keep3rV1Proxy",
          "type": "address"
        }
      ],
      "name": "setKeep3rV1Proxy",
      "outputs": [],
      "stateMutability": "nonpayable",
      "type": "function"
    },
    {
      "inputs": [
        {
          "internalType": "address",
          "name": "_keeper",
          "type": "address"
        }
      ],
      "name": "setKeeper",
      "outputs": [],
      "stateMutability": "nonpayable",
      "type": "function"
    },
    {
      "inputs": [
        {
          "internalType": "address",
          "name": "_kp3rWethPool",
          "type": "address"
        }
      ],
      "name": "setKp3rWethPool",
      "outputs": [],
      "stateMutability": "nonpayable",
      "type": "function"
    },
    {
      "inputs": [
        {
          "internalType": "uint256",
          "name": "_liquidityMinimum",
          "type": "uint256"
        }
      ],
      "name": "setLiquidityMinimum",
      "outputs": [],
      "stateMutability": "nonpayable",
      "type": "function"
    },
    {
      "inputs": [
        {
          "internalType": "uint256",
          "name": "_rewardPeriodTime",
          "type": "uint256"
        }
      ],
      "name": "setRewardPeriodTime",
      "outputs": [],
      "stateMutability": "nonpayable",
      "type": "function"
    },
    {
      "inputs": [
        {
          "internalType": "uint256",
          "name": "_unbondTime",
          "type": "uint256"
        }
      ],
      "name": "setUnbondTime",
      "outputs": [],
      "stateMutability": "nonpayable",
      "type": "function"
    },
    {
      "inputs": [
        {
          "internalType": "address",
          "name": "",
          "type": "address"
        }
      ],
      "name": "slashers",
      "outputs": [
        {
          "internalType": "bool",
          "name": "",
          "type": "bool"
        }
      ],
      "stateMutability": "view",
      "type": "function"
    },
    {
      "inputs": [
        {
          "internalType": "address",
          "name": "_job",
          "type": "address"
        }
      ],
      "name": "totalJobCredits",
      "outputs": [
        {
          "internalType": "uint256",
          "name": "_credits",
          "type": "uint256"
        }
      ],
      "stateMutability": "view",
      "type": "function"
    },
    {
      "inputs": [
        {
          "internalType": "address",
          "name": "_job",
          "type": "address"
        },
        {
          "internalType": "address",
          "name": "_liquidity",
          "type": "address"
        },
        {
          "internalType": "uint256",
          "name": "_amount",
          "type": "uint256"
        }
      ],
      "name": "unbondLiquidityFromJob",
      "outputs": [],
      "stateMutability": "nonpayable",
      "type": "function"
    },
    {
      "inputs": [],
      "name": "unbondTime",
      "outputs": [
        {
          "internalType": "uint256",
          "name": "",
          "type": "uint256"
        }
      ],
      "stateMutability": "view",
      "type": "function"
    },
    {
      "inputs": [],
      "name": "viewGas",
      "outputs": [
        {
          "internalType": "uint256",
          "name": "",
          "type": "uint256"
        }
      ],
      "stateMutability": "view",
      "type": "function"
    },
    {
      "inputs": [
        {
          "internalType": "address",
          "name": "_job",
          "type": "address"
        }
      ],
      "name": "viewJobLiquidityCredits",
      "outputs": [
        {
          "internalType": "uint256",
          "name": "",
          "type": "uint256"
        }
      ],
      "stateMutability": "view",
      "type": "function"
    },
    {
      "inputs": [
        {
          "internalType": "address",
          "name": "_job",
          "type": "address"
        }
      ],
      "name": "viewJobPeriodCredits",
      "outputs": [
        {
          "internalType": "uint256",
          "name": "",
          "type": "uint256"
        }
      ],
      "stateMutability": "view",
      "type": "function"
    },
    {
      "inputs": [
        {
          "internalType": "address",
          "name": "_liquidity",
          "type": "address"
        }
      ],
      "name": "viewTickCache",
      "outputs": [
        {
          "components": [
            {
              "internalType": "int56",
              "name": "current",
              "type": "int56"
            },
            {
              "internalType": "int56",
              "name": "difference",
              "type": "int56"
            },
            {
              "internalType": "uint256",
              "name": "period",
              "type": "uint256"
            }
          ],
          "internalType": "struct IKeep3rJobFundableLiquidity.TickCache",
          "name": "_tickCache",
          "type": "tuple"
        }
      ],
      "stateMutability": "view",
      "type": "function"
    },
    {
      "inputs": [
        {
          "internalType": "address",
          "name": "_job",
          "type": "address"
        },
        {
          "internalType": "address",
          "name": "_liquidity",
          "type": "address"
        },
        {
          "internalType": "address",
          "name": "_receiver",
          "type": "address"
        }
      ],
      "name": "withdrawLiquidityFromJob",
      "outputs": [],
      "stateMutability": "nonpayable",
      "type": "function"
    },
    {
      "inputs": [
        {
          "internalType": "address",
          "name": "_job",
          "type": "address"
        },
        {
          "internalType": "address",
          "name": "_token",
          "type": "address"
        },
        {
          "internalType": "uint256",
          "name": "_amount",
          "type": "uint256"
        },
        {
          "internalType": "address",
          "name": "_receiver",
          "type": "address"
        }
      ],
      "name": "withdrawTokenCreditsFromJob",
      "outputs": [],
      "stateMutability": "nonpayable",
      "type": "function"
    },
    {
      "inputs": [
        {
          "internalType": "address",
          "name": "",
          "type": "address"
        }
      ],
      "name": "workCompleted",
      "outputs": [
        {
          "internalType": "uint256",
          "name": "",
          "type": "uint256"
        }
      ],
      "stateMutability": "view",
      "type": "function"
    },
    {
      "inputs": [
        {
          "internalType": "address",
          "name": "_keeper",
          "type": "address"
        }
      ],
      "name": "worked",
      "outputs": [],
      "stateMutability": "nonpayable",
      "type": "function"
    },
    {
      "inputs": [
        {
          "internalType": "address",
          "name": "",
          "type": "address"
        }
      ],
      "name": "workedAt",
      "outputs": [
        {
          "internalType": "uint256",
          "name": "",
          "type": "uint256"
        }
      ],
      "stateMutability": "view",
      "type": "function"
    },
    {
      "stateMutability": "payable",
      "type": "receive"
    }
  ],
  "bytecode": "0x60806040526203f480601f55621275006020556729a2241af62c000060215562069780602255622cd300602355601e6024553480156200003e57600080fd5b506040516200548a3803806200548a8339810160408190526200006191620001b4565b6001600055838383833380806200008a5760405162b293ed60e81b815260040160405180910390fd5b601780546001600160a01b03199081166001600160a01b0393841617909155601d80548216888416178155601b80548316888516179055601c80548316878516179055601e8054831686851690811782556000818152600e602052604090819020805490951690911790935590549054915163696a437b60e01b81529183166004830152909116915063696a437b90602401602060405180830381865afa1580156200013a573d6000803e3d6000fd5b505050506040513d601f19601f8201168201806040525081019062000160919062000211565b6001600160a01b03919091166000908152600f60205260409020805460ff1916911515919091179055506200023c95505050505050565b80516001600160a01b0381168114620001af57600080fd5b919050565b60008060008060808587031215620001cb57600080fd5b620001d68562000197565b9350620001e66020860162000197565b9250620001f66040860162000197565b9150620002066060860162000197565b905092959194509250565b6000602082840312156200022457600080fd5b815180151581146200023557600080fd5b9392505050565b61523e806200024c6000396000f3fe6080604052600436106104775760003560e01c806390a4684e1161024a578063cb4be2bb11610139578063ec00cdfc116100b6578063f39c38a01161007a578063f39c38a014610fd5578063f6bb203214610ff5578063f9d46cf21461102b578063fc253d2b1461104b578063fe75bc461461106157600080fd5b8063ec00cdfc14610f12578063ec8ca64314610f32578063f0f346b914610f68578063f11a1d1a14610f88578063f136a09d14610fa857600080fd5b8063ddca3f43116100fd578063ddca3f4314610dfe578063e326ac4314610e14578063e485dc0e14610e41578063e7f0cbf814610ebc578063ebbb619414610ef257600080fd5b8063cb4be2bb14610d46578063cb54694d14610d66578063cd22af1b14610d86578063d55995fe14610dbe578063dd2080d614610dde57600080fd5b8063ab033ea9116101c7578063b600702a1161018b578063b600702a14610c96578063b7e7734014610cb6578063b87fcbff14610cd6578063c7ae40d014610d06578063cacdf93d14610d2657600080fd5b8063ab033ea914610bce578063af320e8114610bee578063b0103b1a14610c0e578063b239223314610c3e578063b440027f14610c5e57600080fd5b8063a39744b51161020e578063a39744b514610b13578063a662031b14610b4b578063a676f9ff14610b6b578063a7d2e78414610b98578063aac6aa9c14610bae57600080fd5b806390a4684e14610a68578063951dc22c14610a8857806398e90a0f14610a9d5780639d5c33d814610ad3578063a214580914610af357600080fd5b806359a2255e116103665780636cf262bc116102e35780637c8fce23116102a75780637c8fce23146109ad578063878c723e146109c25780638bb6dfa8146109f85780638cb22b7614610a185780638fe204dd14610a4857600080fd5b80636cf262bc1461091757806372da828a14610937578063748747e614610957578063768b5d90146109775780637b40c9131461098d57600080fd5b806364bb43ee1161032a57806364bb43ee1461085f57806368a9f19c1461087f578063694798e61461089f57806369fe0e2d146108d75780636ba42aaa146108f757600080fd5b806359a2255e146107d35780635aa6e675146107f35780635ebe23f0146108135780635feeb79414610829578063633fb68f1461084957600080fd5b80631b44555e116103f4578063280b656c116103b8578063280b656c1461073e5780634a8d13481461075e57806352a4de2914610773578063575288bf14610793578063594a3a93146107b357600080fd5b80631b44555e1461064c5780631ef94b911461067957806321040b01146106b1578063238efcbc146106e9578063274a8db4146106fe57600080fd5b806311466d721161043b57806311466d721461055257806315006b8214610572578063160e1e31146105aa578063165e62e7146105ca578063168f92e71461061457600080fd5b8063034d4c611461048357806307b435c2146104b65780630c620bce146104ee5780630d6a1f87146105105780631101eb411461053057600080fd5b3661047e57005b600080fd5b34801561048f57600080fd5b506104a361049e366004614c81565b611081565b6040519081526020015b60405180910390f35b3480156104c257600080fd5b506104a36104d1366004614c9e565b601260209081526000928352604080842090915290825290205481565b3480156104fa57600080fd5b50610503611187565b6040516104ad9190614cd7565b34801561051c57600080fd5b506104a361052b366004614d24565b611198565b34801561053c57600080fd5b5061055061054b366004614d50565b61129c565b005b34801561055e57600080fd5b5061055061056d366004614d24565b6113f6565b34801561057e57600080fd5b506104a361058d366004614c9e565b601060209081526000928352604080842090915290825290205481565b3480156105b657600080fd5b506105506105c5366004614c81565b61159b565b3480156105d657600080fd5b506105ea6105e5366004614c81565b6116e9565b604080518251600690810b825260208085015190910b9082015291810151908201526060016104ad565b34801561062057600080fd5b506104a361062f366004614c9e565b600960209081526000928352604080842090915290825290205481565b34801561065857600080fd5b506104a3610667366004614c81565b60056020526000908152604090205481565b34801561068557600080fd5b50601b54610699906001600160a01b031681565b6040516001600160a01b0390911681526020016104ad565b3480156106bd57600080fd5b506104a36106cc366004614c9e565b601360209081526000928352604080842090915290825290205481565b3480156106f557600080fd5b50610550611a7c565b34801561070a57600080fd5b5061072e610719366004614c81565b601a6020526000908152604090205460ff1681565b60405190151581526020016104ad565b34801561074a57600080fd5b50610550610759366004614c81565b611b05565b34801561076a57600080fd5b50602e546104a3565b34801561077f57600080fd5b5061055061078e366004614d50565b611b14565b34801561079f57600080fd5b506105506107ae366004614d50565b611d4f565b3480156107bf57600080fd5b506105506107ce366004614c9e565b611feb565b3480156107df57600080fd5b506105506107ee366004614c81565b612090565b3480156107ff57600080fd5b50601754610699906001600160a01b031681565b34801561081f57600080fd5b506104a3601f5481565b34801561083557600080fd5b50610550610844366004614c81565b612142565b34801561085557600080fd5b506104a360215481565b34801561086b57600080fd5b5061055061087a366004614c81565b6123b3565b34801561088b57600080fd5b5061055061089a366004614c81565b61243f565b3480156108ab57600080fd5b506104a36108ba366004614c9e565b602860209081526000928352604080842090915290825290205481565b3480156108e357600080fd5b506105506108f2366004614d91565b6124f8565b34801561090357600080fd5b5061072e610912366004614c81565b612558565b34801561092357600080fd5b506104a3610932366004614c81565b6125b8565b34801561094357600080fd5b50610550610952366004614c81565b612700565b34801561096357600080fd5b50610550610972366004614c81565b6127a0565b34801561098357600080fd5b506104a360225481565b34801561099957600080fd5b50601e54610699906001600160a01b031681565b3480156109b957600080fd5b506105036127ab565b3480156109ce57600080fd5b506106996109dd366004614c81565b6001602052600090815260409020546001600160a01b031681565b348015610a0457600080fd5b506104a3610a13366004614c81565b6127b7565b348015610a2457600080fd5b5061072e610a33366004614c81565b60146020526000908152604090205460ff1681565b348015610a5457600080fd5b50610550610a63366004614d91565b61285a565b348015610a7457600080fd5b50610550610a83366004614c9e565b6128b8565b348015610a9457600080fd5b506105036129a1565b348015610aa957600080fd5b50610699610ab8366004614c81565b6002602052600090815260409020546001600160a01b031681565b348015610adf57600080fd5b50610550610aee366004614c81565b6129ad565b348015610aff57600080fd5b50610550610b0e366004614daa565b612a66565b348015610b1f57600080fd5b506104a3610b2e366004614c9e565b600860209081526000928352604080842090915290825290205481565b348015610b5757600080fd5b50610550610b66366004614c81565b612c3a565b348015610b7757600080fd5b506104a3610b86366004614c81565b60296020526000908152604090205481565b348015610ba457600080fd5b506104a360205481565b348015610bba57600080fd5b50610550610bc9366004614c81565b612c45565b348015610bda57600080fd5b50610550610be9366004614c81565b612cfa565b348015610bfa57600080fd5b50610550610c09366004614c9e565b612d73565b348015610c1a57600080fd5b5061072e610c29366004614c81565b60076020526000908152604090205460ff1681565b348015610c4a57600080fd5b50610550610c59366004614d91565b6131f0565b348015610c6a57600080fd5b506104a3610c79366004614c9e565b602560209081526000928352604080842090915290825290205481565b348015610ca257600080fd5b50610550610cb1366004614c81565b613250565b348015610cc257600080fd5b50610550610cd1366004614d91565b61344a565b348015610ce257600080fd5b5061072e610cf1366004614c81565b60196020526000908152604090205460ff1681565b348015610d1257600080fd5b50601c54610699906001600160a01b031681565b348015610d3257600080fd5b50610550610d41366004614c9e565b6134aa565b348015610d5257600080fd5b50610550610d61366004614c81565b6134d1565b348015610d7257600080fd5b50610550610d81366004614d91565b613571565b348015610d9257600080fd5b506104a3610da1366004614c9e565b601160209081526000928352604080842090915290825290205481565b348015610dca57600080fd5b50610550610dd9366004614df5565b6135f5565b348015610dea57600080fd5b50610550610df9366004614d50565b61382f565b348015610e0a57600080fd5b506104a360245481565b348015610e2057600080fd5b506104a3610e2f366004614c81565b60066020526000908152604090205481565b348015610e4d57600080fd5b506105ea610e5c366004614c81565b6040805160608082018352600080835260208084018290529284018190526001600160a01b03949094168452602b825292829020825193840183528054600681810b8652600160381b909104900b91840191909152600101549082015290565b348015610ec857600080fd5b506104a3610ed7366004614c81565b6001600160a01b03166000908152600a602052604090205490565b348015610efe57600080fd5b50610550610f0d366004614d91565b6139be565b348015610f1e57600080fd5b50610550610f2d366004614c81565b613a1e565b348015610f3e57600080fd5b50610699610f4d366004614c81565b602c602052600090815260409020546001600160a01b031681565b348015610f7457600080fd5b50610550610f83366004614c81565b613abe565b348015610f9457600080fd5b50601d54610699906001600160a01b031681565b348015610fb457600080fd5b506104a3610fc3366004614c81565b602a6020526000908152604090205481565b348015610fe157600080fd5b50601854610699906001600160a01b031681565b34801561100157600080fd5b506104a3611010366004614c81565b6001600160a01b03166000908152600b602052604090205490565b34801561103757600080fd5b5061072e611046366004614e48565b613b73565b34801561105757600080fd5b506104a360235481565b34801561106d57600080fd5b5061055061107c366004614d24565b613c5c565b60008061108d836125b8565b60225490915042906110a8906110a39083614eaf565b613d4c565b6001600160a01b038516600090815260296020526040902054111561114c576022546001600160a01b0385166000908152602960205260409020546110ed9042614eaf565b10611129576022546001600160a01b0385166000908152602960205260409020546111189190614ec6565b6111229082614eaf565b9050611162565b6001600160a01b0384166000908152602960205260409020546111229082614eaf565b61115542613d4c565b61115f9082614eaf565b90505b61116c8183613d66565b611175856127b7565b61117f9190614ec6565b949350505050565b60606111936026613d90565b905090565b60006111a5602684613da4565b156112965760006111b5846116e9565b90508060400151600014611294576001600160a01b0384166000908152600f602052604081205460ff166111f65781602001516111f190614ede565b6111fc565b81602001515b601d5460225460405163a0d2710760e01b815260048101889052600684900b6024820152604481019190915291925061128b916001600160a01b039091169063a0d27107906064015b602060405180830381865afa158015611262573d6000803e3d6000fd5b505050506040513d601f19601f820116820180604052508101906112869190614f04565b613dc6565b92505050611296565b505b92915050565b6001600160a01b0383811660009081526001602052604090205484911633146112d857604051636efb4f4160e11b815260040160405180910390fd5b6020546112e59042614ec6565b6001600160a01b03808616600081815260126020908152604080832094891680845294825280832095909555918152601382528381209281529190529081208054849290611334908490614ec6565b909155506113459050848484613dd7565b6001600160a01b03808516600090815260286020908152604080832093871683529290522054801580159061138457506021546113828286613fe8565b105b156113a257604051636f447fcd60e11b815260040160405180910390fd5b836001600160a01b0316856001600160a01b03167f9aaab310d247ad45aef26bbdefc4ebf20c728fdb84c92b95b2b05d21826940de856040516113e791815260200190565b60405180910390a35050505050565b3360008181526007602052604090205460ff16156114275760405163ad2fdf3b60e01b815260040160405180910390fd5b611432601582613da4565b61144e5760405162941a5760e11b815260040160405180910390fd5b61145781614101565b156114b4576001600160a01b038116600081815260296020908152604080832054600a835281842054600b845293829020548251918252928101939093528201526000805160206151e98339815191529060600160405180910390a25b6001600160a01b0381166000908152600a6020526040902054821115611535576114dd816142d7565b6001600160a01b038116600081815260296020908152604080832054600a835281842054600b845293829020548251918252928101939093528201526000805160206151e98339815191529060600160405180910390a25b611540818484614365565b601b546001600160a01b038085169183821691167f46f2180879a7123a197cc3828c28955d70d661c70acbdc02450daf5f9a9c1cfa8561157e614449565b6040805192835260208301919091520160405180910390a4505050565b6017546001600160a01b031633146115c6576040516354348f0360e01b815260040160405180910390fd5b6001600160a01b0381166115ed5760405163d92e233d60e01b815260040160405180910390fd5b601e80546001600160a01b038381166001600160a01b031992831681179093556000838152600e60205260409081902080549093168417909255601d54915163696a437b60e01b81526004810193909352169063696a437b90602401602060405180830381865afa158015611666573d6000803e3d6000fd5b505050506040513d601f19601f8201168201806040525081019061168a9190614f2d565b6001600160a01b0382166000818152600f6020908152604091829020805460ff191694151594909417909355519081527f9bb1515b0fc2645a3f011162460a22fdd512e0bca265e7dc9ba6bceae8930afa91015b60405180910390a150565b604080516060810182526000808252602082018190529181019190915261170f42613d4c565b6001600160a01b0383166000908152602b60205260409020600101540361177c57506001600160a01b03166000908152602b602090815260409182902082516060810184528154600681810b8352600160381b909104900b92810192909252600101549181019190915290565b600080611790602254426110a39190614eaf565b6001600160a01b0385166000908152602b60205260409020600101549091508190036118df57604080516001808252818301909252600091602080830190803683375050506001600160a01b0386166000908152602b602052604090205490915060060b6117fd42613d4c565b6118079042614eaf565b8260008151811061181a5761181a614f48565b63ffffffff909216602092830291909101820152601d546001600160a01b038881166000908152600e90935260409283902054925163dc686d9160e01b81529181169263dc686d91926118769291909116908690600401614f5e565b606060405180830381865afa158015611893573d6000803e3d6000fd5b505050506040513d601f19601f820116820180604052508101906118b79190614fcc565b60069290920b8088529195506118cf9183915061500f565b60060b602086015250611a539050565b6001600160a01b0384166000908152602b6020526040902060010154811115611a535760408051600280825260608201835260009260208301908036833701905050905061192c42613d4c565b6119369042614eaf565b8160008151811061194957611949614f48565b602002602001019063ffffffff16908163ffffffff168152505060225461196f42613d4c565b6119799042614eaf565b6119839190614ec6565b8160018151811061199657611996614f48565b63ffffffff909216602092830291909101820152601d546001600160a01b038781166000908152600e909352604080842054905163dc686d9160e01b81529282169263dc686d91926119ee9216908690600401614f5e565b606060405180830381865afa158015611a0b573d6000803e3d6000fd5b505050506040513d601f19601f82011682018060405250810190611a2f9190614fcc565b60069290920b8088529195509150611a4890829061500f565b60060b602086015250505b8115611a6c57611a6242613d4c565b6040840152611a74565b600060408401525b50505b919050565b6018546001600160a01b03163314611aa757604051637ef5703160e11b815260040160405180910390fd5b60188054601780546001600160a01b0383166001600160a01b031991821681179092559091169091556040519081527fc73be659241aade67e9a059bcf21494955018b213dbd1179054ccf928b13f3b69060200160405180910390a1565b611b10602682614463565b5050565b600260005403611b3f5760405162461bcd60e51b8152600401611b369061505f565b60405180910390fd5b6002600055611b4f602683613da4565b611b6c5760405163e0b6aead60e01b815260040160405180910390fd5b611b77601584613da4565b611b9457604051636211d34960e01b815260040160405180910390fd5b6001600160a01b0383166000908152600d60205260409020611bb69083614463565b50611bc083614478565b6021546001600160a01b03808516600090815260286020908152604080832093871683529290522054611bfe90611bf8908490614ec6565b84613fe8565b1015611c1d57604051636f447fcd60e11b815260040160405180910390fd5b6001600160a01b038316600081815260296020908152604080832054600a835281842054600b845293829020548251918252928101939093528201526000805160206151e98339815191529060600160405180910390a2611c896001600160a01b0383163330846144d6565b6001600160a01b03808416600090815260286020908152604080832093861683529290529081208054839290611cc0908490614ec6565b90915550611cd390506112868284613fe8565b6001600160a01b0384166000908152600b602052604081208054909190611cfb908490614ec6565b909155505060405181815233906001600160a01b0384811691908616907f4e186bc75a2220191b826baff3ee63c3e970e94e58a9007ff94c9a7b8e6ebb3f9060200160405180910390a45050600160005550565b600260005403611d715760405162461bcd60e51b8152600401611b369061505f565b6002600055611d81601584613da4565b611d9e57604051636211d34960e01b815260040160405180910390fd5b601b546001600160a01b0390811690831603611dcc5760405162822d9760e71b815260040160405180910390fd5b6040516370a0823160e01b81523060048201526000906001600160a01b038416906370a0823190602401602060405180830381865afa158015611e13573d6000803e3d6000fd5b505050506040513d601f19601f82011682018060405250810190611e379190614f04565b9050611e4e6001600160a01b0384163330856144d6565b6040516370a0823160e01b815230600482015260009082906001600160a01b038616906370a0823190602401602060405180830381865afa158015611e97573d6000803e3d6000fd5b505050506040513d601f19601f82011682018060405250810190611ebb9190614f04565b611ec59190614eaf565b9050600061271060245483611eda9190615096565b611ee491906150cb565b9050611ef08183614eaf565b6001600160a01b038088166000908152600960209081526040808320938a1683529290529081208054909190611f27908490614ec6565b90915550506001600160a01b0380871660009081526025602090815260408083208985168085529252909120429055601754611f64921683614547565b6001600160a01b0386166000908152600c60205260409020611f869086614463565b50336001600160a01b0316856001600160a01b0316876001600160a01b03167fec1a37d4a331a5059081e0fb5da1735e7890900cd215a4fb1e9f2779fd7b83eb85604051611fd691815260200190565b60405180910390a45050600160005550505050565b6001600160a01b03828116600090815260016020526040902054839116331461202757604051636efb4f4160e11b815260040160405180910390fd5b6001600160a01b03838116600081815260026020908152604080832080546001600160a01b031916888716908117909155600190925280832054905191941692917fa8bad3f0b781e1d954af9945167d5f80bfe5e57930f17c93843187c77557a6b891a4505050565b6001600160a01b0381811660009081526002602052604090205482911633146120cc5760405163cfe9663360e01b815260040160405180910390fd5b6001600160a01b03828116600081815260016020908152604080832080546002909352818420805487166001600160a01b031980861691909117909255805490911690555193169283929133917fcf30c54296d5eee76168b564c59c50578d49c271733a470f32707c8cfbc88a8b9190a4505050565b3360008181526007602052604090205460ff16156121735760405163ad2fdf3b60e01b815260040160405180910390fd5b61217e601582613da4565b61219a5760405162941a5760e11b815260040160405180910390fd5b6121a381614101565b15612200576001600160a01b038116600081815260296020908152604080832054600a835281842054600b845293829020548251918252928101939093528201526000805160206151e98339815191529060600160405180910390a25b601d546001600160a01b038381166000908152600860209081526040808320601b548516845290915280822054905163435b21c160e01b8152600481019190915290928392839291169063435b21c190602401606060405180830381865afa158015612270573d6000803e3d6000fd5b505050506040513d601f19601f8201168201806040525081019061229491906150df565b92509250925060006122a4614449565b905060006122b482848688614577565b6001600160a01b0387166000908152600a6020526040902054909150811115612350576122e0866142d7565b6001600160a01b038616600081815260296020908152604080832054600a835281842054600b845293829020548251918252928101939093528201526000805160206151e98339815191529060600160405180910390a261233f614449565b915061234d82848688614577565b90505b61235b868883614365565b601b5460408051838152602081018590526001600160a01b038a8116938a8216939116917f46f2180879a7123a197cc3828c28955d70d661c70acbdc02450daf5f9a9c1cfa910160405180910390a450505050505050565b6017546001600160a01b031633146123de576040516354348f0360e01b815260040160405180910390fd5b6123e96026826145d4565b61240657604051630a8d08b160e01b815260040160405180910390fd5b6040516001600160a01b03821681527f51199d699bdfd516fa88dd0d2f8487c40c147b4867acaa23adc8d4df6b098e56906020016116de565b6017546001600160a01b0316331461246a576040516354348f0360e01b815260040160405180910390fd5b6001600160a01b03811660009081526019602052604090205460ff16156124a45760405163546da66560e11b815260040160405180910390fd5b6001600160a01b038116600081815260196020908152604091829020805460ff1916600117905590519182527f049ccb28ab796d3225573a065712f6e7754487ced56056cda8889c337511807b91016116de565b6017546001600160a01b03163314612523576040516354348f0360e01b815260040160405180910390fd5b60248190556040518181527f4c10ca068ff7002cf5da78f2f697d1e91f6f0ac27f7344b28e8ef25263f87e5d906020016116de565b6000612562614449565b602e55612570600383613da4565b15611a77577f4851cad52e624c8f7a1d44c28a80db05988ba2451fc0db6b0ec338d8eca95afb602e546040516125a891815260200190565b60405180910390a1506001919050565b6000805b6001600160a01b0383166000908152600d602052604090206125dd906145e9565b8110156126fa576001600160a01b0383166000908152600d6020526040812061260690836145f3565b9050612613602682613da4565b156126e7576000612623826116e9565b905080604001516000146126e5576001600160a01b0382166000908152600f602052604081205460ff1661266457816020015161265f90614ede565b61266a565b81602001515b601d546001600160a01b03888116600090815260286020908152604080832089851684529091529081902054602254915163a0d2710760e01b81526004810191909152600685900b602482015260448101919091529293506126d79291169063a0d2710790606401611245565b6126e19086614ec6565b9450505b505b50806126f28161510d565b9150506125bc565b50919050565b6017546001600160a01b0316331461272b576040516354348f0360e01b815260040160405180910390fd5b6001600160a01b0381166127525760405163d92e233d60e01b815260040160405180910390fd5b601d80546001600160a01b0319166001600160a01b0383169081179091556040519081527f71973fd672e51deb8f739b1f7e1eab991936645acd6f83e2bde6eeeaff5490b0906020016116de565b611b10600382614463565b60606111936015613d90565b6000806127c3836125b8565b6022546001600160a01b038516600090815260296020526040902054919250906127ed9042614eaf565b10156112965760008111612819576001600160a01b0383166000908152600a6020526040902054612853565b6001600160a01b0383166000908152600b6020908152604080832054600a90925290912054612849908390615096565b61285391906150cb565b91506126fa565b6017546001600160a01b03163314612885576040516354348f0360e01b815260040160405180910390fd5b60208181556040518281527fc8d443472c9783cc36f8f5f5091f08ce9f37fc2f9e6d79cf1d9aaf40a433fee291016116de565b6001600160a01b0382811660009081526001602052604090205483911633146128f457604051636efb4f4160e11b815260040160405180910390fd5b816001600160a01b0316836001600160a01b0316036129265760405163afe7ad4960e01b815260040160405180910390fd5b6001600160a01b038381166000818152602c6020908152604080832080546001600160a01b0319169588169586179055602d8252808320858452825291829020429055905192835290917fff0456758201108de53c0ff04c69988d4678ff455b2ce6f733328cf85722c04c91015b60405180910390a2505050565b60606111936003613d90565b6017546001600160a01b031633146129d8576040516354348f0360e01b815260040160405180910390fd5b6001600160a01b0381166000908152601a602052604090205460ff1615612a125760405163274e25dd60e11b815260040160405180910390fd5b6001600160a01b0381166000818152601a6020908152604091829020805460ff1916600117905590519182527f8addc69f897ecca0e41d70ed4ff9d75a9148a615a0fbda8597e53aea2684302f91016116de565b6001600160a01b038381166000908152600160205260409020548491163314612aa257604051636efb4f4160e11b815260040160405180910390fd5b6001600160a01b038216612ac95760405163d92e233d60e01b815260040160405180910390fd5b6001600160a01b0380851660009081526013602090815260408083209387168352929052908120549003612b105760405163184c088160e21b815260040160405180910390fd5b6001600160a01b038085166000908152601260209081526040808320938716835292905220544211612b55576040516327cfdcb760e01b815260040160405180910390fd5b6001600160a01b03841660009081526007602052604090205460ff1615612b8f576040516362e6201d60e01b815260040160405180910390fd5b6001600160a01b0380851660008181526013602090815260408083209488168084529482528083208054908490559383526012825280832085845290915281205590612bdc908483614547565b826001600160a01b0316846001600160a01b0316866001600160a01b03167ffdb7893bf11f50c621e59cc7f1cf540e94295cb27ca869ec7ed7618ca792886284604051612c2b91815260200190565b60405180910390a45050505050565b611b10601582614463565b6017546001600160a01b03163314612c70576040516354348f0360e01b815260040160405180910390fd5b6001600160a01b03811660009081526019602052604090205460ff16612ca9576040516336fe17e760e21b815260040160405180910390fd5b6001600160a01b038116600081815260196020908152604091829020805460ff1916905590519182527f3ed8cbce8cab40e59282f1743e2b607effa08b5cbe0111bb4721134f2f80d02591016116de565b6017546001600160a01b03163314612d25576040516354348f0360e01b815260040160405180910390fd5b601880546001600160a01b0319166001600160a01b0383169081179091556040519081527fe987aaedf9d279143bdf1eee16cf1d0feb47742867d81083df8d6cd0a5ac857f906020016116de565b6001600160a01b038181166000908152600160205260409020548291163314612daf57604051636efb4f4160e11b815260040160405180910390fd5b6001600160a01b03831660009081526007602052604090205460ff1680612dee57506001600160a01b03821660009081526007602052604090205460ff165b15612e0c5760405163ad2fdf3b60e01b815260040160405180910390fd5b6001600160a01b038381166000908152602c6020526040902054811690831614612e4957604051630ced616b60e21b815260040160405180910390fd5b6001600160a01b038084166000908152602d6020908152604080832093861683529290522054612e7b90603c90614ec6565b421015612e9b576040516356248e9760e01b815260040160405180910390fd5b612ea483614478565b612ead82614478565b6001600160a01b0383166000908152600c60205260408120612ece906145e9565b1115612fb0576001600160a01b0383166000908152600c60205260408120612ef690826145f3565b6001600160a01b03808616600090815260096020818152604080842085871680865290835281852054958a168552928252808420928452919052812080549394509192612f44908490614ec6565b90915550506001600160a01b0380851660008181526009602090815260408083209486168352938152838220829055918152600c90915220612f8690826145d4565b506001600160a01b0383166000908152600c60205260409020612fa99082614463565b5050612ead565b6001600160a01b0383166000908152600d60205260408120612fd1906145e9565b11156130b3576001600160a01b0383166000908152600d60205260408120612ff990826145f3565b6001600160a01b03808616600090815260286020818152604080842085871680865290835281852054958a168552928252808420928452919052812080549394509192613047908490614ec6565b90915550506001600160a01b038085166000908152602860209081526040808320858516845282528083208390559286168252600d9052206130899082614463565b506001600160a01b0384166000908152600d602052604090206130ac90826145d4565b5050612fb0565b6001600160a01b038084166000908152600b6020526040808220549285168252812080549091906130e5908490614ec6565b90915550506001600160a01b038084166000908152600b60209081526040808320839055600a90915280822054928516825281208054909190613129908490614ec6565b90915550506001600160a01b0383166000908152600a60209081526040808320839055602990915281205561315f6015846145d4565b506001600160a01b03838116600081815260016020908152604080832080546001600160a01b031990811690915560028352818420805482169055602d8352818420958816808552958352818420849055848452602c835292819020805490931690925590519182527f9b712b63e3fb1325fa042d3c238ce8144937875065900528ea1e4f3b00f379f29101612994565b6017546001600160a01b0316331461321b576040516354348f0360e01b815260040160405180910390fd5b60238190556040518181527fbdcfd7b8482f31cff6a87c362d9e2e3887f4cdc2018c7c485d8e78a7b2fadb69906020016116de565b6017546001600160a01b0316331461327b576040516354348f0360e01b815260040160405180910390fd5b613286602682614463565b6132a35760405163f25e6b9f60e01b815260040160405180910390fd5b806001600160a01b03166316f0115b6040518163ffffffff1660e01b8152600401602060405180830381865afa1580156132e1573d6000803e3d6000fd5b505050506040513d601f19601f820116820180604052508101906133059190615126565b6001600160a01b038281166000908152600e60205260409081902080546001600160a01b0319169383169384179055601d54905163696a437b60e01b81526004810193909352169063696a437b90602401602060405180830381865afa158015613373573d6000803e3d6000fd5b505050506040513d601f19601f820116820180604052508101906133979190614f2d565b6001600160a01b0382166000908152600f60205260409020805460ff19169115159190911790556133c7816116e9565b6001600160a01b0382166000818152602b6020908152604091829020845181548684015166ffffffffffffff908116600160381b026001600160701b031990921692169190911717815593820151600190940193909355519081527fabfa8db4d238fa78bf4e15fcc91328dd35f3978f200e2857a56bb719732b7b0b91016116de565b6017546001600160a01b03163314613475576040516354348f0360e01b815260040160405180910390fd5b601f8190556040518181527fd319ef78d2b690bb773fcccc2d096306bac7c9222dd0bb6b300f461e4a376b43906020016116de565b6001600160a01b0382166000908152600d602052604090206134cc9082614463565b505050565b6017546001600160a01b031633146134fc576040516354348f0360e01b815260040160405180910390fd5b6001600160a01b0381166135235760405163d92e233d60e01b815260040160405180910390fd5b601c80546001600160a01b0319166001600160a01b0383169081179091556040519081527feb931b4b5a98d20a6b1e6693a7c59d8e337a06e2f1473bb776e19251db7ae250906020016116de565b6017546001600160a01b0316331461359c576040516354348f0360e01b815260040160405180910390fd5b620151808110156135c057604051633f384aad60e21b815260040160405180910390fd5b60228190556040518181527f54aafa56429e22230b52f1495588ffc632277d74f3a85ec755e13ac50c1584d9906020016116de565b6002600054036136175760405162461bcd60e51b8152600401611b369061505f565b600260009081556001600160a01b0385811682526001602052604090912054859116331461365857604051636efb4f4160e11b815260040160405180910390fd5b6001600160a01b0380861660009081526025602090815260408083209388168352929052205461368a90603c90614ec6565b42116136a957604051631e0b407560e01b815260040160405180910390fd5b6001600160a01b038086166000908152600960209081526040808320938816835292905220548311156136ef5760405163024ae82d60e61b815260040160405180910390fd5b6001600160a01b03851660009081526007602052604090205460ff16156137295760405163ad2fdf3b60e01b815260040160405180910390fd5b6001600160a01b03808616600090815260096020908152604080832093881683529290529081208054859290613760908490614eaf565b9091555061377a90506001600160a01b0385168385614547565b6001600160a01b03808616600090815260096020908152604080832093881683529290529081205490036137cc576001600160a01b0385166000908152600c602052604090206137ca90856145d4565b505b816001600160a01b0316846001600160a01b0316866001600160a01b03167f53e982dd9ec088d634c74c98fbbc161f808b4b6469a26c657120b9a31cb34bfe8660405161381b91815260200190565b60405180910390a450506001600055505050565b3360008181526007602052604090205460ff16156138605760405163ad2fdf3b60e01b815260040160405180910390fd5b6001600160a01b03831660009081526007602052604090205460ff161561389a576040516362e6201d60e01b815260040160405180910390fd5b6138a5601582613da4565b6138c15760405162941a5760e11b815260040160405180910390fd5b6001600160a01b038082166000908152600960209081526040808320938816835292905220548211156139075760405163356680b760e01b815260040160405180910390fd5b6001600160a01b0380821660009081526009602090815260408083209388168352929052908120805484929061393e908490614eaf565b9091555061395890506001600160a01b0385168484614547565b826001600160a01b0316816001600160a01b0316856001600160a01b03167f46f2180879a7123a197cc3828c28955d70d661c70acbdc02450daf5f9a9c1cfa856139a0614449565b6040805192835260208301919091520160405180910390a450505050565b6017546001600160a01b031633146139e9576040516354348f0360e01b815260040160405180910390fd5b60218190556040518181527f24d51b415694a791b1c77df7817c075ac82b83ce611bcd8627d2e66cf37aa3e7906020016116de565b6017546001600160a01b03163314613a49576040516354348f0360e01b815260040160405180910390fd5b6001600160a01b038116613a705760405163d92e233d60e01b815260040160405180910390fd5b601b80546001600160a01b0319166001600160a01b0383169081179091556040519081527f1d1a3e7caf0717056e48dc8aefa54d806c7af86324fece4e5d49f8e1f01f84bf906020016116de565b6017546001600160a01b03163314613ae9576040516354348f0360e01b815260040160405180910390fd5b6001600160a01b0381166000908152601a602052604090205460ff16613b2257604051633ca0d42760e11b815260040160405180910390fd5b6001600160a01b0381166000818152601a6020908152604091829020805460ff1916905590519182527f5e8bd21d0a98cb2caf33706e56139ff40ffbdca7ec5d9d412a0a2292496dc70e91016116de565b6000613b7d614449565b602e55613b8b600387613da4565b8015613bbc57506001600160a01b038087166000908152600860209081526040808320938916835292905220548411155b8015613be057506001600160a01b0386166000908152600560205260409020548311155b8015613c0f57506001600160a01b0386166000908152600660205260409020548290613c0c9042614eaf565b10155b15613c53577f4851cad52e624c8f7a1d44c28a80db05988ba2451fc0db6b0ec338d8eca95afb602e54604051613c4791815260200190565b60405180910390a15060015b95945050505050565b6017546001600160a01b03163314613c87576040516354348f0360e01b815260040160405180910390fd5b613c92601583613da4565b613caf57604051636211d34960e01b815260040160405180910390fd5b613cb882614478565b6001600160a01b0382166000908152600a602052604081208054839290613ce0908490614ec6565b90915550506001600160a01b038216600081815260296020908152604080832054600a909252918290205491517f5abcf5031fdbd3badb9d1e09094208de329aee72730e87650f346584205d23d192613d40928252602082015260400190565b60405180910390a25050565b600060225482613d5c9190615143565b6112969083614eaf565b60006022548310156126fa57602254613d7f8385615096565b613d8991906150cb565b9050611296565b60606000613d9d836145ff565b9392505050565b6001600160a01b03811660009081526001830160205260408120541515613d9d565b60006112968260225460235461465b565b600260005403613df95760405162461bcd60e51b8152600401611b369061505f565b600260009081556001600160a01b0384168152600d60205260409020613e1f9083613da4565b613e3b576040516241cfa560e21b815260040160405180910390fd5b6001600160a01b03808416600090815260286020908152604080832093861683529290522054811115613e815760405163435b562560e01b815260040160405180910390fd5b613e8a83614708565b6000613e996112868385613fe8565b6001600160a01b0385166000908152600b602052604090205490915015613f4f576001600160a01b0384166000908152600b6020908152604080832054600a90925290912054613eea908390615096565b613ef491906150cb565b6001600160a01b0385166000908152600a602052604081208054909190613f1c908490614eaf565b90915550506001600160a01b0384166000908152600b602052604081208054839290613f49908490614eaf565b90915550505b6001600160a01b03808516600090815260286020908152604080832093871683529290529081208054849290613f86908490614eaf565b90915550506001600160a01b0380851660009081526028602090815260408083209387168352929052908120549003613fdd576001600160a01b0384166000908152600d60205260409020613fdb90846145d4565b505b505060016000555050565b6001600160a01b0381166000908152602b602052604081206001015415611296576001600160a01b0382166000908152600f602052604081205460ff1661405a576001600160a01b0383166000908152602b602052604090205461405590600160381b900460060b614ede565b61407e565b6001600160a01b0383166000908152602b6020526040902054600160381b900460060b5b601d5460225460405163a0d2710760e01b815260048101889052600684900b602482015260448101919091529192506001600160a01b03169063a0d2710790606401602060405180830381865afa1580156140dd573d6000803e3d6000fd5b505050506040513d601f19601f8201168201806040525081019061117f9190614f04565b600061410c42613d4c565b6001600160a01b0383166000908152602960205260409020541015611a775761413c602254426110a39190614eaf565b6001600160a01b038316600090815260296020526040902054116141b25761416382614708565b6001600160a01b0382166000908152600b6020908152604080832054600a9092529091205561419142613d4c565b6001600160a01b038316600090815260296020526040902055506001919050565b6022546001600160a01b0383166000908152602960205260409020546141d89042614eaf565b10614234576141e682614708565b6001600160a01b0382166000908152600b6020908152604080832054600a83528184205560225460299092528220805491929091614225908490614ec6565b9091555060019150611a779050565b61423d42613d4c565b6001600160a01b0383166000908152602a60205260409020541015611a77576001600160a01b0382166000908152600b602052604090205461427e83614708565b6001600160a01b0383166000908152600b6020908152604080832054600a9092529091205482916142ae91615096565b6142b891906150cb565b6001600160a01b0384166000908152600a602052604090205550919050565b6001600160a01b03811660009081526029602052604090205461431c906142fe9042614eaf565b6001600160a01b0383166000908152600b6020526040902054613d66565b6001600160a01b0382166000908152600a602052604081208054909190614344908490614ec6565b90915550506001600160a01b03166000908152602960205260409020429055565b6001600160a01b0383166000908152600a602052604090205481111561439e5760405163356680b760e01b815260040160405180910390fd5b6001600160a01b0383166000908152602a60209081526040808320429055600a909152812080548392906143d3908490614eaf565b90915550506001600160a01b038083166000908152600860209081526040808320601b5490941683529290529081208054839290614412908490614ec6565b90915550506001600160a01b0382166000908152600560205260408120805483929061443f908490614ec6565b9091555050505050565b6000603f5a614459906040615096565b61119391906150cb565b6000613d9d836001600160a01b03841661472d565b61448181614101565b5061448b816142d7565b6001600160a01b0381166000908152600a6020908152604080832054600b909252909120546144ba919061477c565b6001600160a01b039091166000908152600a6020526040902055565b6040516001600160a01b03808516602483015283166044820152606481018290526145419085906323b872dd60e01b906084015b60408051601f198184030181529190526020810180516001600160e01b03166001600160e01b031990931692909217909152614792565b50505050565b6040516001600160a01b0383166024820152604481018290526134cc90849063a9059cbb60e01b9060640161450a565b6000808486602e546145899190614eaf565b6145939190614ec6565b9050670de0b6b3a7640000846127106145ac8685615096565b6145b691906150cb565b6145c09190615096565b6145ca91906150cb565b9695505050505050565b6000613d9d836001600160a01b038416614864565b6000611296825490565b6000613d9d8383614957565b60608160000180548060200260200160405190810160405280929190818152602001828054801561464f57602002820191906000526020600020905b81548152602001906001019080831161463b575b50505050509050919050565b6000808060001985870985870292508281108382030391505080600003614694576000841161468957600080fd5b508290049050613d9d565b8084116146a057600080fd5b600084868809600260036001881981018916988990049182028318808302840302808302840302808302840302808302840302808302840302918202909203026000889003889004909101858311909403939093029303949094049190911702949350505050565b61471181614981565b6001600160a01b039091166000908152600b6020526040902055565b600081815260018301602052604081205461477457508154600181810184556000848152602080822090930184905584548482528286019093526040902091909155611296565b506000611296565b600081831061478b5781613d9d565b5090919050565b60006147e7826040518060400160405280602081526020017f5361666545524332303a206c6f772d6c6576656c2063616c6c206661696c6564815250856001600160a01b0316614b559092919063ffffffff16565b8051909150156134cc57808060200190518101906148059190614f2d565b6134cc5760405162461bcd60e51b815260206004820152602a60248201527f5361666545524332303a204552433230206f7065726174696f6e20646964206e6044820152691bdd081cdd58d8d9595960b21b6064820152608401611b36565b6000818152600183016020526040812054801561494d576000614888600183614eaf565b855490915060009061489c90600190614eaf565b90508181146149015760008660000182815481106148bc576148bc614f48565b90600052602060002001549050808760000184815481106148df576148df614f48565b6000918252602080832090910192909255918252600188019052604090208390555b855486908061491257614912615157565b600190038181906000526020600020016000905590558560010160008681526020019081526020016000206000905560019350505050611296565b6000915050611296565b600082600001828154811061496e5761496e614f48565b9060005260206000200154905092915050565b600061498c42613d4c565b601e546001600160a01b03166000908152602b602052604090206001015414614a1b57601e546149c4906001600160a01b03166116e9565b601e546001600160a01b03166000908152602b6020908152604091829020835181549285015166ffffffffffffff908116600160381b026001600160701b0319909416911617919091178155910151600191909101555b60005b6001600160a01b0383166000908152600d60205260409020614a3f906145e9565b8110156126fa576001600160a01b0383166000908152600d60205260408120614a6890836145f3565b9050614a75602682613da4565b15614b4257614a8342613d4c565b6001600160a01b0382166000908152602b602052604090206001015414614b0157614aad816116e9565b6001600160a01b0382166000908152602b6020908152604091829020835181549285015166ffffffffffffff908116600160381b026001600160701b03199094169116179190911781559101516001909101555b6001600160a01b03808516600090815260286020908152604080832093851683529290522054614b35906112869083613fe8565b614b3f9084614ec6565b92505b5080614b4d8161510d565b915050614a1e565b606061117f8484600085856001600160a01b0385163b614bb75760405162461bcd60e51b815260206004820152601d60248201527f416464726573733a2063616c6c20746f206e6f6e2d636f6e74726163740000006044820152606401611b36565b600080866001600160a01b03168587604051614bd39190615199565b60006040518083038185875af1925050503d8060008114614c10576040519150601f19603f3d011682016040523d82523d6000602084013e614c15565b606091505b5091509150614c25828286614c30565b979650505050505050565b60608315614c3f575081613d9d565b825115614c4f5782518084602001fd5b8160405162461bcd60e51b8152600401611b3691906151b5565b6001600160a01b0381168114614c7e57600080fd5b50565b600060208284031215614c9357600080fd5b8135613d9d81614c69565b60008060408385031215614cb157600080fd5b8235614cbc81614c69565b91506020830135614ccc81614c69565b809150509250929050565b6020808252825182820181905260009190848201906040850190845b81811015614d185783516001600160a01b031683529284019291840191600101614cf3565b50909695505050505050565b60008060408385031215614d3757600080fd5b8235614d4281614c69565b946020939093013593505050565b600080600060608486031215614d6557600080fd5b8335614d7081614c69565b92506020840135614d8081614c69565b929592945050506040919091013590565b600060208284031215614da357600080fd5b5035919050565b600080600060608486031215614dbf57600080fd5b8335614dca81614c69565b92506020840135614dda81614c69565b91506040840135614dea81614c69565b809150509250925092565b60008060008060808587031215614e0b57600080fd5b8435614e1681614c69565b93506020850135614e2681614c69565b9250604085013591506060850135614e3d81614c69565b939692955090935050565b600080600080600060a08688031215614e6057600080fd5b8535614e6b81614c69565b94506020860135614e7b81614c69565b94979496505050506040830135926060810135926080909101359150565b634e487b7160e01b600052601160045260246000fd5b600082821015614ec157614ec1614e99565b500390565b60008219821115614ed957614ed9614e99565b500190565b60008160060b667fffffffffffff198103614efb57614efb614e99565b60000392915050565b600060208284031215614f1657600080fd5b5051919050565b80518015158114611a7757600080fd5b600060208284031215614f3f57600080fd5b613d9d82614f1d565b634e487b7160e01b600052603260045260246000fd5b6001600160a01b038316815260406020808301829052835191830182905260009184820191906060850190845b81811015614fad57845163ffffffff1683529383019391830191600101614f8b565b5090979650505050505050565b8051600681900b8114611a7757600080fd5b600080600060608486031215614fe157600080fd5b614fea84614fba565b9250614ff860208501614fba565b915061500660408501614f1d565b90509250925092565b60008160060b8360060b6000811281667fffffffffffff190183128115161561503a5761503a614e99565b81667fffffffffffff01831381161561505557615055614e99565b5090039392505050565b6020808252601f908201527f5265656e7472616e637947756172643a207265656e7472616e742063616c6c00604082015260600190565b60008160001904831182151516156150b0576150b0614e99565b500290565b634e487b7160e01b600052601260045260246000fd5b6000826150da576150da6150b5565b500490565b6000806000606084860312156150f457600080fd5b8351925060208401519150604084015190509250925092565b60006001820161511f5761511f614e99565b5060010190565b60006020828403121561513857600080fd5b8151613d9d81614c69565b600082615152576151526150b5565b500690565b634e487b7160e01b600052603160045260246000fd5b60005b83811015615188578181015183820152602001615170565b838111156145415750506000910152565b600082516151ab81846020870161516d565b9190910192915050565b60208152600082518060208401526151d481604085016020870161516d565b601f01601f1916919091016040019291505056feee3f0daba9837d1ab0597acf34328550e4832d02e24e467825e7c2dd318c3820a264697066735822122002e089693fd13f92078aeb3c49dc2c71b5769881f8c9f8c145e9c9583106656164736f6c634300080e0033",
  "linkReferences": {},
  "deployedLinkReferences": {}
}