{
  "_format": "hh-sol-artifact-1",
  "contractName": "Keep3rKeeperDisputableForTest",
  "sourceName": "contracts/for-test/peripherals/keepers/Keep3rKeeperDisputableForTest.sol",
  "abi": [
    {
      "inputs": [
        {
          "internalType": "address",
          "name": "_kph",
          "type": "address"
        },
        {
          "internalType": "address",
          "name": "_keep3rV1",
          "type": "address"
        },
        {
          "internalType": "address",
          "name": "_keep3rV1Proxy",
          "type": "address"
        },
        {
          "internalType": "address",
          "name": "_kp3rWethPool",
          "type": "address"
        }
      ],
      "stateMutability": "nonpayable",
      "type": "constructor"
    },
    {
      "inputs": [],
      "name": "AlreadyAJob",
      "type": "error"
    },
    {
      "inputs": [],
      "name": "AlreadyDisputed",
      "type": "error"
    },
    {
      "inputs": [],
      "name": "BondsLocked",
      "type": "error"
    },
    {
      "inputs": [],
      "name": "BondsUnexistent",
      "type": "error"
    },
    {
      "inputs": [],
      "name": "Disputed",
      "type": "error"
    },
    {
      "inputs": [],
      "name": "DisputerExistent",
      "type": "error"
    },
    {
      "inputs": [],
      "name": "DisputerUnexistent",
      "type": "error"
    },
    {
      "inputs": [],
      "name": "JobDisputed",
      "type": "error"
    },
    {
      "inputs": [],
      "name": "JobUnavailable",
      "type": "error"
    },
    {
      "inputs": [],
      "name": "MinRewardPeriod",
      "type": "error"
    },
    {
      "inputs": [],
      "name": "NoGovernanceZeroAddress",
      "type": "error"
    },
    {
      "inputs": [],
      "name": "NotDisputed",
      "type": "error"
    },
    {
      "inputs": [],
      "name": "OnlyDisputer",
      "type": "error"
    },
    {
      "inputs": [],
      "name": "OnlyGovernance",
      "type": "error"
    },
    {
      "inputs": [],
      "name": "OnlyPendingGovernance",
      "type": "error"
    },
    {
      "inputs": [],
      "name": "OnlySlasher",
      "type": "error"
    },
    {
      "inputs": [],
      "name": "SlasherExistent",
      "type": "error"
    },
    {
      "inputs": [],
      "name": "SlasherUnexistent",
      "type": "error"
    },
    {
      "inputs": [],
      "name": "UnbondsLocked",
      "type": "error"
    },
    {
      "inputs": [],
      "name": "UnbondsUnexistent",
      "type": "error"
    },
    {
      "inputs": [],
      "name": "ZeroAddress",
      "type": "error"
    },
    {
      "anonymous": false,
      "inputs": [
        {
          "indexed": true,
          "internalType": "address",
          "name": "_keeper",
          "type": "address"
        },
        {
          "indexed": true,
          "internalType": "address",
          "name": "_bond",
          "type": "address"
        },
        {
          "indexed": false,
          "internalType": "uint256",
          "name": "_amount",
          "type": "uint256"
        }
      ],
      "name": "Activation",
      "type": "event"
    },
    {
      "anonymous": false,
      "inputs": [
        {
          "indexed": false,
          "internalType": "uint256",
          "name": "_bondTime",
          "type": "uint256"
        }
      ],
      "name": "BondTimeChange",
      "type": "event"
    },
    {
      "anonymous": false,
      "inputs": [
        {
          "indexed": true,
          "internalType": "address",
          "name": "_keeper",
          "type": "address"
        },
        {
          "indexed": true,
          "internalType": "address",
          "name": "_bonding",
          "type": "address"
        },
        {
          "indexed": false,
          "internalType": "uint256",
          "name": "_amount",
          "type": "uint256"
        }
      ],
      "name": "Bonding",
      "type": "event"
    },
    {
      "anonymous": false,
      "inputs": [
        {
          "indexed": true,
          "internalType": "address",
          "name": "_jobOrKeeper",
          "type": "address"
        },
        {
          "indexed": true,
          "internalType": "address",
          "name": "_disputer",
          "type": "address"
        }
      ],
      "name": "Dispute",
      "type": "event"
    },
    {
      "anonymous": false,
      "inputs": [
        {
          "indexed": false,
          "internalType": "address",
          "name": "_disputer",
          "type": "address"
        }
      ],
      "name": "DisputerAdded",
      "type": "event"
    },
    {
      "anonymous": false,
      "inputs": [
        {
          "indexed": false,
          "internalType": "address",
          "name": "_disputer",
          "type": "address"
        }
      ],
      "name": "DisputerRemoved",
      "type": "event"
    },
    {
      "anonymous": false,
      "inputs": [
        {
          "indexed": false,
          "internalType": "uint256",
          "name": "_fee",
          "type": "uint256"
        }
      ],
      "name": "FeeChange",
      "type": "event"
    },
    {
      "anonymous": false,
      "inputs": [
        {
          "indexed": false,
          "internalType": "address",
          "name": "_pendingGovernance",
          "type": "address"
        }
      ],
      "name": "GovernanceProposal",
      "type": "event"
    },
    {
      "anonymous": false,
      "inputs": [
        {
          "indexed": false,
          "internalType": "address",
          "name": "_governance",
          "type": "address"
        }
      ],
      "name": "GovernanceSet",
      "type": "event"
    },
    {
      "anonymous": false,
      "inputs": [
        {
          "indexed": false,
          "internalType": "uint256",
          "name": "_inflationPeriod",
          "type": "uint256"
        }
      ],
      "name": "InflationPeriodChange",
      "type": "event"
    },
    {
      "anonymous": false,
      "inputs": [
        {
          "indexed": false,
          "internalType": "address",
          "name": "_keep3rHelper",
          "type": "address"
        }
      ],
      "name": "Keep3rHelperChange",
      "type": "event"
    },
    {
      "anonymous": false,
      "inputs": [
        {
          "indexed": false,
          "internalType": "address",
          "name": "_keep3rV1",
          "type": "address"
        }
      ],
      "name": "Keep3rV1Change",
      "type": "event"
    },
    {
      "anonymous": false,
      "inputs": [
        {
          "indexed": false,
          "internalType": "address",
          "name": "_keep3rV1Proxy",
          "type": "address"
        }
      ],
      "name": "Keep3rV1ProxyChange",
      "type": "event"
    },
    {
      "anonymous": false,
      "inputs": [
        {
          "indexed": true,
          "internalType": "address",
          "name": "_keeper",
          "type": "address"
        },
        {
          "indexed": true,
          "internalType": "address",
          "name": "_slasher",
          "type": "address"
        }
      ],
      "name": "KeeperRevoke",
      "type": "event"
    },
    {
      "anonymous": false,
      "inputs": [
        {
          "indexed": true,
          "internalType": "address",
          "name": "_keeper",
          "type": "address"
        },
        {
          "indexed": true,
          "internalType": "address",
          "name": "_slasher",
          "type": "address"
        },
        {
          "indexed": false,
          "internalType": "uint256",
          "name": "_amount",
          "type": "uint256"
        }
      ],
      "name": "KeeperSlash",
      "type": "event"
    },
    {
      "anonymous": false,
      "inputs": [
        {
          "indexed": false,
          "internalType": "address",
          "name": "_kp3rWethPool",
          "type": "address"
        }
      ],
      "name": "Kp3rWethPoolChange",
      "type": "event"
    },
    {
      "anonymous": false,
      "inputs": [
        {
          "indexed": false,
          "internalType": "uint256",
          "name": "_liquidityMinimum",
          "type": "uint256"
        }
      ],
      "name": "LiquidityMinimumChange",
      "type": "event"
    },
    {
      "anonymous": false,
      "inputs": [
        {
          "indexed": true,
          "internalType": "address",
          "name": "_jobOrKeeper",
          "type": "address"
        },
        {
          "indexed": true,
          "internalType": "address",
          "name": "_resolver",
          "type": "address"
        }
      ],
      "name": "Resolve",
      "type": "event"
    },
    {
      "anonymous": false,
      "inputs": [
        {
          "indexed": false,
          "internalType": "uint256",
          "name": "_rewardPeriodTime",
          "type": "uint256"
        }
      ],
      "name": "RewardPeriodTimeChange",
      "type": "event"
    },
    {
      "anonymous": false,
      "inputs": [
        {
          "indexed": false,
          "internalType": "address",
          "name": "_slasher",
          "type": "address"
        }
      ],
      "name": "SlasherAdded",
      "type": "event"
    },
    {
      "anonymous": false,
      "inputs": [
        {
          "indexed": false,
          "internalType": "address",
          "name": "_slasher",
          "type": "address"
        }
      ],
      "name": "SlasherRemoved",
      "type": "event"
    },
    {
      "anonymous": false,
      "inputs": [
        {
          "indexed": false,
          "internalType": "uint256",
          "name": "_unbondTime",
          "type": "uint256"
        }
      ],
      "name": "UnbondTimeChange",
      "type": "event"
    },
    {
      "anonymous": false,
      "inputs": [
        {
          "indexed": true,
          "internalType": "address",
          "name": "_keeperOrJob",
          "type": "address"
        },
        {
          "indexed": true,
          "internalType": "address",
          "name": "_unbonding",
          "type": "address"
        },
        {
          "indexed": false,
          "internalType": "uint256",
          "name": "_amount",
          "type": "uint256"
        }
      ],
      "name": "Unbonding",
      "type": "event"
    },
    {
      "anonymous": false,
      "inputs": [
        {
          "indexed": true,
          "internalType": "address",
          "name": "_keeper",
          "type": "address"
        },
        {
          "indexed": true,
          "internalType": "address",
          "name": "_bond",
          "type": "address"
        },
        {
          "indexed": false,
          "internalType": "uint256",
          "name": "_amount",
          "type": "uint256"
        }
      ],
      "name": "Withdrawal",
      "type": "event"
    },
    {
      "inputs": [],
      "name": "acceptGovernance",
      "outputs": [],
      "stateMutability": "nonpayable",
      "type": "function"
    },
    {
      "inputs": [
        {
          "internalType": "address",
          "name": "_bonding",
          "type": "address"
        }
      ],
      "name": "activate",
      "outputs": [],
      "stateMutability": "nonpayable",
      "type": "function"
    },
    {
      "inputs": [
        {
          "internalType": "address",
          "name": "_disputer",
          "type": "address"
        }
      ],
      "name": "addDisputer",
      "outputs": [],
      "stateMutability": "nonpayable",
      "type": "function"
    },
    {
      "inputs": [
        {
          "internalType": "address",
          "name": "_slasher",
          "type": "address"
        }
      ],
      "name": "addSlasher",
      "outputs": [],
      "stateMutability": "nonpayable",
      "type": "function"
    },
    {
      "inputs": [
        {
          "internalType": "address",
          "name": "_bonding",
          "type": "address"
        },
        {
          "internalType": "uint256",
          "name": "_amount",
          "type": "uint256"
        }
      ],
      "name": "bond",
      "outputs": [],
      "stateMutability": "nonpayable",
      "type": "function"
    },
    {
      "inputs": [],
      "name": "bondTime",
      "outputs": [
        {
          "internalType": "uint256",
          "name": "",
          "type": "uint256"
        }
      ],
      "stateMutability": "view",
      "type": "function"
    },
    {
      "inputs": [
        {
          "internalType": "address",
          "name": "",
          "type": "address"
        },
        {
          "internalType": "address",
          "name": "",
          "type": "address"
        }
      ],
      "name": "bonds",
      "outputs": [
        {
          "internalType": "uint256",
          "name": "",
          "type": "uint256"
        }
      ],
      "stateMutability": "view",
      "type": "function"
    },
    {
      "inputs": [
        {
          "internalType": "address",
          "name": "",
          "type": "address"
        },
        {
          "internalType": "address",
          "name": "",
          "type": "address"
        }
      ],
      "name": "canActivateAfter",
      "outputs": [
        {
          "internalType": "uint256",
          "name": "",
          "type": "uint256"
        }
      ],
      "stateMutability": "view",
      "type": "function"
    },
    {
      "inputs": [
        {
          "internalType": "address",
          "name": "",
          "type": "address"
        },
        {
          "internalType": "address",
          "name": "",
          "type": "address"
        }
      ],
      "name": "canWithdrawAfter",
      "outputs": [
        {
          "internalType": "uint256",
          "name": "",
          "type": "uint256"
        }
      ],
      "stateMutability": "view",
      "type": "function"
    },
    {
      "inputs": [
        {
          "internalType": "address",
          "name": "_jobOrKeeper",
          "type": "address"
        }
      ],
      "name": "dispute",
      "outputs": [],
      "stateMutability": "nonpayable",
      "type": "function"
    },
    {
      "inputs": [
        {
          "internalType": "address",
          "name": "",
          "type": "address"
        }
      ],
      "name": "disputers",
      "outputs": [
        {
          "internalType": "bool",
          "name": "",
          "type": "bool"
        }
      ],
      "stateMutability": "view",
      "type": "function"
    },
    {
      "inputs": [
        {
          "internalType": "address",
          "name": "",
          "type": "address"
        }
      ],
      "name": "disputes",
      "outputs": [
        {
          "internalType": "bool",
          "name": "",
          "type": "bool"
        }
      ],
      "stateMutability": "view",
      "type": "function"
    },
    {
      "inputs": [],
      "name": "fee",
      "outputs": [
        {
          "internalType": "uint256",
          "name": "",
          "type": "uint256"
        }
      ],
      "stateMutability": "view",
      "type": "function"
    },
    {
      "inputs": [
        {
          "internalType": "address",
          "name": "",
          "type": "address"
        }
      ],
      "name": "firstSeen",
      "outputs": [
        {
          "internalType": "uint256",
          "name": "",
          "type": "uint256"
        }
      ],
      "stateMutability": "view",
      "type": "function"
    },
    {
      "inputs": [],
      "name": "governance",
      "outputs": [
        {
          "internalType": "address",
          "name": "",
          "type": "address"
        }
      ],
      "stateMutability": "view",
      "type": "function"
    },
    {
      "inputs": [
        {
          "internalType": "address",
          "name": "",
          "type": "address"
        }
      ],
      "name": "hasBonded",
      "outputs": [
        {
          "internalType": "bool",
          "name": "",
          "type": "bool"
        }
      ],
      "stateMutability": "view",
      "type": "function"
    },
    {
      "inputs": [
        {
          "internalType": "address",
          "name": "_bonded",
          "type": "address"
        },
        {
          "internalType": "address",
          "name": "_keeper",
          "type": "address"
        },
        {
          "internalType": "uint256",
          "name": "_bondAmount",
          "type": "uint256"
        },
        {
          "internalType": "uint256",
          "name": "_unbondAmount",
          "type": "uint256"
        }
      ],
      "name": "internalSlash",
      "outputs": [],
      "stateMutability": "nonpayable",
      "type": "function"
    },
    {
      "inputs": [
        {
          "internalType": "address",
          "name": "_address",
          "type": "address"
        }
      ],
      "name": "isKeeper",
      "outputs": [
        {
          "internalType": "bool",
          "name": "_isKeeper",
          "type": "bool"
        }
      ],
      "stateMutability": "view",
      "type": "function"
    },
    {
      "inputs": [
        {
          "internalType": "address",
          "name": "",
          "type": "address"
        },
        {
          "internalType": "address",
          "name": "",
          "type": "address"
        }
      ],
      "name": "jobTokenCredits",
      "outputs": [
        {
          "internalType": "uint256",
          "name": "",
          "type": "uint256"
        }
      ],
      "stateMutability": "view",
      "type": "function"
    },
    {
      "inputs": [],
      "name": "jobs",
      "outputs": [
        {
          "internalType": "address[]",
          "name": "_list",
          "type": "address[]"
        }
      ],
      "stateMutability": "view",
      "type": "function"
    },
    {
      "inputs": [],
      "name": "keep3rHelper",
      "outputs": [
        {
          "internalType": "address",
          "name": "",
          "type": "address"
        }
      ],
      "stateMutability": "view",
      "type": "function"
    },
    {
      "inputs": [],
      "name": "keep3rV1",
      "outputs": [
        {
          "internalType": "address",
          "name": "",
          "type": "address"
        }
      ],
      "stateMutability": "view",
      "type": "function"
    },
    {
      "inputs": [],
      "name": "keep3rV1Proxy",
      "outputs": [
        {
          "internalType": "address",
          "name": "",
          "type": "address"
        }
      ],
      "stateMutability": "view",
      "type": "function"
    },
    {
      "inputs": [],
      "name": "keepers",
      "outputs": [
        {
          "internalType": "address[]",
          "name": "_list",
          "type": "address[]"
        }
      ],
      "stateMutability": "view",
      "type": "function"
    },
    {
      "inputs": [],
      "name": "kp3rWethPool",
      "outputs": [
        {
          "internalType": "address",
          "name": "",
          "type": "address"
        }
      ],
      "stateMutability": "view",
      "type": "function"
    },
    {
      "inputs": [
        {
          "internalType": "address",
          "name": "",
          "type": "address"
        },
        {
          "internalType": "address",
          "name": "",
          "type": "address"
        }
      ],
      "name": "pendingBonds",
      "outputs": [
        {
          "internalType": "uint256",
          "name": "",
          "type": "uint256"
        }
      ],
      "stateMutability": "view",
      "type": "function"
    },
    {
      "inputs": [],
      "name": "pendingGovernance",
      "outputs": [
        {
          "internalType": "address",
          "name": "",
          "type": "address"
        }
      ],
      "stateMutability": "view",
      "type": "function"
    },
    {
      "inputs": [
        {
          "internalType": "address",
          "name": "",
          "type": "address"
        },
        {
          "internalType": "address",
          "name": "",
          "type": "address"
        }
      ],
      "name": "pendingUnbonds",
      "outputs": [
        {
          "internalType": "uint256",
          "name": "",
          "type": "uint256"
        }
      ],
      "stateMutability": "view",
      "type": "function"
    },
    {
      "inputs": [
        {
          "internalType": "address",
          "name": "_disputer",
          "type": "address"
        }
      ],
      "name": "removeDisputer",
      "outputs": [],
      "stateMutability": "nonpayable",
      "type": "function"
    },
    {
      "inputs": [
        {
          "internalType": "address",
          "name": "_slasher",
          "type": "address"
        }
      ],
      "name": "removeSlasher",
      "outputs": [],
      "stateMutability": "nonpayable",
      "type": "function"
    },
    {
      "inputs": [
        {
          "internalType": "address",
          "name": "_jobOrKeeper",
          "type": "address"
        }
      ],
      "name": "resolve",
      "outputs": [],
      "stateMutability": "nonpayable",
      "type": "function"
    },
    {
      "inputs": [
        {
          "internalType": "address",
          "name": "_keeper",
          "type": "address"
        }
      ],
      "name": "revoke",
      "outputs": [],
      "stateMutability": "nonpayable",
      "type": "function"
    },
    {
      "inputs": [
        {
          "internalType": "uint256",
          "name": "_bondTime",
          "type": "uint256"
        }
      ],
      "name": "setBondTime",
      "outputs": [],
      "stateMutability": "nonpayable",
      "type": "function"
    },
    {
      "inputs": [
        {
          "internalType": "uint256",
          "name": "_fee",
          "type": "uint256"
        }
      ],
      "name": "setFee",
      "outputs": [],
      "stateMutability": "nonpayable",
      "type": "function"
    },
    {
      "inputs": [
        {
          "internalType": "address",
          "name": "_governance",
          "type": "address"
        }
      ],
      "name": "setGovernance",
      "outputs": [],
      "stateMutability": "nonpayable",
      "type": "function"
    },
    {
      "inputs": [
        {
          "internalType": "address",
          "name": "_keep3rHelper",
          "type": "address"
        }
      ],
      "name": "setKeep3rHelper",
      "outputs": [],
      "stateMutability": "nonpayable",
      "type": "function"
    },
    {
      "inputs": [
        {
          "internalType": "address",
          "name": "_keep3rV1",
          "type": "address"
        }
      ],
      "name": "setKeep3rV1",
      "outputs": [],
      "stateMutability": "nonpayable",
      "type": "function"
    },
    {
      "inputs": [
        {
          "internalType": "address",
          "name": "_keep3rV1Proxy",
          "type": "address"
        }
      ],
      "name": "setKeep3rV1Proxy",
      "outputs": [],
      "stateMutability": "nonpayable",
      "type": "function"
    },
    {
      "inputs": [
        {
          "internalType": "address",
          "name": "_keeper",
          "type": "address"
        }
      ],
      "name": "setKeeper",
      "outputs": [],
      "stateMutability": "nonpayable",
      "type": "function"
    },
    {
      "inputs": [
        {
          "internalType": "address",
          "name": "_kp3rWethPool",
          "type": "address"
        }
      ],
      "name": "setKp3rWethPool",
      "outputs": [],
      "stateMutability": "nonpayable",
      "type": "function"
    },
    {
      "inputs": [
        {
          "internalType": "uint256",
          "name": "_unbondTime",
          "type": "uint256"
        }
      ],
      "name": "setUnbondTime",
      "outputs": [],
      "stateMutability": "nonpayable",
      "type": "function"
    },
    {
      "inputs": [
        {
          "internalType": "address",
          "name": "_keeper",
          "type": "address"
        },
        {
          "internalType": "address",
          "name": "_bonded",
          "type": "address"
        },
        {
          "internalType": "uint256",
          "name": "_bondAmount",
          "type": "uint256"
        },
        {
          "internalType": "uint256",
          "name": "_unbondAmount",
          "type": "uint256"
        }
      ],
      "name": "slash",
      "outputs": [],
      "stateMutability": "nonpayable",
      "type": "function"
    },
    {
      "inputs": [
        {
          "internalType": "address",
          "name": "",
          "type": "address"
        }
      ],
      "name": "slashers",
      "outputs": [
        {
          "internalType": "bool",
          "name": "",
          "type": "bool"
        }
      ],
      "stateMutability": "view",
      "type": "function"
    },
    {
      "inputs": [
        {
          "internalType": "address",
          "name": "_bonding",
          "type": "address"
        },
        {
          "internalType": "uint256",
          "name": "_amount",
          "type": "uint256"
        }
      ],
      "name": "unbond",
      "outputs": [],
      "stateMutability": "nonpayable",
      "type": "function"
    },
    {
      "inputs": [],
      "name": "unbondTime",
      "outputs": [
        {
          "internalType": "uint256",
          "name": "",
          "type": "uint256"
        }
      ],
      "stateMutability": "view",
      "type": "function"
    },
    {
      "inputs": [
        {
          "internalType": "address",
          "name": "_bonding",
          "type": "address"
        }
      ],
      "name": "withdraw",
      "outputs": [],
      "stateMutability": "nonpayable",
      "type": "function"
    },
    {
      "inputs": [
        {
          "internalType": "address",
          "name": "",
          "type": "address"
        }
      ],
      "name": "workCompleted",
      "outputs": [
        {
          "internalType": "uint256",
          "name": "",
          "type": "uint256"
        }
      ],
      "stateMutability": "view",
      "type": "function"
    }
  ],
  "bytecode": "0x60806040526203f480601d5562127500601e55601e601f553480156200002457600080fd5b50604051620025853803806200258583398101604081905262000047916200019a565b600160005583838383338080620000705760405162b293ed60e81b815260040160405180910390fd5b601580546001600160a01b03199081166001600160a01b0393841617909155601b80548216888416178155601980548316888516179055601a80548316878516179055601c8054831686851690811782556000818152600c602052604090819020805490951690911790935590549054915163696a437b60e01b81529183166004830152909116915063696a437b90602401602060405180830381865afa15801562000120573d6000803e3d6000fd5b505050506040513d601f19601f82011682018060405250810190620001469190620001f7565b6001600160a01b03919091166000908152600d60205260409020805460ff1916911515919091179055506200022295505050505050565b80516001600160a01b03811681146200019557600080fd5b919050565b60008060008060808587031215620001b157600080fd5b620001bc856200017d565b9350620001cc602086016200017d565b9250620001dc604086016200017d565b9150620001ec606086016200017d565b905092959194509250565b6000602082840312156200020a57600080fd5b815180151581146200021b57600080fd5b9392505050565b61235380620002326000396000f3fe608060405234801561001057600080fd5b50600436106102955760003560e01c80638cb22b7611610167578063b87fcbff116100ce578063e326ac4311610087578063e326ac431461068d578063ec00cdfc146106ad578063f0f346b9146106c0578063f11a1d1a146106d3578063f39c38a0146106e6578063f75f9f7b146106f957600080fd5b8063b87fcbff146105fd578063c20297f014610620578063c7ae40d014610633578063cb4be2bb14610646578063cd22af1b14610659578063ddca3f431461068457600080fd5b8063a5d059ca11610120578063a5d059ca14610585578063a7d2e78414610598578063aac6aa9c146105a1578063ab033ea9146105b4578063b0103b1a146105c7578063b7e77340146105ea57600080fd5b80638cb22b76146104f65780638fe204dd14610519578063951dc22c1461052c5780639d5c33d814610534578063a39744b514610547578063a515366a1461057257600080fd5b806355ea6c471161020b57806372da828a116101c457806372da828a14610482578063748747e61461049557806374a8f103146104a857806375b9a542146104bb5780637b40c913146104ce5780637c8fce23146104e157600080fd5b806355ea6c471461041a5780635aa6e6751461042d5780635ebe23f01461044057806368a9f19c1461044957806369fe0e2d1461045c5780636ba42aaa1461046f57600080fd5b80631c5a9d9c1161025d5780631c5a9d9c146103635780631ef94b911461037657806321040b01146103a1578063238efcbc146103cc578063274a8db4146103d457806351cff8d91461040757600080fd5b806307b435c21461029a57806315006b82146102d8578063160e1e3114610303578063168f92e7146103185780631b44555e14610343575b600080fd5b6102c56102a83660046120d6565b601060209081526000928352604080842090915290825290205481565b6040519081526020015b60405180910390f35b6102c56102e63660046120d6565b600e60209081526000928352604080842090915290825290205481565b610316610311366004612109565b61070c565b005b6102c56103263660046120d6565b600760209081526000928352604080842090915290825290205481565b6102c5610351366004612109565b60036020526000908152604090205481565b610316610371366004612109565b61085a565b601954610389906001600160a01b031681565b6040516001600160a01b0390911681526020016102cf565b6102c56103af3660046120d6565b601160209081526000928352604080842090915290825290205481565b610316610995565b6103f76103e2366004612109565b60186020526000908152604090205460ff1681565b60405190151581526020016102cf565b610316610415366004612109565b610a1e565b610316610428366004612109565b610c54565b601554610389906001600160a01b031681565b6102c5601d5481565b610316610457366004612109565b610d08565b61031661046a366004612124565b610dc1565b6103f761047d366004612109565b610e21565b610316610490366004612109565b610e34565b6103166104a3366004612109565b610ed4565b6103166104b6366004612109565b610ee3565b6103166104c936600461213d565b610fde565b601c54610389906001600160a01b031681565b6104e9610ff0565b6040516102cf919061217f565b6103f7610504366004612109565b60126020526000908152604090205460ff1681565b610316610527366004612124565b611001565b6104e9611061565b610316610542366004612109565b61106d565b6102c56105553660046120d6565b600660209081526000928352604080842090915290825290205481565b6103166105803660046121cc565b611126565b6103166105933660046121cc565b61138e565b6102c5601e5481565b6103166105af366004612109565b611461565b6103166105c2366004612109565b611516565b6103f76105d5366004612109565b60056020526000908152604090205460ff1681565b6103166105f8366004612124565b61158f565b6103f761060b366004612109565b60176020526000908152604090205460ff1681565b61031661062e36600461213d565b6115ef565b601a54610389906001600160a01b031681565b610316610654366004612109565b6116b1565b6102c56106673660046120d6565b600f60209081526000928352604080842090915290825290205481565b6102c5601f5481565b6102c561069b366004612109565b60046020526000908152604090205481565b6103166106bb366004612109565b611751565b6103166106ce366004612109565b6117f1565b601b54610389906001600160a01b031681565b601654610389906001600160a01b031681565b610316610707366004612109565b6118a6565b6015546001600160a01b03163314610737576040516354348f0360e01b815260040160405180910390fd5b6001600160a01b03811661075e5760405163d92e233d60e01b815260040160405180910390fd5b601c80546001600160a01b038381166001600160a01b031992831681179093556000838152600c60205260409081902080549093168417909255601b54915163696a437b60e01b81526004810193909352169063696a437b90602401602060405180830381865afa1580156107d7573d6000803e3d6000fd5b505050506040513d601f19601f820116820180604052508101906107fb91906121f6565b6001600160a01b0382166000818152600d6020908152604091829020805460ff191694151594909417909355519081527f9bb1515b0fc2645a3f011162460a22fdd512e0bca265e7dc9ba6bceae8930afa91015b60405180910390a150565b3360009081526005602052604090205460ff161561088b576040516362e6201d60e01b815260040160405180910390fd5b336000908152600f602090815260408083206001600160a01b038516845290915281205490036108ce57604051636258f48160e01b815260040160405180910390fd5b336000908152600f602090815260408083206001600160a01b0385168452909152902054431161091157604051630fd0eeef60e11b815260040160405180910390fd5b336000818152600f602090815260408083206001600160a01b0386168452909152812081905590610942908361195e565b9050816001600160a01b0316336001600160a01b03167f3673530133b6da67e9854f605b0cfa7bb9798cd33c18036dfc10d8da7c4d4a758360405161098991815260200190565b60405180910390a35050565b6016546001600160a01b031633146109c057604051637ef5703160e11b815260040160405180910390fd5b60168054601580546001600160a01b0383166001600160a01b031991821681179092559091169091556040519081527fc73be659241aade67e9a059bcf21494955018b213dbd1179054ccf928b13f3b69060200160405180910390a1565b600260005403610a755760405162461bcd60e51b815260206004820152601f60248201527f5265656e7472616e637947756172643a207265656e7472616e742063616c6c0060448201526064015b60405180910390fd5b600260009081553381526011602090815260408083206001600160a01b03851684529091528120549003610abc5760405163184c088160e21b815260040160405180910390fd5b3360009081526010602090815260408083206001600160a01b03851684529091529020544311610aff576040516327cfdcb760e01b815260040160405180910390fd5b3360009081526005602052604090205460ff1615610b30576040516362e6201d60e01b815260040160405180910390fd5b3360009081526011602090815260408083206001600160a01b0385811680865291909352922054601954909291169003610bc357601a5460405163140e25ad60e31b8152600481018390526001600160a01b039091169063a0712d6890602401600060405180830381600087803b158015610baa57600080fd5b505af1158015610bbe573d6000803e3d6000fd5b505050505b3360008181526011602090815260408083206001600160a01b03871680855290835281842084905584845260108352818420818552909252822091909155610c0b9183611a77565b6040518181526001600160a01b0383169033907f2717ead6b9200dd235aad468c9809ea400fe33ac69b5bfaa6d3e90fc922b63989060200160405180910390a350506001600055565b3360009081526018602052604090205460ff16610c8457604051630942721960e31b815260040160405180910390fd5b6001600160a01b03811660009081526005602052604090205460ff16610cbd576040516310cec38560e21b815260040160405180910390fd5b6001600160a01b038116600081815260056020526040808220805460ff19169055513392917fe02b2375d8fb4aef3e5bc5d53bffcf70b6f185c5c93e69dcbe8b6cfc58e837e291a350565b6015546001600160a01b03163314610d33576040516354348f0360e01b815260040160405180910390fd5b6001600160a01b03811660009081526017602052604090205460ff1615610d6d5760405163546da66560e11b815260040160405180910390fd5b6001600160a01b038116600081815260176020908152604091829020805460ff1916600117905590519182527f049ccb28ab796d3225573a065712f6e7754487ced56056cda8889c337511807b910161084f565b6015546001600160a01b03163314610dec576040516354348f0360e01b815260040160405180910390fd5b601f8190556040518181527f4c10ca068ff7002cf5da78f2f697d1e91f6f0ac27f7344b28e8ef25263f87e5d9060200161084f565b6000610e2e600183611adf565b92915050565b6015546001600160a01b03163314610e5f576040516354348f0360e01b815260040160405180910390fd5b6001600160a01b038116610e865760405163d92e233d60e01b815260040160405180910390fd5b601b80546001600160a01b0319166001600160a01b0383169081179091556040519081527f71973fd672e51deb8f739b1f7e1eab991936645acd6f83e2bde6eeeaff5490b09060200161084f565b610edf600182611b04565b5050565b3360009081526017602052604090205460ff16610f1357604051637e57b1e160e01b815260040160405180910390fd5b6001600160a01b03811660009081526005602052604090205460ff16610f4c576040516310cec38560e21b815260040160405180910390fd5b610f57600182611b19565b506019546001600160a01b03808316600081815260066020908152604080832094909516808352938152848220549282526011815284822084835290529290922054610fa592849291611b2e565b60405133906001600160a01b038316907f038a17b9b553c0c3fc2ed14b957a5d8420a1666fd2efe5c1b3fe5f23eea61bb390600090a350565b610fea84848484611b2e565b50505050565b6060610ffc6013611c84565b905090565b6015546001600160a01b0316331461102c576040516354348f0360e01b815260040160405180910390fd5b601e8190556040518181527fc8d443472c9783cc36f8f5f5091f08ce9f37fc2f9e6d79cf1d9aaf40a433fee29060200161084f565b6060610ffc6001611c84565b6015546001600160a01b03163314611098576040516354348f0360e01b815260040160405180910390fd5b6001600160a01b03811660009081526018602052604090205460ff16156110d25760405163274e25dd60e11b815260040160405180910390fd5b6001600160a01b038116600081815260186020908152604091829020805460ff1916600117905590519182527f8addc69f897ecca0e41d70ed4ff9d75a9148a615a0fbda8597e53aea2684302f910161084f565b6002600054036111785760405162461bcd60e51b815260206004820152601f60248201527f5265656e7472616e637947756172643a207265656e7472616e742063616c6c006044820152606401610a6c565b600260009081553381526005602052604090205460ff16156111ad576040516362e6201d60e01b815260040160405180910390fd5b6111b8601333611adf565b156111d65760405163d7229c4360e01b815260040160405180910390fd5b601d546111e3904361222e565b336000908152600f602090815260408083206001600160a01b03871680855292528083209390935591516370a0823160e01b81523060048201529091906370a0823190602401602060405180830381865afa158015611246573d6000803e3d6000fd5b505050506040513d601f19601f8201168201806040525081019061126a9190612246565b90506112816001600160a01b038416333085611c91565b6040516370a0823160e01b815230600482015281906001600160a01b038516906370a0823190602401602060405180830381865afa1580156112c7573d6000803e3d6000fd5b505050506040513d601f19601f820116820180604052508101906112eb9190612246565b6112f5919061225f565b336000908152601260209081526040808320805460ff19166001179055600e82528083206001600160a01b038816845290915281208054929450849290919061133f90849061222e565b90915550506040518281526001600160a01b0384169033907fa7e66869262026842e8d81f5e6806cdc8d846e27c824e2e22f4fe51442771b349060200160405180910390a35050600160005550565b601e5461139b904361222e565b3360008181526010602090815260408083206001600160a01b038816808552908352818420959095559282526006815282822093825292909252812080548392906113e790849061225f565b90915550503360009081526011602090815260408083206001600160a01b03861684529091528120805483929061141f90849061222e565b90915550506040518181526001600160a01b0383169033907f9aaab310d247ad45aef26bbdefc4ebf20c728fdb84c92b95b2b05d21826940de90602001610989565b6015546001600160a01b0316331461148c576040516354348f0360e01b815260040160405180910390fd5b6001600160a01b03811660009081526017602052604090205460ff166114c5576040516336fe17e760e21b815260040160405180910390fd5b6001600160a01b038116600081815260176020908152604091829020805460ff1916905590519182527f3ed8cbce8cab40e59282f1743e2b607effa08b5cbe0111bb4721134f2f80d025910161084f565b6015546001600160a01b03163314611541576040516354348f0360e01b815260040160405180910390fd5b601680546001600160a01b0319166001600160a01b0383169081179091556040519081527fe987aaedf9d279143bdf1eee16cf1d0feb47742867d81083df8d6cd0a5ac857f9060200161084f565b6015546001600160a01b031633146115ba576040516354348f0360e01b815260040160405180910390fd5b601d8190556040518181527fd319ef78d2b690bb773fcccc2d096306bac7c9222dd0bb6b300f461e4a376b439060200161084f565b3360009081526017602052604090205460ff1661161f57604051637e57b1e160e01b815260040160405180910390fd5b6001600160a01b03841660009081526005602052604090205460ff16611658576040516310cec38560e21b815260040160405180910390fd5b61166484848484611b2e565b336001600160a01b0385167f10a73de7ab6e9023aa6e2bc23f7abf4dcef591487e7e55f44c00e34fe60d56db61169a848661222e565b60405190815260200160405180910390a350505050565b6015546001600160a01b031633146116dc576040516354348f0360e01b815260040160405180910390fd5b6001600160a01b0381166117035760405163d92e233d60e01b815260040160405180910390fd5b601a80546001600160a01b0319166001600160a01b0383169081179091556040519081527feb931b4b5a98d20a6b1e6693a7c59d8e337a06e2f1473bb776e19251db7ae2509060200161084f565b6015546001600160a01b0316331461177c576040516354348f0360e01b815260040160405180910390fd5b6001600160a01b0381166117a35760405163d92e233d60e01b815260040160405180910390fd5b601980546001600160a01b0319166001600160a01b0383169081179091556040519081527f1d1a3e7caf0717056e48dc8aefa54d806c7af86324fece4e5d49f8e1f01f84bf9060200161084f565b6015546001600160a01b0316331461181c576040516354348f0360e01b815260040160405180910390fd5b6001600160a01b03811660009081526018602052604090205460ff1661185557604051633ca0d42760e11b815260040160405180910390fd5b6001600160a01b038116600081815260186020908152604091829020805460ff1916905590519182527f5e8bd21d0a98cb2caf33706e56139ff40ffbdca7ec5d9d412a0a2292496dc70e910161084f565b3360009081526018602052604090205460ff166118d657604051630942721960e31b815260040160405180910390fd5b6001600160a01b03811660009081526005602052604090205460ff1615611910576040516304ee891b60e11b815260040160405180910390fd5b6001600160a01b038116600081815260056020526040808220805460ff19166001179055513392917f070125a1c0f5202217aae14ec399abfaaa13c2fd98a91d43bd3a897dd4751e8091a350565b6001600160a01b0382166000908152600460205260408120548103611999576001600160a01b03831660009081526004602052604090204390555b6119a4600184611b04565b50506001600160a01b038083166000818152600e60209081526040808320948616808452948252808320805490849055938352600682528083209483529390529182208054919283926119f890849061222e565b90915550506019546001600160a01b0390811690831603610e2e57601954604051630852cd8d60e31b8152600481018390526001600160a01b03909116906342966c6890602401600060405180830381600087803b158015611a5957600080fd5b505af1158015611a6d573d6000803e3d6000fd5b5050505092915050565b6040516001600160a01b038316602482015260448101829052611ada90849063a9059cbb60e01b906064015b60408051601f198184030181529190526020810180516001600160e01b03166001600160e01b031990931692909217909152611cc9565b505050565b6001600160a01b038116600090815260018301602052604081205415155b9392505050565b6000611afd836001600160a01b038416611d9b565b6000611afd836001600160a01b038416611dea565b6019546001600160a01b03848116911614611c06576015546001600160a01b038085169163a9059cbb9116611b63848661222e565b6040516001600160e01b031960e085901b1681526001600160a01b03909216600483015260248201526044016020604051808303816000875af1925050508015611bca575060408051601f3d908101601f19168201909252611bc7918101906121f6565b60015b611c04573d808015611bf8576040519150601f19603f3d011682016040523d82523d6000602084013e611bfd565b606091505b5050611c06565b505b6001600160a01b03808516600090815260066020908152604080832093871683529290529081208054849290611c3d90849061225f565b90915550506001600160a01b03808516600090815260116020908152604080832093871683529290529081208054839290611c7990849061225f565b909155505050505050565b60606000611afd83611edd565b6040516001600160a01b0380851660248301528316604482015260648101829052610fea9085906323b872dd60e01b90608401611aa3565b6000611d1e826040518060400160405280602081526020017f5361666545524332303a206c6f772d6c6576656c2063616c6c206661696c6564815250856001600160a01b0316611f399092919063ffffffff16565b805190915015611ada5780806020019051810190611d3c91906121f6565b611ada5760405162461bcd60e51b815260206004820152602a60248201527f5361666545524332303a204552433230206f7065726174696f6e20646964206e6044820152691bdd081cdd58d8d9595960b21b6064820152608401610a6c565b6000818152600183016020526040812054611de257508154600181810184556000848152602080822090930184905584548482528286019093526040902091909155610e2e565b506000610e2e565b60008181526001830160205260408120548015611ed3576000611e0e60018361225f565b8554909150600090611e229060019061225f565b9050818114611e87576000866000018281548110611e4257611e42612276565b9060005260206000200154905080876000018481548110611e6557611e65612276565b6000918252602080832090910192909255918252600188019052604090208390555b8554869080611e9857611e9861228c565b600190038181906000526020600020016000905590558560010160008681526020019081526020016000206000905560019350505050610e2e565b6000915050610e2e565b606081600001805480602002602001604051908101604052809291908181526020018280548015611f2d57602002820191906000526020600020905b815481526020019060010190808311611f19575b50505050509050919050565b6060611f488484600085611f50565b949350505050565b606082471015611fb15760405162461bcd60e51b815260206004820152602660248201527f416464726573733a20696e73756666696369656e742062616c616e636520666f6044820152651c8818d85b1b60d21b6064820152608401610a6c565b6001600160a01b0385163b6120085760405162461bcd60e51b815260206004820152601d60248201527f416464726573733a2063616c6c20746f206e6f6e2d636f6e74726163740000006044820152606401610a6c565b600080866001600160a01b0316858760405161202491906122ce565b60006040518083038185875af1925050503d8060008114612061576040519150601f19603f3d011682016040523d82523d6000602084013e612066565b606091505b5091509150612076828286612081565b979650505050505050565b60608315612090575081611afd565b8251156120a05782518084602001fd5b8160405162461bcd60e51b8152600401610a6c91906122ea565b80356001600160a01b03811681146120d157600080fd5b919050565b600080604083850312156120e957600080fd5b6120f2836120ba565b9150612100602084016120ba565b90509250929050565b60006020828403121561211b57600080fd5b611afd826120ba565b60006020828403121561213657600080fd5b5035919050565b6000806000806080858703121561215357600080fd5b61215c856120ba565b935061216a602086016120ba565b93969395505050506040820135916060013590565b6020808252825182820181905260009190848201906040850190845b818110156121c05783516001600160a01b03168352928401929184019160010161219b565b50909695505050505050565b600080604083850312156121df57600080fd5b6121e8836120ba565b946020939093013593505050565b60006020828403121561220857600080fd5b81518015158114611afd57600080fd5b634e487b7160e01b600052601160045260246000fd5b6000821982111561224157612241612218565b500190565b60006020828403121561225857600080fd5b5051919050565b60008282101561227157612271612218565b500390565b634e487b7160e01b600052603260045260246000fd5b634e487b7160e01b600052603160045260246000fd5b60005b838110156122bd5781810151838201526020016122a5565b83811115610fea5750506000910152565b600082516122e08184602087016122a2565b9190910192915050565b60208152600082518060208401526123098160408501602087016122a2565b601f01601f1916919091016040019291505056fea2646970667358221220ffd355c98d23d42212675650caa529fc9b1cb000f4ecd76275b191673be8035d64736f6c634300080e0033",
  "linkReferences": {},
  "deployedLinkReferences": {}
}