{
  "_format": "hh-sol-artifact-1",
  "contractName": "Keep3rKeeperDisputableForTest",
  "sourceName": "contracts/for-test/peripherals/keepers/Keep3rKeeperDisputableForTest.sol",
  "abi": [
    {
      "inputs": [
        {
          "internalType": "address",
          "name": "_kph",
          "type": "address"
        },
        {
          "internalType": "address",
          "name": "_keep3rV1",
          "type": "address"
        },
        {
          "internalType": "address",
          "name": "_keep3rV1Proxy",
          "type": "address"
        },
        {
          "internalType": "address",
          "name": "_kp3rWethPool",
          "type": "address"
        }
      ],
      "stateMutability": "nonpayable",
      "type": "constructor"
    },
    {
      "inputs": [],
      "name": "AlreadyAJob",
      "type": "error"
    },
    {
      "inputs": [],
      "name": "AlreadyDisputed",
      "type": "error"
    },
    {
      "inputs": [],
      "name": "BondsLocked",
      "type": "error"
    },
    {
      "inputs": [],
      "name": "BondsUnexistent",
      "type": "error"
    },
    {
      "inputs": [],
      "name": "Disputed",
      "type": "error"
    },
    {
      "inputs": [],
      "name": "DisputerExistent",
      "type": "error"
    },
    {
      "inputs": [],
      "name": "DisputerUnexistent",
      "type": "error"
    },
    {
      "inputs": [],
      "name": "JobDisputed",
      "type": "error"
    },
    {
      "inputs": [],
      "name": "JobUnavailable",
      "type": "error"
    },
    {
      "inputs": [],
      "name": "MinRewardPeriod",
      "type": "error"
    },
    {
      "inputs": [],
      "name": "NoGovernanceZeroAddress",
      "type": "error"
    },
    {
      "inputs": [],
      "name": "NotDisputed",
      "type": "error"
    },
    {
      "inputs": [],
      "name": "OnlyDisputer",
      "type": "error"
    },
    {
      "inputs": [],
      "name": "OnlyGovernance",
      "type": "error"
    },
    {
      "inputs": [],
      "name": "OnlyPendingGovernance",
      "type": "error"
    },
    {
      "inputs": [],
      "name": "OnlySlasher",
      "type": "error"
    },
    {
      "inputs": [],
      "name": "SlasherExistent",
      "type": "error"
    },
    {
      "inputs": [],
      "name": "SlasherUnexistent",
      "type": "error"
    },
    {
      "inputs": [],
      "name": "UnbondsLocked",
      "type": "error"
    },
    {
      "inputs": [],
      "name": "UnbondsUnexistent",
      "type": "error"
    },
    {
      "inputs": [],
      "name": "ZeroAddress",
      "type": "error"
    },
    {
      "anonymous": false,
      "inputs": [
        {
          "indexed": true,
          "internalType": "address",
          "name": "_keeper",
          "type": "address"
        },
        {
          "indexed": true,
          "internalType": "address",
          "name": "_bond",
          "type": "address"
        },
        {
          "indexed": false,
          "internalType": "uint256",
          "name": "_amount",
          "type": "uint256"
        }
      ],
      "name": "Activation",
      "type": "event"
    },
    {
      "anonymous": false,
      "inputs": [
        {
          "indexed": false,
          "internalType": "uint256",
          "name": "_bondTime",
          "type": "uint256"
        }
      ],
      "name": "BondTimeChange",
      "type": "event"
    },
    {
      "anonymous": false,
      "inputs": [
        {
          "indexed": true,
          "internalType": "address",
          "name": "_keeper",
          "type": "address"
        },
        {
          "indexed": true,
          "internalType": "address",
          "name": "_bonding",
          "type": "address"
        },
        {
          "indexed": false,
          "internalType": "uint256",
          "name": "_amount",
          "type": "uint256"
        }
      ],
      "name": "Bonding",
      "type": "event"
    },
    {
      "anonymous": false,
      "inputs": [
        {
          "indexed": true,
          "internalType": "address",
          "name": "_jobOrKeeper",
          "type": "address"
        },
        {
          "indexed": true,
          "internalType": "address",
          "name": "_disputer",
          "type": "address"
        }
      ],
      "name": "Dispute",
      "type": "event"
    },
    {
      "anonymous": false,
      "inputs": [
        {
          "indexed": false,
          "internalType": "address",
          "name": "_disputer",
          "type": "address"
        }
      ],
      "name": "DisputerAdded",
      "type": "event"
    },
    {
      "anonymous": false,
      "inputs": [
        {
          "indexed": false,
          "internalType": "address",
          "name": "_disputer",
          "type": "address"
        }
      ],
      "name": "DisputerRemoved",
      "type": "event"
    },
    {
      "anonymous": false,
      "inputs": [
        {
          "indexed": false,
          "internalType": "uint256",
          "name": "_fee",
          "type": "uint256"
        }
      ],
      "name": "FeeChange",
      "type": "event"
    },
    {
      "anonymous": false,
      "inputs": [
        {
          "indexed": false,
          "internalType": "address",
          "name": "_pendingGovernance",
          "type": "address"
        }
      ],
      "name": "GovernanceProposal",
      "type": "event"
    },
    {
      "anonymous": false,
      "inputs": [
        {
          "indexed": false,
          "internalType": "address",
          "name": "_governance",
          "type": "address"
        }
      ],
      "name": "GovernanceSet",
      "type": "event"
    },
    {
      "anonymous": false,
      "inputs": [
        {
          "indexed": false,
          "internalType": "uint256",
          "name": "_inflationPeriod",
          "type": "uint256"
        }
      ],
      "name": "InflationPeriodChange",
      "type": "event"
    },
    {
      "anonymous": false,
      "inputs": [
        {
          "indexed": false,
          "internalType": "address",
          "name": "_keep3rHelper",
          "type": "address"
        }
      ],
      "name": "Keep3rHelperChange",
      "type": "event"
    },
    {
      "anonymous": false,
      "inputs": [
        {
          "indexed": false,
          "internalType": "address",
          "name": "_keep3rV1",
          "type": "address"
        }
      ],
      "name": "Keep3rV1Change",
      "type": "event"
    },
    {
      "anonymous": false,
      "inputs": [
        {
          "indexed": false,
          "internalType": "address",
          "name": "_keep3rV1Proxy",
          "type": "address"
        }
      ],
      "name": "Keep3rV1ProxyChange",
      "type": "event"
    },
    {
      "anonymous": false,
      "inputs": [
        {
          "indexed": true,
          "internalType": "address",
          "name": "_keeper",
          "type": "address"
        },
        {
          "indexed": true,
          "internalType": "address",
          "name": "_slasher",
          "type": "address"
        }
      ],
      "name": "KeeperRevoke",
      "type": "event"
    },
    {
      "anonymous": false,
      "inputs": [
        {
          "indexed": true,
          "internalType": "address",
          "name": "_keeper",
          "type": "address"
        },
        {
          "indexed": true,
          "internalType": "address",
          "name": "_slasher",
          "type": "address"
        },
        {
          "indexed": false,
          "internalType": "uint256",
          "name": "_amount",
          "type": "uint256"
        }
      ],
      "name": "KeeperSlash",
      "type": "event"
    },
    {
      "anonymous": false,
      "inputs": [
        {
          "indexed": false,
          "internalType": "address",
          "name": "_kp3rWethPool",
          "type": "address"
        }
      ],
      "name": "Kp3rWethPoolChange",
      "type": "event"
    },
    {
      "anonymous": false,
      "inputs": [
        {
          "indexed": false,
          "internalType": "uint256",
          "name": "_liquidityMinimum",
          "type": "uint256"
        }
      ],
      "name": "LiquidityMinimumChange",
      "type": "event"
    },
    {
      "anonymous": false,
      "inputs": [
        {
          "indexed": true,
          "internalType": "address",
          "name": "_jobOrKeeper",
          "type": "address"
        },
        {
          "indexed": true,
          "internalType": "address",
          "name": "_resolver",
          "type": "address"
        }
      ],
      "name": "Resolve",
      "type": "event"
    },
    {
      "anonymous": false,
      "inputs": [
        {
          "indexed": false,
          "internalType": "uint256",
          "name": "_rewardPeriodTime",
          "type": "uint256"
        }
      ],
      "name": "RewardPeriodTimeChange",
      "type": "event"
    },
    {
      "anonymous": false,
      "inputs": [
        {
          "indexed": false,
          "internalType": "address",
          "name": "_slasher",
          "type": "address"
        }
      ],
      "name": "SlasherAdded",
      "type": "event"
    },
    {
      "anonymous": false,
      "inputs": [
        {
          "indexed": false,
          "internalType": "address",
          "name": "_slasher",
          "type": "address"
        }
      ],
      "name": "SlasherRemoved",
      "type": "event"
    },
    {
      "anonymous": false,
      "inputs": [
        {
          "indexed": false,
          "internalType": "uint256",
          "name": "_unbondTime",
          "type": "uint256"
        }
      ],
      "name": "UnbondTimeChange",
      "type": "event"
    },
    {
      "anonymous": false,
      "inputs": [
        {
          "indexed": true,
          "internalType": "address",
          "name": "_keeperOrJob",
          "type": "address"
        },
        {
          "indexed": true,
          "internalType": "address",
          "name": "_unbonding",
          "type": "address"
        },
        {
          "indexed": false,
          "internalType": "uint256",
          "name": "_amount",
          "type": "uint256"
        }
      ],
      "name": "Unbonding",
      "type": "event"
    },
    {
      "anonymous": false,
      "inputs": [
        {
          "indexed": true,
          "internalType": "address",
          "name": "_keeper",
          "type": "address"
        },
        {
          "indexed": true,
          "internalType": "address",
          "name": "_bond",
          "type": "address"
        },
        {
          "indexed": false,
          "internalType": "uint256",
          "name": "_amount",
          "type": "uint256"
        }
      ],
      "name": "Withdrawal",
      "type": "event"
    },
    {
      "inputs": [],
      "name": "acceptGovernance",
      "outputs": [],
      "stateMutability": "nonpayable",
      "type": "function"
    },
    {
      "inputs": [
        {
          "internalType": "address",
          "name": "_bonding",
          "type": "address"
        }
      ],
      "name": "activate",
      "outputs": [],
      "stateMutability": "nonpayable",
      "type": "function"
    },
    {
      "inputs": [
        {
          "internalType": "address",
          "name": "_disputer",
          "type": "address"
        }
      ],
      "name": "addDisputer",
      "outputs": [],
      "stateMutability": "nonpayable",
      "type": "function"
    },
    {
      "inputs": [
        {
          "internalType": "address",
          "name": "_slasher",
          "type": "address"
        }
      ],
      "name": "addSlasher",
      "outputs": [],
      "stateMutability": "nonpayable",
      "type": "function"
    },
    {
      "inputs": [
        {
          "internalType": "address",
          "name": "_bonding",
          "type": "address"
        },
        {
          "internalType": "uint256",
          "name": "_amount",
          "type": "uint256"
        }
      ],
      "name": "bond",
      "outputs": [],
      "stateMutability": "nonpayable",
      "type": "function"
    },
    {
      "inputs": [],
      "name": "bondTime",
      "outputs": [
        {
          "internalType": "uint256",
          "name": "",
          "type": "uint256"
        }
      ],
      "stateMutability": "view",
      "type": "function"
    },
    {
      "inputs": [
        {
          "internalType": "address",
          "name": "",
          "type": "address"
        },
        {
          "internalType": "address",
          "name": "",
          "type": "address"
        }
      ],
      "name": "bonds",
      "outputs": [
        {
          "internalType": "uint256",
          "name": "",
          "type": "uint256"
        }
      ],
      "stateMutability": "view",
      "type": "function"
    },
    {
      "inputs": [
        {
          "internalType": "address",
          "name": "",
          "type": "address"
        },
        {
          "internalType": "address",
          "name": "",
          "type": "address"
        }
      ],
      "name": "canActivateAfter",
      "outputs": [
        {
          "internalType": "uint256",
          "name": "",
          "type": "uint256"
        }
      ],
      "stateMutability": "view",
      "type": "function"
    },
    {
      "inputs": [
        {
          "internalType": "address",
          "name": "",
          "type": "address"
        },
        {
          "internalType": "address",
          "name": "",
          "type": "address"
        }
      ],
      "name": "canWithdrawAfter",
      "outputs": [
        {
          "internalType": "uint256",
          "name": "",
          "type": "uint256"
        }
      ],
      "stateMutability": "view",
      "type": "function"
    },
    {
      "inputs": [
        {
          "internalType": "address",
          "name": "_jobOrKeeper",
          "type": "address"
        }
      ],
      "name": "dispute",
      "outputs": [],
      "stateMutability": "nonpayable",
      "type": "function"
    },
    {
      "inputs": [
        {
          "internalType": "address",
          "name": "",
          "type": "address"
        }
      ],
      "name": "disputers",
      "outputs": [
        {
          "internalType": "bool",
          "name": "",
          "type": "bool"
        }
      ],
      "stateMutability": "view",
      "type": "function"
    },
    {
      "inputs": [
        {
          "internalType": "address",
          "name": "",
          "type": "address"
        }
      ],
      "name": "disputes",
      "outputs": [
        {
          "internalType": "bool",
          "name": "",
          "type": "bool"
        }
      ],
      "stateMutability": "view",
      "type": "function"
    },
    {
      "inputs": [],
      "name": "fee",
      "outputs": [
        {
          "internalType": "uint256",
          "name": "",
          "type": "uint256"
        }
      ],
      "stateMutability": "view",
      "type": "function"
    },
    {
      "inputs": [
        {
          "internalType": "address",
          "name": "",
          "type": "address"
        }
      ],
      "name": "firstSeen",
      "outputs": [
        {
          "internalType": "uint256",
          "name": "",
          "type": "uint256"
        }
      ],
      "stateMutability": "view",
      "type": "function"
    },
    {
      "inputs": [],
      "name": "governance",
      "outputs": [
        {
          "internalType": "address",
          "name": "",
          "type": "address"
        }
      ],
      "stateMutability": "view",
      "type": "function"
    },
    {
      "inputs": [
        {
          "internalType": "address",
          "name": "",
          "type": "address"
        }
      ],
      "name": "hasBonded",
      "outputs": [
        {
          "internalType": "bool",
          "name": "",
          "type": "bool"
        }
      ],
      "stateMutability": "view",
      "type": "function"
    },
    {
      "inputs": [],
      "name": "inflationPeriod",
      "outputs": [
        {
          "internalType": "uint256",
          "name": "",
          "type": "uint256"
        }
      ],
      "stateMutability": "view",
      "type": "function"
    },
    {
      "inputs": [
        {
          "internalType": "address",
          "name": "_bonded",
          "type": "address"
        },
        {
          "internalType": "address",
          "name": "_keeper",
          "type": "address"
        },
        {
          "internalType": "uint256",
          "name": "_bondAmount",
          "type": "uint256"
        },
        {
          "internalType": "uint256",
          "name": "_unbondAmount",
          "type": "uint256"
        }
      ],
      "name": "internalSlash",
      "outputs": [],
      "stateMutability": "nonpayable",
      "type": "function"
    },
    {
      "inputs": [
        {
          "internalType": "address",
          "name": "_address",
          "type": "address"
        }
      ],
      "name": "isKeeper",
      "outputs": [
        {
          "internalType": "bool",
          "name": "_isKeeper",
          "type": "bool"
        }
      ],
      "stateMutability": "view",
      "type": "function"
    },
    {
      "inputs": [
        {
          "internalType": "address",
          "name": "",
          "type": "address"
        },
        {
          "internalType": "address",
          "name": "",
          "type": "address"
        }
      ],
      "name": "jobTokenCredits",
      "outputs": [
        {
          "internalType": "uint256",
          "name": "",
          "type": "uint256"
        }
      ],
      "stateMutability": "view",
      "type": "function"
    },
    {
      "inputs": [],
      "name": "jobs",
      "outputs": [
        {
          "internalType": "address[]",
          "name": "_list",
          "type": "address[]"
        }
      ],
      "stateMutability": "view",
      "type": "function"
    },
    {
      "inputs": [],
      "name": "keep3rHelper",
      "outputs": [
        {
          "internalType": "address",
          "name": "",
          "type": "address"
        }
      ],
      "stateMutability": "view",
      "type": "function"
    },
    {
      "inputs": [],
      "name": "keep3rV1",
      "outputs": [
        {
          "internalType": "address",
          "name": "",
          "type": "address"
        }
      ],
      "stateMutability": "view",
      "type": "function"
    },
    {
      "inputs": [],
      "name": "keep3rV1Proxy",
      "outputs": [
        {
          "internalType": "address",
          "name": "",
          "type": "address"
        }
      ],
      "stateMutability": "view",
      "type": "function"
    },
    {
      "inputs": [],
      "name": "keepers",
      "outputs": [
        {
          "internalType": "address[]",
          "name": "_list",
          "type": "address[]"
        }
      ],
      "stateMutability": "view",
      "type": "function"
    },
    {
      "inputs": [],
      "name": "kp3rWethPool",
      "outputs": [
        {
          "internalType": "address",
          "name": "",
          "type": "address"
        }
      ],
      "stateMutability": "view",
      "type": "function"
    },
    {
      "inputs": [],
      "name": "liquidityMinimum",
      "outputs": [
        {
          "internalType": "uint256",
          "name": "",
          "type": "uint256"
        }
      ],
      "stateMutability": "view",
      "type": "function"
    },
    {
      "inputs": [
        {
          "internalType": "address",
          "name": "",
          "type": "address"
        },
        {
          "internalType": "address",
          "name": "",
          "type": "address"
        }
      ],
      "name": "pendingBonds",
      "outputs": [
        {
          "internalType": "uint256",
          "name": "",
          "type": "uint256"
        }
      ],
      "stateMutability": "view",
      "type": "function"
    },
    {
      "inputs": [],
      "name": "pendingGovernance",
      "outputs": [
        {
          "internalType": "address",
          "name": "",
          "type": "address"
        }
      ],
      "stateMutability": "view",
      "type": "function"
    },
    {
      "inputs": [
        {
          "internalType": "address",
          "name": "",
          "type": "address"
        },
        {
          "internalType": "address",
          "name": "",
          "type": "address"
        }
      ],
      "name": "pendingUnbonds",
      "outputs": [
        {
          "internalType": "uint256",
          "name": "",
          "type": "uint256"
        }
      ],
      "stateMutability": "view",
      "type": "function"
    },
    {
      "inputs": [
        {
          "internalType": "address",
          "name": "_disputer",
          "type": "address"
        }
      ],
      "name": "removeDisputer",
      "outputs": [],
      "stateMutability": "nonpayable",
      "type": "function"
    },
    {
      "inputs": [
        {
          "internalType": "address",
          "name": "_slasher",
          "type": "address"
        }
      ],
      "name": "removeSlasher",
      "outputs": [],
      "stateMutability": "nonpayable",
      "type": "function"
    },
    {
      "inputs": [
        {
          "internalType": "address",
          "name": "_jobOrKeeper",
          "type": "address"
        }
      ],
      "name": "resolve",
      "outputs": [],
      "stateMutability": "nonpayable",
      "type": "function"
    },
    {
      "inputs": [
        {
          "internalType": "address",
          "name": "_keeper",
          "type": "address"
        }
      ],
      "name": "revoke",
      "outputs": [],
      "stateMutability": "nonpayable",
      "type": "function"
    },
    {
      "inputs": [],
      "name": "rewardPeriodTime",
      "outputs": [
        {
          "internalType": "uint256",
          "name": "",
          "type": "uint256"
        }
      ],
      "stateMutability": "view",
      "type": "function"
    },
    {
      "inputs": [
        {
          "internalType": "uint256",
          "name": "_bondTime",
          "type": "uint256"
        }
      ],
      "name": "setBondTime",
      "outputs": [],
      "stateMutability": "nonpayable",
      "type": "function"
    },
    {
      "inputs": [
        {
          "internalType": "uint256",
          "name": "_fee",
          "type": "uint256"
        }
      ],
      "name": "setFee",
      "outputs": [],
      "stateMutability": "nonpayable",
      "type": "function"
    },
    {
      "inputs": [
        {
          "internalType": "address",
          "name": "_governance",
          "type": "address"
        }
      ],
      "name": "setGovernance",
      "outputs": [],
      "stateMutability": "nonpayable",
      "type": "function"
    },
    {
      "inputs": [
        {
          "internalType": "uint256",
          "name": "_inflationPeriod",
          "type": "uint256"
        }
      ],
      "name": "setInflationPeriod",
      "outputs": [],
      "stateMutability": "nonpayable",
      "type": "function"
    },
    {
      "inputs": [
        {
          "internalType": "address",
          "name": "_keep3rHelper",
          "type": "address"
        }
      ],
      "name": "setKeep3rHelper",
      "outputs": [],
      "stateMutability": "nonpayable",
      "type": "function"
    },
    {
      "inputs": [
        {
          "internalType": "address",
          "name": "_keep3rV1",
          "type": "address"
        }
      ],
      "name": "setKeep3rV1",
      "outputs": [],
      "stateMutability": "nonpayable",
      "type": "function"
    },
    {
      "inputs": [
        {
          "internalType": "address",
          "name": "_keep3rV1Proxy",
          "type": "address"
        }
      ],
      "name": "setKeep3rV1Proxy",
      "outputs": [],
      "stateMutability": "nonpayable",
      "type": "function"
    },
    {
      "inputs": [
        {
          "internalType": "address",
          "name": "_keeper",
          "type": "address"
        }
      ],
      "name": "setKeeper",
      "outputs": [],
      "stateMutability": "nonpayable",
      "type": "function"
    },
    {
      "inputs": [
        {
          "internalType": "address",
          "name": "_kp3rWethPool",
          "type": "address"
        }
      ],
      "name": "setKp3rWethPool",
      "outputs": [],
      "stateMutability": "nonpayable",
      "type": "function"
    },
    {
      "inputs": [
        {
          "internalType": "uint256",
          "name": "_liquidityMinimum",
          "type": "uint256"
        }
      ],
      "name": "setLiquidityMinimum",
      "outputs": [],
      "stateMutability": "nonpayable",
      "type": "function"
    },
    {
      "inputs": [
        {
          "internalType": "uint256",
          "name": "_rewardPeriodTime",
          "type": "uint256"
        }
      ],
      "name": "setRewardPeriodTime",
      "outputs": [],
      "stateMutability": "nonpayable",
      "type": "function"
    },
    {
      "inputs": [
        {
          "internalType": "uint256",
          "name": "_unbondTime",
          "type": "uint256"
        }
      ],
      "name": "setUnbondTime",
      "outputs": [],
      "stateMutability": "nonpayable",
      "type": "function"
    },
    {
      "inputs": [
        {
          "internalType": "address",
          "name": "_keeper",
          "type": "address"
        },
        {
          "internalType": "address",
          "name": "_bonded",
          "type": "address"
        },
        {
          "internalType": "uint256",
          "name": "_bondAmount",
          "type": "uint256"
        },
        {
          "internalType": "uint256",
          "name": "_unbondAmount",
          "type": "uint256"
        }
      ],
      "name": "slash",
      "outputs": [],
      "stateMutability": "nonpayable",
      "type": "function"
    },
    {
      "inputs": [
        {
          "internalType": "address",
          "name": "",
          "type": "address"
        }
      ],
      "name": "slashers",
      "outputs": [
        {
          "internalType": "bool",
          "name": "",
          "type": "bool"
        }
      ],
      "stateMutability": "view",
      "type": "function"
    },
    {
      "inputs": [
        {
          "internalType": "address",
          "name": "_bonding",
          "type": "address"
        },
        {
          "internalType": "uint256",
          "name": "_amount",
          "type": "uint256"
        }
      ],
      "name": "unbond",
      "outputs": [],
      "stateMutability": "nonpayable",
      "type": "function"
    },
    {
      "inputs": [],
      "name": "unbondTime",
      "outputs": [
        {
          "internalType": "uint256",
          "name": "",
          "type": "uint256"
        }
      ],
      "stateMutability": "view",
      "type": "function"
    },
    {
      "inputs": [
        {
          "internalType": "address",
          "name": "_bonding",
          "type": "address"
        }
      ],
      "name": "withdraw",
      "outputs": [],
      "stateMutability": "nonpayable",
      "type": "function"
    },
    {
      "inputs": [
        {
          "internalType": "address",
          "name": "",
          "type": "address"
        }
      ],
      "name": "workCompleted",
      "outputs": [
        {
          "internalType": "uint256",
          "name": "",
          "type": "uint256"
        }
      ],
      "stateMutability": "view",
      "type": "function"
    }
  ],
  "bytecode": "0x60806040526203f480601d5562127500601e556729a2241af62c0000601f5562069780602055622cd300602155601e6022553480156200003e57600080fd5b50604051620027c7380380620027c78339810160408190526200006191620001b4565b6001600055838383833380806200008a5760405162b293ed60e81b815260040160405180910390fd5b601580546001600160a01b03199081166001600160a01b0393841617909155601b80548216888416178155601980548316888516179055601a80548316878516179055601c8054831686851690811782556000818152600c602052604090819020805490951690911790935590549054915163696a437b60e01b81529183166004830152909116915063696a437b90602401602060405180830381865afa1580156200013a573d6000803e3d6000fd5b505050506040513d601f19601f8201168201806040525081019062000160919062000211565b6001600160a01b03919091166000908152600d60205260409020805460ff1916911515919091179055506200023c95505050505050565b80516001600160a01b0381168114620001af57600080fd5b919050565b60008060008060808587031215620001cb57600080fd5b620001d68562000197565b9350620001e66020860162000197565b9250620001f66040860162000197565b9150620002066060860162000197565b905092959194509250565b6000602082840312156200022457600080fd5b815180151581146200023557600080fd5b9392505050565b61257b806200024c6000396000f3fe608060405234801561001057600080fd5b50600436106103275760003560e01c80638fe204dd116101b8578063c20297f011610104578063ebbb6194116100a2578063f11a1d1a1161007c578063f11a1d1a146107b0578063f39c38a0146107c3578063f75f9f7b146107d6578063fc253d2b146107e957600080fd5b8063ebbb619414610777578063ec00cdfc1461078a578063f0f346b91461079d57600080fd5b8063cb54694d116100de578063cb54694d14610710578063cd22af1b14610723578063ddca3f431461074e578063e326ac431461075757600080fd5b8063c20297f0146106d7578063c7ae40d0146106ea578063cb4be2bb146106fd57600080fd5b8063a7d2e78411610171578063b0103b1a1161014b578063b0103b1a1461066b578063b23922331461068e578063b7e77340146106a1578063b87fcbff146106b457600080fd5b8063a7d2e7841461063c578063aac6aa9c14610645578063ab033ea91461065857600080fd5b80638fe204dd146105bd578063951dc22c146105d05780639d5c33d8146105d8578063a39744b5146105eb578063a515366a14610616578063a5d059ca1461062957600080fd5b80635ebe23f011610277578063748747e611610230578063768b5d901161020a578063768b5d90146105695780637b40c913146105725780637c8fce23146105855780638cb22b761461059a57600080fd5b8063748747e61461053057806374a8f1031461054357806375b9a5421461055657600080fd5b80635ebe23f0146104d2578063633fb68f146104db57806368a9f19c146104e457806369fe0e2d146104f75780636ba42aaa1461050a57806372da828a1461051d57600080fd5b80631ef94b91116102e4578063274a8db4116102be578063274a8db41461046657806351cff8d91461049957806355ea6c47146104ac5780635aa6e675146104bf57600080fd5b80631ef94b911461040857806321040b0114610433578063238efcbc1461045e57600080fd5b806307b435c21461032c57806315006b821461036a578063160e1e3114610395578063168f92e7146103aa5780631b44555e146103d55780631c5a9d9c146103f5575b600080fd5b61035761033a3660046122fe565b601060209081526000928352604080842090915290825290205481565b6040519081526020015b60405180910390f35b6103576103783660046122fe565b600e60209081526000928352604080842090915290825290205481565b6103a86103a3366004612331565b6107f2565b005b6103576103b83660046122fe565b600760209081526000928352604080842090915290825290205481565b6103576103e3366004612331565b60036020526000908152604090205481565b6103a8610403366004612331565b610940565b60195461041b906001600160a01b031681565b6040516001600160a01b039091168152602001610361565b6103576104413660046122fe565b601160209081526000928352604080842090915290825290205481565b6103a8610a7b565b610489610474366004612331565b60186020526000908152604090205460ff1681565b6040519015158152602001610361565b6103a86104a7366004612331565b610b04565b6103a86104ba366004612331565b610d3a565b60155461041b906001600160a01b031681565b610357601d5481565b610357601f5481565b6103a86104f2366004612331565b610dee565b6103a861050536600461234c565b610ea7565b610489610518366004612331565b610f07565b6103a861052b366004612331565b610f1a565b6103a861053e366004612331565b610fba565b6103a8610551366004612331565b610fc9565b6103a8610564366004612365565b6110c4565b61035760205481565b601c5461041b906001600160a01b031681565b61058d6110d6565b60405161036191906123a7565b6104896105a8366004612331565b60126020526000908152604090205460ff1681565b6103a86105cb36600461234c565b6110e7565b61058d611147565b6103a86105e6366004612331565b611153565b6103576105f93660046122fe565b600660209081526000928352604080842090915290825290205481565b6103a86106243660046123f4565b61120c565b6103a86106373660046123f4565b611474565b610357601e5481565b6103a8610653366004612331565b611547565b6103a8610666366004612331565b6115fc565b610489610679366004612331565b60056020526000908152604090205460ff1681565b6103a861069c36600461234c565b611675565b6103a86106af36600461234c565b6116d5565b6104896106c2366004612331565b60176020526000908152604090205460ff1681565b6103a86106e5366004612365565b611735565b601a5461041b906001600160a01b031681565b6103a861070b366004612331565b6117f7565b6103a861071e36600461234c565b611897565b6103576107313660046122fe565b600f60209081526000928352604080842090915290825290205481565b61035760225481565b610357610765366004612331565b60046020526000908152604090205481565b6103a861078536600461234c565b611919565b6103a8610798366004612331565b611979565b6103a86107ab366004612331565b611a19565b601b5461041b906001600160a01b031681565b60165461041b906001600160a01b031681565b6103a86107e4366004612331565b611ace565b61035760215481565b6015546001600160a01b0316331461081d576040516354348f0360e01b815260040160405180910390fd5b6001600160a01b0381166108445760405163d92e233d60e01b815260040160405180910390fd5b601c80546001600160a01b038381166001600160a01b031992831681179093556000838152600c60205260409081902080549093168417909255601b54915163696a437b60e01b81526004810193909352169063696a437b90602401602060405180830381865afa1580156108bd573d6000803e3d6000fd5b505050506040513d601f19601f820116820180604052508101906108e1919061241e565b6001600160a01b0382166000818152600d6020908152604091829020805460ff191694151594909417909355519081527f9bb1515b0fc2645a3f011162460a22fdd512e0bca265e7dc9ba6bceae8930afa91015b60405180910390a150565b3360009081526005602052604090205460ff1615610971576040516362e6201d60e01b815260040160405180910390fd5b336000908152600f602090815260408083206001600160a01b038516845290915281205490036109b457604051636258f48160e01b815260040160405180910390fd5b336000908152600f602090815260408083206001600160a01b038516845290915290205442116109f757604051630fd0eeef60e11b815260040160405180910390fd5b336000818152600f602090815260408083206001600160a01b0386168452909152812081905590610a289083611b86565b9050816001600160a01b0316336001600160a01b03167f3673530133b6da67e9854f605b0cfa7bb9798cd33c18036dfc10d8da7c4d4a7583604051610a6f91815260200190565b60405180910390a35050565b6016546001600160a01b03163314610aa657604051637ef5703160e11b815260040160405180910390fd5b60168054601580546001600160a01b0383166001600160a01b031991821681179092559091169091556040519081527fc73be659241aade67e9a059bcf21494955018b213dbd1179054ccf928b13f3b69060200160405180910390a1565b600260005403610b5b5760405162461bcd60e51b815260206004820152601f60248201527f5265656e7472616e637947756172643a207265656e7472616e742063616c6c0060448201526064015b60405180910390fd5b600260009081553381526011602090815260408083206001600160a01b03851684529091528120549003610ba25760405163184c088160e21b815260040160405180910390fd5b3360009081526010602090815260408083206001600160a01b03851684529091529020544211610be5576040516327cfdcb760e01b815260040160405180910390fd5b3360009081526005602052604090205460ff1615610c16576040516362e6201d60e01b815260040160405180910390fd5b3360009081526011602090815260408083206001600160a01b0385811680865291909352922054601954909291169003610ca957601a5460405163140e25ad60e31b8152600481018390526001600160a01b039091169063a0712d6890602401600060405180830381600087803b158015610c9057600080fd5b505af1158015610ca4573d6000803e3d6000fd5b505050505b3360008181526011602090815260408083206001600160a01b03871680855290835281842084905584845260108352818420818552909252822091909155610cf19183611c9f565b6040518181526001600160a01b0383169033907f2717ead6b9200dd235aad468c9809ea400fe33ac69b5bfaa6d3e90fc922b63989060200160405180910390a350506001600055565b3360009081526018602052604090205460ff16610d6a57604051630942721960e31b815260040160405180910390fd5b6001600160a01b03811660009081526005602052604090205460ff16610da3576040516310cec38560e21b815260040160405180910390fd5b6001600160a01b038116600081815260056020526040808220805460ff19169055513392917fe02b2375d8fb4aef3e5bc5d53bffcf70b6f185c5c93e69dcbe8b6cfc58e837e291a350565b6015546001600160a01b03163314610e19576040516354348f0360e01b815260040160405180910390fd5b6001600160a01b03811660009081526017602052604090205460ff1615610e535760405163546da66560e11b815260040160405180910390fd5b6001600160a01b038116600081815260176020908152604091829020805460ff1916600117905590519182527f049ccb28ab796d3225573a065712f6e7754487ced56056cda8889c337511807b9101610935565b6015546001600160a01b03163314610ed2576040516354348f0360e01b815260040160405180910390fd5b60228190556040518181527f4c10ca068ff7002cf5da78f2f697d1e91f6f0ac27f7344b28e8ef25263f87e5d90602001610935565b6000610f14600183611d07565b92915050565b6015546001600160a01b03163314610f45576040516354348f0360e01b815260040160405180910390fd5b6001600160a01b038116610f6c5760405163d92e233d60e01b815260040160405180910390fd5b601b80546001600160a01b0319166001600160a01b0383169081179091556040519081527f71973fd672e51deb8f739b1f7e1eab991936645acd6f83e2bde6eeeaff5490b090602001610935565b610fc5600182611d2c565b5050565b3360009081526017602052604090205460ff16610ff957604051637e57b1e160e01b815260040160405180910390fd5b6001600160a01b03811660009081526005602052604090205460ff16611032576040516310cec38560e21b815260040160405180910390fd5b61103d600182611d41565b506019546001600160a01b0380831660008181526006602090815260408083209490951680835293815284822054928252601181528482208483529052929092205461108b92849291611d56565b60405133906001600160a01b038316907f038a17b9b553c0c3fc2ed14b957a5d8420a1666fd2efe5c1b3fe5f23eea61bb390600090a350565b6110d084848484611d56565b50505050565b60606110e26013611eac565b905090565b6015546001600160a01b03163314611112576040516354348f0360e01b815260040160405180910390fd5b601e8190556040518181527fc8d443472c9783cc36f8f5f5091f08ce9f37fc2f9e6d79cf1d9aaf40a433fee290602001610935565b60606110e26001611eac565b6015546001600160a01b0316331461117e576040516354348f0360e01b815260040160405180910390fd5b6001600160a01b03811660009081526018602052604090205460ff16156111b85760405163274e25dd60e11b815260040160405180910390fd5b6001600160a01b038116600081815260186020908152604091829020805460ff1916600117905590519182527f8addc69f897ecca0e41d70ed4ff9d75a9148a615a0fbda8597e53aea2684302f9101610935565b60026000540361125e5760405162461bcd60e51b815260206004820152601f60248201527f5265656e7472616e637947756172643a207265656e7472616e742063616c6c006044820152606401610b52565b600260009081553381526005602052604090205460ff1615611293576040516362e6201d60e01b815260040160405180910390fd5b61129e601333611d07565b156112bc5760405163d7229c4360e01b815260040160405180910390fd5b601d546112c99042612456565b336000908152600f602090815260408083206001600160a01b03871680855292528083209390935591516370a0823160e01b81523060048201529091906370a0823190602401602060405180830381865afa15801561132c573d6000803e3d6000fd5b505050506040513d601f19601f82011682018060405250810190611350919061246e565b90506113676001600160a01b038416333085611eb9565b6040516370a0823160e01b815230600482015281906001600160a01b038516906370a0823190602401602060405180830381865afa1580156113ad573d6000803e3d6000fd5b505050506040513d601f19601f820116820180604052508101906113d1919061246e565b6113db9190612487565b336000908152601260209081526040808320805460ff19166001179055600e82528083206001600160a01b0388168452909152812080549294508492909190611425908490612456565b90915550506040518281526001600160a01b0384169033907fa7e66869262026842e8d81f5e6806cdc8d846e27c824e2e22f4fe51442771b349060200160405180910390a35050600160005550565b601e546114819042612456565b3360008181526010602090815260408083206001600160a01b038816808552908352818420959095559282526006815282822093825292909252812080548392906114cd908490612487565b90915550503360009081526011602090815260408083206001600160a01b038616845290915281208054839290611505908490612456565b90915550506040518181526001600160a01b0383169033907f9aaab310d247ad45aef26bbdefc4ebf20c728fdb84c92b95b2b05d21826940de90602001610a6f565b6015546001600160a01b03163314611572576040516354348f0360e01b815260040160405180910390fd5b6001600160a01b03811660009081526017602052604090205460ff166115ab576040516336fe17e760e21b815260040160405180910390fd5b6001600160a01b038116600081815260176020908152604091829020805460ff1916905590519182527f3ed8cbce8cab40e59282f1743e2b607effa08b5cbe0111bb4721134f2f80d0259101610935565b6015546001600160a01b03163314611627576040516354348f0360e01b815260040160405180910390fd5b601680546001600160a01b0319166001600160a01b0383169081179091556040519081527fe987aaedf9d279143bdf1eee16cf1d0feb47742867d81083df8d6cd0a5ac857f90602001610935565b6015546001600160a01b031633146116a0576040516354348f0360e01b815260040160405180910390fd5b60218190556040518181527fbdcfd7b8482f31cff6a87c362d9e2e3887f4cdc2018c7c485d8e78a7b2fadb6990602001610935565b6015546001600160a01b03163314611700576040516354348f0360e01b815260040160405180910390fd5b601d8190556040518181527fd319ef78d2b690bb773fcccc2d096306bac7c9222dd0bb6b300f461e4a376b4390602001610935565b3360009081526017602052604090205460ff1661176557604051637e57b1e160e01b815260040160405180910390fd5b6001600160a01b03841660009081526005602052604090205460ff1661179e576040516310cec38560e21b815260040160405180910390fd5b6117aa84848484611d56565b336001600160a01b0385167f10a73de7ab6e9023aa6e2bc23f7abf4dcef591487e7e55f44c00e34fe60d56db6117e08486612456565b60405190815260200160405180910390a350505050565b6015546001600160a01b03163314611822576040516354348f0360e01b815260040160405180910390fd5b6001600160a01b0381166118495760405163d92e233d60e01b815260040160405180910390fd5b601a80546001600160a01b0319166001600160a01b0383169081179091556040519081527feb931b4b5a98d20a6b1e6693a7c59d8e337a06e2f1473bb776e19251db7ae25090602001610935565b6015546001600160a01b031633146118c2576040516354348f0360e01b815260040160405180910390fd5b620151808110156118e657604051633f384aad60e21b815260040160405180910390fd5b60208181556040518281527f54aafa56429e22230b52f1495588ffc632277d74f3a85ec755e13ac50c1584d99101610935565b6015546001600160a01b03163314611944576040516354348f0360e01b815260040160405180910390fd5b601f8190556040518181527f24d51b415694a791b1c77df7817c075ac82b83ce611bcd8627d2e66cf37aa3e790602001610935565b6015546001600160a01b031633146119a4576040516354348f0360e01b815260040160405180910390fd5b6001600160a01b0381166119cb5760405163d92e233d60e01b815260040160405180910390fd5b601980546001600160a01b0319166001600160a01b0383169081179091556040519081527f1d1a3e7caf0717056e48dc8aefa54d806c7af86324fece4e5d49f8e1f01f84bf90602001610935565b6015546001600160a01b03163314611a44576040516354348f0360e01b815260040160405180910390fd5b6001600160a01b03811660009081526018602052604090205460ff16611a7d57604051633ca0d42760e11b815260040160405180910390fd5b6001600160a01b038116600081815260186020908152604091829020805460ff1916905590519182527f5e8bd21d0a98cb2caf33706e56139ff40ffbdca7ec5d9d412a0a2292496dc70e9101610935565b3360009081526018602052604090205460ff16611afe57604051630942721960e31b815260040160405180910390fd5b6001600160a01b03811660009081526005602052604090205460ff1615611b38576040516304ee891b60e11b815260040160405180910390fd5b6001600160a01b038116600081815260056020526040808220805460ff19166001179055513392917f070125a1c0f5202217aae14ec399abfaaa13c2fd98a91d43bd3a897dd4751e8091a350565b6001600160a01b0382166000908152600460205260408120548103611bc1576001600160a01b03831660009081526004602052604090204290555b611bcc600184611d2c565b50506001600160a01b038083166000818152600e6020908152604080832094861680845294825280832080549084905593835260068252808320948352939052918220805491928392611c20908490612456565b90915550506019546001600160a01b0390811690831603610f1457601954604051630852cd8d60e31b8152600481018390526001600160a01b03909116906342966c6890602401600060405180830381600087803b158015611c8157600080fd5b505af1158015611c95573d6000803e3d6000fd5b5050505092915050565b6040516001600160a01b038316602482015260448101829052611d0290849063a9059cbb60e01b906064015b60408051601f198184030181529190526020810180516001600160e01b03166001600160e01b031990931692909217909152611ef1565b505050565b6001600160a01b038116600090815260018301602052604081205415155b9392505050565b6000611d25836001600160a01b038416611fc3565b6000611d25836001600160a01b038416612012565b6019546001600160a01b03848116911614611e2e576015546001600160a01b038085169163a9059cbb9116611d8b8486612456565b6040516001600160e01b031960e085901b1681526001600160a01b03909216600483015260248201526044016020604051808303816000875af1925050508015611df2575060408051601f3d908101601f19168201909252611def9181019061241e565b60015b611e2c573d808015611e20576040519150601f19603f3d011682016040523d82523d6000602084013e611e25565b606091505b5050611e2e565b505b6001600160a01b03808516600090815260066020908152604080832093871683529290529081208054849290611e65908490612487565b90915550506001600160a01b03808516600090815260116020908152604080832093871683529290529081208054839290611ea1908490612487565b909155505050505050565b60606000611d2583612105565b6040516001600160a01b03808516602483015283166044820152606481018290526110d09085906323b872dd60e01b90608401611ccb565b6000611f46826040518060400160405280602081526020017f5361666545524332303a206c6f772d6c6576656c2063616c6c206661696c6564815250856001600160a01b03166121619092919063ffffffff16565b805190915015611d025780806020019051810190611f64919061241e565b611d025760405162461bcd60e51b815260206004820152602a60248201527f5361666545524332303a204552433230206f7065726174696f6e20646964206e6044820152691bdd081cdd58d8d9595960b21b6064820152608401610b52565b600081815260018301602052604081205461200a57508154600181810184556000848152602080822090930184905584548482528286019093526040902091909155610f14565b506000610f14565b600081815260018301602052604081205480156120fb576000612036600183612487565b855490915060009061204a90600190612487565b90508181146120af57600086600001828154811061206a5761206a61249e565b906000526020600020015490508087600001848154811061208d5761208d61249e565b6000918252602080832090910192909255918252600188019052604090208390555b85548690806120c0576120c06124b4565b600190038181906000526020600020016000905590558560010160008681526020019081526020016000206000905560019350505050610f14565b6000915050610f14565b60608160000180548060200260200160405190810160405280929190818152602001828054801561215557602002820191906000526020600020905b815481526020019060010190808311612141575b50505050509050919050565b60606121708484600085612178565b949350505050565b6060824710156121d95760405162461bcd60e51b815260206004820152602660248201527f416464726573733a20696e73756666696369656e742062616c616e636520666f6044820152651c8818d85b1b60d21b6064820152608401610b52565b6001600160a01b0385163b6122305760405162461bcd60e51b815260206004820152601d60248201527f416464726573733a2063616c6c20746f206e6f6e2d636f6e74726163740000006044820152606401610b52565b600080866001600160a01b0316858760405161224c91906124f6565b60006040518083038185875af1925050503d8060008114612289576040519150601f19603f3d011682016040523d82523d6000602084013e61228e565b606091505b509150915061229e8282866122a9565b979650505050505050565b606083156122b8575081611d25565b8251156122c85782518084602001fd5b8160405162461bcd60e51b8152600401610b529190612512565b80356001600160a01b03811681146122f957600080fd5b919050565b6000806040838503121561231157600080fd5b61231a836122e2565b9150612328602084016122e2565b90509250929050565b60006020828403121561234357600080fd5b611d25826122e2565b60006020828403121561235e57600080fd5b5035919050565b6000806000806080858703121561237b57600080fd5b612384856122e2565b9350612392602086016122e2565b93969395505050506040820135916060013590565b6020808252825182820181905260009190848201906040850190845b818110156123e85783516001600160a01b0316835292840192918401916001016123c3565b50909695505050505050565b6000806040838503121561240757600080fd5b612410836122e2565b946020939093013593505050565b60006020828403121561243057600080fd5b81518015158114611d2557600080fd5b634e487b7160e01b600052601160045260246000fd5b6000821982111561246957612469612440565b500190565b60006020828403121561248057600080fd5b5051919050565b60008282101561249957612499612440565b500390565b634e487b7160e01b600052603260045260246000fd5b634e487b7160e01b600052603160045260246000fd5b60005b838110156124e55781810151838201526020016124cd565b838111156110d05750506000910152565b600082516125088184602087016124ca565b9190910192915050565b60208152600082518060208401526125318160408501602087016124ca565b601f01601f1916919091016040019291505056fea264697066735822122083d46abf634ab7063a47ac5f8d1921f23fe0a1bcda6b8412056780297ffac5f364736f6c634300080e0033",
  "linkReferences": {},
  "deployedLinkReferences": {}
}