{
  "_format": "hh-sol-artifact-1",
  "contractName": "XTaker",
  "sourceName": "contracts/periphery/XTaker.sol",
  "abi": [
    {
      "inputs": [
        {
          "internalType": "address",
          "name": "_WETH",
          "type": "address"
        }
      ],
      "stateMutability": "nonpayable",
      "type": "constructor"
    },
    {
      "anonymous": false,
      "inputs": [],
      "name": "Begin",
      "type": "event"
    },
    {
      "anonymous": false,
      "inputs": [
        {
          "indexed": false,
          "internalType": "address",
          "name": "pair",
          "type": "address"
        },
        {
          "indexed": false,
          "internalType": "address",
          "name": "tokenA",
          "type": "address"
        },
        {
          "indexed": false,
          "internalType": "address",
          "name": "tokenB",
          "type": "address"
        },
        {
          "indexed": false,
          "internalType": "enum ListStatus",
          "name": "status",
          "type": "uint8"
        }
      ],
      "name": "ChangePairStatus",
      "type": "event"
    },
    {
      "anonymous": false,
      "inputs": [
        {
          "indexed": false,
          "internalType": "address",
          "name": "token",
          "type": "address"
        },
        {
          "indexed": false,
          "internalType": "address",
          "name": "msgSender",
          "type": "address"
        }
      ],
      "name": "DeenlistToken",
      "type": "event"
    },
    {
      "anonymous": false,
      "inputs": [
        {
          "indexed": true,
          "internalType": "address",
          "name": "previousOwner",
          "type": "address"
        },
        {
          "indexed": true,
          "internalType": "address",
          "name": "newOwner",
          "type": "address"
        }
      ],
      "name": "OwnershipTransferred",
      "type": "event"
    },
    {
      "anonymous": false,
      "inputs": [
        {
          "indexed": false,
          "internalType": "enum ActionType",
          "name": "_sessionType",
          "type": "uint8"
        },
        {
          "components": [
            {
              "internalType": "uint32",
              "name": "accountant",
              "type": "uint32"
            }
          ],
          "indexed": false,
          "internalType": "struct FeeRates",
          "name": "_feeRates",
          "type": "tuple"
        }
      ],
      "name": "SetFeeRates",
      "type": "event"
    },
    {
      "anonymous": false,
      "inputs": [
        {
          "components": [
            {
              "internalType": "address",
              "name": "accountant",
              "type": "address"
            }
          ],
          "indexed": false,
          "internalType": "struct FeeStores",
          "name": "_feeStores",
          "type": "tuple"
        }
      ],
      "name": "SetFeeStores",
      "type": "event"
    },
    {
      "anonymous": false,
      "inputs": [
        {
          "indexed": false,
          "internalType": "enum NodeType",
          "name": "nodeType",
          "type": "uint8"
        },
        {
          "indexed": false,
          "internalType": "address",
          "name": "node",
          "type": "address"
        }
      ],
      "name": "SetNode",
      "type": "event"
    },
    {
      "inputs": [],
      "name": "WETH",
      "outputs": [
        {
          "internalType": "address",
          "name": "",
          "type": "address"
        }
      ],
      "stateMutability": "view",
      "type": "function"
    },
    {
      "inputs": [
        {
          "internalType": "address",
          "name": "caller",
          "type": "address"
        }
      ],
      "name": "begin",
      "outputs": [],
      "stateMutability": "nonpayable",
      "type": "function"
    },
    {
      "inputs": [
        {
          "internalType": "address",
          "name": "pair",
          "type": "address"
        },
        {
          "internalType": "address",
          "name": "token0",
          "type": "address"
        },
        {
          "internalType": "address",
          "name": "token1",
          "type": "address"
        },
        {
          "internalType": "enum ListStatus",
          "name": "status",
          "type": "uint8"
        },
        {
          "internalType": "address",
          "name": "caller",
          "type": "address"
        }
      ],
      "name": "changePairStatus",
      "outputs": [],
      "stateMutability": "nonpayable",
      "type": "function"
    },
    {
      "inputs": [
        {
          "internalType": "enum ActionType",
          "name": "",
          "type": "uint8"
        }
      ],
      "name": "feeRates",
      "outputs": [
        {
          "internalType": "uint32",
          "name": "accountant",
          "type": "uint32"
        }
      ],
      "stateMutability": "view",
      "type": "function"
    },
    {
      "inputs": [],
      "name": "feeStores",
      "outputs": [
        {
          "internalType": "address",
          "name": "accountant",
          "type": "address"
        }
      ],
      "stateMutability": "view",
      "type": "function"
    },
    {
      "inputs": [
        {
          "internalType": "uint256",
          "name": "amountOut",
          "type": "uint256"
        },
        {
          "internalType": "uint256",
          "name": "reserveIn",
          "type": "uint256"
        },
        {
          "internalType": "uint256",
          "name": "reserveOut",
          "type": "uint256"
        }
      ],
      "name": "getAmountIn",
      "outputs": [
        {
          "internalType": "uint256",
          "name": "amountIn",
          "type": "uint256"
        }
      ],
      "stateMutability": "pure",
      "type": "function"
    },
    {
      "inputs": [
        {
          "internalType": "uint256",
          "name": "amountIn",
          "type": "uint256"
        },
        {
          "internalType": "uint256",
          "name": "reserveIn",
          "type": "uint256"
        },
        {
          "internalType": "uint256",
          "name": "reserveOut",
          "type": "uint256"
        }
      ],
      "name": "getAmountOut",
      "outputs": [
        {
          "internalType": "uint256",
          "name": "amountOut",
          "type": "uint256"
        }
      ],
      "stateMutability": "pure",
      "type": "function"
    },
    {
      "inputs": [
        {
          "internalType": "uint256",
          "name": "amountOut",
          "type": "uint256"
        },
        {
          "internalType": "address[]",
          "name": "path",
          "type": "address[]"
        }
      ],
      "name": "getAmountsIn",
      "outputs": [
        {
          "internalType": "uint256[]",
          "name": "amounts",
          "type": "uint256[]"
        }
      ],
      "stateMutability": "view",
      "type": "function"
    },
    {
      "inputs": [
        {
          "internalType": "uint256",
          "name": "amountIn",
          "type": "uint256"
        },
        {
          "internalType": "address[]",
          "name": "path",
          "type": "address[]"
        }
      ],
      "name": "getAmountsOut",
      "outputs": [
        {
          "internalType": "uint256[]",
          "name": "amounts",
          "type": "uint256[]"
        }
      ],
      "stateMutability": "view",
      "type": "function"
    },
    {
      "inputs": [],
      "name": "getOwner",
      "outputs": [
        {
          "internalType": "address",
          "name": "",
          "type": "address"
        }
      ],
      "stateMutability": "view",
      "type": "function"
    },
    {
      "inputs": [],
      "name": "htzFtm",
      "outputs": [
        {
          "internalType": "address",
          "name": "",
          "type": "address"
        }
      ],
      "stateMutability": "view",
      "type": "function"
    },
    {
      "inputs": [],
      "name": "nextNode",
      "outputs": [
        {
          "internalType": "address",
          "name": "",
          "type": "address"
        }
      ],
      "stateMutability": "view",
      "type": "function"
    },
    {
      "inputs": [],
      "name": "owner",
      "outputs": [
        {
          "internalType": "address",
          "name": "",
          "type": "address"
        }
      ],
      "stateMutability": "view",
      "type": "function"
    },
    {
      "inputs": [
        {
          "internalType": "address",
          "name": "",
          "type": "address"
        },
        {
          "internalType": "address",
          "name": "",
          "type": "address"
        }
      ],
      "name": "pairFor",
      "outputs": [
        {
          "internalType": "address",
          "name": "",
          "type": "address"
        }
      ],
      "stateMutability": "view",
      "type": "function"
    },
    {
      "inputs": [
        {
          "internalType": "address",
          "name": "",
          "type": "address"
        }
      ],
      "name": "pairs",
      "outputs": [
        {
          "internalType": "address",
          "name": "token0",
          "type": "address"
        },
        {
          "internalType": "address",
          "name": "token1",
          "type": "address"
        },
        {
          "internalType": "enum ListStatus",
          "name": "status",
          "type": "uint8"
        }
      ],
      "stateMutability": "view",
      "type": "function"
    },
    {
      "inputs": [],
      "name": "prevNode",
      "outputs": [
        {
          "internalType": "address",
          "name": "",
          "type": "address"
        }
      ],
      "stateMutability": "view",
      "type": "function"
    },
    {
      "inputs": [
        {
          "internalType": "uint256",
          "name": "amountA",
          "type": "uint256"
        },
        {
          "internalType": "uint256",
          "name": "reserveA",
          "type": "uint256"
        },
        {
          "internalType": "uint256",
          "name": "reserveB",
          "type": "uint256"
        }
      ],
      "name": "quote",
      "outputs": [
        {
          "internalType": "uint256",
          "name": "amountB",
          "type": "uint256"
        }
      ],
      "stateMutability": "pure",
      "type": "function"
    },
    {
      "inputs": [],
      "name": "renounceOwnership",
      "outputs": [],
      "stateMutability": "nonpayable",
      "type": "function"
    },
    {
      "inputs": [
        {
          "internalType": "enum ActionType",
          "name": "_sessionType",
          "type": "uint8"
        },
        {
          "components": [
            {
              "internalType": "uint32",
              "name": "accountant",
              "type": "uint32"
            }
          ],
          "internalType": "struct FeeRates",
          "name": "_feeRates",
          "type": "tuple"
        },
        {
          "internalType": "address",
          "name": "caller",
          "type": "address"
        }
      ],
      "name": "setFeeRates",
      "outputs": [],
      "stateMutability": "nonpayable",
      "type": "function"
    },
    {
      "inputs": [
        {
          "components": [
            {
              "internalType": "address",
              "name": "accountant",
              "type": "address"
            }
          ],
          "internalType": "struct FeeStores",
          "name": "_feeStores",
          "type": "tuple"
        },
        {
          "internalType": "address",
          "name": "caller",
          "type": "address"
        }
      ],
      "name": "setFeeStores",
      "outputs": [],
      "stateMutability": "nonpayable",
      "type": "function"
    },
    {
      "inputs": [
        {
          "internalType": "enum NodeType",
          "name": "nodeType",
          "type": "uint8"
        },
        {
          "internalType": "address",
          "name": "node",
          "type": "address"
        },
        {
          "internalType": "address",
          "name": "caller",
          "type": "address"
        }
      ],
      "name": "setNode",
      "outputs": [],
      "stateMutability": "nonpayable",
      "type": "function"
    },
    {
      "inputs": [
        {
          "internalType": "uint256",
          "name": "amountIn",
          "type": "uint256"
        },
        {
          "internalType": "address[]",
          "name": "path",
          "type": "address[]"
        }
      ],
      "name": "sim_swapExactTokensForTokens",
      "outputs": [
        {
          "internalType": "uint256[]",
          "name": "amounts",
          "type": "uint256[]"
        }
      ],
      "stateMutability": "view",
      "type": "function"
    },
    {
      "inputs": [
        {
          "internalType": "uint256",
          "name": "amountOut",
          "type": "uint256"
        },
        {
          "internalType": "address[]",
          "name": "path",
          "type": "address[]"
        },
        {
          "internalType": "address",
          "name": "to",
          "type": "address"
        },
        {
          "internalType": "uint256",
          "name": "deadlineBNumber",
          "type": "uint256"
        }
      ],
      "name": "swapETHForExactTokens",
      "outputs": [
        {
          "internalType": "uint256[]",
          "name": "amounts",
          "type": "uint256[]"
        }
      ],
      "stateMutability": "payable",
      "type": "function"
    },
    {
      "inputs": [
        {
          "internalType": "uint256",
          "name": "amountOutMin",
          "type": "uint256"
        },
        {
          "internalType": "address[]",
          "name": "path",
          "type": "address[]"
        },
        {
          "internalType": "address",
          "name": "to",
          "type": "address"
        },
        {
          "internalType": "uint256",
          "name": "deadlineBNumber",
          "type": "uint256"
        }
      ],
      "name": "swapExactETHForTokens",
      "outputs": [
        {
          "internalType": "uint256[]",
          "name": "amounts",
          "type": "uint256[]"
        }
      ],
      "stateMutability": "payable",
      "type": "function"
    },
    {
      "inputs": [
        {
          "internalType": "uint256",
          "name": "amountOutMin",
          "type": "uint256"
        },
        {
          "internalType": "address[]",
          "name": "path",
          "type": "address[]"
        },
        {
          "internalType": "address",
          "name": "to",
          "type": "address"
        },
        {
          "internalType": "uint256",
          "name": "deadlineBNumber",
          "type": "uint256"
        }
      ],
      "name": "swapExactETHForTokensSupportingFeeOnTransferTokens",
      "outputs": [],
      "stateMutability": "payable",
      "type": "function"
    },
    {
      "inputs": [
        {
          "internalType": "uint256",
          "name": "amountIn",
          "type": "uint256"
        },
        {
          "internalType": "uint256",
          "name": "amountOutMin",
          "type": "uint256"
        },
        {
          "internalType": "address[]",
          "name": "path",
          "type": "address[]"
        },
        {
          "internalType": "address",
          "name": "to",
          "type": "address"
        },
        {
          "internalType": "uint256",
          "name": "deadlineBNumber",
          "type": "uint256"
        }
      ],
      "name": "swapExactTokensForETH",
      "outputs": [
        {
          "internalType": "uint256[]",
          "name": "amounts",
          "type": "uint256[]"
        }
      ],
      "stateMutability": "nonpayable",
      "type": "function"
    },
    {
      "inputs": [
        {
          "internalType": "uint256",
          "name": "amountIn",
          "type": "uint256"
        },
        {
          "internalType": "uint256",
          "name": "amountOutMin",
          "type": "uint256"
        },
        {
          "internalType": "address[]",
          "name": "path",
          "type": "address[]"
        },
        {
          "internalType": "address",
          "name": "to",
          "type": "address"
        },
        {
          "internalType": "uint256",
          "name": "deadlineBNumber",
          "type": "uint256"
        }
      ],
      "name": "swapExactTokensForETHSupportingFeeOnTransferTokens",
      "outputs": [],
      "stateMutability": "nonpayable",
      "type": "function"
    },
    {
      "inputs": [
        {
          "internalType": "uint256",
          "name": "amountIn",
          "type": "uint256"
        },
        {
          "internalType": "uint256",
          "name": "amountOutMin",
          "type": "uint256"
        },
        {
          "internalType": "address[]",
          "name": "path",
          "type": "address[]"
        },
        {
          "internalType": "address",
          "name": "to",
          "type": "address"
        },
        {
          "internalType": "uint256",
          "name": "deadlineBNumber",
          "type": "uint256"
        }
      ],
      "name": "swapExactTokensForTokens",
      "outputs": [
        {
          "internalType": "uint256[]",
          "name": "amounts",
          "type": "uint256[]"
        }
      ],
      "stateMutability": "nonpayable",
      "type": "function"
    },
    {
      "inputs": [
        {
          "internalType": "uint256",
          "name": "amountIn",
          "type": "uint256"
        },
        {
          "internalType": "uint256",
          "name": "amountOutMin",
          "type": "uint256"
        },
        {
          "internalType": "address[]",
          "name": "path",
          "type": "address[]"
        },
        {
          "internalType": "address",
          "name": "to",
          "type": "address"
        },
        {
          "internalType": "uint256",
          "name": "deadlineBNumber",
          "type": "uint256"
        }
      ],
      "name": "swapExactTokensForTokensSupportingFeeOnTransferTokens",
      "outputs": [],
      "stateMutability": "nonpayable",
      "type": "function"
    },
    {
      "inputs": [
        {
          "internalType": "uint256",
          "name": "amountOut",
          "type": "uint256"
        },
        {
          "internalType": "uint256",
          "name": "amountInMax",
          "type": "uint256"
        },
        {
          "internalType": "address[]",
          "name": "path",
          "type": "address[]"
        },
        {
          "internalType": "address",
          "name": "to",
          "type": "address"
        },
        {
          "internalType": "uint256",
          "name": "deadlineBNumber",
          "type": "uint256"
        }
      ],
      "name": "swapTokensForExactETH",
      "outputs": [
        {
          "internalType": "uint256[]",
          "name": "amounts",
          "type": "uint256[]"
        }
      ],
      "stateMutability": "nonpayable",
      "type": "function"
    },
    {
      "inputs": [
        {
          "internalType": "uint256",
          "name": "amountOut",
          "type": "uint256"
        },
        {
          "internalType": "uint256",
          "name": "amountInMax",
          "type": "uint256"
        },
        {
          "internalType": "address[]",
          "name": "path",
          "type": "address[]"
        },
        {
          "internalType": "address",
          "name": "to",
          "type": "address"
        },
        {
          "internalType": "uint256",
          "name": "deadlineBNumber",
          "type": "uint256"
        }
      ],
      "name": "swapTokensForExactTokens",
      "outputs": [
        {
          "internalType": "uint256[]",
          "name": "amounts",
          "type": "uint256[]"
        }
      ],
      "stateMutability": "nonpayable",
      "type": "function"
    },
    {
      "inputs": [],
      "name": "tgrBusd",
      "outputs": [
        {
          "internalType": "address",
          "name": "",
          "type": "address"
        }
      ],
      "stateMutability": "view",
      "type": "function"
    },
    {
      "inputs": [],
      "name": "tgrFtm",
      "outputs": [
        {
          "internalType": "address",
          "name": "",
          "type": "address"
        }
      ],
      "stateMutability": "view",
      "type": "function"
    },
    {
      "inputs": [
        {
          "internalType": "address",
          "name": "newOwner",
          "type": "address"
        }
      ],
      "name": "transferOwnership",
      "outputs": [],
      "stateMutability": "nonpayable",
      "type": "function"
    },
    {
      "inputs": [
        {
          "internalType": "address",
          "name": "_prevNode",
          "type": "address"
        },
        {
          "internalType": "address",
          "name": "_nextNode",
          "type": "address"
        }
      ],
      "name": "wire",
      "outputs": [],
      "stateMutability": "nonpayable",
      "type": "function"
    },
    {
      "inputs": [
        {
          "internalType": "uint256",
          "name": "amountIn",
          "type": "uint256"
        },
        {
          "internalType": "uint256",
          "name": "amountOutMin",
          "type": "uint256"
        },
        {
          "internalType": "address[]",
          "name": "path",
          "type": "address[]"
        },
        {
          "internalType": "address",
          "name": "to",
          "type": "address"
        }
      ],
      "name": "wired_swapExactTokensForTokens",
      "outputs": [
        {
          "internalType": "uint256[]",
          "name": "amounts",
          "type": "uint256[]"
        }
      ],
      "stateMutability": "nonpayable",
      "type": "function"
    },
    {
      "stateMutability": "payable",
      "type": "receive"
    }
  ],
  "bytecode": "0x60e0604052601160a0819052702c2a30b5b2b91d102337b93134b23232b760791b60c090815262000034916015919062000284565b506040805180820190915260148082527f5854616b65723a20496e76616c6964207061746800000000000000000000000060209092019182526200007b9160169162000284565b5060405180606001604052806022815260200162005d9a602291398051620000ac9160179160209091019062000284565b5060408051808201909152601d8082527f5854616b65723a20496e73756666696369656e74204120616d6f756e740000006020909201918252620000f39160189162000284565b5060408051808201909152601d8082527f5854616b65723a20496e73756666696369656e74204220616d6f756e7400000060209092019182526200013a9160199162000284565b5060408051808201909152601e8082527f5854616b65723a2045786365737369766520696e70757420616d6f756e74000060209092019182526200018191601a9162000284565b5060408051808201909152600f8082526e1615185ad95c8e88115e1c1a5c9959608a1b6020909201918252620001ba91601b9162000284565b50348015620001c857600080fd5b5060405162005dbc38038062005dbc833981016040819052620001eb916200032a565b6000805460ff19166003179055620002033362000226565b6001600160a01b0316608052600e805462ffffff19166201010117905562000398565b600e80546001600160a01b0383811663010000008181026301000000600160b81b031985161790945560405193909204169182907f8be0079c531659141344cd1fd0a4f28419497f9722a3daafe3b4186f6b6457e090600090a35050565b82805462000292906200035c565b90600052602060002090601f016020900481019282620002b6576000855562000301565b82601f10620002d157805160ff191683800117855562000301565b8280016001018555821562000301579182015b8281111562000301578251825591602001919060010190620002e4565b506200030f92915062000313565b5090565b5b808211156200030f576000815560010162000314565b6000602082840312156200033d57600080fd5b81516001600160a01b03811681146200035557600080fd5b9392505050565b600181811c908216806200037157607f821691505b6020821081036200039257634e487b7160e01b600052602260045260246000fd5b50919050565b60805161596f6200042b60003960008181610223015281816105bc015281816107bb01528181610a4001528181610cc901528181610eaf0152818161143901528181611543015281816115f20152818161169d0152818161171a0152818161186b01528181611f0e01528181611f900152818161202601528181612c5901528181612d610152612e0e015261596f6000f3fe6080604052600436106102135760003560e01c80638da5cb5b11610118578063c5278eac116100a0578063eaae9d831161006f578063eaae9d8314610691578063f2fde38b146106b1578063f9a21e8a146106d1578063fb3bdb41146106f1578063fe33b3021461070457600080fd5b8063c5278eac14610611578063cd193c4314610631578063cdd9224c14610651578063d06ca61f1461067157600080fd5b8063934923a3116100e7578063934923a31461054957806396ed28f914610569578063ad5c4648146105aa578063ad615dec146105de578063b6f9de95146105fe57600080fd5b80638da5cb5b146104c457806390e3677f146104e957806391fd0db714610509578063928879d61461052957600080fd5b806354abe9d01161019b578063791ac9471161016a578063791ac947146104515780637ff36ab51461047157806385f8c259146104845780638803dbee146104a4578063893d20e8146104c457600080fd5b806354abe9d0146103dc5780635c11d795146103fc57806365715c561461041c578063715018a61461043c57600080fd5b806318cbafe5116101e257806318cbafe51461032a5780631f00ca7414610357578063249dfad71461037757806338ed17391461039c5780634a25d94a146103bc57600080fd5b8063054d50d41461025757806309b16a221461028a5780630c3d536b146102c257806310224711146102e257600080fd5b3661025257336001600160a01b037f0000000000000000000000000000000000000000000000000000000000000000161461025057610250614b55565b005b600080fd5b34801561026357600080fd5b50610277610272366004614b6b565b610760565b6040519081526020015b60405180910390f35b34801561029657600080fd5b506008546102aa906001600160a01b031681565b6040516001600160a01b039091168152602001610281565b3480156102ce57600080fd5b506009546102aa906001600160a01b031681565b3480156102ee57600080fd5b506103156102fd366004614ba4565b600d6020526000908152604090205463ffffffff1681565b60405163ffffffff9091168152602001610281565b34801561033657600080fd5b5061034a610345366004614c1a565b610775565b6040516102819190614c8c565b34801561036357600080fd5b5061034a610372366004614d3e565b610b27565b34801561038357600080fd5b506000546102aa9061010090046001600160a01b031681565b3480156103a857600080fd5b5061034a6103b7366004614c1a565b610b4a565b3480156103c857600080fd5b5061034a6103d7366004614c1a565b610c8c565b3480156103e857600080fd5b506102506103f7366004614dfb565b610f70565b34801561040857600080fd5b50610250610417366004614c1a565b611094565b34801561042857600080fd5b506001546102aa906001600160a01b031681565b34801561044857600080fd5b50610250611390565b34801561045d57600080fd5b5061025061046c366004614c1a565b6113fe565b61034a61047f366004614e18565b611668565b34801561049057600080fd5b5061027761049f366004614b6b565b611a1a565b3480156104b057600080fd5b5061034a6104bf366004614c1a565b611a27565b3480156104d057600080fd5b50600e54630100000090046001600160a01b03166102aa565b3480156104f557600080fd5b50610250610504366004614e7e565b611bc5565b34801561051557600080fd5b50610250610524366004614ec9565b611c63565b34801561053557600080fd5b50610250610544366004614f4f565b611e13565b34801561055557600080fd5b506007546102aa906001600160a01b031681565b34801561057557600080fd5b506102aa610584366004614e7e565b600b6020908152600092835260408084209091529082529020546001600160a01b031681565b3480156105b657600080fd5b506102aa7f000000000000000000000000000000000000000000000000000000000000000081565b3480156105ea57600080fd5b506102776105f9366004614b6b565b611ece565b61025061060c366004614e18565b611edb565b34801561061d57600080fd5b5061034a61062c366004614f93565b61229c565b34801561063d57600080fd5b5061025061064c366004614ffd565b61248a565b34801561065d57600080fd5b5061025061066c366004615064565b612926565b34801561067d57600080fd5b5061034a61068c366004614d3e565b612aeb565b34801561069d57600080fd5b5061034a6106ac3660046150c9565b612b05565b3480156106bd57600080fd5b506102506106cc366004614dfb565b612b54565b3480156106dd57600080fd5b50600c546102aa906001600160a01b031681565b61034a6106ff366004614e18565b612c24565b34801561071057600080fd5b5061075161071f366004614dfb565b600a60205260009081526040902080546001909101546001600160a01b0391821691811690600160a01b900460ff1683565b6040516102819392919061513e565b600061076d848484613096565b949350505050565b606081601b438210156107a45760405162461bcd60e51b815260040161079b9190615163565b60405180910390fd5b506107b16002600161316c565b6001600160a01b037f00000000000000000000000000000000000000000000000000000000000000001686866107e8600182615220565b8181106107f7576107f7615237565b905060200201602081019061080c9190614dfb565b6001600160a01b0316146016906108365760405162461bcd60e51b815260040161079b9190615163565b5061086b8686600081811061084d5761084d615237565b90506020020160208101906108629190614dfb565b338a600161323b565b6108759089615220565b600654604080516020808a028281018201909352898252939b506108c2936001600160a01b03909316928c928b918b91829185019084908082843760009201919091525061335292505050565b91508682600184516108d49190615220565b815181106108e4576108e4615237565b6020026020010151101560179061090e5760405162461bcd60e51b815260040161079b9190615163565b506109ff8686600081811061092557610925615237565b905060200201602081019061093a9190614dfb565b33600b60008a8a600081811061095257610952615237565b90506020020160208101906109679190614dfb565b6001600160a01b03166001600160a01b0316815260200190815260200160002060008a8a600181811061099c5761099c615237565b90506020020160208101906109b19190614dfb565b6001600160a01b039081168252602082019290925260400160009081205487519216918791906109e3576109e3615237565b60209081029190910101516002546001600160a01b03166134d5565b610a3e82878780806020026020016040519081016040528093929190818152602001838360200280828437600092019190915250309250613569915050565b7f00000000000000000000000000000000000000000000000000000000000000006001600160a01b0316632e1a7d4d8360018551610a7c9190615220565b81518110610a8c57610a8c615237565b60200260200101516040518263ffffffff1660e01b8152600401610ab291815260200190565b600060405180830381600087803b158015610acc57600080fd5b505af1158015610ae0573d6000803e3d6000fd5b50505050610b14848360018551610af79190615220565b81518110610b0757610b07615237565b60200260200101516138b4565b610b1c61397d565b509695505050505050565b600654606090610b41906001600160a01b031684846139e1565b90505b92915050565b606081601b43821015610b705760405162461bcd60e51b815260040161079b9190615163565b50610b7d6002600161316c565b610b938686600081811061084d5761084d615237565b610b9d9089615220565b600654604080516020808a028281018201909352898252939b50610bea936001600160a01b03909316928c928b918b91829185019084908082843760009201919091525061335292505050565b9150868260018451610bfc9190615220565b81518110610c0c57610c0c615237565b60200260200101511015601790610c365760405162461bcd60e51b815260040161079b9190615163565b50610c4d8686600081811061092557610925615237565b610b1482878780806020026020016040519081016040528093929190818152602001838360200280828437600092019190915250899250613569915050565b606081601b43821015610cb25760405162461bcd60e51b815260040161079b9190615163565b50610cbf6002600161316c565b6001600160a01b037f0000000000000000000000000000000000000000000000000000000000000000168686610cf6600182615220565b818110610d0557610d05615237565b9050602002016020810190610d1a9190614dfb565b6001600160a01b031614601690610d445760405162461bcd60e51b815260040161079b9190615163565b506006546040805160208089028281018201909352888252610d8f936001600160a01b0316928c92918b918b918291908501908490808284376000920191909152506139e192505050565b91508682600081518110610da557610da5615237565b60200260200101511115601a90610dcf5760405162461bcd60e51b815260040161079b9190615163565b50610de68686600081811061092557610925615237565b610e2582878780806020026020016040519081016040528093929190818152602001838360200280828437600092019190915250309250613569915050565b6000610e32600187615220565b9050610e80878783818110610e4957610e49615237565b9050602002016020810190610e5e9190614dfb565b30858481518110610e7157610e71615237565b6020026020010151600061323b565b838281518110610e9257610e92615237565b60200260200101818151610ea69190615220565b915081815250507f00000000000000000000000000000000000000000000000000000000000000006001600160a01b0316632e1a7d4d848381518110610eee57610eee615237565b60200260200101516040518263ffffffff1660e01b8152600401610f1491815260200190565b600060405180830381600087803b158015610f2e57600080fd5b505af1158015610f42573d6000803e3d6000fd5b50505050610f5c85848381518110610b0757610b07615237565b610f6461397d565b50509695505050505050565b60005461010090046001600160a01b0316331480610f8d57503330145b80610fbb5750600e54630100000090046001600160a01b03166001600160a01b0316336001600160a01b0316145b610fd75760405162461bcd60e51b815260040161079b9061524d565b6001600160a01b0381163014611067576001546001600160a01b03908116906354abe9d090831615611009578261100b565b305b6040516001600160e01b031960e084901b1681526001600160a01b039091166004820152602401600060405180830381600087803b15801561104c57600080fd5b505af1158015611060573d6000803e3d6000fd5b5050505050565b6040517ffd3415c24b2b4519f08b7935c13f86ea010c77b3ff9bf448a474ae3b2414fce090600090a15b50565b80601b438210156110b85760405162461bcd60e51b815260040161079b9190615163565b506110c56002600161316c565b6110f9858560008181106110db576110db615237565b90506020020160208101906110f09190614dfb565b3389600161323b565b6111039088615220565b96506111d28585600081811061111b5761111b615237565b90506020020160208101906111309190614dfb565b33600b60008989600081811061114857611148615237565b905060200201602081019061115d9190614dfb565b6001600160a01b03166001600160a01b0316815260200190815260200160002060008989600181811061119257611192615237565b90506020020160208101906111a79190614dfb565b6001600160a01b039081168252602082019290925260400160002054600254908216918c91166134d5565b600085856111e1600182615220565b8181106111f0576111f0615237565b90506020020160208101906112059190614dfb565b6040516370a0823160e01b81526001600160a01b03868116600483015291909116906370a0823190602401602060405180830381865afa15801561124d573d6000803e3d6000fd5b505050506040513d601f19601f820116820180604052508101906112719190615277565b90506112b1868680806020026020016040519081016040528093929190818152602001838360200280828437600092019190915250889250613b5a915050565b868187876112c0600182615220565b8181106112cf576112cf615237565b90506020020160208101906112e49190614dfb565b6040516370a0823160e01b81526001600160a01b03888116600483015291909116906370a08231906024015b602060405180830381865afa15801561132d573d6000803e3d6000fd5b505050506040513d601f19601f820116820180604052508101906113519190615277565b61135b9190615220565b101560179061137d5760405162461bcd60e51b815260040161079b9190615163565b5061138661397d565b5050505050505050565b600e546001600160a01b0363010000009091041633146113f25760405162461bcd60e51b815260206004820181905260248201527f4f776e61626c653a2063616c6c6572206973206e6f7420746865206f776e6572604482015260640161079b565b6113fc6000613faf565b565b80601b438210156114225760405162461bcd60e51b815260040161079b9190615163565b5061142f6002600161316c565b6001600160a01b037f0000000000000000000000000000000000000000000000000000000000000000168585611466600182615220565b81811061147557611475615237565b905060200201602081019061148a9190614dfb565b6001600160a01b0316146016906114b45760405162461bcd60e51b815260040161079b9190615163565b506114cb858560008181106110db576110db615237565b6114d59088615220565b96506114ed8585600081811061111b5761111b615237565b61152b858580806020026020016040519081016040528093929190818152602001838360200280828437600092019190915250309250613b5a915050565b6040516370a0823160e01b81523060048201526000907f00000000000000000000000000000000000000000000000000000000000000006001600160a01b0316906370a0823190602401602060405180830381865afa158015611592573d6000803e3d6000fd5b505050506040513d601f19601f820116820180604052508101906115b69190615277565b90506017878210156115db5760405162461bcd60e51b815260040161079b9190615163565b50604051632e1a7d4d60e01b8152600481018290527f00000000000000000000000000000000000000000000000000000000000000006001600160a01b031690632e1a7d4d90602401600060405180830381600087803b15801561163e57600080fd5b505af1158015611652573d6000803e3d6000fd5b5050505061166084826138b4565b61138661397d565b606081601b4382101561168e5760405162461bcd60e51b815260040161079b9190615163565b5061169b6002600161316c565b7f00000000000000000000000000000000000000000000000000000000000000006001600160a01b0316868660008181106116d8576116d8615237565b90506020020160208101906116ed9190614dfb565b6001600160a01b0316146016906117175760405162461bcd60e51b815260040161079b9190615163565b507f00000000000000000000000000000000000000000000000000000000000000006001600160a01b031663d0e30db0346040518263ffffffff1660e01b81526004016000604051808303818588803b15801561177357600080fd5b505af1158015611787573d6000803e3d6000fd5b505050505060003490506117c5878760008181106117a7576117a7615237565b90506020020160208101906117bc9190614dfb565b3083600161323b565b6117cf9082615220565b600654604080516020808b0282810182019093528a825293945061181c936001600160a01b039093169285928c918c91829185019084908082843760009201919091525061335292505050565b925087836001855161182e9190615220565b8151811061183e5761183e615237565b602002602001015110156017906118685760405162461bcd60e51b815260040161079b9190615163565b507f00000000000000000000000000000000000000000000000000000000000000006001600160a01b031663a9059cbb600b60008a8a60008181106118af576118af615237565b90506020020160208101906118c49190614dfb565b6001600160a01b03166001600160a01b0316815260200190815260200160002060008a8a60018181106118f9576118f9615237565b905060200201602081019061190e9190614dfb565b6001600160a01b0390811682526020820192909252604001600090812054875192169187919061194057611940615237565b60200260200101516040518363ffffffff1660e01b81526004016119799291906001600160a01b03929092168252602082015260400190565b6020604051808303816000875af1158015611998573d6000803e3d6000fd5b505050506040513d601f19601f820116820180604052508101906119bc91906152a5565b6119c8576119c8614b55565b611a07838888808060200260200160405190810160405280939291908181526020018383602002808284376000920191909152508a9250613569915050565b611a0f61397d565b505095945050505050565b600061076d84848461400d565b606081601b43821015611a4d5760405162461bcd60e51b815260040161079b9190615163565b50611a5a6002600161316c565b6006546040805160208089028281018201909352888252611aa4936001600160a01b0316928c92918b918b918291908501908490808284376000920191909152506139e192505050565b91508682600081518110611aba57611aba615237565b60200260200101511115601a90611ae45760405162461bcd60e51b815260040161079b9190615163565b50611afb8686600081811061092557610925615237565b611b3a82878780806020026020016040519081016040528093929190818152602001838360200280828437600092019190915250309250613569915050565b6000611b47600187615220565b9050611b5e878783818110610e4957610e49615237565b838281518110611b7057611b70615237565b60200260200101818151611b849190615220565b905250610f5c878783818110611b9c57611b9c615237565b9050602002016020810190611bb19190614dfb565b30878685815181106109e3576109e3615237565b600e54630100000090046001600160a01b03166001600160a01b0316336001600160a01b031614611c2b5760405162461bcd60e51b815260206004820152601060248201526f496e76616c69642063616c6c6572203360801b604482015260640161079b565b60008054610100600160a81b0319166101006001600160a01b0394851602179055600180546001600160a01b03191691909216179055565b60005461010090046001600160a01b0316331480611c8057503330145b80611cae5750600e54630100000090046001600160a01b03166001600160a01b0316336001600160a01b0316145b611cca5760405162461bcd60e51b815260040161079b9061524d565b6001600160a01b0381163014611dd457600e5462010000900460ff1615611d5857604051634f18125b60e01b815273__$88bebae22a3ad6e62b56c303176513ecf8$__90634f18125b90611d27908690600d9087906004016152d0565b60006040518083038186803b158015611d3f57600080fd5b505af4158015611d53573d6000803e3d6000fd5b505050505b60006001600160a01b03821615611d6f5781611d71565b305b6001546040516391fd0db760e01b81529192506001600160a01b0316906391fd0db790611da6908790879086906004016152f9565b600060405180830381600087803b158015611dc057600080fd5b505af1158015611386573d6000803e3d6000fd5b7fb4040436d4754da72f29d5b97fe68448f30d44ac0e08b33545cbf6f28b7641d98383604051611e0592919061532b565b60405180910390a15b505050565b60005461010090046001600160a01b0316331480611e3057503330145b80611e5e5750600e54630100000090046001600160a01b03166001600160a01b0316336001600160a01b0316145b611e7a5760405162461bcd60e51b815260040161079b9061524d565b611e858383836140dd565b6000836004811115611e9957611e99615114565b03611e0e57601380546001600160a01b0384166001600160a01b03199182168117909255601480549091169091179055505050565b600061076d848484614240565b80601b43821015611eff5760405162461bcd60e51b815260040161079b9190615163565b50611f0c6002600161316c565b7f00000000000000000000000000000000000000000000000000000000000000006001600160a01b031685856000818110611f4957611f49615237565b9050602002016020810190611f5e9190614dfb565b6001600160a01b031614601690611f885760405162461bcd60e51b815260040161079b9190615163565b5060003490507f00000000000000000000000000000000000000000000000000000000000000006001600160a01b031663d0e30db0826040518263ffffffff1660e01b81526004016000604051808303818588803b158015611fe957600080fd5b505af1158015611ffd573d6000803e3d6000fd5b5050505050612018868660008181106117a7576117a7615237565b6120229082615220565b90507f00000000000000000000000000000000000000000000000000000000000000006001600160a01b031663a9059cbb600b60008989600081811061206a5761206a615237565b905060200201602081019061207f9190614dfb565b6001600160a01b03166001600160a01b031681526020019081526020016000206000898960018181106120b4576120b4615237565b90506020020160208101906120c99190614dfb565b6001600160a01b039081168252602082019290925260409081016000205490516001600160e01b031960e085901b16815291166004820152602481018490526044016020604051808303816000875af115801561212a573d6000803e3d6000fd5b505050506040513d601f19601f8201168201806040525081019061214e91906152a5565b61215a5761215a614b55565b60008686612169600182615220565b81811061217857612178615237565b905060200201602081019061218d9190614dfb565b6040516370a0823160e01b81526001600160a01b03878116600483015291909116906370a0823190602401602060405180830381865afa1580156121d5573d6000803e3d6000fd5b505050506040513d601f19601f820116820180604052508101906121f99190615277565b9050612239878780806020026020016040519081016040528093929190818152602001838360200280828437600092019190915250899250613b5a915050565b87818888612248600182615220565b81811061225757612257615237565b905060200201602081019061226c9190614dfb565b6040516370a0823160e01b81526001600160a01b03898116600483015291909116906370a0823190602401611310565b6002546060906001600160a01b0316336001600160a01b0316146015906122d65760405162461bcd60e51b815260040161079b9190615163565b506006546040805160208087028281018201909352868252612321936001600160a01b0316928a92918991899182919085019084908082843760009201919091525061335292505050565b90508481600183516123339190615220565b8151811061234357612343615237565b6020026020010151101560179061236d5760405162461bcd60e51b815260040161079b9190615163565b506124428484600081811061238457612384615237565b90506020020160208101906123999190614dfb565b33600b6000888860008181106123b1576123b1615237565b90506020020160208101906123c69190614dfb565b6001600160a01b03166001600160a01b031681526020019081526020016000206000888860018181106123fb576123fb615237565b90506020020160208101906124109190614dfb565b6001600160a01b039081168252602082019290925260400160009081205486519216918691906109e3576109e3615237565b612481818585808060200260200160405190810160405280939291908181526020018383602002808284376000920191909152508792506142d2915050565b95945050505050565b60005461010090046001600160a01b03163314806124a757503330145b806124d55750600e54630100000090046001600160a01b03166001600160a01b0316336001600160a01b0316145b6124f15760405162461bcd60e51b815260040161079b9061524d565b6001600160a01b03811630146128e257600e5460ff1615612858576040518060600160405280856001600160a01b03168152602001846001600160a01b0316815260200183600381111561254757612547615114565b90526001600160a01b038087166000908152600a6020908152604091829020845181549085166001600160a01b0319918216178255918501516001820180549190951692811683178555928501519093909290916001600160a81b031990911617600160a01b8360038111156125bf576125bf615114565b021790555050506001600160a01b038085166000818152600b60208181526040808420898716855282528084208054878d166001600160a01b03199182168117909255938352818520958552949091529182902080549091169092179091556002549051633fe59dbb60e11b815273__$88bebae22a3ad6e62b56c303176513ecf8$__92637fcb3b769261267192899289921690730dcd1bf9a1b36ce34237eeafef220932846bcd829060040161534d565b602060405180830381865af415801561268e573d6000803e3d6000fd5b505050506040513d601f19601f820116820180604052508101906126b291906152a5565b156126d357600780546001600160a01b0319166001600160a01b0387161790555b600254604051633fe59dbb60e11b815273__$88bebae22a3ad6e62b56c303176513ecf8$__91637fcb3b769161272f91889188916001600160a01b031690735fc8d32690cc91d4c39d9d3abcbd16989f8757079060040161534d565b602060405180830381865af415801561274c573d6000803e3d6000fd5b505050506040513d601f19601f8201168201806040525081019061277091906152a5565b1561279157600880546001600160a01b0319166001600160a01b0387161790555b604051633fe59dbb60e11b815273__$88bebae22a3ad6e62b56c303176513ecf8$__90637fcb3b76906127f6908790879073b7f8bc63bbcad18155201308c8f3540b07f84f5e90735fc8d32690cc91d4c39d9d3abcbd16989f8757079060040161534d565b602060405180830381865af4158015612813573d6000803e3d6000fd5b505050506040513d601f19601f8201168201806040525081019061283791906152a5565b1561285857600980546001600160a01b0319166001600160a01b0387161790555b60006001600160a01b0382161561286f5781612871565b305b60015460405163cd193c4360e01b81529192506001600160a01b03169063cd193c43906128aa9089908990899089908890600401615378565b600060405180830381600087803b1580156128c457600080fd5b505af11580156128d8573d6000803e3d6000fd5b5050505050611060565b7f7af36d96fdc569564b9fadb22716716fe33463cb7fc8dca4fbd79d40448acdf28585858560405161291794939291906153ba565b60405180910390a15050505050565b60005461010090046001600160a01b031633148061294357503330145b806129715750600e54630100000090046001600160a01b03166001600160a01b0316336001600160a01b0316145b61298d5760405162461bcd60e51b815260040161079b9061524d565b6001600160a01b0381163014612aaa57600e54610100900460ff1615612a2157604051633d8d54b760e11b8152600c600482015282516001600160a01b0316602482015273__$88bebae22a3ad6e62b56c303176513ecf8$__90637b1aa96e9060440160006040518083038186803b158015612a0857600080fd5b505af4158015612a1c573d6000803e3d6000fd5b505050505b60006001600160a01b03821615612a385781612a3a565b305b600154604051633376489360e21b815285516001600160a01b039081166004830152808416602483015292935091169063cdd9224c90604401600060405180830381600087803b158015612a8d57600080fd5b505af1158015612aa1573d6000803e3d6000fd5b50505050505050565b60405182516001600160a01b031681527f275664547227ddbc7a8a732c07c9346f2f4520de70c2088665cc6809534212c09060200160405180910390a15050565b600654606090610b41906001600160a01b03168484613352565b600654604080516020808502828101820190935284825260609361076d936001600160a01b03909116928892909188918891829185019084908082843760009201919091525061335292505050565b600e546001600160a01b036301000000909104163314612bb65760405162461bcd60e51b815260206004820181905260248201527f4f776e61626c653a2063616c6c6572206973206e6f7420746865206f776e6572604482015260640161079b565b6001600160a01b038116612c1b5760405162461bcd60e51b815260206004820152602660248201527f4f776e61626c653a206e6577206f776e657220697320746865207a65726f206160448201526564647265737360d01b606482015260840161079b565b61109181613faf565b606081601b43821015612c4a5760405162461bcd60e51b815260040161079b9190615163565b50612c576002600161316c565b7f00000000000000000000000000000000000000000000000000000000000000006001600160a01b031686866000818110612c9457612c94615237565b9050602002016020810190612ca99190614dfb565b6001600160a01b031614601690612cd35760405162461bcd60e51b815260040161079b9190615163565b506006546040805160208089028281018201909352888252612d1e936001600160a01b0316928b92918b918b918291908501908490808284376000920191909152506139e192505050565b91503482600081518110612d3457612d34615237565b60200260200101511115601a90612d5e5760405162461bcd60e51b815260040161079b9190615163565b507f00000000000000000000000000000000000000000000000000000000000000006001600160a01b031663d0e30db083600081518110612da157612da1615237565b60200260200101516040518263ffffffff1660e01b81526004016000604051808303818588803b158015612dd457600080fd5b505af1158015612de8573d6000803e3d6000fd5b5050505050600082600081518110612e0257612e02615237565b602002602001015190507f00000000000000000000000000000000000000000000000000000000000000006001600160a01b031663a9059cbb600b60008a8a6000818110612e5257612e52615237565b9050602002016020810190612e679190614dfb565b6001600160a01b03166001600160a01b0316815260200190815260200160002060008a8a6001818110612e9c57612e9c615237565b9050602002016020810190612eb19190614dfb565b6001600160a01b03908116825260208201929092526040016000908120548751921691879190612ee357612ee3615237565b60200260200101516040518363ffffffff1660e01b8152600401612f1c9291906001600160a01b03929092168252602082015260400190565b6020604051808303816000875af1158015612f3b573d6000803e3d6000fd5b505050506040513d601f19601f82011682018060405250810190612f5f91906152a5565b612f6b57612f6b614b55565b612faa83888880806020026020016040519081016040528093929190818152602001838360200280828437600092019190915250309250613569915050565b6000612fb7600188615220565b90506130008888612fc9600182615220565b818110612fd857612fd8615237565b9050602002016020810190612fed9190614dfb565b30868481518110610e7157610e71615237565b84828151811061301257613012615237565b602002602001018181516130269190615220565b90525061306788888381811061303e5761303e615237565b90506020020160208101906130539190614dfb565b30888785815181106109e3576109e3615237565b81341115613082576130823361307d8434615220565b6138b4565b61308a61397d565b50505095945050505050565b60008084116130f35760405162461bcd60e51b815260206004820152602360248201527f584c6962726172793a20494e53554646494349454e545f494e5055545f414d4f60448201526215539560ea1b606482015260840161079b565b6000831180156131035750600082115b61311f5760405162461bcd60e51b815260040161079b906153e7565b600061312d856126ff6144cb565b9050600061313b82856144cb565b905060006131558361314f886127106144cb565b9061454d565b9050613161818361541c565b979650505050505050565b601354604051634be5482760e01b81526001600160a01b0390911690634be548279061319e908590859060040161543e565b6080604051808303816000875af11580156131bd573d6000803e3d6000fd5b505050506040513d601f19601f820116820180604052508101906131e1919061545b565b8051600f8054909190829060ff1916600183600581111561320457613204615114565b021790555060208201516001820155604082015160028201556060909101516003909101805460ff19169115159190911790555050565b60125460009060ff1680156132505750600083115b1561076d576002546001600160a01b03908116908616036132d257600f546132cb9085908590600d9060009060ff16600581111561329057613290615114565b60058111156132a1576132a1615114565b8152602080820192909252604090810160002081519283019091525463ffffffff168152856145ac565b905061076d565b600f5461248190869086908690600d9060009060ff1660058111156132f9576132f9615114565b600581111561330a5761330a615114565b8152602080820192909252604090810160002081518084018352905463ffffffff1681528151928301909152600c546001600160a01b03908116835260025491929116614639565b606060028251101561339f5760405162461bcd60e51b81526020600482015260166024820152750b098d2c4e4c2e4f27440929cac82989288bea082a8960531b604482015260640161079b565b81516001600160401b038111156133b8576133b8614cd0565b6040519080825280602002602001820160405280156133e1578160200160208202803683370190505b50905082816000815181106133f8576133f8615237565b60200260200101818152505060005b600183516134159190615220565b8110156134cd576000806134688786858151811061343557613435615237565b60200260200101518786600161344b91906154cd565b8151811061345b5761345b615237565b60200260200101516146a0565b9150915061349084848151811061348157613481615237565b60200260200101518383613096565b8461349c8560016154cd565b815181106134ac576134ac615237565b602002602001018181525050505080806134c5906154e5565b915050613407565b509392505050565b806001600160a01b0316856001600160a01b03160361355d5760405163cd537aa160e01b81526001600160a01b03858116600483015284811660248301526044820184905286169063cd537aa190606401600060405180830381600087803b15801561354057600080fd5b505af1158015613554573d6000803e3d6000fd5b50505050611060565b6110608585858561477c565b60005b6001835161357a9190615220565b8110156138ae5760008084838151811061359657613596615237565b6020026020010151858460016135ac91906154cd565b815181106135bc576135bc615237565b6020908102919091010151600354604051633971316160e01b815292945090925060009182916001600160a01b03169063397131619061360590600f90889088906004016154fe565b610100604051808303816000875af1158015613625573d6000803e3d6000fd5b505050506040513d601f19601f820116820180604052508101906136499190615564565b6001600160a01b038087166000908152600b60209081526040808320898516845290915290205492945090925061368091166148ac565b6001600160a01b038085166000908152600b602090815260408083208785168452909152812054909116906136b58686614927565b50905060008a6136c68960016154cd565b815181106136d6576136d6615237565b60200260200101519050600080836001600160a01b0316896001600160a01b03161461370457826000613708565b6000835b91509150600060028d5161371c9190615220565b8b10613728578b613786565b6001600160a01b0389166000908152600b60205260408120908e61374d8e60026154cd565b8151811061375d5761375d615237565b6020908102919091018101516001600160a01b0390811683529082019290925260400160002054165b6040805160008152602081019182905263022c0d9f60e01b9091529091506001600160a01b0387169063022c0d9f906137c8908690869086906024810161566a565b600060405180830381600087803b1580156137e257600080fd5b505af11580156137f6573d6000803e3d6000fd5b50505050613814600e546001600160a01b0363010000009091041690565b6001600160a01b0316336001600160a01b031614613891576003546040516326e0bebf60e21b81526001600160a01b0390911690639b82fafc9061385e908a908c90600401615697565b600060405180830381600087803b15801561387857600080fd5b505af115801561388c573d6000803e3d6000fd5b505050505b5050505050505050505080806138a6906154e5565b91505061356c565b50505050565b604080516000808252602082019092526001600160a01b0384169083906040516138de9190615703565b60006040518083038185875af1925050503d806000811461391b576040519150601f19603f3d011682016040523d82523d6000602084013e613920565b606091505b5050905080611e0e5760405162461bcd60e51b815260206004820152602360248201527f5472616e7366657248656c7065723a204554485f5452414e534645525f46414960448201526213115160ea1b606482015260840161079b565b601360009054906101000a90046001600160a01b03166001600160a01b031663431b3c306040518163ffffffff1660e01b8152600401600060405180830381600087803b1580156139cd57600080fd5b505af11580156138ae573d6000803e3d6000fd5b6060600282511015613a2e5760405162461bcd60e51b81526020600482015260166024820152750b098d2c4e4c2e4f27440929cac82989288bea082a8960531b604482015260640161079b565b81516001600160401b03811115613a4757613a47614cd0565b604051908082528060200260200182016040528015613a70578160200160208202803683370190505b509050828160018351613a839190615220565b81518110613a9357613a93615237565b602002602001018181525050600060018351613aaf9190615220565b90505b80156134cd57600080613af58786613acb600187615220565b81518110613adb57613adb615237565b602002602001015187868151811061345b5761345b615237565b91509150613b1d848481518110613b0e57613b0e615237565b6020026020010151838361400d565b84613b29600186615220565b81518110613b3957613b39615237565b60200260200101818152505050508080613b529061571f565b915050613ab2565b60005b60018351613b6b9190615220565b811015611e0e57600080848381518110613b8757613b87615237565b602002602001015185846001613b9d91906154cd565b81518110613bad57613bad615237565b6020908102919091010151600354604051633971316160e01b815292945090925060009182916001600160a01b031690633971316190613bf690600f90889088906004016154fe565b610100604051808303816000875af1158015613c16573d6000803e3d6000fd5b505050506040513d601f19601f82011682018060405250810190613c3a9190615564565b6001600160a01b038087166000908152600b602090815260408083208985168452909152902054929450909250613c7191166148ac565b6000613c7d8585614927565b506001600160a01b038087166000908152600b602090815260408083208985168452909152808220548151630240bc6b60e21b815291519495509092169290918291829182918691630902f1ac9160048083019260609291908290030181865afa158015613cef573d6000803e3d6000fd5b505050506040513d601f19601f82011682018060405250810190613d13919061574d565b506001600160701b031691506001600160701b03169150600080876001600160a01b03168c6001600160a01b031614613d4d578284613d50565b83835b6040516370a0823160e01b81526001600160a01b038a81166004830152929450909250613dcd918491908f16906370a0823190602401602060405180830381865afa158015613da3573d6000803e3d6000fd5b505050506040513d601f19601f82011682018060405250810190613dc79190615277565b90614a09565b9550613dda868383613096565b945050505050600080856001600160a01b03168a6001600160a01b031614613e0457826000613e08565b6000835b91509150600060028e51613e1c9190615220565b8c10613e28578c613e86565b6001600160a01b038a166000908152600b60205260408120908f613e4d8f60026154cd565b81518110613e5d57613e5d615237565b6020908102919091018101516001600160a01b0390811683529082019290925260400160002054165b6040805160008152602081019182905263022c0d9f60e01b9091529091506001600160a01b0387169063022c0d9f90613ec8908690869086906024810161566a565b600060405180830381600087803b158015613ee257600080fd5b505af1158015613ef6573d6000803e3d6000fd5b50505050613f14600e546001600160a01b0363010000009091041690565b6001600160a01b0316336001600160a01b031614613f91576003546040516326e0bebf60e21b81526001600160a01b0390911690639b82fafc90613f5e908b908d90600401615697565b600060405180830381600087803b158015613f7857600080fd5b505af1158015613f8c573d6000803e3d6000fd5b505050505b50505050505050505050508080613fa7906154e5565b915050613b5d565b600e80546001600160a01b0383811663010000008181026301000000600160b81b031985161790945560405193909204169182907f8be0079c531659141344cd1fd0a4f28419497f9722a3daafe3b4186f6b6457e090600090a35050565b600080841161406a5760405162461bcd60e51b8152602060048201526024808201527f584c6962726172793a20494e53554646494349454e545f4f55545055545f414d60448201526313d5539560e21b606482015260840161079b565b60008311801561407a5750600082115b6140965760405162461bcd60e51b815260040161079b906153e7565b60006140ae6127106140a886886144cb565b906144cb565b905060006140c26126ff6140a88689614a09565b90506140d3600161314f838561541c565b9695505050505050565b60005461010090046001600160a01b03163314806140fa57503330145b806141285750600e54630100000090046001600160a01b03166001600160a01b0316336001600160a01b0316145b6141445760405162461bcd60e51b815260040161079b9061524d565b6001600160a01b038116301461420f5760405163085b199160e11b815273__$88bebae22a3ad6e62b56c303176513ecf8$__906310b63322906141909086908690600290600401615799565b60006040518083038186803b1580156141a857600080fd5b505af41580156141bc573d6000803e3d6000fd5b506000925050506001600160a01b038216156141d857816141da565b305b6001546040516349443ceb60e11b81529192506001600160a01b03169063928879d690611da6908790879086906004016157c1565b7fb45c42dda0a5ab1d1078e0afeda2976363eff9496a93644e726862f1f06186b88383604051611e059291906157f1565b60008084116142915760405162461bcd60e51b815260206004820152601d60248201527f584c6962726172793a20494e53554646494349454e545f414d4f554e54000000604482015260640161079b565b6000831180156142a15750600082115b6142bd5760405162461bcd60e51b815260040161079b906153e7565b826142c885846144cb565b61076d919061541c565b60005b600183516142e39190615220565b8110156138ae576000808483815181106142ff576142ff615237565b60200260200101518584600161431591906154cd565b8151811061432557614325615237565b6020908102919091018101516001600160a01b038084166000908152600b84526040808220838516835290945292832054939550909350919091169061436b8484614927565b50905060008861437c8760016154cd565b8151811061438c5761438c615237565b60200260200101519050600080836001600160a01b0316876001600160a01b0316146143ba578260006143be565b6000835b91509150600060028b516143d29190615220565b89106143de578961443c565b6001600160a01b0387166000908152600b60205260408120908c6144038c60026154cd565b8151811061441357614413615237565b6020908102919091018101516001600160a01b0390811683529082019290925260400160002054165b6040805160008152602081019182905263022c0d9f60e01b9091529091506001600160a01b0387169063022c0d9f9061447e908690869086906024810161566a565b600060405180830381600087803b15801561449857600080fd5b505af11580156144ac573d6000803e3d6000fd5b50505050505050505050505080806144c3906154e5565b9150506142d5565b6000826000036144dd57506000610b44565b60006144e98385615817565b9050826144f6858361541c565b14610b415760405162461bcd60e51b815260206004820152602160248201527f536166654d6174683a206d756c7469706c69636174696f6e206f766572666c6f6044820152607760f81b606482015260840161079b565b60008061455a83856154cd565b905083811015610b415760405162461bcd60e51b815260206004820152601b60248201527f536166654d6174683a206164646974696f6e206f766572666c6f770000000000604482015260640161079b565b60145460405163347d9e3960e11b81526001600160a01b03868116600483015260248201869052845163ffffffff166044830152831515606483015260009216906368fb3c72906084016020604051808303816000875af1158015614615573d6000803e3d6000fd5b505050506040513d601f19601f820116820180604052508101906124819190615277565b6000808515610b1c57845163ffffffff1615610b1c5761465b6005600a61591a565b855161466d9063ffffffff1688615817565b614677919061541c565b905061468a8888866000015184876134d5565b61469481836154cd565b98975050505050505050565b60008060006146af8585614927565b5090506000806146c0888888614a4b565b6001600160a01b0316630902f1ac6040518163ffffffff1660e01b8152600401606060405180830381865afa1580156146fd573d6000803e3d6000fd5b505050506040513d601f19601f82011682018060405250810190614721919061574d565b5091509150826001600160a01b0316876001600160a01b03161461475857806001600160701b0316826001600160701b031661476d565b816001600160701b0316816001600160701b03165b90999098509650505050505050565b604080516001600160a01b0385811660248301528481166044830152606480830185905283518084039091018152608490920183526020820180516001600160e01b03166323b872dd60e01b17905291516000928392908816916147e09190615703565b6000604051808303816000865af19150503d806000811461481d576040519150601f19603f3d011682016040523d82523d6000602084013e614822565b606091505b509150915081801561484c57508051158061484c57508080602001905181019061484c91906152a5565b6148a45760405162461bcd60e51b8152602060048201526024808201527f5472616e7366657248656c7065723a205452414e534645525f46524f4d5f46416044820152631253115160e21b606482015260840161079b565b505050505050565b60026001600160a01b0382166000908152600a6020526040902060010154600160a01b900460ff1660038111156148e5576148e5615114565b146110915760405162461bcd60e51b81526020600482015260126024820152711614185a5c881b9bdd08195b9b1a5cdd195960721b604482015260640161079b565b600080826001600160a01b0316846001600160a01b03160361498b5760405162461bcd60e51b815260206004820152601d60248201527f584c6962726172793a204944454e544943414c5f414444524553534553000000604482015260640161079b565b826001600160a01b0316846001600160a01b0316106149ab5782846149ae565b83835b90925090506001600160a01b038216614a025760405162461bcd60e51b8152602060048201526016602482015275584c6962726172793a205a45524f5f4144445245535360501b604482015260640161079b565b9250929050565b6000610b4183836040518060400160405280601e81526020017f536166654d6174683a207375627472616374696f6e206f766572666c6f770000815250614b24565b6000806000614a5a8585614927565b6040516bffffffffffffffffffffffff19606084811b8216602084015283901b1660348201529193509150869060480160405160208183030381529060405280519060200120604051602001614b029291906001600160f81b0319815260609290921b6bffffffffffffffffffffffff1916600183015260158201527f83f7a38f3a7b7a879a0539343d4cbd6011a05fc183159988fd73a5a4712f74b2603582015260550190565b60408051601f1981840301815291905280516020909101209695505050505050565b60008184841115614b485760405162461bcd60e51b815260040161079b9190615926565b5060006124818486615220565b634e487b7160e01b600052600160045260246000fd5b600080600060608486031215614b8057600080fd5b505081359360208301359350604090920135919050565b6006811061109157600080fd5b600060208284031215614bb657600080fd5b8135610b4181614b97565b60008083601f840112614bd357600080fd5b5081356001600160401b03811115614bea57600080fd5b6020830191508360208260051b8501011115614a0257600080fd5b6001600160a01b038116811461109157600080fd5b60008060008060008060a08789031215614c3357600080fd5b863595506020870135945060408701356001600160401b03811115614c5757600080fd5b614c6389828a01614bc1565b9095509350506060870135614c7781614c05565b80925050608087013590509295509295509295565b6020808252825182820181905260009190848201906040850190845b81811015614cc457835183529284019291840191600101614ca8565b50909695505050505050565b634e487b7160e01b600052604160045260246000fd5b60405160e081016001600160401b0381118282101715614d0857614d08614cd0565b60405290565b604051601f8201601f191681016001600160401b0381118282101715614d3657614d36614cd0565b604052919050565b60008060408385031215614d5157600080fd5b823591506020808401356001600160401b0380821115614d7057600080fd5b818601915086601f830112614d8457600080fd5b813581811115614d9657614d96614cd0565b8060051b9150614da7848301614d0e565b8181529183018401918481019089841115614dc157600080fd5b938501935b83851015614deb5784359250614ddb83614c05565b8282529385019390850190614dc6565b8096505050505050509250929050565b600060208284031215614e0d57600080fd5b8135610b4181614c05565b600080600080600060808688031215614e3057600080fd5b8535945060208601356001600160401b03811115614e4d57600080fd5b614e5988828901614bc1565b9095509350506040860135614e6d81614c05565b949793965091946060013592915050565b60008060408385031215614e9157600080fd5b8235614e9c81614c05565b91506020830135614eac81614c05565b809150509250929050565b63ffffffff8116811461109157600080fd5b60008060008385036060811215614edf57600080fd5b8435614eea81614b97565b93506020601f1982011215614efe57600080fd5b50604051602081018181106001600160401b0382111715614f2157614f21614cd0565b6040526020850135614f3281614eb7565b815291506040840135614f4481614c05565b809150509250925092565b600080600060608486031215614f6457600080fd5b833560058110614f7357600080fd5b92506020840135614f8381614c05565b91506040840135614f4481614c05565b600080600080600060808688031215614fab57600080fd5b853594506020860135935060408601356001600160401b03811115614fcf57600080fd5b614fdb88828901614bc1565b9094509250506060860135614fef81614c05565b809150509295509295909350565b600080600080600060a0868803121561501557600080fd5b853561502081614c05565b9450602086013561503081614c05565b9350604086013561504081614c05565b925060608601356004811061505457600080fd5b91506080860135614fef81614c05565b600080828403604081121561507857600080fd5b602081121561508657600080fd5b50604051602081018181106001600160401b03821117156150a9576150a9614cd0565b60405283356150b781614c05565b815291506020830135614eac81614c05565b6000806000604084860312156150de57600080fd5b8335925060208401356001600160401b038111156150fb57600080fd5b61510786828701614bc1565b9497909650939450505050565b634e487b7160e01b600052602160045260246000fd5b6004811061513a5761513a615114565b9052565b6001600160a01b038481168252831660208201526060810161076d604083018461512a565b600060208083526000845481600182811c91508083168061518557607f831692505b85831081036151a257634e487b7160e01b85526022600452602485fd5b8786018381526020018180156151bf57600181146151d0576151fb565b60ff198616825287820196506151fb565b60008b81526020902060005b868110156151f5578154848201529085019089016151dc565b83019750505b50949998505050505050505050565b634e487b7160e01b600052601160045260246000fd5b6000828210156152325761523261520a565b500390565b634e487b7160e01b600052603260045260246000fd5b60208082526010908201526f496e76616c69642063616c6c6572203160801b604082015260600190565b60006020828403121561528957600080fd5b5051919050565b805180151581146152a057600080fd5b919050565b6000602082840312156152b757600080fd5b610b4182615290565b6006811061513a5761513a615114565b606081016152de82866152c0565b83602083015263ffffffff8351166040830152949350505050565b6060810161530782866152c0565b925163ffffffff1660208201526001600160a01b0391909116604090910152919050565b6040810161533982856152c0565b63ffffffff83511660208301529392505050565b6001600160a01b03948516815292841660208401529083166040830152909116606082015260800190565b6001600160a01b0386811682528581166020830152848116604083015260a08201906153a7606084018661512a565b8084166080840152509695505050505050565b6001600160a01b03858116825284811660208301528316604082015260808101612481606083018461512a565b6020808252818101527f584c6962726172793a20494e53554646494349454e545f4c4951554944495459604082015260600190565b60008261543957634e487b7160e01b600052601260045260246000fd5b500490565b6040810161544c82856152c0565b82151560208301529392505050565b60006080828403121561546d57600080fd5b604051608081018181106001600160401b038211171561548f5761548f614cd0565b604052825161549d81614b97565b8082525060208301516020820152604083015160408201526154c160608401615290565b60608201529392505050565b600082198211156154e0576154e061520a565b500190565b6000600182016154f7576154f761520a565b5060010190565b600060c0820190506155148260ff8754166152c0565b600185015460208301526002850154604083015260039094015460ff16151560608201526001600160a01b039283166080820152911660a09091015290565b805160ff811681146152a057600080fd5b60008082840361010081121561557957600080fd5b60e081121561558757600080fd5b50615590614ce6565b835161559b81614c05565b815260208401516155ab81614c05565b602082015260408401516155be81614c05565b8060408301525060608401516060820152608084015160808201526155e560a08501615553565b60a08201526155f660c08501615553565b60c0820152915061560960e08401615290565b90509250929050565b60005b8381101561562d578181015183820152602001615615565b838111156138ae5750506000910152565b60008151808452615656816020860160208601615612565b601f01601f19169290920160200192915050565b84815283602082015260018060a01b03831660408201526080606082015260006140d3608083018461563e565b600061010082019050831515825260018060a01b038084511660208401528060208501511660408401528060408501511660608401525060608301516080830152608083015160a083015260ff60a08401511660c083015260ff60c08401511660e08301529392505050565b60008251615715818460208701615612565b9190910192915050565b60008161572e5761572e61520a565b506000190190565b80516001600160701b03811681146152a057600080fd5b60008060006060848603121561576257600080fd5b61576b84615736565b925061577960208501615736565b91506040840151614f4481614eb7565b6005811061513a5761513a615114565b606081016157a78286615789565b6001600160a01b0393909316602082015260400152919050565b606081016157cf8286615789565b6001600160a01b03938416602083015291909216604090920191909152919050565b604081016157ff8285615789565b6001600160a01b039290921660209190910152919050565b60008160001904831182151516156158315761583161520a565b500290565b600181815b808511156158715781600019048211156158575761585761520a565b8085161561586457918102915b93841c939080029061583b565b509250929050565b60008261588857506001610b44565b8161589557506000610b44565b81600181146158ab57600281146158b5576158d1565b6001915050610b44565b60ff8411156158c6576158c661520a565b50506001821b610b44565b5060208310610133831016604e8410600b84101617156158f4575081810a610b44565b6158fe8383615836565b80600019048211156159125761591261520a565b029392505050565b6000610b418383615879565b602081526000610b41602083018461563e56fea2646970667358221220f17ff4588bb659c068794ef171d6b2bae90ff02a6a98fd121e04d196f936efe964736f6c634300080e00335854616b65723a20496e73756666696369656e74206f757470757420616d6f756e74",
  "linkReferences": {
    "contracts/libraries/WireLibrary.sol": {
      "WireLibrary": [
        {
          "length": 20,
          "start": 8485
        },
        {
          "length": 20,
          "start": 10842
        },
        {
          "length": 20,
          "start": 11024
        },
        {
          "length": 20,
          "start": 11211
        },
        {
          "length": 20,
          "start": 11774
        },
        {
          "length": 20,
          "start": 17806
        }
      ]
    }
  },
  "deployedLinkReferences": {
    "contracts/libraries/WireLibrary.sol": {
      "WireLibrary": [
        {
          "length": 20,
          "start": 7418
        },
        {
          "length": 20,
          "start": 9775
        },
        {
          "length": 20,
          "start": 9957
        },
        {
          "length": 20,
          "start": 10144
        },
        {
          "length": 20,
          "start": 10707
        },
        {
          "length": 20,
          "start": 16739
        }
      ]
    }
  }
}