{
  "_format": "hh-sol-artifact-1",
  "contractName": "XdaoAgency",
  "sourceName": "contracts/farm/XdaoAgency.sol",
  "abi": [
    {
      "anonymous": false,
      "inputs": [
        {
          "indexed": false,
          "internalType": "address",
          "name": "previousAdmin",
          "type": "address"
        },
        {
          "indexed": false,
          "internalType": "address",
          "name": "newAdmin",
          "type": "address"
        }
      ],
      "name": "AdminChanged",
      "type": "event"
    },
    {
      "anonymous": false,
      "inputs": [
        {
          "indexed": true,
          "internalType": "address",
          "name": "beacon",
          "type": "address"
        }
      ],
      "name": "BeaconUpgraded",
      "type": "event"
    },
    {
      "anonymous": false,
      "inputs": [
        {
          "indexed": false,
          "internalType": "uint256",
          "name": "taskId",
          "type": "uint256"
        },
        {
          "indexed": true,
          "internalType": "address",
          "name": "carrer",
          "type": "address"
        }
      ],
      "name": "BidAccepted",
      "type": "event"
    },
    {
      "anonymous": false,
      "inputs": [
        {
          "indexed": false,
          "internalType": "uint256",
          "name": "taskId",
          "type": "uint256"
        },
        {
          "indexed": true,
          "internalType": "address",
          "name": "carrer",
          "type": "address"
        }
      ],
      "name": "BidPlaced",
      "type": "event"
    },
    {
      "anonymous": false,
      "inputs": [
        {
          "indexed": false,
          "internalType": "uint8",
          "name": "version",
          "type": "uint8"
        }
      ],
      "name": "Initialized",
      "type": "event"
    },
    {
      "anonymous": false,
      "inputs": [
        {
          "indexed": true,
          "internalType": "address",
          "name": "agent",
          "type": "address"
        },
        {
          "indexed": false,
          "internalType": "uint256",
          "name": "level",
          "type": "uint256"
        }
      ],
      "name": "LevelUpdate",
      "type": "event"
    },
    {
      "anonymous": false,
      "inputs": [
        {
          "indexed": true,
          "internalType": "address",
          "name": "agent",
          "type": "address"
        }
      ],
      "name": "NewAgent",
      "type": "event"
    },
    {
      "anonymous": false,
      "inputs": [
        {
          "indexed": true,
          "internalType": "address",
          "name": "previousOwner",
          "type": "address"
        },
        {
          "indexed": true,
          "internalType": "address",
          "name": "newOwner",
          "type": "address"
        }
      ],
      "name": "OwnershipTransferred",
      "type": "event"
    },
    {
      "anonymous": false,
      "inputs": [
        {
          "indexed": true,
          "internalType": "address",
          "name": "agent",
          "type": "address"
        }
      ],
      "name": "Slashed",
      "type": "event"
    },
    {
      "anonymous": false,
      "inputs": [
        {
          "indexed": true,
          "internalType": "address",
          "name": "agent",
          "type": "address"
        },
        {
          "indexed": false,
          "internalType": "uint256",
          "name": "amount",
          "type": "uint256"
        }
      ],
      "name": "Stake",
      "type": "event"
    },
    {
      "anonymous": false,
      "inputs": [
        {
          "indexed": false,
          "internalType": "uint256",
          "name": "id",
          "type": "uint256"
        },
        {
          "indexed": false,
          "internalType": "address",
          "name": "doer",
          "type": "address"
        }
      ],
      "name": "TaskAssigned",
      "type": "event"
    },
    {
      "anonymous": false,
      "inputs": [
        {
          "indexed": false,
          "internalType": "uint256",
          "name": "id",
          "type": "uint256"
        },
        {
          "indexed": false,
          "internalType": "string",
          "name": "name",
          "type": "string"
        },
        {
          "indexed": false,
          "internalType": "uint256",
          "name": "reward",
          "type": "uint256"
        },
        {
          "indexed": false,
          "internalType": "uint256",
          "name": "status",
          "type": "uint256"
        },
        {
          "indexed": false,
          "internalType": "uint256",
          "name": "minLevel",
          "type": "uint256"
        },
        {
          "indexed": false,
          "internalType": "address",
          "name": "creator",
          "type": "address"
        }
      ],
      "name": "TaskCreated",
      "type": "event"
    },
    {
      "anonymous": false,
      "inputs": [
        {
          "indexed": true,
          "internalType": "address",
          "name": "agent",
          "type": "address"
        },
        {
          "indexed": false,
          "internalType": "uint256",
          "name": "taskId",
          "type": "uint256"
        }
      ],
      "name": "TaskCreated",
      "type": "event"
    },
    {
      "anonymous": false,
      "inputs": [
        {
          "indexed": false,
          "internalType": "uint256",
          "name": "id",
          "type": "uint256"
        }
      ],
      "name": "TaskPosted",
      "type": "event"
    },
    {
      "anonymous": false,
      "inputs": [
        {
          "indexed": false,
          "internalType": "uint256",
          "name": "taskId",
          "type": "uint256"
        }
      ],
      "name": "TaskValidated",
      "type": "event"
    },
    {
      "anonymous": false,
      "inputs": [
        {
          "indexed": false,
          "internalType": "uint256",
          "name": "id",
          "type": "uint256"
        }
      ],
      "name": "TaskVerified",
      "type": "event"
    },
    {
      "anonymous": false,
      "inputs": [
        {
          "indexed": true,
          "internalType": "address",
          "name": "agent",
          "type": "address"
        },
        {
          "indexed": false,
          "internalType": "uint256",
          "name": "taskId",
          "type": "uint256"
        }
      ],
      "name": "TgrBonus",
      "type": "event"
    },
    {
      "anonymous": false,
      "inputs": [
        {
          "indexed": true,
          "internalType": "address",
          "name": "agent",
          "type": "address"
        },
        {
          "indexed": false,
          "internalType": "uint256",
          "name": "amount",
          "type": "uint256"
        }
      ],
      "name": "UnStake",
      "type": "event"
    },
    {
      "anonymous": false,
      "inputs": [
        {
          "indexed": true,
          "internalType": "address",
          "name": "implementation",
          "type": "address"
        }
      ],
      "name": "Upgraded",
      "type": "event"
    },
    {
      "inputs": [
        {
          "internalType": "address",
          "name": "",
          "type": "address"
        }
      ],
      "name": "agentInfo",
      "outputs": [
        {
          "internalType": "address",
          "name": "account",
          "type": "address"
        },
        {
          "internalType": "uint256",
          "name": "level",
          "type": "uint256"
        },
        {
          "internalType": "uint256",
          "name": "stakedAmount",
          "type": "uint256"
        }
      ],
      "stateMutability": "view",
      "type": "function"
    },
    {
      "inputs": [
        {
          "internalType": "address",
          "name": "",
          "type": "address"
        },
        {
          "internalType": "uint256",
          "name": "",
          "type": "uint256"
        }
      ],
      "name": "agentVerifiedTask",
      "outputs": [
        {
          "internalType": "bool",
          "name": "",
          "type": "bool"
        }
      ],
      "stateMutability": "view",
      "type": "function"
    },
    {
      "inputs": [
        {
          "internalType": "uint256",
          "name": "_id",
          "type": "uint256"
        },
        {
          "internalType": "uint256[]",
          "name": "_bidders",
          "type": "uint256[]"
        }
      ],
      "name": "assignTask",
      "outputs": [],
      "stateMutability": "nonpayable",
      "type": "function"
    },
    {
      "inputs": [
        {
          "internalType": "uint256",
          "name": "",
          "type": "uint256"
        },
        {
          "internalType": "address",
          "name": "",
          "type": "address"
        }
      ],
      "name": "bidden",
      "outputs": [
        {
          "internalType": "bool",
          "name": "",
          "type": "bool"
        }
      ],
      "stateMutability": "view",
      "type": "function"
    },
    {
      "inputs": [
        {
          "internalType": "uint256",
          "name": "",
          "type": "uint256"
        },
        {
          "internalType": "uint256",
          "name": "",
          "type": "uint256"
        }
      ],
      "name": "bidders",
      "outputs": [
        {
          "internalType": "address",
          "name": "",
          "type": "address"
        }
      ],
      "stateMutability": "view",
      "type": "function"
    },
    {
      "inputs": [
        {
          "internalType": "uint256",
          "name": "_id",
          "type": "uint256"
        }
      ],
      "name": "compeletTask",
      "outputs": [],
      "stateMutability": "nonpayable",
      "type": "function"
    },
    {
      "inputs": [
        {
          "internalType": "uint256",
          "name": "_id",
          "type": "uint256"
        }
      ],
      "name": "completeTask",
      "outputs": [],
      "stateMutability": "nonpayable",
      "type": "function"
    },
    {
      "inputs": [
        {
          "internalType": "uint256",
          "name": "",
          "type": "uint256"
        },
        {
          "internalType": "uint256",
          "name": "",
          "type": "uint256"
        }
      ],
      "name": "doers",
      "outputs": [
        {
          "internalType": "address",
          "name": "",
          "type": "address"
        }
      ],
      "stateMutability": "view",
      "type": "function"
    },
    {
      "inputs": [
        {
          "internalType": "uint256",
          "name": "taskId",
          "type": "uint256"
        }
      ],
      "name": "enterEscrow",
      "outputs": [],
      "stateMutability": "nonpayable",
      "type": "function"
    },
    {
      "inputs": [
        {
          "internalType": "address",
          "name": "agent",
          "type": "address"
        }
      ],
      "name": "getAvaliabeTasks",
      "outputs": [],
      "stateMutability": "view",
      "type": "function"
    },
    {
      "inputs": [
        {
          "internalType": "contract IERC20",
          "name": "_tgr",
          "type": "address"
        }
      ],
      "name": "initialize",
      "outputs": [],
      "stateMutability": "nonpayable",
      "type": "function"
    },
    {
      "inputs": [
        {
          "internalType": "address",
          "name": "",
          "type": "address"
        }
      ],
      "name": "isAgent",
      "outputs": [
        {
          "internalType": "bool",
          "name": "",
          "type": "bool"
        }
      ],
      "stateMutability": "view",
      "type": "function"
    },
    {
      "inputs": [],
      "name": "owner",
      "outputs": [
        {
          "internalType": "address",
          "name": "",
          "type": "address"
        }
      ],
      "stateMutability": "view",
      "type": "function"
    },
    {
      "inputs": [
        {
          "internalType": "uint256",
          "name": "_id",
          "type": "uint256"
        }
      ],
      "name": "placeBid",
      "outputs": [],
      "stateMutability": "nonpayable",
      "type": "function"
    },
    {
      "inputs": [
        {
          "internalType": "uint256",
          "name": "_id",
          "type": "uint256"
        }
      ],
      "name": "postTask",
      "outputs": [],
      "stateMutability": "nonpayable",
      "type": "function"
    },
    {
      "inputs": [],
      "name": "proxiableUUID",
      "outputs": [
        {
          "internalType": "bytes32",
          "name": "",
          "type": "bytes32"
        }
      ],
      "stateMutability": "view",
      "type": "function"
    },
    {
      "inputs": [],
      "name": "renounceOwnership",
      "outputs": [],
      "stateMutability": "nonpayable",
      "type": "function"
    },
    {
      "inputs": [
        {
          "internalType": "uint256",
          "name": "_num",
          "type": "uint256"
        }
      ],
      "name": "setNumVerificationsNeeded",
      "outputs": [],
      "stateMutability": "nonpayable",
      "type": "function"
    },
    {
      "inputs": [
        {
          "internalType": "uint256",
          "name": "amount",
          "type": "uint256"
        }
      ],
      "name": "stake",
      "outputs": [],
      "stateMutability": "nonpayable",
      "type": "function"
    },
    {
      "inputs": [
        {
          "components": [
            {
              "internalType": "string",
              "name": "name",
              "type": "string"
            },
            {
              "internalType": "string",
              "name": "summary",
              "type": "string"
            },
            {
              "internalType": "uint256",
              "name": "reward",
              "type": "uint256"
            },
            {
              "internalType": "uint256",
              "name": "bonus",
              "type": "uint256"
            },
            {
              "internalType": "uint8",
              "name": "minLevel",
              "type": "uint8"
            },
            {
              "internalType": "uint8",
              "name": "maxCompletions",
              "type": "uint8"
            },
            {
              "internalType": "enum JobBidType",
              "name": "jobType",
              "type": "uint8"
            },
            {
              "internalType": "enum TaskStatus",
              "name": "status",
              "type": "uint8"
            },
            {
              "internalType": "uint8[]",
              "name": "skillSet",
              "type": "uint8[]"
            },
            {
              "internalType": "address",
              "name": "owner",
              "type": "address"
            },
            {
              "internalType": "uint256",
              "name": "dueTime",
              "type": "uint256"
            },
            {
              "internalType": "uint256",
              "name": "verifiedTime",
              "type": "uint256"
            }
          ],
          "internalType": "struct TaskDetails",
          "name": "_task",
          "type": "tuple"
        }
      ],
      "name": "submitTask",
      "outputs": [
        {
          "internalType": "uint256",
          "name": "taskId",
          "type": "uint256"
        }
      ],
      "stateMutability": "nonpayable",
      "type": "function"
    },
    {
      "inputs": [
        {
          "internalType": "uint256",
          "name": "",
          "type": "uint256"
        }
      ],
      "name": "taskVerifiersCount",
      "outputs": [
        {
          "internalType": "uint256",
          "name": "",
          "type": "uint256"
        }
      ],
      "stateMutability": "view",
      "type": "function"
    },
    {
      "inputs": [
        {
          "internalType": "uint256",
          "name": "",
          "type": "uint256"
        }
      ],
      "name": "tasks",
      "outputs": [
        {
          "internalType": "string",
          "name": "name",
          "type": "string"
        },
        {
          "internalType": "string",
          "name": "summary",
          "type": "string"
        },
        {
          "internalType": "uint256",
          "name": "reward",
          "type": "uint256"
        },
        {
          "internalType": "uint256",
          "name": "bonus",
          "type": "uint256"
        },
        {
          "internalType": "uint8",
          "name": "minLevel",
          "type": "uint8"
        },
        {
          "internalType": "uint8",
          "name": "maxCompletions",
          "type": "uint8"
        },
        {
          "internalType": "enum JobBidType",
          "name": "jobType",
          "type": "uint8"
        },
        {
          "internalType": "enum TaskStatus",
          "name": "status",
          "type": "uint8"
        },
        {
          "internalType": "address",
          "name": "owner",
          "type": "address"
        },
        {
          "internalType": "uint256",
          "name": "dueTime",
          "type": "uint256"
        },
        {
          "internalType": "uint256",
          "name": "verifiedTime",
          "type": "uint256"
        }
      ],
      "stateMutability": "view",
      "type": "function"
    },
    {
      "inputs": [],
      "name": "tgr",
      "outputs": [
        {
          "internalType": "contract IERC20",
          "name": "",
          "type": "address"
        }
      ],
      "stateMutability": "view",
      "type": "function"
    },
    {
      "inputs": [
        {
          "internalType": "address",
          "name": "newOwner",
          "type": "address"
        }
      ],
      "name": "transferOwnership",
      "outputs": [],
      "stateMutability": "nonpayable",
      "type": "function"
    },
    {
      "inputs": [
        {
          "internalType": "uint256",
          "name": "amount",
          "type": "uint256"
        }
      ],
      "name": "unStake",
      "outputs": [],
      "stateMutability": "nonpayable",
      "type": "function"
    },
    {
      "inputs": [
        {
          "internalType": "address",
          "name": "newImplementation",
          "type": "address"
        }
      ],
      "name": "upgradeTo",
      "outputs": [],
      "stateMutability": "nonpayable",
      "type": "function"
    },
    {
      "inputs": [
        {
          "internalType": "address",
          "name": "newImplementation",
          "type": "address"
        },
        {
          "internalType": "bytes",
          "name": "data",
          "type": "bytes"
        }
      ],
      "name": "upgradeToAndCall",
      "outputs": [],
      "stateMutability": "payable",
      "type": "function"
    },
    {
      "inputs": [
        {
          "internalType": "uint256",
          "name": "_taskId",
          "type": "uint256"
        }
      ],
      "name": "verifyTask",
      "outputs": [],
      "stateMutability": "nonpayable",
      "type": "function"
    }
  ],
  "bytecode": "0x60a06040523060601b6080526000600b908155600c5534801561002157600080fd5b5061002b33610030565b610080565b600080546001600160a01b038381166001600160a01b0319831681178455604051919092169283917f8be0079c531659141344cd1fd0a4f28419497f9722a3daafe3b4186f6b6457e09190a35050565b60805160601c61250e6100ba6000396000818161061d0152818161065d015281816106fa0152818161073a01526107cd015261250e6000f3fe6080604052600436106101b75760003560e01c8063715018a6116100ec578063a694fc3a1161008a578063dd3e62c211610064578063dd3e62c21461050c578063e1e2955814610547578063e2a9046714610562578063f2fde38b1461058257600080fd5b8063a694fc3a146101bc578063c4d66de8146104cc578063d1c11205146104ec57600080fd5b80639382cc17116100c65780639382cc171461046e5780639723f6ed1461048c5780639979ef45146104ac5780639ba410ac146101bc57600080fd5b8063715018a6146104045780638d977672146104195780638da5cb5b1461045057600080fd5b80635573e3ef116101595780635d3eea91116101335780635d3eea91146101bc578063618a7eee1461033157806362c885ee1461036c5780636f5e4d3d146103d757600080fd5b80635573e3ef146102d157806359d98f1e146102f157806359db11b41461031157600080fd5b806326413f681161019557806326413f681461025b5780633659cfe61461027b5780634f1ef2861461029b57806352d1902d146102ae57600080fd5b80630539f616146101bc5780631e1f0d1e146101de5780631ffbb0641461021b575b600080fd5b3480156101c857600080fd5b506101dc6101d7366004611f92565b6105a2565b005b3480156101ea57600080fd5b506101fe6101f9366004612078565b6105da565b6040516001600160a01b0390911681526020015b60405180910390f35b34801561022757600080fd5b5061024b610236366004611d9a565b60026020526000908152604090205460ff1681565b6040519015158152602001610212565b34801561026757600080fd5b506001546101fe906001600160a01b031681565b34801561028757600080fd5b506101dc610296366004611d9a565b610612565b6101dc6102a9366004611db6565b6106ef565b3480156102ba57600080fd5b506102c36107c0565b604051908152602001610212565b3480156102dd57600080fd5b506101dc6102ec366004611f92565b610873565b3480156102fd57600080fd5b506102c361030c366004611e5a565b610adb565b34801561031d57600080fd5b506101dc61032c366004611fd9565b610cdc565b34801561033d57600080fd5b5061024b61034c366004611faa565b600a60209081526000928352604080842090915290825290205460ff1681565b34801561037857600080fd5b506103b2610387366004611d9a565b6003602052600090815260409020805460018201546002909201546001600160a01b03909116919083565b604080516001600160a01b039094168452602084019290925290820152606001610212565b3480156103e357600080fd5b506102c36103f2366004611f92565b60056020526000908152604090205481565b34801561041057600080fd5b506101dc610f5d565b34801561042557600080fd5b50610439610434366004611f92565b610f93565b6040516102129b9a999897969594939291906120f4565b34801561045c57600080fd5b506000546001600160a01b03166101fe565b34801561047a57600080fd5b506101dc610489366004611d9a565b50565b34801561049857600080fd5b506101dc6104a7366004611f92565b61110e565b3480156104b857600080fd5b506101dc6104c7366004611f92565b611298565b3480156104d857600080fd5b506101dc6104e7366004611d9a565b6114ef565b3480156104f857600080fd5b506101fe610507366004612078565b61157d565b34801561051857600080fd5b5061024b610527366004611e17565b600760209081526000928352604080842090915290825290205460ff1681565b34801561055357600080fd5b506101dc610489366004611f92565b34801561056e57600080fd5b506101dc61057d366004611f92565b611599565b34801561058e57600080fd5b506101dc61059d366004611d9a565b6115c8565b3360009081526002602052604090205460ff166104895760405162461bcd60e51b81526004016105d1906122b5565b60405180910390fd5b600860205281600052604060002081815481106105f657600080fd5b6000918252602090912001546001600160a01b03169150829050565b306001600160a01b037f000000000000000000000000000000000000000000000000000000000000000016141561065b5760405162461bcd60e51b81526004016105d19061219a565b7f00000000000000000000000000000000000000000000000000000000000000006001600160a01b03166106a4600080516020612492833981519152546001600160a01b031690565b6001600160a01b0316146106ca5760405162461bcd60e51b81526004016105d1906121e6565b6106d381611660565b604080516000808252602082019092526104899183919061168a565b306001600160a01b037f00000000000000000000000000000000000000000000000000000000000000001614156107385760405162461bcd60e51b81526004016105d19061219a565b7f00000000000000000000000000000000000000000000000000000000000000006001600160a01b0316610781600080516020612492833981519152546001600160a01b031690565b6001600160a01b0316146107a75760405162461bcd60e51b81526004016105d1906121e6565b6107b082611660565b6107bc8282600161168a565b5050565b6000306001600160a01b037f000000000000000000000000000000000000000000000000000000000000000016146108605760405162461bcd60e51b815260206004820152603860248201527f555550535570677261646561626c653a206d757374206e6f742062652063616c60448201527f6c6564207468726f7567682064656c656761746563616c6c000000000000000060648201526084016105d1565b5060008051602061249283398151915290565b3360009081526002602052604090205460ff166108a25760405162461bcd60e51b81526004016105d1906122b5565b6108ad81600b541190565b6108e95760405162461bcd60e51b815260206004820152600d60248201526c158e88125b9d985b1a59081251609a1b60448201526064016105d1565b600081815260046020818152604080842090920154338452600390915291206001015460ff909116111561094b5760405162461bcd60e51b8152602060048201526009602482015268563a204c6576656c2160b81b60448201526064016105d1565b33600090815260076020908152604080832084845290915290205460ff16156109a35760405162461bcd60e51b815260206004820152600a602482015269563a20416c726561647960b01b60448201526064016105d1565b6000818152600460208190526040822001546301000000900460ff1660068111156109de57634e487b7160e01b600052602160045260246000fd5b14610a1c5760405162461bcd60e51b815260206004820152600e60248201526d563a20496e76616c69642052657160901b60448201526064016105d1565b3360009081526007602090815260408083208484528252808320805460ff1916600190811790915560059092528220805491929091610a5c9084906123a0565b9091555050600081815260056020526040902054600b1161048957600081815260046020818152604092839020918201805463ff000000191663010000001790554260089092019190915590518281527f25f30079a8797619f323901dc372ffe219d4aff4bfa6c74a3ecf6544f81c441e91015b60405180910390a150565b3360009081526002602052604081205460ff16610b0a5760405162461bcd60e51b81526004016105d1906122b5565b600b8054906000610b1a8361241f565b9091555050600060e0830181905233610120840152600b548152600460209081526040909120835180518593610b54928492910190611b3d565b506020828101518051610b6d9260018501920190611b3d565b50604082015160028083019190915560608301516003830155608083015160048301805460a086015160ff9081166101000261ffff199092169316929092179190911780825560c08501519262ff0000199091169062010000908490811115610be657634e487b7160e01b600052602160045260246000fd5b021790555060e082015160048201805463ff00000019166301000000836006811115610c2257634e487b7160e01b600052602160045260246000fd5b02179055506101008201518051610c43916005840191602090910190611bc1565b506101208201516006820180546001600160a01b0319166001600160a01b03909216919091179055610140820151600782015561016090910151600890910155600b54825160408401517fa1e582c1be722af10344f716179207f062e2303f2a48f9632c81a2bf8cf669039291906000866080015133604051610ccb969594939291906122d7565b60405180910390a15060005b919050565b3360009081526002602052604090205460ff16610d0b5760405162461bcd60e51b81526004016105d1906122b5565b6000828152600460205260409020600601546001600160a01b03163314610d675760405162461bcd60e51b815260206004820152601060248201526f104e881058d8d95cdcc819195b9a595960821b60448201526064016105d1565b6002600083815260046020819052604090912001546301000000900460ff166006811115610da557634e487b7160e01b600052602160045260246000fd5b14610de65760405162461bcd60e51b8152602060048201526011602482015270413a20496e76616c69642073746174757360781b60448201526064016105d1565b60005b8151811015610f36576000828281518110610e1457634e487b7160e01b600052603260045260246000fd5b60209081029190910181015160008681526008835260408082206009909452902080549193509083908110610e5957634e487b7160e01b600052603260045260246000fd5b6000918252602080832090910154835460018101855593835281832090930180546001600160a01b0319166001600160a01b039094169390931790925585815260099091526040902080547f52476d55ecef5cf13caa64038f297fe6bbf865d9584a98b8722a15a6d5db128f91869184908110610ee657634e487b7160e01b600052603260045260246000fd5b600091825260209091200154604051610f1b92916001600160a01b0316909182526001600160a01b0316602082015260400190565b60405180910390a150610f2f6001826123a0565b9050610de9565b5050600090815260046020819052604090912001805463ff00000019166303000000179055565b6000546001600160a01b03163314610f875760405162461bcd60e51b81526004016105d190612280565b610f916000611809565b565b600460205260009081526040902080548190610fae906123e4565b80601f0160208091040260200160405190810160405280929190818152602001828054610fda906123e4565b80156110275780601f10610ffc57610100808354040283529160200191611027565b820191906000526020600020905b81548152906001019060200180831161100a57829003601f168201915b50505050509080600101805461103c906123e4565b80601f0160208091040260200160405190810160405280929190818152602001828054611068906123e4565b80156110b55780601f1061108a576101008083540402835291602001916110b5565b820191906000526020600020905b81548152906001019060200180831161109857829003601f168201915b50505050600283015460038401546004850154600686015460078701546008909701549596939592945060ff80831694610100840482169462010000850483169463010000009004909216926001600160a01b0316918b565b6000818152600460205260409020600601546001600160a01b0316331461116a5760405162461bcd60e51b815260206004820152601060248201526f140e881058d8d95cdcc819195b9a595960821b60448201526064016105d1565b6001600082815260046020819052604090912001546301000000900460ff1660068111156111a857634e487b7160e01b600052602160045260246000fd5b146111e95760405162461bcd60e51b8152602060048201526011602482015270503a20496e76616c69642073746174757360781b60448201526064016105d1565b60008181526004602052604090206008015461120890620151806123a0565b4210156112455760405162461bcd60e51b815260206004820152600b60248201526a503a205761697420706c7360a81b60448201526064016105d1565b600081815260046020818152604092839020909101805463ff0000001916630200000017905590518281527fbc6970215fa75efbcb9751948904b7cf4b87993f0d7e611e49f11f3190b9b5a49101610ad0565b6002600082815260046020819052604090912001546301000000900460ff1660068111156112d657634e487b7160e01b600052602160045260246000fd5b146113155760405162461bcd60e51b815260206004820152600f60248201526e108e88139bdd081d995c9a599a5959608a1b60448201526064016105d1565b600081815260046020818152604080842090920154338452600390915291206001015460ff90911611156113795760405162461bcd60e51b815260206004820152600b60248201526a108e88139bc81b195d995b60aa1b60448201526064016105d1565b60008181526004602081905260408220015462010000900460ff1660028111156113b357634e487b7160e01b600052602160045260246000fd5b141561143c576000818152600460208181526040808420909201805463ff00000019166303000000179055600881528183208054600181018255908452928190209092018054336001600160a01b031990911681179091558151848152928301527f52476d55ecef5cf13caa64038f297fe6bbf865d9584a98b8722a15a6d5db128f9101610ad0565b6000818152600a6020908152604080832033845290915290205460ff161561149a5760405162461bcd60e51b8152602060048201526011602482015270211d1020b63932b0b23c903134b23232b760791b60448201526064016105d1565b60008181526009602090815260408083208054600181810183559185528385200180546001600160a01b03191633908117909155858552600a8452828520908552909252909120805460ff1916909117905550565b60006114fb6001611859565b90508015611517576000805460ff60a81b1916600160a81b1790555b600180546001600160a01b0319166001600160a01b03841617905580156107bc576000805460ff60a81b19169055604051600181527f7f26b83ff96e1f2b6a682f133852f6798a09c465da95921460cefb38474024989060200160405180910390a15050565b600960205281600052604060002081815481106105f657600080fd5b6000546001600160a01b031633146115c35760405162461bcd60e51b81526004016105d190612280565b600c55565b6000546001600160a01b031633146115f25760405162461bcd60e51b81526004016105d190612280565b6001600160a01b0381166116575760405162461bcd60e51b815260206004820152602660248201527f4f776e61626c653a206e6577206f776e657220697320746865207a65726f206160448201526564647265737360d01b60648201526084016105d1565b61048981611809565b6000546001600160a01b031633146104895760405162461bcd60e51b81526004016105d190612280565b7f4910fdfa16fed3260ed0e7147f7cc6da11a60208b5b9406d12a635614ffd91435460ff16156116c2576116bd836118f4565b505050565b826001600160a01b03166352d1902d6040518163ffffffff1660e01b815260040160206040518083038186803b1580156116fb57600080fd5b505afa92505050801561172b575060408051601f3d908101601f1916820190925261172891810190611e42565b60015b61178e5760405162461bcd60e51b815260206004820152602e60248201527f45524331393637557067726164653a206e657720696d706c656d656e7461746960448201526d6f6e206973206e6f74205555505360901b60648201526084016105d1565b60008051602061249283398151915281146117fd5760405162461bcd60e51b815260206004820152602960248201527f45524331393637557067726164653a20756e737570706f727465642070726f786044820152681a58589b195555525160ba1b60648201526084016105d1565b506116bd838383611990565b600080546001600160a01b038381166001600160a01b0319831681178455604051919092169283917f8be0079c531659141344cd1fd0a4f28419497f9722a3daafe3b4186f6b6457e09190a35050565b60008054600160a81b900460ff16156118a2578160ff16600114801561187e5750303b155b61189a5760405162461bcd60e51b81526004016105d190612232565b506000919050565b60005460ff808416600160a01b90920416106118d05760405162461bcd60e51b81526004016105d190612232565b506000805460ff909216600160a01b0260ff60a01b19909216919091179055600190565b6001600160a01b0381163b6119615760405162461bcd60e51b815260206004820152602d60248201527f455243313936373a206e657720696d706c656d656e746174696f6e206973206e60448201526c1bdd08184818dbdb9d1c9858dd609a1b60648201526084016105d1565b60008051602061249283398151915280546001600160a01b0319166001600160a01b0392909216919091179055565b611999836119bb565b6000825111806119a65750805b156116bd576119b583836119fb565b50505050565b6119c4816118f4565b6040516001600160a01b038216907fbc7cd75a20ee27fd9adebab32041f755214dbc6bffa90cc0225b39da2e5c2d3b90600090a250565b6060611a2083836040518060600160405280602781526020016124b260279139611a27565b9392505050565b60606001600160a01b0384163b611a8f5760405162461bcd60e51b815260206004820152602660248201527f416464726573733a2064656c65676174652063616c6c20746f206e6f6e2d636f6044820152651b9d1c9858dd60d21b60648201526084016105d1565b600080856001600160a01b031685604051611aaa91906120c5565b600060405180830381855af49150503d8060008114611ae5576040519150601f19603f3d011682016040523d82523d6000602084013e611aea565b606091505b5091509150611afa828286611b04565b9695505050505050565b60608315611b13575081611a20565b825115611b235782518084602001fd5b8160405162461bcd60e51b81526004016105d191906120e1565b828054611b49906123e4565b90600052602060002090601f016020900481019282611b6b5760008555611bb1565b82601f10611b8457805160ff1916838001178555611bb1565b82800160010185558215611bb1579182015b82811115611bb1578251825591602001919060010190611b96565b50611bbd929150611c5e565b5090565b82805482825590600052602060002090601f01602090048101928215611bb15791602002820160005b83821115611c2857835183826101000a81548160ff021916908360ff1602179055509260200192600101602081600001049283019260010302611bea565b8015611c555782816101000a81549060ff0219169055600101602081600001049283019260010302611c28565b5050611bbd9291505b5b80821115611bbd5760008155600101611c5f565b600067ffffffffffffffff831115611c8d57611c8d612466565b611ca0601f8401601f191660200161234b565b9050828152838383011115611cb457600080fd5b828260208301376000602084830101529392505050565b8035610cd78161247c565b600082601f830112611ce6578081fd5b81356020611cfb611cf68361237c565b61234b565b80838252828201915082860187848660051b8901011115611d1a578586fd5b855b85811015611d3f57611d2d82611d89565b84529284019290840190600101611d1c565b5090979650505050505050565b803560038110610cd757600080fd5b803560078110610cd757600080fd5b600082601f830112611d7a578081fd5b611a2083833560208501611c73565b803560ff81168114610cd757600080fd5b600060208284031215611dab578081fd5b8135611a208161247c565b60008060408385031215611dc8578081fd5b8235611dd38161247c565b9150602083013567ffffffffffffffff811115611dee578182fd5b8301601f81018513611dfe578182fd5b611e0d85823560208401611c73565b9150509250929050565b60008060408385031215611e29578182fd5b8235611e348161247c565b946020939093013593505050565b600060208284031215611e53578081fd5b5051919050565b600060208284031215611e6b578081fd5b813567ffffffffffffffff80821115611e82578283fd5b908301906101808286031215611e96578283fd5b611e9e612321565b823582811115611eac578485fd5b611eb887828601611d6a565b825250602083013582811115611ecc578485fd5b611ed887828601611d6a565b6020830152506040830135604082015260608301356060820152611efe60808401611d89565b6080820152611f0f60a08401611d89565b60a0820152611f2060c08401611d4c565b60c0820152611f3160e08401611d5b565b60e08201526101008084013583811115611f49578586fd5b611f5588828701611cd6565b8284015250506101209150611f6b828401611ccb565b91810191909152610140828101359082015261016091820135918101919091529392505050565b600060208284031215611fa3578081fd5b5035919050565b60008060408385031215611fbc578182fd5b823591506020830135611fce8161247c565b809150509250929050565b60008060408385031215611feb578182fd5b8235915060208084013567ffffffffffffffff811115612009578283fd5b8401601f81018613612019578283fd5b8035612027611cf68261237c565b80828252848201915084840189868560051b8701011115612046578687fd5b8694505b8385101561206857803583526001949094019391850191850161204a565b5080955050505050509250929050565b6000806040838503121561208a578182fd5b50508035926020909101359150565b600081518084526120b18160208601602086016123b8565b601f01601f19169290920160200192915050565b600082516120d78184602087016123b8565b9190910192915050565b602081526000611a206020830184612099565b60006101608083526121088184018f612099565b9050828103602084015261211c818e612099565b9150508a604083015289606083015260ff8916608083015260ff881660a08301526003871061214d5761214d612450565b8660c08301526007861061216357612163612450565b8560e083015261217f6101008301866001600160a01b03169052565b61012082019390935261014001529998505050505050505050565b6020808252602c908201527f46756e6374696f6e206d7573742062652063616c6c6564207468726f7567682060408201526b19195b1959d85d1958d85b1b60a21b606082015260800190565b6020808252602c908201527f46756e6374696f6e206d7573742062652063616c6c6564207468726f7567682060408201526b6163746976652070726f787960a01b606082015260800190565b6020808252602e908201527f496e697469616c697a61626c653a20636f6e747261637420697320616c72656160408201526d191e481a5b9a5d1a585b1a5e995960921b606082015260800190565b6020808252818101527f4f776e61626c653a2063616c6c6572206973206e6f7420746865206f776e6572604082015260600190565b602080825260089082015267139bc81059d95b9d60c21b604082015260600190565b86815260c0602082015260006122f060c0830188612099565b604083019690965250606081019390935260ff9190911660808301526001600160a01b031660a09091015292915050565b604051610180810167ffffffffffffffff8111828210171561234557612345612466565b60405290565b604051601f8201601f1916810167ffffffffffffffff8111828210171561237457612374612466565b604052919050565b600067ffffffffffffffff82111561239657612396612466565b5060051b60200190565b600082198211156123b3576123b361243a565b500190565b60005b838110156123d35781810151838201526020016123bb565b838111156119b55750506000910152565b600181811c908216806123f857607f821691505b6020821081141561241957634e487b7160e01b600052602260045260246000fd5b50919050565b60006000198214156124335761243361243a565b5060010190565b634e487b7160e01b600052601160045260246000fd5b634e487b7160e01b600052602160045260246000fd5b634e487b7160e01b600052604160045260246000fd5b6001600160a01b038116811461048957600080fdfe360894a13ba1a3210667c828492db98dca3e2076cc3735a920a3ca505d382bbc416464726573733a206c6f772d6c6576656c2064656c65676174652063616c6c206661696c6564a2646970667358221220c9d04470681e9d72e7d496a5950a23b659e07f15b73d9528f57523c23615cca964736f6c63430008040033",
  "linkReferences": {},
  "deployedLinkReferences": {}
}