{
  "_format": "hh-sol-artifact-1",
  "contractName": "XdaoAgency",
  "sourceName": "contracts/farm/XdaoAgency.sol",
  "abi": [
    {
      "anonymous": false,
      "inputs": [
        {
          "indexed": false,
          "internalType": "address",
          "name": "previousAdmin",
          "type": "address"
        },
        {
          "indexed": false,
          "internalType": "address",
          "name": "newAdmin",
          "type": "address"
        }
      ],
      "name": "AdminChanged",
      "type": "event"
    },
    {
      "anonymous": false,
      "inputs": [
        {
          "indexed": true,
          "internalType": "address",
          "name": "beacon",
          "type": "address"
        }
      ],
      "name": "BeaconUpgraded",
      "type": "event"
    },
    {
      "anonymous": false,
      "inputs": [
        {
          "indexed": false,
          "internalType": "uint8",
          "name": "version",
          "type": "uint8"
        }
      ],
      "name": "Initialized",
      "type": "event"
    },
    {
      "anonymous": false,
      "inputs": [
        {
          "indexed": true,
          "internalType": "address",
          "name": "previousOwner",
          "type": "address"
        },
        {
          "indexed": true,
          "internalType": "address",
          "name": "newOwner",
          "type": "address"
        }
      ],
      "name": "OwnershipTransferred",
      "type": "event"
    },
    {
      "anonymous": false,
      "inputs": [
        {
          "indexed": false,
          "internalType": "uint256",
          "name": "id",
          "type": "uint256"
        },
        {
          "indexed": false,
          "internalType": "address",
          "name": "doer",
          "type": "address"
        }
      ],
      "name": "TaskAssigned",
      "type": "event"
    },
    {
      "anonymous": false,
      "inputs": [
        {
          "indexed": false,
          "internalType": "uint256",
          "name": "id",
          "type": "uint256"
        },
        {
          "indexed": false,
          "internalType": "string",
          "name": "name",
          "type": "string"
        },
        {
          "indexed": false,
          "internalType": "uint256",
          "name": "reward",
          "type": "uint256"
        },
        {
          "indexed": false,
          "internalType": "uint256",
          "name": "status",
          "type": "uint256"
        },
        {
          "indexed": false,
          "internalType": "uint256",
          "name": "minLevel",
          "type": "uint256"
        },
        {
          "indexed": false,
          "internalType": "address",
          "name": "creator",
          "type": "address"
        }
      ],
      "name": "TaskCreated",
      "type": "event"
    },
    {
      "anonymous": false,
      "inputs": [
        {
          "indexed": false,
          "internalType": "uint256",
          "name": "id",
          "type": "uint256"
        }
      ],
      "name": "TaskDelivered",
      "type": "event"
    },
    {
      "anonymous": false,
      "inputs": [
        {
          "indexed": false,
          "internalType": "uint256",
          "name": "id",
          "type": "uint256"
        },
        {
          "indexed": false,
          "internalType": "address",
          "name": "doer",
          "type": "address"
        }
      ],
      "name": "TaskDone",
      "type": "event"
    },
    {
      "anonymous": false,
      "inputs": [
        {
          "indexed": false,
          "internalType": "uint256",
          "name": "id",
          "type": "uint256"
        }
      ],
      "name": "TaskEndVerified",
      "type": "event"
    },
    {
      "anonymous": false,
      "inputs": [
        {
          "indexed": false,
          "internalType": "uint256",
          "name": "id",
          "type": "uint256"
        }
      ],
      "name": "TaskPosted",
      "type": "event"
    },
    {
      "anonymous": false,
      "inputs": [
        {
          "indexed": false,
          "internalType": "uint256",
          "name": "id",
          "type": "uint256"
        }
      ],
      "name": "TaskVerified",
      "type": "event"
    },
    {
      "anonymous": false,
      "inputs": [
        {
          "indexed": true,
          "internalType": "address",
          "name": "implementation",
          "type": "address"
        }
      ],
      "name": "Upgraded",
      "type": "event"
    },
    {
      "inputs": [
        {
          "internalType": "uint256",
          "name": "_id",
          "type": "uint256"
        },
        {
          "internalType": "address",
          "name": "user",
          "type": "address"
        }
      ],
      "name": "_isTaskCompletedByUser",
      "outputs": [
        {
          "internalType": "bool",
          "name": "",
          "type": "bool"
        }
      ],
      "stateMutability": "view",
      "type": "function"
    },
    {
      "inputs": [
        {
          "internalType": "uint256",
          "name": "_id",
          "type": "uint256"
        },
        {
          "internalType": "address",
          "name": "user",
          "type": "address"
        }
      ],
      "name": "_isTaskEndVerifiedByUser",
      "outputs": [
        {
          "internalType": "bool",
          "name": "",
          "type": "bool"
        }
      ],
      "stateMutability": "view",
      "type": "function"
    },
    {
      "inputs": [
        {
          "internalType": "address",
          "name": "",
          "type": "address"
        }
      ],
      "name": "agentInfo",
      "outputs": [
        {
          "internalType": "address",
          "name": "account",
          "type": "address"
        },
        {
          "internalType": "uint256",
          "name": "level",
          "type": "uint256"
        },
        {
          "internalType": "uint256",
          "name": "stakedAmount",
          "type": "uint256"
        }
      ],
      "stateMutability": "view",
      "type": "function"
    },
    {
      "inputs": [
        {
          "internalType": "address",
          "name": "",
          "type": "address"
        }
      ],
      "name": "agentLastSlashTime",
      "outputs": [
        {
          "internalType": "uint256",
          "name": "",
          "type": "uint256"
        }
      ],
      "stateMutability": "view",
      "type": "function"
    },
    {
      "inputs": [
        {
          "internalType": "address",
          "name": "",
          "type": "address"
        },
        {
          "internalType": "uint256",
          "name": "",
          "type": "uint256"
        }
      ],
      "name": "agentVerifiedTask",
      "outputs": [
        {
          "internalType": "bool",
          "name": "",
          "type": "bool"
        }
      ],
      "stateMutability": "view",
      "type": "function"
    },
    {
      "inputs": [
        {
          "internalType": "uint256",
          "name": "_id",
          "type": "uint256"
        },
        {
          "internalType": "uint256[]",
          "name": "_bidders",
          "type": "uint256[]"
        }
      ],
      "name": "assignTask",
      "outputs": [],
      "stateMutability": "nonpayable",
      "type": "function"
    },
    {
      "inputs": [
        {
          "internalType": "uint256",
          "name": "",
          "type": "uint256"
        },
        {
          "internalType": "address",
          "name": "",
          "type": "address"
        }
      ],
      "name": "bidden",
      "outputs": [
        {
          "internalType": "bool",
          "name": "",
          "type": "bool"
        }
      ],
      "stateMutability": "view",
      "type": "function"
    },
    {
      "inputs": [
        {
          "internalType": "uint256",
          "name": "",
          "type": "uint256"
        },
        {
          "internalType": "uint256",
          "name": "",
          "type": "uint256"
        }
      ],
      "name": "bidders",
      "outputs": [
        {
          "internalType": "address",
          "name": "",
          "type": "address"
        }
      ],
      "stateMutability": "view",
      "type": "function"
    },
    {
      "inputs": [
        {
          "internalType": "uint256",
          "name": "_id",
          "type": "uint256"
        }
      ],
      "name": "compeletTask",
      "outputs": [],
      "stateMutability": "nonpayable",
      "type": "function"
    },
    {
      "inputs": [
        {
          "internalType": "uint256",
          "name": "",
          "type": "uint256"
        },
        {
          "internalType": "uint256",
          "name": "",
          "type": "uint256"
        }
      ],
      "name": "doers",
      "outputs": [
        {
          "internalType": "address",
          "name": "",
          "type": "address"
        }
      ],
      "stateMutability": "view",
      "type": "function"
    },
    {
      "inputs": [
        {
          "internalType": "contract IERC20",
          "name": "_tgr",
          "type": "address"
        }
      ],
      "name": "initialize",
      "outputs": [],
      "stateMutability": "nonpayable",
      "type": "function"
    },
    {
      "inputs": [
        {
          "internalType": "address",
          "name": "",
          "type": "address"
        }
      ],
      "name": "isAgent",
      "outputs": [
        {
          "internalType": "bool",
          "name": "",
          "type": "bool"
        }
      ],
      "stateMutability": "view",
      "type": "function"
    },
    {
      "inputs": [],
      "name": "owner",
      "outputs": [
        {
          "internalType": "address",
          "name": "",
          "type": "address"
        }
      ],
      "stateMutability": "view",
      "type": "function"
    },
    {
      "inputs": [
        {
          "internalType": "uint256",
          "name": "_id",
          "type": "uint256"
        }
      ],
      "name": "placeBid",
      "outputs": [],
      "stateMutability": "nonpayable",
      "type": "function"
    },
    {
      "inputs": [
        {
          "internalType": "uint256",
          "name": "_id",
          "type": "uint256"
        }
      ],
      "name": "postTask",
      "outputs": [],
      "stateMutability": "nonpayable",
      "type": "function"
    },
    {
      "inputs": [],
      "name": "proxiableUUID",
      "outputs": [
        {
          "internalType": "bytes32",
          "name": "",
          "type": "bytes32"
        }
      ],
      "stateMutability": "view",
      "type": "function"
    },
    {
      "inputs": [],
      "name": "renounceOwnership",
      "outputs": [],
      "stateMutability": "nonpayable",
      "type": "function"
    },
    {
      "inputs": [
        {
          "internalType": "uint256",
          "name": "_id",
          "type": "uint256"
        },
        {
          "internalType": "string",
          "name": "_evidence",
          "type": "string"
        }
      ],
      "name": "requestRevalidation",
      "outputs": [],
      "stateMutability": "nonpayable",
      "type": "function"
    },
    {
      "inputs": [
        {
          "internalType": "uint256",
          "name": "_num",
          "type": "uint256"
        }
      ],
      "name": "setNumVerificationsNeeded",
      "outputs": [],
      "stateMutability": "nonpayable",
      "type": "function"
    },
    {
      "inputs": [
        {
          "internalType": "uint256",
          "name": "_time",
          "type": "uint256"
        }
      ],
      "name": "setSlashImpactPeriod",
      "outputs": [],
      "stateMutability": "nonpayable",
      "type": "function"
    },
    {
      "inputs": [
        {
          "internalType": "uint256",
          "name": "amount",
          "type": "uint256"
        }
      ],
      "name": "stake",
      "outputs": [],
      "stateMutability": "nonpayable",
      "type": "function"
    },
    {
      "inputs": [
        {
          "components": [
            {
              "internalType": "string",
              "name": "name",
              "type": "string"
            },
            {
              "internalType": "string",
              "name": "summary",
              "type": "string"
            },
            {
              "internalType": "uint256",
              "name": "reward",
              "type": "uint256"
            },
            {
              "internalType": "uint256",
              "name": "bonus",
              "type": "uint256"
            },
            {
              "internalType": "uint8",
              "name": "minLevel",
              "type": "uint8"
            },
            {
              "internalType": "uint8",
              "name": "minCompletions",
              "type": "uint8"
            },
            {
              "internalType": "enum JobBidType",
              "name": "jobType",
              "type": "uint8"
            },
            {
              "internalType": "enum TaskStatus",
              "name": "status",
              "type": "uint8"
            },
            {
              "internalType": "uint8[]",
              "name": "skillSet",
              "type": "uint8[]"
            },
            {
              "internalType": "address",
              "name": "owner",
              "type": "address"
            },
            {
              "internalType": "uint256",
              "name": "dueTime",
              "type": "uint256"
            },
            {
              "internalType": "uint256",
              "name": "verifiedTime",
              "type": "uint256"
            }
          ],
          "internalType": "struct TaskDetails",
          "name": "_task",
          "type": "tuple"
        }
      ],
      "name": "submitTask",
      "outputs": [
        {
          "internalType": "uint256",
          "name": "taskId",
          "type": "uint256"
        }
      ],
      "stateMutability": "nonpayable",
      "type": "function"
    },
    {
      "inputs": [
        {
          "internalType": "uint256",
          "name": "",
          "type": "uint256"
        },
        {
          "internalType": "uint256",
          "name": "",
          "type": "uint256"
        }
      ],
      "name": "taskCompleters",
      "outputs": [
        {
          "internalType": "address",
          "name": "",
          "type": "address"
        }
      ],
      "stateMutability": "view",
      "type": "function"
    },
    {
      "inputs": [
        {
          "internalType": "uint256",
          "name": "",
          "type": "uint256"
        },
        {
          "internalType": "uint256",
          "name": "",
          "type": "uint256"
        }
      ],
      "name": "taskEndVerifiers",
      "outputs": [
        {
          "internalType": "address",
          "name": "",
          "type": "address"
        }
      ],
      "stateMutability": "view",
      "type": "function"
    },
    {
      "inputs": [
        {
          "internalType": "uint256",
          "name": "",
          "type": "uint256"
        }
      ],
      "name": "taskVerifiersCount",
      "outputs": [
        {
          "internalType": "uint256",
          "name": "",
          "type": "uint256"
        }
      ],
      "stateMutability": "view",
      "type": "function"
    },
    {
      "inputs": [
        {
          "internalType": "uint256",
          "name": "",
          "type": "uint256"
        }
      ],
      "name": "tasks",
      "outputs": [
        {
          "internalType": "string",
          "name": "name",
          "type": "string"
        },
        {
          "internalType": "string",
          "name": "summary",
          "type": "string"
        },
        {
          "internalType": "uint256",
          "name": "reward",
          "type": "uint256"
        },
        {
          "internalType": "uint256",
          "name": "bonus",
          "type": "uint256"
        },
        {
          "internalType": "uint8",
          "name": "minLevel",
          "type": "uint8"
        },
        {
          "internalType": "uint8",
          "name": "minCompletions",
          "type": "uint8"
        },
        {
          "internalType": "enum JobBidType",
          "name": "jobType",
          "type": "uint8"
        },
        {
          "internalType": "enum TaskStatus",
          "name": "status",
          "type": "uint8"
        },
        {
          "internalType": "address",
          "name": "owner",
          "type": "address"
        },
        {
          "internalType": "uint256",
          "name": "dueTime",
          "type": "uint256"
        },
        {
          "internalType": "uint256",
          "name": "verifiedTime",
          "type": "uint256"
        }
      ],
      "stateMutability": "view",
      "type": "function"
    },
    {
      "inputs": [],
      "name": "tgr",
      "outputs": [
        {
          "internalType": "contract IERC20",
          "name": "",
          "type": "address"
        }
      ],
      "stateMutability": "view",
      "type": "function"
    },
    {
      "inputs": [
        {
          "internalType": "address",
          "name": "newOwner",
          "type": "address"
        }
      ],
      "name": "transferOwnership",
      "outputs": [],
      "stateMutability": "nonpayable",
      "type": "function"
    },
    {
      "inputs": [
        {
          "internalType": "uint256",
          "name": "amount",
          "type": "uint256"
        }
      ],
      "name": "unStake",
      "outputs": [],
      "stateMutability": "nonpayable",
      "type": "function"
    },
    {
      "inputs": [
        {
          "internalType": "address",
          "name": "_agent",
          "type": "address"
        }
      ],
      "name": "updateAgentLevel",
      "outputs": [],
      "stateMutability": "nonpayable",
      "type": "function"
    },
    {
      "inputs": [
        {
          "internalType": "address",
          "name": "newImplementation",
          "type": "address"
        }
      ],
      "name": "upgradeTo",
      "outputs": [],
      "stateMutability": "nonpayable",
      "type": "function"
    },
    {
      "inputs": [
        {
          "internalType": "address",
          "name": "newImplementation",
          "type": "address"
        },
        {
          "internalType": "bytes",
          "name": "data",
          "type": "bytes"
        }
      ],
      "name": "upgradeToAndCall",
      "outputs": [],
      "stateMutability": "payable",
      "type": "function"
    },
    {
      "inputs": [
        {
          "internalType": "uint256",
          "name": "_taskId",
          "type": "uint256"
        }
      ],
      "name": "verifyTask",
      "outputs": [],
      "stateMutability": "nonpayable",
      "type": "function"
    },
    {
      "inputs": [
        {
          "internalType": "uint256",
          "name": "_id",
          "type": "uint256"
        }
      ],
      "name": "verifyTaskCompletion",
      "outputs": [],
      "stateMutability": "nonpayable",
      "type": "function"
    }
  ],
  "bytecode": "0x60a06040523060601b6080526000600e55600b600f5562093a8060105534801561002857600080fd5b5061003233610037565b610087565b600080546001600160a01b038381166001600160a01b0319831681178455604051919092169283917f8be0079c531659141344cd1fd0a4f28419497f9722a3daafe3b4186f6b6457e09190a35050565b60805160601c612fd2620000c26000396000818161075b015281816107a401528181610873015281816108b301526109460152612fd26000f3fe6080604052600436106101f95760003560e01c806387f492d31161010d578063ba372647116100a0578063dd3e62c21161006f578063dd3e62c21461065d578063e2a9046714610698578063e79eb07a146106b8578063f2fde38b146106d8578063fb92de65146106f857600080fd5b8063ba372647146105dd578063c4d66de8146105fd578063d1c112051461061d578063d269e5cf1461063d57600080fd5b80639723f6ed116100dc5780639723f6ed1461055d5780639979ef451461057d5780639ba410ac1461059d578063a694fc3a146105bd57600080fd5b806387f492d3146104c85780638c4d1cb0146104e85780638d977672146105085780638da5cb5b1461053f57600080fd5b80635573e3ef11610190578063618a7eee1161015f578063618a7eee146103c057806362c885ee146103fb57806364f2a5bd146104665780636f5e4d3d14610486578063715018a6146104b357600080fd5b80635573e3ef1461034057806359d98f1e1461036057806359db11b4146103805780635d3eea91146103a057600080fd5b80633ef281c5116101cc5780633ef281c5146102bd57806345aa2ada146102f85780634f1ef2861461031857806352d1902d1461032b57600080fd5b80631e1f0d1e146101fe5780631ffbb0641461023b57806326413f681461027b5780633659cfe61461029b575b600080fd5b34801561020a57600080fd5b5061021e610219366004612b25565b610718565b6040516001600160a01b0390911681526020015b60405180910390f35b34801561024757600080fd5b5061026b6102563660046127ec565b60026020526000908152604090205460ff1681565b6040519015158152602001610232565b34801561028757600080fd5b5060015461021e906001600160a01b031681565b3480156102a757600080fd5b506102bb6102b63660046127ec565b610750565b005b3480156102c957600080fd5b506102ea6102d83660046127ec565b600d6020526000908152604090205481565b604051908152602001610232565b34801561030457600080fd5b506102bb610313366004612a04565b610839565b6102bb610326366004612808565b610868565b34801561033757600080fd5b506102ea610939565b34801561034c57600080fd5b506102bb61035b366004612a04565b6109ec565b34801561036c57600080fd5b506102ea61037b3660046128cc565b610c55565b34801561038c57600080fd5b506102bb61039b366004612a4b565b610e56565b3480156103ac57600080fd5b506102bb6103bb366004612a04565b6110d7565b3480156103cc57600080fd5b5061026b6103db366004612a1c565b600a60209081526000928352604080842090915290825290205460ff1681565b34801561040757600080fd5b506104416104163660046127ec565b6003602052600090815260409020805460018201546002909201546001600160a01b03909116919083565b604080516001600160a01b039094168452602084019290925290820152606001610232565b34801561047257600080fd5b5061021e610481366004612b25565b61120f565b34801561049257600080fd5b506102ea6104a1366004612a04565b60056020526000908152604090205481565b3480156104bf57600080fd5b506102bb61122b565b3480156104d457600080fd5b506102bb6104e3366004612aea565b611261565b3480156104f457600080fd5b506102bb6105033660046127ec565b611290565b34801561051457600080fd5b50610528610523366004612a04565b611351565b6040516102329b9a99989796959493929190612ba1565b34801561054b57600080fd5b506000546001600160a01b031661021e565b34801561056957600080fd5b506102bb610578366004612a04565b6114cc565b34801561058957600080fd5b506102bb610598366004612a04565b611656565b3480156105a957600080fd5b506102bb6105b8366004612a04565b6118ad565b3480156105c957600080fd5b506102bb6105d8366004612a04565b611af2565b3480156105e957600080fd5b5061026b6105f8366004612a1c565b611c0f565b34801561060957600080fd5b506102bb6106183660046127ec565b611ca6565b34801561062957600080fd5b5061021e610638366004612b25565b611d34565b34801561064957600080fd5b5061026b610658366004612a1c565b611d50565b34801561066957600080fd5b5061026b610678366004612869565b600760209081526000928352604080842090915290825290205460ff1681565b3480156106a457600080fd5b506102bb6106b3366004612a04565b611ddb565b3480156106c457600080fd5b506102bb6106d3366004612a04565b611e0a565b3480156106e457600080fd5b506102bb6106f33660046127ec565b611ffe565b34801561070457600080fd5b5061021e610713366004612b25565b612096565b6008602052816000526040600020818154811061073457600080fd5b6000918252602090912001546001600160a01b03169150829050565b306001600160a01b037f00000000000000000000000000000000000000000000000000000000000000001614156107a25760405162461bcd60e51b815260040161079990612c47565b60405180910390fd5b7f00000000000000000000000000000000000000000000000000000000000000006001600160a01b03166107eb600080516020612f56833981519152546001600160a01b031690565b6001600160a01b0316146108115760405162461bcd60e51b815260040161079990612c93565b61081a816120b2565b60408051600080825260208201909252610836918391906120dc565b50565b6000546001600160a01b031633146108635760405162461bcd60e51b815260040161079990612d2d565b601055565b306001600160a01b037f00000000000000000000000000000000000000000000000000000000000000001614156108b15760405162461bcd60e51b815260040161079990612c47565b7f00000000000000000000000000000000000000000000000000000000000000006001600160a01b03166108fa600080516020612f56833981519152546001600160a01b031690565b6001600160a01b0316146109205760405162461bcd60e51b815260040161079990612c93565b610929826120b2565b610935828260016120dc565b5050565b6000306001600160a01b037f000000000000000000000000000000000000000000000000000000000000000016146109d95760405162461bcd60e51b815260206004820152603860248201527f555550535570677261646561626c653a206d757374206e6f742062652063616c60448201527f6c6564207468726f7567682064656c656761746563616c6c00000000000000006064820152608401610799565b50600080516020612f5683398151915290565b3360009081526002602052604090205460ff16610a1b5760405162461bcd60e51b815260040161079990612d62565b610a2681600e541190565b610a625760405162461bcd60e51b815260206004820152600d60248201526c158e88125b9d985b1a59081251609a1b6044820152606401610799565b600081815260046020818152604080842090920154338452600390915291206001015460ff9091161115610ac45760405162461bcd60e51b8152602060048201526009602482015268563a204c6576656c2160b81b6044820152606401610799565b33600090815260076020908152604080832084845290915290205460ff1615610b1c5760405162461bcd60e51b815260206004820152600a602482015269563a20416c726561647960b01b6044820152606401610799565b6000818152600460208190526040822001546301000000900460ff166007811115610b5757634e487b7160e01b600052602160045260246000fd5b14610b955760405162461bcd60e51b815260206004820152600e60248201526d563a20496e76616c69642052657160901b6044820152606401610799565b3360009081526007602090815260408083208484528252808320805460ff1916600190811790915560059092528220805491929091610bd5908490612e4d565b9091555050600f546000828152600560205260409020541061083657600081815260046020818152604092839020918201805463ff000000191663010000001790554360089092019190915590518281527f25f30079a8797619f323901dc372ffe219d4aff4bfa6c74a3ecf6544f81c441e91015b60405180910390a150565b3360009081526002602052604081205460ff16610c845760405162461bcd60e51b815260040161079990612d62565b600e8054906000610c9483612ee3565b9091555050600060e0830181905233610120840152600e548152600460209081526040909120835180518593610cce92849291019061258f565b506020828101518051610ce7926001850192019061258f565b50604082015160028083019190915560608301516003830155608083015160048301805460a086015160ff9081166101000261ffff199092169316929092179190911780825560c08501519262ff0000199091169062010000908490811115610d6057634e487b7160e01b600052602160045260246000fd5b021790555060e082015160048201805463ff00000019166301000000836007811115610d9c57634e487b7160e01b600052602160045260246000fd5b02179055506101008201518051610dbd916005840191602090910190612613565b506101208201516006820180546001600160a01b0319166001600160a01b03909216919091179055610140820151600782015561016090910151600890910155600e54825160408401517fa1e582c1be722af10344f716179207f062e2303f2a48f9632c81a2bf8cf669039291906000866080015133604051610e4596959493929190612d84565b60405180910390a15060005b919050565b3360009081526002602052604090205460ff16610e855760405162461bcd60e51b815260040161079990612d62565b6000828152600460205260409020600601546001600160a01b03163314610ee15760405162461bcd60e51b815260206004820152601060248201526f104e881058d8d95cdcc819195b9a595960821b6044820152606401610799565b6002600083815260046020819052604090912001546301000000900460ff166007811115610f1f57634e487b7160e01b600052602160045260246000fd5b14610f605760405162461bcd60e51b8152602060048201526011602482015270413a20496e76616c69642073746174757360781b6044820152606401610799565b60005b81518110156110b0576000828281518110610f8e57634e487b7160e01b600052603260045260246000fd5b60209081029190910181015160008681526008835260408082206009909452902080549193509083908110610fd357634e487b7160e01b600052603260045260246000fd5b6000918252602080832090910154835460018101855593835281832090930180546001600160a01b0319166001600160a01b039094169390931790925585815260099091526040902080547f52476d55ecef5cf13caa64038f297fe6bbf865d9584a98b8722a15a6d5db128f9186918490811061106057634e487b7160e01b600052603260045260246000fd5b60009182526020909120015460405161109592916001600160a01b0316909182526001600160a01b0316602082015260400190565b60405180910390a1506110a9600182612e4d565b9050610f63565b5050600090815260046020819052604090912001805463ff00000019166303000000179055565b3360009081526002602052604090205460ff166111065760405162461bcd60e51b815260040161079990612d62565b336000908152600360205260409020600201548111156111595760405162461bcd60e51b815260206004820152600e60248201526d125b9d985b1a5908185b5bdd5b9d60921b6044820152606401610799565b60015460405163a9059cbb60e01b8152336004820152602481018390526001600160a01b039091169063a9059cbb90604401602060405180830381600087803b1580156111a557600080fd5b505af11580156111b9573d6000803e3d6000fd5b505050506040513d601f19601f820116820180604052508101906111dd9190612894565b503360009081526003602052604081206002018054839290611200908490612e65565b90915550610836905033611290565b600c602052816000526040600020818154811061073457600080fd5b6000546001600160a01b031633146112555760405162461bcd60e51b815260040161079990612d2d565b61125f600061225b565b565b3360009081526002602052604090205460ff166109355760405162461bcd60e51b815260040161079990612d62565b6001600160a01b0381166000908152600360209081526040808320601054600d90935292205443916112c191612e4d565b11156112d257600060019091015550565b61c3508160020154106112ea57600560018201555050565b61138881600201541061130257600460018201555050565b6101f481600201541061131a57600360018201555050565b606481600201541061133157600260018201555050565b600a8160020154106113465760019081015550565b600060018201555050565b60046020526000908152604090208054819061136c90612ea8565b80601f016020809104026020016040519081016040528092919081815260200182805461139890612ea8565b80156113e55780601f106113ba576101008083540402835291602001916113e5565b820191906000526020600020905b8154815290600101906020018083116113c857829003601f168201915b5050505050908060010180546113fa90612ea8565b80601f016020809104026020016040519081016040528092919081815260200182805461142690612ea8565b80156114735780601f1061144857610100808354040283529160200191611473565b820191906000526020600020905b81548152906001019060200180831161145657829003601f168201915b50505050600283015460038401546004850154600686015460078701546008909701549596939592945060ff80831694610100840482169462010000850483169463010000009004909216926001600160a01b0316918b565b6000818152600460205260409020600601546001600160a01b031633146115285760405162461bcd60e51b815260206004820152601060248201526f140e881058d8d95cdcc819195b9a595960821b6044820152606401610799565b6001600082815260046020819052604090912001546301000000900460ff16600781111561156657634e487b7160e01b600052602160045260246000fd5b146115a75760405162461bcd60e51b8152602060048201526011602482015270503a20496e76616c69642073746174757360781b6044820152606401610799565b6000818152600460205260409020600801546115c69062015180612e4d565b4310156116035760405162461bcd60e51b815260206004820152600b60248201526a503a205761697420706c7360a81b6044820152606401610799565b600081815260046020818152604092839020909101805463ff0000001916630200000017905590518281527fbc6970215fa75efbcb9751948904b7cf4b87993f0d7e611e49f11f3190b9b5a49101610c4a565b6002600082815260046020819052604090912001546301000000900460ff16600781111561169457634e487b7160e01b600052602160045260246000fd5b146116d35760405162461bcd60e51b815260206004820152600f60248201526e108e88139bdd081d995c9a599a5959608a1b6044820152606401610799565b600081815260046020818152604080842090920154338452600390915291206001015460ff90911611156117375760405162461bcd60e51b815260206004820152600b60248201526a108e88139bc81b195d995b60aa1b6044820152606401610799565b60008181526004602081905260408220015462010000900460ff16600281111561177157634e487b7160e01b600052602160045260246000fd5b14156117fa576000818152600460208181526040808420909201805463ff00000019166303000000179055600881528183208054600181018255908452928190209092018054336001600160a01b031990911681179091558151848152928301527f52476d55ecef5cf13caa64038f297fe6bbf865d9584a98b8722a15a6d5db128f9101610c4a565b6000818152600a6020908152604080832033845290915290205460ff16156118585760405162461bcd60e51b8152602060048201526011602482015270211d1020b63932b0b23c903134b23232b760791b6044820152606401610799565b60008181526009602090815260408083208054600181810183559185528385200180546001600160a01b03191633908117909155858552600a8452828520908552909252909120805460ff1916909117905550565b3360009081526002602052604090205460ff166118dc5760405162461bcd60e51b815260040161079990612d62565b6003600082815260046020819052604090912001546301000000900460ff16600781111561191a57634e487b7160e01b600052602160045260246000fd5b1461195b5760405162461bcd60e51b8152602060048201526011602482015270433a20496e76616c69642073746174757360781b6044820152606401610799565b6119658133611c0f565b156119a55760405162461bcd60e51b815260206004820152601060248201526f433a20416c726561647920646f6e652160801b6044820152606401610799565b6000818152600a6020908152604080832033845290915290205460ff166119ff5760405162461bcd60e51b815260206004820152600e60248201526d433a204e6f74206269646465722160901b6044820152606401610799565b6000818152600b6020908152604080832080546001810182559084529282902090920180546001600160a01b031916339081179091558251848152918201527f28121a8af10e2c6e8b63765638761c40e2fad0ec63bd0dd10a7e04b575deb691910160405180910390a1600081815260046020818152604080842090920154600b90915291205461010090910460ff1611610836576040518181527f9ddd1a003f0937ea33f4ec6f1af6b8d87c454fa7f1f28e3e8d5a0c00ef50ac919060200160405180910390a160008181526004602081905260409091208101805463ff00000019166301000000835b021790555050565b3360009081526002602052604090205460ff16611b215760405162461bcd60e51b815260040161079990612d62565b60008111611b625760405162461bcd60e51b815260206004820152600e60248201526d125b9d985b1a5908185b5bdd5b9d60921b6044820152606401610799565b6001546040516323b872dd60e01b8152336004820152306024820152604481018390526001600160a01b03909116906323b872dd90606401602060405180830381600087803b158015611bb457600080fd5b505af1158015611bc8573d6000803e3d6000fd5b505050506040513d601f19601f82011682018060405250810190611bec9190612894565b503360009081526003602052604081206002018054839290611200908490612e4d565b6000805b6000848152600b6020526040902054811015611c9a576000848152600b6020526040902080546001600160a01b038516919083908110611c6357634e487b7160e01b600052603260045260246000fd5b6000918252602090912001546001600160a01b03161415611c88576001915050611ca0565b611c93600182612e4d565b9050611c13565b60009150505b92915050565b6000611cb260016122ab565b90508015611cce576000805460ff60a81b1916600160a81b1790555b600180546001600160a01b0319166001600160a01b0384161790558015610935576000805460ff60a81b19169055604051600181527f7f26b83ff96e1f2b6a682f133852f6798a09c465da95921460cefb38474024989060200160405180910390a15050565b6009602052816000526040600020818154811061073457600080fd5b6000805b6000848152600c6020526040902054811015611c9a576000848152600c6020526040902080546001600160a01b038516919083908110611da457634e487b7160e01b600052603260045260246000fd5b6000918252602090912001546001600160a01b03161415611dc9576001915050611ca0565b611dd4600182612e4d565b9050611d54565b6000546001600160a01b03163314611e055760405162461bcd60e51b815260040161079990612d2d565b600f55565b3360009081526002602052604090205460ff16611e395760405162461bcd60e51b815260040161079990612d62565b6004600082815260046020819052604090912001546301000000900460ff166007811115611e7757634e487b7160e01b600052602160045260246000fd5b14611eb95760405162461bcd60e51b815260206004820152601260248201527156433a20496e76616c69642073746174757360701b6044820152606401610799565b33600090815260076020908152604080832084845290915290205460ff16611f185760405162461bcd60e51b815260206004820152601260248201527156433a204163636573732064656e6965642160701b6044820152606401610799565b611f228133611d50565b15611f635760405162461bcd60e51b815260206004820152601160248201527056433a20416c726561647920646f6e652160781b6044820152606401610799565b6000818152600c602090815260408220805460018101825581845291832090910180546001600160a01b03191633179055600f54918390525410610836576040518181527f5f257c4841deab33c0dcb09379c65d6f7d98dcbe49f7df6740021fd133fad75d9060200160405180910390a160008181526004602081905260409091200180546005919063ff0000001916630100000083611aea565b6000546001600160a01b031633146120285760405162461bcd60e51b815260040161079990612d2d565b6001600160a01b03811661208d5760405162461bcd60e51b815260206004820152602660248201527f4f776e61626c653a206e6577206f776e657220697320746865207a65726f206160448201526564647265737360d01b6064820152608401610799565b6108368161225b565b600b602052816000526040600020818154811061073457600080fd5b6000546001600160a01b031633146108365760405162461bcd60e51b815260040161079990612d2d565b7f4910fdfa16fed3260ed0e7147f7cc6da11a60208b5b9406d12a635614ffd91435460ff16156121145761210f83612346565b505050565b826001600160a01b03166352d1902d6040518163ffffffff1660e01b815260040160206040518083038186803b15801561214d57600080fd5b505afa92505050801561217d575060408051601f3d908101601f1916820190925261217a918101906128b4565b60015b6121e05760405162461bcd60e51b815260206004820152602e60248201527f45524331393637557067726164653a206e657720696d706c656d656e7461746960448201526d6f6e206973206e6f74205555505360901b6064820152608401610799565b600080516020612f56833981519152811461224f5760405162461bcd60e51b815260206004820152602960248201527f45524331393637557067726164653a20756e737570706f727465642070726f786044820152681a58589b195555525160ba1b6064820152608401610799565b5061210f8383836123e2565b600080546001600160a01b038381166001600160a01b0319831681178455604051919092169283917f8be0079c531659141344cd1fd0a4f28419497f9722a3daafe3b4186f6b6457e09190a35050565b60008054600160a81b900460ff16156122f4578160ff1660011480156122d05750303b155b6122ec5760405162461bcd60e51b815260040161079990612cdf565b506000919050565b60005460ff808416600160a01b90920416106123225760405162461bcd60e51b815260040161079990612cdf565b506000805460ff909216600160a01b0260ff60a01b19909216919091179055600190565b6001600160a01b0381163b6123b35760405162461bcd60e51b815260206004820152602d60248201527f455243313936373a206e657720696d706c656d656e746174696f6e206973206e60448201526c1bdd08184818dbdb9d1c9858dd609a1b6064820152608401610799565b600080516020612f5683398151915280546001600160a01b0319166001600160a01b0392909216919091179055565b6123eb8361240d565b6000825111806123f85750805b1561210f57612407838361244d565b50505050565b61241681612346565b6040516001600160a01b038216907fbc7cd75a20ee27fd9adebab32041f755214dbc6bffa90cc0225b39da2e5c2d3b90600090a250565b60606124728383604051806060016040528060278152602001612f7660279139612479565b9392505050565b60606001600160a01b0384163b6124e15760405162461bcd60e51b815260206004820152602660248201527f416464726573733a2064656c65676174652063616c6c20746f206e6f6e2d636f6044820152651b9d1c9858dd60d21b6064820152608401610799565b600080856001600160a01b0316856040516124fc9190612b72565b600060405180830381855af49150503d8060008114612537576040519150601f19603f3d011682016040523d82523d6000602084013e61253c565b606091505b509150915061254c828286612556565b9695505050505050565b60608315612565575081612472565b8251156125755782518084602001fd5b8160405162461bcd60e51b81526004016107999190612b8e565b82805461259b90612ea8565b90600052602060002090601f0160209004810192826125bd5760008555612603565b82601f106125d657805160ff1916838001178555612603565b82800160010185558215612603579182015b828111156126035782518255916020019190600101906125e8565b5061260f9291506126b0565b5090565b82805482825590600052602060002090601f016020900481019282156126035791602002820160005b8382111561267a57835183826101000a81548160ff021916908360ff160217905550926020019260010160208160000104928301926001030261263c565b80156126a75782816101000a81549060ff021916905560010160208160000104928301926001030261267a565b505061260f9291505b5b8082111561260f57600081556001016126b1565b600067ffffffffffffffff8311156126df576126df612f2a565b6126f2601f8401601f1916602001612df8565b905082815283838301111561270657600080fd5b828260208301376000602084830101529392505050565b8035610e5181612f40565b600082601f830112612738578081fd5b8135602061274d61274883612e29565b612df8565b80838252828201915082860187848660051b890101111561276c578586fd5b855b858110156127915761277f826127db565b8452928401929084019060010161276e565b5090979650505050505050565b803560038110610e5157600080fd5b803560088110610e5157600080fd5b600082601f8301126127cc578081fd5b612472838335602085016126c5565b803560ff81168114610e5157600080fd5b6000602082840312156127fd578081fd5b813561247281612f40565b6000806040838503121561281a578081fd5b823561282581612f40565b9150602083013567ffffffffffffffff811115612840578182fd5b8301601f81018513612850578182fd5b61285f858235602084016126c5565b9150509250929050565b6000806040838503121561287b578182fd5b823561288681612f40565b946020939093013593505050565b6000602082840312156128a5578081fd5b81518015158114612472578182fd5b6000602082840312156128c5578081fd5b5051919050565b6000602082840312156128dd578081fd5b813567ffffffffffffffff808211156128f4578283fd5b908301906101808286031215612908578283fd5b612910612dce565b82358281111561291e578485fd5b61292a878286016127bc565b82525060208301358281111561293e578485fd5b61294a878286016127bc565b6020830152506040830135604082015260608301356060820152612970608084016127db565b608082015261298160a084016127db565b60a082015261299260c0840161279e565b60c08201526129a360e084016127ad565b60e082015261010080840135838111156129bb578586fd5b6129c788828701612728565b82840152505061012091506129dd82840161271d565b91810191909152610140828101359082015261016091820135918101919091529392505050565b600060208284031215612a15578081fd5b5035919050565b60008060408385031215612a2e578182fd5b823591506020830135612a4081612f40565b809150509250929050565b60008060408385031215612a5d578182fd5b8235915060208084013567ffffffffffffffff811115612a7b578283fd5b8401601f81018613612a8b578283fd5b8035612a9961274882612e29565b80828252848201915084840189868560051b8701011115612ab8578687fd5b8694505b83851015612ada578035835260019490940193918501918501612abc565b5080955050505050509250929050565b60008060408385031215612afc578182fd5b82359150602083013567ffffffffffffffff811115612b19578182fd5b61285f858286016127bc565b60008060408385031215612b37578182fd5b50508035926020909101359150565b60008151808452612b5e816020860160208601612e7c565b601f01601f19169290920160200192915050565b60008251612b84818460208701612e7c565b9190910192915050565b6020815260006124726020830184612b46565b6000610160808352612bb58184018f612b46565b90508281036020840152612bc9818e612b46565b9150508a604083015289606083015260ff8916608083015260ff881660a083015260038710612bfa57612bfa612f14565b8660c083015260088610612c1057612c10612f14565b8560e0830152612c2c6101008301866001600160a01b03169052565b61012082019390935261014001529998505050505050505050565b6020808252602c908201527f46756e6374696f6e206d7573742062652063616c6c6564207468726f7567682060408201526b19195b1959d85d1958d85b1b60a21b606082015260800190565b6020808252602c908201527f46756e6374696f6e206d7573742062652063616c6c6564207468726f7567682060408201526b6163746976652070726f787960a01b606082015260800190565b6020808252602e908201527f496e697469616c697a61626c653a20636f6e747261637420697320616c72656160408201526d191e481a5b9a5d1a585b1a5e995960921b606082015260800190565b6020808252818101527f4f776e61626c653a2063616c6c6572206973206e6f7420746865206f776e6572604082015260600190565b602080825260089082015267139bc81059d95b9d60c21b604082015260600190565b86815260c060208201526000612d9d60c0830188612b46565b604083019690965250606081019390935260ff9190911660808301526001600160a01b031660a09091015292915050565b604051610180810167ffffffffffffffff81118282101715612df257612df2612f2a565b60405290565b604051601f8201601f1916810167ffffffffffffffff81118282101715612e2157612e21612f2a565b604052919050565b600067ffffffffffffffff821115612e4357612e43612f2a565b5060051b60200190565b60008219821115612e6057612e60612efe565b500190565b600082821015612e7757612e77612efe565b500390565b60005b83811015612e97578181015183820152602001612e7f565b838111156124075750506000910152565b600181811c90821680612ebc57607f821691505b60208210811415612edd57634e487b7160e01b600052602260045260246000fd5b50919050565b6000600019821415612ef757612ef7612efe565b5060010190565b634e487b7160e01b600052601160045260246000fd5b634e487b7160e01b600052602160045260246000fd5b634e487b7160e01b600052604160045260246000fd5b6001600160a01b038116811461083657600080fdfe360894a13ba1a3210667c828492db98dca3e2076cc3735a920a3ca505d382bbc416464726573733a206c6f772d6c6576656c2064656c65676174652063616c6c206661696c6564a2646970667358221220cce2e66b74934c9c00426d209106dc67d3d7d7c880ed0f10c96e0375455f026664736f6c63430008040033",
  "linkReferences": {},
  "deployedLinkReferences": {}
}