{
  "_format": "hh-sol-artifact-1",
  "contractName": "CompoundExpReward",
  "sourceName": "contracts/research/CompoundExpReward.sol",
  "abi": [
    {
      "inputs": [
        {
          "internalType": "address",
          "name": "_analyticMath",
          "type": "address"
        }
      ],
      "stateMutability": "nonpayable",
      "type": "constructor"
    },
    {
      "anonymous": false,
      "inputs": [
        {
          "indexed": true,
          "internalType": "address",
          "name": "previousOwner",
          "type": "address"
        },
        {
          "indexed": true,
          "internalType": "address",
          "name": "newOwner",
          "type": "address"
        }
      ],
      "name": "OwnershipTransferred",
      "type": "event"
    },
    {
      "inputs": [],
      "name": "DECIMALS",
      "outputs": [
        {
          "internalType": "uint8",
          "name": "",
          "type": "uint8"
        }
      ],
      "stateMutability": "view",
      "type": "function"
    },
    {
      "inputs": [],
      "name": "INITIAL_SUPPLY",
      "outputs": [
        {
          "internalType": "uint256",
          "name": "",
          "type": "uint256"
        }
      ],
      "stateMutability": "view",
      "type": "function"
    },
    {
      "inputs": [],
      "name": "MAX_SUPPLY",
      "outputs": [
        {
          "internalType": "uint256",
          "name": "",
          "type": "uint256"
        }
      ],
      "stateMutability": "view",
      "type": "function"
    },
    {
      "inputs": [
        {
          "internalType": "address",
          "name": "_owner",
          "type": "address"
        },
        {
          "internalType": "address",
          "name": "_spender",
          "type": "address"
        },
        {
          "internalType": "uint256",
          "name": "subtractedValue",
          "type": "uint256"
        }
      ],
      "name": "_decreaseAllowance",
      "outputs": [
        {
          "internalType": "bool",
          "name": "",
          "type": "bool"
        }
      ],
      "stateMutability": "nonpayable",
      "type": "function"
    },
    {
      "inputs": [],
      "name": "accRewardPerShare12",
      "outputs": [
        {
          "internalType": "uint256",
          "name": "",
          "type": "uint256"
        }
      ],
      "stateMutability": "view",
      "type": "function"
    },
    {
      "inputs": [
        {
          "internalType": "address",
          "name": "_owner",
          "type": "address"
        },
        {
          "internalType": "address",
          "name": "_spender",
          "type": "address"
        }
      ],
      "name": "allowance",
      "outputs": [
        {
          "internalType": "uint256",
          "name": "",
          "type": "uint256"
        }
      ],
      "stateMutability": "view",
      "type": "function"
    },
    {
      "inputs": [],
      "name": "alpha",
      "outputs": [
        {
          "internalType": "uint256",
          "name": "",
          "type": "uint256"
        }
      ],
      "stateMutability": "view",
      "type": "function"
    },
    {
      "inputs": [
        {
          "internalType": "address",
          "name": "spender",
          "type": "address"
        },
        {
          "internalType": "uint256",
          "name": "amount",
          "type": "uint256"
        }
      ],
      "name": "approve",
      "outputs": [
        {
          "internalType": "bool",
          "name": "",
          "type": "bool"
        }
      ],
      "stateMutability": "nonpayable",
      "type": "function"
    },
    {
      "inputs": [
        {
          "internalType": "address",
          "name": "account",
          "type": "address"
        }
      ],
      "name": "balanceOf",
      "outputs": [
        {
          "internalType": "uint256",
          "name": "",
          "type": "uint256"
        }
      ],
      "stateMutability": "view",
      "type": "function"
    },
    {
      "inputs": [
        {
          "internalType": "address",
          "name": "from",
          "type": "address"
        },
        {
          "internalType": "uint256",
          "name": "amount",
          "type": "uint256"
        }
      ],
      "name": "burn",
      "outputs": [],
      "stateMutability": "nonpayable",
      "type": "function"
    },
    {
      "inputs": [],
      "name": "checkForConsistency",
      "outputs": [
        {
          "internalType": "uint256",
          "name": "pending_collective",
          "type": "uint256"
        },
        {
          "internalType": "uint256",
          "name": "pending_marginal",
          "type": "uint256"
        },
        {
          "internalType": "uint256",
          "name": "abs_error",
          "type": "uint256"
        },
        {
          "internalType": "uint256",
          "name": "error_rate",
          "type": "uint256"
        }
      ],
      "stateMutability": "view",
      "type": "function"
    },
    {
      "inputs": [],
      "name": "decimals",
      "outputs": [
        {
          "internalType": "uint8",
          "name": "",
          "type": "uint8"
        }
      ],
      "stateMutability": "view",
      "type": "function"
    },
    {
      "inputs": [
        {
          "internalType": "address",
          "name": "spender",
          "type": "address"
        },
        {
          "internalType": "uint256",
          "name": "subtractedValue",
          "type": "uint256"
        }
      ],
      "name": "decreaseAllowance",
      "outputs": [
        {
          "internalType": "bool",
          "name": "",
          "type": "bool"
        }
      ],
      "stateMutability": "nonpayable",
      "type": "function"
    },
    {
      "inputs": [],
      "name": "distCycle",
      "outputs": [
        {
          "internalType": "uint256",
          "name": "",
          "type": "uint256"
        }
      ],
      "stateMutability": "view",
      "type": "function"
    },
    {
      "inputs": [],
      "name": "getTotalState",
      "outputs": [
        {
          "internalType": "uint256",
          "name": "totalSupply",
          "type": "uint256"
        },
        {
          "internalType": "uint256",
          "name": "_latestBlock",
          "type": "uint256"
        },
        {
          "internalType": "uint256",
          "name": "_accRewardPerShare12",
          "type": "uint256"
        },
        {
          "internalType": "uint256",
          "name": "_rewordPool",
          "type": "uint256"
        },
        {
          "internalType": "uint256",
          "name": "_totalPendingReward",
          "type": "uint256"
        }
      ],
      "stateMutability": "view",
      "type": "function"
    },
    {
      "inputs": [
        {
          "internalType": "address",
          "name": "user",
          "type": "address"
        }
      ],
      "name": "getUserState",
      "outputs": [
        {
          "internalType": "uint256",
          "name": "_share",
          "type": "uint256"
        },
        {
          "internalType": "uint256",
          "name": "_reward",
          "type": "uint256"
        },
        {
          "internalType": "uint256",
          "name": "_rewardDebt",
          "type": "uint256"
        },
        {
          "internalType": "uint256",
          "name": "_userPendingReward",
          "type": "uint256"
        }
      ],
      "stateMutability": "view",
      "type": "function"
    },
    {
      "inputs": [
        {
          "internalType": "address",
          "name": "spender",
          "type": "address"
        },
        {
          "internalType": "uint256",
          "name": "addedValue",
          "type": "uint256"
        }
      ],
      "name": "increaseAllowance",
      "outputs": [
        {
          "internalType": "bool",
          "name": "",
          "type": "bool"
        }
      ],
      "stateMutability": "nonpayable",
      "type": "function"
    },
    {
      "inputs": [
        {
          "internalType": "address",
          "name": "to",
          "type": "address"
        },
        {
          "internalType": "uint256",
          "name": "amount",
          "type": "uint256"
        }
      ],
      "name": "mint",
      "outputs": [],
      "stateMutability": "nonpayable",
      "type": "function"
    },
    {
      "inputs": [],
      "name": "name",
      "outputs": [
        {
          "internalType": "string",
          "name": "",
          "type": "string"
        }
      ],
      "stateMutability": "view",
      "type": "function"
    },
    {
      "inputs": [],
      "name": "owner",
      "outputs": [
        {
          "internalType": "address",
          "name": "",
          "type": "address"
        }
      ],
      "stateMutability": "view",
      "type": "function"
    },
    {
      "inputs": [],
      "name": "renounceOwnership",
      "outputs": [],
      "stateMutability": "nonpayable",
      "type": "function"
    },
    {
      "inputs": [],
      "name": "rewardPool",
      "outputs": [
        {
          "internalType": "uint256",
          "name": "",
          "type": "uint256"
        }
      ],
      "stateMutability": "view",
      "type": "function"
    },
    {
      "inputs": [],
      "name": "symbol",
      "outputs": [
        {
          "internalType": "string",
          "name": "",
          "type": "string"
        }
      ],
      "stateMutability": "view",
      "type": "function"
    },
    {
      "inputs": [],
      "name": "totalSupply",
      "outputs": [
        {
          "internalType": "uint256",
          "name": "",
          "type": "uint256"
        }
      ],
      "stateMutability": "view",
      "type": "function"
    },
    {
      "inputs": [
        {
          "internalType": "address",
          "name": "recipient",
          "type": "address"
        },
        {
          "internalType": "uint256",
          "name": "amount",
          "type": "uint256"
        }
      ],
      "name": "transfer",
      "outputs": [
        {
          "internalType": "bool",
          "name": "",
          "type": "bool"
        }
      ],
      "stateMutability": "nonpayable",
      "type": "function"
    },
    {
      "inputs": [
        {
          "internalType": "address",
          "name": "sender",
          "type": "address"
        },
        {
          "internalType": "address",
          "name": "recipient",
          "type": "address"
        },
        {
          "internalType": "uint256",
          "name": "amount",
          "type": "uint256"
        }
      ],
      "name": "transferFrom",
      "outputs": [
        {
          "internalType": "bool",
          "name": "",
          "type": "bool"
        }
      ],
      "stateMutability": "nonpayable",
      "type": "function"
    },
    {
      "inputs": [
        {
          "internalType": "address",
          "name": "newOwner",
          "type": "address"
        }
      ],
      "name": "transferOwnership",
      "outputs": [],
      "stateMutability": "nonpayable",
      "type": "function"
    },
    {
      "inputs": [],
      "name": "upadateWithTotalShare",
      "outputs": [],
      "stateMutability": "nonpayable",
      "type": "function"
    }
  ],
  "bytecode": "0x60806040523480156200001157600080fd5b50604051620021c8380380620021c8833981016040819052620000349162000745565b6200003f33620000fb565b600c80546001600160a01b0383166001600160a01b031991821617909155436004556009805482167370997970c51812dc3a010c7d01b50e0d17dc79c8179055600a80548216733c44cdddb6a900fa2b585dd299e03d12fa4293bc179055600b80549091167390f79bf6eb2c4f870365e785982e1f101e93b906179055620000f4620000d36000546001600160a01b031690565b620000e16012600662000786565b620000ee90600a620008ab565b6200014b565b50620009c9565b600080546001600160a01b038381166001600160a01b0319831681178455604051919092169283917f8be0079c531659141344cd1fd0a4f28419497f9722a3daafe3b4186f6b6457e09190a35050565b60408051808201909152600c81526b5a65726f206164647265737360a01b60208201526001600160a01b038316620001a15760405162461bcd60e51b8152600401620001989190620008bc565b60405180910390fd5b50620001b082826001620001b4565b5050565b620001be62000362565b6001600160a01b038316600090815260086020908152604080832054600290925282205460075464e8d4a510009291620001f89162000914565b62000204919062000936565b62000210919062000966565b9050806006600082825462000226919062000936565b90915550506001600160a01b038416600090815260026020526040812080548392906200025590849062000989565b92505081905550806003600082825462000270919062000989565b90915550508115620002cd576001600160a01b03841660009081526002602052604081208054859290620002a690849062000989565b925050819055508260036000828254620002c1919062000989565b90915550620003189050565b6001600160a01b03841660009081526002602052604081208054859290620002f790849062000936565b92505081905550826003600082825462000312919062000936565b90915550505b6001600160a01b03841660009081526002602052604090205460075462000340919062000914565b6001600160a01b03909416600090815260086020526040902093909355505050565b60006004544362000374919062000936565b905060006005548262000388919062000936565b90508015620001b0576005829055600c5460009081906001600160a01b0316635aff34dc620003bd610309620186a062000989565b6040516001600160e01b031960e084901b1681526004810191909152620186a0602482015260448101869052601e60648201526084016040805180830381865afa15801562000410573d6000803e3d6000fd5b505050506040513d601f19601f82011682018060405250810190620004369190620009a4565b915091506000600354620004596003548585620004d060201b62000a551760201c565b62000465919062000936565b905080600660008282546200047b919062000989565b9250508190555064e8d4a51000620004a564e8d4a510008585620004d060201b62000a551760201c565b620004b1919062000936565b60076000828254620004c4919062000989565b90915550505050505050565b60008080620004e08686620005cd565b91509150816000036200050a57838181620004ff57620004ff62000950565b0492505050620005c6565b83821015620005c15760006200052287878762000621565b9050600080620005348585856200063f565b9150915081600003620005615786818162000553576200055362000950565b0495505050505050620005c6565b60008762000570828262000675565b1690506000620005828484846200068c565b90506000620005a3838b816200059c576200059c62000950565b04620006e3565b9050620005b1828262000728565b98505050505050505050620005c6565b600080fd5b9392505050565b60008080620005dd858562000736565b90506000620005ed868662000728565b9050808210620006055790819003925090506200061a565b600162000613838362000675565b0393509150505b9250929050565b6000818062000634576200063462000950565b838509949350505050565b6000808284106200065757508390508183036200066d565b600019850162000668858562000675565b915091505b935093915050565b600062000683828462000936565b90505b92915050565b600080620006b883620006a0838262000675565b81620006b057620006b062000950565b506000919050565b9050828481620006cc57620006cc62000950565b04620006d9868362000728565b1795945050505050565b60006001815b6008811015620007215762000716826200071060026200070a838962000728565b62000675565b62000728565b9150600101620006e9565b5092915050565b600062000683828462000914565b60006000198284099392505050565b6000602082840312156200075857600080fd5b81516001600160a01b0381168114620005c657600080fd5b634e487b7160e01b600052601160045260246000fd5b600060ff821660ff84168060ff03821115620007a657620007a662000770565b019392505050565b600181815b80851115620007ef578160001904821115620007d357620007d362000770565b80851615620007e157918102915b93841c9390800290620007b3565b509250929050565b600082620008085750600162000686565b81620008175750600062000686565b81600181146200083057600281146200083b576200085b565b600191505062000686565b60ff8411156200084f576200084f62000770565b50506001821b62000686565b5060208310610133831016604e8410600b841016171562000880575081810a62000686565b6200088c8383620007ae565b8060001904821115620008a357620008a362000770565b029392505050565b60006200068360ff841683620007f7565b600060208083528351808285015260005b81811015620008eb57858101830151858201604001528201620008cd565b81811115620008fe576000604083870101525b50601f01601f1916929092016040019392505050565b600081600019048311821515161562000931576200093162000770565b500290565b6000828210156200094b576200094b62000770565b500390565b634e487b7160e01b600052601260045260246000fd5b6000826200098457634e487b7160e01b600052601260045260246000fd5b500490565b600082198211156200099f576200099f62000770565b500190565b60008060408385031215620009b857600080fd5b505080516020909101519092909150565b6117ef80620009d96000396000f3fe608060405234801561001057600080fd5b50600436106101c45760003560e01c806370a08231116100f9578063a457c2d711610097578063d1daefb411610071578063d1daefb4146103d3578063db1d0fd5146103dc578063dd62ed3e146103e4578063f2fde38b1461041d57600080fd5b8063a457c2d71461037d578063a9059cbb14610390578063bdfeb1e5146103a357600080fd5b80638da5cb5b116100d35780638da5cb5b1461031c57806395d89b41146103375780639dc29fac14610357578063a150da2a1461036a57600080fd5b806370a08231146102f9578063715018a61461030c578063739572891461031457600080fd5b806332cb6b0c11610166578063416ae76811610140578063416ae768146102ad57806357627e93146102e057806366666aa9146102e85780636863909e146102f157600080fd5b806332cb6b0c1461027d578063395093511461028557806340c10f191461029857600080fd5b806323b872dd116101a257806323b872dd146102415780632e0f2625146102545780632ff2e9dc1461026e578063313ce5671461027657600080fd5b806306fdde03146101c9578063095ea7b31461020857806318160ddd1461022b575b600080fd5b60408051808201909152601181527010dbdb5c1bdd5b99115e1c14995dd85c99607a1b60208201525b6040516101ff9190611487565b60405180910390f35b61021b6102163660046114f8565b610430565b60405190151581526020016101ff565b610233610447565b6040519081526020016101ff565b61021b61024f366004611522565b610456565b61025c601281565b60405160ff90911681526020016101ff565b6102336104f9565b601261025c565b610233610513565b61021b6102933660046114f8565b610536565b6102ab6102a63660046114f8565b610543565b005b6102c06102bb36600461155e565b6105f3565b6040805194855260208501939093529183015260608201526080016101ff565b610233601e81565b61023360065481565b6102ab610634565b61023361030736600461155e565b610770565b6102ab61077b565b6102c06107b1565b6000546040516001600160a01b0390911681526020016101ff565b6040805180820190915260048152634345525760e01b60208201526101f2565b6102ab6103653660046114f8565b6108c1565b61021b610378366004611522565b6108f5565b61021b61038b3660046114f8565b610981565b61021b61039e3660046114f8565b61098e565b6103ab61099b565b604080519586526020860194909452928401919091526060830152608082015260a0016101ff565b61023360075481565b610233600c81565b6102336103f2366004611579565b6001600160a01b03918216600090815260016020908152604080832093909416825291909152205490565b6102ab61042b36600461155e565b6109ba565b600061043d338484610b2b565b5060015b92915050565b6000610451610bed565b905090565b60006001600160a01b03841633146104e3576001600160a01b0384166000908152600160209081526040808320338452909152902054828110156104e15760405162461bcd60e51b815260206004820152601a60248201527f5472616e73666572206578636565647320616c6c6f77616e636500000000000060448201526064015b60405180910390fd5b505b6104ee848484610c04565b5060015b9392505050565b610505601260066115c2565b61051090600a6116cb565b81565b61051f601260066115c2565b61052a90600a6116cb565b610510906103e86116da565b60006104f2338484610d10565b6000546001600160a01b0316331461056d5760405162461bcd60e51b81526004016104d8906116f9565b610579601260066115c2565b61058490600a6116cb565b610590906103e86116da565b81610599610bed565b6105a3919061172e565b11156105e55760405162461bcd60e51b8152602060048201526011602482015270457863656564204d617820537570706c7960781b60448201526064016104d8565b6105ef8282610d97565b5050565b6001600160a01b0381166000908152600260209081526040808320546008909252822060018101549054919290919061062b85610dee565b90509193509193565b6000600454436106449190611746565b90506000600554826106569190611746565b905080156105ef576005829055600c5460009081906001600160a01b0316635aff34dc610688610309620186a061172e565b6040516001600160e01b031960e084901b1681526004810191909152620186a0602482015260448101869052601e60648201526084016040805180830381865afa1580156106da573d6000803e3d6000fd5b505050506040513d601f19601f820116820180604052508101906106fe919061175d565b9150915060006003546107146003548585610a55565b61071e9190611746565b90508060066000828254610732919061172e565b9091555064e8d4a510009050610749818585610a55565b6107539190611746565b60076000828254610764919061172e565b90915550505050505050565b600061044182610f8c565b6000546001600160a01b031633146107a55760405162461bcd60e51b81526004016104d8906116f9565b6107af6000610fba565b565b6000806000806006546107c261100a565b6107cc919061172e565b935060006107ea6107e56000546001600160a01b031690565b610dee565b90506107f6818561172e565b60095490945061080e906001600160a01b0316610dee565b905061081a818561172e565b600a54909450610832906001600160a01b0316610dee565b905061083e818561172e565b600b54909450610856906001600160a01b0316610dee565b9050610862818561172e565b93508385101561087d576108768585611746565b925061088a565b6108878486611746565b92505b84848110156108965750835b80156108b957806108ac8564e8d4a510006116da565b6108b69190611797565b92505b505090919293565b6000546001600160a01b031633146108eb5760405162461bcd60e51b81526004016104d8906116f9565b6105ef82826110f5565b60408051808201909152600c81526b5a65726f206164647265737360a01b60208201526000906001600160a01b0385166109425760405162461bcd60e51b81526004016104d89190611487565b506001600160a01b038085166000908152600160209081526040808320938716835292905220546104ee908590859061097c908690611746565b610b2b565b60006104f23384846108f5565b600061043d338484610c04565b60035460055460075460065460006109b161100a565b90509091929394565b6000546001600160a01b031633146109e45760405162461bcd60e51b81526004016104d8906116f9565b6001600160a01b038116610a495760405162461bcd60e51b815260206004820152602660248201527f4f776e61626c653a206e6577206f776e657220697320746865207a65726f206160448201526564647265737360d01b60648201526084016104d8565b610a5281610fba565b50565b6000806000610a6486866111a9565b9150915081600003610a8957838181610a7f57610a7f611781565b04925050506104f2565b838210156101c4576000610a9e8787876111f6565b9050600080610aae858585611211565b9150915081600003610ad657868181610ac957610ac9611781565b04955050505050506104f2565b600087610ae460008a611242565b1690506000610af484848461124e565b90506000610b10838b81610b0a57610b0a611781565b0461129b565b9050610b1c82826112d8565b985050505050505050506104f2565b60408051808201909152600c81526b5a65726f206164647265737360a01b60208201526001600160a01b038416610b755760405162461bcd60e51b81526004016104d89190611487565b5060408051808201909152600c81526b5a65726f206164647265737360a01b60208201526001600160a01b038316610bc05760405162461bcd60e51b81526004016104d89190611487565b506001600160a01b0392831660009081526001602090815260408083209490951682529290925291902055565b6000610bf761100a565b600354610451919061172e565b60408051808201909152600c81526b5a65726f206164647265737360a01b60208201526001600160a01b038416610c4e5760405162461bcd60e51b81526004016104d89190611487565b5060408051808201909152600c81526b5a65726f206164647265737360a01b60208201526001600160a01b038316610c995760405162461bcd60e51b81526004016104d89190611487565b506000610ca584610f8c565b9050818110156040518060400160405280600f81526020016e457863656564732062616c616e636560881b81525090610cf15760405162461bcd60e51b81526004016104d89190611487565b50610cfe848360006112e4565b610d0a838360016112e4565b50505050565b60408051808201909152600c81526b5a65726f206164647265737360a01b60208201526000906001600160a01b038516610d5d5760405162461bcd60e51b81526004016104d89190611487565b506001600160a01b038085166000908152600160209081526040808320938716835292905220546104ee908590859061097c90869061172e565b60408051808201909152600c81526b5a65726f206164647265737360a01b60208201526001600160a01b038316610de15760405162461bcd60e51b81526004016104d89190611487565b506105ef828260016112e4565b6001600160a01b03811660009081526008602052604081205464e8d4a5100090811015610e3057506001600160a01b0382166000908152600860205260409020545b6001600160a01b038316600090815260086020908152604080832054600290925282205460075464e8d4a510009291610e68916116da565b610e729190611746565b610e7c9190611797565b9050600060045443610e8e9190611746565b9050600060055482610ea09190611746565b600c5490915060009081906001600160a01b0316635aff34dc610ec8610309620186a061172e565b6040516001600160e01b031960e084901b1681526004810191909152620186a0602482015260448101869052601e60648201526084016040805180830381865afa158015610f1a573d6000803e3d6000fd5b505050506040513d601f19601f82011682018060405250810190610f3e919061175d565b6001600160a01b038a1660009081526002602052604081205492945090925090610f69818585610a55565b610f739190611746565b9050610f7f818761172e565b9998505050505050505050565b6000610f9782610dee565b6001600160a01b038316600090815260026020526040902054610441919061172e565b600080546001600160a01b038381166001600160a01b0319831681178455604051919092169283917f8be0079c531659141344cd1fd0a4f28419497f9722a3daafe3b4186f6b6457e09190a35050565b6000806004544361101b9190611746565b905060006005548261102d9190611746565b600c5490915060009081906001600160a01b0316635aff34dc611055610309620186a061172e565b6040516001600160e01b031960e084901b1681526004810191909152620186a0602482015260448101869052601e60648201526084016040805180830381865afa1580156110a7573d6000803e3d6000fd5b505050506040513d601f19601f820116820180604052508101906110cb919061175d565b9150915060006003546110e16003548585610a55565b6110eb9190611746565b9695505050505050565b60408051808201909152600c81526b5a65726f206164647265737360a01b60208201526001600160a01b03831661113f5760405162461bcd60e51b81526004016104d89190611487565b50600061114b83610f8c565b9050818110156040518060400160405280600f81526020016e457863656564732062616c616e636560881b815250906111975760405162461bcd60e51b81526004016104d89190611487565b506111a4838360006112e4565b505050565b60008060006111b88585611478565b905060006111c686866112d8565b90508082106111dc5790819003925090506111ef565b60016111e88383611242565b0393509150505b9250929050565b6000818061120657611206611781565b838509949350505050565b600080828410611227575083905081830361123a565b600185036112358585611242565b915091505b935093915050565b60006104f28284611746565b60008061127583611260600086611242565b8161126d5761126d611781565b506000919050565b905082848161128657611286611781565b0461129186836112d8565b1795945050505050565b60006001815b60088110156112d1576112c7826112c260026112bd86896112d8565b611242565b6112d8565b91506001016112a1565b5092915050565b60006104f282846116da565b6112ec610634565b6001600160a01b038316600090815260086020908152604080832054600290925282205460075464e8d4a510009291611324916116da565b61132e9190611746565b6113389190611797565b9050806006600082825461134c9190611746565b90915550506001600160a01b0384166000908152600260205260408120805483929061137990849061172e565b925050819055508060036000828254611392919061172e565b909155505081156113e9576001600160a01b038416600090815260026020526040812080548592906113c590849061172e565b9250508190555082600360008282546113de919061172e565b909155506114309050565b6001600160a01b03841660009081526002602052604081208054859290611411908490611746565b92505081905550826003600082825461142a9190611746565b90915550505b6001600160a01b03841660009081526002602052604090205460075461145691906116da565b6001600160a01b03909416600090815260086020526040902093909355505050565b60006000198284099392505050565b600060208083528351808285015260005b818110156114b457858101830151858201604001528201611498565b818111156114c6576000604083870101525b50601f01601f1916929092016040019392505050565b80356001600160a01b03811681146114f357600080fd5b919050565b6000806040838503121561150b57600080fd5b611514836114dc565b946020939093013593505050565b60008060006060848603121561153757600080fd5b611540846114dc565b925061154e602085016114dc565b9150604084013590509250925092565b60006020828403121561157057600080fd5b6104f2826114dc565b6000806040838503121561158c57600080fd5b611595836114dc565b91506115a3602084016114dc565b90509250929050565b634e487b7160e01b600052601160045260246000fd5b600060ff821660ff84168060ff038211156115df576115df6115ac565b019392505050565b600181815b80851115611622578160001904821115611608576116086115ac565b8085161561161557918102915b93841c93908002906115ec565b509250929050565b60008261163957506001610441565b8161164657506000610441565b816001811461165c576002811461166657611682565b6001915050610441565b60ff841115611677576116776115ac565b50506001821b610441565b5060208310610133831016604e8410600b84101617156116a5575081810a610441565b6116af83836115e7565b80600019048211156116c3576116c36115ac565b029392505050565b60006104f260ff84168361162a565b60008160001904831182151516156116f4576116f46115ac565b500290565b6020808252818101527f4f776e61626c653a2063616c6c6572206973206e6f7420746865206f776e6572604082015260600190565b60008219821115611741576117416115ac565b500190565b600082821015611758576117586115ac565b500390565b6000806040838503121561177057600080fd5b505080516020909101519092909150565b634e487b7160e01b600052601260045260246000fd5b6000826117b457634e487b7160e01b600052601260045260246000fd5b50049056fea26469706673582212205a45be6c3d308e088e264fe91035eda4c2d6e5b352768ac642a7101b6ca492f064736f6c634300080e0033",
  "linkReferences": {},
  "deployedLinkReferences": {}
}