{
  "_format": "hh-sol-artifact-1",
  "contractName": "Keep3rHelperForTest",
  "sourceName": "contracts/for-test/Keep3rHelperForTest.sol",
  "abi": [
    {
      "inputs": [
        {
          "internalType": "address",
          "name": "_keep3rV2",
          "type": "address"
        },
        {
          "internalType": "address",
          "name": "_governance",
          "type": "address"
        }
      ],
      "stateMutability": "nonpayable",
      "type": "constructor"
    },
    {
      "inputs": [],
      "name": "InvalidKp3rPool",
      "type": "error"
    },
    {
      "inputs": [],
      "name": "LiquidityPairInvalid",
      "type": "error"
    },
    {
      "inputs": [],
      "name": "NoGovernanceZeroAddress",
      "type": "error"
    },
    {
      "inputs": [],
      "name": "OnlyGovernance",
      "type": "error"
    },
    {
      "inputs": [],
      "name": "OnlyPendingGovernance",
      "type": "error"
    },
    {
      "anonymous": false,
      "inputs": [
        {
          "indexed": false,
          "internalType": "address",
          "name": "_pendingGovernance",
          "type": "address"
        }
      ],
      "name": "GovernanceProposal",
      "type": "event"
    },
    {
      "anonymous": false,
      "inputs": [
        {
          "indexed": false,
          "internalType": "address",
          "name": "_governance",
          "type": "address"
        }
      ],
      "name": "GovernanceSet",
      "type": "event"
    },
    {
      "anonymous": false,
      "inputs": [
        {
          "indexed": false,
          "internalType": "address",
          "name": "_keep3rV2",
          "type": "address"
        }
      ],
      "name": "Keep3rV2Change",
      "type": "event"
    },
    {
      "anonymous": false,
      "inputs": [
        {
          "indexed": false,
          "internalType": "address",
          "name": "_address",
          "type": "address"
        },
        {
          "indexed": false,
          "internalType": "bool",
          "name": "_isKP3RToken0",
          "type": "bool"
        }
      ],
      "name": "Kp3rWethPoolChange",
      "type": "event"
    },
    {
      "anonymous": false,
      "inputs": [
        {
          "indexed": false,
          "internalType": "uint256",
          "name": "_maxBoost",
          "type": "uint256"
        }
      ],
      "name": "MaxBoostChange",
      "type": "event"
    },
    {
      "anonymous": false,
      "inputs": [
        {
          "indexed": false,
          "internalType": "uint256",
          "name": "_minBoost",
          "type": "uint256"
        }
      ],
      "name": "MinBoostChange",
      "type": "event"
    },
    {
      "anonymous": false,
      "inputs": [
        {
          "indexed": false,
          "internalType": "uint32",
          "name": "_quoteTwapTime",
          "type": "uint32"
        }
      ],
      "name": "QuoteTwapTimeChange",
      "type": "event"
    },
    {
      "anonymous": false,
      "inputs": [
        {
          "indexed": false,
          "internalType": "uint256",
          "name": "_targetBond",
          "type": "uint256"
        }
      ],
      "name": "TargetBondChange",
      "type": "event"
    },
    {
      "anonymous": false,
      "inputs": [
        {
          "indexed": false,
          "internalType": "uint256",
          "name": "_workExtraGas",
          "type": "uint256"
        }
      ],
      "name": "WorkExtraGasChange",
      "type": "event"
    },
    {
      "inputs": [],
      "name": "BOOST_BASE",
      "outputs": [
        {
          "internalType": "uint256",
          "name": "",
          "type": "uint256"
        }
      ],
      "stateMutability": "view",
      "type": "function"
    },
    {
      "inputs": [],
      "name": "KP3R",
      "outputs": [
        {
          "internalType": "address",
          "name": "",
          "type": "address"
        }
      ],
      "stateMutability": "view",
      "type": "function"
    },
    {
      "inputs": [],
      "name": "acceptGovernance",
      "outputs": [],
      "stateMutability": "nonpayable",
      "type": "function"
    },
    {
      "inputs": [],
      "name": "basefee",
      "outputs": [
        {
          "internalType": "uint256",
          "name": "",
          "type": "uint256"
        }
      ],
      "stateMutability": "view",
      "type": "function"
    },
    {
      "inputs": [
        {
          "internalType": "address",
          "name": "_keeper",
          "type": "address"
        }
      ],
      "name": "bonds",
      "outputs": [
        {
          "internalType": "uint256",
          "name": "_amountBonded",
          "type": "uint256"
        }
      ],
      "stateMutability": "view",
      "type": "function"
    },
    {
      "inputs": [
        {
          "internalType": "uint256",
          "name": "_liquidityAmount",
          "type": "uint256"
        },
        {
          "internalType": "int56",
          "name": "_tickDifference",
          "type": "int56"
        },
        {
          "internalType": "uint256",
          "name": "_timeInterval",
          "type": "uint256"
        }
      ],
      "name": "getKP3RsAtTick",
      "outputs": [
        {
          "internalType": "uint256",
          "name": "_kp3rAmount",
          "type": "uint256"
        }
      ],
      "stateMutability": "pure",
      "type": "function"
    },
    {
      "inputs": [
        {
          "internalType": "uint256",
          "name": "_bonds",
          "type": "uint256"
        }
      ],
      "name": "getPaymentParams",
      "outputs": [
        {
          "internalType": "uint256",
          "name": "_boost",
          "type": "uint256"
        },
        {
          "internalType": "uint256",
          "name": "_oneEthQuote",
          "type": "uint256"
        },
        {
          "internalType": "uint256",
          "name": "_extra",
          "type": "uint256"
        }
      ],
      "stateMutability": "view",
      "type": "function"
    },
    {
      "inputs": [
        {
          "internalType": "address",
          "name": "_pool",
          "type": "address"
        }
      ],
      "name": "getPoolTokens",
      "outputs": [
        {
          "internalType": "address",
          "name": "_token0",
          "type": "address"
        },
        {
          "internalType": "address",
          "name": "_token1",
          "type": "address"
        }
      ],
      "stateMutability": "view",
      "type": "function"
    },
    {
      "inputs": [
        {
          "internalType": "uint128",
          "name": "_baseAmount",
          "type": "uint128"
        },
        {
          "internalType": "int56",
          "name": "_tickDifference",
          "type": "int56"
        },
        {
          "internalType": "uint256",
          "name": "_timeInterval",
          "type": "uint256"
        }
      ],
      "name": "getQuoteAtTick",
      "outputs": [
        {
          "internalType": "uint256",
          "name": "_quoteAmount",
          "type": "uint256"
        }
      ],
      "stateMutability": "pure",
      "type": "function"
    },
    {
      "inputs": [
        {
          "internalType": "uint256",
          "name": "_gasUsed",
          "type": "uint256"
        }
      ],
      "name": "getRewardAmount",
      "outputs": [
        {
          "internalType": "uint256",
          "name": "_amount",
          "type": "uint256"
        }
      ],
      "stateMutability": "view",
      "type": "function"
    },
    {
      "inputs": [
        {
          "internalType": "address",
          "name": "_keeper",
          "type": "address"
        },
        {
          "internalType": "uint256",
          "name": "_gasUsed",
          "type": "uint256"
        }
      ],
      "name": "getRewardAmountFor",
      "outputs": [
        {
          "internalType": "uint256",
          "name": "_kp3r",
          "type": "uint256"
        }
      ],
      "stateMutability": "view",
      "type": "function"
    },
    {
      "inputs": [
        {
          "internalType": "uint256",
          "name": "_bonds",
          "type": "uint256"
        }
      ],
      "name": "getRewardBoostFor",
      "outputs": [
        {
          "internalType": "uint256",
          "name": "_rewardBoost",
          "type": "uint256"
        }
      ],
      "stateMutability": "view",
      "type": "function"
    },
    {
      "inputs": [],
      "name": "governance",
      "outputs": [
        {
          "internalType": "address",
          "name": "",
          "type": "address"
        }
      ],
      "stateMutability": "view",
      "type": "function"
    },
    {
      "inputs": [
        {
          "internalType": "address",
          "name": "_pool",
          "type": "address"
        }
      ],
      "name": "isKP3RToken0",
      "outputs": [
        {
          "internalType": "bool",
          "name": "_isKP3RToken0",
          "type": "bool"
        }
      ],
      "stateMutability": "view",
      "type": "function"
    },
    {
      "inputs": [],
      "name": "keep3rV2",
      "outputs": [
        {
          "internalType": "address",
          "name": "",
          "type": "address"
        }
      ],
      "stateMutability": "view",
      "type": "function"
    },
    {
      "inputs": [],
      "name": "kp3rWethPool",
      "outputs": [
        {
          "internalType": "address",
          "name": "poolAddress",
          "type": "address"
        },
        {
          "internalType": "bool",
          "name": "isKP3RToken0",
          "type": "bool"
        }
      ],
      "stateMutability": "view",
      "type": "function"
    },
    {
      "inputs": [],
      "name": "maxBoost",
      "outputs": [
        {
          "internalType": "uint256",
          "name": "",
          "type": "uint256"
        }
      ],
      "stateMutability": "view",
      "type": "function"
    },
    {
      "inputs": [],
      "name": "minBoost",
      "outputs": [
        {
          "internalType": "uint256",
          "name": "",
          "type": "uint256"
        }
      ],
      "stateMutability": "view",
      "type": "function"
    },
    {
      "inputs": [
        {
          "internalType": "address",
          "name": "_pool",
          "type": "address"
        },
        {
          "internalType": "uint32[]",
          "name": "_secondsAgo",
          "type": "uint32[]"
        }
      ],
      "name": "observe",
      "outputs": [
        {
          "internalType": "int56",
          "name": "_tickCumulative1",
          "type": "int56"
        },
        {
          "internalType": "int56",
          "name": "_tickCumulative2",
          "type": "int56"
        },
        {
          "internalType": "bool",
          "name": "_success",
          "type": "bool"
        }
      ],
      "stateMutability": "view",
      "type": "function"
    },
    {
      "inputs": [],
      "name": "pendingGovernance",
      "outputs": [
        {
          "internalType": "address",
          "name": "",
          "type": "address"
        }
      ],
      "stateMutability": "view",
      "type": "function"
    },
    {
      "inputs": [
        {
          "internalType": "uint256",
          "name": "_eth",
          "type": "uint256"
        }
      ],
      "name": "quote",
      "outputs": [
        {
          "internalType": "uint256",
          "name": "_amountOut",
          "type": "uint256"
        }
      ],
      "stateMutability": "view",
      "type": "function"
    },
    {
      "inputs": [],
      "name": "quoteTwapTime",
      "outputs": [
        {
          "internalType": "uint32",
          "name": "",
          "type": "uint32"
        }
      ],
      "stateMutability": "view",
      "type": "function"
    },
    {
      "inputs": [
        {
          "internalType": "uint256",
          "name": "_baseFee",
          "type": "uint256"
        }
      ],
      "name": "setBaseFee",
      "outputs": [],
      "stateMutability": "nonpayable",
      "type": "function"
    },
    {
      "inputs": [
        {
          "internalType": "address",
          "name": "_governance",
          "type": "address"
        }
      ],
      "name": "setGovernance",
      "outputs": [],
      "stateMutability": "nonpayable",
      "type": "function"
    },
    {
      "inputs": [
        {
          "internalType": "address",
          "name": "_keep3rV2",
          "type": "address"
        }
      ],
      "name": "setKeep3rV2",
      "outputs": [],
      "stateMutability": "nonpayable",
      "type": "function"
    },
    {
      "inputs": [
        {
          "internalType": "address",
          "name": "_poolAddress",
          "type": "address"
        }
      ],
      "name": "setKp3rWethPool",
      "outputs": [],
      "stateMutability": "nonpayable",
      "type": "function"
    },
    {
      "inputs": [
        {
          "internalType": "uint256",
          "name": "_maxBoost",
          "type": "uint256"
        }
      ],
      "name": "setMaxBoost",
      "outputs": [],
      "stateMutability": "nonpayable",
      "type": "function"
    },
    {
      "inputs": [
        {
          "internalType": "uint256",
          "name": "_minBoost",
          "type": "uint256"
        }
      ],
      "name": "setMinBoost",
      "outputs": [],
      "stateMutability": "nonpayable",
      "type": "function"
    },
    {
      "inputs": [
        {
          "internalType": "uint32",
          "name": "_quoteTwapTime",
          "type": "uint32"
        }
      ],
      "name": "setQuoteTwapTime",
      "outputs": [],
      "stateMutability": "nonpayable",
      "type": "function"
    },
    {
      "inputs": [
        {
          "internalType": "uint256",
          "name": "_targetBond",
          "type": "uint256"
        }
      ],
      "name": "setTargetBond",
      "outputs": [],
      "stateMutability": "nonpayable",
      "type": "function"
    },
    {
      "inputs": [
        {
          "internalType": "uint256",
          "name": "_workExtraGas",
          "type": "uint256"
        }
      ],
      "name": "setWorkExtraGas",
      "outputs": [],
      "stateMutability": "nonpayable",
      "type": "function"
    },
    {
      "inputs": [],
      "name": "targetBond",
      "outputs": [
        {
          "internalType": "uint256",
          "name": "",
          "type": "uint256"
        }
      ],
      "stateMutability": "view",
      "type": "function"
    },
    {
      "inputs": [],
      "name": "workExtraGas",
      "outputs": [
        {
          "internalType": "uint256",
          "name": "",
          "type": "uint256"
        }
      ],
      "stateMutability": "view",
      "type": "function"
    }
  ],
  "bytecode": "0x6080604052612af8600255612ee0600355680ad78ebc5ac620000060045561c3506005556006805463ffffffff19166102581790553480156200004157600080fd5b5060405162001e6f38038062001e6f8339810160408190526200006491620002ac565b81818181806001600160a01b038116620000905760405162b293ed60e81b815260040160405180910390fd5b600080546001600160a01b0319166001600160a01b0392831617905560068054600160201b600160c01b03191664010000000092851692909202919091179055620000ef7311b7a6bc0259ed6cf9db8f499988f9ecc7167bf5620000fb565b50505050505062000309565b6000731ceb5cb57c4d4e2b2433641b95dd330a33185a446001600160a01b0316826001600160a01b0316630dfe16816040518163ffffffff1660e01b8152600401602060405180830381865afa1580156200015a573d6000803e3d6000fd5b505050506040513d601f19601f82011682018060405250810190620001809190620002e4565b6001600160a01b03161490506000731ceb5cb57c4d4e2b2433641b95dd330a33185a446001600160a01b0316836001600160a01b031663d21220a76040518163ffffffff1660e01b8152600401602060405180830381865afa158015620001eb573d6000803e3d6000fd5b505050506040513d601f19601f82011682018060405250810190620002119190620002e4565b6001600160a01b0316149050811580156200022a575080155b156200024957604051637c395fed60e01b815260040160405180910390fd5b50604080518082019091526001600160a01b03929092168083529015156020909201829052600780546001600160a81b031916909117600160a01b909202919091179055565b80516001600160a01b0381168114620002a757600080fd5b919050565b60008060408385031215620002c057600080fd5b620002cb836200028f565b9150620002db602084016200028f565b90509250929050565b600060208284031215620002f757600080fd5b62000302826200028f565b9392505050565b611b5680620003196000396000f3fe608060405234801561001057600080fd5b50600436106101fb5760003560e01c80635cf249691161011a578063ab8cedc5116100ad578063ca4f28031161007c578063ca4f280314610472578063dc686d91146104a5578063ed1bd76c146104dd578063f39c38a0146104f0578063fe10d7741461050357600080fd5b8063ab8cedc514610426578063b2e0df9614610439578063b93f5af01461044c578063c84993af1461045f57600080fd5b80639aaad679116100e95780639aaad679146103c8578063a0d27107146103ed578063ab033ea914610400578063ab5dce001461041357600080fd5b80635cf2496914610355578063696a437b1461035e5780637b40c913146103815780638561579c146103bf57600080fd5b8063289adb4411610192578063435b21c111610161578063435b21c1146102ee578063468606981461031c578063516c33231461032f5780635aa6e6751461034257600080fd5b8063289adb44146102b657806337090c2f146102c95780633cc7ab30146102d25780633facf242146102e557600080fd5b80632248e82d116101ce5780632248e82d1461027b578063238efcbc1461029c57806325f09e61146102a45780632742b9e7146102ad57600080fd5b806305e0b9a0146102005780630c52583514610238578063117cfc1b1461024d578063160e1e3114610268575b600080fd5b61021b731ceb5cb57c4d4e2b2433641b95dd330a33185a4481565b6040516001600160a01b0390911681526020015b60405180910390f35b61024b61024636600461158d565b610516565b005b60065461021b9064010000000090046001600160a01b031681565b61024b6102763660046115be565b61057d565b61028e6102893660046115db565b6105fe565b60405190815260200161022f565b61024b610631565b61028e61271081565b61028e60045481565b61024b6102c436600461158d565b6106ba565b61028e60035481565b61024b6102e03660046115be565b61071a565b61028e60055481565b6103016102fc36600461158d565b6107a4565b6040805193845260208401929092529082015260600161022f565b61024b61032a36600461158d565b600855565b61028e61033d36600461158d565b6107d2565b60005461021b906001600160a01b031681565b61028e60085481565b61037161036c3660046115be565b610840565b604051901515815260200161022f565b6007546103a0906001600160a01b03811690600160a01b900460ff1682565b604080516001600160a01b03909316835290151560208301520161022f565b61028e60025481565b6006546103d89063ffffffff1681565b60405163ffffffff909116815260200161022f565b61028e6103fb366004611616565b6108c6565b61024b61040e3660046115be565b610902565b61024b61042136600461158d565b61097b565b61028e61043436600461164e565b6109db565b61024b61044736600461158d565b610a84565b61024b61045a3660046116a3565b610ae4565b61028e61046d36600461158d565b610b57565b6104856104803660046115be565b610b69565b604080516001600160a01b0393841681529290911660208301520161022f565b6104b86104b3366004611729565b610c39565b60408051600694850b81529290930b602083015215159181019190915260600161022f565b61028e6104eb36600461158d565b610d35565b60015461021b906001600160a01b031681565b61028e6105113660046115be565b610e81565b6000546001600160a01b03163314610541576040516354348f0360e01b815260040160405180910390fd5b60028190556040518181527f0919fdaaac0f59c6bc7eeef4f975d6163475220f1e4820d0bce99c84c51cac1d906020015b60405180910390a150565b6000546001600160a01b031633146105a8576040516354348f0360e01b815260040160405180910390fd5b6105b181610f12565b600754604080516001600160a01b0383168152600160a01b90920460ff16151560208301527f554c636366d5fc882a9ab4b7b9d5181781d1a7076abe50ed410365620dcf41089101610572565b60008061060d61033d85610e81565b905061062961271061061f83866117f1565b6104eb9190611826565b949350505050565b6001546001600160a01b0316331461065c57604051637ef5703160e11b815260040160405180910390fd5b60018054600080546001600160a01b0383166001600160a01b031991821681179092559091169091556040519081527fc73be659241aade67e9a059bcf21494955018b213dbd1179054ccf928b13f3b69060200160405180910390a1565b6000546001600160a01b031633146106e5576040516354348f0360e01b815260040160405180910390fd5b60058190556040518181527fed847bdbab1a30becee18585f23c759bd06156561390d2e7fbffd18e74b56c9b90602001610572565b6000546001600160a01b03163314610745576040516354348f0360e01b815260040160405180910390fd5b60068054640100000000600160c01b0319166401000000006001600160a01b038481168202929092179283905560405192041681527fcf744e4fc39d49b6d8103035078629b8a3be95adc007b0d663e96bdff777b10a90602001610572565b60008060006107ba670de0b6b3a7640000610d35565b91506107c5846107d2565b6005549095929450925050565b60006107e08260045461109e565b91506000610824600254600454856002546003546107fe919061183a565b61080891906117f1565b6108129190611826565b60025461081f9190611851565b6110b4565b905061082f60085490565b61083990826117f1565b9392505050565b600080600061084e84610b69565b9092509050731ceb5cb57c4d4e2b2433641b95dd330a33185a43196001600160a01b03831601610882575060019392505050565b6001600160a01b038116731ceb5cb57c4d4e2b2433641b95dd330a33185a44146108bf57604051637d7c8f2760e11b815260040160405180910390fd5b5050919050565b6000806108df6108da84600687900b611869565b6110c4565b90506108f9600160601b86836001600160a01b03166114e0565b95945050505050565b6000546001600160a01b0316331461092d576040516354348f0360e01b815260040160405180910390fd5b600180546001600160a01b0319166001600160a01b0383169081179091556040519081527fe987aaedf9d279143bdf1eee16cf1d0feb47742867d81083df8d6cd0a5ac857f90602001610572565b6000546001600160a01b031633146109a6576040516354348f0360e01b815260040160405180910390fd5b60048190556040518181527feac367d684b6ac6c6ae7e3e852c06f17e6354e0f1e7122832c3e6d17e0a2b71e90602001610572565b6000806109ef6108da84600687900b611869565b90506001600160801b036001600160a01b03821611610a3f576000610a1d6001600160a01b038316806117f1565b9050610a37600160c01b876001600160801b0316836114e0565b925050610a7c565b6000610a5e6001600160a01b03831680680100000000000000006114e0565b9050610a78600160801b876001600160801b0316836114e0565b9250505b509392505050565b6000546001600160a01b03163314610aaf576040516354348f0360e01b815260040160405180910390fd5b60038190556040518181527fa1292b4e7a0d916ccfd2bc83858b05f328e344d1f0f507d97ac66723ac7c2aaa90602001610572565b6000546001600160a01b03163314610b0f576040516354348f0360e01b815260040160405180910390fd5b6006805463ffffffff191663ffffffff83169081179091556040519081527fc806e26fb64e3a95f4b70abf4d87280555696244d01068b5f45b0e515aceb1de90602001610572565b6000610b6332836105fe565b92915050565b600080826001600160a01b0316630dfe16816040518163ffffffff1660e01b8152600401602060405180830381865afa158015610baa573d6000803e3d6000fd5b505050506040513d601f19601f82011682018060405250810190610bce9190611897565b836001600160a01b031663d21220a76040518163ffffffff1660e01b8152600401602060405180830381865afa158015610c0c573d6000803e3d6000fd5b505050506040513d601f19601f82011682018060405250810190610c309190611897565b91509150915091565b6000806000846001600160a01b031663883bdbfd856040518263ffffffff1660e01b8152600401610c6a91906118b4565b600060405180830381865afa925050508015610ca857506040513d6000823e601f3d908101601f19168201604052610ca5919081019061196d565b60015b610ce2573d808015610cd6576040519150601f19603f3d011682016040523d82523d6000602084013e610cdb565b606091505b5050610d2e565b81600081518110610cf557610cf5611a32565b60200260200101519450600182511115610d275781600181518110610d1c57610d1c611a32565b602002602001015193505b6001925050505b9250925092565b604080516002808252606082018352600092839291906020830190803683375050600654825192935063ffffffff16918391506001908110610d7957610d79611a32565b63ffffffff9092166020928302919091019091015260075460405163883bdbfd60e01b81526000916001600160a01b03169063883bdbfd90610dbf9085906004016118b4565b600060405180830381865afa158015610ddc573d6000803e3d6000fd5b505050506040513d6000823e601f3d908101601f19168201604052610e04919081019061196d565b509050600081600181518110610e1c57610e1c611a32565b602002602001015182600081518110610e3757610e37611a32565b6020026020010151610e499190611a48565b6007549091506108f9908690600160a01b900460ff16610e7157610e6c83611a98565b610e73565b825b60065463ffffffff166109db565b60065460405163a39744b560e01b81526001600160a01b038381166004830152731ceb5cb57c4d4e2b2433641b95dd330a33185a4460248301526000926401000000009004169063a39744b590604401602060405180830381865afa158015610eee573d6000803e3d6000fd5b505050506040513d601f19601f82011682018060405250810190610b639190611abe565b6000731ceb5cb57c4d4e2b2433641b95dd330a33185a446001600160a01b0316826001600160a01b0316630dfe16816040518163ffffffff1660e01b8152600401602060405180830381865afa158015610f70573d6000803e3d6000fd5b505050506040513d601f19601f82011682018060405250810190610f949190611897565b6001600160a01b03161490506000731ceb5cb57c4d4e2b2433641b95dd330a33185a446001600160a01b0316836001600160a01b031663d21220a76040518163ffffffff1660e01b8152600401602060405180830381865afa158015610ffe573d6000803e3d6000fd5b505050506040513d601f19601f820116820180604052508101906110229190611897565b6001600160a01b03161490508115801561103a575080155b1561105857604051637c395fed60e01b815260040160405180910390fd5b50604080518082019091526001600160a01b03929092168083529015156020909201829052600780546001600160a81b031916909117600160a01b909202919091179055565b60008183106110ad5781610839565b5090919050565b6000818310156110ad5781610839565b60008060008360020b126110db578260020b6110e8565b8260020b6110e890611ad7565b90506110f7620d89e719611af3565b60020b8111156111315760405162461bcd60e51b81526020600482015260016024820152601560fa1b604482015260640160405180910390fd5b60008160011660000361114857600160801b61115a565b6ffffcb933bd6fad37aa2d162d1a5940015b70ffffffffffffffffffffffffffffffffff1690506002821615611199576080611194826ffff97272373d413259a46990580e213a6117f1565b901c90505b60048216156111c35760806111be826ffff2e50f5f656932ef12357cf3c7fdcc6117f1565b901c90505b60088216156111ed5760806111e8826fffe5caca7e10e4e61c3624eaa0941cd06117f1565b901c90505b6010821615611217576080611212826fffcb9843d60f6159c9db58835c9266446117f1565b901c90505b602082161561124157608061123c826fff973b41fa98c081472e6896dfb254c06117f1565b901c90505b604082161561126b576080611266826fff2ea16466c96a3843ec78b326b528616117f1565b901c90505b6080821615611295576080611290826ffe5dee046a99a2a811c461f1969c30536117f1565b901c90505b6101008216156112c05760806112bb826ffcbe86c7900a88aedcffc83b479aa3a46117f1565b901c90505b6102008216156112eb5760806112e6826ff987a7253ac413176f2b074cf7815e546117f1565b901c90505b610400821615611316576080611311826ff3392b0822b70005940c7a398e4b70f36117f1565b901c90505b61080082161561134157608061133c826fe7159475a2c29b7443b29c7fa6e889d96117f1565b901c90505b61100082161561136c576080611367826fd097f3bdfd2022b8845ad8f792aa58256117f1565b901c90505b612000821615611397576080611392826fa9f746462d870fdf8a65dc1f90e061e56117f1565b901c90505b6140008216156113c25760806113bd826f70d869a156d2a1b890bb3df62baf32f76117f1565b901c90505b6180008216156113ed5760806113e8826f31be135f97d08fd981231505542fcfa66117f1565b901c90505b62010000821615611419576080611414826f09aa508b5b7a84e1c677de54f3e99bc96117f1565b901c90505b6202000082161561144457608061143f826e5d6af8dedb81196699c329225ee6046117f1565b901c90505b6204000082161561146e576080611469826d2216e584f5fa1ea926041bedfe986117f1565b901c90505b62080000821615611496576080611491826b048a170391f7dc42444e8fa26117f1565b901c90505b60008460020b13156114b1576114ae81600019611826565b90505b6114c064010000000082611b0c565b156114cc5760016114cf565b60005b6106299060ff16602083901c611851565b6000808060001985870985870292508281108382030391505080600003611519576000841161150e57600080fd5b508290049050610839565b80841161152557600080fd5b600084868809600260036001881981018916988990049182028318808302840302808302840302808302840302808302840302808302840302918202909203026000889003889004909101858311909403939093029303949094049190911702949350505050565b60006020828403121561159f57600080fd5b5035919050565b6001600160a01b03811681146115bb57600080fd5b50565b6000602082840312156115d057600080fd5b8135610839816115a6565b600080604083850312156115ee57600080fd5b82356115f9816115a6565b946020939093013593505050565b8060060b81146115bb57600080fd5b60008060006060848603121561162b57600080fd5b83359250602084013561163d81611607565b929592945050506040919091013590565b60008060006060848603121561166357600080fd5b83356001600160801b038116811461167a57600080fd5b9250602084013561163d81611607565b803563ffffffff8116811461169e57600080fd5b919050565b6000602082840312156116b557600080fd5b6108398261168a565b634e487b7160e01b600052604160045260246000fd5b604051601f8201601f1916810167ffffffffffffffff811182821017156116fd576116fd6116be565b604052919050565b600067ffffffffffffffff82111561171f5761171f6116be565b5060051b60200190565b6000806040838503121561173c57600080fd5b8235611747816115a6565b915060208381013567ffffffffffffffff81111561176457600080fd5b8401601f8101861361177557600080fd5b803561178861178382611705565b6116d4565b81815260059190911b820183019083810190888311156117a757600080fd5b928401925b828410156117cc576117bd8461168a565b825292840192908401906117ac565b80955050505050509250929050565b634e487b7160e01b600052601160045260246000fd5b600081600019048311821515161561180b5761180b6117db565b500290565b634e487b7160e01b600052601260045260246000fd5b60008261183557611835611810565b500490565b60008282101561184c5761184c6117db565b500390565b60008219821115611864576118646117db565b500190565b60008261187857611878611810565b600160ff1b821460001984141615611892576118926117db565b500590565b6000602082840312156118a957600080fd5b8151610839816115a6565b6020808252825182820181905260009190848201906040850190845b818110156118f257835163ffffffff16835292840192918401916001016118d0565b50909695505050505050565b600082601f83011261190f57600080fd5b8151602061191f61178383611705565b82815260059290921b8401810191818101908684111561193e57600080fd5b8286015b84811015611962578051611955816115a6565b8352918301918301611942565b509695505050505050565b6000806040838503121561198057600080fd5b825167ffffffffffffffff8082111561199857600080fd5b818501915085601f8301126119ac57600080fd5b815160206119bc61178383611705565b82815260059290921b840181019181810190898411156119db57600080fd5b948201945b83861015611a025785516119f381611607565b825294820194908201906119e0565b91880151919650909350505080821115611a1b57600080fd5b50611a28858286016118fe565b9150509250929050565b634e487b7160e01b600052603260045260246000fd5b60008160060b8360060b6000811281667fffffffffffff1901831281151615611a7357611a736117db565b81667fffffffffffff018313811615611a8e57611a8e6117db565b5090039392505050565b60008160060b667fffffffffffff198103611ab557611ab56117db565b60000392915050565b600060208284031215611ad057600080fd5b5051919050565b6000600160ff1b8201611aec57611aec6117db565b5060000390565b60008160020b627fffff198103611ab557611ab56117db565b600082611b1b57611b1b611810565b50069056fea26469706673582212200d0c9d30b16994903031a8052793fffe1d827a914806c08ea4f3915f6d63cbc864736f6c634300080e0033",
  "linkReferences": {},
  "deployedLinkReferences": {}
}