{
  "_format": "hh-sol-artifact-1",
  "contractName": "Keep3rForTest",
  "sourceName": "contracts/for-test/Keep3rForTest.sol",
  "abi": [
    {
      "inputs": [
        {
          "internalType": "address",
          "name": "_governance",
          "type": "address"
        },
        {
          "internalType": "address",
          "name": "_keep3rHelper",
          "type": "address"
        },
        {
          "internalType": "address",
          "name": "_keep3rV1",
          "type": "address"
        },
        {
          "internalType": "address",
          "name": "_keep3rV1Proxy",
          "type": "address"
        },
        {
          "internalType": "address",
          "name": "_kp3rWethPool",
          "type": "address"
        }
      ],
      "stateMutability": "nonpayable",
      "type": "constructor"
    },
    {
      "inputs": [],
      "name": "AlreadyAJob",
      "type": "error"
    },
    {
      "inputs": [],
      "name": "AlreadyAKeeper",
      "type": "error"
    },
    {
      "inputs": [],
      "name": "AlreadyDisputed",
      "type": "error"
    },
    {
      "inputs": [],
      "name": "BondsLocked",
      "type": "error"
    },
    {
      "inputs": [],
      "name": "BondsUnexistent",
      "type": "error"
    },
    {
      "inputs": [],
      "name": "Disputed",
      "type": "error"
    },
    {
      "inputs": [],
      "name": "DisputerExistent",
      "type": "error"
    },
    {
      "inputs": [],
      "name": "DisputerUnexistent",
      "type": "error"
    },
    {
      "inputs": [],
      "name": "InsufficientFunds",
      "type": "error"
    },
    {
      "inputs": [],
      "name": "InsufficientJobTokenCredits",
      "type": "error"
    },
    {
      "inputs": [],
      "name": "JobAlreadyAdded",
      "type": "error"
    },
    {
      "inputs": [],
      "name": "JobDisputed",
      "type": "error"
    },
    {
      "inputs": [],
      "name": "JobMigrationImpossible",
      "type": "error"
    },
    {
      "inputs": [],
      "name": "JobMigrationLocked",
      "type": "error"
    },
    {
      "inputs": [],
      "name": "JobMigrationUnavailable",
      "type": "error"
    },
    {
      "inputs": [],
      "name": "JobTokenCreditsLocked",
      "type": "error"
    },
    {
      "inputs": [],
      "name": "JobTokenInsufficient",
      "type": "error"
    },
    {
      "inputs": [],
      "name": "JobTokenUnexistent",
      "type": "error"
    },
    {
      "inputs": [],
      "name": "JobUnapproved",
      "type": "error"
    },
    {
      "inputs": [],
      "name": "JobUnavailable",
      "type": "error"
    },
    {
      "inputs": [],
      "name": "MinRewardPeriod",
      "type": "error"
    },
    {
      "inputs": [],
      "name": "NoGovernanceZeroAddress",
      "type": "error"
    },
    {
      "inputs": [],
      "name": "NotDisputed",
      "type": "error"
    },
    {
      "inputs": [],
      "name": "OnlyDisputer",
      "type": "error"
    },
    {
      "inputs": [],
      "name": "OnlyGovernance",
      "type": "error"
    },
    {
      "inputs": [],
      "name": "OnlyJobOwner",
      "type": "error"
    },
    {
      "inputs": [],
      "name": "OnlyPendingGovernance",
      "type": "error"
    },
    {
      "inputs": [],
      "name": "OnlyPendingJobOwner",
      "type": "error"
    },
    {
      "inputs": [],
      "name": "OnlySlasher",
      "type": "error"
    },
    {
      "inputs": [],
      "name": "SlasherExistent",
      "type": "error"
    },
    {
      "inputs": [],
      "name": "SlasherUnexistent",
      "type": "error"
    },
    {
      "inputs": [],
      "name": "TokenUnallowed",
      "type": "error"
    },
    {
      "inputs": [],
      "name": "UnbondsLocked",
      "type": "error"
    },
    {
      "inputs": [],
      "name": "UnbondsUnexistent",
      "type": "error"
    },
    {
      "inputs": [],
      "name": "ZeroAddress",
      "type": "error"
    },
    {
      "anonymous": false,
      "inputs": [
        {
          "indexed": true,
          "internalType": "address",
          "name": "_keeper",
          "type": "address"
        },
        {
          "indexed": true,
          "internalType": "address",
          "name": "_bond",
          "type": "address"
        },
        {
          "indexed": false,
          "internalType": "uint256",
          "name": "_amount",
          "type": "uint256"
        }
      ],
      "name": "Activation",
      "type": "event"
    },
    {
      "anonymous": false,
      "inputs": [
        {
          "indexed": false,
          "internalType": "uint256",
          "name": "_bondTime",
          "type": "uint256"
        }
      ],
      "name": "BondTimeChange",
      "type": "event"
    },
    {
      "anonymous": false,
      "inputs": [
        {
          "indexed": true,
          "internalType": "address",
          "name": "_keeper",
          "type": "address"
        },
        {
          "indexed": true,
          "internalType": "address",
          "name": "_bonding",
          "type": "address"
        },
        {
          "indexed": false,
          "internalType": "uint256",
          "name": "_amount",
          "type": "uint256"
        }
      ],
      "name": "Bonding",
      "type": "event"
    },
    {
      "anonymous": false,
      "inputs": [
        {
          "indexed": true,
          "internalType": "address",
          "name": "_jobOrKeeper",
          "type": "address"
        },
        {
          "indexed": true,
          "internalType": "address",
          "name": "_disputer",
          "type": "address"
        }
      ],
      "name": "Dispute",
      "type": "event"
    },
    {
      "anonymous": false,
      "inputs": [
        {
          "indexed": false,
          "internalType": "address",
          "name": "_disputer",
          "type": "address"
        }
      ],
      "name": "DisputerAdded",
      "type": "event"
    },
    {
      "anonymous": false,
      "inputs": [
        {
          "indexed": false,
          "internalType": "address",
          "name": "_disputer",
          "type": "address"
        }
      ],
      "name": "DisputerRemoved",
      "type": "event"
    },
    {
      "anonymous": false,
      "inputs": [
        {
          "indexed": false,
          "internalType": "address",
          "name": "_token",
          "type": "address"
        },
        {
          "indexed": false,
          "internalType": "uint256",
          "name": "_amount",
          "type": "uint256"
        },
        {
          "indexed": false,
          "internalType": "address",
          "name": "_to",
          "type": "address"
        }
      ],
      "name": "DustSent",
      "type": "event"
    },
    {
      "anonymous": false,
      "inputs": [
        {
          "indexed": false,
          "internalType": "uint256",
          "name": "_fee",
          "type": "uint256"
        }
      ],
      "name": "FeeChange",
      "type": "event"
    },
    {
      "anonymous": false,
      "inputs": [
        {
          "indexed": false,
          "internalType": "address",
          "name": "_pendingGovernance",
          "type": "address"
        }
      ],
      "name": "GovernanceProposal",
      "type": "event"
    },
    {
      "anonymous": false,
      "inputs": [
        {
          "indexed": false,
          "internalType": "address",
          "name": "_governance",
          "type": "address"
        }
      ],
      "name": "GovernanceSet",
      "type": "event"
    },
    {
      "anonymous": false,
      "inputs": [
        {
          "indexed": false,
          "internalType": "uint256",
          "name": "_inflationPeriod",
          "type": "uint256"
        }
      ],
      "name": "InflationPeriodChange",
      "type": "event"
    },
    {
      "anonymous": false,
      "inputs": [
        {
          "indexed": true,
          "internalType": "address",
          "name": "_job",
          "type": "address"
        },
        {
          "indexed": true,
          "internalType": "address",
          "name": "_jobOwner",
          "type": "address"
        }
      ],
      "name": "JobAddition",
      "type": "event"
    },
    {
      "anonymous": false,
      "inputs": [
        {
          "indexed": true,
          "internalType": "address",
          "name": "_fromJob",
          "type": "address"
        },
        {
          "indexed": false,
          "internalType": "address",
          "name": "_toJob",
          "type": "address"
        }
      ],
      "name": "JobMigrationRequested",
      "type": "event"
    },
    {
      "anonymous": false,
      "inputs": [
        {
          "indexed": false,
          "internalType": "address",
          "name": "_fromJob",
          "type": "address"
        },
        {
          "indexed": true,
          "internalType": "address",
          "name": "_toJob",
          "type": "address"
        }
      ],
      "name": "JobMigrationSuccessful",
      "type": "event"
    },
    {
      "anonymous": false,
      "inputs": [
        {
          "indexed": true,
          "internalType": "address",
          "name": "_job",
          "type": "address"
        },
        {
          "indexed": true,
          "internalType": "address",
          "name": "_previousOwner",
          "type": "address"
        },
        {
          "indexed": true,
          "internalType": "address",
          "name": "_newOwner",
          "type": "address"
        }
      ],
      "name": "JobOwnershipAssent",
      "type": "event"
    },
    {
      "anonymous": false,
      "inputs": [
        {
          "indexed": true,
          "internalType": "address",
          "name": "_job",
          "type": "address"
        },
        {
          "indexed": true,
          "internalType": "address",
          "name": "_owner",
          "type": "address"
        },
        {
          "indexed": true,
          "internalType": "address",
          "name": "_pendingOwner",
          "type": "address"
        }
      ],
      "name": "JobOwnershipChange",
      "type": "event"
    },
    {
      "anonymous": false,
      "inputs": [
        {
          "indexed": true,
          "internalType": "address",
          "name": "_job",
          "type": "address"
        },
        {
          "indexed": false,
          "internalType": "address",
          "name": "_liquidity",
          "type": "address"
        },
        {
          "indexed": true,
          "internalType": "address",
          "name": "_slasher",
          "type": "address"
        },
        {
          "indexed": false,
          "internalType": "uint256",
          "name": "_amount",
          "type": "uint256"
        }
      ],
      "name": "JobSlashLiquidity",
      "type": "event"
    },
    {
      "anonymous": false,
      "inputs": [
        {
          "indexed": true,
          "internalType": "address",
          "name": "_job",
          "type": "address"
        },
        {
          "indexed": false,
          "internalType": "address",
          "name": "_token",
          "type": "address"
        },
        {
          "indexed": true,
          "internalType": "address",
          "name": "_slasher",
          "type": "address"
        },
        {
          "indexed": false,
          "internalType": "uint256",
          "name": "_amount",
          "type": "uint256"
        }
      ],
      "name": "JobSlashToken",
      "type": "event"
    },
    {
      "anonymous": false,
      "inputs": [
        {
          "indexed": false,
          "internalType": "address",
          "name": "_keep3rHelper",
          "type": "address"
        }
      ],
      "name": "Keep3rHelperChange",
      "type": "event"
    },
    {
      "anonymous": false,
      "inputs": [
        {
          "indexed": false,
          "internalType": "address",
          "name": "_keep3rV1",
          "type": "address"
        }
      ],
      "name": "Keep3rV1Change",
      "type": "event"
    },
    {
      "anonymous": false,
      "inputs": [
        {
          "indexed": false,
          "internalType": "address",
          "name": "_keep3rV1Proxy",
          "type": "address"
        }
      ],
      "name": "Keep3rV1ProxyChange",
      "type": "event"
    },
    {
      "anonymous": false,
      "inputs": [
        {
          "indexed": true,
          "internalType": "address",
          "name": "_keeper",
          "type": "address"
        },
        {
          "indexed": true,
          "internalType": "address",
          "name": "_slasher",
          "type": "address"
        }
      ],
      "name": "KeeperRevoke",
      "type": "event"
    },
    {
      "anonymous": false,
      "inputs": [
        {
          "indexed": true,
          "internalType": "address",
          "name": "_keeper",
          "type": "address"
        },
        {
          "indexed": true,
          "internalType": "address",
          "name": "_slasher",
          "type": "address"
        },
        {
          "indexed": false,
          "internalType": "uint256",
          "name": "_amount",
          "type": "uint256"
        }
      ],
      "name": "KeeperSlash",
      "type": "event"
    },
    {
      "anonymous": false,
      "inputs": [
        {
          "indexed": false,
          "internalType": "uint256",
          "name": "_gasLeft",
          "type": "uint256"
        }
      ],
      "name": "KeeperValidation",
      "type": "event"
    },
    {
      "anonymous": false,
      "inputs": [
        {
          "indexed": true,
          "internalType": "address",
          "name": "_credit",
          "type": "address"
        },
        {
          "indexed": true,
          "internalType": "address",
          "name": "_job",
          "type": "address"
        },
        {
          "indexed": true,
          "internalType": "address",
          "name": "_keeper",
          "type": "address"
        },
        {
          "indexed": false,
          "internalType": "uint256",
          "name": "_payment",
          "type": "uint256"
        },
        {
          "indexed": false,
          "internalType": "uint256",
          "name": "_gasLeft",
          "type": "uint256"
        }
      ],
      "name": "KeeperWork",
      "type": "event"
    },
    {
      "anonymous": false,
      "inputs": [
        {
          "indexed": false,
          "internalType": "address",
          "name": "_kp3rWethPool",
          "type": "address"
        }
      ],
      "name": "Kp3rWethPoolChange",
      "type": "event"
    },
    {
      "anonymous": false,
      "inputs": [
        {
          "indexed": false,
          "internalType": "uint256",
          "name": "_liquidityMinimum",
          "type": "uint256"
        }
      ],
      "name": "LiquidityMinimumChange",
      "type": "event"
    },
    {
      "anonymous": false,
      "inputs": [
        {
          "indexed": true,
          "internalType": "address",
          "name": "_jobOrKeeper",
          "type": "address"
        },
        {
          "indexed": true,
          "internalType": "address",
          "name": "_resolver",
          "type": "address"
        }
      ],
      "name": "Resolve",
      "type": "event"
    },
    {
      "anonymous": false,
      "inputs": [
        {
          "indexed": false,
          "internalType": "uint256",
          "name": "_rewardPeriodTime",
          "type": "uint256"
        }
      ],
      "name": "RewardPeriodTimeChange",
      "type": "event"
    },
    {
      "anonymous": false,
      "inputs": [
        {
          "indexed": false,
          "internalType": "address",
          "name": "_slasher",
          "type": "address"
        }
      ],
      "name": "SlasherAdded",
      "type": "event"
    },
    {
      "anonymous": false,
      "inputs": [
        {
          "indexed": false,
          "internalType": "address",
          "name": "_slasher",
          "type": "address"
        }
      ],
      "name": "SlasherRemoved",
      "type": "event"
    },
    {
      "anonymous": false,
      "inputs": [
        {
          "indexed": true,
          "internalType": "address",
          "name": "_job",
          "type": "address"
        },
        {
          "indexed": true,
          "internalType": "address",
          "name": "_token",
          "type": "address"
        },
        {
          "indexed": true,
          "internalType": "address",
          "name": "_provider",
          "type": "address"
        },
        {
          "indexed": false,
          "internalType": "uint256",
          "name": "_amount",
          "type": "uint256"
        }
      ],
      "name": "TokenCreditAddition",
      "type": "event"
    },
    {
      "anonymous": false,
      "inputs": [
        {
          "indexed": true,
          "internalType": "address",
          "name": "_job",
          "type": "address"
        },
        {
          "indexed": true,
          "internalType": "address",
          "name": "_token",
          "type": "address"
        },
        {
          "indexed": true,
          "internalType": "address",
          "name": "_receiver",
          "type": "address"
        },
        {
          "indexed": false,
          "internalType": "uint256",
          "name": "_amount",
          "type": "uint256"
        }
      ],
      "name": "TokenCreditWithdrawal",
      "type": "event"
    },
    {
      "anonymous": false,
      "inputs": [
        {
          "indexed": false,
          "internalType": "uint256",
          "name": "_unbondTime",
          "type": "uint256"
        }
      ],
      "name": "UnbondTimeChange",
      "type": "event"
    },
    {
      "anonymous": false,
      "inputs": [
        {
          "indexed": true,
          "internalType": "address",
          "name": "_keeperOrJob",
          "type": "address"
        },
        {
          "indexed": true,
          "internalType": "address",
          "name": "_unbonding",
          "type": "address"
        },
        {
          "indexed": false,
          "internalType": "uint256",
          "name": "_amount",
          "type": "uint256"
        }
      ],
      "name": "Unbonding",
      "type": "event"
    },
    {
      "anonymous": false,
      "inputs": [
        {
          "indexed": true,
          "internalType": "address",
          "name": "_keeper",
          "type": "address"
        },
        {
          "indexed": true,
          "internalType": "address",
          "name": "_bond",
          "type": "address"
        },
        {
          "indexed": false,
          "internalType": "uint256",
          "name": "_amount",
          "type": "uint256"
        }
      ],
      "name": "Withdrawal",
      "type": "event"
    },
    {
      "inputs": [],
      "name": "acceptGovernance",
      "outputs": [],
      "stateMutability": "nonpayable",
      "type": "function"
    },
    {
      "inputs": [
        {
          "internalType": "address",
          "name": "_fromJob",
          "type": "address"
        },
        {
          "internalType": "address",
          "name": "_toJob",
          "type": "address"
        }
      ],
      "name": "acceptJobMigration",
      "outputs": [],
      "stateMutability": "nonpayable",
      "type": "function"
    },
    {
      "inputs": [
        {
          "internalType": "address",
          "name": "_job",
          "type": "address"
        }
      ],
      "name": "acceptJobOwnership",
      "outputs": [],
      "stateMutability": "nonpayable",
      "type": "function"
    },
    {
      "inputs": [
        {
          "internalType": "address",
          "name": "_bonding",
          "type": "address"
        }
      ],
      "name": "activate",
      "outputs": [],
      "stateMutability": "nonpayable",
      "type": "function"
    },
    {
      "inputs": [
        {
          "internalType": "address",
          "name": "_disputer",
          "type": "address"
        }
      ],
      "name": "addDisputer",
      "outputs": [],
      "stateMutability": "nonpayable",
      "type": "function"
    },
    {
      "inputs": [
        {
          "internalType": "address",
          "name": "_job",
          "type": "address"
        }
      ],
      "name": "addJob",
      "outputs": [],
      "stateMutability": "nonpayable",
      "type": "function"
    },
    {
      "inputs": [
        {
          "internalType": "address",
          "name": "_slasher",
          "type": "address"
        }
      ],
      "name": "addSlasher",
      "outputs": [],
      "stateMutability": "nonpayable",
      "type": "function"
    },
    {
      "inputs": [
        {
          "internalType": "address",
          "name": "_job",
          "type": "address"
        },
        {
          "internalType": "address",
          "name": "_token",
          "type": "address"
        },
        {
          "internalType": "uint256",
          "name": "_amount",
          "type": "uint256"
        }
      ],
      "name": "addTokenCreditsToJob",
      "outputs": [],
      "stateMutability": "nonpayable",
      "type": "function"
    },
    {
      "inputs": [
        {
          "internalType": "address",
          "name": "_bonding",
          "type": "address"
        },
        {
          "internalType": "uint256",
          "name": "_amount",
          "type": "uint256"
        }
      ],
      "name": "bond",
      "outputs": [],
      "stateMutability": "nonpayable",
      "type": "function"
    },
    {
      "inputs": [],
      "name": "bondTime",
      "outputs": [
        {
          "internalType": "uint256",
          "name": "",
          "type": "uint256"
        }
      ],
      "stateMutability": "view",
      "type": "function"
    },
    {
      "inputs": [
        {
          "internalType": "address",
          "name": "_keeper",
          "type": "address"
        },
        {
          "internalType": "uint256",
          "name": "_payment",
          "type": "uint256"
        }
      ],
      "name": "bondedPayment",
      "outputs": [],
      "stateMutability": "nonpayable",
      "type": "function"
    },
    {
      "inputs": [
        {
          "internalType": "address",
          "name": "",
          "type": "address"
        },
        {
          "internalType": "address",
          "name": "",
          "type": "address"
        }
      ],
      "name": "bonds",
      "outputs": [
        {
          "internalType": "uint256",
          "name": "",
          "type": "uint256"
        }
      ],
      "stateMutability": "view",
      "type": "function"
    },
    {
      "inputs": [
        {
          "internalType": "address",
          "name": "",
          "type": "address"
        },
        {
          "internalType": "address",
          "name": "",
          "type": "address"
        }
      ],
      "name": "canActivateAfter",
      "outputs": [
        {
          "internalType": "uint256",
          "name": "",
          "type": "uint256"
        }
      ],
      "stateMutability": "view",
      "type": "function"
    },
    {
      "inputs": [
        {
          "internalType": "address",
          "name": "",
          "type": "address"
        },
        {
          "internalType": "address",
          "name": "",
          "type": "address"
        }
      ],
      "name": "canWithdrawAfter",
      "outputs": [
        {
          "internalType": "uint256",
          "name": "",
          "type": "uint256"
        }
      ],
      "stateMutability": "view",
      "type": "function"
    },
    {
      "inputs": [
        {
          "internalType": "address",
          "name": "_job",
          "type": "address"
        },
        {
          "internalType": "address",
          "name": "_newOwner",
          "type": "address"
        }
      ],
      "name": "changeJobOwnership",
      "outputs": [],
      "stateMutability": "nonpayable",
      "type": "function"
    },
    {
      "inputs": [
        {
          "internalType": "address",
          "name": "_token",
          "type": "address"
        },
        {
          "internalType": "address",
          "name": "_keeper",
          "type": "address"
        },
        {
          "internalType": "uint256",
          "name": "_amount",
          "type": "uint256"
        }
      ],
      "name": "directTokenPayment",
      "outputs": [],
      "stateMutability": "nonpayable",
      "type": "function"
    },
    {
      "inputs": [
        {
          "internalType": "address",
          "name": "_jobOrKeeper",
          "type": "address"
        }
      ],
      "name": "dispute",
      "outputs": [],
      "stateMutability": "nonpayable",
      "type": "function"
    },
    {
      "inputs": [
        {
          "internalType": "address",
          "name": "",
          "type": "address"
        }
      ],
      "name": "disputers",
      "outputs": [
        {
          "internalType": "bool",
          "name": "",
          "type": "bool"
        }
      ],
      "stateMutability": "view",
      "type": "function"
    },
    {
      "inputs": [
        {
          "internalType": "address",
          "name": "",
          "type": "address"
        }
      ],
      "name": "disputes",
      "outputs": [
        {
          "internalType": "bool",
          "name": "",
          "type": "bool"
        }
      ],
      "stateMutability": "view",
      "type": "function"
    },
    {
      "inputs": [],
      "name": "fee",
      "outputs": [
        {
          "internalType": "uint256",
          "name": "",
          "type": "uint256"
        }
      ],
      "stateMutability": "view",
      "type": "function"
    },
    {
      "inputs": [
        {
          "internalType": "address",
          "name": "",
          "type": "address"
        }
      ],
      "name": "firstSeen",
      "outputs": [
        {
          "internalType": "uint256",
          "name": "",
          "type": "uint256"
        }
      ],
      "stateMutability": "view",
      "type": "function"
    },
    {
      "inputs": [],
      "name": "governance",
      "outputs": [
        {
          "internalType": "address",
          "name": "",
          "type": "address"
        }
      ],
      "stateMutability": "view",
      "type": "function"
    },
    {
      "inputs": [
        {
          "internalType": "address",
          "name": "",
          "type": "address"
        }
      ],
      "name": "hasBonded",
      "outputs": [
        {
          "internalType": "bool",
          "name": "",
          "type": "bool"
        }
      ],
      "stateMutability": "view",
      "type": "function"
    },
    {
      "inputs": [
        {
          "internalType": "address",
          "name": "_keeper",
          "type": "address"
        },
        {
          "internalType": "address",
          "name": "_bond",
          "type": "address"
        },
        {
          "internalType": "uint256",
          "name": "_minBond",
          "type": "uint256"
        },
        {
          "internalType": "uint256",
          "name": "_earned",
          "type": "uint256"
        },
        {
          "internalType": "uint256",
          "name": "_age",
          "type": "uint256"
        }
      ],
      "name": "isBondedKeeper",
      "outputs": [
        {
          "internalType": "bool",
          "name": "_isBondedKeeper",
          "type": "bool"
        }
      ],
      "stateMutability": "nonpayable",
      "type": "function"
    },
    {
      "inputs": [
        {
          "internalType": "address",
          "name": "_keeper",
          "type": "address"
        }
      ],
      "name": "isKeeper",
      "outputs": [
        {
          "internalType": "bool",
          "name": "_isKeeper",
          "type": "bool"
        }
      ],
      "stateMutability": "nonpayable",
      "type": "function"
    },
    {
      "inputs": [
        {
          "internalType": "address",
          "name": "",
          "type": "address"
        }
      ],
      "name": "jobOwner",
      "outputs": [
        {
          "internalType": "address",
          "name": "",
          "type": "address"
        }
      ],
      "stateMutability": "view",
      "type": "function"
    },
    {
      "inputs": [
        {
          "internalType": "address",
          "name": "",
          "type": "address"
        }
      ],
      "name": "jobPendingOwner",
      "outputs": [
        {
          "internalType": "address",
          "name": "",
          "type": "address"
        }
      ],
      "stateMutability": "view",
      "type": "function"
    },
    {
      "inputs": [
        {
          "internalType": "address",
          "name": "",
          "type": "address"
        },
        {
          "internalType": "address",
          "name": "",
          "type": "address"
        }
      ],
      "name": "jobTokenCredits",
      "outputs": [
        {
          "internalType": "uint256",
          "name": "",
          "type": "uint256"
        }
      ],
      "stateMutability": "view",
      "type": "function"
    },
    {
      "inputs": [
        {
          "internalType": "address",
          "name": "",
          "type": "address"
        },
        {
          "internalType": "address",
          "name": "",
          "type": "address"
        }
      ],
      "name": "jobTokenCreditsAddedAt",
      "outputs": [
        {
          "internalType": "uint256",
          "name": "",
          "type": "uint256"
        }
      ],
      "stateMutability": "view",
      "type": "function"
    },
    {
      "inputs": [],
      "name": "jobs",
      "outputs": [
        {
          "internalType": "address[]",
          "name": "_list",
          "type": "address[]"
        }
      ],
      "stateMutability": "view",
      "type": "function"
    },
    {
      "inputs": [],
      "name": "keep3rHelper",
      "outputs": [
        {
          "internalType": "address",
          "name": "",
          "type": "address"
        }
      ],
      "stateMutability": "view",
      "type": "function"
    },
    {
      "inputs": [],
      "name": "keep3rV1",
      "outputs": [
        {
          "internalType": "address",
          "name": "",
          "type": "address"
        }
      ],
      "stateMutability": "view",
      "type": "function"
    },
    {
      "inputs": [],
      "name": "keep3rV1Proxy",
      "outputs": [
        {
          "internalType": "address",
          "name": "",
          "type": "address"
        }
      ],
      "stateMutability": "view",
      "type": "function"
    },
    {
      "inputs": [],
      "name": "keepers",
      "outputs": [
        {
          "internalType": "address[]",
          "name": "_list",
          "type": "address[]"
        }
      ],
      "stateMutability": "view",
      "type": "function"
    },
    {
      "inputs": [],
      "name": "kp3rWethPool",
      "outputs": [
        {
          "internalType": "address",
          "name": "",
          "type": "address"
        }
      ],
      "stateMutability": "view",
      "type": "function"
    },
    {
      "inputs": [
        {
          "internalType": "address",
          "name": "_fromJob",
          "type": "address"
        },
        {
          "internalType": "address",
          "name": "_toJob",
          "type": "address"
        }
      ],
      "name": "migrateJob",
      "outputs": [],
      "stateMutability": "nonpayable",
      "type": "function"
    },
    {
      "inputs": [
        {
          "internalType": "address",
          "name": "",
          "type": "address"
        },
        {
          "internalType": "address",
          "name": "",
          "type": "address"
        }
      ],
      "name": "pendingBonds",
      "outputs": [
        {
          "internalType": "uint256",
          "name": "",
          "type": "uint256"
        }
      ],
      "stateMutability": "view",
      "type": "function"
    },
    {
      "inputs": [],
      "name": "pendingGovernance",
      "outputs": [
        {
          "internalType": "address",
          "name": "",
          "type": "address"
        }
      ],
      "stateMutability": "view",
      "type": "function"
    },
    {
      "inputs": [
        {
          "internalType": "address",
          "name": "",
          "type": "address"
        }
      ],
      "name": "pendingJobMigrations",
      "outputs": [
        {
          "internalType": "address",
          "name": "",
          "type": "address"
        }
      ],
      "stateMutability": "view",
      "type": "function"
    },
    {
      "inputs": [
        {
          "internalType": "address",
          "name": "",
          "type": "address"
        },
        {
          "internalType": "address",
          "name": "",
          "type": "address"
        }
      ],
      "name": "pendingUnbonds",
      "outputs": [
        {
          "internalType": "uint256",
          "name": "",
          "type": "uint256"
        }
      ],
      "stateMutability": "view",
      "type": "function"
    },
    {
      "inputs": [
        {
          "internalType": "address",
          "name": "_disputer",
          "type": "address"
        }
      ],
      "name": "removeDisputer",
      "outputs": [],
      "stateMutability": "nonpayable",
      "type": "function"
    },
    {
      "inputs": [
        {
          "internalType": "address",
          "name": "_slasher",
          "type": "address"
        }
      ],
      "name": "removeSlasher",
      "outputs": [],
      "stateMutability": "nonpayable",
      "type": "function"
    },
    {
      "inputs": [
        {
          "internalType": "address",
          "name": "_jobOrKeeper",
          "type": "address"
        }
      ],
      "name": "resolve",
      "outputs": [],
      "stateMutability": "nonpayable",
      "type": "function"
    },
    {
      "inputs": [
        {
          "internalType": "address",
          "name": "_keeper",
          "type": "address"
        }
      ],
      "name": "revoke",
      "outputs": [],
      "stateMutability": "nonpayable",
      "type": "function"
    },
    {
      "inputs": [
        {
          "internalType": "address",
          "name": "_token",
          "type": "address"
        },
        {
          "internalType": "uint256",
          "name": "_amount",
          "type": "uint256"
        },
        {
          "internalType": "address",
          "name": "_to",
          "type": "address"
        }
      ],
      "name": "sendDust",
      "outputs": [],
      "stateMutability": "nonpayable",
      "type": "function"
    },
    {
      "inputs": [
        {
          "internalType": "uint256",
          "name": "_bondTime",
          "type": "uint256"
        }
      ],
      "name": "setBondTime",
      "outputs": [],
      "stateMutability": "nonpayable",
      "type": "function"
    },
    {
      "inputs": [
        {
          "internalType": "uint256",
          "name": "_fee",
          "type": "uint256"
        }
      ],
      "name": "setFee",
      "outputs": [],
      "stateMutability": "nonpayable",
      "type": "function"
    },
    {
      "inputs": [
        {
          "internalType": "address",
          "name": "_governance",
          "type": "address"
        }
      ],
      "name": "setGovernance",
      "outputs": [],
      "stateMutability": "nonpayable",
      "type": "function"
    },
    {
      "inputs": [
        {
          "internalType": "address",
          "name": "_keep3rHelper",
          "type": "address"
        }
      ],
      "name": "setKeep3rHelper",
      "outputs": [],
      "stateMutability": "nonpayable",
      "type": "function"
    },
    {
      "inputs": [
        {
          "internalType": "address",
          "name": "_keep3rV1",
          "type": "address"
        }
      ],
      "name": "setKeep3rV1",
      "outputs": [],
      "stateMutability": "nonpayable",
      "type": "function"
    },
    {
      "inputs": [
        {
          "internalType": "address",
          "name": "_keep3rV1Proxy",
          "type": "address"
        }
      ],
      "name": "setKeep3rV1Proxy",
      "outputs": [],
      "stateMutability": "nonpayable",
      "type": "function"
    },
    {
      "inputs": [
        {
          "internalType": "address",
          "name": "_kp3rWethPool",
          "type": "address"
        }
      ],
      "name": "setKp3rWethPool",
      "outputs": [],
      "stateMutability": "nonpayable",
      "type": "function"
    },
    {
      "inputs": [
        {
          "internalType": "uint256",
          "name": "_unbondTime",
          "type": "uint256"
        }
      ],
      "name": "setUnbondTime",
      "outputs": [],
      "stateMutability": "nonpayable",
      "type": "function"
    },
    {
      "inputs": [
        {
          "internalType": "address",
          "name": "_keeper",
          "type": "address"
        },
        {
          "internalType": "address",
          "name": "_bonded",
          "type": "address"
        },
        {
          "internalType": "uint256",
          "name": "_bondAmount",
          "type": "uint256"
        },
        {
          "internalType": "uint256",
          "name": "_unbondAmount",
          "type": "uint256"
        }
      ],
      "name": "slash",
      "outputs": [],
      "stateMutability": "nonpayable",
      "type": "function"
    },
    {
      "inputs": [
        {
          "internalType": "address",
          "name": "_job",
          "type": "address"
        },
        {
          "internalType": "address",
          "name": "_token",
          "type": "address"
        },
        {
          "internalType": "uint256",
          "name": "_amount",
          "type": "uint256"
        }
      ],
      "name": "slashTokenFromJob",
      "outputs": [],
      "stateMutability": "nonpayable",
      "type": "function"
    },
    {
      "inputs": [
        {
          "internalType": "address",
          "name": "",
          "type": "address"
        }
      ],
      "name": "slashers",
      "outputs": [
        {
          "internalType": "bool",
          "name": "",
          "type": "bool"
        }
      ],
      "stateMutability": "view",
      "type": "function"
    },
    {
      "inputs": [
        {
          "internalType": "address",
          "name": "_bonding",
          "type": "address"
        },
        {
          "internalType": "uint256",
          "name": "_amount",
          "type": "uint256"
        }
      ],
      "name": "unbond",
      "outputs": [],
      "stateMutability": "nonpayable",
      "type": "function"
    },
    {
      "inputs": [],
      "name": "unbondTime",
      "outputs": [
        {
          "internalType": "uint256",
          "name": "",
          "type": "uint256"
        }
      ],
      "stateMutability": "view",
      "type": "function"
    },
    {
      "inputs": [
        {
          "internalType": "address",
          "name": "_liquidity",
          "type": "address"
        }
      ],
      "name": "viewTickOrder",
      "outputs": [
        {
          "internalType": "bool",
          "name": "",
          "type": "bool"
        }
      ],
      "stateMutability": "view",
      "type": "function"
    },
    {
      "inputs": [
        {
          "internalType": "address",
          "name": "_bonding",
          "type": "address"
        }
      ],
      "name": "withdraw",
      "outputs": [],
      "stateMutability": "nonpayable",
      "type": "function"
    },
    {
      "inputs": [
        {
          "internalType": "address",
          "name": "_job",
          "type": "address"
        },
        {
          "internalType": "address",
          "name": "_token",
          "type": "address"
        },
        {
          "internalType": "uint256",
          "name": "_amount",
          "type": "uint256"
        },
        {
          "internalType": "address",
          "name": "_receiver",
          "type": "address"
        }
      ],
      "name": "withdrawTokenCreditsFromJob",
      "outputs": [],
      "stateMutability": "nonpayable",
      "type": "function"
    },
    {
      "inputs": [
        {
          "internalType": "address",
          "name": "",
          "type": "address"
        }
      ],
      "name": "workCompleted",
      "outputs": [
        {
          "internalType": "uint256",
          "name": "",
          "type": "uint256"
        }
      ],
      "stateMutability": "view",
      "type": "function"
    },
    {
      "inputs": [
        {
          "internalType": "address",
          "name": "_keeper",
          "type": "address"
        }
      ],
      "name": "worked",
      "outputs": [],
      "stateMutability": "nonpayable",
      "type": "function"
    }
  ],
  "bytecode": "0x60806040526203f480601f5562127500602055601e6021553480156200002457600080fd5b5060405162003e1338038062003e138339810160408190526200004791620001ae565b600160005584848484848383838388806001600160a01b0381166200007e5760405162b293ed60e81b815260040160405180910390fd5b601780546001600160a01b03199081166001600160a01b0393841617909155601d80548216888416178155601b80548316888516179055601c80548316878516179055601e8054831686851690811782556000818152600e602052604090819020805490951690911790935590549054915163696a437b60e01b81529183166004830152909116915063696a437b90602401602060405180830381865afa1580156200012e573d6000803e3d6000fd5b505050506040513d601f19601f820116820180604052508101906200015491906200021e565b6001600160a01b03919091166000908152600f60205260409020805460ff191691151591909117905550620002499b505050505050505050505050565b80516001600160a01b0381168114620001a957600080fd5b919050565b600080600080600060a08688031215620001c757600080fd5b620001d28662000191565b9450620001e26020870162000191565b9350620001f26040870162000191565b9250620002026060870162000191565b9150620002126080870162000191565b90509295509295909350565b6000602082840312156200023157600080fd5b815180151581146200024257600080fd5b9392505050565b613bba80620002596000396000f3fe608060405234801561001057600080fd5b50600436106103c55760003560e01c8063951dc22c116101ff578063c5198abc1161011a578063ec00cdfc116100ad578063f25e311b1161007c578063f25e311b14610993578063f39c38a0146109a6578063f75f9f7b146109b9578063f9d46cf2146109cc57600080fd5b8063ec00cdfc14610931578063ec8ca64314610944578063f0f346b91461096d578063f11a1d1a1461098057600080fd5b8063d55995fe116100e9578063d55995fe146108e2578063dd2080d6146108f5578063ddca3f4314610908578063e326ac431461091157600080fd5b8063c5198abc1461087e578063c7ae40d014610891578063cb4be2bb146108a4578063cd22af1b146108b757600080fd5b8063aac6aa9c11610192578063b440027f11610161578063b440027f1461080a578063b7e7734014610835578063b87fcbff14610848578063c20297f01461086b57600080fd5b8063aac6aa9c146107ae578063ab033ea9146107c1578063af320e81146107d4578063b0103b1a146107e757600080fd5b8063a39744b5116101ce578063a39744b514610754578063a515366a1461077f578063a5d059ca14610792578063a7d2e784146107a557600080fd5b8063951dc22c146106fd578063966abd001461070557806398e90a0f146107185780639d5c33d81461074157600080fd5b8063594a3a93116102ef57806372da828a11610282578063878c723e11610251578063878c723e1461068b5780638cb22b76146106b45780638fe204dd146106d757806390a4684e146106ea57600080fd5b806372da828a1461063d57806374a8f103146106505780637b40c913146106635780637c8fce231461067657600080fd5b80635feeb794116102be5780635feeb794146105f157806368a9f19c1461060457806369fe0e2d146106175780636ba42aaa1461062a57600080fd5b8063594a3a93146105af57806359a2255e146105c25780635aa6e675146105d55780635ebe23f0146105e857600080fd5b80631ef94b9111610367578063454c503111610336578063454c50311461054a57806351cff8d91461057657806355ea6c4714610589578063575288bf1461059c57600080fd5b80631ef94b91146104b957806321040b01146104e4578063238efcbc1461050f578063274a8db41461051757600080fd5b8063160e1e31116103a3578063160e1e3114610448578063168f92e71461045b5780631b44555e146104865780631c5a9d9c146104a657600080fd5b806307b435c2146103ca57806311466d721461040857806315006b821461041d575b600080fd5b6103f56103d8366004613785565b601260209081526000928352604080842090915290825290205481565b6040519081526020015b60405180910390f35b61041b6104163660046137b8565b6109df565b005b6103f561042b366004613785565b601060209081526000928352604080842090915290825290205481565b61041b6104563660046137e2565b610a9d565b6103f5610469366004613785565b600960209081526000928352604080842090915290825290205481565b6103f56104943660046137e2565b60056020526000908152604090205481565b61041b6104b43660046137e2565b610beb565b601b546104cc906001600160a01b031681565b6040516001600160a01b0390911681526020016103ff565b6103f56104f2366004613785565b601360209081526000928352604080842090915290825290205481565b61041b610d26565b61053a6105253660046137e2565b601a6020526000908152604090205460ff1681565b60405190151581526020016103ff565b61053a6105583660046137e2565b6001600160a01b03166000908152600f602052604090205460ff1690565b61041b6105843660046137e2565b610daf565b61041b6105973660046137e2565b610fb9565b61041b6105aa3660046137fd565b61106d565b61041b6105bd366004613785565b611309565b61041b6105d03660046137e2565b6113ae565b6017546104cc906001600160a01b031681565b6103f5601f5481565b61041b6105ff3660046137e2565b611460565b61041b6106123660046137e2565b6115d1565b61041b610625366004613839565b61168a565b61053a6106383660046137e2565b6116ea565b61041b61064b3660046137e2565b61174f565b61041b61065e3660046137e2565b6117ef565b601e546104cc906001600160a01b031681565b61067e6118ea565b6040516103ff9190613852565b6104cc6106993660046137e2565b6001602052600090815260409020546001600160a01b031681565b61053a6106c23660046137e2565b60146020526000908152604090205460ff1681565b61041b6106e5366004613839565b6118fb565b61041b6106f8366004613785565b611959565b61067e611a42565b61041b61071336600461389f565b611a4e565b6104cc6107263660046137e2565b6002602052600090815260409020546001600160a01b031681565b61041b61074f3660046137e2565b611b64565b6103f5610762366004613785565b600860209081526000928352604080842090915290825290205481565b61041b61078d3660046137b8565b611c1d565b61041b6107a03660046137b8565b611e55565b6103f560205481565b61041b6107bc3660046137e2565b611f28565b61041b6107cf3660046137e2565b611fdd565b61041b6107e2366004613785565b612056565b61053a6107f53660046137e2565b60076020526000908152604090205460ff1681565b6103f5610818366004613785565b602260209081526000928352604080842090915290825290205481565b61041b610843366004613839565b61231d565b61053a6108563660046137e2565b60196020526000908152604090205460ff1681565b61041b6108793660046138db565b61237d565b61041b61088c3660046137e2565b61243f565b601c546104cc906001600160a01b031681565b61041b6108b23660046137e2565b612504565b6103f56108c5366004613785565b601160209081526000928352604080842090915290825290205481565b61041b6108f036600461391d565b6125a4565b61041b6109033660046137fd565b6127de565b6103f560215481565b6103f561091f3660046137e2565b60066020526000908152604090205481565b61041b61093f3660046137e2565b61296d565b6104cc6109523660046137e2565b6023602052600090815260409020546001600160a01b031681565b61041b61097b3660046137e2565b612a0d565b601d546104cc906001600160a01b031681565b61041b6109a13660046137fd565b612ac2565b6018546104cc906001600160a01b031681565b61041b6109c73660046137e2565b612d01565b61053a6109da36600461396a565b612db9565b3360008181526007602052604090205460ff1615610a105760405163ad2fdf3b60e01b815260040160405180910390fd5b610a1b601582612ea2565b610a375760405162941a5760e11b815260040160405180910390fd5b610a42818484612ec9565b601b546001600160a01b038085169183821691167f46f2180879a7123a197cc3828c28955d70d661c70acbdc02450daf5f9a9c1cfa85610a80612f73565b6040805192835260208301919091520160405180910390a4505050565b6017546001600160a01b03163314610ac8576040516354348f0360e01b815260040160405180910390fd5b6001600160a01b038116610aef5760405163d92e233d60e01b815260040160405180910390fd5b601e80546001600160a01b038381166001600160a01b031992831681179093556000838152600e60205260409081902080549093168417909255601d54915163696a437b60e01b81526004810193909352169063696a437b90602401602060405180830381865afa158015610b68573d6000803e3d6000fd5b505050506040513d601f19601f82011682018060405250810190610b8c91906139b7565b6001600160a01b0382166000818152600f6020908152604091829020805460ff191694151594909417909355519081527f9bb1515b0fc2645a3f011162460a22fdd512e0bca265e7dc9ba6bceae8930afa91015b60405180910390a150565b3360009081526007602052604090205460ff1615610c1c576040516362e6201d60e01b815260040160405180910390fd5b3360009081526011602090815260408083206001600160a01b03851684529091528120549003610c5f57604051636258f48160e01b815260040160405180910390fd5b3360009081526011602090815260408083206001600160a01b03851684529091529020544311610ca257604051630fd0eeef60e11b815260040160405180910390fd5b3360008181526011602090815260408083206001600160a01b0386168452909152812081905590610cd39083612f8d565b9050816001600160a01b0316336001600160a01b03167f3673530133b6da67e9854f605b0cfa7bb9798cd33c18036dfc10d8da7c4d4a7583604051610d1a91815260200190565b60405180910390a35050565b6018546001600160a01b03163314610d5157604051637ef5703160e11b815260040160405180910390fd5b60188054601780546001600160a01b0383166001600160a01b031991821681179092559091169091556040519081527fc73be659241aade67e9a059bcf21494955018b213dbd1179054ccf928b13f3b69060200160405180910390a1565b600260005403610dda5760405162461bcd60e51b8152600401610dd1906139d9565b60405180910390fd5b600260009081553381526013602090815260408083206001600160a01b03851684529091528120549003610e215760405163184c088160e21b815260040160405180910390fd5b3360009081526012602090815260408083206001600160a01b03851684529091529020544311610e64576040516327cfdcb760e01b815260040160405180910390fd5b3360009081526007602052604090205460ff1615610e95576040516362e6201d60e01b815260040160405180910390fd5b3360009081526013602090815260408083206001600160a01b0385811680865291909352922054601b54909291169003610f2857601c5460405163140e25ad60e31b8152600481018390526001600160a01b039091169063a0712d6890602401600060405180830381600087803b158015610f0f57600080fd5b505af1158015610f23573d6000803e3d6000fd5b505050505b3360008181526013602090815260408083206001600160a01b03871680855290835281842084905584845260128352818420818552909252822091909155610f7091836130a6565b6040518181526001600160a01b0383169033907f2717ead6b9200dd235aad468c9809ea400fe33ac69b5bfaa6d3e90fc922b63989060200160405180910390a350506001600055565b336000908152601a602052604090205460ff16610fe957604051630942721960e31b815260040160405180910390fd5b6001600160a01b03811660009081526007602052604090205460ff16611022576040516310cec38560e21b815260040160405180910390fd5b6001600160a01b038116600081815260076020526040808220805460ff19169055513392917fe02b2375d8fb4aef3e5bc5d53bffcf70b6f185c5c93e69dcbe8b6cfc58e837e291a350565b60026000540361108f5760405162461bcd60e51b8152600401610dd1906139d9565b600260005561109f601584612ea2565b6110bc57604051636211d34960e01b815260040160405180910390fd5b601b546001600160a01b03908116908316036110ea5760405162822d9760e71b815260040160405180910390fd5b6040516370a0823160e01b81523060048201526000906001600160a01b038416906370a0823190602401602060405180830381865afa158015611131573d6000803e3d6000fd5b505050506040513d601f19601f820116820180604052508101906111559190613a10565b905061116c6001600160a01b03841633308561310e565b6040516370a0823160e01b815230600482015260009082906001600160a01b038616906370a0823190602401602060405180830381865afa1580156111b5573d6000803e3d6000fd5b505050506040513d601f19601f820116820180604052508101906111d99190613a10565b6111e39190613a3f565b90506000612710602154836111f89190613a56565b6112029190613a75565b905061120e8183613a3f565b6001600160a01b038088166000908152600960209081526040808320938a1683529290529081208054909190611245908490613a97565b90915550506001600160a01b03808716600090815260226020908152604080832089851680855292529091204390556017546112829216836130a6565b6001600160a01b0386166000908152600c602052604090206112a4908661314c565b50336001600160a01b0316856001600160a01b0316876001600160a01b03167fec1a37d4a331a5059081e0fb5da1735e7890900cd215a4fb1e9f2779fd7b83eb856040516112f491815260200190565b60405180910390a45050600160005550505050565b6001600160a01b03828116600090815260016020526040902054839116331461134557604051636efb4f4160e11b815260040160405180910390fd5b6001600160a01b03838116600081815260026020908152604080832080546001600160a01b031916888716908117909155600190925280832054905191941692917fa8bad3f0b781e1d954af9945167d5f80bfe5e57930f17c93843187c77557a6b891a4505050565b6001600160a01b0381811660009081526002602052604090205482911633146113ea5760405163cfe9663360e01b815260040160405180910390fd5b6001600160a01b03828116600081815260016020908152604080832080546002909352818420805487166001600160a01b031980861691909117909255805490911690555193169283929133917fcf30c54296d5eee76168b564c59c50578d49c271733a470f32707c8cfbc88a8b9190a4505050565b3360008181526007602052604090205460ff16156114915760405163ad2fdf3b60e01b815260040160405180910390fd5b61149c601582612ea2565b6114b85760405162941a5760e11b815260040160405180910390fd5b601d546001600160a01b038381166000908152600860209081526040808320601b548516845290915280822054905163435b21c160e01b8152600481019190915290928392839291169063435b21c190602401606060405180830381865afa158015611528573d6000803e3d6000fd5b505050506040513d601f19601f8201168201806040525081019061154c9190613aaf565b925092509250600061155c612f73565b9050600061156c82848688613161565b9050611579868883612ec9565b601b5460408051838152602081018590526001600160a01b038a8116938a8216939116917f46f2180879a7123a197cc3828c28955d70d661c70acbdc02450daf5f9a9c1cfa910160405180910390a450505050505050565b6017546001600160a01b031633146115fc576040516354348f0360e01b815260040160405180910390fd5b6001600160a01b03811660009081526019602052604090205460ff16156116365760405163546da66560e11b815260040160405180910390fd5b6001600160a01b038116600081815260196020908152604091829020805460ff1916600117905590519182527f049ccb28ab796d3225573a065712f6e7754487ced56056cda8889c337511807b9101610be0565b6017546001600160a01b031633146116b5576040516354348f0360e01b815260040160405180910390fd5b60218190556040518181527f4c10ca068ff7002cf5da78f2f697d1e91f6f0ac27f7344b28e8ef25263f87e5d90602001610be0565b60006116f4612f73565b602555611702600383612ea2565b1561174a577f4851cad52e624c8f7a1d44c28a80db05988ba2451fc0db6b0ec338d8eca95afb60255460405161173a91815260200190565b60405180910390a1506001919050565b919050565b6017546001600160a01b0316331461177a576040516354348f0360e01b815260040160405180910390fd5b6001600160a01b0381166117a15760405163d92e233d60e01b815260040160405180910390fd5b601d80546001600160a01b0319166001600160a01b0383169081179091556040519081527f71973fd672e51deb8f739b1f7e1eab991936645acd6f83e2bde6eeeaff5490b090602001610be0565b3360009081526019602052604090205460ff1661181f57604051637e57b1e160e01b815260040160405180910390fd5b6001600160a01b03811660009081526007602052604090205460ff16611858576040516310cec38560e21b815260040160405180910390fd5b6118636003826131be565b50601b546001600160a01b038083166000818152600860209081526040808320949095168083529381528482205492825260138152848220848352905292909220546118b1928492916131d3565b60405133906001600160a01b038316907f038a17b9b553c0c3fc2ed14b957a5d8420a1666fd2efe5c1b3fe5f23eea61bb390600090a350565b60606118f66015613329565b905090565b6017546001600160a01b03163314611926576040516354348f0360e01b815260040160405180910390fd5b60208181556040518281527fc8d443472c9783cc36f8f5f5091f08ce9f37fc2f9e6d79cf1d9aaf40a433fee29101610be0565b6001600160a01b03828116600090815260016020526040902054839116331461199557604051636efb4f4160e11b815260040160405180910390fd5b816001600160a01b0316836001600160a01b0316036119c75760405163afe7ad4960e01b815260040160405180910390fd5b6001600160a01b03838116600081815260236020908152604080832080546001600160a01b031916958816958617905560248252808320858452825291829020439055905192835290917fff0456758201108de53c0ff04c69988d4678ff455b2ce6f733328cf85722c04c91015b60405180910390a2505050565b60606118f66003613329565b6017546001600160a01b03163314611a79576040516354348f0360e01b815260040160405180910390fd5b6001600160a01b038116611aa05760405163d92e233d60e01b815260040160405180910390fd5b73eeeeeeeeeeeeeeeeeeeeeeeeeeeeeeeeeeeeeeed196001600160a01b03841601611b01576040516001600160a01b0382169083156108fc029084906000818181858888f19350505050158015611afb573d6000803e3d6000fd5b50611b15565b611b156001600160a01b03841682846130a6565b604080516001600160a01b0385811682526020820185905283168183015290517f9a3055ded8c8b5f21bbf4946c5afab6e1fa8b3f057922658e5e1ade125fb0b1e9181900360600190a1505050565b6017546001600160a01b03163314611b8f576040516354348f0360e01b815260040160405180910390fd5b6001600160a01b0381166000908152601a602052604090205460ff1615611bc95760405163274e25dd60e11b815260040160405180910390fd5b6001600160a01b0381166000818152601a6020908152604091829020805460ff1916600117905590519182527f8addc69f897ecca0e41d70ed4ff9d75a9148a615a0fbda8597e53aea2684302f9101610be0565b600260005403611c3f5760405162461bcd60e51b8152600401610dd1906139d9565b600260009081553381526007602052604090205460ff1615611c74576040516362e6201d60e01b815260040160405180910390fd5b611c7f601533612ea2565b15611c9d5760405163d7229c4360e01b815260040160405180910390fd5b601f54611caa9043613a97565b3360009081526011602090815260408083206001600160a01b03871680855292528083209390935591516370a0823160e01b81523060048201529091906370a0823190602401602060405180830381865afa158015611d0d573d6000803e3d6000fd5b505050506040513d601f19601f82011682018060405250810190611d319190613a10565b9050611d486001600160a01b03841633308561310e565b6040516370a0823160e01b815230600482015281906001600160a01b038516906370a0823190602401602060405180830381865afa158015611d8e573d6000803e3d6000fd5b505050506040513d601f19601f82011682018060405250810190611db29190613a10565b611dbc9190613a3f565b336000908152601460209081526040808320805460ff19166001179055601082528083206001600160a01b0388168452909152812080549294508492909190611e06908490613a97565b90915550506040518281526001600160a01b0384169033907fa7e66869262026842e8d81f5e6806cdc8d846e27c824e2e22f4fe51442771b349060200160405180910390a35050600160005550565b602054611e629043613a97565b3360008181526012602090815260408083206001600160a01b03881680855290835281842095909555928252600881528282209382529290925281208054839290611eae908490613a3f565b90915550503360009081526013602090815260408083206001600160a01b038616845290915281208054839290611ee6908490613a97565b90915550506040518181526001600160a01b0383169033907f9aaab310d247ad45aef26bbdefc4ebf20c728fdb84c92b95b2b05d21826940de90602001610d1a565b6017546001600160a01b03163314611f53576040516354348f0360e01b815260040160405180910390fd5b6001600160a01b03811660009081526019602052604090205460ff16611f8c576040516336fe17e760e21b815260040160405180910390fd5b6001600160a01b038116600081815260196020908152604091829020805460ff1916905590519182527f3ed8cbce8cab40e59282f1743e2b607effa08b5cbe0111bb4721134f2f80d0259101610be0565b6017546001600160a01b03163314612008576040516354348f0360e01b815260040160405180910390fd5b601880546001600160a01b0319166001600160a01b0383169081179091556040519081527fe987aaedf9d279143bdf1eee16cf1d0feb47742867d81083df8d6cd0a5ac857f90602001610be0565b6001600160a01b03818116600090815260016020526040902054829116331461209257604051636efb4f4160e11b815260040160405180910390fd5b6001600160a01b03831660009081526007602052604090205460ff16806120d157506001600160a01b03821660009081526007602052604090205460ff165b156120ef5760405163ad2fdf3b60e01b815260040160405180910390fd5b6001600160a01b0383811660009081526023602052604090205481169083161461212c57604051630ced616b60e21b815260040160405180910390fd5b6001600160a01b0380841660009081526024602090815260408083209386168352929052205461215e90603c90613a97565b43101561217e576040516356248e9760e01b815260040160405180910390fd5b6001600160a01b0383166000908152600c6020526040812061219f9061333d565b1115612281576001600160a01b0383166000908152600c602052604081206121c79082613347565b6001600160a01b03808616600090815260096020818152604080842085871680865290835281852054958a168552928252808420928452919052812080549394509192612215908490613a97565b90915550506001600160a01b0380851660008181526009602090815260408083209486168352938152838220829055918152600c9091522061225790826131be565b506001600160a01b0383166000908152600c6020526040902061227a908261314c565b505061217e565b61228c6015846131be565b506001600160a01b03838116600081815260016020908152604080832080546001600160a01b031990811690915560028352818420805482169055602483528184209588168085529583528184208490558484526023835292819020805490931690925590519182527f9b712b63e3fb1325fa042d3c238ce8144937875065900528ea1e4f3b00f379f29101611a35565b6017546001600160a01b03163314612348576040516354348f0360e01b815260040160405180910390fd5b601f8190556040518181527fd319ef78d2b690bb773fcccc2d096306bac7c9222dd0bb6b300f461e4a376b4390602001610be0565b3360009081526019602052604090205460ff166123ad57604051637e57b1e160e01b815260040160405180910390fd5b6001600160a01b03841660009081526007602052604090205460ff166123e6576040516310cec38560e21b815260040160405180910390fd5b6123f2848484846131d3565b336001600160a01b0385167f10a73de7ab6e9023aa6e2bc23f7abf4dcef591487e7e55f44c00e34fe60d56db6124288486613a97565b60405190815260200160405180910390a350505050565b61244a601582612ea2565b1561246857604051630809740d60e01b815260040160405180910390fd5b6001600160a01b03811660009081526014602052604090205460ff16156124a257604051632f3d320560e01b815260040160405180910390fd5b6124ad60158261314c565b506001600160a01b03811660008181526001602052604080822080546001600160a01b03191633908117909155905190917fed3faef50715743626cd57de74281a2b17cdbfc11c0486feda541fb911e0293d91a350565b6017546001600160a01b0316331461252f576040516354348f0360e01b815260040160405180910390fd5b6001600160a01b0381166125565760405163d92e233d60e01b815260040160405180910390fd5b601c80546001600160a01b0319166001600160a01b0383169081179091556040519081527feb931b4b5a98d20a6b1e6693a7c59d8e337a06e2f1473bb776e19251db7ae25090602001610be0565b6002600054036125c65760405162461bcd60e51b8152600401610dd1906139d9565b600260009081556001600160a01b0385811682526001602052604090912054859116331461260757604051636efb4f4160e11b815260040160405180910390fd5b6001600160a01b0380861660009081526022602090815260408083209388168352929052205461263990603c90613a97565b431161265857604051631e0b407560e01b815260040160405180910390fd5b6001600160a01b0380861660009081526009602090815260408083209388168352929052205483111561269e5760405163024ae82d60e61b815260040160405180910390fd5b6001600160a01b03851660009081526007602052604090205460ff16156126d85760405163ad2fdf3b60e01b815260040160405180910390fd5b6001600160a01b0380861660009081526009602090815260408083209388168352929052908120805485929061270f908490613a3f565b9091555061272990506001600160a01b03851683856130a6565b6001600160a01b038086166000908152600960209081526040808320938816835292905290812054900361277b576001600160a01b0385166000908152600c6020526040902061277990856131be565b505b816001600160a01b0316846001600160a01b0316866001600160a01b03167f53e982dd9ec088d634c74c98fbbc161f808b4b6469a26c657120b9a31cb34bfe866040516127ca91815260200190565b60405180910390a450506001600055505050565b3360008181526007602052604090205460ff161561280f5760405163ad2fdf3b60e01b815260040160405180910390fd5b6001600160a01b03831660009081526007602052604090205460ff1615612849576040516362e6201d60e01b815260040160405180910390fd5b612854601582612ea2565b6128705760405162941a5760e11b815260040160405180910390fd5b6001600160a01b038082166000908152600960209081526040808320938816835292905220548211156128b65760405163356680b760e01b815260040160405180910390fd5b6001600160a01b038082166000908152600960209081526040808320938816835292905290812080548492906128ed908490613a3f565b9091555061290790506001600160a01b03851684846130a6565b826001600160a01b0316816001600160a01b0316856001600160a01b03167f46f2180879a7123a197cc3828c28955d70d661c70acbdc02450daf5f9a9c1cfa8561294f612f73565b6040805192835260208301919091520160405180910390a450505050565b6017546001600160a01b03163314612998576040516354348f0360e01b815260040160405180910390fd5b6001600160a01b0381166129bf5760405163d92e233d60e01b815260040160405180910390fd5b601b80546001600160a01b0319166001600160a01b0383169081179091556040519081527f1d1a3e7caf0717056e48dc8aefa54d806c7af86324fece4e5d49f8e1f01f84bf90602001610be0565b6017546001600160a01b03163314612a38576040516354348f0360e01b815260040160405180910390fd5b6001600160a01b0381166000908152601a602052604090205460ff16612a7157604051633ca0d42760e11b815260040160405180910390fd5b6001600160a01b0381166000818152601a6020908152604091829020805460ff1916905590519182527f5e8bd21d0a98cb2caf33706e56139ff40ffbdca7ec5d9d412a0a2292496dc70e9101610be0565b3360009081526019602052604090205460ff16612af257604051637e57b1e160e01b815260040160405180910390fd5b6001600160a01b03831660009081526007602052604090205460ff16612b2b576040516310cec38560e21b815260040160405180910390fd5b6001600160a01b0383166000908152600c60205260409020612b4d9083612ea2565b612b6a57604051632eda7a1160e01b815260040160405180910390fd5b6001600160a01b03808416600090815260096020908152604080832093861683529290522054811115612baf5760405162919bed60e01b815260040160405180910390fd5b60175460405163a9059cbb60e01b81526001600160a01b039182166004820152602481018390529083169063a9059cbb906044016020604051808303816000875af1925050508015612c1e575060408051601f3d908101601f19168201909252612c1b918101906139b7565b60015b15612c2557505b6001600160a01b03808416600090815260096020908152604080832093861683529290529081208054839290612c5c908490613a3f565b90915550506001600160a01b0380841660009081526009602090815260408083209386168352929052908120549003612cb3576001600160a01b0383166000908152600c60205260409020612cb190836131be565b505b604080516001600160a01b038481168252602082018490523392908616917f20262b97130b5cb8f80624eed2733df2b05db4a0789b4a3d0157e1d318333104910160405180910390a3505050565b336000908152601a602052604090205460ff16612d3157604051630942721960e31b815260040160405180910390fd5b6001600160a01b03811660009081526007602052604090205460ff1615612d6b576040516304ee891b60e11b815260040160405180910390fd5b6001600160a01b038116600081815260076020526040808220805460ff19166001179055513392917f070125a1c0f5202217aae14ec399abfaaa13c2fd98a91d43bd3a897dd4751e8091a350565b6000612dc3612f73565b602555612dd1600387612ea2565b8015612e0257506001600160a01b038087166000908152600860209081526040808320938916835292905220548411155b8015612e2657506001600160a01b0386166000908152600560205260409020548311155b8015612e5557506001600160a01b0386166000908152600660205260409020548290612e529043613a3f565b10155b15612e99577f4851cad52e624c8f7a1d44c28a80db05988ba2451fc0db6b0ec338d8eca95afb602554604051612e8d91815260200190565b60405180910390a15060015b95945050505050565b6001600160a01b038116600090815260018301602052604081205415155b90505b92915050565b6001600160a01b0383166000908152600a6020526040902054811115612f025760405163356680b760e01b815260040160405180910390fd5b6001600160a01b038083166000908152600860209081526040808320601b5490941683529290529081208054839290612f3c908490613a97565b90915550506001600160a01b03821660009081526005602052604081208054839290612f69908490613a97565b9091555050505050565b6000603f5a612f83906040613a56565b6118f69190613a75565b6001600160a01b0382166000908152600660205260408120548103612fc8576001600160a01b03831660009081526006602052604090204390555b612fd360038461314c565b50506001600160a01b03808316600081815260106020908152604080832094861680845294825280832080549084905593835260088252808320948352939052918220805491928392613027908490613a97565b9091555050601b546001600160a01b0390811690831603612ec357601b54604051630852cd8d60e31b8152600481018390526001600160a01b03909116906342966c6890602401600060405180830381600087803b15801561308857600080fd5b505af115801561309c573d6000803e3d6000fd5b5050505092915050565b6040516001600160a01b03831660248201526044810182905261310990849063a9059cbb60e01b906064015b60408051601f198184030181529190526020810180516001600160e01b03166001600160e01b031990931692909217909152613353565b505050565b6040516001600160a01b03808516602483015283166044820152606481018290526131469085906323b872dd60e01b906084016130d2565b50505050565b6000612ec0836001600160a01b038416613425565b60008084866025546131739190613a3f565b61317d9190613a97565b9050670de0b6b3a7640000846127106131968685613a56565b6131a09190613a75565b6131aa9190613a56565b6131b49190613a75565b9695505050505050565b6000612ec0836001600160a01b038416613474565b601b546001600160a01b038481169116146132ab576017546001600160a01b038085169163a9059cbb91166132088486613a97565b6040516001600160e01b031960e085901b1681526001600160a01b03909216600483015260248201526044016020604051808303816000875af192505050801561326f575060408051601f3d908101601f1916820190925261326c918101906139b7565b60015b6132a9573d80801561329d576040519150601f19603f3d011682016040523d82523d6000602084013e6132a2565b606091505b50506132ab565b505b6001600160a01b038085166000908152600860209081526040808320938716835292905290812080548492906132e2908490613a3f565b90915550506001600160a01b0380851660009081526013602090815260408083209387168352929052908120805483929061331e908490613a3f565b909155505050505050565b6060600061333683613567565b9392505050565b6000612ec3825490565b6000612ec083836135c3565b60006133a8826040518060400160405280602081526020017f5361666545524332303a206c6f772d6c6576656c2063616c6c206661696c6564815250856001600160a01b03166135ed9092919063ffffffff16565b80519091501561310957808060200190518101906133c691906139b7565b6131095760405162461bcd60e51b815260206004820152602a60248201527f5361666545524332303a204552433230206f7065726174696f6e20646964206e6044820152691bdd081cdd58d8d9595960b21b6064820152608401610dd1565b600081815260018301602052604081205461346c57508154600181810184556000848152602080822090930184905584548482528286019093526040902091909155612ec3565b506000612ec3565b6000818152600183016020526040812054801561355d576000613498600183613a3f565b85549091506000906134ac90600190613a3f565b90508181146135115760008660000182815481106134cc576134cc613add565b90600052602060002001549050808760000184815481106134ef576134ef613add565b6000918252602080832090910192909255918252600188019052604090208390555b855486908061352257613522613af3565b600190038181906000526020600020016000905590558560010160008681526020019081526020016000206000905560019350505050612ec3565b6000915050612ec3565b6060816000018054806020026020016040519081016040528092919081815260200182805480156135b757602002820191906000526020600020905b8154815260200190600101908083116135a3575b50505050509050919050565b60008260000182815481106135da576135da613add565b9060005260206000200154905092915050565b60606135fc8484600085613604565b949350505050565b6060824710156136655760405162461bcd60e51b815260206004820152602660248201527f416464726573733a20696e73756666696369656e742062616c616e636520666f6044820152651c8818d85b1b60d21b6064820152608401610dd1565b6001600160a01b0385163b6136bc5760405162461bcd60e51b815260206004820152601d60248201527f416464726573733a2063616c6c20746f206e6f6e2d636f6e74726163740000006044820152606401610dd1565b600080866001600160a01b031685876040516136d89190613b35565b60006040518083038185875af1925050503d8060008114613715576040519150601f19603f3d011682016040523d82523d6000602084013e61371a565b606091505b509150915061372a828286613735565b979650505050505050565b60608315613744575081613336565b8251156137545782518084602001fd5b8160405162461bcd60e51b8152600401610dd19190613b51565b80356001600160a01b038116811461174a57600080fd5b6000806040838503121561379857600080fd5b6137a18361376e565b91506137af6020840161376e565b90509250929050565b600080604083850312156137cb57600080fd5b6137d48361376e565b946020939093013593505050565b6000602082840312156137f457600080fd5b612ec08261376e565b60008060006060848603121561381257600080fd5b61381b8461376e565b92506138296020850161376e565b9150604084013590509250925092565b60006020828403121561384b57600080fd5b5035919050565b6020808252825182820181905260009190848201906040850190845b818110156138935783516001600160a01b03168352928401929184019160010161386e565b50909695505050505050565b6000806000606084860312156138b457600080fd5b6138bd8461376e565b9250602084013591506138d26040850161376e565b90509250925092565b600080600080608085870312156138f157600080fd5b6138fa8561376e565b93506139086020860161376e565b93969395505050506040820135916060013590565b6000806000806080858703121561393357600080fd5b61393c8561376e565b935061394a6020860161376e565b92506040850135915061395f6060860161376e565b905092959194509250565b600080600080600060a0868803121561398257600080fd5b61398b8661376e565b94506139996020870161376e565b94979496505050506040830135926060810135926080909101359150565b6000602082840312156139c957600080fd5b8151801515811461333657600080fd5b6020808252601f908201527f5265656e7472616e637947756172643a207265656e7472616e742063616c6c00604082015260600190565b600060208284031215613a2257600080fd5b5051919050565b634e487b7160e01b600052601160045260246000fd5b600082821015613a5157613a51613a29565b500390565b6000816000190483118215151615613a7057613a70613a29565b500290565b600082613a9257634e487b7160e01b600052601260045260246000fd5b500490565b60008219821115613aaa57613aaa613a29565b500190565b600080600060608486031215613ac457600080fd5b8351925060208401519150604084015190509250925092565b634e487b7160e01b600052603260045260246000fd5b634e487b7160e01b600052603160045260246000fd5b60005b83811015613b24578181015183820152602001613b0c565b838111156131465750506000910152565b60008251613b47818460208701613b09565b9190910192915050565b6020815260008251806020840152613b70816040850160208701613b09565b601f01601f1916919091016040019291505056fea264697066735822122014508836abcfe1adfc390624b5546aa3a8a413f965cf5752456784e64cfe5cdd64736f6c634300080e0033",
  "linkReferences": {},
  "deployedLinkReferences": {}
}