{
  "_format": "hh-sol-artifact-1",
  "contractName": "Keep3rForTest",
  "sourceName": "contracts/for-test/Keep3rForTest.sol",
  "abi": [
    {
      "inputs": [
        {
          "internalType": "address",
          "name": "_governance",
          "type": "address"
        },
        {
          "internalType": "address",
          "name": "_keep3rHelper",
          "type": "address"
        },
        {
          "internalType": "address",
          "name": "_keep3rV1",
          "type": "address"
        },
        {
          "internalType": "address",
          "name": "_keep3rV1Proxy",
          "type": "address"
        },
        {
          "internalType": "address",
          "name": "_kp3rWethPool",
          "type": "address"
        }
      ],
      "stateMutability": "nonpayable",
      "type": "constructor"
    },
    {
      "inputs": [],
      "name": "AlreadyAJob",
      "type": "error"
    },
    {
      "inputs": [],
      "name": "AlreadyAKeeper",
      "type": "error"
    },
    {
      "inputs": [],
      "name": "AlreadyDisputed",
      "type": "error"
    },
    {
      "inputs": [],
      "name": "BondsLocked",
      "type": "error"
    },
    {
      "inputs": [],
      "name": "BondsUnexistent",
      "type": "error"
    },
    {
      "inputs": [],
      "name": "Disputed",
      "type": "error"
    },
    {
      "inputs": [],
      "name": "DisputerExistent",
      "type": "error"
    },
    {
      "inputs": [],
      "name": "DisputerUnexistent",
      "type": "error"
    },
    {
      "inputs": [],
      "name": "InsufficientFunds",
      "type": "error"
    },
    {
      "inputs": [],
      "name": "InsufficientJobTokenCredits",
      "type": "error"
    },
    {
      "inputs": [],
      "name": "JobAlreadyAdded",
      "type": "error"
    },
    {
      "inputs": [],
      "name": "JobDisputed",
      "type": "error"
    },
    {
      "inputs": [],
      "name": "JobLiquidityInsufficient",
      "type": "error"
    },
    {
      "inputs": [],
      "name": "JobLiquidityLessThanMin",
      "type": "error"
    },
    {
      "inputs": [],
      "name": "JobLiquidityUnexistent",
      "type": "error"
    },
    {
      "inputs": [],
      "name": "JobMigrationImpossible",
      "type": "error"
    },
    {
      "inputs": [],
      "name": "JobMigrationLocked",
      "type": "error"
    },
    {
      "inputs": [],
      "name": "JobMigrationUnavailable",
      "type": "error"
    },
    {
      "inputs": [],
      "name": "JobTokenCreditsLocked",
      "type": "error"
    },
    {
      "inputs": [],
      "name": "JobTokenInsufficient",
      "type": "error"
    },
    {
      "inputs": [],
      "name": "JobTokenUnexistent",
      "type": "error"
    },
    {
      "inputs": [],
      "name": "JobUnapproved",
      "type": "error"
    },
    {
      "inputs": [],
      "name": "JobUnavailable",
      "type": "error"
    },
    {
      "inputs": [],
      "name": "LiquidityPairApproved",
      "type": "error"
    },
    {
      "inputs": [],
      "name": "LiquidityPairUnapproved",
      "type": "error"
    },
    {
      "inputs": [],
      "name": "LiquidityPairUnexistent",
      "type": "error"
    },
    {
      "inputs": [],
      "name": "MinRewardPeriod",
      "type": "error"
    },
    {
      "inputs": [],
      "name": "NoGovernanceZeroAddress",
      "type": "error"
    },
    {
      "inputs": [],
      "name": "NotDisputed",
      "type": "error"
    },
    {
      "inputs": [],
      "name": "OnlyDisputer",
      "type": "error"
    },
    {
      "inputs": [],
      "name": "OnlyGovernance",
      "type": "error"
    },
    {
      "inputs": [],
      "name": "OnlyJobOwner",
      "type": "error"
    },
    {
      "inputs": [],
      "name": "OnlyPendingGovernance",
      "type": "error"
    },
    {
      "inputs": [],
      "name": "OnlyPendingJobOwner",
      "type": "error"
    },
    {
      "inputs": [],
      "name": "OnlySlasher",
      "type": "error"
    },
    {
      "inputs": [],
      "name": "SlasherExistent",
      "type": "error"
    },
    {
      "inputs": [],
      "name": "SlasherUnexistent",
      "type": "error"
    },
    {
      "inputs": [],
      "name": "TokenUnallowed",
      "type": "error"
    },
    {
      "inputs": [],
      "name": "UnbondsLocked",
      "type": "error"
    },
    {
      "inputs": [],
      "name": "UnbondsUnexistent",
      "type": "error"
    },
    {
      "inputs": [],
      "name": "ZeroAddress",
      "type": "error"
    },
    {
      "anonymous": false,
      "inputs": [
        {
          "indexed": true,
          "internalType": "address",
          "name": "_keeper",
          "type": "address"
        },
        {
          "indexed": true,
          "internalType": "address",
          "name": "_bond",
          "type": "address"
        },
        {
          "indexed": false,
          "internalType": "uint256",
          "name": "_amount",
          "type": "uint256"
        }
      ],
      "name": "Activation",
      "type": "event"
    },
    {
      "anonymous": false,
      "inputs": [
        {
          "indexed": false,
          "internalType": "uint256",
          "name": "_bondTime",
          "type": "uint256"
        }
      ],
      "name": "BondTimeChange",
      "type": "event"
    },
    {
      "anonymous": false,
      "inputs": [
        {
          "indexed": true,
          "internalType": "address",
          "name": "_keeper",
          "type": "address"
        },
        {
          "indexed": true,
          "internalType": "address",
          "name": "_bonding",
          "type": "address"
        },
        {
          "indexed": false,
          "internalType": "uint256",
          "name": "_amount",
          "type": "uint256"
        }
      ],
      "name": "Bonding",
      "type": "event"
    },
    {
      "anonymous": false,
      "inputs": [
        {
          "indexed": true,
          "internalType": "address",
          "name": "_jobOrKeeper",
          "type": "address"
        },
        {
          "indexed": true,
          "internalType": "address",
          "name": "_disputer",
          "type": "address"
        }
      ],
      "name": "Dispute",
      "type": "event"
    },
    {
      "anonymous": false,
      "inputs": [
        {
          "indexed": false,
          "internalType": "address",
          "name": "_disputer",
          "type": "address"
        }
      ],
      "name": "DisputerAdded",
      "type": "event"
    },
    {
      "anonymous": false,
      "inputs": [
        {
          "indexed": false,
          "internalType": "address",
          "name": "_disputer",
          "type": "address"
        }
      ],
      "name": "DisputerRemoved",
      "type": "event"
    },
    {
      "anonymous": false,
      "inputs": [
        {
          "indexed": false,
          "internalType": "address",
          "name": "_token",
          "type": "address"
        },
        {
          "indexed": false,
          "internalType": "uint256",
          "name": "_amount",
          "type": "uint256"
        },
        {
          "indexed": false,
          "internalType": "address",
          "name": "_to",
          "type": "address"
        }
      ],
      "name": "DustSent",
      "type": "event"
    },
    {
      "anonymous": false,
      "inputs": [
        {
          "indexed": false,
          "internalType": "uint256",
          "name": "_fee",
          "type": "uint256"
        }
      ],
      "name": "FeeChange",
      "type": "event"
    },
    {
      "anonymous": false,
      "inputs": [
        {
          "indexed": false,
          "internalType": "address",
          "name": "_pendingGovernance",
          "type": "address"
        }
      ],
      "name": "GovernanceProposal",
      "type": "event"
    },
    {
      "anonymous": false,
      "inputs": [
        {
          "indexed": false,
          "internalType": "address",
          "name": "_governance",
          "type": "address"
        }
      ],
      "name": "GovernanceSet",
      "type": "event"
    },
    {
      "anonymous": false,
      "inputs": [
        {
          "indexed": false,
          "internalType": "uint256",
          "name": "_inflationPeriod",
          "type": "uint256"
        }
      ],
      "name": "InflationPeriodChange",
      "type": "event"
    },
    {
      "anonymous": false,
      "inputs": [
        {
          "indexed": true,
          "internalType": "address",
          "name": "_job",
          "type": "address"
        },
        {
          "indexed": true,
          "internalType": "address",
          "name": "_jobOwner",
          "type": "address"
        }
      ],
      "name": "JobAddition",
      "type": "event"
    },
    {
      "anonymous": false,
      "inputs": [
        {
          "indexed": true,
          "internalType": "address",
          "name": "_fromJob",
          "type": "address"
        },
        {
          "indexed": false,
          "internalType": "address",
          "name": "_toJob",
          "type": "address"
        }
      ],
      "name": "JobMigrationRequested",
      "type": "event"
    },
    {
      "anonymous": false,
      "inputs": [
        {
          "indexed": false,
          "internalType": "address",
          "name": "_fromJob",
          "type": "address"
        },
        {
          "indexed": true,
          "internalType": "address",
          "name": "_toJob",
          "type": "address"
        }
      ],
      "name": "JobMigrationSuccessful",
      "type": "event"
    },
    {
      "anonymous": false,
      "inputs": [
        {
          "indexed": true,
          "internalType": "address",
          "name": "_job",
          "type": "address"
        },
        {
          "indexed": true,
          "internalType": "address",
          "name": "_previousOwner",
          "type": "address"
        },
        {
          "indexed": true,
          "internalType": "address",
          "name": "_newOwner",
          "type": "address"
        }
      ],
      "name": "JobOwnershipAssent",
      "type": "event"
    },
    {
      "anonymous": false,
      "inputs": [
        {
          "indexed": true,
          "internalType": "address",
          "name": "_job",
          "type": "address"
        },
        {
          "indexed": true,
          "internalType": "address",
          "name": "_owner",
          "type": "address"
        },
        {
          "indexed": true,
          "internalType": "address",
          "name": "_pendingOwner",
          "type": "address"
        }
      ],
      "name": "JobOwnershipChange",
      "type": "event"
    },
    {
      "anonymous": false,
      "inputs": [
        {
          "indexed": true,
          "internalType": "address",
          "name": "_job",
          "type": "address"
        },
        {
          "indexed": false,
          "internalType": "address",
          "name": "_liquidity",
          "type": "address"
        },
        {
          "indexed": true,
          "internalType": "address",
          "name": "_slasher",
          "type": "address"
        },
        {
          "indexed": false,
          "internalType": "uint256",
          "name": "_amount",
          "type": "uint256"
        }
      ],
      "name": "JobSlashLiquidity",
      "type": "event"
    },
    {
      "anonymous": false,
      "inputs": [
        {
          "indexed": true,
          "internalType": "address",
          "name": "_job",
          "type": "address"
        },
        {
          "indexed": false,
          "internalType": "address",
          "name": "_token",
          "type": "address"
        },
        {
          "indexed": true,
          "internalType": "address",
          "name": "_slasher",
          "type": "address"
        },
        {
          "indexed": false,
          "internalType": "uint256",
          "name": "_amount",
          "type": "uint256"
        }
      ],
      "name": "JobSlashToken",
      "type": "event"
    },
    {
      "anonymous": false,
      "inputs": [
        {
          "indexed": false,
          "internalType": "address",
          "name": "_keep3rHelper",
          "type": "address"
        }
      ],
      "name": "Keep3rHelperChange",
      "type": "event"
    },
    {
      "anonymous": false,
      "inputs": [
        {
          "indexed": false,
          "internalType": "address",
          "name": "_keep3rV1",
          "type": "address"
        }
      ],
      "name": "Keep3rV1Change",
      "type": "event"
    },
    {
      "anonymous": false,
      "inputs": [
        {
          "indexed": false,
          "internalType": "address",
          "name": "_keep3rV1Proxy",
          "type": "address"
        }
      ],
      "name": "Keep3rV1ProxyChange",
      "type": "event"
    },
    {
      "anonymous": false,
      "inputs": [
        {
          "indexed": true,
          "internalType": "address",
          "name": "_keeper",
          "type": "address"
        },
        {
          "indexed": true,
          "internalType": "address",
          "name": "_slasher",
          "type": "address"
        }
      ],
      "name": "KeeperRevoke",
      "type": "event"
    },
    {
      "anonymous": false,
      "inputs": [
        {
          "indexed": true,
          "internalType": "address",
          "name": "_keeper",
          "type": "address"
        },
        {
          "indexed": true,
          "internalType": "address",
          "name": "_slasher",
          "type": "address"
        },
        {
          "indexed": false,
          "internalType": "uint256",
          "name": "_amount",
          "type": "uint256"
        }
      ],
      "name": "KeeperSlash",
      "type": "event"
    },
    {
      "anonymous": false,
      "inputs": [
        {
          "indexed": false,
          "internalType": "uint256",
          "name": "_gasLeft",
          "type": "uint256"
        }
      ],
      "name": "KeeperValidation",
      "type": "event"
    },
    {
      "anonymous": false,
      "inputs": [
        {
          "indexed": true,
          "internalType": "address",
          "name": "_credit",
          "type": "address"
        },
        {
          "indexed": true,
          "internalType": "address",
          "name": "_job",
          "type": "address"
        },
        {
          "indexed": true,
          "internalType": "address",
          "name": "_keeper",
          "type": "address"
        },
        {
          "indexed": false,
          "internalType": "uint256",
          "name": "_payment",
          "type": "uint256"
        },
        {
          "indexed": false,
          "internalType": "uint256",
          "name": "_gasLeft",
          "type": "uint256"
        }
      ],
      "name": "KeeperWork",
      "type": "event"
    },
    {
      "anonymous": false,
      "inputs": [
        {
          "indexed": false,
          "internalType": "address",
          "name": "_kp3rWethPool",
          "type": "address"
        }
      ],
      "name": "Kp3rWethPoolChange",
      "type": "event"
    },
    {
      "anonymous": false,
      "inputs": [
        {
          "indexed": true,
          "internalType": "address",
          "name": "_job",
          "type": "address"
        },
        {
          "indexed": true,
          "internalType": "address",
          "name": "_liquidity",
          "type": "address"
        },
        {
          "indexed": true,
          "internalType": "address",
          "name": "_provider",
          "type": "address"
        },
        {
          "indexed": false,
          "internalType": "uint256",
          "name": "_amount",
          "type": "uint256"
        }
      ],
      "name": "LiquidityAddition",
      "type": "event"
    },
    {
      "anonymous": false,
      "inputs": [
        {
          "indexed": false,
          "internalType": "address",
          "name": "_liquidity",
          "type": "address"
        }
      ],
      "name": "LiquidityApproval",
      "type": "event"
    },
    {
      "anonymous": false,
      "inputs": [
        {
          "indexed": true,
          "internalType": "address",
          "name": "_job",
          "type": "address"
        },
        {
          "indexed": false,
          "internalType": "uint256",
          "name": "_rewardedAt",
          "type": "uint256"
        },
        {
          "indexed": false,
          "internalType": "uint256",
          "name": "_currentCredits",
          "type": "uint256"
        }
      ],
      "name": "LiquidityCreditsForced",
      "type": "event"
    },
    {
      "anonymous": false,
      "inputs": [
        {
          "indexed": true,
          "internalType": "address",
          "name": "_job",
          "type": "address"
        },
        {
          "indexed": false,
          "internalType": "uint256",
          "name": "_rewardedAt",
          "type": "uint256"
        },
        {
          "indexed": false,
          "internalType": "uint256",
          "name": "_currentCredits",
          "type": "uint256"
        },
        {
          "indexed": false,
          "internalType": "uint256",
          "name": "_periodCredits",
          "type": "uint256"
        }
      ],
      "name": "LiquidityCreditsReward",
      "type": "event"
    },
    {
      "anonymous": false,
      "inputs": [
        {
          "indexed": false,
          "internalType": "uint256",
          "name": "_liquidityMinimum",
          "type": "uint256"
        }
      ],
      "name": "LiquidityMinimumChange",
      "type": "event"
    },
    {
      "anonymous": false,
      "inputs": [
        {
          "indexed": false,
          "internalType": "address",
          "name": "_liquidity",
          "type": "address"
        }
      ],
      "name": "LiquidityRevocation",
      "type": "event"
    },
    {
      "anonymous": false,
      "inputs": [
        {
          "indexed": true,
          "internalType": "address",
          "name": "_job",
          "type": "address"
        },
        {
          "indexed": true,
          "internalType": "address",
          "name": "_liquidity",
          "type": "address"
        },
        {
          "indexed": true,
          "internalType": "address",
          "name": "_receiver",
          "type": "address"
        },
        {
          "indexed": false,
          "internalType": "uint256",
          "name": "_amount",
          "type": "uint256"
        }
      ],
      "name": "LiquidityWithdrawal",
      "type": "event"
    },
    {
      "anonymous": false,
      "inputs": [
        {
          "indexed": true,
          "internalType": "address",
          "name": "_jobOrKeeper",
          "type": "address"
        },
        {
          "indexed": true,
          "internalType": "address",
          "name": "_resolver",
          "type": "address"
        }
      ],
      "name": "Resolve",
      "type": "event"
    },
    {
      "anonymous": false,
      "inputs": [
        {
          "indexed": false,
          "internalType": "uint256",
          "name": "_rewardPeriodTime",
          "type": "uint256"
        }
      ],
      "name": "RewardPeriodTimeChange",
      "type": "event"
    },
    {
      "anonymous": false,
      "inputs": [
        {
          "indexed": false,
          "internalType": "address",
          "name": "_slasher",
          "type": "address"
        }
      ],
      "name": "SlasherAdded",
      "type": "event"
    },
    {
      "anonymous": false,
      "inputs": [
        {
          "indexed": false,
          "internalType": "address",
          "name": "_slasher",
          "type": "address"
        }
      ],
      "name": "SlasherRemoved",
      "type": "event"
    },
    {
      "anonymous": false,
      "inputs": [
        {
          "indexed": true,
          "internalType": "address",
          "name": "_job",
          "type": "address"
        },
        {
          "indexed": true,
          "internalType": "address",
          "name": "_token",
          "type": "address"
        },
        {
          "indexed": true,
          "internalType": "address",
          "name": "_provider",
          "type": "address"
        },
        {
          "indexed": false,
          "internalType": "uint256",
          "name": "_amount",
          "type": "uint256"
        }
      ],
      "name": "TokenCreditAddition",
      "type": "event"
    },
    {
      "anonymous": false,
      "inputs": [
        {
          "indexed": true,
          "internalType": "address",
          "name": "_job",
          "type": "address"
        },
        {
          "indexed": true,
          "internalType": "address",
          "name": "_token",
          "type": "address"
        },
        {
          "indexed": true,
          "internalType": "address",
          "name": "_receiver",
          "type": "address"
        },
        {
          "indexed": false,
          "internalType": "uint256",
          "name": "_amount",
          "type": "uint256"
        }
      ],
      "name": "TokenCreditWithdrawal",
      "type": "event"
    },
    {
      "anonymous": false,
      "inputs": [
        {
          "indexed": false,
          "internalType": "uint256",
          "name": "_unbondTime",
          "type": "uint256"
        }
      ],
      "name": "UnbondTimeChange",
      "type": "event"
    },
    {
      "anonymous": false,
      "inputs": [
        {
          "indexed": true,
          "internalType": "address",
          "name": "_keeperOrJob",
          "type": "address"
        },
        {
          "indexed": true,
          "internalType": "address",
          "name": "_unbonding",
          "type": "address"
        },
        {
          "indexed": false,
          "internalType": "uint256",
          "name": "_amount",
          "type": "uint256"
        }
      ],
      "name": "Unbonding",
      "type": "event"
    },
    {
      "anonymous": false,
      "inputs": [
        {
          "indexed": true,
          "internalType": "address",
          "name": "_keeper",
          "type": "address"
        },
        {
          "indexed": true,
          "internalType": "address",
          "name": "_bond",
          "type": "address"
        },
        {
          "indexed": false,
          "internalType": "uint256",
          "name": "_amount",
          "type": "uint256"
        }
      ],
      "name": "Withdrawal",
      "type": "event"
    },
    {
      "inputs": [],
      "name": "acceptGovernance",
      "outputs": [],
      "stateMutability": "nonpayable",
      "type": "function"
    },
    {
      "inputs": [
        {
          "internalType": "address",
          "name": "_fromJob",
          "type": "address"
        },
        {
          "internalType": "address",
          "name": "_toJob",
          "type": "address"
        }
      ],
      "name": "acceptJobMigration",
      "outputs": [],
      "stateMutability": "nonpayable",
      "type": "function"
    },
    {
      "inputs": [
        {
          "internalType": "address",
          "name": "_job",
          "type": "address"
        }
      ],
      "name": "acceptJobOwnership",
      "outputs": [],
      "stateMutability": "nonpayable",
      "type": "function"
    },
    {
      "inputs": [
        {
          "internalType": "address",
          "name": "_bonding",
          "type": "address"
        }
      ],
      "name": "activate",
      "outputs": [],
      "stateMutability": "nonpayable",
      "type": "function"
    },
    {
      "inputs": [
        {
          "internalType": "address",
          "name": "_disputer",
          "type": "address"
        }
      ],
      "name": "addDisputer",
      "outputs": [],
      "stateMutability": "nonpayable",
      "type": "function"
    },
    {
      "inputs": [
        {
          "internalType": "address",
          "name": "_job",
          "type": "address"
        }
      ],
      "name": "addJob",
      "outputs": [],
      "stateMutability": "nonpayable",
      "type": "function"
    },
    {
      "inputs": [
        {
          "internalType": "address",
          "name": "_job",
          "type": "address"
        },
        {
          "internalType": "address",
          "name": "_liquidity",
          "type": "address"
        },
        {
          "internalType": "uint256",
          "name": "_amount",
          "type": "uint256"
        }
      ],
      "name": "addLiquidityToJob",
      "outputs": [],
      "stateMutability": "nonpayable",
      "type": "function"
    },
    {
      "inputs": [
        {
          "internalType": "address",
          "name": "_slasher",
          "type": "address"
        }
      ],
      "name": "addSlasher",
      "outputs": [],
      "stateMutability": "nonpayable",
      "type": "function"
    },
    {
      "inputs": [
        {
          "internalType": "address",
          "name": "_job",
          "type": "address"
        },
        {
          "internalType": "address",
          "name": "_token",
          "type": "address"
        },
        {
          "internalType": "uint256",
          "name": "_amount",
          "type": "uint256"
        }
      ],
      "name": "addTokenCreditsToJob",
      "outputs": [],
      "stateMutability": "nonpayable",
      "type": "function"
    },
    {
      "inputs": [
        {
          "internalType": "address",
          "name": "_liquidity",
          "type": "address"
        }
      ],
      "name": "approveLiquidity",
      "outputs": [],
      "stateMutability": "nonpayable",
      "type": "function"
    },
    {
      "inputs": [],
      "name": "approvedLiquidities",
      "outputs": [
        {
          "internalType": "address[]",
          "name": "_list",
          "type": "address[]"
        }
      ],
      "stateMutability": "view",
      "type": "function"
    },
    {
      "inputs": [
        {
          "internalType": "address",
          "name": "_bonding",
          "type": "address"
        },
        {
          "internalType": "uint256",
          "name": "_amount",
          "type": "uint256"
        }
      ],
      "name": "bond",
      "outputs": [],
      "stateMutability": "nonpayable",
      "type": "function"
    },
    {
      "inputs": [],
      "name": "bondTime",
      "outputs": [
        {
          "internalType": "uint256",
          "name": "",
          "type": "uint256"
        }
      ],
      "stateMutability": "view",
      "type": "function"
    },
    {
      "inputs": [
        {
          "internalType": "address",
          "name": "_keeper",
          "type": "address"
        },
        {
          "internalType": "uint256",
          "name": "_payment",
          "type": "uint256"
        }
      ],
      "name": "bondedPayment",
      "outputs": [],
      "stateMutability": "nonpayable",
      "type": "function"
    },
    {
      "inputs": [
        {
          "internalType": "address",
          "name": "",
          "type": "address"
        },
        {
          "internalType": "address",
          "name": "",
          "type": "address"
        }
      ],
      "name": "bonds",
      "outputs": [
        {
          "internalType": "uint256",
          "name": "",
          "type": "uint256"
        }
      ],
      "stateMutability": "view",
      "type": "function"
    },
    {
      "inputs": [
        {
          "internalType": "address",
          "name": "",
          "type": "address"
        },
        {
          "internalType": "address",
          "name": "",
          "type": "address"
        }
      ],
      "name": "canActivateAfter",
      "outputs": [
        {
          "internalType": "uint256",
          "name": "",
          "type": "uint256"
        }
      ],
      "stateMutability": "view",
      "type": "function"
    },
    {
      "inputs": [
        {
          "internalType": "address",
          "name": "",
          "type": "address"
        },
        {
          "internalType": "address",
          "name": "",
          "type": "address"
        }
      ],
      "name": "canWithdrawAfter",
      "outputs": [
        {
          "internalType": "uint256",
          "name": "",
          "type": "uint256"
        }
      ],
      "stateMutability": "view",
      "type": "function"
    },
    {
      "inputs": [
        {
          "internalType": "address",
          "name": "_job",
          "type": "address"
        },
        {
          "internalType": "address",
          "name": "_newOwner",
          "type": "address"
        }
      ],
      "name": "changeJobOwnership",
      "outputs": [],
      "stateMutability": "nonpayable",
      "type": "function"
    },
    {
      "inputs": [
        {
          "internalType": "address",
          "name": "_token",
          "type": "address"
        },
        {
          "internalType": "address",
          "name": "_keeper",
          "type": "address"
        },
        {
          "internalType": "uint256",
          "name": "_amount",
          "type": "uint256"
        }
      ],
      "name": "directTokenPayment",
      "outputs": [],
      "stateMutability": "nonpayable",
      "type": "function"
    },
    {
      "inputs": [
        {
          "internalType": "address",
          "name": "_jobOrKeeper",
          "type": "address"
        }
      ],
      "name": "dispute",
      "outputs": [],
      "stateMutability": "nonpayable",
      "type": "function"
    },
    {
      "inputs": [
        {
          "internalType": "address",
          "name": "",
          "type": "address"
        }
      ],
      "name": "disputers",
      "outputs": [
        {
          "internalType": "bool",
          "name": "",
          "type": "bool"
        }
      ],
      "stateMutability": "view",
      "type": "function"
    },
    {
      "inputs": [
        {
          "internalType": "address",
          "name": "",
          "type": "address"
        }
      ],
      "name": "disputes",
      "outputs": [
        {
          "internalType": "bool",
          "name": "",
          "type": "bool"
        }
      ],
      "stateMutability": "view",
      "type": "function"
    },
    {
      "inputs": [],
      "name": "fee",
      "outputs": [
        {
          "internalType": "uint256",
          "name": "",
          "type": "uint256"
        }
      ],
      "stateMutability": "view",
      "type": "function"
    },
    {
      "inputs": [
        {
          "internalType": "address",
          "name": "",
          "type": "address"
        }
      ],
      "name": "firstSeen",
      "outputs": [
        {
          "internalType": "uint256",
          "name": "",
          "type": "uint256"
        }
      ],
      "stateMutability": "view",
      "type": "function"
    },
    {
      "inputs": [
        {
          "internalType": "address",
          "name": "_job",
          "type": "address"
        },
        {
          "internalType": "uint256",
          "name": "_amount",
          "type": "uint256"
        }
      ],
      "name": "forceLiquidityCreditsToJob",
      "outputs": [],
      "stateMutability": "nonpayable",
      "type": "function"
    },
    {
      "inputs": [],
      "name": "governance",
      "outputs": [
        {
          "internalType": "address",
          "name": "",
          "type": "address"
        }
      ],
      "stateMutability": "view",
      "type": "function"
    },
    {
      "inputs": [
        {
          "internalType": "address",
          "name": "",
          "type": "address"
        }
      ],
      "name": "hasBonded",
      "outputs": [
        {
          "internalType": "bool",
          "name": "",
          "type": "bool"
        }
      ],
      "stateMutability": "view",
      "type": "function"
    },
    {
      "inputs": [],
      "name": "inflationPeriod",
      "outputs": [
        {
          "internalType": "uint256",
          "name": "",
          "type": "uint256"
        }
      ],
      "stateMutability": "view",
      "type": "function"
    },
    {
      "inputs": [
        {
          "internalType": "address",
          "name": "_keeper",
          "type": "address"
        },
        {
          "internalType": "address",
          "name": "_bond",
          "type": "address"
        },
        {
          "internalType": "uint256",
          "name": "_minBond",
          "type": "uint256"
        },
        {
          "internalType": "uint256",
          "name": "_earned",
          "type": "uint256"
        },
        {
          "internalType": "uint256",
          "name": "_age",
          "type": "uint256"
        }
      ],
      "name": "isBondedKeeper",
      "outputs": [
        {
          "internalType": "bool",
          "name": "_isBondedKeeper",
          "type": "bool"
        }
      ],
      "stateMutability": "nonpayable",
      "type": "function"
    },
    {
      "inputs": [
        {
          "internalType": "address",
          "name": "_keeper",
          "type": "address"
        }
      ],
      "name": "isKeeper",
      "outputs": [
        {
          "internalType": "bool",
          "name": "_isKeeper",
          "type": "bool"
        }
      ],
      "stateMutability": "nonpayable",
      "type": "function"
    },
    {
      "inputs": [
        {
          "internalType": "address",
          "name": "_job",
          "type": "address"
        }
      ],
      "name": "jobLiquidityCredits",
      "outputs": [
        {
          "internalType": "uint256",
          "name": "_liquidityCredits",
          "type": "uint256"
        }
      ],
      "stateMutability": "view",
      "type": "function"
    },
    {
      "inputs": [
        {
          "internalType": "address",
          "name": "",
          "type": "address"
        }
      ],
      "name": "jobOwner",
      "outputs": [
        {
          "internalType": "address",
          "name": "",
          "type": "address"
        }
      ],
      "stateMutability": "view",
      "type": "function"
    },
    {
      "inputs": [
        {
          "internalType": "address",
          "name": "",
          "type": "address"
        }
      ],
      "name": "jobPendingOwner",
      "outputs": [
        {
          "internalType": "address",
          "name": "",
          "type": "address"
        }
      ],
      "stateMutability": "view",
      "type": "function"
    },
    {
      "inputs": [
        {
          "internalType": "address",
          "name": "_job",
          "type": "address"
        }
      ],
      "name": "jobPeriodCredits",
      "outputs": [
        {
          "internalType": "uint256",
          "name": "_periodCredits",
          "type": "uint256"
        }
      ],
      "stateMutability": "view",
      "type": "function"
    },
    {
      "inputs": [
        {
          "internalType": "address",
          "name": "",
          "type": "address"
        },
        {
          "internalType": "address",
          "name": "",
          "type": "address"
        }
      ],
      "name": "jobTokenCredits",
      "outputs": [
        {
          "internalType": "uint256",
          "name": "",
          "type": "uint256"
        }
      ],
      "stateMutability": "view",
      "type": "function"
    },
    {
      "inputs": [
        {
          "internalType": "address",
          "name": "",
          "type": "address"
        },
        {
          "internalType": "address",
          "name": "",
          "type": "address"
        }
      ],
      "name": "jobTokenCreditsAddedAt",
      "outputs": [
        {
          "internalType": "uint256",
          "name": "",
          "type": "uint256"
        }
      ],
      "stateMutability": "view",
      "type": "function"
    },
    {
      "inputs": [],
      "name": "jobs",
      "outputs": [
        {
          "internalType": "address[]",
          "name": "_list",
          "type": "address[]"
        }
      ],
      "stateMutability": "view",
      "type": "function"
    },
    {
      "inputs": [],
      "name": "keep3rHelper",
      "outputs": [
        {
          "internalType": "address",
          "name": "",
          "type": "address"
        }
      ],
      "stateMutability": "view",
      "type": "function"
    },
    {
      "inputs": [],
      "name": "keep3rV1",
      "outputs": [
        {
          "internalType": "address",
          "name": "",
          "type": "address"
        }
      ],
      "stateMutability": "view",
      "type": "function"
    },
    {
      "inputs": [],
      "name": "keep3rV1Proxy",
      "outputs": [
        {
          "internalType": "address",
          "name": "",
          "type": "address"
        }
      ],
      "stateMutability": "view",
      "type": "function"
    },
    {
      "inputs": [],
      "name": "keepers",
      "outputs": [
        {
          "internalType": "address[]",
          "name": "_list",
          "type": "address[]"
        }
      ],
      "stateMutability": "view",
      "type": "function"
    },
    {
      "inputs": [],
      "name": "kp3rWethPool",
      "outputs": [
        {
          "internalType": "address",
          "name": "",
          "type": "address"
        }
      ],
      "stateMutability": "view",
      "type": "function"
    },
    {
      "inputs": [
        {
          "internalType": "address",
          "name": "",
          "type": "address"
        },
        {
          "internalType": "address",
          "name": "",
          "type": "address"
        }
      ],
      "name": "liquidityAmount",
      "outputs": [
        {
          "internalType": "uint256",
          "name": "",
          "type": "uint256"
        }
      ],
      "stateMutability": "view",
      "type": "function"
    },
    {
      "inputs": [],
      "name": "liquidityMinimum",
      "outputs": [
        {
          "internalType": "uint256",
          "name": "",
          "type": "uint256"
        }
      ],
      "stateMutability": "view",
      "type": "function"
    },
    {
      "inputs": [
        {
          "internalType": "address",
          "name": "_fromJob",
          "type": "address"
        },
        {
          "internalType": "address",
          "name": "_toJob",
          "type": "address"
        }
      ],
      "name": "migrateJob",
      "outputs": [],
      "stateMutability": "nonpayable",
      "type": "function"
    },
    {
      "inputs": [
        {
          "internalType": "address",
          "name": "_liquidity",
          "type": "address"
        }
      ],
      "name": "observeLiquidity",
      "outputs": [
        {
          "components": [
            {
              "internalType": "int56",
              "name": "current",
              "type": "int56"
            },
            {
              "internalType": "int56",
              "name": "difference",
              "type": "int56"
            },
            {
              "internalType": "uint256",
              "name": "period",
              "type": "uint256"
            }
          ],
          "internalType": "struct IKeep3rJobFundableLiquidity.TickCache",
          "name": "_tickCache",
          "type": "tuple"
        }
      ],
      "stateMutability": "view",
      "type": "function"
    },
    {
      "inputs": [
        {
          "internalType": "address",
          "name": "",
          "type": "address"
        },
        {
          "internalType": "address",
          "name": "",
          "type": "address"
        }
      ],
      "name": "pendingBonds",
      "outputs": [
        {
          "internalType": "uint256",
          "name": "",
          "type": "uint256"
        }
      ],
      "stateMutability": "view",
      "type": "function"
    },
    {
      "inputs": [],
      "name": "pendingGovernance",
      "outputs": [
        {
          "internalType": "address",
          "name": "",
          "type": "address"
        }
      ],
      "stateMutability": "view",
      "type": "function"
    },
    {
      "inputs": [
        {
          "internalType": "address",
          "name": "",
          "type": "address"
        }
      ],
      "name": "pendingJobMigrations",
      "outputs": [
        {
          "internalType": "address",
          "name": "",
          "type": "address"
        }
      ],
      "stateMutability": "view",
      "type": "function"
    },
    {
      "inputs": [
        {
          "internalType": "address",
          "name": "",
          "type": "address"
        },
        {
          "internalType": "address",
          "name": "",
          "type": "address"
        }
      ],
      "name": "pendingUnbonds",
      "outputs": [
        {
          "internalType": "uint256",
          "name": "",
          "type": "uint256"
        }
      ],
      "stateMutability": "view",
      "type": "function"
    },
    {
      "inputs": [
        {
          "internalType": "address",
          "name": "_liquidity",
          "type": "address"
        },
        {
          "internalType": "uint256",
          "name": "_amount",
          "type": "uint256"
        }
      ],
      "name": "quoteLiquidity",
      "outputs": [
        {
          "internalType": "uint256",
          "name": "_periodCredits",
          "type": "uint256"
        }
      ],
      "stateMutability": "view",
      "type": "function"
    },
    {
      "inputs": [
        {
          "internalType": "address",
          "name": "_disputer",
          "type": "address"
        }
      ],
      "name": "removeDisputer",
      "outputs": [],
      "stateMutability": "nonpayable",
      "type": "function"
    },
    {
      "inputs": [
        {
          "internalType": "address",
          "name": "_slasher",
          "type": "address"
        }
      ],
      "name": "removeSlasher",
      "outputs": [],
      "stateMutability": "nonpayable",
      "type": "function"
    },
    {
      "inputs": [
        {
          "internalType": "address",
          "name": "_jobOrKeeper",
          "type": "address"
        }
      ],
      "name": "resolve",
      "outputs": [],
      "stateMutability": "nonpayable",
      "type": "function"
    },
    {
      "inputs": [
        {
          "internalType": "address",
          "name": "_keeper",
          "type": "address"
        }
      ],
      "name": "revoke",
      "outputs": [],
      "stateMutability": "nonpayable",
      "type": "function"
    },
    {
      "inputs": [
        {
          "internalType": "address",
          "name": "_liquidity",
          "type": "address"
        }
      ],
      "name": "revokeLiquidity",
      "outputs": [],
      "stateMutability": "nonpayable",
      "type": "function"
    },
    {
      "inputs": [],
      "name": "rewardPeriodTime",
      "outputs": [
        {
          "internalType": "uint256",
          "name": "",
          "type": "uint256"
        }
      ],
      "stateMutability": "view",
      "type": "function"
    },
    {
      "inputs": [
        {
          "internalType": "address",
          "name": "",
          "type": "address"
        }
      ],
      "name": "rewardedAt",
      "outputs": [
        {
          "internalType": "uint256",
          "name": "",
          "type": "uint256"
        }
      ],
      "stateMutability": "view",
      "type": "function"
    },
    {
      "inputs": [
        {
          "internalType": "address",
          "name": "_token",
          "type": "address"
        },
        {
          "internalType": "uint256",
          "name": "_amount",
          "type": "uint256"
        },
        {
          "internalType": "address",
          "name": "_to",
          "type": "address"
        }
      ],
      "name": "sendDust",
      "outputs": [],
      "stateMutability": "nonpayable",
      "type": "function"
    },
    {
      "inputs": [
        {
          "internalType": "uint256",
          "name": "_bondTime",
          "type": "uint256"
        }
      ],
      "name": "setBondTime",
      "outputs": [],
      "stateMutability": "nonpayable",
      "type": "function"
    },
    {
      "inputs": [
        {
          "internalType": "uint256",
          "name": "_fee",
          "type": "uint256"
        }
      ],
      "name": "setFee",
      "outputs": [],
      "stateMutability": "nonpayable",
      "type": "function"
    },
    {
      "inputs": [
        {
          "internalType": "address",
          "name": "_governance",
          "type": "address"
        }
      ],
      "name": "setGovernance",
      "outputs": [],
      "stateMutability": "nonpayable",
      "type": "function"
    },
    {
      "inputs": [
        {
          "internalType": "uint256",
          "name": "_inflationPeriod",
          "type": "uint256"
        }
      ],
      "name": "setInflationPeriod",
      "outputs": [],
      "stateMutability": "nonpayable",
      "type": "function"
    },
    {
      "inputs": [
        {
          "internalType": "address",
          "name": "_keep3rHelper",
          "type": "address"
        }
      ],
      "name": "setKeep3rHelper",
      "outputs": [],
      "stateMutability": "nonpayable",
      "type": "function"
    },
    {
      "inputs": [
        {
          "internalType": "address",
          "name": "_keep3rV1",
          "type": "address"
        }
      ],
      "name": "setKeep3rV1",
      "outputs": [],
      "stateMutability": "nonpayable",
      "type": "function"
    },
    {
      "inputs": [
        {
          "internalType": "address",
          "name": "_keep3rV1Proxy",
          "type": "address"
        }
      ],
      "name": "setKeep3rV1Proxy",
      "outputs": [],
      "stateMutability": "nonpayable",
      "type": "function"
    },
    {
      "inputs": [
        {
          "internalType": "address",
          "name": "_kp3rWethPool",
          "type": "address"
        }
      ],
      "name": "setKp3rWethPool",
      "outputs": [],
      "stateMutability": "nonpayable",
      "type": "function"
    },
    {
      "inputs": [
        {
          "internalType": "uint256",
          "name": "_liquidityMinimum",
          "type": "uint256"
        }
      ],
      "name": "setLiquidityMinimum",
      "outputs": [],
      "stateMutability": "nonpayable",
      "type": "function"
    },
    {
      "inputs": [
        {
          "internalType": "uint256",
          "name": "_rewardPeriodTime",
          "type": "uint256"
        }
      ],
      "name": "setRewardPeriodTime",
      "outputs": [],
      "stateMutability": "nonpayable",
      "type": "function"
    },
    {
      "inputs": [
        {
          "internalType": "uint256",
          "name": "_unbondTime",
          "type": "uint256"
        }
      ],
      "name": "setUnbondTime",
      "outputs": [],
      "stateMutability": "nonpayable",
      "type": "function"
    },
    {
      "inputs": [
        {
          "internalType": "address",
          "name": "_keeper",
          "type": "address"
        },
        {
          "internalType": "address",
          "name": "_bonded",
          "type": "address"
        },
        {
          "internalType": "uint256",
          "name": "_bondAmount",
          "type": "uint256"
        },
        {
          "internalType": "uint256",
          "name": "_unbondAmount",
          "type": "uint256"
        }
      ],
      "name": "slash",
      "outputs": [],
      "stateMutability": "nonpayable",
      "type": "function"
    },
    {
      "inputs": [
        {
          "internalType": "address",
          "name": "_job",
          "type": "address"
        },
        {
          "internalType": "address",
          "name": "_liquidity",
          "type": "address"
        },
        {
          "internalType": "uint256",
          "name": "_amount",
          "type": "uint256"
        }
      ],
      "name": "slashLiquidityFromJob",
      "outputs": [],
      "stateMutability": "nonpayable",
      "type": "function"
    },
    {
      "inputs": [
        {
          "internalType": "address",
          "name": "_job",
          "type": "address"
        },
        {
          "internalType": "address",
          "name": "_token",
          "type": "address"
        },
        {
          "internalType": "uint256",
          "name": "_amount",
          "type": "uint256"
        }
      ],
      "name": "slashTokenFromJob",
      "outputs": [],
      "stateMutability": "nonpayable",
      "type": "function"
    },
    {
      "inputs": [
        {
          "internalType": "address",
          "name": "",
          "type": "address"
        }
      ],
      "name": "slashers",
      "outputs": [
        {
          "internalType": "bool",
          "name": "",
          "type": "bool"
        }
      ],
      "stateMutability": "view",
      "type": "function"
    },
    {
      "inputs": [
        {
          "internalType": "address",
          "name": "_job",
          "type": "address"
        }
      ],
      "name": "totalJobCredits",
      "outputs": [
        {
          "internalType": "uint256",
          "name": "_credits",
          "type": "uint256"
        }
      ],
      "stateMutability": "view",
      "type": "function"
    },
    {
      "inputs": [
        {
          "internalType": "address",
          "name": "_bonding",
          "type": "address"
        },
        {
          "internalType": "uint256",
          "name": "_amount",
          "type": "uint256"
        }
      ],
      "name": "unbond",
      "outputs": [],
      "stateMutability": "nonpayable",
      "type": "function"
    },
    {
      "inputs": [
        {
          "internalType": "address",
          "name": "_job",
          "type": "address"
        },
        {
          "internalType": "address",
          "name": "_liquidity",
          "type": "address"
        },
        {
          "internalType": "uint256",
          "name": "_amount",
          "type": "uint256"
        }
      ],
      "name": "unbondLiquidityFromJob",
      "outputs": [],
      "stateMutability": "nonpayable",
      "type": "function"
    },
    {
      "inputs": [],
      "name": "unbondTime",
      "outputs": [
        {
          "internalType": "uint256",
          "name": "",
          "type": "uint256"
        }
      ],
      "stateMutability": "view",
      "type": "function"
    },
    {
      "inputs": [
        {
          "internalType": "address",
          "name": "_liquidity",
          "type": "address"
        }
      ],
      "name": "viewTickOrder",
      "outputs": [
        {
          "internalType": "bool",
          "name": "",
          "type": "bool"
        }
      ],
      "stateMutability": "view",
      "type": "function"
    },
    {
      "inputs": [
        {
          "internalType": "address",
          "name": "_bonding",
          "type": "address"
        }
      ],
      "name": "withdraw",
      "outputs": [],
      "stateMutability": "nonpayable",
      "type": "function"
    },
    {
      "inputs": [
        {
          "internalType": "address",
          "name": "_job",
          "type": "address"
        },
        {
          "internalType": "address",
          "name": "_liquidity",
          "type": "address"
        },
        {
          "internalType": "address",
          "name": "_receiver",
          "type": "address"
        }
      ],
      "name": "withdrawLiquidityFromJob",
      "outputs": [],
      "stateMutability": "nonpayable",
      "type": "function"
    },
    {
      "inputs": [
        {
          "internalType": "address",
          "name": "_job",
          "type": "address"
        },
        {
          "internalType": "address",
          "name": "_token",
          "type": "address"
        },
        {
          "internalType": "uint256",
          "name": "_amount",
          "type": "uint256"
        },
        {
          "internalType": "address",
          "name": "_receiver",
          "type": "address"
        }
      ],
      "name": "withdrawTokenCreditsFromJob",
      "outputs": [],
      "stateMutability": "nonpayable",
      "type": "function"
    },
    {
      "inputs": [
        {
          "internalType": "address",
          "name": "",
          "type": "address"
        }
      ],
      "name": "workCompleted",
      "outputs": [
        {
          "internalType": "uint256",
          "name": "",
          "type": "uint256"
        }
      ],
      "stateMutability": "view",
      "type": "function"
    },
    {
      "inputs": [
        {
          "internalType": "address",
          "name": "_keeper",
          "type": "address"
        }
      ],
      "name": "worked",
      "outputs": [],
      "stateMutability": "nonpayable",
      "type": "function"
    },
    {
      "inputs": [
        {
          "internalType": "address",
          "name": "",
          "type": "address"
        }
      ],
      "name": "workedAt",
      "outputs": [
        {
          "internalType": "uint256",
          "name": "",
          "type": "uint256"
        }
      ],
      "stateMutability": "view",
      "type": "function"
    }
  ],
  "bytecode": "0x60806040526203f480601f55621275006020556729a2241af62c000060215562069780602255622cd300602355601e6024553480156200003e57600080fd5b5060405162006236380380620062368339810160408190526200006191620001c8565b600160005584848484848383838388806001600160a01b038116620000985760405162b293ed60e81b815260040160405180910390fd5b601780546001600160a01b03199081166001600160a01b0393841617909155601d80548216888416178155601b80548316888516179055601c80548316878516179055601e8054831686851690811782556000818152600e602052604090819020805490951690911790935590549054915163696a437b60e01b81529183166004830152909116915063696a437b90602401602060405180830381865afa15801562000148573d6000803e3d6000fd5b505050506040513d601f19601f820116820180604052508101906200016e919062000238565b6001600160a01b03919091166000908152600f60205260409020805460ff191691151591909117905550620002639b505050505050505050505050565b80516001600160a01b0381168114620001c357600080fd5b919050565b600080600080600060a08688031215620001e157600080fd5b620001ec86620001ab565b9450620001fc60208701620001ab565b93506200020c60408701620001ab565b92506200021c60608701620001ab565b91506200022c60808701620001ab565b90509295509295909350565b6000602082840312156200024b57600080fd5b815180151581146200025c57600080fd5b9392505050565b615fc380620002736000396000f3fe608060405234801561001057600080fd5b50600436106104b75760003560e01c80638fe204dd11610278578063c20297f01161015c578063ec00cdfc116100ce578063f25e311b11610092578063f25e311b14610c3e578063f39c38a014610c51578063f75f9f7b14610c64578063f9d46cf214610c77578063fc253d2b14610c8a578063fe75bc4614610c9357600080fd5b8063ec00cdfc14610bbc578063ec8ca64314610bcf578063f0f346b914610bf8578063f11a1d1a14610c0b578063f136a09d14610c1e57600080fd5b8063cd22af1b11610120578063cd22af1b14610b2f578063d55995fe14610b5a578063dd2080d614610b6d578063ddca3f4314610b80578063e326ac4314610b89578063ebbb619414610ba957600080fd5b8063c20297f014610ad0578063c5198abc14610ae3578063c7ae40d014610af6578063cb4be2bb14610b09578063cb54694d14610b1c57600080fd5b8063a676f9ff116101f5578063b0103b1a116101b9578063b0103b1a14610a26578063b239223314610a49578063b440027f14610a5c578063b600702a14610a87578063b7e7734014610a9a578063b87fcbff14610aad57600080fd5b8063a676f9ff146109c4578063a7d2e784146109e4578063aac6aa9c146109ed578063ab033ea914610a00578063af320e8114610a1357600080fd5b80639d5c33d81161023c5780639d5c33d81461094d578063a214580914610960578063a39744b514610973578063a515366a1461099e578063a5d059ca146109b157600080fd5b80638fe204dd146108e357806390a4684e146108f6578063951dc22c14610909578063966abd001461091157806398e90a0f1461092457600080fd5b8063594a3a931161039f5780636ba42aaa1161031c578063768b5d90116102e0578063768b5d90146108605780637b40c913146108695780637c8fce231461087c578063878c723e146108845780638bb6dfa8146108ad5780638cb22b76146108c057600080fd5b80636ba42aaa146108015780636cf262bc146108145780636e2a9ca61461082757806372da828a1461083a57806374a8f1031461084d57600080fd5b8063633fb68f11610363578063633fb68f1461079457806364bb43ee1461079d57806368a9f19c146107b0578063694798e6146107c357806369fe0e2d146107ee57600080fd5b8063594a3a931461073f57806359a2255e146107525780635aa6e675146107655780635ebe23f0146107785780635feeb7941461078157600080fd5b80631b44555e11610438578063274a8db4116103fc578063274a8db414610694578063454c5031146106c757806351cff8d9146106f357806352a4de291461070657806355ea6c4714610719578063575288bf1461072c57600080fd5b80631b44555e146106035780631c5a9d9c146106235780631ef94b911461063657806321040b0114610661578063238efcbc1461068c57600080fd5b806311466d721161047f57806311466d721461054a57806315006b821461055d578063160e1e3114610588578063165e62e71461059b578063168f92e7146105d857600080fd5b8063034d4c61146104bc57806307b435c2146104e25780630c620bce1461050d5780630d6a1f87146105225780631101eb4114610535575b600080fd5b6104cf6104ca366004615989565b610ca6565b6040519081526020015b60405180910390f35b6104cf6104f03660046159a6565b601260209081526000928352604080842090915290825290205481565b610515610dac565b6040516104d991906159df565b6104cf610530366004615a2c565b610dbd565b610548610543366004615a58565b610ec1565b005b610548610558366004615a2c565b61101b565b6104cf61056b3660046159a6565b601060209081526000928352604080842090915290825290205481565b610548610596366004615989565b6111c0565b6105ae6105a9366004615989565b61130e565b604080518251600690810b825260208085015190910b9082015291810151908201526060016104d9565b6104cf6105e63660046159a6565b600960209081526000928352604080842090915290825290205481565b6104cf610611366004615989565b60056020526000908152604090205481565b610548610631366004615989565b6116a1565b601b54610649906001600160a01b031681565b6040516001600160a01b0390911681526020016104d9565b6104cf61066f3660046159a6565b601360209081526000928352604080842090915290825290205481565b6105486117dc565b6106b76106a2366004615989565b601a6020526000908152604090205460ff1681565b60405190151581526020016104d9565b6106b76106d5366004615989565b6001600160a01b03166000908152600f602052604090205460ff1690565b610548610701366004615989565b611865565b610548610714366004615a58565b611a6f565b610548610727366004615989565b611ca1565b61054861073a366004615a58565b611d55565b61054861074d3660046159a6565b611ff1565b610548610760366004615989565b612096565b601754610649906001600160a01b031681565b6104cf601f5481565b61054861078f366004615989565b612148565b6104cf60215481565b6105486107ab366004615989565b6123b9565b6105486107be366004615989565b612445565b6104cf6107d13660046159a6565b602860209081526000928352604080842090915290825290205481565b6105486107fc366004615a99565b6124fe565b6106b761080f366004615989565b61255e565b6104cf610822366004615989565b6125be565b610548610835366004615a58565b612706565b610548610848366004615989565b61283f565b61054861085b366004615989565b6128df565b6104cf60225481565b601e54610649906001600160a01b031681565b6105156129da565b610649610892366004615989565b6001602052600090815260409020546001600160a01b031681565b6104cf6108bb366004615989565b6129e6565b6106b76108ce366004615989565b60146020526000908152604090205460ff1681565b6105486108f1366004615a99565b612a89565b6105486109043660046159a6565b612ae7565b610515612bd0565b61054861091f366004615ab2565b612bdc565b610649610932366004615989565b6002602052600090815260409020546001600160a01b031681565b61054861095b366004615989565b612cf2565b61054861096e366004615af4565b612dab565b6104cf6109813660046159a6565b600860209081526000928352604080842090915290825290205481565b6105486109ac366004615a2c565b612f7f565b6105486109bf366004615a2c565b6131b7565b6104cf6109d2366004615989565b60296020526000908152604090205481565b6104cf60205481565b6105486109fb366004615989565b61328a565b610548610a0e366004615989565b61333f565b610548610a213660046159a6565b6133b8565b6106b7610a34366004615989565b60076020526000908152604090205460ff1681565b610548610a57366004615a99565b613835565b6104cf610a6a3660046159a6565b602560209081526000928352604080842090915290825290205481565b610548610a95366004615989565b613895565b610548610aa8366004615a99565b613a8f565b6106b7610abb366004615989565b60196020526000908152604090205460ff1681565b610548610ade366004615b34565b613aef565b610548610af1366004615989565b613bb1565b601c54610649906001600160a01b031681565b610548610b17366004615989565b613c76565b610548610b2a366004615a99565b613d16565b6104cf610b3d3660046159a6565b601160209081526000928352604080842090915290825290205481565b610548610b68366004615b7a565b613d9a565b610548610b7b366004615a58565b613fd4565b6104cf60245481565b6104cf610b97366004615989565b60066020526000908152604090205481565b610548610bb7366004615a99565b614163565b610548610bca366004615989565b6141c3565b610649610bdd366004615989565b602c602052600090815260409020546001600160a01b031681565b610548610c06366004615989565b614263565b601d54610649906001600160a01b031681565b6104cf610c2c366004615989565b602a6020526000908152604090205481565b610548610c4c366004615a58565b614318565b601854610649906001600160a01b031681565b610548610c72366004615989565b61454f565b6106b7610c85366004615bcd565b614607565b6104cf60235481565b610548610ca1366004615a2c565b6146f0565b600080610cb2836125be565b6022549091504290610ccd90610cc89083615c34565b6147e0565b6001600160a01b0385166000908152602960205260409020541115610d71576022546001600160a01b038516600090815260296020526040902054610d129042615c34565b10610d4e576022546001600160a01b038516600090815260296020526040902054610d3d9190615c4b565b610d479082615c34565b9050610d87565b6001600160a01b038416600090815260296020526040902054610d479082615c34565b610d7a426147e0565b610d849082615c34565b90505b610d9181836147fa565b610d9a856129e6565b610da49190615c4b565b949350505050565b6060610db86026614824565b905090565b6000610dca602684614838565b15610ebb576000610dda8461130e565b90508060400151600014610eb9576001600160a01b0384166000908152600f602052604081205460ff16610e1b578160200151610e1690615c63565b610e21565b81602001515b601d5460225460405163a0d2710760e01b815260048101889052600684900b60248201526044810191909152919250610eb0916001600160a01b039091169063a0d27107906064015b602060405180830381865afa158015610e87573d6000803e3d6000fd5b505050506040513d601f19601f82011682018060405250810190610eab9190615c89565b61485a565b92505050610ebb565b505b92915050565b6001600160a01b038381166000908152600160205260409020548491163314610efd57604051636efb4f4160e11b815260040160405180910390fd5b602054610f0a9042615c4b565b6001600160a01b03808616600081815260126020908152604080832094891680845294825280832095909555918152601382528381209281529190529081208054849290610f59908490615c4b565b90915550610f6a905084848461486b565b6001600160a01b038085166000908152602860209081526040808320938716835292905220548015801590610fa95750602154610fa78286614a7c565b105b15610fc757604051636f447fcd60e11b815260040160405180910390fd5b836001600160a01b0316856001600160a01b03167f9aaab310d247ad45aef26bbdefc4ebf20c728fdb84c92b95b2b05d21826940de8560405161100c91815260200190565b60405180910390a35050505050565b3360008181526007602052604090205460ff161561104c5760405163ad2fdf3b60e01b815260040160405180910390fd5b611057601582614838565b6110735760405162941a5760e11b815260040160405180910390fd5b61107c81614b95565b156110d9576001600160a01b038116600081815260296020908152604080832054600a835281842054600b84529382902054825191825292810193909352820152600080516020615f6e8339815191529060600160405180910390a25b6001600160a01b0381166000908152600a602052604090205482111561115a5761110281614d6b565b6001600160a01b038116600081815260296020908152604080832054600a835281842054600b84529382902054825191825292810193909352820152600080516020615f6e8339815191529060600160405180910390a25b611165818484614df9565b601b546001600160a01b038085169183821691167f46f2180879a7123a197cc3828c28955d70d661c70acbdc02450daf5f9a9c1cfa856111a3614edd565b6040805192835260208301919091520160405180910390a4505050565b6017546001600160a01b031633146111eb576040516354348f0360e01b815260040160405180910390fd5b6001600160a01b0381166112125760405163d92e233d60e01b815260040160405180910390fd5b601e80546001600160a01b038381166001600160a01b031992831681179093556000838152600e60205260409081902080549093168417909255601d54915163696a437b60e01b81526004810193909352169063696a437b90602401602060405180830381865afa15801561128b573d6000803e3d6000fd5b505050506040513d601f19601f820116820180604052508101906112af9190615cb2565b6001600160a01b0382166000818152600f6020908152604091829020805460ff191694151594909417909355519081527f9bb1515b0fc2645a3f011162460a22fdd512e0bca265e7dc9ba6bceae8930afa91015b60405180910390a150565b6040805160608101825260008082526020820181905291810191909152611334426147e0565b6001600160a01b0383166000908152602b6020526040902060010154036113a157506001600160a01b03166000908152602b602090815260409182902082516060810184528154600681810b8352600160381b909104900b92810192909252600101549181019190915290565b6000806113b560225442610cc89190615c34565b6001600160a01b0385166000908152602b602052604090206001015490915081900361150457604080516001808252818301909252600091602080830190803683375050506001600160a01b0386166000908152602b602052604090205490915060060b611422426147e0565b61142c9042615c34565b8260008151811061143f5761143f615ccd565b63ffffffff909216602092830291909101820152601d546001600160a01b038881166000908152600e90935260409283902054925163dc686d9160e01b81529181169263dc686d919261149b9291909116908690600401615ce3565b606060405180830381865afa1580156114b8573d6000803e3d6000fd5b505050506040513d601f19601f820116820180604052508101906114dc9190615d51565b60069290920b8088529195506114f491839150615d94565b60060b6020860152506116789050565b6001600160a01b0384166000908152602b602052604090206001015481111561167857604080516002808252606082018352600092602083019080368337019050509050611551426147e0565b61155b9042615c34565b8160008151811061156e5761156e615ccd565b602002602001019063ffffffff16908163ffffffff1681525050602254611594426147e0565b61159e9042615c34565b6115a89190615c4b565b816001815181106115bb576115bb615ccd565b63ffffffff909216602092830291909101820152601d546001600160a01b038781166000908152600e909352604080842054905163dc686d9160e01b81529282169263dc686d91926116139216908690600401615ce3565b606060405180830381865afa158015611630573d6000803e3d6000fd5b505050506040513d601f19601f820116820180604052508101906116549190615d51565b60069290920b808852919550915061166d908290615d94565b60060b602086015250505b811561169157611687426147e0565b6040840152611699565b600060408401525b50505b919050565b3360009081526007602052604090205460ff16156116d2576040516362e6201d60e01b815260040160405180910390fd5b3360009081526011602090815260408083206001600160a01b0385168452909152812054900361171557604051636258f48160e01b815260040160405180910390fd5b3360009081526011602090815260408083206001600160a01b0385168452909152902054421161175857604051630fd0eeef60e11b815260040160405180910390fd5b3360008181526011602090815260408083206001600160a01b03861684529091528120819055906117899083614ef7565b9050816001600160a01b0316336001600160a01b03167f3673530133b6da67e9854f605b0cfa7bb9798cd33c18036dfc10d8da7c4d4a75836040516117d091815260200190565b60405180910390a35050565b6018546001600160a01b0316331461180757604051637ef5703160e11b815260040160405180910390fd5b60188054601780546001600160a01b0383166001600160a01b031991821681179092559091169091556040519081527fc73be659241aade67e9a059bcf21494955018b213dbd1179054ccf928b13f3b69060200160405180910390a1565b6002600054036118905760405162461bcd60e51b815260040161188790615de4565b60405180910390fd5b600260009081553381526013602090815260408083206001600160a01b038516845290915281205490036118d75760405163184c088160e21b815260040160405180910390fd5b3360009081526012602090815260408083206001600160a01b0385168452909152902054421161191a576040516327cfdcb760e01b815260040160405180910390fd5b3360009081526007602052604090205460ff161561194b576040516362e6201d60e01b815260040160405180910390fd5b3360009081526013602090815260408083206001600160a01b0385811680865291909352922054601b549092911690036119de57601c5460405163140e25ad60e31b8152600481018390526001600160a01b039091169063a0712d6890602401600060405180830381600087803b1580156119c557600080fd5b505af11580156119d9573d6000803e3d6000fd5b505050505b3360008181526013602090815260408083206001600160a01b03871680855290835281842084905584845260128352818420818552909252822091909155611a269183615010565b6040518181526001600160a01b0383169033907f2717ead6b9200dd235aad468c9809ea400fe33ac69b5bfaa6d3e90fc922b63989060200160405180910390a350506001600055565b600260005403611a915760405162461bcd60e51b815260040161188790615de4565b6002600055611aa1602683614838565b611abe5760405163e0b6aead60e01b815260040160405180910390fd5b611ac9601584614838565b611ae657604051636211d34960e01b815260040160405180910390fd5b6001600160a01b0383166000908152600d60205260409020611b089083615078565b50611b128361508d565b6021546001600160a01b03808516600090815260286020908152604080832093871683529290522054611b5090611b4a908490615c4b565b84614a7c565b1015611b6f57604051636f447fcd60e11b815260040160405180910390fd5b6001600160a01b038316600081815260296020908152604080832054600a835281842054600b84529382902054825191825292810193909352820152600080516020615f6e8339815191529060600160405180910390a2611bdb6001600160a01b0383163330846150eb565b6001600160a01b03808416600090815260286020908152604080832093861683529290529081208054839290611c12908490615c4b565b90915550611c259050610eab8284614a7c565b6001600160a01b0384166000908152600b602052604081208054909190611c4d908490615c4b565b909155505060405181815233906001600160a01b0384811691908616907f4e186bc75a2220191b826baff3ee63c3e970e94e58a9007ff94c9a7b8e6ebb3f9060200160405180910390a45050600160005550565b336000908152601a602052604090205460ff16611cd157604051630942721960e31b815260040160405180910390fd5b6001600160a01b03811660009081526007602052604090205460ff16611d0a576040516310cec38560e21b815260040160405180910390fd5b6001600160a01b038116600081815260076020526040808220805460ff19169055513392917fe02b2375d8fb4aef3e5bc5d53bffcf70b6f185c5c93e69dcbe8b6cfc58e837e291a350565b600260005403611d775760405162461bcd60e51b815260040161188790615de4565b6002600055611d87601584614838565b611da457604051636211d34960e01b815260040160405180910390fd5b601b546001600160a01b0390811690831603611dd25760405162822d9760e71b815260040160405180910390fd5b6040516370a0823160e01b81523060048201526000906001600160a01b038416906370a0823190602401602060405180830381865afa158015611e19573d6000803e3d6000fd5b505050506040513d601f19601f82011682018060405250810190611e3d9190615c89565b9050611e546001600160a01b0384163330856150eb565b6040516370a0823160e01b815230600482015260009082906001600160a01b038616906370a0823190602401602060405180830381865afa158015611e9d573d6000803e3d6000fd5b505050506040513d601f19601f82011682018060405250810190611ec19190615c89565b611ecb9190615c34565b9050600061271060245483611ee09190615e1b565b611eea9190615e50565b9050611ef68183615c34565b6001600160a01b038088166000908152600960209081526040808320938a1683529290529081208054909190611f2d908490615c4b565b90915550506001600160a01b0380871660009081526025602090815260408083208985168085529252909120429055601754611f6a921683615010565b6001600160a01b0386166000908152600c60205260409020611f8c9086615078565b50336001600160a01b0316856001600160a01b0316876001600160a01b03167fec1a37d4a331a5059081e0fb5da1735e7890900cd215a4fb1e9f2779fd7b83eb85604051611fdc91815260200190565b60405180910390a45050600160005550505050565b6001600160a01b03828116600090815260016020526040902054839116331461202d57604051636efb4f4160e11b815260040160405180910390fd5b6001600160a01b03838116600081815260026020908152604080832080546001600160a01b031916888716908117909155600190925280832054905191941692917fa8bad3f0b781e1d954af9945167d5f80bfe5e57930f17c93843187c77557a6b891a4505050565b6001600160a01b0381811660009081526002602052604090205482911633146120d25760405163cfe9663360e01b815260040160405180910390fd5b6001600160a01b03828116600081815260016020908152604080832080546002909352818420805487166001600160a01b031980861691909117909255805490911690555193169283929133917fcf30c54296d5eee76168b564c59c50578d49c271733a470f32707c8cfbc88a8b9190a4505050565b3360008181526007602052604090205460ff16156121795760405163ad2fdf3b60e01b815260040160405180910390fd5b612184601582614838565b6121a05760405162941a5760e11b815260040160405180910390fd5b6121a981614b95565b15612206576001600160a01b038116600081815260296020908152604080832054600a835281842054600b84529382902054825191825292810193909352820152600080516020615f6e8339815191529060600160405180910390a25b601d546001600160a01b038381166000908152600860209081526040808320601b548516845290915280822054905163435b21c160e01b8152600481019190915290928392839291169063435b21c190602401606060405180830381865afa158015612276573d6000803e3d6000fd5b505050506040513d601f19601f8201168201806040525081019061229a9190615e64565b92509250925060006122aa614edd565b905060006122ba82848688615129565b6001600160a01b0387166000908152600a6020526040902054909150811115612356576122e686614d6b565b6001600160a01b038616600081815260296020908152604080832054600a835281842054600b84529382902054825191825292810193909352820152600080516020615f6e8339815191529060600160405180910390a2612345614edd565b915061235382848688615129565b90505b612361868883614df9565b601b5460408051838152602081018590526001600160a01b038a8116938a8216939116917f46f2180879a7123a197cc3828c28955d70d661c70acbdc02450daf5f9a9c1cfa910160405180910390a450505050505050565b6017546001600160a01b031633146123e4576040516354348f0360e01b815260040160405180910390fd5b6123ef602682615186565b61240c57604051630a8d08b160e01b815260040160405180910390fd5b6040516001600160a01b03821681527f51199d699bdfd516fa88dd0d2f8487c40c147b4867acaa23adc8d4df6b098e5690602001611303565b6017546001600160a01b03163314612470576040516354348f0360e01b815260040160405180910390fd5b6001600160a01b03811660009081526019602052604090205460ff16156124aa5760405163546da66560e11b815260040160405180910390fd5b6001600160a01b038116600081815260196020908152604091829020805460ff1916600117905590519182527f049ccb28ab796d3225573a065712f6e7754487ced56056cda8889c337511807b9101611303565b6017546001600160a01b03163314612529576040516354348f0360e01b815260040160405180910390fd5b60248190556040518181527f4c10ca068ff7002cf5da78f2f697d1e91f6f0ac27f7344b28e8ef25263f87e5d90602001611303565b6000612568614edd565b602e55612576600383614838565b1561169c577f4851cad52e624c8f7a1d44c28a80db05988ba2451fc0db6b0ec338d8eca95afb602e546040516125ae91815260200190565b60405180910390a1506001919050565b6000805b6001600160a01b0383166000908152600d602052604090206125e39061519b565b811015612700576001600160a01b0383166000908152600d6020526040812061260c90836151a5565b9050612619602682614838565b156126ed5760006126298261130e565b905080604001516000146126eb576001600160a01b0382166000908152600f602052604081205460ff1661266a57816020015161266590615c63565b612670565b81602001515b601d546001600160a01b03888116600090815260286020908152604080832089851684529091529081902054602254915163a0d2710760e01b81526004810191909152600685900b602482015260448101919091529293506126dd9291169063a0d2710790606401610e6a565b6126e79086615c4b565b9450505b505b50806126f881615e92565b9150506125c2565b50919050565b3360009081526019602052604090205460ff1661273657604051637e57b1e160e01b815260040160405180910390fd5b6001600160a01b03831660009081526007602052604090205460ff1661276f576040516310cec38560e21b815260040160405180910390fd5b61277a83838361486b565b60175460405163a9059cbb60e01b81526001600160a01b039182166004820152602481018390529083169063a9059cbb906044016020604051808303816000875af19250505080156127e9575060408051601f3d908101601f191682019092526127e691810190615cb2565b60015b156127f057505b604080516001600160a01b038481168252602082018490523392908616917f6e10247c3c094d220ee99436c164b7f38d63b335a20ed817cbefaee4bb02d20e91015b60405180910390a3505050565b6017546001600160a01b0316331461286a576040516354348f0360e01b815260040160405180910390fd5b6001600160a01b0381166128915760405163d92e233d60e01b815260040160405180910390fd5b601d80546001600160a01b0319166001600160a01b0383169081179091556040519081527f71973fd672e51deb8f739b1f7e1eab991936645acd6f83e2bde6eeeaff5490b090602001611303565b3360009081526019602052604090205460ff1661290f57604051637e57b1e160e01b815260040160405180910390fd5b6001600160a01b03811660009081526007602052604090205460ff16612948576040516310cec38560e21b815260040160405180910390fd5b612953600382615186565b50601b546001600160a01b038083166000818152600860209081526040808320949095168083529381528482205492825260138152848220848352905292909220546129a1928492916151b1565b60405133906001600160a01b038316907f038a17b9b553c0c3fc2ed14b957a5d8420a1666fd2efe5c1b3fe5f23eea61bb390600090a350565b6060610db86015614824565b6000806129f2836125be565b6022546001600160a01b03851660009081526029602052604090205491925090612a1c9042615c34565b1015610ebb5760008111612a48576001600160a01b0383166000908152600a6020526040902054612a82565b6001600160a01b0383166000908152600b6020908152604080832054600a90925290912054612a78908390615e1b565b612a829190615e50565b9150612700565b6017546001600160a01b03163314612ab4576040516354348f0360e01b815260040160405180910390fd5b60208181556040518281527fc8d443472c9783cc36f8f5f5091f08ce9f37fc2f9e6d79cf1d9aaf40a433fee29101611303565b6001600160a01b038281166000908152600160205260409020548391163314612b2357604051636efb4f4160e11b815260040160405180910390fd5b816001600160a01b0316836001600160a01b031603612b555760405163afe7ad4960e01b815260040160405180910390fd5b6001600160a01b038381166000818152602c6020908152604080832080546001600160a01b0319169588169586179055602d8252808320858452825291829020429055905192835290917fff0456758201108de53c0ff04c69988d4678ff455b2ce6f733328cf85722c04c91015b60405180910390a2505050565b6060610db86003614824565b6017546001600160a01b03163314612c07576040516354348f0360e01b815260040160405180910390fd5b6001600160a01b038116612c2e5760405163d92e233d60e01b815260040160405180910390fd5b73eeeeeeeeeeeeeeeeeeeeeeeeeeeeeeeeeeeeeeed196001600160a01b03841601612c8f576040516001600160a01b0382169083156108fc029084906000818181858888f19350505050158015612c89573d6000803e3d6000fd5b50612ca3565b612ca36001600160a01b0384168284615010565b604080516001600160a01b0385811682526020820185905283168183015290517f9a3055ded8c8b5f21bbf4946c5afab6e1fa8b3f057922658e5e1ade125fb0b1e9181900360600190a1505050565b6017546001600160a01b03163314612d1d576040516354348f0360e01b815260040160405180910390fd5b6001600160a01b0381166000908152601a602052604090205460ff1615612d575760405163274e25dd60e11b815260040160405180910390fd5b6001600160a01b0381166000818152601a6020908152604091829020805460ff1916600117905590519182527f8addc69f897ecca0e41d70ed4ff9d75a9148a615a0fbda8597e53aea2684302f9101611303565b6001600160a01b038381166000908152600160205260409020548491163314612de757604051636efb4f4160e11b815260040160405180910390fd5b6001600160a01b038216612e0e5760405163d92e233d60e01b815260040160405180910390fd5b6001600160a01b0380851660009081526013602090815260408083209387168352929052908120549003612e555760405163184c088160e21b815260040160405180910390fd5b6001600160a01b038085166000908152601260209081526040808320938716835292905220544211612e9a576040516327cfdcb760e01b815260040160405180910390fd5b6001600160a01b03841660009081526007602052604090205460ff1615612ed4576040516362e6201d60e01b815260040160405180910390fd5b6001600160a01b0380851660008181526013602090815260408083209488168084529482528083208054908490559383526012825280832085845290915281205590612f21908483615010565b826001600160a01b0316846001600160a01b0316866001600160a01b03167ffdb7893bf11f50c621e59cc7f1cf540e94295cb27ca869ec7ed7618ca792886284604051612f7091815260200190565b60405180910390a45050505050565b600260005403612fa15760405162461bcd60e51b815260040161188790615de4565b600260009081553381526007602052604090205460ff1615612fd6576040516362e6201d60e01b815260040160405180910390fd5b612fe1601533614838565b15612fff5760405163d7229c4360e01b815260040160405180910390fd5b601f5461300c9042615c4b565b3360009081526011602090815260408083206001600160a01b03871680855292528083209390935591516370a0823160e01b81523060048201529091906370a0823190602401602060405180830381865afa15801561306f573d6000803e3d6000fd5b505050506040513d601f19601f820116820180604052508101906130939190615c89565b90506130aa6001600160a01b0384163330856150eb565b6040516370a0823160e01b815230600482015281906001600160a01b038516906370a0823190602401602060405180830381865afa1580156130f0573d6000803e3d6000fd5b505050506040513d601f19601f820116820180604052508101906131149190615c89565b61311e9190615c34565b336000908152601460209081526040808320805460ff19166001179055601082528083206001600160a01b0388168452909152812080549294508492909190613168908490615c4b565b90915550506040518281526001600160a01b0384169033907fa7e66869262026842e8d81f5e6806cdc8d846e27c824e2e22f4fe51442771b349060200160405180910390a35050600160005550565b6020546131c49042615c4b565b3360008181526012602090815260408083206001600160a01b03881680855290835281842095909555928252600881528282209382529290925281208054839290613210908490615c34565b90915550503360009081526013602090815260408083206001600160a01b038616845290915281208054839290613248908490615c4b565b90915550506040518181526001600160a01b0383169033907f9aaab310d247ad45aef26bbdefc4ebf20c728fdb84c92b95b2b05d21826940de906020016117d0565b6017546001600160a01b031633146132b5576040516354348f0360e01b815260040160405180910390fd5b6001600160a01b03811660009081526019602052604090205460ff166132ee576040516336fe17e760e21b815260040160405180910390fd5b6001600160a01b038116600081815260196020908152604091829020805460ff1916905590519182527f3ed8cbce8cab40e59282f1743e2b607effa08b5cbe0111bb4721134f2f80d0259101611303565b6017546001600160a01b0316331461336a576040516354348f0360e01b815260040160405180910390fd5b601880546001600160a01b0319166001600160a01b0383169081179091556040519081527fe987aaedf9d279143bdf1eee16cf1d0feb47742867d81083df8d6cd0a5ac857f90602001611303565b6001600160a01b0381811660009081526001602052604090205482911633146133f457604051636efb4f4160e11b815260040160405180910390fd5b6001600160a01b03831660009081526007602052604090205460ff168061343357506001600160a01b03821660009081526007602052604090205460ff165b156134515760405163ad2fdf3b60e01b815260040160405180910390fd5b6001600160a01b038381166000908152602c602052604090205481169083161461348e57604051630ced616b60e21b815260040160405180910390fd5b6001600160a01b038084166000908152602d60209081526040808320938616835292905220546134c090603c90615c4b565b4210156134e0576040516356248e9760e01b815260040160405180910390fd5b6134e98361508d565b6134f28261508d565b6001600160a01b0383166000908152600c602052604081206135139061519b565b11156135f5576001600160a01b0383166000908152600c6020526040812061353b90826151a5565b6001600160a01b03808616600090815260096020818152604080842085871680865290835281852054958a168552928252808420928452919052812080549394509192613589908490615c4b565b90915550506001600160a01b0380851660008181526009602090815260408083209486168352938152838220829055918152600c909152206135cb9082615186565b506001600160a01b0383166000908152600c602052604090206135ee9082615078565b50506134f2565b6001600160a01b0383166000908152600d602052604081206136169061519b565b11156136f8576001600160a01b0383166000908152600d6020526040812061363e90826151a5565b6001600160a01b03808616600090815260286020818152604080842085871680865290835281852054958a16855292825280842092845291905281208054939450919261368c908490615c4b565b90915550506001600160a01b038085166000908152602860209081526040808320858516845282528083208390559286168252600d9052206136ce9082615078565b506001600160a01b0384166000908152600d602052604090206136f19082615186565b50506135f5565b6001600160a01b038084166000908152600b60205260408082205492851682528120805490919061372a908490615c4b565b90915550506001600160a01b038084166000908152600b60209081526040808320839055600a9091528082205492851682528120805490919061376e908490615c4b565b90915550506001600160a01b0383166000908152600a6020908152604080832083905560299091528120556137a4601584615186565b506001600160a01b03838116600081815260016020908152604080832080546001600160a01b031990811690915560028352818420805482169055602d8352818420958816808552958352818420849055848452602c835292819020805490931690925590519182527f9b712b63e3fb1325fa042d3c238ce8144937875065900528ea1e4f3b00f379f29101612bc3565b6017546001600160a01b03163314613860576040516354348f0360e01b815260040160405180910390fd5b60238190556040518181527fbdcfd7b8482f31cff6a87c362d9e2e3887f4cdc2018c7c485d8e78a7b2fadb6990602001611303565b6017546001600160a01b031633146138c0576040516354348f0360e01b815260040160405180910390fd5b6138cb602682615078565b6138e85760405163f25e6b9f60e01b815260040160405180910390fd5b806001600160a01b03166316f0115b6040518163ffffffff1660e01b8152600401602060405180830381865afa158015613926573d6000803e3d6000fd5b505050506040513d601f19601f8201168201806040525081019061394a9190615eab565b6001600160a01b038281166000908152600e60205260409081902080546001600160a01b0319169383169384179055601d54905163696a437b60e01b81526004810193909352169063696a437b90602401602060405180830381865afa1580156139b8573d6000803e3d6000fd5b505050506040513d601f19601f820116820180604052508101906139dc9190615cb2565b6001600160a01b0382166000908152600f60205260409020805460ff1916911515919091179055613a0c8161130e565b6001600160a01b0382166000818152602b6020908152604091829020845181548684015166ffffffffffffff908116600160381b026001600160701b031990921692169190911717815593820151600190940193909355519081527fabfa8db4d238fa78bf4e15fcc91328dd35f3978f200e2857a56bb719732b7b0b9101611303565b6017546001600160a01b03163314613aba576040516354348f0360e01b815260040160405180910390fd5b601f8190556040518181527fd319ef78d2b690bb773fcccc2d096306bac7c9222dd0bb6b300f461e4a376b4390602001611303565b3360009081526019602052604090205460ff16613b1f57604051637e57b1e160e01b815260040160405180910390fd5b6001600160a01b03841660009081526007602052604090205460ff16613b58576040516310cec38560e21b815260040160405180910390fd5b613b64848484846151b1565b336001600160a01b0385167f10a73de7ab6e9023aa6e2bc23f7abf4dcef591487e7e55f44c00e34fe60d56db613b9a8486615c4b565b60405190815260200160405180910390a350505050565b613bbc601582614838565b15613bda57604051630809740d60e01b815260040160405180910390fd5b6001600160a01b03811660009081526014602052604090205460ff1615613c1457604051632f3d320560e01b815260040160405180910390fd5b613c1f601582615078565b506001600160a01b03811660008181526001602052604080822080546001600160a01b03191633908117909155905190917fed3faef50715743626cd57de74281a2b17cdbfc11c0486feda541fb911e0293d91a350565b6017546001600160a01b03163314613ca1576040516354348f0360e01b815260040160405180910390fd5b6001600160a01b038116613cc85760405163d92e233d60e01b815260040160405180910390fd5b601c80546001600160a01b0319166001600160a01b0383169081179091556040519081527feb931b4b5a98d20a6b1e6693a7c59d8e337a06e2f1473bb776e19251db7ae25090602001611303565b6017546001600160a01b03163314613d41576040516354348f0360e01b815260040160405180910390fd5b62015180811015613d6557604051633f384aad60e21b815260040160405180910390fd5b60228190556040518181527f54aafa56429e22230b52f1495588ffc632277d74f3a85ec755e13ac50c1584d990602001611303565b600260005403613dbc5760405162461bcd60e51b815260040161188790615de4565b600260009081556001600160a01b03858116825260016020526040909120548591163314613dfd57604051636efb4f4160e11b815260040160405180910390fd5b6001600160a01b03808616600090815260256020908152604080832093881683529290522054613e2f90603c90615c4b565b4211613e4e57604051631e0b407560e01b815260040160405180910390fd5b6001600160a01b03808616600090815260096020908152604080832093881683529290522054831115613e945760405163024ae82d60e61b815260040160405180910390fd5b6001600160a01b03851660009081526007602052604090205460ff1615613ece5760405163ad2fdf3b60e01b815260040160405180910390fd5b6001600160a01b03808616600090815260096020908152604080832093881683529290529081208054859290613f05908490615c34565b90915550613f1f90506001600160a01b0385168385615010565b6001600160a01b0380861660009081526009602090815260408083209388168352929052908120549003613f71576001600160a01b0385166000908152600c60205260409020613f6f9085615186565b505b816001600160a01b0316846001600160a01b0316866001600160a01b03167f53e982dd9ec088d634c74c98fbbc161f808b4b6469a26c657120b9a31cb34bfe86604051613fc091815260200190565b60405180910390a450506001600055505050565b3360008181526007602052604090205460ff16156140055760405163ad2fdf3b60e01b815260040160405180910390fd5b6001600160a01b03831660009081526007602052604090205460ff161561403f576040516362e6201d60e01b815260040160405180910390fd5b61404a601582614838565b6140665760405162941a5760e11b815260040160405180910390fd5b6001600160a01b038082166000908152600960209081526040808320938816835292905220548211156140ac5760405163356680b760e01b815260040160405180910390fd5b6001600160a01b038082166000908152600960209081526040808320938816835292905290812080548492906140e3908490615c34565b909155506140fd90506001600160a01b0385168484615010565b826001600160a01b0316816001600160a01b0316856001600160a01b03167f46f2180879a7123a197cc3828c28955d70d661c70acbdc02450daf5f9a9c1cfa85614145614edd565b6040805192835260208301919091520160405180910390a450505050565b6017546001600160a01b0316331461418e576040516354348f0360e01b815260040160405180910390fd5b60218190556040518181527f24d51b415694a791b1c77df7817c075ac82b83ce611bcd8627d2e66cf37aa3e790602001611303565b6017546001600160a01b031633146141ee576040516354348f0360e01b815260040160405180910390fd5b6001600160a01b0381166142155760405163d92e233d60e01b815260040160405180910390fd5b601b80546001600160a01b0319166001600160a01b0383169081179091556040519081527f1d1a3e7caf0717056e48dc8aefa54d806c7af86324fece4e5d49f8e1f01f84bf90602001611303565b6017546001600160a01b0316331461428e576040516354348f0360e01b815260040160405180910390fd5b6001600160a01b0381166000908152601a602052604090205460ff166142c757604051633ca0d42760e11b815260040160405180910390fd5b6001600160a01b0381166000818152601a6020908152604091829020805460ff1916905590519182527f5e8bd21d0a98cb2caf33706e56139ff40ffbdca7ec5d9d412a0a2292496dc70e9101611303565b3360009081526019602052604090205460ff1661434857604051637e57b1e160e01b815260040160405180910390fd5b6001600160a01b03831660009081526007602052604090205460ff16614381576040516310cec38560e21b815260040160405180910390fd5b6001600160a01b0383166000908152600c602052604090206143a39083614838565b6143c057604051632eda7a1160e01b815260040160405180910390fd5b6001600160a01b038084166000908152600960209081526040808320938616835292905220548111156144055760405162919bed60e01b815260040160405180910390fd5b60175460405163a9059cbb60e01b81526001600160a01b039182166004820152602481018390529083169063a9059cbb906044016020604051808303816000875af1925050508015614474575060408051601f3d908101601f1916820190925261447191810190615cb2565b60015b1561447b57505b6001600160a01b038084166000908152600960209081526040808320938616835292905290812080548392906144b2908490615c34565b90915550506001600160a01b0380841660009081526009602090815260408083209386168352929052908120549003614509576001600160a01b0383166000908152600c602052604090206145079083615186565b505b604080516001600160a01b038481168252602082018490523392908616917f20262b97130b5cb8f80624eed2733df2b05db4a0789b4a3d0157e1d3183331049101612832565b336000908152601a602052604090205460ff1661457f57604051630942721960e31b815260040160405180910390fd5b6001600160a01b03811660009081526007602052604090205460ff16156145b9576040516304ee891b60e11b815260040160405180910390fd5b6001600160a01b038116600081815260076020526040808220805460ff19166001179055513392917f070125a1c0f5202217aae14ec399abfaaa13c2fd98a91d43bd3a897dd4751e8091a350565b6000614611614edd565b602e5561461f600387614838565b801561465057506001600160a01b038087166000908152600860209081526040808320938916835292905220548411155b801561467457506001600160a01b0386166000908152600560205260409020548311155b80156146a357506001600160a01b03861660009081526006602052604090205482906146a09042615c34565b10155b156146e7577f4851cad52e624c8f7a1d44c28a80db05988ba2451fc0db6b0ec338d8eca95afb602e546040516146db91815260200190565b60405180910390a15060015b95945050505050565b6017546001600160a01b0316331461471b576040516354348f0360e01b815260040160405180910390fd5b614726601583614838565b61474357604051636211d34960e01b815260040160405180910390fd5b61474c8261508d565b6001600160a01b0382166000908152600a602052604081208054839290614774908490615c4b565b90915550506001600160a01b038216600081815260296020908152604080832054600a909252918290205491517f5abcf5031fdbd3badb9d1e09094208de329aee72730e87650f346584205d23d1926147d4928252602082015260400190565b60405180910390a25050565b6000602254826147f09190615ec8565b610ebb9083615c34565b6000602254831015612700576022546148138385615e1b565b61481d9190615e50565b9050610ebb565b6060600061483183615307565b9392505050565b6001600160a01b03811660009081526001830160205260408120541515614831565b6000610ebb82602254602354615363565b60026000540361488d5760405162461bcd60e51b815260040161188790615de4565b600260009081556001600160a01b0384168152600d602052604090206148b39083614838565b6148cf576040516241cfa560e21b815260040160405180910390fd5b6001600160a01b038084166000908152602860209081526040808320938616835292905220548111156149155760405163435b562560e01b815260040160405180910390fd5b61491e83615410565b600061492d610eab8385614a7c565b6001600160a01b0385166000908152600b6020526040902054909150156149e3576001600160a01b0384166000908152600b6020908152604080832054600a9092529091205461497e908390615e1b565b6149889190615e50565b6001600160a01b0385166000908152600a6020526040812080549091906149b0908490615c34565b90915550506001600160a01b0384166000908152600b6020526040812080548392906149dd908490615c34565b90915550505b6001600160a01b03808516600090815260286020908152604080832093871683529290529081208054849290614a1a908490615c34565b90915550506001600160a01b0380851660009081526028602090815260408083209387168352929052908120549003614a71576001600160a01b0384166000908152600d60205260409020614a6f9084615186565b505b505060016000555050565b6001600160a01b0381166000908152602b602052604081206001015415610ebb576001600160a01b0382166000908152600f602052604081205460ff16614aee576001600160a01b0383166000908152602b6020526040902054614ae990600160381b900460060b615c63565b614b12565b6001600160a01b0383166000908152602b6020526040902054600160381b900460060b5b601d5460225460405163a0d2710760e01b815260048101889052600684900b602482015260448101919091529192506001600160a01b03169063a0d2710790606401602060405180830381865afa158015614b71573d6000803e3d6000fd5b505050506040513d601f19601f82011682018060405250810190610da49190615c89565b6000614ba0426147e0565b6001600160a01b038316600090815260296020526040902054101561169c57614bd060225442610cc89190615c34565b6001600160a01b03831660009081526029602052604090205411614c4657614bf782615410565b6001600160a01b0382166000908152600b6020908152604080832054600a90925290912055614c25426147e0565b6001600160a01b038316600090815260296020526040902055506001919050565b6022546001600160a01b038316600090815260296020526040902054614c6c9042615c34565b10614cc857614c7a82615410565b6001600160a01b0382166000908152600b6020908152604080832054600a83528184205560225460299092528220805491929091614cb9908490615c4b565b909155506001915061169c9050565b614cd1426147e0565b6001600160a01b0383166000908152602a6020526040902054101561169c576001600160a01b0382166000908152600b6020526040902054614d1283615410565b6001600160a01b0383166000908152600b6020908152604080832054600a909252909120548291614d4291615e1b565b614d4c9190615e50565b6001600160a01b0384166000908152600a602052604090205550919050565b6001600160a01b038116600090815260296020526040902054614db090614d929042615c34565b6001600160a01b0383166000908152600b60205260409020546147fa565b6001600160a01b0382166000908152600a602052604081208054909190614dd8908490615c4b565b90915550506001600160a01b03166000908152602960205260409020429055565b6001600160a01b0383166000908152600a6020526040902054811115614e325760405163356680b760e01b815260040160405180910390fd5b6001600160a01b0383166000908152602a60209081526040808320429055600a90915281208054839290614e67908490615c34565b90915550506001600160a01b038083166000908152600860209081526040808320601b5490941683529290529081208054839290614ea6908490615c4b565b90915550506001600160a01b03821660009081526005602052604081208054839290614ed3908490615c4b565b9091555050505050565b6000603f5a614eed906040615e1b565b610db89190615e50565b6001600160a01b0382166000908152600660205260408120548103614f32576001600160a01b03831660009081526006602052604090204290555b614f3d600384615078565b50506001600160a01b03808316600081815260106020908152604080832094861680845294825280832080549084905593835260088252808320948352939052918220805491928392614f91908490615c4b565b9091555050601b546001600160a01b0390811690831603610ebb57601b54604051630852cd8d60e31b8152600481018390526001600160a01b03909116906342966c6890602401600060405180830381600087803b158015614ff257600080fd5b505af1158015615006573d6000803e3d6000fd5b5050505092915050565b6040516001600160a01b03831660248201526044810182905261507390849063a9059cbb60e01b906064015b60408051601f198184030181529190526020810180516001600160e01b03166001600160e01b031990931692909217909152615435565b505050565b6000614831836001600160a01b038416615507565b61509681614b95565b506150a081614d6b565b6001600160a01b0381166000908152600a6020908152604080832054600b909252909120546150cf9190615556565b6001600160a01b039091166000908152600a6020526040902055565b6040516001600160a01b03808516602483015283166044820152606481018290526151239085906323b872dd60e01b9060840161503c565b50505050565b6000808486602e5461513b9190615c34565b6151459190615c4b565b9050670de0b6b3a76400008461271061515e8685615e1b565b6151689190615e50565b6151729190615e1b565b61517c9190615e50565b9695505050505050565b6000614831836001600160a01b03841661556c565b6000610ebb825490565b6000614831838361565f565b601b546001600160a01b03848116911614615289576017546001600160a01b038085169163a9059cbb91166151e68486615c4b565b6040516001600160e01b031960e085901b1681526001600160a01b03909216600483015260248201526044016020604051808303816000875af192505050801561524d575060408051601f3d908101601f1916820190925261524a91810190615cb2565b60015b615287573d80801561527b576040519150601f19603f3d011682016040523d82523d6000602084013e615280565b606091505b5050615289565b505b6001600160a01b038085166000908152600860209081526040808320938716835292905290812080548492906152c0908490615c34565b90915550506001600160a01b038085166000908152601360209081526040808320938716835292905290812080548392906152fc908490615c34565b909155505050505050565b60608160000180548060200260200160405190810160405280929190818152602001828054801561535757602002820191906000526020600020905b815481526020019060010190808311615343575b50505050509050919050565b600080806000198587098587029250828110838203039150508060000361539c576000841161539157600080fd5b508290049050614831565b8084116153a857600080fd5b600084868809600260036001881981018916988990049182028318808302840302808302840302808302840302808302840302808302840302918202909203026000889003889004909101858311909403939093029303949094049190911702949350505050565b61541981615689565b6001600160a01b039091166000908152600b6020526040902055565b600061548a826040518060400160405280602081526020017f5361666545524332303a206c6f772d6c6576656c2063616c6c206661696c6564815250856001600160a01b031661585d9092919063ffffffff16565b80519091501561507357808060200190518101906154a89190615cb2565b6150735760405162461bcd60e51b815260206004820152602a60248201527f5361666545524332303a204552433230206f7065726174696f6e20646964206e6044820152691bdd081cdd58d8d9595960b21b6064820152608401611887565b600081815260018301602052604081205461554e57508154600181810184556000848152602080822090930184905584548482528286019093526040902091909155610ebb565b506000610ebb565b60008183106155655781614831565b5090919050565b60008181526001830160205260408120548015615655576000615590600183615c34565b85549091506000906155a490600190615c34565b90508181146156095760008660000182815481106155c4576155c4615ccd565b90600052602060002001549050808760000184815481106155e7576155e7615ccd565b6000918252602080832090910192909255918252600188019052604090208390555b855486908061561a5761561a615edc565b600190038181906000526020600020016000905590558560010160008681526020019081526020016000206000905560019350505050610ebb565b6000915050610ebb565b600082600001828154811061567657615676615ccd565b9060005260206000200154905092915050565b6000615694426147e0565b601e546001600160a01b03166000908152602b60205260409020600101541461572357601e546156cc906001600160a01b031661130e565b601e546001600160a01b03166000908152602b6020908152604091829020835181549285015166ffffffffffffff908116600160381b026001600160701b0319909416911617919091178155910151600191909101555b60005b6001600160a01b0383166000908152600d602052604090206157479061519b565b811015612700576001600160a01b0383166000908152600d6020526040812061577090836151a5565b905061577d602682614838565b1561584a5761578b426147e0565b6001600160a01b0382166000908152602b602052604090206001015414615809576157b58161130e565b6001600160a01b0382166000908152602b6020908152604091829020835181549285015166ffffffffffffff908116600160381b026001600160701b03199094169116179190911781559101516001909101555b6001600160a01b0380851660009081526028602090815260408083209385168352929052205461583d90610eab9083614a7c565b6158479084615c4b565b92505b508061585581615e92565b915050615726565b6060610da48484600085856001600160a01b0385163b6158bf5760405162461bcd60e51b815260206004820152601d60248201527f416464726573733a2063616c6c20746f206e6f6e2d636f6e74726163740000006044820152606401611887565b600080866001600160a01b031685876040516158db9190615f1e565b60006040518083038185875af1925050503d8060008114615918576040519150601f19603f3d011682016040523d82523d6000602084013e61591d565b606091505b509150915061592d828286615938565b979650505050505050565b60608315615947575081614831565b8251156159575782518084602001fd5b8160405162461bcd60e51b81526004016118879190615f3a565b6001600160a01b038116811461598657600080fd5b50565b60006020828403121561599b57600080fd5b813561483181615971565b600080604083850312156159b957600080fd5b82356159c481615971565b915060208301356159d481615971565b809150509250929050565b6020808252825182820181905260009190848201906040850190845b81811015615a205783516001600160a01b0316835292840192918401916001016159fb565b50909695505050505050565b60008060408385031215615a3f57600080fd5b8235615a4a81615971565b946020939093013593505050565b600080600060608486031215615a6d57600080fd5b8335615a7881615971565b92506020840135615a8881615971565b929592945050506040919091013590565b600060208284031215615aab57600080fd5b5035919050565b600080600060608486031215615ac757600080fd5b8335615ad281615971565b9250602084013591506040840135615ae981615971565b809150509250925092565b600080600060608486031215615b0957600080fd5b8335615b1481615971565b92506020840135615b2481615971565b91506040840135615ae981615971565b60008060008060808587031215615b4a57600080fd5b8435615b5581615971565b93506020850135615b6581615971565b93969395505050506040820135916060013590565b60008060008060808587031215615b9057600080fd5b8435615b9b81615971565b93506020850135615bab81615971565b9250604085013591506060850135615bc281615971565b939692955090935050565b600080600080600060a08688031215615be557600080fd5b8535615bf081615971565b94506020860135615c0081615971565b94979496505050506040830135926060810135926080909101359150565b634e487b7160e01b600052601160045260246000fd5b600082821015615c4657615c46615c1e565b500390565b60008219821115615c5e57615c5e615c1e565b500190565b60008160060b667fffffffffffff198103615c8057615c80615c1e565b60000392915050565b600060208284031215615c9b57600080fd5b5051919050565b8051801515811461169c57600080fd5b600060208284031215615cc457600080fd5b61483182615ca2565b634e487b7160e01b600052603260045260246000fd5b6001600160a01b038316815260406020808301829052835191830182905260009184820191906060850190845b81811015615d3257845163ffffffff1683529383019391830191600101615d10565b5090979650505050505050565b8051600681900b811461169c57600080fd5b600080600060608486031215615d6657600080fd5b615d6f84615d3f565b9250615d7d60208501615d3f565b9150615d8b60408501615ca2565b90509250925092565b60008160060b8360060b6000811281667fffffffffffff1901831281151615615dbf57615dbf615c1e565b81667fffffffffffff018313811615615dda57615dda615c1e565b5090039392505050565b6020808252601f908201527f5265656e7472616e637947756172643a207265656e7472616e742063616c6c00604082015260600190565b6000816000190483118215151615615e3557615e35615c1e565b500290565b634e487b7160e01b600052601260045260246000fd5b600082615e5f57615e5f615e3a565b500490565b600080600060608486031215615e7957600080fd5b8351925060208401519150604084015190509250925092565b600060018201615ea457615ea4615c1e565b5060010190565b600060208284031215615ebd57600080fd5b815161483181615971565b600082615ed757615ed7615e3a565b500690565b634e487b7160e01b600052603160045260246000fd5b60005b83811015615f0d578181015183820152602001615ef5565b838111156151235750506000910152565b60008251615f30818460208701615ef2565b9190910192915050565b6020815260008251806020840152615f59816040850160208701615ef2565b601f01601f1916919091016040019291505056feee3f0daba9837d1ab0597acf34328550e4832d02e24e467825e7c2dd318c3820a2646970667358221220e4277e9baf538b7b54f438b850675e9d6dcad44eedcf75606087b5f0d8ae387464736f6c634300080e0033",
  "linkReferences": {},
  "deployedLinkReferences": {}
}