{
  "_format": "hh-sol-artifact-1",
  "contractName": "NovelTypeF",
  "sourceName": "contracts/research/NovelTypeF.sol",
  "abi": [
    {
      "inputs": [
        {
          "internalType": "address",
          "name": "_analyticMath",
          "type": "address"
        }
      ],
      "stateMutability": "nonpayable",
      "type": "constructor"
    },
    {
      "anonymous": false,
      "inputs": [
        {
          "indexed": true,
          "internalType": "address",
          "name": "previousOwner",
          "type": "address"
        },
        {
          "indexed": true,
          "internalType": "address",
          "name": "newOwner",
          "type": "address"
        }
      ],
      "name": "OwnershipTransferred",
      "type": "event"
    },
    {
      "inputs": [],
      "name": "DECIMALS",
      "outputs": [
        {
          "internalType": "uint8",
          "name": "",
          "type": "uint8"
        }
      ],
      "stateMutability": "view",
      "type": "function"
    },
    {
      "inputs": [],
      "name": "INITIAL_SUPPLY",
      "outputs": [
        {
          "internalType": "uint256",
          "name": "",
          "type": "uint256"
        }
      ],
      "stateMutability": "view",
      "type": "function"
    },
    {
      "inputs": [],
      "name": "MAX_SUPPLY",
      "outputs": [
        {
          "internalType": "uint256",
          "name": "",
          "type": "uint256"
        }
      ],
      "stateMutability": "view",
      "type": "function"
    },
    {
      "inputs": [
        {
          "internalType": "address",
          "name": "_owner",
          "type": "address"
        },
        {
          "internalType": "address",
          "name": "_spender",
          "type": "address"
        },
        {
          "internalType": "uint256",
          "name": "subtractedValue",
          "type": "uint256"
        }
      ],
      "name": "_decreaseAllowance",
      "outputs": [
        {
          "internalType": "bool",
          "name": "",
          "type": "bool"
        }
      ],
      "stateMutability": "nonpayable",
      "type": "function"
    },
    {
      "inputs": [],
      "name": "accRewardPerShare12",
      "outputs": [
        {
          "internalType": "uint256",
          "name": "",
          "type": "uint256"
        }
      ],
      "stateMutability": "view",
      "type": "function"
    },
    {
      "inputs": [
        {
          "internalType": "address",
          "name": "_owner",
          "type": "address"
        },
        {
          "internalType": "address",
          "name": "_spender",
          "type": "address"
        }
      ],
      "name": "allowance",
      "outputs": [
        {
          "internalType": "uint256",
          "name": "",
          "type": "uint256"
        }
      ],
      "stateMutability": "view",
      "type": "function"
    },
    {
      "inputs": [],
      "name": "alpha",
      "outputs": [
        {
          "internalType": "uint256",
          "name": "",
          "type": "uint256"
        }
      ],
      "stateMutability": "view",
      "type": "function"
    },
    {
      "inputs": [
        {
          "internalType": "address",
          "name": "spender",
          "type": "address"
        },
        {
          "internalType": "uint256",
          "name": "amount",
          "type": "uint256"
        }
      ],
      "name": "approve",
      "outputs": [
        {
          "internalType": "bool",
          "name": "",
          "type": "bool"
        }
      ],
      "stateMutability": "nonpayable",
      "type": "function"
    },
    {
      "inputs": [
        {
          "internalType": "address",
          "name": "account",
          "type": "address"
        }
      ],
      "name": "balanceOf",
      "outputs": [
        {
          "internalType": "uint256",
          "name": "",
          "type": "uint256"
        }
      ],
      "stateMutability": "view",
      "type": "function"
    },
    {
      "inputs": [
        {
          "internalType": "address",
          "name": "from",
          "type": "address"
        },
        {
          "internalType": "uint256",
          "name": "amount",
          "type": "uint256"
        }
      ],
      "name": "burn",
      "outputs": [],
      "stateMutability": "nonpayable",
      "type": "function"
    },
    {
      "inputs": [],
      "name": "checkForConsistency",
      "outputs": [
        {
          "internalType": "uint256",
          "name": "pending_collective",
          "type": "uint256"
        },
        {
          "internalType": "uint256",
          "name": "pending_marginal",
          "type": "uint256"
        },
        {
          "internalType": "uint256",
          "name": "abs_error",
          "type": "uint256"
        },
        {
          "internalType": "uint256",
          "name": "error_rate",
          "type": "uint256"
        }
      ],
      "stateMutability": "view",
      "type": "function"
    },
    {
      "inputs": [],
      "name": "decimals",
      "outputs": [
        {
          "internalType": "uint8",
          "name": "",
          "type": "uint8"
        }
      ],
      "stateMutability": "view",
      "type": "function"
    },
    {
      "inputs": [
        {
          "internalType": "address",
          "name": "spender",
          "type": "address"
        },
        {
          "internalType": "uint256",
          "name": "subtractedValue",
          "type": "uint256"
        }
      ],
      "name": "decreaseAllowance",
      "outputs": [
        {
          "internalType": "bool",
          "name": "",
          "type": "bool"
        }
      ],
      "stateMutability": "nonpayable",
      "type": "function"
    },
    {
      "inputs": [],
      "name": "distCycle",
      "outputs": [
        {
          "internalType": "uint256",
          "name": "",
          "type": "uint256"
        }
      ],
      "stateMutability": "view",
      "type": "function"
    },
    {
      "inputs": [],
      "name": "getTotalState",
      "outputs": [
        {
          "internalType": "uint256",
          "name": "totalSupply",
          "type": "uint256"
        },
        {
          "internalType": "uint256",
          "name": "_latestBlock",
          "type": "uint256"
        },
        {
          "internalType": "uint256",
          "name": "_accRewardPerShare12",
          "type": "uint256"
        },
        {
          "internalType": "uint256",
          "name": "_rewordPool",
          "type": "uint256"
        },
        {
          "internalType": "uint256",
          "name": "_totalPendingReward",
          "type": "uint256"
        }
      ],
      "stateMutability": "view",
      "type": "function"
    },
    {
      "inputs": [
        {
          "internalType": "address",
          "name": "user",
          "type": "address"
        }
      ],
      "name": "getUserState",
      "outputs": [
        {
          "internalType": "uint256",
          "name": "_share",
          "type": "uint256"
        },
        {
          "internalType": "uint256",
          "name": "_reward",
          "type": "uint256"
        },
        {
          "internalType": "uint256",
          "name": "_rewardDebt",
          "type": "uint256"
        },
        {
          "internalType": "uint256",
          "name": "_userPendingReward",
          "type": "uint256"
        }
      ],
      "stateMutability": "view",
      "type": "function"
    },
    {
      "inputs": [
        {
          "internalType": "address",
          "name": "spender",
          "type": "address"
        },
        {
          "internalType": "uint256",
          "name": "addedValue",
          "type": "uint256"
        }
      ],
      "name": "increaseAllowance",
      "outputs": [
        {
          "internalType": "bool",
          "name": "",
          "type": "bool"
        }
      ],
      "stateMutability": "nonpayable",
      "type": "function"
    },
    {
      "inputs": [
        {
          "internalType": "address",
          "name": "to",
          "type": "address"
        },
        {
          "internalType": "uint256",
          "name": "amount",
          "type": "uint256"
        }
      ],
      "name": "mint",
      "outputs": [],
      "stateMutability": "nonpayable",
      "type": "function"
    },
    {
      "inputs": [],
      "name": "name",
      "outputs": [
        {
          "internalType": "string",
          "name": "",
          "type": "string"
        }
      ],
      "stateMutability": "view",
      "type": "function"
    },
    {
      "inputs": [],
      "name": "owner",
      "outputs": [
        {
          "internalType": "address",
          "name": "",
          "type": "address"
        }
      ],
      "stateMutability": "view",
      "type": "function"
    },
    {
      "inputs": [],
      "name": "renounceOwnership",
      "outputs": [],
      "stateMutability": "nonpayable",
      "type": "function"
    },
    {
      "inputs": [],
      "name": "rewardPool",
      "outputs": [
        {
          "internalType": "uint256",
          "name": "",
          "type": "uint256"
        }
      ],
      "stateMutability": "view",
      "type": "function"
    },
    {
      "inputs": [],
      "name": "symbol",
      "outputs": [
        {
          "internalType": "string",
          "name": "",
          "type": "string"
        }
      ],
      "stateMutability": "view",
      "type": "function"
    },
    {
      "inputs": [],
      "name": "totalSupply",
      "outputs": [
        {
          "internalType": "uint256",
          "name": "",
          "type": "uint256"
        }
      ],
      "stateMutability": "view",
      "type": "function"
    },
    {
      "inputs": [
        {
          "internalType": "address",
          "name": "recipient",
          "type": "address"
        },
        {
          "internalType": "uint256",
          "name": "amount",
          "type": "uint256"
        }
      ],
      "name": "transfer",
      "outputs": [
        {
          "internalType": "bool",
          "name": "",
          "type": "bool"
        }
      ],
      "stateMutability": "nonpayable",
      "type": "function"
    },
    {
      "inputs": [
        {
          "internalType": "address",
          "name": "sender",
          "type": "address"
        },
        {
          "internalType": "address",
          "name": "recipient",
          "type": "address"
        },
        {
          "internalType": "uint256",
          "name": "amount",
          "type": "uint256"
        }
      ],
      "name": "transferFrom",
      "outputs": [
        {
          "internalType": "bool",
          "name": "",
          "type": "bool"
        }
      ],
      "stateMutability": "nonpayable",
      "type": "function"
    },
    {
      "inputs": [
        {
          "internalType": "address",
          "name": "newOwner",
          "type": "address"
        }
      ],
      "name": "transferOwnership",
      "outputs": [],
      "stateMutability": "nonpayable",
      "type": "function"
    }
  ],
  "bytecode": "0x60806040523480156200001157600080fd5b506040516200233838038062002338833981016040819052620000349162000902565b6200003f33620000fb565b600f80546001600160a01b0383166001600160a01b031991821617909155436004556009805482167370997970c51812dc3a010c7d01b50e0d17dc79c8179055600a80548216733c44cdddb6a900fa2b585dd299e03d12fa4293bc179055600b80549091167390f79bf6eb2c4f870365e785982e1f101e93b906179055620000f4620000d36000546001600160a01b031690565b620000e16012600662000943565b620000ee90600a62000a68565b6200014b565b5062000b86565b600080546001600160a01b038381166001600160a01b0319831681178455604051919092169283917f8be0079c531659141344cd1fd0a4f28419497f9722a3daafe3b4186f6b6457e09190a35050565b60408051808201909152600c81526b5a65726f206164647265737360a01b60208201526001600160a01b038316620001a15760405162461bcd60e51b815260040162000198919062000a79565b60405180910390fd5b50620001b082826001620001b4565b5050565b600c546001600160a01b038416600090815260026020526040902054620001dc9190620004d7565b600c55600d546001600160a01b0384166000908152600860205260409020600101546200020a9190620004d7565b600d5560006200021a8462000500565b9050801562000290576001600160a01b038416600090815260026020526040902054620002489082620004d7565b6001600160a01b038516600090815260026020526040902055600354620002709082620004d7565b60038190555080600e60008282546200028a919062000ad1565b90915550505b8115620002e8576001600160a01b03841660009081526002602052604081208054859290620002c190849062000ad1565b925050819055508260036000828254620002dc919062000ad1565b90915550620003399050565b6001600160a01b0384166000908152600260205260409020546200030d9084620004d7565b6001600160a01b038516600090815260026020526040902055600354620003359084620004d7565b6003555b6001600160a01b038416600090815260026020526040812054600c8054919290916200036790849062000ad1565b90915550506004546000906200037e904362000aec565b905060006005548262000392919062000aec565b600f5490915060009081906001600160a01b0316635aff34dc620186a0620003bd6103098262000aec565b6040516001600160e01b031960e085901b1681526004810192909252602482015260448101869052601e60648201526084016040805180830381865afa1580156200040c573d6000803e3d6000fd5b505050506040513d601f19601f8201168201806040525081019062000432919062000b06565b91509150600062000475600260008b6001600160a01b03166001600160a01b031681526020019081526020016000205484846200064760201b620008e21760201c565b6001600160a01b038a166000908152600860205260408120600101829055600d80549293508392909190620004ac90849062000ad1565b9091555050506001600160a01b03909716600090815260086020526040902092909255505050505050565b600081831115620004f657620004ee828462000aec565b9050620004fa565b5060005b92915050565b60008060006004544362000515919062000aec565b915060006005548362000529919062000aec565b600f5490915060009081906001600160a01b0316635aff34dc62000553610309620186a062000aec565b6040516001600160e01b031960e084901b1681526004810191909152620186a0602482015260448101869052601e60648201526084016040805180830381865afa158015620005a6573d6000803e3d6000fd5b505050506040513d601f19601f82011682018060405250810190620005cc919062000b06565b91509150620005ed64e8d4a5100083836200064760201b620008e21760201c565b620005fe9064e8d4a5100062000aec565b6001600160a01b0388166000908152600260205260408120549195509064e8d4a51000906200062f90879062000b2b565b6200063b919062000b63565b98975050505050505050565b600080620006578585856200068f565b905060006200066886868662000785565b111562000685576200067c816001620007a3565b91505062000688565b90505b9392505050565b600080806200069f8686620007b1565b9150915081600003620006c957838181620006be57620006be62000b4d565b049250505062000688565b8382101562000780576000620006e187878762000785565b9050600080620006f385858562000805565b9150915081600003620007205786818162000712576200071262000b4d565b049550505050505062000688565b6000876200072f82826200083b565b16905060006200074184848462000849565b9050600062000762838b816200075b576200075b62000b4d565b04620008a0565b9050620007708282620008e5565b9850505050505050505062000688565b600080fd5b6000818062000798576200079862000b4d565b838509949350505050565b600062000688828462000ad1565b60008080620007c18585620008f3565b90506000620007d18686620008e5565b9050808210620007e9579081900392509050620007fe565b6001620007f783836200083b565b0393509150505b9250929050565b6000808284106200081d575083905081830362000833565b60001985016200082e85856200083b565b915091505b935093915050565b600062000688828462000aec565b60008062000875836200085d83826200083b565b816200086d576200086d62000b4d565b506000919050565b905082848162000889576200088962000b4d565b04620008968683620008e5565b1795945050505050565b60006001815b6008811015620008de57620008d382620008cd6002620008c78389620008e5565b6200083b565b620008e5565b9150600101620008a6565b5092915050565b600062000688828462000b2b565b60006000198284099392505050565b6000602082840312156200091557600080fd5b81516001600160a01b03811681146200068857600080fd5b634e487b7160e01b600052601160045260246000fd5b600060ff821660ff84168060ff038211156200096357620009636200092d565b019392505050565b600181815b80851115620009ac5781600019048211156200099057620009906200092d565b808516156200099e57918102915b93841c939080029062000970565b509250929050565b600082620009c557506001620004fa565b81620009d457506000620004fa565b8160018114620009ed5760028114620009f85762000a18565b6001915050620004fa565b60ff84111562000a0c5762000a0c6200092d565b50506001821b620004fa565b5060208310610133831016604e8410600b841016171562000a3d575081810a620004fa565b62000a4983836200096b565b806000190482111562000a605762000a606200092d565b029392505050565b60006200068860ff841683620009b4565b600060208083528351808285015260005b8181101562000aa85785810183015185820160400152820162000a8a565b8181111562000abb576000604083870101525b50601f01601f1916929092016040019392505050565b6000821982111562000ae75762000ae76200092d565b500190565b60008282101562000b015762000b016200092d565b500390565b6000806040838503121562000b1a57600080fd5b505080516020909101519092909150565b600081600019048311821515161562000b485762000b486200092d565b500290565b634e487b7160e01b600052601260045260246000fd5b60008262000b8157634e487b7160e01b600052601260045260246000fd5b500490565b6117a28062000b966000396000f3fe608060405234801561001057600080fd5b50600436106101a95760003560e01c806370a08231116100f9578063a457c2d711610097578063d1daefb411610071578063d1daefb4146103a9578063db1d0fd5146103b2578063dd62ed3e146103ba578063f2fde38b146103f357600080fd5b8063a457c2d714610353578063a9059cbb14610366578063bdfeb1e51461037957600080fd5b80638da5cb5b116100d35780638da5cb5b146102f257806395d89b411461030d5780639dc29fac1461032d578063a150da2a1461034057600080fd5b806370a08231146102cf578063715018a6146102e257806373957289146102ea57600080fd5b8063313ce5671161016657806340c10f191161014057806340c10f1914610276578063416ae7681461028b57806357627e93146102be57806366666aa9146102c657600080fd5b8063313ce5671461025457806332cb6b0c1461025b578063395093511461026357600080fd5b806306fdde03146101ae578063095ea7b3146101e657806318160ddd1461020957806323b872dd1461021f5780632e0f2625146102325780632ff2e9dc1461024c575b600080fd5b60408051808201909152600a8152692737bb32b62a3cb832a360b11b60208201525b6040516101dd919061143a565b60405180910390f35b6101f96101f43660046114ab565b610406565b60405190151581526020016101dd565b61021161041d565b6040519081526020016101dd565b6101f961022d3660046114d5565b61042d565b61023a601281565b60405160ff90911681526020016101dd565b6102116104d0565b601261023a565b6102116104ea565b6101f96102713660046114ab565b61050c565b6102896102843660046114ab565b610519565b005b61029e610299366004611511565b6105c9565b6040805194855260208501939093529183015260608201526080016101dd565b610211601e81565b61021160065481565b6102116102dd366004611511565b6105f7565b610289610615565b61029e61064b565b6000546040516001600160a01b0390911681526020016101dd565b604080518082019091526004815263272a2fa360e11b60208201526101d0565b61028961033b3660046114ab565b61074e565b6101f961034e3660046114d5565b610782565b6101f96103613660046114ab565b61080e565b6101f96103743660046114ab565b61081b565b610381610828565b604080519586526020860194909452928401919091526060830152608082015260a0016101dd565b61021160075481565b610211600c81565b6102116103c836600461152c565b6001600160a01b03918216600090815260016020908152604080832093909416825291909152205490565b610289610401366004611511565b610847565b6000610413338484610920565b5060015b92915050565b600061042860035490565b905090565b60006001600160a01b03841633146104ba576001600160a01b0384166000908152600160209081526040808320338452909152902054828110156104b85760405162461bcd60e51b815260206004820152601a60248201527f5472616e73666572206578636565647320616c6c6f77616e636500000000000060448201526064015b60405180910390fd5b505b6104c58484846109e2565b5060015b9392505050565b6104dc60126006611575565b6104e790600a61167e565b81565b6104f660126006611575565b61050190600a61167e565b6104e790600a61168d565b60006104c9338484610afc565b6000546001600160a01b031633146105435760405162461bcd60e51b81526004016104af906116ac565b61054f60126006611575565b61055a90600a61167e565b61056590600a61168d565b8161056f60035490565b61057991906116e1565b11156105bb5760405162461bcd60e51b8152602060048201526011602482015270457863656564204d617820537570706c7960781b60448201526064016104af565b6105c58282610b83565b5050565b6001600160a01b0381166000908152600260205260408120549080806105ee85610bda565b90509193509193565b6001600160a01b038116600090815260026020526040812054610417565b6000546001600160a01b0316331461063f5760405162461bcd60e51b81526004016104af906116ac565b6106496000610d05565b565b600080600080610659610d55565b935060006106776106726000546001600160a01b031690565b610bda565b905061068381856116e1565b60095490945061069b906001600160a01b0316610bda565b90506106a781856116e1565b600a549094506106bf906001600160a01b0316610bda565b90506106cb81856116e1565b600b549094506106e3906001600160a01b0316610bda565b90506106ef81856116e1565b93508385101561070a5761070385856116f9565b9250610717565b61071484866116f9565b92505b84848110156107235750835b801561074657806107398564e8d4a5100061168d565b6107439190611726565b92505b505090919293565b6000546001600160a01b031633146107785760405162461bcd60e51b81526004016104af906116ac565b6105c58282610e41565b60408051808201909152600c81526b5a65726f206164647265737360a01b60208201526000906001600160a01b0385166107cf5760405162461bcd60e51b81526004016104af919061143a565b506001600160a01b038085166000908152600160209081526040808320938716835292905220546104c590859085906108099086906116f9565b610920565b60006104c9338484610782565b60006104133384846109e2565b600354600554600754600654600061083e610d55565b90509091929394565b6000546001600160a01b031633146108715760405162461bcd60e51b81526004016104af906116ac565b6001600160a01b0381166108d65760405162461bcd60e51b815260206004820152602660248201527f4f776e61626c653a206e6577206f776e657220697320746865207a65726f206160448201526564647265737360d01b60648201526084016104af565b6108df81610d05565b50565b6000806108f0858585610f03565b905060006108ff868686610fd9565b111561091857610910816001610ff4565b9150506104c9565b949350505050565b60408051808201909152600c81526b5a65726f206164647265737360a01b60208201526001600160a01b03841661096a5760405162461bcd60e51b81526004016104af919061143a565b5060408051808201909152600c81526b5a65726f206164647265737360a01b60208201526001600160a01b0383166109b55760405162461bcd60e51b81526004016104af919061143a565b506001600160a01b0392831660009081526001602090815260408083209490951682529290925291902055565b60408051808201909152600c81526b5a65726f206164647265737360a01b60208201526001600160a01b038416610a2c5760405162461bcd60e51b81526004016104af919061143a565b5060408051808201909152600c81526b5a65726f206164647265737360a01b60208201526001600160a01b038316610a775760405162461bcd60e51b81526004016104af919061143a565b506001600160a01b0383166000908152600260205260408120549050818110156040518060400160405280600f81526020016e457863656564732062616c616e636560881b81525090610add5760405162461bcd60e51b81526004016104af919061143a565b50610aea84836000611000565b610af683836001611000565b50505050565b60408051808201909152600c81526b5a65726f206164647265737360a01b60208201526000906001600160a01b038516610b495760405162461bcd60e51b81526004016104af919061143a565b506001600160a01b038085166000908152600160209081526040808320938716835292905220546104c590859085906108099086906116e1565b60408051808201909152600c81526b5a65726f206164647265737360a01b60208201526001600160a01b038316610bcd5760405162461bcd60e51b81526004016104af919061143a565b506105c582826001611000565b600080600060045443610bed91906116f9565b9150600060055483610bff91906116f9565b600f5490915060009081906001600160a01b0316635aff34dc610c27610309620186a06116f9565b6040516001600160e01b031960e084901b1681526004810191909152620186a0602482015260448101869052601e60648201526084016040805180830381865afa158015610c79573d6000803e3d6000fd5b505050506040513d601f19601f82011682018060405250810190610c9d9190611748565b91509150610cb164e8d4a5100083836108e2565b610cc09064e8d4a510006116f9565b6001600160a01b0388166000908152600260205260408120549195509064e8d4a5100090610cef90879061168d565b610cf99190611726565b98975050505050505050565b600080546001600160a01b038381166001600160a01b0319831681178455604051919092169283917f8be0079c531659141344cd1fd0a4f28419497f9722a3daafe3b4186f6b6457e09190a35050565b60008060045443610d6691906116f9565b9050600060055482610d7891906116f9565b600f5490915060009081906001600160a01b0316635aff34dc610da0610309620186a06116f9565b6040516001600160e01b031960e084901b1681526004810191909152620186a0602482015260448101869052601e60648201526084016040805180830381865afa158015610df2573d6000803e3d6000fd5b505050506040513d601f19601f82011682018060405250810190610e169190611748565b915091506000610e29600d5484846108e2565b9050610e37600c54826112e7565b9550505050505090565b60408051808201909152600c81526b5a65726f206164647265737360a01b60208201526001600160a01b038316610e8b5760405162461bcd60e51b81526004016104af919061143a565b506001600160a01b0382166000908152600260205260408120549050818110156040518060400160405280600f81526020016e457863656564732062616c616e636560881b81525090610ef15760405162461bcd60e51b81526004016104af919061143a565b50610efe83836000611000565b505050565b6000806000610f12868661130b565b9150915081600003610f3757838181610f2d57610f2d611710565b04925050506104c9565b838210156101a9576000610f4c878787610fd9565b9050600080610f5c858585611358565b9150915081600003610f8457868181610f7757610f77611710565b04955050505050506104c9565b600087610f9260008a611389565b1690506000610fa2848484611395565b90506000610fbe838b81610fb857610fb8611710565b046113e2565b9050610fca828261141f565b985050505050505050506104c9565b60008180610fe957610fe9611710565b838509949350505050565b60006104c982846116e1565b600c546001600160a01b03841660009081526002602052604090205461102691906112e7565b600c55600d546001600160a01b03841660009081526008602052604090206001015461105291906112e7565b600d55600061106084610bda565b905080156110cf576001600160a01b03841660009081526002602052604090205461108b90826112e7565b6001600160a01b0385166000908152600260205260409020556003546110b190826112e7565b60038190555080600e60008282546110c991906116e1565b90915550505b8115611121576001600160a01b038416600090815260026020526040812080548592906110fd9084906116e1565b92505081905550826003600082825461111691906116e1565b9091555061116e9050565b6001600160a01b03841660009081526002602052604090205461114490846112e7565b6001600160a01b03851660009081526002602052604090205560035461116a90846112e7565b6003555b6001600160a01b038416600090815260026020526040812054600c80549192909161119a9084906116e1565b90915550506004546000906111af90436116f9565b90506000600554826111c191906116f9565b600f5490915060009081906001600160a01b0316635aff34dc620186a06111ea610309826116f9565b6040516001600160e01b031960e085901b1681526004810192909252602482015260448101869052601e60648201526084016040805180830381865afa158015611238573d6000803e3d6000fd5b505050506040513d601f19601f8201168201806040525081019061125c9190611748565b6001600160a01b038a16600090815260026020526040812054929450909250906112879084846108e2565b6001600160a01b038a166000908152600860205260408120600101829055600d805492935083929091906112bc9084906116e1565b9091555050506001600160a01b03909716600090815260086020526040902092909255505050505050565b600081831115611302576112fb82846116f9565b9050610417565b50600092915050565b600080600061131a858561142b565b90506000611328868661141f565b905080821061133e579081900392509050611351565b600161134a8383611389565b0393509150505b9250929050565b60008082841061136e5750839050818303611381565b6001850361137c8585611389565b915091505b935093915050565b60006104c982846116f9565b6000806113bc836113a7600086611389565b816113b4576113b4611710565b506000919050565b90508284816113cd576113cd611710565b046113d8868361141f565b1795945050505050565b60006001815b60088110156114185761140e826114096002611404868961141f565b611389565b61141f565b91506001016113e8565b5092915050565b60006104c9828461168d565b60006000198284099392505050565b600060208083528351808285015260005b818110156114675785810183015185820160400152820161144b565b81811115611479576000604083870101525b50601f01601f1916929092016040019392505050565b80356001600160a01b03811681146114a657600080fd5b919050565b600080604083850312156114be57600080fd5b6114c78361148f565b946020939093013593505050565b6000806000606084860312156114ea57600080fd5b6114f38461148f565b92506115016020850161148f565b9150604084013590509250925092565b60006020828403121561152357600080fd5b6104c98261148f565b6000806040838503121561153f57600080fd5b6115488361148f565b91506115566020840161148f565b90509250929050565b634e487b7160e01b600052601160045260246000fd5b600060ff821660ff84168060ff038211156115925761159261155f565b019392505050565b600181815b808511156115d55781600019048211156115bb576115bb61155f565b808516156115c857918102915b93841c939080029061159f565b509250929050565b6000826115ec57506001610417565b816115f957506000610417565b816001811461160f576002811461161957611635565b6001915050610417565b60ff84111561162a5761162a61155f565b50506001821b610417565b5060208310610133831016604e8410600b8410161715611658575081810a610417565b611662838361159a565b80600019048211156116765761167661155f565b029392505050565b60006104c960ff8416836115dd565b60008160001904831182151516156116a7576116a761155f565b500290565b6020808252818101527f4f776e61626c653a2063616c6c6572206973206e6f7420746865206f776e6572604082015260600190565b600082198211156116f4576116f461155f565b500190565b60008282101561170b5761170b61155f565b500390565b634e487b7160e01b600052601260045260246000fd5b60008261174357634e487b7160e01b600052601260045260246000fd5b500490565b6000806040838503121561175b57600080fd5b50508051602090910151909290915056fea26469706673582212205dda803a08fbd35c7844d9d0786dbb35d6e11f5ed231e235475211fa162228bf64736f6c634300080e0033",
  "linkReferences": {},
  "deployedLinkReferences": {}
}