{
  "_format": "hh-sol-artifact-1",
  "contractName": "XPair",
  "sourceName": "contracts/core/XPair.sol",
  "abi": [
    {
      "inputs": [],
      "stateMutability": "nonpayable",
      "type": "constructor"
    },
    {
      "anonymous": false,
      "inputs": [
        {
          "indexed": true,
          "internalType": "address",
          "name": "owner",
          "type": "address"
        },
        {
          "indexed": true,
          "internalType": "address",
          "name": "spender",
          "type": "address"
        },
        {
          "indexed": false,
          "internalType": "uint256",
          "name": "value",
          "type": "uint256"
        }
      ],
      "name": "Approval",
      "type": "event"
    },
    {
      "anonymous": false,
      "inputs": [
        {
          "indexed": true,
          "internalType": "address",
          "name": "sender",
          "type": "address"
        },
        {
          "indexed": false,
          "internalType": "uint256",
          "name": "amount0",
          "type": "uint256"
        },
        {
          "indexed": false,
          "internalType": "uint256",
          "name": "amount1",
          "type": "uint256"
        },
        {
          "indexed": true,
          "internalType": "address",
          "name": "to",
          "type": "address"
        }
      ],
      "name": "Burn",
      "type": "event"
    },
    {
      "anonymous": false,
      "inputs": [
        {
          "indexed": true,
          "internalType": "address",
          "name": "sender",
          "type": "address"
        },
        {
          "indexed": false,
          "internalType": "uint256",
          "name": "amount0",
          "type": "uint256"
        },
        {
          "indexed": false,
          "internalType": "uint256",
          "name": "amount1",
          "type": "uint256"
        },
        {
          "indexed": true,
          "internalType": "address",
          "name": "to",
          "type": "address"
        }
      ],
      "name": "Dilute",
      "type": "event"
    },
    {
      "anonymous": false,
      "inputs": [
        {
          "indexed": true,
          "internalType": "address",
          "name": "sender",
          "type": "address"
        },
        {
          "indexed": false,
          "internalType": "uint256",
          "name": "amount0",
          "type": "uint256"
        },
        {
          "indexed": false,
          "internalType": "uint256",
          "name": "amount1",
          "type": "uint256"
        }
      ],
      "name": "Mint",
      "type": "event"
    },
    {
      "anonymous": false,
      "inputs": [
        {
          "indexed": true,
          "internalType": "address",
          "name": "sender",
          "type": "address"
        },
        {
          "indexed": false,
          "internalType": "uint256",
          "name": "amount0In",
          "type": "uint256"
        },
        {
          "indexed": false,
          "internalType": "uint256",
          "name": "amount1In",
          "type": "uint256"
        },
        {
          "indexed": false,
          "internalType": "uint256",
          "name": "amount0Out",
          "type": "uint256"
        },
        {
          "indexed": false,
          "internalType": "uint256",
          "name": "amount1Out",
          "type": "uint256"
        },
        {
          "indexed": true,
          "internalType": "address",
          "name": "to",
          "type": "address"
        }
      ],
      "name": "Swap",
      "type": "event"
    },
    {
      "anonymous": false,
      "inputs": [
        {
          "indexed": false,
          "internalType": "uint112",
          "name": "reserve0",
          "type": "uint112"
        },
        {
          "indexed": false,
          "internalType": "uint112",
          "name": "reserve1",
          "type": "uint112"
        }
      ],
      "name": "Sync",
      "type": "event"
    },
    {
      "anonymous": false,
      "inputs": [
        {
          "indexed": true,
          "internalType": "address",
          "name": "from",
          "type": "address"
        },
        {
          "indexed": true,
          "internalType": "address",
          "name": "to",
          "type": "address"
        },
        {
          "indexed": false,
          "internalType": "uint256",
          "name": "value",
          "type": "uint256"
        }
      ],
      "name": "Transfer",
      "type": "event"
    },
    {
      "inputs": [],
      "name": "DOMAIN_SEPARATOR",
      "outputs": [
        {
          "internalType": "bytes32",
          "name": "",
          "type": "bytes32"
        }
      ],
      "stateMutability": "view",
      "type": "function"
    },
    {
      "inputs": [],
      "name": "MINIMUM_LIQUIDITY",
      "outputs": [
        {
          "internalType": "uint256",
          "name": "",
          "type": "uint256"
        }
      ],
      "stateMutability": "view",
      "type": "function"
    },
    {
      "inputs": [],
      "name": "PERMIT_TYPEHASH",
      "outputs": [
        {
          "internalType": "bytes32",
          "name": "",
          "type": "bytes32"
        }
      ],
      "stateMutability": "view",
      "type": "function"
    },
    {
      "inputs": [
        {
          "internalType": "address",
          "name": "",
          "type": "address"
        },
        {
          "internalType": "address",
          "name": "",
          "type": "address"
        }
      ],
      "name": "allowance",
      "outputs": [
        {
          "internalType": "uint256",
          "name": "",
          "type": "uint256"
        }
      ],
      "stateMutability": "view",
      "type": "function"
    },
    {
      "inputs": [
        {
          "internalType": "address",
          "name": "spender",
          "type": "address"
        },
        {
          "internalType": "uint256",
          "name": "value",
          "type": "uint256"
        }
      ],
      "name": "approve",
      "outputs": [
        {
          "internalType": "bool",
          "name": "",
          "type": "bool"
        }
      ],
      "stateMutability": "nonpayable",
      "type": "function"
    },
    {
      "inputs": [
        {
          "internalType": "address",
          "name": "",
          "type": "address"
        }
      ],
      "name": "balanceOf",
      "outputs": [
        {
          "internalType": "uint256",
          "name": "",
          "type": "uint256"
        }
      ],
      "stateMutability": "view",
      "type": "function"
    },
    {
      "inputs": [
        {
          "internalType": "address",
          "name": "to",
          "type": "address"
        }
      ],
      "name": "burn",
      "outputs": [
        {
          "internalType": "uint256",
          "name": "amount0",
          "type": "uint256"
        },
        {
          "internalType": "uint256",
          "name": "amount1",
          "type": "uint256"
        }
      ],
      "stateMutability": "nonpayable",
      "type": "function"
    },
    {
      "inputs": [
        {
          "internalType": "enum ListStatus",
          "name": "_status",
          "type": "uint8"
        }
      ],
      "name": "changeStatus",
      "outputs": [],
      "stateMutability": "nonpayable",
      "type": "function"
    },
    {
      "inputs": [],
      "name": "decimals",
      "outputs": [
        {
          "internalType": "uint8",
          "name": "",
          "type": "uint8"
        }
      ],
      "stateMutability": "view",
      "type": "function"
    },
    {
      "inputs": [
        {
          "internalType": "uint256",
          "name": "liquidity",
          "type": "uint256"
        },
        {
          "internalType": "address",
          "name": "to",
          "type": "address"
        }
      ],
      "name": "dilute",
      "outputs": [
        {
          "internalType": "uint256",
          "name": "amount0",
          "type": "uint256"
        },
        {
          "internalType": "uint256",
          "name": "amount1",
          "type": "uint256"
        }
      ],
      "stateMutability": "nonpayable",
      "type": "function"
    },
    {
      "inputs": [],
      "name": "factory",
      "outputs": [
        {
          "internalType": "address",
          "name": "",
          "type": "address"
        }
      ],
      "stateMutability": "view",
      "type": "function"
    },
    {
      "inputs": [],
      "name": "getReserves",
      "outputs": [
        {
          "internalType": "uint112",
          "name": "_reserve0",
          "type": "uint112"
        },
        {
          "internalType": "uint112",
          "name": "_reserve1",
          "type": "uint112"
        },
        {
          "internalType": "uint32",
          "name": "_blockTimestampLast",
          "type": "uint32"
        }
      ],
      "stateMutability": "view",
      "type": "function"
    },
    {
      "inputs": [
        {
          "internalType": "address",
          "name": "_token0",
          "type": "address"
        },
        {
          "internalType": "address",
          "name": "_token1",
          "type": "address"
        }
      ],
      "name": "initialize",
      "outputs": [],
      "stateMutability": "nonpayable",
      "type": "function"
    },
    {
      "inputs": [],
      "name": "kLast",
      "outputs": [
        {
          "internalType": "uint256",
          "name": "",
          "type": "uint256"
        }
      ],
      "stateMutability": "view",
      "type": "function"
    },
    {
      "inputs": [
        {
          "internalType": "address",
          "name": "to",
          "type": "address"
        }
      ],
      "name": "mint",
      "outputs": [
        {
          "internalType": "uint256",
          "name": "liquidity",
          "type": "uint256"
        }
      ],
      "stateMutability": "nonpayable",
      "type": "function"
    },
    {
      "inputs": [],
      "name": "name",
      "outputs": [
        {
          "internalType": "string",
          "name": "",
          "type": "string"
        }
      ],
      "stateMutability": "view",
      "type": "function"
    },
    {
      "inputs": [
        {
          "internalType": "address",
          "name": "",
          "type": "address"
        }
      ],
      "name": "nonces",
      "outputs": [
        {
          "internalType": "uint256",
          "name": "",
          "type": "uint256"
        }
      ],
      "stateMutability": "view",
      "type": "function"
    },
    {
      "inputs": [
        {
          "internalType": "address",
          "name": "owner",
          "type": "address"
        },
        {
          "internalType": "address",
          "name": "spender",
          "type": "address"
        },
        {
          "internalType": "uint256",
          "name": "value",
          "type": "uint256"
        },
        {
          "internalType": "uint256",
          "name": "deadline",
          "type": "uint256"
        },
        {
          "internalType": "uint8",
          "name": "v",
          "type": "uint8"
        },
        {
          "internalType": "bytes32",
          "name": "r",
          "type": "bytes32"
        },
        {
          "internalType": "bytes32",
          "name": "s",
          "type": "bytes32"
        }
      ],
      "name": "permit",
      "outputs": [],
      "stateMutability": "nonpayable",
      "type": "function"
    },
    {
      "inputs": [],
      "name": "price0CumulativeLast",
      "outputs": [
        {
          "internalType": "uint256",
          "name": "",
          "type": "uint256"
        }
      ],
      "stateMutability": "view",
      "type": "function"
    },
    {
      "inputs": [],
      "name": "price1CumulativeLast",
      "outputs": [
        {
          "internalType": "uint256",
          "name": "",
          "type": "uint256"
        }
      ],
      "stateMutability": "view",
      "type": "function"
    },
    {
      "inputs": [
        {
          "internalType": "address",
          "name": "_token",
          "type": "address"
        },
        {
          "internalType": "address",
          "name": "_maker",
          "type": "address"
        },
        {
          "internalType": "address",
          "name": "_taker",
          "type": "address"
        }
      ],
      "name": "setNodes",
      "outputs": [],
      "stateMutability": "nonpayable",
      "type": "function"
    },
    {
      "inputs": [
        {
          "internalType": "uint256",
          "name": "liquidity",
          "type": "uint256"
        }
      ],
      "name": "sim_burn",
      "outputs": [
        {
          "internalType": "uint256",
          "name": "amount0",
          "type": "uint256"
        },
        {
          "internalType": "uint256",
          "name": "amount1",
          "type": "uint256"
        }
      ],
      "stateMutability": "view",
      "type": "function"
    },
    {
      "inputs": [
        {
          "internalType": "address",
          "name": "to",
          "type": "address"
        }
      ],
      "name": "skim",
      "outputs": [],
      "stateMutability": "nonpayable",
      "type": "function"
    },
    {
      "inputs": [],
      "name": "status",
      "outputs": [
        {
          "internalType": "enum ListStatus",
          "name": "",
          "type": "uint8"
        }
      ],
      "stateMutability": "view",
      "type": "function"
    },
    {
      "inputs": [
        {
          "internalType": "uint256",
          "name": "amount0Out",
          "type": "uint256"
        },
        {
          "internalType": "uint256",
          "name": "amount1Out",
          "type": "uint256"
        },
        {
          "internalType": "address",
          "name": "to",
          "type": "address"
        },
        {
          "internalType": "bytes",
          "name": "data",
          "type": "bytes"
        }
      ],
      "name": "swap",
      "outputs": [],
      "stateMutability": "nonpayable",
      "type": "function"
    },
    {
      "inputs": [],
      "name": "symbol",
      "outputs": [
        {
          "internalType": "string",
          "name": "",
          "type": "string"
        }
      ],
      "stateMutability": "view",
      "type": "function"
    },
    {
      "inputs": [],
      "name": "sync",
      "outputs": [],
      "stateMutability": "nonpayable",
      "type": "function"
    },
    {
      "inputs": [],
      "name": "token0",
      "outputs": [
        {
          "internalType": "address",
          "name": "",
          "type": "address"
        }
      ],
      "stateMutability": "view",
      "type": "function"
    },
    {
      "inputs": [],
      "name": "token1",
      "outputs": [
        {
          "internalType": "address",
          "name": "",
          "type": "address"
        }
      ],
      "stateMutability": "view",
      "type": "function"
    },
    {
      "inputs": [],
      "name": "totalSupply",
      "outputs": [
        {
          "internalType": "uint256",
          "name": "",
          "type": "uint256"
        }
      ],
      "stateMutability": "view",
      "type": "function"
    },
    {
      "inputs": [
        {
          "internalType": "address",
          "name": "to",
          "type": "address"
        },
        {
          "internalType": "uint256",
          "name": "value",
          "type": "uint256"
        }
      ],
      "name": "transfer",
      "outputs": [
        {
          "internalType": "bool",
          "name": "",
          "type": "bool"
        }
      ],
      "stateMutability": "nonpayable",
      "type": "function"
    },
    {
      "inputs": [
        {
          "internalType": "address",
          "name": "from",
          "type": "address"
        },
        {
          "internalType": "address",
          "name": "to",
          "type": "address"
        },
        {
          "internalType": "uint256",
          "name": "value",
          "type": "uint256"
        }
      ],
      "name": "transferFrom",
      "outputs": [
        {
          "internalType": "bool",
          "name": "",
          "type": "bool"
        }
      ],
      "stateMutability": "nonpayable",
      "type": "function"
    }
  ],
  "bytecode": "0x60806040526001600f5534801561001557600080fd5b5060058054604080518082018252600f81526e4c697175696469747920506f6f6c7360881b6020918201528151808301835260018152603160f81b9082015281517f4771e259cc52e342be37df42506473f4042cb91fdf5c67782c2c45ed51b98beb818301527fd14edaf06e9c5da05e41d9891e95cf9744c99f27d02deca8fc38053cf6c938c0818401527fc89efdaa54c0f20c7adf612882df0950f5a951637e0307cdcb4c672f298b8bc660608201524660808201523060a0808301919091528351808303909101815260c090910190925281519101206003556001600160a81b031916336101000260ff1916176002179055612ccc806101186000396000f3fe608060405234801561001057600080fd5b50600436106101f05760003560e01c80637464fc3d1161010f578063bc25cf77116100a2578063dd62ed3e11610071578063dd62ed3e146104bb578063e98732a5146104e6578063eedb09aa146104f9578063fff6cae91461050c57600080fd5b8063bc25cf771461046a578063c45a01551461047d578063d21220a714610495578063d505accf146104a857600080fd5b806395d89b41116100de57806395d89b411461041a578063a9059cbb1461043b578063b21572641461044e578063ba9a7a561461046157600080fd5b80637464fc3d146103b65780637ecebe00146103bf57806389afcb44146103df57806395bc95381461040757600080fd5b806330adf81f116101875780635909c0d5116101565780635909c0d5146103715780635a3d54931461037a5780636a6278421461038357806370a082311461039657600080fd5b806330adf81f14610314578063313ce5671461033b5780633644e51514610355578063485cc9551461035e57600080fd5b80630dfe1681116101c35780630dfe1681146102a557806318160ddd146102d0578063200d2ed2146102e757806323b872dd1461030157600080fd5b8063022c0d9f146101f557806306fdde031461020a5780630902f1ac1461024e578063095ea7b314610282575b600080fd5b610208610203366004612705565b610514565b005b6102386040518060400160405280600f81526020016e4c697175696469747920506f6f6c7360881b81525081565b60405161024591906127f3565b60405180910390f35b610256610b16565b604080516001600160701b03948516815293909216602084015263ffffffff1690820152606001610245565b610295610290366004612806565b610b40565b6040519015158152602001610245565b6006546102b8906001600160a01b031681565b6040516001600160a01b039091168152602001610245565b6102d960005481565b604051908152602001610245565b6005546102f49060ff1681565b6040516102459190612848565b61029561030f366004612870565b610b57565b6102d97f6e71edae12b1b97f4d1f60370fef10105fa2faae0126114a169c64845d6126c981565b610343601281565b60405160ff9091168152602001610245565b6102d960035481565b61020861036c3660046128b1565b610bea565b6102d960095481565b6102d9600a5481565b6102d96103913660046128ea565b610c6a565b6102d96103a43660046128ea565b60016020526000908152604090205481565b6102d9600b5481565b6102d96103cd3660046128ea565b60046020526000908152604090205481565b6103f26103ed3660046128ea565b610f45565b60408051928352602083019190915201610245565b610208610415366004612907565b61129a565b6102386040518060400160405280600281526020016104c560f41b81525081565b610295610449366004612806565b611314565b6103f261045c366004612928565b611321565b6102d96103e881565b6102086104783660046128ea565b611448565b6005546102b89061010090046001600160a01b031681565b6007546102b8906001600160a01b031681565b6102086104b6366004612941565b61155c565b6102d96104c93660046128b1565b600260209081526000928352604080842090915290825290205481565b6102086104f43660046129b8565b61176e565b6103f2610507366004612a03565b611800565b610208611c43565b600f5460011461053f5760405162461bcd60e51b815260040161053690612a28565b60405180910390fd5b6000600f55841515806105525750600084115b6105aa5760405162461bcd60e51b815260206004820152602360248201527f58506169723a20496e73756666696369656e7420616d6f756e7420666f72207360448201526207761760ec1b6064820152608401610536565b6000806105b5610b16565b5091509150816001600160701b0316871080156105da5750806001600160701b031686105b6106345760405162461bcd60e51b815260206004820152602560248201527f58506169723a20496e73756666696369656e7420726573657276657320666f72604482015264020737761760dc1b6064820152608401610536565b60065460075460009182916001600160a01b039182169190811690891682148015906106725750806001600160a01b0316896001600160a01b031614155b6106b55760405162461bcd60e51b815260206004820152601460248201527358506169723a20496e76616c696420666565546f60601b6044820152606401610536565b6040516370a0823160e01b81523060048201526001600160a01b038316906370a0823190602401602060405180830381865afa1580156106f9573d6000803e3d6000fd5b505050506040513d601f19601f8201168201806040525081019061071d9190612a48565b6040516370a0823160e01b81523060048201529094506001600160a01b038216906370a0823190602401602060405180830381865afa158015610764573d6000803e3d6000fd5b505050506040513d601f19601f820116820180604052508101906107889190612a48565b92508a1561079b5761079b828a8d611d67565b89156107ac576107ac818a8c611d67565b86156108195760405163849f941560e01b81526001600160a01b038a169063849f9415906107e69033908f908f908e908e90600401612a61565b600060405180830381600087803b15801561080057600080fd5b505af1158015610814573d6000803e3d6000fd5b505050505b6040516370a0823160e01b81523060048201526001600160a01b038316906370a0823190602401602060405180830381865afa15801561085d573d6000803e3d6000fd5b505050506040513d601f19601f820116820180604052508101906108819190612a48565b6040516370a0823160e01b81523060048201529094506001600160a01b038216906370a0823190602401602060405180830381865afa1580156108c8573d6000803e3d6000fd5b505050506040513d601f19601f820116820180604052508101906108ec9190612a48565b92505050600089856001600160701b03166109079190612ac3565b8311610914576000610931565b6109278a6001600160701b038716612ac3565b6109319084612ac3565b905060006109488a6001600160701b038716612ac3565b8311610955576000610972565b6109688a6001600160701b038716612ac3565b6109729084612ac3565b905060008211806109835750600081115b6109cf5760405162461bcd60e51b815260206004820181905260248201527f58506169723a20496e73756666696369656e6420696e70757420616d6f756e746044820152606401610536565b60006109dc836011612ada565b6109e886612710612ada565b6109f29190612ac3565b90506000610a01836011612ada565b610a0d86612710612ada565b610a179190612ac3565b9050610a2f6001600160701b03808916908a16612ada565b610a3d906305f5e100612ada565b610a478284612ada565b1015610aa15760405162461bcd60e51b815260206004820152602360248201527f58506169723a20496e76616c6964206c6971756964697479206166747265207360448201526207761760ec1b6064820152608401610536565b5050610aaf84848888611f1c565b60408051838152602081018390529081018c9052606081018b90526001600160a01b038a169033907fd78ad95fa46c994b6551d0da85fc275fe613ce37657fb8d5e3d130840159d8229060800160405180910390a350506001600f55505050505050505050565b6008546001600160701b0380821692600160701b830490911691600160e01b900463ffffffff1690565b6000610b4d338484612103565b5060015b92915050565b60006001600160a01b0384163314801590610b9757506001600160a01b038416600090815260026020908152604080832033845290915290205460001914155b15610bd5576001600160a01b038416600090815260026020908152604080832033845290915281208054849290610bcf908490612ac3565b90915550505b610be0848484612165565b5060019392505050565b60055461010090046001600160a01b03163314610c3c5760405162461bcd60e51b815260206004820152601060248201526f21b937b9b99d102327a92124a22222a760811b6044820152606401610536565b600680546001600160a01b039384166001600160a01b03199182161790915560078054929093169116179055565b6000600f54600114610c8e5760405162461bcd60e51b815260040161053690612a28565b6000600f81905580610c9e610b16565b506006546040516370a0823160e01b81523060048201529294509092506000916001600160a01b03909116906370a0823190602401602060405180830381865afa158015610cf0573d6000803e3d6000fd5b505050506040513d601f19601f82011682018060405250810190610d149190612a48565b6007546040516370a0823160e01b81523060048201529192506000916001600160a01b03909116906370a0823190602401602060405180830381865afa158015610d62573d6000803e3d6000fd5b505050506040513d601f19601f82011682018060405250810190610d869190612a48565b90506000610d9d836001600160701b038716612206565b90506000610db4836001600160701b038716612206565b90506000610dc2878761224f565b60008054919250819003610e2857610df66040518060600160405280602a8152602001612c6d602a913985856103e861238c565b610e146103e8610e0e610e0987876123db565b61245d565b90612206565b9850610e2360006103e86124cd565b610e6f565b610e6c6001600160701b038916610e3f86846123db565b610e499190612b0f565b6001600160701b038916610e5d86856123db565b610e679190612b0f565b61255c565b98505b60008911610eb75760405162461bcd60e51b815260206004820152601560248201527416995c9bc81b1a5c5d5a591a5d1e481b5a5b9d1959605a1b6044820152606401610536565b610ec18a8a6124cd565b610ecd86868a8a611f1c565b8115610ef757600854610ef3906001600160701b0380821691600160701b9004166123db565b600b555b604080518581526020810185905233917f4c209b5fc8ad50758f13e2e1088ba56a560dff690a1c6fef26394f4c03821c4f910160405180910390a250506001600f5550949695505050505050565b600080600f54600114610f6a5760405162461bcd60e51b815260040161053690612a28565b6000600f81905580610f7a610b16565b506006546007546040516370a0823160e01b81523060048201529395509193506001600160a01b039081169291169060009083906370a0823190602401602060405180830381865afa158015610fd4573d6000803e3d6000fd5b505050506040513d601f19601f82011682018060405250810190610ff89190612a48565b6040516370a0823160e01b81523060048201529091506000906001600160a01b038416906370a0823190602401602060405180830381865afa158015611042573d6000803e3d6000fd5b505050506040513d601f19601f820116820180604052508101906110669190612a48565b30600090815260016020526040812054919250611083888861224f565b6000549091508061109484876123db565b61109e9190612b0f565b9a50806110ab84866123db565b6110b59190612b0f565b995060008b1180156110c7575060008a115b6111135760405162461bcd60e51b815260206004820152601b60248201527f4e6f20746f6b656e20746f2074616b65206166746572206275726e00000000006044820152606401610536565b61111d3084612572565b611128878d8d611d67565b611133868d8c611d67565b6040516370a0823160e01b81523060048201526001600160a01b038816906370a0823190602401602060405180830381865afa158015611177573d6000803e3d6000fd5b505050506040513d601f19601f8201168201806040525081019061119b9190612a48565b6040516370a0823160e01b81523060048201529095506001600160a01b038716906370a0823190602401602060405180830381865afa1580156111e2573d6000803e3d6000fd5b505050506040513d601f19601f820116820180604052508101906112069190612a48565b935061121485858b8b611f1c565b811561123e5760085461123a906001600160701b0380821691600160701b9004166123db565b600b555b604080518c8152602081018c90526001600160a01b038e169133917fdccd412f0b1252819cb1fd330b93224ca42612892bb3f4f789976e6d81936496910160405180910390a35050505050505050506001600f81905550915091565b60055461010090046001600160a01b031633146112ed5760405162461bcd60e51b815260206004820152601160248201527043616c6c657220213d20666163746f727960781b6044820152606401610536565b6005805482919060ff1916600183600381111561130c5761130c612832565b021790555050565b6000610b4d338484612165565b6006546007546040516370a0823160e01b815230600482015260009283926001600160a01b0391821692911690839083906370a0823190602401602060405180830381865afa158015611378573d6000803e3d6000fd5b505050506040513d601f19601f8201168201806040525081019061139c9190612a48565b6040516370a0823160e01b81523060048201529091506000906001600160a01b038416906370a0823190602401602060405180830381865afa1580156113e6573d6000803e3d6000fd5b505050506040513d601f19601f8201168201806040525081019061140a9190612a48565b6000549091508061141b89856123db565b6114259190612b0f565b96508061143289846123db565b61143c9190612b0f565b95505050505050915091565b600f5460011461146a5760405162461bcd60e51b815260040161053690612a28565b6000600f556006546007546008546040516370a0823160e01b81523060048201526001600160a01b0393841693909216916115059184918691611500916001600160701b039091169084906370a08231906024015b602060405180830381865afa1580156114dc573d6000803e3d6000fd5b505050506040513d601f19601f82011682018060405250810190610e0e9190612a48565b611d67565b6008546040516370a0823160e01b8152306004820152611552918391869161150091600160701b9091046001600160701b0316906001600160a01b038516906370a08231906024016114bf565b50506001600f5550565b4284101561159f5760405162461bcd60e51b815260206004820152601060248201526f43726f7373656420646561646c696e6560801b6044820152606401610536565b6003546001600160a01b038816600090815260046020526040812080549192917f6e71edae12b1b97f4d1f60370fef10105fa2faae0126114a169c64845d6126c9918b918b918b9190876115f283612b23565b909155506040805160208101969096526001600160a01b0394851690860152929091166060840152608083015260a082015260c0810187905260e0016040516020818303038152906040528051906020012060405160200161166b92919061190160f01b81526002810192909252602282015260420190565b60408051601f198184030181528282528051602091820120600080855291840180845281905260ff88169284019290925260608301869052608083018590529092509060019060a0016020604051602081039080840390855afa1580156116d6573d6000803e3d6000fd5b5050604051601f1901519150506001600160a01b0381161580159061170c5750886001600160a01b0316816001600160a01b0316145b6117585760405162461bcd60e51b815260206004820152601a60248201527f7265636f766572656420616464726573732069732077726f6e670000000000006044820152606401610536565b611763898989612103565b505050505050505050565b60055461010090046001600160a01b031633146117c15760405162461bcd60e51b815260206004820152601160248201527043616c6c657220213d20666163746f727960781b6044820152606401610536565b600c80546001600160a01b039485166001600160a01b031991821617909155600d805493851693821693909317909255600e8054919093169116179055565b600080600f546001146118255760405162461bcd60e51b815260040161053690612a28565b6000600f55600d546001600160a01b0316331461187d5760405162461bcd60e51b815260206004820152601660248201527521a0a62622a91024a9902727aa102c102927aaaa22a960511b6044820152606401610536565b6006546007546040516370a0823160e01b81523060048201526001600160a01b03928316929091169060009083906370a0823190602401602060405180830381865afa1580156118d1573d6000803e3d6000fd5b505050506040513d601f19601f820116820180604052508101906118f59190612a48565b6040516370a0823160e01b81523060048201529091506000906001600160a01b038416906370a0823190602401602060405180830381865afa15801561193f573d6000803e3d6000fd5b505050506040513d601f19601f820116820180604052508101906119639190612a48565b600054909150808911156119af5760405162461bcd60e51b81526020600482015260136024820152724578636565647320746f74616c537570706c7960681b6044820152606401610536565b806119ba8a856123db565b6119c49190612b0f565b9650806119d18a846123db565b6119db9190612b0f565b95506000871180156119ed5750600086115b611a315760405162461bcd60e51b81526020600482015260156024820152745a65726f20616d6f756e7420746f2064696c75746560581b6044820152606401610536565b611a3c858989611d67565b611a47848988611d67565b6040516370a0823160e01b81523060048201526001600160a01b038616906370a0823190602401602060405180830381865afa158015611a8b573d6000803e3d6000fd5b505050506040513d601f19601f82011682018060405250810190611aaf9190612a48565b6040516370a0823160e01b81523060048201529093506001600160a01b038516906370a0823190602401602060405180830381865afa158015611af6573d6000803e3d6000fd5b505050506040513d601f19601f82011682018060405250810190611b1a9190612a48565b9150600080611b27610b16565b5091509150611b3885858484611f1c565b6000600560019054906101000a90046001600160a01b03166001600160a01b031663017e7e586040518163ffffffff1660e01b8152600401602060405180830381865afa158015611b8d573d6000803e3d6000fd5b505050506040513d601f19601f82011682018060405250810190611bb19190612b3c565b90506001600160a01b03811615611be657600854611be2906001600160701b0380821691600160701b9004166123db565b600b555b604080518b8152602081018b90526001600160a01b038d169133917fa47f24d69e625a7d90ac648c940df5880100dc025789b4c1ec63e2cc30eb0e28910160405180910390a350505050505050506001600f819055509250929050565b600f54600114611c655760405162461bcd60e51b815260040161053690612a28565b6000600f556006546040516370a0823160e01b8152306004820152611d60916001600160a01b0316906370a0823190602401602060405180830381865afa158015611cb4573d6000803e3d6000fd5b505050506040513d601f19601f82011682018060405250810190611cd89190612a48565b6007546040516370a0823160e01b81523060048201526001600160a01b03909116906370a0823190602401602060405180830381865afa158015611d20573d6000803e3d6000fd5b505050506040513d601f19601f82011682018060405250810190611d449190612a48565b6008546001600160701b0380821691600160701b900416611f1c565b6001600f55565b600c546001600160a01b0390811690841603611dea5760405163cd537aa160e01b81523060048201526001600160a01b0383811660248301526044820183905284169063cd537aa190606401600060405180830381600087803b158015611dcd57600080fd5b505af1158015611de1573d6000803e3d6000fd5b50505050505050565b60408051808201825260168152757472616e7366657228616464726573732c75696e742960501b60209182015281516001600160a01b0385811660248301526044808301869052845180840390910181526064909201845291810180516001600160e01b0316630d9724fb60e31b17905291516000928392871691611e6f9190612b59565b6000604051808303816000865af19150503d8060008114611eac576040519150601f19603f3d011682016040523d82523d6000602084013e611eb1565b606091505b5091509150818015611ed2575080806020019051810190611ed29190612b75565b611f155760405162461bcd60e51b815260206004820152601460248201527317dcd85999551c985b9cd9995c8819985a5b195960621b6044820152606401610536565b5050505050565b6001600160701b038411801590611f3a57506001600160701b038311155b611f775760405162461bcd60e51b815260206004820152600e60248201526d57726f6e672062616c616e63657360901b6044820152606401610536565b6000611f8864010000000042612b97565b600854909150600090611fa890600160e01b900463ffffffff1683612bab565b905060008163ffffffff16118015611fc857506001600160701b03841615155b8015611fdc57506001600160701b03831615155b1561206b578063ffffffff1661200485611ff5866125fc565b6001600160e01b031690612615565b6001600160e01b03166120179190612ada565b600960008282546120289190612bd0565b909155505063ffffffff811661204184611ff5876125fc565b6001600160e01b03166120549190612ada565b600a60008282546120659190612bd0565b90915550505b6008805463ffffffff8416600160e01b026001600160e01b036001600160701b03898116600160701b9081026001600160e01b03199095168c83161794909417918216831794859055604080519382169282169290921783529290930490911660208201527f1c411e9a96e071241c2f21f7726b17ae89e3cab4c78be50e062b03a9fffbbad1910160405180910390a1505050505050565b6001600160a01b0383811660008181526002602090815260408083209487168084529482529182902085905590518481527f8c5be1e5ebec7d5bd14f71427d1e84f3dd0314c0f7b2291e5b200ac8c7c3b92591015b60405180910390a3505050565b6001600160a01b0383166000908152600160205260408120805483929061218d908490612ac3565b90915550506001600160a01b038216600090815260016020526040812080548392906121ba908490612bd0565b92505081905550816001600160a01b0316836001600160a01b03167fddf252ad1be2c89b69c2b068fc378daa952ba7f163c4a11628f55a4df523b3ef8360405161215891815260200190565b600061224883836040518060400160405280601e81526020017f536166654d6174683a207375627472616374696f6e206f766572666c6f77000081525061262a565b9392505050565b600080600560019054906101000a90046001600160a01b03166001600160a01b031663017e7e586040518163ffffffff1660e01b8152600401602060405180830381865afa1580156122a5573d6000803e3d6000fd5b505050506040513d601f19601f820116820180604052508101906122c99190612b3c565b600b546001600160a01b038216158015945091925090612378578015612373576000612304610e096001600160701b038881169088166123db565b905060006123118361245d565b90508082111561237057600061233361232a8484612206565b600054906123db565b9050600061234c836123468660036123db565b90612664565b9050600061235a8284612b0f565b9050801561236c5761236c87826124cd565b5050505b50505b612384565b8015612384576000600b555b505092915050565b6123d5848484846040516024016123a69493929190612be8565b60408051601f198184030181529190526020810180516001600160e01b031663a7a8785360e01b1790526126c3565b50505050565b6000826000036123ed57506000610b51565b60006123f98385612ada565b9050826124068583612b0f565b146122485760405162461bcd60e51b815260206004820152602160248201527f536166654d6174683a206d756c7469706c69636174696f6e206f766572666c6f6044820152607760f81b6064820152608401610536565b600060038211156124be5750806000612477600283612b0f565b612482906001612bd0565b90505b818110156124b85790508060028161249d8186612b0f565b6124a79190612bd0565b6124b19190612b0f565b9050612485565b50919050565b81156124c8575060015b919050565b6000546124da9082612664565b60009081556001600160a01b0383168152600160205260409020546124ff9082612664565b6001600160a01b0383166000818152600160205260408082209390935591519091907fddf252ad1be2c89b69c2b068fc378daa952ba7f163c4a11628f55a4df523b3ef906125509085815260200190565b60405180910390a35050565b600081831061256b5781612248565b5090919050565b6001600160a01b0382166000908152600160205260409020546125959082612206565b6001600160a01b038316600090815260016020526040812091909155546125bc9082612206565b60009081556040518281526001600160a01b038416907fddf252ad1be2c89b69c2b068fc378daa952ba7f163c4a11628f55a4df523b3ef90602001612550565b6000610b51600160701b6001600160701b038416612c17565b60006122486001600160701b03831684612c46565b6000818484111561264e5760405162461bcd60e51b815260040161053691906127f3565b50600061265b8486612ac3565b95945050505050565b6000806126718385612bd0565b9050838110156122485760405162461bcd60e51b815260206004820152601b60248201527f536166654d6174683a206164646974696f6e206f766572666c6f7700000000006044820152606401610536565b6126cc816126cf565b50565b60006a636f6e736f6c652e6c6f679050600080835160208501845afa505050565b6001600160a01b03811681146126cc57600080fd5b60008060008060006080868803121561271d57600080fd5b85359450602086013593506040860135612736816126f0565b9250606086013567ffffffffffffffff8082111561275357600080fd5b818801915088601f83011261276757600080fd5b81358181111561277657600080fd5b89602082850101111561278857600080fd5b9699959850939650602001949392505050565b60005b838110156127b657818101518382015260200161279e565b838111156123d55750506000910152565b600081518084526127df81602086016020860161279b565b601f01601f19169290920160200192915050565b60208152600061224860208301846127c7565b6000806040838503121561281957600080fd5b8235612824816126f0565b946020939093013593505050565b634e487b7160e01b600052602160045260246000fd5b602081016004831061286a57634e487b7160e01b600052602160045260246000fd5b91905290565b60008060006060848603121561288557600080fd5b8335612890816126f0565b925060208401356128a0816126f0565b929592945050506040919091013590565b600080604083850312156128c457600080fd5b82356128cf816126f0565b915060208301356128df816126f0565b809150509250929050565b6000602082840312156128fc57600080fd5b8135612248816126f0565b60006020828403121561291957600080fd5b81356004811061224857600080fd5b60006020828403121561293a57600080fd5b5035919050565b600080600080600080600060e0888a03121561295c57600080fd5b8735612967816126f0565b96506020880135612977816126f0565b95506040880135945060608801359350608088013560ff8116811461299b57600080fd5b9699959850939692959460a0840135945060c09093013592915050565b6000806000606084860312156129cd57600080fd5b83356129d8816126f0565b925060208401356129e8816126f0565b915060408401356129f8816126f0565b809150509250925092565b60008060408385031215612a1657600080fd5b8235915060208301356128df816126f0565b602080825260069082015265131bd8dad95960d21b604082015260600190565b600060208284031215612a5a57600080fd5b5051919050565b60018060a01b038616815284602082015283604082015260806060820152816080820152818360a0830137600081830160a090810191909152601f909201601f19160101949350505050565b634e487b7160e01b600052601160045260246000fd5b600082821015612ad557612ad5612aad565b500390565b6000816000190483118215151615612af457612af4612aad565b500290565b634e487b7160e01b600052601260045260246000fd5b600082612b1e57612b1e612af9565b500490565b600060018201612b3557612b35612aad565b5060010190565b600060208284031215612b4e57600080fd5b8151612248816126f0565b60008251612b6b81846020870161279b565b9190910192915050565b600060208284031215612b8757600080fd5b8151801515811461224857600080fd5b600082612ba657612ba6612af9565b500690565b600063ffffffff83811690831681811015612bc857612bc8612aad565b039392505050565b60008219821115612be357612be3612aad565b500190565b608081526000612bfb60808301876127c7565b6020830195909552506040810192909252606090910152919050565b60006001600160e01b0382811684821681151582840482111615612c3d57612c3d612aad565b02949350505050565b60006001600160e01b0383811680612c6057612c60612af9565b9216919091049291505056fe6d696e742e20616d6f756e74302c20616d6f756e74312c204d494e494d554d5f4c49515549444954593aa2646970667358221220e8d587f44404fa2b088ec8d9ad86c8e57a6303ff738390312e4e65ee74ccbea764736f6c634300080e0033",
  "linkReferences": {},
  "deployedLinkReferences": {}
}