{
  "_format": "hh-sol-artifact-1",
  "contractName": "XPair",
  "sourceName": "contracts/core/XPair.sol",
  "abi": [
    {
      "inputs": [],
      "stateMutability": "nonpayable",
      "type": "constructor"
    },
    {
      "anonymous": false,
      "inputs": [
        {
          "indexed": true,
          "internalType": "address",
          "name": "owner",
          "type": "address"
        },
        {
          "indexed": true,
          "internalType": "address",
          "name": "spender",
          "type": "address"
        },
        {
          "indexed": false,
          "internalType": "uint256",
          "name": "value",
          "type": "uint256"
        }
      ],
      "name": "Approval",
      "type": "event"
    },
    {
      "anonymous": false,
      "inputs": [
        {
          "indexed": true,
          "internalType": "address",
          "name": "sender",
          "type": "address"
        },
        {
          "indexed": false,
          "internalType": "uint256",
          "name": "amount0",
          "type": "uint256"
        },
        {
          "indexed": false,
          "internalType": "uint256",
          "name": "amount1",
          "type": "uint256"
        },
        {
          "indexed": true,
          "internalType": "address",
          "name": "to",
          "type": "address"
        }
      ],
      "name": "Burn",
      "type": "event"
    },
    {
      "anonymous": false,
      "inputs": [
        {
          "indexed": true,
          "internalType": "address",
          "name": "sender",
          "type": "address"
        },
        {
          "indexed": false,
          "internalType": "uint256",
          "name": "amount0",
          "type": "uint256"
        },
        {
          "indexed": false,
          "internalType": "uint256",
          "name": "amount1",
          "type": "uint256"
        }
      ],
      "name": "Mint",
      "type": "event"
    },
    {
      "anonymous": false,
      "inputs": [
        {
          "indexed": true,
          "internalType": "address",
          "name": "sender",
          "type": "address"
        },
        {
          "indexed": false,
          "internalType": "uint256",
          "name": "amount0In",
          "type": "uint256"
        },
        {
          "indexed": false,
          "internalType": "uint256",
          "name": "amount1In",
          "type": "uint256"
        },
        {
          "indexed": false,
          "internalType": "uint256",
          "name": "amount0Out",
          "type": "uint256"
        },
        {
          "indexed": false,
          "internalType": "uint256",
          "name": "amount1Out",
          "type": "uint256"
        },
        {
          "indexed": true,
          "internalType": "address",
          "name": "to",
          "type": "address"
        }
      ],
      "name": "Swap",
      "type": "event"
    },
    {
      "anonymous": false,
      "inputs": [
        {
          "indexed": false,
          "internalType": "uint112",
          "name": "reserve0",
          "type": "uint112"
        },
        {
          "indexed": false,
          "internalType": "uint112",
          "name": "reserve1",
          "type": "uint112"
        }
      ],
      "name": "Sync",
      "type": "event"
    },
    {
      "anonymous": false,
      "inputs": [
        {
          "indexed": true,
          "internalType": "address",
          "name": "from",
          "type": "address"
        },
        {
          "indexed": true,
          "internalType": "address",
          "name": "to",
          "type": "address"
        },
        {
          "indexed": false,
          "internalType": "uint256",
          "name": "value",
          "type": "uint256"
        }
      ],
      "name": "Transfer",
      "type": "event"
    },
    {
      "inputs": [],
      "name": "DOMAIN_SEPARATOR",
      "outputs": [
        {
          "internalType": "bytes32",
          "name": "",
          "type": "bytes32"
        }
      ],
      "stateMutability": "view",
      "type": "function"
    },
    {
      "inputs": [],
      "name": "MINIMUM_LIQUIDITY",
      "outputs": [
        {
          "internalType": "uint256",
          "name": "",
          "type": "uint256"
        }
      ],
      "stateMutability": "view",
      "type": "function"
    },
    {
      "inputs": [],
      "name": "PERMIT_TYPEHASH",
      "outputs": [
        {
          "internalType": "bytes32",
          "name": "",
          "type": "bytes32"
        }
      ],
      "stateMutability": "view",
      "type": "function"
    },
    {
      "inputs": [
        {
          "internalType": "address",
          "name": "",
          "type": "address"
        },
        {
          "internalType": "address",
          "name": "",
          "type": "address"
        }
      ],
      "name": "allowance",
      "outputs": [
        {
          "internalType": "uint256",
          "name": "",
          "type": "uint256"
        }
      ],
      "stateMutability": "view",
      "type": "function"
    },
    {
      "inputs": [
        {
          "internalType": "address",
          "name": "spender",
          "type": "address"
        },
        {
          "internalType": "uint256",
          "name": "value",
          "type": "uint256"
        }
      ],
      "name": "approve",
      "outputs": [
        {
          "internalType": "bool",
          "name": "",
          "type": "bool"
        }
      ],
      "stateMutability": "nonpayable",
      "type": "function"
    },
    {
      "inputs": [
        {
          "internalType": "address",
          "name": "",
          "type": "address"
        }
      ],
      "name": "balanceOf",
      "outputs": [
        {
          "internalType": "uint256",
          "name": "",
          "type": "uint256"
        }
      ],
      "stateMutability": "view",
      "type": "function"
    },
    {
      "inputs": [
        {
          "internalType": "address",
          "name": "to",
          "type": "address"
        }
      ],
      "name": "burn",
      "outputs": [
        {
          "internalType": "uint256",
          "name": "amount0",
          "type": "uint256"
        },
        {
          "internalType": "uint256",
          "name": "amount1",
          "type": "uint256"
        }
      ],
      "stateMutability": "nonpayable",
      "type": "function"
    },
    {
      "inputs": [
        {
          "internalType": "enum ListStatus",
          "name": "_status",
          "type": "uint8"
        }
      ],
      "name": "changeStatus",
      "outputs": [],
      "stateMutability": "nonpayable",
      "type": "function"
    },
    {
      "inputs": [],
      "name": "decimals",
      "outputs": [
        {
          "internalType": "uint8",
          "name": "",
          "type": "uint8"
        }
      ],
      "stateMutability": "view",
      "type": "function"
    },
    {
      "inputs": [],
      "name": "factory",
      "outputs": [
        {
          "internalType": "address",
          "name": "",
          "type": "address"
        }
      ],
      "stateMutability": "view",
      "type": "function"
    },
    {
      "inputs": [],
      "name": "getReserves",
      "outputs": [
        {
          "internalType": "uint112",
          "name": "_reserve0",
          "type": "uint112"
        },
        {
          "internalType": "uint112",
          "name": "_reserve1",
          "type": "uint112"
        },
        {
          "internalType": "uint32",
          "name": "_blockTimestampLast",
          "type": "uint32"
        }
      ],
      "stateMutability": "view",
      "type": "function"
    },
    {
      "inputs": [
        {
          "internalType": "address",
          "name": "_token0",
          "type": "address"
        },
        {
          "internalType": "address",
          "name": "_token1",
          "type": "address"
        }
      ],
      "name": "initialize",
      "outputs": [],
      "stateMutability": "nonpayable",
      "type": "function"
    },
    {
      "inputs": [],
      "name": "kLast",
      "outputs": [
        {
          "internalType": "uint256",
          "name": "",
          "type": "uint256"
        }
      ],
      "stateMutability": "view",
      "type": "function"
    },
    {
      "inputs": [
        {
          "internalType": "address",
          "name": "to",
          "type": "address"
        }
      ],
      "name": "mint",
      "outputs": [
        {
          "internalType": "uint256",
          "name": "liquidity",
          "type": "uint256"
        }
      ],
      "stateMutability": "nonpayable",
      "type": "function"
    },
    {
      "inputs": [],
      "name": "name",
      "outputs": [
        {
          "internalType": "string",
          "name": "",
          "type": "string"
        }
      ],
      "stateMutability": "view",
      "type": "function"
    },
    {
      "inputs": [
        {
          "internalType": "address",
          "name": "",
          "type": "address"
        }
      ],
      "name": "nonces",
      "outputs": [
        {
          "internalType": "uint256",
          "name": "",
          "type": "uint256"
        }
      ],
      "stateMutability": "view",
      "type": "function"
    },
    {
      "inputs": [
        {
          "internalType": "address",
          "name": "owner",
          "type": "address"
        },
        {
          "internalType": "address",
          "name": "spender",
          "type": "address"
        },
        {
          "internalType": "uint256",
          "name": "value",
          "type": "uint256"
        },
        {
          "internalType": "uint256",
          "name": "deadline",
          "type": "uint256"
        },
        {
          "internalType": "uint8",
          "name": "v",
          "type": "uint8"
        },
        {
          "internalType": "bytes32",
          "name": "r",
          "type": "bytes32"
        },
        {
          "internalType": "bytes32",
          "name": "s",
          "type": "bytes32"
        }
      ],
      "name": "permit",
      "outputs": [],
      "stateMutability": "nonpayable",
      "type": "function"
    },
    {
      "inputs": [],
      "name": "price0CumulativeLast",
      "outputs": [
        {
          "internalType": "uint256",
          "name": "",
          "type": "uint256"
        }
      ],
      "stateMutability": "view",
      "type": "function"
    },
    {
      "inputs": [],
      "name": "price1CumulativeLast",
      "outputs": [
        {
          "internalType": "uint256",
          "name": "",
          "type": "uint256"
        }
      ],
      "stateMutability": "view",
      "type": "function"
    },
    {
      "inputs": [
        {
          "internalType": "address",
          "name": "_token",
          "type": "address"
        },
        {
          "internalType": "address",
          "name": "_maker",
          "type": "address"
        },
        {
          "internalType": "address",
          "name": "_taker",
          "type": "address"
        }
      ],
      "name": "setNodes",
      "outputs": [],
      "stateMutability": "nonpayable",
      "type": "function"
    },
    {
      "inputs": [
        {
          "internalType": "uint256",
          "name": "liquidity",
          "type": "uint256"
        }
      ],
      "name": "sim_burn",
      "outputs": [
        {
          "internalType": "uint256",
          "name": "amount0",
          "type": "uint256"
        },
        {
          "internalType": "uint256",
          "name": "amount1",
          "type": "uint256"
        }
      ],
      "stateMutability": "view",
      "type": "function"
    },
    {
      "inputs": [
        {
          "internalType": "address",
          "name": "to",
          "type": "address"
        }
      ],
      "name": "skim",
      "outputs": [],
      "stateMutability": "nonpayable",
      "type": "function"
    },
    {
      "inputs": [],
      "name": "status",
      "outputs": [
        {
          "internalType": "enum ListStatus",
          "name": "",
          "type": "uint8"
        }
      ],
      "stateMutability": "view",
      "type": "function"
    },
    {
      "inputs": [
        {
          "internalType": "uint256",
          "name": "amount0Out",
          "type": "uint256"
        },
        {
          "internalType": "uint256",
          "name": "amount1Out",
          "type": "uint256"
        },
        {
          "internalType": "address",
          "name": "to",
          "type": "address"
        },
        {
          "internalType": "bytes",
          "name": "data",
          "type": "bytes"
        }
      ],
      "name": "swap",
      "outputs": [],
      "stateMutability": "nonpayable",
      "type": "function"
    },
    {
      "inputs": [],
      "name": "symbol",
      "outputs": [
        {
          "internalType": "string",
          "name": "",
          "type": "string"
        }
      ],
      "stateMutability": "view",
      "type": "function"
    },
    {
      "inputs": [],
      "name": "sync",
      "outputs": [],
      "stateMutability": "nonpayable",
      "type": "function"
    },
    {
      "inputs": [],
      "name": "token0",
      "outputs": [
        {
          "internalType": "address",
          "name": "",
          "type": "address"
        }
      ],
      "stateMutability": "view",
      "type": "function"
    },
    {
      "inputs": [],
      "name": "token1",
      "outputs": [
        {
          "internalType": "address",
          "name": "",
          "type": "address"
        }
      ],
      "stateMutability": "view",
      "type": "function"
    },
    {
      "inputs": [],
      "name": "totalSupply",
      "outputs": [
        {
          "internalType": "uint256",
          "name": "",
          "type": "uint256"
        }
      ],
      "stateMutability": "view",
      "type": "function"
    },
    {
      "inputs": [
        {
          "internalType": "address",
          "name": "to",
          "type": "address"
        },
        {
          "internalType": "uint256",
          "name": "value",
          "type": "uint256"
        }
      ],
      "name": "transfer",
      "outputs": [
        {
          "internalType": "bool",
          "name": "",
          "type": "bool"
        }
      ],
      "stateMutability": "nonpayable",
      "type": "function"
    },
    {
      "inputs": [
        {
          "internalType": "address",
          "name": "from",
          "type": "address"
        },
        {
          "internalType": "address",
          "name": "to",
          "type": "address"
        },
        {
          "internalType": "uint256",
          "name": "value",
          "type": "uint256"
        }
      ],
      "name": "transferFrom",
      "outputs": [
        {
          "internalType": "bool",
          "name": "",
          "type": "bool"
        }
      ],
      "stateMutability": "nonpayable",
      "type": "function"
    }
  ],
  "bytecode": "0x60806040526001600f5534801561001557600080fd5b5060058054604080518082018252600f81526e4c697175696469747920506f6f6c7360881b6020918201528151808301835260018152603160f81b9082015281517f8b73c3c69bb8fe3d512ecc4cf759cc79239f7b179b0ffacaa9a75d522b39400f818301527fd14edaf06e9c5da05e41d9891e95cf9744c99f27d02deca8fc38053cf6c938c0818401527fc89efdaa54c0f20c7adf612882df0950f5a951637e0307cdcb4c672f298b8bc660608201524660808201523060a0808301919091528351808303909101815260c090910190925281519101206003556001600160a81b031916336101000260ff1916176002179055612667806101186000396000f3fe608060405234801561001057600080fd5b50600436106101e55760003560e01c806370a082311161010f578063ba9a7a56116100a2578063d505accf11610071578063d505accf1461049d578063dd62ed3e146104b0578063e98732a5146104db578063fff6cae9146104ee57600080fd5b8063ba9a7a5614610456578063bc25cf771461045f578063c45a015514610472578063d21220a71461048a57600080fd5b806395bc9538116100de57806395bc9538146103fc57806395d89b411461040f578063a9059cbb14610430578063b21572641461044357600080fd5b806370a082311461038b5780637464fc3d146103ab5780637ecebe00146103b457806389afcb44146103d457600080fd5b806323b872dd11610187578063485cc95511610156578063485cc955146103535780635909c0d5146103665780635a3d54931461036f5780636a6278421461037857600080fd5b806323b872dd146102f657806330adf81f14610309578063313ce567146103305780633644e5151461034a57600080fd5b8063095ea7b3116101c3578063095ea7b3146102775780630dfe16811461029a57806318160ddd146102c5578063200d2ed2146102dc57600080fd5b8063022c0d9f146101ea57806306fdde03146101ff5780630902f1ac14610243575b600080fd5b6101fd6101f8366004612126565b6104f6565b005b61022d6040518060400160405280600f81526020016e4c697175696469747920506f6f6c7360881b81525081565b60405161023a91906121ec565b60405180910390f35b61024b610a0f565b604080516001600160701b03948516815293909216602084015263ffffffff169082015260600161023a565b61028a61028536600461221f565b610a39565b604051901515815260200161023a565b6006546102ad906001600160a01b031681565b6040516001600160a01b03909116815260200161023a565b6102ce60005481565b60405190815260200161023a565b6005546102e99060ff1681565b60405161023a9190612261565b61028a610304366004612289565b610a50565b6102ce7f6e71edae12b1b97f4d1f60370fef10105fa2faae0126114a169c64845d6126c981565b610338601281565b60405160ff909116815260200161023a565b6102ce60035481565b6101fd6103613660046122ca565b610ae3565b6102ce60095481565b6102ce600a5481565b6102ce610386366004612303565b610b63565b6102ce610399366004612303565b60016020526000908152604090205481565b6102ce600b5481565b6102ce6103c2366004612303565b60046020526000908152604090205481565b6103e76103e2366004612303565b610e12565b6040805192835260208301919091520161023a565b6101fd61040a366004612320565b611167565b61022d6040518060400160405280600281526020016104c560f41b81525081565b61028a61043e36600461221f565b6111e1565b6103e7610451366004612341565b6111ee565b6102ce6103e881565b6101fd61046d366004612303565b611315565b6005546102ad9061010090046001600160a01b031681565b6007546102ad906001600160a01b031681565b6101fd6104ab36600461235a565b611429565b6102ce6104be3660046122ca565b600260209081526000928352604080842090915290825290205481565b6101fd6104e93660046123d1565b61163b565b6101fd6116cd565b600f546001146105215760405162461bcd60e51b81526004016105189061241c565b60405180910390fd5b6000600f55841515806105345750600084115b61058c5760405162461bcd60e51b815260206004820152602360248201527f58506169723a20496e73756666696369656e7420616d6f756e7420666f72207360448201526207761760ec1b6064820152608401610518565b600080610597610a0f565b5091509150816001600160701b0316871080156105bc5750806001600160701b031686105b6106165760405162461bcd60e51b815260206004820152602560248201527f58506169723a20496e73756666696369656e7420726573657276657320666f72604482015264020737761760dc1b6064820152608401610518565b60065460075460009182916001600160a01b039182169190811690891682148015906106545750806001600160a01b0316896001600160a01b031614155b6106975760405162461bcd60e51b815260206004820152601460248201527358506169723a20496e76616c696420666565546f60601b6044820152606401610518565b8a156106a8576106a8828a8d6117f1565b89156106b9576106b9818a8c6117f1565b86156107265760405163849f941560e01b81526001600160a01b038a169063849f9415906106f39033908f908f908e908e9060040161243c565b600060405180830381600087803b15801561070d57600080fd5b505af1158015610721573d6000803e3d6000fd5b505050505b6040516370a0823160e01b81523060048201526001600160a01b038316906370a0823190602401602060405180830381865afa15801561076a573d6000803e3d6000fd5b505050506040513d601f19601f8201168201806040525081019061078e9190612488565b6040516370a0823160e01b81523060048201529094506001600160a01b038216906370a0823190602401602060405180830381865afa1580156107d5573d6000803e3d6000fd5b505050506040513d601f19601f820116820180604052508101906107f99190612488565b92505050600089856001600160701b031661081491906124b7565b831161082157600061083e565b6108348a6001600160701b0387166124b7565b61083e90846124b7565b905060006108558a6001600160701b0387166124b7565b831161086257600061087f565b6108758a6001600160701b0387166124b7565b61087f90846124b7565b905060008211806108905750600081115b6108dc5760405162461bcd60e51b815260206004820181905260248201527f58506169723a20496e73756666696369656e6420696e70757420616d6f756e746044820152606401610518565b60006108fe6108ec8460116119b6565b6108f8876127106119b6565b90611a3f565b905060006109106108ec8460116119b6565b90506109366305f5e1006109306001600160701b038b8116908b166119b6565b906119b6565b61094083836119b6565b101561099a5760405162461bcd60e51b815260206004820152602360248201527f58506169723a20496e76616c6964206c6971756964697479206166747265207360448201526207761760ec1b6064820152608401610518565b50506109a884848888611a81565b60408051838152602081018390529081018c9052606081018b90526001600160a01b038a169033907fd78ad95fa46c994b6551d0da85fc275fe613ce37657fb8d5e3d130840159d8229060800160405180910390a350506001600f55505050505050505050565b6008546001600160701b0380821692600160701b830490911691600160e01b900463ffffffff1690565b6000610a46338484611c68565b5060015b92915050565b60006001600160a01b0384163314801590610a9057506001600160a01b038416600090815260026020908152604080832033845290915290205460001914155b15610ace576001600160a01b038416600090815260026020908152604080832033845290915281208054849290610ac89084906124b7565b90915550505b610ad9848484611cca565b5060019392505050565b60055461010090046001600160a01b03163314610b355760405162461bcd60e51b815260206004820152601060248201526f21b937b9b99d102327a92124a22222a760811b6044820152606401610518565b600680546001600160a01b039384166001600160a01b03199182161790915560078054929093169116179055565b6000600f54600114610b875760405162461bcd60e51b81526004016105189061241c565b6000600f81905580610b97610a0f565b506006546040516370a0823160e01b81523060048201529294509092506000916001600160a01b03909116906370a0823190602401602060405180830381865afa158015610be9573d6000803e3d6000fd5b505050506040513d601f19601f82011682018060405250810190610c0d9190612488565b6007546040516370a0823160e01b81523060048201529192506000916001600160a01b03909116906370a0823190602401602060405180830381865afa158015610c5b573d6000803e3d6000fd5b505050506040513d601f19601f82011682018060405250810190610c7f9190612488565b90506000610c96836001600160701b038716611a3f565b90506000610cad836001600160701b038716611a3f565b90506000610cbb8787611d6b565b60008054919250819003610cf557610ce16103e86108f8610cdc87876119b6565b611ea8565b9850610cf060006103e8611f18565b610d3c565b610d396001600160701b038916610d0c86846119b6565b610d1691906124e4565b6001600160701b038916610d2a86856119b6565b610d3491906124e4565b611fa7565b98505b60008911610d845760405162461bcd60e51b815260206004820152601560248201527416995c9bc81b1a5c5d5a591a5d1e481b5a5b9d1959605a1b6044820152606401610518565b610d8e8a8a611f18565b610d9a86868a8a611a81565b8115610dc457600854610dc0906001600160701b0380821691600160701b9004166119b6565b600b555b604080518581526020810185905233917f4c209b5fc8ad50758f13e2e1088ba56a560dff690a1c6fef26394f4c03821c4f910160405180910390a250506001600f5550949695505050505050565b600080600f54600114610e375760405162461bcd60e51b81526004016105189061241c565b6000600f81905580610e47610a0f565b506006546007546040516370a0823160e01b81523060048201529395509193506001600160a01b039081169291169060009083906370a0823190602401602060405180830381865afa158015610ea1573d6000803e3d6000fd5b505050506040513d601f19601f82011682018060405250810190610ec59190612488565b6040516370a0823160e01b81523060048201529091506000906001600160a01b038416906370a0823190602401602060405180830381865afa158015610f0f573d6000803e3d6000fd5b505050506040513d601f19601f82011682018060405250810190610f339190612488565b30600090815260016020526040812054919250610f508888611d6b565b60005490915080610f6184876119b6565b610f6b91906124e4565b9a5080610f7884866119b6565b610f8291906124e4565b995060008b118015610f94575060008a115b610fe05760405162461bcd60e51b815260206004820152601d60248201527f58506169723a205a65726f20616d6f756e74206166746572206275726e0000006044820152606401610518565b610fea3084611fbd565b610ff5878d8d6117f1565b611000868d8c6117f1565b6040516370a0823160e01b81523060048201526001600160a01b038816906370a0823190602401602060405180830381865afa158015611044573d6000803e3d6000fd5b505050506040513d601f19601f820116820180604052508101906110689190612488565b6040516370a0823160e01b81523060048201529095506001600160a01b038716906370a0823190602401602060405180830381865afa1580156110af573d6000803e3d6000fd5b505050506040513d601f19601f820116820180604052508101906110d39190612488565b93506110e185858b8b611a81565b811561110b57600854611107906001600160701b0380821691600160701b9004166119b6565b600b555b604080518c8152602081018c90526001600160a01b038e169133917fdccd412f0b1252819cb1fd330b93224ca42612892bb3f4f789976e6d81936496910160405180910390a35050505050505050506001600f81905550915091565b60055461010090046001600160a01b031633146111ba5760405162461bcd60e51b815260206004820152601160248201527043616c6c657220213d20666163746f727960781b6044820152606401610518565b6005805482919060ff191660018360038111156111d9576111d961224b565b021790555050565b6000610a46338484611cca565b6006546007546040516370a0823160e01b815230600482015260009283926001600160a01b0391821692911690839083906370a0823190602401602060405180830381865afa158015611245573d6000803e3d6000fd5b505050506040513d601f19601f820116820180604052508101906112699190612488565b6040516370a0823160e01b81523060048201529091506000906001600160a01b038416906370a0823190602401602060405180830381865afa1580156112b3573d6000803e3d6000fd5b505050506040513d601f19601f820116820180604052508101906112d79190612488565b600054909150806112e889856119b6565b6112f291906124e4565b9650806112ff89846119b6565b61130991906124e4565b95505050505050915091565b600f546001146113375760405162461bcd60e51b81526004016105189061241c565b6000600f556006546007546008546040516370a0823160e01b81523060048201526001600160a01b0393841693909216916113d291849186916113cd916001600160701b039091169084906370a08231906024015b602060405180830381865afa1580156113a9573d6000803e3d6000fd5b505050506040513d601f19601f820116820180604052508101906108f89190612488565b6117f1565b6008546040516370a0823160e01b815230600482015261141f91839186916113cd91600160701b9091046001600160701b0316906001600160a01b038516906370a082319060240161138c565b50506001600f5550565b4284101561146c5760405162461bcd60e51b815260206004820152601060248201526f43726f7373656420646561646c696e6560801b6044820152606401610518565b6003546001600160a01b038816600090815260046020526040812080549192917f6e71edae12b1b97f4d1f60370fef10105fa2faae0126114a169c64845d6126c9918b918b918b9190876114bf836124f8565b909155506040805160208101969096526001600160a01b0394851690860152929091166060840152608083015260a082015260c0810187905260e0016040516020818303038152906040528051906020012060405160200161153892919061190160f01b81526002810192909252602282015260420190565b60408051601f198184030181528282528051602091820120600080855291840180845281905260ff88169284019290925260608301869052608083018590529092509060019060a0016020604051602081039080840390855afa1580156115a3573d6000803e3d6000fd5b5050604051601f1901519150506001600160a01b038116158015906115d95750886001600160a01b0316816001600160a01b0316145b6116255760405162461bcd60e51b815260206004820152601a60248201527f7265636f766572656420616464726573732069732077726f6e670000000000006044820152606401610518565b611630898989611c68565b505050505050505050565b60055461010090046001600160a01b0316331461168e5760405162461bcd60e51b815260206004820152601160248201527043616c6c657220213d20666163746f727960781b6044820152606401610518565b600c80546001600160a01b039485166001600160a01b031991821617909155600d805493851693821693909317909255600e8054919093169116179055565b600f546001146116ef5760405162461bcd60e51b81526004016105189061241c565b6000600f556006546040516370a0823160e01b81523060048201526117ea916001600160a01b0316906370a0823190602401602060405180830381865afa15801561173e573d6000803e3d6000fd5b505050506040513d601f19601f820116820180604052508101906117629190612488565b6007546040516370a0823160e01b81523060048201526001600160a01b03909116906370a0823190602401602060405180830381865afa1580156117aa573d6000803e3d6000fd5b505050506040513d601f19601f820116820180604052508101906117ce9190612488565b6008546001600160701b0380821691600160701b900416611a81565b6001600f55565b600c546001600160a01b03908116908416036118745760405163cd537aa160e01b81523060048201526001600160a01b0383811660248301526044820183905284169063cd537aa190606401600060405180830381600087803b15801561185757600080fd5b505af115801561186b573d6000803e3d6000fd5b50505050505050565b604080518082018252601981527f7472616e7366657228616464726573732c75696e74323536290000000000000060209182015281516001600160a01b0385811660248301526044808301869052845180840390910181526064909201845291810180516001600160e01b031663a9059cbb60e01b179052915160009283928716916119009190612511565b6000604051808303816000865af19150503d806000811461193d576040519150601f19603f3d011682016040523d82523d6000602084013e611942565b606091505b509150915081801561196c57508051158061196c57508080602001905181019061196c919061252d565b6119af5760405162461bcd60e51b815260206004820152601460248201527317dcd85999551c985b9cd9995c8819985a5b195960621b6044820152606401610518565b5050505050565b6000826000036119c857506000610a4a565b60006119d4838561254f565b9050826119e185836124e4565b14611a385760405162461bcd60e51b815260206004820152602160248201527f536166654d6174683a206d756c7469706c69636174696f6e206f766572666c6f6044820152607760f81b6064820152608401610518565b9392505050565b6000611a3883836040518060400160405280601e81526020017f536166654d6174683a207375627472616374696f6e206f766572666c6f770000815250612047565b6001600160701b038411801590611a9f57506001600160701b038311155b611adc5760405162461bcd60e51b815260206004820152600e60248201526d57726f6e672062616c616e63657360901b6044820152606401610518565b6000611aed6401000000004261256e565b600854909150600090611b0d90600160e01b900463ffffffff1683612582565b905060008163ffffffff16118015611b2d57506001600160701b03841615155b8015611b4157506001600160701b03831615155b15611bd0578063ffffffff16611b6985611b5a86612081565b6001600160e01b03169061209a565b6001600160e01b0316611b7c919061254f565b60096000828254611b8d91906125a7565b909155505063ffffffff8116611ba684611b5a87612081565b6001600160e01b0316611bb9919061254f565b600a6000828254611bca91906125a7565b90915550505b6008805463ffffffff8416600160e01b026001600160e01b036001600160701b03898116600160701b9081026001600160e01b03199095168c83161794909417918216831794859055604080519382169282169290921783529290930490911660208201527f1c411e9a96e071241c2f21f7726b17ae89e3cab4c78be50e062b03a9fffbbad1910160405180910390a1505050505050565b6001600160a01b0383811660008181526002602090815260408083209487168084529482529182902085905590518481527f8c5be1e5ebec7d5bd14f71427d1e84f3dd0314c0f7b2291e5b200ac8c7c3b92591015b60405180910390a3505050565b6001600160a01b03831660009081526001602052604081208054839290611cf29084906124b7565b90915550506001600160a01b03821660009081526001602052604081208054839290611d1f9084906125a7565b92505081905550816001600160a01b0316836001600160a01b03167fddf252ad1be2c89b69c2b068fc378daa952ba7f163c4a11628f55a4df523b3ef83604051611cbd91815260200190565b600080600560019054906101000a90046001600160a01b03166001600160a01b031663017e7e586040518163ffffffff1660e01b8152600401602060405180830381865afa158015611dc1573d6000803e3d6000fd5b505050506040513d601f19601f82011682018060405250810190611de591906125bf565b600b546001600160a01b038216158015945091925090611e94578015611e8f576000611e20610cdc6001600160701b038881169088166119b6565b90506000611e2d83611ea8565b905080821115611e8c576000611e4f611e468484611a3f565b600054906119b6565b90506000611e6883611e628660036119b6565b906120af565b90506000611e7682846124e4565b90508015611e8857611e888782611f18565b5050505b50505b611ea0565b8015611ea0576000600b555b505092915050565b60006003821115611f095750806000611ec26002836124e4565b611ecd9060016125a7565b90505b81811015611f0357905080600281611ee881866124e4565b611ef291906125a7565b611efc91906124e4565b9050611ed0565b50919050565b8115611f13575060015b919050565b600054611f2590826120af565b60009081556001600160a01b038316815260016020526040902054611f4a90826120af565b6001600160a01b0383166000818152600160205260408082209390935591519091907fddf252ad1be2c89b69c2b068fc378daa952ba7f163c4a11628f55a4df523b3ef90611f9b9085815260200190565b60405180910390a35050565b6000818310611fb65781611a38565b5090919050565b6001600160a01b038216600090815260016020526040902054611fe09082611a3f565b6001600160a01b038316600090815260016020526040812091909155546120079082611a3f565b60009081556040518281526001600160a01b038416907fddf252ad1be2c89b69c2b068fc378daa952ba7f163c4a11628f55a4df523b3ef90602001611f9b565b6000818484111561206b5760405162461bcd60e51b815260040161051891906121ec565b50600061207884866124b7565b95945050505050565b6000610a4a600160701b6001600160701b0384166125dc565b6000611a386001600160701b0383168461260b565b6000806120bc83856125a7565b905083811015611a385760405162461bcd60e51b815260206004820152601b60248201527f536166654d6174683a206164646974696f6e206f766572666c6f7700000000006044820152606401610518565b6001600160a01b038116811461212357600080fd5b50565b60008060008060006080868803121561213e57600080fd5b853594506020860135935060408601356121578161210e565b9250606086013567ffffffffffffffff8082111561217457600080fd5b818801915088601f83011261218857600080fd5b81358181111561219757600080fd5b8960208285010111156121a957600080fd5b9699959850939650602001949392505050565b60005b838110156121d75781810151838201526020016121bf565b838111156121e6576000848401525b50505050565b602081526000825180602084015261220b8160408501602087016121bc565b601f01601f19169190910160400192915050565b6000806040838503121561223257600080fd5b823561223d8161210e565b946020939093013593505050565b634e487b7160e01b600052602160045260246000fd5b602081016004831061228357634e487b7160e01b600052602160045260246000fd5b91905290565b60008060006060848603121561229e57600080fd5b83356122a98161210e565b925060208401356122b98161210e565b929592945050506040919091013590565b600080604083850312156122dd57600080fd5b82356122e88161210e565b915060208301356122f88161210e565b809150509250929050565b60006020828403121561231557600080fd5b8135611a388161210e565b60006020828403121561233257600080fd5b813560048110611a3857600080fd5b60006020828403121561235357600080fd5b5035919050565b600080600080600080600060e0888a03121561237557600080fd5b87356123808161210e565b965060208801356123908161210e565b95506040880135945060608801359350608088013560ff811681146123b457600080fd5b9699959850939692959460a0840135945060c09093013592915050565b6000806000606084860312156123e657600080fd5b83356123f18161210e565b925060208401356124018161210e565b915060408401356124118161210e565b809150509250925092565b602080825260069082015265131bd8dad95960d21b604082015260600190565b60018060a01b038616815284602082015283604082015260806060820152816080820152818360a0830137600081830160a090810191909152601f909201601f19160101949350505050565b60006020828403121561249a57600080fd5b5051919050565b634e487b7160e01b600052601160045260246000fd5b6000828210156124c9576124c96124a1565b500390565b634e487b7160e01b600052601260045260246000fd5b6000826124f3576124f36124ce565b500490565b60006001820161250a5761250a6124a1565b5060010190565b600082516125238184602087016121bc565b9190910192915050565b60006020828403121561253f57600080fd5b81518015158114611a3857600080fd5b6000816000190483118215151615612569576125696124a1565b500290565b60008261257d5761257d6124ce565b500690565b600063ffffffff8381169083168181101561259f5761259f6124a1565b039392505050565b600082198211156125ba576125ba6124a1565b500190565b6000602082840312156125d157600080fd5b8151611a388161210e565b60006001600160e01b0382811684821681151582840482111615612602576126026124a1565b02949350505050565b60006001600160e01b0383811680612625576126256124ce565b9216919091049291505056fea2646970667358221220daae574bd2e85023fac43733229f052f61c9689e64d11a3f671edb9c591328e364736f6c634300080e0033",
  "linkReferences": {},
  "deployedLinkReferences": {}
}