{
  "_format": "hh-sol-artifact-1",
  "contractName": "WireLibrary",
  "sourceName": "contracts/libraries/WireLibrary.sol",
  "abi": [
    {
      "inputs": [
        {
          "internalType": "address",
          "name": "tokenA",
          "type": "address"
        },
        {
          "internalType": "address",
          "name": "tokenB",
          "type": "address"
        },
        {
          "internalType": "address",
          "name": "_tokenA",
          "type": "address"
        },
        {
          "internalType": "address",
          "name": "_tokenB",
          "type": "address"
        }
      ],
      "name": "isSamePair",
      "outputs": [
        {
          "internalType": "bool",
          "name": "",
          "type": "bool"
        }
      ],
      "stateMutability": "pure",
      "type": "function"
    }
  ],
  "bytecode": "0x6109bf61003a600b82828239805160001a60731461002d57634e487b7160e01b600052600060045260246000fd5b30600052607381538281f3fe73000000000000000000000000000000000000000030146080604052600436106100615760003560e01c806310b63322146100665780634f18125b146100885780637b1aa96e146100a85780637fcb3b76146100c8578063ccdee5f5146100ef575b600080fd5b81801561007257600080fd5b50610086610081366004610672565b610102565b005b81801561009457600080fd5b506100866100a33660046106eb565b610416565b8180156100b457600080fd5b506100866100c3366004610758565b61051a565b6100db6100d63660046107a4565b61057d565b604051901515815260200160405180910390f35b6100db6100fd3660046107f8565b6105f2565b6001600160a01b03821661014c5760405162461bcd60e51b815260206004820152600c60248201526b7a65726f206164647265737360a01b60448201526064015b60405180910390fd5b600083600481111561016057610160610811565b036101d557805460408051808201909152601081526f139bd91948185b1c9958591e481cd95d60821b6020820152906001600160a01b0316156101b65760405162461bcd60e51b81526004016101439190610827565b5080546001600160a01b0319166001600160a01b038316178155505050565b60018360048111156101e9576101e9610811565b0361026557600181015460408051808201909152601081526f139bd91948185b1c9958591e481cd95d60821b6020820152906001600160a01b0316156102425760405162461bcd60e51b81526004016101439190610827565b506001810180546001600160a01b0319166001600160a01b038416179055505050565b600283600481111561027957610279610811565b036102f557600281015460408051808201909152601081526f139bd91948185b1c9958591e481cd95d60821b6020820152906001600160a01b0316156102d25760405162461bcd60e51b81526004016101439190610827565b506002810180546001600160a01b0319166001600160a01b038416179055505050565b600383600481111561030957610309610811565b0361038557600381015460408051808201909152601081526f139bd91948185b1c9958591e481cd95d60821b6020820152906001600160a01b0316156103625760405162461bcd60e51b81526004016101439190610827565b506003810180546001600160a01b0319166001600160a01b038416179055505050565b600483600481111561039957610399610811565b0361041157600481015460408051808201909152601081526f139bd91948185b1c9958591e481cd95d60821b6020820152906001600160a01b0316156103f25760405162461bcd60e51b81526004016101439190610827565b506004810180546001600160a01b0319166001600160a01b0384161790555b505050565b600683600581111561042a5761042a610811565b1061046a5760405162461bcd60e51b815260206004820152601060248201526f57726f6e6720416374696f6e5479706560801b6044820152606401610143565b6104766005600a610976565b815163ffffffff1611156104c55760405162461bcd60e51b8152602060048201526016602482015275119959481c985d195cc8195e18d95959081b1a5b5a5d60521b6044820152606401610143565b80518260008560058111156104dc576104dc610811565b60058111156104ed576104ed610811565b81526020810191909152604001600020805463ffffffff191663ffffffff92909216919091179055505050565b80516001600160a01b03166105605760405162461bcd60e51b815260206004820152600c60248201526b5a65726f206164647265737360a01b6044820152606401610143565b5181546001600160a01b0319166001600160a01b03909116179055565b6000826001600160a01b0316856001600160a01b03161480156105b15750816001600160a01b0316846001600160a01b0316145b806105e95750816001600160a01b0316856001600160a01b03161480156105e95750826001600160a01b0316846001600160a01b0316145b95945050505050565b60003315801590610650575081546001600160a01b0316331480610622575060028201546001600160a01b031633145b80610639575060038201546001600160a01b031633145b80610650575060048201546001600160a01b031633145b92915050565b80356001600160a01b038116811461066d57600080fd5b919050565b60008060006060848603121561068757600080fd5b83356005811061069657600080fd5b92506106a460208501610656565b9150604084013590509250925092565b6040516020810167ffffffffffffffff811182821017156106e557634e487b7160e01b600052604160045260246000fd5b60405290565b6000806000838503606081121561070157600080fd5b84356006811061071057600080fd5b93506020858101359350603f198201121561072a57600080fd5b506107336106b4565b604085013563ffffffff8116811461074a57600080fd5b815292959194509192509050565b600080828403604081121561076c57600080fd5b833592506020601f198201121561078257600080fd5b5061078b6106b4565b61079760208501610656565b8152809150509250929050565b600080600080608085870312156107ba57600080fd5b6107c385610656565b93506107d160208601610656565b92506107df60408601610656565b91506107ed60608601610656565b905092959194509250565b60006020828403121561080a57600080fd5b5035919050565b634e487b7160e01b600052602160045260246000fd5b600060208083528351808285015260005b8181101561085457858101830151858201604001528201610838565b81811115610866576000604083870101525b50601f01601f1916929092016040019392505050565b634e487b7160e01b600052601160045260246000fd5b600181815b808511156108cd5781600019048211156108b3576108b361087c565b808516156108c057918102915b93841c9390800290610897565b509250929050565b6000826108e457506001610650565b816108f157506000610650565b816001811461090757600281146109115761092d565b6001915050610650565b60ff8411156109225761092261087c565b50506001821b610650565b5060208310610133831016604e8410600b8410161715610950575081810a610650565b61095a8383610892565b806000190482111561096e5761096e61087c565b029392505050565b600061098283836108d5565b939250505056fea264697066735822122053df647254e55ff4bf12eb5ff342e1ab9492d6e685e774c9b0912dfee375651564736f6c634300080e0033",
  "linkReferences": {},
  "deployedLinkReferences": {}
}