{
  "_format": "hh-sol-artifact-1",
  "contractName": "WireLibrary",
  "sourceName": "contracts/libraries/WireLibrary.sol",
  "abi": [
    {
      "inputs": [
        {
          "internalType": "address",
          "name": "tokenA",
          "type": "address"
        },
        {
          "internalType": "address",
          "name": "tokenB",
          "type": "address"
        },
        {
          "internalType": "address",
          "name": "_tokenA",
          "type": "address"
        },
        {
          "internalType": "address",
          "name": "_tokenB",
          "type": "address"
        }
      ],
      "name": "isSamePair",
      "outputs": [
        {
          "internalType": "bool",
          "name": "",
          "type": "bool"
        }
      ],
      "stateMutability": "pure",
      "type": "function"
    }
  ],
  "bytecode": "0x61085761003a600b82828239805160001a60731461002d57634e487b7160e01b600052600060045260246000fd5b30600052607381538281f3fe73000000000000000000000000000000000000000030146080604052600436106100615760003560e01c806310b63322146100665780634f18125b146100885780637b1aa96e146100a85780637fcb3b76146100c8578063ccdee5f5146100ef575b600080fd5b81801561007257600080fd5b50610086610081366004610617565b610102565b005b81801561009457600080fd5b506100866100a3366004610690565b610416565b8180156100b457600080fd5b506100866100c33660046106fd565b6104bf565b6100db6100d6366004610749565b610522565b604051901515815260200160405180910390f35b6100db6100fd36600461079d565b610597565b6001600160a01b03821661014c5760405162461bcd60e51b815260206004820152600c60248201526b7a65726f206164647265737360a01b60448201526064015b60405180910390fd5b6000836004811115610160576101606107b6565b036101d557805460408051808201909152601081526f139bd91948185b1c9958591e481cd95d60821b6020820152906001600160a01b0316156101b65760405162461bcd60e51b815260040161014391906107cc565b5080546001600160a01b0319166001600160a01b038316178155505050565b60018360048111156101e9576101e96107b6565b0361026557600181015460408051808201909152601081526f139bd91948185b1c9958591e481cd95d60821b6020820152906001600160a01b0316156102425760405162461bcd60e51b815260040161014391906107cc565b506001810180546001600160a01b0319166001600160a01b038416179055505050565b6002836004811115610279576102796107b6565b036102f557600281015460408051808201909152601081526f139bd91948185b1c9958591e481cd95d60821b6020820152906001600160a01b0316156102d25760405162461bcd60e51b815260040161014391906107cc565b506002810180546001600160a01b0319166001600160a01b038416179055505050565b6003836004811115610309576103096107b6565b0361038557600381015460408051808201909152601081526f139bd91948185b1c9958591e481cd95d60821b6020820152906001600160a01b0316156103625760405162461bcd60e51b815260040161014391906107cc565b506003810180546001600160a01b0319166001600160a01b038416179055505050565b6004836004811115610399576103996107b6565b0361041157600481015460408051808201909152601081526f139bd91948185b1c9958591e481cd95d60821b6020820152906001600160a01b0316156103f25760405162461bcd60e51b815260040161014391906107cc565b506004810180546001600160a01b0319166001600160a01b0384161790555b505050565b600683600581111561042a5761042a6107b6565b1061046a5760405162461bcd60e51b815260206004820152601060248201526f57726f6e6720416374696f6e5479706560801b6044820152606401610143565b8051826000856005811115610481576104816107b6565b6005811115610492576104926107b6565b81526020810191909152604001600020805463ffffffff191663ffffffff92909216919091179055505050565b80516001600160a01b03166105055760405162461bcd60e51b815260206004820152600c60248201526b5a65726f206164647265737360a01b6044820152606401610143565b5181546001600160a01b0319166001600160a01b03909116179055565b6000826001600160a01b0316856001600160a01b03161480156105565750816001600160a01b0316846001600160a01b0316145b8061058e5750816001600160a01b0316856001600160a01b031614801561058e5750826001600160a01b0316846001600160a01b0316145b95945050505050565b600033158015906105f5575081546001600160a01b03163314806105c7575060028201546001600160a01b031633145b806105de575060038201546001600160a01b031633145b806105f5575060048201546001600160a01b031633145b92915050565b80356001600160a01b038116811461061257600080fd5b919050565b60008060006060848603121561062c57600080fd5b83356005811061063b57600080fd5b9250610649602085016105fb565b9150604084013590509250925092565b6040516020810167ffffffffffffffff8111828210171561068a57634e487b7160e01b600052604160045260246000fd5b60405290565b600080600083850360608112156106a657600080fd5b8435600681106106b557600080fd5b93506020858101359350603f19820112156106cf57600080fd5b506106d8610659565b604085013563ffffffff811681146106ef57600080fd5b815292959194509192509050565b600080828403604081121561071157600080fd5b833592506020601f198201121561072757600080fd5b50610730610659565b61073c602085016105fb565b8152809150509250929050565b6000806000806080858703121561075f57600080fd5b610768856105fb565b9350610776602086016105fb565b9250610784604086016105fb565b9150610792606086016105fb565b905092959194509250565b6000602082840312156107af57600080fd5b5035919050565b634e487b7160e01b600052602160045260246000fd5b600060208083528351808285015260005b818110156107f9578581018301518582016040015282016107dd565b8181111561080b576000604083870101525b50601f01601f191692909201604001939250505056fea26469706673582212203b7d38b6804a3374e71c36f53b928e169c719bfba45a28fac34867854aed474764736f6c634300080e0033",
  "linkReferences": {},
  "deployedLinkReferences": {}
}