{
  "_format": "hh-sol-artifact-1",
  "contractName": "XFactory",
  "sourceName": "contracts/core/XFactory.sol",
  "abi": [
    {
      "inputs": [],
      "stateMutability": "nonpayable",
      "type": "constructor"
    },
    {
      "anonymous": false,
      "inputs": [],
      "name": "Begin",
      "type": "event"
    },
    {
      "anonymous": false,
      "inputs": [
        {
          "indexed": false,
          "internalType": "address",
          "name": "pair",
          "type": "address"
        },
        {
          "indexed": false,
          "internalType": "address",
          "name": "tokenA",
          "type": "address"
        },
        {
          "indexed": false,
          "internalType": "address",
          "name": "tokenB",
          "type": "address"
        },
        {
          "indexed": false,
          "internalType": "enum ListStatus",
          "name": "status",
          "type": "uint8"
        }
      ],
      "name": "ChangePairStatus",
      "type": "event"
    },
    {
      "anonymous": false,
      "inputs": [
        {
          "indexed": false,
          "internalType": "address",
          "name": "token",
          "type": "address"
        },
        {
          "indexed": false,
          "internalType": "enum ListStatus",
          "name": "status",
          "type": "uint8"
        }
      ],
      "name": "ChangeTokenStatus",
      "type": "event"
    },
    {
      "anonymous": false,
      "inputs": [
        {
          "indexed": false,
          "internalType": "address",
          "name": "token",
          "type": "address"
        },
        {
          "indexed": false,
          "internalType": "address",
          "name": "msgSender",
          "type": "address"
        }
      ],
      "name": "DeenlistToken",
      "type": "event"
    },
    {
      "anonymous": false,
      "inputs": [
        {
          "indexed": true,
          "internalType": "address",
          "name": "previousOwner",
          "type": "address"
        },
        {
          "indexed": true,
          "internalType": "address",
          "name": "newOwner",
          "type": "address"
        }
      ],
      "name": "OwnershipTransferred",
      "type": "event"
    },
    {
      "anonymous": false,
      "inputs": [
        {
          "indexed": true,
          "internalType": "address",
          "name": "token0",
          "type": "address"
        },
        {
          "indexed": true,
          "internalType": "address",
          "name": "token1",
          "type": "address"
        },
        {
          "indexed": false,
          "internalType": "address",
          "name": "pair",
          "type": "address"
        }
      ],
      "name": "PairCreated",
      "type": "event"
    },
    {
      "anonymous": false,
      "inputs": [
        {
          "indexed": false,
          "internalType": "enum ActionType",
          "name": "_sessionType",
          "type": "uint8"
        },
        {
          "components": [
            {
              "internalType": "uint32",
              "name": "accountant",
              "type": "uint32"
            }
          ],
          "indexed": false,
          "internalType": "struct FeeRates",
          "name": "_feeRates",
          "type": "tuple"
        }
      ],
      "name": "SetFeeRates",
      "type": "event"
    },
    {
      "anonymous": false,
      "inputs": [
        {
          "components": [
            {
              "internalType": "address",
              "name": "accountant",
              "type": "address"
            }
          ],
          "indexed": false,
          "internalType": "struct FeeStores",
          "name": "_feeStores",
          "type": "tuple"
        }
      ],
      "name": "SetFeeStores",
      "type": "event"
    },
    {
      "anonymous": false,
      "inputs": [
        {
          "indexed": false,
          "internalType": "enum NodeType",
          "name": "nodeType",
          "type": "uint8"
        },
        {
          "indexed": false,
          "internalType": "address",
          "name": "node",
          "type": "address"
        }
      ],
      "name": "SetNode",
      "type": "event"
    },
    {
      "inputs": [],
      "name": "INIT_CODE_PAIR_HASH",
      "outputs": [
        {
          "internalType": "bytes32",
          "name": "",
          "type": "bytes32"
        }
      ],
      "stateMutability": "view",
      "type": "function"
    },
    {
      "inputs": [
        {
          "internalType": "uint256",
          "name": "",
          "type": "uint256"
        }
      ],
      "name": "allPairs",
      "outputs": [
        {
          "internalType": "address",
          "name": "",
          "type": "address"
        }
      ],
      "stateMutability": "view",
      "type": "function"
    },
    {
      "inputs": [],
      "name": "allPairsLength",
      "outputs": [
        {
          "internalType": "uint256",
          "name": "",
          "type": "uint256"
        }
      ],
      "stateMutability": "view",
      "type": "function"
    },
    {
      "inputs": [
        {
          "internalType": "address",
          "name": "caller",
          "type": "address"
        }
      ],
      "name": "begin",
      "outputs": [],
      "stateMutability": "nonpayable",
      "type": "function"
    },
    {
      "inputs": [
        {
          "internalType": "address",
          "name": "pair",
          "type": "address"
        },
        {
          "internalType": "address",
          "name": "token0",
          "type": "address"
        },
        {
          "internalType": "address",
          "name": "token1",
          "type": "address"
        },
        {
          "internalType": "enum ListStatus",
          "name": "status",
          "type": "uint8"
        },
        {
          "internalType": "address",
          "name": "caller",
          "type": "address"
        }
      ],
      "name": "changePairStatus",
      "outputs": [],
      "stateMutability": "nonpayable",
      "type": "function"
    },
    {
      "inputs": [
        {
          "internalType": "address",
          "name": "token",
          "type": "address"
        },
        {
          "internalType": "enum ListStatus",
          "name": "status",
          "type": "uint8"
        }
      ],
      "name": "changeTokenStatus",
      "outputs": [],
      "stateMutability": "nonpayable",
      "type": "function"
    },
    {
      "inputs": [
        {
          "internalType": "address",
          "name": "tokenA",
          "type": "address"
        },
        {
          "internalType": "address",
          "name": "tokenB",
          "type": "address"
        }
      ],
      "name": "createPair",
      "outputs": [
        {
          "internalType": "address",
          "name": "pair",
          "type": "address"
        }
      ],
      "stateMutability": "nonpayable",
      "type": "function"
    },
    {
      "inputs": [
        {
          "internalType": "enum ActionType",
          "name": "",
          "type": "uint8"
        }
      ],
      "name": "feeRates",
      "outputs": [
        {
          "internalType": "uint32",
          "name": "accountant",
          "type": "uint32"
        }
      ],
      "stateMutability": "view",
      "type": "function"
    },
    {
      "inputs": [],
      "name": "feeStores",
      "outputs": [
        {
          "internalType": "address",
          "name": "accountant",
          "type": "address"
        }
      ],
      "stateMutability": "view",
      "type": "function"
    },
    {
      "inputs": [],
      "name": "feeTo",
      "outputs": [
        {
          "internalType": "address",
          "name": "",
          "type": "address"
        }
      ],
      "stateMutability": "view",
      "type": "function"
    },
    {
      "inputs": [],
      "name": "getOwner",
      "outputs": [
        {
          "internalType": "address",
          "name": "",
          "type": "address"
        }
      ],
      "stateMutability": "view",
      "type": "function"
    },
    {
      "inputs": [
        {
          "internalType": "address",
          "name": "tokenA",
          "type": "address"
        },
        {
          "internalType": "address",
          "name": "tokenB",
          "type": "address"
        }
      ],
      "name": "getPair",
      "outputs": [
        {
          "internalType": "address",
          "name": "pair",
          "type": "address"
        }
      ],
      "stateMutability": "view",
      "type": "function"
    },
    {
      "inputs": [],
      "name": "nextNode",
      "outputs": [
        {
          "internalType": "address",
          "name": "",
          "type": "address"
        }
      ],
      "stateMutability": "view",
      "type": "function"
    },
    {
      "inputs": [],
      "name": "owner",
      "outputs": [
        {
          "internalType": "address",
          "name": "",
          "type": "address"
        }
      ],
      "stateMutability": "view",
      "type": "function"
    },
    {
      "inputs": [
        {
          "internalType": "address",
          "name": "",
          "type": "address"
        },
        {
          "internalType": "address",
          "name": "",
          "type": "address"
        }
      ],
      "name": "pairFor",
      "outputs": [
        {
          "internalType": "address",
          "name": "",
          "type": "address"
        }
      ],
      "stateMutability": "view",
      "type": "function"
    },
    {
      "inputs": [
        {
          "internalType": "address",
          "name": "",
          "type": "address"
        }
      ],
      "name": "pairs",
      "outputs": [
        {
          "internalType": "address",
          "name": "token0",
          "type": "address"
        },
        {
          "internalType": "address",
          "name": "token1",
          "type": "address"
        },
        {
          "internalType": "enum ListStatus",
          "name": "status",
          "type": "uint8"
        }
      ],
      "stateMutability": "view",
      "type": "function"
    },
    {
      "inputs": [],
      "name": "prevNode",
      "outputs": [
        {
          "internalType": "address",
          "name": "",
          "type": "address"
        }
      ],
      "stateMutability": "view",
      "type": "function"
    },
    {
      "inputs": [],
      "name": "renounceOwnership",
      "outputs": [],
      "stateMutability": "nonpayable",
      "type": "function"
    },
    {
      "inputs": [
        {
          "internalType": "enum ActionType",
          "name": "_sessionType",
          "type": "uint8"
        },
        {
          "components": [
            {
              "internalType": "uint32",
              "name": "accountant",
              "type": "uint32"
            }
          ],
          "internalType": "struct FeeRates",
          "name": "_feeRates",
          "type": "tuple"
        },
        {
          "internalType": "address",
          "name": "caller",
          "type": "address"
        }
      ],
      "name": "setFeeRates",
      "outputs": [],
      "stateMutability": "nonpayable",
      "type": "function"
    },
    {
      "inputs": [
        {
          "components": [
            {
              "internalType": "address",
              "name": "accountant",
              "type": "address"
            }
          ],
          "internalType": "struct FeeStores",
          "name": "_feeStores",
          "type": "tuple"
        },
        {
          "internalType": "address",
          "name": "caller",
          "type": "address"
        }
      ],
      "name": "setFeeStores",
      "outputs": [],
      "stateMutability": "nonpayable",
      "type": "function"
    },
    {
      "inputs": [
        {
          "internalType": "address",
          "name": "_feeTo",
          "type": "address"
        }
      ],
      "name": "setFeeTo",
      "outputs": [],
      "stateMutability": "nonpayable",
      "type": "function"
    },
    {
      "inputs": [
        {
          "internalType": "enum NodeType",
          "name": "nodeType",
          "type": "uint8"
        },
        {
          "internalType": "address",
          "name": "node",
          "type": "address"
        },
        {
          "internalType": "address",
          "name": "caller",
          "type": "address"
        }
      ],
      "name": "setNode",
      "outputs": [],
      "stateMutability": "nonpayable",
      "type": "function"
    },
    {
      "inputs": [],
      "name": "tgrBusd",
      "outputs": [
        {
          "internalType": "address",
          "name": "",
          "type": "address"
        }
      ],
      "stateMutability": "view",
      "type": "function"
    },
    {
      "inputs": [],
      "name": "tgrFtm",
      "outputs": [
        {
          "internalType": "address",
          "name": "",
          "type": "address"
        }
      ],
      "stateMutability": "view",
      "type": "function"
    },
    {
      "inputs": [],
      "name": "tgrHtz",
      "outputs": [
        {
          "internalType": "address",
          "name": "",
          "type": "address"
        }
      ],
      "stateMutability": "view",
      "type": "function"
    },
    {
      "inputs": [
        {
          "internalType": "address",
          "name": "newOwner",
          "type": "address"
        }
      ],
      "name": "transferOwnership",
      "outputs": [],
      "stateMutability": "nonpayable",
      "type": "function"
    },
    {
      "inputs": [
        {
          "internalType": "address",
          "name": "_prevNode",
          "type": "address"
        },
        {
          "internalType": "address",
          "name": "_nextNode",
          "type": "address"
        }
      ],
      "name": "wire",
      "outputs": [],
      "stateMutability": "nonpayable",
      "type": "function"
    }
  ],
  "bytecode": "0x608060405234801561001057600080fd5b506000805460ff1916600417905561002733610039565b600e805460ff19166001179055610097565b600e80546001600160a01b0383811663010000008181026301000000600160b81b031985161790945560405193909204169182907f8be0079c531659141344cd1fd0a4f28419497f9722a3daafe3b4186f6b6457e090600090a35050565b614c8880620000a76000396000f3fe608060405234801561001057600080fd5b50600436106101a95760003560e01c806391fd0db7116100f9578063d606c2c911610097578063f46901ed11610071578063f46901ed146103ab578063f9a21e8a146103be578063f9eb740d146103d1578063fe33b302146103e457600080fd5b8063d606c2c914610372578063e6a4390514610385578063f2fde38b1461039857600080fd5b806396ed28f9116100d357806396ed28f914610305578063c9c6539614610339578063cd193c431461034c578063cdd9224c1461035f57600080fd5b806391fd0db7146102cc578063928879d6146102df578063934923a3146102f257600080fd5b8063574f2ba311610166578063715018a611610140578063715018a614610299578063893d20e8146102a15780638da5cb5b146102a157806390e3677f146102b957600080fd5b8063574f2ba31461026c5780635855a25a1461027e57806365715c561461028657600080fd5b8063017e7e58146101ae57806309b16a22146101de57806310224711146101f15780631e3dd18b1461022c578063249dfad71461023f57806354abe9d014610257575b600080fd5b600f546101c1906001600160a01b031681565b6040516001600160a01b0390911681526020015b60405180910390f35b6008546101c1906001600160a01b031681565b6102176101ff366004611daf565b600d6020526000908152604090205463ffffffff1681565b60405163ffffffff90911681526020016101d5565b6101c161023a366004611dcc565b610433565b6000546101c19061010090046001600160a01b031681565b61026a610265366004611dfa565b61045d565b005b6010545b6040519081526020016101d5565b61027061058a565b6001546101c1906001600160a01b031681565b61026a6105d4565b600e54630100000090046001600160a01b03166101c1565b61026a6102c7366004611e17565b610612565b61026a6102da366004611e50565b6106b0565b61026a6102ed366004611eee565b61086a565b6007546101c1906001600160a01b031681565b6101c1610313366004611e17565b600b6020908152600092835260408084209091529082529020546001600160a01b031681565b6101c1610347366004611e17565b610a75565b61026a61035a366004611f42565b610eec565b61026a61036d366004611fb1565b61137f565b61026a610380366004612025565b611545565b6101c1610393366004611e17565b611622565b61026a6103a6366004611dfa565b611651565b61026a6103b9366004611dfa565b6116f1565b600c546101c1906001600160a01b031681565b6009546101c1906001600160a01b031681565b6104246103f2366004611dfa565b600a60205260009081526040902080546001909101546001600160a01b0391821691811690600160a01b900460ff1683565b6040516101d593929190612084565b6010818154811061044357600080fd5b6000918252602090912001546001600160a01b0316905081565b60005461010090046001600160a01b031633148061047a57503330145b806104a85750600e54630100000090046001600160a01b03166001600160a01b0316336001600160a01b0316145b6104cd5760405162461bcd60e51b81526004016104c4906120b1565b60405180910390fd5b6001600160a01b038116301461055d576001546001600160a01b03908116906354abe9d0908316156104ff5782610501565b305b6040516001600160e01b031960e084901b1681526001600160a01b039091166004820152602401600060405180830381600087803b15801561054257600080fd5b505af1158015610556573d6000803e3d6000fd5b5050505050565b6040517ffd3415c24b2b4519f08b7935c13f86ea010c77b3ff9bf448a474ae3b2414fce090600090a15b50565b60405161059960208201611d95565b601f1982820381018352601f9091011660408190526105bb91906020016120db565b6040516020818303038152906040528051906020012081565b600e546001600160a01b0363010000009091041633146106065760405162461bcd60e51b81526004016104c490612116565b6106106000611778565b565b600e54630100000090046001600160a01b03166001600160a01b0316336001600160a01b0316146106785760405162461bcd60e51b815260206004820152601060248201526f496e76616c69642063616c6c6572203360801b60448201526064016104c4565b60008054610100600160a81b0319166101006001600160a01b0394851602179055600180546001600160a01b03191691909216179055565b60005461010090046001600160a01b03163314806106cd57503330145b806106fb5750600e54630100000090046001600160a01b03166001600160a01b0316336001600160a01b0316145b6107175760405162461bcd60e51b81526004016104c4906120b1565b6001600160a01b038116301461082b57600e5462010000900460ff16156107a557604051634f18125b60e01b815273__$88bebae22a3ad6e62b56c303176513ecf8$__90634f18125b90610774908690600d90879060040161215b565b60006040518083038186803b15801561078c57600080fd5b505af41580156107a0573d6000803e3d6000fd5b505050505b60006001600160a01b038216156107bc57816107be565b305b6001546040516391fd0db760e01b81529192506001600160a01b0316906391fd0db7906107f390879087908690600401612183565b600060405180830381600087803b15801561080d57600080fd5b505af1158015610821573d6000803e3d6000fd5b5050505050505050565b7fb4040436d4754da72f29d5b97fe68448f30d44ac0e08b33545cbf6f28b7641d9838360405161085c9291906121b2565b60405180910390a15b505050565b6001600160a01b0381163014610a445760405163085b199160e11b815273__$88bebae22a3ad6e62b56c303176513ecf8$__906310b63322906108b690869086906002906004016121d3565b60006040518083038186803b1580156108ce57600080fd5b505af41580156108e2573d6000803e3d6000fd5b50600092506108ef915050565b8360048111156109015761090161205a565b148061091e5750600283600481111561091c5761091c61205a565b145b8061093a575060038360048111156109385761093861205a565b145b156109f65760005b6010548110156109f4576010818154811061095f5761095f6121fd565b6000918252602090912001546002546004805460055460405163e98732a560e01b81526001600160a01b039485169381019390935290831660248301528216604482015291169063e98732a590606401600060405180830381600087803b1580156109c957600080fd5b505af11580156109dd573d6000803e3d6000fd5b5050505080806109ec90612229565b915050610942565b505b60006001600160a01b03821615610a0d5781610a0f565b305b6001546040516349443ceb60e11b81529192506001600160a01b03169063928879d6906107f390879087908690600401612242565b7fb45c42dda0a5ab1d1078e0afeda2976363eff9496a93644e726862f1f06186b8838360405161085c92919061226d565b6001600160a01b03821660009081526011602052604081205460ff168015610ab557506001600160a01b03821660009081526011602052604090205460ff165b610af15760405162461bcd60e51b815260206004820152600d60248201526c24b73b30b634b2103a37b5b2b760991b60448201526064016104c4565b6004546001600160a01b0316610b345760405162461bcd60e51b815260206004820152600860248201526727379026b0b5b2b960c11b60448201526064016104c4565b6005546001600160a01b0316610b775760405162461bcd60e51b81526020600482015260086024820152672737902a30b5b2b960c11b60448201526064016104c4565b816001600160a01b0316836001600160a01b031603610bcb5760405162461bcd60e51b815260206004820152601060248201526f4964656e746963616c20746f6b656e7360801b60448201526064016104c4565b600080836001600160a01b0316856001600160a01b031610610bee578385610bf1565b84845b90925090506001600160a01b038216610c415760405162461bcd60e51b81526020600482015260126024820152712d32b9379030b2323932b9b9903a37b5b2b760711b60448201526064016104c4565b6001600160a01b038281166000908152600b6020908152604080832085851684529091529020541615610ca65760405162461bcd60e51b815260206004820152600d60248201526c22bc34b9ba34b733903830b4b960991b60448201526064016104c4565b600060405180602001610cb890611d95565b601f1982820381018352601f9091011660408190526bffffffffffffffffffffffff19606086811b8216602084015285901b166034820152909150600090604801604051602081830303815290604052805190602001209050808251602084016000f560405163485cc95560e01b81526001600160a01b03868116600483015285811660248301529196509086169063485cc95590604401600060405180830381600087803b158015610d6a57600080fd5b505af1158015610d7e573d6000803e3d6000fd5b50506002546004805460055460405163e98732a560e01b81526001600160a01b0394851693810193909352908316602483015282166044820152908816925063e98732a59150606401600060405180830381600087803b158015610de157600080fd5b505af1158015610df5573d6000803e3d6000fd5b505060405163cd193c4360e01b815230925063cd193c439150610e2690889088908890600290600090600401612292565b600060405180830381600087803b158015610e4057600080fd5b505af1158015610e54573d6000803e3d6000fd5b5050601080546001810182556000919091527f1b6847dc741a1b0cd08d278845f9d819d87b734759afb55fe2de5cb82a9ae6720180546001600160a01b0319166001600160a01b03898116918217909255604051908152868216935090871691507fa92a2b95c8d8436f6ac4c673c61487364f877efb9534d4296fad8ef904546c949060200160405180910390a35050505092915050565b60005461010090046001600160a01b0316331480610f0957503330145b80610f375750600e54630100000090046001600160a01b03166001600160a01b0316336001600160a01b0316145b610f535760405162461bcd60e51b81526004016104c4906120b1565b6001600160a01b038116301461133b57600e5460ff16156112b1576040518060600160405280856001600160a01b03168152602001846001600160a01b03168152602001836003811115610fa957610fa961205a565b90526001600160a01b038087166000908152600a6020908152604091829020845181549085166001600160a01b0319918216178255918501516001820180549190951692811683178555928501519093909290916001600160a81b031990911617600160a01b8360038111156110215761102161205a565b021790555050506001600160a01b038085166000818152600b60208181526040808420898716855282528084208054878d166001600160a01b03199182168117909255938352818520958552949091529182902080549091169092179091556002549051633fe59dbb60e11b815273__$88bebae22a3ad6e62b56c303176513ecf8$__92637fcb3b76926110d392899289921690730dcd1bf9a1b36ce34237eeafef220932846bcd82906004016122d4565b602060405180830381865af41580156110f0573d6000803e3d6000fd5b505050506040513d601f19601f8201168201806040525081019061111491906122ff565b1561113557600780546001600160a01b0319166001600160a01b0387161790555b600254604051633fe59dbb60e11b815273__$88bebae22a3ad6e62b56c303176513ecf8$__91637fcb3b769161119191889188916001600160a01b031690735fc8d32690cc91d4c39d9d3abcbd16989f875707906004016122d4565b602060405180830381865af41580156111ae573d6000803e3d6000fd5b505050506040513d601f19601f820116820180604052508101906111d291906122ff565b156111f357600880546001600160a01b0319166001600160a01b0387161790555b600254604051633fe59dbb60e11b815273__$88bebae22a3ad6e62b56c303176513ecf8$__91637fcb3b769161124f91889188916001600160a01b03169073b7f8bc63bbcad18155201308c8f3540b07f84f5e906004016122d4565b602060405180830381865af415801561126c573d6000803e3d6000fd5b505050506040513d601f19601f8201168201806040525081019061129091906122ff565b156112b157600980546001600160a01b0319166001600160a01b0387161790555b60006001600160a01b038216156112c857816112ca565b305b60015460405163cd193c4360e01b81529192506001600160a01b03169063cd193c43906113039089908990899089908890600401612292565b600060405180830381600087803b15801561131d57600080fd5b505af1158015611331573d6000803e3d6000fd5b5050505050610556565b7f7af36d96fdc569564b9fadb22716716fe33463cb7fc8dca4fbd79d40448acdf2858585856040516113709493929190612321565b60405180910390a15050505050565b60005461010090046001600160a01b031633148061139c57503330145b806113ca5750600e54630100000090046001600160a01b03166001600160a01b0316336001600160a01b0316145b6113e65760405162461bcd60e51b81526004016104c4906120b1565b6001600160a01b038116301461150357600e54610100900460ff161561147a57604051633d8d54b760e11b8152600c600482015282516001600160a01b0316602482015273__$88bebae22a3ad6e62b56c303176513ecf8$__90637b1aa96e9060440160006040518083038186803b15801561146157600080fd5b505af4158015611475573d6000803e3d6000fd5b505050505b60006001600160a01b038216156114915781611493565b305b600154604051633376489360e21b815285516001600160a01b039081166004830152808416602483015292935091169063cdd9224c90604401600060405180830381600087803b1580156114e657600080fd5b505af11580156114fa573d6000803e3d6000fd5b50505050505050565b60405182516001600160a01b031681527f275664547227ddbc7a8a732c07c9346f2f4520de70c2088665cc6809534212c0906020015b60405180910390a15050565b600e546001600160a01b0363010000009091041633146115775760405162461bcd60e51b81526004016104c490612116565b600281600381111561158b5761158b61205a565b036115a05761159b8260016117d6565b6115f1565b60038160038111156115b4576115b461205a565b036115c45761159b8260006117d6565b60018160038111156115d8576115d861205a565b036115f1576115e88260006117d6565b6115f182611ade565b7f376944c3d8190052cc3353d9185bea072485008208452d6028b99150adb18c588282604051611539929190612357565b6001600160a01b038083166000908152600b602090815260408083208585168452909152902054165b92915050565b600e546001600160a01b0363010000009091041633146116835760405162461bcd60e51b81526004016104c490612116565b6001600160a01b0381166116e85760405162461bcd60e51b815260206004820152602660248201527f4f776e61626c653a206e6577206f776e657220697320746865207a65726f206160448201526564647265737360d01b60648201526084016104c4565b61058781611778565b600e54630100000090046001600160a01b03166001600160a01b0316336001600160a01b0316146117565760405162461bcd60e51b815260206004820152600f60248201526e21b0b63632b910109e9037bbb732b960891b60448201526064016104c4565b600f80546001600160a01b0319166001600160a01b0392909216919091179055565b600e80546001600160a01b0383811663010000008181026301000000600160b81b031985161790945560405193909204169182907f8be0079c531659141344cd1fd0a4f28419497f9722a3daafe3b4186f6b6457e090600090a35050565b6001600160a01b0382166000908152601160205260408120805460ff191683151517905581611806576003611809565b60025b60405163cd193c4360e01b8152909150309063cd193c4390611838908690819081908790600090600401612292565b600060405180830381600087803b15801561185257600080fd5b505af1158015611866573d6000803e3d6000fd5b5050505060005b601054811015611ad8576118a86010828154811061188d5761188d6121fd565b6000918252602090912001546001600160a01b031685611c99565b15611ac657601081815481106118c0576118c06121fd565b6000918252602090912001546040516312b792a760e31b81526001600160a01b03909116906395bc9538906118f9908590600401612374565b600060405180830381600087803b15801561191357600080fd5b505af1158015611927573d6000803e3d6000fd5b50505050306001600160a01b031663cd193c436010838154811061194d5761194d6121fd565b600091825260209091200154601080546001600160a01b039092169185908110611979576119796121fd565b6000918252602091829020015460408051630dfe168160e01b815290516001600160a01b0390921692630dfe1681926004808401938290030181865afa1580156119c7573d6000803e3d6000fd5b505050506040513d601f19601f820116820180604052508101906119eb9190612382565b601085815481106119fe576119fe6121fd565b600091825260209182902001546040805163d21220a760e01b815290516001600160a01b039092169263d21220a7926004808401938290030181865afa158015611a4c573d6000803e3d6000fd5b505050506040513d601f19601f82011682018060405250810190611a709190612382565b8660006040518663ffffffff1660e01b8152600401611a93959493929190612292565b600060405180830381600087803b158015611aad57600080fd5b505af1158015611ac1573d6000803e3d6000fd5b505050505b80611ad081612229565b91505061186d565b50505050565b600160005b60105481101561086557611b1e60108281548110611b0357611b036121fd565b6000918252602090912001546001600160a01b031684611c99565b15611c8357306001600160a01b031663cd193c4360108381548110611b4557611b456121fd565b60009182526020822001546040516001600160e01b031960e085901b168152611b83926001600160a01b039092169190819081908190600401612292565b600060405180830381600087803b158015611b9d57600080fd5b505af1158015611bb1573d6000803e3d6000fd5b5050601054611bc492506001915061239f565b811015611c465760108054611bdb9060019061239f565b81548110611beb57611beb6121fd565b600091825260209091200154601080546001600160a01b039092169183908110611c1757611c176121fd565b9060005260206000200160006101000a8154816001600160a01b0302191690836001600160a01b031602179055505b6010805480611c5757611c576123b6565b600082815260208120820160001990810180546001600160a01b03191690559091019091559150611c88565b600191505b611c9282826123cc565b9050611ae3565b6000816001600160a01b0316836001600160a01b0316630dfe16816040518163ffffffff1660e01b8152600401602060405180830381865afa158015611ce3573d6000803e3d6000fd5b505050506040513d601f19601f82011682018060405250810190611d079190612382565b6001600160a01b03161480611d8e5750816001600160a01b0316836001600160a01b031663d21220a76040518163ffffffff1660e01b8152600401602060405180830381865afa158015611d5f573d6000803e3d6000fd5b505050506040513d601f19601f82011682018060405250810190611d839190612382565b6001600160a01b0316145b9392505050565b61286e806123e583390190565b6005811061058757600080fd5b600060208284031215611dc157600080fd5b8135611d8e81611da2565b600060208284031215611dde57600080fd5b5035919050565b6001600160a01b038116811461058757600080fd5b600060208284031215611e0c57600080fd5b8135611d8e81611de5565b60008060408385031215611e2a57600080fd5b8235611e3581611de5565b91506020830135611e4581611de5565b809150509250929050565b60008060008385036060811215611e6657600080fd5b8435611e7181611da2565b93506020601f1982011215611e8557600080fd5b506040516020810181811067ffffffffffffffff82111715611eb757634e487b7160e01b600052604160045260246000fd5b604052602085013563ffffffff81168114611ed157600080fd5b815291506040840135611ee381611de5565b809150509250925092565b600080600060608486031215611f0357600080fd5b8335611f0e81611da2565b92506020840135611f1e81611de5565b91506040840135611ee381611de5565b803560048110611f3d57600080fd5b919050565b600080600080600060a08688031215611f5a57600080fd5b8535611f6581611de5565b94506020860135611f7581611de5565b93506040860135611f8581611de5565b9250611f9360608701611f2e565b91506080860135611fa381611de5565b809150509295509295909350565b6000808284036040811215611fc557600080fd5b6020811215611fd357600080fd5b506040516020810181811067ffffffffffffffff8211171561200557634e487b7160e01b600052604160045260246000fd5b604052833561201381611de5565b815291506020830135611e4581611de5565b6000806040838503121561203857600080fd5b823561204381611de5565b915061205160208401611f2e565b90509250929050565b634e487b7160e01b600052602160045260246000fd5b600481106120805761208061205a565b9052565b6001600160a01b03848116825283166020820152606081016120a96040830184612070565b949350505050565b60208082526010908201526f496e76616c69642063616c6c6572203160801b604082015260600190565b6000825160005b818110156120fc57602081860181015185830152016120e2565b8181111561210b576000828501525b509190910192915050565b6020808252818101527f4f776e61626c653a2063616c6c6572206973206e6f7420746865206f776e6572604082015260600190565b600581106105875761058761205a565b606081016121688561214b565b93815260208101929092525163ffffffff1660409091015290565b606081016121908561214b565b938152915163ffffffff1660208301526001600160a01b031660409091015290565b604081016121bf8461214b565b928152905163ffffffff1660209091015290565b606081016121e08561214b565b9381526001600160a01b0392909216602083015260409091015290565b634e487b7160e01b600052603260045260246000fd5b634e487b7160e01b600052601160045260246000fd5b60006001820161223b5761223b612213565b5060010190565b6060810161224f8561214b565b9381526001600160a01b039283166020820152911660409091015290565b6040810161227a8461214b565b9281526001600160a01b039190911660209091015290565b6001600160a01b0386811682528581166020830152848116604083015260a08201906122c16060840186612070565b8084166080840152509695505050505050565b6001600160a01b03948516815292841660208401529083166040830152909116606082015260800190565b60006020828403121561231157600080fd5b81518015158114611d8e57600080fd5b6001600160a01b0385811682528481166020830152831660408201526080810161234e6060830184612070565b95945050505050565b6001600160a01b038316815260408101611d8e6020830184612070565b6020810161164b8284612070565b60006020828403121561239457600080fd5b8151611d8e81611de5565b6000828210156123b1576123b1612213565b500390565b634e487b7160e01b600052603160045260246000fd5b600082198211156123df576123df612213565b50019056fe60806040526001600f5534801561001557600080fd5b5060058054604080518082018252600f81526e4c697175696469747920506f6f6c7360881b6020918201528151808301835260018152603160f81b9082015281517f8b73c3c69bb8fe3d512ecc4cf759cc79239f7b179b0ffacaa9a75d522b39400f818301527fd14edaf06e9c5da05e41d9891e95cf9744c99f27d02deca8fc38053cf6c938c0818401527fc89efdaa54c0f20c7adf612882df0950f5a951637e0307cdcb4c672f298b8bc660608201524660808201523060a0808301919091528351808303909101815260c090910190925281519101206003556001600160a81b031916336101000260ff1916176002179055612756806101186000396000f3fe608060405234801561001057600080fd5b50600436106101e55760003560e01c806370a082311161010f578063ba9a7a56116100a2578063d505accf11610071578063d505accf1461049d578063dd62ed3e146104b0578063e98732a5146104db578063fff6cae9146104ee57600080fd5b8063ba9a7a5614610456578063bc25cf771461045f578063c45a015514610472578063d21220a71461048a57600080fd5b806395bc9538116100de57806395bc9538146103fc57806395d89b411461040f578063a9059cbb14610430578063b21572641461044357600080fd5b806370a082311461038b5780637464fc3d146103ab5780637ecebe00146103b457806389afcb44146103d457600080fd5b806323b872dd11610187578063485cc95511610156578063485cc955146103535780635909c0d5146103665780635a3d54931461036f5780636a6278421461037857600080fd5b806323b872dd146102f657806330adf81f14610309578063313ce567146103305780633644e5151461034a57600080fd5b8063095ea7b3116101c3578063095ea7b3146102775780630dfe16811461029a57806318160ddd146102c5578063200d2ed2146102dc57600080fd5b8063022c0d9f146101ea57806306fdde03146101ff5780630902f1ac14610243575b600080fd5b6101fd6101f8366004612215565b6104f6565b005b61022d6040518060400160405280600f81526020016e4c697175696469747920506f6f6c7360881b81525081565b60405161023a91906122db565b60405180910390f35b61024b610af8565b604080516001600160701b03948516815293909216602084015263ffffffff169082015260600161023a565b61028a61028536600461230e565b610b22565b604051901515815260200161023a565b6006546102ad906001600160a01b031681565b6040516001600160a01b03909116815260200161023a565b6102ce60005481565b60405190815260200161023a565b6005546102e99060ff1681565b60405161023a9190612350565b61028a610304366004612378565b610b39565b6102ce7f6e71edae12b1b97f4d1f60370fef10105fa2faae0126114a169c64845d6126c981565b610338601281565b60405160ff909116815260200161023a565b6102ce60035481565b6101fd6103613660046123b9565b610bcc565b6102ce60095481565b6102ce600a5481565b6102ce6103863660046123f2565b610c4c565b6102ce6103993660046123f2565b60016020526000908152604090205481565b6102ce600b5481565b6102ce6103c23660046123f2565b60046020526000908152604090205481565b6103e76103e23660046123f2565b610f01565b6040805192835260208301919091520161023a565b6101fd61040a36600461240f565b611256565b61022d6040518060400160405280600281526020016104c560f41b81525081565b61028a61043e36600461230e565b6112d0565b6103e7610451366004612430565b6112dd565b6102ce6103e881565b6101fd61046d3660046123f2565b611404565b6005546102ad9061010090046001600160a01b031681565b6007546102ad906001600160a01b031681565b6101fd6104ab366004612449565b611518565b6102ce6104be3660046123b9565b600260209081526000928352604080842090915290825290205481565b6101fd6104e93660046124c0565b61172a565b6101fd6117bc565b600f546001146105215760405162461bcd60e51b81526004016105189061250b565b60405180910390fd5b6000600f55841515806105345750600084115b61058c5760405162461bcd60e51b815260206004820152602360248201527f58506169723a20496e73756666696369656e7420616d6f756e7420666f72207360448201526207761760ec1b6064820152608401610518565b600080610597610af8565b5091509150816001600160701b0316871080156105bc5750806001600160701b031686105b6106165760405162461bcd60e51b815260206004820152602560248201527f58506169723a20496e73756666696369656e7420726573657276657320666f72604482015264020737761760dc1b6064820152608401610518565b60065460075460009182916001600160a01b039182169190811690891682148015906106545750806001600160a01b0316896001600160a01b031614155b6106975760405162461bcd60e51b815260206004820152601460248201527358506169723a20496e76616c696420666565546f60601b6044820152606401610518565b6040516370a0823160e01b81523060048201526001600160a01b038316906370a0823190602401602060405180830381865afa1580156106db573d6000803e3d6000fd5b505050506040513d601f19601f820116820180604052508101906106ff919061252b565b6040516370a0823160e01b81523060048201529094506001600160a01b038216906370a0823190602401602060405180830381865afa158015610746573d6000803e3d6000fd5b505050506040513d601f19601f8201168201806040525081019061076a919061252b565b92508a1561077d5761077d828a8d6118e0565b891561078e5761078e818a8c6118e0565b86156107fb5760405163849f941560e01b81526001600160a01b038a169063849f9415906107c89033908f908f908e908e90600401612544565b600060405180830381600087803b1580156107e257600080fd5b505af11580156107f6573d6000803e3d6000fd5b505050505b6040516370a0823160e01b81523060048201526001600160a01b038316906370a0823190602401602060405180830381865afa15801561083f573d6000803e3d6000fd5b505050506040513d601f19601f82011682018060405250810190610863919061252b565b6040516370a0823160e01b81523060048201529094506001600160a01b038216906370a0823190602401602060405180830381865afa1580156108aa573d6000803e3d6000fd5b505050506040513d601f19601f820116820180604052508101906108ce919061252b565b92505050600089856001600160701b03166108e991906125a6565b83116108f6576000610913565b6109098a6001600160701b0387166125a6565b61091390846125a6565b9050600061092a8a6001600160701b0387166125a6565b8311610937576000610954565b61094a8a6001600160701b0387166125a6565b61095490846125a6565b905060008211806109655750600081115b6109b15760405162461bcd60e51b815260206004820181905260248201527f58506169723a20496e73756666696369656e6420696e70757420616d6f756e746044820152606401610518565b60006109be8360116125bd565b6109ca866127106125bd565b6109d491906125a6565b905060006109e38360116125bd565b6109ef866127106125bd565b6109f991906125a6565b9050610a116001600160701b03808916908a166125bd565b610a1f906305f5e1006125bd565b610a2982846125bd565b1015610a835760405162461bcd60e51b815260206004820152602360248201527f58506169723a20496e76616c6964206c6971756964697479206166747265207360448201526207761760ec1b6064820152608401610518565b5050610a9184848888611aa5565b60408051838152602081018390529081018c9052606081018b90526001600160a01b038a169033907fd78ad95fa46c994b6551d0da85fc275fe613ce37657fb8d5e3d130840159d8229060800160405180910390a350506001600f55505050505050505050565b6008546001600160701b0380821692600160701b830490911691600160e01b900463ffffffff1690565b6000610b2f338484611c8c565b5060015b92915050565b60006001600160a01b0384163314801590610b7957506001600160a01b038416600090815260026020908152604080832033845290915290205460001914155b15610bb7576001600160a01b038416600090815260026020908152604080832033845290915281208054849290610bb19084906125a6565b90915550505b610bc2848484611cee565b5060019392505050565b60055461010090046001600160a01b03163314610c1e5760405162461bcd60e51b815260206004820152601060248201526f21b937b9b99d102327a92124a22222a760811b6044820152606401610518565b600680546001600160a01b039384166001600160a01b03199182161790915560078054929093169116179055565b6000600f54600114610c705760405162461bcd60e51b81526004016105189061250b565b6000600f81905580610c80610af8565b506006546040516370a0823160e01b81523060048201529294509092506000916001600160a01b03909116906370a0823190602401602060405180830381865afa158015610cd2573d6000803e3d6000fd5b505050506040513d601f19601f82011682018060405250810190610cf6919061252b565b6007546040516370a0823160e01b81523060048201529192506000916001600160a01b03909116906370a0823190602401602060405180830381865afa158015610d44573d6000803e3d6000fd5b505050506040513d601f19601f82011682018060405250810190610d68919061252b565b90506000610d7f836001600160701b038716611d8f565b90506000610d96836001600160701b038716611d8f565b90506000610da48787611dd8565b60008054919250819003610de457610dd06103e8610dca610dc58787611f15565b611f97565b90611d8f565b9850610ddf60006103e8612007565b610e2b565b610e286001600160701b038916610dfb8684611f15565b610e0591906125f2565b6001600160701b038916610e198685611f15565b610e2391906125f2565b612096565b98505b60008911610e735760405162461bcd60e51b815260206004820152601560248201527416995c9bc81b1a5c5d5a591a5d1e481b5a5b9d1959605a1b6044820152606401610518565b610e7d8a8a612007565b610e8986868a8a611aa5565b8115610eb357600854610eaf906001600160701b0380821691600160701b900416611f15565b600b555b604080518581526020810185905233917f4c209b5fc8ad50758f13e2e1088ba56a560dff690a1c6fef26394f4c03821c4f910160405180910390a250506001600f5550949695505050505050565b600080600f54600114610f265760405162461bcd60e51b81526004016105189061250b565b6000600f81905580610f36610af8565b506006546007546040516370a0823160e01b81523060048201529395509193506001600160a01b039081169291169060009083906370a0823190602401602060405180830381865afa158015610f90573d6000803e3d6000fd5b505050506040513d601f19601f82011682018060405250810190610fb4919061252b565b6040516370a0823160e01b81523060048201529091506000906001600160a01b038416906370a0823190602401602060405180830381865afa158015610ffe573d6000803e3d6000fd5b505050506040513d601f19601f82011682018060405250810190611022919061252b565b3060009081526001602052604081205491925061103f8888611dd8565b600054909150806110508487611f15565b61105a91906125f2565b9a50806110678486611f15565b61107191906125f2565b995060008b118015611083575060008a115b6110cf5760405162461bcd60e51b815260206004820152601d60248201527f58506169723a205a65726f20616d6f756e74206166746572206275726e0000006044820152606401610518565b6110d930846120ac565b6110e4878d8d6118e0565b6110ef868d8c6118e0565b6040516370a0823160e01b81523060048201526001600160a01b038816906370a0823190602401602060405180830381865afa158015611133573d6000803e3d6000fd5b505050506040513d601f19601f82011682018060405250810190611157919061252b565b6040516370a0823160e01b81523060048201529095506001600160a01b038716906370a0823190602401602060405180830381865afa15801561119e573d6000803e3d6000fd5b505050506040513d601f19601f820116820180604052508101906111c2919061252b565b93506111d085858b8b611aa5565b81156111fa576008546111f6906001600160701b0380821691600160701b900416611f15565b600b555b604080518c8152602081018c90526001600160a01b038e169133917fdccd412f0b1252819cb1fd330b93224ca42612892bb3f4f789976e6d81936496910160405180910390a35050505050505050506001600f81905550915091565b60055461010090046001600160a01b031633146112a95760405162461bcd60e51b815260206004820152601160248201527043616c6c657220213d20666163746f727960781b6044820152606401610518565b6005805482919060ff191660018360038111156112c8576112c861233a565b021790555050565b6000610b2f338484611cee565b6006546007546040516370a0823160e01b815230600482015260009283926001600160a01b0391821692911690839083906370a0823190602401602060405180830381865afa158015611334573d6000803e3d6000fd5b505050506040513d601f19601f82011682018060405250810190611358919061252b565b6040516370a0823160e01b81523060048201529091506000906001600160a01b038416906370a0823190602401602060405180830381865afa1580156113a2573d6000803e3d6000fd5b505050506040513d601f19601f820116820180604052508101906113c6919061252b565b600054909150806113d78985611f15565b6113e191906125f2565b9650806113ee8984611f15565b6113f891906125f2565b95505050505050915091565b600f546001146114265760405162461bcd60e51b81526004016105189061250b565b6000600f556006546007546008546040516370a0823160e01b81523060048201526001600160a01b0393841693909216916114c191849186916114bc916001600160701b039091169084906370a08231906024015b602060405180830381865afa158015611498573d6000803e3d6000fd5b505050506040513d601f19601f82011682018060405250810190610dca919061252b565b6118e0565b6008546040516370a0823160e01b815230600482015261150e91839186916114bc91600160701b9091046001600160701b0316906001600160a01b038516906370a082319060240161147b565b50506001600f5550565b4284101561155b5760405162461bcd60e51b815260206004820152601060248201526f43726f7373656420646561646c696e6560801b6044820152606401610518565b6003546001600160a01b038816600090815260046020526040812080549192917f6e71edae12b1b97f4d1f60370fef10105fa2faae0126114a169c64845d6126c9918b918b918b9190876115ae83612606565b909155506040805160208101969096526001600160a01b0394851690860152929091166060840152608083015260a082015260c0810187905260e0016040516020818303038152906040528051906020012060405160200161162792919061190160f01b81526002810192909252602282015260420190565b60408051601f198184030181528282528051602091820120600080855291840180845281905260ff88169284019290925260608301869052608083018590529092509060019060a0016020604051602081039080840390855afa158015611692573d6000803e3d6000fd5b5050604051601f1901519150506001600160a01b038116158015906116c85750886001600160a01b0316816001600160a01b0316145b6117145760405162461bcd60e51b815260206004820152601a60248201527f7265636f766572656420616464726573732069732077726f6e670000000000006044820152606401610518565b61171f898989611c8c565b505050505050505050565b60055461010090046001600160a01b0316331461177d5760405162461bcd60e51b815260206004820152601160248201527043616c6c657220213d20666163746f727960781b6044820152606401610518565b600c80546001600160a01b039485166001600160a01b031991821617909155600d805493851693821693909317909255600e8054919093169116179055565b600f546001146117de5760405162461bcd60e51b81526004016105189061250b565b6000600f556006546040516370a0823160e01b81523060048201526118d9916001600160a01b0316906370a0823190602401602060405180830381865afa15801561182d573d6000803e3d6000fd5b505050506040513d601f19601f82011682018060405250810190611851919061252b565b6007546040516370a0823160e01b81523060048201526001600160a01b03909116906370a0823190602401602060405180830381865afa158015611899573d6000803e3d6000fd5b505050506040513d601f19601f820116820180604052508101906118bd919061252b565b6008546001600160701b0380821691600160701b900416611aa5565b6001600f55565b600c546001600160a01b03908116908416036119635760405163cd537aa160e01b81523060048201526001600160a01b0383811660248301526044820183905284169063cd537aa190606401600060405180830381600087803b15801561194657600080fd5b505af115801561195a573d6000803e3d6000fd5b50505050505050565b604080518082018252601981527f7472616e7366657228616464726573732c75696e74323536290000000000000060209182015281516001600160a01b0385811660248301526044808301869052845180840390910181526064909201845291810180516001600160e01b031663a9059cbb60e01b179052915160009283928716916119ef919061261f565b6000604051808303816000865af19150503d8060008114611a2c576040519150601f19603f3d011682016040523d82523d6000602084013e611a31565b606091505b5091509150818015611a5b575080511580611a5b575080806020019051810190611a5b919061263b565b611a9e5760405162461bcd60e51b815260206004820152601460248201527317dcd85999551c985b9cd9995c8819985a5b195960621b6044820152606401610518565b5050505050565b6001600160701b038411801590611ac357506001600160701b038311155b611b005760405162461bcd60e51b815260206004820152600e60248201526d57726f6e672062616c616e63657360901b6044820152606401610518565b6000611b116401000000004261265d565b600854909150600090611b3190600160e01b900463ffffffff1683612671565b905060008163ffffffff16118015611b5157506001600160701b03841615155b8015611b6557506001600160701b03831615155b15611bf4578063ffffffff16611b8d85611b7e86612136565b6001600160e01b03169061214f565b6001600160e01b0316611ba091906125bd565b60096000828254611bb19190612696565b909155505063ffffffff8116611bca84611b7e87612136565b6001600160e01b0316611bdd91906125bd565b600a6000828254611bee9190612696565b90915550505b6008805463ffffffff8416600160e01b026001600160e01b036001600160701b03898116600160701b9081026001600160e01b03199095168c83161794909417918216831794859055604080519382169282169290921783529290930490911660208201527f1c411e9a96e071241c2f21f7726b17ae89e3cab4c78be50e062b03a9fffbbad1910160405180910390a1505050505050565b6001600160a01b0383811660008181526002602090815260408083209487168084529482529182902085905590518481527f8c5be1e5ebec7d5bd14f71427d1e84f3dd0314c0f7b2291e5b200ac8c7c3b92591015b60405180910390a3505050565b6001600160a01b03831660009081526001602052604081208054839290611d169084906125a6565b90915550506001600160a01b03821660009081526001602052604081208054839290611d43908490612696565b92505081905550816001600160a01b0316836001600160a01b03167fddf252ad1be2c89b69c2b068fc378daa952ba7f163c4a11628f55a4df523b3ef83604051611ce191815260200190565b6000611dd183836040518060400160405280601e81526020017f536166654d6174683a207375627472616374696f6e206f766572666c6f770000815250612164565b9392505050565b600080600560019054906101000a90046001600160a01b03166001600160a01b031663017e7e586040518163ffffffff1660e01b8152600401602060405180830381865afa158015611e2e573d6000803e3d6000fd5b505050506040513d601f19601f82011682018060405250810190611e5291906126ae565b600b546001600160a01b038216158015945091925090611f01578015611efc576000611e8d610dc56001600160701b03888116908816611f15565b90506000611e9a83611f97565b905080821115611ef9576000611ebc611eb38484611d8f565b60005490611f15565b90506000611ed583611ecf866003611f15565b9061219e565b90506000611ee382846125f2565b90508015611ef557611ef58782612007565b5050505b50505b611f0d565b8015611f0d576000600b555b505092915050565b600082600003611f2757506000610b33565b6000611f3383856125bd565b905082611f4085836125f2565b14611dd15760405162461bcd60e51b815260206004820152602160248201527f536166654d6174683a206d756c7469706c69636174696f6e206f766572666c6f6044820152607760f81b6064820152608401610518565b60006003821115611ff85750806000611fb16002836125f2565b611fbc906001612696565b90505b81811015611ff257905080600281611fd781866125f2565b611fe19190612696565b611feb91906125f2565b9050611fbf565b50919050565b8115612002575060015b919050565b600054612014908261219e565b60009081556001600160a01b038316815260016020526040902054612039908261219e565b6001600160a01b0383166000818152600160205260408082209390935591519091907fddf252ad1be2c89b69c2b068fc378daa952ba7f163c4a11628f55a4df523b3ef9061208a9085815260200190565b60405180910390a35050565b60008183106120a55781611dd1565b5090919050565b6001600160a01b0382166000908152600160205260409020546120cf9082611d8f565b6001600160a01b038316600090815260016020526040812091909155546120f69082611d8f565b60009081556040518281526001600160a01b038416907fddf252ad1be2c89b69c2b068fc378daa952ba7f163c4a11628f55a4df523b3ef9060200161208a565b6000610b33600160701b6001600160701b0384166126cb565b6000611dd16001600160701b038316846126fa565b600081848411156121885760405162461bcd60e51b815260040161051891906122db565b50600061219584866125a6565b95945050505050565b6000806121ab8385612696565b905083811015611dd15760405162461bcd60e51b815260206004820152601b60248201527f536166654d6174683a206164646974696f6e206f766572666c6f7700000000006044820152606401610518565b6001600160a01b038116811461221257600080fd5b50565b60008060008060006080868803121561222d57600080fd5b85359450602086013593506040860135612246816121fd565b9250606086013567ffffffffffffffff8082111561226357600080fd5b818801915088601f83011261227757600080fd5b81358181111561228657600080fd5b89602082850101111561229857600080fd5b9699959850939650602001949392505050565b60005b838110156122c65781810151838201526020016122ae565b838111156122d5576000848401525b50505050565b60208152600082518060208401526122fa8160408501602087016122ab565b601f01601f19169190910160400192915050565b6000806040838503121561232157600080fd5b823561232c816121fd565b946020939093013593505050565b634e487b7160e01b600052602160045260246000fd5b602081016004831061237257634e487b7160e01b600052602160045260246000fd5b91905290565b60008060006060848603121561238d57600080fd5b8335612398816121fd565b925060208401356123a8816121fd565b929592945050506040919091013590565b600080604083850312156123cc57600080fd5b82356123d7816121fd565b915060208301356123e7816121fd565b809150509250929050565b60006020828403121561240457600080fd5b8135611dd1816121fd565b60006020828403121561242157600080fd5b813560048110611dd157600080fd5b60006020828403121561244257600080fd5b5035919050565b600080600080600080600060e0888a03121561246457600080fd5b873561246f816121fd565b9650602088013561247f816121fd565b95506040880135945060608801359350608088013560ff811681146124a357600080fd5b9699959850939692959460a0840135945060c09093013592915050565b6000806000606084860312156124d557600080fd5b83356124e0816121fd565b925060208401356124f0816121fd565b91506040840135612500816121fd565b809150509250925092565b602080825260069082015265131bd8dad95960d21b604082015260600190565b60006020828403121561253d57600080fd5b5051919050565b60018060a01b038616815284602082015283604082015260806060820152816080820152818360a0830137600081830160a090810191909152601f909201601f19160101949350505050565b634e487b7160e01b600052601160045260246000fd5b6000828210156125b8576125b8612590565b500390565b60008160001904831182151516156125d7576125d7612590565b500290565b634e487b7160e01b600052601260045260246000fd5b600082612601576126016125dc565b500490565b60006001820161261857612618612590565b5060010190565b600082516126318184602087016122ab565b9190910192915050565b60006020828403121561264d57600080fd5b81518015158114611dd157600080fd5b60008261266c5761266c6125dc565b500690565b600063ffffffff8381169083168181101561268e5761268e612590565b039392505050565b600082198211156126a9576126a9612590565b500190565b6000602082840312156126c057600080fd5b8151611dd1816121fd565b60006001600160e01b03828116848216811515828404821116156126f1576126f1612590565b02949350505050565b60006001600160e01b0383811680612714576127146125dc565b9216919091049291505056fea2646970667358221220cea67145280167b5dcd0d4a2834a23de36a8b4b0a57c1389daa5c66a136e8b5864736f6c634300080e0033a26469706673582212204317675e09c5f46754c3fc1287b8483aec17454762348512c13cb65d232a640b64736f6c634300080e0033",
  "linkReferences": {
    "contracts/libraries/WireLibrary.sol": {
      "WireLibrary": [
        {
          "length": 20,
          "start": 2030
        },
        {
          "length": 20,
          "start": 2352
        },
        {
          "length": 20,
          "start": 4408
        },
        {
          "length": 20,
          "start": 4590
        },
        {
          "length": 20,
          "start": 4780
        },
        {
          "length": 20,
          "start": 5331
        }
      ]
    }
  },
  "deployedLinkReferences": {
    "contracts/libraries/WireLibrary.sol": {
      "WireLibrary": [
        {
          "length": 20,
          "start": 1863
        },
        {
          "length": 20,
          "start": 2185
        },
        {
          "length": 20,
          "start": 4241
        },
        {
          "length": 20,
          "start": 4423
        },
        {
          "length": 20,
          "start": 4613
        },
        {
          "length": 20,
          "start": 5164
        }
      ]
    }
  }
}