{
  "_format": "hh-sol-artifact-1",
  "contractName": "Keep3rJobDisputableForTest",
  "sourceName": "contracts/for-test/peripherals/jobs/Keep3rJobDisputableForTest.sol",
  "abi": [
    {
      "inputs": [
        {
          "internalType": "address",
          "name": "_kph",
          "type": "address"
        },
        {
          "internalType": "address",
          "name": "_keep3rV1",
          "type": "address"
        },
        {
          "internalType": "address",
          "name": "_keep3rV1Proxy",
          "type": "address"
        },
        {
          "internalType": "address",
          "name": "_kp3rWethPool",
          "type": "address"
        }
      ],
      "stateMutability": "nonpayable",
      "type": "constructor"
    },
    {
      "inputs": [],
      "name": "AlreadyDisputed",
      "type": "error"
    },
    {
      "inputs": [],
      "name": "BondsLocked",
      "type": "error"
    },
    {
      "inputs": [],
      "name": "BondsUnexistent",
      "type": "error"
    },
    {
      "inputs": [],
      "name": "Disputed",
      "type": "error"
    },
    {
      "inputs": [],
      "name": "DisputerExistent",
      "type": "error"
    },
    {
      "inputs": [],
      "name": "DisputerUnexistent",
      "type": "error"
    },
    {
      "inputs": [],
      "name": "InsufficientJobTokenCredits",
      "type": "error"
    },
    {
      "inputs": [],
      "name": "JobDisputed",
      "type": "error"
    },
    {
      "inputs": [],
      "name": "JobLiquidityInsufficient",
      "type": "error"
    },
    {
      "inputs": [],
      "name": "JobLiquidityLessThanMin",
      "type": "error"
    },
    {
      "inputs": [],
      "name": "JobLiquidityUnexistent",
      "type": "error"
    },
    {
      "inputs": [],
      "name": "JobTokenCreditsLocked",
      "type": "error"
    },
    {
      "inputs": [],
      "name": "JobTokenInsufficient",
      "type": "error"
    },
    {
      "inputs": [],
      "name": "JobTokenUnexistent",
      "type": "error"
    },
    {
      "inputs": [],
      "name": "JobUnavailable",
      "type": "error"
    },
    {
      "inputs": [],
      "name": "LiquidityPairApproved",
      "type": "error"
    },
    {
      "inputs": [],
      "name": "LiquidityPairUnapproved",
      "type": "error"
    },
    {
      "inputs": [],
      "name": "LiquidityPairUnexistent",
      "type": "error"
    },
    {
      "inputs": [],
      "name": "MinRewardPeriod",
      "type": "error"
    },
    {
      "inputs": [],
      "name": "NoGovernanceZeroAddress",
      "type": "error"
    },
    {
      "inputs": [],
      "name": "NotDisputed",
      "type": "error"
    },
    {
      "inputs": [],
      "name": "OnlyDisputer",
      "type": "error"
    },
    {
      "inputs": [],
      "name": "OnlyGovernance",
      "type": "error"
    },
    {
      "inputs": [],
      "name": "OnlyJobOwner",
      "type": "error"
    },
    {
      "inputs": [],
      "name": "OnlyPendingGovernance",
      "type": "error"
    },
    {
      "inputs": [],
      "name": "OnlyPendingJobOwner",
      "type": "error"
    },
    {
      "inputs": [],
      "name": "OnlySlasher",
      "type": "error"
    },
    {
      "inputs": [],
      "name": "SlasherExistent",
      "type": "error"
    },
    {
      "inputs": [],
      "name": "SlasherUnexistent",
      "type": "error"
    },
    {
      "inputs": [],
      "name": "TokenUnallowed",
      "type": "error"
    },
    {
      "inputs": [],
      "name": "UnbondsLocked",
      "type": "error"
    },
    {
      "inputs": [],
      "name": "UnbondsUnexistent",
      "type": "error"
    },
    {
      "inputs": [],
      "name": "ZeroAddress",
      "type": "error"
    },
    {
      "anonymous": false,
      "inputs": [
        {
          "indexed": false,
          "internalType": "uint256",
          "name": "_bondTime",
          "type": "uint256"
        }
      ],
      "name": "BondTimeChange",
      "type": "event"
    },
    {
      "anonymous": false,
      "inputs": [
        {
          "indexed": true,
          "internalType": "address",
          "name": "_keeper",
          "type": "address"
        },
        {
          "indexed": true,
          "internalType": "address",
          "name": "_bonding",
          "type": "address"
        },
        {
          "indexed": false,
          "internalType": "uint256",
          "name": "_amount",
          "type": "uint256"
        }
      ],
      "name": "Bonding",
      "type": "event"
    },
    {
      "anonymous": false,
      "inputs": [
        {
          "indexed": true,
          "internalType": "address",
          "name": "_jobOrKeeper",
          "type": "address"
        },
        {
          "indexed": true,
          "internalType": "address",
          "name": "_disputer",
          "type": "address"
        }
      ],
      "name": "Dispute",
      "type": "event"
    },
    {
      "anonymous": false,
      "inputs": [
        {
          "indexed": false,
          "internalType": "address",
          "name": "_disputer",
          "type": "address"
        }
      ],
      "name": "DisputerAdded",
      "type": "event"
    },
    {
      "anonymous": false,
      "inputs": [
        {
          "indexed": false,
          "internalType": "address",
          "name": "_disputer",
          "type": "address"
        }
      ],
      "name": "DisputerRemoved",
      "type": "event"
    },
    {
      "anonymous": false,
      "inputs": [
        {
          "indexed": false,
          "internalType": "uint256",
          "name": "_fee",
          "type": "uint256"
        }
      ],
      "name": "FeeChange",
      "type": "event"
    },
    {
      "anonymous": false,
      "inputs": [
        {
          "indexed": false,
          "internalType": "address",
          "name": "_pendingGovernance",
          "type": "address"
        }
      ],
      "name": "GovernanceProposal",
      "type": "event"
    },
    {
      "anonymous": false,
      "inputs": [
        {
          "indexed": false,
          "internalType": "address",
          "name": "_governance",
          "type": "address"
        }
      ],
      "name": "GovernanceSet",
      "type": "event"
    },
    {
      "anonymous": false,
      "inputs": [
        {
          "indexed": false,
          "internalType": "uint256",
          "name": "_inflationPeriod",
          "type": "uint256"
        }
      ],
      "name": "InflationPeriodChange",
      "type": "event"
    },
    {
      "anonymous": false,
      "inputs": [
        {
          "indexed": true,
          "internalType": "address",
          "name": "_job",
          "type": "address"
        },
        {
          "indexed": true,
          "internalType": "address",
          "name": "_previousOwner",
          "type": "address"
        },
        {
          "indexed": true,
          "internalType": "address",
          "name": "_newOwner",
          "type": "address"
        }
      ],
      "name": "JobOwnershipAssent",
      "type": "event"
    },
    {
      "anonymous": false,
      "inputs": [
        {
          "indexed": true,
          "internalType": "address",
          "name": "_job",
          "type": "address"
        },
        {
          "indexed": true,
          "internalType": "address",
          "name": "_owner",
          "type": "address"
        },
        {
          "indexed": true,
          "internalType": "address",
          "name": "_pendingOwner",
          "type": "address"
        }
      ],
      "name": "JobOwnershipChange",
      "type": "event"
    },
    {
      "anonymous": false,
      "inputs": [
        {
          "indexed": true,
          "internalType": "address",
          "name": "_job",
          "type": "address"
        },
        {
          "indexed": false,
          "internalType": "address",
          "name": "_liquidity",
          "type": "address"
        },
        {
          "indexed": true,
          "internalType": "address",
          "name": "_slasher",
          "type": "address"
        },
        {
          "indexed": false,
          "internalType": "uint256",
          "name": "_amount",
          "type": "uint256"
        }
      ],
      "name": "JobSlashLiquidity",
      "type": "event"
    },
    {
      "anonymous": false,
      "inputs": [
        {
          "indexed": true,
          "internalType": "address",
          "name": "_job",
          "type": "address"
        },
        {
          "indexed": false,
          "internalType": "address",
          "name": "_token",
          "type": "address"
        },
        {
          "indexed": true,
          "internalType": "address",
          "name": "_slasher",
          "type": "address"
        },
        {
          "indexed": false,
          "internalType": "uint256",
          "name": "_amount",
          "type": "uint256"
        }
      ],
      "name": "JobSlashToken",
      "type": "event"
    },
    {
      "anonymous": false,
      "inputs": [
        {
          "indexed": false,
          "internalType": "address",
          "name": "_keep3rHelper",
          "type": "address"
        }
      ],
      "name": "Keep3rHelperChange",
      "type": "event"
    },
    {
      "anonymous": false,
      "inputs": [
        {
          "indexed": false,
          "internalType": "address",
          "name": "_keep3rV1",
          "type": "address"
        }
      ],
      "name": "Keep3rV1Change",
      "type": "event"
    },
    {
      "anonymous": false,
      "inputs": [
        {
          "indexed": false,
          "internalType": "address",
          "name": "_keep3rV1Proxy",
          "type": "address"
        }
      ],
      "name": "Keep3rV1ProxyChange",
      "type": "event"
    },
    {
      "anonymous": false,
      "inputs": [
        {
          "indexed": false,
          "internalType": "address",
          "name": "_kp3rWethPool",
          "type": "address"
        }
      ],
      "name": "Kp3rWethPoolChange",
      "type": "event"
    },
    {
      "anonymous": false,
      "inputs": [
        {
          "indexed": true,
          "internalType": "address",
          "name": "_job",
          "type": "address"
        },
        {
          "indexed": true,
          "internalType": "address",
          "name": "_liquidity",
          "type": "address"
        },
        {
          "indexed": true,
          "internalType": "address",
          "name": "_provider",
          "type": "address"
        },
        {
          "indexed": false,
          "internalType": "uint256",
          "name": "_amount",
          "type": "uint256"
        }
      ],
      "name": "LiquidityAddition",
      "type": "event"
    },
    {
      "anonymous": false,
      "inputs": [
        {
          "indexed": false,
          "internalType": "address",
          "name": "_liquidity",
          "type": "address"
        }
      ],
      "name": "LiquidityApproval",
      "type": "event"
    },
    {
      "anonymous": false,
      "inputs": [
        {
          "indexed": true,
          "internalType": "address",
          "name": "_job",
          "type": "address"
        },
        {
          "indexed": false,
          "internalType": "uint256",
          "name": "_rewardedAt",
          "type": "uint256"
        },
        {
          "indexed": false,
          "internalType": "uint256",
          "name": "_currentCredits",
          "type": "uint256"
        }
      ],
      "name": "LiquidityCreditsForced",
      "type": "event"
    },
    {
      "anonymous": false,
      "inputs": [
        {
          "indexed": true,
          "internalType": "address",
          "name": "_job",
          "type": "address"
        },
        {
          "indexed": false,
          "internalType": "uint256",
          "name": "_rewardedAt",
          "type": "uint256"
        },
        {
          "indexed": false,
          "internalType": "uint256",
          "name": "_currentCredits",
          "type": "uint256"
        },
        {
          "indexed": false,
          "internalType": "uint256",
          "name": "_periodCredits",
          "type": "uint256"
        }
      ],
      "name": "LiquidityCreditsReward",
      "type": "event"
    },
    {
      "anonymous": false,
      "inputs": [
        {
          "indexed": false,
          "internalType": "uint256",
          "name": "_liquidityMinimum",
          "type": "uint256"
        }
      ],
      "name": "LiquidityMinimumChange",
      "type": "event"
    },
    {
      "anonymous": false,
      "inputs": [
        {
          "indexed": false,
          "internalType": "address",
          "name": "_liquidity",
          "type": "address"
        }
      ],
      "name": "LiquidityRevocation",
      "type": "event"
    },
    {
      "anonymous": false,
      "inputs": [
        {
          "indexed": true,
          "internalType": "address",
          "name": "_job",
          "type": "address"
        },
        {
          "indexed": true,
          "internalType": "address",
          "name": "_liquidity",
          "type": "address"
        },
        {
          "indexed": true,
          "internalType": "address",
          "name": "_receiver",
          "type": "address"
        },
        {
          "indexed": false,
          "internalType": "uint256",
          "name": "_amount",
          "type": "uint256"
        }
      ],
      "name": "LiquidityWithdrawal",
      "type": "event"
    },
    {
      "anonymous": false,
      "inputs": [
        {
          "indexed": true,
          "internalType": "address",
          "name": "_jobOrKeeper",
          "type": "address"
        },
        {
          "indexed": true,
          "internalType": "address",
          "name": "_resolver",
          "type": "address"
        }
      ],
      "name": "Resolve",
      "type": "event"
    },
    {
      "anonymous": false,
      "inputs": [
        {
          "indexed": false,
          "internalType": "uint256",
          "name": "_rewardPeriodTime",
          "type": "uint256"
        }
      ],
      "name": "RewardPeriodTimeChange",
      "type": "event"
    },
    {
      "anonymous": false,
      "inputs": [
        {
          "indexed": false,
          "internalType": "address",
          "name": "_slasher",
          "type": "address"
        }
      ],
      "name": "SlasherAdded",
      "type": "event"
    },
    {
      "anonymous": false,
      "inputs": [
        {
          "indexed": false,
          "internalType": "address",
          "name": "_slasher",
          "type": "address"
        }
      ],
      "name": "SlasherRemoved",
      "type": "event"
    },
    {
      "anonymous": false,
      "inputs": [
        {
          "indexed": true,
          "internalType": "address",
          "name": "_job",
          "type": "address"
        },
        {
          "indexed": true,
          "internalType": "address",
          "name": "_token",
          "type": "address"
        },
        {
          "indexed": true,
          "internalType": "address",
          "name": "_provider",
          "type": "address"
        },
        {
          "indexed": false,
          "internalType": "uint256",
          "name": "_amount",
          "type": "uint256"
        }
      ],
      "name": "TokenCreditAddition",
      "type": "event"
    },
    {
      "anonymous": false,
      "inputs": [
        {
          "indexed": true,
          "internalType": "address",
          "name": "_job",
          "type": "address"
        },
        {
          "indexed": true,
          "internalType": "address",
          "name": "_token",
          "type": "address"
        },
        {
          "indexed": true,
          "internalType": "address",
          "name": "_receiver",
          "type": "address"
        },
        {
          "indexed": false,
          "internalType": "uint256",
          "name": "_amount",
          "type": "uint256"
        }
      ],
      "name": "TokenCreditWithdrawal",
      "type": "event"
    },
    {
      "anonymous": false,
      "inputs": [
        {
          "indexed": false,
          "internalType": "uint256",
          "name": "_unbondTime",
          "type": "uint256"
        }
      ],
      "name": "UnbondTimeChange",
      "type": "event"
    },
    {
      "anonymous": false,
      "inputs": [
        {
          "indexed": true,
          "internalType": "address",
          "name": "_keeperOrJob",
          "type": "address"
        },
        {
          "indexed": true,
          "internalType": "address",
          "name": "_unbonding",
          "type": "address"
        },
        {
          "indexed": false,
          "internalType": "uint256",
          "name": "_amount",
          "type": "uint256"
        }
      ],
      "name": "Unbonding",
      "type": "event"
    },
    {
      "inputs": [],
      "name": "acceptGovernance",
      "outputs": [],
      "stateMutability": "nonpayable",
      "type": "function"
    },
    {
      "inputs": [
        {
          "internalType": "address",
          "name": "_job",
          "type": "address"
        }
      ],
      "name": "acceptJobOwnership",
      "outputs": [],
      "stateMutability": "nonpayable",
      "type": "function"
    },
    {
      "inputs": [
        {
          "internalType": "address",
          "name": "_disputer",
          "type": "address"
        }
      ],
      "name": "addDisputer",
      "outputs": [],
      "stateMutability": "nonpayable",
      "type": "function"
    },
    {
      "inputs": [
        {
          "internalType": "address",
          "name": "_job",
          "type": "address"
        },
        {
          "internalType": "address",
          "name": "_liquidity",
          "type": "address"
        },
        {
          "internalType": "uint256",
          "name": "_amount",
          "type": "uint256"
        }
      ],
      "name": "addLiquidityToJob",
      "outputs": [],
      "stateMutability": "nonpayable",
      "type": "function"
    },
    {
      "inputs": [
        {
          "internalType": "address",
          "name": "_slasher",
          "type": "address"
        }
      ],
      "name": "addSlasher",
      "outputs": [],
      "stateMutability": "nonpayable",
      "type": "function"
    },
    {
      "inputs": [
        {
          "internalType": "address",
          "name": "_job",
          "type": "address"
        },
        {
          "internalType": "address",
          "name": "_token",
          "type": "address"
        },
        {
          "internalType": "uint256",
          "name": "_amount",
          "type": "uint256"
        }
      ],
      "name": "addTokenCreditsToJob",
      "outputs": [],
      "stateMutability": "nonpayable",
      "type": "function"
    },
    {
      "inputs": [
        {
          "internalType": "address",
          "name": "_liquidity",
          "type": "address"
        }
      ],
      "name": "approveLiquidity",
      "outputs": [],
      "stateMutability": "nonpayable",
      "type": "function"
    },
    {
      "inputs": [],
      "name": "approvedLiquidities",
      "outputs": [
        {
          "internalType": "address[]",
          "name": "_list",
          "type": "address[]"
        }
      ],
      "stateMutability": "view",
      "type": "function"
    },
    {
      "inputs": [],
      "name": "bondTime",
      "outputs": [
        {
          "internalType": "uint256",
          "name": "",
          "type": "uint256"
        }
      ],
      "stateMutability": "view",
      "type": "function"
    },
    {
      "inputs": [
        {
          "internalType": "address",
          "name": "",
          "type": "address"
        },
        {
          "internalType": "address",
          "name": "",
          "type": "address"
        }
      ],
      "name": "bonds",
      "outputs": [
        {
          "internalType": "uint256",
          "name": "",
          "type": "uint256"
        }
      ],
      "stateMutability": "view",
      "type": "function"
    },
    {
      "inputs": [
        {
          "internalType": "address",
          "name": "",
          "type": "address"
        },
        {
          "internalType": "address",
          "name": "",
          "type": "address"
        }
      ],
      "name": "canActivateAfter",
      "outputs": [
        {
          "internalType": "uint256",
          "name": "",
          "type": "uint256"
        }
      ],
      "stateMutability": "view",
      "type": "function"
    },
    {
      "inputs": [
        {
          "internalType": "address",
          "name": "",
          "type": "address"
        },
        {
          "internalType": "address",
          "name": "",
          "type": "address"
        }
      ],
      "name": "canWithdrawAfter",
      "outputs": [
        {
          "internalType": "uint256",
          "name": "",
          "type": "uint256"
        }
      ],
      "stateMutability": "view",
      "type": "function"
    },
    {
      "inputs": [
        {
          "internalType": "address",
          "name": "_job",
          "type": "address"
        },
        {
          "internalType": "address",
          "name": "_newOwner",
          "type": "address"
        }
      ],
      "name": "changeJobOwnership",
      "outputs": [],
      "stateMutability": "nonpayable",
      "type": "function"
    },
    {
      "inputs": [
        {
          "internalType": "address",
          "name": "_jobOrKeeper",
          "type": "address"
        }
      ],
      "name": "dispute",
      "outputs": [],
      "stateMutability": "nonpayable",
      "type": "function"
    },
    {
      "inputs": [
        {
          "internalType": "address",
          "name": "",
          "type": "address"
        }
      ],
      "name": "disputers",
      "outputs": [
        {
          "internalType": "bool",
          "name": "",
          "type": "bool"
        }
      ],
      "stateMutability": "view",
      "type": "function"
    },
    {
      "inputs": [
        {
          "internalType": "address",
          "name": "",
          "type": "address"
        }
      ],
      "name": "disputes",
      "outputs": [
        {
          "internalType": "bool",
          "name": "",
          "type": "bool"
        }
      ],
      "stateMutability": "view",
      "type": "function"
    },
    {
      "inputs": [],
      "name": "fee",
      "outputs": [
        {
          "internalType": "uint256",
          "name": "",
          "type": "uint256"
        }
      ],
      "stateMutability": "view",
      "type": "function"
    },
    {
      "inputs": [
        {
          "internalType": "address",
          "name": "",
          "type": "address"
        }
      ],
      "name": "firstSeen",
      "outputs": [
        {
          "internalType": "uint256",
          "name": "",
          "type": "uint256"
        }
      ],
      "stateMutability": "view",
      "type": "function"
    },
    {
      "inputs": [
        {
          "internalType": "address",
          "name": "_job",
          "type": "address"
        },
        {
          "internalType": "uint256",
          "name": "_amount",
          "type": "uint256"
        }
      ],
      "name": "forceLiquidityCreditsToJob",
      "outputs": [],
      "stateMutability": "nonpayable",
      "type": "function"
    },
    {
      "inputs": [],
      "name": "governance",
      "outputs": [
        {
          "internalType": "address",
          "name": "",
          "type": "address"
        }
      ],
      "stateMutability": "view",
      "type": "function"
    },
    {
      "inputs": [
        {
          "internalType": "address",
          "name": "",
          "type": "address"
        }
      ],
      "name": "hasBonded",
      "outputs": [
        {
          "internalType": "bool",
          "name": "",
          "type": "bool"
        }
      ],
      "stateMutability": "view",
      "type": "function"
    },
    {
      "inputs": [],
      "name": "inflationPeriod",
      "outputs": [
        {
          "internalType": "uint256",
          "name": "",
          "type": "uint256"
        }
      ],
      "stateMutability": "view",
      "type": "function"
    },
    {
      "inputs": [
        {
          "internalType": "address",
          "name": "_job",
          "type": "address"
        }
      ],
      "name": "internalJobLiquidities",
      "outputs": [
        {
          "internalType": "address[]",
          "name": "_tokens",
          "type": "address[]"
        }
      ],
      "stateMutability": "view",
      "type": "function"
    },
    {
      "inputs": [
        {
          "internalType": "address",
          "name": "_job",
          "type": "address"
        }
      ],
      "name": "internalJobLiquidityCredits",
      "outputs": [
        {
          "internalType": "uint256",
          "name": "_credits",
          "type": "uint256"
        }
      ],
      "stateMutability": "view",
      "type": "function"
    },
    {
      "inputs": [
        {
          "internalType": "address",
          "name": "_job",
          "type": "address"
        }
      ],
      "name": "internalJobPeriodCredits",
      "outputs": [
        {
          "internalType": "uint256",
          "name": "_credits",
          "type": "uint256"
        }
      ],
      "stateMutability": "view",
      "type": "function"
    },
    {
      "inputs": [
        {
          "internalType": "address",
          "name": "_job",
          "type": "address"
        }
      ],
      "name": "internalJobTokens",
      "outputs": [
        {
          "internalType": "address[]",
          "name": "_tokens",
          "type": "address[]"
        }
      ],
      "stateMutability": "view",
      "type": "function"
    },
    {
      "inputs": [
        {
          "internalType": "address",
          "name": "_job",
          "type": "address"
        }
      ],
      "name": "jobLiquidityCredits",
      "outputs": [
        {
          "internalType": "uint256",
          "name": "_liquidityCredits",
          "type": "uint256"
        }
      ],
      "stateMutability": "view",
      "type": "function"
    },
    {
      "inputs": [
        {
          "internalType": "address",
          "name": "",
          "type": "address"
        }
      ],
      "name": "jobOwner",
      "outputs": [
        {
          "internalType": "address",
          "name": "",
          "type": "address"
        }
      ],
      "stateMutability": "view",
      "type": "function"
    },
    {
      "inputs": [
        {
          "internalType": "address",
          "name": "",
          "type": "address"
        }
      ],
      "name": "jobPendingOwner",
      "outputs": [
        {
          "internalType": "address",
          "name": "",
          "type": "address"
        }
      ],
      "stateMutability": "view",
      "type": "function"
    },
    {
      "inputs": [
        {
          "internalType": "address",
          "name": "_job",
          "type": "address"
        }
      ],
      "name": "jobPeriodCredits",
      "outputs": [
        {
          "internalType": "uint256",
          "name": "_periodCredits",
          "type": "uint256"
        }
      ],
      "stateMutability": "view",
      "type": "function"
    },
    {
      "inputs": [
        {
          "internalType": "address",
          "name": "",
          "type": "address"
        },
        {
          "internalType": "address",
          "name": "",
          "type": "address"
        }
      ],
      "name": "jobTokenCredits",
      "outputs": [
        {
          "internalType": "uint256",
          "name": "",
          "type": "uint256"
        }
      ],
      "stateMutability": "view",
      "type": "function"
    },
    {
      "inputs": [
        {
          "internalType": "address",
          "name": "",
          "type": "address"
        },
        {
          "internalType": "address",
          "name": "",
          "type": "address"
        }
      ],
      "name": "jobTokenCreditsAddedAt",
      "outputs": [
        {
          "internalType": "uint256",
          "name": "",
          "type": "uint256"
        }
      ],
      "stateMutability": "view",
      "type": "function"
    },
    {
      "inputs": [],
      "name": "jobs",
      "outputs": [
        {
          "internalType": "address[]",
          "name": "_list",
          "type": "address[]"
        }
      ],
      "stateMutability": "view",
      "type": "function"
    },
    {
      "inputs": [],
      "name": "keep3rHelper",
      "outputs": [
        {
          "internalType": "address",
          "name": "",
          "type": "address"
        }
      ],
      "stateMutability": "view",
      "type": "function"
    },
    {
      "inputs": [],
      "name": "keep3rV1",
      "outputs": [
        {
          "internalType": "address",
          "name": "",
          "type": "address"
        }
      ],
      "stateMutability": "view",
      "type": "function"
    },
    {
      "inputs": [],
      "name": "keep3rV1Proxy",
      "outputs": [
        {
          "internalType": "address",
          "name": "",
          "type": "address"
        }
      ],
      "stateMutability": "view",
      "type": "function"
    },
    {
      "inputs": [],
      "name": "keepers",
      "outputs": [
        {
          "internalType": "address[]",
          "name": "_list",
          "type": "address[]"
        }
      ],
      "stateMutability": "view",
      "type": "function"
    },
    {
      "inputs": [],
      "name": "kp3rWethPool",
      "outputs": [
        {
          "internalType": "address",
          "name": "",
          "type": "address"
        }
      ],
      "stateMutability": "view",
      "type": "function"
    },
    {
      "inputs": [
        {
          "internalType": "address",
          "name": "",
          "type": "address"
        },
        {
          "internalType": "address",
          "name": "",
          "type": "address"
        }
      ],
      "name": "liquidityAmount",
      "outputs": [
        {
          "internalType": "uint256",
          "name": "",
          "type": "uint256"
        }
      ],
      "stateMutability": "view",
      "type": "function"
    },
    {
      "inputs": [],
      "name": "liquidityMinimum",
      "outputs": [
        {
          "internalType": "uint256",
          "name": "",
          "type": "uint256"
        }
      ],
      "stateMutability": "view",
      "type": "function"
    },
    {
      "inputs": [
        {
          "internalType": "address",
          "name": "_liquidity",
          "type": "address"
        }
      ],
      "name": "observeLiquidity",
      "outputs": [
        {
          "components": [
            {
              "internalType": "int56",
              "name": "current",
              "type": "int56"
            },
            {
              "internalType": "int56",
              "name": "difference",
              "type": "int56"
            },
            {
              "internalType": "uint256",
              "name": "period",
              "type": "uint256"
            }
          ],
          "internalType": "struct IKeep3rJobFundableLiquidity.TickCache",
          "name": "_tickCache",
          "type": "tuple"
        }
      ],
      "stateMutability": "view",
      "type": "function"
    },
    {
      "inputs": [
        {
          "internalType": "address",
          "name": "",
          "type": "address"
        },
        {
          "internalType": "address",
          "name": "",
          "type": "address"
        }
      ],
      "name": "pendingBonds",
      "outputs": [
        {
          "internalType": "uint256",
          "name": "",
          "type": "uint256"
        }
      ],
      "stateMutability": "view",
      "type": "function"
    },
    {
      "inputs": [],
      "name": "pendingGovernance",
      "outputs": [
        {
          "internalType": "address",
          "name": "",
          "type": "address"
        }
      ],
      "stateMutability": "view",
      "type": "function"
    },
    {
      "inputs": [
        {
          "internalType": "address",
          "name": "",
          "type": "address"
        },
        {
          "internalType": "address",
          "name": "",
          "type": "address"
        }
      ],
      "name": "pendingUnbonds",
      "outputs": [
        {
          "internalType": "uint256",
          "name": "",
          "type": "uint256"
        }
      ],
      "stateMutability": "view",
      "type": "function"
    },
    {
      "inputs": [
        {
          "internalType": "address",
          "name": "_liquidity",
          "type": "address"
        },
        {
          "internalType": "uint256",
          "name": "_amount",
          "type": "uint256"
        }
      ],
      "name": "quoteLiquidity",
      "outputs": [
        {
          "internalType": "uint256",
          "name": "_periodCredits",
          "type": "uint256"
        }
      ],
      "stateMutability": "view",
      "type": "function"
    },
    {
      "inputs": [
        {
          "internalType": "address",
          "name": "_disputer",
          "type": "address"
        }
      ],
      "name": "removeDisputer",
      "outputs": [],
      "stateMutability": "nonpayable",
      "type": "function"
    },
    {
      "inputs": [
        {
          "internalType": "address",
          "name": "_slasher",
          "type": "address"
        }
      ],
      "name": "removeSlasher",
      "outputs": [],
      "stateMutability": "nonpayable",
      "type": "function"
    },
    {
      "inputs": [
        {
          "internalType": "address",
          "name": "_jobOrKeeper",
          "type": "address"
        }
      ],
      "name": "resolve",
      "outputs": [],
      "stateMutability": "nonpayable",
      "type": "function"
    },
    {
      "inputs": [
        {
          "internalType": "address",
          "name": "_liquidity",
          "type": "address"
        }
      ],
      "name": "revokeLiquidity",
      "outputs": [],
      "stateMutability": "nonpayable",
      "type": "function"
    },
    {
      "inputs": [],
      "name": "rewardPeriodTime",
      "outputs": [
        {
          "internalType": "uint256",
          "name": "",
          "type": "uint256"
        }
      ],
      "stateMutability": "view",
      "type": "function"
    },
    {
      "inputs": [
        {
          "internalType": "address",
          "name": "",
          "type": "address"
        }
      ],
      "name": "rewardedAt",
      "outputs": [
        {
          "internalType": "uint256",
          "name": "",
          "type": "uint256"
        }
      ],
      "stateMutability": "view",
      "type": "function"
    },
    {
      "inputs": [
        {
          "internalType": "address",
          "name": "_liquidity",
          "type": "address"
        }
      ],
      "name": "setApprovedLiquidity",
      "outputs": [],
      "stateMutability": "nonpayable",
      "type": "function"
    },
    {
      "inputs": [
        {
          "internalType": "uint256",
          "name": "_bondTime",
          "type": "uint256"
        }
      ],
      "name": "setBondTime",
      "outputs": [],
      "stateMutability": "nonpayable",
      "type": "function"
    },
    {
      "inputs": [
        {
          "internalType": "uint256",
          "name": "_fee",
          "type": "uint256"
        }
      ],
      "name": "setFee",
      "outputs": [],
      "stateMutability": "nonpayable",
      "type": "function"
    },
    {
      "inputs": [
        {
          "internalType": "address",
          "name": "_governance",
          "type": "address"
        }
      ],
      "name": "setGovernance",
      "outputs": [],
      "stateMutability": "nonpayable",
      "type": "function"
    },
    {
      "inputs": [
        {
          "internalType": "uint256",
          "name": "_inflationPeriod",
          "type": "uint256"
        }
      ],
      "name": "setInflationPeriod",
      "outputs": [],
      "stateMutability": "nonpayable",
      "type": "function"
    },
    {
      "inputs": [
        {
          "internalType": "address",
          "name": "_job",
          "type": "address"
        },
        {
          "internalType": "address",
          "name": "_liquidity",
          "type": "address"
        }
      ],
      "name": "setJobLiquidity",
      "outputs": [],
      "stateMutability": "nonpayable",
      "type": "function"
    },
    {
      "inputs": [
        {
          "internalType": "address",
          "name": "_job",
          "type": "address"
        },
        {
          "internalType": "address",
          "name": "_token",
          "type": "address"
        }
      ],
      "name": "setJobToken",
      "outputs": [],
      "stateMutability": "nonpayable",
      "type": "function"
    },
    {
      "inputs": [
        {
          "internalType": "address",
          "name": "_keep3rHelper",
          "type": "address"
        }
      ],
      "name": "setKeep3rHelper",
      "outputs": [],
      "stateMutability": "nonpayable",
      "type": "function"
    },
    {
      "inputs": [
        {
          "internalType": "address",
          "name": "_keep3rV1",
          "type": "address"
        }
      ],
      "name": "setKeep3rV1",
      "outputs": [],
      "stateMutability": "nonpayable",
      "type": "function"
    },
    {
      "inputs": [
        {
          "internalType": "address",
          "name": "_keep3rV1Proxy",
          "type": "address"
        }
      ],
      "name": "setKeep3rV1Proxy",
      "outputs": [],
      "stateMutability": "nonpayable",
      "type": "function"
    },
    {
      "inputs": [
        {
          "internalType": "address",
          "name": "_kp3rWethPool",
          "type": "address"
        }
      ],
      "name": "setKp3rWethPool",
      "outputs": [],
      "stateMutability": "nonpayable",
      "type": "function"
    },
    {
      "inputs": [
        {
          "internalType": "uint256",
          "name": "_liquidityMinimum",
          "type": "uint256"
        }
      ],
      "name": "setLiquidityMinimum",
      "outputs": [],
      "stateMutability": "nonpayable",
      "type": "function"
    },
    {
      "inputs": [
        {
          "internalType": "address",
          "name": "_liquidity",
          "type": "address"
        }
      ],
      "name": "setRevokedLiquidity",
      "outputs": [],
      "stateMutability": "nonpayable",
      "type": "function"
    },
    {
      "inputs": [
        {
          "internalType": "uint256",
          "name": "_rewardPeriodTime",
          "type": "uint256"
        }
      ],
      "name": "setRewardPeriodTime",
      "outputs": [],
      "stateMutability": "nonpayable",
      "type": "function"
    },
    {
      "inputs": [
        {
          "internalType": "uint256",
          "name": "_unbondTime",
          "type": "uint256"
        }
      ],
      "name": "setUnbondTime",
      "outputs": [],
      "stateMutability": "nonpayable",
      "type": "function"
    },
    {
      "inputs": [
        {
          "internalType": "address",
          "name": "_job",
          "type": "address"
        },
        {
          "internalType": "address",
          "name": "_liquidity",
          "type": "address"
        },
        {
          "internalType": "uint256",
          "name": "_amount",
          "type": "uint256"
        }
      ],
      "name": "slashLiquidityFromJob",
      "outputs": [],
      "stateMutability": "nonpayable",
      "type": "function"
    },
    {
      "inputs": [
        {
          "internalType": "address",
          "name": "_job",
          "type": "address"
        },
        {
          "internalType": "address",
          "name": "_token",
          "type": "address"
        },
        {
          "internalType": "uint256",
          "name": "_amount",
          "type": "uint256"
        }
      ],
      "name": "slashTokenFromJob",
      "outputs": [],
      "stateMutability": "nonpayable",
      "type": "function"
    },
    {
      "inputs": [
        {
          "internalType": "address",
          "name": "",
          "type": "address"
        }
      ],
      "name": "slashers",
      "outputs": [
        {
          "internalType": "bool",
          "name": "",
          "type": "bool"
        }
      ],
      "stateMutability": "view",
      "type": "function"
    },
    {
      "inputs": [
        {
          "internalType": "address",
          "name": "_job",
          "type": "address"
        }
      ],
      "name": "totalJobCredits",
      "outputs": [
        {
          "internalType": "uint256",
          "name": "_credits",
          "type": "uint256"
        }
      ],
      "stateMutability": "view",
      "type": "function"
    },
    {
      "inputs": [
        {
          "internalType": "address",
          "name": "_job",
          "type": "address"
        },
        {
          "internalType": "address",
          "name": "_liquidity",
          "type": "address"
        },
        {
          "internalType": "uint256",
          "name": "_amount",
          "type": "uint256"
        }
      ],
      "name": "unbondLiquidityFromJob",
      "outputs": [],
      "stateMutability": "nonpayable",
      "type": "function"
    },
    {
      "inputs": [],
      "name": "unbondTime",
      "outputs": [
        {
          "internalType": "uint256",
          "name": "",
          "type": "uint256"
        }
      ],
      "stateMutability": "view",
      "type": "function"
    },
    {
      "inputs": [
        {
          "internalType": "address",
          "name": "_job",
          "type": "address"
        },
        {
          "internalType": "address",
          "name": "_liquidity",
          "type": "address"
        },
        {
          "internalType": "address",
          "name": "_receiver",
          "type": "address"
        }
      ],
      "name": "withdrawLiquidityFromJob",
      "outputs": [],
      "stateMutability": "nonpayable",
      "type": "function"
    },
    {
      "inputs": [
        {
          "internalType": "address",
          "name": "_job",
          "type": "address"
        },
        {
          "internalType": "address",
          "name": "_token",
          "type": "address"
        },
        {
          "internalType": "uint256",
          "name": "_amount",
          "type": "uint256"
        },
        {
          "internalType": "address",
          "name": "_receiver",
          "type": "address"
        }
      ],
      "name": "withdrawTokenCreditsFromJob",
      "outputs": [],
      "stateMutability": "nonpayable",
      "type": "function"
    },
    {
      "inputs": [
        {
          "internalType": "address",
          "name": "",
          "type": "address"
        }
      ],
      "name": "workCompleted",
      "outputs": [
        {
          "internalType": "uint256",
          "name": "",
          "type": "uint256"
        }
      ],
      "stateMutability": "view",
      "type": "function"
    },
    {
      "inputs": [
        {
          "internalType": "address",
          "name": "",
          "type": "address"
        }
      ],
      "name": "workedAt",
      "outputs": [
        {
          "internalType": "uint256",
          "name": "",
          "type": "uint256"
        }
      ],
      "stateMutability": "view",
      "type": "function"
    }
  ],
  "bytecode": "0x60806040526203f480601f55621275006020556729a2241af62c000060215562069780602255622cd300602355601e6024553480156200003e57600080fd5b506040516200484d3803806200484d8339810160408190526200006191620001b4565b6001600055838383833380806200008a5760405162b293ed60e81b815260040160405180910390fd5b601780546001600160a01b03199081166001600160a01b0393841617909155601d80548216888416178155601b80548316888516179055601c80548316878516179055601e8054831686851690811782556000818152600e602052604090819020805490951690911790935590549054915163696a437b60e01b81529183166004830152909116915063696a437b90602401602060405180830381865afa1580156200013a573d6000803e3d6000fd5b505050506040513d601f19601f8201168201806040525081019062000160919062000211565b6001600160a01b03919091166000908152600f60205260409020805460ff1916911515919091179055506200023c95505050505050565b80516001600160a01b0381168114620001af57600080fd5b919050565b60008060008060808587031215620001cb57600080fd5b620001d68562000197565b9350620001e66020860162000197565b9250620001f66040860162000197565b9150620002066060860162000197565b905092959194509250565b6000602082840312156200022457600080fd5b815180151581146200023557600080fd5b9392505050565b614601806200024c6000396000f3fe608060405234801561001057600080fd5b50600436106104545760003560e01c80638fe204dd11610241578063cb54694d1161013b578063ebbb6194116100c3578063f25e311b11610087578063f25e311b14610b40578063f39c38a014610b53578063f75f9f7b14610b66578063fc253d2b14610b79578063fe75bc4614610b8257600080fd5b8063ebbb619414610ad4578063ec00cdfc14610ae7578063f0f346b914610afa578063f11a1d1a14610b0d578063f136a09d14610b2057600080fd5b8063de55351d1161010a578063de55351d14610a52578063deaf81d414610a7b578063e01f857c14610a8e578063e326ac4314610aa1578063e89aad2814610ac157600080fd5b8063cb54694d146109f8578063cd22af1b14610a0b578063d55995fe14610a36578063ddca3f4314610a4957600080fd5b8063ab033ea9116101c9578063b7e773401161018d578063b7e7734014610989578063b87fcbff1461099c578063c7ae40d0146109bf578063cacdf93d146109d2578063cb4be2bb146109e557600080fd5b8063ab033ea914610902578063b0103b1a14610915578063b239223314610938578063b440027f1461094b578063b600702a1461097657600080fd5b8063a214580911610210578063a214580914610888578063a39744b51461089b578063a676f9ff146108c6578063a7d2e784146108e6578063aac6aa9c146108ef57600080fd5b80638fe204dd14610831578063951dc22c1461084457806398e90a0f1461084c5780639d5c33d81461087557600080fd5b8063594a3a93116103525780636cf262bc116102da5780637b40c9131161029e5780637b40c913146107b75780637c8fce23146107ca578063878c723e146107d25780638bb6dfa8146107fb5780638cb22b761461080e57600080fd5b80636cf262bc146107625780636e2a9ca61461077557806372da828a1461078857806375a9f7ff1461079b578063768b5d90146107ae57600080fd5b8063633fb68f11610321578063633fb68f146106f557806364bb43ee146106fe57806368a9f19c14610711578063694798e61461072457806369fe0e2d1461074f57600080fd5b8063594a3a93146106b357806359a2255e146106c65780635aa6e675146106d95780635ebe23f0146106ec57600080fd5b8063168f92e7116103e0578063274a8db4116103a4578063274a8db414610634578063280b656c1461066757806352a4de291461067a57806355ea6c471461068d578063575288bf146106a057600080fd5b8063168f92e71461058b5780631b44555e146105b65780631ef94b91146105d657806321040b0114610601578063238efcbc1461062c57600080fd5b80630dc60206116104275780630dc60206146104d25780631101eb41146104fb57806315006b8214610510578063160e1e311461053b578063165e62e71461054e57600080fd5b8063034d4c611461045957806307b435c21461047f5780630c620bce146104aa5780630d6a1f87146104bf575b600080fd5b61046c6104673660046140cd565b610b95565b6040519081526020015b60405180910390f35b61046c61048d3660046140ea565b601260209081526000928352604080842090915290825290205481565b6104b2610c9b565b6040516104769190614123565b61046c6104cd366004614170565b610cac565b61046c6104e03660046140cd565b6001600160a01b03166000908152600b602052604090205490565b61050e61050936600461419c565b610db0565b005b61046c61051e3660046140ea565b601060209081526000928352604080842090915290825290205481565b61050e6105493660046140cd565b610f0a565b61056161055c3660046140cd565b611058565b604080518251600690810b825260208085015190910b908201529181015190820152606001610476565b61046c6105993660046140ea565b600960209081526000928352604080842090915290825290205481565b61046c6105c43660046140cd565b60056020526000908152604090205481565b601b546105e9906001600160a01b031681565b6040516001600160a01b039091168152602001610476565b61046c61060f3660046140ea565b601360209081526000928352604080842090915290825290205481565b61050e6113eb565b6106576106423660046140cd565b601a6020526000908152604090205460ff1681565b6040519015158152602001610476565b61050e6106753660046140cd565b611474565b61050e61068836600461419c565b611483565b61050e61069b3660046140cd565b6116d0565b61050e6106ae36600461419c565b611784565b61050e6106c13660046140ea565b611a20565b61050e6106d43660046140cd565b611ac5565b6017546105e9906001600160a01b031681565b61046c601f5481565b61046c60215481565b61050e61070c3660046140cd565b611b77565b61050e61071f3660046140cd565b611c03565b61046c6107323660046140ea565b602860209081526000928352604080842090915290825290205481565b61050e61075d3660046141dd565b611cbc565b61046c6107703660046140cd565b611d1c565b61050e61078336600461419c565b611e64565b61050e6107963660046140cd565b611f9d565b6104b26107a93660046140cd565b61203d565b61046c60225481565b601e546105e9906001600160a01b031681565b6104b261212e565b6105e96107e03660046140cd565b6001602052600090815260409020546001600160a01b031681565b61046c6108093660046140cd565b61213a565b61065761081c3660046140cd565b60146020526000908152604090205460ff1681565b61050e61083f3660046141dd565b6121dd565b6104b261223b565b6105e961085a3660046140cd565b6002602052600090815260409020546001600160a01b031681565b61050e6108833660046140cd565b612247565b61050e6108963660046141f6565b612300565b61046c6108a93660046140ea565b600860209081526000928352604080842090915290825290205481565b61046c6108d43660046140cd565b60296020526000908152604090205481565b61046c60205481565b61050e6108fd3660046140cd565b6124d4565b61050e6109103660046140cd565b612589565b6106576109233660046140cd565b60076020526000908152604090205460ff1681565b61050e6109463660046141dd565b612602565b61046c6109593660046140ea565b602560209081526000928352604080842090915290825290205481565b61050e6109843660046140cd565b612662565b61050e6109973660046141dd565b61285c565b6106576109aa3660046140cd565b60196020526000908152604090205460ff1681565b601c546105e9906001600160a01b031681565b61050e6109e03660046140ea565b6128bc565b61050e6109f33660046140cd565b6128e3565b61050e610a063660046141dd565b612983565b61046c610a193660046140ea565b601160209081526000928352604080842090915290825290205481565b61050e610a44366004614241565b612a07565b61046c60245481565b61046c610a603660046140cd565b6001600160a01b03166000908152600a602052604090205490565b61050e610a893660046140cd565b612c41565b61050e610a9c3660046140ea565b612c4c565b61046c610aaf3660046140cd565b60066020526000908152604090205481565b6104b2610acf3660046140cd565b612c6e565b61050e610ae23660046141dd565b612d5f565b61050e610af53660046140cd565b612dbf565b61050e610b083660046140cd565b612e5f565b601d546105e9906001600160a01b031681565b61046c610b2e3660046140cd565b602a6020526000908152604090205481565b61050e610b4e36600461419c565b612f14565b6018546105e9906001600160a01b031681565b61050e610b743660046140cd565b61314b565b61046c60235481565b61050e610b90366004614170565b613203565b600080610ba183611d1c565b6022549091504290610bbc90610bb790836142aa565b6132f3565b6001600160a01b0385166000908152602960205260409020541115610c60576022546001600160a01b038516600090815260296020526040902054610c0190426142aa565b10610c3d576022546001600160a01b038516600090815260296020526040902054610c2c91906142c1565b610c3690826142aa565b9050610c76565b6001600160a01b038416600090815260296020526040902054610c3690826142aa565b610c69426132f3565b610c7390826142aa565b90505b610c80818361330d565b610c898561213a565b610c9391906142c1565b949350505050565b6060610ca76026613337565b905090565b6000610cb960268461334b565b15610daa576000610cc984611058565b90508060400151600014610da8576001600160a01b0384166000908152600f602052604081205460ff16610d0a578160200151610d05906142d9565b610d10565b81602001515b601d5460225460405163a0d2710760e01b815260048101889052600684900b60248201526044810191909152919250610d9f916001600160a01b039091169063a0d27107906064015b602060405180830381865afa158015610d76573d6000803e3d6000fd5b505050506040513d601f19601f82011682018060405250810190610d9a91906142ff565b61336d565b92505050610daa565b505b92915050565b6001600160a01b038381166000908152600160205260409020548491163314610dec57604051636efb4f4160e11b815260040160405180910390fd5b602054610df990426142c1565b6001600160a01b03808616600081815260126020908152604080832094891680845294825280832095909555918152601382528381209281529190529081208054849290610e489084906142c1565b90915550610e59905084848461337e565b6001600160a01b038085166000908152602860209081526040808320938716835292905220548015801590610e985750602154610e96828661358f565b105b15610eb657604051636f447fcd60e11b815260040160405180910390fd5b836001600160a01b0316856001600160a01b03167f9aaab310d247ad45aef26bbdefc4ebf20c728fdb84c92b95b2b05d21826940de85604051610efb91815260200190565b60405180910390a35050505050565b6017546001600160a01b03163314610f35576040516354348f0360e01b815260040160405180910390fd5b6001600160a01b038116610f5c5760405163d92e233d60e01b815260040160405180910390fd5b601e80546001600160a01b038381166001600160a01b031992831681179093556000838152600e60205260409081902080549093168417909255601d54915163696a437b60e01b81526004810193909352169063696a437b90602401602060405180830381865afa158015610fd5573d6000803e3d6000fd5b505050506040513d601f19601f82011682018060405250810190610ff99190614328565b6001600160a01b0382166000818152600f6020908152604091829020805460ff191694151594909417909355519081527f9bb1515b0fc2645a3f011162460a22fdd512e0bca265e7dc9ba6bceae8930afa91015b60405180910390a150565b604080516060810182526000808252602082018190529181019190915261107e426132f3565b6001600160a01b0383166000908152602b6020526040902060010154036110eb57506001600160a01b03166000908152602b602090815260409182902082516060810184528154600681810b8352600160381b909104900b92810192909252600101549181019190915290565b6000806110ff60225442610bb791906142aa565b6001600160a01b0385166000908152602b602052604090206001015490915081900361124e57604080516001808252818301909252600091602080830190803683375050506001600160a01b0386166000908152602b602052604090205490915060060b61116c426132f3565b61117690426142aa565b8260008151811061118957611189614359565b63ffffffff909216602092830291909101820152601d546001600160a01b038881166000908152600e90935260409283902054925163dc686d9160e01b81529181169263dc686d91926111e5929190911690869060040161436f565b606060405180830381865afa158015611202573d6000803e3d6000fd5b505050506040513d601f19601f8201168201806040525081019061122691906143dd565b60069290920b80885291955061123e91839150614420565b60060b6020860152506113c29050565b6001600160a01b0384166000908152602b60205260409020600101548111156113c25760408051600280825260608201835260009260208301908036833701905050905061129b426132f3565b6112a590426142aa565b816000815181106112b8576112b8614359565b602002602001019063ffffffff16908163ffffffff16815250506022546112de426132f3565b6112e890426142aa565b6112f291906142c1565b8160018151811061130557611305614359565b63ffffffff909216602092830291909101820152601d546001600160a01b038781166000908152600e909352604080842054905163dc686d9160e01b81529282169263dc686d919261135d921690869060040161436f565b606060405180830381865afa15801561137a573d6000803e3d6000fd5b505050506040513d601f19601f8201168201806040525081019061139e91906143dd565b60069290920b80885291955091506113b7908290614420565b60060b602086015250505b81156113db576113d1426132f3565b60408401526113e3565b600060408401525b50505b919050565b6018546001600160a01b0316331461141657604051637ef5703160e11b815260040160405180910390fd5b60188054601780546001600160a01b0383166001600160a01b031991821681179092559091169091556040519081527fc73be659241aade67e9a059bcf21494955018b213dbd1179054ccf928b13f3b69060200160405180910390a1565b61147f6026826136a8565b5050565b6002600054036114ae5760405162461bcd60e51b81526004016114a590614470565b60405180910390fd5b60026000556114be60268361334b565b6114db5760405163e0b6aead60e01b815260040160405180910390fd5b6114e660158461334b565b61150357604051636211d34960e01b815260040160405180910390fd5b6001600160a01b0383166000908152600d6020526040902061152590836136a8565b5061152f836136bd565b6021546001600160a01b0380851660009081526028602090815260408083209387168352929052205461156d906115679084906142c1565b8461358f565b101561158c57604051636f447fcd60e11b815260040160405180910390fd5b6001600160a01b038316600081815260296020908152604080832054600a835281842054600b845293829020548251918252928101939093528201527fee3f0daba9837d1ab0597acf34328550e4832d02e24e467825e7c2dd318c38209060600160405180910390a261160a6001600160a01b03831633308461371b565b6001600160a01b038084166000908152602860209081526040808320938616835292905290812080548392906116419084906142c1565b909155506116549050610d9a828461358f565b6001600160a01b0384166000908152600b60205260408120805490919061167c9084906142c1565b909155505060405181815233906001600160a01b0384811691908616907f4e186bc75a2220191b826baff3ee63c3e970e94e58a9007ff94c9a7b8e6ebb3f9060200160405180910390a45050600160005550565b336000908152601a602052604090205460ff1661170057604051630942721960e31b815260040160405180910390fd5b6001600160a01b03811660009081526007602052604090205460ff16611739576040516310cec38560e21b815260040160405180910390fd5b6001600160a01b038116600081815260076020526040808220805460ff19169055513392917fe02b2375d8fb4aef3e5bc5d53bffcf70b6f185c5c93e69dcbe8b6cfc58e837e291a350565b6002600054036117a65760405162461bcd60e51b81526004016114a590614470565b60026000556117b660158461334b565b6117d357604051636211d34960e01b815260040160405180910390fd5b601b546001600160a01b03908116908316036118015760405162822d9760e71b815260040160405180910390fd5b6040516370a0823160e01b81523060048201526000906001600160a01b038416906370a0823190602401602060405180830381865afa158015611848573d6000803e3d6000fd5b505050506040513d601f19601f8201168201806040525081019061186c91906142ff565b90506118836001600160a01b03841633308561371b565b6040516370a0823160e01b815230600482015260009082906001600160a01b038616906370a0823190602401602060405180830381865afa1580156118cc573d6000803e3d6000fd5b505050506040513d601f19601f820116820180604052508101906118f091906142ff565b6118fa91906142aa565b905060006127106024548361190f91906144a7565b61191991906144dc565b905061192581836142aa565b6001600160a01b038088166000908152600960209081526040808320938a168352929052908120805490919061195c9084906142c1565b90915550506001600160a01b038087166000908152602560209081526040808320898516808552925290912042905560175461199992168361378c565b6001600160a01b0386166000908152600c602052604090206119bb90866136a8565b50336001600160a01b0316856001600160a01b0316876001600160a01b03167fec1a37d4a331a5059081e0fb5da1735e7890900cd215a4fb1e9f2779fd7b83eb85604051611a0b91815260200190565b60405180910390a45050600160005550505050565b6001600160a01b038281166000908152600160205260409020548391163314611a5c57604051636efb4f4160e11b815260040160405180910390fd5b6001600160a01b03838116600081815260026020908152604080832080546001600160a01b031916888716908117909155600190925280832054905191941692917fa8bad3f0b781e1d954af9945167d5f80bfe5e57930f17c93843187c77557a6b891a4505050565b6001600160a01b038181166000908152600260205260409020548291163314611b015760405163cfe9663360e01b815260040160405180910390fd5b6001600160a01b03828116600081815260016020908152604080832080546002909352818420805487166001600160a01b031980861691909117909255805490911690555193169283929133917fcf30c54296d5eee76168b564c59c50578d49c271733a470f32707c8cfbc88a8b9190a4505050565b6017546001600160a01b03163314611ba2576040516354348f0360e01b815260040160405180910390fd5b611bad6026826137bc565b611bca57604051630a8d08b160e01b815260040160405180910390fd5b6040516001600160a01b03821681527f51199d699bdfd516fa88dd0d2f8487c40c147b4867acaa23adc8d4df6b098e569060200161104d565b6017546001600160a01b03163314611c2e576040516354348f0360e01b815260040160405180910390fd5b6001600160a01b03811660009081526019602052604090205460ff1615611c685760405163546da66560e11b815260040160405180910390fd5b6001600160a01b038116600081815260196020908152604091829020805460ff1916600117905590519182527f049ccb28ab796d3225573a065712f6e7754487ced56056cda8889c337511807b910161104d565b6017546001600160a01b03163314611ce7576040516354348f0360e01b815260040160405180910390fd5b60248190556040518181527f4c10ca068ff7002cf5da78f2f697d1e91f6f0ac27f7344b28e8ef25263f87e5d9060200161104d565b6000805b6001600160a01b0383166000908152600d60205260409020611d41906137d1565b811015611e5e576001600160a01b0383166000908152600d60205260408120611d6a90836137db565b9050611d7760268261334b565b15611e4b576000611d8782611058565b90508060400151600014611e49576001600160a01b0382166000908152600f602052604081205460ff16611dc8578160200151611dc3906142d9565b611dce565b81602001515b601d546001600160a01b03888116600090815260286020908152604080832089851684529091529081902054602254915163a0d2710760e01b81526004810191909152600685900b60248201526044810191909152929350611e3b9291169063a0d2710790606401610d59565b611e4590866142c1565b9450505b505b5080611e56816144f0565b915050611d20565b50919050565b3360009081526019602052604090205460ff16611e9457604051637e57b1e160e01b815260040160405180910390fd5b6001600160a01b03831660009081526007602052604090205460ff16611ecd576040516310cec38560e21b815260040160405180910390fd5b611ed883838361337e565b60175460405163a9059cbb60e01b81526001600160a01b039182166004820152602481018390529083169063a9059cbb906044016020604051808303816000875af1925050508015611f47575060408051601f3d908101601f19168201909252611f4491810190614328565b60015b15611f4e57505b604080516001600160a01b038481168252602082018490523392908616917f6e10247c3c094d220ee99436c164b7f38d63b335a20ed817cbefaee4bb02d20e91015b60405180910390a3505050565b6017546001600160a01b03163314611fc8576040516354348f0360e01b815260040160405180910390fd5b6001600160a01b038116611fef5760405163d92e233d60e01b815260040160405180910390fd5b601d80546001600160a01b0319166001600160a01b0383169081179091556040519081527f71973fd672e51deb8f739b1f7e1eab991936645acd6f83e2bde6eeeaff5490b09060200161104d565b6001600160a01b0381166000908152600d60205260409020606090612061906137d1565b67ffffffffffffffff81111561207957612079614343565b6040519080825280602002602001820160405280156120a2578160200160208202803683370190505b50905060005b6001600160a01b0383166000908152600d602052604090206120c9906137d1565b811015611e5e576001600160a01b0383166000908152600d602052604090206120f290826137db565b82828151811061210457612104614359565b6001600160a01b039092166020928302919091019091015280612126816144f0565b9150506120a8565b6060610ca76015613337565b60008061214683611d1c565b6022546001600160a01b0385166000908152602960205260409020549192509061217090426142aa565b1015610daa576000811161219c576001600160a01b0383166000908152600a60205260409020546121d6565b6001600160a01b0383166000908152600b6020908152604080832054600a909252909120546121cc9083906144a7565b6121d691906144dc565b9150611e5e565b6017546001600160a01b03163314612208576040516354348f0360e01b815260040160405180910390fd5b60208181556040518281527fc8d443472c9783cc36f8f5f5091f08ce9f37fc2f9e6d79cf1d9aaf40a433fee2910161104d565b6060610ca76003613337565b6017546001600160a01b03163314612272576040516354348f0360e01b815260040160405180910390fd5b6001600160a01b0381166000908152601a602052604090205460ff16156122ac5760405163274e25dd60e11b815260040160405180910390fd5b6001600160a01b0381166000818152601a6020908152604091829020805460ff1916600117905590519182527f8addc69f897ecca0e41d70ed4ff9d75a9148a615a0fbda8597e53aea2684302f910161104d565b6001600160a01b03838116600090815260016020526040902054849116331461233c57604051636efb4f4160e11b815260040160405180910390fd5b6001600160a01b0382166123635760405163d92e233d60e01b815260040160405180910390fd5b6001600160a01b03808516600090815260136020908152604080832093871683529290529081205490036123aa5760405163184c088160e21b815260040160405180910390fd5b6001600160a01b0380851660009081526012602090815260408083209387168352929052205442116123ef576040516327cfdcb760e01b815260040160405180910390fd5b6001600160a01b03841660009081526007602052604090205460ff1615612429576040516362e6201d60e01b815260040160405180910390fd5b6001600160a01b038085166000818152601360209081526040808320948816808452948252808320805490849055938352601282528083208584529091528120559061247690848361378c565b826001600160a01b0316846001600160a01b0316866001600160a01b03167ffdb7893bf11f50c621e59cc7f1cf540e94295cb27ca869ec7ed7618ca7928862846040516124c591815260200190565b60405180910390a45050505050565b6017546001600160a01b031633146124ff576040516354348f0360e01b815260040160405180910390fd5b6001600160a01b03811660009081526019602052604090205460ff16612538576040516336fe17e760e21b815260040160405180910390fd5b6001600160a01b038116600081815260196020908152604091829020805460ff1916905590519182527f3ed8cbce8cab40e59282f1743e2b607effa08b5cbe0111bb4721134f2f80d025910161104d565b6017546001600160a01b031633146125b4576040516354348f0360e01b815260040160405180910390fd5b601880546001600160a01b0319166001600160a01b0383169081179091556040519081527fe987aaedf9d279143bdf1eee16cf1d0feb47742867d81083df8d6cd0a5ac857f9060200161104d565b6017546001600160a01b0316331461262d576040516354348f0360e01b815260040160405180910390fd5b60238190556040518181527fbdcfd7b8482f31cff6a87c362d9e2e3887f4cdc2018c7c485d8e78a7b2fadb699060200161104d565b6017546001600160a01b0316331461268d576040516354348f0360e01b815260040160405180910390fd5b6126986026826136a8565b6126b55760405163f25e6b9f60e01b815260040160405180910390fd5b806001600160a01b03166316f0115b6040518163ffffffff1660e01b8152600401602060405180830381865afa1580156126f3573d6000803e3d6000fd5b505050506040513d601f19601f820116820180604052508101906127179190614509565b6001600160a01b038281166000908152600e60205260409081902080546001600160a01b0319169383169384179055601d54905163696a437b60e01b81526004810193909352169063696a437b90602401602060405180830381865afa158015612785573d6000803e3d6000fd5b505050506040513d601f19601f820116820180604052508101906127a99190614328565b6001600160a01b0382166000908152600f60205260409020805460ff19169115159190911790556127d981611058565b6001600160a01b0382166000818152602b6020908152604091829020845181548684015166ffffffffffffff908116600160381b026001600160701b031990921692169190911717815593820151600190940193909355519081527fabfa8db4d238fa78bf4e15fcc91328dd35f3978f200e2857a56bb719732b7b0b910161104d565b6017546001600160a01b03163314612887576040516354348f0360e01b815260040160405180910390fd5b601f8190556040518181527fd319ef78d2b690bb773fcccc2d096306bac7c9222dd0bb6b300f461e4a376b439060200161104d565b6001600160a01b0382166000908152600d602052604090206128de90826136a8565b505050565b6017546001600160a01b0316331461290e576040516354348f0360e01b815260040160405180910390fd5b6001600160a01b0381166129355760405163d92e233d60e01b815260040160405180910390fd5b601c80546001600160a01b0319166001600160a01b0383169081179091556040519081527feb931b4b5a98d20a6b1e6693a7c59d8e337a06e2f1473bb776e19251db7ae2509060200161104d565b6017546001600160a01b031633146129ae576040516354348f0360e01b815260040160405180910390fd5b620151808110156129d257604051633f384aad60e21b815260040160405180910390fd5b60228190556040518181527f54aafa56429e22230b52f1495588ffc632277d74f3a85ec755e13ac50c1584d99060200161104d565b600260005403612a295760405162461bcd60e51b81526004016114a590614470565b600260009081556001600160a01b03858116825260016020526040909120548591163314612a6a57604051636efb4f4160e11b815260040160405180910390fd5b6001600160a01b03808616600090815260256020908152604080832093881683529290522054612a9c90603c906142c1565b4211612abb57604051631e0b407560e01b815260040160405180910390fd5b6001600160a01b03808616600090815260096020908152604080832093881683529290522054831115612b015760405163024ae82d60e61b815260040160405180910390fd5b6001600160a01b03851660009081526007602052604090205460ff1615612b3b5760405163ad2fdf3b60e01b815260040160405180910390fd5b6001600160a01b03808616600090815260096020908152604080832093881683529290529081208054859290612b729084906142aa565b90915550612b8c90506001600160a01b038516838561378c565b6001600160a01b0380861660009081526009602090815260408083209388168352929052908120549003612bde576001600160a01b0385166000908152600c60205260409020612bdc90856137bc565b505b816001600160a01b0316846001600160a01b0316866001600160a01b03167f53e982dd9ec088d634c74c98fbbc161f808b4b6469a26c657120b9a31cb34bfe86604051612c2d91815260200190565b60405180910390a450506001600055505050565b61147f6026826137bc565b6001600160a01b0382166000908152600c602052604090206128de90826136a8565b6001600160a01b0381166000908152600c60205260409020606090612c92906137d1565b67ffffffffffffffff811115612caa57612caa614343565b604051908082528060200260200182016040528015612cd3578160200160208202803683370190505b50905060005b6001600160a01b0383166000908152600c60205260409020612cfa906137d1565b811015611e5e576001600160a01b0383166000908152600c60205260409020612d2390826137db565b828281518110612d3557612d35614359565b6001600160a01b039092166020928302919091019091015280612d57816144f0565b915050612cd9565b6017546001600160a01b03163314612d8a576040516354348f0360e01b815260040160405180910390fd5b60218190556040518181527f24d51b415694a791b1c77df7817c075ac82b83ce611bcd8627d2e66cf37aa3e79060200161104d565b6017546001600160a01b03163314612dea576040516354348f0360e01b815260040160405180910390fd5b6001600160a01b038116612e115760405163d92e233d60e01b815260040160405180910390fd5b601b80546001600160a01b0319166001600160a01b0383169081179091556040519081527f1d1a3e7caf0717056e48dc8aefa54d806c7af86324fece4e5d49f8e1f01f84bf9060200161104d565b6017546001600160a01b03163314612e8a576040516354348f0360e01b815260040160405180910390fd5b6001600160a01b0381166000908152601a602052604090205460ff16612ec357604051633ca0d42760e11b815260040160405180910390fd5b6001600160a01b0381166000818152601a6020908152604091829020805460ff1916905590519182527f5e8bd21d0a98cb2caf33706e56139ff40ffbdca7ec5d9d412a0a2292496dc70e910161104d565b3360009081526019602052604090205460ff16612f4457604051637e57b1e160e01b815260040160405180910390fd5b6001600160a01b03831660009081526007602052604090205460ff16612f7d576040516310cec38560e21b815260040160405180910390fd5b6001600160a01b0383166000908152600c60205260409020612f9f908361334b565b612fbc57604051632eda7a1160e01b815260040160405180910390fd5b6001600160a01b038084166000908152600960209081526040808320938616835292905220548111156130015760405162919bed60e01b815260040160405180910390fd5b60175460405163a9059cbb60e01b81526001600160a01b039182166004820152602481018390529083169063a9059cbb906044016020604051808303816000875af1925050508015613070575060408051601f3d908101601f1916820190925261306d91810190614328565b60015b1561307757505b6001600160a01b038084166000908152600960209081526040808320938616835292905290812080548392906130ae9084906142aa565b90915550506001600160a01b0380841660009081526009602090815260408083209386168352929052908120549003613105576001600160a01b0383166000908152600c6020526040902061310390836137bc565b505b604080516001600160a01b038481168252602082018490523392908616917f20262b97130b5cb8f80624eed2733df2b05db4a0789b4a3d0157e1d3183331049101611f90565b336000908152601a602052604090205460ff1661317b57604051630942721960e31b815260040160405180910390fd5b6001600160a01b03811660009081526007602052604090205460ff16156131b5576040516304ee891b60e11b815260040160405180910390fd5b6001600160a01b038116600081815260076020526040808220805460ff19166001179055513392917f070125a1c0f5202217aae14ec399abfaaa13c2fd98a91d43bd3a897dd4751e8091a350565b6017546001600160a01b0316331461322e576040516354348f0360e01b815260040160405180910390fd5b61323960158361334b565b61325657604051636211d34960e01b815260040160405180910390fd5b61325f826136bd565b6001600160a01b0382166000908152600a6020526040812080548392906132879084906142c1565b90915550506001600160a01b038216600081815260296020908152604080832054600a909252918290205491517f5abcf5031fdbd3badb9d1e09094208de329aee72730e87650f346584205d23d1926132e7928252602082015260400190565b60405180910390a25050565b6000602254826133039190614526565b610daa90836142aa565b6000602254831015611e5e5760225461332683856144a7565b61333091906144dc565b9050610daa565b60606000613344836137e7565b9392505050565b6001600160a01b03811660009081526001830160205260408120541515613344565b6000610daa82602254602354613843565b6002600054036133a05760405162461bcd60e51b81526004016114a590614470565b600260009081556001600160a01b0384168152600d602052604090206133c6908361334b565b6133e2576040516241cfa560e21b815260040160405180910390fd5b6001600160a01b038084166000908152602860209081526040808320938616835292905220548111156134285760405163435b562560e01b815260040160405180910390fd5b613431836138f0565b6000613440610d9a838561358f565b6001600160a01b0385166000908152600b6020526040902054909150156134f6576001600160a01b0384166000908152600b6020908152604080832054600a909252909120546134919083906144a7565b61349b91906144dc565b6001600160a01b0385166000908152600a6020526040812080549091906134c39084906142aa565b90915550506001600160a01b0384166000908152600b6020526040812080548392906134f09084906142aa565b90915550505b6001600160a01b0380851660009081526028602090815260408083209387168352929052908120805484929061352d9084906142aa565b90915550506001600160a01b0380851660009081526028602090815260408083209387168352929052908120549003613584576001600160a01b0384166000908152600d6020526040902061358290846137bc565b505b505060016000555050565b6001600160a01b0381166000908152602b602052604081206001015415610daa576001600160a01b0382166000908152600f602052604081205460ff16613601576001600160a01b0383166000908152602b60205260409020546135fc90600160381b900460060b6142d9565b613625565b6001600160a01b0383166000908152602b6020526040902054600160381b900460060b5b601d5460225460405163a0d2710760e01b815260048101889052600684900b602482015260448101919091529192506001600160a01b03169063a0d2710790606401602060405180830381865afa158015613684573d6000803e3d6000fd5b505050506040513d601f19601f82011682018060405250810190610c9391906142ff565b6000613344836001600160a01b038416613915565b6136c681613964565b506136d081613b3a565b6001600160a01b0381166000908152600a6020908152604080832054600b909252909120546136ff9190613bc8565b6001600160a01b039091166000908152600a6020526040902055565b6040516001600160a01b03808516602483015283166044820152606481018290526137869085906323b872dd60e01b906084015b60408051601f198184030181529190526020810180516001600160e01b03166001600160e01b031990931692909217909152613bde565b50505050565b6040516001600160a01b0383166024820152604481018290526128de90849063a9059cbb60e01b9060640161374f565b6000613344836001600160a01b038416613cb0565b6000610daa825490565b60006133448383613da3565b60608160000180548060200260200160405190810160405280929190818152602001828054801561383757602002820191906000526020600020905b815481526020019060010190808311613823575b50505050509050919050565b600080806000198587098587029250828110838203039150508060000361387c576000841161387157600080fd5b508290049050613344565b80841161388857600080fd5b600084868809600260036001881981018916988990049182028318808302840302808302840302808302840302808302840302808302840302918202909203026000889003889004909101858311909403939093029303949094049190911702949350505050565b6138f981613dcd565b6001600160a01b039091166000908152600b6020526040902055565b600081815260018301602052604081205461395c57508154600181810184556000848152602080822090930184905584548482528286019093526040902091909155610daa565b506000610daa565b600061396f426132f3565b6001600160a01b03831660009081526029602052604090205410156113e65761399f60225442610bb791906142aa565b6001600160a01b03831660009081526029602052604090205411613a15576139c6826138f0565b6001600160a01b0382166000908152600b6020908152604080832054600a909252909120556139f4426132f3565b6001600160a01b038316600090815260296020526040902055506001919050565b6022546001600160a01b038316600090815260296020526040902054613a3b90426142aa565b10613a9757613a49826138f0565b6001600160a01b0382166000908152600b6020908152604080832054600a83528184205560225460299092528220805491929091613a889084906142c1565b90915550600191506113e69050565b613aa0426132f3565b6001600160a01b0383166000908152602a602052604090205410156113e6576001600160a01b0382166000908152600b6020526040902054613ae1836138f0565b6001600160a01b0383166000908152600b6020908152604080832054600a909252909120548291613b11916144a7565b613b1b91906144dc565b6001600160a01b0384166000908152600a602052604090205550919050565b6001600160a01b038116600090815260296020526040902054613b7f90613b6190426142aa565b6001600160a01b0383166000908152600b602052604090205461330d565b6001600160a01b0382166000908152600a602052604081208054909190613ba79084906142c1565b90915550506001600160a01b03166000908152602960205260409020429055565b6000818310613bd75781613344565b5090919050565b6000613c33826040518060400160405280602081526020017f5361666545524332303a206c6f772d6c6576656c2063616c6c206661696c6564815250856001600160a01b0316613fa19092919063ffffffff16565b8051909150156128de5780806020019051810190613c519190614328565b6128de5760405162461bcd60e51b815260206004820152602a60248201527f5361666545524332303a204552433230206f7065726174696f6e20646964206e6044820152691bdd081cdd58d8d9595960b21b60648201526084016114a5565b60008181526001830160205260408120548015613d99576000613cd46001836142aa565b8554909150600090613ce8906001906142aa565b9050818114613d4d576000866000018281548110613d0857613d08614359565b9060005260206000200154905080876000018481548110613d2b57613d2b614359565b6000918252602080832090910192909255918252600188019052604090208390555b8554869080613d5e57613d5e61453a565b600190038181906000526020600020016000905590558560010160008681526020019081526020016000206000905560019350505050610daa565b6000915050610daa565b6000826000018281548110613dba57613dba614359565b9060005260206000200154905092915050565b6000613dd8426132f3565b601e546001600160a01b03166000908152602b602052604090206001015414613e6757601e54613e10906001600160a01b0316611058565b601e546001600160a01b03166000908152602b6020908152604091829020835181549285015166ffffffffffffff908116600160381b026001600160701b0319909416911617919091178155910151600191909101555b60005b6001600160a01b0383166000908152600d60205260409020613e8b906137d1565b811015611e5e576001600160a01b0383166000908152600d60205260408120613eb490836137db565b9050613ec160268261334b565b15613f8e57613ecf426132f3565b6001600160a01b0382166000908152602b602052604090206001015414613f4d57613ef981611058565b6001600160a01b0382166000908152602b6020908152604091829020835181549285015166ffffffffffffff908116600160381b026001600160701b03199094169116179190911781559101516001909101555b6001600160a01b03808516600090815260286020908152604080832093851683529290522054613f8190610d9a908361358f565b613f8b90846142c1565b92505b5080613f99816144f0565b915050613e6a565b6060610c938484600085856001600160a01b0385163b6140035760405162461bcd60e51b815260206004820152601d60248201527f416464726573733a2063616c6c20746f206e6f6e2d636f6e747261637400000060448201526064016114a5565b600080866001600160a01b0316858760405161401f919061457c565b60006040518083038185875af1925050503d806000811461405c576040519150601f19603f3d011682016040523d82523d6000602084013e614061565b606091505b509150915061407182828661407c565b979650505050505050565b6060831561408b575081613344565b82511561409b5782518084602001fd5b8160405162461bcd60e51b81526004016114a59190614598565b6001600160a01b03811681146140ca57600080fd5b50565b6000602082840312156140df57600080fd5b8135613344816140b5565b600080604083850312156140fd57600080fd5b8235614108816140b5565b91506020830135614118816140b5565b809150509250929050565b6020808252825182820181905260009190848201906040850190845b818110156141645783516001600160a01b03168352928401929184019160010161413f565b50909695505050505050565b6000806040838503121561418357600080fd5b823561418e816140b5565b946020939093013593505050565b6000806000606084860312156141b157600080fd5b83356141bc816140b5565b925060208401356141cc816140b5565b929592945050506040919091013590565b6000602082840312156141ef57600080fd5b5035919050565b60008060006060848603121561420b57600080fd5b8335614216816140b5565b92506020840135614226816140b5565b91506040840135614236816140b5565b809150509250925092565b6000806000806080858703121561425757600080fd5b8435614262816140b5565b93506020850135614272816140b5565b9250604085013591506060850135614289816140b5565b939692955090935050565b634e487b7160e01b600052601160045260246000fd5b6000828210156142bc576142bc614294565b500390565b600082198211156142d4576142d4614294565b500190565b60008160060b667fffffffffffff1981036142f6576142f6614294565b60000392915050565b60006020828403121561431157600080fd5b5051919050565b805180151581146113e657600080fd5b60006020828403121561433a57600080fd5b61334482614318565b634e487b7160e01b600052604160045260246000fd5b634e487b7160e01b600052603260045260246000fd5b6001600160a01b038316815260406020808301829052835191830182905260009184820191906060850190845b818110156143be57845163ffffffff168352938301939183019160010161439c565b5090979650505050505050565b8051600681900b81146113e657600080fd5b6000806000606084860312156143f257600080fd5b6143fb846143cb565b9250614409602085016143cb565b915061441760408501614318565b90509250925092565b60008160060b8360060b6000811281667fffffffffffff190183128115161561444b5761444b614294565b81667fffffffffffff01831381161561446657614466614294565b5090039392505050565b6020808252601f908201527f5265656e7472616e637947756172643a207265656e7472616e742063616c6c00604082015260600190565b60008160001904831182151516156144c1576144c1614294565b500290565b634e487b7160e01b600052601260045260246000fd5b6000826144eb576144eb6144c6565b500490565b60006001820161450257614502614294565b5060010190565b60006020828403121561451b57600080fd5b8151613344816140b5565b600082614535576145356144c6565b500690565b634e487b7160e01b600052603160045260246000fd5b60005b8381101561456b578181015183820152602001614553565b838111156137865750506000910152565b6000825161458e818460208701614550565b9190910192915050565b60208152600082518060208401526145b7816040850160208701614550565b601f01601f1916919091016040019291505056fea264697066735822122094612e83241ee3c05d35ff84c8dfc80297be5caff54deb320ed8c30ea8faf2e364736f6c634300080e0033",
  "linkReferences": {},
  "deployedLinkReferences": {}
}