{
  "_format": "hh-sol-artifact-1",
  "contractName": "BasicJob",
  "sourceName": "contracts/for-test/BasicJob.sol",
  "abi": [
    {
      "inputs": [
        {
          "internalType": "address",
          "name": "_keep3r",
          "type": "address"
        }
      ],
      "stateMutability": "nonpayable",
      "type": "constructor"
    },
    {
      "inputs": [],
      "name": "KeeperNotValid",
      "type": "error"
    },
    {
      "inputs": [
        {
          "internalType": "uint256",
          "name": "",
          "type": "uint256"
        }
      ],
      "name": "array",
      "outputs": [
        {
          "internalType": "uint256",
          "name": "",
          "type": "uint256"
        }
      ],
      "stateMutability": "view",
      "type": "function"
    },
    {
      "inputs": [],
      "name": "keep3r",
      "outputs": [
        {
          "internalType": "address",
          "name": "",
          "type": "address"
        }
      ],
      "stateMutability": "view",
      "type": "function"
    },
    {
      "inputs": [],
      "name": "nonce",
      "outputs": [
        {
          "internalType": "uint256",
          "name": "",
          "type": "uint256"
        }
      ],
      "stateMutability": "view",
      "type": "function"
    },
    {
      "inputs": [],
      "name": "work",
      "outputs": [],
      "stateMutability": "nonpayable",
      "type": "function"
    },
    {
      "inputs": [
        {
          "internalType": "uint256",
          "name": "_howHard",
          "type": "uint256"
        }
      ],
      "name": "workHard",
      "outputs": [],
      "stateMutability": "nonpayable",
      "type": "function"
    },
    {
      "inputs": [
        {
          "internalType": "uint256",
          "name": "_howHard",
          "type": "uint256"
        }
      ],
      "name": "workRefund",
      "outputs": [],
      "stateMutability": "nonpayable",
      "type": "function"
    }
  ],
  "bytecode": "0x608060405234801561001057600080fd5b5060405161055438038061055483398101604081905261002f91610054565b600080546001600160a01b0319166001600160a01b0392909216919091179055610084565b60006020828403121561006657600080fd5b81516001600160a01b038116811461007d57600080fd5b9392505050565b6104c1806100936000396000f3fe608060405234801561001057600080fd5b50600436106100625760003560e01c8063322e9f041461006757806338d94193146100715780633bb39c3314610097578063634c7bb5146100aa578063affed0e0146100d5578063ead731ad146100de575b600080fd5b61006f6100f1565b005b61008461007f36600461040c565b6101bf565b6040519081526020015b60405180910390f35b61006f6100a536600461040c565b6101e0565b6000546100bd906001600160a01b031681565b6040516001600160a01b03909116815260200161008e565b61008460015481565b61006f6100ec36600461040c565b6102e5565b6000546040516335d2155560e11b81523360048201526001600160a01b0390911690636ba42aaa906024016020604051808303816000875af115801561013b573d6000803e3d6000fd5b505050506040513d601f19601f8201168201806040525081019061015f9190610425565b506000546040516317fbade560e21b81523360048201526001600160a01b0390911690635feeb79490602401600060405180830381600087803b1580156101a557600080fd5b505af11580156101b9573d6000803e3d6000fd5b50505050565b600281815481106101cf57600080fd5b600091825260209091200154905081565b6000546040516335d2155560e11b81523360048201526001600160a01b0390911690636ba42aaa906024016020604051808303816000875af115801561022a573d6000803e3d6000fd5b505050506040513d601f19601f8201168201806040525081019061024e9190610425565b506001545b81811015610283576001805490600061026b8361044e565b9190505550808061027b9061044e565b915050610253565b506000546040516317fbade560e21b81523360048201526001600160a01b0390911690635feeb794906024015b600060405180830381600087803b1580156102ca57600080fd5b505af11580156102de573d6000803e3d6000fd5b5050505050565b6000546040516335d2155560e11b81523360048201526001600160a01b0390911690636ba42aaa906024016020604051808303816000875af115801561032f573d6000803e3d6000fd5b505050506040513d601f19601f820116820180604052508101906103539190610425565b5060005b818110156103a657600280546001810182556000919091527f405787fa12a823e0f2b7631cc41b3ba8828b3321ca811111fa75cd3aa3bb5ace018190558061039e8161044e565b915050610357565b505b600254156103dc5760028054806103c1576103c1610475565b600190038181906000526020600020016000905590556103a8565b6000546040516317fbade560e21b81523360048201526001600160a01b0390911690635feeb794906024016102b0565b60006020828403121561041e57600080fd5b5035919050565b60006020828403121561043757600080fd5b8151801515811461044757600080fd5b9392505050565b60006001820161046e57634e487b7160e01b600052601160045260246000fd5b5060010190565b634e487b7160e01b600052603160045260246000fdfea2646970667358221220fae6a9399a21998c19ea3c4ce34aca1841496c95b17f9a7f540cd14e6adcf96e64736f6c634300080e0033",
  "linkReferences": {},
  "deployedLinkReferences": {}
}