{
  "_format": "hh-sol-artifact-1",
  "contractName": "Keep3rJobManagerForTest",
  "sourceName": "contracts/for-test/peripherals/jobs/Keep3rJobManagerForTest.sol",
  "abi": [
    {
      "inputs": [
        {
          "internalType": "address",
          "name": "_keep3rHelper",
          "type": "address"
        },
        {
          "internalType": "address",
          "name": "_keep3rV1",
          "type": "address"
        },
        {
          "internalType": "address",
          "name": "_keep3rV1Proxy",
          "type": "address"
        },
        {
          "internalType": "address",
          "name": "_kp3rWethPool",
          "type": "address"
        }
      ],
      "stateMutability": "nonpayable",
      "type": "constructor"
    },
    {
      "inputs": [],
      "name": "AlreadyAKeeper",
      "type": "error"
    },
    {
      "inputs": [],
      "name": "BondsLocked",
      "type": "error"
    },
    {
      "inputs": [],
      "name": "BondsUnexistent",
      "type": "error"
    },
    {
      "inputs": [],
      "name": "Disputed",
      "type": "error"
    },
    {
      "inputs": [],
      "name": "DisputerExistent",
      "type": "error"
    },
    {
      "inputs": [],
      "name": "DisputerUnexistent",
      "type": "error"
    },
    {
      "inputs": [],
      "name": "JobAlreadyAdded",
      "type": "error"
    },
    {
      "inputs": [],
      "name": "JobDisputed",
      "type": "error"
    },
    {
      "inputs": [],
      "name": "JobUnavailable",
      "type": "error"
    },
    {
      "inputs": [],
      "name": "MinRewardPeriod",
      "type": "error"
    },
    {
      "inputs": [],
      "name": "NoGovernanceZeroAddress",
      "type": "error"
    },
    {
      "inputs": [],
      "name": "OnlyDisputer",
      "type": "error"
    },
    {
      "inputs": [],
      "name": "OnlyGovernance",
      "type": "error"
    },
    {
      "inputs": [],
      "name": "OnlyJobOwner",
      "type": "error"
    },
    {
      "inputs": [],
      "name": "OnlyPendingGovernance",
      "type": "error"
    },
    {
      "inputs": [],
      "name": "OnlyPendingJobOwner",
      "type": "error"
    },
    {
      "inputs": [],
      "name": "OnlySlasher",
      "type": "error"
    },
    {
      "inputs": [],
      "name": "SlasherExistent",
      "type": "error"
    },
    {
      "inputs": [],
      "name": "SlasherUnexistent",
      "type": "error"
    },
    {
      "inputs": [],
      "name": "UnbondsLocked",
      "type": "error"
    },
    {
      "inputs": [],
      "name": "UnbondsUnexistent",
      "type": "error"
    },
    {
      "inputs": [],
      "name": "ZeroAddress",
      "type": "error"
    },
    {
      "anonymous": false,
      "inputs": [
        {
          "indexed": false,
          "internalType": "uint256",
          "name": "_bondTime",
          "type": "uint256"
        }
      ],
      "name": "BondTimeChange",
      "type": "event"
    },
    {
      "anonymous": false,
      "inputs": [
        {
          "indexed": true,
          "internalType": "address",
          "name": "_keeper",
          "type": "address"
        },
        {
          "indexed": true,
          "internalType": "address",
          "name": "_bonding",
          "type": "address"
        },
        {
          "indexed": false,
          "internalType": "uint256",
          "name": "_amount",
          "type": "uint256"
        }
      ],
      "name": "Bonding",
      "type": "event"
    },
    {
      "anonymous": false,
      "inputs": [
        {
          "indexed": false,
          "internalType": "address",
          "name": "_disputer",
          "type": "address"
        }
      ],
      "name": "DisputerAdded",
      "type": "event"
    },
    {
      "anonymous": false,
      "inputs": [
        {
          "indexed": false,
          "internalType": "address",
          "name": "_disputer",
          "type": "address"
        }
      ],
      "name": "DisputerRemoved",
      "type": "event"
    },
    {
      "anonymous": false,
      "inputs": [
        {
          "indexed": false,
          "internalType": "uint256",
          "name": "_fee",
          "type": "uint256"
        }
      ],
      "name": "FeeChange",
      "type": "event"
    },
    {
      "anonymous": false,
      "inputs": [
        {
          "indexed": false,
          "internalType": "address",
          "name": "_pendingGovernance",
          "type": "address"
        }
      ],
      "name": "GovernanceProposal",
      "type": "event"
    },
    {
      "anonymous": false,
      "inputs": [
        {
          "indexed": false,
          "internalType": "address",
          "name": "_governance",
          "type": "address"
        }
      ],
      "name": "GovernanceSet",
      "type": "event"
    },
    {
      "anonymous": false,
      "inputs": [
        {
          "indexed": false,
          "internalType": "uint256",
          "name": "_inflationPeriod",
          "type": "uint256"
        }
      ],
      "name": "InflationPeriodChange",
      "type": "event"
    },
    {
      "anonymous": false,
      "inputs": [
        {
          "indexed": true,
          "internalType": "address",
          "name": "_job",
          "type": "address"
        },
        {
          "indexed": true,
          "internalType": "address",
          "name": "_jobOwner",
          "type": "address"
        }
      ],
      "name": "JobAddition",
      "type": "event"
    },
    {
      "anonymous": false,
      "inputs": [
        {
          "indexed": true,
          "internalType": "address",
          "name": "_job",
          "type": "address"
        },
        {
          "indexed": true,
          "internalType": "address",
          "name": "_previousOwner",
          "type": "address"
        },
        {
          "indexed": true,
          "internalType": "address",
          "name": "_newOwner",
          "type": "address"
        }
      ],
      "name": "JobOwnershipAssent",
      "type": "event"
    },
    {
      "anonymous": false,
      "inputs": [
        {
          "indexed": true,
          "internalType": "address",
          "name": "_job",
          "type": "address"
        },
        {
          "indexed": true,
          "internalType": "address",
          "name": "_owner",
          "type": "address"
        },
        {
          "indexed": true,
          "internalType": "address",
          "name": "_pendingOwner",
          "type": "address"
        }
      ],
      "name": "JobOwnershipChange",
      "type": "event"
    },
    {
      "anonymous": false,
      "inputs": [
        {
          "indexed": false,
          "internalType": "address",
          "name": "_keep3rHelper",
          "type": "address"
        }
      ],
      "name": "Keep3rHelperChange",
      "type": "event"
    },
    {
      "anonymous": false,
      "inputs": [
        {
          "indexed": false,
          "internalType": "address",
          "name": "_keep3rV1",
          "type": "address"
        }
      ],
      "name": "Keep3rV1Change",
      "type": "event"
    },
    {
      "anonymous": false,
      "inputs": [
        {
          "indexed": false,
          "internalType": "address",
          "name": "_keep3rV1Proxy",
          "type": "address"
        }
      ],
      "name": "Keep3rV1ProxyChange",
      "type": "event"
    },
    {
      "anonymous": false,
      "inputs": [
        {
          "indexed": false,
          "internalType": "address",
          "name": "_kp3rWethPool",
          "type": "address"
        }
      ],
      "name": "Kp3rWethPoolChange",
      "type": "event"
    },
    {
      "anonymous": false,
      "inputs": [
        {
          "indexed": false,
          "internalType": "uint256",
          "name": "_liquidityMinimum",
          "type": "uint256"
        }
      ],
      "name": "LiquidityMinimumChange",
      "type": "event"
    },
    {
      "anonymous": false,
      "inputs": [
        {
          "indexed": false,
          "internalType": "uint256",
          "name": "_rewardPeriodTime",
          "type": "uint256"
        }
      ],
      "name": "RewardPeriodTimeChange",
      "type": "event"
    },
    {
      "anonymous": false,
      "inputs": [
        {
          "indexed": false,
          "internalType": "address",
          "name": "_slasher",
          "type": "address"
        }
      ],
      "name": "SlasherAdded",
      "type": "event"
    },
    {
      "anonymous": false,
      "inputs": [
        {
          "indexed": false,
          "internalType": "address",
          "name": "_slasher",
          "type": "address"
        }
      ],
      "name": "SlasherRemoved",
      "type": "event"
    },
    {
      "anonymous": false,
      "inputs": [
        {
          "indexed": false,
          "internalType": "uint256",
          "name": "_unbondTime",
          "type": "uint256"
        }
      ],
      "name": "UnbondTimeChange",
      "type": "event"
    },
    {
      "anonymous": false,
      "inputs": [
        {
          "indexed": true,
          "internalType": "address",
          "name": "_keeperOrJob",
          "type": "address"
        },
        {
          "indexed": true,
          "internalType": "address",
          "name": "_unbonding",
          "type": "address"
        },
        {
          "indexed": false,
          "internalType": "uint256",
          "name": "_amount",
          "type": "uint256"
        }
      ],
      "name": "Unbonding",
      "type": "event"
    },
    {
      "inputs": [],
      "name": "acceptGovernance",
      "outputs": [],
      "stateMutability": "nonpayable",
      "type": "function"
    },
    {
      "inputs": [
        {
          "internalType": "address",
          "name": "_job",
          "type": "address"
        }
      ],
      "name": "acceptJobOwnership",
      "outputs": [],
      "stateMutability": "nonpayable",
      "type": "function"
    },
    {
      "inputs": [
        {
          "internalType": "address",
          "name": "_disputer",
          "type": "address"
        }
      ],
      "name": "addDisputer",
      "outputs": [],
      "stateMutability": "nonpayable",
      "type": "function"
    },
    {
      "inputs": [
        {
          "internalType": "address",
          "name": "_job",
          "type": "address"
        }
      ],
      "name": "addJob",
      "outputs": [],
      "stateMutability": "nonpayable",
      "type": "function"
    },
    {
      "inputs": [
        {
          "internalType": "address",
          "name": "_slasher",
          "type": "address"
        }
      ],
      "name": "addSlasher",
      "outputs": [],
      "stateMutability": "nonpayable",
      "type": "function"
    },
    {
      "inputs": [],
      "name": "bondTime",
      "outputs": [
        {
          "internalType": "uint256",
          "name": "",
          "type": "uint256"
        }
      ],
      "stateMutability": "view",
      "type": "function"
    },
    {
      "inputs": [
        {
          "internalType": "address",
          "name": "",
          "type": "address"
        },
        {
          "internalType": "address",
          "name": "",
          "type": "address"
        }
      ],
      "name": "bonds",
      "outputs": [
        {
          "internalType": "uint256",
          "name": "",
          "type": "uint256"
        }
      ],
      "stateMutability": "view",
      "type": "function"
    },
    {
      "inputs": [
        {
          "internalType": "address",
          "name": "",
          "type": "address"
        },
        {
          "internalType": "address",
          "name": "",
          "type": "address"
        }
      ],
      "name": "canActivateAfter",
      "outputs": [
        {
          "internalType": "uint256",
          "name": "",
          "type": "uint256"
        }
      ],
      "stateMutability": "view",
      "type": "function"
    },
    {
      "inputs": [
        {
          "internalType": "address",
          "name": "",
          "type": "address"
        },
        {
          "internalType": "address",
          "name": "",
          "type": "address"
        }
      ],
      "name": "canWithdrawAfter",
      "outputs": [
        {
          "internalType": "uint256",
          "name": "",
          "type": "uint256"
        }
      ],
      "stateMutability": "view",
      "type": "function"
    },
    {
      "inputs": [
        {
          "internalType": "address",
          "name": "_job",
          "type": "address"
        },
        {
          "internalType": "address",
          "name": "_newOwner",
          "type": "address"
        }
      ],
      "name": "changeJobOwnership",
      "outputs": [],
      "stateMutability": "nonpayable",
      "type": "function"
    },
    {
      "inputs": [
        {
          "internalType": "address",
          "name": "",
          "type": "address"
        }
      ],
      "name": "disputers",
      "outputs": [
        {
          "internalType": "bool",
          "name": "",
          "type": "bool"
        }
      ],
      "stateMutability": "view",
      "type": "function"
    },
    {
      "inputs": [
        {
          "internalType": "address",
          "name": "",
          "type": "address"
        }
      ],
      "name": "disputes",
      "outputs": [
        {
          "internalType": "bool",
          "name": "",
          "type": "bool"
        }
      ],
      "stateMutability": "view",
      "type": "function"
    },
    {
      "inputs": [],
      "name": "fee",
      "outputs": [
        {
          "internalType": "uint256",
          "name": "",
          "type": "uint256"
        }
      ],
      "stateMutability": "view",
      "type": "function"
    },
    {
      "inputs": [
        {
          "internalType": "address",
          "name": "",
          "type": "address"
        }
      ],
      "name": "firstSeen",
      "outputs": [
        {
          "internalType": "uint256",
          "name": "",
          "type": "uint256"
        }
      ],
      "stateMutability": "view",
      "type": "function"
    },
    {
      "inputs": [],
      "name": "governance",
      "outputs": [
        {
          "internalType": "address",
          "name": "",
          "type": "address"
        }
      ],
      "stateMutability": "view",
      "type": "function"
    },
    {
      "inputs": [
        {
          "internalType": "address",
          "name": "",
          "type": "address"
        }
      ],
      "name": "hasBonded",
      "outputs": [
        {
          "internalType": "bool",
          "name": "",
          "type": "bool"
        }
      ],
      "stateMutability": "view",
      "type": "function"
    },
    {
      "inputs": [],
      "name": "inflationPeriod",
      "outputs": [
        {
          "internalType": "uint256",
          "name": "",
          "type": "uint256"
        }
      ],
      "stateMutability": "view",
      "type": "function"
    },
    {
      "inputs": [
        {
          "internalType": "address",
          "name": "_job",
          "type": "address"
        }
      ],
      "name": "isJob",
      "outputs": [
        {
          "internalType": "bool",
          "name": "_isJob",
          "type": "bool"
        }
      ],
      "stateMutability": "view",
      "type": "function"
    },
    {
      "inputs": [
        {
          "internalType": "address",
          "name": "",
          "type": "address"
        }
      ],
      "name": "jobOwner",
      "outputs": [
        {
          "internalType": "address",
          "name": "",
          "type": "address"
        }
      ],
      "stateMutability": "view",
      "type": "function"
    },
    {
      "inputs": [
        {
          "internalType": "address",
          "name": "",
          "type": "address"
        }
      ],
      "name": "jobPendingOwner",
      "outputs": [
        {
          "internalType": "address",
          "name": "",
          "type": "address"
        }
      ],
      "stateMutability": "view",
      "type": "function"
    },
    {
      "inputs": [
        {
          "internalType": "address",
          "name": "",
          "type": "address"
        },
        {
          "internalType": "address",
          "name": "",
          "type": "address"
        }
      ],
      "name": "jobTokenCredits",
      "outputs": [
        {
          "internalType": "uint256",
          "name": "",
          "type": "uint256"
        }
      ],
      "stateMutability": "view",
      "type": "function"
    },
    {
      "inputs": [],
      "name": "jobs",
      "outputs": [
        {
          "internalType": "address[]",
          "name": "_list",
          "type": "address[]"
        }
      ],
      "stateMutability": "view",
      "type": "function"
    },
    {
      "inputs": [],
      "name": "keep3rHelper",
      "outputs": [
        {
          "internalType": "address",
          "name": "",
          "type": "address"
        }
      ],
      "stateMutability": "view",
      "type": "function"
    },
    {
      "inputs": [],
      "name": "keep3rV1",
      "outputs": [
        {
          "internalType": "address",
          "name": "",
          "type": "address"
        }
      ],
      "stateMutability": "view",
      "type": "function"
    },
    {
      "inputs": [],
      "name": "keep3rV1Proxy",
      "outputs": [
        {
          "internalType": "address",
          "name": "",
          "type": "address"
        }
      ],
      "stateMutability": "view",
      "type": "function"
    },
    {
      "inputs": [],
      "name": "keepers",
      "outputs": [
        {
          "internalType": "address[]",
          "name": "_list",
          "type": "address[]"
        }
      ],
      "stateMutability": "view",
      "type": "function"
    },
    {
      "inputs": [],
      "name": "kp3rWethPool",
      "outputs": [
        {
          "internalType": "address",
          "name": "",
          "type": "address"
        }
      ],
      "stateMutability": "view",
      "type": "function"
    },
    {
      "inputs": [],
      "name": "liquidityMinimum",
      "outputs": [
        {
          "internalType": "uint256",
          "name": "",
          "type": "uint256"
        }
      ],
      "stateMutability": "view",
      "type": "function"
    },
    {
      "inputs": [
        {
          "internalType": "address",
          "name": "",
          "type": "address"
        },
        {
          "internalType": "address",
          "name": "",
          "type": "address"
        }
      ],
      "name": "pendingBonds",
      "outputs": [
        {
          "internalType": "uint256",
          "name": "",
          "type": "uint256"
        }
      ],
      "stateMutability": "view",
      "type": "function"
    },
    {
      "inputs": [],
      "name": "pendingGovernance",
      "outputs": [
        {
          "internalType": "address",
          "name": "",
          "type": "address"
        }
      ],
      "stateMutability": "view",
      "type": "function"
    },
    {
      "inputs": [
        {
          "internalType": "address",
          "name": "",
          "type": "address"
        },
        {
          "internalType": "address",
          "name": "",
          "type": "address"
        }
      ],
      "name": "pendingUnbonds",
      "outputs": [
        {
          "internalType": "uint256",
          "name": "",
          "type": "uint256"
        }
      ],
      "stateMutability": "view",
      "type": "function"
    },
    {
      "inputs": [
        {
          "internalType": "address",
          "name": "_disputer",
          "type": "address"
        }
      ],
      "name": "removeDisputer",
      "outputs": [],
      "stateMutability": "nonpayable",
      "type": "function"
    },
    {
      "inputs": [
        {
          "internalType": "address",
          "name": "_slasher",
          "type": "address"
        }
      ],
      "name": "removeSlasher",
      "outputs": [],
      "stateMutability": "nonpayable",
      "type": "function"
    },
    {
      "inputs": [],
      "name": "rewardPeriodTime",
      "outputs": [
        {
          "internalType": "uint256",
          "name": "",
          "type": "uint256"
        }
      ],
      "stateMutability": "view",
      "type": "function"
    },
    {
      "inputs": [
        {
          "internalType": "uint256",
          "name": "_bondTime",
          "type": "uint256"
        }
      ],
      "name": "setBondTime",
      "outputs": [],
      "stateMutability": "nonpayable",
      "type": "function"
    },
    {
      "inputs": [
        {
          "internalType": "uint256",
          "name": "_fee",
          "type": "uint256"
        }
      ],
      "name": "setFee",
      "outputs": [],
      "stateMutability": "nonpayable",
      "type": "function"
    },
    {
      "inputs": [
        {
          "internalType": "address",
          "name": "_governance",
          "type": "address"
        }
      ],
      "name": "setGovernance",
      "outputs": [],
      "stateMutability": "nonpayable",
      "type": "function"
    },
    {
      "inputs": [
        {
          "internalType": "uint256",
          "name": "_inflationPeriod",
          "type": "uint256"
        }
      ],
      "name": "setInflationPeriod",
      "outputs": [],
      "stateMutability": "nonpayable",
      "type": "function"
    },
    {
      "inputs": [
        {
          "internalType": "address",
          "name": "_keep3rHelper",
          "type": "address"
        }
      ],
      "name": "setKeep3rHelper",
      "outputs": [],
      "stateMutability": "nonpayable",
      "type": "function"
    },
    {
      "inputs": [
        {
          "internalType": "address",
          "name": "_keep3rV1",
          "type": "address"
        }
      ],
      "name": "setKeep3rV1",
      "outputs": [],
      "stateMutability": "nonpayable",
      "type": "function"
    },
    {
      "inputs": [
        {
          "internalType": "address",
          "name": "_keep3rV1Proxy",
          "type": "address"
        }
      ],
      "name": "setKeep3rV1Proxy",
      "outputs": [],
      "stateMutability": "nonpayable",
      "type": "function"
    },
    {
      "inputs": [
        {
          "internalType": "address",
          "name": "_kp3rWethPool",
          "type": "address"
        }
      ],
      "name": "setKp3rWethPool",
      "outputs": [],
      "stateMutability": "nonpayable",
      "type": "function"
    },
    {
      "inputs": [
        {
          "internalType": "uint256",
          "name": "_liquidityMinimum",
          "type": "uint256"
        }
      ],
      "name": "setLiquidityMinimum",
      "outputs": [],
      "stateMutability": "nonpayable",
      "type": "function"
    },
    {
      "inputs": [
        {
          "internalType": "uint256",
          "name": "_rewardPeriodTime",
          "type": "uint256"
        }
      ],
      "name": "setRewardPeriodTime",
      "outputs": [],
      "stateMutability": "nonpayable",
      "type": "function"
    },
    {
      "inputs": [
        {
          "internalType": "uint256",
          "name": "_unbondTime",
          "type": "uint256"
        }
      ],
      "name": "setUnbondTime",
      "outputs": [],
      "stateMutability": "nonpayable",
      "type": "function"
    },
    {
      "inputs": [
        {
          "internalType": "address",
          "name": "",
          "type": "address"
        }
      ],
      "name": "slashers",
      "outputs": [
        {
          "internalType": "bool",
          "name": "",
          "type": "bool"
        }
      ],
      "stateMutability": "view",
      "type": "function"
    },
    {
      "inputs": [],
      "name": "unbondTime",
      "outputs": [
        {
          "internalType": "uint256",
          "name": "",
          "type": "uint256"
        }
      ],
      "stateMutability": "view",
      "type": "function"
    },
    {
      "inputs": [
        {
          "internalType": "address",
          "name": "",
          "type": "address"
        }
      ],
      "name": "workCompleted",
      "outputs": [
        {
          "internalType": "uint256",
          "name": "",
          "type": "uint256"
        }
      ],
      "stateMutability": "view",
      "type": "function"
    }
  ],
  "bytecode": "0x60806040526203f480601e5562127500601f556729a2241af62c000060205562069780602155622cd300602255601e6023553480156200003e57600080fd5b5060405162001750380380620017508339810160408190526200006191620001af565b83838383338080620000855760405162b293ed60e81b815260040160405180910390fd5b601680546001600160a01b03199081166001600160a01b0393841617909155601c80548216888416178155601a80548316888516179055601b80548316878516179055601d8054831686851690811782556000818152600d602052604090819020805490951690911790935590549054915163696a437b60e01b81529183166004830152909116915063696a437b90602401602060405180830381865afa15801562000135573d6000803e3d6000fd5b505050506040513d601f19601f820116820180604052508101906200015b91906200020c565b6001600160a01b03919091166000908152600e60205260409020805460ff1916911515919091179055506200023795505050505050565b80516001600160a01b0381168114620001aa57600080fd5b919050565b60008060008060808587031215620001c657600080fd5b620001d18562000192565b9350620001e16020860162000192565b9250620001f16040860162000192565b9150620002016060860162000192565b905092959194509250565b6000602082840312156200021f57600080fd5b815180151581146200023057600080fd5b9392505050565b61150980620002476000396000f3fe608060405234801561001057600080fd5b50600436106102a05760003560e01c8063951dc22c11610167578063c7ae40d0116100ce578063ebbb619411610087578063ebbb6194146106d0578063ec00cdfc146106e3578063f0f346b9146106f6578063f11a1d1a14610709578063f39c38a01461071c578063fc253d2b1461072f57600080fd5b8063c7ae40d014610643578063cb4be2bb14610656578063cb54694d14610669578063cd22af1b1461067c578063ddca3f43146106a7578063e326ac43146106b057600080fd5b8063ab033ea911610120578063ab033ea9146105b1578063b0103b1a146105c4578063b2392233146105e7578063b7e77340146105fa578063b87fcbff1461060d578063c5198abc1461063057600080fd5b8063951dc22c1461052657806398e90a0f1461052e5780639d5c33d814610557578063a39744b51461056a578063a7d2e78414610595578063aac6aa9c1461059e57600080fd5b80635aa6e6751161020b578063768b5d90116101c4578063768b5d90146104965780637b40c9131461049f5780637c8fce23146104b2578063878c723e146104c75780638cb22b76146104f05780638fe204dd1461051357600080fd5b80635aa6e675146104385780635ebe23f01461044b578063633fb68f1461045457806368a9f19c1461045d57806369fe0e2d1461047057806372da828a1461048357600080fd5b80631ef94b911161025d5780631ef94b911461039157806321040b01146103bc578063238efcbc146103e7578063274a8db4146103ef578063594a3a931461041257806359a2255e1461042557600080fd5b806307b435c2146102a557806315006b82146102e3578063160e1e311461030e578063168f92e7146103235780631b44555e1461034e5780631cd5c01f1461036e575b600080fd5b6102d06102b33660046113fd565b601160209081526000928352604080842090915290825290205481565b6040519081526020015b60405180910390f35b6102d06102f13660046113fd565b600f60209081526000928352604080842090915290825290205481565b61032161031c366004611430565b610738565b005b6102d06103313660046113fd565b600860209081526000928352604080842090915290825290205481565b6102d061035c366004611430565b60046020526000908152604090205481565b61038161037c366004611430565b610886565b60405190151581526020016102da565b601a546103a4906001600160a01b031681565b6040516001600160a01b0390911681526020016102da565b6102d06103ca3660046113fd565b601260209081526000928352604080842090915290825290205481565b610321610899565b6103816103fd366004611430565b60196020526000908152604090205460ff1681565b6103216104203660046113fd565b610922565b610321610433366004611430565b6109c6565b6016546103a4906001600160a01b031681565b6102d0601e5481565b6102d060205481565b61032161046b366004611430565b610a76565b61032161047e36600461144b565b610b2f565b610321610491366004611430565b610b8f565b6102d060215481565b601d546103a4906001600160a01b031681565b6104ba610c2f565b6040516102da9190611464565b6103a46104d5366004611430565b6000602081905290815260409020546001600160a01b031681565b6103816104fe366004611430565b60136020526000908152604090205460ff1681565b61032161052136600461144b565b610c40565b6104ba610ca0565b6103a461053c366004611430565b6001602052600090815260409020546001600160a01b031681565b610321610565366004611430565b610cac565b6102d06105783660046113fd565b600760209081526000928352604080842090915290825290205481565b6102d0601f5481565b6103216105ac366004611430565b610d65565b6103216105bf366004611430565b610e1a565b6103816105d2366004611430565b60066020526000908152604090205460ff1681565b6103216105f536600461144b565b610e93565b61032161060836600461144b565b610ef3565b61038161061b366004611430565b60186020526000908152604090205460ff1681565b61032161063e366004611430565b610f53565b601b546103a4906001600160a01b031681565b610321610664366004611430565b611018565b61032161067736600461144b565b6110b8565b6102d061068a3660046113fd565b601060209081526000928352604080842090915290825290205481565b6102d060235481565b6102d06106be366004611430565b60056020526000908152604090205481565b6103216106de36600461144b565b61113c565b6103216106f1366004611430565b61119a565b610321610704366004611430565b61123a565b601c546103a4906001600160a01b031681565b6017546103a4906001600160a01b031681565b6102d060225481565b6016546001600160a01b03163314610763576040516354348f0360e01b815260040160405180910390fd5b6001600160a01b03811661078a5760405163d92e233d60e01b815260040160405180910390fd5b601d80546001600160a01b038381166001600160a01b031992831681179093556000838152600d60205260409081902080549093168417909255601c54915163696a437b60e01b81526004810193909352169063696a437b90602401602060405180830381865afa158015610803573d6000803e3d6000fd5b505050506040513d601f19601f8201168201806040525081019061082791906114b1565b6001600160a01b0382166000818152600e6020908152604091829020805460ff191694151594909417909355519081527f9bb1515b0fc2645a3f011162460a22fdd512e0bca265e7dc9ba6bceae8930afa91015b60405180910390a150565b60006108936014836112ef565b92915050565b6017546001600160a01b031633146108c457604051637ef5703160e11b815260040160405180910390fd5b60178054601680546001600160a01b0383166001600160a01b031991821681179092559091169091556040519081527fc73be659241aade67e9a059bcf21494955018b213dbd1179054ccf928b13f3b69060200160405180910390a1565b6001600160a01b03828116600090815260208190526040902054839116331461095e57604051636efb4f4160e11b815260040160405180910390fd5b6001600160a01b03838116600081815260016020908152604080832080546001600160a01b0319168887169081179091559183905280832054905191941692917fa8bad3f0b781e1d954af9945167d5f80bfe5e57930f17c93843187c77557a6b891a4505050565b6001600160a01b038181166000908152600160205260409020548291163314610a025760405163cfe9663360e01b815260040160405180910390fd5b6001600160a01b0382811660008181526020818152604080832080546001909352818420805487166001600160a01b031980861691909117909255805490911690555193169283929133917fcf30c54296d5eee76168b564c59c50578d49c271733a470f32707c8cfbc88a8b9190a4505050565b6016546001600160a01b03163314610aa1576040516354348f0360e01b815260040160405180910390fd5b6001600160a01b03811660009081526018602052604090205460ff1615610adb5760405163546da66560e11b815260040160405180910390fd5b6001600160a01b038116600081815260186020908152604091829020805460ff1916600117905590519182527f049ccb28ab796d3225573a065712f6e7754487ced56056cda8889c337511807b910161087b565b6016546001600160a01b03163314610b5a576040516354348f0360e01b815260040160405180910390fd5b60238190556040518181527f4c10ca068ff7002cf5da78f2f697d1e91f6f0ac27f7344b28e8ef25263f87e5d9060200161087b565b6016546001600160a01b03163314610bba576040516354348f0360e01b815260040160405180910390fd5b6001600160a01b038116610be15760405163d92e233d60e01b815260040160405180910390fd5b601c80546001600160a01b0319166001600160a01b0383169081179091556040519081527f71973fd672e51deb8f739b1f7e1eab991936645acd6f83e2bde6eeeaff5490b09060200161087b565b6060610c3b6014611314565b905090565b6016546001600160a01b03163314610c6b576040516354348f0360e01b815260040160405180910390fd5b601f8190556040518181527fc8d443472c9783cc36f8f5f5091f08ce9f37fc2f9e6d79cf1d9aaf40a433fee29060200161087b565b6060610c3b6002611314565b6016546001600160a01b03163314610cd7576040516354348f0360e01b815260040160405180910390fd5b6001600160a01b03811660009081526019602052604090205460ff1615610d115760405163274e25dd60e11b815260040160405180910390fd5b6001600160a01b038116600081815260196020908152604091829020805460ff1916600117905590519182527f8addc69f897ecca0e41d70ed4ff9d75a9148a615a0fbda8597e53aea2684302f910161087b565b6016546001600160a01b03163314610d90576040516354348f0360e01b815260040160405180910390fd5b6001600160a01b03811660009081526018602052604090205460ff16610dc9576040516336fe17e760e21b815260040160405180910390fd5b6001600160a01b038116600081815260186020908152604091829020805460ff1916905590519182527f3ed8cbce8cab40e59282f1743e2b607effa08b5cbe0111bb4721134f2f80d025910161087b565b6016546001600160a01b03163314610e45576040516354348f0360e01b815260040160405180910390fd5b601780546001600160a01b0319166001600160a01b0383169081179091556040519081527fe987aaedf9d279143bdf1eee16cf1d0feb47742867d81083df8d6cd0a5ac857f9060200161087b565b6016546001600160a01b03163314610ebe576040516354348f0360e01b815260040160405180910390fd5b60228190556040518181527fbdcfd7b8482f31cff6a87c362d9e2e3887f4cdc2018c7c485d8e78a7b2fadb699060200161087b565b6016546001600160a01b03163314610f1e576040516354348f0360e01b815260040160405180910390fd5b601e8190556040518181527fd319ef78d2b690bb773fcccc2d096306bac7c9222dd0bb6b300f461e4a376b439060200161087b565b610f5e6014826112ef565b15610f7c57604051630809740d60e01b815260040160405180910390fd5b6001600160a01b03811660009081526013602052604090205460ff1615610fb657604051632f3d320560e01b815260040160405180910390fd5b610fc1601482611321565b506001600160a01b03811660008181526020819052604080822080546001600160a01b03191633908117909155905190917fed3faef50715743626cd57de74281a2b17cdbfc11c0486feda541fb911e0293d91a350565b6016546001600160a01b03163314611043576040516354348f0360e01b815260040160405180910390fd5b6001600160a01b03811661106a5760405163d92e233d60e01b815260040160405180910390fd5b601b80546001600160a01b0319166001600160a01b0383169081179091556040519081527feb931b4b5a98d20a6b1e6693a7c59d8e337a06e2f1473bb776e19251db7ae2509060200161087b565b6016546001600160a01b031633146110e3576040516354348f0360e01b815260040160405180910390fd5b6201518081101561110757604051633f384aad60e21b815260040160405180910390fd5b60218190556040518181527f54aafa56429e22230b52f1495588ffc632277d74f3a85ec755e13ac50c1584d99060200161087b565b6016546001600160a01b03163314611167576040516354348f0360e01b815260040160405180910390fd5b60208181556040518281527f24d51b415694a791b1c77df7817c075ac82b83ce611bcd8627d2e66cf37aa3e7910161087b565b6016546001600160a01b031633146111c5576040516354348f0360e01b815260040160405180910390fd5b6001600160a01b0381166111ec5760405163d92e233d60e01b815260040160405180910390fd5b601a80546001600160a01b0319166001600160a01b0383169081179091556040519081527f1d1a3e7caf0717056e48dc8aefa54d806c7af86324fece4e5d49f8e1f01f84bf9060200161087b565b6016546001600160a01b03163314611265576040516354348f0360e01b815260040160405180910390fd5b6001600160a01b03811660009081526019602052604090205460ff1661129e57604051633ca0d42760e11b815260040160405180910390fd5b6001600160a01b038116600081815260196020908152604091829020805460ff1916905590519182527f5e8bd21d0a98cb2caf33706e56139ff40ffbdca7ec5d9d412a0a2292496dc70e910161087b565b6001600160a01b038116600090815260018301602052604081205415155b9392505050565b6060600061130d83611336565b600061130d836001600160a01b038416611392565b60608160000180548060200260200160405190810160405280929190818152602001828054801561138657602002820191906000526020600020905b815481526020019060010190808311611372575b50505050509050919050565b60008181526001830160205260408120546113d957508154600181810184556000848152602080822090930184905584548482528286019093526040902091909155610893565b506000610893565b80356001600160a01b03811681146113f857600080fd5b919050565b6000806040838503121561141057600080fd5b611419836113e1565b9150611427602084016113e1565b90509250929050565b60006020828403121561144257600080fd5b61130d826113e1565b60006020828403121561145d57600080fd5b5035919050565b6020808252825182820181905260009190848201906040850190845b818110156114a55783516001600160a01b031683529284019291840191600101611480565b50909695505050505050565b6000602082840312156114c357600080fd5b8151801515811461130d57600080fdfea264697066735822122007aa6c10436c88fd46684223eb6b848f0c5a372dd5506784ef66b61208d298a864736f6c634300080e0033",
  "linkReferences": {},
  "deployedLinkReferences": {}
}